ACAM4N6
HFDTE230515
HFFXA050
HFPLTPILOT:JOHN WELSH              
HFGTYGLIDERTYPE:HORNET      
HFGIDGLIDERID:VH-GMY      
HFDTM100GPSDATUM:
HFRFWFIRMWAREVERSION:F2.6
HFRHWHARDWAREVERSION:300 Series Version 2
HFFTYFRTYPE:CAMBRIDGE AERO INSTRUMENTS, 302+
HFGPS:GARMIN,LVS-25,12,18000
HFPRSPRESSALTSENSOR:INTERSEMA, MS5534-AP, 20000
I033638FXA3941ENL4247REX
LCAMSBVER:5FWVER:F26300
C050415050137050415000102
C0000000N00000000WTAKEOFF     
C3207549S11656849EBEVAIR      
C3123325S11712260EWATRCRRN    
C3212499S11757329EBILBARIN    
C3207549S11656849EBEVAIR      
C0000000N00000000WLANDING     
B0500183207739S11657099EA0017700216000000000000
B0500203207739S11657099EA0017700216000000000000
B0500223207739S11657099EA0017700216000000000000
B0500243207739S11657099EA0017700216000000000000
B0500263207739S11657099EA0017600216000000000000
B0500283207739S11657099EA0017700216000000000000
B0500303207739S11657099EA0017700216000000000000
B0500323207739S11657099EA0017700216000000000000
B0500343207739S11657099EA0017600216000000000000
B0500363207739S11657099EA0017700216000000000000
B0500383207739S11657099EA0017800216000000000000
B0500403207739S11657099EA0017700216000000000000
B0500423207739S11657099EA0017600216000000000000
B0500443207739S11657099EA0017700216000000000000
B0500463207736S11657098EA0017700216000000000000
B0500473207733S11657096EA0017700216000000000000
B0500513207711S11657088EA0017700216000000000000
B0500553207674S11657070EA0017700216000000000000
B0500593207623S11657042EA0017600217000000000000
B0501033207562S11657005EA0017700218000000000000
B0501073207494S11656966EA0018000223000000000000
B0501113207425S11656925EA0018700232000000000000
B0501153207354S11656883EA0020100245000000000000
B0501193207280S11656844EA0021500260000000000000
B0501233207212S11656792EA0023000275000000000000
B0501273207152S11656730EA0024800297000000000000
B0501313207094S11656663EA0026400309000000000000
B0501353207039S11656597EA0027600325000000000000
B0501393206985S11656531EA0029500342000000000000
B0501433206931S11656467EA0030900362000000000000
B0501473206877S11656410EA0032800380000000000000
B0501513206810S11656370EA0034900399000000000000
B0501553206735S11656347EA0036100407000000000000
B0501593206658S11656341EA0037100430000000000000
B0502033206582S11656346EA0039600450000000000000
B0502073206505S11656371EA0041200463000000000000
B0502113206431S11656410EA0042300479000000000000
B0502153206367S11656466EA0044600502000000000000
B0502193206318S11656532EA0047200531000000000000
B0502233206280S11656610EA0049300547000000000000
B0502273206260S11656698EA0050600563000000000000
B0502313206266S11656789EA0052200580000000000000
B0502353206293S11656873EA0053700593000000000000
B0502393206338S11656947EA0054700601000000000000
B0502433206400S11657003EA0055500610000000000000
B0502473206470S11657042EA0056300617000000000000
B0502513206546S11657059EA0057400631000000000000
B0502553206623S11657059EA0058400645000000000000
B0502593206697S11657040EA0060000663000000000000
B0503033206766S11657009EA0062000683000000000000
B0503073206831S11656964EA0063700698000000000000
B0503113206890S11656906EA0065300718000000000000
B0503153206938S11656834EA0067500741000000000000
B0503193206977S11656749EA0069200758000000000000
B0503233206986S11656667EA0070400770000000000000
B0503273206962S11656592EA0070500765000000000000
B0503313206930S11656524EA0070000759000000000000
B0503353206896S11656459EA0070000759000000000000
B0503393206861S11656399EA0070100759000000000000
B0503433206813S11656353EA0070300761000000000000
B0503473206751S11656367EA0070800768000000000000
B0503513206709S11656429EA0071000770000000000000
B0503553206717S11656509EA0071200769000000000000
B0503593206767S11656552EA0071300769000000000000
B0504033206819S11656526EA0071300767000000000000
B0504073206839S11656466EA0070400760000000000000
B0504113206843S11656398EA0069900757000000000000
B0504153206842S11656328EA0069800757000000000000
B0504193206834S11656258EA0070400765000000000000
B0504233206784S11656233EA0071800776000000000000
B0504273206756S11656294EA0072500783000000000000
B0504313206787S11656353EA0073100793000000000000
B0504353206836S11656359EA0074400805000000000000
B0504393206858S11656314EA0074900807000000000000
B0504433206822S11656272EA0075300813000000000000
B0504473206766S11656288EA0076000820000000000000
B0504513206740S11656353EA0076500825000000000000
B0504553206760S11656418EA0077200833000000000000
B0504593206809S11656445EA0077800840000000000000
B0505033206853S11656419EA0078300843000000000000
B0505073206864S11656363EA0078600848000000000000
B0505113206832S11656315EA0079100853000000000000
B0505153206775S11656318EA0079900858000000000000
B0505193206744S11656380EA0080200863000000000000
B0505233206762S11656448EA0080900869000000000000
B0505273206813S11656471EA0081500873000000000000
B0505313206853S11656435EA0081700873000000000000
B0505353206849S11656372EA0081900882000000000000
B0505393206801S11656344EA0082900891000000000000
B0505433206752S11656376EA0083700897000000000000
B0505473206747S11656446EA0084100901000000000000
B0505513206788S11656496EA0084700907000000000000
B0505553206842S11656490EA0085400912000000000000
B0505593206869S11656440EA0085500915000000000000
B0506033206865S11656377EA0085200912000000000000
B0506073206834S11656320EA0085100911000000000000
B0506103206778S11656297EA0085500915000000000000
B0506143206715S11656318EA0085600915000000000000
B0506183206687S11656381EA0086400929000000000000
B0506223206728S11656419EA0087800935000000000000
B0506263206769S11656381EA0087500934000000000000
B0506303206760S11656319EA0088000939000000000000
B0506343206706S11656293EA0088700947000000000000
B0506383206657S11656331EA0090000961000000000000
B0506423206660S11656402EA0091200971000000000000
B0506463206709S11656431EA0092100979000000000000
B0506503206747S11656394EA0092700984000000000000
B0506543206728S11656338EA0093000989000000000000
B0506583206673S11656320EA0093800999000000000000
B0507023206623S11656359EA0095101013000000000000
B0507063206611S11656428EA0096501024000000000000
B0507103206644S11656484EA0097201029000000000000
B0507143206696S11656494EA0097701034000000000000
B0507183206736S11656459EA0098001036000000000000
B0507223206735S11656401EA0098301037000000000000
B0507263206689S11656367EA0098601041000000000000
B0507303206636S11656394EA0099701055000000000000
B0507343206622S11656462EA0100401061000000000000
B0507383206660S11656516EA0101001068000000000000
B0507423206714S11656520EA0101901076000000000000
B0507463206749S11656477EA0102201078000000000000
B0507503206748S11656416EA0102201077000000000000
B0507543206708S11656377EA0102601082000000000000
B0507583206653S11656389EA0103001085000000000000
B0508023206619S11656449EA0103901097000000000000
B0508063206631S11656515EA0105101112000000000000
B0508103206676S11656539EA0106201121000000000000
B0508143206714S11656502EA0106501121000000000000
B0508183206708S11656445EA0106701124000000000000
B0508223206663S11656412EA0107301129000000000000
B0508263206610S11656424EA0107901135000000000000
B0508303206574S11656479EA0108201135000000000000
B0508343206575S11656549EA0109001145000000000000
B0508383206614S11656596EA0110101157000000000000
B0508423206666S11656601EA0110501159000000000000
B0508463206708S11656565EA0110901164000000000000
B0508503206710S11656506EA0111201165000000000000
B0508543206671S11656463EA0111001165000000000000
B0508583206615S11656462EA0111601171000000000000
B0509023206572S11656510EA0112201176000000000000
B0509063206572S11656583EA0112001173000000000000
B0509103206622S11656624EA0112801183000000000000
B0509143206669S11656592EA0113001187000000000000
B0509183206661S11656529EA0113401191000000000000
B0509223206609S11656500EA0113801198000000000000
B0509263206553S11656524EA0114401199000000000000
B0509303206522S11656592EA0114001194000000000000
B0509343206527S11656675EA0113801195000000000000
B0509383206563S11656739EA0115001210000000000000
B0509423206619S11656747EA0115801214000000000000
B0509463206660S11656706EA0115501208000000000000
B0509503206658S11656640EA0115401210000000000000
B0509543206615S11656593EA0115301209000000000000
B0509583206552S11656588EA0115201208000000000000
B0510023206496S11656633EA0115501209000000000000
B0510063206474S11656715EA0115101207000000000000
B0510103206475S11656806EA0115101206000000000000
B0510143206496S11656893EA0115701217000000000000
B0510183206545S11656944EA0117201228000000000000
B0510223206605S11656962EA0117001223000000000000
B0510263206673S11656968EA0116001209000000000000
B0510303206745S11656965EA0114801197000000000000
B0510343206818S11656958EA0114101194000000000000
B0510383206890S11656956EA0113701190000000000000
B0510423206961S11656957EA0112801181000000000000
B0510463207035S11656964EA0112201174000000000000
B0510503207109S11656978EA0111801172000000000000
B0510543207183S11656996EA0111201164000000000000
B0510583207259S11657018EA0110701159000000000000
B0511023207332S11657044EA0110301157000000000000
B0511063207401S11657070EA0110001154000000000000
B0511103207469S11657098EA0109701151000000000000
B0511143207537S11657127EA0109301145000000000000
B0511183207605S11657157EA0108601138000000000000
B0511223207674S11657185EA0108001134000000000000
B0511263207741S11657207EA0107901135000000000000
B0511303207806S11657228EA0108401139000000000000
B0511343207870S11657247EA0109001142000000000000
B0511383207932S11657265EA0109201144000000000000
B0511423207995S11657283EA0108801140000000000000
B0511463208058S11657291EA0108401134000000000000
B0511503208125S11657285EA0107701130000000000000
B0511543208191S11657270EA0107101120000000000000
B0511583208257S11657251EA0106401118000000000000
B0512023208324S11657233EA0106201117000000000000
B0512063208389S11657213EA0106301118000000000000
B0512103208452S11657195EA0106301117000000000000
B0512143208517S11657178EA0106001114000000000000
B0512183208586S11657161EA0105201105000000000000
B0512223208656S11657146EA0104301097000000000000
B0512263208727S11657126EA0103901094000000000000
B0512303208795S11657105EA0103601092000000000000
B0512343208860S11657081EA0103501089000000000000
B0512383208928S11657057EA0102601077000000000000
B0512423208993S11657030EA0101801072000000000000
B0512463209054S11657000EA0101601071000000000000
B0512503209115S11656971EA0101301068000000000000
B0512543209179S11656942EA0100501059000000000000
B0512583209244S11656917EA0100301059000000000000
B0513023209305S11656895EA0100101054000000000000
B0513063209366S11656869EA0100101056000000000000
B0513103209426S11656851EA0100101053000000000000
B0513143209488S11656847EA0099901050000000000000
B0513183209553S11656857EA0099301043000000000000
B0513223209618S11656871EA0098601037000000000000
B0513263209685S11656878EA0098201029000000000000
B0513303209750S11656886EA0098301034000000000000
B0513343209816S11656888EA0098701037000000000000
B0513383209872S11656860EA0099501049000000000000
B0513423209860S11656800EA0101301067000000000000
B0513463209803S11656797EA0102201075000000000000
B0513503209763S11656857EA0102901082000000000000
B0513543209770S11656932EA0103401086000000000000
B0513583209822S11656977EA0103601086000000000000
B0514023209880S11656957EA0104101094000000000000
B0514063209906S11656899EA0104701102000000000000
B0514103209887S11656835EA0105801115000000000000
B0514143209835S11656800EA0106701121000000000000
B0514183209772S11656818EA0106801121000000000000
B0514223209737S11656890EA0107301127000000000000
B0514263209761S11656957EA0108101140000000000000
B0514303209817S11656966EA0109201151000000000000
B0514343209847S11656918EA0110301160000000000000
B0514383209820S11656865EA0110801165000000000000
B0514423209759S11656858EA0111401169000000000000
B0514463209709S11656914EA0111501171000000000000
B0514503209707S11656991EA0112201180000000000000
B0514543209747S11657043EA0113001190000000000000
B0514583209802S11657049EA0114001198000000000000
B0515023209843S11657012EA0114401202000000000000
B0515063209839S11656952EA0114901210000000000000
B0515103209789S11656923EA0115701214000000000000
B0515143209729S11656952EA0115901215000000000000
B0515183209695S11657023EA0116101217000000000000
B0515223209715S11657094EA0116901226000000000000
B0515263209767S11657124EA0117501234000000000000
B0515303209821S11657109EA0118101239000000000000
B0515343209868S11657073EA0118401242000000000000
B0515383209911S11657026EA0118801248000000000000
B0515423209951S11656975EA0119201249000000000000
B0515463209994S11656922EA0118701243000000000000
B0515503210038S11656865EA0117801232000000000000
B0515543210089S11656808EA0116701224000000000000
B0515583210140S11656749EA0115801214000000000000
B0516023210194S11656692EA0114801206000000000000
B0516063210251S11656636EA0114101201000000000000
B0516103210309S11656581EA0113701198000000000000
B0516143210363S11656527EA0113601200000000000000
B0516183210413S11656471EA0113701198000000000000
B0516223210459S11656412EA0113201190000000000000
B0516263210505S11656353EA0112201180000000000000
B0516303210552S11656290EA0111301172000000000000
B0516343210599S11656229EA0110601166000000000000
B0516383210647S11656168EA0109701157000000000000
B0516423210695S11656106EA0108801147000000000000
B0516463210742S11656042EA0107701135000000000000
B0516503210788S11655977EA0107001129000000000000
B0516543210836S11655915EA0106601126000000000000
B0516583210885S11655855EA0106601129000000000000
B0517023210933S11655792EA0106801130000000000000
B0517063210979S11655730EA0106901129000000000000
B0517103211015S11655660EA0107601140000000000000
B0517143211041S11655592EA0109101152000000000000
B0517183211052S11655522EA0109101148000000000000
B0517223211017S11655463EA0109301153000000000000
B0517263210953S11655457EA0109501151000000000000
B0517303210898S11655512EA0109401151000000000000
B0517343210883S11655599EA0109401150000000000000
B0517383210907S11655684EA0109701155000000000000
B0517423210955S11655752EA0110401161000000000000
B0517463211021S11655783EA0110801167000000000000
B0517503211086S11655766EA0111101170000000000000
B0517543211116S11655709EA0111401174000000000000
B0517583211094S11655652EA0111801178000000000000
B0518023211037S11655635EA0111901175000000000000
B0518063210977S11655674EA0111601172000000000000
B0518103210934S11655748EA0111101169000000000000
B0518143210911S11655840EA0111301174000000000000
B0518183210937S11655915EA0113101199000000000000
B0518223210991S11655931EA0114601205000000000000
B0518263211026S11655890EA0113901197000000000000
B0518303211011S11655829EA0113901200000000000000
B0518343210959S11655800EA0114301204000000000000
B0518383210899S11655830EA0115101211000000000000
B0518423210866S11655899EA0115601217000000000000
B0518463210872S11655974EA0116501228000000000000
B0518503210912S11656026EA0117401235000000000000
B0518543210968S11656043EA0117501233000000000000
B0518583211013S11656017EA0117301232000000000000
B0519023211031S11655964EA0117201232000000000000
B0519063211030S11655903EA0116901228000000000000
B0519103211018S11655835EA0115601214000000000000
B0519143211002S11655764EA0114201200000000000000
B0519183210979S11655687EA0113101188000000000000
B0519223210955S11655610EA0112601184000000000000
B0519263210930S11655535EA0112301182000000000000
B0519303210904S11655462EA0112101178000000000000
B0519343210877S11655392EA0111901177000000000000
B0519383210851S11655324EA0111501171000000000000
B0519423210826S11655255EA0110801163000000000000
B0519463210804S11655184EA0110101155000000000000
B0519503210781S11655114EA0109501147000000000000
B0519543210757S11655042EA0108601139000000000000
B0519583210734S11654972EA0107801132000000000000
B0520023210712S11654901EA0107301125000000000000
B0520063210690S11654828EA0106301116000000000000
B0520103210669S11654754EA0105901112000000000000
B0520143210653S11654681EA0105301105000000000000
B0520183210640S11654607EA0104501096000000000000
B0520223210630S11654533EA0103701088000000000000
B0520263210622S11654460EA0103401088000000000000
B0520303210618S11654387EA0103001083000000000000
B0520343210619S11654314EA0103101086000000000000
B0520383210627S11654241EA0104001097000000000000
B0520423210630S11654174EA0104801101000000000000
B0520463210592S11654124EA0105301109000000000000
B0520503210536S11654139EA0105901109000000000000
B0520543210504S11654202EA0105001101000000000000
B0520583210511S11654279EA0104301095000000000000
B0521023210552S11654338EA0104001095000000000000
B0521063210606S11654378EA0104301099000000000000
B0521103210664S11654395EA0105301110000000000000
B0521143210691S11654355EA0106001112000000000000
B0521183210664S11654304EA0105001101000000000000
B0521223210606S11654297EA0104301096000000000000
B0521263210552S11654338EA0103801090000000000000
B0521303210498S11654396EA0102601081000000000000
B0521343210439S11654451EA0102401078000000000000
B0521383210378S11654505EA0102401080000000000000
B0521423210315S11654559EA0102301077000000000000
B0521463210253S11654617EA0102201078000000000000
B0521503210196S11654677EA0102601080000000000000
B0521543210170S11654752EA0103501091000000000000
B0521583210197S11654812EA0104001094000000000000
B0522023210248S11654815EA0103901092000000000000
B0522063210274S11654771EA0103701091000000000000
B0522103210264S11654715EA0103201085000000000000
B0522143210222S11654670EA0102501078000000000000
B0522183210164S11654639EA0101601068000000000000
B0522223210102S11654611EA0101001066000000000000
B0522263210040S11654582EA0101201070000000000000
B0522303209981S11654556EA0102201077000000000000
B0522343209923S11654533EA0102401078000000000000
B0522383209858S11654535EA0102201073000000000000
B0522423209793S11654570EA0101401066000000000000
B0522463209730S11654620EA0100501057000000000000
B0522503209669S11654676EA0099701048000000000000
B0522543209608S11654737EA0098701037000000000000
B0522583209546S11654799EA0097601030000000000000
B0523023209487S11654856EA0097801035000000000000
B0523063209436S11654910EA0098501038000000000000
B0523103209386S11654960EA0097901029000000000000
B0523143209331S11655011EA0097101016000000000000
B0523183209276S11655063EA0096201011000000000000
B0523223209223S11655111EA0096501016000000000000
B0523263209172S11655158EA0096601016000000000000
B0523303209132S11655218EA0096601017000000000000
B0523343209120S11655292EA0097601032000000000000
B0523383209163S11655333EA0099201044000000000000
B0523423209206S11655298EA0099401049000000000000
B0523463209202S11655240EA0100201057000000000000
B0523503209159S11655210EA0100701060000000000000
B0523543209105S11655231EA0100301053000000000000
B0523583209074S11655297EA0099801053000000000000
B0524023209088S11655371EA0100601066000000000000
B0524063209141S11655378EA0102301080000000000000
B0524103209149S11655322EA0102701084000000000000
B0524143209104S11655298EA0103801094000000000000
B0524183209065S11655345EA0104301096000000000000
B0524223209075S11655414EA0105001107000000000000
B0524263209124S11655440EA0106301120000000000000
B0524303209162S11655405EA0107201128000000000000
B0524343209156S11655350EA0107801135000000000000
B0524383209113S11655328EA0108801143000000000000
B0524423209070S11655356EA0109101144000000000000
B0524463209053S11655423EA0109201149000000000000
B0524503209084S11655479EA0110201161000000000000
B0524543209137S11655476EA0111501174000000000000
B0524583209156S11655428EA0112301179000000000000
B0525023209124S11655388EA0112501182000000000000
B0525063209072S11655397EA0112701184000000000000
B0525103209045S11655457EA0113601193000000000000
B0525143209070S11655519EA0114401201000000000000
B0525183209124S11655527EA0115301218000000000000
B0525223209148S11655482EA0116601224000000000000
B0525263209126S11655437EA0116801224000000000000
B0525303209076S11655436EA0116701226000000000000
B0525343209040S11655486EA0117601234000000000000
B0525383209049S11655551EA0118601247000000000000
B0525423209102S11655566EA0119301252000000000000
B0525463209127S11655519EA0119801259000000000000
B0525503209094S11655482EA0120401265000000000000
B0525543209046S11655501EA0120701264000000000000
B0525583209032S11655567EA0121201272000000000000
B0526023209074S11655614EA0121901280000000000000
B0526063209128S11655599EA0122601287000000000000
B0526103209146S11655548EA0123301292000000000000
B0526143209120S11655501EA0123101287000000000000
B0526183209067S11655500EA0122701287000000000000
B0526223209027S11655551EA0123401292000000000000
B0526263209028S11655625EA0123601297000000000000
B0526303209076S11655669EA0124401305000000000000
B0526343209128S11655649EA0125401316000000000000
B0526383209139S11655596EA0125801318000000000000
B0526423209104S11655561EA0125701318000000000000
B0526463209055S11655582EA0126101321000000000000
B0526503209037S11655647EA0126501323000000000000
B0526543209066S11655707EA0126701327000000000000
B0526583209120S11655725EA0127201334000000000000
B0527023209163S11655694EA0127501332000000000000
B0527063209174S11655636EA0127001328000000000000
B0527103209152S11655577EA0125401312000000000000
B0527143209118S11655512EA0124201296000000000000
B0527183209078S11655445EA0122601283000000000000
B0527223209032S11655376EA0121001268000000000000
B0527263208990S11655302EA0120201260000000000000
B0527303208953S11655224EA0119401253000000000000
B0527343208920S11655148EA0119401250000000000000
B0527383208892S11655068EA0118701240000000000000
B0527423208862S11654988EA0118001233000000000000
B0527463208832S11654910EA0117401227000000000000
B0527503208799S11654834EA0117101222000000000000
B0527543208769S11654758EA0116801223000000000000
B0527583208743S11654680EA0117501231000000000000
B0528023208719S11654607EA0118201236000000000000
B0528063208693S11654534EA0118601238000000000000
B0528103208665S11654464EA0118701240000000000000
B0528143208632S11654399EA0118901243000000000000
B0528183208597S11654336EA0119301243000000000000
B0528223208564S11654274EA0119501246000000000000
B0528263208537S11654209EA0119701247000000000000
B0528303208513S11654143EA0119701250000000000000
B0528343208481S11654085EA0120601255000000000000
B0528383208421S11654074EA0120601255000000000000
B0528423208373S11654130EA0120401249000000000000
B0528463208356S11654215EA0119201238000000000000
B0528503208346S11654309EA0117401222000000000000
B0528543208337S11654409EA0116101208000000000000
B0528583208327S11654508EA0116201218000000000000
B0529023208320S11654603EA0116601221000000000000
B0529063208313S11654695EA0117201228000000000000
B0529103208309S11654780EA0118301243000000000000
B0529143208301S11654862EA0118201235000000000000
B0529183208292S11654947EA0117001221000000000000
B0529223208278S11655037EA0116201214000000000000
B0529263208272S11655125EA0116201219000000000000
B0529303208272S11655213EA0117001226000000000000
B0529343208294S11655292EA0117901236000000000000
B0529383208347S11655314EA0118801246000000000000
B0529423208378S11655275EA0119601251000000000000
B0529463208356S11655226EA0119601249000000000000
B0529503208305S11655214EA0119501250000000000000
B0529543208252S11655242EA0119801250000000000000
B0529583208221S11655306EA0120401260000000000000
B0530023208242S11655372EA0121201268000000000000
B0530063208294S11655380EA0121601270000000000000
B0530103208317S11655331EA0121601270000000000000
B0530143208292S11655279EA0121401271000000000000
B0530183208234S11655266EA0121401268000000000000
B0530223208179S11655310EA0121401273000000000000
B0530263208162S11655389EA0122601284000000000000
B0530303208187S11655462EA0123801294000000000000
B0530343208239S11655497EA0124201299000000000000
B0530383208291S11655484EA0124701304000000000000
B0530423208312S11655437EA0125401310000000000000
B0530463208299S11655387EA0125501312000000000000
B0530503208256S11655365EA0125901316000000000000
B0530543208201S11655383EA0125601312000000000000
B0530583208151S11655424EA0126001316000000000000
B0531023208103S11655478EA0126301321000000000000
B0531063208056S11655535EA0126401318000000000000
B0531103208008S11655595EA0125701311000000000000
B0531143207956S11655655EA0124901303000000000000
B0531183207901S11655713EA0124301297000000000000
B0531223207844S11655759EA0124001293000000000000
B0531263207783S11655794EA0123601288000000000000
B0531303207720S11655824EA0122801279000000000000
B0531343207657S11655851EA0122101275000000000000
B0531383207593S11655874EA0122601283000000000000
B0531423207532S11655899EA0123101282000000000000
B0531463207469S11655924EA0122201272000000000000
B0531503207404S11655954EA0121201260000000000000
B0531543207336S11655983EA0120301250000000000000
B0531583207269S11656011EA0119701246000000000000
B0532023207203S11656030EA0119101237000000000000
B0532063207135S11656048EA0118401232000000000000
B0532103207069S11656069EA0117801227000000000000
B0532143207008S11656106EA0117501222000000000000
B0532183206962S11656171EA0116801217000000000000
B0532223206948S11656254EA0116001209000000000000
B0532263206964S11656338EA0115101201000000000000
B0532303206994S11656420EA0114701198000000000000
B0532343207024S11656500EA0114201194000000000000
B0532383207055S11656578EA0114101193000000000000
B0532423207099S11656639EA0114001194000000000000
B0532463207157S11656662EA0113901190000000000000
B0532503207220S11656654EA0112901179000000000000
B0532543207282S11656640EA0112301176000000000000
B0532583207342S11656618EA0112501178000000000000
B0533023207395S11656588EA0113201191000000000000
B0533063207443S11656553EA0114201197000000000000
B0533103207479S11656503EA0114901208000000000000
B0533143207460S11656455EA0117001226000000000000
B0533183207410S11656468EA0117701227000000000000
B0533223207393S11656539EA0117401227000000000000
B0533263207427S11656597EA0118201238000000000000
B0533303207484S11656604EA0118901243000000000000
B0533343207516S11656554EA0118801240000000000000
B0533383207486S11656497EA0119201248000000000000
B0533423207427S11656492EA0120101260000000000000
B0533463207381S11656540EA0121101266000000000000
B0533503207381S11656613EA0121601272000000000000
B0533543207421S11656667EA0122601282000000000000
B0533583207480S11656675EA0123001282000000000000
B0534023207529S11656640EA0122601279000000000000
B0534063207563S11656583EA0122901287000000000000
B0534103207590S11656523EA0123301289000000000000
B0534143207616S11656458EA0122801284000000000000
B0534183207645S11656390EA0123001288000000000000
B0534223207676S11656324EA0124501298000000000000
B0534263207707S11656256EA0125201307000000000000
B0534303207740S11656190EA0125301311000000000000
B0534343207771S11656123EA0124301297000000000000
B0534383207802S11656050EA0123001287000000000000
B0534423207835S11655980EA0122401282000000000000
B0534463207867S11655908EA0121601274000000000000
B0534503207900S11655834EA0120901267000000000000
B0534543207930S11655759EA0120701269000000000000
B0534583207957S11655686EA0121501278000000000000
B0535023207986S11655614EA0122101281000000000000
B0535063208015S11655543EA0122301285000000000000
B0535103208044S11655473EA0122801288000000000000
B0535143208073S11655400EA0122101277000000000000
B0535183208103S11655326EA0121601275000000000000
B0535223208130S11655249EA0121501274000000000000
B0535263208156S11655176EA0121901283000000000000
B0535303208183S11655112EA0123201290000000000000
B0535343208208S11655049EA0123401291000000000000
B0535383208208S11654981EA0123301292000000000000
B0535423208174S11654925EA0122901279000000000000
B0535463208123S11654871EA0120801259000000000000
B0535503208062S11654815EA0119101245000000000000
B0535543207997S11654761EA0117901234000000000000
B0535583207930S11654712EA0117601232000000000000
B0536023207863S11654667EA0118501246000000000000
B0536063207796S11654676EA0121601274000000000000
B0536103207776S11654742EA0123801293000000000000
B0536143207822S11654772EA0124401296000000000000
B0536183207852S11654730EA0125001307000000000000
B0536223207815S11654696EA0126101316000000000000
B0536263207762S11654724EA0126501319000000000000
B0536303207750S11654795EA0127001327000000000000
B0536343207788S11654847EA0127201330000000000000
B0536383207843S11654837EA0127801336000000000000
B0536423207850S11654782EA0129001350000000000000
B0536463207800S11654765EA0130601363000000000000
B0536503207755S11654815EA0130701364000000000000
B0536543207762S11654885EA0131701374000000000000
B0536583207809S11654925EA0131801375000000000000
B0537023207862S11654917EA0132301382000000000000
B0537063207888S11654872EA0132701387000000000000
B0537103207867S11654825EA0133601397000000000000
B0537143207813S11654820EA0134401403000000000000
B0537183207762S11654871EA0134901406000000000000
B0537223207753S11654945EA0135701420000000000000
B0537263207792S11654993EA0136301422000000000000
B0537303207844S11654982EA0136101420000000000000
B0537343207866S11654930EA0136401426000000000000
B0537383207846S11654877EA0137201437000000000000
B0537423207793S11654859EA0137901442000000000000
B0537463207742S11654907EA0138101442000000000000
B0537503207746S11654985EA0138701452000000000000
B0537543207792S11655025EA0140001466000000000000
B0537583207836S11655011EA0141001472000000000000
B0538023207850S11654962EA0141501477000000000000
B0538063207820S11654921EA0142201485000000000000
B0538103207765S11654933EA0142701489000000000000
B0538143207729S11654997EA0143001488000000000000
B0538183207748S11655066EA0143301498000000000000
B0538223207797S11655081EA0144301506000000000000
B0538263207826S11655040EA0144901513000000000000
B0538303207806S11654992EA0145601520000000000000
B0538343207749S11654984EA0146201525000000000000
B0538383207702S11655033EA0146101521000000000000
B0538423207713S11655107EA0146301528000000000000
B0538463207762S11655144EA0147201538000000000000
B0538503207809S11655131EA0148101544000000000000
B0538543207828S11655081EA0148201545000000000000
B0538583207801S11655032EA0148401552000000000000
B0539023207746S11655024EA0149301555000000000000
B0539063207697S11655066EA0149501555000000000000
B0539103207676S11655137EA0149301555000000000000
B0539143207702S11655205EA0150001565000000000000
B0539183207754S11655233EA0150801573000000000000
B0539223207802S11655213EA0151001573000000000000
B0539263207822S11655159EA0151301577000000000000
B0539303207797S11655109EA0152101586000000000000
B0539343207746S11655094EA0152701588000000000000
B0539383207696S11655119EA0153101595000000000000
B0539423207658S11655170EA0153401591000000000000
B0539463207631S11655244EA0152801588000000000000
B0539503207631S11655319EA0154501613000000000000
B0539543207649S11655379EA0155801620000000000000
B0539583207683S11655428EA0155501616000000000000
B0540023207729S11655454EA0155001609000000000000
B0540063207784S11655471EA0154301601000000000000
B0540103207840S11655489EA0154001601000000000000
B0540143207897S11655501EA0154201601000000000000
B0540183207953S11655515EA0154001600000000000000
B0540223208009S11655535EA0154101600000000000000
B0540263208065S11655556EA0153901599000000000000
B0540303208119S11655584EA0153701594000000000000
B0540343208174S11655599EA0153401589000000000000
B0540383208204S11655560EA0153401589000000000000
B0540423208179S11655510EA0152701581000000000000
B0540463208126S11655476EA0152101577000000000000
B0540503208070S11655447EA0152101578000000000000
B0540543208015S11655413EA0151801574000000000000
B0540583207963S11655378EA0151401569000000000000
B0541023207911S11655344EA0150901564000000000000
B0541063207858S11655311EA0150401559000000000000
B0541103207806S11655279EA0150101557000000000000
B0541143207754S11655246EA0150101555000000000000
B0541183207701S11655214EA0149601552000000000000
B0541223207645S11655184EA0149301552000000000000
B0541263207588S11655155EA0149801561000000000000
B0541303207532S11655129EA0151101572000000000000
B0541343207469S11655135EA0151801579000000000000
B0541383207423S11655192EA0152701587000000000000
B0541423207417S11655274EA0152701586000000000000
B0541463207456S11655344EA0152701586000000000000
B0541503207520S11655370EA0153201594000000000000
B0541543207577S11655341EA0154301608000000000000
B0541583207597S11655281EA0156001626000000000000
B0542023207571S11655229EA0157201636000000000000
B0542063207512S11655219EA0157501638000000000000
B0542103207456S11655265EA0158001642000000000000
B0542143207437S11655345EA0158701650000000000000
B0542183207466S11655414EA0159501657000000000000
B0542223207524S11655441EA0160001664000000000000
B0542263207577S11655419EA0161301680000000000000
B0542303207606S11655372EA0163201696000000000000
B0542343207602S11655319EA0164001703000000000000
B0542383207562S11655281EA0163901697000000000000
B0542423207499S11655280EA0163001693000000000000
B0542463207447S11655323EA0164101710000000000000
B0542503207420S11655387EA0165801721000000000000
B0542543207415S11655457EA0166201721000000000000
B0542583207432S11655528EA0166201726000000000000
B0543023207463S11655583EA0167401740000000000000
B0543063207507S11655625EA0167601739000000000000
B0543103207557S11655657EA0167801742000000000000
B0543143207603S11655687EA0167901741000000000000
B0543183207655S11655705EA0166801729000000000000
B0543223207700S11655683EA0166101724000000000000
B0543263207713S11655629EA0165301710000000000000
B0543303207687S11655573EA0163901701000000000000
B0543343207638S11655534EA0163501698000000000000
B0543383207585S11655502EA0163001690000000000000
B0543423207525S11655476EA0162101683000000000000
B0543463207477S11655439EA0162301687000000000000
B0543503207440S11655392EA0162801692000000000000
B0543543207393S11655353EA0162601686000000000000
B0543583207330S11655335EA0161901678000000000000
B0544023207268S11655318EA0162001677000000000000
B0544063207202S11655314EA0161301670000000000000
B0544103207134S11655311EA0161001665000000000000
B0544143207066S11655298EA0160201660000000000000
B0544183207003S11655278EA0160201656000000000000
B0544223206934S11655255EA0159001644000000000000
B0544263206865S11655228EA0158101640000000000000
B0544303206796S11655200EA0157901637000000000000
B0544343206726S11655171EA0157401634000000000000
B0544383206660S11655142EA0157501635000000000000
B0544423206596S11655112EA0157901638000000000000
B0544463206536S11655081EA0158101640000000000000
B0544503206487S11655042EA0158101642000000000000
B0544543206446S11654995EA0158101638000000000000
B0544583206407S11654947EA0157401631000000000000
B0545023206364S11654899EA0156701626000000000000
B0545063206314S11654855EA0156001619000000000000
B0545103206257S11654819EA0155401613000000000000
B0545143206197S11654786EA0155001609000000000000
B0545183206136S11654759EA0154601605000000000000
B0545223206073S11654734EA0154201603000000000000
B0545263206010S11654712EA0154301601000000000000
B0545303205946S11654693EA0154101599000000000000
B0545343205881S11654674EA0153701594000000000000
B0545383205813S11654657EA0153401590000000000000
B0545423205746S11654643EA0152901586000000000000
B0545463205677S11654629EA0152401579000000000000
B0545503205610S11654611EA0151801572000000000000
B0545543205545S11654587EA0151101567000000000000
B0545583205487S11654556EA0150801564000000000000
B0546023205432S11654518EA0150501562000000000000
B0546063205380S11654481EA0150401561000000000000
B0546103205328S11654444EA0150101557000000000000
B0546143205274S11654408EA0149701555000000000000
B0546183205220S11654374EA0149601552000000000000
B0546223205167S11654343EA0149001545000000000000
B0546263205111S11654310EA0148201536000000000000
B0546303205057S11654277EA0147201528000000000000
B0546343205002S11654243EA0146601520000000000000
B0546383204949S11654206EA0145601512000000000000
B0546423204894S11654171EA0144901506000000000000
B0546463204842S11654130EA0144601501000000000000
B0546503204798S11654079EA0144001498000000000000
B0546543204764S11654020EA0143601492000000000000
B0546583204734S11653959EA0143101489000000000000
B0547023204704S11653901EA0143201492000000000000
B0547063204673S11653844EA0142901488000000000000
B0547103204650S11653780EA0142701485000000000000
B0547143204638S11653714EA0142701487000000000000
B0547183204637S11653646EA0142701487000000000000
B0547223204646S11653578EA0142701486000000000000
B0547263204663S11653510EA0142701487000000000000
B0547303204680S11653441EA0142501485000000000000
B0547343204700S11653374EA0142801490000000000000
B0547383204699S11653308EA0143301492000000000000
B0547423204656S11653266EA0143701496000000000000
B0547463204594S11653274EA0143601490000000000000
B0547503204552S11653335EA0143001488000000000000
B0547543204556S11653413EA0143001489000000000000
B0547583204595S11653468EA0143301492000000000000
B0548023204652S11653481EA0143001490000000000000
B0548063204708S11653463EA0142601482000000000000
B0548103204765S11653434EA0141701475000000000000
B0548143204824S11653403EA0141001469000000000000
B0548183204881S11653368EA0140501465000000000000
B0548223204937S11653333EA0140301464000000000000
B0548263204992S11653295EA0139901458000000000000
B0548303205045S11653260EA0139401455000000000000
B0548343205097S11653226EA0139201452000000000000
B0548383205146S11653191EA0139001449000000000000
B0548423205197S11653157EA0138401442000000000000
B0548463205249S11653121EA0138001439000000000000
B0548503205300S11653086EA0137701434000000000000
B0548543205350S11653051EA0137201429000000000000
B0548583205405S11653019EA0136601424000000000000
B0549023205462S11652992EA0136101418000000000000
B0549063205522S11652969EA0135801414000000000000
B0549103205581S11652944EA0135401410000000000000
B0549143205639S11652919EA0135101405000000000000
B0549183205700S11652892EA0134301400000000000000
B0549223205760S11652863EA0134101397000000000000
B0549263205820S11652832EA0133601393000000000000
B0549303205876S11652800EA0133701394000000000000
B0549343205932S11652769EA0133401389000000000000
B0549383205989S11652736EA0132801385000000000000
B0549423206049S11652706EA0132401379000000000000
B0549463206110S11652676EA0131901374000000000000
B0549503206169S11652646EA0131301368000000000000
B0549543206231S11652616EA0130601363000000000000
B0549583206288S11652583EA0130601363000000000000
B0550023206341S11652551EA0130801364000000000000
B0550063206390S11652519EA0130601361000000000000
B0550103206441S11652485EA0129801352000000000000
B0550143206492S11652449EA0129101346000000000000
B0550183206544S11652410EA0128801339000000000000
B0550223206597S11652373EA0127701328000000000000
B0550263206654S11652338EA0126701319000000000000
B0550303206713S11652303EA0126401319000000000000
B0550343206771S11652272EA0126901327000000000000
B0550383206825S11652246EA0127601332000000000000
B0550423206882S11652229EA0127801334000000000000
B0550463206942S11652219EA0128601343000000000000
B0550503206986S11652182EA0129301352000000000000
B0550543206991S11652122EA0129401348000000000000
B0550583206992S11652056EA0128901346000000000000
B0551023206996S11651989EA0128601342000000000000
B0551063207004S11651921EA0128201336000000000000
B0551103207014S11651851EA0127101325000000000000
B0551143207034S11651777EA0126301319000000000000
B0551183207057S11651705EA0126301320000000000000
B0551223207079S11651635EA0126301321000000000000
B0551263207099S11651565EA0126501322000000000000
B0551303207112S11651495EA0126801328000000000000
B0551343207120S11651426EA0127601334000000000000
B0551383207131S11651358EA0127501330000000000000
B0551423207148S11651289EA0127301330000000000000
B0551463207165S11651223EA0127601332000000000000
B0551503207180S11651158EA0128101340000000000000
B0551543207181S11651093EA0129301351000000000000
B0551583207147S11651049EA0130301359000000000000
B0552023207091S11651055EA0130601362000000000000
B0552063207050S11651111EA0131101370000000000000
B0552103207051S11651188EA0131601374000000000000
B0552143207092S11651244EA0131901378000000000000
B0552183207152S11651258EA0131901380000000000000
B0552223207203S11651227EA0132101379000000000000
B0552263207235S11651167EA0132001381000000000000
B0552303207254S11651099EA0132301383000000000000
B0552343207264S11651029EA0132601384000000000000
B0552383207251S11650960EA0132301377000000000000
B0552423207206S11650911EA0131401369000000000000
B0552463207143S11650900EA0131101367000000000000
B0552503207095S11650950EA0130701360000000000000
B0552543207092S11651028EA0129501347000000000000
B0552583207141S11651086EA0128901348000000000000
B0553023207207S11651108EA0129201352000000000000
B0553063207272S11651093EA0129501354000000000000
B0553103207319S11651045EA0129501354000000000000
B0553143207346S11650984EA0129501352000000000000
B0553183207371S11650920EA0129001348000000000000
B0553223207391S11650855EA0128601343000000000000
B0553263207416S11650787EA0127901336000000000000
B0553303207440S11650720EA0127501330000000000000
B0553343207463S11650651EA0126501321000000000000
B0553383207488S11650582EA0125601312000000000000
B0553423207512S11650513EA0124801302000000000000
B0553463207537S11650444EA0124301298000000000000
B0553503207564S11650375EA0123701293000000000000
B0553543207597S11650305EA0123101283000000000000
B0553583207627S11650235EA0122201279000000000000
B0554023207654S11650163EA0121601269000000000000
B0554063207676S11650087EA0120701261000000000000
B0554103207693S11650013EA0121601274000000000000
B0554143207675S11649955EA0123501291000000000000
B0554183207619S11649967EA0124701297000000000000
B0554223207588S11650037EA0124801297000000000000
B0554263207606S11650114EA0125801309000000000000
B0554303207655S11650156EA0125801309000000000000
B0554343207707S11650148EA0125901307000000000000
B0554383207732S11650100EA0125401308000000000000
B0554423207739S11650041EA0125301306000000000000
B0554463207736S11649977EA0125501310000000000000
B0554503207727S11649915EA0126001311000000000000
B0554543207710S11649851EA0126101312000000000000
B0554583207693S11649788EA0126601319000000000000
B0555023207659S11649733EA0127301327000000000000
B0555063207605S11649756EA0128701338000000000000
B0555103207605S11649834EA0128601335000000000000
B0555143207658S11649883EA0128801343000000000000
B0555183207713S11649876EA0129901354000000000000
B0555223207736S11649827EA0130301355000000000000
B0555263207710S11649772EA0130301357000000000000
B0555303207650S11649767EA0130901365000000000000
B0555343207602S11649818EA0131701370000000000000
B0555383207596S11649897EA0131901375000000000000
B0555423207636S11649961EA0132401377000000000000
B0555463207697S11649974EA0132201378000000000000
B0555503207739S11649932EA0133001391000000000000
B0555543207732S11649870EA0133601392000000000000
B0555583207681S11649836EA0134101399000000000000
B0556023207619S11649854EA0134801406000000000000
B0556063207581S11649922EA0135101408000000000000
B0556103207598S11650005EA0135201410000000000000
B0556143207655S11650049EA0135501411000000000000
B0556183207710S11650024EA0135701418000000000000
B0556223207718S11649961EA0136801427000000000000
B0556263207674S11649916EA0136401422000000000000
B0556303207611S11649940EA0136901432000000000000
B0556343207580S11650014EA0137401432000000000000
B0556383207592S11650097EA0138001440000000000000
B0556423207645S11650137EA0138501443000000000000
B0556463207700S11650122EA0138201442000000000000
B0556503207714S11650065EA0138401447000000000000
B0556543207675S11650026EA0138501443000000000000
B0556583207614S11650048EA0138401443000000000000
B0557023207576S11650118EA0139001452000000000000
B0557063207571S11650201EA0140301462000000000000
B0557103207602S11650270EA0139701453000000000000
B0557143207663S11650313EA0138401443000000000000
B0557183207732S11650345EA0138401445000000015000
B0557223207797S11650369EA0139001450000000000000
B0557263207863S11650384EA0139501456000000000000
B0557303207927S11650395EA0140401460000000000000
B0557343207980S11650369EA0140801463000000000000
B0557383207989S11650309EA0140401458000000000000
B0557423207950S11650262EA0139601454000000000000
B0557463207887S11650260EA0139201447000000000000
B0557503207831S11650318EA0138701446000000000000
B0557543207807S11650408EA0138701443000000000000
B0557583207819S11650503EA0138201442000000000000
B0558023207859S11650583EA0138601449000000000000
B0558063207922S11650635EA0138901445000000000000
B0558103207999S11650682EA0138101442000000015000
B0558143208069S11650720EA0139501455000000015000
B0558183208131S11650754EA0139601446000000000000
B0558223208197S11650793EA0138301432000000000000
B0558263208266S11650835EA0137001421000000000000
B0558303208338S11650882EA0136201415000000000000
B0558343208409S11650929EA0135801414000000000000
B0558383208478S11650978EA0136201415000000000000
B0558423208542S11651023EA0136601421000000000000
B0558463208604S11651066EA0136501416000000000000
B0558503208668S11651108EA0135801409000000000000
B0558543208732S11651154EA0135301403000000000000
B0558583208794S11651201EA0135101404000000000000
B0559023208854S11651249EA0134901401000000000000
B0559063208912S11651300EA0134401394000000000000
B0559103208974S11651350EA0133401388000000000000
B0559143209036S11651402EA0132801380000000000000
B0559183209097S11651456EA0132001370000000000000
B0559223209157S11651513EA0131301363000000000000
B0559263209215S11651571EA0130601359000000000000
B0559303209273S11651631EA0130001351000000000000
B0559343209331S11651690EA0129101342000000000000
B0559383209390S11651748EA0128701339000000000000
B0559423209447S11651803EA0128101331000000000000
B0559463209507S11651857EA0127401323000000000000
B0559503209566S11651912EA0126801318000000000000
B0559543209626S11651964EA0126001310000000000000
B0559583209686S11652015EA0125401307000000000000
B0600023209750S11652061EA0125301305000000000000
B0600063209815S11652108EA0125101303000000000000
B0600103209878S11652152EA0125301307000000000000
B0600143209941S11652193EA0126701324000000000000
B0600183210003S11652229EA0127301326000000000000
B0600223210066S11652241EA0127801334000000000000
B0600263210112S11652206EA0128401331000000000000
B0600303210127S11652142EA0127101322000000000000
B0600343210094S11652087EA0126301312000000000000
B0600383210032S11652089EA0125901313000000000000
B0600423209988S11652150EA0126301314000000000000
B0600463209997S11652229EA0127001326000000000000
B0600503210040S11652286EA0127801333000000000000
B0600543210097S11652317EA0127501328000000000000
B0600583210157S11652306EA0126501317000000000000
B0601023210203S11652256EA0125601306000000000000
B0601063210238S11652195EA0124101295000000000000
B0601103210271S11652129EA0123401286000000000000
B0601143210300S11652060EA0122401275000000000000
B0601183210323S11651983EA0120801261000000000000
B0601223210355S11651907EA0119701252000000000000
B0601263210405S11651840EA0119301250000000000000
B0601303210461S11651779EA0119001243000000000000
B0601343210515S11651721EA0119001248000000000000
B0601383210569S11651664EA0119701253000000000000
B0601423210621S11651612EA0119901251000000000000
B0601463210669S11651557EA0120101254000000000000
B0601503210714S11651501EA0120301254000000000000
B0601543210751S11651441EA0120701260000000000000
B0601583210781S11651380EA0121801268000000000000
B0602023210791S11651314EA0123101284000000000000
B0602063210747S11651284EA0125301303000000000000
B0602103210704S11651324EA0125601301000000000000
B0602143210712S11651392EA0125601305000000000000
B0602183210761S11651419EA0126001311000000000000
B0602223210803S11651385EA0126801322000000000000
B0602263210796S11651331EA0127801330000000000000
B0602303210749S11651305EA0128101333000000000000
B0602343210696S11651332EA0128601337000000000000
B0602383210680S11651401EA0128901340000000000000
B0602423210710S11651462EA0129101343000000000000
B0602463210766S11651480EA0129601350000000000000
B0602503210810S11651448EA0130201357000000000000
B0602543210817S11651389EA0130701359000000000000
B0602583210777S11651349EA0130501358000000000000
B0603023210718S11651366EA0130801362000000000000
B0603063210691S11651430EA0131401368000000000000
B0603103210709S11651496EA0131901372000000000000
B0603143210760S11651527EA0131801372000000000000
B0603183210814S11651506EA0132101377000000000000
B0603223210822S11651446EA0132401378000000000000
B0603263210779S11651406EA0132301380000000000000
B0603303210723S11651428EA0132901384000000000000
B0603343210700S11651497EA0133101388000000000000
B0603383210725S11651563EA0133901394000000000000
B0603423210781S11651589EA0134201398000000000000
B0603463210830S11651565EA0134901404000000000000
B0603503210842S11651509EA0134801402000000000000
B0603543210805S11651466EA0134301398000000000000
B0603583210751S11651480EA0134901405000000000000
B0604023210725S11651545EA0135101406000000000000
B0604063210714S11651627EA0134401397000000000000
B0604103210700S11651716EA0134101397000000000000
B0604143210682S11651801EA0134101397000000000000
B0604183210656S11651888EA0133301388000000000000
B0604223210625S11651976EA0132701383000000000000
B0604263210588S11652059EA0132001376000000000000
B0604303210539S11652132EA0132101380000000000000
B0604343210487S11652197EA0132401377000000000000
B0604383210430S11652259EA0131801369000000000000
B0604423210368S11652317EA0131301365000000000000
B0604463210302S11652372EA0130801362000000000000
B0604503210237S11652428EA0130401356000000000000
B0604543210172S11652489EA0129501346000000000000
B0604583210108S11652550EA0128901341000000000000
B0605023210045S11652610EA0128401336000000000000
B0605063209980S11652665EA0127801329000000000000
B0605103209916S11652722EA0127401325000000000000
B0605143209856S11652787EA0127001319000000000000
B0605183209809S11652867EA0126501319000000000000
B0605223209780S11652956EA0127301330000000000000
B0605263209757S11653047EA0127801334000000000000
B0605303209737S11653138EA0128201335000000000000
B0605343209712S11653226EA0127701332000000000000
B0605383209682S11653313EA0127401326000000000000
B0605423209651S11653400EA0126401317000000000000
B0605463209620S11653489EA0126201315000000000000
B0605503209583S11653573EA0126501322000000000000
B0605543209582S11653653EA0127901335000000000000
B0605583209634S11653680EA0128501338000000000000
B0606023209673S11653637EA0128501338000000000000
B0606063209661S11653576EA0128701343000000000000
B0606103209608S11653551EA0129001344000000000000
B0606143209551S11653589EA0128501339000000000000
B0606183209512S11653655EA0128301339000000000000
B0606223209488S11653733EA0128301339000000000000
B0606263209474S11653816EA0128301337000000000000
B0606303209460S11653903EA0127701329000000000000
B0606343209440S11653994EA0127301330000000000000
B0606383209423S11654084EA0127601333000000000000
B0606423209404S11654173EA0127301326000000000000
B0606463209380S11654260EA0126801325000000000000
B0606503209357S11654345EA0127301332000000000000
B0606543209335S11654430EA0127801337000000000000
B0606583209318S11654514EA0128101340000000000000
B0607023209304S11654596EA0129601354000000000000
B0607063209315S11654673EA0130201360000000000000
B0607103209370S11654698EA0131201369000000000000
B0607143209400S11654652EA0131801378000000000000
B0607183209371S11654605EA0132601388000000000000
B0607223209317S11654611EA0133501393000000000000
B0607263209286S11654673EA0134101397000000000000
B0607303209305S11654738EA0134801404000000000000
B0607343209357S11654752EA0134901405000000000000
B0607383209386S11654709EA0135501413000000000000
B0607423209362S11654663EA0136201419000000000000
B0607463209309S11654664EA0136401422000000000000
B0607503209270S11654719EA0136801426000000000000
B0607543209282S11654785EA0137301430000000000000
B0607583209334S11654807EA0137001423000000000000
B0608023209374S11654771EA0137301431000000000000
B0608063209364S11654722EA0138301440000000000000
B0608103209319S11654702EA0138401439000000000000
B0608143209269S11654732EA0138601442000000000000
B0608183209247S11654800EA0138901444000000000000
B0608223209273S11654863EA0138801446000000000000
B0608263209326S11654878EA0138901444000000000000
B0608303209371S11654843EA0138401442000000000000
B0608343209380S11654784EA0138901447000000000000
B0608383209347S11654735EA0139101451000000000000
B0608423209291S11654720EA0139501453000000000000
B0608463209232S11654755EA0139801456000000000000
B0608503209193S11654824EA0139601454000000000000
B0608543209161S11654903EA0139001446000000000000
B0608583209126S11654985EA0137901433000000000000
B0609023209085S11655067EA0137101425000000000000
B0609063209037S11655146EA0136101416000000000000
B0609103208984S11655222EA0135701412000000000000
B0609143208925S11655292EA0135101407000000000000
B0609183208868S11655363EA0134601401000000000000
B0609223208808S11655431EA0133901393000000000000
B0609263208751S11655500EA0133401386000000000000
B0609303208699S11655577EA0132801380000000000000
B0609343208645S11655649EA0132001373000000000000
B0609383208589S11655721EA0131601368000000000000
B0609423208532S11655792EA0131001362000000000000
B0609463208474S11655864EA0131001361000000000000
B0609503208416S11655933EA0131501371000000000000
B0609543208360S11655995EA0132201375000000000000
B0609583208303S11656056EA0131601366000000000000
B0610023208243S11656120EA0130701357000000000000
B0610063208183S11656190EA0129901349000000000000
B0610103208123S11656262EA0129301344000000000000
B0610143208065S11656333EA0129201341000000000000
B0610183208006S11656409EA0128001331000000000000
B0610223207949S11656487EA0127501329000000000000
B0610263207895S11656565EA0127601329000000000000
B0610303207837S11656643EA0126801316000000000000
B0610343207776S11656718EA0125801307000000000000
B0610383207714S11656792EA0125101299000000000000
B0610423207651S11656867EA0124501292000000000000
B0610463207590S11656944EA0123701287000000000000
B0610503207528S11657022EA0123401282000000000000
B0610543207469S11657103EA0122801277000000000000
B0610583207411S11657182EA0122301272000000000000
B0611023207349S11657255EA0121801269000000000000
B0611063207285S11657321EA0121301263000000000000
B0611103207219S11657385EA0120801255000000000000
B0611143207151S11657450EA0119801246000000000000
B0611183207083S11657516EA0119201242000000000000
B0611223207014S11657577EA0119001239000000000000
B0611263206947S11657638EA0118701237000000000000
B0611303206884S11657703EA0118701238000000000000
B0611343206825S11657766EA0119501247000000000000
B0611383206767S11657826EA0120201250000000000000
B0611423206710S11657884EA0120101248000000000000
B0611463206656S11657944EA0120201250000000000000
B0611503206588S11657972EA0120601256000000000000
B0611543206520S11657976EA0120701253000000000000
B0611583206472S11658036EA0121001259000000000000
B0612023206442S11658115EA0120601254000000000000
B0612063206424S11658206EA0119701247000000000000
B0612103206403S11658303EA0119201242000000000000
B0612143206385S11658399EA0119201247000000000000
B0612183206370S11658494EA0120001254000000000000
B0612223206355S11658587EA0120001250000000000000
B0612263206338S11658682EA0119001241000000000000
B0612303206323S11658780EA0118201236000000000000
B0612343206307S11658877EA0117701229000000000000
B0612383206290S11658975EA0116901221000000000000
B0612423206272S11659074EA0115901212000000000000
B0612463206255S11659174EA0115101202000000000000
B0612503206237S11659274EA0114201195000000000000
B0612543206221S11659370EA0115301213000000000000
B0612583206210S11659464EA0116701224000000000000
B0613023206199S11659555EA0117401230000000000000
B0613063206189S11659646EA0117701232000000000000
B0613103206202S11659729EA0119101245000000000000
B0613143206257S11659743EA0120201254000000000000
B0613183206273S11659687EA0120001253000000000000
B0613223206225S11659653EA0120501260000000000000
B0613263206167S11659679EA0121301265000000000000
B0613303206128S11659743EA0121101263000000000000
B0613343206101S11659825EA0120801260000000000000
B0613383206077S11659917EA0120401257000000000000
B0613423206051S11700010EA0120601265000000000000
B0613463206010S11700091EA0121901279000000000000
B0613503205945S11700140EA0123501295000000000000
B0613543205880S11700128EA0125401313000000000000
B0613583205847S11700072EA0126601324000000000000
B0614023205855S11700010EA0127401330000000000000
B0614063205895S11659968EA0127501329000000000000
B0614103205954S11659972EA0127701330000000000000
B0614143206000S11700024EA0127401325000000000000
B0614183206021S11700107EA0127501327000000000000
B0614223206028S11700199EA0127701335000000000000
B0614263206000S11700279EA0128901349000000000000
B0614303205942S11700319EA0130301359000000000000
B0614343205878S11700318EA0130801360000000000000
B0614383205818S11700284EA0130601362000000000000
B0614423205776S11700225EA0131301368000000000000
B0614463205777S11700156EA0132101379000000000000
B0614503205817S11700115EA0133401390000000000000
B0614543205874S11700117EA0134001399000000000000
B0614583205917S11700164EA0135101410000000000000
B0615023205924S11700237EA0136401422000000000000
B0615063205886S11700296EA0137201426000000000000
B0615103205824S11700312EA0137301427000000000000
B0615143205761S11700285EA0137401428000000000000
B0615183205713S11700224EA0136001414000000000000
B0615223205685S11700142EA0135201407000000000000
B0615263205668S11700050EA0133701393000000000000
B0615303205652S11659955EA0132201378000000000000
B0615343205640S11659854EA0131001367000000000000
B0615383205630S11659752EA0130001355000000000000
B0615423205621S11659649EA0128801343000000000000
B0615463205609S11659547EA0127501333000000000000
B0615503205596S11659445EA0126901325000000000000
B0615543205582S11659343EA0126801319000000000000
B0615583205569S11659237EA0125801306000000000000
B0616023205555S11659124EA0123301280000000000000
B0616063205540S11659009EA0122401270000000000000
B0616103205527S11658898EA0122401276000000000000
B0616143205525S11658793EA0122501274000000000000
B0616183205531S11658693EA0122601277000000000000
B0616223205540S11658604EA0123801287000000000000
B0616263205552S11658520EA0123901284000000000000
B0616303205565S11658433EA0122601275000000000000
B0616343205581S11658343EA0121601265000000000000
B0616383205594S11658247EA0120201249000000000000
B0616423205603S11658148EA0119201239000000000000
B0616463205608S11658048EA0118301231000000000000
B0616503205604S11657948EA0117701227000000000000
B0616543205599S11657848EA0117301223000000000000
B0616583205592S11657751EA0117101217000000000000
B0617023205582S11657664EA0118001236000000000000
B0617063205578S11657589EA0119001239000000000000
B0617103205586S11657514EA0118401226000000000000
B0617143205604S11657439EA0118001229000000000000
B0617183205617S11657371EA0118601232000000000000
B0617223205629S11657303EA0118301227000000000000
B0617263205638S11657233EA0117601221000000000000
B0617303205646S11657160EA0116801211000000000000
B0617343205656S11657087EA0115901204000000000000
B0617383205666S11657013EA0115001191000000000000
B0617423205675S11656936EA0114001182000000000000
B0617463205685S11656857EA0113001167000000000000
B0617503205692S11656776EA0111801157000000000000
B0617543205708S11656698EA0110701146000000000000
B0617583205726S11656620EA0109901142000000000000
B0618023205735S11656542EA0109501138000000000000
B0618063205744S11656461EA0108701130000000000000
B0618103205755S11656381EA0108501129000000000000
B0618143205766S11656303EA0107901123000000000000
B0618183205778S11656227EA0107901120000000000000
B0618223205791S11656149EA0107101114000000000000
B0618263205804S11656072EA0106901113000000000000
B0618303205813S11655998EA0106901112000000000000
B0618343205820S11655922EA0106801112000000000000
B0618383205824S11655851EA0107001113000000000000
B0618423205828S11655779EA0107001113000000000000
B0618463205831S11655709EA0107101115000000000000
B0618503205833S11655639EA0107501118000000000000
B0618543205833S11655570EA0107601116000000000000
B0618583205831S11655500EA0107201114000000000000
B0619023205833S11655427EA0107301115000000000000
B0619063205834S11655354EA0107201113000000000000
B0619103205842S11655285EA0107201115000000000000
B0619143205851S11655219EA0107301115000000000000
B0619183205864S11655155EA0107301115000000000000
B0619223205886S11655094EA0107501115000000000000
B0619263205872S11655032EA0107701115000000000000
B0619303205811S11655028EA0107501116000000000000
B0619343205772S11655089EA0107501111000000000000
B0619383205787S11655164EA0106501101000000000000
B0619423205842S11655196EA0105501093000000000000
B0619463205891S11655171EA0104701090000000000000
B0619503205924S11655122EA0104301086000000000000
B0619543205945S11655062EA0103901085000000000000
B0619583205959S11654997EA0104001089000000000000
B0620023205974S11654933EA0104601096000000000000
B0620063205987S11654872EA0104901100000000000000
B0620103206002S11654810EA0104901097000000000000
B0620143206006S11654742EA0104701097000000000000
B0620183206003S11654670EA0104501096000000000000
B0620223205972S11654616EA0105301103000000000000
B0620263205913S11654624EA0105501104000000000000
B0620303205886S11654690EA0105701106000000000000
B0620343205915S11654754EA0106101111000000000000
B0620383205968S11654768EA0106401115000000000000
B0620423206007S11654733EA0106201112000000000000
B0620463206028S11654674EA0105501104000000000000
B0620503206041S11654607EA0104801100000000000000
B0620543206054S11654539EA0105401107000000000000
B0620583206060S11654470EA0105801111000000000000
B0621023206021S11654420EA0106601120000000000000
B0621063205971S11654457EA0107501127000000000000
B0621103205977S11654531EA0107801126000000000000
B0621143206030S11654556EA0107801129000000000000
B0621183206077S11654521EA0107801129000000000000
B0621223206091S11654460EA0108001133000000000000
B0621263206042S11654431EA0109201146000000000000
B0621303205997S11654475EA0109901150000000000000
B0621343206006S11654540EA0110001150000000000000
B0621383206056S11654560EA0110301154000000000000
B0621423206097S11654522EA0110601157000000000000
B0621463206090S11654461EA0110901161000000000000
B0621503206038S11654436EA0111301167000000000000
B0621543205989S11654474EA0112101174000000000000
B0621583205974S11654544EA0112701178000000000000
B0622023206007S11654596EA0113101184000000000000
B0622063206060S11654596EA0113301184000000000000
B0622103206091S11654547EA0113401188000000000000
B0622143206073S11654490EA0114001193000000000000
B0622183206020S11654473EA0114401201000000000000
B0622223205977S11654521EA0115201203000000000000
B0622263205985S11654592EA0115501208000000000000
B0622303206030S11654620EA0116401216000000000000
B0622343206077S11654591EA0116201214000000000000
B0622383206110S11654533EA0115601209000000000000
B0622423206134S11654464EA0115301205000000000000
B0622463206154S11654388EA0115401211000000000000
B0622503206169S11654309EA0116201219000000000000
B0622543206142S11654248EA0117401237000000000000
B0622583206095S11654293EA0118901243000000000000
B0623023206104S11654370EA0119001245000000000000
B0623063206147S11654430EA0119601254000000000000
B0623103206208S11654438EA0120601263000000000000
B0623143206237S11654387EA0121901275000000000000
B0623183206208S11654334EA0122701284000000000000
B0623223206153S11654340EA0123801295000000000000
B0623263206119S11654400EA0123801293000000000000
B0623303206133S11654477EA0123801293000000000000
B0623343206185S11654525EA0124301300000000000000
B0623383206245S11654514EA0124901306000000000000
B0623423206275S11654457EA0125901311000000000000
B0623463206258S11654391EA0126401319000000000000
B0623503206203S11654361EA0127301332000000000000
B0623543206156S11654400EA0128801341000000000000
B0623583206159S11654473EA0129201348000000000000
B0624023206205S11654525EA0129601351000000000000
B0624063206268S11654531EA0129801354000000000000
B0624103206323S11654494EA0130101361000000000000
B0624143206346S11654429EA0130501363000000000000
B0624183206327S11654360EA0130901365000000000000
B0624223206270S11654318EA0130901367000000000000
B0624263206201S11654329EA0131601374000000000000
B0624303206151S11654391EA0132301382000000000000
B0624343206136S11654475EA0132701386000000000000
B0624383206136S11654564EA0134001400000000000000
B0624423206142S11654644EA0135301410000000000000
B0624463206149S11654720EA0135801412000000000000
B0624503206151S11654793EA0136001415000000000000
B0624543206154S11654864EA0137001425000000000000
B0624583206151S11654937EA0137601429000000000000
B0625023206146S11655010EA0137801431000000000000
B0625063206143S11655083EA0138201434000000000000
B0625103206142S11655158EA0138401433000000000000
B0625143206138S11655232EA0138201429000000000000
B0625183206128S11655306EA0137901428000000000000
B0625223206127S11655379EA0138201432000000000000
B0625263206162S11655434EA0138101425000000000000
B0625303206218S11655436EA0136801410000000000000
B0625343206254S11655378EA0134701391000000000000
B0625383206259S11655293EA0132801379000000000000
B0625423206253S11655200EA0130801356000000000000
B0625463206240S11655098EA0129001343000000000000
B0625503206225S11654999EA0127901329000000000000
B0625543206210S11654899EA0126901322000000000000
B0625583206195S11654800EA0127001318000000000000
B0626023206180S11654706EA0127401326000000000000
B0626063206166S11654617EA0128101332000000000000
B0626103206150S11654535EA0129201345000000000000
B0626143206132S11654464EA0130901359000000000000
B0626183206089S11654420EA0132401374000000000000
B0626223206045S11654466EA0133801387000000000000
B0626263206060S11654544EA0134101384000000000000
B0626303206123S11654576EA0134001387000000000000
B0626343206177S11654540EA0134601395000000000000
B0626383206192S11654473EA0135101398000000000000
B0626423206162S11654409EA0135101402000000000000
B0626463206099S11654381EA0135801409000000000000
B0626503206026S11654403EA0136001412000000000000
B0626543205980S11654473EA0137501425000000000000
B0626583205978S11654559EA0137701425000000000000
B0627023206020S11654629EA0137401424000000000000
B0627063206091S11654657EA0137501424000000000000
B0627103206163S11654648EA0137801427000000000000
B0627143206223S11654611EA0138001430000000000000
B0627183206262S11654548EA0138101433000000000000
B0627223206272S11654470EA0138201434000000000000
B0627263206241S11654397EA0138301436000000000000
B0627303206179S11654360EA0138701439000000000000
B0627343206104S11654366EA0139301444000000000000
B0627383206043S11654422EA0140001452000000000000
B0627423206010S11654507EA0140701457000000000000
B0627463206015S11654602EA0141001463000000000000
B0627503206063S11654678EA0141601468000000000000
B0627543206140S11654717EA0141401465000000000000
B0627583206219S11654708EA0141601469000000000000
B0628023206289S11654669EA0141601470000000000000
B0628063206346S11654613EA0142601485000000000000
B0628103206393S11654556EA0143001484000000000000
B0628143206435S11654495EA0143001486000000000000
B0628183206478S11654427EA0142301476000000000000
B0628223206520S11654353EA0141201461000000000000
B0628263206561S11654271EA0139701447000000000000
B0628303206602S11654187EA0139101440000000000000
B0628343206649S11654102EA0138901438000000000000
B0628383206696S11654023EA0138401430000000000000
B0628423206744S11653944EA0137901427000000000000
B0628463206793S11653868EA0137801427000000000000
B0628503206860S11653812EA0137901427000000000000
B0628543206940S11653798EA0138001429000000000000
B0628583207020S11653831EA0138201432000000000000
B0629023207077S11653903EA0138401432000000000000
B0629063207098S11654005EA0138401428000000000000
B0629103207073S11654110EA0137801421000000000000
B0629143207016S11654200EA0136901415000000000000
B0629183206943S11654273EA0137001420000000000000
B0629223206866S11654326EA0137701425000000000000
B0629263206793S11654374EA0137401420000000000000
B0629303206725S11654422EA0137401421000000000000
B0629343206657S11654472EA0137301419000000000000
B0629383206587S11654517EA0137401419000000000000
B0629423206518S11654563EA0136901413000000000000
B0629463206448S11654607EA0136101404000000000000
B0629503206374S11654655EA0135601400000000000000
B0629543206299S11654709EA0135601401000000000000
B0629583206237S11654781EA0136601413000000000000
B0630023206203S11654873EA0137301413000000000000
B0630063206180S11654979EA0135201391000000000000
B0630103206164S11655098EA0133401378000000000000
B0630143206154S11655218EA0132701371000000000000
B0630183206145S11655336EA0131701363000000000000
B0630223206134S11655453EA0130401341000000000000
B0630263206123S11655580EA0127901322000000000000
B0630303206114S11655704EA0127601320000000000000
B0630343206102S11655827EA0126501303000000000000
B0630383206089S11655956EA0124801288000000000000
B0630423206076S11656086EA0123401281000000000000
B0630463206050S11656214EA0123301278000000000000
B0630503206013S11656329EA0125201304000000000000
B0630543205989S11656431EA0127701329000000000000
B0630583205984S11656528EA0129001340000000000000
B0631023205978S11656619EA0129701355000000000000
B0631063205973S11656706EA0130701363000000000000
B0631103205968S11656789EA0132501385000000000000
B0631143205976S11656862EA0134401396000000000000
B0631183206021S11656908EA0134801394000000000000
B0631223206069S11656879EA0134401392000000000000
B0631263206071S11656817EA0134301392000000000000
B0631303206023S11656779EA0133901390000000000000
B0631343205956S11656792EA0134601400000000000000
B0631383205935S11656862EA0136401418000000000000
B0631423205980S11656910EA0137201420000000000000
B0631463206036S11656895EA0136501412000000000000
B0631503206059S11656831EA0135901407000000000000
B0631543206036S11656763EA0135801408000000000000
B0631583205978S11656723EA0136001412000000000000
B0632023205913S11656741EA0136901426000000000000
B0632063205873S11656806EA0137901434000000000000
B0632103205872S11656884EA0138801441000000000000
B0632143205924S11656917EA0139701447000000000000
B0632183205976S11656891EA0139601449000000000000
B0632223205995S11656828EA0140101455000000000000
B0632263205963S11656773EA0140901463000000000000
B0632303205902S11656762EA0141101465000000000000
B0632343205844S11656808EA0141501467000000000000
B0632383205818S11656887EA0141601469000000000000
B0632423205837S11656966EA0141901469000000000000
B0632463205893S11657012EA0142401477000000000000
B0632503205948S11656995EA0143701489000000000000
B0632543205978S11656936EA0143301485000000000000
B0632583205987S11656857EA0142701475000000000000
B0633023205973S11656771EA0142401480000000000000
B0633063205911S11656741EA0144401499000000000000
B0633103205850S11656780EA0144801495000000000000
B0633143205818S11656864EA0144001489000000000000
B0633183205811S11656960EA0143801490000000000000
B0633223205826S11657055EA0143601487000000000000
B0633263205867S11657137EA0144001492000000000000
B0633303205932S11657181EA0144901505000000000000
B0633343205980S11657143EA0146801525000000000000
B0633383205968S11657081EA0148001532000000000000
B0633423205912S11657061EA0147901530000000000000
B0633463205855S11657108EA0147301516000000000000
B0633503205835S11657203EA0145601506000000000000
B0633543205859S11657296EA0145901507000000000000
B0633583205920S11657350EA0144401484000000000000
B0634023205994S11657337EA0140701443000000000000
B0634063206045S11657263EA0136401402000000000000
B0634103206050S11657169EA0133201376000000000000
B0634143206012S11657094EA0131801364000000000000
B0634183205948S11657064EA0130901357000000000000
B0634223205882S11657086EA0130901358000000000000
B0634263205843S11657151EA0131101358000000000000
B0634303205859S11657228EA0131101358000000000000
B0634343205917S11657263EA0130901353000000000000
B0634383205986S11657261EA0130301349000000000000
B0634423206036S11657216EA0130901358000000000000
B0634463206025S11657151EA0132101370000000000000
B0634503205974S11657121EA0132301371000000000000
B0634543205912S11657147EA0131601363000000000000
B0634583205867S11657218EA0131201355000000000000
B0635023205883S11657303EA0131001355000000000000
B0635063205952S11657304EA0128401309000000000000
B0635103206020S11657226EA0122601257000000000000
B0635143206076S11657112EA0119401235000000000000
B0635183206127S11656982EA0118301226000000000000
B0635223206173S11656854EA0117501216000000000000
B0635263206221S11656731EA0116601206000000000000
B0635303206271S11656617EA0116301207000000000000
B0635343206322S11656510EA0116501209000000000000
B0635383206368S11656407EA0116101204000000000000
B0635423206414S11656308EA0116101205000000000000
B0635463206455S11656219EA0116701212000000000000
B0635503206494S11656130EA0116201204000000000000
B0635543206532S11656045EA0115901198000000000000
B0635583206572S11655959EA0114401177000000000000
B0636023206611S11655865EA0112801168000000000000
B0636063206647S11655770EA0112001160000000000000
B0636103206680S11655675EA0111201153000000000000
B0636143206710S11655583EA0111101155000000000000
B0636183206740S11655495EA0111301154000000000000
B0636223206773S11655406EA0110501147000000000000
B0636263206808S11655319EA0110601150000000000000
B0636303206839S11655239EA0112001168000000000000
B0636343206868S11655162EA0112901172000000000000
B0636383206892S11655090EA0113001173000000000000
B0636423206922S11655020EA0113601181000000000000
B0636463206946S11654955EA0114601188000000000000
B0636503206956S11654888EA0114401187000000000000
B0636543206944S11654820EA0113501176000000000000
B0636583206944S11654745EA0112001164000000000000
B0637023206959S11654667EA0111601160000000000000
B0637063206985S11654594EA0111801167000000000000
B0637103207027S11654533EA0112901179000000000000
B0637143207066S11654475EA0113701182000000000000
B0637183207030S11654433EA0114401188000000000000
B0637223206974S11654466EA0114801188000000000000
B0637263206953S11654544EA0114301184000000000000
B0637303206961S11654630EA0114301190000000000000
B0637343206990S11654708EA0115701202000000000000
B0637383207040S11654763EA0117101220000000000000
B0637423207102S11654782EA0118201230000000000000
B0637463207141S11654746EA0119301245000000000000
B0637503207103S11654713EA0120201249000000000000
B0637543207051S11654765EA0120601257000000000000
B0637583207061S11654843EA0122301277000000000000
B0638023207117S11654867EA0123501286000000000000
B0638063207156S11654824EA0124301294000000000000
B0638103207133S11654771EA0126001312000000000000
B0638143207076S11654763EA0127101319000000000000
B0638183207025S11654816EA0127801329000000000000
B0638223207029S11654897EA0129501347000000000000
B0638263207078S11654946EA0131201363000000000000
B0638303207130S11654930EA0131901370000000000000
B0638343207131S11654873EA0132701382000000000000
B0638383207078S11654872EA0134601399000000000000
B0638423207053S11654945EA0136101412000000000000
B0638463207089S11655008EA0137001424000000000000
B0638503207146S11655014EA0137701428000000000000
B0638543207186S11654967EA0137901435000000000000
B0638583207170S11654911EA0140101456000000000000
B0639023207116S11654907EA0140401455000000000000
B0639063207072S11654972EA0140801465000000000000
B0639103207082S11655053EA0142401478000000000000
B0639143207138S11655088EA0143501490000000000000
B0639183207193S11655063EA0143101481000000000000
B0639223207235S11654998EA0141901473000000000000
B0639263207273S11654920EA0141101463000000000000
B0639303207313S11654830EA0139901453000000000000
B0639343207354S11654739EA0139601451000000000000
B0639383207391S11654647EA0140101463000000000000
B0639423207425S11654553EA0139701442000000000000
B0639463207466S11654455EA0137501423000000000000
B0639503207505S11654355EA0136601419000000000000
B0639543207540S11654258EA0136201411000000000000
B0639583207576S11654158EA0134601394000000000000
B0640023207616S11654056EA0132701376000000000000
B0640063207666S11653954EA0131501360000000000000
B0640103207719S11653859EA0130801358000000000000
B0640143207774S11653772EA0130401350000000000000
B0640183207837S11653688EA0129101338000000000000
B0640223207898S11653610EA0129401350000000000000
B0640263207958S11653537EA0129701345000000000000
B0640303208015S11653468EA0129401345000000000000
B0640343208069S11653396EA0129201339000000000000
B0640383208122S11653329EA0128101329000000000000
B0640423208183S11653266EA0127401323000000000000
B0640463208243S11653201EA0128201338000000000000
B0640503208288S11653129EA0129801351000000000000
B0640543208333S11653058EA0129901352000000000000
B0640583208368S11652988EA0131501366000000000000
B0641023208396S11652918EA0132001368000000000000
B0641063208424S11652841EA0131201362000000000000
B0641103208446S11652762EA0130801356000000000000
B0641143208468S11652678EA0130101348000000000000
B0641183208489S11652589EA0129201339000000000000
B0641223208489S11652494EA0128001318000000000000
B0641263208460S11652398EA0126001302000000000000
B0641303208412S11652308EA0124301290000000000000
B0641343208356S11652223EA0123401281000000000000
B0641383208298S11652141EA0123001278000000000000
B0641423208239S11652061EA0122701275000000000000
B0641463208181S11651987EA0122301275000000000000
B0641503208121S11651917EA0122701276000000000000
B0641543208065S11651852EA0122401273000000000000
B0641583208008S11651783EA0122001267000000000000
B0642023207953S11651712EA0121501261000000000000
B0642063207898S11651636EA0120801255000000000000
B0642103207845S11651561EA0120101247000000000000
B0642143207792S11651480EA0119001233000000000000
B0642183207736S11651397EA0117901224000000000000
B0642223207677S11651314EA0117601227000000000000
B0642263207619S11651237EA0118301232000000000000
B0642303207562S11651162EA0118301232000000000000
B0642343207507S11651092EA0118501237000000000000
B0642383207456S11651023EA0118501231000000000000
B0642423207407S11650954EA0117701218000000000000
B0642463207358S11650885EA0117201214000000000000
B0642503207311S11650817EA0116901212000000000000
B0642543207267S11650748EA0117101214000000000000
B0642583207221S11650681EA0117101216000000000000
B0643023207178S11650613EA0117801223000000000000
B0643063207144S11650543EA0118801235000000000000
B0643103207091S11650503EA0120301251000000000000
B0643143207038S11650548EA0121701264000000000000
B0643183207040S11650627EA0122101264000000000000
B0643223207094S11650668EA0122501270000000000000
B0643263207147S11650646EA0123101274000000000000
B0643303207168S11650588EA0123101275000000000000
B0643343207148S11650525EA0123501282000000000000
B0643383207091S11650496EA0124401291000000000000
B0643423207026S11650526EA0124901296000000000000
B0643463206991S11650600EA0125701304000000000000
B0643503207009S11650677EA0126201306000000000000
B0643543207066S11650720EA0126001306000000000000
B0643583207126S11650707EA0126401313000000000000
B0644023207156S11650650EA0127201320000000000000
B0644063207148S11650583EA0128201331000000000000
B0644103207104S11650535EA0128801338000000000000
B0644143207039S11650526EA0129301347000000000000
B0644183206977S11650565EA0130601358000000000000
B0644223206944S11650638EA0131301363000000000000
B0644263206955S11650716EA0131601365000000000000
B0644303207003S11650772EA0131701364000000000000
B0644343207064S11650781EA0131701367000000000000
B0644383207108S11650741EA0132301374000000000000
B0644423207120S11650677EA0133301386000000000000
B0644463207095S11650618EA0134301395000000000000
B0644503207044S11650581EA0134601398000000000000
B0644543206977S11650588EA0135401408000000000000
B0644583206922S11650639EA0136401417000000000000
B0645023206900S11650716EA0137001421000000000000
B0645063206927S11650786EA0137201424000000000000
B0645103206985S11650821EA0137201421000000000000
B0645143207044S11650812EA0137301426000000000000
B0645183207078S11650760EA0138101436000000000000
B0645223207066S11650698EA0139301448000000000000
B0645263207012S11650666EA0139701454000000000000
B0645303206948S11650696EA0140601461000000000000
B0645343206925S11650774EA0141601471000000000000
B0645383206957S11650845EA0142101475000000000000
B0645423207020S11650868EA0142201477000000000000
B0645463207073S11650842EA0143401492000000000000
B0645503207091S11650785EA0144801502000000000000
B0645543207064S11650728EA0144901504000000000000
B0645583207000S11650711EA0146001515000000000000
B0646023206943S11650759EA0147001523000000000000
B0646063206930S11650839EA0147701533000000000000
B0646103206966S11650907EA0148601540000000000000
B0646143207026S11650932EA0149001545000000000000
B0646183207078S11650898EA0149701551000000000000
B0646223207089S11650830EA0150301560000000000000
B0646263207052S11650773EA0151301567000000000000
B0646303206987S11650763EA0152201578000000000000
B0646343206935S11650816EA0153001587000000000000
B0646383206933S11650902EA0153901593000000000000
B0646423206981S11650963EA0154401599000000000000
B0646463207047S11650963EA0154901604000000000000
B0646503207083S11650903EA0155301609000000000000
B0646543207064S11650833EA0155901614000000000000
B0646583206998S11650803EA0156201616000000000000
B0647023206930S11650843EA0157201628000000000000
B0647063206905S11650928EA0158301640000000000000
B0647103206933S11651010EA0159001645000000000000
B0647143206998S11651047EA0159401650000000000000
B0647183207053S11651017EA0160501668000000000000
B0647223207060S11650955EA0162301680000000000000
B0647263207014S11650907EA0162201677000000000000
B0647303206947S11650915EA0163301695000000000000
B0647343206901S11650969EA0165501716000000000000
B0647383206891S11651045EA0166501720000000000000
B0647423206920S11651114EA0167101728000000000000
B0647463206972S11651150EA0168001735000000000000
B0647503207027S11651150EA0168801745000000000000
B0647543207069S11651116EA0169701756000000000000
B0647583207083S11651060EA0170801765000000000000
B0648023207064S11650995EA0170201752000000000000
B0648063207016S11650942EA0170101765000000000000
B0648103206962S11650920EA0172601791000000000000
B0648143206909S11650921EA0174201798000000000000
B0648183206851S11650945EA0173701790000000000000
B0648223206790S11650986EA0174101797000000000000
B0648263206734S11651032EA0175201806000000000000
B0648303206675S11651066EA0175601810000000000000
B0648343206608S11651068EA0175401801000000000000
B0648383206546S11651029EA0175301809000000000000
B0648423206523S11650964EA0177401827000000000000
B0648463206548S11650902EA0177201820000000000000
B0648503206613S11650880EA0176901825000000000000
B0648543206676S11650921EA0177701826000000000000
B0648583206696S11651016EA0176601812000000000000
B0649023206637S11651095EA0174701791000000000000
B0649063206558S11651059EA0171401745000000000000
B0649103206578S11650975EA0164401651000000000000
B0649143206657S11651029EA0152301531000000000000
B0649183206693S11651183EA0147701531000000000000
B0649223206713S11651326EA0150301559000000000000
B0649263206728S11651454EA0152501579000000000000
B0649303206740S11651570EA0154101594000000000000
B0649343206752S11651677EA0155501609000000000000
B0649383206761S11651778EA0156701617000000000000
B0649423206773S11651875EA0157101618000000000000
B0649463206792S11651972EA0157001618000000000000
B0649503206817S11652064EA0157201621000000000000
B0649543206843S11652151EA0157601625000000000000
B0649583206868S11652237EA0157401621000000000000
B0650023206890S11652328EA0156901613000000000000
B0650063206903S11652427EA0155801600000000000000
B0650103206905S11652531EA0154901594000000000000
B0650143206900S11652633EA0154601591000000000000
B0650183206891S11652736EA0153901585000000000000
B0650223206879S11652839EA0153401579000000000000
B0650263206869S11652941EA0153001577000000000000
B0650303206857S11653043EA0152701573000000000000
B0650343206847S11653144EA0152501570000000000000
B0650383206835S11653243EA0152201569000000000000
B0650423206823S11653342EA0152001568000000000000
B0650463206812S11653439EA0152101567000000000000
B0650503206801S11653537EA0151801563000000000000
B0650543206793S11653636EA0151301559000000000000
B0650583206795S11653734EA0150701552000000000000
B0651023206808S11653833EA0150001547000000000000
B0651063206829S11653931EA0149601543000000000000
B0651103206855S11654026EA0149201537000000000000
B0651143206882S11654122EA0148601530000000000000
B0651183206909S11654218EA0148001524000000000000
B0651223206936S11654317EA0147401521000000000000
B0651263206960S11654416EA0147201518000000000000
B0651303206982S11654513EA0146901515000000000000
B0651343207004S11654611EA0146601511000000000000
B0651383207025S11654706EA0146201508000000000000
B0651423207044S11654799EA0146101507000000000000
B0651463207065S11654890EA0145901504000000000000
B0651503207085S11654984EA0145301499000000000000
B0651543207105S11655077EA0145101497000000000000
B0651583207128S11655171EA0145101499000000000000
B0652023207152S11655262EA0145001497000000000000
B0652063207190S11655343EA0145501501000000000000
B0652103207247S11655397EA0145301497000000000000
B0652143207315S11655431EA0144901492000000000000
B0652183207388S11655452EA0144001484000000000000
B0652223207464S11655458EA0143201477000000000000
B0652263207538S11655450EA0142801475000000000000
B0652303207607S11655428EA0142701473000000000000
B0652343207670S11655396EA0142301469000000000000
B0652383207726S11655349EA0142301469000000000000
B0652423207775S11655289EA0141701462000000000000
B0652463207822S11655223EA0141201457000000000000
B0652503207862S11655150EA0140501452000000000000
B0652543207895S11655073EA0140601453000000000000
B0652583207922S11654995EA0140601456000000000000
B0653023207937S11654915EA0141401464000000000000
B0653063207914S11654841EA0142701474000000000000
B0653103207849S11654819EA0142801471000000000000
B0653143207778S11654854EA0141301454000000000000
B0653183207724S11654937EA0140401442000000000000
B0653223207685S11655041EA0138301420000000000000
B0653263207654S11655151EA0137001414000000000000
B0653303207624S11655257EA0136701412000000000000
B0653343207598S11655356EA0137001420000000000000
B0653383207573S11655450EA0137701426000000000000
B0653423207551S11655543EA0137601420000000000000
B0653463207533S11655639EA0137001415000000000000
B0653503207519S11655736EA0136201406000000000000
B0653543207494S11655835EA0134701390000000000000
B0653583207455S11655930EA0133901383000000000000
B0654023207412S11656020EA0133701385000000000000
B0654063207365S11656104EA0134001388000000000000
B0654103207321S11656184EA0134101386000000000000
B0654143207277S11656263EA0133501378000000000000
B0654183207234S11656347EA0133101377000000000000
B0654223207191S11656435EA0133801385000000000000
B0654263207150S11656519EA0134001387000000000000
B0654303207111S11656607EA0134001383000000000000
B0654343207068S11656696EA0133501383000000000000
B0654383207027S11656784EA0134501396000000000000
B0654423206987S11656871EA0135201400000000000000
B0654463206947S11656960EA0135601404000000000000
B0654503206908S11657048EA0135801405000000000000
B0654543206868S11657135EA0135801405000000000000
B0654583206825S11657221EA0136501410000000000000
B0655023206788S11657307EA0137201418000000000000
B0655063206790S11657398EA0138301430000000000000
B0655103206835S11657467EA0139001431000000000000
B0655143206904S11657491EA0138401426000000000000
B0655183206968S11657468EA0137601417000000000000
B0655223207008S11657410EA0136701410000000000000
B0655263207016S11657337EA0136101407000000000000
B0655303206992S11657267EA0135701403000000000000
B0655343206951S11657208EA0135201398000000000000
B0655383206890S11657169EA0134801393000000000000
B0655423206816S11657159EA0135001398000000000000
B0655463206741S11657187EA0135401402000000000000
B0655503206678S11657246EA0135601401000000000000
B0655543206637S11657329EA0135301400000000000000
B0655583206609S11657421EA0134901397000000000000
B0656023206580S11657515EA0134301388000000000000
B0656063206553S11657610EA0134301392000000000000
B0656103206531S11657703EA0134601395000000000000
B0656143206515S11657796EA0134301388000000000000
B0656183206501S11657889EA0133801385000000000000
B0656223206494S11657983EA0133401376000000000000
B0656263206506S11658074EA0132401368000000000000
B0656303206548S11658149EA0131801366000000000000
B0656343206610S11658191EA0131601360000000000000
B0656383206680S11658187EA0130101345000000000000
B0656423206740S11658138EA0128301329000000000000
B0656463206787S11658066EA0127201317000000000000
B0656503206829S11657984EA0126001307000000000000
B0656543206869S11657900EA0124801291000000000000
B0656583206912S11657815EA0123501282000000000000
B0657023206952S11657735EA0123501283000000000000
B0657063206988S11657657EA0123801286000000000000
B0657103207024S11657584EA0123601280000000000000
B0657143207064S11657510EA0123101276000000000000
B0657183207103S11657439EA0123201280000000000000
B0657223207139S11657368EA0123201280000000000000
B0657263207174S11657298EA0123101278000000000000
B0657303207209S11657225EA0122701272000000000000
B0657343207241S11657147EA0122401270000000000000
B0657383207265S11657068EA0123301276000000000000
B0657423207265S11656984EA0123401279000000000000
B0657463207226S11656914EA0124301288000000000000
B0657503207161S11656900EA0126801319000000000000
B0657543207124S11656958EA0129301339000000000000
B0657583207151S11657023EA0129801343000000000000
B0658023207208S11657023EA0130501355000000000000
B0658063207222S11656969EA0131801368000000000000
B0658103207182S11656934EA0132701375000000000000
B0658143207124S11656958EA0133901389000000000000
B0658183207095S11657027EA0135101400000000000000
B0658223207117S11657095EA0135901410000000000000
B0658263207170S11657126EA0137201421000000000000
B0658303207222S11657108EA0138001428000000000000
B0658343207243S11657056EA0138501438000000000000
B0658383207220S11657005EA0139401445000000000000
B0658423207164S11656997EA0140101452000000000000
B0658463207115S11657049EA0141001463000000000000
B0658503207112S11657124EA0141901471000000000000
B0658543207164S11657157EA0142601478000000000000
B0658583207212S11657124EA0143201485000000000000
B0659023207208S11657064EA0144601500000000000000
B0659063207159S11657034EA0145401506000000000000
B0659103207103S11657074EA0146301513000000000000
B0659143207092S11657152EA0146901523000000000000
B0659183207135S11657203EA0147701531000000000000
B0659223207193S11657195EA0148001533000000000000
B0659263207207S11657138EA0148601539000000000000
B0659303207161S11657085EA0148401531000000000000
B0659343207090S11657052EA0147101513000000000000
B0659383207003S11657031EA0144401487000000000000
B0659423206909S11657014EA0142701474000000000000
B0659463206814S11656999EA0141901468000000000000
B0659503206723S11656987EA0142501474000000000000
B0659543206636S11656979EA0142001465000000000000
B0659583206549S11656969EA0141601458000000000000
B0700023206462S11656955EA0141001452000000000000
B0700063206376S11656942EA0140701450000000000000
B0700103206292S11656930EA0140601449000000000000
B0700143206208S11656921EA0140201447000000000000
B0700183206127S11656910EA0140001444000000000000
B0700223206046S11656899EA0139501438000000000000
B0700263205964S11656890EA0138701431000000000000
B0700303205882S11656883EA0138401430000000000000
B0700343205802S11656877EA0138301427000000000000
B0700383205722S11656865EA0138101425000000000000
B0700423205646S11656852EA0137801422000000000000
B0700463205570S11656835EA0137501419000000000000
B0700503205496S11656814EA0137001416000000000000
B0700543205422S11656787EA0136701410000000000000
B0700583205353S11656752EA0136201405000000000000
B0701023205285S11656710EA0135601402000000000000
B0701063205218S11656670EA0135101391000000000000
B0701103205148S11656630EA0134001385000000000000
B0701143205080S11656591EA0134201393000000000000
B0701183205016S11656554EA0134401392000000000000
B0701223204953S11656516EA0134101387000000000000
B0701263204892S11656480EA0134101391000000000000
B0701303204836S11656445EA0134801398000000000000
B0701343204778S11656418EA0135901407000000000000
B0701383204713S11656431EA0136401414000000000000
B0701423204677S11656501EA0137201420000000000000
B0701463204695S11656575EA0137901428000000000000
B0701503204749S11656615EA0138201426000000000000
B0701543204810S11656611EA0138001427000000000000
B0701583204853S11656571EA0138101428000000000000
B0702023204866S11656510EA0137801425000000000000
B0702063204845S11656448EA0137901426000000000000
B0702103204803S11656394EA0138201430000000000000
B0702143204746S11656360EA0138301433000000000000
B0702183204677S11656366EA0138401434000000000000
B0702223204628S11656423EA0139001440000000000000
B0702263204622S11656503EA0139201439000000000000
B0702303204660S11656574EA0139201441000000000000
B0702343204725S11656600EA0138901438000000000000
B0702383204782S11656567EA0139601451000000000000
B0702423204806S11656501EA0141001463000000000000
B0702463204795S11656431EA0141601469000000000000
B0702503204755S11656376EA0141901471000000000000
B0702543204693S11656355EA0141601465000000000000
B0702583204624S11656375EA0141301463000000000000
B0703023204572S11656435EA0141201460000000000000
B0703063204556S11656523EA0140501455000000000000
B0703103204587S11656605EA0140601456000000000000
B0703143204650S11656652EA0140201454000000000000
B0703183204719S11656652EA0140901461000000000000
B0703223204772S11656613EA0141701471000000000000
B0703263204797S11656548EA0142401478000000000000
B0703303204785S11656477EA0142401475000000000000
B0703343204738S11656422EA0142001473000000000000
B0703383204671S11656405EA0141801470000000000000
B0703423204603S11656432EA0141501467000000000000
B0703463204556S11656498EA0141301461000000000000
B0703503204550S11656587EA0140501458000000000000
B0703543204585S11656663EA0140301454000000000000
B0703583204650S11656693EA0140201455000000000000
B0704023204708S11656661EA0140101454000000000000
B0704063204747S11656598EA0140001453000000000000
B0704103204777S11656531EA0140001454000000000000
B0704143204804S11656461EA0139501441000000000000
B0704183204837S11656386EA0138401432000000000000
B0704223204873S11656314EA0137301418000000000000
B0704263204918S11656238EA0135401402000000000000
B0704303204966S11656162EA0134801398000000000000
B0704343205014S11656090EA0135101404000000000000
B0704383205063S11656025EA0135401403000000000000
B0704423205111S11655957EA0134901397000000000000
B0704463205158S11655885EA0133901384000000000000
B0704503205205S11655808EA0132801378000000000000
B0704543205243S11655726EA0133201381000000000000
B0704583205246S11655639EA0134101388000000000000
B0705023205213S11655564EA0133501377000000000000
B0705063205150S11655501EA0131401357000000000000
B0705103205072S11655447EA0130701354000000000000
B0705143204997S11655400EA0130701354000000000000
B0705183204924S11655358EA0130901353000000000000
B0705223204851S11655317EA0130401348000000000000
B0705263204781S11655276EA0130401348000000000000
B0705303204716S11655237EA0130601352000000000000
B0705343204651S11655198EA0129701335000000000000
B0705383204581S11655151EA0127101308000000000000
B0705423204505S11655099EA0125301294000000000000
B0705463204433S11655047EA0125501302000000000000
B0705503204364S11655002EA0125601299000000000000
B0705543204290S11654960EA0124901291000000000000
B0705583204216S11654920EA0124501287000000000000
B0706023204141S11654880EA0124001285000000000000
B0706063204070S11654838EA0123601280000000000000
B0706103204000S11654795EA0123001273000000000000
B0706143203930S11654752EA0122301267000000000000
B0706183203861S11654709EA0121901263000000000000
B0706223203793S11654665EA0121401259000000000000
B0706263203725S11654621EA0121101254000000000000
B0706303203657S11654581EA0120401247000000000000
B0706343203588S11654540EA0119701239000000000000
B0706383203519S11654500EA0119301236000000000000
B0706423203450S11654459EA0118801229000000000000
B0706463203381S11654420EA0118701232000000000000
B0706503203309S11654387EA0118501228000000000000
B0706543203237S11654355EA0117801221000000000000
B0706583203165S11654318EA0117201212000000000000
B0707023203095S11654278EA0116901212000000000000
B0707063203030S11654235EA0118101230000000000000
B0707103202971S11654193EA0119801243000000000000
B0707143202905S11654178EA0120101245000000000000
B0707183202841S11654222EA0120401248000000000000
B0707223202827S11654308EA0121001256000000000000
B0707263202867S11654371EA0121601261000000000000
B0707303202927S11654378EA0121601258000000000000
B0707343202957S11654325EA0121501260000000000000
B0707383202944S11654258EA0121301259000000000000
B0707423202917S11654193EA0121401258000000000000
B0707463202866S11654149EA0121701263000000000000
B0707503202799S11654154EA0121901261000000000000
B0707543202749S11654217EA0121701261000000000000
B0707583202734S11654305EA0121601259000000000000
B0708023202757S11654388EA0121901267000000000000
B0708063202812S11654436EA0122301268000000000000
B0708103202877S11654430EA0121901262000000000000
B0708143202918S11654377EA0121601262000000000000
B0708183202921S11654306EA0121901268000000000000
B0708223202903S11654239EA0122301271000000000000
B0708263202875S11654178EA0122501273000000000000
B0708303202822S11654145EA0122701276000000000000
B0708343202761S11654175EA0122701271000000000000
B0708383202717S11654248EA0121801264000000000000
B0708423202675S11654326EA0121501259000000000000
B0708463202635S11654407EA0121001256000000000000
B0708503202605S11654492EA0121101258000000000000
B0708543202606S11654581EA0121401260000000000000
B0708583202641S11654655EA0121301258000000000000
B0709023202698S11654699EA0120601251000000000000
B0709063202769S11654719EA0119901242000000000000
B0709103202841S11654725EA0119001233000000000000
B0709143202916S11654722EA0118101224000000000000
B0709183202991S11654715EA0117401218000000000000
B0709223203061S11654690EA0117301220000000000000
B0709263203117S11654644EA0117401221000000000000
B0709303203165S11654589EA0117301221000000000000
B0709343203209S11654531EA0117801228000000000000
B0709383203243S11654478EA0119101240000000000000
B0709423203265S11654418EA0119501242000000000000
B0709463203238S11654370EA0120401252000000000000
B0709503203181S11654394EA0121301263000000000000
B0709543203168S11654468EA0122101270000000000000
B0709583203207S11654516EA0123001277000000000000
B0710023203254S11654504EA0122901274000000000000
B0710063203260S11654451EA0122901277000000000000
B0710103203213S11654414EA0123501284000000000000
B0710143203150S11654435EA0124201290000000000000
B0710183203118S11654507EA0125901311000000000000
B0710223203138S11654574EA0126601314000000000000
B0710263203192S11654596EA0126401311000000000000
B0710303203233S11654560EA0126501313000000000000
B0710343203226S11654501EA0126801316000000000000
B0710383203178S11654460EA0127201320000000000000
B0710423203112S11654461EA0127901331000000000000
B0710463203065S11654524EA0129701348000000000000
B0710503203074S11654599EA0130901361000000000000
B0710543203120S11654639EA0131601366000000000000
B0710583203168S11654628EA0131801368000000000000
B0711023203190S11654578EA0132001372000000000000
B0711063203169S11654525EA0132901381000000000000
B0711103203116S11654507EA0133801391000000000000
B0711143203059S11654540EA0134601398000000000000
B0711183203033S11654613EA0135501409000000000000
B0711223203060S11654677EA0136701418000000000000
B0711263203113S11654694EA0137201421000000000000
B0711303203153S11654660EA0137501425000000000000
B0711343203160S11654602EA0137801430000000000000
B0711383203125S11654552EA0138701440000000000000
B0711423203065S11654542EA0139501445000000000000
B0711463203005S11654583EA0139701446000000000000
B0711503202984S11654663EA0140901463000000000000
B0711543203016S11654725EA0141801469000000000000
B0711583203072S11654726EA0142201474000000000000
B0712023203095S11654676EA0143201484000000000000
B0712063203068S11654625EA0143801490000000000000
B0712103203005S11654616EA0143601487000000000000
B0712143202945S11654665EA0143701495000000000000
B0712183202938S11654751EA0145001507000000000000
B0712223202984S11654808EA0146201521000000000000
B0712263203042S11654806EA0146801520000000000000
B0712303203070S11654751EA0147401531000000000000
B0712343203052S11654693EA0148601538000000000000
B0712383203001S11654659EA0148401536000000000000
B0712423202935S11654677EA0149101544000000000000
B0712463202891S11654745EA0149801553000000000000
B0712503202887S11654829EA0150501562000000000000
B0712543202923S11654895EA0151401571000000000000
B0712583202981S11654919EA0152101577000000000000
B0713023203030S11654894EA0152901584000000000000
B0713063203043S11654837EA0153401588000000000000
B0713103203010S11654784EA0153301584000000000000
B0713143202944S11654769EA0152501576000000000000
B0713183202861S11654784EA0151301566000000000000
B0713223202773S11654800EA0151101566000000000000
B0713263202687S11654810EA0151201565000000000000
B0713303202601S11654810EA0151001559000000000000
B0713343202514S11654812EA0149901548000000000000
B0713383202424S11654817EA0149701550000000000000
B0713423202334S11654821EA0149501545000000000000
B0713463202241S11654826EA0149101541000000000000
B0713503202147S11654837EA0149501544000000000000
B0713543202055S11654855EA0149601543000000000000
B0713583201967S11654884EA0149201540000000000000
B0714023201874S11654917EA0148001527000000000000
B0714063201783S11654967EA0146601513000000000000
B0714103201694S11655023EA0146501510000000000000
B0714143201600S11655050EA0146001510000000000000
B0714183201512S11655044EA0146201513000000000000
B0714223201436S11655012EA0146501514000000000000
B0714263201371S11654966EA0146401510000000000000
B0714303201310S11654917EA0145601500000000000000
B0714343201250S11654869EA0145301500000000000000
B0714383201193S11654824EA0145701506000000000000
B0714423201136S11654784EA0146701520000000000000
B0714463201080S11654746EA0147701529000000000000
B0714503201021S11654708EA0148501533000000000000
B0714543200962S11654674EA0148801537000000000000
B0714583200894S11654647EA0149001536000000000000
B0715023200820S11654633EA0148501533000000000000
B0715063200742S11654633EA0148301528000000000000
B0715103200661S11654644EA0147701522000000000000
B0715143200578S11654665EA0147201514000000000000
B0715183200492S11654691EA0146001499000000000000
B0715223200404S11654724EA0144401485000000000000
B0715263200313S11654756EA0143101473000000000000
B0715303200221S11654791EA0142001465000000000000
B0715343200132S11654829EA0142101467000000000000
B0715383200048S11654867EA0141001457000000000000
B0715423159961S11654906EA0140201449000000000000
B0715463159872S11654942EA0139401442000000000000
B0715503159785S11654980EA0138901436000000000000
B0715543159698S11655019EA0138301428000000000000
B0715583159611S11655059EA0137301420000000000000
B0716023159524S11655101EA0136601414000000000000
B0716063159438S11655146EA0136201411000000000000
B0716103159351S11655189EA0136201411000000000000
B0716143159268S11655232EA0136301411000000000000
B0716183159183S11655272EA0135601406000000000000
B0716223159097S11655311EA0135301403000000000000
B0716263159012S11655350EA0135201401000000000000
B0716303158926S11655387EA0135001399000000000000
B0716343158840S11655421EA0134801396000000000000
B0716383158753S11655453EA0134401393000000000000
B0716423158666S11655480EA0134101391000000000000
B0716463158580S11655506EA0133801385000000000000
B0716503158494S11655532EA0133501380000000000000
B0716543158410S11655560EA0132801375000000000000
B0716583158324S11655584EA0132301370000000000000
B0717023158238S11655609EA0131901365000000000000
B0717063158152S11655635EA0131401360000000000000
B0717103158068S11655658EA0130901356000000000000
B0717143157983S11655681EA0130401351000000000000
B0717183157899S11655704EA0130001345000000000000
B0717223157814S11655726EA0129101337000000000000
B0717263157729S11655747EA0128401329000000000000
B0717303157643S11655766EA0127701324000000000000
B0717343157558S11655775EA0127301320000000000000
B0717383157474S11655778EA0127101318000000000000
B0717423157393S11655777EA0126801313000000000000
B0717463157311S11655773EA0126401311000000000000
