ACAM4N6
HFDTE110115
HFFXA050
HFPLTPILOT:JOHN WELSH              
HFGTYGLIDERTYPE:HORNET      
HFGIDGLIDERID:VH-GMY      
HFDTM100GPSDATUM:
HFRFWFIRMWAREVERSION:F2.6
HFRHWHARDWAREVERSION:300 Series Version 2
HFFTYFRTYPE:CAMBRIDGE AERO INSTRUMENTS, 302+
HFGPS:GARMIN,LVS-25,12,18000
HFPRSPRESSALTSENSOR:INTERSEMA, MS5534-AP, 20000
I033638FXA3941ENL4247REX
LCAMSBVER:5FWVER:F26300
C110115025909110115000102
C0000000N00000000WTAKEOFF     
C3207547S11656879EBeverley Air
C3042666S11646399EKONDUT      
C3123133S11829099EBURRCPPN    
C3207547S11656879EBeverley Air
C0000000N00000000WLANDING     
B0306223207338S11656856EA0022400199000004000000
B0306243207338S11656856EA0022500199000004000000
B0306263207338S11656856EA0022600199000004000000
B0306283207338S11656856EA0022600199000004000000
B0306303207338S11656857EA0022500199000004000000
B0306323207338S11656857EA0022400199000004000000
B0306343207338S11656857EA0022600199000004000000
B0306363207338S11656857EA0022600199000004000000
B0306383207338S11656857EA0022500199000004000000
B0306403207338S11656857EA0022500199000004000000
B0306423207338S11656857EA0022500199000004000000
B0306443207338S11656857EA0022600199000004000000
B0306463207338S11656857EA0022700199000004000000
B0306483207339S11656857EA0022600199000004000000
B0306503207341S11656858EA0022500200000004000000
B0306533207349S11656864EA0022400200000004000000
B0306573207371S11656883EA0022300200000004000000
B0307013207410S11656910EA0022300200000004000000
B0307053207462S11656942EA0022400201000004000000
B0307093207525S11656981EA0022500202000004000000
B0307133207593S11657027EA0022600205000004000000
B0307173207661S11657077EA0023100213000004000000
B0307213207729S11657129EA0024000227000004000000
B0307253207797S11657185EA0025000239000004000000
B0307293207863S11657242EA0026400258000004000000
B0307333207930S11657300EA0027500266000004000000
B0307373207996S11657359EA0028400280000004000000
B0307413208058S11657411EA0031200315000004000000
B0307453208123S11657463EA0033400336000004000000
B0307493208188S11657515EA0035200351000004000000
B0307533208253S11657555EA0037100383000004000000
B0307573208325S11657585EA0040100407000004000000
B0308013208400S11657607EA0041500414000004000000
B0308053208480S11657623EA0041900422000004000000
B0308093208558S11657638EA0043300436000004000000
B0308133208638S11657657EA0044500447000004000000
B0308173208720S11657671EA0045200453000004000000
B0308213208806S11657689EA0045900459000004000000
B0308253208890S11657711EA0046600471000004000000
B0308293208974S11657732EA0048300487000004000000
B0308333209054S11657758EA0049700502000004000000
B0308373209126S11657798EA0051200518000004000000
B0308413209188S11657852EA0053300546000004000000
B0308453209241S11657917EA0056100572000004000000
B0308493209283S11657995EA0058800603000004000000
B0308533209310S11658082EA0061500627000004000000
B0308573209317S11658174EA0063500647000004000000
B0309013209302S11658268EA0065400666000004000000
B0309053209266S11658352EA0067300683000004000000
B0309093209213S11658422EA0068800698000004000000
B0309133209141S11658463EA0070300716000004000000
B0309173209059S11658468EA0071600728000004000000
B0309213208979S11658435EA0073200744000004000000
B0309253208906S11658373EA0074600763000004000000
B0309293208854S11658281EA0076100775000004000000
B0309333208827S11658177EA0077600794000004000000
B0309373208827S11658071EA0079500810000004000000
B0309413208847S11657971EA0080700821000004000000
B0309453208868S11657880EA0081600826000004000000
B0309493208836S11657810EA0081100814000004000000
B0309533208769S11657819EA0079600798000004000000
B0309573208743S11657892EA0078600788000004000000
B0310013208753S11657976EA0077000772000004000000
B0310053208767S11658065EA0076000762000004000000
B0310093208781S11658153EA0075100751000004000000
B0310133208789S11658244EA0074100741000004000000
B0310173208790S11658334EA0073700746000004000000
B0310213208803S11658420EA0074200750000004000000
B0310253208841S11658482EA0075700770000004000000
B0310293208903S11658474EA0077100776000004000000
B0310333208928S11658405EA0076900774000004000000
B0310373208890S11658342EA0076500771000004000000
B0310413208829S11658322EA0076400769000004000000
B0310453208769S11658347EA0075800763000004000000
B0310493208732S11658409EA0075200756000004000000
B0310533208715S11658487EA0074700752000004000000
B0310573208724S11658565EA0074900754000004000000
B0311013208769S11658628EA0074900760000004000000
B0311053208833S11658621EA0075800766000004000000
B0311093208851S11658546EA0076000764000004000000
B0311133208803S11658502EA0075300755000004000000
B0311173208747S11658533EA0074200737000004000000
B0311213208720S11658604EA0072500730000004000000
B0311253208703S11658684EA0073000736000004000000
B0311293208691S11658767EA0073300737000004000000
B0311333208684S11658853EA0072000723000004000000
B0311373208677S11658941EA0070800710000004000000
B0311413208673S11659031EA0070400708000004000000
B0311453208669S11659116EA0070900716000004000000
B0311493208655S11659198EA0071600725000004000000
B0311533208678S11659258EA0073300749000004000000
B0311573208733S11659227EA0073800744000004000000
B0312013208714S11659155EA0072500736000004000000
B0312053208658S11659145EA0072900739000004000000
B0312093208615S11659191EA0073200739000004000000
B0312133208589S11659254EA0072500730000004000000
B0312173208581S11659331EA0072100728000004000000
B0312213208578S11659408EA0071800721000004000000
B0312253208591S11659484EA0070500708000004000000
B0312293208602S11659561EA0069500691000004000000
B0312333208560S11659617EA0068500686000004000000
B0312373208498S11659597EA0068200682000004000000
B0312413208460S11659523EA0066100664000004000000
B0312453208437S11659434EA0064700652000004000000
B0312493208412S11659341EA0064000642000004000000
B0312533208396S11659244EA0062900629000004000000
B0312573208379S11659148EA0062000621000004000000
B0313013208360S11659051EA0061400616000004000000
B0313053208333S11658959EA0060300601000004000000
B0313093208303S11658868EA0059600600000004000000
B0313133208269S11658786EA0060100602000004000000
B0313173208221S11658725EA0060700609000004000000
B0313213208157S11658715EA0061100613000004000000
B0313253208118S11658765EA0062100620000004000000
B0313293208142S11658821EA0062700622000004000000
B0313333208191S11658806EA0062400621000004000000
B0313373208171S11658746EA0062500625000004000000
B0313413208114S11658754EA0062700627000004000000
B0313453208105S11658819EA0063700633000004000000
B0313493208156S11658836EA0063900635000004000000
B0313533208168S11658776EA0064000637000004000000
B0313573208118S11658755EA0064300640000004000000
B0314013208096S11658814EA0064700640000004000000
B0314053208140S11658862EA0064200638000004000000
B0314093208186S11658825EA0065300653000004000000
B0314133208155S11658776EA0066500663000004000000
B0314173208108S11658803EA0067100667000004000000
B0314213208121S11658868EA0067000662000004000000
B0314253208181S11658873EA0067200671000004000000
B0314293208204S11658811EA0068400684000004000000
B0314333208160S11658772EA0069500692000004000000
B0314373208112S11658810EA0069700695000004000000
B0314413208123S11658876EA0070400702000004000000
B0314453208178S11658881EA0071300711000004000000
B0314493208186S11658819EA0071800723000004000000
B0314533208136S11658790EA0072700733000004000000
B0314573208095S11658833EA0073300737000004000000
B0315013208117S11658893EA0073600742000004000000
B0315053208169S11658871EA0074300749000004000000
B0315093208149S11658815EA0075400764000004000000
B0315133208099S11658833EA0076300768000004000000
B0315173208100S11658898EA0076500769000004000000
B0315213208155S11658914EA0077100778000004000000
B0315253208175S11658855EA0077500782000004000000
B0315293208125S11658824EA0078300792000004000000
B0315333208087S11658872EA0079300800000004000000
B0315373208121S11658918EA0080200810000004000000
B0315413208170S11658888EA0080500809000004000000
B0315453208165S11658821EA0081400829000004000000
B0315493208114S11658812EA0082700838000004000000
B0315533208093S11658872EA0082900835000004000000
B0315573208138S11658915EA0083400840000004000000
B0316013208194S11658889EA0083500842000004000000
B0316053208199S11658817EA0084100850000004000000
B0316093208148S11658793EA0085100862000004000000
B0316133208113S11658846EA0085900870000004000000
B0316173208142S11658895EA0086900880000004000000
B0316213208192S11658868EA0087200879000004000000
B0316253208200S11658794EA0087800889000004000000
B0316293208148S11658776EA0089100903000004000000
B0316333208121S11658833EA0089700911000004000000
B0316373208160S11658875EA0090400919000004000000
B0316413208207S11658840EA0091100922000004000000
B0316453208204S11658768EA0091500933000004000000
B0316493208151S11658750EA0093300948000004000000
B0316533208125S11658806EA0094000951000004000000
B0316573208160S11658851EA0094500960000004000000
B0317013208217S11658837EA0094400956000004000000
B0317053208244S11658769EA0094400964000004000000
B0317093208213S11658708EA0096300988000004000000
B0317133208164S11658730EA0098301002000004000000
B0317173208178S11658788EA0099001010000004000000
B0317213208231S11658776EA0099601016000004000000
B0317253208230S11658708EA0100801030000004015000
B0317293208173S11658719EA0102401049000004015000
B0317333208171S11658778EA0103901065000004015000
B0317373208221S11658797EA0104501069000004015000
B0317413208256S11658745EA0104801076000004015000
B0317453208234S11658681EA0106501094000004015000
B0317493208179S11658676EA0107801102000004015000
B0317533208156S11658736EA0107801099000004015000
B0317573208194S11658788EA0108301105000004000000
B0318013208253S11658768EA0108101105000004000000
B0318053208268S11658694EA0108701116000004000000
B0318093208220S11658655EA0110601137000004000000
B0318133208196S11658704EA0112001145000004000000
B0318173208248S11658723EA0112801154000004015000
B0318213208269S11658655EA0113701169000004000000
B0318253208218S11658622EA0115001180000004000000
B0318293208196S11658677EA0116301192000004000000
B0318333208242S11658708EA0117901207000004015000
B0318373208286S11658663EA0118301210000004000000
B0318413208278S11658586EA0119201225000004000000
B0318453208223S11658565EA0120401233000004000000
B0318493208199S11658621EA0120601232000004000000
B0318533208247S11658655EA0122401255000004000000
B0318573208295S11658612EA0123901269000004000000
B0319013208285S11658543EA0125401283000004000000
B0319053208230S11658529EA0125801284000004000000
B0319093208208S11658586EA0126201288000004000000
B0319133208251S11658625EA0127601307000004000000
B0319173208301S11658587EA0129201324000004000000
B0319213208299S11658513EA0129801330000004000000
B0319253208242S11658483EA0130301332000004000000
B0319293208203S11658533EA0130901340000004000000
B0319333208234S11658587EA0132401358000004000000
B0319373208291S11658576EA0133901372000004000000
B0319413208311S11658505EA0135401386000004000000
B0319453208266S11658461EA0135801386000004000000
B0319493208221S11658490EA0136401394000004000000
B0319533208246S11658542EA0137101403000004000000
B0319573208307S11658530EA0138101413000004000000
B0320013208329S11658453EA0139301425000004000000
B0320053208279S11658408EA0139701428000004000000
B0320093208231S11658446EA0139601429000004000000
B0320133208252S11658509EA0140301433000004000000
B0320173208316S11658521EA0141301448000004000000
B0320213208353S11658450EA0143001460000004000000
B0320253208324S11658377EA0143501466000004000000
B0320293208260S11658382EA0143301461000004000000
B0320333208238S11658444EA0144001476000004000000
B0320373208262S11658503EA0145001482000004000000
B0320413208324S11658524EA0145301483000004000000
B0320453208381S11658477EA0146001494000004000000
B0320493208391S11658395EA0146901499000004000000
B0320533208347S11658335EA0147001504000004000000
B0320573208292S11658353EA0147301501000004000000
B0321013208299S11658420EA0146901504000004000000
B0321053208359S11658442EA0148001514000004000000
B0321093208416S11658401EA0149001525000004000000
B0321133208435S11658322EA0149801528000004000000
B0321173208407S11658245EA0149601529000004000000
B0321213208356S11658186EA0149401525000004000000
B0321253208300S11658130EA0148301513000004000000
B0321293208236S11658071EA0146801487000004000000
B0321333208175S11658000EA0144401470000004000000
B0321373208116S11657922EA0143201455000004000000
B0321413208057S11657837EA0141601439000004000000
B0321453208001S11657748EA0140901436000004000000
B0321493207953S11657651EA0140301425000004000000
B0321533207906S11657546EA0138001403000004000000
B0321573207861S11657433EA0136201382000004000000
B0322013207814S11657316EA0134401367000004000000
B0322053207767S11657204EA0134601372000004000000
B0322093207726S11657098EA0134901372000004000000
B0322133207692S11656994EA0135401377000004000000
B0322173207642S11656909EA0135401381000004000000
B0322213207568S11656873EA0136601391000004000000
B0322253207488S11656854EA0137001393000004000000
B0322293207401S11656839EA0136401387000004000000
B0322333207312S11656823EA0136001384000004000000
B0322373207224S11656813EA0135201372000004000000
B0322413207133S11656795EA0133701355000004000000
B0322453207046S11656754EA0132401341000004000000
B0322493206962S11656697EA0130501315000004000000
B0322533206882S11656630EA0128301296000004000000
B0322573206810S11656554EA0127401299000004000000
B0323013206749S11656483EA0128401308000004000000
B0323053206692S11656412EA0129801328000004000000
B0323093206635S11656367EA0132701352000004000000
B0323133206584S11656396EA0134101361000004000000
B0323173206608S11656462EA0133801363000004000000
B0323213206680S11656462EA0134501381000004000000
B0323253206718S11656402EA0135901391000004000000
B0323293206693S11656341EA0136201394000004000000
B0323333206637S11656342EA0136301392000004000000
B0323373206591S11656394EA0135601379000004000000
B0323413206523S11656429EA0133201351000004000000
B0323453206435S11656432EA0132101351000004000000
B0323493206349S11656427EA0131801343000004000000
B0323533206260S11656418EA0130501323000004000000
B0323573206171S11656401EA0128601311000004000000
B0324013206084S11656381EA0127801299000004000000
B0324053205995S11656364EA0127001295000004000000
B0324093205908S11656349EA0128401317000004000000
B0324133205833S11656338EA0131701342000004000000
B0324173205761S11656342EA0131801327000004000000
B0324213205678S11656336EA0128601295000004000000
B0324253205587S11656318EA0125901273000004000000
B0324293205495S11656297EA0124601261000004000000
B0324333205405S11656272EA0123201250000004000000
B0324373205315S11656249EA0122601241000004000000
B0324413205228S11656227EA0122001237000004000000
B0324453205141S11656204EA0121201225000004000000
B0324493205054S11656184EA0120001214000004000000
B0324533204964S11656163EA0119101208000004000000
B0324573204876S11656143EA0118701206000004000000
B0325013204788S11656124EA0118501202000004000000
B0325053204699S11656107EA0118101195000004000000
B0325093204609S11656089EA0117301188000004000000
B0325133204520S11656072EA0116001175000004000000
B0325173204431S11656050EA0115501170000004000000
B0325213204344S11656025EA0114701159000004000000
B0325253204256S11655996EA0113401145000004000000
B0325293204170S11655964EA0112701142000004000000
B0325333204086S11655930EA0111601129000004000000
B0325373204001S11655894EA0110001112000004000000
B0325413203918S11655859EA0109201105000004000000
B0325453203835S11655826EA0108501097000004000000
B0325493203751S11655796EA0107501088000004000000
B0325533203668S11655769EA0107001080000004000000
B0325573203585S11655747EA0106101071000004000000
B0326013203504S11655731EA0106201074000004000000
B0326053203425S11655722EA0105901067000004000000
B0326093203343S11655718EA0105401065000004000000
B0326133203278S11655739EA0108301101000004000000
B0326173203295S11655796EA0111501140000004000000
B0326213203348S11655768EA0112701149000004000000
B0326253203334S11655703EA0113001156000004000000
B0326293203282S11655709EA0113701160000004000000
B0326333203282S11655774EA0115301176000004000000
B0326373203341S11655792EA0116801193000004000000
B0326413203378S11655738EA0117901204000004000000
B0326453203348S11655687EA0118301211000004000000
B0326493203308S11655717EA0119201217000004000000
B0326533203334S11655774EA0120301226000004000000
B0326573203397S11655774EA0121301241000004000000
B0327013203436S11655722EA0122701252000004000000
B0327053203425S11655661EA0123101253000004000000
B0327093203378S11655643EA0123101254000004000000
B0327133203326S11655668EA0123301256000004000000
B0327173203315S11655729EA0124301269000004000000
B0327213203371S11655744EA0125401276000004000000
B0327253203410S11655683EA0125401278000004000000
B0327293203389S11655622EA0126801293000004000000
B0327333203342S11655609EA0127401296000004000000
B0327373203291S11655638EA0127301294000004000000
B0327413203278S11655701EA0128001310000004000000
B0327453203325S11655735EA0129801321000004000000
B0327493203380S11655700EA0129901319000004000000
B0327533203402S11655630EA0130101322000004000000
B0327573203381S11655564EA0131001335000004000000
B0328013203332S11655567EA0132101343000004000000
B0328053203332S11655629EA0132401346000004000000
B0328093203391S11655643EA0133001357000004000000
B0328133203436S11655591EA0134001367000004000000
B0328173203428S11655521EA0134801375000004000000
B0328213203380S11655495EA0135701384000004000000
B0328253203343S11655536EA0136701394000004000000
B0328293203363S11655597EA0137501399000004000000
B0328333203421S11655609EA0137801405000004000000
B0328373203464S11655553EA0138501412000004000000
B0328413203449S11655489EA0139501427000004000000
B0328453203402S11655482EA0140701433000004000000
B0328493203381S11655538EA0140801436000004000000
B0328533203421S11655586EA0141701445000004000000
B0328573203478S11655566EA0142201449000004000000
B0329013203499S11655497EA0142801458000004000000
B0329053203471S11655444EA0144001472000004000000
B0329093203424S11655441EA0144901478000004000000
B0329133203407S11655493EA0145601486000004000000
B0329173203450S11655538EA0146001488000004000000
B0329213203511S11655515EA0146501495000004000000
B0329253203527S11655448EA0147201504000004000000
B0329293203495S11655396EA0147801511000004000000
B0329333203445S11655398EA0148301514000004000000
B0329373203425S11655456EA0149101524000004000000
B0329413203469S11655504EA0150101533000004000000
B0329453203532S11655488EA0150701537000004000000
B0329493203554S11655421EA0151501546000004000000
B0329533203523S11655367EA0151901549000004000000
B0329573203464S11655353EA0150801536000004000000
B0330013203394S11655350EA0150001531000004000000
B0330053203321S11655367EA0149601522000004000000
B0330093203242S11655379EA0147701498000004000000
B0330133203151S11655383EA0145601480000004000000
B0330173203055S11655379EA0145001485000004000000
B0330213202962S11655371EA0146001490000004000000
B0330253202873S11655363EA0146501487000004000000
B0330293202779S11655353EA0144701468000004000000
B0330333202687S11655340EA0143301454000004000000
B0330373202593S11655324EA0141501438000004000000
B0330413202500S11655310EA0140301425000004000000
B0330453202407S11655292EA0139701419000004000000
B0330493202316S11655278EA0139301417000004000000
B0330533202228S11655263EA0139001413000004000000
B0330573202139S11655253EA0139101414000004000000
B0331013202052S11655240EA0139101416000004000000
B0331053201969S11655229EA0139601420000004000000
B0331093201890S11655218EA0140101426000004000000
B0331133201809S11655205EA0140401426000004000000
B0331173201733S11655198EA0142001446000004000000
B0331213201664S11655213EA0143401458000004000000
B0331253201603S11655245EA0143801455000004000000
B0331293201534S11655275EA0141601420000004000000
B0331333201447S11655284EA0137901392000004000000
B0331373201354S11655279EA0136601385000004000000
B0331413201266S11655266EA0136801398000004000000
B0331453201184S11655245EA0138001405000004000000
B0331493201106S11655220EA0138001401000004000000
B0331533201027S11655193EA0136601386000004000000
B0331573200943S11655163EA0135401375000004000000
B0332013200862S11655133EA0134301363000004000000
B0332053200778S11655099EA0133301352000004000000
B0332093200698S11655067EA0132501348000004000000
B0332133200620S11655040EA0132601348000004000000
B0332173200544S11655012EA0132601345000004000000
B0332213200466S11654984EA0131701335000004000000
B0332253200391S11654956EA0132601354000004000000
B0332293200321S11654932EA0134101365000004000000
B0332333200251S11654912EA0134501369000004000000
B0332373200180S11654894EA0134801370000004000000
B0332413200108S11654878EA0134401366000004000000
B0332453200035S11654871EA0134801371000004000000
B0332493159961S11654852EA0135401381000004000000
B0332533159892S11654837EA0137701406000004000000
B0332573159836S11654860EA0140001431000004000000
B0333013159854S11654914EA0141901443000004000000
B0333053159913S11654888EA0142201456000004000000
B0333093159910S11654817EA0145201487000004000000
B0333133159859S11654784EA0146901500000004000000
B0333173159814S11654813EA0148401512000004000000
B0333213159824S11654872EA0149501526000004000000
B0333253159879S11654891EA0150501535000004000000
B0333293159916S11654838EA0152201557000004000000
B0333333159888S11654777EA0154501579000004000000
B0333373159832S11654781EA0155501591000004000000
B0333413159825S11654839EA0157001605000004000000
B0333453159876S11654872EA0157601612000004000000
B0333493159928S11654834EA0159001632000004000000
B0333533159927S11654761EA0161001650000004000000
B0333573159874S11654716EA0163001670000004000000
B0334013159820S11654738EA0165001688000004000000
B0334053159818S11654798EA0165701694000004000000
B0334093159871S11654816EA0166701705000004000000
B0334133159900S11654754EA0168201725000004000000
B0334173159855S11654702EA0170601748000004000000
B0334213159818S11654741EA0171601755000004000000
B0334253159854S11654785EA0172801773000004000000
B0334293159903S11654754EA0174801794000004000000
B0334333159898S11654685EA0177001816000004000000
B0334373159845S11654664EA0178801831000004000000
B0334413159823S11654716EA0179701839000004000000
B0334453159863S11654750EA0180801856000004000000
B0334493159905S11654704EA0182901875000004000000
B0334533159874S11654642EA0184201889000004000000
B0334573159816S11654656EA0185801902000004000000
B0335013159828S11654712EA0187401919000004000000
B0335053159881S11654712EA0188801932000004000000
B0335093159896S11654643EA0189901949000004000000
B0335133159846S11654598EA0191401960000004000000
B0335173159807S11654637EA0192801975000004000000
B0335213159827S11654686EA0194301986000004000000
B0335253159881S11654681EA0194401991000004000000
B0335293159906S11654611EA0195902012000004000000
B0335333159868S11654555EA0197202021000004000000
B0335373159818S11654578EA0198002029000004000000
B0335413159832S11654634EA0198602032000004000000
B0335453159892S11654624EA0199202044000004000000
B0335493159903S11654551EA0201002060000004000000
B0335533159849S11654527EA0201702063000004000000
B0335573159822S11654583EA0202302072000004000000
B0336013159858S11654626EA0203802088000004000000
B0336053159911S11654616EA0204902095000004000000
B0336093159937S11654553EA0205802107000004000000
B0336133159896S11654504EA0207102122000004000000
B0336173159850S11654535EA0207802127000004000000
B0336213159866S11654594EA0208102130000004000000
B0336253159924S11654598EA0208702135000004000000
B0336293159961S11654534EA0209802151000004000000
B0336333159941S11654461EA0211202167000004000000
B0336373159884S11654433EA0211702166000004000000
B0336413159841S11654478EA0212002171000004000000
B0336453159866S11654534EA0212702177000004000000
B0336493159923S11654520EA0213302183000004000000
B0336533159948S11654451EA0214302197000004000000
B0336573159931S11654382EA0215202199000004000000
B0337013159876S11654340EA0213902178000004000000
B0337053159797S11654322EA0211302151000004000000
B0337093159707S11654317EA0208702128000004000000
B0337133159610S11654318EA0206102099000004000000
B0337173159508S11654323EA0203602078000004000000
B0337213159407S11654323EA0202902073000004000000
B0337253159309S11654325EA0202902073000004000000
B0337293159214S11654325EA0203002075000004000000
B0337333159122S11654323EA0203302076000004000000
B0337373159032S11654321EA0203302076000004000000
B0337413158944S11654319EA0203402076000004000000
B0337453158854S11654319EA0203202075000004000000
B0337493158766S11654319EA0202802067000004000000
B0337533158674S11654317EA0202002061000004000000
B0337573158584S11654317EA0201802059000004000000
B0338013158493S11654317EA0201102051000004000000
B0338053158402S11654316EA0200602042000004000000
B0338093158311S11654314EA0199502034000004000000
B0338133158221S11654316EA0199102030000004000000
B0338173158133S11654319EA0198602023000004000000
B0338213158044S11654326EA0198102018000004000000
B0338253157956S11654334EA0197802017000004000000
B0338293157866S11654338EA0197102008000004000000
B0338333157778S11654343EA0197002008000004000000
B0338373157690S11654344EA0196302001000004000000
B0338413157601S11654344EA0196001996000004000000
B0338453157513S11654343EA0195501993000004000000
B0338493157427S11654343EA0195401992000004000000
B0338533157340S11654343EA0195001985000004000000
B0338573157249S11654344EA0193601972000004000000
B0339013157157S11654348EA0193101967000004000000
B0339053157064S11654349EA0191901957000004000000
B0339093156973S11654352EA0191101948000004000000
B0339133156884S11654352EA0190101941000004000000
B0339173156794S11654351EA0190101940000004000000
B0339213156705S11654351EA0189601932000004000000
B0339253156614S11654349EA0188201917000004000000
B0339293156523S11654348EA0186801901000004000000
B0339333156427S11654345EA0184801878000004000000
B0339373156330S11654342EA0182901865000004000000
B0339413156230S11654339EA0181901855000004000000
B0339453156131S11654335EA0181401851000004000000
B0339493156035S11654332EA0180901842000004000000
B0339533155936S11654327EA0179901830000004000000
B0339573155838S11654321EA0178901823000004000000
B0340013155743S11654316EA0178901821000004000000
B0340053155650S11654308EA0178901821000004000000
B0340093155558S11654300EA0178301812000004000000
B0340133155465S11654293EA0177901809000004000000
B0340173155377S11654288EA0178201812000004000000
B0340213155296S11654283EA0178201806000004000000
B0340253155212S11654277EA0177101792000004000000
B0340293155125S11654270EA0175501776000004000000
B0340333155038S11654270EA0174801773000004000000
B0340373154953S11654284EA0174201762000004000000
B0340413154865S11654296EA0172801748000004000000
B0340453154776S11654304EA0171601737000004000000
B0340493154684S11654313EA0170301721000004000000
B0340533154588S11654318EA0168501705000004000000
B0340573154490S11654321EA0167001690000004000000
B0341013154390S11654325EA0166301685000004000000
B0341053154293S11654330EA0165601679000004000000
B0341093154198S11654334EA0164901669000004000000
B0341133154104S11654336EA0163901658000004000000
B0341173154011S11654334EA0163001651000004000000
B0341213153917S11654329EA0162101635000004000000
B0341253153822S11654325EA0160501627000004000000
B0341293153731S11654319EA0159901617000004000000
B0341333153640S11654310EA0158601604000004000000
B0341373153550S11654300EA0157601595000004000000
B0341413153461S11654290EA0156601586000004000000
B0341453153371S11654278EA0156001582000004000000
B0341493153284S11654270EA0155701576000004000000
B0341533153195S11654262EA0154701564000004000000
B0341573153106S11654261EA0154601568000004000000
B0342013153020S11654278EA0155001572000004000000
B0342053152941S11654306EA0154701566000004000000
B0342093152859S11654332EA0154401560000004000000
B0342133152774S11654352EA0153601552000004000000
B0342173152688S11654365EA0152801543000004000000
B0342213152601S11654373EA0152501541000004000000
B0342253152514S11654378EA0152601547000004000000
B0342293152435S11654390EA0153301553000004000000
B0342333152362S11654409EA0153301550000004000000
B0342373152287S11654418EA0153101553000004000000
B0342413152224S11654442EA0154701573000004000000
B0342453152236S11654494EA0156401585000004000000
B0342493152295S11654470EA0155601570000004000000
B0342533152298S11654384EA0154901568000004000000
B0342573152249S11654329EA0154701567000004000000
B0343013152183S11654310EA0154401562000004000000
B0343053152115S11654314EA0154201562000004000000
B0343093152049S11654331EA0153701555000004000000
B0343133151979S11654349EA0151901535000004000000
B0343173151899S11654368EA0149801515000004000000
B0343213151815S11654384EA0148701510000004000000
B0343253151734S11654399EA0149201514000004000000
B0343293151656S11654412EA0148601500000004000000
B0343333151573S11654423EA0146601479000004000000
B0343373151489S11654436EA0145701474000004000000
B0343413151405S11654452EA0145201463000004000000
B0343453151321S11654465EA0144101457000004000000
B0343493151235S11654470EA0143401449000004000000
B0343533151149S11654461EA0142601436000004000000
B0343573151065S11654435EA0141401426000004000000
B0344013150983S11654399EA0140101413000004000000
B0344053150901S11654357EA0138701399000004000000
B0344093150820S11654313EA0137401388000004000000
B0344133150741S11654269EA0136601383000004000000
B0344173150663S11654226EA0135801375000004000000
B0344213150584S11654183EA0134901363000004000000
B0344253150501S11654143EA0133501349000004000000
B0344293150416S11654108EA0132701340000004000000
B0344333150330S11654075EA0131601328000004000000
B0344373150246S11654043EA0132001341000004000000
B0344413150163S11654026EA0133901362000004000000
B0344453150098S11654058EA0136401387000004000000
B0344493150079S11654128EA0137901393000004000000
B0344533150082S11654204EA0137501388000004000000
B0344573150088S11654283EA0137001377000004000000
B0345013150104S11654365EA0136801383000004000000
B0345053150134S11654434EA0138001398000004000000
B0345093150190S11654416EA0138601402000004000000
B0345133150187S11654340EA0138301399000004000000
B0345173150131S11654316EA0138701409000004000000
B0345213150081S11654351EA0139501415000004000000
B0345253150066S11654420EA0140201422000004000000
B0345293150099S11654478EA0140001419000004000000
B0345333150163S11654483EA0139301410000004000000
B0345373150183S11654418EA0139001405000004000000
B0345413150135S11654366EA0137801393000004000000
B0345453150064S11654339EA0136001374000004000000
B0345493149981S11654314EA0134501362000004000000
B0345533149891S11654303EA0133601362000004000000
B0345573149805S11654301EA0135901386000004000000
B0346013149732S11654338EA0138301407000004000000
B0346053149717S11654403EA0140501428000004000000
B0346093149766S11654417EA0139801411000004000000
B0346133149792S11654348EA0138801408000004000000
B0346173149750S11654278EA0139001412000004000000
B0346213149684S11654243EA0139701421000004000000
B0346253149639S11654280EA0141201433000004000000
B0346293149666S11654326EA0141601434000004000000
B0346333149714S11654290EA0140501428000004000000
B0346373149700S11654210EA0140801432000004000000
B0346413149639S11654165EA0140101426000004000000
B0346453149561S11654143EA0139601412000004000000
B0346493149470S11654126EA0137901399000004000000
B0346533149375S11654111EA0137201386000004000000
B0346573149272S11654096EA0135101368000004000000
B0347013149168S11654082EA0133401349000004000000
B0347053149063S11654066EA0131601333000004000000
B0347093148959S11654050EA0130501323000004000000
B0347133148856S11654040EA0129601311000004000000
B0347173148753S11654033EA0128301298000004000000
B0347213148652S11654028EA0127501290000004000000
B0347253148551S11654026EA0126601284000004000000
B0347293148452S11654024EA0126501277000004000000
B0347333148353S11654023EA0125401266000004000000
B0347373148255S11654022EA0124601260000004000000
B0347413148161S11654022EA0123801250000004000000
B0347453148066S11654027EA0123301247000004000000
B0347493147973S11654037EA0123801254000004000000
B0347533147893S11654070EA0125801275000004000000
B0347573147843S11654128EA0128201298000004000000
B0348013147804S11654192EA0128301294000004000000
B0348053147780S11654266EA0127101281000004000000
B0348093147732S11654335EA0124201248000004000000
B0348133147656S11654383EA0121601214000004000000
B0348173147565S11654409EA0118701188000004000000
B0348213147469S11654423EA0116301167000004000000
B0348253147371S11654435EA0114401150000004000000
B0348293147274S11654448EA0113001137000004000000
B0348333147176S11654461EA0111701124000004000000
B0348373147082S11654474EA0110601112000004000000
B0348413146985S11654486EA0109601102000004000000
B0348453146890S11654496EA0108801089000004000000
B0348493146794S11654501EA0107601078000004000000
B0348533146697S11654501EA0106701074000004000000
B0348573146601S11654501EA0107901095000004000000
B0349013146532S11654538EA0111501136000004000000
B0349053146554S11654586EA0115601169000004000000
B0349093146597S11654553EA0116501174000004000000
B0349133146578S11654486EA0116901179000004000000
B0349173146519S11654475EA0117901190000004000000
B0349213146495S11654535EA0119401206000004000000
B0349253146528S11654586EA0120401216000004000000
B0349293146582S11654572EA0121101223000004000000
B0349333146606S11654503EA0121601226000004000000
B0349373146576S11654431EA0122301237000004000000
B0349413146515S11654423EA0123201252000004000000
B0349453146500S11654483EA0125201273000004000000
B0349493146543S11654511EA0126501282000004000000
B0349533146582S11654462EA0127101290000004000000
B0349573146562S11654396EA0128301301000004000000
B0350013146508S11654400EA0129201311000004000000
B0350053146500S11654460EA0130401324000004000000
B0350093146547S11654483EA0131401333000004000000
B0350133146577S11654429EA0132601346000004000000
B0350173146547S11654371EA0133501353000004000000
B0350213146497S11654388EA0134201364000004000000
B0350253146500S11654442EA0135201371000004000000
B0350293146550S11654452EA0135901380000004000000
B0350333146581S11654403EA0137301391000004000000
B0350373146567S11654336EA0137401394000004000000
B0350413146513S11654316EA0138001403000004000000
B0350453146478S11654361EA0138701408000004000000
B0350493146506S11654414EA0139301414000004000000
B0350533146560S11654400EA0139901423000004000000
B0350573146576S11654332EA0141201436000004000000
B0351013146526S11654288EA0141301434000004000000
B0351053146478S11654326EA0142001447000004000000
B0351093146491S11654384EA0143401461000004000000
B0351133146546S11654386EA0143701458000004000000
B0351173146572S11654316EA0143901464000004000000
B0351213146530S11654257EA0144801475000004000000
B0351253146471S11654275EA0146101489000004000000
B0351293146452S11654340EA0147101497000004000000
B0351333146494S11654386EA0147601501000004000000
B0351373146550S11654360EA0148301511000004000000
B0351413146560S11654288EA0149701525000004000000
B0351453146521S11654232EA0151001535000004000000
B0351493146467S11654248EA0151901547000004000000
B0351533146465S11654313EA0152901559000004000000
B0351573146516S11654332EA0154201573000004000000
B0352013146546S11654279EA0155701587000004000000
B0352053146515S11654225EA0156101591000004000000
B0352093146458S11654240EA0157101604000004000000
B0352133146447S11654301EA0158301618000004000000
B0352173146494S11654330EA0159401624000004000000
B0352213146542S11654296EA0159801628000004000000
B0352253146554S11654225EA0160401633000004000000
B0352293146510S11654171EA0160601637000004000000
B0352333146451S11654201EA0161501651000004000000
B0352373146451S11654270EA0163301669000004000000
B0352413146504S11654291EA0164601678000004000000
B0352453146551S11654243EA0164801681000004000000
B0352493146547S11654163EA0165301691000004000000
B0352533146498S11654117EA0167301710000004000000
B0352573146442S11654140EA0167901717000004000000
B0353013146426S11654201EA0168501721000004000000
B0353053146456S11654258EA0169001728000004000000
B0353093146513S11654254EA0169601733000004000000
B0353133146538S11654187EA0170301740000004000000
B0353173146510S11654121EA0171301753000004000000
B0353213146451S11654131EA0172501765000004000000
B0353253146443S11654201EA0173501780000004000000
B0353293146494S11654225EA0174401783000004000000
B0353333146541S11654176EA0174601787000004000000
B0353373146558S11654104EA0175501798000004000000
B0353413146515S11654058EA0176201802000004000000
B0353453146456S11654092EA0175501796000004000000
B0353493146434S11654174EA0175201793000004000000
B0353533146437S11654261EA0175201796000004000000
B0353573146484S11654314EA0176001805000004000000
B0354013146530S11654270EA0175901793000004000000
B0354053146482S11654201EA0172901764000004015000
B0354093146391S11654174EA0170801748000004000000
B0354133146294S11654152EA0169401733000004000000
B0354173146188S11654132EA0168401726000004000000
B0354213146086S11654114EA0168601735000004000000
B0354253145987S11654100EA0168301722000004000000
B0354293145887S11654085EA0166601703000004000000
B0354333145788S11654070EA0165901700000004000000
B0354373145692S11654052EA0165801697000004000000
B0354413145598S11654033EA0165401692000004000000
B0354453145503S11654017EA0164401679000004000000
B0354493145411S11654000EA0163401669000004000000
B0354533145319S11653983EA0162801660000004000000
B0354573145228S11653965EA0161801649000004000000
B0355013145137S11653946EA0160601636000004000000
B0355053145047S11653927EA0159401622000004000000
B0355093144959S11653907EA0157801606000004000000
B0355133144868S11653892EA0156401594000004000000
B0355173144778S11653876EA0155801588000004000000
B0355213144691S11653866EA0154801579000004000000
B0355253144605S11653858EA0153701558000004000000
B0355293144514S11653851EA0152101556000004000000
B0355333144426S11653845EA0153401571000004000000
B0355373144345S11653858EA0155501589000004000000
B0355413144271S11653890EA0154801569000004000000
B0355453144180S11653916EA0151501534000004000000
B0355493144081S11653922EA0150901548000004000000
B0355533143995S11653937EA0153601575000004000000
B0355573143942S11653993EA0155401586000004000000
B0356013143886S11654052EA0153101549000004000000
B0356053143793S11654072EA0149501518000004000000
B0356093143691S11654066EA0147401503000004000000
B0356133143591S11654052EA0146101492000004000000
B0356173143492S11654035EA0144901482000004000000
B0356213143393S11654019EA0143901467000004000000
B0356253143293S11654004EA0142901454000004000000
B0356293143197S11653988EA0141901448000004000000
B0356333143102S11653972EA0141001434000004000000
B0356373143006S11653954EA0139701423000004000000
B0356413142912S11653937EA0139501422000004000000
B0356453142819S11653919EA0138901420000004000000
B0356493142729S11653901EA0139701430000004000000
B0356533142642S11653884EA0140401435000004000000
B0356573142560S11653888EA0141501454000004000000
B0357013142538S11653949EA0145301495000004000000
B0357053142580S11653989EA0146901496000004000000
B0357093142636S11653959EA0146801500000004000000
B0357133142633S11653888EA0148101514000004000000
B0357173142577S11653876EA0149001522000004000000
B0357213142565S11653939EA0149601532000004000000
B0357253142604S11653994EA0150001533000004000000
B0357293142664S11653981EA0150701546000004000000
B0357333142652S11653909EA0152101560000004000000
B0357373142590S11653898EA0152901563000004000000
B0357413142563S11653959EA0153501569000004000000
B0357453142611S11654002EA0153701570000004000000
B0357493142663S11653959EA0154101573000004000000
B0357533142650S11653880EA0154901588000004000000
B0357573142595S11653836EA0155601594000004000000
B0358013142524S11653827EA0155601592000004000000
B0358053142482S11653872EA0158001619000004000000
B0358093142520S11653911EA0160501642000004000000
B0358133142565S11653874EA0160701637000004000000
B0358173142548S11653799EA0160301638000004000000
B0358213142487S11653788EA0161001655000004000000
B0358253142433S11653827EA0162701672000004000000
B0358293142421S11653890EA0164701691000004000000
B0358333142473S11653914EA0166101703000004000000
B0358373142507S11653857EA0166701706000004000000
B0358413142465S11653798EA0167001714000004000000
B0358453142411S11653822EA0169201736000004000000
B0358493142412S11653888EA0170201744000004000000
B0358533142472S11653907EA0170401746000004000000
B0358573142517S11653855EA0171301756000004000000
B0359013142502S11653783EA0172201764000004000000
B0359053142441S11653764EA0173501779000004000000
B0359093142389S11653803EA0174801791000004000000
B0359133142413S11653861EA0176001803000004000000
B0359173142467S11653824EA0177001811000004000000
B0359213142444S11653754EA0178001822000004000000
B0359253142379S11653763EA0178401828000004000000
B0359293142368S11653832EA0180301849000004000000
B0359333142425S11653855EA0181501858000004000000
B0359373142461S11653796EA0182101868000004000000
B0359413142433S11653731EA0183701885000004000000
B0359453142373S11653725EA0184901894000004000000
B0359493142351S11653786EA0185301898000004000000
B0359533142400S11653823EA0187001914000004000000
B0359573142444S11653777EA0187601919000004000000
B0400013142430S11653705EA0188201927000004000000
B0400053142370S11653677EA0189001935000004000000
B0400093142314S11653712EA0189801945000004000000
B0400133142331S11653772EA0191001957000004000000
B0400173142390S11653753EA0191301962000004000000
B0400213142407S11653680EA0192801975000004000000
B0400253142368S11653616EA0193001976000004000000
B0400293142301S11653603EA0193701986000004000000
B0400333142269S11653659EA0195202000000004000000
B0400373142304S11653710EA0195902010000004000000
B0400413142360S11653688EA0197302020000004000000
B0400453142360S11653614EA0197602022000004000000
B0400493142299S11653588EA0198002030000004000000
B0400533142259S11653640EA0199402048000004000000
B0400573142286S11653693EA0200202050000004000000
B0401013142343S11653668EA0200602057000004000000
B0401053142347S11653591EA0201602065000004000000
B0401093142304S11653532EA0202102070000004000000
B0401133142243S11653536EA0203002081000004000000
B0401173142221S11653597EA0204102087000004000000
B0401213142256S11653645EA0204802099000004000000
B0401253142301S11653611EA0206102110000004000000
B0401293142295S11653538EA0206802115000004000000
B0401333142244S11653493EA0207102117000004000000
B0401373142179S11653497EA0207302119000004000000
B0401413142123S11653543EA0206902115000004000000
B0401453142079S11653614EA0206302108000004000000
B0401493142039S11653695EA0205902098000004000000
B0401533141983S11653775EA0201402035000004000000
B0401573141879S11653828EA0196601999000004000000
B0402013141765S11653851EA0194301983000004000000
B0402053141650S11653861EA0194101983000004000000
B0402093141541S11653862EA0193501969000004000000
B0402133141432S11653851EA0192601964000004000000
B0402173141325S11653835EA0191801955000004000000
B0402213141222S11653815EA0191501958000004000000
B0402253141122S11653796EA0192101962000004000000
B0402293141026S11653777EA0192201966000004000000
B0402333140934S11653764EA0193301976000004000000
B0402373140842S11653754EA0192201960000004000000
B0402413140748S11653741EA0191301951000004000000
B0402453140657S11653725EA0190401939000004000000
B0402493140565S11653708EA0189101927000004000000
B0402533140474S11653690EA0188101918000004000000
B0402573140384S11653672EA0187801918000004000000
B0403013140293S11653653EA0187701915000004000000
B0403053140206S11653634EA0188201922000004000000
B0403093140123S11653616EA0188201919000004000000
B0403133140037S11653601EA0188101915000004000000
B0403173139951S11653582EA0187201908000004000000
B0403213139868S11653564EA0188001921000004000000
B0403253139791S11653546EA0189601939000004000000
B0403293139718S11653532EA0190401942000004000000
B0403333139636S11653513EA0188701923000004000000
B0403373139547S11653497EA0187301910000004000000
B0403413139454S11653480EA0185801893000004000000
B0403453139362S11653465EA0184201881000004000000
B0403493139271S11653451EA0183901877000004000000
B0403533139183S11653439EA0183101870000004000000
B0403573139096S11653430EA0183101872000004000000
B0404013139010S11653421EA0183501877000004000000
B0404053138924S11653413EA0183901878000004000000
B0404093138840S11653404EA0183701878000004000000
B0404133138756S11653395EA0184001882000004000000
B0404173138671S11653387EA0184001879000004000000
B0404213138585S11653378EA0183901879000004000000
B0404253138499S11653370EA0183701872000004000000
B0404293138412S11653364EA0183101866000004000000
B0404333138323S11653356EA0182201855000004000000
B0404373138238S11653350EA0181101848000004000000
B0404413138152S11653343EA0180501840000004000000
B0404453138069S11653341EA0181501855000004000000
B0404493137995S11653363EA0182901868000004000000
B0404533137924S11653390EA0184301881000004000000
B0404573137866S11653432EA0186201903000004000000
B0405013137883S11653494EA0188201921000004000000
B0405053137937S11653484EA0188501919000004000000
B0405093137953S11653415EA0188101917000004000000
B0405133137911S11653364EA0188801928000004000000
B0405173137853S11653355EA0189701937000004000000
B0405213137805S11653393EA0190501940000004000000
B0405253137811S11653458EA0190301935000004000000
B0405293137868S11653451EA0189001919000004000000
B0405333137872S11653368EA0188001916000004000000
B0405373137822S11653307EA0188601927000004000000
B0405413137754S11653276EA0189101928000004000000
B0405453137676S11653259EA0188001916000004000000
B0405493137588S11653244EA0186401901000004000000
B0405533137495S11653234EA0186401906000004000000
B0405573137402S11653225EA0186701906000004000000
B0406013137308S11653216EA0186501903000004000000
B0406053137216S11653205EA0186101892000004000000
B0406093137120S11653196EA0184201881000004000000
B0406133137029S11653188EA0184201883000004000000
B0406173136942S11653175EA0184601888000004000000
B0406213136854S11653164EA0184801889000004000000
B0406253136770S11653152EA0185001888000004000000
B0406293136683S11653139EA0184701885000004000000
B0406333136597S11653125EA0185001891000004000000
B0406373136516S11653107EA0185601893000004000000
B0406413136438S11653088EA0185001880000004000000
B0406453136355S11653070EA0183201861000004000000
B0406493136267S11653052EA0181701848000004000000
B0406533136178S11653032EA0181501852000004000000
B0406573136091S11653014EA0181901862000004000000
B0407013136019S11653014EA0185401901000004000000
B0407053135987S11653064EA0188501926000004000000
B0407093136013S11653112EA0189001927000004000000
B0407133136072S11653103EA0189801943000004000000
B0407173136091S11653038EA0192401967000004000000
B0407213136054S11652986EA0193101972000004000000
B0407253135996S11652993EA0193901984000004000000
B0407293135976S11653048EA0194901991000004000000
B0407333136009S11653094EA0195301993000004000000
B0407373136071S11653081EA0196102005000004000000
B0407413136094S11653014EA0197802025000004000000
B0407453136063S11652958EA0199202035000004000000
B0407493136006S11652960EA0199802041000004000000
B0407533135974S11653013EA0200602048000004000000
B0407573135994S11653068EA0200902054000004000000
B0408013136050S11653082EA0202002068000004000000
B0408053136094S11653031EA0203502084000004000000
B0408093136073S11652969EA0204902091000004000000
B0408133136020S11652973EA0204502091000004000000
B0408173136003S11653031EA0205202104000004000000
B0408213136042S11653074EA0207002121000004000000
B0408253136100S11653062EA0208402135000004000000
B0408293136129S11653001EA0209102140000004000000
B0408333136107S11652935EA0209302142000004000000
B0408373136054S11652917EA0209802146000004000000
B0408413136011S11652956EA0209802147000004000000
B0408453136002S11653021EA0210302154000004000000
B0408493136039S11653073EA0211102162000004000000
B0408533136100S11653051EA0211202162000004000000
B0408573136120S11652977EA0212002172000004000000
B0409013136071S11652949EA0213102183000004000000
B0409053136046S11653006EA0213902188000004000000
B0409093136094S11653051EA0214402199000004000000
B0409133136152S11653022EA0216002211000004000000
B0409173136164S11652951EA0215902207000004000000
B0409213136120S11652906EA0215602205000004000000
B0409253136063S11652927EA0215502206000004000000
B0409293136004S11652971EA0215002200000004000000
B0409333135941S11653018EA0214902204000004000000
B0409373135881S11653070EA0215602208000004000000
B0409413135808S11653120EA0214002171000004000000
B0409453135707S11653149EA0209702134000004000000
B0409493135593S11653160EA0208102125000004015000
B0409533135487S11653164EA0207502122000004000000
B0409573135383S11653162EA0207302123000004000000
B0410013135281S11653168EA0207602122000004000000
B0410053135181S11653168EA0207702125000004000000
B0410093135083S11653165EA0207002113000004000000
B0410133134982S11653155EA0205802107000004000000
B0410173134882S11653142EA0206102111000004000000
B0410213134786S11653133EA0207202133000004000000
B0410253134698S11653125EA0209202137000004000000
B0410293134605S11653116EA0206702100000004000000
B0410333134504S11653105EA0204002081000004000000
B0410373134403S11653095EA0202902075000004000000
B0410413134305S11653082EA0201902060000004000000
B0410453134208S11653064EA0200902056000004000000
B0410493134114S11653042EA0201002057000004000000
B0410533134022S11653022EA0199802039000004000000
B0410573133926S11653003EA0198102027000004000000
B0411013133832S11652984EA0198802042000004000000
B0411053133744S11652967EA0199402039000004000000
B0411093133653S11652951EA0198402033000004000000
B0411133133563S11652935EA0198002021000004000000
B0411173133473S11652918EA0196802015000004000000
B0411213133383S11652901EA0195802003000004000000
B0411253133291S11652886EA0194701990000004000000
B0411293133198S11652867EA0194701995000004000000
B0411333133104S11652850EA0195702005000004000000
B0411373133019S11652835EA0198402036000004000000
B0411413132938S11652821EA0198202019000004000000
B0411453132844S11652806EA0195901998000004000000
B0411493132744S11652789EA0194401990000004000000
B0411533132645S11652769EA0194702002000004000000
B0411573132551S11652752EA0195902007000004000000
B0412013132457S11652733EA0194901990000004000000
B0412053132358S11652711EA0192601971000004000000
B0412093132259S11652685EA0191901966000004000000
B0412133132161S11652662EA0191301958000004000000
B0412173132063S11652641EA0190201946000004000000
B0412213131965S11652620EA0189901947000004000000
B0412253131873S11652600EA0189801939000004000000
B0412293131781S11652576EA0188101923000004000000
B0412333131686S11652557EA0187201911000004000000
B0412373131588S11652538EA0185201894000004000000
B0412413131491S11652515EA0184701894000004000000
B0412453131396S11652492EA0184001883000004000000
B0412493131298S11652468EA0182201865000004000000
B0412533131201S11652445EA0181001854000004000000
B0412573131103S11652421EA0180101845000004000000
B0413013131008S11652398EA0180001845000004000000
B0413053130913S11652376EA0180101845000004000000
B0413093130821S11652353EA0179901841000004000000
B0413133130730S11652330EA0180201841000004000000
B0413173130639S11652307EA0180001842000004000000
B0413213130546S11652286EA0179201827000004000000
B0413253130448S11652268EA0178201822000004000000
B0413293130353S11652251EA0178801838000004000000
B0413333130265S11652237EA0180601847000004000000
B0413373130176S11652226EA0180101838000004000000
B0413413130083S11652216EA0179301828000004000000
B0413453129987S11652202EA0179101834000004000000
B0413493129898S11652204EA0180901863000004000000
B0413533129879S11652272EA0184501887000004000000
B0413573129938S11652247EA0182801860000004000000
B0414013129963S11652142EA0181801862000004000000
B0414053129940S11652043EA0183001871000004000000
B0414093129872S11651994EA0182701863000004000000
B0414133129788S11651978EA0180601835000004000000
B0414173129694S11651966EA0179001825000004000000
B0414213129597S11651956EA0178001823000004000000
B0414253129504S11651952EA0180001850000004000000
B0414293129439S11651994EA0184201895000004000000
B0414333129474S11652039EA0187401919000004000000
B0414373129516S11651991EA0188701933000004000000
B0414413129483S11651931EA0189901946000004000000
B0414453129431S11651955EA0190501959000004000000
B0414493129444S11652017EA0191601970000004000000
B0414533129503S11652020EA0192601979000004000000
B0414573129524S11651952EA0193201991000004000000
B0415013129480S11651905EA0194502000000004000000
B0415053129426S11651937EA0195002003000004000000
B0415093129424S11652013EA0195202011000004000000
B0415133129478S11652039EA0197402031000004000000
B0415173129520S11651992EA0198702041000004000000
B0415213129502S11651925EA0198802041000004000000
B0415253129441S11651918EA0199502050000004000000
B0415293129407S11651982EA0200702062000004000000
B0415333129431S11652046EA0201302065000004000000
B0415373129494S11652035EA0201902071000004000000
B0415413129529S11651974EA0202702084000004000000
B0415453129503S11651913EA0204202098000004000000
B0415493129442S11651916EA0205002106000004000000
B0415533129386S11651968EA0205602114000004000000
B0415573129365S11652039EA0206902119000004000000
B0416013129418S11652073EA0206202108000004000000
B0416053129493S11652055EA0205202104000004000000
B0416093129532S11651991EA0206502117000004000000
B0416133129489S11651930EA0206302116000004000000
B0416173129412S11651912EA0207302132000004000000
B0416213129334S11651905EA0209402148000004000000
B0416253129257S11651905EA0210902165000004000000
B0416293129205S11651951EA0213202186000004000000
B0416333129235S11652002EA0214102189000004000000
B0416373129287S11651970EA0213902186000004000000
B0416413129285S11651888EA0213402183000004000000
B0416453129239S11651808EA0213502189000004000000
B0416493129173S11651768EA0215102217000004000000
B0416533129149S11651830EA0217302233000004000000
B0416573129195S11651869EA0217402227000004000000
B0417013129246S11651821EA0218202238000004000000
B0417053129266S11651740EA0218902250000004000000
B0417093129278S11651656EA0220302264000004000000
B0417133129288S11651570EA0221402269000004000000
B0417173129300S11651482EA0221902273000004000000
B0417213129282S11651401EA0223302293000004000000
B0417253129223S11651400EA0225102306000004000000
B0417293129191S11651459EA0225402312000004000000
B0417333129162S11651524EA0225802312000004000000
B0417373129119S11651586EA0225502308000004000000
B0417413129054S11651599EA0226202317000004000000
B0417453129000S11651556EA0225802304000004000000
B0417493128932S11651502EA0222002263000004000000
B0417533128836S11651466EA0218502235000004000000
B0417573128731S11651443EA0216602220000004000000
B0418013128623S11651426EA0216002210000004000000
B0418053128514S11651414EA0215302205000004000000
B0418093128408S11651405EA0214702201000004000000
B0418133128303S11651400EA0214402195000004000000
B0418173128196S11651397EA0213202177000004000000
B0418213128087S11651393EA0211502164000004000000
B0418253127979S11651389EA0210802160000004000000
B0418293127875S11651384EA0211102151000004000000
B0418333127770S11651379EA0209902134000004000000
B0418373127662S11651368EA0207802113000004000000
B0418413127556S11651359EA0206502105000004000000
B0418453127454S11651353EA0206202108000004000000
B0418493127358S11651346EA0206702111000004000000
B0418533127264S11651339EA0206902111000004000000
B0418573127171S11651333EA0206402104000004000000
B0419013127076S11651328EA0205502094000004000000
B0419053126981S11651322EA0204502085000004000000
B0419093126887S11651314EA0203702078000004000000
B0419133126795S11651305EA0203302073000004000000
B0419173126704S11651296EA0203102073000004000000
B0419213126612S11651287EA0202502065000004000000
B0419253126519S11651280EA0201902057000004000000
B0419293126425S11651274EA0201002051000004000000
B0419333126331S11651267EA0200702048000004000000
B0419373126237S11651263EA0200002041000004000000
B0419413126144S11651261EA0199002028000004000000
B0419453126048S11651255EA0197902015000004000000
B0419493125950S11651251EA0196701999000004000000
B0419533125854S11651248EA0195201989000004000000
B0419573125758S11651242EA0194201980000004000000
B0420013125661S11651237EA0193401971000004000000
B0420053125565S11651232EA0192601965000004000000
B0420093125470S11651228EA0192101958000004000000
B0420133125377S11651228EA0191501955000004000000
B0420173125284S11651227EA0191001946000004000000
B0420213125191S11651225EA0189901937000004000000
B0420253125099S11651225EA0189801935000004000000
B0420293125006S11651224EA0189501933000004000000
B0420333124917S11651224EA0189601932000004000000
B0420373124824S11651224EA0188001915000004000000
B0420413124731S11651223EA0187701917000004000000
B0420453124637S11651222EA0188301923000004000000
B0420493124545S11651223EA0188701927000004000000
B0420533124462S11651225EA0190201947000004000000
B0420573124380S11651231EA0190701946000004000000
B0421013124304S11651253EA0191201956000004000000
B0421053124231S11651285EA0190701937000004000000
B0421093124147S11651316EA0188601916000004000000
B0421133124057S11651346EA0187001899000004000000
B0421173123961S11651372EA0185601887000004000000
B0421213123861S11651392EA0185201883000004000000
B0421253123758S11651410EA0184201872000004000000
B0421293123661S11651428EA0184201876000004000000
B0421333123566S11651446EA0183501859000004000000
B0421373123470S11651470EA0182201847000004000000
B0421413123368S11651485EA0181001827000004000000
B0421453123262S11651487EA0179001812000004000000
B0421493123155S11651484EA0177401804000004000000
B0421533123051S11651483EA0177001797000004000000
B0421573122947S11651479EA0175601784000004000000
B0422013122847S11651472EA0175201780000004000000
B0422053122748S11651466EA0174201770000004000000
B0422093122649S11651463EA0173201752000004000000
B0422133122552S11651462EA0171201733000004000000
B0422173122456S11651462EA0169401712000004000000
B0422213122359S11651462EA0166901687000004000000
B0422253122262S11651452EA0165001671000004000000
B0422293122163S11651436EA0163601649000004000000
B0422333122060S11651417EA0161401634000004000000
B0422373121960S11651394EA0160401626000004000000
B0422413121860S11651368EA0159301615000004000000
B0422453121760S11651341EA0158201603000004000000
B0422493121660S11651311EA0156601587000004000000
B0422533121559S11651281EA0155401578000004000000
B0422573121459S11651251EA0154801571000004000000
B0423013121358S11651219EA0153601553000004000000
B0423053121256S11651185EA0151501532000004000000
B0423093121154S11651153EA0151701542000004000000
B0423133121057S11651121EA0151201532000004000000
B0423173120958S11651090EA0149701516000004000000
B0423213120859S11651062EA0148601508000004000000
B0423253120762S11651038EA0147601499000004000000
B0423293120668S11651015EA0146801490000004000000
B0423333120573S11650990EA0145601478000004000000
B0423373120481S11650965EA0145001474000004000000
B0423413120387S11650945EA0143901461000004000000
B0423453120294S11650929EA0143601460000004000000
B0423493120204S11650919EA0143201455000004000000
B0423533120113S11650906EA0142401444000004000000
B0423573120021S11650893EA0140901426000004000000
B0424013119925S11650881EA0139301408000004000000
B0424053119827S11650868EA0138001397000004000000
B0424093119732S11650852EA0138101409000004000000
B0424133119645S11650851EA0140101428000004000000
B0424173119564S11650864EA0139901424000004000000
B0424213119480S11650880EA0138901413000004000000
B0424253119397S11650895EA0138601416000004000000
B0424293119320S11650923EA0139001416000004000000
B0424333119247S11650958EA0139001414000004000000
B0424373119172S11650995EA0137601393000004000000
B0424413119089S11651021EA0135901376000004000000
B0424453119002S11651029EA0135001373000004000000
B0424493118917S11651030EA0134601365000004000000
B0424533118831S11651027EA0133301353000004000000
B0424573118744S11651021EA0132601347000004000000
B0425013118656S11651014EA0131801337000004000000
B0425053118565S11651002EA0130201318000004000000
B0425093118472S11650990EA0128601304000004000000
B0425133118379S11650981EA0127201291000004000000
B0425173118287S11650973EA0127001291000004000000
B0425213118194S11650967EA0126501282000004000000
B0425253118101S11650962EA0125601274000004000000
B0425293118007S11650962EA0124601263000004000000
B0425333117911S11650962EA0123901260000004000000
B0425373117822S11650978EA0124801280000004000000
B0425413117748S11651017EA0126801293000004000000
B0425453117689S11651072EA0128301314000004000000
B0425493117711S11651125EA0131401346000004000000
B0425533117754S11651082EA0133501359000004000000
B0425573117729S11651014EA0134701379000004000000
B0426013117668S11651010EA0136201391000004000000
B0426053117652S11651067EA0137201405000004000000
B0426093117698S11651097EA0138501415000004000000
B0426133117746S11651053EA0139301426000004000000
B0426173117743S11650972EA0140801438000004000000
B0426213117689S11650913EA0141501446000004000000
B0426253117620S11650921EA0142501454000004000000
B0426293117590S11650981EA0143601467000004000000
B0426333117629S11651021EA0144901488000004000000
B0426373117676S11650981EA0146901506000004000000
B0426413117660S11650907EA0148501521000004000000
B0426453117596S11650881EA0149401528000004000000
B0426493117549S11650924EA0150201539000004000000
B0426533117573S11650984EA0151601554000004000000
B0426573117635S11650971EA0152501566000004000000
B0427013117642S11650889EA0154601586000004000000
B0427053117587S11650837EA0156301603000004000000
B0427093117526S11650859EA0157301614000004000000
B0427133117530S11650919EA0159501639000004000000
B0427173117588S11650928EA0160501645000004000000
B0427213117621S11650859EA0161701661000004000000
B0427253117585S11650790EA0163201675000004000000
B0427293117516S11650780EA0163501675000004000000
B0427333117477S11650825EA0164801698000004000000
B0427373117517S11650859EA0166501710000004000000
B0427413117564S11650806EA0167701723000004000000
B0427453117549S11650724EA0168101722000004000000
B0427493117484S11650689EA0168201726000004000000
B0427533117429S11650729EA0168701730000004000000
B0427573117427S11650802EA0169601744000004000000
B0428013117483S11650813EA0171601762000004000000
B0428053117513S11650737EA0172501769000004000000
B0428093117469S11650666EA0173601782000004000000
B0428133117403S11650666EA0174901794000004000000
B0428173117386S11650728EA0176201808000004000000
B0428213117438S11650750EA0177801824000004000000
B0428253117484S11650696EA0179201839000004000000
B0428293117473S11650618EA0180501848000004000000
B0428333117416S11650582EA0181001857000004000000
B0428373117367S11650614EA0182101870000004000000
B0428413117388S11650661EA0183301882000004000000
B0428453117443S11650637EA0184301890000004000000
B0428493117455S11650553EA0184401892000004000000
B0428533117404S11650496EA0185601909000004000000
B0428573117341S11650501EA0186601912000004000000
B0429013117317S11650559EA0187001917000004000000
B0429053117356S11650601EA0188101932000004000000
B0429093117412S11650566EA0189301938000004000000
B0429133117419S11650482EA0189701941000004000000
B0429173117370S11650422EA0190001946000004000000
B0429213117301S11650425EA0190101948000004000000
B0429253117248S11650473EA0190301955000004000000
B0429293117257S11650535EA0191801970000004000000
B0429333117319S11650543EA0192801978000004000000
B0429373117365S11650473EA0193901996000004000000
B0429413117348S11650386EA0196202014000004000000
B0429453117288S11650340EA0196502012000004000000
B0429493117223S11650365EA0196602018000004000000
B0429533117208S11650431EA0197702028000004000000
B0429573117256S11650471EA0198602036000004000000
B0430013117322S11650440EA0199402047000004000000
B0430053117344S11650356EA0200802065000004000000
B0430093117300S11650287EA0202302079000004000000
B0430133117232S11650274EA0203202085000004000000
B0430173117191S11650323EA0203802090000004000000
B0430213117213S11650380EA0204002091000004000000
B0430253117278S11650388EA0204602099000004000000
B0430293117331S11650334EA0205702114000004000000
B0430333117318S11650250EA0207302125000004000000
B0430373117256S11650224EA0207602127000004000000
B0430413117214S11650271EA0207702129000004000000
B0430453117226S11650332EA0208602141000004000000
B0430493117280S11650343EA0209702148000004000000
B0430533117323S11650274EA0209702147000004000000
B0430573117301S11650189EA0210702159000004000000
B0431013117240S11650146EA0210902152000004000000
B0431053117162S11650124EA0209002130000004000000
B0431093117070S11650105EA0205702093000004000000
B0431133116963S11650091EA0202602068000004000000
B0431173116854S11650076EA0201302063000004000000
B0431213116747S11650062EA0201902072000004000000
B0431253116645S11650052EA0203302078000004000000
B0431293116542S11650040EA0203202068000004000000
B0431333116438S11650026EA0202202065000004000000
B0431373116338S11650009EA0202702069000004000000
B0431413116239S11649993EA0202902068000004000000
B0431453116139S11649980EA0202002048000004000000
B0431493116031S11649967EA0199402028000004000000
B0431533115924S11649954EA0198302017000004000000
B0431573115817S11649941EA0197402013000004000000
B0432013115711S11649927EA0196702006000004000000
B0432053115609S11649912EA0197202011000004000000
B0432093115508S11649898EA0197102010000004000000
B0432133115410S11649885EA0197302011000004000000
B0432173115312S11649873EA0197302011000004000000
B0432213115215S11649862EA0197002007000004000000
B0432253115120S11649853EA0197102009000004000000
B0432293115026S11649845EA0197702014000004000000
B0432333114936S11649837EA0196902000000004000000
B0432373114844S11649832EA0194901983000004000000
B0432413114754S11649827EA0194001974000004000000
B0432453114666S11649818EA0192801963000004000000
B0432493114579S11649807EA0191901956000004000000
B0432533114492S11649797EA0190001933000004000000
B0432573114402S11649789EA0188901920000004000000
B0433013114311S11649781EA0187801915000004000000
B0433053114221S11649771EA0187901911000004000000
B0433093114130S11649759EA0186801903000004000000
B0433133114038S11649747EA0186701904000004000000
B0433173113947S11649734EA0187101911000004000000
B0433213113860S11649724EA0187701915000004000000
B0433253113778S11649717EA0189301934000004000000
B0433293113711S11649736EA0191201950000004000000
B0433333113655S11649769EA0192201959000004000000
B0433373113600S11649807EA0192601962000004000000
B0433413113547S11649846EA0193001969000004000000
B0433453113496S11649886EA0193101959000004000000
B0433493113435S11649927EA0190401921000004000000
B0433533113347S11649954EA0186201881000004000000
B0433573113246S11649961EA0183901863000004000000
B0434013113145S11649961EA0181301844000004000000
B0434053113046S11649957EA0179801832000004000000
B0434093112949S11649954EA0178501817000004000000
B0434133112851S11649948EA0177201798000004000000
B0434173112755S11649937EA0175201783000004000000
B0434213112658S11649925EA0174101779000004000000
B0434253112567S11649916EA0175201794000004000000
B0434293112481S11649907EA0176001797000004000000
B0434333112395S11649894EA0175801794000004000000
B0434373112310S11649881EA0175601792000004000000
B0434413112226S11649870EA0175801798000004000000
B0434453112143S11649858EA0176501804000004000000
B0434493112061S11649850EA0177001811000004000000
B0434533111985S11649870EA0177501813000004000000
B0434573111911S11649897EA0176801793000004000000
B0435013111826S11649909EA0174601776000004000000
B0435053111736S11649909EA0173501765000004000000
B0435093111647S11649898EA0172301754000004000000
B0435133111556S11649886EA0171701750000004000000
B0435173111467S11649875EA0172601770000004000000
B0435213111386S11649888EA0175301804000004000000
B0435253111373S11649955EA0179301842000004000000
B0435293111424S11649968EA0181401852000004000000
B0435333111452S11649903EA0181901858000004000000
B0435373111415S11649841EA0182901879000004000000
B0435413111355S11649847EA0185201896000004000000
B0435453111339S11649909EA0186301907000004000000
B0435493111386S11649945EA0187101912000004000000
B0435533111437S11649903EA0187601919000004000000
B0435573111433S11649827EA0189401940000004000000
B0436013111378S11649818EA0191401960000004000000
B0436053111369S11649880EA0193001975000004000000
B0436093111423S11649902EA0193801983000004000000
B0436133111449S11649841EA0195102000000004000000
B0436173111402S11649790EA0196502014000004000000
B0436213111337S11649810EA0197102020000004000000
B0436253111346S11649877EA0198702037000004000000
B0436293111408S11649877EA0200302050000004000000
B0436333111433S11649810EA0201502070000004000000
B0436373111391S11649755EA0203402089000004000000
B0436413111329S11649766EA0204502096000004000000
B0436453111311S11649832EA0205102101000004000000
B0436493111355S11649881EA0205502108000004000000
B0436533111415S11649855EA0206302114000004000000
B0436573111416S11649781EA0208402140000004000000
B0437013111359S11649750EA0210002152000004000000
B0437053111309S11649790EA0210902159000004000000
B0437093111333S11649847EA0211602163000004000000
B0437133111394S11649834EA0211702169000004000000
B0437173111424S11649769EA0213402187000004000000
B0437213111395S11649704EA0214702205000004000000
B0437253111333S11649689EA0216302215000004000000
B0437293111286S11649734EA0216402210000004000000
B0437333111302S11649797EA0216202213000004000000
B0437373111363S11649795EA0216402213000004000000
B0437413111416S11649741EA0216602221000004000000
B0437453111412S11649663EA0217402226000004000000
B0437493111333S11649620EA0215802201000004000000
B0437533111235S11649587EA0213602186000004000000
B0437573111134S11649563EA0212502177000004000000
B0438013111034S11649541EA0212002170000004000000
B0438053110930S11649520EA0210802156000004000000
B0438093110823S11649499EA0210102149000004000000
B0438133110717S11649477EA0208802125000004000000
B0438173110606S11649455EA0206402104000004015000
B0438213110498S11649434EA0205102096000004000000
B0438253110390S11649413EA0203802080000004000000
B0438293110280S11649391EA0202202063000004000000
B0438333110169S11649368EA0200602053000004000000
B0438373110060S11649346EA0199902046000004000000
B0438413109951S11649324EA0199602044000004000000
B0438453109846S11649304EA0199902048000004000000
B0438493109740S11649286EA0199502041000004000000
B0438533109640S11649269EA0200502051000004000000
B0438573109540S11649253EA0199702034000004000000
B0439013109437S11649239EA0198102020000004000000
B0439053109335S11649223EA0196602005000004000000
B0439093109231S11649208EA0195401996000004000000
B0439133109127S11649192EA0194601987000004000000
B0439173109027S11649175EA0194801986000004000000
B0439213108930S11649160EA0194201976000004000000
B0439253108834S11649143EA0192501959000004000000
B0439293108737S11649126EA0191401943000004000000
B0439333108638S11649106EA0189201921000004000000
B0439373108538S11649088EA0187501906000004000000
B0439413108438S11649070EA0185901888000004000000
B0439453108338S11649056EA0184301872000004000000
B0439493108239S11649043EA0183401863000004000000
B0439533108139S11649030EA0181401841000004000000
B0439573108035S11649019EA0179601826000004000000
B0440013107933S11649012EA0178801821000004000000
B0440053107833S11649002EA0178201808000004000000
B0440093107731S11648995EA0176701791000004000000
B0440133107627S11648986EA0175201781000004000000
B0440173107524S11648973EA0175001784000004000000
B0440213107430S11648960EA0176601804000004000000
B0440253107342S11648948EA0176101788000004000000
B0440293107246S11648939EA0174101769000004000000
B0440333107146S11648932EA0174501780000004000000
B0440373107051S11648924EA0175101782000004000000
B0440413106957S11648919EA0174501772000004000000
B0440453106865S11648917EA0174301775000004000000
B0440493106771S11648917EA0174301774000004000000
B0440533106679S11648922EA0174201770000004000000
B0440573106592S11648943EA0174501776000004000000
B0441013106503S11648961EA0174901781000004000000
B0441053106427S11648997EA0176201793000004000000
B0441093106372S11649056EA0176301782000004000000
B0441133106301S11649108EA0173601751000004000000
B0441173106211S11649142EA0171401721000004000000
B0441213106107S11649152EA0168001693000004000000
B0441253105999S11649140EA0166201680000004000000
B0441293105892S11649114EA0165001672000004000000
B0441333105788S11649086EA0164401665000004000000
B0441373105687S11649053EA0163001649000004000000
B0441413105584S11649019EA0161701635000004000000
B0441453105483S11648984EA0160001619000004000000
B0441493105379S11648953EA0159101608000004000000
B0441533105275S11648921EA0158001599000004000000
B0441573105172S11648891EA0157401590000004000000
B0442013105071S11648863EA0155901577000004000000
B0442053104968S11648837EA0154601561000004000000
B0442093104867S11648813EA0152901544000004000000
B0442133104764S11648793EA0151101525000004000000
B0442173104659S11648779EA0149101504000004000000
B0442213104556S11648766EA0148201499000004000000
B0442253104456S11648753EA0147201483000004000000
B0442293104354S11648737EA0145801465000004000000
B0442333104253S11648720EA0144201456000004000000
B0442373104156S11648705EA0143901452000004000000
B0442413104058S11648690EA0141901437000004000000
B0442453103963S11648676EA0140601430000004000000
B0442493103868S11648663EA0140401428000004000000
B0442533103775S11648651EA0140401431000004000000
B0442573103682S11648646EA0140901440000004000000
B0443013103610S11648677EA0143701472000004000000
B0443053103589S11648740EA0146901498000004000000
B0443093103617S11648791EA0147501496000004000000
B0443133103664S11648835EA0146501484000004000000
B0443173103710S11648888EA0146001482000004000000
B0443213103764S11648935EA0145001471000004000000
B0443253103828S11648910EA0145301477000004000000
B0443293103829S11648823EA0145501478000004000000
B0443333103784S11648742EA0145201473000004000000
B0443373103727S11648666EA0144801470000004000000
B0443413103668S11648589EA0144501469000004000000
B0443453103603S11648520EA0144501469000004000000
B0443493103533S11648459EA0145001479000004000000
B0443533103463S11648463EA0147201504000004000000
B0443573103487S11648520EA0149001518000004000000
B0444013103546S11648488EA0150201535000004000000
B0444053103542S11648414EA0151901549000004000000
B0444093103482S11648401EA0152701559000004000000
B0444133103467S11648462EA0153901572000004000000
B0444173103522S11648473EA0155001583000004000000
B0444213103539S11648403EA0156401599000004000000
B0444253103491S11648354EA0157701612000004000000
B0444293103437S11648382EA0158601619000004000000
B0444333103451S11648447EA0159001626000004000000
B0444373103509S11648450EA0160301640000004000000
B0444413103534S11648385EA0160901643000004000000
B0444453103493S11648326EA0161401655000004000000
B0444493103431S11648347EA0162601670000004000000
B0444533103425S11648416EA0164601684000004000000
B0444573103478S11648446EA0165001686000004000000
B0445013103520S11648393EA0165301686000004000000
B0445053103493S11648324EA0165301686000004000000
B0445093103430S11648277EA0165601691000004000000
B0445133103370S11648303EA0167001705000004000000
B0445173103396S11648367EA0168101719000004000000
B0445213103456S11648354EA0169201725000004000000
B0445253103469S11648276EA0168901721000004000000
B0445293103420S11648212EA0169701741000004000000
B0445333103353S11648209EA0171001746000004000000
B0445373103294S11648263EA0169301725000004015000
B0445413103204S11648307EA0167201720000004000000
B0445453103156S11648376EA0170801762000004000000
B0445493103214S11648385EA0174001784000004015000
B0445533103212S11648306EA0175601799000004015000
B0445573103144S11648282EA0177501816000004015000
B0446013103112S11648341EA0178201818000004015000
B0446053103156S11648389EA0178901833000004015000
B0446093103209S11648362EA0181401854000004015000
B0446133103209S11648287EA0182401861000004015000
B0446173103149S11648256EA0183401875000004015000
B0446213103105S11648306EA0184201884000004000000
B0446253103127S11648362EA0185701899000004000000
B0446293103182S11648337EA0186901910000004000000
B0446333103179S11648264EA0187601917000004000000
B0446373103116S11648242EA0187901925000004015000
B0446413103056S11648280EA0188701934000004015000
B0446453103060S11648350EA0189101934000004000000
B0446493103113S11648399EA0188901926000004000000
B0446533103179S11648403EA0188401924000004000000
B0446573103190S11648321EA0187801920000004000000
B0447013103127S11648263EA0188401928000004000000
B0447053103047S11648238EA0188601932000004000000
B0447093102962S11648221EA0188201923000004000000
B0447133102869S11648206EA0187401923000004000000
B0447173102776S11648194EA0188901938000004015000
B0447213102685S11648183EA0188901936000004000000
B0447253102594S11648173EA0189501940000004000000
B0447293102503S11648161EA0188101920000004000000
B0447333102402S11648151EA0185901899000004000000
B0447373102302S11648139EA0185501900000004000000
B0447413102206S11648126EA0185701903000004000000
B0447453102112S11648117EA0186601913000004000000
B0447493102020S11648108EA0186701910000004000000
B0447533101929S11648102EA0186101905000004000000
B0447573101838S11648100EA0185701901000004000000
B0448013101744S11648094EA0184001875000004000000
B0448053101643S11648083EA0182101860000004000000
B0448093101543S11648069EA0181301852000004000000
B0448133101444S11648048EA0180201842000004000000
B0448173101345S11648025EA0179201829000004000000
B0448213101244S11648001EA0177701815000004000000
B0448253101142S11647979EA0176901807000004000000
B0448293101041S11647957EA0175701798000004000000
B0448333100941S11647935EA0175601797000004000000
B0448373100844S11647914EA0175001791000004000000
B0448413100748S11647895EA0174401777000004000000
B0448453100653S11647875EA0173301763000004000000
B0448493100558S11647852EA0172101756000004000000
B0448533100466S11647829EA0171301748000004000000
B0448573100375S11647805EA0170501739000004000000
B0449013100284S11647783EA0170101736000004000000
B0449053100196S11647760EA0169601731000004000000
B0449093100105S11647736EA0168901718000004000000
B0449133100012S11647713EA0167301702000004000000
B0449173059918S11647688EA0166501690000004000000
B0449213059824S11647666EA0165401684000004000000
B0449253059732S11647647EA0165201687000004000000
B0449293059645S11647626EA0165001678000004000000
B0449333059560S11647606EA0164301672000004000000
B0449373059476S11647588EA0164301672000004000000
B0449413059392S11647572EA0164801684000004000000
B0449453059318S11647582EA0167001705000004000000
B0449493059265S11647631EA0168201713000004000000
B0449533059240S11647701EA0168901719000004000000
B0449573059247S11647777EA0169801731000004000000
B0450013059299S11647809EA0170601735000004000000
B0450053059355S11647764EA0170601736000004000000
B0450093059356S11647680EA0171401748000004000000
B0450133059307S11647626EA0172801763000004000000
B0450173059245S11647643EA0173701769000004000000
B0450213059230S11647715EA0173801770000000000000
B0450253059283S11647762EA0173701770000000000000
B0450293059347S11647725EA0174401778000004000000
B0450333059360S11647643EA0176401800000004000000
B0450373059320S11647585EA0177601812000004000000
B0450413059268S11647613EA0178401819000004000000
B0450453059281S11647676EA0179201829000004000000
B0450493059339S11647680EA0179701832000004000000
B0450533059377S11647614EA0179901832000004000000
B0450573059353S11647536EA0180201840000004000000
B0451013059295S11647505EA0181001847000004000000
B0451053059240S11647544EA0181501848000004000000
B0451093059238S11647617EA0181701854000004000000
B0451133059273S11647676EA0182601861000004000000
B0451173059334S11647688EA0182801865000004000000
B0451213059398S11647652EA0182901863000004000000
B0451253059435S11647582EA0182801865000004000000
B0451293059413S11647502EA0183001869000004000000
B0451333059357S11647450EA0183301871000004000000
B0451373059290S11647423EA0183501877000004000000
B0451413059216S11647405EA0184501887000004000000
B0451453059143S11647397EA0185701902000004000000
B0451493059108S11647445EA0187501917000004000000
B0451533059144S11647484EA0187701915000004000000
B0451573059196S11647448EA0188201925000004000000
B0452013059204S11647371EA0190201947000004000000
B0452053059162S11647309EA0191701958000004000000
B0452093059097S11647314EA0192801969000004000000
B0452133059084S11647375EA0193401975000004000000
B0452173059131S11647401EA0194101983000004000000
B0452213059171S11647350EA0195101998000004000000
B0452253059152S11647275EA0196502013000004000000
B0452293059091S11647255EA0197602021000004000000
B0452333059056S11647306EA0198502026000004000000
B0452373059088S11647348EA0198802031000004000000
B0452413059139S11647320EA0199802046000004000000
B0452453059157S11647250EA0201302062000004000000
B0452493059115S11647193EA0202502070000004000000
B0452533059058S11647214EA0202602074000004000000
B0452573059050S11647277EA0203102078000004000000
B0453013059099S11647292EA0203902089000004000000
B0453053059132S11647232EA0206102112000004000000
B0453093059112S11647160EA0207702127000004000000
B0453133059050S11647159EA0207902122000004000000
B0453173059041S11647223EA0207602125000004000000
B0453213059089S11647231EA0209102147000004000000
B0453253059112S11647163EA0211302170000004000000
B0453293059071S11647101EA0212902181000004000000
B0453333059011S11647117EA0213202181000004000000
B0453373059008S11647181EA0212902178000004000000
B0453413059054S11647210EA0213402188000004000000
B0453453059106S11647175EA0215202204000004000000
B0453493059121S11647094EA0216302218000004000000
B0453533059073S11647041EA0217502230000004000000
B0453573059032S11647089EA0217802230000004000000
B0454013059075S11647125EA0217402226000004000000
B0454053059126S11647073EA0218502242000004000000
B0454093059115S11646994EA0220302257000004015000
B0454133059056S11646942EA0218902237000004000000
B0454173058965S11646916EA0216802217000004000000
B0454213058861S11646898EA0214702197000004000000
B0454253058748S11646890EA0213502187000004000000
B0454293058631S11646885EA0212802181000004000000
B0454333058514S11646881EA0212102167000004000000
B0454373058397S11646878EA0211702160000004000000
B0454413058281S11646878EA0211602163000004000000
B0454453058168S11646878EA0212102166000004000000
B0454493058056S11646882EA0211002151000004015000
B0454533057944S11646886EA0209702142000004000000
B0454573057834S11646894EA0209102137000004000000
B0455013057726S11646904EA0208402127000004000000
B0455053057618S11646916EA0207202114000004000000
B0455093057511S11646926EA0206002104000004000000
B0455133057405S11646933EA0205502097000004000000
B0455173057301S11646934EA0204702090000004000000
B0455213057197S11646934EA0204202083000004000000
B0455253057095S11646926EA0203102068000004000000
B0455293056993S11646920EA0202402066000004000000
B0455333056891S11646915EA0202002061000004000000
B0455373056787S11646908EA0201402055000004000000
B0455413056686S11646904EA0201702056000004000000
B0455453056584S11646903EA0201502053000004000000
B0455493056486S11646904EA0202002068000004000000
B0455533056396S11646902EA0203402064000004000000
B0455573056302S11646898EA0201302046000004000000
B0456013056206S11646896EA0199802035000004000000
B0456053056112S11646899EA0199402031000004000000
B0456093056023S11646902EA0198302021000004000000
B0456133055933S11646907EA0197402009000004000000
B0456173055836S11646913EA0196201994000004000000
B0456213055735S11646916EA0194801983000004000000
B0456253055634S11646913EA0194301982000004000000
B0456293055535S11646911EA0194401982000004000000
B0456333055436S11646908EA0194401979000004000000
B0456373055336S11646902EA0193901978000004000000
B0456413055239S11646895EA0194401985000004000000
B0456453055144S11646891EA0194701985000004000000
B0456493055052S11646885EA0195301989000004000000
B0456533054959S11646878EA0194201973000004000000
B0456573054862S11646872EA0193001965000004000000
B0457013054762S11646863EA0192801963000004000000
B0457053054662S11646852EA0191901949000004000000
B0457093054562S11646842EA0190401935000004000000
B0457133054458S11646834EA0189601925000004000000
B0457173054355S11646828EA0188901920000004000000
B0457213054256S11646821EA0188301910000004000000
B0457253054156S11646813EA0187001896000004000000
B0457293054057S11646803EA0185501885000004000000
B0457333053957S11646791EA0184901879000004000000
B0457373053857S11646782EA0184501873000004000000
B0457413053757S11646772EA0183701861000004000000
B0457453053657S11646761EA0182401849000004000000
B0457493053555S11646751EA0181001832000004000000
B0457533053453S11646742EA0179501818000004000000
B0457573053350S11646734EA0178401808000004000000
B0458013053247S11646724EA0178001807000004000000
B0458053053143S11646716EA0178401811000004000000
B0458093053041S11646704EA0178601813000004000000
B0458133052938S11646694EA0178001808000004000000
B0458173052836S11646687EA0177801806000004000000
B0458213052740S11646685EA0178801825000004000000
B0458253052673S11646717EA0182701861000004000000
B0458293052678S11646781EA0185001887000004000000
B0458333052736S11646786EA0186101894000004000000
B0458373052773S11646720EA0186301892000004000000
B0458413052764S11646635EA0186501897000004000000
B0458453052716S11646584EA0187201901000004000000
B0458493052649S11646569EA0186201885000004000000
B0458533052567S11646569EA0183901865000004000000
B0458573052480S11646578EA0182801860000004000000
B0459013052393S11646594EA0183801872000004000000
B0459053052310S11646610EA0184301877000004000000
B0459093052225S11646631EA0184201873000004000000
B0459133052138S11646656EA0183501864000004000000
B0459173052049S11646681EA0182901862000004000000
B0459213051959S11646707EA0182601857000004000000
B0459253051868S11646731EA0181701849000004000000
B0459293051777S11646755EA0180501836000004000000
B0459333051686S11646778EA0179201821000004000000
B0459373051594S11646800EA0177601803000004000000
B0459413051500S11646817EA0175801783000004000000
B0459453051406S11646837EA0174101765000004000000
B0459493051314S11646864EA0172501750000004000000
B0459533051221S11646894EA0171101737000004000000
B0459573051127S11646928EA0169701720000004000000
B0500013051031S11646960EA0168001703000004000000
B0500053050935S11646993EA0168001706000004000000
B0500093050846S11647025EA0168901714000004000000
B0500133050763S11647055EA0168501707000004000000
B0500173050681S11647088EA0167201693000004000000
B0500213050600S11647127EA0166901694000004000000
B0500253050528S11647166EA0169401725000004000000
B0500293050464S11647206EA0170101726000004000000
B0500333050395S11647244EA0169201709000004000000
B0500373050318S11647277EA0167401690000004000000
B0500413050235S11647307EA0165901682000004000000
B0500453050161S11647349EA0166901698000004000000
B0500493050104S11647407EA0167601697000004000000
B0500533050062S11647480EA0165601671000004000000
B0500573050002S11647553EA0162401636000004000000
B0501013049919S11647609EA0159801615000004000000
B0501053049828S11647645EA0158101600000004000000
B0501093049732S11647663EA0157501596000004000000
B0501133049635S11647673EA0158001608000004000000
B0501173049564S11647718EA0160501638000004000000
B0501213049588S11647777EA0164001673000004000000
B0501253049642S11647752EA0166501688000004000000
B0501293049648S11647680EA0166401697000004015000
B0501333049589S11647643EA0165001684000004015000
B0501373049523S11647665EA0164701687000004015000
B0501413049498S11647731EA0167101720000004015000
B0501453049546S11647754EA0170401746000004015000
B0501493049577S11647688EA0171401756000004015000
B0501533049534S11647636EA0172701771000004015000
B0501573049492S11647671EA0174901795000004015000
B0502013049523S11647715EA0177401820000004015000
B0502053049576S11647683EA0179001831000004015000
B0502093049583S11647604EA0180001843000004015000
B0502133049534S11647548EA0180601850000004015000
B0502173049477S11647570EA0182601875000004015000
B0502213049494S11647621EA0185601906000004015000
B0502253049547S11647592EA0187401921000004015000
B0502293049546S11647514EA0189901947000004015000
B0502333049497S11647480EA0191701959000004015000
B0502373049459S11647524EA0191901971000004000000
B0502413049484S11647575EA0194401998000004000000
B0502453049540S11647558EA0196402015000004000000
B0502493049557S11647485EA0198602041000004000000
B0502533049518S11647429EA0200502052000004000000
B0502573049468S11647452EA0201302064000004000000
B0503013049476S11647511EA0203702091000004000000
B0503053049529S11647515EA0205702106000004000000
B0503093049562S11647449EA0207302125000004000000
B0503133049531S11647385EA0209302140000004015000
B0503173049479S11647393EA0209902143000004000000
B0503213049481S11647455EA0210902160000004000000
B0503253049540S11647453EA0213202181000004015000
B0503293049551S11647374EA0214002194000004030000
B0503333049493S11647346EA0215202207000004030000
B0503373049468S11647403EA0216402222000004015000
B0503413049507S11647448EA0218402242000004015000
B0503453049563S11647411EA0219702250000004015000
B0503493049564S11647328EA0220402259000004015000
B0503533049507S11647292EA0221402265000004015000
B0503573049466S11647333EA0222102274000004015000
B0504013049481S11647394EA0223402292000004015000
B0504053049538S11647398EA0225102304000004015000
B0504093049580S11647335EA0225602302000004015000
B0504133049562S11647254EA0225402305000004015000
B0504173049502S11647246EA0225702311000004015000
B0504213049494S11647310EA0226602322000004015000
B0504253049545S11647345EA0228002337000004015000
B0504293049602S11647309EA0228802339000004015000
B0504333049618S11647225EA0228502335000004015000
B0504373049586S11647141EA0228402335000004015000
B0504413049532S11647073EA0227602329000004015000
B0504453049458S11647034EA0228002341000004000000
B0504493049388S11647054EA0229302345000004000000
B0504533049334S11647117EA0228202320000004000000
B0504573049255S11647168EA0225402291000004000000
B0505013049155S11647190EA0223202277000004000000
B0505053049048S11647198EA0221502262000004000000
B0505093048938S11647194EA0220602252000004000000
B0505133048826S11647180EA0219102235000004015000
B0505173048708S11647159EA0217302218000004015000
B0505213048592S11647136EA0215802200000004015000
B0505253048478S11647110EA0214702195000004015000
B0505293048367S11647085EA0215002197000004000000
B0505333048260S11647062EA0215002195000004000000
B0505373048156S11647041EA0215002195000004000000
B0505413048062S11647023EA0216202209000004000000
B0505453047973S11647007EA0216402201000004000000
B0505493047880S11646990EA0214202176000004000000
B0505533047782S11646972EA0212102163000004000000
B0505573047687S11646955EA0211902161000004000000
B0506013047595S11646939EA0211402151000004000000
B0506053047504S11646920EA0210402141000004000000
B0506093047412S11646898EA0210102141000004000000
B0506133047321S11646876EA0210702152000004000000
B0506173047243S11646893EA0213602180000004000000
B0506213047192S11646951EA0214902188000004000000
B0506253047148S11647016EA0214402177000004000000
B0506293047090S11647075EA0213102161000004000000
B0506333047019S11647115EA0212702152000004000000
B0506373046941S11647132EA0211602144000004000000
B0506413046860S11647136EA0209702122000004000000
B0506453046773S11647130EA0207302097000004000000
B0506493046681S11647121EA0204802074000004000000
B0506533046589S11647111EA0202902054000004000000
B0506573046496S11647102EA0201402040000004000000
B0507013046404S11647093EA0200802040000004000000
B0507053046314S11647084EA0201302049000004000000
B0507093046229S11647077EA0202202059000004000000
B0507133046144S11647071EA0202902061000004000000
B0507173046065S11647082EA0202502056000004000000
B0507213045992S11647110EA0202402059000004000000
B0507253045926S11647147EA0203002066000004000000
B0507293045880S11647210EA0203402068000004000000
B0507333045849S11647279EA0204202077000004000000
B0507373045855S11647345EA0205002082000004000000
B0507413045910S11647353EA0205002083000004000000
B0507453045941S11647286EA0205402085000004000000
B0507493045917S11647205EA0205302084000004000000
B0507533045867S11647130EA0204802084000004000000
B0507573045813S11647063EA0205402095000004000000
B0508013045754S11647006EA0206402105000004000000
B0508053045694S11646959EA0207002112000004000000
B0508093045629S11646922EA0208002122000004000000
B0508133045573S11646943EA0208702128000004000000
B0508173045585S11647007EA0208602125000004000000
B0508213045644S11647004EA0209302139000004000000
B0508253045662S11646937EA0211202155000004015000
B0508293045623S11646876EA0211402164000004015000
B0508333045559S11646869EA0212102174000004015000
B0508373045537S11646925EA0212402175000004015000
B0508413045580S11646963EA0212902182000004015000
B0508453045627S11646926EA0213802190000004015000
B0508493045633S11646848EA0214102185000004015000
B0508533045592S11646774EA0213302181000004015000
B0508573045525S11646718EA0213602185000004015000
B0509013045454S11646673EA0213702185000004000000
B0509053045377S11646634EA0213402179000004000000
B0509093045295S11646600EA0212102163000004000000
B0509133045207S11646569EA0210802140000004000000
B0509173045113S11646539EA0207902114000004000000
B0509213045018S11646508EA0206402105000004000000
B0509253044925S11646474EA0205602098000004000000
B0509293044834S11646440EA0205102091000004000000
B0509333044740S11646413EA0204502087000004000000
B0509373044644S11646389EA0204602081000004000000
B0509413044546S11646367EA0203702070000004000000
B0509453044446S11646345EA0202502058000004000000
B0509493044346S11646321EA0202002057000004000000
B0509533044251S11646297EA0202302057000004000000
B0509573044159S11646271EA0202402058000004000000
B0510013044071S11646236EA0201902050000004000000
B0510053043980S11646201EA0200902037000004000000
B0510093043886S11646172EA0199802027000004000000
B0510133043790S11646146EA0199302027000004000000
B0510173043700S11646123EA0200002034000004000000
B0510213043612S11646098EA0200002025000004000000
B0510253043523S11646072EA0198602012000004000000
B0510293043431S11646050EA0197202002000004000000
B0510333043341S11646023EA0196901998000004000000
B0510373043249S11646002EA0196001989000004000000
B0510413043157S11645983EA0195601987000004000000
B0510453043070S11645958EA0195801987000004000000
B0510493042980S11645946EA0195601987000004000000
B0510533042891S11645949EA0195301983000004000000
B0510573042804S11645953EA0194901975000004000000
B0511013042715S11645964EA0193301956000004000000
B0511053042629S11645998EA0191901946000004000000
B0511093042555S11646054EA0191001937000004000000
B0511133042501S11646127EA0191001939000004000000
B0511173042495S11646213EA0190801929000004000000
B0511213042525S11646295EA0188901911000004000000
B0511253042578S11646370EA0186901892000004000000
B0511293042635S11646443EA0185701882000004000000
B0511333042691S11646516EA0185501880000004000000
B0511373042747S11646584EA0185201872000004000000
B0511413042802S11646656EA0183801852000004000000
B0511453042858S11646734EA0181301828000004000000
B0511493042914S11646818EA0179001805000004000000
B0511533042968S11646906EA0177201787000004000000
B0511573043024S11646994EA0175901777000004000000
B0512013043086S11647078EA0174201756000004000000
B0512053043150S11647166EA0173101746000004000000
B0512093043213S11647250EA0172501743000004000000
B0512133043279S11647327EA0171801733000004000000
B0512173043344S11647403EA0171301726000004000000
B0512213043406S11647479EA0170101709000004000000
B0512253043469S11647558EA0168001686000004000000
B0512293043531S11647639EA0166901682000004000000
B0512333043596S11647713EA0166301674000004000000
B0512373043661S11647786EA0165801672000004000000
B0512413043726S11647856EA0165501662000004000000
B0512453043792S11647927EA0164501656000004000000
B0512493043863S11647987EA0164801661000004000000
B0512533043930S11648040EA0165501666000004000000
B0512573043998S11648089EA0165701668000004000000
B0513013044067S11648133EA0165801663000004000000
B0513053044138S11648180EA0164301646000004000000
B0513093044211S11648233EA0162601624000004000000
B0513133044284S11648298EA0160701605000004000000
B0513173044353S11648373EA0159201590000004000000
B0513213044419S11648456EA0158101576000004000000
B0513253044481S11648542EA0156501559000004000000
B0513293044545S11648628EA0154701543000004000000
B0513333044610S11648714EA0153201528000004000000
B0513373044670S11648807EA0151201507000004000000
B0513413044727S11648904EA0150101502000004000000
B0513453044783S11648995EA0149501497000004000000
B0513493044839S11649078EA0150301511000004000000
B0513533044899S11649145EA0150801511000004000000
B0513573044961S11649210EA0150001489000004000000
B0514013045018S11649287EA0148101481000004000000
B0514053045070S11649365EA0148401487000004000000
B0514093045116S11649444EA0149001493000004000000
B0514133045163S11649524EA0148901489000004000000
B0514173045208S11649606EA0148201480000004000000
B0514213045255S11649689EA0147301472000004000000
B0514253045304S11649769EA0145701453000004000000
B0514293045351S11649853EA0144101438000004000000
B0514333045395S11649937EA0143001430000004000000
B0514373045438S11650020EA0142401419000004000000
B0514413045477S11650109EA0141401414000004000000
B0514453045511S11650195EA0142301429000004000000
B0514493045566S11650228EA0144701466000004000000
B0514533045610S11650176EA0146901474000004000000
B0514573045599S11650091EA0146001464000004000000
B0515013045543S11650037EA0146101475000004000000
B0515053045506S11650074EA0147501488000004000000
B0515093045536S11650115EA0147501485000004000000
B0515133045597S11650126EA0146701471000004000000
B0515173045657S11650165EA0145901472000004000000
B0515213045705S11650219EA0147001486000004000000
B0515253045744S11650279EA0147701489000004000000
B0515293045772S11650347EA0147901493000004000000
B0515333045797S11650417EA0148001494000004000000
B0515373045826S11650491EA0146801477000004000000
B0515413045858S11650572EA0145101459000004000000
B0515453045891S11650655EA0145001468000004000000
B0515493045920S11650731EA0146301488000004000000
B0515533045950S11650798EA0147101483000004000000
B0515573045985S11650860EA0146101463000004000000
B0516013046022S11650925EA0144701455000004000000
B0516053046074S11650980EA0144301453000004000000
B0516093046127S11651037EA0145001460000004000000
B0516133046170S11651095EA0145701468000004000000
B0516173046208S11651153EA0146101468000004000000
B0516213046251S11651207EA0144901453000004000000
B0516253046299S11651268EA0143001429000004000000
B0516293046330S11651349EA0141801420000004000000
B0516333046352S11651436EA0141101415000004000000
B0516373046377S11651521EA0141301428000004000000
B0516413046418S11651578EA0143401442000004000000
B0516453046474S11651549EA0144601450000004000000
B0516493046468S11651475EA0143901440000004000000
B0516533046411S11651427EA0143201440000004000000
B0516573046343S11651407EA0143001438000004000000
B0517013046282S11651433EA0143001438000004000000
B0517053046242S11651489EA0142901436000004000000
B0517093046229S11651558EA0142201429000004000000
B0517133046234S11651630EA0141901428000004000000
B0517173046247S11651703EA0141801423000004000000
B0517213046262S11651775EA0141101415000004000000
B0517253046277S11651853EA0140101406000004000000
B0517293046291S11651934EA0138801392000004000000
B0517333046305S11652022EA0137601383000004000000
B0517373046321S11652113EA0136701376000004000000
B0517413046348S11652198EA0138101394000004000000
B0517453046400S11652193EA0141901412000004000000
B0517493046395S11652122EA0142501408000004000000
B0517533046331S11652093EA0142401415000004000000
B0517573046292S11652138EA0143301427000004000000
B0518013046330S11652165EA0144401444000004000000
B0518053046356S11652111EA0145901451000004015000
B0518093046314S11652057EA0145901450000004030000
B0518133046253S11652073EA0145601459000004015000
B0518173046248S11652128EA0146801477000004015000
B0518213046295S11652130EA0147601483000004015000
B0518253046326S11652070EA0148001488000004015000
B0518293046297S11652002EA0148601497000004015000
B0518333046236S11651965EA0148601502000004015000
B0518373046183S11651992EA0149401510000004015000
B0518413046177S11652051EA0149901515000004000000
B0518453046210S11652096EA0149401509000004000000
B0518493046266S11652128EA0147801490000004000000
B0518533046323S11652178EA0145601468000004000000
B0518573046375S11652247EA0143601446000004000000
B0519013046420S11652328EA0142401428000004000000
B0519053046460S11652415EA0140201409000004000000
B0519093046502S11652499EA0139101401000004000000
B0519133046541S11652584EA0138301391000004000000
B0519173046564S11652674EA0138801404000004000000
B0519213046580S11652756EA0140101414000004000000
B0519253046596S11652835EA0140601421000004000000
B0519293046615S11652913EA0141301427000004000000
B0519333046638S11652988EA0141501428000004000000
B0519373046664S11653066EA0140901414000004000000
B0519413046686S11653152EA0139101397000004000000
B0519453046711S11653240EA0139101412000004000000
B0519493046755S11653286EA0141701437000004000000
B0519533046786S11653238EA0143601444000004000000
B0519573046737S11653181EA0143001440000004015000
B0520013046663S11653196EA0143001445000004000000
B0520053046615S11653261EA0143701450000004000000
B0520093046598S11653341EA0143901452000004000000
B0520133046615S11653416EA0142701438000004000000
B0520173046651S11653489EA0141101423000004000000
B0520213046699S11653559EA0138701399000004000000
B0520253046754S11653630EA0136801371000004000000
B0520293046811S11653708EA0134201338000004000000
B0520333046838S11653815EA0130601313000004000000
B0520373046834S11653932EA0130701327000004000000
B0520413046838S11654039EA0130901324000004000000
B0520453046850S11654143EA0129701305000004000000
B0520493046846S11654249EA0128101287000004000000
B0520533046807S11654348EA0127001278000004000000
B0520573046752S11654434EA0126101266000004000000
B0521013046686S11654512EA0124901255000004000000
B0521053046617S11654585EA0124001241000004000000
B0521093046544S11654654EA0122301225000004000000
B0521133046473S11654719EA0121201219000004000000
B0521173046403S11654780EA0121401220000004000000
B0521213046334S11654841EA0121601224000004000000
B0521253046279S11654904EA0123301246000004000000
B0521293046305S11654950EA0125801272000004000000
B0521333046344S11654898EA0127701288000004000000
B0521373046314S11654838EA0128801300000004000000
B0521413046260S11654838EA0129401302000004000000
B0521453046238S11654889EA0129101302000004000000
B0521493046273S11654917EA0130101313000004000000
B0521533046320S11654880EA0130901320000004000000
B0521573046327S11654807EA0131801328000004015000
B0522013046277S11654765EA0132101333000004015000
B0522053046222S11654794EA0132501339000004015000
B0522093046219S11654849EA0133201350000004015000
B0522133046266S11654852EA0134401356000004015000
B0522173046299S11654795EA0134501360000004015000
B0522213046268S11654734EA0135701373000004015000
B0522253046209S11654739EA0136101374000004015000
B0522293046190S11654797EA0136401380000004015000
B0522333046226S11654826EA0137001387000004015000
B0522373046271S11654793EA0137701391000004015000
B0522413046266S11654724EA0137901394000004015000
B0522453046205S11654689EA0138201400000004015000
B0522493046154S11654720EA0138901404000004015000
B0522533046164S11654772EA0139101408000004015000
B0522573046212S11654769EA0140001415000004015000
B0523013046242S11654712EA0140101416000004015000
B0523053046239S11654630EA0140001419000004000000
B0523093046199S11654570EA0140901428000004000000
B0523133046140S11654595EA0141201430000004000000
B0523173046134S11654656EA0141501433000004000000
B0523213046184S11654641EA0141601427000004000000
B0523253046187S11654563EA0141601435000004000000
B0523293046149S11654495EA0143201451000004000000
B0523333046087S11654477EA0144601466000004000000
B0523373046043S11654513EA0144801465000004000000
B0523413046054S11654566EA0144401461000004000000
B0523453046104S11654574EA0144201458000004000000
B0523493046135S11654517EA0144001457000004000000
B0523533046099S11654447EA0144001459000004000000
