ACAM4N6
HFDTE210315
HFFXA050
HFPLTPILOT:JOHN WELSH              
HFGTYGLIDERTYPE:HORNET      
HFGIDGLIDERID:VH-GMY      
HFDTM100GPSDATUM:
HFRFWFIRMWAREVERSION:F2.6
HFRHWHARDWAREVERSION:300 Series Version 2
HFFTYFRTYPE:CAMBRIDGE AERO INSTRUMENTS, 302+
HFGPS:GARMIN,LVS-25,12,18000
HFPRSPRESSALTSENSOR:INTERSEMA, MS5534-AP, 20000
I033638FXA3941ENL4247REX
LCAMSBVER:5FWVER:F26300
C210315033103210315000103
C0000000N00000000WTAKEOFF     
C3207547S11656819EBeverley Air
C3137397S11712959ECunderdin Ai
C3256165S11710679ENarrogin Sil
C3255535S11704919ENarrogin Aer
C3207547S11656819EBeverley Air
C0000000N00000000WLANDING     
B0341023207737S11657101EA0022300209000000000000
B0341043207737S11657101EA0022300209000000000000
B0341063207737S11657101EA0022400209000000000000
B0341083207737S11657101EA0022400209000000000000
B0341103207737S11657101EA0022300209000000000000
B0341123207737S11657101EA0022300209000000000000
B0341143207737S11657101EA0022300209000000000000
B0341163207737S11657101EA0022300209000000000000
B0341183207737S11657101EA0022300209000000000000
B0341203207737S11657101EA0022300209000000000000
B0341223207737S11657101EA0022300209000000000000
B0341243207737S11657101EA0022300209000000000000
B0341263207737S11657101EA0022400209000000000000
B0341283207737S11657101EA0022300209000000000000
B0341303207735S11657100EA0022400209000000000000
B0341313207732S11657098EA0022500208000000000000
B0341353207710S11657088EA0022400208000000000000
B0341393207674S11657068EA0022600208000000000000
B0341433207624S11657040EA0022900209000000000000
B0341473207566S11657008EA0023000210000000000000
B0341513207505S11656977EA0023600217000000000000
B0341553207441S11656945EA0024800229000000000000
B0341593207377S11656919EA0026500248000000000000
B0342033207320S11656890EA0028200275000000000000
B0342073207269S11656856EA0030100296000000000000
B0342113207226S11656808EA0031900313000000000000
B0342153207196S11656748EA0033600332000000000000
B0342193207169S11656689EA0035800356000000000000
B0342233207143S11656631EA0037700371000000000000
B0342273207124S11656570EA0039500391000000000000
B0342313207099S11656509EA0041100407000000000000
B0342353207059S11656458EA0042900425000000000000
B0342393207008S11656412EA0044200441000000000000
B0342433206949S11656383EA0046600465000000000000
B0342473206884S11656367EA0048200487000000000000
B0342513206812S11656366EA0049900501000000000000
B0342553206738S11656380EA0052100528000000000000
B0342593206666S11656405EA0054400555000000000000
B0343033206598S11656441EA0057100578000000000000
B0343073206531S11656479EA0058800588000000000000
B0343113206463S11656515EA0059600596000000000000
B0343153206397S11656554EA0060600609000000000000
B0343193206329S11656592EA0061800618000000000000
B0343233206264S11656627EA0062700631000000000000
B0343273206199S11656663EA0064200646000000000000
B0343313206134S11656702EA0065000651000000000000
B0343353206072S11656740EA0066000668000000000000
B0343393206007S11656774EA0067700685000000000000
B0343433205943S11656809EA0069700707000000000000
B0343473205874S11656847EA0071600723000000000000
B0343513205804S11656884EA0071900725000000000000
B0343553205738S11656921EA0073200739000000000000
B0343593205673S11656955EA0074700753000000000000
B0344033205604S11656981EA0076400771000000000000
B0344073205530S11656997EA0077900787000000000000
B0344113205456S11657010EA0079400807000000000000
B0344153205383S11657021EA0080700819000000000000
B0344193205319S11657051EA0081200818000000000000
B0344233205261S11657105EA0081100820000000000000
B0344273205200S11657143EA0081500824000000000000
B0344313205144S11657150EA0082100827000000000000
B0344353205101S11657131EA0082200828000000000000
B0344393205070S11657096EA0081500815000000000000
B0344433205048S11657049EA0080700810000000000000
B0344473205027S11656999EA0080600808000000000000
B0344513205018S11656948EA0081000819000000000000
B0344553205015S11656899EA0081500812000000000000
B0344593205010S11656844EA0080200800000000000000
B0345033204999S11656789EA0079600797000000000000
B0345073204994S11656735EA0079800802000000000000
B0345113204981S11656687EA0080800814000000000000
B0345153204936S11656706EA0082000827000000000000
B0345193204934S11656786EA0082500832000000000000
B0345233204989S11656830EA0082700832000000000000
B0345273205035S11656806EA0082800838000000000000
B0345313205025S11656765EA0083700849000000000000
B0345353204977S11656763EA0085100865000000000000
B0345393204946S11656832EA0085900871000000000000
B0345433204980S11656908EA0086400879000000000000
B0345473205038S11656913EA0086800882000000000000
B0345513205053S11656871EA0087400892000000000000
B0345553205016S11656849EA0088500901000000000000
B0345593204963S11656873EA0089300910000000000000
B0346033204924S11656940EA0089900918000000000000
B0346073204929S11657027EA0090700921000000000000
B0346113204977S11657085EA0090900921000000000000
B0346153205037S11657085EA0090600919000000000000
B0346193205076S11657046EA0090900925000000000000
B0346233205051S11657014EA0092500944000000000000
B0346273205014S11657069EA0093400948000000000000
B0346313205041S11657147EA0093800957000000000000
B0346353205100S11657163EA0094200959000000000000
B0346393205124S11657126EA0094800968000000000000
B0346433205094S11657107EA0096300982000000000000
B0346473205057S11657156EA0097100990000000000000
B0346513205062S11657239EA0097900995000000000000
B0346553205110S11657300EA0097700992000000000000
B0346593205170S11657306EA0098000998000000000000
B0347033205189S11657269EA0099401012000000000000
B0347073205158S11657251EA0100401021000000000000
B0347113205111S11657286EA0101201031000000000000
B0347153205107S11657373EA0102001040000000000000
B0347193205161S11657429EA0102901046000000000000
B0347233205211S11657412EA0103401052000000000000
B0347273205215S11657367EA0103901058000000000000
B0347313205172S11657350EA0104801068000000000000
B0347353205129S11657403EA0106001082000000000000
B0347393205139S11657489EA0107301093000000000000
B0347433205193S11657541EA0107701096000000000000
B0347473205240S11657524EA0108801111000000000000
B0347513205235S11657482EA0108901111000000000000
B0347553205194S11657469EA0109601120000000000000
B0347593205154S11657524EA0109601119000000000000
B0348033205153S11657616EA0109901125000000000000
B0348073205206S11657676EA0110501130000000000000
B0348113205257S11657663EA0111401141000000000000
B0348153205257S11657620EA0112101145000000000000
B0348193205213S11657620EA0112401148000000000000
B0348233205214S11657703EA0113001163000000015000
B0348273205271S11657754EA0113801168000000000000
B0348313205317S11657731EA0114601178000000000000
B0348353205309S11657690EA0115301182000000000000
B0348393205265S11657696EA0115301183000000000000
B0348433205226S11657757EA0115101180000000000000
B0348473205204S11657848EA0114801174000000000000
B0348513205189S11657949EA0114701179000000000000
B0348553205214S11658041EA0115601187000000000000
B0348593205276S11658079EA0116601193000000000000
B0349033205313S11658043EA0116501185000000000000
B0349073205298S11657992EA0116001182000000000000
B0349113205258S11657950EA0115601180000000000000
B0349153205202S11657937EA0116001189000000000000
B0349193205172S11658015EA0117701204000000000000
B0349233205210S11658092EA0118501209000000000000
B0349273205272S11658106EA0118401209000000000000
B0349313205304S11658065EA0118501213000000000000
B0349353205285S11658026EA0118701214000000000000
B0349393205245S11658001EA0118701215000000000000
B0349433205200S11657982EA0119201219000000000000
B0349473205148S11657962EA0118101201000000000000
B0349513205088S11657940EA0116601188000000000000
B0349553205028S11657918EA0116101189000000000000
B0349593204967S11657894EA0116301187000000000000
B0350033204908S11657868EA0116201191000000000000
B0350073204855S11657844EA0117201198000000000000
B0350113204803S11657826EA0117801208000000000000
B0350153204755S11657823EA0119301219000000000000
B0350193204716S11657870EA0119401215000000000000
B0350233204723S11657961EA0118401206000000000000
B0350273204786S11658013EA0118301211000000000000
B0350313204846S11658001EA0119101219000000000000
B0350353204880S11657961EA0119301219000000000000
B0350393204901S11657910EA0118801211000000000000
B0350433204915S11657853EA0117901200000000000000
B0350473204927S11657789EA0116301182000000000000
B0350513204936S11657725EA0115901185000000000000
B0350553204944S11657667EA0116701191000000000000
B0350593204950S11657610EA0116501186000000000000
B0351033204957S11657547EA0116101181000000000000
B0351073204959S11657481EA0116101184000000000000
B0351113204955S11657415EA0115901177000000000000
B0351153204949S11657343EA0115601181000000000000
B0351193204932S11657280EA0116601193000000000000
B0351233204884S11657273EA0118601219000000000000
B0351273204868S11657352EA0120601237000000000000
B0351313204914S11657424EA0121201243000000000000
B0351353204976S11657432EA0122301256000000000000
B0351393205005S11657389EA0122801258000000000000
B0351433204979S11657360EA0123801271000000000000
B0351473204942S11657402EA0124401276000000000000
B0351513204959S11657485EA0124801280000000000000
B0351553205020S11657519EA0125601287000000000000
B0351593205063S11657489EA0126201291000000000000
B0352033205063S11657446EA0126601294000000000000
B0352073205036S11657417EA0126701293000000000000
B0352113204986S11657416EA0126001290000000000000
B0352153204933S11657451EA0126301295000000000000
B0352193204876S11657460EA0127101306000000000000
B0352233204847S11657425EA0128601323000000000000
B0352273204862S11657381EA0130301340000000000000
B0352313204905S11657359EA0131801352000000000000
B0352353204958S11657368EA0132201351000000000000
B0352393205012S11657403EA0131701345000000000000
B0352433205053S11657471EA0130901339000000000000
B0352473205055S11657555EA0130901341000000000000
B0352513205038S11657638EA0131401349000000000000
B0352553205005S11657703EA0132101355000000000000
B0352593204962S11657706EA0133101364000000000000
B0353033204953S11657664EA0133901372000000000000
B0353073204988S11657623EA0134801383000000000000
B0353113205046S11657612EA0135801393000000000000
B0353153205107S11657642EA0136301395000000000000
B0353193205137S11657718EA0137001402000000000000
B0353233205118S11657788EA0137501408000000000000
B0353273205076S11657810EA0138401419000000000000
B0353313205049S11657789EA0139201427000000000000
B0353353205058S11657748EA0139701432000000000000
B0353393205100S11657719EA0139801429000000000000
B0353433205159S11657722EA0139801427000000000000
B0353473205219S11657759EA0139001417000000000000
B0353513205265S11657832EA0138201409000000000000
B0353553205287S11657920EA0137301402000000000000
B0353593205276S11658009EA0137201401000000000000
B0354033205237S11658078EA0137101403000000000000
B0354073205189S11658131EA0137901412000000000000
B0354113205137S11658158EA0138201417000000000000
B0354153205098S11658139EA0138701422000000000000
B0354193205090S11658091EA0139301428000000000000
B0354233205098S11658036EA0139901438000000000000
B0354273205113S11657987EA0141501452000000000000
B0354313205135S11657940EA0142001454000000000000
B0354353205159S11657893EA0141701450000000000000
B0354393205187S11657848EA0141201443000000000000
B0354433205224S11657803EA0140001428000000000000
B0354473205274S11657761EA0138401412000000000000
B0354513205335S11657722EA0137201398000000000000
B0354553205402S11657689EA0136201390000000000000
B0354593205471S11657664EA0135401381000000000000
B0355033205542S11657645EA0134401370000000000000
B0355073205613S11657628EA0133401361000000000000
B0355113205687S11657615EA0132601354000000000000
B0355153205760S11657606EA0132401352000000000000
B0355193205834S11657599EA0132001345000000000000
B0355233205909S11657594EA0131101335000000000000
B0355273205985S11657589EA0130101327000000000000
B0355313206062S11657586EA0129301319000000000000
B0355353206138S11657586EA0128501310000000000000
B0355393206212S11657588EA0128501315000000000000
B0355433206279S11657577EA0128701316000000000000
B0355473206342S11657563EA0128601312000000000000
B0355513206409S11657547EA0127901305000000000000
B0355553206480S11657532EA0126801292000000000000
B0355593206556S11657520EA0125801283000000000000
B0356033206634S11657514EA0125501282000000000000
B0356073206713S11657514EA0125601285000000000000
B0356113206793S11657516EA0126101292000000000000
B0356153206869S11657512EA0127201306000000000000
B0356193206923S11657478EA0128301308000000000000
B0356233206970S11657432EA0127401301000000000000
B0356273207018S11657386EA0127201298000000000000
B0356313207068S11657341EA0126101286000000000000
B0356353207118S11657296EA0125201273000000000000
B0356393207181S11657259EA0123401249000000000000
B0356433207259S11657229EA0121001230000000000000
B0356473207342S11657208EA0120501234000000000000
B0356513207415S11657196EA0122301259000000000000
B0356553207473S11657179EA0125101283000000000000
B0356593207484S11657134EA0126001280000000000000
B0357033207437S11657127EA0125001270000000000000
B0357073207419S11657203EA0124901278000000000000
B0357113207460S11657274EA0124401270000000000000
B0357153207525S11657294EA0124801283000000000000
B0357193207584S11657283EA0126001292000000000000
B0357233207640S11657256EA0126601295000000000000
B0357273207683S11657213EA0125501281000000000000
B0357313207720S11657161EA0125101280000000000000
B0357353207754S11657105EA0123901260000000000000
B0357393207791S11657040EA0122401245000000000000
B0357433207827S11656971EA0121201233000000000000
B0357473207865S11656901EA0120201223000000000000
B0357513207902S11656832EA0119001211000000000000
B0357553207939S11656765EA0117901200000000000000
B0357593207973S11656698EA0116801188000000000000
B0358033208008S11656636EA0115701175000000000000
B0358073208038S11656572EA0114601165000000000000
B0358113208061S11656509EA0114301163000000000000
B0358153208082S11656449EA0114101159000000000000
B0358193208096S11656390EA0113501154000000000000
B0358233208105S11656334EA0113201148000000000000
B0358273208099S11656282EA0112301139000000000000
B0358313208066S11656251EA0111901135000000000000
B0358353208018S11656272EA0111601129000000000000
B0358393207996S11656350EA0111101125000000000000
B0358433208010S11656444EA0110601122000000000000
B0358473208040S11656535EA0110101121000000000000
B0358513208071S11656623EA0110101122000000000000
B0358553208103S11656709EA0110201122000000000000
B0358593208136S11656795EA0109901116000000000000
B0359033208174S11656883EA0108701102000000000000
B0359073208214S11656975EA0107101086000000000000
B0359113208253S11657070EA0105801078000000000000
B0359153208286S11657165EA0105901081000000000000
B0359193208316S11657257EA0105801078000000000000
B0359233208346S11657352EA0105401072000000000000
B0359273208372S11657451EA0104701062000000000000
B0359313208398S11657553EA0103901058000000000000
B0359353208425S11657653EA0103701055000000000000
B0359393208450S11657751EA0103301050000000000000
B0359433208480S11657848EA0102701048000000000000
B0359473208511S11657935EA0103601055000000000000
B0359513208538S11658019EA0103901055000000000000
B0359553208555S11658109EA0103101046000000000000
B0359593208564S11658201EA0101901031000000000000
B0400033208571S11658296EA0101001023000000000000
B0400073208582S11658390EA0100501016000000000000
B0400113208584S11658487EA0099301002000000000000
B0400153208576S11658586EA0098701003000000000000
B0400193208564S11658682EA0098700999000000000000
B0400233208526S11658765EA0098300994000000000000
B0400273208467S11658819EA0098000994000000000000
B0400313208402S11658843EA0097900993000000000000
B0400353208337S11658847EA0097400986000000000000
B0400393208274S11658833EA0096700978000000000000
B0400433208216S11658806EA0096300979000000000000
B0400473208160S11658780EA0097200991000000000000
B0400513208104S11658765EA0098501001000000000000
B0400553208057S11658814EA0099501015000000000000
B0400593208065S11658895EA0100301024000000000000
B0401033208121S11658932EA0101201032000000000000
B0401073208160S11658899EA0101301032000000000000
B0401113208136S11658856EA0102101044000000000000
B0401153208090S11658882EA0102801051000000000000
B0401193208087S11658960EA0103401060000000000000
B0401233208135S11659011EA0104101068000000000000
B0401273208184S11658998EA0104401069000000000000
B0401313208190S11658950EA0104901077000000000000
B0401353208145S11658937EA0105501082000000000000
B0401393208104S11658988EA0105701086000000000000
B0401433208109S11659072EA0106601096000000000000
B0401473208162S11659113EA0107701107000000000000
B0401513208205S11659090EA0108201110000000000000
B0401553208197S11659048EA0108901117000000000000
B0401593208148S11659054EA0109101115000000000000
B0402033208114S11659126EA0108901114000000000000
B0402073208131S11659215EA0109501126000000000000
B0402113208183S11659259EA0110601131000000000000
B0402153208229S11659233EA0110701134000000000000
B0402193208212S11659191EA0111801142000000000000
B0402233208160S11659202EA0112001144000000000000
B0402273208134S11659276EA0112001146000000000000
B0402313208165S11659354EA0112601155000000000000
B0402353208222S11659374EA0113401161000000000000
B0402393208251S11659335EA0113901162000000000000
B0402433208229S11659295EA0114201169000000000000
B0402473208181S11659296EA0115001176000000000000
B0402513208132S11659343EA0115101176000000000000
B0402553208096S11659419EA0115401183000000000000
B0402593208118S11659497EA0116401189000000000000
B0403033208177S11659503EA0116501192000000000000
B0403073208197S11659460EA0117301198000000000000
B0403113208160S11659436EA0118001203000000000000
B0403153208109S11659478EA0118201211000000000000
B0403193208101S11659562EA0118801218000000000000
B0403233208145S11659627EA0118901218000000000000
B0403273208201S11659630EA0119501227000000000000
B0403313208231S11659594EA0119901228000000000000
B0403353208231S11659544EA0119401218000000000000
B0403393208221S11659482EA0118201212000000000000
B0403433208210S11659410EA0117801205000000000000
B0403473208197S11659332EA0117801209000000000000
B0403513208182S11659261EA0119001220000000000000
B0403553208153S11659206EA0120701238000000000000
B0403593208108S11659228EA0122201245000000000000
B0404033208109S11659311EA0121101236000000000000
B0404073208160S11659380EA0120301229000000000000
B0404113208231S11659410EA0119901230000000000000
B0404153208291S11659391EA0120701240000000000000
B0404193208320S11659339EA0121101242000000000000
B0404233208325S11659278EA0121001243000000000000
B0404273208326S11659217EA0121401249000000000000
B0404313208320S11659154EA0122101258000000000000
B0404353208311S11659092EA0122801257000000000000
B0404393208298S11659024EA0122201251000000000000
B0404433208278S11658954EA0121401241000000000000
B0404473208256S11658880EA0119801223000000000000
B0404513208234S11658812EA0119901227000000000000
B0404553208210S11658745EA0118901210000000000000
B0404593208187S11658674EA0117201197000000000000
B0405033208166S11658604EA0116501189000000000000
B0405073208147S11658535EA0115901182000000000000
B0405113208127S11658464EA0114901175000000000000
B0405153208108S11658395EA0115201180000000000000
B0405193208088S11658329EA0115601182000000000000
B0405233208071S11658261EA0115501181000000000000
B0405273208053S11658193EA0115401180000000000000
B0405313208035S11658125EA0114901168000000000000
B0405353208018S11658053EA0114601175000000000000
B0405393208001S11657989EA0115801184000000000000
B0405433207986S11657924EA0115801181000000000000
B0405473207971S11657861EA0116401191000000000000
B0405513207957S11657801EA0117801204000000000000
B0405553207947S11657738EA0117501195000000000000
B0405593207937S11657670EA0116201185000000000000
B0406033207928S11657598EA0115801180000000000000
B0406073207914S11657524EA0115501180000000000000
B0406113207870S11657489EA0117101202000000000000
B0406153207824S11657534EA0119501228000000000000
B0406193207843S11657619EA0121101239000000000000
B0406233207911S11657655EA0121501249000000000000
B0406273207961S11657627EA0121901248000000000000
B0406313207956S11657582EA0121701250000000000000
B0406353207914S11657595EA0122401258000000000000
B0406393207909S11657672EA0122801264000000000000
B0406433207960S11657738EA0122801267000000000000
B0406473208022S11657731EA0123801272000000000000
B0406513208040S11657684EA0123201262000000000000
B0406553208022S11657631EA0121801252000000000000
B0406593207992S11657580EA0121501252000000000000
B0407033207957S11657532EA0121801255000000000000
B0407073207923S11657485EA0122101253000000000000
B0407113207891S11657433EA0121701249000000000000
B0407153207857S11657390EA0122201258000000000000
B0407193207823S11657356EA0122901261000000000000
B0407233207787S11657328EA0123101258000000000000
B0407273207744S11657311EA0121901240000000000000
B0407313207685S11657322EA0120201230000000000000
B0407353207624S11657343EA0120601236000000000000
B0407393207564S11657363EA0121401249000000000000
B0407433207515S11657412EA0122801262000000000000
B0407473207528S11657491EA0124301277000000000000
B0407513207584S11657503EA0125201288000000000000
B0407553207590S11657459EA0127001310000000000000
B0407593207544S11657471EA0128801324000000000000
B0408033207533S11657549EA0129001323000000000000
B0408073207589S11657594EA0129601341000000000000
B0408113207632S11657568EA0131401358000000000000
B0408153207610S11657532EA0133001375000000000000
B0408193207566S11657571EA0134701391000000000000
B0408233207568S11657653EA0135901406000000000000
B0408273207616S11657701EA0137501421000000000000
B0408313207664S11657681EA0138301429000000000000
B0408353207658S11657640EA0139901450000000000000
B0408393207614S11657657EA0141301462000000000000
B0408433207596S11657735EA0141901472000000000000
B0408473207633S11657798EA0143401487000000000000
B0408513207683S11657788EA0144401499000000000000
B0408553207683S11657746EA0145901518000000015000
B0408593207640S11657750EA0147001526000000015000
B0409033207612S11657819EA0148001536000000000000
B0409073207637S11657892EA0149201551000000000000
B0409113207692S11657910EA0150601563000000000000
B0409153207726S11657878EA0151201568000000000000
B0409193207710S11657841EA0152301577000000015000
B0409233207663S11657861EA0152701581000000015000
B0409273207648S11657945EA0153501596000000015000
B0409313207688S11658010EA0155201611000000015000
B0409353207742S11658011EA0155801611000000000000
B0409393207759S11657967EA0156501619000000000000
B0409433207723S11657944EA0156701621000000000000
B0409473207667S11657975EA0157201629000000000000
B0409513207641S11658053EA0158401640000000000000
B0409553207680S11658110EA0160001659000000000000
B0409593207731S11658101EA0159801653000000000000
B0410033207742S11658052EA0160001656000000000000
B0410073207707S11658014EA0160501665000000000000
B0410113207654S11658049EA0162201681000000000000
B0410153207644S11658128EA0163301692000000000000
B0410193207689S11658182EA0164001699000000000000
B0410233207739S11658169EA0164101701000000000000
B0410273207729S11658127EA0164401700000000000000
B0410313207675S11658138EA0164701707000000015000
B0410353207651S11658206EA0166201722000000015000
B0410393207688S11658271EA0166601726000000015000
B0410433207746S11658286EA0166601727000000015000
B0410473207807S11658273EA0166301722000000000000
B0410513207870S11658249EA0166001715000000000000
B0410553207918S11658204EA0165701713000000000000
B0410593207944S11658141EA0165201699000000000000
B0411033207947S11658066EA0163701688000000000000
B0411073207939S11657991EA0163401691000000000000
B0411113207928S11657919EA0164301698000000000000
B0411153207915S11657850EA0164501695000000000000
B0411193207897S11657783EA0163701678000000000000
B0411233207871S11657712EA0162501670000000000000
B0411273207845S11657645EA0162201670000000000000
B0411313207820S11657581EA0162301668000000000000
B0411353207794S11657520EA0162201665000000000000
B0411393207770S11657456EA0161101654000000000000
B0411433207746S11657390EA0159801641000000000000
B0411473207723S11657321EA0159101635000000000000
B0411513207698S11657256EA0158701632000000000000
B0411553207671S11657194EA0159001635000000000000
B0411593207642S11657134EA0159001634000000000000
B0412033207619S11657078EA0159801647000000000000
B0412073207596S11657029EA0160901650000000000000
B0412113207572S11656975EA0160101639000000000000
B0412153207566S11656916EA0159901641000000000000
B0412193207567S11656857EA0159901640000000000000
B0412233207563S11656800EA0159801638000000000000
B0412273207546S11656741EA0159101627000000000000
B0412313207492S11656711EA0158301622000000000000
B0412353207423S11656717EA0157501615000000000000
B0412393207351S11656741EA0156801610000000000000
B0412433207278S11656771EA0155701599000000000000
B0412473207200S11656804EA0154701590000000000000
B0412513207121S11656840EA0154201585000000000000
B0412553207043S11656878EA0153701578000000000000
B0412593206964S11656917EA0152901570000000000000
B0413033206884S11656958EA0152501563000000000000
B0413073206806S11657003EA0151701555000000000000
B0413113206728S11657049EA0151001549000000000000
B0413153206652S11657095EA0151001550000000000000
B0413193206580S11657142EA0151001549000000000000
B0413233206511S11657194EA0150601544000000000000
B0413273206445S11657247EA0150501544000000000000
B0413313206377S11657295EA0149601533000000000000
B0413353206307S11657341EA0148901524000000000000
B0413393206234S11657382EA0148101514000000000000
B0413433206160S11657423EA0147201509000000000000
B0413473206088S11657465EA0146801504000000000000
B0413513206020S11657507EA0147301509000000000000
B0413553205952S11657547EA0145901489000000000000
B0413593205882S11657586EA0144501478000000000000
B0414033205812S11657631EA0143601471000000000000
B0414073205748S11657679EA0143401469000000000000
B0414113205687S11657732EA0143601471000000000000
B0414153205630S11657798EA0144101474000000000000
B0414193205566S11657857EA0143601468000000000000
B0414233205497S11657904EA0143201469000000000000
B0414273205431S11657956EA0143401471000000000000
B0414313205366S11657998EA0143401466000000000000
B0414353205298S11658035EA0141601448000000000000
B0414393205226S11658069EA0140301436000000000000
B0414433205154S11658097EA0139701426000000000000
B0414473205083S11658125EA0138401410000000000000
B0414513205009S11658152EA0136901397000000000000
B0414553204936S11658179EA0135801383000000000000
B0414593204860S11658209EA0134401372000000000000
B0415033204788S11658239EA0133101356000000000000
B0415073204716S11658273EA0132501356000000000000
B0415113204650S11658308EA0132901355000000000000
B0415153204582S11658340EA0132201346000000000000
B0415193204518S11658375EA0131801349000000000000
B0415233204456S11658396EA0131701342000000000000
B0415273204394S11658429EA0130501329000000000000
B0415313204331S11658476EA0129601322000000000000
B0415353204266S11658525EA0129501323000000000000
B0415393204206S11658585EA0130001329000000000000
B0415433204152S11658656EA0130601338000000000000
B0415473204099S11658728EA0132001354000000000000
B0415513204060S11658808EA0133201363000000000000
B0415553204082S11658895EA0133601366000000000000
B0415593204144S11658907EA0133301370000000000000
B0416033204157S11658864EA0134901390000000000000
B0416073204128S11658837EA0136201400000000000000
B0416113204082S11658850EA0136701400000000000000
B0416153204036S11658903EA0135701388000000000000
B0416193203992S11658976EA0134401375000000000000
B0416233203945S11659058EA0133001363000000000000
B0416273203896S11659144EA0132201351000000000000
B0416313203845S11659232EA0131101343000000000000
B0416353203794S11659322EA0130301334000000000000
B0416393203744S11659414EA0129201321000000000000
B0416433203692S11659506EA0127801308000000000000
B0416473203645S11659595EA0128401316000000000000
B0416513203602S11659679EA0128901319000000000000
B0416553203560S11659761EA0128601314000000000000
B0416593203523S11659850EA0128001307000000000000
B0417033203484S11659938EA0127601300000000000000
B0417073203437S11700020EA0127201299000000000000
B0417113203391S11700098EA0127701310000000000000
B0417153203346S11700167EA0129101323000000000000
B0417193203300S11700228EA0130101330000000000000
B0417233203256S11700292EA0130901340000000000000
B0417273203252S11700380EA0131801345000000000000
B0417313203313S11700429EA0131601344000000000000
B0417353203367S11700406EA0131801345000000000000
B0417393203360S11700361EA0131401343000000000000
B0417433203308S11700363EA0131501344000000000000
B0417473203254S11700415EA0131301347000000000000
B0417513203200S11700474EA0131901350000000000000
B0417553203144S11700537EA0131001336000000000000
B0417593203083S11700608EA0129601324000000000000
B0418033203018S11700674EA0128401309000000000000
B0418073202949S11700739EA0127501303000000000000
B0418113202879S11700797EA0127001297000000000000
B0418153202809S11700853EA0126501292000000000000
B0418193202736S11700910EA0126001287000000000000
B0418233202662S11700966EA0125701285000000000000
B0418273202591S11701018EA0125901284000000000000
B0418313202518S11701069EA0124901272000000000000
B0418353202446S11701120EA0124701273000000000000
B0418393202381S11701177EA0124601273000000000000
B0418433202318S11701237EA0125101282000000000000
B0418473202259S11701293EA0126501292000000000000
B0418513202202S11701349EA0126101284000000000000
B0418553202139S11701406EA0125701283000000000000
B0418593202104S11701492EA0127601302000000000000
B0419033202143S11701570EA0128901315000000000000
B0419073202204S11701579EA0128901318000000000000
B0419113202224S11701541EA0129501324000000000000
B0419153202198S11701506EA0130001328000000000000
B0419193202162S11701471EA0130301333000000000000
B0419233202108S11701463EA0130801335000000000000
B0419273202061S11701525EA0130601336000000000000
B0419313202082S11701614EA0131101341000000000000
B0419353202146S11701644EA0131501349000000000000
B0419393202180S11701606EA0131601346000000000000
B0419433202145S11701573EA0132101353000000000000
B0419473202084S11701590EA0131301345000000000000
B0419513202016S11701624EA0130301339000000000000
B0419553201948S11701662EA0129401321000000000000
B0419593201874S11701705EA0127501304000000000000
B0420033201796S11701752EA0125701285000000000000
B0420073201712S11701802EA0123501264000000000000
B0420113201630S11701857EA0123101268000000000000
B0420153201552S11701911EA0123801276000000000000
B0420193201478S11701971EA0124801287000000000000
B0420233201408S11702027EA0126001292000000000000
B0420273201337S11702082EA0124801278000000000000
B0420313201259S11702134EA0123201263000000000000
B0420353201180S11702183EA0122501262000000000000
B0420393201103S11702230EA0122501256000000000000
B0420433201025S11702278EA0121501244000000000000
B0420473200946S11702325EA0120401234000000000000
B0420513200865S11702368EA0119801229000000000000
B0420553200789S11702408EA0120201233000000000000
B0420593200716S11702446EA0120801239000000000000
B0421033200647S11702478EA0121401245000000000000
B0421073200579S11702503EA0122101254000000000000
B0421113200517S11702512EA0122801259000000000000
B0421153200456S11702519EA0123301265000000000000
B0421193200395S11702529EA0123901268000000000000
B0421233200334S11702547EA0124601278000000000000
B0421273200271S11702567EA0125101281000000000000
B0421313200209S11702594EA0125501283000000000000
B0421353200153S11702649EA0124801271000000000000
B0421393200085S11702690EA0122401250000000000000
B0421433200009S11702720EA0121901254000000000000
B0421473159939S11702751EA0123901276000000000000
B0421513159914S11702838EA0127101308000000000000
B0421553159970S11702907EA0129201329000000000000
B0421593200024S11702897EA0130501337000000000000
B0422033200023S11702858EA0131201346000000000000
B0422073159980S11702879EA0132501357000000000000
B0422113159974S11702968EA0133101364000000000000
B0422153200031S11703037EA0134601383000000000000
B0422193200091S11703040EA0135801389000000000000
B0422233200105S11702998EA0136301396000000000000
B0422273200069S11702981EA0137401411000000000000
B0422313200031S11703035EA0138501421000000000000
B0422353200045S11703123EA0139301427000000000000
B0422393200110S11703171EA0140401442000000000000
B0422433200166S11703161EA0141301449000000000000
B0422473200176S11703119EA0142301462000000000000
B0422513200136S11703118EA0143501474000000000000
B0422553200109S11703184EA0143801475000000000000
B0422593200132S11703270EA0144301485000000000000
B0423033200189S11703321EA0145601496000000000000
B0423073200245S11703312EA0146001499000000000000
B0423113200253S11703269EA0146601510000000000000
B0423153200221S11703249EA0147901521000000000000
B0423193200174S11703265EA0148201521000000000000
B0423233200135S11703327EA0148501524000000000000
B0423273200132S11703421EA0149001532000000000000
B0423313200176S11703507EA0149701537000000000000
B0423353200249S11703535EA0150301547000000000000
B0423393200284S11703497EA0152001564000000000000
B0423433200271S11703464EA0152801571000000000000
B0423473200225S11703464EA0152701569000000000000
B0423513200162S11703488EA0151001544000000000000
B0423553200082S11703517EA0149301538000000000000
B0423593159997S11703543EA0149501539000000000000
B0424033159905S11703570EA0147601516000000000000
B0424073159811S11703596EA0146901517000000000000
B0424113159712S11703620EA0144501479000000000000
B0424153159606S11703642EA0141801460000000000000
B0424193159498S11703666EA0140801452000000000000
B0424233159393S11703687EA0140101445000000000000
B0424273159294S11703703EA0140401449000000000000
B0424313159200S11703717EA0140501452000000000000
B0424353159108S11703733EA0140401445000000000000
B0424393159013S11703746EA0139301435000000000000
B0424433158919S11703756EA0138501428000000000000
B0424473158827S11703764EA0138001419000000000000
B0424513158735S11703769EA0136801408000000000000
B0424553158642S11703773EA0135701393000000000000
B0424593158550S11703777EA0134501380000000000000
B0425033158457S11703778EA0132601360000000000000
B0425073158364S11703780EA0130901345000000000000
B0425113158277S11703785EA0132301366000000000000
B0425153158198S11703787EA0133201368000000000000
B0425193158119S11703793EA0133401378000000000000
B0425233158038S11703796EA0133401364000000000000
B0425273157955S11703803EA0132601363000000000000
B0425313157869S11703812EA0132201362000000000000
B0425353157782S11703822EA0132901367000000000000
B0425393157692S11703829EA0132201356000000000000
B0425433157600S11703839EA0130901343000000000000
B0425473157508S11703855EA0129401330000000000000
B0425513157417S11703872EA0129101325000000000000
B0425553157323S11703891EA0127501306000000000000
B0425593157232S11703910EA0126001291000000000000
B0426033157140S11703928EA0124401279000000000000
B0426073157051S11703949EA0124301278000000000000
B0426113156963S11703969EA0123401267000000000000
B0426153156877S11703989EA0122801262000000000000
B0426193156794S11704011EA0122301255000000000000
B0426233156715S11704033EA0121501244000000000000
B0426273156638S11704058EA0121001238000000000000
B0426313156564S11704077EA0121301238000000000000
B0426353156496S11704098EA0121201241000000000000
B0426393156431S11704118EA0120901235000000000000
B0426433156362S11704128EA0120001228000000000000
B0426473156293S11704125EA0119501222000000000000
B0426513156224S11704114EA0118301207000000000000
B0426553156156S11704098EA0118101213000000000000
B0426593156092S11704084EA0118401211000000000000
B0427033156027S11704069EA0118001208000000000000
B0427073155963S11704056EA0117901208000000000000
B0427113155898S11704043EA0117601203000000000000
B0427153155836S11704030EA0118301211000000000000
B0427193155775S11704015EA0118501219000000000000
B0427233155723S11704002EA0120001226000000000000
B0427273155671S11703988EA0119701217000000000000
B0427313155611S11703980EA0118401200000000000000
B0427353155543S11703973EA0116301179000000000000
B0427393155469S11703968EA0115001175000000000000
B0427433155395S11703962EA0114501164000000000000
B0427473155314S11703955EA0112501144000000000000
B0427513155231S11703954EA0111201136000000000000
B0427553155149S11703952EA0110101120000000000000
B0427593155066S11703956EA0109101115000000000000
B0428033154984S11703971EA0108101099000000000000
B0428073154900S11703986EA0106601093000000000000
B0428113154818S11704008EA0106801097000000000000
B0428153154740S11704027EA0107701109000000000000
B0428193154670S11704023EA0109201124000000000000
B0428233154607S11704047EA0110101134000000000000
B0428273154563S11704120EA0110901138000000000000
B0428313154512S11704189EA0109801122000000000000
B0428353154447S11704238EA0108901119000000000000
B0428393154382S11704276EA0108501111000000000000
B0428433154315S11704300EA0106501089000000000000
B0428473154243S11704313EA0104501068000000000000
B0428513154170S11704315EA0103201058000000000000
B0428553154098S11704316EA0102401047000000000000
B0428593154022S11704318EA0100701028000000000000
B0429033153942S11704320EA0099201014000000000000
B0429073153861S11704326EA0097700997000000000000
B0429113153777S11704333EA0097701007000000000000
B0429153153700S11704344EA0098001006000000000000
B0429193153632S11704331EA0097801002000000000000
B0429233153567S11704318EA0096700988000000000000
B0429273153496S11704314EA0095900986000000000000
B0429313153426S11704326EA0097001000000000000000
B0429353153359S11704341EA0097701002000000000000
B0429393153293S11704363EA0097000993000000000000
B0429433153228S11704388EA0096100982000000000000
B0429473153158S11704415EA0094600966000000000000
B0429513153085S11704444EA0093000952000000000000
B0429553153008S11704472EA0091600939000000000000
B0429593152933S11704504EA0090800933000000000000
B0430033152859S11704535EA0090700931000000000000
B0430073152786S11704569EA0090700930000000000000
B0430113152717S11704602EA0090800932000000000000
B0430153152651S11704640EA0091200938000000000000
B0430193152590S11704675EA0092000946000000000000
B0430233152532S11704713EA0093100957000000000000
B0430273152475S11704752EA0094000963000000000000
B0430313152435S11704823EA0094700973000000000000
B0430353152477S11704900EA0094900978000000000000
B0430393152538S11704896EA0094700975000000000000
B0430433152543S11704851EA0094700976000000000000
B0430473152514S11704812EA0094800979000000000000
B0430513152458S11704804EA0095500987000000000000
B0430553152418S11704881EA0096400997000000000000
B0430593152452S11704969EA0096800997000000000000
B0431033152517S11704981EA0096600999000000000000
B0431073152548S11704938EA0096701001000000000000
B0431113152525S11704899EA0098001014000000000000
B0431153152479S11704957EA0099201026000000000000
B0431193152500S11705046EA0099601030000000000000
B0431233152558S11705069EA0100301038000000000000
B0431273152588S11705035EA0100601038000000000000
B0431313152582S11704989EA0100201036000000000000
B0431353152534S11704986EA0100601038000000000000
B0431393152510S11705070EA0100401035000000000000
B0431433152545S11705163EA0099101025000000000000
B0431473152617S11705184EA0099401035000000000000
B0431513152666S11705160EA0100601047000000000000
B0431553152648S11705133EA0102101062000000000000
B0431593152621S11705199EA0103401070000000015000
B0432033152665S11705272EA0102901059000000015000
B0432073152725S11705272EA0103101064000000000000
B0432113152746S11705230EA0103601063000000000000
B0432153152718S11705185EA0103101061000000000000
B0432193152655S11705185EA0103101057000000000000
B0432233152583S11705225EA0102001047000000000000
B0432273152513S11705282EA0100901041000000000000
B0432313152443S11705346EA0099901029000000000000
B0432353152370S11705408EA0098401013000000000000
B0432393152295S11705470EA0097200998000000000000
B0432433152218S11705532EA0096000984000000000000
B0432473152142S11705596EA0094700975000000000000
B0432513152068S11705657EA0095200985000000000000
B0432553152001S11705714EA0096701000000000000000
B0432593151938S11705771EA0097801011000000000000
B0433033151882S11705826EA0098801015000000000000
B0433073151824S11705847EA0098801011000000000000
B0433113151795S11705813EA0098901016000000000000
B0433153151833S11705778EA0099701023000000000000
B0433193151902S11705804EA0100601035000000000000
B0433233151955S11705879EA0100901037000000000000
B0433273151984S11705974EA0101201038000000000000
B0433313151999S11706074EA0100901039000000000000
B0433353151998S11706175EA0101201040000000000000
B0433393151983S11706273EA0101201037000000000000
B0433433151960S11706368EA0099901018000000000000
B0433473151919S11706459EA0097901000000000000000
B0433513151855S11706529EA0097300997000000000000
B0433553151788S11706582EA0096200985000000000000
B0433593151719S11706625EA0095000974000000000000
B0434033151650S11706666EA0094000958000000000000
B0434073151580S11706707EA0092700946000000000000
B0434113151509S11706747EA0091700936000000000000
B0434153151440S11706790EA0091300937000000000000
B0434193151372S11706833EA0092000944000000000000
B0434233151305S11706874EA0092400947000000000000
B0434273151240S11706901EA0092400948000000000000
B0434313151178S11706911EA0092700947000000000000
B0434353151139S11706876EA0093400963000000000000
B0434393151121S11706832EA0094800970000000000000
B0434433151102S11706785EA0094100957000000000000
B0434473151082S11706731EA0092500941000000000000
B0434513151056S11706673EA0090400922000000000000
B0434553151023S11706616EA0089100909000000000000
B0434593150985S11706560EA0087800897000000000000
B0435033150945S11706502EA0086500884000000000000
B0435073150896S11706452EA0085700875000000000000
B0435113150840S11706407EA0084200861000000000000
B0435153150787S11706360EA0083400851000000000000
B0435193150736S11706311EA0082600843000000000000
B0435233150688S11706259EA0082000839000000000000
B0435273150646S11706209EA0082200839000000000000
B0435313150606S11706160EA0082200842000000000000
B0435353150563S11706118EA0083000855000000000000
B0435393150529S11706087EA0084800866000000000000
B0435433150495S11706055EA0084300856000000000000
B0435473150462S11706019EA0084500866000000000000
B0435513150430S11705992EA0085900877000000000000
B0435553150403S11705965EA0085700871000000000000
B0435593150384S11705928EA0085400868000000000000
B0436033150364S11705888EA0084300852000000000000
B0436073150335S11705850EA0082800839000000000000
B0436113150283S11705843EA0082800846000000000000
B0436153150243S11705905EA0084800866000000000000
B0436193150246S11705999EA0085300865000000000000
B0436233150300S11706077EA0084100854000000000000
B0436273150371S11706095EA0083700852000000000000
B0436313150412S11706069EA0083100847000000000000
B0436353150425S11706026EA0082100835000000000000
B0436393150421S11705980EA0080700819000000000000
B0436433150389S11705947EA0079400805000000000000
B0436473150343S11705919EA0078400800000000000000
B0436513150294S11705899EA0078100795000000000000
B0436553150242S11705876EA0076300770000000000000
B0436593150183S11705852EA0074400760000000000000
B0437033150126S11705824EA0073700751000000000000
B0437073150069S11705796EA0072100734000000000000
B0437113150010S11705762EA0071000724000000000000
B0437153149955S11705727EA0070100714000000000000
B0437193149900S11705689EA0069200704000000000000
B0437233149844S11705650EA0068700696000000000000
B0437273149788S11705614EA0067700690000000000000
B0437313149734S11705581EA0067100680000000000000
B0437353149679S11705550EA0066100669000000000000
B0437393149627S11705520EA0065600672000000000000
B0437433149580S11705496EA0066000668000000000000
B0437473149533S11705470EA0066500682000000000000
B0437513149489S11705447EA0066600676000000000000
B0437553149445S11705429EA0066200671000000000000
B0437593149397S11705414EA0065400660000000000000
B0438033149345S11705398EA0064400650000000000000
B0438073149292S11705381EA0063300639000000000000
B0438113149237S11705358EA0061700621000000000000
B0438153149182S11705332EA0060900616000000000000
B0438193149130S11705312EA0060400612000000000000
B0438233149081S11705297EA0060500612000000000000
B0438273149035S11705286EA0060700617000000000000
B0438313148990S11705278EA0060800613000000000000
B0438353148943S11705262EA0060200611000000000000
B0438393148895S11705262EA0061200621000000000000
B0438433148877S11705343EA0061900629000000000000
B0438473148930S11705411EA0062500640000000000000
B0438513148978S11705393EA0062700640000000000000
B0438553148960S11705367EA0062500637000000000000
B0438593148920S11705414EA0061800627000000000000
B0439033148933S11705519EA0061600628000000000000
B0439073148998S11705567EA0062500644000000000000
B0439113149032S11705535EA0062900644000000000000
B0439153148990S11705527EA0062500641000000000000
B0439193148961S11705610EA0063300652000000000000
B0439233148999S11705692EA0064400669000000000000
B0439273149061S11705693EA0065200673000000000000
B0439313149061S11705654EA0065200675000000000000
B0439353149015S11705679EA0065900680000000000000
B0439393149003S11705769EA0066000684000000000000
B0439433149059S11705826EA0067200702000000000000
B0439473149094S11705798EA0068600711000000000000
B0439513149060S11705791EA0068900711000000000000
B0439553149047S11705876EA0069000713000000000000
B0439593149106S11705932EA0069900730000000015000
B0440033149133S11705902EA0071800742000000015000
B0440073149097S11705900EA0072100741000000015000
B0440113149071S11705974EA0072500745000000015000
B0440153149106S11706053EA0073100758000000015000
B0440193149158S11706045EA0075000776000000015000
B0440233149141S11706014EA0075300775000000015000
B0440273149100S11706069EA0076200786000000015000
B0440313149108S11706157EA0076800794000000015000
B0440353149162S11706211EA0077800807000000015000
B0440393149208S11706194EA0078700815000000015000
B0440433149188S11706166EA0079700825000000015000
B0440473149145S11706205EA0080700830000000015000
B0440513149129S11706291EA0080800830000000000000
B0440553149163S11706376EA0081300840000000000000
B0440593149219S11706376EA0082100846000000015000
B0441033149190S11706343EA0083000858000000015000
B0441073149143S11706395EA0084800875000000015000
B0441113149147S11706484EA0085400881000000015000
B0441153149208S11706525EA0085700892000000015000
B0441193149241S11706489EA0086700901000000015000
B0441233149198S11706473EA0088500919000000015000
B0441273149160S11706541EA0090000927000000015000
B0441313149178S11706632EA0089700923000000000000
B0441353149241S11706681EA0090200937000000015000
B0441393149288S11706658EA0091600948000000015000
B0441433149267S11706621EA0092700960000000000000
B0441473149215S11706653EA0093700965000000000000
B0441513149202S11706745EA0093300960000000000000
B0441553149251S11706818EA0093800972000000015000
B0441593149316S11706837EA0094800979000000015000
B0442033149346S11706799EA0095200984000000000000
B0442073149328S11706749EA0095500989000000000000
B0442113149277S11706747EA0096300994000000000000
B0442153149247S11706824EA0095700978000000000000
B0442193149282S11706911EA0093900968000000015000
B0442233149350S11706936EA0094400975000000015000
B0442273149415S11706936EA0095000979000000000000
B0442313149468S11706913EA0096000992000000000000
B0442353149466S11706874EA0097000993000000000000
B0442393149415S11706896EA0095500975000000000000
B0442433149389S11706983EA0093700957000000000000
B0442473149386S11707087EA0092500955000000000000
B0442513149396S11707189EA0093400963000000000000
B0442553149415S11707292EA0094500977000000000000
B0442593149446S11707384EA0096000992000000000000
B0443033149506S11707413EA0097001008000000000000
B0443073149523S11707373EA0097901019000000000000
B0443113149479S11707370EA0098901031000000000000
B0443153149437S11707433EA0100701046000000000000
B0443193149446S11707526EA0101501052000000000000
B0443233149506S11707577EA0102201061000000000000
B0443273149550S11707552EA0103101074000000000000
B0443313149532S11707521EA0104301083000000000000
B0443353149485S11707556EA0105501094000000000000
B0443393149464S11707641EA0106601100000000000000
B0443433149496S11707730EA0107001106000000000000
B0443473149555S11707769EA0107501109000000000000
B0443513149600S11707741EA0107301108000000000000
B0443553149594S11707698EA0108201119000000000000
B0443593149544S11707708EA0108801123000000000000
B0444033149520S11707797EA0110101136000000000000
B0444073149559S11707878EA0110901149000000000000
B0444113149623S11707903EA0111601154000000000000
B0444153149654S11707869EA0112101163000000000000
B0444193149635S11707837EA0112601165000000000000
B0444233149587S11707854EA0113201170000000000000
B0444273149550S11707924EA0114401179000000000000
B0444313149548S11708019EA0114801185000000000000
B0444353149576S11708110EA0115701197000000000000
B0444393149635S11708166EA0115901191000000000000
B0444433149692S11708161EA0115601192000000000000
B0444473149709S11708120EA0115701196000000000000
B0444513149713S11708075EA0115901197000000000000
B0444553149695S11708037EA0115801194000000000000
B0444593149644S11708053EA0116001196000000000000
B0445033149601S11708129EA0115801190000000000000
B0445073149562S11708220EA0115101183000000000000
B0445113149522S11708320EA0113701164000000000000
B0445153149481S11708426EA0112101151000000000000
B0445193149429S11708526EA0109601119000000000000
B0445233149351S11708596EA0107301106000000000000
B0445273149267S11708638EA0106701101000000000000
B0445313149185S11708664EA0106601097000000000000
B0445353149103S11708683EA0105901087000000000000
B0445393149021S11708700EA0105101080000000000000
B0445433148939S11708717EA0104101067000000000000
B0445473148857S11708731EA0103401065000000000000
B0445513148779S11708746EA0104401079000000000000
B0445553148708S11708764EA0104801073000000000000
B0445593148634S11708782EA0103901063000000000000
B0446033148560S11708801EA0103201057000000000000
B0446073148484S11708821EA0102901057000000000000
B0446113148411S11708842EA0103101053000000000000
B0446153148339S11708866EA0102201040000000000000
B0446193148265S11708894EA0101201032000000000000
B0446233148190S11708925EA0100001020000000000000
B0446273148116S11708956EA0099201012000000000000
B0446313148044S11708987EA0098100998000000000000
B0446353147969S11709021EA0097200995000000000000
B0446393147902S11709055EA0097801001000000000000
B0446433147839S11709090EA0099101012000000000000
B0446473147789S11709084EA0100201030000000000000
B0446513147808S11709045EA0102601057000000000000
B0446553147871S11709064EA0104301068000000000000
B0446593147919S11709132EA0104501066000000000000
B0447033147936S11709221EA0104301066000000000000
B0447073147927S11709308EA0104801073000000000000
B0447113147908S11709390EA0105401082000000000000
B0447153147880S11709467EA0106101089000000000000
B0447193147836S11709492EA0107801109000000000000
B0447233147841S11709464EA0109501124000000000000
B0447273147902S11709472EA0108901114000000000000
B0447313147958S11709549EA0109801132000000000000
B0447353147966S11709641EA0111501144000000000000
B0447393147936S11709719EA0111601143000000000000
B0447433147885S11709743EA0111701149000000000000
B0447473147860S11709714EA0113201169000000000000
B0447513147888S11709682EA0114501175000000000000
B0447553147950S11709680EA0114001169000000000000
B0447593148014S11709736EA0114701186000000000000
B0448033148053S11709821EA0116401201000000000000
B0448073148062S11709913EA0116901203000000000000
B0448113148029S11709984EA0117101204000000000000
B0448153147984S11709996EA0117401210000000000000
B0448193147976S11709960EA0118701225000000000000
B0448233148016S11709935EA0120001239000000000000
B0448273148079S11709962EA0120901245000000000000
B0448313148125S11710040EA0121401255000000000000
B0448353148128S11710133EA0121901259000000000000
B0448393148090S11710194EA0122101257000000000000
B0448433148047S11710196EA0122001258000000000000
B0448473148021S11710164EA0122601264000000000000
B0448513148034S11710126EA0123401274000000000000
B0448553148086S11710121EA0123801274000000000000
B0448593148145S11710176EA0123901278000000000000
B0449033148172S11710269EA0124601286000000000000
B0449073148185S11710367EA0125501293000000000000
B0449113148171S11710462EA0125101288000000000000
B0449153148125S11710528EA0125201290000000000000
B0449193148067S11710560EA0125301291000000000000
B0449233148007S11710576EA0125501294000000000000
B0449273147945S11710586EA0125801291000000000000
B0449313147877S11710593EA0124801278000000000000
B0449353147804S11710599EA0123401264000000000000
B0449393147728S11710603EA0122101249000000000000
B0449433147647S11710607EA0120601234000000000000
B0449473147566S11710611EA0119301224000000000000
B0449513147485S11710614EA0118301211000000000000
B0449553147405S11710616EA0117301200000000000000
B0449593147326S11710618EA0116501196000000000000
B0450033147249S11710620EA0116401195000000000000
B0450073147176S11710621EA0116201190000000000000
B0450113147104S11710621EA0115801188000000000000
B0450153147033S11710620EA0115701186000000000000
B0450193146966S11710621EA0116201193000000000000
B0450233146900S11710623EA0115401178000000000000
B0450273146829S11710621EA0113501150000000000000
B0450313146758S11710619EA0111801142000000000000
B0450353146689S11710614EA0111501140000000000000
B0450393146623S11710607EA0111301135000000000000
B0450433146558S11710607EA0110501125000000000000
B0450473146491S11710606EA0108601105000000000000
B0450513146421S11710598EA0106501084000000000000
B0450553146352S11710580EA0104901072000000000000
B0450593146287S11710558EA0104201064000000000000
B0451033146226S11710533EA0103201051000000000000
B0451073146170S11710502EA0102801053000000000000
B0451113146123S11710468EA0103401059000000000000
B0451153146083S11710432EA0103301056000000000000
B0451193146045S11710393EA0102601045000000000000
B0451233146009S11710355EA0102201044000000000000
B0451273145977S11710315EA0102001039000000000000
B0451313145943S11710272EA0101601038000000000000
B0451353145914S11710228EA0101801044000000000000
B0451393145895S11710187EA0102801056000000000000
B0451433145878S11710150EA0103601059000000000000
B0451473145844S11710131EA0104201069000000000000
B0451513145814S11710202EA0105501078000000000000
B0451553145860S11710294EA0105501078000000000000
B0451593145934S11710319EA0106001089000000000000
B0452033145953S11710289EA0106201087000000000000
B0452073145914S11710300EA0105801086000000000000
B0452113145897S11710387EA0106801098000000000000
B0452153145943S11710467EA0107801106000000000000
B0452193146006S11710481EA0107501098000000000000
B0452233146031S11710449EA0107101096000000000000
B0452273146003S11710436EA0107601105000000000000
B0452313145960S11710471EA0108801116000000000000
B0452353145941S11710555EA0109401119000000000000
B0452393145984S11710642EA0109201117000000000000
B0452433146055S11710667EA0109601128000000000000
B0452473146092S11710645EA0110101133000000000000
B0452513146087S11710618EA0110701142000000000000
B0452553146048S11710638EA0111701150000000000000
B0452593146030S11710720EA0112101149000000000000
B0453033146068S11710809EA0111901151000000000000
B0453073146138S11710846EA0112201157000000000000
B0453113146187S11710828EA0112501160000000000000
B0453153146186S11710798EA0112501158000000000000
B0453193146148S11710787EA0111901152000000000000
B0453233146100S11710802EA0112501159000000000000
B0453273146081S11710880EA0113501165000000000000
B0453313146127S11710961EA0112801153000000000000
B0453353146194S11710961EA0112801164000000000000
B0453393146218S11710926EA0114001173000000000000
B0453433146201S11710900EA0114001172000000000000
B0453473146160S11710907EA0113701170000000000000
B0453513146127S11710975EA0114601176000000000000
B0453553146152S11711070EA0114701176000000000000
B0453593146218S11711106EA0114801178000000000000
B0454033146259S11711082EA0114801179000000000000
B0454073146270S11711041EA0113701170000000000000
B0454113146273S11710998EA0113301164000000000000
B0454153146270S11710952EA0112801159000000000000
B0454193146265S11710901EA0112501153000000000000
B0454233146257S11710848EA0112201156000000000000
B0454273146251S11710798EA0113301170000000000000
B0454313146242S11710751EA0114301174000000000000
B0454353146205S11710740EA0115101188000000000000
B0454393146191S11710823EA0116901200000000000000
B0454433146250S11710881EA0116901205000000000000
B0454473146318S11710872EA0116301204000000000000
B0454513146357S11710831EA0116701207000000000000
B0454553146343S11710800EA0116901204000000000000
B0454593146290S11710806EA0114401167000000000000
B0455033146213S11710832EA0112001156000000000000
B0455073146135S11710858EA0112101158000000000000
B0455113146057S11710879EA0112801164000000000000
B0455153145991S11710866EA0114201183000000000000
B0455193145927S11710853EA0115201183000000000000
B0455233145854S11710849EA0113801166000000000000
B0455273145770S11710855EA0112401152000000000000
B0455313145678S11710889EA0111101136000000000000
B0455353145585S11710941EA0109601115000000000000
B0455393145490S11711002EA0107401101000000000000
B0455433145401S11711069EA0107301102000000000000
B0455473145314S11711135EA0106401089000000000000
B0455513145225S11711199EA0105201081000000000000
B0455553145142S11711261EA0105301083000000000000
B0455593145065S11711325EA0105401081000000000000
B0456033144991S11711388EA0105101076000000000000
B0456073144920S11711453EA0105101081000000000000
B0456113144853S11711520EA0105301077000000000000
B0456153144786S11711586EA0104401067000000000000
B0456193144719S11711651EA0104101065000000000000
B0456233144653S11711713EA0103401057000000000000
B0456273144583S11711773EA0102201045000000000000
B0456313144513S11711829EA0102301052000000000000
B0456353144446S11711881EA0102801053000000000000
B0456393144380S11711932EA0103101058000000000000
B0456433144313S11711977EA0102201039000000000000
B0456473144240S11712020EA0100601026000000000000
B0456513144170S11712058EA0100701034000000000000
B0456553144101S11712100EA0100201023000000000000
B0456593144032S11712142EA0099901023000000000000
B0457033143963S11712180EA0099901023000000000000
B0457073143894S11712215EA0099801022000000000000
B0457113143825S11712253EA0099601018000000000000
B0457153143754S11712292EA0098701009000000000000
B0457193143683S11712323EA0098201004000000000000
B0457233143614S11712348EA0098001002000000000000
B0457273143548S11712363EA0097801003000000000000
B0457313143486S11712375EA0097300990000000000000
B0457353143419S11712386EA0095700974000000000000
B0457393143349S11712395EA0094300961000000000000
B0457433143279S11712404EA0093300951000000000000
B0457473143208S11712413EA0092100939000000000000
B0457513143135S11712423EA0091000926000000000000
B0457553143063S11712436EA0090100916000000000000
B0457593142993S11712451EA0089100906000000000000
B0458033142928S11712465EA0089700922000000000000
B0458073142868S11712483EA0090800926000000000000
B0458113142808S11712512EA0091500935000000000000
B0458153142749S11712543EA0091900935000000000000
B0458193142689S11712571EA0091300926000000000000
B0458233142630S11712595EA0090300917000000000000
B0458273142571S11712613EA0088900898000000000000
B0458313142508S11712622EA0087300884000000000000
B0458353142444S11712629EA0085700868000000000000
B0458393142379S11712630EA0084200853000000000000
B0458433142316S11712629EA0083200844000000000000
B0458473142253S11712625EA0082300835000000000000
B0458513142195S11712621EA0081600829000000000000
B0458553142139S11712620EA0081600829000000000000
B0458593142091S11712614EA0081800830000000000000
B0459033142051S11712599EA0081300826000000000000
B0459073142017S11712570EA0080900819000000000000
B0459113141982S11712536EA0079300802000000000000
B0459153141950S11712499EA0078500804000000000000
B0459193141926S11712461EA0078700803000000000000
B0459233141904S11712422EA0077800792000000000000
B0459273141884S11712382EA0077800795000000000000
B0459313141866S11712340EA0078300799000000000000
B0459353141852S11712297EA0078600805000000000000
B0459393141841S11712253EA0079100806000000000000
B0459433141827S11712213EA0080100821000000000000
B0459473141807S11712179EA0081600835000000000000
B0459513141763S11712205EA0082700842000000000000
B0459553141774S11712313EA0083100845000000000000
B0459593141845S11712365EA0084500859000000000000
B0500033141884S11712336EA0085500870000000000000
B0500073141856S11712314EA0086800884000000000000
B0500113141822S11712375EA0088300899000000000000
B0500153141853S11712470EA0089500908000000000000
B0500193141921S11712505EA0090300921000000000000
B0500233141947S11712475EA0092000938000000000000
B0500273141917S11712465EA0093200954000000000000
B0500313141879S11712514EA0094500969000000000000
B0500353141883S11712608EA0096000982000000000000
B0500393141941S11712677EA0096400990000000000000
B0500433142000S11712674EA0098001007000000000000
B0500473142001S11712647EA0099701026000000000000
B0500513141961S11712660EA0100701032000000000000
B0500553141935S11712739EA0101101031000000000000
B0500593141975S11712835EA0101101041000000000000
B0501033142039S11712854EA0103901068000000000000
B0501073142061S11712828EA0105601086000000000000
B0501113142034S11712818EA0106501095000000000000
B0501153141996S11712882EA0107301100000000000000
B0501193142021S11712984EA0107201101000000000000
B0501233142092S11713029EA0108601125000000000000
B0501273142132S11713008EA0110601141000000000000
B0501313142106S11712999EA0111601147000000000000
B0501353142077S11713078EA0112701167000000000000
B0501393142106S11713169EA0115101186000000000000
B0501433142173S11713206EA0116001195000000000000
B0501473142216S11713184EA0117101206000000000000
B0501513142213S11713153EA0118001213000000000000
B0501553142177S11713149EA0117901212000000000000
B0501593142130S11713194EA0119101231000000000000
B0502033142131S11713286EA0120901241000000000000
B0502073142190S11713362EA0121301248000000000000
B0502113142251S11713370EA0122901265000000000000
B0502153142262S11713344EA0123301267000000000000
B0502193142229S11713335EA0123501273000000000000
B0502233142188S11713388EA0124801291000000000000
B0502273142203S11713483EA0126001295000000000000
B0502313142272S11713541EA0126501307000000000000
B0502353142326S11713539EA0128301322000000000000
B0502393142338S11713509EA0128601320000000000000
B0502433142304S11713501EA0128801328000000000000
B0502473142265S11713553EA0130401345000000000000
B0502513142264S11713645EA0131401350000000000000
B0502553142317S11713726EA0131501352000000000000
B0502593142383S11713751EA0133001371000000000000
B0503033142420S11713730EA0134001376000000000000
B0503073142412S11713700EA0133701374000000000000
B0503113142383S11713669EA0132801367000000000000
B0503153142348S11713631EA0132101362000000000000
B0503193142312S11713589EA0132701365000000000000
B0503233142273S11713543EA0131101349000000000000
B0503273142226S11713493EA0130401347000000000000
B0503313142179S11713448EA0130401341000000000000
B0503353142136S11713401EA0130401352000000000000
B0503393142096S11713355EA0130601342000000000000
B0503433142054S11713305EA0130301343000000000000
B0503473142014S11713253EA0130901346000000000000
B0503513141975S11713197EA0130301345000000000000
B0503553141939S11713151EA0132401372000000000000
B0503593141906S11713119EA0133801380000000000000
B0504033141875S11713082EA0133101368000000000000
B0504073141843S11713039EA0131001344000000000000
B0504113141804S11712985EA0127601310000000000000
B0504153141759S11712920EA0125101289000000000000
B0504193141706S11712860EA0124301285000000000000
B0504233141649S11712811EA0124201276000000000000
B0504273141586S11712761EA0122401250000000000000
B0504313141515S11712717EA0121101247000000000000
B0504353141441S11712678EA0120801243000000000000
B0504393141368S11712644EA0120701243000000000000
B0504433141290S11712620EA0121001243000000000000
B0504473141211S11712595EA0119801229000000000000
B0504513141130S11712569EA0118801219000000000000
B0504553141053S11712542EA0118801223000000000000
B0504593140981S11712516EA0119201229000000000000
B0505033140916S11712493EA0120201231000000000000
B0505073140848S11712477EA0119101218000000000000
B0505113140775S11712465EA0117601202000000000000
B0505153140693S11712461EA0115501179000000000000
B0505193140610S11712462EA0114401180000000000000
B0505233140537S11712466EA0116001192000000000000
B0505273140474S11712471EA0116301190000000000000
B0505313140409S11712479EA0114801173000000000000
B0505353140337S11712488EA0113501163000000000000
B0505393140266S11712500EA0113401165000000000000
B0505433140195S11712514EA0113201155000000000000
B0505473140125S11712522EA0111901144000000000000
B0505513140054S11712529EA0111101138000000000000
B0505553139982S11712535EA0110601134000000000000
B0505593139912S11712540EA0110201131000000000000
B0506033139844S11712547EA0110401134000000000000
B0506073139781S11712553EA0110601132000000000000
B0506113139718S11712565EA0111401134000000000000
B0506153139659S11712578EA0110101124000000000000
B0506193139599S11712592EA0109101120000000000000
B0506233139539S11712607EA0109101118000000000000
B0506273139478S11712621EA0108201106000000000000
B0506313139415S11712634EA0107501104000000000000
B0506353139356S11712646EA0107301099000000000000
B0506393139293S11712655EA0106901096000000000000
B0506433139230S11712664EA0107001096000000000000
B0506473139165S11712672EA0107001099000000000000
B0506513139102S11712681EA0108201111000000000000
B0506553139045S11712686EA0109501133000000000000
B0506593138992S11712691EA0111601148000000000000
B0507033138938S11712694EA0112501155000000000000
B0507073138886S11712698EA0113201164000000000000
B0507113138833S11712703EA0114601180000000000000
B0507153138781S11712707EA0114401169000000000000
B0507193138728S11712707EA0113101155000000000000
B0507233138671S11712708EA0111401137000000000000
B0507273138609S11712709EA0110101126000000000000
B0507313138548S11712718EA0109601120000000000000
B0507353138483S11712733EA0108901114000000000000
B0507393138416S11712747EA0108901119000000000000
B0507433138347S11712761EA0109701133000000000000
B0507473138281S11712779EA0111801149000000000000
B0507513138213S11712803EA0113401171000000000000
B0507553138148S11712828EA0115301187000000000000
B0507593138082S11712856EA0116201189000000000000
B0508033138013S11712886EA0116101192000000000000
B0508073137945S11712919EA0116301189000000000000
B0508113137876S11712951EA0114901169000000000000
B0508153137803S11712981EA0112701150000000000000
B0508193137729S11713006EA0111601144000000000000
B0508233137662S11713021EA0111301142000000000000
B0508273137598S11713028EA0112001155000000000000
B0508313137545S11713028EA0113801171000000000000
B0508353137498S11713023EA0114901183000000000000
B0508393137455S11713016EA0116401199000000000000
B0508433137412S11713010EA0116901199000000000000
B0508473137371S11713000EA0117401207000000000000
B0508513137333S11712990EA0118201214000000000000
B0508553137283S11713008EA0118301213000000000000
B0508593137254S11713098EA0118801220000000000000
B0509033137291S11713194EA0119401226000000000000
B0509073137361S11713241EA0119801232000000000000
B0509113137430S11713263EA0120401237000000000000
B0509153137481S11713253EA0120701236000000000000
B0509193137508S11713221EA0120201233000000000000
B0509233137517S11713185EA0120601239000000000000
B0509273137494S11713169EA0122201256000000000000
B0509313137455S11713237EA0122201250000000000000
B0509353137472S11713353EA0121901254000000000000
B0509393137532S11713433EA0123001265000000000000
B0509433137602S11713494EA0122501247000000000000
B0509473137677S11713576EA0120701238000000000000
B0509513137750S11713667EA0121401251000000000000
B0509553137819S11713761EA0122601264000000000000
B0509593137885S11713856EA0123901273000000000000
B0510033137952S11713953EA0124001274000000000000
B0510073138018S11714050EA0123601264000000000000
B0510113138086S11714146EA0121901249000000000000
B0510153138154S11714238EA0121401245000000000000
B0510193138226S11714326EA0121501247000000000000
B0510233138300S11714404EA0121701249000000000000
B0510273138378S11714467EA0122701266000000000000
B0510313138431S11714459EA0125301294000000000000
B0510353138403S11714445EA0127201309000000000000
B0510393138370S11714525EA0128601326000000000000
B0510433138408S11714611EA0130101338000000000000
B0510473138470S11714623EA0130901347000000000000
B0510513138477S11714592EA0132801371000000000000
B0510553138438S11714612EA0135101391000000000000
B0510593138417S11714697EA0136001397000000000000
B0511033138452S11714783EA0137201411000000000000
B0511073138512S11714810EA0138401423000000000000
B0511113138539S11714788EA0139701437000000000000
B0511153138509S11714783EA0141301455000000000000
B0511193138470S11714840EA0142401468000000000000
B0511233138465S11714932EA0143001474000000000000
B0511273138512S11715008EA0143601479000000000000
B0511313138568S11715019EA0144601490000000000000
B0511353138577S11714993EA0145801506000000000000
B0511393138542S11715008EA0148101528000000000000
B0511433138512S11715080EA0148901530000000000000
B0511473138526S11715175EA0149201537000000000000
B0511513138583S11715240EA0149901544000000000000
B0511553138639S11715242EA0150201546000000000000
B0511593138645S11715214EA0151101561000000000000
B0512033138599S11715239EA0152701575000000000000
B0512073138582S11715333EA0154401591000000000000
B0512113138626S11715409EA0155501602000000000000
B0512153138684S11715426EA0155701601000000000000
B0512193138713S11715399EA0155501602000000000000
B0512233138699S11715368EA0156401619000000000000
B0512273138658S11715421EA0159001646000000000000
B0512313138676S11715515EA0160901662000000000000
B0512353138741S11715564EA0161201661000000000000
B0512393138820S11715585EA0161201660000000000000
B0512433138905S11715597EA0159201634000000000000
B0512473139001S11715598EA0157001618000000000000
B0512513139102S11715595EA0156401615000000000000
B0512553139205S11715594EA0156701619000000000000
B0512593139302S11715594EA0157701632000000000000
B0513033139397S11715595EA0158201634000000000000
B0513073139488S11715594EA0157801626000000000000
B0513113139581S11715590EA0157001614000000000000
B0513153139669S11715589EA0157001619000000000000
B0513193139755S11715589EA0157001618000000000000
B0513233139843S11715589EA0156601613000000000000
B0513273139934S11715589EA0156801615000000000000
B0513313140029S11715586EA0156201610000000000000
B0513353140124S11715584EA0157201620000000000000
B0513393140218S11715584EA0156401607000000000000
B0513433140312S11715584EA0155401598000000000000
B0513473140407S11715584EA0155501602000000000000
B0513513140500S11715581EA0155601599000000000000
B0513553140593S11715577EA0155201597000000000000
B0513593140688S11715573EA0154601588000000000000
B0514033140784S11715569EA0153401578000000000000
B0514073140882S11715567EA0152701574000000000000
B0514113140977S11715565EA0152501571000000000000
B0514153141070S11715565EA0152201568000000000000
B0514193141161S11715563EA0152101565000000000000
B0514233141252S11715558EA0151601561000000000000
B0514273141341S11715547EA0151401560000000000000
B0514313141427S11715534EA0151301555000000000000
B0514353141512S11715517EA0150901554000000000000
B0514393141596S11715498EA0150601549000000000000
B0514433141676S11715476EA0150401546000000000000
B0514473141755S11715450EA0149401538000000000000
B0514513141831S11715421EA0149101533000000000000
B0514553141905S11715392EA0148401525000000000000
B0514593141978S11715363EA0147801516000000000000
B0515033142049S11715331EA0146701501000000000000
B0515073142127S11715304EA0144901485000000000000
B0515113142210S11715287EA0144001479000000000000
B0515153142294S11715274EA0143801477000000000000
B0515193142373S11715262EA0144101480000000000000
B0515233142447S11715246EA0143701476000000000000
B0515273142521S11715225EA0143801477000000000000
B0515313142593S11715200EA0143501468000000000000
B0515353142668S11715179EA0143201469000000000000
B0515393142743S11715164EA0143701473000000000000
B0515433142816S11715140EA0143601475000000000000
B0515473142864S11715100EA0144101477000000000000
B0515513142892S11715049EA0143301468000000000000
B0515553142927S11714993EA0142401461000000000000
B0515593142975S11714941EA0141301444000000000000
B0516033143045S11714901EA0139301423000000000000
B0516073143136S11714879EA0136401397000000000000
B0516113143237S11714879EA0135801395000000000000
B0516153143336S11714885EA0135801392000000000000
B0516193143435S11714896EA0135401390000000000000
B0516233143533S11714910EA0135101387000000000000
B0516273143631S11714927EA0134701381000000000000
B0516313143730S11714947EA0134101377000000000000
B0516353143828S11714970EA0134001378000000000000
B0516393143923S11714993EA0134101376000000000000
B0516433144017S11715017EA0133901375000000000000
B0516473144111S11715043EA0133701372000000000000
B0516513144205S11715067EA0133301367000000000000
B0516553144297S11715091EA0133001364000000000000
B0516593144388S11715112EA0133001365000000000000
B0517033144475S11715131EA0132501356000000000000
B0517073144563S11715148EA0131401346000000000000
B0517113144649S11715158EA0130701341000000000000
B0517153144730S11715162EA0130501336000000000000
B0517193144808S11715160EA0129701327000000000000
B0517233144881S11715147EA0128601311000000000000
B0517273144950S11715116EA0126501289000000000000
B0517313145016S11715075EA0125101282000000000000
B0517353145064S11715026EA0125501286000000000000
B0517393145106S11714978EA0125101282000000000000
B0517433145142S11714926EA0125001280000000000000
B0517473145164S11714872EA0125301288000000000000
B0517513145167S11714823EA0126501298000000000000
B0517553145154S11714779EA0126801300000000000000
B0517593145130S11714737EA0127201312000000000000
B0518033145089S11714731EA0129101336000000000000
B0518073145055S11714800EA0131301345000000000000
B0518113145069S11714897EA0131001342000000000000
B0518153145132S11714953EA0131601354000000000000
B0518193145182S11714945EA0132501357000000000000
B0518233145181S11714914EA0133101366000000000000
B0518273145137S11714944EA0133801370000000000000
B0518313145128S11715043EA0133801371000000000000
B0518353145176S11715127EA0134601380000000000000
B0518393145243S11715160EA0135201385000000000000
B0518433145293S11715138EA0135401386000000000000
B0518473145289S11715095EA0135701392000000000000
B0518513145242S11715108EA0136601402000000000000
B0518553145223S11715201EA0137001404000000000000
B0518593145263S11715295EA0137201409000000000000
B0519033145334S11715338EA0137901418000000000000
B0519073145389S11715321EA0138801425000000000000
B0519113145376S11715290EA0140001437000000000000
B0519153145332S11715331EA0140101439000000000000
B0519193145332S11715422EA0140901446000000000000
B0519233145384S11715491EA0141401451000000000000
B0519273145451S11715524EA0141201448000000000000
B0519313145514S11715509EA0141001451000000000000
B0519353145567S11715477EA0141001448000000000000
B0519393145622S11715434EA0139801427000000000000
B0519433145678S11715378EA0137301404000000000000
B0519473145732S11715317EA0136201400000000000000
B0519513145789S11715256EA0135701394000000000000
B0519553145844S11715196EA0135301391000000000000
B0519593145900S11715138EA0134801383000000000000
B0520033145954S11715079EA0134201376000000000000
B0520073146009S11715025EA0133901374000000000000
B0520113146064S11714971EA0134101377000000000000
B0520153146110S11714917EA0134601384000000000000
B0520193146151S11714862EA0135201390000000000000
B0520233146187S11714806EA0135701397000000000000
B0520273146220S11714752EA0136101397000000000000
B0520313146253S11714697EA0135701386000000000000
B0520353146307S11714645EA0133601366000000000000
B0520393146377S11714606EA0133001365000000000000
B0520433146454S11714577EA0133901375000000000000
B0520473146524S11714549EA0134801381000000000000
B0520513146582S11714511EA0134701376000000000000
B0520553146650S11714476EA0132901356000000000000
B0520593146729S11714446EA0131501348000000000000
B0521033146811S11714427EA0131101345000000000000
B0521073146894S11714415EA0131101346000000000000
B0521113146979S11714415EA0131401349000000000000
B0521153147066S11714419EA0131001340000000000000
B0521193147158S11714427EA0130201335000000000000
B0521233147251S11714441EA0130001333000000000000
B0521273147342S11714458EA0130101334000000000000
B0521313147430S11714476EA0130201332000000000000
B0521353147516S11714494EA0129901327000000000000
B0521393147604S11714511EA0128901316000000000000
B0521433147695S11714524EA0127801306000000000000
B0521473147786S11714538EA0127401302000000000000
B0521513147875S11714553EA0127001298000000000000
B0521553147963S11714566EA0126601292000000000000
B0521593148051S11714581EA0126001286000000000000
B0522033148140S11714597EA0125301280000000000000
B0522073148228S11714614EA0125001277000000000000
B0522113148314S11714628EA0124901276000000000000
B0522153148398S11714640EA0124701275000000000000
B0522193148482S11714650EA0124401272000000000000
B0522233148566S11714662EA0124401272000000000000
B0522273148648S11714670EA0124301269000000000000
B0522313148730S11714676EA0123401256000000000000
B0522353148813S11714684EA0122101246000000000000
B0522393148896S11714693EA0121401238000000000000
B0522433148980S11714705EA0120801233000000000000
B0522473149060S11714718EA0120301227000000000000
B0522513149139S11714728EA0120301230000000000000
B0522553149217S11714737EA0120401231000000000000
B0522593149294S11714744EA0120901234000000000000
B0523033149370S11714745EA0121101239000000000000
B0523073149438S11714735EA0121301236000000000000
B0523113149463S11714692EA0121401242000000000000
B0523153149422S11714698EA0121701237000000000000
B0523193149410S11714791EA0120101217000000000000
B0523233149448S11714892EA0119101214000000000000
B0523273149492S11714993EA0119001218000000000000
B0523313149528S11715099EA0119201218000000000000
B0523353149559S11715207EA0119101215000000000000
B0523393149592S11715313EA0118801211000000000000
B0523433149626S11715421EA0117801201000000000000
B0523473149657S11715530EA0117301196000000000000
B0523513149683S11715641EA0116601187000000000000
B0523553149706S11715754EA0115901180000000000000
B0523593149728S11715866EA0115301175000000000000
B0524033149765S11715967EA0115901183000000000000
B0524073149823S11716041EA0115901178000000000000
B0524113149895S11716083EA0115601175000000000000
B0524153149970S11716097EA0115701181000000000000
B0524193150013S11716068EA0117501203000000000000
B0524233149986S11716052EA0118801214000000000000
B0524273149940S11716115EA0118401213000000000000
B0524313149957S11716202EA0120201238000000000000
B0524353150008S11716236EA0121401243000000000000
B0524393150046S11716211EA0120901240000000000000
B0524433150031S11716176EA0121701252000000000000
B0524473149988S11716200EA0122401254000000000000
B0524513149965S11716282EA0121801244000000000000
B0524553149981S11716375EA0121801253000000000000
B0524593150033S11716442EA0122601257000000000000
B0525033150098S11716458EA0122701258000000000000
B0525073150147S11716432EA0123101263000000000000
B0525113150164S11716395EA0123701271000000000000
B0525153150129S11716391EA0124401273000000000000
B0525193150090S11716455EA0123801265000000000000
B0525233150068S11716548EA0123101261000000000000
B0525273150036S11716638EA0123001262000000000000
B0525313149997S11716718EA0123301267000000000000
B0525353149953S11716791EA0123201261000000000000
B0525393149895S11716832EA0122501253000000000000
B0525433149848S11716816EA0121701246000000000000
B0525473149836S11716770EA0121401243000000000000
B0525513149856S11716724EA0121101239000000000000
B0525553149900S11716689EA0120201229000000000000
B0525593149958S11716664EA0119301221000000000000
B0526033150031S11716652EA0117701203000000000000
B0526073150113S11716659EA0116401193000000000000
B0526113150196S11716686EA0115901187000000000000
B0526153150277S11716728EA0115801182000000000000
B0526193150356S11716773EA0115201178000000000000
B0526233150436S11716819EA0114701170000000000000
B0526273150516S11716865EA0113301159000000000000
B0526313150599S11716911EA0112601148000000000000
B0526353150684S11716956EA0111001130000000000000
B0526393150772S11717006EA0110101121000000000000
B0526433150862S11717053EA0108801110000000000000
B0526473150952S11717102EA0108201103000000000000
B0526513151039S11717151EA0107801100000000000000
B0526553151125S11717199EA0107301090000000000000
B0526593151212S11717251EA0106101080000000000000
B0527033151297S11717303EA0105401074000000000000
B0527073151381S11717355EA0105201072000000000000
B0527113151463S11717409EA0105101071000000000000
B0527153151541S11717465EA0104901066000000000000
B0527193151620S11717521EA0104301060000000000000
B0527233151698S11717574EA0103901058000000000000
B0527273151773S11717592EA0104601062000000000000
B0527313151825S11717561EA0104401055000000000000
B0527353151840S11717501EA0102401034000000000000
B0527393151853S11717440EA0101801040000000000000
B0527433151856S11717385EA0102301041000000000000
B0527473151851S11717332EA0101401028000000000000
B0527513151840S11717276EA0099601013000000000000
B0527553151827S11717220EA0098801007000000000000
B0527593151810S11717168EA0098000997000000000000
B0528033151793S11717110EA0096200980000000000000
B0528073151776S11717053EA0096200985000000000000
B0528113151758S11716997EA0095500964000000000000
B0528153151749S11716930EA0093300948000000000000
B0528193151742S11716865EA0092900946000000000000
B0528233151729S11716803EA0092100939000000000000
B0528273151715S11716742EA0092100940000000000000
B0528313151694S11716691EA0092800948000000000000
B0528353151672S11716647EA0093700958000000000000
B0528393151646S11716612EA0094400961000000000000
B0528433151600S11716650EA0095500974000000000000
B0528473151613S11716748EA0095800973000000000000
B0528513151682S11716802EA0095700972000000000000
B0528553151745S11716793EA0095000962000000000000
B0528593151762S11716747EA0094500961000000000000
B0529033151751S11716704EA0094900973000000000000
B0529073151707S11716712EA0096400982000000000000
B0529113151690S11716803EA0097100991000000000000
B0529153151739S11716878EA0098701008000000000000
B0529193151798S11716893EA0099301008000000000000
B0529233151833S11716863EA0098901006000000000000
B0529273151820S11716837EA0099701017000000000000
B0529313151781S11716882EA0101101030000000000000
B0529353151782S11716977EA0101601035000000000000
B0529393151836S11717050EA0102001042000000000000
B0529433151899S11717064EA0102701047000000000000
B0529473151924S11717030EA0103301058000000000000
B0529513151898S11717020EA0104401065000000000000
B0529553151859S11717079EA0105201077000000000000
B0529593151862S11717172EA0106201083000000000000
B0530033151910S11717249EA0106501089000000000000
B0530073151973S11717266EA0107301093000000000000
B0530113152005S11717235EA0107801103000000000000
B0530153151979S11717222EA0109601122000000000000
B0530193151945S11717277EA0110801130000000000000
B0530233151950S11717372EA0110801131000000000000
B0530273152006S11717440EA0111401140000000000000
B0530313152062S11717448EA0112501147000000000000
B0530353152077S11717414EA0112401150000000000000
B0530393152044S11717420EA0114101171000000000000
B0530433152016S11717492EA0115301175000000000000
B0530473152032S11717589EA0115501185000000000000
B0530513152084S11717657EA0116701193000000000000
B0530553152141S11717666EA0116701189000000000000
B0530593152161S11717634EA0116401187000000000000
B0531033152128S11717617EA0116901200000000000000
B0531073152087S11717664EA0118901219000000000000
B0531113152081S11717755EA0119901226000000000000
B0531153152127S11717838EA0119701225000000000000
B0531193152194S11717872EA0119901228000000000000
B0531233152246S11717855EA0120301228000000000000
B0531273152259S11717810EA0120101231000000000000
B0531313152222S11717803EA0121501250000000000000
B0531353152187S11717870EA0123001260000000000000
B0531393152198S11717969EA0123401263000000000000
B0531433152258S11718042EA0123801271000000000000
B0531473152321S11718047EA0124801279000000000000
B0531513152341S11718012EA0125401283000000000000
B0531553152305S11717999EA0126001294000000000000
B0531593152265S11718056EA0127701311000000000000
B0532033152261S11718152EA0128301314000000000000
B0532073152306S11718241EA0128401317000000000000
B0532113152376S11718275EA0128801322000000000000
B0532153152422S11718247EA0129001321000000000000
B0532193152413S11718207EA0128601318000000000000
B0532233152365S11718202EA0129401336000000000000
B0532273152326S11718265EA0131401353000000000000
B0532313152330S11718362EA0131901352000000000000
B0532353152384S11718442EA0131601351000000000000
B0532393152456S11718488EA0132101359000000000000
B0532433152512S11718480EA0132701360000000000000
B0532473152552S11718441EA0131701352000000000000
B0532513152588S11718395EA0132701367000000000000
B0532553152590S11718353EA0134301379000000000000
B0532593152543S11718371EA0135301391000000000000
B0533033152525S11718462EA0136401403000000000000
B0533073152566S11718557EA0136701408000000000000
B0533113152636S11718584EA0138101424000000000000
B0533153152673S11718555EA0139201429000000000000
B0533193152652S11718524EA0138801428000000000000
B0533233152604S11718551EA0139901450000000000000
B0533273152594S11718639EA0142301467000000000000
B0533313152644S11718718EA0142701470000000000000
B0533353152704S11718719EA0143601480000000000000
B0533393152700S11718691EA0144201488000000000000
B0533433152657S11718715EA0145001500000000000000
B0533473152648S11718804EA0146801518000000000000
B0533513152695S11718882EA0147301521000000000000
B0533553152759S11718900EA0148101531000000000000
B0533593152786S11718874EA0148901535000000000000
B0534033152761S11718857EA0148301526000000000000
B0534073152720S11718909EA0149201541000000000000
B0534113152727S11718997EA0151101559000000000000
B0534153152785S11719064EA0150701550000000000000
B0534193152867S11719099EA0148901530000000000000
B0534233152961S11719123EA0147401511000000000000
B0534273153063S11719144EA0146301507000000000000
B0534313153166S11719161EA0147401530000000000000
B0534353153263S11719175EA0149101535000000000000
B0534393153364S11719191EA0148601526000000000000
B0534433153471S11719207EA0147201510000000000000
B0534473153575S11719222EA0146201507000000000000
B0534513153678S11719240EA0146301501000000000000
B0534553153780S11719253EA0145101489000000000000
B0534593153884S11719263EA0143901478000000000000
B0535033153991S11719278EA0142601465000000000000
B0535073154096S11719300EA0141901459000000000000
B0535113154200S11719324EA0141101444000000000000
B0535153154304S11719348EA0139701432000000000000
B0535193154407S11719372EA0139101429000000000000
B0535233154505S11719394EA0138601419000000000000
B0535273154603S11719415EA0137701410000000000000
B0535313154702S11719438EA0136801403000000000000
B0535353154801S11719460EA0136301397000000000000
B0535393154898S11719481EA0135801392000000000000
B0535433154997S11719500EA0135101380000000000000
B0535473155095S11719517EA0134201372000000000000
B0535513155191S11719532EA0133101361000000000000
B0535553155287S11719546EA0132201353000000000000
B0535593155385S11719563EA0131401345000000000000
B0536033155481S11719578EA0131301347000000000000
B0536073155574S11719599EA0131601348000000000000
B0536113155668S11719619EA0131301344000000000000
B0536153155764S11719641EA0130101331000000000000
B0536193155860S11719664EA0129601327000000000000
B0536233155957S11719686EA0129001319000000000000
B0536273156053S11719707EA0128401313000000000000
B0536313156148S11719729EA0127801304000000000000
B0536353156244S11719750EA0126901297000000000000
B0536393156339S11719771EA0126501292000000000000
B0536433156431S11719792EA0126001287000000000000
B0536473156522S11719815EA0125701284000000000000
B0536513156613S11719838EA0125201276000000000000
B0536553156707S11719861EA0124501269000000000000
B0536593156800S11719880EA0123801263000000000000
B0537033156894S11719894EA0123301261000000000000
B0537073156986S11719907EA0122601248000000000000
B0537113157081S11719924EA0121601241000000000000
B0537153157172S11719944EA0121401239000000000000
B0537193157262S11719965EA0120901231000000000000
B0537233157353S11719981EA0120001222000000000000
B0537273157443S11719993EA0119501217000000000000
B0537313157528S11720004EA0119301218000000000000
B0537353157606S11720011EA0119701222000000000000
B0537393157684S11720018EA0119601215000000000000
B0537433157762S11720023EA0118701208000000000000
B0537473157843S11720024EA0118101201000000000000
B0537513157911S11719998EA0117801198000000000000
B0537553157952S11719946EA0117001189000000000000
B0537593157968S11719884EA0116501189000000000000
B0538033157968S11719823EA0117201201000000000000
B0538073157963S11719767EA0118201209000000000000
B0538113157955S11719714EA0119001218000000000000
B0538153157944S11719660EA0120001229000000000000
B0538193157922S11719614EA0121401243000000000000
B0538233157873S11719632EA0123701267000000000000
B0538273157874S11719719EA0124901275000000000000
B0538313157939S11719763EA0125901291000000000000
B0538353157979S11719733EA0127701309000000000000
B0538393157956S11719702EA0128701315000000000000
B0538433157905S11719738EA0129501331000000000000
B0538473157907S11719828EA0130901343000000000000
B0538513157969S11719877EA0132501362000000000000
B0538553158018S11719857EA0134101373000000000000
B0538593158008S11719815EA0135001387000000000000
B0539033157961S11719832EA0136501404000000000000
B0539073157950S11719916EA0138201424000000000000
B0539113158000S11719978EA0140001443000000000000
B0539153158056S11719970EA0141301453000000000000
B0539193158065S11719926EA0142001461000000000000
B0539233158026S11719913EA0143001471000000000000
B0539273157983S11719966EA0144201488000000000000
B0539313157974S11720052EA0146301507000000000000
B0539353158017S11720130EA0147301516000000000000
B0539393158085S11720154EA0148601533000000000000
B0539433158122S11720118EA0150001545000000000000
B0539473158103S11720080EA0151001556000000000000
B0539513158055S11720096EA0152401572000000000000
B0539553158028S11720170EA0153901586000000000000
B0539593158052S11720253EA0155301602000000000000
B0540033158116S11720280EA0156601616000000000000
B0540073158143S11720244EA0157601624000000000000
B0540113158120S11720206EA0157701625000000000000
B0540153158065S11720202EA0158301635000000000000
B0540193158034S11720280EA0160501663000000000000
B0540233158074S11720355EA0162501678000000000000
B0540273158133S11720358EA0163701686000000000000
B0540313158147S11720308EA0163701687000000000000
B0540353158108S11720278EA0164701703000000000000
B0540393158052S11720305EA0167001722000000000000
B0540433158020S11720387EA0168301733000000000000
B0540473158042S11720477EA0170101755000000000000
B0540513158099S11720516EA0171601766000000000000
B0540553158147S11720495EA0171901767000000000000
B0540593158147S11720449EA0172201774000000000000
B0541033158098S11720448EA0173601794000000000000
B0541073158056S11720511EA0175701810000000000000
B0541113158047S11720605EA0176401813000000000000
B0541153158090S11720685EA0177201827000000000000
B0541193158155S11720709EA0178101833000000000000
B0541233158200S11720681EA0178901843000000000000
B0541273158202S11720634EA0180101858000000000000
B0541313158160S11720629EA0181901875000000000000
B0541353158119S11720686EA0182901881000000000000
B0541393158116S11720782EA0183401890000000000000
B0541433158167S11720849EA0185101908000000000000
B0541473158225S11720846EA0185601914000000000000
B0541513158272S11720807EA0185401908000000000000
B0541553158323S11720756EA0184601896000000000000
B0541593158390S11720700EA0182001863000000000000
B0542033158479S11720646EA0178501834000000000000
B0542073158579S11720599EA0176501824000000000000
B0542113158679S11720560EA0176601823000000000000
B0542153158778S11720525EA0175901812000000000000
B0542193158876S11720491EA0175101801000000000000
B0542233158974S11720455EA0174101792000000000000
B0542273159069S11720421EA0173601787000000000000
B0542313159165S11720390EA0173101781000000000000
B0542353159260S11720362EA0172401769000000000000
B0542393159357S11720338EA0171201756000000000000
B0542433159456S11720314EA0169601738000000000000
B0542473159555S11720290EA0168301730000000000000
B0542513159653S11720267EA0167701724000000000000
B0542553159749S11720248EA0167201719000000000000
B0542593159845S11720230EA0166401710000000000000
B0543033159941S11720210EA0165801703000000000000
B0543073200037S11720191EA0164801692000000000000
B0543113200132S11720173EA0163901684000000000000
B0543153200225S11720154EA0163201680000000000000
B0543193200313S11720137EA0163401679000000000000
B0543233200400S11720122EA0163101678000000000000
B0543273200485S11720106EA0162901673000000000000
B0543313200570S11720089EA0161801658000000000000
B0543353200657S11720071EA0160701652000000000000
B0543393200739S11720048EA0160601651000000000000
B0543433200821S11720026EA0160401644000000000000
B0543473200906S11720011EA0160001643000000000000
B0543513200989S11720002EA0160101645000000000000
B0543553201073S11719998EA0160201644000000000000
B0543593201158S11719998EA0160001646000000000000
B0544033201236S11719988EA0161601666000000000000
B0544073201274S11719944EA0164001688000000000000
B0544113201252S11719903EA0164501687000000000000
B0544153201189S11719911EA0163901682000000000000
B0544193201148S11719981EA0164901693000000000000
B0544233201153S11720074EA0164801690000000000000
B0544273201181S11720166EA0164601691000000000000
B0544313201227S11720244EA0164901693000000000000
B0544353201291S11720304EA0164601685000000000000
B0544393201370S11720327EA0163801684000000000000
B0544433201450S11720330EA0163601676000000000000
B0544473201535S11720322EA0162401661000000000000
B0544513201625S11720310EA0160201640000000000000
B0544553201718S11720296EA0159501635000000000000
B0544593201812S11720283EA0158701624000000000000
B0545033201907S11720273EA0157101610000000000000
B0545073202002S11720260EA0155901598000000000000
B0545113202095S11720247EA0155101590000000000000
B0545153202188S11720236EA0154801586000000000000
B0545193202279S11720223EA0154301578000000000000
B0545233202368S11720212EA0153401578000000000000
B0545273202453S11720204EA0154801590000000000000
B0545313202536S11720199EA0155801598000000000000
B0545353202613S11720193EA0157001612000000000000
B0545393202689S11720187EA0157101599000000000000
B0545433202773S11720171EA0155101585000000000000
B0545473202853S11720144EA0155901600000000000000
B0545513202921S11720101EA0155801588000000000000
B0545553202997S11720056EA0152701557000000000000
B0545593203083S11720026EA0152201564000000000000
B0546033203168S11720010EA0152901571000000000000
B0546073203251S11720001EA0153101569000000000000
B0546113203333S11719996EA0152901566000000000000
B0546153203413S11719992EA0153001568000000000000
B0546193203486S11719987EA0154701589000000000000
B0546233203534S11719958EA0156501607000000000000
B0546273203506S11719936EA0158701626000000000000
B0546313203458S11719989EA0158301613000000000000
B0546353203439S11720097EA0157901620000000015000
B0546393203438S11720199EA0159301630000000000000
B0546433203471S11720286EA0159601633000000000000
B0546473203529S11720317EA0160101635000000000000
B0546513203560S11720278EA0159501633000000000000
B0546553203519S11720251EA0160301648000000000000
B0546593203469S11720299EA0162301668000000000000
B0547033203463S11720383EA0163401670000000000000
B0547073203497S11720460EA0163101665000000000000
B0547113203555S11720490EA0162601670000000000000
B0547153203607S11720483EA0163701678000000000000
B0547193203659S11720464EA0163701678000000000000
B0547233203706S11720427EA0163001672000000000000
B0547273203749S11720379EA0162001662000000000000
B0547313203801S11720326EA0160801649000000000000
B0547353203868S11720279EA0159301636000000000000
B0547393203949S11720241EA0158001619000000000000
B0547433204032S11720209EA0157201614000000000000
B0547473204113S11720174EA0156901607000000000000
B0547513204196S11720136EA0155201592000000000000
B0547553204278S11720101EA0154401586000000000000
B0547593204357S11720067EA0154001578000000000000
B0548033204438S11720036EA0152901568000000000000
B0548073204520S11720009EA0152401561000000000000
B0548113204602S11719981EA0151401551000000000000
B0548153204684S11719953EA0150301538000000000000
B0548193204767S11719926EA0149601530000000000000
B0548233204847S11719897EA0148701522000000000000
B0548273204927S11719870EA0148001512000000000000
B0548313205006S11719842EA0147601508000000000000
B0548353205084S11719816EA0147601515000000000000
B0548393205155S11719794EA0148701523000000000000
B0548433205226S11719773EA0148201514000000000000
B0548473205297S11719749EA0146901500000000000000
B0548513205362S11719712EA0146401497000000000000
B0548553205423S11719669EA0146201497000000000000
B0548593205483S11719628EA0146201494000000000000
B0549033205540S11719585EA0145701489000000000000
B0549073205594S11719539EA0145201485000000000000
B0549113205649S11719493EA0144801481000000000000
B0549153205708S11719446EA0144401478000000000000
B0549193205764S11719398EA0145401494000000000000
B0549233205807S11719347EA0147501515000000000000
B0549273205812S11719292EA0149501532000000000000
B0549313205763S11719296EA0151101549000000000000
B0549353205742S11719386EA0152501567000000000000
B0549393205785S11719459EA0154201587000000000000
B0549433205843S11719465EA0155701596000000000000
B0549473205864S11719422EA0156501608000000000000
B0549513205828S11719406EA0158201629000000000000
B0549553205789S11719460EA0159501640000000000000
B0549593205798S11719546EA0160501651000000000000
B0550033205851S11719597EA0161801663000000000000
B0550073205908S11719595EA0162401668000000000000
B0550113205925S11719554EA0163201678000000000000
B0550153205893S11719528EA0164501694000000000000
B0550193205850S11719559EA0166101706000000000000
B0550233205835S11719640EA0166501713000000000000
B0550273205873S11719710EA0167601723000000000000
B0550313205932S11719725EA0168201727000000000000
B0550353205964S11719689EA0168701737000000000000
B0550393205942S11719656EA0170401759000000000000
B0550433205899S11719686EA0172001769000000000000
B0550473205887S11719768EA0172301771000000000000
B0550513205932S11719835EA0173201782000000000000
B0550553205989S11719844EA0174101789000000000000
B0550593206023S11719803EA0174701796000000000000
B0551033206000S11719772EA0176601822000000000000
B0551073205964S11719824EA0177801827000000000000
B0551113205982S11719909EA0178401836000000000000
B0551153206042S11719952EA0179701852000000000000
B0551193206099S11719941EA0180901862000000000000
B0551233206117S11719898EA0181801874000000000000
B0551273206080S11719876EA0182701878000000000000
B0551313206023S11719901EA0183001886000000000000
B0551353205998S11719980EA0185101909000000000000
B0551393206033S11720054EA0186401919000000000000
B0551433206098S11720076EA0187201927000000000000
B0551473206162S11720052EA0187001922000000000000
B0551513206228S11720009EA0184901898000000000000
B0551553206301S11719952EA0182501877000000000000
B0551593206372S11719888EA0181701872000000000000
B0552033206440S11719823EA0180401859000000000000
B0552073206509S11719758EA0179701852000000000000
B0552113206572S11719697EA0179701855000000000000
B0552153206632S11719638EA0179901856000000000000
B0552193206691S11719581EA0180201859000000000000
B0552233206749S11719528EA0180501861000000000000
B0552273206808S11719473EA0181301874000000000000
B0552313206861S11719429EA0184201908000000000000
B0552353206910S11719394EA0186201920000000000000
B0552393206960S11719355EA0187401932000000000000
B0552433206952S11719311EA0190401963000000000000
B0552473206900S11719344EA0192401975000000000000
B0552513206892S11719435EA0193301988000000000000
B0552553206940S11719498EA0194201997000000000000
B0552593207000S11719504EA0195102012000000000000
B0553033207031S11719464EA0196602025000000000000
B0553073207004S11719422EA0198102043000000000000
B0553113206948S11719455EA0199802059000000000000
B0553153206931S11719539EA0201202071000000000000
B0553193206978S11719601EA0201802075000000000000
B0553233207046S11719604EA0201702073000000000000
B0553273207112S11719578EA0201102063000000000000
B0553313207185S11719538EA0199102046000000000000
B0553353207261S11719486EA0198202043000000000000
B0553393207342S11719434EA0198802048000000000000
B0553433207423S11719386EA0198202042000000000000
B0553473207503S11719341EA0198802050000000000000
B0553513207585S11719298EA0198402039000000000000
B0553553207671S11719257EA0197802037000000000000
B0553593207757S11719222EA0197802035000000000000
B0554033207844S11719192EA0197302029000000000000
B0554073207931S11719165EA0197202029000000000000
B0554113208017S11719143EA0197502030000000000000
B0554153208101S11719123EA0197202024000000000000
B0554193208192S11719103EA0195302004000000000000
B0554233208286S11719078EA0194501995000000000000
B0554273208382S11719055EA0193401987000000000000
B0554313208474S11719034EA0193401989000000000000
B0554353208564S11719013EA0193001981000000000000
B0554393208655S11718990EA0192301975000000000000
B0554433208743S11718964EA0191901974000000000000
B0554473208831S11718941EA0191801972000000000000
B0554513208918S11718925EA0191101962000000000000
B0554553209005S11718909EA0190401954000000000000
B0554593209087S11718889EA0189901947000000000000
B0555033209167S11718870EA0188701933000000000000
B0555073209248S11718852EA0188001929000000000000
B0555113209331S11718836EA0187701929000000000000
B0555153209414S11718822EA0188701941000000000000
B0555193209490S11718810EA0190701966000000000000
B0555233209561S11718805EA0191801970000000000000
B0555273209637S11718792EA0191201961000000000000
B0555313209720S11718779EA0190401955000000000000
B0555353209803S11718767EA0190401961000000000000
B0555393209885S11718758EA0190401949000000000000
B0555433209971S11718750EA0188301929000000000000
B0555473210058S11718741EA0186801917000000000000
B0555513210145S11718735EA0185701907000000000000
B0555553210235S11718730EA0184501894000000000000
B0555593210322S11718728EA0184301892000000000000
B0556033210409S11718730EA0184101891000000000000
B0556073210493S11718728EA0183501881000000000000
B0556113210579S11718726EA0182501873000000000000
B0556153210664S11718727EA0182201870000000000000
B0556193210747S11718728EA0181501861000000000000
B0556233210831S11718730EA0180801853000000000000
B0556273210916S11718731EA0180301847000000000000
B0556313210999S11718735EA0179501840000000000000
B0556353211082S11718741EA0179001835000000000000
B0556393211156S11718750EA0180401855000000000000
B0556433211223S11718757EA0180601852000000000000
B0556473211291S11718757EA0179201837000000000000
B0556513211366S11718756EA0178801834000000000000
B0556553211441S11718752EA0179301845000000000000
B0556593211514S11718743EA0180301850000000000000
B0557033211584S11718724EA0180301847000000000000
B0557073211650S11718694EA0179701844000000000000
B0557113211706S11718649EA0178801826000000000000
B0557153211775S11718605EA0176701811000000000000
B0557193211850S11718566EA0175501801000000000000
B0557233211934S11718537EA0174501786000000000000
B0557273212021S11718514EA0173101775000000000000
B0557313212108S11718493EA0172501766000000000000
B0557353212196S11718475EA0171501760000000000000
B0557393212283S11718457EA0171201750000000000000
B0557433212372S11718440EA0169601732000000000000
B0557473212463S11718420EA0168201721000000000000
B0557513212550S11718401EA0167401721000000000000
B0557553212630S11718377EA0167601718000000000000
B0557593212715S11718355EA0166501706000000000000
B0558033212802S11718334EA0165801699000000000000
B0558073212890S11718315EA0165201694000000000000
B0558113212979S11718299EA0164401685000000000000
B0558153213067S11718286EA0163601675000000000000
B0558193213157S11718272EA0162801669000000000000
B0558233213243S11718260EA0162501666000000000000
B0558273213329S11718250EA0161801656000000000000
