ACAM4N6
HFDTE130816
HFFXA050
HFPLTPILOT:JOHN WELSH              
HFGTYGLIDERTYPE:HORNET      
HFGIDGLIDERID:VH-GMY      
HFDTM100GPSDATUM:
HFRFWFIRMWAREVERSION:F2.6
HFRHWHARDWAREVERSION:300 Series Version 2
HFFTYFRTYPE:CAMBRIDGE AERO INSTRUMENTS, 302+
HFGPS:GARMIN,LVS-25,12,18000
HFPRSPRESSALTSENSOR:INTERSEMA, MS5534-AP, 20000
I033638FXA3941ENL4247REX
LCAMSBVER:5FWVER:F26300
C291115033441291115000102
C0000000N00000000WTAKEOFF     
C3207550S11656850EBeverley Air
C3301433S11652383EWilliams    
C3152972S11809470EBruce Rock  
C3207550S11656850EBeverley Air
C0000000N00000000WLANDING     
B0400363207739S11657099EA0010500206000004000000
B0400383207739S11657099EA0010500206000004000000
B0400403207739S11657099EA0010500206000004000000
B0400423207739S11657099EA0010500206000004000000
B0400443207739S11657099EA0010500206000004000000
B0400463207739S11657099EA0010500206000004000000
B0400473207739S11657099EA0010500206000004000000
B0400503207739S11657099EA0010400206000004000000
B0400523207739S11657099EA0010300206000004000000
B0400543207739S11657099EA0010400206000004000000
B0400563207739S11657099EA0010300206000004000000
B0400583207739S11657099EA0010300206000004000000
B0401003207739S11657099EA0010400206000004000000
B0401023207737S11657099EA0010500206000004000000
B0401043207733S11657098EA0010500206000004000000
B0401073207722S11657092EA0010400206000004000000
B0401113207692S11657078EA0010300206000004000000
B0401153207646S11657052EA0010400206000004000000
B0401193207589S11657018EA0010300206000004000000
B0401233207523S11656979EA0010500208000004000000
B0401273207455S11656940EA0011200218000004000000
B0401313207388S11656904EA0013000238000004000000
B0401353207321S11656862EA0014700254000004000000
B0401393207260S11656810EA0016200271000004000000
B0401433207206S11656749EA0017900288000004000000
B0401473207156S11656684EA0019700308000004000000
B0401513207109S11656617EA0021600325000004000000
B0401553207063S11656548EA0023300342000004000000
B0401593207017S11656477EA0024900358000004000000
B0402033206973S11656406EA0026400373000004000000
B0402073206931S11656331EA0028100389000004000000
B0402113206890S11656255EA0029500402000004000000
B0402153206838S11656184EA0030800414000004000000
B0402193206774S11656129EA0031800425000004000000
B0402233206704S11656090EA0033200440000004000000
B0402273206631S11656071EA0035100461000004000000
B0402313206557S11656071EA0037100480000004000000
B0402353206483S11656093EA0039200499000004000000
B0402393206422S11656137EA0042200532000004000000
B0402433206364S11656191EA0045100561000004000000
B0402473206303S11656242EA0047500586000004000000
B0402513206244S11656288EA0050400614000004000000
B0402553206181S11656325EA0052800645000004000000
B0402593206107S11656328EA0055700666000004000000
B0403033206039S11656279EA0057400679000004000000
B0403073205993S11656194EA0058900692000004000000
B0403113205982S11656089EA0060800709000004000000
B0403153206020S11655993EA0062200723000004000000
B0403193206090S11655922EA0062900729000004000000
B0403233206175S11655889EA0064500749000004000000
B0403273206259S11655883EA0066700772000004000000
B0403313206340S11655903EA0068800795000004000000
B0403353206409S11655930EA0070500807000004000000
B0403393206479S11655918EA0072000823000004000000
B0403433206517S11655860EA0073300842000004000000
B0403473206496S11655799EA0074600852000004000000
B0403513206450S11655799EA0075600860000004000000
B0403553206433S11655851EA0075800860000004000000
B0403593206466S11655898EA0076200868000004000000
B0404033206522S11655898EA0077400880000004000000
B0404073206561S11655852EA0079000897000004000000
B0404113206561S11655788EA0080400909000004000000
B0404153206524S11655743EA0081400919000004000000
B0404193206478S11655751EA0082100925000004000000
B0404233206459S11655803EA0082200924000004000000
B0404273206488S11655856EA0082500929000004000000
B0404313206544S11655865EA0083300941000004000000
B0404353206587S11655818EA0084700953000004000000
B0404393206585S11655748EA0085800964000004000000
B0404433206540S11655712EA0086500970000004000000
B0404473206494S11655742EA0086900972000004000000
B0404513206489S11655804EA0087200974000004000000
B0404553206524S11655857EA0087600982000004000000
B0404593206584S11655874EA0088900996000004000000
B0405033206634S11655835EA0090401010000004000000
B0405073206649S11655772EA0091401020000004000000
B0405113206630S11655714EA0092501031000004000000
B0405153206587S11655691EA0093801039000004000000
B0405193206544S11655712EA0093801038000004000000
B0405233206527S11655768EA0093701039000004000000
B0405273206552S11655826EA0094501048000004000000
B0405313206604S11655851EA0095501061000004000000
B0405353206661S11655826EA0096401068000004000000
B0405393206686S11655761EA0097101073000004000000
B0405433206657S11655697EA0097601080000004000000
B0405473206601S11655682EA0098501088000004000000
B0405513206556S11655717EA0098801089000004000000
B0405553206539S11655781EA0099101093000004000000
B0405593206565S11655844EA0100101105000004000000
B0406033206628S11655844EA0102301126000004000000
B0406073206660S11655778EA0103401135000004000000
B0406113206631S11655716EA0104101146000004000000
B0406153206578S11655709EA0105201155000004000000
B0406193206546S11655752EA0106101164000004000000
B0406233206563S11655813EA0106801171000004000000
B0406273206624S11655833EA0107901182000004000000
B0406313206680S11655785EA0108801190000004000000
B0406353206687S11655704EA0109701201000004000000
B0406393206643S11655656EA0110701209000004000000
B0406433206588S11655664EA0111001212000004000000
B0406473206559S11655717EA0111301215000004000000
B0406513206579S11655778EA0112101224000004000000
B0406553206639S11655803EA0113001233000004000000
B0406593206700S11655769EA0113901242000004000000
B0407033206723S11655696EA0115201255000004000000
B0407073206700S11655635EA0116101261000004000000
B0407113206650S11655626EA0116201260000004000000
B0407153206618S11655675EA0115701258000004000000
B0407193206623S11655747EA0116501266000004000000
B0407233206641S11655818EA0117401280000004000000
B0407273206660S11655887EA0118901294000004000000
B0407313206678S11655951EA0120001297000004000000
B0407353206682S11656017EA0119501286000004000000
B0407393206649S11656081EA0118001271000004000000
B0407433206583S11656119EA0116701260000004000000
B0407473206506S11656133EA0115901256000004000000
B0407513206426S11656137EA0115301247000004000000
B0407553206342S11656137EA0114201236000004000000
B0407593206259S11656137EA0113601232000004000000
B0408033206179S11656137EA0113401231000004000000
B0408073206102S11656139EA0113601233000004000000
B0408113206030S11656143EA0113701235000004000000
B0408153205964S11656147EA0114101238000004000000
B0408193205899S11656152EA0114401239000004000000
B0408233205837S11656160EA0114401237000004000000
B0408273205773S11656168EA0114001235000004000000
B0408313205708S11656176EA0113801230000004000000
B0408353205643S11656181EA0113401228000004000000
B0408393205578S11656185EA0113101225000004000000
B0408433205512S11656191EA0113001218000004000000
B0408473205445S11656195EA0112301218000004000000
B0408513205382S11656198EA0112401217000004000000
B0408553205318S11656199EA0112101214000004000000
B0408593205253S11656198EA0111601207000004000000
B0409033205185S11656198EA0110901198000004000000
B0409073205115S11656198EA0109901191000004000000
B0409113205048S11656198EA0109601189000004000000
B0409153204983S11656197EA0109601187000004000000
B0409193204918S11656193EA0109101182000004000000
B0409233204851S11656189EA0108801182000004000000
B0409273204789S11656186EA0109201185000004000000
B0409313204726S11656185EA0109501188000004000000
B0409353204664S11656184EA0109901193000004000000
B0409393204603S11656191EA0110701201000004000000
B0409433204568S11656238EA0111901213000004000000
B0409473204574S11656298EA0111601207000004000000
B0409513204619S11656341EA0111201204000004000000
B0409553204680S11656346EA0112101219000004000000
B0409593204729S11656312EA0113201232000004000000
B0410033204756S11656254EA0114301238000004000000
B0410073204756S11656189EA0114501243000004000000
B0410113204726S11656137EA0115101249000004000000
B0410153204682S11656112EA0115301250000004000000
B0410193204638S11656129EA0115601255000004000000
B0410233204619S11656178EA0115901257000004000000
B0410273204634S11656229EA0115701254000004000000
B0410313204682S11656260EA0115801256000004000000
B0410353204738S11656251EA0116501267000004000000
B0410393204777S11656204EA0117601277000004000000
B0410433204782S11656141EA0118101279000004000000
B0410473204752S11656089EA0118101280000004000000
B0410513204704S11656071EA0118301282000004000000
B0410553204667S11656095EA0118801288000004000000
B0410593204661S11656149EA0119001288000004000000
B0411033204700S11656191EA0118401281000004000000
B0411073204763S11656189EA0118701292000004000000
B0411113204803S11656138EA0120001306000004000000
B0411153204799S11656077EA0120701307000004000000
B0411193204760S11656034EA0120101299000004000000
B0411233204704S11656019EA0119701295000004000000
B0411273204646S11656013EA0119401291000004000000
B0411313204583S11656011EA0118601279000004000000
B0411353204517S11656013EA0117601269000004000000
B0411393204451S11656015EA0116801262000004000000
B0411433204383S11656009EA0116401260000004000000
B0411473204317S11656000EA0116201255000004000000
B0411513204249S11655993EA0115801250000004000000
B0411553204182S11655982EA0115401245000004000000
B0411593204114S11655973EA0114801239000004000000
B0412033204048S11655964EA0114601239000004000000
B0412073203984S11655956EA0114601237000004000000
B0412113203920S11655948EA0114001232000004000000
B0412153203855S11655942EA0113701229000004000000
B0412193203793S11655937EA0113601229000004000000
B0412233203732S11655931EA0113701228000004000000
B0412273203670S11655924EA0113201222000004000000
B0412313203607S11655913EA0112901220000004000000
B0412353203545S11655904EA0112501214000004000000
B0412393203482S11655894EA0111801208000004000000
B0412433203419S11655879EA0111401204000004000000
B0412473203356S11655864EA0111001201000004000000
B0412513203295S11655850EA0110601196000004000000
B0412553203234S11655835EA0110201192000004000000
B0412593203173S11655821EA0109701187000004000000
B0413033203113S11655805EA0109401181000004000000
B0413073203051S11655795EA0109001178000004000000
B0413113202987S11655787EA0108901177000004000000
B0413153202923S11655785EA0108601175000004000000
B0413193202857S11655781EA0108401173000004000000
B0413233202792S11655775EA0108101171000004000000
B0413273202726S11655766EA0108001171000004000000
B0413313202659S11655756EA0108101174000004000000
B0413353202598S11655762EA0108701178000004000000
B0413393202540S11655786EA0108301169000004000000
B0413433202474S11655801EA0106801156000004000000
B0413473202405S11655801EA0106001152000004000000
B0413513202337S11655788EA0105701148000004000000
B0413553202273S11655764EA0105301144000004000000
B0413593202215S11655733EA0104901138000004000000
B0414033202154S11655699EA0104001129000004000000
B0414073202091S11655665EA0103301123000004000000
B0414113202029S11655631EA0102701116000004000000
B0414153201965S11655595EA0101901108000004000000
B0414193201902S11655557EA0101201104000004000000
B0414233201842S11655515EA0100901101000004000000
B0414273201782S11655475EA0100701095000004000000
B0414313201722S11655435EA0100301093000004000000
B0414353201662S11655395EA0100301096000004000000
B0414393201605S11655357EA0100501095000004000000
B0414433201549S11655315EA0100101088000004000000
B0414473201492S11655274EA0099401087000004000000
B0414513201436S11655233EA0099701089000004000000
B0414553201376S11655214EA0100401099000004000000
B0414593201332S11655248EA0101401110000004000000
B0415033201343S11655300EA0102801127000004000000
B0415073201392S11655307EA0103701128000004000000
B0415113201432S11655258EA0103201126000004000000
B0415153201427S11655188EA0103201129000004000000
B0415193201393S11655132EA0104201138000004000000
B0415233201344S11655125EA0104501140000004000000
B0415273201313S11655176EA0104601145000004000000
B0415313201332S11655233EA0106001162000004000000
B0415353201388S11655245EA0107701175000004000000
B0415393201434S11655205EA0108101178000004000000
B0415433201437S11655138EA0108601186000004000000
B0415473201402S11655094EA0109201192000004000000
B0415513201356S11655098EA0109601192000004000000
B0415553201322S11655144EA0109901197000004000000
B0415593201318S11655203EA0110301203000004000000
B0416033201353S11655250EA0111101215000004000000
B0416073201410S11655250EA0112301222000004000000
B0416113201448S11655196EA0111901220000004000000
B0416153201437S11655125EA0111801220000004000000
B0416193201388S11655089EA0111901219000004000000
B0416233201336S11655107EA0112501227000004000000
B0416273201300S11655155EA0112601228000004000000
B0416313201266S11655218EA0112801230000004000000
B0416353201229S11655280EA0113801240000004000000
B0416393201207S11655346EA0115401253000004000000
B0416433201241S11655402EA0116401261000004000000
B0416473201304S11655402EA0116801269000004000000
B0416513201353S11655350EA0117001272000004000000
B0416553201367S11655274EA0117101274000004000000
B0416593201336S11655211EA0117601281000004000000
B0417033201283S11655196EA0118501288000004000000
B0417073201240S11655233EA0119501299000004000000
B0417113201239S11655298EA0120001303000004000000
B0417153201284S11655346EA0120501305000004000000
B0417193201352S11655344EA0120801309000004000000
B0417233201408S11655292EA0121101311000004000000
B0417273201427S11655213EA0120901311000004000000
B0417313201401S11655142EA0121101313000004000000
B0417353201344S11655107EA0121501314000004000000
B0417393201285S11655125EA0121701319000004000000
B0417433201240S11655177EA0121801318000004000000
B0417473201198S11655241EA0122201324000004000000
B0417513201154S11655306EA0122101321000004000000
B0417553201106S11655370EA0121701313000004000000
B0417593201055S11655437EA0120601302000004000000
B0418033201003S11655508EA0119701296000004000000
B0418073200960S11655584EA0119701295000004000000
B0418113200921S11655657EA0119701295000004000000
B0418153200876S11655717EA0120001298000004000000
B0418193200824S11655766EA0120601305000004000000
B0418233200773S11655816EA0121601314000004000000
B0418273200725S11655863EA0122101319000004000000
B0418313200677S11655905EA0122601320000004000000
B0418353200630S11655950EA0122301317000004000000
B0418393200582S11655995EA0122101317000004000000
B0418433200533S11656042EA0122301317000004000000
B0418473200483S11656089EA0122201317000004000000
B0418513200434S11656134EA0122201316000004000000
B0418553200383S11656177EA0122201316000004000000
B0418593200330S11656220EA0122301315000004000000
B0419033200271S11656258EA0122301317000004000000
B0419073200215S11656294EA0122701326000004000000
B0419113200162S11656329EA0123701331000004000000
B0419153200109S11656370EA0123201320000004000000
B0419193200050S11656414EA0121901308000004000000
B0419233159987S11656454EA0121101303000004000000
B0419273159923S11656494EA0120801300000004000000
B0419313159861S11656535EA0120301294000004000000
B0419353159797S11656574EA0119501284000004000000
B0419393159731S11656611EA0118601276000004000000
B0419433159663S11656648EA0118201271000004000000
B0419473159594S11656682EA0117101258000004000000
B0419513159524S11656714EA0116101252000004000000
B0419553159452S11656747EA0115301242000004000000
B0419593159380S11656774EA0114201233000004000000
B0420033159311S11656800EA0113901232000004000000
B0420073159244S11656825EA0113901231000004000000
B0420113159182S11656851EA0113801231000004000000
B0420153159123S11656879EA0113701230000004000000
B0420193159065S11656908EA0113701228000004000000
B0420233159005S11656932EA0113301222000004000000
B0420273158944S11656956EA0112501214000004000000
B0420313158882S11656979EA0111701209000004000000
B0420353158818S11657001EA0111301203000004000000
B0420393158754S11657021EA0110801200000004000000
B0420433158689S11657043EA0110301194000004000000
B0420473158626S11657068EA0109601186000004000000
B0420513158562S11657095EA0108901180000004000000
B0420553158499S11657124EA0108801183000004000000
B0420593158440S11657151EA0109201185000004000000
B0421033158381S11657178EA0109201184000004000000
B0421073158321S11657204EA0109101181000004000000
B0421113158260S11657231EA0108501179000004000000
B0421153158202S11657260EA0108401176000004000000
B0421193158143S11657287EA0108301173000004000000
B0421233158087S11657317EA0108201176000004000000
B0421273158033S11657346EA0108801182000004000000
B0421313157976S11657355EA0109301188000004000000
B0421353157924S11657321EA0109801194000004000000
B0421393157909S11657256EA0111201208000004000000
B0421433157943S11657209EA0111901214000004000000
B0421473157995S11657215EA0112001214000004000000
B0421513158028S11657261EA0112301217000004000000
B0421553158021S11657321EA0112601220000004000000
B0421593157977S11657345EA0112801220000004000000
B0422033157934S11657307EA0112701221000004000000
B0422073157929S11657241EA0113301230000004000000
B0422113157961S11657189EA0114101235000004000000
B0422153158015S11657177EA0114301236000004000000
B0422193158056S11657212EA0114601238000004000000
B0422233158065S11657273EA0114601236000004000000
B0422273158048S11657335EA0114401235000004000000
B0422313158026S11657395EA0114201234000004000000
B0422353157999S11657456EA0114101232000004000000
B0422393157966S11657515EA0114001232000004000000
B0422433157929S11657571EA0113901231000004000000
B0422473157890S11657625EA0114101237000004000000
B0422513157855S11657677EA0115101246000004000000
B0422553157821S11657729EA0115501246000004000000
B0422593157790S11657785EA0115901255000004000000
B0423033157764S11657840EA0117301266000004000000
B0423073157760S11657901EA0118501279000004000000
B0423113157796S11657946EA0119501290000004000000
B0423153157853S11657946EA0120401292000004000000
B0423193157900S11657901EA0119701283000004000000
B0423233157917S11657828EA0118801277000004000000
B0423273157895S11657766EA0118301273000004000000
B0423313157847S11657736EA0117901272000004000000
B0423353157792S11657744EA0118301276000004000000
B0423393157744S11657779EA0119001286000004000000
B0423433157709S11657832EA0120301298000004000000
B0423473157725S11657889EA0121501313000004000000
B0423513157778S11657893EA0122301319000004000000
B0423553157812S11657833EA0122601319000004000000
B0423593157792S11657767EA0123701337000004000000
B0424033157743S11657744EA0125101349000004000000
B0424073157693S11657767EA0125501353000004000000
B0424113157648S11657809EA0125601351000004000000
B0424153157595S11657854EA0124801342000004000000
B0424193157535S11657901EA0123801332000004000000
B0424233157471S11657949EA0123201320000004000000
B0424273157407S11658004EA0122401314000004000000
B0424313157353S11658066EA0122601316000004000000
B0424353157326S11658139EA0123201323000004000000
B0424393157328S11658210EA0123501325000004000000
B0424433157365S11658262EA0123601327000004000000
B0424473157422S11658275EA0123701326000004000000
B0424513157478S11658243EA0123801330000004000000
B0424553157510S11658179EA0124301335000004000000
B0424593157511S11658102EA0124201328000004000000
B0425033157478S11658030EA0122701317000004000000
B0425073157420S11657969EA0122601318000004000000
B0425113157357S11657914EA0122101310000004000000
B0425153157290S11657859EA0121101300000004000000
B0425193157219S11657803EA0119801288000004000000
B0425233157145S11657750EA0119101280000004000000
B0425273157072S11657697EA0118401276000004000000
B0425313157001S11657641EA0118101271000004000000
B0425353156932S11657582EA0117401265000004000000
B0425393156864S11657520EA0117001259000004000000
B0425433156798S11657455EA0116201251000004000000
B0425473156731S11657389EA0115401243000004000000
B0425513156664S11657324EA0114801240000004000000
B0425553156599S11657261EA0114701239000004000000
B0425593156534S11657200EA0114401233000004000000
B0426033156468S11657138EA0113501225000004000000
B0426073156401S11657073EA0113001220000004000000
B0426113156336S11657010EA0112801220000004000000
B0426153156273S11656949EA0112501211000004000000
B0426193156209S11656892EA0112501221000004000000
B0426233156152S11656841EA0114201234000004000000
B0426273156098S11656793EA0114701236000004000000
B0426313156044S11656745EA0114501232000004000000
B0426353155985S11656697EA0114201230000004000000
B0426393155928S11656646EA0113501222000004000000
B0426433155871S11656591EA0112801211000004000000
B0426473155818S11656535EA0112601219000004000000
B0426513155767S11656484EA0113601227000004000000
B0426553155714S11656453EA0114001228000004000000
B0426593155654S11656457EA0113601221000004000000
B0427033155589S11656457EA0112301209000004000000
B0427073155519S11656441EA0111401202000004000000
B0427113155447S11656419EA0110701195000004000000
B0427153155378S11656394EA0110501193000004000000
B0427193155309S11656368EA0109901186000004000000
B0427233155239S11656341EA0109401180000004000000
B0427273155170S11656315EA0109201179000004000000
B0427313155100S11656289EA0108501172000004000000
B0427353155028S11656263EA0107601164000004000000
B0427393154956S11656241EA0107101160000004000000
B0427433154885S11656221EA0106701154000004000000
B0427473154814S11656202EA0106001147000004000000
B0427513154741S11656182EA0105401141000004000000
B0427553154671S11656162EA0104801136000004000000
B0427593154599S11656142EA0104201131000004000000
B0428033154529S11656125EA0104201132000004000000
B0428073154459S11656108EA0104301132000004000000
B0428113154391S11656093EA0104101134000004000000
B0428153154328S11656076EA0105001141000004000000
B0428193154267S11656058EA0104801137000004000000
B0428233154204S11656042EA0104101130000004000000
B0428273154141S11656025EA0103301123000004000000
B0428313154076S11656006EA0103201122000004000000
B0428353154012S11655989EA0103001119000004000000
B0428393153947S11655974EA0102701118000004000000
B0428433153883S11655957EA0102201111000004000000
B0428473153816S11655943EA0101601103000004000000
B0428513153748S11655929EA0101201096000004000000
B0428553153679S11655913EA0100801094000004000000
B0428593153611S11655894EA0100201085000004000000
B0429033153543S11655870EA0099401081000004000000
B0429073153476S11655850EA0099001073000004000000
B0429113153407S11655827EA0097501061000004000000
B0429153153338S11655804EA0096901053000004000000
B0429193153268S11655779EA0096301048000004000000
B0429233153202S11655753EA0096201047000004000000
B0429273153140S11655726EA0096401047000004000000
B0429313153081S11655700EA0096001045000004000000
B0429353153023S11655670EA0095801040000004000000
B0429393152963S11655640EA0095301036000004000000
B0429433152903S11655610EA0094801033000004000000
B0429473152846S11655583EA0094801035000004000000
B0429513152787S11655561EA0095001036000004000000
B0429553152730S11655539EA0094701033000004000000
B0429593152669S11655518EA0094301025000004000000
B0430033152605S11655501EA0093301016000004000000
B0430073152539S11655487EA0092501010000004000000
B0430113152473S11655473EA0092101007000004000000
B0430153152406S11655478EA0092201011000004000000
B0430193152343S11655496EA0092701019000004000000
B0430233152311S11655549EA0093801030000004000000
B0430273152344S11655597EA0094401031000004000000
B0430313152402S11655584EA0093901028000004000000
B0430353152434S11655522EA0093401027000004000000
B0430393152418S11655448EA0093201025000004000000
B0430433152378S11655391EA0093701033000004000000
B0430473152336S11655417EA0094701041000004000000
B0430513152365S11655467EA0095301048000004000000
B0430553152419S11655452EA0095501047000004000000
B0430593152428S11655378EA0095701051000004000000
B0431033152379S11655337EA0096001056000004000000
B0431073152340S11655371EA0097101072000004000000
B0431113152360S11655421EA0098001076000004000000
B0431153152414S11655422EA0097901074000004000000
B0431193152443S11655359EA0098201082000004000000
B0431233152412S11655304EA0099001088000004000000
B0431273152362S11655318EA0099101091000004000000
B0431313152366S11655374EA0100001102000004000000
B0431353152422S11655384EA0100501100000004000000
B0431393152453S11655320EA0100901108000004000000
B0431433152417S11655267EA0101701115000004000000
B0431473152370S11655289EA0102001119000004000000
B0431513152376S11655345EA0103001128000004000000
B0431553152430S11655357EA0103301131000004000000
B0431593152466S11655304EA0104201139000004000000
B0432033152443S11655241EA0104501141000004000000
B0432073152391S11655240EA0104801145000004000000
B0432113152373S11655289EA0105201151000004000000
B0432153152414S11655326EA0105901156000004000000
B0432193152467S11655300EA0106201162000004000000
B0432233152479S11655231EA0106901170000004000000
B0432273152443S11655183EA0107301173000004000000
B0432313152392S11655193EA0107301174000004000000
B0432353152373S11655249EA0107701175000004000000
B0432393152404S11655301EA0108201181000004000000
B0432433152464S11655302EA0108201178000004000000
B0432473152505S11655244EA0107901182000004000000
B0432513152491S11655175EA0108101180000004000000
B0432553152436S11655154EA0108301184000004000000
B0432593152386S11655187EA0108401184000004000000
B0433033152348S11655242EA0108601186000004000000
B0433073152313S11655304EA0109101191000004000000
B0433113152276S11655365EA0109701197000004000000
B0433153152241S11655424EA0109701193000004000000
B0433193152207S11655489EA0109001184000004000000
B0433233152171S11655553EA0109301190000004000000
B0433273152131S11655610EA0110101195000004000000
B0433313152093S11655669EA0110801199000004000000
B0433353152063S11655730EA0110801197000004000000
B0433393152025S11655790EA0110201190000004000000
B0433433151989S11655848EA0109401185000004000000
B0433473151953S11655905EA0109201180000004000000
B0433513151916S11655965EA0108301169000004000000
B0433553151881S11656025EA0107901169000004000000
B0433593151849S11656085EA0108301174000004000000
B0434033151819S11656146EA0108801181000004000000
B0434073151797S11656207EA0109801192000004000000
B0434113151830S11656253EA0111101199000004000000
B0434153151886S11656223EA0110801196000004000000
B0434193151892S11656141EA0111201206000004000000
B0434233151853S11656090EA0112501219000004000000
B0434273151804S11656099EA0113301224000004000000
B0434313151786S11656156EA0113201220000004000000
B0434353151820S11656211EA0113101221000004000000
B0434393151882S11656214EA0113601228000004000000
B0434433151928S11656162EA0113801230000004000000
B0434473151931S11656085EA0114301236000004000000
B0434513151889S11656037EA0114601239000004000000
B0434553151836S11656047EA0115001245000004000000
B0434593151806S11656099EA0115601251000004000000
B0435033151819S11656163EA0115601247000004000000
B0435073151868S11656198EA0115701251000004000000
B0435113151932S11656181EA0116201255000004000000
B0435153151976S11656116EA0116201257000004000000
B0435193151976S11656037EA0116701266000004000000
B0435233151937S11655983EA0117601270000004000000
B0435273151881S11655980EA0117301267000004000000
B0435313151836S11656017EA0117701275000004000000
B0435353151823S11656073EA0118901283000004000000
B0435393151840S11656129EA0118901281000004000000
B0435433151884S11656164EA0118701278000004000000
B0435473151945S11656165EA0118901284000004000000
B0435513152003S11656126EA0119501291000004000000
B0435553152040S11656060EA0119601294000004000000
B0435593152042S11655981EA0120101295000004000000
B0436033152011S11655916EA0119801290000004000000
B0436073151963S11655861EA0118801280000004000000
B0436113151906S11655816EA0118301273000004000000
B0436153151842S11655782EA0117101261000004000000
B0436193151773S11655760EA0116301257000004000000
B0436233151712S11655777EA0116901262000004000000
B0436273151677S11655831EA0117101263000004000000
B0436313151676S11655904EA0116601255000004000000
B0436353151704S11655972EA0116001251000004000000
B0436393151760S11656012EA0115601247000004000000
B0436433151827S11656038EA0114701237000004000000
B0436473151894S11656054EA0114901242000004000000
B0436513151966S11656069EA0114701238000004000000
B0436553152037S11656082EA0114101232000004000000
B0436593152110S11656090EA0113501226000004000000
B0437033152176S11656060EA0113601228000004000000
B0437073152207S11655987EA0113201225000004000000
B0437113152189S11655911EA0112501211000004000000
B0437153152131S11655859EA0110601199000004000000
B0437193152058S11655843EA0110401201000004000000
B0437233151994S11655863EA0111301216000004000000
B0437273151947S11655908EA0112701226000004000000
B0437313151923S11655973EA0113701234000004000000
B0437353151932S11656037EA0114301239000004000000
B0437393151960S11656097EA0113701232000004000000
B0437433151984S11656172EA0113401230000004000000
B0437473152007S11656247EA0114501244000004000000
B0437513152031S11656315EA0115301251000004000000
B0437553152058S11656377EA0115901257000004000000
B0437593152106S11656414EA0116701259000004000000
B0438033152168S11656396EA0116201249000004000000
B0438073152214S11656332EA0115301245000004000000
B0438113152233S11656251EA0115001244000004000000
B0438153152215S11656165EA0114101232000004000000
B0438193152174S11656091EA0113701230000004000000
B0438233152116S11656047EA0114401237000004000000
B0438273152055S11656047EA0114801241000004000000
B0438313152002S11656086EA0115001245000004000000
B0438353151968S11656152EA0115401250000004000000
B0438393151966S11656225EA0116201253000004000000
B0438433151992S11656295EA0115301243000004000000
B0438473152024S11656367EA0114101230000004000000
B0438513152059S11656442EA0112901220000004000000
B0438553152098S11656516EA0112101214000004000000
B0438593152137S11656589EA0111601206000004000000
B0439033152179S11656663EA0110701198000004000000
B0439073152222S11656736EA0109901190000004000000
B0439113152270S11656804EA0109401190000004000000
B0439153152315S11656870EA0109801190000004000000
B0439193152363S11656935EA0109901188000004000000
B0439233152412S11656999EA0109701192000004000000
B0439273152458S11657059EA0110101193000004000000
B0439313152503S11657120EA0109901190000004000000
B0439353152547S11657181EA0109801188000004000000
B0439393152590S11657241EA0109501183000004000000
B0439433152634S11657300EA0109101181000004000000
B0439473152678S11657356EA0108801177000004000000
B0439513152725S11657412EA0108301171000004000000
B0439553152770S11657469EA0107601163000004000000
B0439593152816S11657528EA0106401152000004000000
B0440033152864S11657586EA0105701144000004000000
B0440073152912S11657642EA0105301140000004000000
B0440113152960S11657697EA0105001139000004000000
B0440153153010S11657748EA0105101140000004000000
B0440193153062S11657793EA0104801137000004000000
B0440233153114S11657839EA0104701137000004000000
B0440273153164S11657884EA0105201141000004000000
B0440313153215S11657927EA0105301143000004000000
B0440353153262S11657969EA0106001151000004000000
B0440393153307S11658005EA0106201153000004000000
B0440433153353S11658036EA0106601154000004000000
B0440473153398S11658071EA0106301150000004000000
B0440513153448S11658101EA0106801158000004000000
B0440553153497S11658082EA0107201159000004000000
B0440593153501S11658014EA0107501165000004000000
B0441033153449S11657982EA0108301171000004000000
B0441073153401S11658010EA0108601174000004000000
B0441113153390S11658073EA0108701173000004000000
B0441153153424S11658122EA0109001178000004000000
B0441193153478S11658119EA0108901180000004000000
B0441233153517S11658070EA0108801178000004000000
B0441273153527S11658000EA0108701179000004000000
B0441313153511S11657933EA0109101183000004000000
B0441353153457S11657917EA0109301186000004000000
B0441393153415S11657959EA0109801190000004000000
B0441433153424S11658023EA0110301196000004000000
B0441473153471S11658050EA0111101202000004000000
B0441513153518S11658014EA0111001201000004000000
B0441553153517S11657948EA0111301207000004000000
B0441593153467S11657923EA0111701210000004000000
B0442033153426S11657962EA0112201216000004000000
B0442073153424S11658023EA0112601219000004000000
B0442113153463S11658061EA0112801222000004000000
B0442153153515S11658045EA0113001221000004000000
B0442193153544S11657988EA0113001226000004000000
B0442233153530S11657922EA0113701230000004000000
B0442273153481S11657884EA0114101236000004000000
B0442313153427S11657897EA0114401241000004000000
B0442353153397S11657952EA0114901243000004000000
B0442393153415S11658014EA0115001243000004000000
B0442433153466S11658040EA0115101245000004000000
B0442473153519S11658010EA0115001244000004000000
B0442513153543S11657943EA0115301248000004000000
B0442553153519S11657876EA0116001260000004000000
B0442593153466S11657862EA0117101267000004000000
B0443033153431S11657909EA0117701272000004000000
B0443073153450S11657969EA0117801271000004000000
B0443113153507S11657978EA0118101279000004000000
B0443153153553S11657935EA0119301289000004000000
B0443193153559S11657867EA0120001300000004000000
B0443233153523S11657820EA0120501302000004000000
B0443273153471S11657828EA0120201297000004000000
B0443313153448S11657888EA0120501303000004000000
B0443353153474S11657946EA0121101308000004000000
B0443393153527S11657971EA0122001316000004000000
B0443433153580S11657953EA0122901326000004000000
B0443473153602S11657894EA0122801323000004000000
B0443513153578S11657832EA0122801325000004000000
B0443553153524S11657807EA0123301329000004000000
B0443593153476S11657836EA0123401329000004000000
B0444033153466S11657898EA0123501331000004000000
B0444073153504S11657956EA0123001323000004000000
B0444113153565S11657996EA0122901323000004000000
B0444153153631S11658031EA0122401315000004000000
B0444193153702S11658063EA0121101305000004000000
B0444233153775S11658093EA0120501297000004000000
B0444273153849S11658123EA0120001293000004000000
B0444313153922S11658152EA0119901289000004000000
B0444353153995S11658182EA0119201282000004000000
B0444393154068S11658213EA0118301275000004000000
B0444433154139S11658247EA0117801270000004000000
B0444473154211S11658278EA0117101261000004000000
B0444513154284S11658310EA0116001250000004000000
B0444553154354S11658340EA0115701246000004000000
B0444593154425S11658370EA0115301240000004000000
B0445033154495S11658401EA0114901237000004000000
B0445073154566S11658431EA0114601234000004000000
B0445113154636S11658459EA0113901228000004000000
B0445153154705S11658483EA0113301222000004000000
B0445193154772S11658507EA0112701215000004000000
B0445233154840S11658529EA0112101211000004000000
B0445273154906S11658550EA0111701207000004000000
B0445313154974S11658569EA0111301201000004000000
B0445353155041S11658583EA0110701193000004000000
B0445393155109S11658590EA0110401196000004000000
B0445433155174S11658602EA0110701195000004000000
B0445473155239S11658620EA0110101192000004000000
B0445513155300S11658642EA0110501196000004000000
B0445553155356S11658659EA0111101204000004000000
B0445593155409S11658680EA0111001197000004000000
B0446033155461S11658713EA0110201188000004000000
B0446073155517S11658743EA0109701183000004000000
B0446113155580S11658751EA0109501183000004000000
B0446153155643S11658743EA0109501184000004000000
B0446193155706S11658729EA0109201179000004000000
B0446233155771S11658708EA0108601173000004000000
B0446273155837S11658690EA0107901167000004000000
B0446313155905S11658673EA0107301159000004000000
B0446353155972S11658658EA0106401151000004000000
B0446393156042S11658643EA0105301141000004000000
B0446433156115S11658628EA0104501133000004000000
B0446473156187S11658612EA0104101130000004000000
B0446513156256S11658598EA0104101133000004000000
B0446553156318S11658583EA0104001129000004000000
B0446593156383S11658568EA0103301122000004000000
B0447033156448S11658552EA0102701117000004000000
B0447073156513S11658541EA0102401112000004000000
B0447113156577S11658531EA0101801107000004000000
B0447153156640S11658521EA0101201102000004000000
B0447193156702S11658511EA0100901098000004000000
B0447233156761S11658500EA0101001098000004000000
B0447273156820S11658487EA0100701096000004000000
B0447313156880S11658472EA0100201089000004000000
B0447353156941S11658453EA0099501082000004000000
B0447393157003S11658438EA0098801074000004000000
B0447433157068S11658424EA0098001068000004000000
B0447473157133S11658416EA0097501063000004000000
B0447513157198S11658408EA0097001058000004000000
B0447553157262S11658403EA0096701056000004000000
B0447593157323S11658396EA0097001064000004000000
B0448033157380S11658391EA0097801069000004000000
B0448073157439S11658390EA0098301074000004000000
B0448113157496S11658391EA0098901080000004000000
B0448153157540S11658348EA0098901077000004000000
B0448193157532S11658279EA0098601074000004000000
B0448233157482S11658245EA0098901083000004000000
B0448273157432S11658274EA0100201094000004000000
B0448313157426S11658334EA0100601096000004000000
B0448353157466S11658365EA0100101090000004000000
B0448393157518S11658336EA0099601087000004000000
B0448433157561S11658284EA0099301084000004000000
B0448473157599S11658223EA0099401082000004000000
B0448513157602S11658151EA0099301086000004000000
B0448553157552S11658110EA0099901091000004000000
B0448593157501S11658144EA0100501098000004000000
B0449033157496S11658213EA0101501107000004000000
B0449073157539S11658265EA0102201116000004000000
B0449113157600S11658261EA0103201122000004000000
B0449153157643S11658213EA0103401126000004000000
B0449193157648S11658143EA0103301124000004000000
B0449233157610S11658086EA0103801129000004000000
B0449273157552S11658079EA0104401137000004000000
B0449313157510S11658127EA0105101144000004000000
B0449353157511S11658199EA0105801152000004000000
B0449393157549S11658260EA0107001162000004000000
B0449433157604S11658291EA0107601164000004000000
B0449473157666S11658282EA0107001160000004000000
B0449513157706S11658230EA0107001163000004000000
B0449553157706S11658162EA0107201161000004000000
B0449593157666S11658112EA0107001160000004000000
B0450033157610S11658095EA0107201161000004000000
B0450073157549S11658108EA0107201160000004000000
B0450113157496S11658141EA0108001172000004000000
B0450153157478S11658203EA0109101185000004000000
B0450193157515S11658248EA0109901191000004000000
B0450233157567S11658218EA0110401198000004000000
B0450273157571S11658152EA0111101206000004000000
B0450313157527S11658131EA0112801223000004000000
B0450353157493S11658171EA0113301228000004000000
B0450393157508S11658230EA0114001236000004000000
B0450433157560S11658247EA0114801238000004000000
B0450473157606S11658210EA0114501237000004000000
B0450513157614S11658143EA0114701239000004000000
B0450553157580S11658089EA0115001242000004000000
B0450593157526S11658078EA0115101241000004000000
B0451033157478S11658115EA0115601249000004000000
B0451073157476S11658182EA0116801261000004000000
B0451113157526S11658214EA0117501267000004000000
B0451153157578S11658179EA0118201272000004000000
B0451193157576S11658113EA0118801280000004000000
B0451233157530S11658087EA0119201281000004000000
B0451273157480S11658122EA0119401285000004000000
B0451313157466S11658191EA0120201295000004000000
B0451353157488S11658256EA0121001300000004000000
B0451393157536S11658290EA0120901297000004000000
B0451433157597S11658290EA0119701284000004000000
B0451473157665S11658277EA0118401271000004000000
B0451513157731S11658264EA0118001269000004000000
B0451553157799S11658252EA0117601262000004000000
B0451593157870S11658242EA0116501251000004000000
B0452033157944S11658229EA0115401241000004000000
B0452073158016S11658217EA0115501246000004000000
B0452113158085S11658212EA0115601243000004000000
B0452153158155S11658209EA0114801232000004000000
B0452193158228S11658208EA0113201218000004000000
B0452233158306S11658203EA0112301208000004000000
B0452273158382S11658191EA0112101208000004000000
B0452313158455S11658174EA0111701205000004000000
B0452353158525S11658153EA0111201200000004000000
B0452393158597S11658130EA0110501191000004000000
B0452433158670S11658104EA0109601181000004000000
B0452473158745S11658079EA0108501172000004000000
B0452513158821S11658056EA0107501164000004000000
B0452553158896S11658032EA0107301163000004000000
B0452593158970S11658010EA0107301163000004000000
B0453033159043S11657989EA0107301160000004000000
B0453073159117S11657967EA0106701153000004000000
B0453113159190S11657945EA0106301152000004000000
B0453153159260S11657926EA0106001149000004000000
B0453193159329S11657907EA0105901147000004000000
B0453233159398S11657887EA0105601146000004000000
B0453273159464S11657866EA0105901149000004000000
B0453313159528S11657844EA0106001148000004000000
B0453353159591S11657824EA0105801145000004000000
B0453393159656S11657806EA0105701145000004000000
B0453433159720S11657788EA0105501143000004000000
B0453473159784S11657768EA0105201138000004000000
B0453513159849S11657745EA0104301130000004000000
B0453553159915S11657724EA0103401121000004000000
B0453593159984S11657703EA0102701114000004000000
B0454033200054S11657686EA0102101105000004000000
B0454073200126S11657668EA0100901097000004000000
B0454113200195S11657650EA0101001101000004000000
B0454153200260S11657634EA0101601109000004000000
B0454193200321S11657618EA0102501114000004000000
B0454233200386S11657602EA0101701104000004000000
B0454273200455S11657593EA0101601106000004000000
B0454313200522S11657584EA0102301114000004000000
B0454353200587S11657571EA0102801119000004000000
B0454393200651S11657553EA0103301123000004000000
B0454433200717S11657534EA0103301121000004000000
B0454473200785S11657517EA0102901117000004000000
B0454513200854S11657503EA0102401114000004000000
B0454553200921S11657490EA0102601117000004000000
B0454593200986S11657468EA0104101130000004000000
B0455033200998S11657404EA0105501146000004000000
B0455073200953S11657376EA0106001150000004000000
B0455113200916S11657417EA0106501157000004000000
B0455153200937S11657472EA0107401166000004000000
B0455193200990S11657464EA0108101174000004000000
B0455233201008S11657404EA0109001181000004000000
B0455273200971S11657358EA0109101179000004000000
B0455313200923S11657380EA0109501186000004000000
B0455353200919S11657441EA0109701187000004000000
B0455393200963S11657482EA0110401196000004000000
B0455433201020S11657485EA0111201203000004000000
B0455473201064S11657442EA0111601210000004000000
B0455513201064S11657377EA0112701220000004000000
B0455553201020S11657346EA0113101220000004000000
B0455593200975S11657374EA0113101221000004000000
B0456033200969S11657436EA0113301227000004000000
B0456073201001S11657486EA0113901232000004000000
B0456113201055S11657506EA0114601236000004000000
B0456153201107S11657472EA0115101243000004000000
B0456193201114S11657407EA0115901254000004000000
B0456233201066S11657381EA0116301257000004000000
B0456273201025S11657429EA0116101255000004000000
B0456313201045S11657493EA0117001265000004000000
B0456353201102S11657501EA0117401268000004000000
B0456393201148S11657451EA0117901275000004000000
B0456433201158S11657382EA0119101289000004000000
B0456473201131S11657326EA0120301298000004000000
B0456513201079S11657312EA0120701299000004000000
B0456553201032S11657346EA0120701296000004000000
B0456593201020S11657413EA0120501297000004000000
B0457033201054S11657468EA0121001303000004000000
B0457073201114S11657491EA0121101302000004000000
B0457113201183S11657489EA0121201304000004000000
B0457153201254S11657481EA0121601308000004000000
B0457193201327S11657476EA0121501301000004000000
B0457233201405S11657471EA0120201288000004000000
B0457273201484S11657467EA0119201281000004000000
B0457313201561S11657463EA0118801277000004000000
B0457353201638S11657458EA0118501272000004000000
B0457393201713S11657451EA0117801267000004000000
B0457433201786S11657443EA0117601264000004000000
B0457473201857S11657432EA0117101260000004000000
B0457513201930S11657421EA0116501251000004000000
B0457553202003S11657416EA0115701247000004000000
B0457593202074S11657412EA0115801246000004000000
B0458033202147S11657406EA0115301237000004000000
B0458073202221S11657398EA0114601232000004000000
B0458113202297S11657391EA0114101227000004000000
B0458153202371S11657387EA0113901225000004000000
B0458193202442S11657389EA0113301219000004000000
B0458233202514S11657389EA0112901216000004000000
B0458273202584S11657387EA0112601211000004000000
B0458313202653S11657386EA0112101207000004000000
B0458353202721S11657384EA0111801204000004000000
B0458393202786S11657377EA0111401199000004000000
B0458433202853S11657372EA0110701191000004000000
B0458473202923S11657368EA0109601179000004000000
B0458513202995S11657368EA0108801175000004000000
B0458553203064S11657367EA0108601174000004000000
B0458593203131S11657368EA0108201168000004000000
B0459033203199S11657368EA0107401157000004000000
B0459073203268S11657364EA0106801154000004000000
B0459113203337S11657352EA0106801155000004000000
B0459153203403S11657339EA0106701154000004000000
B0459193203467S11657328EA0106401148000004000000
B0459233203532S11657313EA0105501140000004000000
B0459273203598S11657303EA0105401142000004000000
B0459313203664S11657298EA0106001151000004000000
B0459353203728S11657291EA0107301165000004000000
B0459393203781S11657260EA0108601177000004000000
B0459433203802S11657198EA0109801188000004000000
B0459473203783S11657139EA0111101200000004000000
B0459513203738S11657109EA0111601202000004000000
B0459553203690S11657127EA0111701207000004000000
B0459593203671S11657181EA0112801216000004000000
B0500033203689S11657230EA0113001218000004000000
B0500073203738S11657256EA0113101219000004000000
B0500113203796S11657239EA0113301226000004000000
B0500153203831S11657183EA0114101237000004000000
B0500193203822S11657116EA0115201243000004000000
B0500233203774S11657085EA0115701251000004000000
B0500273203728S11657104EA0116601259000004000000
B0500313203714S11657159EA0117401264000004000000
B0500353203741S11657208EA0117701267000004000000
B0500393203793S11657231EA0117801267000004000000
B0500433203849S11657208EA0118101276000004000000
B0500473203871S11657144EA0119101287000004000000
B0500513203844S11657088EA0119901293000004000000
B0500553203790S11657081EA0120001294000004000000
B0500593203755S11657127EA0120601301000004000000
B0501033203758S11657189EA0121301305000004000000
B0501073203800S11657230EA0121501307000004000000
B0501113203859S11657233EA0121901311000004000000
B0501153203923S11657212EA0122101311000004000000
B0501193203989S11657187EA0121901306000004000000
B0501233204061S11657161EA0121201297000004000000
B0501273204138S11657139EA0120201288000004000000
B0501313204218S11657121EA0119201279000004000000
B0501353204299S11657108EA0118701272000004000000
B0501393204378S11657096EA0118001265000004000000
B0501433204456S11657087EA0117401260000004000000
B0501473204534S11657078EA0116901255000004000000
B0501513204612S11657073EA0116501251000004000000
B0501553204690S11657066EA0116301248000004000000
B0501593204767S11657061EA0115701244000004000000
B0502033204843S11657059EA0115101235000004000000
B0502073204923S11657060EA0114301229000004000000
B0502113205001S11657069EA0114101227000004000000
B0502153205077S11657087EA0113901222000004000000
B0502193205154S11657105EA0113301216000004000000
B0502233205231S11657120EA0112701212000004000000
B0502273205308S11657134EA0112301206000004000000
B0502313205383S11657150EA0111901206000004000000
B0502353205454S11657163EA0112101211000004000000
B0502393205523S11657177EA0112301207000004000000
B0502433205592S11657195EA0111601200000004000000
B0502473205662S11657216EA0111101196000004000000
B0502513205731S11657238EA0110601192000004000000
B0502553205798S11657263EA0110001187000004000000
B0502593205863S11657293EA0109501178000004000000
B0503033205929S11657324EA0108401170000004000000
B0503073205995S11657356EA0107801166000004000000
B0503113206060S11657387EA0107501163000004000000
B0503153206124S11657419EA0107001158000004000000
B0503193206189S11657450EA0106501154000004000000
B0503233206253S11657480EA0106201151000004000000
B0503273206316S11657507EA0106601156000004000000
B0503313206377S11657533EA0107001161000004000000
B0503353206432S11657562EA0107401164000004000000
B0503393206488S11657590EA0107101158000004000000
B0503433206545S11657620EA0106601152000004000000
B0503473206604S11657655EA0106201150000004000000
B0503513206661S11657693EA0106301152000004000000
B0503553206717S11657731EA0106201150000004000000
B0503593206774S11657768EA0106401154000004000000
B0504033206830S11657802EA0106901156000004000000
B0504073206886S11657832EA0107001157000004000000
B0504113206948S11657835EA0106801149000004000000
B0504153207001S11657793EA0105901147000004000000
B0504193207031S11657725EA0105601141000004000000
B0504233207033S11657650EA0104701133000004000000
B0504273206999S11657589EA0104001126000004000000
B0504313206943S11657569EA0103501121000004000000
B0504353206888S11657607EA0102801115000004000000
B0504393206858S11657683EA0101201099000004000000
B0504433206843S11657772EA0100301090000004000000
B0504473206829S11657866EA0099701085000004000000
B0504513206813S11657959EA0099101081000004000000
B0504553206795S11658050EA0099001082000004000000
B0504593206773S11658138EA0099101085000004000000
B0505033206748S11658218EA0099901092000004000000
B0505073206727S11658294EA0100701099000004000000
B0505113206704S11658369EA0100901097000004000000
B0505153206680S11658446EA0100701096000004000000
B0505193206661S11658525EA0100801097000004000000
B0505233206644S11658607EA0100801099000004000000
B0505273206632S11658689EA0101701111000004000000
B0505313206623S11658769EA0102401115000004000000
B0505353206618S11658850EA0102901120000004000000
B0505393206647S11658915EA0104101134000004000000
B0505433206704S11658919EA0105501147000004000000
B0505473206732S11658863EA0106001150000004000000
B0505513206700S11658808EA0105801149000004000000
B0505553206644S11658811EA0105701149000004000000
B0505593206606S11658860EA0105601146000004000000
B0506033206584S11658929EA0105901152000004000000
B0506073206569S11659001EA0106401156000004000000
B0506113206559S11659075EA0106701161000004000000
B0506153206582S11659135EA0107801171000004000000
B0506193206636S11659146EA0108801176000004000000
B0506233206688S11659106EA0108501175000004000000
B0506273206722S11659042EA0108501176000004000000
B0506313206718S11658971EA0108801183000004000000
B0506353206676S11658921EA0109501188000004000000
B0506393206622S11658915EA0110401196000004000000
B0506433206584S11658957EA0110601196000004000000
B0506473206582S11659023EA0109901190000004000000
B0506513206588S11659092EA0110001193000004000000
B0506553206596S11659162EA0110301195000004000000
B0506593206593S11659232EA0110701201000004000000
B0507033206585S11659298EA0111401209000004000000
B0507073206578S11659365EA0112001210000004000000
B0507113206569S11659432EA0112001211000004000000
B0507153206562S11659500EA0112401214000004000000
B0507193206556S11659568EA0112501211000004000000
B0507233206552S11659636EA0111601202000004000000
B0507273206543S11659709EA0110901198000004000000
B0507313206531S11659781EA0110501193000004000000
B0507353206511S11659854EA0110001187000004000000
B0507393206489S11659924EA0109801186000004000000
B0507433206463S11659990EA0109801181000004000000
B0507473206436S11700058EA0108801170000004000000
B0507513206410S11700128EA0107701162000004000000
B0507553206390S11700198EA0107401159000004000000
B0507593206394S11700268EA0106901157000004000000
B0508033206427S11700325EA0106901154000004000000
B0508073206481S11700362EA0106301149000004000000
B0508113206545S11700384EA0105701140000004000000
B0508153206611S11700400EA0104801135000004000000
B0508193206678S11700415EA0103901125000004000000
B0508233206744S11700429EA0103301119000004000000
B0508273206809S11700446EA0102601111000004000000
B0508313206877S11700462EA0102301111000004000000
B0508353206943S11700483EA0102101108000004000000
B0508393207012S11700505EA0101601103000004000000
B0508433207081S11700527EA0101201099000004000000
B0508473207150S11700554EA0101301102000004000000
B0508513207216S11700579EA0102101112000004000000
B0508553207281S11700604EA0102301111000004000000
B0508593207345S11700627EA0102201111000004000000
B0509033207410S11700650EA0102201110000004000000
B0509073207473S11700665EA0103201124000004000000
B0509113207521S11700631EA0104901139000004000000
B0509153207511S11700567EA0105301139000004000000
B0509193207459S11700557EA0104701139000004000000
B0509233207423S11700602EA0104901138000004000000
B0509273207416S11700667EA0104801142000004000000
B0509313207423S11700732EA0106201159000004000000
B0509353207468S11700765EA0107201162000004000000
B0509393207523S11700740EA0107301169000004000000
B0509433207532S11700675EA0108301178000004000000
B0509473207489S11700632EA0109001185000004000000
B0509513207440S11700654EA0109301188000004000000
B0509553207433S11700717EA0110001194000004000000
B0509593207473S11700764EA0110501199000004000000
B0510033207534S11700777EA0110601196000004000000
B0510073207605S11700782EA0110001190000004000000
B0510113207677S11700784EA0109901188000004000000
B0510153207752S11700790EA0109601184000004000000
B0510193207826S11700793EA0109001176000004000000
B0510233207901S11700800EA0108401169000004000000
B0510273207979S11700806EA0107501161000004000000
B0510313208057S11700814EA0106801154000004000000
B0510353208135S11700826EA0105901144000004000000
B0510393208213S11700842EA0104901135000004000000
B0510433208288S11700858EA0104601133000004000000
B0510473208361S11700875EA0104801136000004000000
B0510513208430S11700892EA0105101139000004000000
B0510553208495S11700908EA0105101141000004000000
B0510593208559S11700933EA0105101141000004000000
B0511033208617S11700962EA0106101154000004000000
B0511073208672S11700990EA0107201160000004000000
B0511113208721S11701025EA0107301158000004000000
B0511153208766S11701078EA0106301149000004000000
B0511193208793S11701151EA0105401140000004000000
B0511233208788S11701232EA0104901136000004000000
B0511273208750S11701297EA0105101139000004000000
B0511313208688S11701323EA0105501144000004000000
B0511353208626S11701302EA0106101146000004000000
B0511393208586S11701239EA0105801144000004000000
B0511433208589S11701160EA0105801143000004000000
B0511473208633S11701096EA0105601141000004000000
B0511513208697S11701056EA0105701145000004000000
B0511553208763S11701020EA0106201147000004000000
B0511593208823S11700974EA0106001145000004000000
B0512033208879S11700920EA0105401135000004000000
B0512073208933S11700852EA0104301125000004000000
B0512113208985S11700779EA0103401120000004000000
B0512153209037S11700706EA0103001117000004000000
B0512193209087S11700632EA0102601111000004000000
B0512233209137S11700558EA0101601103000004000000
B0512273209191S11700487EA0101201097000004000000
B0512313209244S11700419EA0100801095000004000000
B0512353209296S11700351EA0100101085000004000000
B0512393209349S11700284EA0099401076000004000000
B0512433209405S11700218EA0098401068000004000000
B0512473209457S11700149EA0097901065000004000000
B0512513209507S11700081EA0097601060000004000000
B0512553209552S11700013EA0097101055000004000000
B0512593209592S11659941EA0096501050000004000000
B0513033209629S11659864EA0095801042000004000000
B0513073209660S11659782EA0095201035000004000000
B0513113209679S11659696EA0094801034000004000000
B0513153209709S11659616EA0094901039000004000000
B0513193209751S11659549EA0095901049000004000000
B0513233209794S11659491EA0096401050000004000000
B0513273209833S11659431EA0096101046000004000000
B0513313209871S11659366EA0095501041000004000000
B0513353209907S11659298EA0095301040000004000000
B0513393209939S11659230EA0095301040000004000000
B0513433209969S11659159EA0095601046000004000000
B0513473209998S11659094EA0096401053000004000000
B0513513210028S11659028EA0096601052000004000000
B0513553210067S11658962EA0096701055000004000000
B0513593210073S11658888EA0097801069000004000000
B0514033210029S11658849EA0099001076000004000000
B0514073209986S11658880EA0099101078000004000000
B0514113209993S11658940EA0098701077000004000000
B0514153210038S11658973EA0098601074000004000000
B0514193210099S11658966EA0098101071000004000000
B0514233210159S11658925EA0098701077000004000000
B0514273210181S11658859EA0099401086000004000000
B0514313210154S11658803EA0099901094000004000000
B0514353210102S11658799EA0100701103000004000000
B0514393210073S11658843EA0102201117000004000000
B0514433210094S11658895EA0103201127000004000000
B0514473210149S11658912EA0103901132000004000000
B0514513210199S11658876EA0104601140000004000000
B0514553210201S11658811EA0104701138000004000000
B0514593210158S11658772EA0105401148000004000000
B0515033210118S11658797EA0106201158000004000000
B0515073210132S11658849EA0107101164000004000000
B0515113210193S11658851EA0107601169000004000000
B0515153210229S11658793EA0108001174000004000000
B0515193210215S11658724EA0108901185000004000000
B0515233210171S11658699EA0110401201000004000000
B0515273210134S11658728EA0111601209000004000000
B0515313210140S11658786EA0112101212000004000000
B0515353210190S11658819EA0113101224000004000000
B0515393210250S11658791EA0113901230000004000000
B0515433210271S11658724EA0114601236000004000000
B0515473210244S11658665EA0115001242000004000000
B0515513210192S11658656EA0115501246000004000000
B0515553210157S11658706EA0116101254000004000000
B0515593210172S11658773EA0117101262000004000000
B0516033210225S11658806EA0118401279000004000000
B0516073210284S11658788EA0119901292000004000000
B0516113210306S11658728EA0120001290000004000000
B0516153210280S11658671EA0120301294000004000000
B0516193210232S11658658EA0120801301000004000000
B0516233210190S11658690EA0121501310000004000000
B0516273210189S11658751EA0122201313000004000000
B0516313210220S11658815EA0122101313000004000000
B0516353210250S11658879EA0122301311000004000000
B0516393210274S11658946EA0121201300000004000000
B0516433210296S11659019EA0120101291000004000000
B0516473210318S11659093EA0119201281000004000000
B0516513210331S11659175EA0118501275000004000000
B0516553210336S11659257EA0118401275000004000000
B0516593210341S11659337EA0118301274000004000000
B0517033210348S11659417EA0118001271000004000000
B0517073210354S11659493EA0118301275000004000000
B0517113210362S11659568EA0118301271000004000000
B0517153210372S11659646EA0117401261000004000000
B0517193210389S11659726EA0116201250000004000000
B0517233210409S11659807EA0115901247000004000000
B0517273210423S11659883EA0115801248000004000000
B0517313210435S11659959EA0115901245000004000000
B0517353210441S11700033EA0115501243000004000000
B0517393210446S11700106EA0115401243000004000000
B0517433210450S11700179EA0115401242000004000000
B0517473210469S11700250EA0115101242000004000000
B0517513210504S11700316EA0115701248000004000000
B0517553210545S11700376EA0116101252000004000000
B0517593210588S11700432EA0116701257000004000000
B0518033210630S11700487EA0116801256000004000000
B0518073210674S11700541EA0116301250000004000000
B0518113210721S11700596EA0115301238000004000000
B0518153210768S11700653EA0114301229000004000000
B0518193210808S11700717EA0113501222000004000000
B0518233210839S11700786EA0113201221000004000000
B0518273210868S11700855EA0113201221000004000000
B0518313210892S11700922EA0113201222000004000000
B0518353210911S11700994EA0112901216000004000000
B0518393210912S11701072EA0112301209000004000000
B0518433210900S11701151EA0112101211000004000000
B0518473210887S11701229EA0112501213000004000000
B0518513210874S11701304EA0112601214000004000000
B0518553210860S11701377EA0112401210000004000000
B0518593210847S11701454EA0111901204000004000000
B0519033210840S11701533EA0111001197000004000000
B0519073210833S11701611EA0110701194000004000000
B0519113210822S11701687EA0110401194000004000000
B0519153210807S11701761EA0110101187000004000000
B0519193210790S11701837EA0109301178000004000000
B0519233210771S11701917EA0108501171000004000000
B0519273210752S11701996EA0108101167000004000000
B0519313210731S11702073EA0107601164000004000000
B0519353210703S11702144EA0107301163000004000000
B0519393210671S11702208EA0107101162000004000000
B0519433210641S11702269EA0107001158000004000000
B0519473210613S11702331EA0107001157000004000000
B0519513210583S11702392EA0106401151000004000000
B0519553210557S11702459EA0105701142000004000000
B0519593210530S11702524EA0105101137000004000000
B0520033210505S11702590EA0104601135000004000000
B0520073210482S11702654EA0105101139000004000000
B0520113210459S11702716EA0104901138000004000000
B0520153210441S11702780EA0104801135000004000000
B0520193210422S11702846EA0105101141000004000000
B0520233210405S11702912EA0106301153000004000000
B0520273210393S11702977EA0107901167000004000000
B0520313210424S11703028EA0108801177000004000000
B0520353210484S11703015EA0109101180000004000000
B0520393210497S11702948EA0110001193000004000000
B0520433210457S11702911EA0111101201000004000000
B0520473210414S11702941EA0111801208000004000000
B0520513210417S11703006EA0112401216000004000000
B0520553210469S11703039EA0114101233000004000000
B0520593210518S11703005EA0115101240000004000000
B0521033210518S11702938EA0115501244000004000000
B0521073210474S11702902EA0115901247000004000000
B0521113210420S11702922EA0116301256000004000000
B0521153210398S11702983EA0117401269000004000000
B0521193210432S11703037EA0118601278000004000000
B0521233210492S11703044EA0118801277000004000000
B0521273210544S11703000EA0118701280000004000000
B0521313210558S11702932EA0119701292000004000000
B0521353210522S11702894EA0120601296000004000000
B0521393210474S11702919EA0120701299000004000000
B0521433210446S11702979EA0121201304000004000000
B0521473210426S11703046EA0121401306000004000000
B0521513210404S11703115EA0121001297000004000000
B0521553210375S11703188EA0120001286000004000000
B0521593210339S11703261EA0119001277000004000000
B0522033210301S11703336EA0118201274000004000000
B0522073210262S11703412EA0118001269000004000000
B0522113210224S11703486EA0117301261000004000000
B0522153210184S11703560EA0117101261000004000000
B0522193210145S11703634EA0117101259000004000000
B0522233210105S11703708EA0116601250000004000000
B0522273210066S11703783EA0115701244000004000000
B0522313210028S11703856EA0115201240000004000000
B0522353209994S11703929EA0114901237000004000000
B0522393209962S11704001EA0115001237000004000000
B0522433209934S11704069EA0115601249000004000000
B0522473209911S11704132EA0117001262000004000000
B0522513209890S11704189EA0117601262000004000000
B0522553209867S11704248EA0117001258000004000000
B0522593209842S11704307EA0117101261000004000000
B0523033209820S11704366EA0117401262000004000000
B0523073209796S11704424EA0117501266000004000000
B0523113209772S11704478EA0118601275000004000000
B0523153209746S11704528EA0119201279000004000000
B0523193209720S11704583EA0118801274000004000000
B0523233209689S11704635EA0118601271000004000000
B0523273209657S11704691EA0118101268000004000000
B0523313209625S11704747EA0118501274000004000000
B0523353209592S11704796EA0118501266000004000000
B0523393209556S11704849EA0117101251000004000000
B0523433209520S11704904EA0116401252000004000000
B0523473209486S11704959EA0117101257000004000000
B0523513209455S11705015EA0117301263000004000000
B0523553209427S11705068EA0118601276000004000000
B0523593209406S11705125EA0119801286000004000000
B0524033209427S11705182EA0120401291000004000000
B0524073209483S11705185EA0120401290000004000000
B0524113209512S11705122EA0120201290000004000000
B0524153209490S11705059EA0120601294000004000000
B0524193209442S11705039EA0121501306000004000000
B0524233209401S11705074EA0122401312000004000000
B0524273209369S11705129EA0122601318000004000000
B0524313209335S11705186EA0123001320000004000000
B0524353209302S11705247EA0123601327000004000000
B0524393209266S11705307EA0123601324000004000000
B0524433209219S11705362EA0123501321000004000000
B0524473209171S11705414EA0123401322000004000000
B0524513209126S11705467EA0123401318000004000000
B0524553209081S11705525EA0123101316000004000000
B0524593209037S11705588EA0122401308000004000000
B0525033208990S11705648EA0121701305000004000000
B0525073208946S11705707EA0121501300000004000000
B0525113208906S11705772EA0120401288000004000000
B0525153208864S11705840EA0119201276000004000000
B0525193208819S11705909EA0118101267000004000000
B0525233208779S11705977EA0118001269000004000000
B0525273208747S11706045EA0118401273000004000000
B0525313208724S11706114EA0118501271000004000000
B0525353208698S11706186EA0117801263000004000000
B0525393208660S11706251EA0117501265000004000000
B0525433208621S11706312EA0117501262000004000000
B0525473208584S11706376EA0116801253000004000000
B0525513208548S11706439EA0116101246000004000000
B0525553208509S11706500EA0115301241000004000000
B0525593208470S11706559EA0115101237000004000000
B0526033208428S11706614EA0114801236000004000000
B0526073208378S11706660EA0115401246000004000000
B0526113208320S11706682EA0116601259000004000000
B0526153208272S11706647EA0118401277000004000000
B0526193208275S11706581EA0119801289000004000000
B0526233208327S11706550EA0120801299000004000000
B0526273208383S11706572EA0121601306000004000000
B0526313208407S11706633EA0122301311000004000000
B0526353208382S11706690EA0123101320000004000000
B0526393208330S11706705EA0123801329000004000000
B0526433208278S11706676EA0124901340000004000000
B0526473208253S11706612EA0126301353000004000000
B0526513208272S11706551EA0127501364000004000000
B0526553208321S11706523EA0128101369000004000000
B0526593208377S11706541EA0129101380000004000000
B0527033208404S11706594EA0130001386000004000000
B0527073208398S11706655EA0130301389000004000000
B0527113208359S11706695EA0130801396000004000000
B0527153208308S11706675EA0131501402000004000000
B0527193208295S11706607EA0132301414000004000000
B0527233208334S11706564EA0134001429000004000000
B0527273208386S11706580EA0134801432000004000000
B0527313208408S11706642EA0134801431000004000000
B0527353208392S11706714EA0134301425000004000000
B0527393208357S11706783EA0133001413000004000000
B0527433208314S11706849EA0132701413000004000000
B0527473208268S11706907EA0132901416000004000000
B0527513208207S11706945EA0133201421000004000000
B0527553208139S11706950EA0133501422000004000000
B0527593208070S11706940EA0133801422000004000000
B0528033208002S11706924EA0133401413000004000000
B0528073207931S11706905EA0131701394000004000000
B0528113207858S11706879EA0130401382000004000000
B0528153207783S11706853EA0129201370000004000000
B0528193207707S11706820EA0128301364000004000000
B0528233207641S11706771EA0128101361000004000000
B0528273207586S11706703EA0127901359000004000000
B0528313207540S11706633EA0128101364000004000000
B0528353207497S11706568EA0128501366000004000000
B0528393207456S11706506EA0128501365000004000000
B0528433207420S11706442EA0128101358000004000000
B0528473207376S11706381EA0127301351000004000000
B0528513207325S11706326EA0126601345000004000000
B0528553207274S11706276EA0126001338000004000000
B0528593207225S11706225EA0125301334000004000000
B0529033207180S11706172EA0125201333000004000000
B0529073207131S11706120EA0125101329000004000000
B0529113207081S11706070EA0124501324000004000000
B0529153207022S11706038EA0124301321000004000000
B0529193206956S11706026EA0123901319000004000000
B0529233206888S11706027EA0123801322000004000000
B0529273206825S11706025EA0124501327000004000000
B0529313206761S11706018EA0124801329000004000000
B0529353206704S11706038EA0126101347000004000000
B0529393206695S11706099EA0127001353000004000000
B0529433206740S11706139EA0126801355000004000000
B0529473206795S11706126EA0127901370000004000000
B0529513206830S11706075EA0128901375000004000000
B0529553206835S11706006EA0129101377000004000000
B0529593206804S11705948EA0129201379000004000000
B0530033206753S11705928EA0129601386000004000000
B0530073206706S11705953EA0130101388000004000000
B0530113206683S11706008EA0129801385000004000000
B0530153206684S11706078EA0129501381000004000000
B0530193206693S11706152EA0129301382000004000000
B0530233206708S11706224EA0129801386000004000000
B0530273206748S11706278EA0129801385000004000000
B0530313206812S11706281EA0129101377000004000000
B0530353206862S11706221EA0128401370000004000000
B0530393206879S11706133EA0127601363000004000000
B0530433206874S11706040EA0127501363000004000000
B0530473206862S11705949EA0127501362000004000000
B0530513206852S11705857EA0127301359000004000000
B0530553206839S11705765EA0127101360000004000000
B0530593206825S11705675EA0127001356000004000000
B0531033206816S11705585EA0126201345000004000000
B0531073206809S11705496EA0125601343000004000000
B0531113206805S11705411EA0126201350000004000000
B0531153206805S11705329EA0126401350000004000000
B0531193206810S11705250EA0125801343000004000000
B0531233206827S11705168EA0124701332000004000000
B0531273206857S11705090EA0124001323000004000000
B0531313206900S11705020EA0123401319000004000000
B0531353206946S11704953EA0123501323000004000000
B0531393206990S11704890EA0123801324000004000000
B0531433207034S11704825EA0123101312000004000000
B0531473207081S11704755EA0121901303000004000000
B0531513207133S11704686EA0121301300000004000000
B0531553207180S11704621EA0121201298000004000000
B0531593207222S11704556EA0121001299000004000000
B0532033207264S11704493EA0121101297000004000000
B0532073207307S11704433EA0120701292000004000000
B0532113207356S11704374EA0120101284000004000000
B0532153207415S11704322EA0119201276000004000000
B0532193207479S11704276EA0118801275000004000000
B0532233207544S11704235EA0119701285000004000000
B0532273207602S11704184EA0120101284000004000000
B0532313207640S11704112EA0119801282000004000000
B0532353207650S11704027EA0119401278000004000000
B0532393207640S11703943EA0118901274000004000000
B0532433207619S11703861EA0117901262000004000000
B0532473207597S11703776EA0117001248000004000000
B0532513207577S11703683EA0115801241000004000000
B0532553207558S11703592EA0115701241000004000000
B0532593207536S11703503EA0115801242000004000000
B0533033207512S11703414EA0116201247000004000000
B0533073207484S11703330EA0116901256000004000000
B0533113207440S11703262EA0117501259000004000000
B0533153207395S11703195EA0116801248000004000000
B0533193207360S11703115EA0115801235000004000000
B0533233207334S11703027EA0114801228000004000000
B0533273207313S11702938EA0115201240000004000000
B0533313207294S11702858EA0115901242000004000000
B0533353207274S11702777EA0115501236000004000000
B0533393207260S11702691EA0115001233000004000000
B0533433207256S11702604EA0115101235000004000000
B0533473207261S11702517EA0115201238000004000000
B0533513207272S11702430EA0115001234000004000000
B0533553207282S11702339EA0114601233000004000000
B0533593207293S11702249EA0114701233000004000000
B0534033207302S11702160EA0114701232000004000000
B0534073207302S11702071EA0114801238000004000000
B0534113207286S11701991EA0115801249000004000000
B0534153207281S11701913EA0117301264000004000000
B0534193207320S11701861EA0118201272000004000000
B0534233207376S11701871EA0118301270000004000000
B0534273207404S11701935EA0117601265000004000000
B0534313207394S11702010EA0117701270000004000000
B0534353207359S11702067EA0118401279000004000000
B0534393207312S11702092EA0119001282000004000000
B0534433207260S11702077EA0119001278000004000000
B0534473207224S11702018EA0118501272000004000000
B0534513207213S11701937EA0118801281000004000000
B0534553207225S11701858EA0119501282000004000000
B0534593207246S11701779EA0118201265000004000000
B0535033207265S11701690EA0116701252000004000000
B0535073207282S11701599EA0116401254000004000000
B0535113207294S11701510EA0117001260000004000000
B0535153207299S11701424EA0117401262000004000000
B0535193207298S11701338EA0116801254000004000000
B0535233207287S11701254EA0116101250000004000000
B0535273207282S11701169EA0116001250000004000000
B0535313207282S11701090EA0116401254000004000000
B0535353207285S11701012EA0116601255000004000000
B0535393207278S11700931EA0116101247000004000000
B0535433207263S11700851EA0115301242000004000000
B0535473207241S11700774EA0114801233000004000000
B0535513207217S11700693EA0114201228000004000000
B0535553207194S11700613EA0114201233000004000000
B0535593207167S11700535EA0114601233000004000000
B0536033207141S11700457EA0114801235000004000000
B0536073207116S11700375EA0114601232000004000000
B0536113207092S11700286EA0114301227000004000000
B0536153207072S11700194EA0113901223000004000000
B0536193207052S11700102EA0114001224000004000000
B0536233207038S11700011EA0113501219000004000000
B0536273207025S11659919EA0112801211000004000000
B0536313207012S11659828EA0112101205000004000000
B0536353207004S11659734EA0111801202000004000000
B0536393207004S11659642EA0111301195000004000000
B0536433207011S11659547EA0110501190000004000000
B0536473207018S11659454EA0110401190000004000000
B0536513207026S11659365EA0109901184000004000000
B0536553207033S11659275EA0109501180000004000000
B0536593207030S11659187EA0109501182000004000000
B0537033207013S11659102EA0109501180000004000000
B0537073206978S11659020EA0108401166000004000000
B0537113206939S11658937EA0107501159000004000000
B0537153206908S11658850EA0106901155000004000000
B0537193206887S11658760EA0107101158000004000000
B0537233206875S11658673EA0108001166000004000000
B0537273206865S11658589EA0108501169000004000000
B0537313206840S11658511EA0108701176000004000000
B0537353206816S11658434EA0109401182000004000000
B0537393206809S11658353EA0109701183000004000000
B0537433206821S11658268EA0109301176000004000000
B0537473206842S11658180EA0108701172000004000000
B0537513206857S11658093EA0107601168000004000000
B0537553206870S11658008EA0107901169000004000000
B0537593206878S11657926EA0108701180000004000000
B0538033206868S11657849EA0109701191000004000000
B0538073206826S11657800EA0110401192000004000000
B0538113206770S11657802EA0110501197000004000000
B0538153206731S11657852EA0111001203000004000000
B0538193206722S11657918EA0111401203000004000000
B0538233206752S11657974EA0111401202000004000000
B0538273206803S11658004EA0111101198000004000000
B0538313206865S11657998EA0110501195000004000000
B0538353206910S11657944EA0110801200000004000000
B0538393206938S11657870EA0111401206000004000000
B0538433206962S11657793EA0111901210000004000000
B0538473206956S11657720EA0112401218000004000000
B0538513206909S11657693EA0113501229000004000000
B0538553206868S11657728EA0113801232000004000000
B0538593206869S11657787EA0114101236000004000000
B0539033206909S11657828EA0113901229000004000000
B0539073206972S11657829EA0113801229000004000000
B0539113207024S11657779EA0113401225000004000000
B0539153207060S11657702EA0112701217000004000000
B0539193207092S11657619EA0112001208000004000000
B0539233207121S11657532EA0111201200000004000000
B0539273207155S11657447EA0111301202000004000000
B0539313207190S11657368EA0111401198000004000000
B0539353207224S11657287EA0110501185000004000000
B0539393207248S11657200EA0109101175000004000000
B0539433207274S11657116EA0109001176000004000000
B0539473207306S11657038EA0108601171000004000000
B0539513207339S11656962EA0107801160000004000000
B0539553207373S11656886EA0106901151000004000000
B0539593207406S11656809EA0106101141000004000000
B0540033207437S11656732EA0105301135000004000000
B0540073207476S11656658EA0104801131000004000000
B0540113207519S11656588EA0104401126000004000000
B0540153207557S11656514EA0103801121000004000000
B0540193207593S11656440EA0103701120000004000000
B0540233207627S11656364EA0103101114000004000000
B0540273207663S11656292EA0102401107000004000000
B0540313207710S11656223EA0101801098000004000000
B0540353207759S11656158EA0102001109000004000000
B0540393207807S11656100EA0103301117000004000000
B0540433207850S11656043EA0103901122000004000000
B0540473207883S11655978EA0104701131000004000000
B0540513207862S11655917EA0105301141000004000000
B0540553207810S11655905EA0105701143000004000000
B0540593207762S11655942EA0105101138000004000000
B0541033207749S11656011EA0105601149000004000000
B0541073207793S11656047EA0106901166000004000000
B0541113207826S11655999EA0108201172000004000000
B0541153207798S11655944EA0108101170000004000000
B0541193207741S11655943EA0108101173000004000000
B0541233207720S11656002EA0109201190000004000000
B0541273207766S11656034EA0110501199000004000000
B0541313207807S11655994EA0111601209000004000000
B0541353207793S11655929EA0112301215000004000000
B0541393207741S11655908EA0112701218000004000000
B0541433207698S11655952EA0113101229000004000000
B0541473207709S11656020EA0114301241000004000000
B0541513207761S11656048EA0116001256000004000000
B0541553207809S11656019EA0117001266000004000000
B0541593207817S11655954EA0117801272000004000000
B0542033207780S11655911EA0118601280000004000000
B0542073207728S11655926EA0118801280000004000000
B0542113207702S11655985EA0119401288000004000000
B0542153207724S11656048EA0120001295000004000000
B0542193207787S11656058EA0120301294000004000000
B0542233207828S11655991EA0120401298000004000000
B0542273207822S11655912EA0122101315000004000000
B0542313207775S11655869EA0123201326000004000000
B0542353207719S11655889EA0123901328000004000000
B0542393207689S11655954EA0124501338000004000000
B0542433207711S11656019EA0125601347000004000000
B0542473207771S11656030EA0126301356000004000000
B0542513207814S11655982EA0127701369000004000000
B0542553207810S11655913EA0128501376000004000000
B0542593207761S11655878EA0128901382000004000000
B0543033207703S11655907EA0129101384000004000000
B0543073207680S11655974EA0129801398000004000000
B0543113207700S11656037EA0131301407000004000000
B0543153207757S11656058EA0131601405000004000000
B0543193207810S11656020EA0132101414000004000000
B0543233207815S11655951EA0133201427000004000000
B0543273207772S11655909EA0133901430000004000000
B0543313207714S11655921EA0134101432000004000000
B0543353207689S11655983EA0134801440000004000000
B0543393207722S11656039EA0135201441000004000000
B0543433207788S11656050EA0134601431000004000000
B0543473207863S11656039EA0134201432000004000000
B0543513207944S11656025EA0134701431000004000000
B0543553208026S11656009EA0134301422000004000000
B0543593208109S11655996EA0132701414000004000000
B0544033208192S11655986EA0132201408000004000000
B0544073208274S11655976EA0132101406000004000000
B0544113208355S11655964EA0132001402000004000000
B0544153208437S11655946EA0131001393000004000000
B0544193208519S11655922EA0130301386000004000000
B0544233208599S11655886EA0129601379000004000000
B0544273208673S11655839EA0129101378000004000000
B0544313208736S11655786EA0129401381000004000000
B0544353208794S11655733EA0129701384000004000000
B0544393208853S11655684EA0129501378000004000000
B0544433208919S11655640EA0128501368000004000000
B0544473208985S11655592EA0127801363000004000000
B0544513209050S11655548EA0128001368000004000000
B0544553209115S11655509EA0127901365000004000000
B0544593209180S11655467EA0127301353000004000000
B0545033209244S11655422EA0126101346000004000000
B0545073209305S11655372EA0125401336000004000000
B0545113209370S11655326EA0124601330000004000000
B0545153209432S11655278EA0123801325000004000000
B0545193209491S11655227EA0123101318000004000000
B0545233209549S11655179EA0122501314000004000000
B0545273209605S11655127EA0122301312000004000000
B0545313209661S11655073EA0121701304000004000000
B0545353209725S11655025EA0120801293000004000000
B0545393209789S11654976EA0119901286000004000000
B0545433209850S11654921EA0119201281000004000000
B0545473209904S11654863EA0118901276000004000000
B0545513209958S11654800EA0118401275000004000000
B0545553210007S11654739EA0118801282000004000000
B0545593210064S11654695EA0119201282000004000000
B0546033210134S11654682EA0118801277000004000000
B0546073210210S11654695EA0118601277000004000000
B0546113210285S11654708EA0118901276000004000000
B0546153210358S11654709EA0118301267000004000000
B0546193210433S11654706EA0117001255000004000000
B0546233210511S11654695EA0116101248000004000000
B0546273210588S11654682EA0116201251000004000000
B0546313210660S11654664EA0116501253000004000000
B0546353210726S11654638EA0116701253000004000000
B0546393210787S11654602EA0116101248000004000000
B0546433210847S11654559EA0115501241000004000000
B0546473210905S11654513EA0115101239000004000000
B0546513210961S11654464EA0115101239000004000000
B0546553211015S11654413EA0114801235000004000000
B0546593211070S11654365EA0114101227000004000000
B0547033211130S11654319EA0113701224000004000000
B0547073211187S11654275EA0113701226000004000000
B0547113211241S11654234EA0113701225000004000000
B0547153211295S11654188EA0112801211000004000000
B0547193211354S11654147EA0111401197000004000000
B0547233211418S11654113EA0110401190000004000000
B0547273211484S11654083EA0109701183000004000000
B0547313211548S11654056EA0109001175000004000000
B0547353211615S11654033EA0108201167000004000000
B0547393211683S11654011EA0107301159000004000000
B0547433211748S11653984EA0106801156000004000000
B0547473211811S11653950EA0106601154000004000000
B0547513211879S11653915EA0105901145000004000000
B0547553211948S11653876EA0105901148000004000000
B0547593212019S11653842EA0106401153000004000000
B0548033212083S11653798EA0107101160000004000000
B0548073212126S11653732EA0107501163000004000000
B0548113212153S11653659EA0107701167000004000000
B0548153212174S11653588EA0108301172000004000000
B0548193212199S11653516EA0108101169000004000000
B0548233212225S11653441EA0108801179000004000000
B0548273212213S11653369EA0109901189000004000000
B0548313212161S11653338EA0109901188000004000000
B0548353212105S11653367EA0110501197000004000000
B0548393212075S11653425EA0111501205000004000000
B0548433212079S11653497EA0112301213000004000000
B0548473212121S11653554EA0113501225000004000000
B0548513212182S11653575EA0114601233000004000000
B0548553212240S11653551EA0114401231000004000000
B0548593212282S11653491EA0114801238000004000000
B0549033212290S11653422EA0116001250000004000000
B0549073212266S11653365EA0116601255000004000000
B0549113212220S11653335EA0116801256000004000000
B0549153212165S11653344EA0116801259000004000000
B0549193212130S11653395EA0117701270000004000000
B0549233212140S11653459EA0118501274000004000000
B0549273212192S11653498EA0118801275000004000000
B0549313212261S11653491EA0118901280000004000000
B0549353212312S11653448EA0120001290000004000000
B0549393212334S11653385EA0120401294000004000000
B0549433212322S11653318EA0120801298000004000000
B0549473212285S11653266EA0121201301000004000000
B0549513212229S11653247EA0121601305000004000000
B0549553212175S11653276EA0121501304000004000000
B0549593212146S11653339EA0121501306000004000000
B0550033212147S11653413EA0122401319000004000000
B0550073212191S11653464EA0123501325000004000000
B0550113212256S11653467EA0123801327000004000000
B0550153212305S11653416EA0123601327000004000000
B0550193212331S11653342EA0123901332000004000000
B0550233212348S11653264EA0124401335000004000000
B0550273212364S11653185EA0124701338000004000000
B0550313212377S11653105EA0124901340000004000000
B0550353212390S11653023EA0125301345000004000000
B0550393212402S11652943EA0126001350000004000000
B0550433212409S11652863EA0126701355000004000000
B0550473212415S11652784EA0126901354000004000000
B0550513212409S11652706EA0127101359000004000000
B0550553212372S11652648EA0127401363000004000000
B0550593212312S11652637EA0127301355000004000000
B0551033212257S11652680EA0125701337000004000000
B0551073212220S11652752EA0123801322000004000000
B0551113212188S11652832EA0122301311000004000000
B0551153212161S11652915EA0121301305000004000000
B0551193212135S11652993EA0121001302000004000000
B0551233212107S11653069EA0120201292000004000000
B0551273212077S11653147EA0119301282000004000000
B0551313212057S11653226EA0119701292000004000000
B0551353212040S11653299EA0120701300000004000000
B0551393212032S11653373EA0121101303000004000000
B0551433212051S11653443EA0122101315000004000000
B0551473212096S11653490EA0123301322000004000000
B0551513212156S11653504EA0123801328000004000000
B0551553212209S11653471EA0125001341000004000000
B0551593212203S11653404EA0125901348000004000000
B0552033212148S11653400EA0126301354000004000000
B0552073212140S11653464EA0127401365000004000000
B0552113212195S11653494EA0128101371000004000000
B0552153212246S11653447EA0129201381000004000000
B0552193212244S11653376EA0130101391000004000000
B0552233212200S11653333EA0130801397000004000000
B0552273212144S11653348EA0131001399000004000000
B0552313212117S11653411EA0131801411000004000000
B0552353212159S11653456EA0133001419000004000000
B0552393212213S11653428EA0133001417000004000000
B0552433212217S11653351EA0133101422000004000000
B0552473212164S11653313EA0134001428000004000000
B0552513212109S11653348EA0134701437000004000000
B0552553212108S11653419EA0135701446000004000000
B0552593212164S11653456EA0135701443000004000000
B0553033212226S11653422EA0135701445000004000000
B0553073212237S11653346EA0136901460000004000000
B0553113212188S11653298EA0137601464000004000000
B0553153212130S11653325EA0137701466000004000000
B0553193212134S11653398EA0138701479000004000000
B0553233212195S11653421EA0139101476000004000000
B0553273212250S11653364EA0138401470000004000000
B0553313212240S11653276EA0139001481000004000000
B0553353212181S11653229EA0138701471000004000000
B0553393212097S11653213EA0135801439000004000000
B0553433212004S11653211EA0135101440000004000000
B0553473211922S11653212EA0137101452000004000000
B0553513211849S11653218EA0137301454000004000000
B0553553211784S11653244EA0137401457000004000000
B0553593211732S11653290EA0137501457000004000000
B0554033211704S11653354EA0137701459000004000000
B0554073211694S11653424EA0136801449000004000000
B0554113211696S11653497EA0136301448000004000000
B0554153211709S11653565EA0136701452000004000000
B0554193211718S11653633EA0137301459000004000000
B0554233211723S11653697EA0137401459000004000000
B0554273211732S11653758EA0137301458000004000000
B0554313211741S11653820EA0136901449000004000000
B0554353211723S11653881EA0136401447000004000000
B0554393211671S11653905EA0136201443000004000000
B0554433211623S11653868EA0135701442000004000000
B0554473211616S11653798EA0135201432000004000000
B0554513211641S11653727EA0134201427000004000000
B0554553211670S11653658EA0134101427000004000000
B0554593211693S11653588EA0133901423000004000000
B0555033211720S11653516EA0133701424000004000000
B0555073211754S11653451EA0134101428000004000000
B0555113211792S11653389EA0134101426000004000000
B0555153211828S11653324EA0134201431000004000000
B0555193211863S11653261EA0134201427000004000000
B0555233211901S11653199EA0133801424000004000000
B0555273211943S11653139EA0133101418000004000000
B0555313211990S11653087EA0132201407000004000000
B0555353212049S11653060EA0131901406000004000000
B0555393212108S11653075EA0131601398000004000000
B0555433212153S11653122EA0131201394000004000000
B0555473212186S11653186EA0131001394000004000000
B0555513212208S11653256EA0131001395000004000000
B0555553212222S11653330EA0130801393000004000000
B0555593212230S11653407EA0130701393000004000000
B0556033212233S11653482EA0130801392000004000000
B0556073212240S11653558EA0130501393000004000000
B0556113212266S11653628EA0131101398000004000000
B0556153212324S11653659EA0132101415000004000000
B0556193212367S11653611EA0133601424000004000000
B0556233212347S11653552EA0134101430000004000000
B0556273212298S11653550EA0134301428000004000000
B0556313212276S11653606EA0134101427000004000000
B0556353212315S11653651EA0134601433000004000000
B0556393212376S11653632EA0135101434000004000000
B0556433212404S11653565EA0135401441000004000000
B0556473212386S11653498EA0135901443000004000000
B0556513212335S11653472EA0135801445000004000000
B0556553212287S11653502EA0136301448000004000000
B0556593212276S11653567EA0136201447000004000000
B0557033212316S11653623EA0136001445000004000000
B0557073212386S11653641EA0135801441000004000000
B0557113212456S11653612EA0135701443000004000000
B0557153212498S11653543EA0136301447000004000000
B0557193212491S11653463EA0135701442000004000000
B0557233212458S11653385EA0135901447000004000000
B0557273212409S11653330EA0136101446000004000000
B0557313212351S11653285EA0134501429000004000000
B0557353212282S11653237EA0133201412000004000000
B0557393212203S11653198EA0131901405000004000000
B0557433212127S11653172EA0132701421000004000000
B0557473212065S11653140EA0133901425000004000000
B0557513212018S11653091EA0134001423000004000000
B0557553211992S11653023EA0133501417000004000000
B0557593211977S11652951EA0133201416000004000000
B0558033211961S11652880EA0133101413000004000000
B0558073211944S11652809EA0132201403000004000000
B0558113211925S11652731EA0131001392000004000000
B0558153211893S11652655EA0130201384000004000000
B0558193211834S11652610EA0129701380000004000000
B0558233211762S11652603EA0128901370000004000000
B0558273211692S11652624EA0127901362000004000000
B0558313211624S11652655EA0127401358000004000000
B0558353211559S11652688EA0127001356000004000000
B0558393211497S11652723EA0126501349000004000000
B0558433211434S11652761EA0126001346000004000000
B0558473211372S11652797EA0125801345000004000000
B0558513211310S11652832EA0125701343000004000000
B0558553211246S11652865EA0125401341000004000000
B0558593211185S11652895EA0125301339000004000000
B0559033211122S11652922EA0124801335000004000000
B0559073211063S11652956EA0124301330000004000000
B0559113211004S11652992EA0123901325000004000000
B0559153210946S11653032EA0123301319000004000000
B0559193210887S11653073EA0122901313000004000000
B0559233210829S11653113EA0122301307000004000000
B0559273210770S11653152EA0121901302000004000000
B0559313210712S11653190EA0121401297000004000000
B0559353210653S11653231EA0120601289000004000000
B0559393210596S11653276EA0120001284000004000000
B0559433210536S11653322EA0119501279000004000000
B0559473210476S11653368EA0119001272000004000000
B0559513210415S11653412EA0118101264000004000000
B0559553210353S11653454EA0117801257000004000000
B0559593210289S11653493EA0116901249000004000000
B0600033210223S11653532EA0116001239000004000000
B0600073210159S11653575EA0115201235000004000000
B0600113210097S11653617EA0115001233000004000000
B0600153210037S11653658EA0114601229000004000000
B0600193209978S11653701EA0114101224000004000000
B0600233209920S11653746EA0113701220000004000000
B0600273209861S11653790EA0113301215000004000000
B0600313209800S11653831EA0112801211000004000000
B0600353209738S11653866EA0112801209000004000000
B0600393209676S11653898EA0112301206000004000000
B0600433209613S11653932EA0111801201000004000000
B0600473209552S11653966EA0111901207000004000000
B0600513209492S11653997EA0112701213000004000000
B0600553209432S11654026EA0114401231000004000000
B0600593209397S11654079EA0115301236000004000000
B0601033209425S11654136EA0114901229000004000000
B0601073209495S11654139EA0114401227000004000000
B0601113209557S11654104EA0114601233000004000000
B0601153209591S11654040EA0115701245000004000000
B0601193209577S11653972EA0116601250000004000000
B0601233209529S11653933EA0117001253000004000000
B0601273209464S11653933EA0116901253000004000000
B0601313209404S11653971EA0117401256000004000000
B0601353209349S11654027EA0116701250000004000000
B0601393209300S11654088EA0116701251000004000000
B0601433209250S11654147EA0117501265000004000000
B0601473209208S11654204EA0118901277000004000000
B0601513209169S11654257EA0119901283000004000000
B0601553209130S11654313EA0120001283000004000000
B0601593209089S11654371EA0119701279000004000000
B0602033209048S11654431EA0118901270000004000000
B0602073209002S11654490EA0118201261000004000000
B0602113208954S11654550EA0116901249000004000000
B0602153208907S11654613EA0116501247000004000000
B0602193208860S11654677EA0117001256000004000000
B0602233208816S11654734EA0117801263000004000000
B0602273208769S11654789EA0117701254000004000000
B0602313208723S11654847EA0116801248000004000000
B0602353208677S11654907EA0116301243000004000000
B0602393208630S11654967EA0115301234000004000000
B0602433208584S11655029EA0114701228000004000000
B0602473208539S11655093EA0114301224000004000000
B0602513208498S11655157EA0114001223000004000000
B0602553208461S11655220EA0114301229000004000000
B0602593208426S11655283EA0114301224000004000000
B0603033208391S11655349EA0113501216000004000000
B0603073208353S11655415EA0112801211000004000000
B0603113208301S11655470EA0112301206000004000000
B0603153208236S11655505EA0111901202000004000000
B0603193208165S11655517EA0112301208000004000000
B0603233208095S11655528EA0112701210000004000000
B0603273208025S11655547EA0112801215000004000000
B0603313207963S11655584EA0113601218000004000000
B0603353207902S11655625EA0113601221000004000000
B0603393207837S11655652EA0114001226000004000000
B0603433207774S11655670EA0115001237000004000000
B0603473207715S11655692EA0116201247000004000000
B0603513207661S11655723EA0116401245000004000000
B0603553207603S11655759EA0115701235000004000000
B0603593207549S11655804EA0114601223000004000000
B0604033207515S11655870EA0113701219000004000000
B0604073207525S11655939EA0113901224000004000000
B0604113207573S11655982EA0113901223000004000000
B0604153207637S11655995EA0113001208000004000000
B0604193207705S11655987EA0112001201000004000000
B0604233207772S11655976EA0111301196000004000000
B0604273207837S11655960EA0110601188000004000000
B0604313207904S11655941EA0109701176000004000000
B0604353207974S11655922EA0109001176000004000000
B0604393208039S11655904EA0109901184000004000000
B0604433208100S11655879EA0110101185000004000000
B0604473208157S11655839EA0110201187000004000000
B0604513208207S11655787EA0110001182000004000000
B0604553208253S11655730EA0109301175000004000000
B0604593208294S11655664EA0108701171000004000000
B0605033208326S11655590EA0108801176000004000000
B0605073208353S11655517EA0109201176000004000000
B0605113208385S11655445EA0108901173000004000000
B0605153208418S11655375EA0108701170000004000000
B0605193208450S11655301EA0108101164000004000000
B0605233208481S11655226EA0107701163000004000000
B0605273208513S11655150EA0107701159000004000000
B0605313208546S11655071EA0107301157000004000000
B0605353208576S11654992EA0107301161000004000000
B0605393208604S11654915EA0107901164000004000000
B0605433208630S11654839EA0107701160000004000000
B0605473208652S11654761EA0106801146000004000000
B0605513208672S11654678EA0105401134000004000000
B0605553208688S11654592EA0104701129000004000000
B0605593208699S11654509EA0104201125000004000000
B0606033208697S11654426EA0103601118000004000000
B0606073208678S11654345EA0102801111000004000000
B0606113208647S11654273EA0102401106000004000000
B0606153208607S11654210EA0102301108000004000000
B0606193208558S11654161EA0102601108000004000000
B0606233208504S11654117EA0102701109000004000000
B0606273208448S11654083EA0103001110000004000000
B0606313208387S11654062EA0102701105000004000000
B0606353208324S11654079EA0102201104000004000000
B0606393208261S11654113EA0102501108000004000000
B0606433208207S11654157EA0103001115000004000000
B0606473208165S11654212EA0103001111000004000000
B0606513208125S11654270EA0102201102000004000000
B0606553208082S11654327EA0101401096000004000000
B0606593208036S11654384EA0100501086000004000000
B0607033207991S11654442EA0099301077000004000000
B0607073207941S11654494EA0099101077000004000000
B0607113207888S11654535EA0099301077000004000000
B0607153207837S11654579EA0099501079000004000000
B0607193207792S11654630EA0099201072000004000000
B0607233207748S11654687EA0098301065000004000000
B0607273207703S11654746EA0097601058000004000000
B0607313207657S11654804EA0097501059000004000000
B0607353207612S11654865EA0097301057000004000000
B0607393207570S11654925EA0097101056000004000000
B0607433207529S11654984EA0097301059000004000000
B0607473207498S11655044EA0098301068000004000000
B0607513207472S11655103EA0098201065000004000000
B0607553207447S11655170EA0097201054000004000000
B0607593207424S11655241EA0096301050000004000000
B0608033207395S11655309EA0096501052000004000000
B0608073207365S11655374EA0096901059000004000000
B0608113207343S11655440EA0097801064000004000000
B0608153207351S11655502EA0098501074000004000000
B0608193207408S11655509EA0099001076000004000000
B0608233207441S11655444EA0099901089000004000000
B0608273207410S11655387EA0100901096000004000000
B0608313207359S11655387EA0101201098000004000000
B0608353207330S11655432EA0101301098000004000000
B0608393207351S11655488EA0101301098000004000000
B0608433207407S11655499EA0101701106000004000000
B0608473207447S11655454EA0102801118000004000000
B0608513207437S11655395EA0103601123000004000000
B0608553207385S11655382EA0103501119000004000000
B0608593207350S11655427EA0103801125000004000000
B0609033207360S11655484EA0104101127000004000000
B0609073207407S11655514EA0104301131000004000000
B0609113207466S11655506EA0104801135000004000000
B0609153207510S11655457EA0105101139000004000000
B0609193207510S11655385EA0105601145000004000000
B0609233207464S11655341EA0106101150000004000000
B0609273207414S11655362EA0106801157000004000000
B0609313207401S11655423EA0107501163000004000000
B0609353207437S11655470EA0107701164000004000000
B0609393207498S11655461EA0108101167000004000000
B0609433207528S11655396EA0108401173000004000000
B0609473207503S11655328EA0108901178000004000000
B0609513207450S11655319EA0110001190000004000000
B0609553207434S11655374EA0110601192000004000000
B0609593207469S11655418EA0110501192000004000000
B0610033207524S11655402EA0110701195000004000000
B0610073207555S11655343EA0110801197000004000000
B0610113207547S11655270EA0111201201000004000000
B0610153207502S11655228EA0111601205000004000000
B0610193207450S11655245EA0112001206000004000000
B0610233207415S11655304EA0111401202000004000000
B0610273207390S11655372EA0111601206000004000000
B0610313207365S11655443EA0111601208000004000000
B0610353207337S11655510EA0112101211000004000000
B0610393207310S11655579EA0112501214000004000000
B0610433207278S11655648EA0112201210000004000000
B0610473207243S11655718EA0111501205000004000000
B0610513207207S11655791EA0111401204000004000000
B0610553207172S11655861EA0112501216000004000000
B0610593207135S11655926EA0112801213000004000000
B0611033207095S11655994EA0111901204000004000000
B0611073207055S11656067EA0111901210000004000000
B0611113207018S11656134EA0112901217000004000000
B0611153206981S11656201EA0112701214000004000000
B0611193206946S11656272EA0112501212000004000000
B0611233206921S11656344EA0114701237000004000000
B0611273206952S11656398EA0116201246000004000000
B0611313207014S11656383EA0116301246000004000000
B0611353207039S11656311EA0116701260000004000000
B0611393207012S11656249EA0118401272000004000000
B0611433206960S11656233EA0119201277000004000000
B0611473206917S11656269EA0119801284000004000000
B0611513206910S11656327EA0120901298000004000000
B0611553206943S11656370EA0121601301000004000000
B0611593207000S11656375EA0121501300000004000000
B0612033207046S11656332EA0122401310000004000000
B0612073207044S11656264EA0123101317000004000000
B0612113206996S11656234EA0123401320000004000000
B0612153206949S11656268EA0123801325000004000000
B0612193206940S11656329EA0124601334000004000000
B0612233206982S11656371EA0125101337000004000000
B0612273207040S11656354EA0125401339000004000000
B0612313207072S11656289EA0126001348000004000000
B0612353207055S11656221EA0127101356000004000000
B0612393207003S11656206EA0127501358000004000000
B0612433206966S11656256EA0127401359000004000000
B0612473206990S11656319EA0128701372000004000000
B0612513207047S11656336EA0129201378000004000000
B0612553207099S11656295EA0129801385000004000000
B0612593207111S11656224EA0130601396000004000000
B0613033207078S11656165EA0131101396000004000000
B0613073207022S11656152EA0131501400000004000000
B0613113206972S11656185EA0131401395000004000000
B0613153206944S11656246EA0131601401000004000000
B0613193206952S11656312EA0132501411000004000000
B0613233206996S11656358EA0133101417000004000000
B0613273207060S11656364EA0133501420000004000000
B0613313207125S11656329EA0133701422000004000000
B0613353207156S11656255EA0134301435000004000000
B0613393207129S11656182EA0135101440000004000000
B0613433207068S11656168EA0135601441000004000000
B0613473207025S11656223EA0135401439000004000000
B0613513207039S11656297EA0136001450000004000000
B0613553207091S11656338EA0137401462000004000000
B0613593207150S11656314EA0138501472000004000000
B0614033207159S11656243EA0139001477000004000000
B0614073207113S11656197EA0139001472000004000000
B0614113207050S11656216EA0138201465000004000000
B0614153207005S11656280EA0138201468000004000000
B0614193207012S11656359EA0138801474000004000000
B0614233207069S11656409EA0139001475000004000000
B0614273207135S11656376EA0139301479000004000000
B0614313207130S11656294EA0138701468000004000000
B0614353207061S11656236EA0136001443000004000000
B0614393206978S11656204EA0137201464000004000000
B0614433206905S11656182EA0139001476000004000000
B0614473206834S11656168EA0139301473000004000000
B0614513206766S11656169EA0139501478000004000000
B0614553206710S11656201EA0139601472000004000000
B0614593206676S11656263EA0138601462000004000000
B0615033206669S11656341EA0137501453000004000000
B0615073206675S11656423EA0136501446000004000000
B0615113206688S11656503EA0136201443000004000000
B0615153206706S11656580EA0136101442000004000000
B0615193206730S11656656EA0135701437000004000000
B0615233206749S11656735EA0135001428000004000000
B0615273206752S11656819EA0134101422000004000000
B0615313206735S11656901EA0134001422000004000000
B0615353206714S11656977EA0134001421000004000000
B0615393206693S11657048EA0133801419000004000000
B0615433206670S11657118EA0133201413000004000000
B0615473206637S11657186EA0132901411000004000000
B0615513206606S11657251EA0133001413000004000000
B0615553206580S11657317EA0133001411000004000000
B0615593206556S11657385EA0132701407000004000000
B0616033206527S11657451EA0132501406000004000000
B0616073206497S11657517EA0132101400000004000000
B0616113206467S11657588EA0131101390000004000000
B0616153206440S11657664EA0129801377000004000000
B0616193206415S11657744EA0129101373000004000000
B0616233206389S11657823EA0128801370000004000000
B0616273206362S11657901EA0128501366000004000000
B0616313206336S11657979EA0128201363000004000000
B0616353206312S11658058EA0127601358000004000000
B0616393206283S11658134EA0127101353000004000000
B0616433206236S11658197EA0126701349000004000000
B0616473206176S11658236EA0126501345000004000000
B0616513206106S11658242EA0125601334000004000000
B0616553206034S11658213EA0124401323000004000000
B0616593205968S11658166EA0124001318000004000000
B0617033205909S11658113EA0123601317000004000000
B0617073205854S11658058EA0123501316000004000000
B0617113205802S11657998EA0123501316000004000000
B0617153205751S11657939EA0123501313000004000000
B0617193205700S11657876EA0123101310000004000000
B0617233205649S11657815EA0122801307000004000000
B0617273205600S11657753EA0122601303000004000000
B0617313205551S11657689EA0121801297000004000000
B0617353205500S11657623EA0121201289000004000000
B0617393205448S11657556EA0120701281000004000000
B0617433205395S11657489EA0119901273000004000000
B0617473205341S11657421EA0119101266000004000000
B0617513205285S11657359EA0118601263000004000000
B0617553205227S11657300EA0118301262000004000000
B0617593205168S11657242EA0118701269000004000000
B0618033205113S11657185EA0119701278000004000000
B0618073205059S11657127EA0120101281000004000000
