ACAM4N6
HFDTE151021
HFFXA050
HFPLTPILOT:JOHN WELSH              
HFGTYGLIDERTYPE:HORNET      
HFGIDGLIDERID:VH-GMY      
HFDTM100GPSDATUM:
HFRFWFIRMWAREVERSION:F2.6
HFRHWHARDWAREVERSION:300 Series Version 2
HFFTYFRTYPE:CAMBRIDGE AERO INSTRUMENTS, 302+
HFGPS:GARMIN,LVS-25,12,18000
HFPRSPRESSALTSENSOR:INTERSEMA, MS5534-AP, 20000
I033638FXA3941ENL4247REX
LCAMSBVER:5FWVER:F26300
C151021034457151021000102
C0000000N00000000WTAKEOFF     
C3207549S11656849EBEVAIR      
C3111282S11701799EDowerin     
C3136216S11753732EDoodlakine  
C3207549S11656849EBEVAIR      
C0000000N00000000WLANDING     
B0400563207737S11657094EA0023000211000000000000
B0400583207737S11657094EA0023000211000000000000
B0401003207737S11657094EA0023000211000000000000
B0401023207737S11657094EA0022900211000000000000
B0401043207737S11657094EA0023000211000000000000
B0401063207737S11657094EA0023000211000000000000
B0401083207737S11657094EA0022900211000000000000
B0401103207737S11657094EA0022900211000000000000
B0401123207737S11657094EA0023000211000000000000
B0401143207737S11657094EA0023100211000000000000
B0401163207737S11657094EA0023000211000000000000
B0401183207737S11657094EA0023000211000000000000
B0401203207737S11657094EA0023000211000000000000
B0401223207737S11657094EA0023100211000000000000
B0401243207733S11657092EA0023100211000000000000
B0401273207720S11657090EA0023200211000000000000
B0401313207689S11657078EA0023300212000000000000
B0401353207646S11657055EA0023600213000000000000
B0401393207592S11657022EA0023100213000000000000
B0401433207531S11656987EA0023100218000000000000
B0401473207466S11656949EA0024200230000000000000
B0401513207401S11656913EA0025200236000000000000
B0401553207336S11656875EA0025700245000000000000
B0401593207271S11656835EA0027000260000000000000
B0402033207211S11656788EA0028600276000000000000
B0402073207161S11656727EA0030700298000000000000
B0402113207121S11656650EA0031700307000000000000
B0402153207100S11656563EA0033000323000000000000
B0402193207107S11656468EA0034300340000000000000
B0402233207142S11656376EA0035800350000000000000
B0402273207200S11656294EA0036900360000000000000
B0402313207281S11656236EA0037500364000000000000
B0402353207373S11656210EA0038700385000000000000
B0402393207459S11656224EA0041200409000000000000
B0402433207532S11656275EA0042800422000000000000
B0402473207580S11656350EA0043500425000000000000
B0402513207601S11656438EA0043800429000000000000
B0402553207590S11656523EA0044800441000000000000
B0402593207570S11656600EA0046200453000000000000
B0403033207544S11656672EA0047200465000000000000
B0403073207514S11656744EA0048500479000000000000
B0403113207479S11656813EA0049700491000000000000
B0403153207438S11656877EA0051100505000000000000
B0403193207391S11656932EA0051900514000000000000
B0403233207329S11656964EA0052900531000000000000
B0403273207263S11656981EA0054500544000000000000
B0403313207198S11656988EA0055800561000000000000
B0403353207130S11656977EA0057800577000000000000
B0403393207064S11656960EA0059500598000000000000
B0403433206998S11656940EA0061300616000000000000
B0403473206935S11656905EA0063000634000000000000
B0403513206886S11656843EA0065000656000000000000
B0403553206860S11656760EA0066700670000000000000
B0403593206864S11656663EA0067900680000000000000
B0404033206894S11656572EA0069100693000000000000
B0404073206947S11656490EA0070200703000000000000
B0404113207020S11656428EA0070900713000000000000
B0404153207107S11656392EA0071400718000000000000
B0404193207203S11656410EA0072000722000000000000
B0404233207277S11656481EA0072400728000000000000
B0404273207311S11656580EA0073400743000000015000
B0404313207294S11656676EA0075300762000000015000
B0404353207242S11656743EA0077100779000000015000
B0404393207181S11656792EA0079100802000000015000
B0404433207124S11656841EA0081100824000000000000
B0404473207073S11656890EA0083200843000000000000
B0404513207064S11656960EA0084300851000000000000
B0404553207121S11656996EA0085500868000000015000
B0404593207177S11656958EA0087400886000000015000
B0405033207180S11656897EA0088400893000000015000
B0405073207142S11656871EA0088500889000000015000
B0405113207105S11656901EA0088000887000000015000
B0405153207105S11656964EA0087800886000000015000
B0405193207147S11657018EA0088100892000000015000
B0405233207212S11657033EA0088800898000000015000
B0405273207245S11656971EA0089700906000000015000
B0405313207211S11656927EA0090400914000000015000
B0405353207170S11656956EA0091300922000000015000
B0405393207189S11657016EA0092400931000000015000
B0405433207246S11657025EA0093300938000000015000
B0405473207290S11656975EA0093400933000000030000
B0405513207278S11656906EA0093100935000000015000
B0405553207228S11656893EA0093800951000000015000
B0405593207202S11656942EA0095300961000000015000
B0406033207224S11657000EA0096500971000000015000
B0406073207282S11657017EA0097000974000000015000
B0406113207334S11656974EA0097000972000000015000
B0406153207339S11656900EA0097000975000000015000
B0406193207304S11656840EA0097300978000000015000
B0406233207252S11656821EA0097500982000000015000
B0406273207219S11656869EA0097900982000000015000
B0406313207250S11656936EA0097300973000000015000
B0406353207315S11656987EA0096500975000000015000
B0406393207382S11657033EA0096900974000000015000
B0406433207459S11657046EA0096800974000000015000
B0406473207529S11656999EA0096800972000000015000
B0406513207555S11656916EA0096600972000000015000
B0406553207524S11656841EA0096300966000000015000
B0406593207464S11656801EA0096300974000000015000
B0407033207403S11656763EA0096900978000000015000
B0407073207342S11656731EA0097000978000000000000
B0407113207312S11656782EA0097500991000000015000
B0407153207363S11656832EA0098200990000000015000
B0407193207436S11656827EA0098200991000000015000
B0407233207471S11656756EA0098300990000000015000
B0407273207437S11656691EA0098200991000000015000
B0407313207384S11656702EA0098800997000000015000
B0407353207363S11656765EA0098800997000000015000
B0407393207394S11656835EA0099000997000000015000
B0407433207464S11656862EA0098900998000000015000
B0407473207527S11656818EA0099601007000000015000
B0407513207518S11656748EA0100701020000000015000
B0407553207475S11656760EA0101801030000000015000
B0407593207476S11656822EA0102001030000000015000
B0408033207533S11656853EA0102301038000000015000
B0408073207592S11656813EA0102801039000000015000
B0408113207596S11656739EA0102801041000000015000
B0408153207549S11656706EA0103201045000000015000
B0408193207503S11656737EA0103601046000000015000
B0408233207501S11656801EA0103701051000000015000
B0408273207545S11656852EA0104201054000000015000
B0408313207611S11656844EA0104301053000000015000
B0408353207651S11656776EA0103701043000000015000
B0408393207636S11656702EA0103901052000000015000
B0408433207589S11656705EA0105401069000000015000
B0408473207585S11656762EA0105701067000000015000
B0408513207637S11656809EA0105301065000000015000
B0408553207703S11656804EA0105601070000000015000
B0408593207729S11656735EA0105901066000000015000
B0409033207698S11656675EA0105401064000000015000
B0409073207648S11656639EA0105601067000000015000
B0409113207596S11656661EA0105401062000000015000
B0409153207596S11656731EA0105201065000000015000
B0409193207655S11656776EA0105801073000000015000
B0409233207715S11656747EA0107501093000000015000
B0409273207713S11656682EA0108101088000000015000
B0409313207662S11656672EA0107601084000000015000
B0409353207642S11656734EA0107601089000000015000
B0409393207684S11656786EA0108301099000000015000
B0409433207748S11656774EA0109201108000000015000
B0409473207772S11656704EA0109601103000000015000
B0409513207735S11656648EA0109001100000000015000
B0409553207680S11656665EA0109101103000000015000
B0409593207666S11656730EA0109401108000000015000
B0410033207705S11656787EA0110301117000000015000
B0410073207765S11656758EA0111401126000000015000
B0410113207744S11656695EA0112401133000000015000
B0410153207702S11656726EA0112301130000000015000
B0410193207736S11656787EA0112301136000000015000
B0410233207805S11656783EA0113001149000000015000
B0410273207815S11656711EA0114301155000000015000
B0410313207765S11656701EA0114601157000000015000
B0410353207755S11656760EA0114901163000000015000
B0410393207813S11656792EA0115401171000000015000
B0410433207863S11656737EA0116501182000000015000
B0410473207831S11656682EA0117201186000000015000
B0410513207783S11656702EA0117801195000000015000
B0410553207792S11656765EA0118501200000000015000
B0410593207856S11656783EA0119101213000000015000
B0411033207883S11656717EA0120501222000000015000
B0411073207835S11656688EA0120501219000000015000
B0411113207802S11656740EA0120701227000000015000
B0411153207850S11656786EA0121701241000000015000
B0411193207898S11656727EA0122901253000000015000
B0411233207865S11656669EA0124101262000000015000
B0411273207819S11656701EA0125301277000000015000
B0411313207839S11656763EA0126401284000000015000
B0411353207904S11656758EA0127401296000000015000
B0411393207926S11656685EA0128101300000000015000
B0411433207880S11656644EA0128801311000000015000
B0411473207846S11656685EA0130201329000000015000
B0411513207880S11656736EA0131101330000000015000
B0411553207937S11656702EA0131701335000000015000
B0411593207919S11656630EA0131901341000000015000
B0412033207866S11656631EA0133301356000000015000
B0412073207859S11656693EA0134101362000000015000
B0412113207921S11656714EA0134701370000000015000
B0412153207965S11656650EA0135301374000000015000
B0412193207931S11656588EA0135901382000000015000
B0412233207887S11656618EA0137001395000000015000
B0412273207909S11656682EA0137601395000000015000
B0412313207975S11656674EA0138101406000000015000
B0412353207988S11656600EA0138901411000000015000
B0412393207943S11656561EA0139701425000000015000
B0412433207913S11656600EA0140801432000000015000
B0412473207944S11656657EA0141001432000000015000
B0412513208010S11656641EA0141501438000000015000
B0412553208031S11656566EA0142301449000000015000
B0412593207996S11656516EA0143101458000000015000
B0413033207947S11656532EA0143501458000000015000
B0413073207935S11656598EA0143601462000000015000
B0413113207984S11656645EA0144301471000000015000
B0413153208048S11656618EA0145201479000000030000
B0413193208052S11656545EA0145901486000000015000
B0413233208006S11656520EA0146501489000000015000
B0413273207974S11656566EA0146501489000000015000
B0413313207996S11656631EA0146801497000000015000
B0413353208048S11656680EA0147701501000000015000
B0413393208116S11656684EA0148301510000000015000
B0413433208151S11656615EA0149301522000000015000
B0413473208114S11656572EA0150701538000000015000
B0413513208087S11656619EA0151801550000000015000
B0413553208129S11656671EA0152901561000000015000
B0413593208191S11656646EA0153901565000000030000
B0414033208199S11656566EA0153501560000000015000
B0414073208151S11656527EA0154501582000000015000
B0414113208126S11656576EA0156601602000000015000
B0414153208168S11656623EA0157901611000000015000
B0414193208233S11656598EA0158801616000000015000
B0414233208253S11656518EA0159001621000000015000
B0414273208223S11656451EA0160401638000000015000
B0414313208175S11656462EA0161401646000000015000
B0414353208184S11656523EA0161901649000000015000
B0414393208249S11656546EA0162701663000000015000
B0414433208298S11656484EA0164001681000000015000
B0414473208265S11656431EA0165201686000000015000
B0414513208225S11656459EA0165701692000000015000
B0414553208240S11656526EA0166101695000000015000
B0414593208308S11656545EA0167101707000000015000
B0415033208360S11656479EA0167501711000000015000
B0415073208337S11656406EA0168501724000000015000
B0415113208288S11656424EA0169601736000000015000
B0415153208304S11656489EA0170801745000000015000
B0415193208372S11656503EA0171601751000000015000
B0415233208417S11656436EA0172501763000000015000
B0415273208402S11656360EA0173601771000000015000
B0415313208353S11656367EA0174101772000000015000
B0415353208370S11656432EA0174501783000000015000
B0415393208435S11656427EA0176201804000000015000
B0415433208460S11656357EA0177701814000000015000
B0415473208422S11656318EA0178501820000000015000
B0415513208399S11656364EA0178401816000000015000
B0415553208446S11656412EA0178701826000000015000
B0415593208508S11656380EA0180501844000000030000
B0416033208517S11656302EA0181001845000000015000
B0416073208473S11656271EA0181801856000000015000
B0416113208444S11656312EA0182401860000000015000
B0416153208470S11656371EA0182601862000000015000
B0416193208541S11656376EA0183101866000000015000
B0416233208585S11656307EA0183201867000000015000
B0416273208565S11656228EA0183501873000000015000
B0416313208513S11656203EA0184001875000000015000
B0416353208474S11656250EA0183901873000000015000
B0416393208481S11656324EA0183601870000000015000
B0416433208545S11656355EA0184101878000000015000
B0416473208582S11656282EA0184801887000000015000
B0416513208546S11656227EA0185501892000000015000
B0416553208502S11656256EA0185701889000000015000
B0416593208517S11656328EA0185201885000000015000
B0417033208572S11656383EA0185201892000000015000
B0417073208642S11656366EA0186401905000000030000
B0417113208663S11656284EA0186901906000000015000
B0417153208617S11656241EA0187101912000000015000
B0417193208595S11656298EA0187801918000000015000
B0417233208642S11656349EA0188701929000000015000
B0417273208702S11656303EA0189701935000000015000
B0417313208690S11656227EA0190001936000000015000
B0417353208637S11656229EA0190501946000000015000
B0417393208637S11656294EA0191301951000000015000
B0417433208698S11656320EA0192201961000000015000
B0417473208746S11656258EA0192501961000000015000
B0417513208717S11656193EA0193001969000000015000
B0417553208673S11656219EA0193901980000000015000
B0417593208680S11656281EA0194501984000000015000
B0418033208733S11656320EA0194901981000000015000
B0418073208805S11656293EA0193901968000000015000
B0418113208840S11656210EA0193701976000000015000
B0418153208825S11656129EA0194301984000000015000
B0418193208794S11656059EA0194401982000000015000
B0418233208746S11656007EA0194401980000000015000
B0418273208701S11656038EA0194301978000000015000
B0418313208725S11656102EA0194301980000000015000
B0418353208788S11656137EA0193701975000000015000
B0418393208859S11656162EA0193501972000000015000
B0418433208931S11656185EA0193601977000000000000
B0418473209005S11656206EA0193601969000000000000
B0418513209084S11656221EA0192501961000000000000
B0418553209165S11656245EA0192201961000000000000
B0418593209243S11656272EA0193001972000000000000
B0419033209323S11656268EA0194101980000000000000
B0419073209365S11656194EA0194101978000000015000
B0419113209330S11656146EA0194901992000000015000
B0419153209301S11656173EA0195601993000000015000
B0419193209318S11656230EA0195301992000000015000
B0419233209373S11656282EA0195101992000000015000
B0419273209438S11656332EA0195201994000000015000
B0419313209510S11656367EA0196202005000000000000
B0419353209581S11656327EA0196802009000000015000
B0419393209574S11656253EA0196802003000000015000
B0419433209525S11656259EA0196402007000000015000
B0419473209499S11656316EA0197102016000000015000
B0419513209516S11656385EA0198402029000000015000
B0419553209585S11656388EA0199502030000000015000
B0419593209613S11656312EA0199002027000000015000
B0420033209570S11656280EA0199202035000000015000
B0420073209551S11656333EA0200002041000000015000
B0420113209601S11656383EA0200702054000000015000
B0420153209665S11656353EA0201602055000000030000
B0420193209677S11656275EA0200702041000000015000
B0420233209629S11656246EA0200702053000000015000
B0420273209605S11656294EA0202102061000000015000
B0420313209652S11656347EA0202702069000000015000
B0420353209721S11656349EA0203502076000000030000
B0420393209787S11656316EA0203702077000000015000
B0420433209816S11656238EA0203002063000000015000
B0420473209778S11656175EA0202202061000000015000
B0420513209721S11656141EA0202402067000000015000
B0420553209663S11656130EA0203002072000000015000
B0420593209604S11656136EA0203402078000000000000
B0421033209547S11656154EA0204602095000000000000
B0421073209530S11656215EA0206702115000000000000
B0421113209585S11656256EA0208202125000000015000
B0421153209642S11656216EA0208802131000000015000
B0421193209640S11656147EA0209402138000000015000
B0421233209591S11656133EA0210202150000000015000
B0421273209578S11656195EA0211502162000000015000
B0421313209634S11656233EA0212702176000000015000
B0421353209694S11656202EA0213602181000000015000
B0421393209707S11656130EA0213602178000000015000
B0421433209663S11656089EA0213802187000000015000
B0421473209625S11656128EA0214902199000000015000
B0421513209656S11656189EA0216202213000000015000
B0421553209722S11656189EA0217202218000000015000
B0421593209765S11656129EA0217402217000000015000
B0422033209744S11656063EA0217702224000000015000
B0422073209696S11656068EA0218302234000000015000
B0422113209694S11656132EA0219302245000000015000
B0422153209752S11656164EA0220702259000000015000
B0422193209811S11656130EA0221402259000000015000
B0422233209826S11656059EA0221502262000000015000
B0422273209787S11656017EA0221702266000000015000
B0422313209741S11656042EA0222002273000000015000
B0422353209750S11656110EA0222902280000000015000
B0422393209813S11656129EA0223902291000000015000
B0422433209868S11656081EA0224602294000000015000
B0422473209859S11656013EA0224902296000000015000
B0422513209808S11656003EA0224902299000000015000
B0422553209778S11656054EA0225602308000000015000
B0422593209813S11656110EA0226602316000000015000
B0423033209880S11656104EA0227302321000000015000
B0423073209917S11656039EA0227402319000000015000
B0423113209891S11655976EA0227102319000000015000
B0423153209837S11655963EA0227202320000000015000
B0423193209787S11656002EA0226902315000000015000
B0423233209737S11656052EA0226102304000000015000
B0423273209676S11656104EA0224402282000000000000
B0423313209612S11656158EA0222802273000000000000
B0423353209547S11656212EA0222302269000000000000
B0423393209483S11656264EA0221802263000000000000
B0423433209421S11656316EA0221102257000000000000
B0423473209357S11656371EA0220402249000000000000
B0423513209297S11656427EA0219902245000000000000
B0423553209236S11656483EA0219702239000000000000
B0423593209176S11656540EA0218902234000000000000
B0424033209118S11656596EA0218502228000000000000
B0424073209057S11656652EA0217902221000000000000
B0424113208996S11656708EA0217302217000000000000
B0424153208933S11656762EA0217102214000000000000
B0424193208872S11656815EA0216602206000000000000
B0424233208812S11656871EA0215802201000000000000
B0424273208754S11656929EA0215802201000000000000
B0424313208695S11656981EA0215702199000000000000
B0424353208633S11657021EA0215402201000000000000
B0424393208568S11657047EA0215702200000000000000
B0424433208499S11657060EA0214802188000000000000
B0424473208425S11657064EA0213402175000000000000
B0424513208348S11657059EA0212402167000000000000
B0424553208270S11657049EA0211902162000000000000
B0424593208192S11657040EA0211602160000000000000
B0425033208116S11657031EA0211302153000000000000
B0425073208040S11657018EA0210602147000000000000
B0425113207966S11657005EA0210202144000000000000
B0425153207895S11656992EA0209702138000000000000
B0425193207824S11656979EA0209402137000000000000
B0425233207755S11656962EA0209202134000000000000
B0425273207689S11656940EA0208502127000000000000
B0425313207623S11656916EA0207802119000000000000
B0425353207555S11656888EA0207502116000000000000
B0425393207486S11656866EA0206902109000000000000
B0425433207414S11656858EA0205902096000000000000
B0425473207339S11656861EA0204602083000000000000
B0425513207265S11656866EA0203302071000000000000
B0425553207189S11656871EA0202002060000000000000
B0425593207111S11656875EA0201302051000000000000
B0426033207031S11656875EA0200602044000000000000
B0426073206951S11656869EA0199402030000000000000
B0426113206868S11656875EA0198002012000000000000
B0426153206786S11656901EA0196902006000000000000
B0426193206709S11656944EA0196302001000000000000
B0426233206636S11656996EA0195701993000000000000
B0426273206566S11657051EA0194701982000000000000
B0426313206494S11657103EA0193601976000000000000
B0426353206424S11657152EA0193401972000000000000
B0426393206353S11657198EA0192401959000000000000
B0426433206284S11657250EA0191401944000000000000
B0426473206218S11657311EA0189701930000000000000
B0426513206153S11657374EA0189101927000000000000
B0426553206090S11657438EA0188601922000000000000
B0426593206025S11657499EA0187501907000000000000
B0427033205954S11657555EA0186201894000000000000
B0427073205877S11657601EA0185001883000000000000
B0427113205799S11657636EA0184001873000000000000
B0427153205717S11657660EA0183201865000000000000
B0427193205635S11657676EA0182201857000000000000
B0427233205553S11657689EA0181201844000000000000
B0427273205473S11657701EA0180501842000000000000
B0427313205395S11657711EA0180101831000000000000
B0427353205315S11657723EA0178601816000000000000
B0427393205236S11657732EA0177401803000000000000
B0427433205157S11657744EA0176001784000000000000
B0427473205079S11657776EA0173701762000000000000
B0427513205001S11657819EA0171601738000000000000
B0427553204925S11657867EA0170201732000000000000
B0427593204854S11657918EA0169801724000000000000
B0428033204786S11657972EA0168801721000000000000
B0428073204716S11658021EA0169601731000000000000
B0428113204638S11658036EA0171001751000000000000
B0428153204563S11658031EA0173101774000000000000
B0428193204491S11658022EA0175301794000000000000
B0428233204420S11658011EA0176001794000000000000
B0428273204346S11658005EA0175801788000000000000
B0428313204268S11657998EA0174501774000000000000
B0428353204182S11657993EA0173001756000000000000
B0428393204095S11658005EA0171201740000000000000
B0428433204008S11658031EA0170101732000000000000
B0428473203926S11658058EA0169601726000000000000
B0428513203845S11658087EA0168801720000000000000
B0428553203766S11658106EA0168901722000000000000
B0428593203686S11658114EA0169201726000000000000
B0429033203610S11658117EA0169101721000000000000
B0429073203533S11658119EA0168401715000000000000
B0429113203456S11658125EA0167901709000000000000
B0429153203381S11658132EA0167001700000000000000
B0429193203307S11658141EA0166201690000000000000
B0429233203230S11658143EA0165301680000000000000
B0429273203150S11658148EA0164301668000000000000
B0429313203069S11658157EA0163701669000000000000
B0429353202994S11658162EA0164201671000000000000
B0429393202919S11658171EA0163201653000000000000
B0429433202843S11658180EA0161501637000000000000
B0429473202765S11658190EA0160101624000000000000
B0429513202683S11658190EA0158401603000000000000
B0429553202600S11658195EA0156701590000000000000
B0429593202519S11658205EA0156301590000000000000
B0430033202442S11658225EA0155701580000000000000
B0430073202367S11658249EA0154901572000000000000
B0430113202292S11658273EA0154001561000000000000
B0430153202217S11658291EA0152501543000000000000
B0430193202141S11658308EA0150901528000000000000
B0430233202067S11658330EA0150101523000000000000
B0430273201994S11658352EA0149601515000000000000
B0430313201920S11658378EA0148201502000000000000
B0430353201846S11658404EA0147001488000000000000
B0430393201772S11658431EA0146101481000000000000
B0430433201699S11658461EA0145401476000000000000
B0430473201627S11658479EA0145801480000000000000
B0430513201556S11658500EA0146001487000000000000
B0430553201489S11658526EA0146701492000000000000
B0430593201424S11658559EA0146301482000000000000
B0431033201358S11658595EA0145001469000000000000
B0431073201289S11658630EA0143301451000000000000
B0431113201218S11658664EA0142101441000000000000
B0431153201149S11658697EA0141201429000000000000
B0431193201077S11658725EA0139701411000000000000
B0431233201005S11658750EA0138101399000000000000
B0431273200933S11658775EA0138001402000000000000
B0431313200863S11658801EA0138401406000000000000
B0431353200798S11658830EA0139001416000000000000
B0431393200737S11658862EA0140401433000000000000
B0431433200680S11658897EA0142601455000000000000
B0431473200670S11658963EA0145101484000000000000
B0431513200732S11658976EA0148301516000000015000
B0431553200769S11658911EA0149901523000000030000
B0431593200737S11658854EA0151401548000000015000
B0432033200698S11658880EA0154001569000000015000
B0432073200719S11658938EA0155101579000000015000
B0432113200785S11658931EA0156701598000000015000
B0432153200804S11658854EA0157801606000000015000
B0432193200759S11658810EA0159501635000000015000
B0432233200713S11658838EA0161401642000000015000
B0432273200729S11658907EA0162501659000000015000
B0432313200794S11658912EA0164301676000000015000
B0432353200832S11658843EA0165101676000000015000
B0432393200797S11658781EA0165901694000000015000
B0432433200748S11658812EA0167801714000000015000
B0432473200774S11658875EA0169301729000000015000
B0432513200842S11658869EA0170501737000000015000
B0432553200876S11658797EA0170901740000000015000
B0432593200843S11658737EA0172101757000000015000
B0433033200806S11658782EA0173401769000000015000
B0433073200842S11658843EA0174801786000000015000
B0433113200911S11658834EA0175501786000000015000
B0433153200949S11658760EA0175701799000000015000
B0433193200938S11658682EA0177201816000000015000
B0433233200890S11658639EA0179001832000000015000
B0433273200849S11658681EA0180501847000000015000
B0433313200885S11658737EA0181901862000000015000
B0433353200946S11658706EA0183401877000000015000
B0433393200942S11658634EA0184401881000000015000
B0433433200885S11658619EA0185001891000000015000
B0433473200863S11658682EA0186101901000000015000
B0433513200921S11658721EA0187001912000000015000
B0433553200976S11658673EA0188601930000000015000
B0433593200967S11658602EA0189901937000000015000
B0434033200908S11658589EA0190701949000000015000
B0434073200878S11658643EA0192001961000000015000
B0434113200912S11658697EA0192201959000000015000
B0434153200980S11658685EA0191801951000000015000
B0434193201011S11658609EA0192201962000000015000
B0434233200995S11658535EA0193401983000000015000
B0434273200946S11658526EA0195301992000000015000
B0434313200933S11658587EA0194901976000000015000
B0434353200994S11658629EA0194001977000000015000
B0434393201051S11658577EA0194501982000000015000
B0434433201063S11658490EA0194701984000000015000
B0434473201044S11658409EA0195101988000000015000
B0434513200986S11658377EA0195101981000000015000
B0434553200912S11658375EA0193101958000000000000
B0434593200829S11658379EA0191401945000000000000
B0435033200745S11658390EA0190501934000000000000
B0435073200661S11658405EA0188901915000000000000
B0435113200577S11658427EA0186201886000000000000
B0435153200488S11658452EA0184801876000000000000
B0435193200405S11658478EA0183901870000000000000
B0435233200323S11658505EA0183201858000000000000
B0435273200243S11658534EA0181901847000000000000
B0435313200163S11658567EA0181001836000000000000
B0435353200085S11658596EA0180001830000000000000
B0435393200011S11658629EA0179401821000000000000
B0435433159932S11658655EA0178001805000000000000
B0435473159851S11658685EA0176501790000000000000
B0435513159771S11658717EA0175801784000000000000
B0435553159695S11658760EA0175201780000000000000
B0435593159627S11658804EA0175001781000000000000
B0436033159562S11658851EA0174501769000000000000
B0436073159498S11658901EA0173501762000000000000
B0436113159430S11658941EA0172201744000000000000
B0436153159356S11658977EA0170101723000000000000
B0436193159276S11659012EA0168401707000000000000
B0436233159196S11659053EA0167001686000000000000
B0436273159117S11659097EA0165401674000000000000
B0436313159029S11659113EA0165001674000000000000
B0436353158941S11659111EA0164501664000000000000
B0436393158854S11659105EA0163801661000000000000
B0436433158770S11659097EA0163201655000000000000
B0436473158687S11659092EA0163001656000000000000
B0436513158603S11659087EA0163101656000000000000
B0436553158523S11659080EA0163501662000000000000
B0436593158445S11659072EA0163701662000000000000
B0437033158366S11659074EA0163601660000000000000
B0437073158288S11659075EA0163301656000000000000
B0437113158210S11659084EA0162701650000000000000
B0437153158135S11659107EA0162901658000000000000
B0437193158073S11659127EA0166101696000000000000
B0437233158024S11659141EA0168601718000000000000
B0437273157981S11659158EA0169701727000000000000
B0437313157953S11659204EA0169901726000000000000
B0437353157961S11659267EA0169601724000000000000
B0437393158018S11659298EA0169701723000000000000
B0437433158086S11659253EA0169701727000000000000
B0437473158120S11659171EA0170401735000000015000
B0437513158125S11659085EA0170801740000000000000
B0437553158108S11659006EA0171501746000000000000
B0437593158065S11658959EA0172601759000000000000
B0438033158013S11658944EA0173301765000000000000
B0438073157963S11658950EA0173701771000000000000
B0438113157913S11658971EA0174701782000000000000
B0438153157865S11658994EA0175601787000000000000
B0438193157820S11659028EA0175201779000000000000
B0438233157766S11659063EA0173901766000000000000
B0438273157699S11659081EA0172001743000000000000
B0438313157623S11659083EA0170601732000000000000
B0438353157543S11659076EA0169201718000000000000
B0438393157462S11659068EA0168401711000000000000
B0438433157381S11659057EA0168401710000000000000
B0438473157302S11659048EA0168201709000000000000
B0438513157224S11659053EA0168001703000000000000
B0438553157145S11659071EA0166901691000000000000
B0438593157063S11659088EA0166001682000000000000
B0439033156982S11659114EA0165001671000000000000
B0439073156903S11659146EA0162901647000000000000
B0439113156826S11659187EA0161501637000000000000
B0439153156759S11659239EA0160701629000000000000
B0439193156690S11659278EA0160301627000000000000
B0439233156620S11659292EA0160501631000000000000
B0439273156552S11659295EA0160901635000000000000
B0439313156483S11659287EA0160901632000000000000
B0439353156414S11659283EA0159901620000000000000
B0439393156345S11659295EA0159001611000000000000
B0439433156280S11659321EA0158201604000000000000
B0439473156219S11659362EA0157501595000000000000
B0439513156157S11659406EA0156501577000000000000
B0439553156083S11659439EA0154301555000000000000
B0439593156005S11659458EA0152801547000000000000
B0440033155927S11659462EA0152701549000000000000
B0440073155851S11659456EA0152601546000000000000
B0440113155775S11659452EA0152201541000000000000
B0440153155697S11659452EA0151501531000000000000
B0440193155616S11659447EA0150201519000000000000
B0440233155535S11659439EA0149801520000000000000
B0440273155457S11659431EA0150001522000000000000
B0440313155382S11659441EA0150701532000000000000
B0440353155312S11659462EA0152201553000000000000
B0440393155286S11659518EA0155001580000000000000
B0440433155348S11659540EA0157101596000000000000
B0440473155403S11659475EA0157701599000000000000
B0440513155400S11659388EA0158501610000000015000
B0440553155351S11659347EA0159901627000000015000
B0440593155325S11659393EA0161801648000000000000
B0441033155377S11659425EA0163901668000000000000
B0441073155438S11659379EA0164701670000000015000
B0441113155430S11659297EA0165501685000000015000
B0441153155376S11659291EA0167201703000000000000
B0441193155366S11659347EA0169201724000000000000
B0441233155418S11659379EA0170901738000000000000
B0441273155481S11659328EA0171201731000000015000
B0441313155477S11659236EA0171201746000000015000
B0441353155422S11659211EA0173201768000000015000
B0441393155412S11659267EA0174901784000000000000
B0441433155473S11659289EA0176801805000000015000
B0441473155526S11659228EA0178001808000000015000
B0441513155494S11659159EA0178701823000000015000
B0441553155441S11659172EA0180101836000000000000
B0441593155454S11659232EA0181401852000000000000
B0442033155521S11659222EA0183201870000000015000
B0442073155554S11659142EA0183801868000000015000
B0442113155520S11659068EA0184501886000000015000
B0442153155468S11659070EA0186701909000000015000
B0442193155473S11659122EA0188301917000000000000
B0442233155539S11659132EA0189301934000000015000
B0442273155580S11659064EA0191201951000000015000
B0442313155546S11659002EA0192501960000000015000
B0442353155499S11659018EA0193301970000000000000
B0442393155506S11659080EA0194901993000000000000
B0442433155571S11659090EA0197702021000000000000
B0442473155610S11659025EA0199602035000000015000
B0442513155586S11658959EA0200202041000000015000
B0442553155537S11658960EA0201302058000000015000
B0442593155535S11659020EA0203102079000000000000
B0443033155598S11659040EA0205502108000000000000
B0443073155649S11658984EA0207702122000000015000
B0443113155637S11658911EA0208702130000000015000
B0443153155590S11658892EA0210002149000000015000
B0443193155564S11658932EA0211302158000000000000
B0443233155593S11658989EA0212602173000000000000
B0443273155658S11658986EA0214802196000000000000
B0443313155691S11658919EA0216502208000000015000
B0443353155664S11658862EA0217602220000000015000
B0443393155617S11658873EA0218802233000000000000
B0443433155620S11658937EA0220102247000000000000
B0443473155684S11658959EA0222202273000000000000
B0443513155737S11658905EA0223902287000000000000
B0443553155723S11658833EA0224802296000000000000
B0443593155673S11658821EA0226202317000000000000
B0444033155645S11658867EA0228002333000000000000
B0444073155676S11658923EA0229502349000000000000
B0444113155745S11658916EA0231702372000000000000
B0444153155785S11658853EA0233502387000000000000
B0444193155771S11658784EA0234602398000000000000
B0444233155725S11658759EA0235702414000000000000
B0444273155685S11658780EA0236902422000000000000
B0444313155677S11658838EA0237402426000000000000
B0444353155721S11658889EA0238602442000000000000
B0444393155788S11658862EA0240702466000000000000
B0444433155799S11658788EA0242902487000000000000
B0444473155756S11658756EA0244202496000000000000
B0444513155716S11658793EA0245102504000000000000
B0444553155719S11658860EA0245902512000000000000
B0444593155771S11658903EA0248102539000000000000
B0445033155827S11658871EA0250202563000000000000
B0445073155833S11658794EA0251602571000000000000
B0445113155789S11658752EA0253002593000000000000
B0445153155734S11658755EA0253802583000000000000
B0445193155671S11658778EA0252402566000000000000
B0445233155594S11658811EA0250302542000000000000
B0445273155509S11658850EA0248502528000000000000
B0445313155422S11658892EA0247102513000000000000
B0445353155337S11658937EA0246202511000000000000
B0445393155255S11658983EA0246402515000000000000
B0445433155177S11659033EA0246102509000000000000
B0445473155099S11659087EA0244602493000000000000
B0445513155017S11659137EA0243802483000000000000
B0445553154934S11659187EA0242902475000000000000
B0445593154850S11659233EA0242002467000000000000
B0446033154767S11659275EA0242302475000000000000
B0446073154687S11659313EA0242502473000000000000
B0446113154607S11659349EA0242402473000000000000
B0446153154533S11659389EA0242302468000000000000
B0446193154458S11659431EA0241202457000000000000
B0446233154382S11659473EA0240902457000000000000
B0446273154311S11659512EA0240802454000000000000
B0446313154239S11659545EA0239902442000000000000
B0446353154167S11659581EA0238702429000000000000
B0446393154095S11659613EA0237502419000000000000
B0446433154024S11659646EA0236902413000000000000
B0446473153953S11659686EA0235702398000000000000
B0446513153883S11659724EA0235302399000000000000
B0446553153813S11659752EA0235302398000000000000
B0446593153743S11659777EA0235202397000000000000
B0447033153673S11659800EA0235102398000000000000
B0447073153602S11659824EA0234902393000000000000
B0447113153527S11659850EA0234002382000000000000
B0447153153452S11659878EA0233602381000000000000
B0447193153376S11659904EA0233302380000000000000
B0447233153302S11659928EA0233402381000000000000
B0447273153229S11659950EA0233202376000000000000
B0447313153156S11659974EA0232502369000000000000
B0447353153084S11700000EA0231802363000000000000
B0447393153008S11700024EA0231602363000000000000
B0447433152935S11700049EA0231702363000000000000
B0447473152864S11700075EA0231402359000000000000
B0447513152792S11700097EA0231602360000000000000
B0447553152725S11700116EA0231402358000000000000
B0447593152657S11700136EA0230902352000000000000
B0448033152591S11700156EA0230102345000000000000
B0448073152526S11700177EA0229802342000000000000
B0448113152461S11700197EA0229302336000000000000
B0448153152395S11700215EA0228802332000000000000
B0448193152327S11700231EA0228202325000000000000
B0448233152258S11700246EA0227502319000000000000
B0448273152188S11700267EA0226702310000000000000
B0448313152116S11700288EA0225702299000000000000
B0448353152042S11700306EA0225202295000000000000
B0448393151970S11700315EA0224902291000000000000
B0448433151898S11700322EA0225202294000000000000
B0448473151829S11700327EA0224802286000000000000
B0448513151756S11700329EA0224202281000000000000
B0448553151685S11700329EA0223802278000000000000
B0448593151612S11700332EA0223302272000000000000
B0449033151539S11700335EA0222202256000000000000
B0449073151464S11700348EA0221002251000000000000
B0449113151390S11700362EA0220702248000000000000
B0449153151316S11700375EA0220202240000000000000
B0449193151240S11700394EA0219102226000000000000
B0449233151164S11700416EA0218002219000000000000
B0449273151088S11700440EA0217402210000000000000
B0449313151013S11700465EA0217102220000000000000
B0449353150946S11700488EA0218502233000000000000
B0449393150883S11700517EA0218502223000000000000
B0449433150818S11700550EA0217202212000000000000
B0449473150753S11700588EA0216802209000000000000
B0449513150686S11700621EA0216802210000000000000
B0449553150623S11700652EA0216602205000000000000
B0449593150559S11700679EA0215802197000000000000
B0450033150495S11700700EA0215102188000000000000
B0450073150429S11700722EA0214102178000000000000
B0450113150361S11700752EA0212702160000000000000
B0450153150290S11700779EA0211102143000000000000
B0450193150216S11700808EA0209902133000000000000
B0450233150146S11700852EA0208702121000000000000
B0450273150070S11700882EA0207902113000000000000
B0450313149990S11700887EA0206902104000000000000
B0450353149909S11700878EA0206002095000000000000
B0450393149828S11700868EA0205002080000000000000
B0450433149744S11700858EA0203302063000000000000
B0450473149658S11700858EA0202002051000000000000
B0450513149574S11700857EA0200802037000000000000
B0450553149489S11700845EA0199102019000000000000
B0450593149405S11700819EA0197702009000000000000
B0451033149323S11700782EA0196902002000000000000
B0451073149246S11700738EA0196501996000000000000
B0451113149165S11700699EA0195201980000000000000
B0451153149082S11700669EA0194101973000000000000
B0451193149002S11700643EA0193801972000000000000
B0451233148924S11700622EA0193401963000000000000
B0451273148846S11700604EA0192401954000000000000
B0451313148765S11700598EA0191701944000000000000
B0451353148683S11700598EA0190901938000000000000
B0451393148600S11700588EA0190301934000000000000
B0451433148519S11700582EA0189701925000000000000
B0451473148437S11700585EA0188501911000000000000
B0451513148354S11700588EA0187101897000000000000
B0451553148271S11700589EA0185401873000000000000
B0451593148185S11700591EA0183201857000000000000
B0452033148102S11700585EA0182701860000000000000
B0452073148027S11700572EA0183101861000000000000
B0452113147951S11700558EA0182601853000000000000
B0452153147875S11700545EA0181501839000000000000
B0452193147794S11700540EA0180301825000000000000
B0452233147719S11700559EA0179201820000000000000
B0452273147648S11700589EA0178601810000000000000
B0452313147586S11700637EA0177701803000000000000
B0452353147521S11700688EA0176401782000000000000
B0452393147449S11700731EA0174601768000000000000
B0452433147373S11700767EA0173801759000000000000
B0452473147295S11700795EA0172501748000000000000
B0452513147214S11700814EA0171401734000000000000
B0452553147134S11700827EA0169501712000000000000
B0452593147050S11700831EA0168201700000000000000
B0453033146968S11700829EA0167601700000000000000
B0453073146893S11700834EA0167601696000000000000
B0453113146823S11700852EA0167201698000000000000
B0453153146760S11700874EA0168101708000000000000
B0453193146702S11700904EA0168301704000000000000
B0453233146642S11700931EA0167501695000000000000
B0453273146576S11700942EA0166701687000000000000
B0453313146507S11700935EA0166101683000000000000
B0453353146439S11700912EA0165801678000000000000
B0453393146370S11700884EA0165101669000000000000
B0453433146299S11700862EA0164201662000000000000
B0453473146227S11700845EA0164101663000000000000
B0453513146156S11700849EA0164401669000000000000
B0453553146090S11700858EA0166001690000000000000
B0453593146036S11700886EA0167701704000000000000
B0454033146052S11700953EA0169601726000000000000
B0454073146127S11700960EA0170901736000000000000
B0454113146187S11700904EA0171501741000000000000
B0454153146218S11700830EA0172101747000000000000
B0454193146218S11700756EA0172501750000000000000
B0454233146186S11700706EA0172601751000000000000
B0454273146138S11700680EA0172801755000000000000
B0454313146083S11700679EA0173001759000000000000
B0454353146042S11700713EA0174001769000000000000
B0454393146081S11700774EA0175001781000000000000
B0454433146159S11700764EA0175901787000000000000
B0454473146203S11700692EA0176201786000000000000
B0454513146191S11700618EA0176501790000000000000
B0454553146157S11700562EA0176601791000000000000
B0454593146107S11700527EA0176701793000000000000
B0455033146051S11700513EA0177301802000000000000
B0455073145993S11700519EA0178601818000000000000
B0455113145945S11700544EA0179701830000000000000
B0455153145949S11700605EA0180901840000000000000
B0455193146021S11700622EA0181601850000000000000
B0455233146086S11700569EA0182101853000000000000
B0455273146108S11700487EA0182801860000000015000
B0455313146077S11700431EA0184101875000000015000
B0455353146034S11700435EA0185101883000000000000
B0455393146036S11700488EA0185601885000000000000
B0455433146099S11700520EA0185401881000000000000
B0455473146170S11700481EA0185301881000000000000
B0455513146191S11700398EA0185701887000000000000
B0455553146174S11700319EA0186101892000000000000
B0455593146131S11700263EA0186601898000000000000
B0456033146077S11700233EA0186901901000000000000
B0456073146021S11700234EA0187101901000000000000
B0456113145966S11700255EA0186901901000000000000
B0456153145913S11700284EA0186901897000000000000
B0456193145854S11700314EA0185201875000000000000
B0456233145782S11700327EA0183201854000000000000
B0456273145705S11700318EA0182001844000000000000
B0456313145626S11700296EA0181001830000000000000
B0456353145549S11700267EA0179801824000000000000
B0456393145473S11700240EA0179801823000000000000
B0456433145397S11700218EA0178901810000000000000
B0456473145317S11700208EA0177701802000000000000
B0456513145237S11700203EA0177301798000000000000
B0456553145156S11700193EA0176901794000000000000
B0456593145077S11700190EA0176601790000000000000
B0457033144998S11700198EA0176101781000000000000
B0457073144917S11700201EA0174601765000000000000
B0457113144835S11700188EA0173701762000000000000
B0457153144753S11700166EA0173201752000000000000
B0457193144671S11700138EA0171901735000000000000
B0457233144591S11700114EA0170901733000000000000
B0457273144514S11700086EA0170701729000000000000
B0457313144439S11700062EA0170001722000000000000
B0457353144363S11700033EA0169801722000000000000
B0457393144292S11659999EA0169601718000000000000
B0457433144224S11659968EA0169801727000000000000
B0457473144160S11659946EA0170801737000000000000
B0457513144101S11659933EA0171201735000000000000
B0457553144041S11659926EA0170501729000000000000
B0457593143981S11659934EA0169801719000000000000
B0458033143921S11659951EA0168601708000000000000
B0458073143861S11659967EA0168201707000000000000
B0458113143804S11659985EA0167701700000000000000
B0458153143747S11700004EA0167201694000000000000
B0458193143689S11700029EA0166401683000000000000
B0458233143629S11700062EA0164601662000000000000
B0458273143559S11700086EA0162901643000000000000
B0458313143483S11700099EA0161701636000000000000
B0458353143413S11700117EA0161501637000000000000
B0458393143349S11700147EA0161801640000000000000
B0458433143299S11700195EA0161801637000000000000
B0458473143271S11700266EA0161501636000000000000
B0458513143258S11700344EA0161201633000000000000
B0458553143252S11700423EA0161401637000000000000
B0458593143252S11700502EA0161701639000000000000
B0459033143257S11700579EA0161301632000000000000
B0459073143274S11700657EA0160201619000000000000
B0459113143273S11700740EA0158501600000000000000
B0459153143236S11700812EA0157401591000000000000
B0459193143171S11700839EA0157201593000000000000
B0459233143106S11700823EA0157201592000000000000
B0459273143052S11700782EA0157201590000000000000
B0459313142996S11700744EA0156301575000000000000
B0459353142929S11700725EA0154301554000000000000
B0459393142858S11700712EA0152501537000000000000
B0459433142785S11700696EA0150801520000000000000
B0459473142710S11700680EA0149601508000000000000
B0459513142630S11700679EA0148301496000000000000
B0459553142551S11700683EA0147501484000000000000
B0459593142470S11700687EA0146201473000000000000
B0500033142395S11700691EA0145601469000000000000
B0500073142324S11700697EA0145601467000000000000
B0500113142252S11700705EA0144101450000000000000
B0500153142181S11700715EA0142901440000000000000
B0500193142109S11700725EA0142401437000000000000
B0500233142039S11700738EA0142301433000000000000
B0500273141971S11700749EA0141901430000000000000
B0500313141905S11700757EA0142001430000000000000
B0500353141837S11700756EA0141601427000000000000
B0500393141771S11700758EA0141401426000000000000
B0500433141709S11700766EA0141401427000000000000
B0500473141648S11700782EA0141201422000000000000
B0500513141589S11700808EA0140201411000000000000
B0500553141532S11700840EA0139301401000000000000
B0500593141473S11700881EA0138501398000000000000
B0501033141428S11700935EA0139401413000000000000
B0501073141445S11701001EA0141201429000000000000
B0501113141520S11701005EA0142401439000000000000
B0501153141568S11700931EA0143501450000000000000
B0501193141557S11700851EA0144501457000000015000
B0501233141506S11700831EA0145201465000000015000
B0501273141494S11700879EA0145901472000000015000
B0501313141547S11700912EA0146201473000000015000
B0501353141616S11700873EA0146801486000000015000
B0501393141637S11700793EA0148301497000000015000
B0501433141599S11700734EA0148101491000000015000
B0501473141550S11700747EA0148101498000000015000
B0501513141564S11700805EA0148701501000000015000
B0501553141629S11700832EA0148801506000000015000
B0501593141693S11700787EA0149901518000000015000
B0502033141692S11700702EA0150201517000000015000
B0502073141640S11700667EA0150501521000000015000
B0502113141607S11700706EA0151101528000000015000
B0502153141642S11700758EA0151701533000000015000
B0502193141713S11700753EA0152501545000000015000
B0502233141763S11700687EA0153301548000000015000
B0502273141763S11700600EA0153001542000000015000
B0502313141718S11700539EA0152901546000000015000
B0502353141662S11700531EA0153401551000000015000
B0502393141628S11700570EA0153401550000000015000
B0502433141632S11700635EA0152901545000000015000
B0502473141659S11700702EA0152701545000000000000
B0502513141698S11700766EA0153001545000000000000
B0502553141759S11700814EA0153401550000000000000
B0502593141843S11700813EA0153801555000000000000
B0503033141909S11700748EA0154201558000000015000
B0503073141930S11700654EA0154301556000000015000
B0503113141908S11700571EA0154101553000000015000
B0503153141852S11700526EA0153601551000000015000
B0503193141788S11700497EA0153601555000000000000
B0503233141723S11700492EA0154001560000000000000
B0503273141661S11700501EA0153601550000000000000
B0503313141599S11700522EA0151801528000000000000
B0503353141537S11700554EA0149701507000000000000
B0503393141467S11700580EA0147601487000000000000
B0503433141390S11700588EA0146901480000000000000
B0503473141311S11700584EA0145901466000000000000
B0503513141230S11700570EA0144901460000000000000
B0503553141152S11700566EA0144501456000000000000
B0503593141086S11700598EA0144601460000000000000
B0504033141035S11700652EA0144401456000000000000
B0504073140985S11700708EA0143601445000000000000
B0504113140926S11700753EA0142501435000000000000
B0504153140860S11700784EA0141801429000000000000
B0504193140792S11700812EA0141701428000000000000
B0504233140728S11700843EA0141501427000000000000
B0504273140663S11700877EA0141301423000000000000
B0504313140593S11700904EA0140401413000000000000
B0504353140519S11700916EA0139501402000000000000
B0504393140445S11700912EA0139001400000000000000
B0504433140374S11700900EA0138701397000000000000
B0504473140303S11700888EA0138701396000000000000
B0504513140237S11700896EA0138901401000000000000
B0504553140180S11700920EA0139301402000000000000
B0504593140129S11700955EA0138501391000000000000
B0505033140072S11700986EA0137301380000000000000
B0505073140017S11701016EA0136601372000000000000
B0505113139963S11701047EA0135701364000000000000
B0505153139900S11701055EA0134801352000000000000
B0505193139830S11701040EA0133401339000000000000
B0505233139757S11701024EA0133301341000000000000
B0505273139695S11701038EA0133901350000000000000
B0505313139642S11701069EA0134601355000000000000
B0505353139597S11701109EA0135201363000000000000
B0505393139557S11701152EA0135601362000000000000
B0505433139526S11701207EA0136001373000000000000
B0505473139555S11701260EA0137901395000000000000
B0505513139616S11701235EA0139301404000000000000
B0505553139643S11701157EA0140001409000000015000
B0505593139616S11701085EA0140401416000000015000
B0506033139564S11701076EA0141301424000000015000
B0506073139560S11701125EA0142801442000000015000
B0506113139617S11701135EA0143901448000000015000
B0506153139661S11701069EA0144101450000000015000
B0506193139639S11700990EA0144401457000000015000
B0506233139587S11700973EA0145201465000000015000
B0506273139571S11701020EA0146001473000000015000
B0506313139618S11701050EA0146701476000000015000
B0506353139682S11701011EA0146901484000000015000
B0506393139698S11700927EA0148001492000000015000
B0506433139664S11700864EA0148601500000000015000
B0506473139618S11700860EA0149101502000000015000
B0506513139608S11700903EA0149201501000000015000
B0506553139643S11700946EA0148901500000000015000
B0506593139704S11700962EA0149201506000000015000
B0507033139769S11700925EA0149501509000000015000
B0507073139798S11700840EA0150101518000000015000
B0507113139755S11700787EA0150901518000000015000
B0507153139714S11700818EA0150301516000000015000
B0507193139721S11700879EA0150501519000000015000
B0507233139770S11700925EA0151001527000000015000
B0507273139838S11700931EA0152001535000000015000
B0507313139899S11700882EA0152201532000000015000
B0507353139921S11700792EA0151501525000000015000
B0507393139898S11700709EA0151201524000000015000
B0507433139843S11700666EA0151501531000000015000
B0507473139789S11700666EA0151701532000000015000
B0507513139731S11700678EA0151601529000000000000
B0507553139673S11700695EA0151301526000000000000
B0507593139613S11700719EA0150501515000000000000
B0508033139549S11700745EA0149301506000000000000
B0508073139486S11700769EA0149001501000000000000
B0508113139423S11700799EA0148201490000000000000
B0508153139361S11700831EA0147101478000000000000
B0508193139295S11700862EA0145601462000000000000
B0508233139220S11700875EA0144601452000000000000
B0508273139145S11700871EA0143901445000000000000
B0508313139067S11700857EA0143201438000000000000
B0508353138988S11700836EA0143001439000000000000
B0508393138915S11700835EA0144001452000000000000
B0508433138853S11700860EA0144801461000000000000
B0508473138797S11700897EA0145701468000000000000
B0508513138754S11700949EA0146201474000000000000
B0508553138717S11701007EA0147301487000000000000
B0508593138715S11701074EA0148801502000000000000
B0509033138781S11701113EA0148901495000000000000
B0509073138854S11701064EA0147901479000000000000
B0509113138867S11700978EA0146801472000000015000
B0509153138828S11700927EA0146501478000000015000
B0509193138780S11700894EA0147001483000000000000
B0509233138733S11700887EA0147201482000000000000
B0509273138700S11700934EA0146301470000000000000
B0509313138664S11700982EA0145801472000000000000
B0509353138630S11701031EA0146501481000000000000
B0509393138604S11701086EA0146501476000000000000
B0509433138578S11701144EA0145601461000000000000
B0509473138538S11701193EA0144401454000000000000
B0509513138494S11701229EA0144401453000000000000
B0509553138463S11701285EA0144201455000000000000
B0509593138450S11701359EA0145301473000000000000
B0510033138490S11701420EA0147101482000000000000
B0510073138568S11701401EA0147001481000000000000
B0510113138615S11701326EA0146901477000000015000
B0510153138612S11701243EA0146601477000000015000
B0510193138572S11701200EA0148001497000000015000
B0510233138551S11701245EA0149101500000000015000
B0510273138602S11701295EA0149501510000000015000
B0510313138672S11701265EA0150501514000000015000
B0510353138699S11701187EA0150501517000000015000
B0510393138667S11701144EA0151601529000000015000
B0510433138634S11701180EA0151901534000000015000
B0510473138659S11701246EA0152301535000000015000
B0510513138729S11701269EA0152801542000000015000
B0510553138795S11701225EA0152701533000000015000
B0510593138811S11701143EA0152001533000000015000
B0511033138784S11701081EA0152701546000000015000
B0511073138743S11701051EA0153601550000000015000
B0511113138691S11701047EA0152101535000000015000
B0511153138625S11701030EA0150501519000000015000
B0511193138555S11700999EA0150201518000000000000
B0511233138485S11700965EA0150601524000000000000
B0511273138414S11700931EA0151301534000000000000
B0511313138344S11700905EA0152001532000000000000
B0511353138273S11700900EA0151101528000000000000
B0511393138204S11700909EA0151401532000000000000
B0511433138143S11700929EA0151901538000000000000
B0511473138088S11700959EA0152601545000000000000
B0511513138040S11700994EA0152501537000000000000
B0511553137992S11701031EA0151901533000000000000
B0511593137946S11701059EA0151801533000000000000
B0512033137897S11701074EA0150701516000000000000
B0512073137842S11701081EA0149201503000000000000
B0512113137781S11701070EA0147601486000000000000
B0512153137715S11701043EA0146201473000000000000
B0512193137646S11701007EA0145401460000000000000
B0512233137575S11700975EA0144201454000000000000
B0512273137504S11700943EA0144101452000000000000
B0512313137434S11700910EA0143701450000000000000
B0512353137365S11700877EA0143301442000000000000
B0512393137296S11700845EA0142801438000000000000
B0512433137229S11700816EA0142101426000000000000
B0512473137165S11700788EA0142101432000000000000
B0512513137107S11700764EA0142701439000000000000
B0512553137049S11700743EA0142601433000000000000
B0512593136990S11700732EA0141901422000000000000
B0513033136930S11700741EA0140401411000000000000
B0513073136870S11700752EA0139901409000000000000
B0513113136810S11700764EA0139001393000000000000
B0513153136744S11700778EA0137201376000000000000
B0513193136678S11700796EA0136001369000000000000
B0513233136615S11700821EA0136201371000000000000
B0513273136566S11700868EA0135901366000000000000
B0513313136523S11700923EA0135001352000000000000
B0513353136472S11700978EA0133501338000000000000
B0513393136414S11701022EA0132601330000000000000
B0513433136353S11701057EA0131701321000000000000
B0513473136292S11701087EA0130701314000000000000
B0513513136233S11701124EA0129901303000000000000
B0513553136180S11701170EA0129301300000000000000
B0513593136125S11701213EA0128901294000000000000
B0514033136065S11701247EA0128301288000000000000
B0514073136004S11701276EA0127901282000000000000
B0514113135938S11701293EA0127201272000000000000
B0514153135869S11701299EA0126101261000000000000
B0514193135799S11701297EA0125101250000000000000
B0514233135729S11701289EA0124401246000000000000
B0514273135662S11701284EA0124001239000000000000
B0514313135597S11701282EA0122901227000000000000
B0514353135534S11701287EA0122001218000000000000
B0514393135471S11701297EA0121201212000000000000
B0514433135408S11701295EA0121001211000000000000
B0514473135344S11701282EA0121101212000000000000
B0514513135280S11701274EA0121001212000000000000
B0514553135226S11701293EA0120901210000000000000
B0514593135179S11701329EA0120201197000000000000
B0515033135124S11701360EA0118901185000000000000
B0515073135062S11701365EA0119001193000000000000
B0515113134999S11701362EA0119901202000000000000
B0515153134962S11701398EA0120201202000000000000
B0515193134992S11701451EA0120201201000000000000
B0515233135066S11701441EA0119601197000000000000
B0515273135125S11701371EA0119901203000000000000
B0515313135171S11701287EA0120601213000000000000
B0515353135175S11701196EA0121401216000000000000
B0515393135128S11701155EA0121501209000000000000
B0515433135098S11701196EA0120401199000000000000
B0515473135142S11701246EA0120201203000000000000
B0515513135215S11701216EA0120901214000000015000
B0515553135261S11701138EA0121901225000000015000
B0515593135288S11701052EA0122101217000000000000
B0516033135263S11700983EA0120701199000000015000
B0516073135209S11700981EA0119201185000000015000
B0516113135172S11701030EA0117901174000000000000
B0516153135145S11701086EA0118101180000000000000
B0516193135159S11701148EA0118401183000000000000
B0516233135223S11701169EA0118901191000000000000
B0516273135284S11701113EA0119701200000000015000
B0516313135309S11701022EA0119901195000000015000
B0516353135270S11700959EA0119801198000000015000
B0516393135222S11700962EA0120301199000000015000
B0516433135219S11701014EA0119601190000000015000
B0516473135278S11701047EA0119501193000000015000
B0516513135350S11701005EA0120001202000000015000
B0516553135382S11700920EA0120901206000000015000
B0516593135356S11700843EA0120901202000000015000
B0517033135305S11700821EA0120001192000000015000
B0517073135280S11700862EA0119401190000000015000
B0517113135328S11700899EA0119401194000000015000
B0517153135400S11700868EA0120201204000000015000
B0517193135422S11700786EA0120901205000000015000
B0517233135379S11700740EA0120801203000000015000
B0517273135343S11700767EA0120501199000000015000
B0517313135374S11700817EA0120401203000000015000
B0517353135448S11700803EA0120601201000000015000
B0517393135489S11700719EA0120401200000000015000
B0517433135473S11700631EA0120201192000000015000
B0517473135422S11700591EA0119001180000000015000
B0517513135369S11700608EA0117801162000000015000
B0517553135319S11700648EA0115701150000000015000
B0517593135272S11700704EA0115501154000000000000
B0518033135235S11700769EA0115601154000000000000
B0518073135200S11700835EA0115701155000000000000
B0518113135168S11700907EA0115101147000000000000
B0518153135138S11700982EA0114401137000000000000
B0518193135119S11701063EA0113201127000000000000
B0518233135099S11701144EA0112101120000000000000
B0518273135077S11701219EA0112301123000000000000
B0518313135060S11701291EA0111901111000000000000
B0518353135042S11701368EA0110301093000000000000
B0518393135010S11701441EA0108401074000000000000
B0518433134958S11701502EA0107001062000000000000
B0518473134891S11701544EA0105801049000000000000
B0518513134816S11701570EA0104801040000000000000
B0518553134739S11701585EA0104501039000000000000
B0518593134661S11701597EA0104501039000000000000
B0519033134591S11701615EA0105801054000000000000
B0519073134583S11701675EA0107001066000000000000
B0519113134651S11701671EA0107401063000000000000
B0519153134682S11701585EA0106701059000000015000
B0519193134654S11701506EA0106501063000000015000
B0519233134600S11701469EA0106801064000000015000
B0519273134547S11701493EA0106801063000000015000
B0519313134504S11701538EA0106801064000000000000
B0519353134472S11701590EA0107001066000000000000
B0519393134495S11701645EA0107101064000000000000
B0519433134566S11701625EA0107001067000000015000
B0519473134621S11701549EA0108101083000000015000
B0519513134618S11701453EA0109401089000000015000
B0519553134566S11701417EA0109901095000000015000
B0519593134550S11701466EA0109901093000000015000
B0520033134600S11701497EA0109801095000000015000
B0520073134664S11701443EA0110201102000000015000
B0520113134685S11701351EA0111201112000000015000
B0520153134644S11701299EA0111901115000000015000
B0520193134617S11701342EA0111601111000000015000
B0520233134668S11701377EA0111801117000000015000
B0520273134732S11701321EA0112401125000000015000
B0520313134743S11701225EA0113001124000000015000
B0520353134687S11701193EA0113301131000000015000
B0520393134664S11701248EA0114101146000000015000
B0520433134712S11701287EA0115201152000000015000
B0520473134781S11701243EA0115501155000000015000
B0520513134799S11701152EA0116001158000000015000
B0520553134747S11701130EA0116301164000000015000
B0520593134743S11701185EA0116901169000000015000
B0521033134810S11701194EA0117601181000000015000
B0521073134864S11701134EA0118401183000000015000
B0521113134863S11701051EA0118001174000000015000
B0521153134808S11701025EA0117601171000000015000
B0521193134772S11701079EA0116501158000000015000
B0521233134790S11701151EA0116501166000000015000
B0521273134865S11701131EA0118001184000000015000
B0521313134895S11701043EA0118401180000000015000
B0521353134868S11700955EA0117701174000000015000
B0521393134813S11700894EA0117301170000000015000
B0521433134755S11700908EA0117401178000000015000
B0521473134742S11700970EA0118301182000000015000
B0521513134782S11701026EA0118101175000000015000
B0521553134854S11701039EA0117901179000000015000
B0521593134932S11701022EA0117801176000000000000
B0522033135012S11700995EA0117301170000000000000
B0522073135080S11700935EA0117001169000000015000
B0522113135093S11700849EA0116901166000000015000
B0522153135050S11700799EA0116701162000000015000
B0522193134992S11700784EA0115901151000000000000
B0522233134929S11700795EA0115101147000000000000
B0522273134864S11700817EA0114701144000000000000
B0522313134799S11700844EA0114601142000000000000
B0522353134735S11700878EA0113801133000000000000
B0522393134668S11700914EA0112701121000000000000
B0522433134598S11700955EA0111301105000000000000
B0522473134529S11700999EA0109901091000000000000
B0522513134459S11701047EA0109101081000000000000
B0522553134386S11701090EA0108201074000000000000
B0522593134310S11701134EA0107501067000000000000
B0523033134239S11701177EA0107301066000000000000
B0523073134173S11701229EA0107401065000000000000
B0523113134109S11701284EA0107001060000000000000
B0523153134054S11701345EA0106701060000000000000
B0523193134011S11701414EA0107301069000000000000
B0523233133980S11701489EA0108101078000000000000
B0523273133954S11701563EA0108901088000000000000
B0523313133932S11701638EA0109501088000000000000
B0523353133916S11701716EA0108601077000000000000
B0523393133907S11701796EA0107601067000000000000
B0523433133903S11701874EA0106001050000000000000
B0523473133898S11701954EA0104101026000000000000
B0523513133880S11702032EA0102601016000000000000
B0523553133849S11702096EA0102201013000000000000
B0523593133809S11702149EA0101801008000000000000
B0524033133759S11702195EA0101200999000000000000
B0524073133699S11702227EA0100600996000000000000
B0524113133636S11702247EA0100500998000000000000
B0524153133571S11702257EA0100901001000000000000
B0524193133508S11702262EA0101001002000000000000
B0524233133446S11702266EA0101301007000000000000
B0524273133396S11702291EA0102201015000000000000
B0524313133420S11702346EA0103601029000000000000
B0524353133494S11702342EA0102201005000000000000
B0524393133547S11702269EA0101301007000000015000
B0524433133565S11702184EA0101501006000000015000
B0524473133547S11702109EA0101301007000000015000
B0524513133504S11702062EA0101701011000000015000
B0524553133456S11702056EA0102601022000000015000
B0524593133469S11702104EA0103701026000000015000
B0525033133541S11702091EA0103501025000000015000
B0525073133575S11702012EA0104301037000000015000
B0525113133551S11701943EA0105101043000000015000
B0525153133503S11701940EA0105201043000000015000
B0525193133517S11701993EA0106001056000000015000
B0525233133589S11701978EA0106801061000000015000
B0525273133612S11701892EA0107601072000000015000
B0525313133567S11701841EA0108301074000000015000
B0525353133536S11701883EA0108301076000000015000
B0525393133589S11701928EA0109501094000000015000
B0525433133656S11701887EA0110701108000000015000
B0525473133656S11701800EA0111901113000000015000
B0525513133607S11701757EA0112101114000000015000
B0525553133565S11701788EA0112501121000000015000
B0525593133578S11701849EA0113001126000000015000
B0526033133649S11701857EA0114001139000000015000
B0526073133694S11701784EA0115201151000000015000
B0526113133672S11701710EA0115701152000000015000
B0526153133624S11701714EA0115401148000000015000
B0526193133621S11701772EA0115501153000000015000
B0526233133673S11701817EA0116101162000000015000
B0526273133744S11701802EA0117301173000000015000
B0526313133793S11701737EA0118001183000000015000
B0526353133773S11701670EA0118901184000000015000
B0526393133727S11701680EA0118301174000000015000
B0526433133741S11701741EA0118201185000000015000
B0526473133801S11701770EA0119301198000000015000
B0526513133870S11701750EA0120301204000000015000
B0526553133913S11701679EA0120801210000000015000
B0526593133901S11701598EA0121301213000000015000
B0527033133853S11701563EA0121301209000000015000
B0527073133812S11701596EA0120301200000000015000
B0527113133829S11701659EA0120501207000000015000
B0527153133897S11701688EA0121101213000000015000
B0527193133976S11701696EA0121501216000000015000
B0527233134054S11701666EA0122001220000000015000
B0527273134092S11701584EA0122701227000000015000
B0527313134054S11701524EA0123101227000000015000
B0527353134010S11701544EA0123201231000000015000
B0527393134037S11701597EA0123701234000000015000
B0527433134114S11701589EA0123801236000000015000
B0527473134180S11701531EA0123801240000000015000
B0527513134192S11701441EA0124001237000000015000
B0527553134147S11701390EA0123401229000000015000
B0527593134088S11701398EA0121801210000000015000
B0528033134028S11701430EA0119501186000000015000
B0528073133967S11701475EA0118801187000000000000
B0528113133907S11701516EA0118901186000000000000
B0528153133850S11701566EA0119001187000000000000
B0528193133796S11701620EA0119201189000000000000
B0528233133747S11701681EA0119301193000000000000
B0528273133699S11701744EA0118901181000000000000
B0528313133655S11701813EA0117601171000000000000
B0528353133615S11701888EA0116601160000000000000
B0528393133582S11701967EA0116201158000000000000
B0528433133552S11702045EA0116001157000000000000
B0528473133549S11702126EA0116801175000000000000
B0528513133619S11702151EA0118801197000000000000
B0528553133668S11702084EA0120801217000000015000
B0528593133655S11702013EA0122301223000000015000
B0529033133607S11701987EA0122001213000000015000
B0529073133565S11702021EA0121101207000000015000
B0529113133569S11702083EA0121901220000000015000
B0529153133633S11702104EA0123001229000000015000
B0529193133682S11702040EA0123901240000000015000
B0529233133660S11701967EA0124801247000000015000
B0529273133608S11701965EA0124601243000000015000
B0529313133604S11702023EA0124801250000000015000
B0529353133668S11702045EA0125501258000000015000
B0529393133723S11701986EA0126301272000000015000
B0529433133720S11701904EA0127301276000000015000
B0529473133672S11701856EA0127101269000000015000
B0529513133612S11701865EA0126601269000000015000
B0529553133568S11701909EA0126701268000000015000
B0529593133560S11701975EA0127101276000000000000
B0530033133623S11702019EA0127701281000000015000
B0530073133703S11702005EA0127801282000000015000
B0530113133741S11701927EA0128601292000000015000
B0530153133723S11701846EA0128501282000000015000
B0530193133664S11701811EA0128001279000000015000
B0530233133597S11701807EA0127501271000000015000
B0530273133529S11701824EA0126501265000000000000
B0530313133468S11701863EA0126501267000000000000
B0530353133415S11701919EA0126001259000000000000
B0530393133372S11701986EA0125801261000000000000
B0530433133341S11702056EA0126401266000000000000
B0530473133312S11702130EA0125401249000000000000
B0530513133268S11702200EA0123101223000000000000
B0530553133205S11702257EA0121401210000000000000
B0530593133139S11702304EA0120701205000000000000
B0531033133070S11702337EA0120401201000000000000
B0531073133001S11702363EA0120001197000000000000
B0531113132948S11702413EA0119801197000000000000
B0531153132906S11702476EA0119401190000000000000
B0531193132861S11702534EA0118701183000000000000
B0531233132806S11702581EA0117801172000000000000
B0531273132748S11702615EA0117201168000000000000
B0531313132689S11702641EA0117001163000000000000
B0531353132631S11702660EA0116501156000000000000
B0531393132572S11702680EA0115701151000000000000
B0531433132516S11702701EA0114801138000000000000
B0531473132458S11702723EA0113601126000000000000
B0531513132402S11702747EA0113001122000000000000
B0531553132347S11702771EA0112601116000000000000
B0531593132295S11702797EA0112101113000000000000
B0532033132245S11702825EA0112101113000000000000
B0532073132193S11702859EA0112001111000000000000
B0532113132145S11702899EA0111901113000000000000
B0532153132113S11702957EA0112301115000000000000
B0532193132091S11703018EA0111601103000000000000
B0532233132074S11703080EA0110601096000000000000
B0532273132061S11703144EA0109701088000000000000
B0532313132035S11703201EA0109501086000000000000
B0532353131999S11703249EA0109301083000000000000
B0532393131961S11703297EA0109401087000000000000
B0532433131939S11703353EA0110401101000000000000
B0532473131979S11703400EA0110801095000000000000
B0532513132055S11703377EA0109901084000000000000
B0532553132090S11703288EA0109401089000000015000
B0532593132067S11703202EA0110101101000000015000
B0533033132011S11703175EA0110901102000000015000
B0533073131995S11703228EA0110801100000000015000
B0533113132057S11703254EA0111401111000000015000
B0533153132116S11703200EA0112501125000000015000
B0533193132112S11703118EA0113701133000000015000
B0533233132061S11703089EA0114301139000000015000
B0533273132039S11703128EA0115001146000000015000
B0533313132083S11703159EA0115201146000000015000
B0533353132134S11703109EA0115501153000000015000
B0533393132117S11703033EA0116101157000000015000
B0533433132059S11703019EA0116401159000000015000
B0533473132048S11703075EA0117201170000000015000
B0533513132108S11703081EA0118301185000000015000
B0533553132148S11703018EA0119101192000000015000
B0533593132126S11702945EA0119301189000000015000
B0534033132070S11702940EA0119601203000000015000
B0534073132064S11702990EA0121101221000000015000
B0534113132111S11703009EA0122201225000000015000
B0534153132160S11702959EA0122401226000000015000
B0534193132158S11702879EA0122501228000000015000
B0534233132107S11702838EA0123101237000000015000
B0534273132074S11702875EA0123801240000000015000
B0534313132117S11702914EA0124001244000000015000
B0534353132171S11702863EA0124701254000000015000
B0534393132168S11702780EA0125301258000000015000
B0534433132113S11702733EA0125501259000000015000
B0534473132070S11702769EA0126101270000000015000
B0534513132091S11702823EA0126901278000000015000
B0534553132151S11702829EA0127501288000000015000
B0534593132198S11702772EA0128401295000000015000
B0535033132193S11702689EA0128701295000000015000
B0535073132138S11702641EA0128901298000000015000
B0535113132093S11702667EA0129801309000000015000
B0535153132103S11702720EA0130801318000000015000
B0535193132160S11702728EA0131401322000000015000
B0535233132206S11702671EA0132001331000000015000
B0535273132204S11702589EA0132301332000000015000
B0535313132151S11702537EA0132401334000000015000
B0535353132102S11702561EA0133101345000000015000
B0535393132112S11702615EA0133901348000000015000
B0535433132172S11702615EA0134601358000000015000
B0535473132210S11702547EA0135601362000000015000
B0535513132182S11702469EA0135501359000000015000
B0535553132121S11702461EA0135701363000000015000
B0535593132107S11702519EA0136401375000000015000
B0536033132152S11702548EA0137201378000000015000
B0536073132204S11702498EA0137001374000000015000
B0536113132202S11702408EA0136801378000000015000
B0536153132156S11702344EA0137601384000000015000
B0536193132094S11702340EA0137801381000000015000
B0536233132087S11702395EA0137601378000000015000
B0536273132145S11702408EA0136701368000000015000
B0536313132213S11702370EA0136501373000000015000
B0536353132258S11702300EA0137401383000000015000
B0536393132230S11702220EA0138301390000000015000
B0536433132165S11702212EA0138801391000000015000
B0536473132145S11702269EA0139401401000000015000
B0536513132197S11702296EA0140101407000000015000
B0536553132254S11702253EA0140501417000000015000
B0536593132278S11702177EA0141401424000000015000
B0537033132254S11702097EA0141901428000000015000
B0537073132195S11702079EA0142501435000000015000
B0537113132161S11702126EA0142601429000000015000
B0537153132184S11702184EA0142001424000000015000
B0537193132247S11702187EA0141901426000000015000
B0537233132311S11702147EA0141901428000000015000
B0537273132372S11702091EA0142601438000000000000
B0537313132386S11702006EA0144001451000000015000
B0537353132334S11701967EA0144601456000000000000
B0537393132303S11702009EA0145601466000000015000
B0537433132338S11702054EA0146201473000000015000
B0537473132399S11702036EA0147201485000000015000
B0537513132428S11701960EA0148101491000000015000
B0537553132399S11701889EA0149001501000000015000
B0537593132345S11701874EA0149301503000000015000
B0538033132311S11701921EA0149501502000000015000
B0538073132340S11701979EA0149501504000000015000
B0538113132410S11701978EA0149901512000000015000
B0538153132476S11701936EA0150801525000000015000
B0538193132493S11701852EA0152001534000000015000
B0538233132447S11701806EA0153001541000000015000
B0538273132406S11701843EA0153501548000000015000
B0538313132423S11701902EA0154301555000000015000
B0538353132486S11701927EA0155001565000000015000
B0538393132548S11701885EA0155701568000000015000
B0538433132557S11701800EA0155501565000000015000
B0538473132512S11701740EA0156001576000000015000
B0538513132460S11701753EA0157001587000000015000
B0538553132463S11701811EA0158101597000000015000
B0538593132525S11701832EA0158601602000000015000
B0539033132588S11701781EA0159701616000000015000
B0539073132609S11701698EA0160701626000000015000
B0539113132579S11701631EA0161901637000000015000
B0539153132528S11701627EA0162501642000000015000
B0539193132509S11701679EA0163601654000000015000
B0539233132545S11701731EA0164401663000000015000
B0539273132615S11701731EA0165201674000000015000
B0539313132674S11701685EA0166701687000000015000
B0539353132702S11701609EA0166901683000000015000
B0539393132692S11701525EA0167101692000000015000
B0539433132648S11701485EA0168301706000000015000
B0539473132606S11701510EA0169201709000000015000
B0539513132615S11701570EA0169601718000000015000
B0539553132680S11701583EA0170701728000000015000
B0539593132730S11701515EA0171201739000000015000
B0540033132719S11701434EA0172501750000000015000
B0540073132671S11701402EA0173801764000000015000
B0540113132640S11701443EA0174601764000000015000
B0540153132672S11701503EA0174801771000000015000
B0540193132743S11701501EA0176001786000000015000
B0540233132789S11701433EA0177001792000000015000
B0540273132784S11701350EA0177701798000000015000
B0540313132731S11701312EA0178301809000000015000
B0540353132691S11701352EA0178901812000000015000
B0540393132707S11701419EA0179001815000000015000
B0540433132772S11701450EA0180001827000000015000
B0540473132845S11701432EA0181501846000000015000
B0540513132875S11701355EA0182501850000000015000
B0540553132843S11701284EA0182701849000000015000
B0540593132783S11701272EA0183301859000000015000
B0541033132752S11701323EA0184301864000000015000
B0541073132785S11701390EA0184101862000000015000
B0541113132853S11701433EA0184701879000000015000
B0541153132928S11701414EA0186601894000000015000
B0541193132970S11701338EA0187201892000000015000
B0541233132961S11701250EA0186701890000000015000
B0541273132910S11701189EA0187101895000000015000
B0541313132845S11701157EA0187101890000000015000
B0541353132774S11701147EA0186701893000000015000
B0541393132702S11701148EA0186701889000000000000
B0541433132626S11701135EA0186101889000000000000
B0541473132551S11701104EA0186601894000000000000
B0541513132480S11701060EA0186901895000000000000
B0541553132410S11701007EA0186501889000000000000
B0541593132340S11700948EA0186101887000000000000
B0542033132271S11700888EA0186001886000000000000
B0542073132202S11700825EA0185401877000000000000
B0542113132133S11700760EA0184601872000000000000
B0542153132063S11700700EA0185201881000000000000
B0542193131994S11700648EA0186301895000000000000
B0542233131922S11700618EA0187601909000000000000
B0542273131848S11700600EA0188201909000000000000
B0542313131771S11700595EA0188001906000000000000
B0542353131693S11700593EA0187101894000000000000
B0542393131613S11700578EA0185901881000000000000
B0542433131532S11700545EA0184701872000000000000
B0542473131458S11700502EA0184101866000000000000
B0542513131387S11700455EA0183601861000000000000
B0542553131319S11700409EA0182901849000000000000
B0542593131254S11700363EA0182001843000000000000
B0543033131193S11700319EA0181201833000000000000
B0543073131134S11700276EA0180201822000000000000
B0543113131079S11700228EA0178801807000000000000
B0543153131021S11700176EA0177501793000000000000
B0543193130960S11700138EA0176501783000000000000
B0543233130894S11700134EA0175701777000000000000
B0543273130829S11700149EA0175401776000000000000
B0543313130764S11700164EA0175201771000000000000
B0543353130699S11700173EA0175001772000000000000
B0543393130633S11700182EA0174701764000000000000
B0543433130569S11700198EA0173101746000000000000
B0543473130500S11700214EA0171401733000000000000
B0543513130432S11700232EA0171301734000000000000
B0543553130367S11700251EA0171901741000000000000
B0543593130305S11700277EA0172501750000000000000
B0544033130260S11700328EA0174101772000000000000
B0544073130292S11700390EA0176501792000000000000
B0544113130364S11700361EA0177701803000000015000
B0544153130374S11700283EA0178701811000000015000
B0544193130330S11700258EA0179501820000000015000
B0544233130315S11700314EA0180501831000000015000
B0544273130374S11700351EA0181501840000000015000
B0544313130442S11700311EA0182301852000000015000
B0544353130457S11700236EA0183301862000000015000
B0544393130422S11700186EA0184101870000000015000
B0544433130379S11700197EA0185201876000000015000
B0544473130382S11700257EA0186201880000000015000
B0544513130447S11700286EA0186801891000000015000
B0544553130508S11700241EA0187801906000000030000
B0544593130514S11700169EA0188801915000000015000
B0545033130478S11700130EA0189701929000000015000
B0545073130443S11700150EA0191401943000000015000
B0545113130449S11700208EA0192401943000000015000
B0545153130504S11700249EA0192801953000000015000
B0545193130574S11700232EA0194101963000000015000
B0545233130618S11700168EA0194601967000000015000
B0545273130620S11700093EA0194801972000000015000
B0545313130582S11700049EA0195301979000000015000
B0545353130539S11700067EA0196501995000000015000
B0545393130552S11700129EA0197502007000000015000
B0545433130622S11700147EA0197802010000000015000
B0545473130682S11700095EA0198202016000000015000
B0545513130699S11700015EA0198502021000000015000
B0545553130670S11659960EA0199702037000000015000
B0545593130635S11659977EA0200702038000000015000
B0546033130633S11700043EA0200202035000000015000
B0546073130674S11700103EA0201202054000000015000
B0546113130746S11700107EA0202402060000000015000
B0546153130808S11700058EA0202502057000000015000
B0546193130833S11659978EA0202502060000000015000
B0546233130813S11659907EA0202602060000000015000
B0546273130773S11659854EA0202602055000000015000
B0546313130716S11659838EA0202302058000000015000
B0546353130657S11659851EA0202902066000000000000
B0546393130650S11659912EA0204802090000000015000
B0546433130709S11659951EA0206302102000000015000
B0546473130776S11659906EA0207302109000000015000
B0546513130781S11659825EA0208202120000000015000
B0546553130737S11659783EA0209102129000000015000
B0546593130696S11659804EA0210202139000000015000
B0547033130696S11659864EA0211002145000000015000
B0547073130757S11659902EA0211702155000000015000
B0547113130826S11659860EA0212802170000000015000
B0547153130829S11659782EA0214102180000000015000
B0547193130783S11659760EA0214502181000000015000
B0547233130772S11659817EA0215002188000000015000
B0547273130833S11659857EA0215802199000000015000
B0547313130910S11659830EA0217102216000000015000
B0547353130945S11659757EA0218702227000000015000
B0547393130921S11659692EA0219302235000000015000
B0547433130877S11659694EA0220802252000000015000
B0547473130882S11659751EA0221502256000000015000
B0547513130943S11659786EA0222102265000000015000
B0547553131017S11659757EA0223302281000000015000
B0547593131053S11659685EA0224302284000000015000
B0548033131025S11659620EA0224602293000000015000
B0548073130978S11659620EA0225702306000000015000
B0548113130978S11659674EA0226902318000000015000
B0548153131037S11659713EA0227802324000000015000
B0548193131115S11659698EA0228602333000000015000
B0548233131162S11659627EA0229502341000000015000
B0548273131136S11659565EA0230002345000000015000
B0548313131093S11659583EA0230802355000000015000
B0548353131127S11659642EA0231702362000000015000
B0548393131207S11659627EA0232202372000000015000
B0548433131240S11659553EA0233802386000000015000
B0548473131201S11659508EA0233702378000000015000
B0548513131167S11659549EA0234202395000000015000
B0548553131198S11659607EA0236302414000000015000
B0548593131270S11659618EA0237202419000000015000
B0549033131332S11659568EA0238002428000000015000
B0549073131348S11659495EA0238502432000000015000
B0549113131323S11659438EA0238502428000000015000
B0549153131279S11659423EA0238202426000000015000
B0549193131235S11659444EA0237402411000000015000
B0549233131181S11659473EA0236202402000000015000
B0549273131116S11659500EA0236202407000000000000
B0549313131051S11659529EA0237302420000000000000
B0549353130989S11659560EA0238102426000000000000
B0549393130926S11659595EA0238002423000000000000
B0549433130860S11659630EA0237302416000000000000
B0549473130793S11659669EA0237202417000000000000
B0549513130726S11659717EA0237302416000000000000
B0549553130661S11659770EA0237402420000000000000
B0549593130600S11659826EA0237602424000000000000
B0550033130540S11659885EA0237602423000000000000
B0550073130479S11659941EA0237802425000000000000
B0550113130413S11659994EA0237502416000000000000
B0550153130340S11700045EA0235802397000000000000
B0550193130263S11700097EA0235902404000000000000
B0550233130192S11700151EA0237902429000000000000
B0550273130126S11700208EA0238702434000000000000
B0550313130062S11700268EA0238302420000000000000
B0550353129990S11700325EA0236302399000000000000
B0550393129914S11700380EA0234802386000000000000
B0550433129838S11700433EA0233502374000000000000
B0550473129762S11700481EA0232302362000000000000
B0550513129685S11700524EA0231102350000000000000
B0550553129607S11700562EA0229902340000000000000
B0550593129529S11700597EA0229402333000000000000
B0551033129451S11700630EA0228802323000000000000
B0551073129370S11700658EA0227602312000000000000
B0551113129287S11700680EA0226902307000000000000
B0551153129205S11700699EA0226602303000000000000
B0551193129123S11700715EA0225402289000000000000
B0551233129040S11700735EA0223602271000000000000
B0551273128954S11700756EA0222502261000000000000
B0551313128870S11700774EA0222002256000000000000
B0551353128784S11700795EA0221502247000000000000
B0551393128701S11700816EA0220602238000000000000
B0551433128616S11700838EA0219902233000000000000
B0551473128534S11700861EA0219302222000000000000
B0551513128450S11700886EA0217802208000000000000
B0551553128367S11700908EA0216702200000000000000
B0551593128281S11700925EA0215802189000000000000
B0552033128199S11700944EA0215202185000000000000
B0552073128122S11700975EA0214802177000000000000
B0552113128047S11701007EA0214002166000000000000
B0552153127969S11701037EA0212602155000000000000
B0552193127892S11701061EA0212502155000000000000
B0552233127816S11701082EA0211802148000000000000
B0552273127739S11701099EA0211002139000000000000
B0552313127661S11701109EA0210602132000000000000
B0552353127583S11701117EA0210702135000000015000
B0552393127507S11701126EA0211802144000000000000
B0552433127439S11701150EA0211902147000000000000
B0552473127372S11701180EA0213302165000000000000
B0552513127331S11701229EA0215702203000000000000
B0552553127372S11701281EA0218902223000000015000
B0552593127442S11701251EA0219102213000000015000
B0553033127470S11701164EA0218102211000000015000
B0553073127448S11701079EA0218602228000000015000
B0553113127398S11701050EA0220902255000000015000
B0553153127380S11701098EA0222102251000000015000
B0553193127439S11701148EA0221602253000000015000
B0553233127519S11701111EA0222802277000000015000
B0553273127562S11701033EA0225102300000000015000
B0553313127559S11700952EA0226702309000000015000
B0553353127526S11700897EA0226202294000000015000
B0553393127474S11700888EA0224702280000000015000
B0553433127428S11700922EA0223602274000000015000
B0553473127387S11700969EA0223202273000000015000
B0553513127336S11701012EA0222702263000000000000
B0553553127271S11701047EA0222002253000000000000
B0553593127197S11701078EA0221102245000000000000
B0554033127120S11701105EA0221502251000000000000
B0554073127047S11701141EA0220802234000000000000
B0554113126967S11701174EA0218702215000000000000
B0554153126882S11701204EA0217702210000000000000
B0554193126799S11701230EA0216902202000000000000
B0554233126716S11701255EA0216502200000000000000
B0554273126634S11701278EA0216202196000000000000
B0554313126553S11701303EA0216002197000000000000
B0554353126475S11701326EA0216202197000000000000
B0554393126397S11701349EA0215702188000000000000
B0554433126319S11701372EA0215302188000000000000
B0554473126240S11701397EA0215102185000000000000
B0554513126161S11701419EA0214602177000000000000
B0554553126080S11701441EA0213902170000000000000
B0554593125998S11701460EA0213302166000000000000
B0555033125918S11701477EA0212802160000000000000
B0555073125840S11701502EA0212002151000000000000
B0555113125767S11701537EA0211902152000000000000
B0555153125695S11701572EA0211002139000000000000
B0555193125625S11701607EA0210502136000000000000
B0555233125556S11701642EA0209402121000000000000
B0555273125483S11701675EA0207602100000000000000
B0555313125407S11701700EA0205802086000000000000
B0555353125330S11701718EA0204602072000000000000
B0555393125253S11701733EA0203202058000000000000
B0555433125179S11701755EA0202602053000000000000
B0555473125121S11701797EA0203202067000000000000
B0555513125079S11701848EA0204602076000000000000
B0555553125027S11701889EA0204602075000000000000
B0555593124966S11701922EA0205302089000000000000
B0556033124930S11701978EA0207702119000000000000
B0556073124966S11702036EA0210602145000000000000
B0556113125035S11702021EA0211602148000000015000
B0556153125063S11701943EA0211902155000000015000
B0556193125027S11701889EA0213202171000000015000
B0556233124980S11701909EA0215002189000000015000
B0556273124984S11701978EA0216602203000000015000
B0556313125048S11702010EA0217502217000000015000
B0556353125109S11701967EA0219002229000000015000
B0556393125110S11701895EA0219902238000000015000
B0556433125066S11701875EA0221202256000000015000
B0556473125043S11701927EA0222702270000000015000
B0556513125084S11701986EA0223902284000000015000
B0556553125156S11701974EA0225302299000000015000
B0556593125187S11701904EA0226402308000000015000
B0557033125153S11701854EA0227402318000000015000
B0557073125112S11701884EA0228602335000000015000
B0557113125130S11701950EA0230502353000000015000
B0557153125199S11701970EA0231802361000000015000
B0557193125257S11701915EA0232902376000000015000
B0557233125258S11701840EA0233902387000000015000
B0557273125213S11701815EA0235002401000000015000
B0557313125178S11701858EA0236602410000000015000
B0557353125201S11701928EA0237702422000000015000
B0557393125274S11701950EA0239002437000000015000
B0557433125335S11701898EA0240402448000000015000
B0557473125338S11701822EA0241402461000000015000
B0557513125294S11701789EA0242802474000000015000
B0557553125261S11701833EA0244202488000000015000
B0557593125290S11701902EA0245802503000000015000
B0558033125364S11701914EA0246602516000000015000
B0558073125422S11701854EA0247502524000000015000
B0558113125425S11701771EA0248402532000000015000
B0558153125377S11701731EA0249202542000000015000
B0558193125343S11701779EA0250802567000000015000
B0558233125387S11701839EA0253102588000000015000
B0558273125460S11701817EA0254402598000000030000
B0558313125482S11701736EA0255202609000000015000
B0558353125443S11701687EA0256502622000000015000
B0558393125405S11701715EA0258102641000000015000
B0558433125427S11701784EA0259702653000000015000
B0558473125502S11701810EA0260902670000000015000
B0558513125561S11701757EA0262202683000000015000
B0558553125560S11701680EA0263202692000000015000
B0558593125516S11701658EA0264402705000000015000
B0559033125495S11701713EA0265702719000000015000
B0559073125544S11701775EA0267002731000000015000
B0559113125624S11701758EA0268302748000000015000
B0559153125655S11701684EA0269902759000000015000
B0559193125622S11701633EA0270402758000000015000
B0559233125581S11701670EA0270302761000000015000
B0559273125598S11701748EA0271602780000000015000
B0559313125673S11701765EA0273302792000000015000
B0559353125723S11701696EA0273902799000000015000
B0559393125699S11701629EA0275002808000000015000
B0559433125652S11701638EA0276202819000000015000
B0559473125661S11701709EA0277402831000000015000
B0559513125739S11701726EA0278002838000000015000
B0559553125794S11701661EA0279002854000000015000
B0559593125777S11701593EA0280002860000000015000
B0600033125729S11701590EA0281002872000000015000
B0600073125720S11701650EA0282602893000000015000
B0600113125777S11701698EA0283902897000000015000
B0600153125853S11701667EA0283902899000000015000
B0600193125873S11701584EA0284802915000000015000
B0600233125842S11701528EA0285902922000000015000
B0600273125790S11701523EA0286202922000000015000
B0600313125758S11701573EA0286802932000000015000
B0600353125789S11701641EA0288202944000000015000
B0600393125868S11701654EA0288602948000000015000
B0600433125931S11701594EA0289402956000000015000
B0600473125936S11701512EA0289902962000000015000
B0600513125895S11701460EA0290202960000000015000
B0600553125833S11701445EA0289102937000000015000
B0600593125760S11701443EA0286202908000000000000
B0601033125681S11701451EA0284102890000000000000
B0601073125598S11701463EA0283202885000000000000
B0601113125513S11701475EA0282602880000000000000
B0601153125429S11701486EA0282302881000000000000
B0601193125344S11701498EA0282902885000000000000
B0601233125261S11701510EA0283802888000000000000
B0601273125178S11701519EA0283802887000000000000
B0601313125092S11701529EA0283502882000000000000
B0601353125004S11701540EA0282902873000000000000
B0601393124914S11701555EA0282202869000000000000
B0601433124826S11701571EA0281902866000000000000
B0601473124738S11701589EA0281502859000000000000
B0601513124651S11701606EA0280302846000000000000
B0601553124566S11701624EA0278902830000000000000
B0601593124481S11701645EA0277602818000000000000
B0602033124400S11701668EA0277202814000000000000
B0602073124324S11701690EA0276602808000000000000
B0602113124247S11701713EA0275702797000000000000
B0602153124169S11701732EA0274802792000000000000
B0602193124092S11701748EA0273602777000000000000
B0602233124013S11701767EA0272202766000000000000
B0602273123932S11701793EA0271302754000000000000
B0602313123853S11701820EA0270402747000000000000
B0602353123774S11701846EA0270102742000000000000
B0602393123695S11701869EA0269302731000000000000
B0602433123613S11701889EA0268302723000000000000
B0602473123532S11701908EA0268002721000000000000
B0602513123454S11701932EA0267702718000000000000
B0602553123376S11701958EA0266702712000000000000
B0602593123299S11701984EA0266002706000000000000
B0603033123220S11702008EA0265402701000000000000
B0603073123141S11702028EA0265202699000000000000
B0603113123065S11702049EA0265502706000000000000
B0603153122993S11702070EA0266102711000000000000
B0603193122921S11702090EA0266302711000000000000
B0603233122850S11702108EA0265902705000000000000
B0603273122774S11702123EA0265202698000000000000
B0603313122696S11702138EA0264702694000000000000
B0603353122618S11702149EA0264402691000000000000
B0603393122539S11702158EA0264302688000000000000
B0603433122460S11702166EA0263702681000000000000
B0603473122382S11702177EA0263202677000000000000
B0603513122305S11702187EA0262802673000000000000
B0603553122229S11702199EA0262402671000000000000
B0603593122155S11702209EA0262102667000000000000
B0604033122081S11702221EA0261702662000000000000
B0604073122007S11702234EA0261102658000000000000
B0604113121933S11702247EA0260802654000000000000
B0604153121860S11702265EA0260302648000000000000
B0604193121789S11702287EA0259602641000000000000
B0604233121717S11702312EA0259002636000000000000
B0604273121646S11702335EA0258602629000000000000
B0604313121574S11702355EA0257902622000000000000
B0604353121503S11702374EA0257102614000000000000
B0604393121431S11702396EA0256202604000000000000
B0604433121357S11702417EA0255402594000000000000
B0604473121283S11702435EA0254302585000000000000
B0604513121208S11702452EA0253602579000000000000
B0604553121132S11702468EA0252802567000000000000
B0604593121056S11702481EA0251402550000000000000
B0605033120979S11702490EA0249902533000000000000
B0605073120901S11702503EA0248002512000000000000
B0605113120822S11702503EA0246702503000000000000
B0605153120744S11702495EA0246102499000000000000
B0605193120664S11702485EA0245302486000000000000
B0605233120584S11702473EA0244502487000000000000
B0605273120510S11702490EA0246502511000000000000
B0605313120482S11702554EA0248602532000000000000
B0605353120533S11702591EA0249402535000000000000
B0605393120593S11702543EA0249902545000000015000
B0605433120608S11702457EA0251002558000000015000
B0605473120575S11702385EA0252402576000000015000
B0605513120516S11702386EA0253602577000000015000
B0605553120511S11702461EA0252802569000000015000
B0605593120575S11702506EA0253302587000000015000
B0606033120637S11702477EA0255902611000000030000
B0606073120646S11702400EA0257002618000000030000
B0606113120593S11702366EA0257902627000000030000
B0606153120558S11702416EA0258202629000000015000
B0606193120586S11702485EA0258002630000000015000
B0606233120645S11702535EA0258602641000000015000
B0606273120711S11702516EA0260402663000000030000
B0606313120733S11702444EA0261402658000000030000
B0606353120694S11702381EA0260902655000000015000
B0606393120627S11702343EA0260302642000000015000
B0606433120547S11702320EA0258602622000000015000
B0606473120463S11702309EA0256802603000000015000
B0606513120374S11702307EA0255002587000000000000
B0606553120285S11702307EA0253202569000000000000
B0606593120192S11702311EA0251702556000000000000
B0607033120100S11702313EA0250602542000000000000
B0607073120008S11702318EA0249102526000000000000
B0607113119915S11702325EA0247802511000000000000
B0607153119823S11702333EA0246702502000000000000
B0607193119733S11702344EA0246602506000000000000
B0607233119645S11702355EA0245802490000000000000
B0607273119554S11702365EA0243402466000000000000
B0607313119462S11702374EA0241702450000000000000
B0607353119369S11702383EA0239902430000000000000
B0607393119280S11702394EA0239102427000000000000
B0607433119193S11702404EA0239102429000000000000
B0607473119107S11702413EA0238602418000000000000
B0607513119020S11702420EA0237502407000000000000
B0607553118933S11702425EA0237202411000000000000
B0607593118846S11702430EA0237402414000000000000
B0608033118762S11702444EA0238602434000000000000
B0608073118686S11702465EA0240102440000000000000
B0608113118609S11702493EA0239102428000000000000
B0608153118532S11702520EA0238502422000000000000
B0608193118450S11702543EA0237602413000000000000
B0608233118370S11702568EA0236702402000000000000
B0608273118285S11702585EA0236002394000000000000
B0608313118198S11702593EA0235002381000000000000
B0608353118110S11702594EA0233802372000000000000
B0608393118021S11702591EA0233102369000000000000
B0608433117934S11702589EA0232602362000000000000
B0608473117847S11702585EA0232502365000000000000
B0608513117763S11702582EA0232502361000000000000
B0608553117676S11702578EA0231502351000000000000
B0608593117588S11702573EA0231202348000000000000
B0609033117499S11702569EA0230402331000000000000
B0609073117409S11702564EA0229302325000000000000
B0609113117322S11702558EA0228702320000000000000
B0609153117236S11702554EA0228102313000000000000
B0609193117152S11702554EA0227502309000000000000
B0609233117071S11702552EA0227002305000000000000
B0609273116990S11702554EA0226302296000000000000
B0609313116911S11702556EA0225402286000000000000
B0609353116833S11702561EA0224702275000000000000
B0609393116756S11702565EA0223502260000000000000
B0609433116680S11702567EA0221602238000000000000
B0609473116600S11702567EA0219302217000000000000
B0609513116520S11702565EA0217102191000000000000
B0609553116437S11702560EA0214602165000000000000
B0609593116351S11702554EA0212102143000000000000
B0610033116266S11702547EA0211002133000000000000
B0610073116183S11702541EA0209502113000000000000
B0610113116104S11702543EA0208202102000000000000
B0610153116028S11702571EA0206402079000000000000
B0610193115952S11702606EA0204502062000000000000
B0610233115874S11702632EA0204002060000000000000
B0610273115797S11702650EA0203402053000000000000
B0610313115719S11702660EA0202502042000000000000
B0610353115640S11702662EA0201502032000000000000
B0610393115563S11702658EA0201002029000000000000
B0610433115486S11702649EA0200702027000000000000
B0610473115410S11702637EA0200802031000000000000
B0610513115334S11702625EA0201202031000000000000
B0610553115259S11702611EA0200602027000000000000
B0610593115186S11702597EA0200002021000000000000
B0611033115112S11702585EA0199002005000000000000
B0611073115035S11702573EA0197501989000000000000
B0611113114955S11702561EA0195901972000000000000
B0611153114871S11702547EA0194501958000000000000
B0611193114786S11702529EA0193401947000000000000
B0611233114700S11702508EA0192901942000000000000
B0611273114618S11702491EA0193001949000000000000
B0611313114541S11702483EA0193801961000000000000
B0611353114468S11702498EA0194601969000000000000
B0611393114400S11702521EA0195201975000000000000
B0611433114333S11702547EA0195601979000000000000
B0611473114267S11702573EA0196101986000000000000
B0611513114201S11702597EA0196901996000000000000
B0611553114134S11702616EA0197802005000000000000
B0611593114068S11702632EA0198702014000000000000
B0612033114002S11702643EA0199002013000000000000
B0612073113932S11702649EA0198602004000000000000
B0612113113856S11702646EA0197801997000000000000
B0612153113779S11702638EA0197101993000000000000
B0612193113704S11702620EA0197902003000000000000
B0612233113631S11702595EA0198202006000000000000
B0612273113558S11702567EA0198302003000000000000
B0612313113482S11702537EA0197701995000000000000
B0612353113400S11702506EA0196601987000000000000
B0612393113317S11702474EA0196801993000000000000
B0612433113235S11702444EA0197702002000000000000
B0612473113153S11702415EA0198202000000000000000
B0612513113070S11702387EA0197201986000000000000
B0612553112984S11702361EA0196101976000000000000
B0612593112898S11702339EA0195501974000000000000
B0613033112814S11702321EA0195401972000000000000
B0613073112726S11702304EA0194601960000000000000
B0613113112638S11702288EA0193501950000000000000
B0613153112550S11702270EA0192901945000000000000
B0613193112464S11702249EA0192501944000000000000
B0613233112379S11702226EA0192501941000000000000
B0613273112299S11702200EA0191901935000000000000
B0613313112219S11702173EA0191401929000000000000
B0613353112139S11702145EA0190401918000000000000
B0613393112058S11702122EA0189401909000000000000
B0613433111976S11702101EA0188701903000000000000
B0613473111894S11702080EA0188101896000000000000
B0613513111811S11702061EA0187201885000000000000
B0613553111728S11702040EA0186001871000000000000
B0613593111647S11702013EA0185201869000000000000
B0614033111569S11701982EA0185101864000000000000
B0614073111491S11701947EA0184201853000000000000
B0614113111413S11701913EA0183101843000000000000
B0614153111337S11701875EA0182601840000000000000
B0614193111264S11701839EA0182401836000000000000
B0614233111194S11701802EA0182301839000000000000
B0614273111125S11701770EA0182601842000000000000
B0614313111060S11701781EA0182901844000000000000
B0614353111025S11701850EA0182101826000000000000
B0614393111060S11701939EA0180801820000000000000
B0614433111127S11702004EA0180201812000000015000
B0614473111208S11702060EA0179001802000000000000
B0614513111294S11702110EA0178601797000000000000
B0614553111385S11702152EA0178101790000000000000
B0614593111481S11702191EA0177201778000000000000
B0615033111580S11702223EA0176201772000000000000
B0615073111680S11702244EA0175801767000000000000
B0615113111781S11702262EA0174901756000000000000
B0615153111883S11702281EA0174301752000000000000
B0615193111983S11702291EA0173701746000000000000
B0615233112084S11702298EA0172001723000000000000
B0615273112190S11702314EA0170001695000000000000
B0615313112300S11702337EA0167901679000000000000
B0615353112412S11702352EA0166601669000000000000
B0615393112524S11702344EA0166201669000000000000
B0615433112632S11702326EA0165901664000000000000
B0615473112738S11702304EA0165501659000000000000
B0615513112843S11702277EA0164601647000000000000
B0615553112949S11702247EA0163301634000000000000
B0615593113055S11702220EA0162401623000000000000
B0616033113163S11702197EA0161601613000000000000
B0616073113269S11702179EA0161301617000000000000
B0616113113369S11702169EA0162101633000000000000
B0616153113460S11702153EA0163401644000000000000
B0616193113545S11702127EA0164001649000000000000
B0616233113627S11702084EA0164001647000000000000
B0616273113704S11702028EA0164601657000000000000
B0616313113777S11701970EA0165501665000000000000
B0616353113830S11701893EA0166501675000000000000
B0616393113809S11701819EA0167301688000000000000
B0616433113760S11701820EA0168701705000000015000
B0616473113744S11701871EA0169301699000000015000
B0616513113778S11701931EA0168901697000000015000
B0616553113844S11701963EA0168901699000000015000
B0616593113922S11701948EA0169401705000000015000
B0617033113976S11701880EA0170201715000000030000
B0617073113969S11701804EA0170901717000000030000
B0617113113920S11701775EA0170701712000000030000
B0617153113890S11701824EA0171101721000000015000
B0617193113929S11701888EA0171801733000000015000
B0617233114004S11701897EA0173101747000000030000
B0617273114064S11701839EA0173801750000000030000
B0617313114068S11701752EA0174001748000000030000
B0617353114021S11701705EA0173901748000000030000
B0617393113973S11701731EA0173901751000000015000
B0617433113980S11701801EA0174501759000000015000
B0617473114043S11701844EA0175101766000000015000
B0617513114124S11701818EA0175801773000000030000
B0617553114163S11701733EA0176301777000000045000
B0617593114136S11701658EA0176601776000000045000
B0618033114081S11701663EA0176701779000000030000
B0618073114067S11701726EA0177301792000000015000
B0618113114106S11701784EA0178201800000000015000
B0618153114175S11701809EA0178601801000000015000
B0618193114253S11701789EA0178801800000000030000
B0618233114307S11701714EA0178601796000000045000
B0618273114303S11701629EA0178701803000000030000
