ACAM4N6
HFDTE051221
HFFXA050
HFPLTPILOT:JOHN WELSH              
HFGTYGLIDERTYPE:HORNET      
HFGIDGLIDERID:VH-GMY      
HFDTM100GPSDATUM:
HFRFWFIRMWAREVERSION:F2.6
HFRHWHARDWAREVERSION:300 Series Version 2
HFFTYFRTYPE:CAMBRIDGE AERO INSTRUMENTS, 302+
HFGPS:GARMIN,LVS-25,12,18000
HFPRSPRESSALTSENSOR:INTERSEMA, MS5534-AP, 20000
I033638FXA3941ENL4247REX
LCAMSBVER:5FWVER:F26300
C051221030001051221000103
C0000000N00000000WTAKEOFF     
C3207547S11656879EBeverley Air
C3111282S11701799EDowerin     
C3203749S11824249ENarembeen   
C3256165S11710679ENarrogin Sil
C3207547S11656879EBeverley Air
C0000000N00000000WLANDING     
B0306453207339S11656862EA0020400207000000000000
B0306473207339S11656862EA0020400207000000000000
B0306493207339S11656862EA0020400207000000000000
B0306513207339S11656862EA0020400207000000000000
B0306533207339S11656862EA0020500207000000000000
B0306553207339S11656862EA0020300206000000000000
B0306573207339S11656862EA0020400206000000000000
B0306593207339S11656862EA0020400206000000000000
B0307013207339S11656862EA0020400207000000000000
B0307033207339S11656862EA0020400207000000000000
B0307053207339S11656862EA0020300207000000000000
B0307073207339S11656862EA0020300207000000000000
B0307093207339S11656862EA0020300207000000000000
B0307113207339S11656862EA0020400207000000000000
B0307133207341S11656864EA0020300207000000000000
B0307183207356S11656875EA0020400207000000000000
B0307223207388S11656897EA0020400207000000000000
B0307263207434S11656929EA0020400207000000000000
B0307303207492S11656965EA0020600209000000000000
B0307343207559S11657005EA0020800213000000000000
B0307383207627S11657047EA0021800232000000000000
B0307423207689S11657088EA0023700242000000000000
B0307463207750S11657133EA0024300254000000000000
B0307503207810S11657178EA0025900274000000000000
B0307543207872S11657224EA0026600284000000000000
B0307583207936S11657270EA0027600295000000000000
B0308023207999S11657317EA0028700308000000000000
B0308063208060S11657363EA0030200320000000000000
B0308103208123S11657402EA0031200336000000000000
B0308143208187S11657443EA0033000349000000000000
B0308183208248S11657489EA0034200372000000000000
B0308223208307S11657543EA0036200383000000000000
B0308263208360S11657605EA0037300398000000000000
B0308303208409S11657670EA0039200420000000000000
B0308343208461S11657728EA0041100434000000000000
B0308383208519S11657777EA0042400453000000000000
B0308423208578S11657827EA0043600464000000000000
B0308463208634S11657881EA0045000476000000000000
B0308503208678S11657950EA0045500484000000000000
B0308543208697S11658035EA0046500495000000000000
B0308583208689S11658122EA0047600507000000000000
B0309023208662S11658210EA0048800516000000000000
B0309063208613S11658288EA0050300537000000000000
B0309103208552S11658355EA0051900546000000000000
B0309143208481S11658405EA0052400552000000000000
B0309183208402S11658425EA0053500567000000000000
B0309223208321S11658414EA0055100582000000000000
B0309263208243S11658386EA0056300593000000000000
B0309303208169S11658340EA0057600607000000000000
B0309343208100S11658284EA0058600617000000000000
B0309383208043S11658213EA0060300638000000000000
B0309423208000S11658131EA0062000658000000000000
B0309463207963S11658047EA0064200682000000000000
B0309503207934S11657958EA0066000696000000000000
B0309543207926S11657863EA0067200708000000000000
B0309583207937S11657770EA0068400723000000000000
B0310023207963S11657680EA0069900737000000000000
B0310063207993S11657594EA0071100749000000000000
B0310103208032S11657514EA0072200760000000000000
B0310143208082S11657446EA0073600775000000000000
B0310183208143S11657391EA0075300794000000000000
B0310223208204S11657347EA0077600816000000000000
B0310263208236S11657282EA0079100829000000000000
B0310303208194S11657231EA0080000839000000000000
B0310343208144S11657265EA0080800848000000000000
B0310383208145S11657328EA0081200852000000015000
B0310423208190S11657351EA0081700854000000015000
B0310463208231S11657316EA0081900856000000015000
B0310503208230S11657251EA0082300860000000015000
B0310543208186S11657207EA0082600863000000015000
B0310583208127S11657217EA0083100868000000015000
B0311023208101S11657273EA0083800873000000015000
B0311063208130S11657317EA0084200879000000015000
B0311103208181S11657312EA0084500879000000015000
B0311143208213S11657261EA0084300877000000015000
B0311183208207S11657195EA0084400877000000015000
B0311223208156S11657147EA0084300876000000015000
B0311263208092S11657157EA0084300878000000015000
B0311303208062S11657222EA0084600883000000015000
B0311343208096S11657269EA0085300895000000015000
B0311383208143S11657244EA0086400900000000015000
B0311423208148S11657177EA0086900905000000015000
B0311463208097S11657139EA0087500911000000015000
B0311503208044S11657168EA0088000915000000015000
B0311543208034S11657228EA0088300924000000015000
B0311583208069S11657259EA0089200929000000015000
B0312023208110S11657235EA0089600933000000015000
B0312063208118S11657177EA0090000935000000015000
B0312103208075S11657134EA0089800930000000015000
B0312143208022S11657165EA0089600932000000015000
B0312183208015S11657226EA0090200942000000015000
B0312223208056S11657254EA0090600942000000015000
B0312263208095S11657220EA0090700945000000015000
B0312303208092S11657156EA0090900947000000015000
B0312343208040S11657117EA0090900947000000015000
B0312383207978S11657111EA0091300952000000015000
B0312423207923S11657137EA0091800958000000015000
B0312463207900S11657192EA0092300961000000015000
B0312503207928S11657233EA0092200962000000015000
B0312543207974S11657217EA0092000958000000015000
B0312583207988S11657156EA0092200965000000015000
B0313023207948S11657107EA0092700968000000015000
B0313063207888S11657114EA0093100970000000015000
B0313103207852S11657168EA0093200971000000015000
B0313143207862S11657224EA0093400974000000015000
B0313183207908S11657234EA0093400974000000015000
B0313223207940S11657187EA0093200973000000015000
B0313263207922S11657117EA0093300974000000015000
B0313303207863S11657098EA0093700978000000015000
B0313343207818S11657140EA0093500974000000015000
B0313383207796S11657203EA0093400975000000015000
B0313423207806S11657260EA0093700978000000015000
B0313463207849S11657291EA0093300974000000015000
B0313503207901S11657300EA0092700968000000000000
B0313543207956S11657294EA0092700970000000000000
B0313583208008S11657273EA0093000972000000000000
B0314023208058S11657250EA0092800967000000000000
B0314063208108S11657228EA0092500963000000000000
B0314103208158S11657208EA0092000955000000000000
B0314143208210S11657194EA0090800945000000000000
B0314183208265S11657183EA0090000934000000000000
B0314223208321S11657168EA0089000924000000000000
B0314263208372S11657133EA0088300916000000000000
B0314303208382S11657064EA0088000918000000000000
B0314343208343S11657012EA0087900914000000000000
B0314383208282S11656997EA0087500911000000000000
B0314423208216S11656999EA0087400911000000000000
B0314463208153S11657012EA0087700915000000000000
B0314503208113S11657061EA0087600911000000000000
B0314543208122S11657118EA0087200909000000015000
B0314583208161S11657138EA0087000905000000015000
B0315023208196S11657099EA0085800901000000015000
B0315063208196S11657034EA0085500903000000015000
B0315103208173S11656971EA0085800898000000000000
B0315143208123S11656931EA0085300892000000000000
B0315183208061S11656913EA0085000892000000000000
B0315223207995S11656904EA0084800888000000000000
B0315263207927S11656887EA0084500885000000000000
B0315303207858S11656865EA0083800877000000000000
B0315343207788S11656844EA0084000882000000000000
B0315383207720S11656832EA0085500901000000000000
B0315423207694S11656883EA0087200914000000000000
B0315463207732S11656914EA0087100912000000015000
B0315503207771S11656873EA0088300933000000015000
B0315543207759S11656814EA0090000942000000015000
B0315583207707S11656795EA0090500948000000015000
B0316023207666S11656831EA0090900950000000015000
B0316063207670S11656888EA0091100952000000015000
B0316103207709S11656916EA0091600958000000015000
B0316143207755S11656895EA0092100961000000015000
B0316183207776S11656836EA0092500963000000015000
B0316223207739S11656780EA0092200959000000015000
B0316263207675S11656779EA0092500966000000015000
B0316303207624S11656819EA0093400975000000015000
B0316343207625S11656879EA0094000980000000015000
B0316383207670S11656896EA0094700986000000015000
B0316423207697S11656847EA0095200989000000015000
B0316463207667S11656783EA0095300994000000015000
B0316503207606S11656778EA0096301004000000015000
B0316543207579S11656831EA0096901007000000015000
B0316583207607S11656873EA0097401012000000015000
B0317023207651S11656856EA0098301018000000015000
B0317063207659S11656792EA0099301027000000015000
B0317103207615S11656748EA0100001035000000015000
B0317143207558S11656773EA0100101035000000015000
B0317183207554S11656832EA0100501043000000015000
B0317223207597S11656848EA0101401049000000015000
B0317263207624S11656800EA0102601059000000015000
B0317303207584S11656749EA0103001060000000015000
B0317343207525S11656779EA0103001065000000015000
B0317383207521S11656839EA0103801077000000015000
B0317423207564S11656858EA0104501083000000015000
B0317463207597S11656810EA0105401095000000015000
B0317503207572S11656750EA0106501106000000015000
B0317543207512S11656739EA0107101109000000015000
B0317583207476S11656786EA0107201113000000015000
B0318023207494S11656835EA0107501115000000015000
B0318063207542S11656831EA0107501119000000015000
B0318103207567S11656780EA0108101125000000015000
B0318143207542S11656722EA0109101137000000015000
B0318183207485S11656714EA0109501135000000015000
B0318223207458S11656769EA0109201132000000015000
B0318263207484S11656815EA0108901130000000015000
B0318303207532S11656821EA0109101132000000015000
B0318343207564S11656767EA0109001133000000015000
B0318383207562S11656697EA0109201137000000015000
B0318423207516S11656646EA0109901143000000015000
B0318463207458S11656652EA0109801141000000015000
B0318503207424S11656704EA0109401136000000015000
B0318543207436S11656763EA0109001133000000015000
B0318583207477S11656797EA0109001137000000015000
B0319023207527S11656805EA0109601141000000015000
B0319063207568S11656769EA0109901143000000015000
B0319103207577S11656704EA0110001145000000015000
B0319143207541S11656649EA0110501150000000015000
B0319183207485S11656650EA0110701151000000015000
B0319223207453S11656701EA0110401146000000015000
B0319263207464S11656760EA0110401148000000015000
B0319303207503S11656797EA0110401147000000015000
B0319343207551S11656825EA0110001143000000015000
B0319383207602S11656847EA0109501141000000015000
B0319423207651S11656853EA0109501139000000000000
B0319463207694S11656821EA0109001133000000000000
B0319503207705S11656756EA0108301129000000000000
B0319543207672S11656693EA0107901120000000015000
B0319583207611S11656661EA0106901109000000015000
B0320023207540S11656646EA0106201105000000000000
B0320063207467S11656644EA0105801102000000000000
B0320103207391S11656650EA0105601099000000000000
B0320143207312S11656662EA0105301095000000000000
B0320183207232S11656678EA0104501088000000000000
B0320223207151S11656696EA0104001080000000000000
B0320263207069S11656715EA0103001069000000000000
B0320303206988S11656739EA0102201064000000000000
B0320343206912S11656766EA0102001063000000000000
B0320383206836S11656795EA0101901061000000000000
B0320423206762S11656825EA0101401056000000000000
B0320463206691S11656856EA0101001052000000000000
B0320503206621S11656891EA0100801050000000000000
B0320543206553S11656930EA0100201043000000000000
B0320583206484S11656969EA0099701036000000000000
B0321023206415S11657007EA0099101030000000000000
B0321063206348S11657046EA0098101019000000000000
B0321103206284S11657088EA0097401013000000000000
B0321143206224S11657134EA0096901006000000000000
B0321183206166S11657179EA0095800994000000000000
B0321223206111S11657230EA0094800981000000000000
B0321263206058S11657285EA0093800973000000000000
B0321303206006S11657341EA0093000964000000000000
B0321343205960S11657403EA0092300955000000000000
B0321383205919S11657471EA0091400953000000000000
B0321423205886S11657540EA0092000960000000000000
B0321463205868S11657611EA0093100970000000000000
B0321503205899S11657660EA0093400971000000000000
B0321543205947S11657644EA0093200969000000000000
B0321583205964S11657580EA0092600961000000000000
B0322023205926S11657529EA0092000950000000015000
B0322063205867S11657519EA0091000945000000015000
B0322103205804S11657512EA0091300955000000015000
B0322143205752S11657543EA0092300961000000015000
B0322183205769S11657594EA0092800965000000015000
B0322223205813S11657567EA0092600960000000015000
B0322263205803S11657498EA0092700970000000015000
B0322303205746S11657475EA0094200987000000015000
B0322343205708S11657517EA0095700998000000015000
B0322383205734S11657563EA0096200999000000030000
B0322423205781S11657538EA0096301003000000015000
B0322463205781S11657472EA0097101014000000015000
B0322503205730S11657445EA0098201025000000015000
B0322543205685S11657482EA0099101037000000015000
B0322583205691S11657542EA0099701038000000015000
B0323023205742S11657554EA0100001043000000015000
B0323063205764S11657494EA0100601052000000015000
B0323103205726S11657445EA0101801066000000015000
B0323143205670S11657460EA0103201081000000015000
B0323183205652S11657516EA0104501089000000015000
B0323223205683S11657563EA0105101093000000015000
B0323263205734S11657550EA0105401096000000015000
B0323303205738S11657481EA0105701100000000015000
B0323343205685S11657445EA0107201123000000015000
B0323383205638S11657475EA0108801143000000015000
B0323423205636S11657527EA0110501151000000015000
B0323463205683S11657546EA0110201146000000015000
B0323503205714S11657490EA0110401161000000015000
B0323543205690S11657428EA0111601174000000015000
B0323583205631S11657419EA0113501195000000015000
B0324023205597S11657468EA0115001204000000015000
B0324063205614S11657528EA0115701209000000015000
B0324103205668S11657536EA0116501219000000015000
B0324143205698S11657482EA0117501227000000015000
B0324183205672S11657415EA0117901232000000015000
B0324223205609S11657404EA0119601254000000015000
B0324263205568S11657454EA0121201268000000015000
B0324303205579S11657516EA0122201276000000015000
B0324343205630S11657536EA0122901283000000015000
B0324383205669S11657494EA0123801293000000015000
B0324423205656S11657425EA0124201292000000015000
B0324463205599S11657389EA0125001312000000015000
B0324503205543S11657410EA0126701326000000015000
B0324543205534S11657472EA0128101336000000015000
B0324583205574S11657510EA0128101333000000015000
B0325023205627S11657486EA0128801345000000015000
B0325063205644S11657424EA0130101356000000015000
B0325103205610S11657364EA0130801366000000015000
B0325143205552S11657355EA0132201380000000015000
B0325183205513S11657403EA0133201391000000015000
B0325223205518S11657465EA0134201399000000015000
B0325263205562S11657493EA0134601405000000015000
B0325303205608S11657462EA0135601415000000015000
B0325343205612S11657395EA0136601423000000015000
B0325383205565S11657352EA0137601437000000015000
B0325423205509S11657373EA0139201452000000015000
B0325463205493S11657436EA0140101459000000015000
B0325503205530S11657480EA0140501463000000015000
B0325543205579S11657455EA0141301474000000015000
B0325583205579S11657386EA0142001480000000015000
B0326023205523S11657350EA0142901493000000015000
B0326063205473S11657385EA0144501509000000015000
B0326103205473S11657447EA0145301512000000015000
B0326143205525S11657468EA0145401516000000015000
B0326183205564S11657419EA0146501531000000015000
B0326223205556S11657346EA0147501537000000015000
B0326263205500S11657306EA0148301546000000015000
B0326303205440S11657326EA0149401563000000015000
B0326343205423S11657389EA0150701580000000015000
B0326383205456S11657438EA0152101585000000015000
B0326423205509S11657421EA0152601596000000015000
B0326463205517S11657352EA0153801609000000015000
B0326503205470S11657308EA0155201621000000015000
B0326543205415S11657326EA0156601634000000015000
B0326583205401S11657389EA0157801646000000015000
B0327023205438S11657439EA0158401649000000015000
B0327063205491S11657433EA0159401664000000015000
B0327103205516S11657374EA0160801677000000015000
B0327143205488S11657312EA0161401684000000015000
B0327183205427S11657300EA0162301694000000015000
B0327223205391S11657352EA0163501708000000015000
B0327263205412S11657411EA0164401713000000015000
B0327303205466S11657415EA0165001724000000015000
B0327343205496S11657359EA0166501737000000015000
B0327383205471S11657295EA0167301744000000015000
B0327423205412S11657282EA0168001751000000015000
B0327463205369S11657329EA0168901761000000015000
B0327503205383S11657393EA0169501769000000015000
B0327543205438S11657408EA0170201778000000015000
B0327583205477S11657359EA0171401790000000015000
B0328023205465S11657290EA0172501800000000015000
B0328063205410S11657260EA0173301808000000015000
B0328103205357S11657294EA0174101817000000015000
B0328143205349S11657360EA0175101825000000015000
B0328183205391S11657408EA0175601827000000015000
B0328223205447S11657387EA0176301840000000015000
B0328263205461S11657316EA0177501851000000015000
B0328303205422S11657257EA0178301861000000015000
B0328343205360S11657251EA0179501871000000015000
B0328383205313S11657294EA0180401879000000015000
B0328423205309S11657363EA0181201888000000015000
B0328463205348S11657407EA0181601886000000015000
B0328503205408S11657402EA0181501890000000015000
B0328543205451S11657350EA0182601904000000015000
B0328583205444S11657277EA0183601912000000015000
B0329023205392S11657239EA0184401924000000015000
B0329063205340S11657261EA0185201930000000015000
B0329103205324S11657324EA0185501929000000015000
B0329143205353S11657385EA0185301927000000015000
B0329183205412S11657389EA0185801935000000015000
B0329223205460S11657338EA0186501945000000015000
B0329263205467S11657263EA0187601956000000015000
B0329303205425S11657215EA0188601964000000015000
B0329343205366S11657226EA0189101968000000015000
B0329383205337S11657283EA0189201967000000015000
B0329423205361S11657345EA0189201968000000015000
B0329463205418S11657371EA0189201971000000015000
B0329503205479S11657368EA0189701977000000015000
B0329543205521S11657315EA0189901976000000015000
B0329583205506S11657243EA0189901979000000015000
B0330023205451S11657208EA0190301984000000015000
B0330063205386S11657208EA0190401982000000015000
B0330103205315S11657220EA0189701971000000015000
B0330143205239S11657234EA0189001969000000000000
B0330183205159S11657247EA0188701964000000000000
B0330223205077S11657257EA0187501950000000000000
B0330263204990S11657264EA0185901934000000000000
B0330303204899S11657267EA0185001924000000000000
B0330343204810S11657269EA0184201916000000000000
B0330383204720S11657273EA0183901916000000000000
B0330423204632S11657278EA0184601918000000000000
B0330463204544S11657282EA0184701921000000000000
B0330503204457S11657289EA0185001923000000000000
B0330543204370S11657299EA0184901920000000000000
B0330583204284S11657312EA0184601917000000000000
B0331023204197S11657321EA0184401915000000000000
B0331063204110S11657328EA0184201911000000000000
B0331103204019S11657329EA0183401902000000000000
B0331143203928S11657332EA0182901899000000000000
B0331183203839S11657334EA0182601895000000000000
B0331223203749S11657335EA0182001890000000000000
B0331263203659S11657334EA0181901889000000000000
B0331303203572S11657332EA0181901890000000000000
B0331343203489S11657329EA0181801887000000000000
B0331383203404S11657328EA0181401882000000000000
B0331423203321S11657329EA0180701876000000000000
B0331463203237S11657330EA0180101869000000000000
B0331503203153S11657332EA0179801869000000000000
B0331543203074S11657334EA0180001870000000000000
B0331583202996S11657337EA0179701868000000000000
B0332023202919S11657339EA0179201862000000000000
B0332063202843S11657341EA0178401854000000000000
B0332103202767S11657335EA0177701847000000000000
B0332143202693S11657320EA0177301841000000000000
B0332183202622S11657299EA0176601834000000000000
B0332223202550S11657281EA0176101828000000000000
B0332263202479S11657265EA0175501822000000000000
B0332303202405S11657252EA0174601814000000000000
B0332343202329S11657242EA0173701805000000000000
B0332383202255S11657235EA0173301799000000000000
B0332423202180S11657226EA0172301787000000000000
B0332463202104S11657216EA0170801774000000000000
B0332503202026S11657207EA0170101762000000000000
B0332543201946S11657198EA0169401762000000000000
B0332583201866S11657187EA0169301760000000000000
B0333023201785S11657177EA0169201758000000000000
B0333063201703S11657168EA0168401746000000000000
B0333103201619S11657157EA0167601741000000000000
B0333143201536S11657151EA0167601743000000000000
B0333183201456S11657148EA0167301738000000000000
B0333223201375S11657147EA0166601730000000000000
B0333263201294S11657148EA0166401735000000000000
B0333303201220S11657166EA0168201754000000000000
B0333343201183S11657225EA0169301768000000000000
B0333383201202S11657283EA0169801770000000015000
B0333423201255S11657290EA0169501764000000015000
B0333463201294S11657237EA0169201764000000015000
B0333503201293S11657163EA0169201764000000015000
B0333543201258S11657101EA0169601770000000015000
B0333583201201S11657073EA0170401776000000015000
B0334023201137S11657072EA0170001768000000015000
B0334063201070S11657086EA0168801755000000000000
B0334103200997S11657094EA0167401742000000000000
B0334143200923S11657099EA0166301731000000000000
B0334183200849S11657112EA0166001729000000000000
B0334223200777S11657126EA0166001733000000000000
B0334263200704S11657139EA0165901726000000000000
B0334303200630S11657153EA0164701714000000000000
B0334343200553S11657166EA0163801703000000000000
B0334383200475S11657174EA0163001699000000000000
B0334423200399S11657183EA0162601694000000000000
B0334463200321S11657199EA0162201691000000000000
B0334503200244S11657215EA0161801686000000000000
B0334543200167S11657230EA0161301677000000000000
B0334583200088S11657243EA0160301668000000000000
B0335023200009S11657254EA0159601661000000000000
B0335063159929S11657265EA0158801653000000000000
B0335103159850S11657272EA0158201647000000000000
B0335143159773S11657264EA0157901644000000000000
B0335183159697S11657259EA0157901646000000000000
B0335223159621S11657269EA0158101648000000000000
B0335263159549S11657290EA0157901641000000000000
B0335303159474S11657309EA0157101635000000000000
B0335343159400S11657326EA0156601630000000000000
B0335383159325S11657345EA0156001624000000000000
B0335423159251S11657361EA0155401619000000000000
B0335463159175S11657380EA0154901614000000000000
B0335503159101S11657397EA0154401609000000000000
B0335543159027S11657413EA0153901605000000000000
B0335583158954S11657428EA0153701600000000000000
B0336023158882S11657443EA0153001592000000000000
B0336063158809S11657459EA0152101584000000000000
B0336103158735S11657473EA0151401575000000000000
B0336143158659S11657485EA0150501567000000000000
B0336183158584S11657495EA0149901561000000000000
B0336223158509S11657508EA0149601560000000000000
B0336263158434S11657523EA0149501557000000000000
B0336303158359S11657538EA0149301555000000000000
B0336343158285S11657556EA0149201556000000000000
B0336383158211S11657576EA0149101553000000000000
B0336423158135S11657598EA0148601547000000000000
B0336463158060S11657619EA0148001539000000000000
B0336503157983S11657638EA0147401534000000000000
B0336543157907S11657657EA0146901529000000000000
B0336583157831S11657670EA0146401524000000000000
B0337023157758S11657683EA0146001522000000000000
B0337063157688S11657694EA0145701516000000000000
B0337103157619S11657706EA0144901503000000000000
B0337143157548S11657720EA0144601510000000000000
B0337183157496S11657768EA0145901522000000000000
B0337223157504S11657841EA0146701529000000000000
B0337263157561S11657848EA0147701537000000015000
B0337303157579S11657787EA0147401526000000015000
B0337343157531S11657738EA0146401521000000015000
B0337383157467S11657716EA0146501526000000015000
B0337423157420S11657751EA0147001529000000015000
B0337463157427S11657814EA0146601522000000015000
B0337503157474S11657855EA0145801512000000015000
B0337543157530S11657893EA0145101508000000015000
B0337583157587S11657924EA0145101510000000015000
B0338023157648S11657940EA0145101506000000000000
B0338063157700S11657902EA0144701502000000015000
B0338103157701S11657831EA0144301495000000015000
B0338143157648S11657788EA0143201487000000015000
B0338183157580S11657787EA0142801485000000015000
B0338223157515S11657806EA0142401480000000015000
B0338263157450S11657831EA0141601471000000000000
B0338303157380S11657855EA0140701462000000000000
B0338343157307S11657880EA0140601466000000000000
B0338383157235S11657902EA0141001469000000000000
B0338423157163S11657926EA0141101466000000000000
B0338463157090S11657952EA0140201458000000000000
B0338503157014S11657975EA0139201444000000000000
B0338543156936S11657997EA0137901437000000000000
B0338583156858S11658021EA0137501432000000000000
B0339023156780S11658045EA0137101427000000000000
B0339063156703S11658074EA0136601424000000000000
B0339103156629S11658106EA0136501422000000000000
B0339143156555S11658139EA0136601422000000000000
B0339183156482S11658166EA0136101415000000000000
B0339223156406S11658192EA0135401404000000000000
B0339263156332S11658222EA0133901391000000000000
B0339303156258S11658257EA0132901382000000000000
B0339343156185S11658294EA0132101374000000000000
B0339383156114S11658331EA0131401367000000000000
B0339423156042S11658370EA0130201355000000000000
B0339463155968S11658408EA0129101343000000000000
B0339503155893S11658446EA0128201330000000000000
B0339543155818S11658483EA0126901319000000000000
B0339583155742S11658520EA0125801308000000000000
B0340023155667S11658556EA0124801298000000000000
B0340063155594S11658594EA0123801287000000000000
B0340103155524S11658635EA0123001283000000000000
B0340143155459S11658678EA0122901279000000000000
B0340183155396S11658724EA0121901264000000000000
B0340223155333S11658776EA0120501253000000000000
B0340263155268S11658830EA0119501243000000000000
B0340303155203S11658885EA0118401232000000000000
B0340343155139S11658942EA0117701227000000000000
B0340383155077S11658998EA0117701226000000000000
B0340423155015S11659054EA0117201220000000000000
B0340463154953S11659110EA0116601210000000000000
B0340503154891S11659166EA0115601201000000000000
B0340543154828S11659220EA0114601191000000000000
B0340583154766S11659275EA0113801182000000000000
B0341023154705S11659330EA0113001174000000000000
B0341063154644S11659386EA0112501171000000000000
B0341103154589S11659445EA0111701162000000000000
B0341143154537S11659508EA0110901154000000000000
B0341183154489S11659574EA0110401147000000000000
B0341223154440S11659635EA0110401152000000000000
B0341263154389S11659692EA0110601151000000000000
B0341303154339S11659753EA0110301145000000000000
B0341343154287S11659815EA0109601138000000000000
B0341383154234S11659876EA0109501143000000000000
B0341423154190S11659941EA0110601154000000000000
B0341463154204S11700007EA0111501163000000000000
B0341503154258S11659997EA0112001168000000000000
B0341543154280S11659935EA0112901177000000000000
B0341583154256S11659873EA0112901172000000015000
B0342023154196S11659844EA0112401168000000015000
B0342063154130S11659859EA0112201165000000015000
B0342103154092S11659919EA0112301169000000015000
B0342143154125S11659965EA0112401165000000015000
B0342183154170S11659937EA0112201167000000015000
B0342223154170S11659869EA0112401169000000015000
B0342263154128S11659817EA0112701174000000015000
B0342303154068S11659791EA0112501165000000015000
B0342343153999S11659800EA0111301152000000015000
B0342383153927S11659822EA0109901135000000015000
B0342423153856S11659855EA0108601126000000000000
B0342463153786S11659894EA0107201111000000000000
B0342503153719S11659942EA0106301105000000000000
B0342543153656S11659993EA0106101102000000000000
B0342583153591S11700043EA0105301093000000000000
B0343023153526S11700095EA0105001094000000000000
B0343063153466S11700145EA0105001089000000000000
B0343103153409S11700195EA0104401083000000000000
B0343143153351S11700246EA0103301072000000000000
B0343183153292S11700297EA0102801070000000000000
B0343223153232S11700344EA0102801069000000000000
B0343263153172S11700389EA0103001077000000000000
B0343303153104S11700413EA0104501092000000000000
B0343343153055S11700370EA0106701117000000000000
B0343383153068S11700314EA0108401135000000000000
B0343423153117S11700311EA0109601141000000015000
B0343463153147S11700364EA0110401149000000015000
B0343503153130S11700431EA0111101161000000015000
B0343543153075S11700457EA0112601176000000015000
B0343583153029S11700419EA0114401197000000015000
B0344023153034S11700361EA0116301215000000015000
B0344063153078S11700342EA0117601227000000015000
B0344103153116S11700384EA0118301231000000015000
B0344143153108S11700453EA0118701241000000015000
B0344183153058S11700494EA0120201259000000015000
B0344223152999S11700478EA0121701277000000015000
B0344263152973S11700420EA0124101302000000015000
B0344303152998S11700370EA0126101319000000015000
B0344343153046S11700364EA0127601332000000015000
B0344383153085S11700406EA0128601342000000015000
B0344423153090S11700470EA0129701352000000015000
B0344463153059S11700526EA0130601362000000015000
B0344503153003S11700546EA0130901360000000015000
B0344543152939S11700523EA0131101372000000015000
B0344583152906S11700470EA0133601406000000015000
B0345023152926S11700427EA0136501430000000015000
B0345063152973S11700428EA0138001442000000015000
B0345103153007S11700476EA0139501461000000015000
B0345143153002S11700541EA0141601483000000015000
B0345183152961S11700592EA0142801490000000015000
B0345223152900S11700606EA0143401497000000015000
B0345263152847S11700567EA0145301522000000015000
B0345303152831S11700507EA0146801537000000015000
B0345343152860S11700459EA0148101550000000015000
B0345383152912S11700455EA0149501566000000015000
B0345423152948S11700502EA0151301585000000015000
B0345463152937S11700572EA0152901601000000015000
B0345503152883S11700622EA0154701616000000015000
B0345543152818S11700621EA0156401635000000015000
B0345583152776S11700574EA0157701643000000015000
B0346023152776S11700509EA0158101649000000015000
B0346063152815S11700463EA0158601653000000015000
B0346103152872S11700459EA0159301665000000015000
B0346143152916S11700507EA0160701679000000015000
B0346183152911S11700582EA0162101694000000015000
B0346223152864S11700634EA0163701710000000015000
B0346263152799S11700637EA0165101725000000015000
B0346303152748S11700600EA0166201733000000015000
B0346343152727S11700537EA0166801740000000015000
B0346383152742S11700471EA0167401746000000015000
B0346423152777S11700413EA0167601747000000015000
B0346463152835S11700389EA0168201754000000015000
B0346503152899S11700402EA0169301769000000015000
B0346543152945S11700454EA0170501780000000015000
B0346583152945S11700533EA0171801796000000015000
B0347023152900S11700595EA0173201806000000015000
B0347063152835S11700618EA0174301820000000015000
B0347103152774S11700602EA0175801839000000015000
B0347143152731S11700554EA0176801845000000015000
B0347183152718S11700485EA0177201850000000015000
B0347223152742S11700418EA0177901856000000015000
B0347263152800S11700383EA0178301858000000015000
B0347303152870S11700406EA0178801868000000015000
B0347343152913S11700476EA0180701890000000015000
B0347383152912S11700557EA0182901912000000015000
B0347423152869S11700615EA0184701926000000015000
B0347463152805S11700628EA0185401935000000015000
B0347503152757S11700588EA0186701947000000015000
B0347543152751S11700522EA0187101948000000015000
B0347583152786S11700462EA0187201954000000015000
B0348023152843S11700428EA0188201969000000015000
B0348063152898S11700458EA0190201988000000015000
B0348103152903S11700522EA0192002005000000015000
B0348143152860S11700559EA0193002013000000015000
B0348183152811S11700541EA0194102027000000015000
B0348223152792S11700484EA0195002033000000015000
B0348263152818S11700424EA0195902045000000015000
B0348303152874S11700398EA0197102060000000015000
B0348343152929S11700420EA0198702074000000015000
B0348383152956S11700478EA0199502076000000015000
B0348423152955S11700549EA0199602080000000015000
B0348463152921S11700608EA0200302086000000015000
B0348503152867S11700634EA0200802093000000015000
B0348543152815S11700613EA0201902106000000015000
B0348583152789S11700559EA0202602112000000015000
B0349023152802S11700494EA0203202116000000015000
B0349063152854S11700458EA0203902128000000015000
B0349103152911S11700476EA0205302145000000015000
B0349143152935S11700536EA0206902157000000015000
B0349183152919S11700601EA0207402157000000015000
B0349223152873S11700650EA0207202155000000015000
B0349263152812S11700671EA0206902154000000015000
B0349303152743S11700673EA0206202144000000015000
B0349343152668S11700662EA0205702141000000000000
B0349383152590S11700649EA0205602140000000000000
B0349423152506S11700634EA0204502126000000000000
B0349463152419S11700613EA0203802116000000000000
B0349503152331S11700589EA0202702105000000000000
B0349543152241S11700565EA0201602090000000000000
B0349583152152S11700535EA0199502070000000000000
B0350023152062S11700506EA0198102058000000000000
B0350063151975S11700479EA0197002047000000000000
B0350103151889S11700452EA0196302043000000000000
B0350143151806S11700424EA0195902036000000000000
B0350183151723S11700401EA0195102027000000000000
B0350223151638S11700381EA0194602021000000000000
B0350263151555S11700364EA0193902015000000000000
B0350303151472S11700348EA0193302013000000000000
B0350343151394S11700329EA0193302013000000000000
B0350383151314S11700312EA0192702000000000000000
B0350423151232S11700297EA0191401991000000000000
B0350463151152S11700284EA0191001986000000000000
B0350503151073S11700273EA0191001987000000000000
B0350543150997S11700273EA0191301991000000000000
B0350583150920S11700275EA0191101989000000000000
B0351023150848S11700279EA0191702004000000000000
B0351063150788S11700286EA0193902028000000000000
B0351103150757S11700335EA0195502036000000000000
B0351143150779S11700392EA0195902037000000000000
B0351183150832S11700394EA0195902034000000015000
B0351223150865S11700342EA0195102020000000015000
B0351263150854S11700275EA0193802010000000015000
B0351303150818S11700219EA0193402011000000015000
B0351343150774S11700167EA0193502010000000015000
B0351383150720S11700116EA0192702001000000000000
B0351423150659S11700065EA0192101992000000000000
B0351463150588S11700028EA0191301985000000000000
B0351503150511S11700015EA0191201991000000000000
B0351543150437S11700006EA0191801996000000000000
B0351583150365S11659999EA0191901995000000000000
B0352023150291S11659994EA0192001998000000000000
B0352063150218S11659995EA0193102014000000000000
B0352103150177S11700050EA0195402037000000000000
B0352143150207S11700102EA0197402054000000000000
B0352183150256S11700078EA0198902069000000015000
B0352223150263S11700013EA0199802077000000015000
B0352263150224S11659963EA0200502092000000015000
B0352303150166S11659963EA0202202106000000015000
B0352343150130S11700013EA0203002113000000015000
B0352383150137S11700076EA0204002125000000015000
B0352423150186S11700103EA0205302137000000015000
B0352463150234S11700072EA0206502151000000015000
B0352503150250S11700006EA0207602159000000015000
B0352543150221S11659943EA0208702173000000015000
B0352583150164S11659929EA0209802186000000015000
B0353023150118S11659969EA0210602190000000015000
B0353063150121S11700038EA0210902197000000015000
B0353103150170S11700069EA0212002213000000015000
B0353143150221S11700041EA0213702225000000030000
B0353183150239S11659973EA0214602232000000030000
B0353223150213S11659909EA0215402243000000015000
B0353263150156S11659893EA0216502254000000015000
B0353303150108S11659926EA0217202261000000015000
B0353343150094S11659987EA0217802267000000015000
B0353383150124S11700039EA0218502275000000015000
B0353423150181S11700039EA0219102284000000030000
B0353463150218S11659984EA0220302295000000015000
B0353503150213S11659915EA0221302306000000015000
B0353543150169S11659872EA0222202312000000015000
B0353583150112S11659878EA0222602313000000015000
B0354023150074S11659929EA0222802314000000015000
B0354063150077S11659997EA0222802315000000015000
B0354103150114S11700047EA0223402325000000015000
B0354143150170S11700024EA0224602334000000015000
B0354183150174S11659948EA0225202341000000015000
B0354223150121S11659913EA0225902350000000015000
B0354263150073S11659952EA0226602355000000015000
B0354303150079S11700017EA0227202361000000015000
B0354343150129S11700039EA0228002373000000015000
B0354383150176S11700002EA0229002378000000015000
B0354423150182S11659930EA0229502384000000015000
B0354463150138S11659882EA0230102393000000015000
B0354503150085S11659902EA0231002396000000015000
B0354543150070S11659965EA0231102400000000015000
B0354583150101S11700015EA0231702410000000015000
B0355023150156S11700017EA0232402414000000030000
B0355063150196S11659968EA0232802418000000030000
B0355103150190S11659896EA0233202421000000030000
B0355143150140S11659851EA0233302426000000015000
B0355183150085S11659863EA0234202435000000015000
B0355223150055S11659916EA0234602438000000015000
B0355263150070S11659977EA0234702437000000015000
B0355303150118S11700013EA0235102445000000030000
B0355343150173S11659991EA0236102451000000030000
B0355383150199S11659925EA0236202451000000030000
B0355423150177S11659856EA0236202452000000030000
B0355463150121S11659822EA0236402457000000015000
B0355503150060S11659813EA0236602457000000015000
B0355543149997S11659813EA0236302451000000015000
B0355583149930S11659815EA0235302440000000015000
B0356023149860S11659818EA0233902422000000015000
B0356063149784S11659821EA0232502412000000000000
B0356103149705S11659828EA0231802406000000000000
B0356143149623S11659838EA0231502402000000000000
B0356183149537S11659848EA0231402404000000000000
B0356223149453S11659857EA0231402401000000000000
B0356263149370S11659868EA0231302403000000000000
B0356303149288S11659881EA0230702386000000000000
B0356343149198S11659895EA0228402364000000000000
B0356383149106S11659904EA0227202356000000000000
B0356423149015S11659908EA0226702353000000000000
B0356463148926S11659909EA0226702354000000000000
B0356503148842S11659900EA0226602352000000000000
B0356543148761S11659889EA0226402350000000000000
B0356583148684S11659878EA0226802355000000000000
B0357023148613S11659865EA0227102360000000000000
B0357063148548S11659855EA0227702361000000000000
B0357103148486S11659846EA0227502360000000000000
B0357143148423S11659842EA0226702349000000000000
B0357183148356S11659837EA0224802328000000000000
B0357223148281S11659830EA0222802308000000000000
B0357263148201S11659824EA0221202294000000000000
B0357303148119S11659818EA0220502288000000000000
B0357343148038S11659812EA0220002285000000000000
B0357383147962S11659804EA0219702281000000000000
B0357423147884S11659795EA0218902271000000000000
B0357463147807S11659785EA0218002262000000000000
B0357503147729S11659776EA0217402255000000000000
B0357543147652S11659772EA0216802249000000000000
B0357583147577S11659768EA0216202242000000000000
B0358023147504S11659766EA0215702234000000000000
B0358063147430S11659765EA0214502220000000000000
B0358103147353S11659766EA0212902205000000000000
B0358143147275S11659766EA0211402190000000000000
B0358183147196S11659765EA0210102179000000000000
B0358223147114S11659765EA0209102169000000000000
B0358263147032S11659761EA0208902172000000000000
B0358303146954S11659757EA0209502178000000000000
B0358343146877S11659751EA0208802166000000000000
B0358383146797S11659744EA0207602148000000000000
B0358423146715S11659738EA0206202138000000000000
B0358463146634S11659730EA0205102127000000000000
B0358503146551S11659721EA0203602110000000000000
B0358543146467S11659713EA0202602100000000000000
B0358583146381S11659705EA0201402089000000000000
B0359023146294S11659698EA0200502084000000000000
B0359063146212S11659691EA0200902090000000000000
B0359103146139S11659683EA0201202090000000000000
B0359143146065S11659675EA0200002076000000000000
B0359183145987S11659673EA0199002062000000000000
B0359223145904S11659673EA0197402046000000000000
B0359263145817S11659675EA0196402037000000000000
B0359303145727S11659681EA0195402026000000000000
B0359343145637S11659685EA0194502022000000000000
B0359383145548S11659687EA0194202019000000000000
B0359423145460S11659690EA0194002018000000000000
B0359463145375S11659690EA0193902012000000000000
B0359503145289S11659690EA0193202010000000000000
B0359543145204S11659688EA0193102009000000000000
B0359583145124S11659688EA0193802020000000000000
B0400023145044S11659691EA0194502026000000000000
B0400063144964S11659691EA0194502023000000000000
B0400103144885S11659695EA0194702029000000000000
B0400143144822S11659739EA0195202032000000000000
B0400183144801S11659818EA0195502038000000000000
B0400223144800S11659900EA0196002042000000000000
B0400263144813S11659977EA0196802049000000000000
B0400303144859S11700030EA0196902044000000015000
B0400343144925S11700034EA0196602042000000015000
B0400383144979S11700003EA0196502045000000015000
B0400423145012S11659948EA0196902046000000015000
B0400463145005S11659886EA0196802047000000015000
B0400503144976S11659833EA0197002049000000015000
B0400543144937S11659786EA0197202051000000015000
B0400583144890S11659746EA0197102047000000015000
B0401023144834S11659716EA0196302032000000015000
B0401063144768S11659703EA0194702020000000015000
B0401103144696S11659698EA0194102018000000000000
B0401143144623S11659696EA0194402020000000000000
B0401183144549S11659695EA0193802016000000000000
B0401223144475S11659692EA0192701997000000000000
B0401263144394S11659690EA0190801978000000000000
B0401303144307S11659685EA0188901958000000000000
B0401343144216S11659681EA0187701949000000000000
B0401383144125S11659670EA0187201947000000000000
B0401423144037S11659660EA0187101946000000000000
B0401463143954S11659648EA0186801937000000000000
B0401503143871S11659630EA0185501923000000000000
B0401543143789S11659610EA0184401913000000000000
B0401583143704S11659588EA0183401902000000000000
B0402023143618S11659560EA0182001891000000000000
B0402063143533S11659531EA0181301884000000000000
B0402103143445S11659506EA0180601877000000000000
B0402143143360S11659487EA0179801870000000000000
B0402183143275S11659473EA0179401863000000000000
B0402223143189S11659467EA0178101850000000000000
B0402263143104S11659471EA0177101839000000000000
B0402303143018S11659471EA0176401833000000000000
B0402343142931S11659474EA0175501821000000000000
B0402383142840S11659478EA0174201807000000000000
B0402423142746S11659483EA0174001813000000000000
B0402463142663S11659486EA0174601815000000000000
B0402503142586S11659497EA0174901820000000000000
B0402543142516S11659519EA0175101820000000000000
B0402583142448S11659538EA0175201821000000000000
B0403023142379S11659555EA0174801814000000000000
B0403063142308S11659570EA0173501797000000000000
B0403103142233S11659582EA0171801780000000000000
B0403143142156S11659588EA0169901759000000000000
B0403183142075S11659587EA0167901739000000000000
B0403223141992S11659588EA0166201723000000000000
B0403263141902S11659586EA0164401695000000000000
B0403303141805S11659584EA0162101677000000000000
B0403343141709S11659582EA0161001672000000000000
B0403383141612S11659583EA0160601669000000000000
B0403423141519S11659573EA0160601666000000000000
B0403463141428S11659552EA0160301673000000000000
B0403503141346S11659538EA0161701684000000000000
B0403543141269S11659530EA0162501689000000000000
B0403583141195S11659538EA0162501687000000000000
B0404023141121S11659545EA0161901682000000000000
B0404063141046S11659555EA0161901684000000000000
B0404103140981S11659592EA0162201685000000000000
B0404143140931S11659652EA0162101682000000000000
B0404183140883S11659717EA0161501675000000000000
B0404223140835S11659786EA0161101671000000000000
B0404263140792S11659860EA0159901652000000000000
B0404303140728S11659915EA0157801634000000000000
B0404343140650S11659943EA0156001616000000000000
B0404383140567S11659952EA0154401599000000000000
B0404423140483S11659950EA0153201585000000000000
B0404463140400S11659943EA0152201572000000000000
B0404503140315S11659934EA0150201546000000000000
B0404543140224S11659925EA0147601523000000000000
B0404583140133S11659916EA0146301515000000000000
B0405023140049S11659907EA0145901513000000000000
B0405063139967S11659898EA0145101501000000000000
B0405103139883S11659889EA0143301480000000000000
B0405143139798S11659886EA0142401477000000000000
B0405183139716S11659882EA0142301474000000000000
B0405223139636S11659878EA0141801469000000000000
B0405263139557S11659881EA0141201461000000000000
B0405303139478S11659880EA0140601455000000000000
B0405343139396S11659867EA0140001449000000000000
B0405383139315S11659844EA0139401440000000000000
B0405423139236S11659808EA0138101426000000000000
B0405463139158S11659765EA0136801412000000000000
B0405503139084S11659722EA0136701421000000000000
B0405543139015S11659682EA0138101436000000000000
B0405583138947S11659661EA0139601447000000000000
B0406023138888S11659700EA0139601441000000000000
B0406063138877S11659774EA0139601448000000000000
B0406103138921S11659816EA0140301455000000000000
B0406143138975S11659803EA0140901460000000015000
B0406183139005S11659750EA0141701472000000015000
B0406223138983S11659691EA0142201477000000015000
B0406263138925S11659674EA0143001482000000015000
B0406303138876S11659716EA0142901475000000015000
B0406343138871S11659787EA0142301474000000015000
B0406383138912S11659829EA0142901483000000015000
B0406423138960S11659809EA0143601487000000015000
B0406463138971S11659750EA0144101494000000015000
B0406503138932S11659700EA0144501497000000015000
B0406543138871S11659705EA0145001505000000015000
B0406583138837S11659761EA0145301501000000015000
B0407023138858S11659824EA0145001502000000015000
B0407063138910S11659855EA0145501512000000015000
B0407103138958S11659833EA0146501523000000015000
B0407143138968S11659776EA0147201526000000015000
B0407183138931S11659727EA0147501526000000015000
B0407223138869S11659733EA0147701530000000015000
B0407263138832S11659790EA0148501541000000015000
B0407303138853S11659851EA0149501549000000015000
B0407343138903S11659856EA0150001555000000015000
B0407383138929S11659805EA0150501560000000015000
B0407423138907S11659746EA0150901559000000015000
B0407463138849S11659724EA0150801561000000015000
B0407503138794S11659761EA0151201567000000015000
B0407543138773S11659830EA0152101574000000015000
B0407583138795S11659891EA0152601578000000015000
B0408023138850S11659916EA0152401575000000015000
B0408063138914S11659916EA0152501581000000015000
B0408103138940S11659863EA0153501596000000015000
B0408143138903S11659818EA0154501601000000015000
B0408183138846S11659825EA0155001607000000015000
B0408223138807S11659880EA0155401610000000015000
B0408263138814S11659951EA0155801615000000015000
B0408303138863S11659995EA0156501621000000015000
B0408343138921S11659984EA0156901626000000015000
B0408383138946S11659924EA0157101627000000015000
B0408423138920S11659863EA0157201628000000015000
B0408463138859S11659839EA0157201629000000015000
B0408503138790S11659838EA0157401632000000015000
B0408543138717S11659842EA0157401630000000015000
B0408583138641S11659850EA0156801624000000000000
B0409023138563S11659861EA0156101614000000000000
B0409063138482S11659867EA0154701599000000000000
B0409103138400S11659867EA0153001578000000000000
B0409143138317S11659868EA0151401566000000000000
B0409183138235S11659873EA0149701547000000000000
B0409223138149S11659877EA0148301526000000000000
B0409263138063S11659878EA0146501509000000000000
B0409303137976S11659880EA0145101496000000000000
B0409343137888S11659881EA0143801485000000000000
B0409383137798S11659882EA0142701473000000000000
B0409423137710S11659886EA0141801467000000000000
B0409463137624S11659893EA0141001455000000000000
B0409503137541S11659904EA0139701445000000000000
B0409543137458S11659919EA0139801445000000000000
B0409583137371S11659930EA0140501456000000000000
B0410023137287S11659941EA0141901468000000000000
B0410063137205S11659942EA0142701478000000000000
B0410103137140S11659984EA0143201480000000000000
B0410143137147S11700052EA0143001472000000000000
B0410183137204S11700054EA0141901456000000000000
B0410223137239S11659990EA0139901436000000015000
B0410263137238S11659902EA0138601431000000015000
B0410303137226S11659816EA0139201447000000000000
B0410343137185S11659751EA0140501454000000015000
B0410383137113S11659730EA0140401452000000015000
B0410423137035S11659721EA0140701460000000000000
B0410463136958S11659716EA0141201464000000000000
B0410503136880S11659720EA0141601467000000000000
B0410543136826S11659764EA0142601479000000000000
B0410583136853S11659824EA0143101476000000000000
B0411023136910S11659809EA0143001477000000015000
B0411063136927S11659742EA0143201481000000030000
B0411103136884S11659690EA0143501481000000015000
B0411143136819S11659691EA0143601484000000015000
B0411183136754S11659716EA0143801489000000015000
B0411223136701S11659756EA0144701497000000015000
B0411263136713S11659817EA0144901495000000015000
B0411303136770S11659817EA0144501492000000015000
B0411343136808S11659761EA0144101490000000015000
B0411383136813S11659687EA0144401493000000015000
B0411423136774S11659623EA0144701495000000015000
B0411463136706S11659597EA0145101501000000015000
B0411503136636S11659603EA0145301504000000015000
B0411543136567S11659621EA0145601504000000015000
B0411583136501S11659646EA0144801493000000000000
B0412023136432S11659677EA0143601480000000000000
B0412063136362S11659713EA0142401469000000000000
B0412103136288S11659756EA0140701446000000000000
B0412143136211S11659800EA0139001435000000000000
B0412183136134S11659843EA0138201426000000000000
B0412223136054S11659883EA0137701419000000000000
B0412263135970S11659908EA0137801424000000000000
B0412303135889S11659932EA0137901422000000000000
B0412343135816S11659965EA0138901443000000000000
B0412383135792S11700037EA0140501450000000000000
B0412423135840S11700082EA0140601449000000000000
B0412463135902S11700060EA0140601451000000000000
B0412503135941S11700003EA0140401453000000015000
B0412543135941S11659930EA0140801455000000015000
B0412583135900S11659876EA0140501450000000015000
B0413023135838S11659856EA0140301446000000015000
B0413063135769S11659869EA0140001445000000015000
B0413103135699S11659891EA0140201452000000015000
B0413143135627S11659916EA0140801460000000000000
B0413183135586S11659973EA0142301474000000000000
B0413223135634S11700013EA0142401465000000015000
B0413263135679S11659958EA0142701482000000015000
B0413303135668S11659894EA0144601505000000015000
B0413343135616S11659882EA0146001513000000015000
B0413383135597S11659946EA0147001522000000015000
B0413423135645S11659981EA0147701531000000015000
B0413463135687S11659942EA0148401534000000015000
B0413503135661S11659883EA0148701539000000015000
B0413543135605S11659899EA0149501551000000015000
B0413583135600S11659965EA0151301569000000015000
B0414023135644S11700000EA0152101571000000015000
B0414063135688S11659963EA0151901571000000015000
B0414103135679S11659896EA0152301576000000015000
B0414143135623S11659873EA0152601578000000015000
B0414183135592S11659932EA0153001583000000015000
B0414223135645S11659974EA0154001597000000015000
B0414263135695S11659937EA0155101613000000015000
B0414303135687S11659880EA0156701626000000015000
B0414343135639S11659855EA0157401629000000015000
B0414383135596S11659898EA0157501629000000015000
B0414423135592S11659971EA0158401647000000015000
B0414463135635S11700019EA0159901655000000015000
B0414503135692S11700000EA0159901652000000015000
B0414543135704S11659938EA0159701649000000015000
B0414583135662S11659890EA0159401648000000015000
B0415023135597S11659886EA0159501652000000015000
B0415063135541S11659920EA0160101659000000015000
B0415103135536S11659987EA0160601663000000015000
B0415143135590S11700023EA0160601659000000015000
B0415183135649S11659991EA0160201661000000015000
B0415223135692S11659935EA0160701668000000015000
B0415263135682S11659869EA0161501674000000015000
B0415303135625S11659843EA0162101678000000015000
B0415343135562S11659869EA0162501684000000015000
B0415383135553S11659938EA0163401697000000015000
B0415423135609S11659959EA0163901700000000015000
B0415463135661S11659928EA0164301709000000015000
B0415503135670S11659868EA0165101713000000015000
B0415543135635S11659817EA0165101711000000015000
B0415583135577S11659807EA0165401717000000015000
B0416023135523S11659843EA0165701718000000015000
B0416063135484S11659903EA0165901724000000015000
B0416103135456S11659969EA0165901721000000015000
B0416143135424S11700038EA0165701720000000000000
B0416183135396S11700108EA0165901723000000000000
B0416223135376S11700181EA0166001724000000000000
B0416263135353S11700254EA0165901719000000000000
B0416303135313S11700320EA0165201711000000000000
B0416343135257S11700375EA0164601708000000000000
B0416383135192S11700415EA0164601710000000000000
B0416423135123S11700448EA0164701709000000000000
B0416463135053S11700476EA0164701709000000000000
B0416503134981S11700504EA0164001698000000000000
B0416543134903S11700528EA0163101692000000000000
B0416583134824S11700550EA0163101692000000000000
B0417023134747S11700575EA0163501700000000000000
B0417063134678S11700605EA0165401723000000000000
B0417103134633S11700658EA0167101734000000000000
B0417143134647S11700723EA0167301733000000000000
B0417183134702S11700715EA0168401753000000000000
B0417223134709S11700652EA0170301769000000015000
B0417263134659S11700609EA0170901772000000015000
B0417303134598S11700641EA0172001789000000015000
B0417343134604S11700705EA0173101795000000015000
B0417383134656S11700706EA0174001808000000015000
B0417423134673S11700645EA0175301823000000015000
B0417463134630S11700588EA0176201832000000015000
B0417503134563S11700588EA0177901850000000015000
B0417543134527S11700643EA0179101858000000015000
B0417583134546S11700700EA0179401862000000015000
B0418023134594S11700714EA0180001874000000015000
B0418063134628S11700669EA0181201887000000015000
B0418103134602S11700604EA0182401898000000015000
B0418143134537S11700592EA0183701916000000015000
B0418183134508S11700648EA0185701933000000015000
B0418223134539S11700689EA0186801938000000015000
B0418263134586S11700661EA0187201945000000015000
B0418303134586S11700589EA0188201956000000015000
B0418343134534S11700535EA0189401970000000015000
B0418383134462S11700537EA0190901985000000015000
B0418423134423S11700595EA0191501990000000015000
B0418463134449S11700648EA0191901997000000015000
B0418503134500S11700637EA0193202014000000015000
B0418543134511S11700572EA0194802030000000015000
B0418583134468S11700514EA0196002039000000015000
B0419023134399S11700509EA0197102050000000015000
B0419063134364S11700562EA0197702053000000015000
B0419103134388S11700615EA0197802053000000015000
B0419143134442S11700611EA0198202065000000015000
B0419183134474S11700559EA0200202086000000015000
B0419223134472S11700494EA0202102104000000015000
B0419263134427S11700442EA0203302114000000015000
B0419303134364S11700433EA0204002120000000015000
B0419343134318S11700475EA0204402124000000015000
B0419383134323S11700532EA0204402122000000015000
B0419423134368S11700559EA0204402127000000015000
B0419463134418S11700546EA0205702142000000015000
B0419503134452S11700491EA0206502144000000015000
B0419543134439S11700410EA0207002152000000015000
B0419583134378S11700375EA0207302149000000015000
B0420023134319S11700415EA0206802147000000015000
B0420063134288S11700483EA0207302160000000015000
B0420103134306S11700545EA0208402167000000015000
B0420143134360S11700570EA0209102179000000015000
B0420183134409S11700539EA0210502191000000015000
B0420223134395S11700463EA0211302199000000015000
B0420263134327S11700449EA0212002205000000015000
B0420303134295S11700504EA0213002217000000015000
B0420343134326S11700546EA0214002226000000015000
B0420383134373S11700523EA0215002233000000015000
B0420423134381S11700452EA0215402236000000015000
B0420463134339S11700389EA0215802241000000015000
B0420503134273S11700380EA0215902243000000015000
B0420543134222S11700423EA0216602250000000015000
B0420583134232S11700484EA0216902252000000015000
B0421023134290S11700501EA0217302263000000015000
B0421063134325S11700444EA0218702279000000015000
B0421103134297S11700371EA0219702284000000015000
B0421143134231S11700340EA0220002285000000015000
B0421183134174S11700372EA0220202290000000015000
B0421223134163S11700439EA0220502293000000015000
B0421263134204S11700480EA0220702297000000015000
B0421303134261S11700475EA0221602313000000015000
B0421343134291S11700416EA0223202328000000015000
B0421383134273S11700345EA0223702328000000015000
B0421423134212S11700306EA0223602329000000015000
B0421463134161S11700341EA0224302337000000015000
B0421503134180S11700400EA0223902329000000015000
B0421543134241S11700424EA0224302338000000015000
B0421583134287S11700377EA0225402352000000015000
B0422023134264S11700297EA0226402358000000015000
B0422063134201S11700259EA0226902364000000015000
B0422103134150S11700297EA0227402367000000015000
B0422143134170S11700357EA0227102363000000015000
B0422183134230S11700351EA0227702373000000015000
B0422223134266S11700292EA0228802383000000015000
B0422263134251S11700211EA0229302386000000015000
B0422303134197S11700159EA0229602389000000015000
B0422343134130S11700145EA0229102383000000015000
B0422383134058S11700146EA0227402359000000015000
B0422423133981S11700153EA0225702344000000015000
B0422463133906S11700162EA0225702349000000000000
B0422503133833S11700173EA0225602347000000000000
B0422543133760S11700184EA0225302342000000000000
B0422583133686S11700194EA0224702337000000000000
B0423023133614S11700203EA0224102330000000000000
B0423063133537S11700214EA0223102319000000000000
B0423103133459S11700224EA0222102307000000000000
B0423143133378S11700237EA0221302302000000000000
B0423183133299S11700250EA0221102300000000000000
B0423223133221S11700260EA0220802296000000000000
B0423263133144S11700267EA0220702298000000000000
B0423303133071S11700272EA0220802297000000000000
B0423343133001S11700271EA0220602292000000000000
B0423383132927S11700272EA0219302276000000000000
B0423423132849S11700277EA0217702263000000000000
B0423463132772S11700286EA0216702256000000000000
B0423503132696S11700297EA0216402254000000000000
B0423543132622S11700307EA0216202251000000000000
B0423583132546S11700316EA0215902249000000000000
B0424023132472S11700328EA0215702246000000000000
B0424063132398S11700337EA0215202237000000000000
B0424103132323S11700342EA0214102226000000000000
B0424143132245S11700349EA0213302220000000000000
B0424183132167S11700358EA0213102216000000000000
B0424223132090S11700370EA0212802215000000000000
B0424263132015S11700380EA0212802212000000000000
B0424303131940S11700390EA0212302208000000000000
B0424343131868S11700402EA0211602200000000000000
B0424383131794S11700413EA0210402189000000000000
B0424423131718S11700419EA0209602178000000000000
B0424463131643S11700423EA0208902170000000000000
B0424503131563S11700424EA0208102162000000000000
B0424543131482S11700428EA0207302152000000000000
B0424583131396S11700433EA0206202142000000000000
B0425023131311S11700440EA0206002141000000000000
B0425063131229S11700449EA0205902141000000000000
B0425103131151S11700458EA0205702137000000000000
B0425143131073S11700471EA0204802126000000000000
B0425183130994S11700487EA0203902116000000000000
B0425223130912S11700504EA0202602104000000000000
B0425263130832S11700522EA0201602092000000000000
B0425303130750S11700537EA0200402078000000000000
B0425343130669S11700557EA0199502070000000000000
B0425383130587S11700572EA0198802060000000000000
B0425423130500S11700584EA0198402066000000000000
B0425463130421S11700596EA0199202070000000000000
B0425503130343S11700608EA0198602055000000000000
B0425543130262S11700615EA0197502051000000000000
B0425583130182S11700611EA0197602055000000000000
B0426023130101S11700611EA0197402045000000000000
B0426063130013S11700622EA0195902032000000000000
B0426103129932S11700641EA0196702052000000000000
B0426143129863S11700667EA0197902058000000000000
B0426183129795S11700693EA0197402047000000000000
B0426223129720S11700715EA0195702024000000000000
B0426263129637S11700732EA0193101998000000000000
B0426303129548S11700751EA0191201980000000000000
B0426343129459S11700766EA0190001967000000000000
B0426383129368S11700783EA0189101957000000000000
B0426423129273S11700799EA0188001949000000000000
B0426463129177S11700813EA0187701949000000000000
B0426503129083S11700823EA0187801951000000000000
B0426543128992S11700829EA0188301959000000000000
B0426583128909S11700840EA0189701974000000000000
B0427023128837S11700865EA0190901986000000000000
B0427063128766S11700886EA0191901998000000000000
B0427103128710S11700929EA0193002007000000000000
B0427143128689S11701000EA0193502014000000000000
B0427183128703S11701068EA0194702022000000000000
B0427223128762S11701081EA0195102026000000000000
B0427263128796S11701014EA0196102043000000015000
B0427303128774S11700942EA0198002059000000015000
B0427343128713S11700926EA0199202070000000015000
B0427383128676S11700981EA0199702071000000015000
B0427423128700S11701047EA0199702073000000015000
B0427463128758S11701066EA0200402082000000015000
B0427503128819S11701037EA0201302093000000015000
B0427543128832S11700964EA0202502106000000015000
B0427583128784S11700918EA0203602115000000015000
B0428023128733S11700943EA0204602123000000015000
B0428063128736S11701003EA0205102129000000015000
B0428103128788S11701024EA0206202142000000015000
B0428143128827S11700973EA0207402149000000015000
B0428183128801S11700908EA0207702153000000015000
B0428223128742S11700903EA0207902156000000015000
B0428263128702S11700949EA0208402164000000015000
B0428303128703S11701013EA0208902168000000015000
B0428343128755S11701043EA0209402177000000015000
B0428383128796S11700992EA0211002193000000015000
B0428423128779S11700918EA0211502194000000015000
B0428463128718S11700878EA0211702197000000015000
B0428503128662S11700907EA0212502207000000015000
B0428543128666S11700972EA0213502213000000015000
B0428583128718S11701007EA0213402212000000015000
B0429023128783S11700982EA0213702222000000015000
B0429063128787S11700905EA0215202240000000015000
B0429103128729S11700871EA0216102245000000015000
B0429143128681S11700907EA0216702252000000015000
B0429183128687S11700968EA0217102251000000015000
B0429223128737S11700994EA0217002253000000015000
B0429263128794S11700959EA0217202255000000015000
B0429303128823S11700888EA0217602257000000015000
B0429343128785S11700814EA0216802247000000015000
B0429383128710S11700784EA0216302246000000015000
B0429423128632S11700779EA0216102245000000015000
B0429463128553S11700782EA0215702236000000015000
B0429503128468S11700790EA0214802230000000015000
B0429543128382S11700801EA0215202242000000000000
B0429583128300S11700818EA0217302266000000000000
B0430023128245S11700865EA0220002293000000000000
B0430063128277S11700920EA0222002304000000000000
B0430103128339S11700899EA0222602309000000015000
B0430143128359S11700823EA0223702328000000015000
B0430183128330S11700756EA0225402341000000015000
B0430223128267S11700749EA0226202351000000015000
B0430263128248S11700804EA0227602365000000015000
B0430303128294S11700836EA0228502374000000015000
B0430343128341S11700793EA0230002391000000015000
B0430383128328S11700719EA0230702396000000015000
B0430423128265S11700697EA0231202406000000015000
B0430463128224S11700743EA0232302417000000015000
B0430503128248S11700795EA0233402428000000015000
B0430543128304S11700783EA0234402440000000015000
B0430583128325S11700717EA0236302458000000015000
B0431023128290S11700660EA0237002460000000015000
B0431063128225S11700658EA0236902461000000015000
B0431103128183S11700710EA0237602472000000015000
B0431143128195S11700771EA0238502481000000015000
B0431183128250S11700792EA0239302489000000015000
B0431223128298S11700744EA0240402502000000015000
B0431263128289S11700669EA0241802515000000015000
B0431303128232S11700628EA0242302517000000015000
B0431343128169S11700648EA0242902523000000015000
B0431383128141S11700705EA0243502528000000015000
B0431423128159S11700767EA0243802530000000015000
B0431463128213S11700795EA0244202539000000015000
B0431503128263S11700753EA0245202547000000015000
B0431543128269S11700679EA0245902554000000015000
B0431583128221S11700635EA0246402558000000015000
B0432023128156S11700639EA0246202550000000015000
B0432063128082S11700649EA0244802536000000015000
B0432103128000S11700660EA0243602529000000015000
B0432143127914S11700669EA0242402513000000015000
B0432183127823S11700676EA0240502495000000000000
B0432223127726S11700682EA0239302485000000000000
B0432263127628S11700684EA0238602481000000000000
B0432303127535S11700688EA0238402477000000000000
B0432343127439S11700695EA0237702468000000000000
B0432383127341S11700702EA0237102464000000000000
B0432423127247S11700712EA0237102466000000000000
B0432463127156S11700721EA0237102466000000000000
B0432503127068S11700732EA0237102462000000000000
B0432543126978S11700743EA0236402456000000000000
B0432583126891S11700754EA0236602463000000000000
B0433023126807S11700764EA0236702459000000000000
B0433063126720S11700773EA0235602447000000000000
B0433103126630S11700783EA0234902442000000000000
B0433143126540S11700792EA0234502436000000000000
B0433183126451S11700800EA0234202436000000000000
B0433223126363S11700806EA0234702444000000000000
B0433263126279S11700817EA0234902441000000000000
B0433303126193S11700827EA0234302435000000000000
B0433343126106S11700838EA0234002435000000000000
B0433383126020S11700849EA0233802431000000000000
B0433423125936S11700862EA0233002420000000000000
B0433463125849S11700878EA0231902406000000000000
B0433503125762S11700892EA0230702396000000000000
B0433543125674S11700908EA0230102392000000000000
B0433583125586S11700925EA0229602387000000000000
B0434023125502S11700944EA0229502389000000000000
B0434063125425S11700974EA0229302380000000000000
B0434103125344S11701003EA0227402359000000000000
B0434143125257S11701026EA0225802344000000000000
B0434183125167S11701043EA0224902340000000000000
B0434223125080S11701056EA0224902335000000000000
B0434263124995S11701068EA0224502332000000000000
B0434303124907S11701076EA0223402317000000000000
B0434343124820S11701083EA0222202302000000000000
B0434383124731S11701083EA0220902292000000000000
B0434423124642S11701085EA0219702277000000000000
B0434463124551S11701091EA0218202265000000000000
B0434503124462S11701102EA0217502260000000000000
B0434543124369S11701115EA0216402246000000000000
B0434583124276S11701135EA0215002233000000000000
B0435023124182S11701152EA0214502227000000000000
B0435063124087S11701160EA0214002222000000000000
B0435103123995S11701165EA0214402238000000000000
B0435143123909S11701165EA0216102253000000000000
B0435183123825S11701167EA0215902241000000000000
B0435223123736S11701168EA0214402224000000000000
B0435263123643S11701177EA0213002216000000000000
B0435303123553S11701193EA0213502229000000000000
B0435343123466S11701204EA0213502221000000000000
B0435383123376S11701213EA0212402205000000000000
B0435423123284S11701219EA0211102193000000000000
B0435463123189S11701222EA0209902183000000000000
B0435503123094S11701222EA0209702185000000000000
B0435543123004S11701224EA0209602180000000000000
B0435583122916S11701221EA0208802170000000000000
B0436023122829S11701222EA0208002159000000000000
B0436063122740S11701224EA0206802150000000000000
B0436103122655S11701226EA0206002142000000000000
B0436143122571S11701228EA0205602138000000000000
B0436183122492S11701232EA0205402136000000000000
B0436223122415S11701237EA0204902129000000000000
B0436263122336S11701241EA0204002117000000000000
B0436303122257S11701247EA0202602104000000000000
B0436343122175S11701258EA0201402092000000000000
B0436383122094S11701274EA0200702086000000000000
B0436423122016S11701293EA0200202082000000000000
B0436463121938S11701310EA0199902078000000000000
B0436503121860S11701321EA0199402072000000000000
B0436543121780S11701330EA0198302060000000000000
B0436583121696S11701338EA0197202048000000000000
B0437023121612S11701346EA0195802034000000000000
B0437063121526S11701358EA0194602022000000000000
B0437103121443S11701375EA0193702012000000000000
B0437143121361S11701398EA0192702002000000000000
B0437183121279S11701423EA0191701988000000000000
B0437223121193S11701447EA0189901967000000000000
B0437263121106S11701473EA0188801961000000000000
B0437303121022S11701510EA0188601961000000000000
B0437343120945S11701555EA0188501959000000000000
B0437383120871S11701609EA0188101951000000000000
B0437423120798S11701667EA0186601933000000000000
B0437463120720S11701726EA0185001920000000000000
B0437503120642S11701783EA0184701919000000000000
B0437543120571S11701843EA0184501917000000000000
B0437583120503S11701904EA0184201914000000000000
B0438023120439S11701967EA0183801910000000000000
B0438063120382S11702032EA0184001913000000000000
B0438103120326S11702096EA0183301899000000000000
B0438143120269S11702165EA0182401892000000000000
B0438183120205S11702233EA0181501878000000000000
B0438223120123S11702287EA0179801864000000000000
B0438263120034S11702329EA0179501868000000000000
B0438303119944S11702360EA0179701866000000000000
B0438343119854S11702387EA0178601852000000000000
B0438383119763S11702413EA0177901849000000000000
B0438423119672S11702434EA0178201856000000000000
B0438463119581S11702447EA0178701855000000000000
B0438503119488S11702456EA0178101848000000000000
B0438543119392S11702460EA0177501843000000000000
B0438583119294S11702461EA0177601846000000000000
B0439023119212S11702496EA0177901847000000000000
B0439063119186S11702577EA0178201852000000000000
B0439103119223S11702633EA0178701857000000000000
B0439143119284S11702641EA0178401851000000015000
B0439183119350S11702633EA0177701844000000015000
B0439223119411S11702591EA0177201840000000015000
B0439263119454S11702520EA0177301846000000015000
B0439303119463S11702435EA0177901850000000015000
B0439343119425S11702361EA0177801845000000015000
B0439383119367S11702298EA0177301839000000015000
B0439423119301S11702239EA0176701833000000000000
B0439463119229S11702192EA0176601836000000000000
B0439503119163S11702147EA0176501829000000000000
B0439543119094S11702103EA0174601803000000000000
B0439583119013S11702086EA0172901794000000000000
B0440023118935S11702097EA0173001802000000000000
B0440063118901S11702148EA0175601832000000000000
B0440103118951S11702155EA0177701845000000000000
B0440143118977S11702086EA0176901826000000015000
B0440183118946S11702004EA0176201832000000015000
B0440223118895S11702002EA0177901852000000015000
B0440263118907S11702053EA0178801859000000015000
B0440303118965S11702035EA0179701866000000015000
B0440343118978S11701960EA0180501877000000015000
B0440383118937S11701909EA0181201883000000015000
B0440423118887S11701914EA0181501883000000015000
B0440463118860S11701965EA0181201880000000015000
B0440503118883S11702022EA0181301882000000015000
B0440543118947S11701996EA0181501882000000015000
B0440583118946S11701905EA0181601889000000015000
B0441023118899S11701830EA0181901888000000015000
B0441063118843S11701762EA0181601884000000015000
B0441103118775S11701706EA0181201876000000000000
B0441143118690S11701675EA0179801865000000000000
B0441183118599S11701654EA0179001860000000000000
B0441223118510S11701637EA0180201871000000000000
B0441263118422S11701625EA0179301853000000000000
B0441303118331S11701611EA0178001838000000000000
B0441343118240S11701594EA0176301820000000000000
B0441383118147S11701575EA0174501800000000000000
B0441423118054S11701559EA0172501784000000000000
B0441463117959S11701546EA0171101769000000000000
B0441503117864S11701537EA0170101765000000000000
B0441543117773S11701528EA0169401752000000000000
B0441583117679S11701524EA0167401731000000000000
B0442023117583S11701523EA0166201716000000000000
B0442063117486S11701523EA0164801704000000000000
B0442103117390S11701523EA0163701695000000000000
B0442143117293S11701524EA0163601698000000000000
B0442183117202S11701529EA0163601696000000000000
B0442223117113S11701532EA0163401694000000000000
B0442263117026S11701528EA0163101689000000000000
B0442303116945S11701538EA0164401715000000000000
B0442343116899S11701596EA0166801734000000000000
B0442383116925S11701658EA0168301750000000000000
B0442423116983S11701651EA0169201757000000015000
B0442463117003S11701584EA0169301756000000015000
B0442503116968S11701521EA0169201756000000015000
B0442543116910S11701485EA0169201759000000015000
B0442583116847S11701458EA0170101770000000000000
B0443023116805S11701507EA0171301779000000000000
B0443063116851S11701547EA0171901784000000015000
B0443103116907S11701501EA0171901784000000015000
B0443143116907S11701420EA0172101788000000015000
B0443183116870S11701355EA0172901800000000015000
B0443223116808S11701355EA0174501817000000015000
B0443263116803S11701416EA0175301819000000015000
B0443303116860S11701427EA0175001814000000015000
B0443343116898S11701369EA0175601826000000015000
B0443383116893S11701302EA0176201828000000015000
B0443423116838S11701254EA0176601837000000015000
B0443463116775S11701255EA0177901848000000015000
B0443503116767S11701317EA0178301850000000015000
B0443543116821S11701334EA0178501854000000015000
B0443583116860S11701281EA0178801863000000015000
B0444023116846S11701208EA0180101880000000015000
B0444063116786S11701195EA0181701892000000015000
B0444103116767S11701251EA0182301891000000015000
B0444143116818S11701278EA0182001890000000015000
B0444183116870S11701237EA0182401898000000015000
B0444223116870S11701167EA0183701914000000015000
B0444263116808S11701161EA0184801923000000015000
B0444303116789S11701225EA0185801931000000015000
B0444343116840S11701255EA0185901931000000015000
B0444383116894S11701217EA0186401939000000015000
B0444423116897S11701141EA0187001945000000015000
B0444463116838S11701098EA0187501950000000015000
B0444503116772S11701125EA0188301959000000015000
B0444543116768S11701195EA0189201966000000015000
B0444583116827S11701217EA0189101964000000015000
B0445023116867S11701160EA0189601975000000015000
B0445063116844S11701091EA0190701987000000015000
B0445103116786S11701059EA0191601996000000015000
B0445143116724S11701040EA0192402002000000015000
B0445183116658S11701031EA0192301996000000000000
B0445223116582S11701034EA0190901979000000000000
B0445263116498S11701042EA0189801973000000000000
B0445303116411S11701057EA0189901976000000000000
B0445343116330S11701081EA0191802000000000000000
B0445383116301S11701146EA0194002021000000000000
B0445423116353S11701169EA0196102045000000015000
B0445463116390S11701111EA0197302053000000015000
B0445503116372S11701040EA0197902063000000015000
B0445543116313S11701016EA0198902073000000015000
B0445583116268S11701057EA0199502075000000015000
B0446023116286S11701117EA0200302090000000015000
B0446063116343S11701107EA0201902105000000015000
B0446103116363S11701035EA0203102118000000015000
B0446143116326S11700978EA0204102127000000015000
B0446183116266S11700968EA0204702131000000015000
B0446223116218S11701005EA0205402140000000015000
B0446263116210S11701066EA0206102144000000015000
B0446303116252S11701103EA0206302144000000000000
B0446343116311S11701073EA0206402147000000015000
B0446383116327S11700994EA0207102161000000015000
B0446423116279S11700939EA0208002166000000015000
B0446463116214S11700951EA0208102167000000015000
B0446503116178S11701011EA0208702175000000000000
B0446543116195S11701069EA0209602183000000000000
B0446583116246S11701099EA0210002183000000000000
B0447023116308S11701077EA0210102183000000015000
B0447063116339S11700996EA0210302189000000015000
B0447103116329S11700908EA0210902199000000015000
B0447143116290S11700834EA0211502199000000000000
B0447183116217S11700808EA0210902190000000000000
B0447223116135S11700818EA0210102185000000000000
B0447263116054S11700844EA0210302190000000000000
B0447303115971S11700874EA0210402188000000000000
B0447343115887S11700908EA0209602180000000000000
B0447383115797S11700940EA0210002188000000000000
B0447423115713S11700970EA0212002212000000000000
B0447463115636S11701004EA0213702235000000000000
B0447503115599S11701072EA0216502265000000000000
B0447543115637S11701120EA0218902283000000000000
B0447583115689S11701095EA0220002292000000000000
B0448023115706S11701027EA0221302308000000000000
B0448063115674S11700966EA0222502317000000000000
B0448103115607S11700949EA0223502328000000000000
B0448143115544S11700983EA0224302335000000000000
B0448183115514S11701057EA0225302348000000000000
B0448223115541S11701124EA0227002369000000000000
B0448263115601S11701129EA0228602387000000000000
B0448303115631S11701070EA0230102404000000015000
B0448343115597S11701013EA0231602420000000015000
B0448383115533S11701020EA0233002429000000015000
B0448423115499S11701082EA0233902440000000000000
B0448463115521S11701144EA0235502460000000000000
B0448503115576S11701152EA0237402479000000015000
B0448543115612S11701099EA0238902489000000015000
B0448583115586S11701033EA0239502499000000015000
B0449023115518S11701026EA0240402511000000015000
B0449063115475S11701082EA0241702526000000015000
B0449103115486S11701147EA0243402544000000015000
B0449143115538S11701160EA0244802553000000015000
B0449183115563S11701100EA0245502559000000015000
B0449223115521S11701042EA0246302570000000015000
B0449263115453S11701048EA0247202575000000015000
B0449303115420S11701118EA0247702582000000015000
B0449343115450S11701180EA0248902599000000015000
B0449383115506S11701186EA0250102609000000015000
B0449423115541S11701137EA0251102625000000015000
B0449463115518S11701073EA0252602638000000015000
B0449503115456S11701060EA0253402643000000015000
B0449543115407S11701111EA0253702641000000015000
B0449583115406S11701187EA0254002652000000000000
B0450023115443S11701243EA0255102660000000000000
B0450063115501S11701256EA0255402661000000015000
B0450103115554S11701225EA0255702668000000015000
B0450143115588S11701163EA0257002682000000015000
B0450183115567S11701098EA0258402696000000015000
B0450223115507S11701105EA0259602708000000015000
B0450263115497S11701176EA0260502724000000015000
B0450303115544S11701219EA0262102739000000015000
B0450343115597S11701194EA0263502750000000015000
B0450383115605S11701129EA0264302757000000015000
B0450423115551S11701096EA0264902763000000015000
B0450463115493S11701131EA0265702776000000015000
B0450503115477S11701203EA0267502793000000000000
B0450543115511S11701261EA0268702802000000000000
B0450583115571S11701268EA0269302806000000015000
B0451023115609S11701211EA0269602809000000015000
B0451063115586S11701146EA0270202818000000015000
B0451103115528S11701143EA0271002826000000015000
B0451143115484S11701199EA0271802832000000015000
B0451183115492S11701272EA0273102851000000000000
B0451223115542S11701308EA0274702862000000015000
B0451263115597S11701289EA0274902861000000015000
B0451303115616S11701225EA0274702857000000015000
B0451343115570S11701173EA0273302842000000015000
B0451383115493S11701172EA0272702844000000015000
B0451423115414S11701190EA0272902844000000000000
B0451463115329S11701216EA0272502835000000000000
B0451503115238S11701246EA0271202822000000000000
B0451543115146S11701277EA0270302818000000000000
B0451583115059S11701307EA0270802824000000000000
B0452023114973S11701334EA0270602815000000000000
B0452063114883S11701363EA0269202799000000000000
B0452103114791S11701391EA0267502783000000000000
B0452143114699S11701417EA0266402776000000000000
B0452183114608S11701445EA0266402776000000000000
B0452223114520S11701471EA0265802766000000000000
B0452263114431S11701499EA0264802754000000000000
B0452303114340S11701528EA0264102753000000000000
B0452343114251S11701559EA0264002753000000000000
B0452383114166S11701588EA0264402754000000000000
B0452423114084S11701618EA0264002751000000000000
B0452463114002S11701648EA0263602746000000000000
B0452503113920S11701676EA0263302742000000000000
B0452543113838S11701702EA0262802736000000000000
B0452583113757S11701726EA0262402733000000000000
B0453023113677S11701741EA0262402732000000000000
B0453063113599S11701753EA0262102729000000000000
B0453103113521S11701767EA0261102713000000000000
B0453143113439S11701785EA0259502697000000000000
B0453183113356S11701802EA0258402690000000000000
B0453223113270S11701818EA0258002688000000000000
B0453263113185S11701835EA0257502681000000000000
B0453303113101S11701852EA0257402683000000000000
B0453343113019S11701869EA0257402679000000000000
B0453383112938S11701889EA0257302681000000000000
B0453423112859S11701909EA0257802689000000000000
B0453463112786S11701930EA0258902700000000000000
B0453503112715S11701945EA0259302698000000000000
B0453543112638S11701954EA0258602692000000000000
B0453583112557S11701960EA0258202690000000000000
B0454023112476S11701963EA0257902688000000000000
B0454063112394S11701970EA0257902687000000000000
B0454103112313S11701974EA0257802688000000000000
B0454143112234S11701969EA0258102690000000000000
B0454183112156S11701961EA0257802685000000000000
B0454223112074S11701957EA0256802670000000000000
B0454263111988S11701953EA0255302655000000000000
B0454303111900S11701945EA0254202645000000000000
B0454343111813S11701930EA0253402640000000000000
B0454383111727S11701909EA0253302640000000000000
B0454423111647S11701885EA0253402634000000000000
B0454463111566S11701865EA0252302624000000000000
B0454503111482S11701841EA0251302615000000000000
B0454543111399S11701817EA0250202599000000000000
B0454583111311S11701792EA0248802585000000000000
B0455023111222S11701774EA0247602576000000000000
B0455063111134S11701765EA0247102572000000000000
B0455103111047S11701770EA0246102558000000000000
B0455143110961S11701794EA0244702546000000000000
B0455183110880S11701836EA0243502533000000000000
B0455223110806S11701893EA0242102517000000000000
B0455263110731S11701957EA0240602501000000000000
B0455303110659S11702027EA0239602492000000000000
B0455343110591S11702100EA0238902488000000000000
B0455383110526S11702177EA0238102479000000000000
B0455423110463S11702255EA0237002467000000000000
B0455463110402S11702333EA0236602464000000000000
B0455503110344S11702409EA0236502467000000000000
B0455543110289S11702482EA0236502463000000000000
B0455583110236S11702558EA0236102460000000000000
B0456023110182S11702632EA0235802454000000000000
B0456063110126S11702704EA0235002443000000000000
B0456103110069S11702780EA0233502431000000000000
B0456143110012S11702859EA0232902425000000000000
B0456183109957S11702942EA0232502422000000000000
B0456223109903S11703027EA0232102417000000000000
B0456263109846S11703114EA0231602413000000000000
B0456303109791S11703204EA0231302407000000000000
B0456343109739S11703299EA0230302396000000000000
B0456383109686S11703392EA0229802394000000000000
B0456423109634S11703478EA0230002397000000000000
B0456463109583S11703560EA0229802392000000000000
B0456503109534S11703642EA0229402387000000000000
B0456543109489S11703725EA0228002370000000000000
B0456583109457S11703815EA0227802381000000000000
B0457023109430S11703903EA0229602402000000000000
B0457063109445S11703985EA0232202427000000000000
B0457103109513S11703988EA0234802453000000000000
B0457143109540S11703915EA0236402463000000000000
B0457183109510S11703846EA0237402476000000000000
B0457223109452S11703826EA0239302493000000000000
B0457263109400S11703858EA0240602512000000000000
B0457303109383S11703921EA0242302527000000000000
B0457343109417S11703975EA0243402538000000000000
B0457383109478S11703963EA0244802552000000015000
B0457423109510S11703895EA0245502558000000015000
B0457463109486S11703820EA0246102568000000015000
B0457503109424S11703796EA0247402585000000015000
B0457543109376S11703832EA0249302604000000015000
B0457583109357S11703891EA0250502611000000015000
B0458023109379S11703954EA0251002616000000000000
B0458063109439S11703975EA0252002630000000015000
B0458103109496S11703934EA0253302639000000015000
B0458143109504S11703856EA0254002648000000015000
B0458183109462S11703795EA0254502657000000015000
B0458223109398S11703786EA0255502668000000015000
B0458263109349S11703825EA0257002681000000000000
B0458303109331S11703893EA0257502679000000000000
B0458343109350S11703973EA0257102676000000000000
B0458383109384S11704055EA0257002675000000000000
B0458423109430S11704136EA0256402667000000000000
B0458463109479S11704219EA0254502641000000000000
B0458503109532S11704310EA0252502627000000000000
B0458543109587S11704400EA0251202610000000000000
B0458583109642S11704491EA0250002601000000000000
B0459023109695S11704579EA0250102606000000000000
B0459063109746S11704665EA0250402604000000000000
B0459103109799S11704755EA0249402590000000000000
B0459143109847S11704855EA0248502589000000000000
B0459183109889S11704950EA0250402616000000000000
B0459223109929S11705033EA0253202643000000000000
B0459263109993S11705060EA0256302676000000000000
B0459303110017S11704995EA0258902698000000000000
B0459343109969S11704948EA0260302714000000000000
B0459383109911S11704978EA0262202736000000000000
B0459423109895S11705048EA0263802749000000000000
B0459463109934S11705106EA0264902761000000000000
B0459503109995S11705109EA0265802767000000015000
B0459543110039S11705052EA0265702764000000015000
B0459583110032S11704972EA0265702769000000015000
B0500023109978S11704917EA0266502781000000015000
B0500063109907S11704909EA0267902800000000000000
B0500103109842S11704939EA0269802816000000000000
B0500143109804S11705008EA0271502834000000000000
B0500183109813S11705093EA0273002845000000000000
B0500223109870S11705135EA0274302862000000015000
B0500263109921S11705090EA0276002878000000015000
B0500303109902S11705015EA0277702896000000015000
B0500343109834S11705007EA0278802911000000015000
B0500383109794S11705074EA0280202925000000015000
B0500423109809S11705151EA0281802936000000000000
B0500463109869S11705189EA0282402942000000015000
B0500503109929S11705156EA0283302948000000015000
B0500543109943S11705081EA0283002941000000015000
B0500583109892S11705022EA0283102951000000015000
B0501023109825S11705048EA0284202962000000015000
B0501063109790S11705126EA0284702961000000000000
B0501103109792S11705225EA0283602945000000000000
B0501143109812S11705334EA0281602926000000000000
B0501183109840S11705451EA0281002926000000000000
B0501223109870S11705566EA0281302925000000000000
B0501263109903S11705679EA0280602915000000000000
B0501303109934S11705787EA0279402895000000000000
B0501343109965S11705899EA0276802873000000000000
B0501383109994S11706016EA0276002869000000000000
B0501423110022S11706133EA0275902870000000000000
B0501463110050S11706247EA0275902870000000000000
B0501503110076S11706360EA0276002871000000000000
B0501543110100S11706472EA0275602866000000000000
B0501583110126S11706584EA0274802859000000000000
B0502023110154S11706694EA0274402852000000000000
B0502063110181S11706806EA0273702845000000000000
B0502103110207S11706915EA0273402844000000000000
B0502143110233S11707019EA0273302845000000000000
B0502183110260S11707122EA0273202842000000000000
B0502223110288S11707223EA0272802836000000000000
B0502263110319S11707326EA0271802826000000000000
B0502303110353S11707429EA0270902817000000000000
B0502343110386S11707531EA0270302809000000000000
B0502383110420S11707634EA0269602801000000000000
B0502423110451S11707738EA0268202786000000000000
B0502463110479S11707845EA0267402782000000000000
B0502503110502S11707950EA0266802775000000000000
B0502543110527S11708055EA0266402772000000000000
B0502583110549S11708157EA0266402773000000000000
B0503023110570S11708255EA0265802765000000000000
B0503063110593S11708357EA0264602752000000000000
B0503103110615S11708462EA0263902744000000000000
B0503143110639S11708567EA0263202736000000000000
B0503183110663S11708670EA0262702731000000000000
B0503223110691S11708772EA0261502720000000000000
B0503263110723S11708869EA0261902730000000000000
B0503303110756S11708961EA0262602734000000000000
B0503343110793S11709058EA0262002724000000000000
B0503383110832S11709158EA0261602724000000000000
B0503423110874S11709258EA0261402715000000000000
B0503463110917S11709362EA0260702716000000000000
B0503503110961S11709459EA0261002710000000000000
B0503543111007S11709559EA0259402691000000000000
B0503583111055S11709661EA0257602674000000000000
B0504023111103S11709761EA0256702669000000000000
B0504063111150S11709860EA0256402665000000000000
B0504103111196S11709957EA0255802661000000000000
B0504143111243S11710053EA0255402659000000000000
B0504183111289S11710148EA0255102653000000000000
B0504223111328S11710246EA0254402641000000000000
B0504263111364S11710347EA0253302629000000000000
B0504303111402S11710451EA0251902615000000000000
B0504343111437S11710554EA0250802605000000000000
B0504383111467S11710659EA0250102598000000000000
B0504423111495S11710764EA0249502590000000000000
B0504463111525S11710870EA0248402579000000000000
B0504503111560S11710972EA0247702581000000000000
B0504543111594S11711073EA0248102582000000000000
B0504583111629S11711170EA0248202580000000000000
B0505023111664S11711269EA0247302568000000000000
B0505063111701S11711368EA0246502563000000000000
B0505103111740S11711466EA0246202561000000000000
B0505143111779S11711561EA0246202567000000000000
B0505183111819S11711647EA0247402578000000000000
B0505223111857S11711729EA0247602575000000000000
B0505263111894S11711814EA0247202568000000000000
B0505303111931S11711902EA0246302560000000000000
B0505343111970S11711992EA0245502549000000000000
B0505383112009S11712084EA0244102535000000000000
B0505423112050S11712178EA0242702519000000000000
B0505463112089S11712274EA0240902502000000000000
B0505503112130S11712371EA0239202483000000000000
B0505543112170S11712470EA0237902473000000000000
B0505583112206S11712570EA0237102465000000000000
B0506023112240S11712668EA0236502458000000000000
B0506063112274S11712765EA0235102440000000000000
B0506103112312S11712864EA0233402422000000000000
B0506143112351S11712965EA0232002411000000000000
B0506183112391S11713063EA0231402401000000000000
B0506223112426S11713167EA0229202375000000000000
B0506263112455S11713276EA0227502362000000000000
B0506303112483S11713383EA0226302347000000000000
B0506343112515S11713488EA0224302330000000000000
B0506383112547S11713593EA0223002312000000000000
B0506423112582S11713701EA0220902290000000000000
B0506463112616S11713813EA0219702279000000000000
B0506503112651S11713922EA0218602269000000000000
B0506543112685S11714031EA0217802261000000000000
B0506583112716S11714138EA0217002252000000000000
B0507023112752S11714245EA0215802237000000000000
B0507063112791S11714352EA0214302222000000000000
B0507103112829S11714459EA0213502218000000000000
B0507143112862S11714566EA0213302215000000000000
B0507183112894S11714671EA0212402201000000000000
B0507223112927S11714778EA0211402195000000000000
B0507263112963S11714882EA0210602183000000000000
B0507303112998S11714986EA0209602174000000000000
B0507343113032S11715091EA0208502161000000000000
B0507383113068S11715195EA0207502154000000000000
B0507423113106S11715295EA0207002147000000000000
B0507463113148S11715391EA0205902135000000000000
B0507503113189S11715489EA0204802121000000000000
B0507543113233S11715587EA0203302106000000000000
B0507583113276S11715689EA0201802090000000000000
B0508023113318S11715789EA0200702080000000000000
B0508063113357S11715889EA0199902077000000000000
B0508103113397S11715981EA0200902090000000000000
B0508143113436S11716071EA0202502111000000000000
B0508183113471S11716153EA0204602133000000000000
B0508223113505S11716232EA0205502132000000000000
B0508263113543S11716313EA0205102129000000000000
B0508303113584S11716397EA0204102116000000000000
B0508343113635S11716482EA0204102124000000000000
B0508383113686S11716566EA0204302119000000000000
B0508423113733S11716653EA0204002117000000000000
B0508463113778S11716743EA0203302107000000000000
B0508503113825S11716835EA0201902096000000000000
B0508543113873S11716926EA0201802097000000000000
B0508583113921S11717016EA0201502090000000000000
B0509023113972S11717107EA0201802100000000000000
B0509063114024S11717196EA0203402116000000000000
B0509103114073S11717281EA0204302124000000000000
B0509143114123S11717367EA0204302118000000000000
B0509183114176S11717452EA0204102119000000000000
B0509223114225S11717537EA0204102118000000000000
B0509263114271S11717627EA0203902119000000000000
B0509303114314S11717718EA0204002116000000000000
B0509343114358S11717808EA0203802114000000000000
B0509383114401S11717900EA0203302107000000000000
B0509423114441S11717996EA0201802090000000000000
B0509463114484S11718098EA0200502079000000000000
B0509503114528S11718197EA0200302078000000000000
B0509543114574S11718293EA0199202062000000000000
B0509583114619S11718393EA0197602046000000000000
B0510023114666S11718493EA0195902028000000000000
B0510063114712S11718592EA0194802018000000000000
B0510103114752S11718692EA0194202012000000000000
B0510143114791S11718792EA0193101999000000000000
B0510183114829S11718893EA0191401976000000000000
B0510223114865S11718996EA0189801971000000000000
B0510263114901S11719091EA0190501978000000000000
B0510303114936S11719186EA0190701982000000000000
B0510343114970S11719277EA0191101985000000000000
B0510383115007S11719367EA0191301986000000000000
B0510423115050S11719456EA0191201984000000000000
B0510463115091S11719541EA0191801994000000000000
B0510503115135S11719620EA0192902010000000000000
B0510543115178S11719686EA0194902023000000000000
B0510583115228S11719745EA0194902019000000000000
B0511023115286S11719794EA0194702019000000000000
B0511063115351S11719836EA0195002022000000000000
B0511103115420S11719828EA0196402042000000000000
B0511143115440S11719758EA0197602047000000000000
B0511183115385S11719708EA0197702052000000000000
B0511223115316S11719723EA0197502048000000000000
B0511263115260S11719783EA0197702053000000000000
B0511303115224S11719859EA0198502065000000000000
B0511343115211S11719944EA0199302075000000000000
B0511383115242S11720022EA0200102081000000000000
B0511423115300S11720014EA0201602100000000000000
B0511463115302S11719944EA0202202095000000000000
B0511503115247S11719900EA0201702099000000015000
B0511543115181S11719916EA0202702112000000000000
B0511583115129S11719971EA0204202129000000000000
B0512023115131S11720048EA0205902145000000000000
B0512063115187S11720078EA0207402161000000000000
B0512103115222S11720032EA0209002176000000015000
B0512143115199S11719975EA0210002183000000015000
B0512183115138S11719958EA0210702195000000015000
B0512223115079S11719996EA0211902211000000000000
B0512263115057S11720069EA0213602225000000000000
B0512303115085S11720137EA0214602235000000000000
B0512343115143S11720160EA0215802249000000015000
B0512383115186S11720119EA0217302264000000015000
B0512423115180S11720057EA0217902268000000015000
B0512463115126S11720018EA0218402273000000015000
B0512503115061S11720045EA0219602291000000015000
B0512543115040S11720119EA0221302307000000015000
B0512583115078S11720178EA0222302321000000015000
B0513023115133S11720170EA0223802336000000015000
B0513063115148S11720111EA0225002347000000015000
B0513103115111S11720059EA0225702350000000015000
B0513143115044S11720049EA0226602368000000015000
B0513183114988S11720093EA0228302385000000015000
B0513223114981S11720171EA0229902398000000015000
B0513263115030S11720219EA0230802405000000015000
B0513303115089S11720196EA0231802417000000015000
B0513343115104S11720131EA0233002426000000015000
B0513383115066S11720072EA0233202428000000015000
B0513423114995S11720062EA0234002445000000000000
B0513463114948S11720122EA0236502478000000000000
B0513503114966S11720191EA0239002496000000000000
B0513543115021S11720200EA0240202505000000015000
B0513583115051S11720148EA0241202512000000015000
B0514023115025S11720084EA0242002520000000015000
B0514063114956S11720066EA0242902536000000000000
B0514103114890S11720104EA0244402548000000000000
B0514143114861S11720182EA0245502563000000000000
B0514183114881S11720262EA0246702573000000000000
B0514223114940S11720299EA0247602583000000000000
B0514263115000S11720267EA0248402586000000015000
B0514303115014S11720191EA0248602588000000015000
B0514343114962S11720132EA0249202605000000015000
B0514383114887S11720136EA0251702631000000015000
B0514423114831S11720187EA0253802650000000000000
B0514463114813S11720267EA0254902656000000000000
B0514503114845S11720345EA0255302661000000000000
B0514543114910S11720386EA0255802666000000000000
B0514583114987S11720405EA0255202650000000000000
B0515023115070S11720417EA0254702652000000000000
B0515063115155S11720425EA0253802636000000000000
B0515103115245S11720423EA0252302623000000000000
B0515143115334S11720417EA0252002628000000000000
B0515183115423S11720408EA0252202627000000000000
B0515223115511S11720401EA0252002625000000000000
B0515263115601S11720394EA0251502619000000000000
B0515303115692S11720386EA0251402616000000000000
B0515343115780S11720362EA0251802625000000000000
B0515383115861S11720314EA0252402629000000000000
B0515423115945S11720267EA0252302622000000000000
B0515463116043S11720256EA0252202634000000000000
B0515503116132S11720261EA0253802652000000000000
B0515543116216S11720262EA0254902660000000000000
B0515583116294S11720290EA0254702641000000000000
B0516023116366S11720355EA0251502606000000000000
B0516063116425S11720448EA0249002591000000000000
B0516103116470S11720552EA0247802579000000000000
B0516143116509S11720660EA0246302561000000000000
B0516183116547S11720768EA0244702547000000000000
B0516223116585S11720873EA0244102542000000000000
B0516263116621S11720979EA0243402530000000000000
B0516303116655S11721085EA0242302516000000000000
B0516343116695S11721192EA0241902521000000000000
B0516383116736S11721296EA0241902519000000000000
B0516423116776S11721398EA0241302507000000000000
B0516463116818S11721504EA0239602493000000000000
B0516503116859S11721612EA0238702482000000000000
B0516543116897S11721722EA0238002477000000000000
B0516583116933S11721833EA0238002478000000000000
B0517023116970S11721943EA0238402485000000000000
B0517063117002S11722052EA0238802485000000000000
B0517103117040S11722162EA0237602467000000000000
B0517143117080S11722269EA0236402456000000000000
B0517183117122S11722380EA0234902440000000000000
B0517223117163S11722490EA0232902417000000000000
B0517263117208S11722606EA0230402394000000000000
B0517303117252S11722724EA0228802378000000000000
B0517343117297S11722839EA0228402371000000000000
B0517383117348S11722952EA0226902352000000000000
B0517423117399S11723065EA0225802345000000000000
B0517463117449S11723177EA0224902336000000000000
B0517503117496S11723291EA0223702319000000000000
B0517543117542S11723406EA0222002305000000000000
B0517583117585S11723519EA0221102298000000000000
B0518023117626S11723627EA0220902297000000000000
B0518063117663S11723732EA0220602294000000000000
B0518103117698S11723839EA0219902279000000000000
B0518143117730S11723949EA0218402266000000000000
B0518183117764S11724058EA0217202253000000000000
B0518223117800S11724169EA0215402233000000000000
B0518263117838S11724281EA0213802217000000000000
B0518303117878S11724391EA0212802209000000000000
B0518343117923S11724496EA0212102202000000000000
B0518383117969S11724602EA0211202195000000000000
B0518423118016S11724707EA0210702186000000000000
B0518463118063S11724810EA0209702175000000000000
B0518503118108S11724912EA0208502163000000000000
B0518543118155S11725014EA0207202148000000000000
B0518583118199S11725113EA0207302154000000000000
B0519023118244S11725207EA0207302153000000000000
B0519063118290S11725296EA0207102152000000000000
B0519103118337S11725382EA0207002150000000000000
B0519143118384S11725466EA0206502143000000000000
B0519183118432S11725553EA0205502130000000000000
B0519223118487S11725638EA0204502124000000000000
B0519263118543S11725718EA0205402137000000000000
B0519303118589S11725778EA0209702189000000000000
B0519343118641S11725791EA0213902222000000000000
B0519383118667S11725733EA0216002240000000000000
B0519423118630S11725672EA0217202252000000000000
B0519463118570S11725668EA0217702255000000000000
B0519503118530S11725714EA0217802258000000000000
B0519543118534S11725779EA0218802274000000000000
B0519583118569S11725829EA0220002285000000000000
B0520023118627S11725821EA0221202303000000015000
B0520063118651S11725755EA0223202326000000015000
B0520103118610S11725691EA0224702343000000015000
B0520143118545S11725675EA0225902348000000015000
B0520183118489S11725712EA0226202354000000015000
B0520223118459S11725782EA0226702352000000015000
B0520263118474S11725857EA0225702342000000015000
B0520303118522S11725921EA0224602331000000015000
B0520343118586S11725978EA0224002326000000000000
B0520383118664S11726015EA0224402333000000000000
B0520423118738S11725984EA0226602362000000000000
B0520463118781S11725908EA0228302374000000000000
B0520503118779S11725822EA0229302391000000015000
B0520543118716S11725815EA0231802417000000015000
B0520583118684S11725876EA0233202438000000015000
B0521023118708S11725933EA0235502457000000015000
B0521063118764S11725932EA0236702468000000015000
B0521103118795S11725864EA0238202483000000015000
B0521143118756S11725802EA0239302498000000015000
B0521183118696S11725808EA0241402522000000015000
B0521223118669S11725864EA0243502539000000015000
B0521263118690S11725925EA0244302543000000015000
B0521303118747S11725947EA0245002553000000015000
B0521343118803S11725906EA0246302570000000015000
B0521383118805S11725830EA0248402593000000015000
B0521423118749S11725800EA0250402609000000015000
B0521463118703S11725843EA0251502622000000015000
B0521503118713S11725908EA0252702636000000015000
B0521543118769S11725933EA0253902644000000015000
B0521583118822S11725893EA0254802656000000015000
B0522023118833S11725815EA0256002670000000015000
B0522063118790S11725748EA0257502686000000015000
B0522103118721S11725729EA0259002701000000015000
B0522143118665S11725768EA0260802726000000015000
B0522183118657S11725834EA0263302749000000015000
B0522223118695S11725881EA0264402753000000015000
B0522263118758S11725880EA0264402756000000015000
B0522303118796S11725816EA0265702778000000015000
B0522343118773S11725747EA0268002798000000015000
B0522383118712S11725720EA0269202807000000015000
B0522423118656S11725748EA0270602827000000015000
B0522463118648S11725812EA0272202838000000015000
B0522503118691S11725860EA0272802837000000015000
B0522543118760S11725860EA0272902843000000015000
B0522583118813S11725805EA0274102856000000015000
B0523023118810S11725726EA0276302886000000015000
B0523063118764S11725677EA0278002895000000015000
B0523103118699S11725682EA0278702905000000015000
B0523143118665S11725737EA0279602919000000015000
B0523183118674S11725800EA0280602920000000015000
B0523223118722S11725846EA0280202912000000000000
B0523263118791S11725860EA0280102917000000000000
B0523303118846S11725804EA0281002929000000000000
B0523343118848S11725720EA0282102940000000015000
B0523383118807S11725648EA0283102950000000015000
B0523423118740S11725621EA0283802954000000015000
B0523463118686S11725664EA0283502948000000015000
B0523503118671S11725748EA0282602932000000015000
B0523543118692S11725846EA0281402925000000015000
B0523583118734S11725942EA0280302910000000000000
B0524023118784S11726037EA0278802894000000000000
B0524063118840S11726132EA0277402881000000000000
B0524103118899S11726225EA0276802881000000000000
B0524143118957S11726315EA0277702894000000000000
