ACAM4N6
HFDTE030122
HFFXA050
HFPLTPILOT:JOHN WELSH              
HFGTYGLIDERTYPE:HORNET      
HFGIDGLIDERID:VH-GMY      
HFDTM100GPSDATUM:
HFRFWFIRMWAREVERSION:F2.6
HFRHWHARDWAREVERSION:300 Series Version 2
HFFTYFRTYPE:CAMBRIDGE AERO INSTRUMENTS, 302+
HFGPS:GARMIN,LVS-25,12,18000
HFPRSPRESSALTSENSOR:INTERSEMA, MS5534-AP, 20000
I033638FXA3941ENL4247REX
LCAMSBVER:5FWVER:F26300
C030122032037030122000102
C0000000N00000000WTAKEOFF     
C3207549S11656849EBEVAIR      
C3136216S11753732EDoodlakine  
C3111282S11701799EDowerin     
C3207549S11656849EBEVAIR      
C0000000N00000000WLANDING     
B0438523207341S11656860EA0023700206000000000000
B0438543207341S11656860EA0023700206000000000000
B0438563207341S11656860EA0023800206000000000000
B0438583207341S11656860EA0023800206000000000000
B0439003207341S11656860EA0023800206000000000000
B0439023207341S11656860EA0023800206000000000000
B0439043207341S11656860EA0023800206000000000000
B0439063207341S11656860EA0023800206000000000000
B0439083207341S11656860EA0023800206000000000000
B0439103207341S11656860EA0023900206000000000000
B0439123207341S11656860EA0023800206000000000000
B0439143207341S11656860EA0023900207000000000000
B0439163207341S11656860EA0023800207000000000000
B0439183207342S11656861EA0023900207000000000000
B0439203207345S11656862EA0023800207000000000000
B0439213207347S11656864EA0023800207000000000000
B0439253207367S11656880EA0023800206000000000000
B0439293207401S11656905EA0023800206000000000000
B0439333207447S11656936EA0024300206000000000000
B0439373207505S11656974EA0024400207000000000000
B0439413207570S11657014EA0024800212000000000000
B0439453207637S11657059EA0024900216000000000000
B0439493207702S11657103EA0026300235000000000000
B0439533207765S11657150EA0027400248000000000000
B0439573207830S11657198EA0028500260000000000000
B0440013207893S11657246EA0029800275000000000000
B0440053207961S11657293EA0030100278000000000000
B0440093208023S11657345EA0032600307000000000000
B0440123208066S11657387EA0034300326000000000000
B0440173208151S11657443EA0035200333000000000000
B0440213208227S11657439EA0036400347000000000000
B0440253208290S11657393EA0037600368000000000000
B0440293208325S11657315EA0039700383000000000000
B0440333208324S11657221EA0041100389000000000000
B0440373208291S11657129EA0041100391000000000000
B0440413208227S11657059EA0041800404000000000000
B0440453208144S11657025EA0043400424000000000000
B0440493208054S11657017EA0045200445000000000000
B0440533207967S11657025EA0047300468000000000000
B0440573207887S11657052EA0049800497000000000000
B0441013207833S11657127EA0052500520000000000000
B0441053207826S11657225EA0053400524000000000000
B0441093207865S11657308EA0053800532000000000000
B0441133207931S11657352EA0055600556000000000000
B0441173208008S11657363EA0057700572000000000000
B0441213208083S11657343EA0059000588000000000000
B0441253208131S11657281EA0060700609000000015000
B0441293208143S11657191EA0062000616000000015000
B0441333208123S11657095EA0062300617000000000000
B0441373208084S11657009EA0063700637000000000000
B0441413208039S11656932EA0066300668000000000000
B0441453207974S11656880EA0069300696000000000000
B0441493207911S11656908EA0071200713000000000000
B0441533207915S11656974EA0071900719000000000000
B0441573207967S11656979EA0072400721000000000000
B0442013208004S11656927EA0072300719000000000000
B0442053207979S11656865EA0072900732000000015000
B0442093207921S11656870EA0073700737000000015000
B0442133207896S11656932EA0074000740000000015000
B0442173207928S11656981EA0074200740000000000000
B0442213207979S11656966EA0074100740000000000000
B0442253208001S11656910EA0074500749000000015000
B0442293207966S11656860EA0075800760000000015000
B0442333207918S11656891EA0075700751000000015000
B0442373207944S11656948EA0074700745000000015000
B0442413207997S11656934EA0075100752000000015000
B0442453208027S11656875EA0076400769000000015000
B0442493208010S11656818EA0077400774000000015000
B0442533207952S11656804EA0077300774000000015000
B0442573207913S11656857EA0077700783000000015000
B0443013207934S11656909EA0078700791000000015000
B0443053207984S11656900EA0079300797000000015000
B0443093208013S11656841EA0080100806000000015000
B0443133207995S11656778EA0080100802000000015000
B0443173207937S11656743EA0079600795000000015000
B0443213207875S11656763EA0079500795000000000000
B0443253207849S11656828EA0079500799000000000000
B0443293207867S11656887EA0079900802000000000000
B0443333207919S11656906EA0080100808000000000000
B0443373207954S11656864EA0081200823000000015000
B0443413207910S11656823EA0081900815000000015000
B0443453207858S11656864EA0080900812000000015000
B0443493207870S11656927EA0082000833000000015000
B0443533207919S11656927EA0083100840000000015000
B0443573207936S11656865EA0083900849000000015000
B0444013207898S11656812EA0084200841000000015000
B0444053207835S11656812EA0083200834000000015000
B0444093207788S11656865EA0083300840000000000000
B0444133207794S11656929EA0083800843000000015000
B0444173207848S11656926EA0084000848000000015000
B0444213207866S11656856EA0084800856000000015000
B0444253207827S11656796EA0085000852000000015000
B0444293207759S11656799EA0084400848000000015000
B0444333207711S11656857EA0084600851000000000000
B0444373207710S11656930EA0084600849000000000000
B0444413207744S11656986EA0084800855000000000000
B0444453207801S11656991EA0085400862000000000000
B0444493207826S11656932EA0086600879000000000000
B0444533207772S11656899EA0088300895000000000000
B0444573207729S11656945EA0089300902000000000000
B0445013207753S11656996EA0090200913000000015000
B0445053207801S11656977EA0091000922000000015000
B0445093207800S11656906EA0092000933000000015000
B0445133207745S11656871EA0092900941000000015000
B0445163207700S11656891EA0093600946000000015000
B0445213207688S11656974EA0094100953000000015000
B0445253207735S11656996EA0095400970000000015000
B0445293207772S11656956EA0096300976000000015000
B0445333207761S11656888EA0097000982000000015000
B0445373207703S11656861EA0097600984000000015000
B0445413207649S11656899EA0097900992000000015000
B0445453207644S11656968EA0098701001000000015000
B0445493207688S11656992EA0099701013000000015000
B0445533207715S11656935EA0100201015000000015000
B0445573207672S11656880EA0101101030000000015000
B0446013207616S11656912EA0102001034000000015000
B0446053207619S11656974EA0102801047000000015000
B0446093207663S11656995EA0104001058000000015000
B0446133207703S11656960EA0104501058000000015000
B0446173207701S11656891EA0104501059000000015000
B0446213207648S11656856EA0104601059000000015000
B0446253207593S11656892EA0104201058000000015000
B0446293207588S11656958EA0104701067000000015000
B0446333207622S11657009EA0105201068000000015000
B0446373207679S11657009EA0105101072000000015000
B0446413207697S11656938EA0105801083000000015000
B0446453207646S11656882EA0106301089000000015000
B0446493207580S11656892EA0106601088000000015000
B0446533207542S11656951EA0106801091000000015000
B0446573207551S11657018EA0107301094000000015000
B0447013207599S11657057EA0107001091000000015000
B0447053207655S11657034EA0107701104000000015000
B0447093207653S11656964EA0109301117000000015000
B0447133207592S11656932EA0109701117000000015000
B0447173207536S11656969EA0109801118000000015000
B0447213207532S11657039EA0109701119000000015000
B0447253207575S11657081EA0109801123000000015000
B0447293207628S11657072EA0110601132000000015000
B0447333207649S11657007EA0111301137000000015000
B0447373207607S11656948EA0111501138000000015000
B0447413207540S11656952EA0111701144000000015000
B0447453207497S11657009EA0111801139000000015000
B0447493207510S11657081EA0111101133000000015000
B0447533207563S11657121EA0110701129000000015000
B0447573207622S11657101EA0111101142000000015000
B0448013207635S11657035EA0112201149000000015000
B0448053207584S11656986EA0112501150000000015000
B0448093207518S11656990EA0112801157000000015000
B0448133207477S11657046EA0113501162000000015000
B0448173207486S11657113EA0113501160000000015000
B0448213207537S11657142EA0113301158000000015000
B0448253207590S11657121EA0113501160000000015000
B0448293207625S11657066EA0113501158000000015000
B0448333207638S11656992EA0113601166000000000000
B0448373207629S11656918EA0114301169000000000000
B0448413207572S11656887EA0114501173000000000000
B0448453207514S11656913EA0114401169000000000000
B0448493207481S11656975EA0114101167000000000000
B0448533207492S11657044EA0114201168000000015000
B0448573207534S11657087EA0114401171000000015000
B0449013207589S11657113EA0114701175000000000000
B0449053207649S11657134EA0114801177000000000000
B0449093207710S11657140EA0115701190000000000000
B0449133207737S11657086EA0116401191000000000000
B0449173207700S11657034EA0116201185000000000000
B0449213207636S11657043EA0115501179000000000000
B0449253207579S11657087EA0116001190000000000000
B0449293207576S11657157EA0117201198000000000000
B0449333207632S11657174EA0117501201000000000000
B0449373207663S11657121EA0119001221000000015000
B0449413207645S11657057EA0120001224000000015000
B0449453207585S11657036EA0120201230000000015000
B0449493207537S11657086EA0121401245000000015000
B0449533207554S11657151EA0122101248000000015000
B0449573207611S11657157EA0122201252000000015000
B0450013207644S11657099EA0123301270000000015000
B0450053207618S11657039EA0124601276000000015000
B0450093207555S11657042EA0124801278000000015000
B0450133207532S11657111EA0125601294000000015000
B0450173207568S11657163EA0127001302000000015000
B0450213207622S11657143EA0127901317000000015000
B0450253207629S11657082EA0129201326000000015000
B0450293207588S11657044EA0129301324000000015000
B0450333207527S11657057EA0128701318000000015000
B0450373207490S11657122EA0128801327000000015000
B0450413207497S11657194EA0130101338000000015000
B0450453207544S11657233EA0130301338000000015000
B0450493207597S11657213EA0130901346000000015000
B0450533207618S11657155EA0131401348000000015000
B0450573207590S11657099EA0131601349000000015000
B0451013207533S11657090EA0131201341000000015000
B0451053207481S11657135EA0131001346000000015000
B0451093207466S11657208EA0131701353000000015000
B0451133207494S11657269EA0132001353000000015000
B0451173207553S11657278EA0132001356000000015000
B0451213207594S11657230EA0132201360000000015000
B0451253207590S11657165EA0132601361000000015000
B0451293207544S11657126EA0132601358000000015000
B0451333207485S11657137EA0132101352000000015000
B0451373207446S11657198EA0132101358000000015000
B0451413207450S11657272EA0132301357000000015000
B0451453207493S11657328EA0132001353000000015000
B0451493207558S11657335EA0131601349000000015000
B0451533207592S11657281EA0132001356000000015000
B0451573207577S11657211EA0131701344000000015000
B0452013207520S11657173EA0130801339000000015000
B0452053207456S11657195EA0130601340000000015000
B0452093207424S11657264EA0130901342000000015000
B0452133207436S11657339EA0130601335000000015000
B0452173207479S11657399EA0130101331000000015000
B0452213207533S11657441EA0129801330000000000000
B0452253207594S11657459EA0129601330000000000000
B0452293207654S11657463EA0129601331000000000000
B0452333207713S11657450EA0129601332000000000000
B0452373207770S11657430EA0129401324000000000000
B0452413207831S11657412EA0128701319000000000000
B0452453207893S11657411EA0128201316000000000000
B0452493207953S11657423EA0127901309000000000000
B0452533208017S11657423EA0126601293000000000000
B0452573208074S11657389EA0125501286000000000000
B0453013208117S11657330EA0125001279000000000000
B0453053208143S11657257EA0124301274000000000000
B0453093208156S11657179EA0124001268000000000000
B0453133208149S11657099EA0123201257000000000000
B0453173208113S11657021EA0122101249000000000000
B0453213208057S11656957EA0121901247000000000000
B0453253207987S11656913EA0121701245000000000000
B0453293207905S11656900EA0121401242000000000000
B0453333207824S11656901EA0121401244000000000000
B0453373207746S11656900EA0121401242000000000000
B0453413207670S11656892EA0121101237000000000000
B0453453207593S11656879EA0120701232000000000000
B0453493207524S11656851EA0120401229000000000000
B0453533207453S11656851EA0119901227000000000000
B0453573207390S11656887EA0119801224000000000000
B0454013207343S11656947EA0119201217000000000000
B0454053207317S11657021EA0118701214000000000000
B0454093207297S11657099EA0118601213000000000000
B0454133207281S11657178EA0118601213000000000000
B0454173207276S11657257EA0118501213000000000000
B0454213207282S11657330EA0118701214000000000000
B0454253207306S11657391EA0118301210000000000000
B0454293207332S11657450EA0117801206000000000000
B0454333207350S11657512EA0117301199000000000000
B0454373207346S11657585EA0116301188000000000000
B0454413207319S11657659EA0115501181000000000000
B0454453207277S11657727EA0115101178000000000000
B0454493207229S11657788EA0114701172000000000000
B0454533207174S11657846EA0114301167000000000000
B0454573207124S11657909EA0113701159000000000000
B0455013207078S11657979EA0112901151000000000000
B0455053207030S11658048EA0112101143000000000000
B0455093206983S11658117EA0111801141000000000000
B0455133206936S11658187EA0111501135000000000000
B0455173206895S11658264EA0110401122000000000000
B0455213206856S11658348EA0109001109000000000000
B0455253206821S11658435EA0108201100000000000000
B0455293206786S11658524EA0107501093000000000000
B0455333206757S11658613EA0107401098000000000000
B0455373206732S11658700EA0107601095000000000000
B0455413206706S11658786EA0106801084000000000000
B0455453206679S11658875EA0105901078000000000000
B0455493206648S11658959EA0105601075000000000000
B0455533206618S11659040EA0105401073000000000000
B0455573206588S11659120EA0104901067000000000000
B0456013206561S11659201EA0104201058000000000000
B0456053206530S11659282EA0103401049000000000000
B0456093206496S11659361EA0102601040000000000000
B0456133206455S11659438EA0101701029000000000000
B0456173206411S11659510EA0100701020000000000000
B0456213206368S11659584EA0100001015000000000000
B0456253206323S11659656EA0100301020000000000000
B0456293206281S11659729EA0101001027000000000000
B0456333206288S11659808EA0101501037000000000000
B0456373206332S11659850EA0102801051000000000000
B0456413206366S11659816EA0103901059000000000000
B0456453206342S11659759EA0104201058000000015000
B0456493206280S11659748EA0104301062000000015000
B0456533206229S11659798EA0104701065000000000000
B0456573206220S11659870EA0105501072000000015000
B0457013206253S11659922EA0105701073000000015000
B0457053206296S11659902EA0106201079000000015000
B0457093206286S11659842EA0106501081000000015000
B0457133206227S11659817EA0106201077000000015000
B0457173206167S11659855EA0106501086000000015000
B0457213206158S11659926EA0107101083000000015000
B0457253206195S11659981EA0106701084000000015000
B0457293206245S11700011EA0107001091000000000000
B0457333206289S11659986EA0108001102000000015000
B0457373206255S11659932EA0108101091000000015000
B0457413206184S11659958EA0107801105000000015000
B0457453206169S11700034EA0109001109000000015000
B0457493206208S11700086EA0109201113000000015000
B0457533206262S11700091EA0110101122000000015000
B0457573206273S11700037EA0111201136000000015000
B0458013206224S11700004EA0112201143000000015000
B0458053206166S11700026EA0112401142000000015000
B0458093206132S11700094EA0112201143000000015000
B0458133206138S11700167EA0112801153000000015000
B0458173206176S11700212EA0113001156000000015000
B0458213206221S11700211EA0113701164000000015000
B0458253206245S11700167EA0114201167000000015000
B0458293206227S11700110EA0114301166000000015000
B0458333206172S11700076EA0114701174000000015000
B0458373206107S11700090EA0115601183000000015000
B0458413206059S11700149EA0115701180000000015000
B0458453206056S11700229EA0115801187000000015000
B0458493206093S11700281EA0116701193000000015000
B0458533206141S11700281EA0117101197000000015000
B0458573206167S11700240EA0117401200000000015000
B0459013206156S11700179EA0117101198000000015000
B0459053206103S11700133EA0117201204000000015000
B0459093206038S11700117EA0118301208000000015000
B0459133205978S11700171EA0117801202000000000000
B0459173205976S11700251EA0118101208000000015000
B0459213206020S11700301EA0118501212000000015000
B0459253206068S11700293EA0118801214000000015000
B0459293206063S11700225EA0118901218000000015000
B0459333205997S11700202EA0119901230000000015000
B0459373205938S11700255EA0120601234000000015000
B0459413205937S11700338EA0120801237000000015000
B0459453205984S11700384EA0121201241000000015000
B0459493206033S11700366EA0121401241000000015000
B0459533206046S11700303EA0121201240000000015000
B0459573206011S11700240EA0121201240000000015000
B0500013205943S11700245EA0122301256000000015000
B0500053205926S11700325EA0122801256000000015000
B0500093205973S11700372EA0123301265000000015000
B0500133206015S11700340EA0124201274000000015000
B0500173206006S11700273EA0124301272000000015000
B0500213205947S11700231EA0124301275000000015000
B0500253205874S11700240EA0124701277000000015000
B0500293205820S11700301EA0125001284000000015000
B0500333205813S11700388EA0125901293000000015000
B0500373205852S11700446EA0126601299000000015000
B0500413205904S11700441EA0127101306000000015000
B0500453205926S11700394EA0128101311000000015000
B0500493205906S11700337EA0128101308000000015000
B0500533205850S11700298EA0128101314000000015000
B0500573205779S11700296EA0128701321000000000000
B0501013205730S11700350EA0129701333000000000000
B0501053205716S11700426EA0130101333000000000000
B0501093205742S11700494EA0129801331000000000000
B0501133205790S11700527EA0130101336000000000000
B0501173205828S11700498EA0130201337000000015000
B0501213205825S11700442EA0130201338000000015000
B0501253205787S11700392EA0130201337000000000000
B0501293205726S11700371EA0129501325000000000000
B0501333205655S11700407EA0129201331000000000000
B0501373205595S11700463EA0129801335000000000000
B0501413205543S11700533EA0130001337000000000000
B0501453205516S11700611EA0130501340000000000000
B0501493205549S11700675EA0130001331000000000000
B0501533205605S11700662EA0129601333000000000000
B0501573205618S11700609EA0130201338000000015000
B0502013205571S11700569EA0130301340000000015000
B0502053205501S11700574EA0130401335000000015000
B0502093205430S11700609EA0129601328000000000000
B0502133205360S11700657EA0128901320000000000000
B0502173205292S11700712EA0128101312000000000000
B0502213205223S11700770EA0127501305000000000000
B0502253205153S11700829EA0127101302000000000000
B0502293205085S11700887EA0126801302000000000000
B0502333205018S11700943EA0126901300000000000000
B0502373204953S11701005EA0126001290000000000000
B0502413204889S11701070EA0125501286000000000000
B0502453204828S11701134EA0125201284000000000000
B0502493204768S11701194EA0125201284000000000000
B0502533204712S11701254EA0124901279000000000000
B0502573204658S11701313EA0124201271000000000000
B0503013204599S11701372EA0123101258000000000000
B0503053204538S11701429EA0122001249000000000000
B0503093204476S11701485EA0121401244000000000000
B0503133204416S11701541EA0121101239000000000000
B0503173204356S11701597EA0120801236000000000000
B0503213204299S11701655EA0120401230000000000000
B0503253204244S11701716EA0119501221000000000000
B0503293204192S11701781EA0118701213000000000000
B0503333204141S11701846EA0118101209000000000000
B0503373204092S11701906EA0117701203000000000000
B0503413204048S11701969EA0116601188000000000000
B0503453204009S11702039EA0115201176000000000000
B0503493203974S11702112EA0115001181000000000000
B0503533203941S11702182EA0115501181000000000000
B0503573203915S11702255EA0115201180000000000000
B0504013203917S11702327EA0115901190000000000000
B0504053203963S11702357EA0116601194000000000000
B0504093203995S11702308EA0116801195000000000000
B0504133203963S11702251EA0116901196000000015000
B0504173203901S11702236EA0116701192000000015000
B0504213203844S11702273EA0116401191000000000000
B0504253203806S11702338EA0116801195000000000000
B0504293203802S11702411EA0117101196000000000000
B0504333203842S11702457EA0117101199000000000000
B0504373203891S11702441EA0117301202000000000000
B0504413203910S11702378EA0117301200000000015000
B0504453203881S11702312EA0117301207000000015000
B0504493203831S11702264EA0118301213000000015000
B0504533203768S11702278EA0119401221000000000000
B0504573203755S11702347EA0119801223000000015000
B0505013203800S11702383EA0119401219000000015000
B0505053203846S11702352EA0119001215000000015000
B0505093203858S11702281EA0119001219000000015000
B0505133203835S11702210EA0119201217000000015000
B0505173203781S11702161EA0118701210000000015000
B0505213203712S11702149EA0117501197000000015000
B0505253203645S11702182EA0116601192000000015000
B0505293203590S11702239EA0116201189000000000000
B0505333203547S11702307EA0116201189000000000000
B0505373203508S11702381EA0116001188000000000000
B0505413203495S11702465EA0116601195000000000000
B0505453203517S11702541EA0117001197000000000000
B0505493203559S11702597EA0116801194000000000000
B0505533203615S11702629EA0116501191000000000000
B0505573203676S11702651EA0116101183000000000000
B0506013203741S11702669EA0115301177000000000000
B0506053203807S11702682EA0115101176000000000000
B0506093203872S11702688EA0116001187000000000000
B0506133203932S11702677EA0117001200000000000000
B0506173203989S11702655EA0118501213000000000000
B0506213204010S11702600EA0119401219000000000000
B0506253203965S11702561EA0119101212000000000000
B0506293203902S11702587EA0118101202000000000000
B0506333203875S11702662EA0118201209000000000000
B0506373203887S11702738EA0119001218000000000000
B0506413203936S11702773EA0120301228000000000000
B0506453203984S11702745EA0120701231000000015000
B0506493203975S11702675EA0120701227000000015000
B0506533203911S11702637EA0120201224000000015000
B0506573203844S11702667EA0120401227000000015000
B0507013203809S11702741EA0120801230000000015000
B0507053203827S11702821EA0121301241000000015000
B0507093203881S11702860EA0122001245000000015000
B0507133203936S11702833EA0122301251000000015000
B0507173203945S11702767EA0122801254000000015000
B0507213203909S11702708EA0123101256000000015000
B0507253203842S11702693EA0122801250000000015000
B0507293203780S11702737EA0122501249000000015000
B0507333203758S11702819EA0122901256000000000000
B0507373203774S11702898EA0123701267000000015000
B0507413203823S11702935EA0125201281000000015000
B0507453203859S11702894EA0125701282000000015000
B0507493203839S11702832EA0125601282000000015000
B0507533203777S11702801EA0125401280000000015000
B0507573203707S11702828EA0125501284000000015000
B0508013203666S11702897EA0126301295000000000000
B0508053203666S11702977EA0126701293000000000000
B0508093203711S11703027EA0127001299000000015000
B0508133203764S11703019EA0127501307000000015000
B0508173203787S11702970EA0128301312000000015000
B0508213203763S11702915EA0128701313000000015000
B0508253203699S11702901EA0128401308000000015000
B0508293203638S11702942EA0128601315000000000000
B0508333203611S11703018EA0128801312000000000000
B0508373203628S11703096EA0128701315000000000000
B0508413203668S11703146EA0128801315000000000000
B0508453203722S11703149EA0128501311000000000000
B0508493203767S11703113EA0128001306000000015000
B0508533203811S11703068EA0127401300000000000000
B0508573203853S11703015EA0126801296000000000000
B0509013203891S11702957EA0126701297000000000000
B0509053203913S11702888EA0128201314000000000000
B0509093203854S11702844EA0130101333000000000000
B0509133203796S11702886EA0130401330000000000000
B0509173203792S11702966EA0130301330000000000000
B0509213203831S11703020EA0130001328000000000000
B0509253203888S11703023EA0129901332000000000000
B0509293203937S11702989EA0130801340000000015000
B0509333203939S11702924EA0131701352000000015000
B0509373203878S11702897EA0132901363000000015000
B0509413203829S11702955EA0133301362000000000000
B0509453203850S11703026EA0133801373000000000000
B0509493203901S11703026EA0134601380000000015000
B0509533203926S11702970EA0134801380000000015000
B0509573203902S11702902EA0135701395000000015000
B0510013203836S11702879EA0136801404000000015000
B0510053203774S11702920EA0137101407000000015000
B0510093203749S11703000EA0137401408000000015000
B0510133203775S11703071EA0137601419000000015000
B0510173203828S11703093EA0138301418000000015000
B0510213203881S11703067EA0138201418000000015000
B0510253203906S11703001EA0138301420000000015000
B0510293203881S11702932EA0139001432000000015000
B0510333203816S11702945EA0140101438000000015000
B0510373203806S11703018EA0140401444000000015000
B0510413203848S11703062EA0141101448000000015000
B0510453203901S11703039EA0141301448000000015000
B0510493203918S11702970EA0141501452000000015000
B0510533203892S11702906EA0141501446000000015000
B0510573203832S11702875EA0140101429000000015000
B0511013203767S11702899EA0139101422000000015000
B0511053203716S11702961EA0138201413000000015000
B0511093203671S11703035EA0137801412000000000000
B0511133203627S11703113EA0137801415000000000000
B0511173203582S11703193EA0137701411000000000000
B0511213203536S11703275EA0137201404000000000000
B0511253203489S11703356EA0136501399000000000000
B0511293203442S11703438EA0136401398000000000000
B0511333203395S11703521EA0136201397000000000000
B0511373203350S11703603EA0136201398000000000000
B0511413203306S11703683EA0136301398000000000000
B0511453203265S11703768EA0135901390000000000000
B0511493203226S11703856EA0135101384000000000000
B0511533203185S11703945EA0134801382000000000000
B0511573203142S11704034EA0134001370000000000000
B0512013203098S11704125EA0133701369000000000000
B0512053203055S11704216EA0133301360000000000000
B0512093203012S11704310EA0132201350000000000000
B0512133202970S11704404EA0131901348000000000000
B0512173202929S11704497EA0131501341000000000000
B0512213202887S11704592EA0130701336000000000000
B0512253202848S11704684EA0130601337000000000000
B0512293202809S11704775EA0130901340000000000000
B0512333202770S11704864EA0131201341000000000000
B0512373202730S11704947EA0130901341000000000000
B0512413202689S11705029EA0130901337000000000000
B0512453202649S11705109EA0130601337000000000000
B0512493202607S11705191EA0130901343000000000000
B0512533202566S11705272EA0131701351000000000000
B0512573202537S11705355EA0132401357000000000000
B0513013202552S11705437EA0133501377000000000000
B0513053202607S11705453EA0135701397000000000000
B0513093202635S11705399EA0136301392000000000000
B0513133202596S11705349EA0136201397000000015000
B0513173202531S11705371EA0136601400000000015000
B0513213202503S11705451EA0137101409000000015000
B0513253202533S11705527EA0138101416000000015000
B0513293202594S11705551EA0138301417000000000000
B0513333202649S11705514EA0138601421000000015000
B0513373202652S11705447EA0138801422000000015000
B0513413202605S11705410EA0139001425000000015000
B0513453202544S11705432EA0139501434000000015000
B0513493202531S11705501EA0140701448000000015000
B0513533202576S11705535EA0141501450000000015000
B0513573202623S11705499EA0141001439000000015000
B0514013202613S11705428EA0140601442000000015000
B0514053202555S11705401EA0141001448000000015000
B0514093202497S11705437EA0141901455000000015000
B0514133202474S11705510EA0142401463000000015000
B0514173202507S11705575EA0143001469000000015000
B0514213202568S11705581EA0143101465000000000000
B0514253202618S11705533EA0142601458000000015000
B0514293202653S11705466EA0142401463000000015000
B0514333202648S11705394EA0142801468000000015000
B0514373202601S11705343EA0143001467000000015000
B0514413202536S11705342EA0143001467000000015000
B0514453202479S11705380EA0142701459000000015000
B0514493202431S11705441EA0141801455000000000000
B0514533202389S11705512EA0142301465000000000000
B0514573202358S11705585EA0143301475000000000000
B0515013202383S11705654EA0144501483000000000000
B0515053202441S11705650EA0145101493000000000000
B0515093202463S11705592EA0145701494000000000000
B0515133202433S11705535EA0145801495000000015000
B0515173202372S11705523EA0146001497000000015000
B0515213202314S11705559EA0145801493000000015000
B0515253202269S11705629EA0145001484000000000000
B0515293202230S11705709EA0144801488000000000000
B0515333202193S11705788EA0144901485000000000000
B0515373202154S11705870EA0144401482000000000000
B0515413202117S11705952EA0145001491000000000000
B0515453202110S11706031EA0145701495000000000000
B0515493202159S11706083EA0145501487000000000000
B0515533202227S11706082EA0144701484000000000000
B0515573202289S11706044EA0144501481000000000000
B0516013202347S11705995EA0144301480000000000000
B0516053202363S11705918EA0144601483000000000000
B0516093202325S11705850EA0144501479000000000000
B0516133202254S11705830EA0144501481000000015000
B0516173202184S11705865EA0144401483000000015000
B0516213202128S11705928EA0144001474000000000000
B0516253202078S11706006EA0143701475000000000000
B0516293202032S11706083EA0144201480000000000000
B0516333201989S11706164EA0143201466000000000000
B0516373201943S11706247EA0142001455000000000000
B0516413201895S11706331EA0141201444000000000000
B0516453201843S11706417EA0139901429000000000000
B0516493201788S11706503EA0138601416000000000000
B0516533201733S11706590EA0137401406000000000000
B0516573201677S11706677EA0137101401000000000000
B0517013201623S11706767EA0136201398000000000000
B0517053201577S11706858EA0136801405000000000000
B0517093201530S11706949EA0136601400000000000000
B0517133201483S11707040EA0136201395000000000000
B0517173201436S11707132EA0134901379000000000000
B0517213201388S11707227EA0134201374000000000000
B0517253201346S11707321EA0134001375000000000000
B0517293201304S11707413EA0133801369000000000000
B0517333201258S11707503EA0132801358000000000000
B0517373201209S11707590EA0131601343000000000000
B0517413201154S11707677EA0130401332000000000000
B0517453201094S11707761EA0129801328000000000000
B0517493201036S11707843EA0129401323000000000000
B0517533200981S11707927EA0128901316000000000000
B0517573200932S11708010EA0128701318000000000000
B0518013200885S11708092EA0129101321000000000000
B0518053200841S11708174EA0128901319000000000000
B0518093200795S11708257EA0128701316000000000000
B0518133200750S11708343EA0128101308000000000000
B0518173200703S11708430EA0127601304000000000000
B0518213200648S11708508EA0128801320000000000000
B0518253200655S11708586EA0131401348000000000000
B0518293200712S11708593EA0133001361000000000000
B0518333200729S11708531EA0133401363000000000000
B0518373200687S11708473EA0133101359000000015000
B0518413200616S11708461EA0132901363000000015000
B0518453200547S11708493EA0134001380000000015000
B0518493200542S11708567EA0136201402000000015000
B0518533200598S11708570EA0137601415000000015000
B0518573200613S11708504EA0138901429000000015000
B0519013200570S11708448EA0140101440000000015000
B0519053200501S11708453EA0141601458000000015000
B0519093200461S11708519EA0143301477000000015000
B0519133200473S11708597EA0144801488000000015000
B0519173200529S11708630EA0145901500000000015000
B0519213200578S11708591EA0147201515000000015000
B0519253200586S11708522EA0148001525000000015000
B0519293200544S11708465EA0148701533000000015000
B0519333200475S11708467EA0149801546000000015000
B0519373200433S11708530EA0150901556000000015000
B0519413200438S11708613EA0151301554000000015000
B0519453200494S11708662EA0151801567000000015000
B0519493200552S11708632EA0153201579000000015000
B0519533200564S11708561EA0154101586000000015000
B0519573200518S11708502EA0154701591000000015000
B0520013200449S11708512EA0155401602000000015000
B0520053200413S11708583EA0156101606000000015000
B0520093200427S11708668EA0156401608000000015000
B0520133200483S11708717EA0157101623000000015000
B0520173200547S11708707EA0158101629000000015000
B0520213200573S11708643EA0158701635000000015000
B0520253200546S11708577EA0158601632000000015000
B0520293200481S11708557EA0158701638000000015000
B0520333200417S11708593EA0159401643000000015000
B0520373200382S11708664EA0159601639000000015000
B0520413200394S11708751EA0158801636000000015000
B0520453200439S11708817EA0159301646000000015000
B0520493200498S11708814EA0160401654000000015000
B0520533200520S11708757EA0160701654000000015000
B0520573200490S11708696EA0160401650000000015000
B0521013200425S11708688EA0160101648000000015000
B0521053200364S11708735EA0159801646000000015000
B0521093200317S11708807EA0159501641000000000000
B0521133200275S11708886EA0159001637000000000000
B0521173200234S11708970EA0158301627000000000000
B0521213200189S11709059EA0157701624000000000000
B0521253200147S11709143EA0157901625000000000000
B0521293200102S11709225EA0157501615000000000000
B0521333200057S11709310EA0156401605000000000000
B0521373200013S11709398EA0155401595000000000000
B0521413159966S11709485EA0155101596000000000000
B0521453159922S11709570EA0154901592000000000000
B0521493159880S11709656EA0154101586000000000000
B0521533159835S11709740EA0153601580000000000000
B0521573159786S11709821EA0153201576000000000000
B0522013159738S11709900EA0152901572000000000000
B0522053159693S11709982EA0152401567000000000000
B0522093159647S11710066EA0151701558000000000000
B0522133159602S11710151EA0151701562000000000000
B0522173159554S11710226EA0152101568000000000000
B0522213159504S11710293EA0152501574000000000000
B0522253159458S11710359EA0153001575000000000000
B0522293159407S11710424EA0152801573000000000000
B0522333159359S11710493EA0152501571000000000000
B0522373159312S11710560EA0152601573000000000000
B0522413159265S11710625EA0152801574000000000000
B0522453159218S11710693EA0152701572000000000000
B0522493159174S11710764EA0152601571000000000000
B0522533159131S11710839EA0152501570000000000000
B0522573159088S11710913EA0152901578000000000000
B0523013159056S11710987EA0154501596000000000000
B0523053159079S11711052EA0155101589000000000000
B0523093159140S11711053EA0153801581000000000000
B0523133159172S11711000EA0154601595000000000000
B0523173159162S11710939EA0155201596000000015000
B0523213159117S11710893EA0155001593000000015000
B0523253159048S11710891EA0155101600000000015000
B0523293158978S11710917EA0155701606000000015000
B0523333158915S11710966EA0156301611000000000000
B0523373158897S11711052EA0156701613000000000000
B0523413158948S11711118EA0156201605000000000000
B0523453159013S11711115EA0156301609000000015000
B0523493159032S11711054EA0156101604000000015000
B0523533158988S11711000EA0155801603000000015000
B0523573158914S11710998EA0156101613000000015000
B0524013158847S11711040EA0157001618000000015000
B0524053158785S11711093EA0156801613000000000000
B0524093158731S11711161EA0156901615000000000000
B0524133158680S11711235EA0156601612000000000000
B0524173158628S11711313EA0156201606000000000000
B0524213158575S11711394EA0155701602000000000000
B0524253158523S11711477EA0155301599000000000000
B0524293158475S11711560EA0155701604000000000000
B0524333158428S11711641EA0155501600000000000000
B0524373158384S11711721EA0155301599000000000000
B0524413158342S11711799EA0155701605000000000000
B0524453158303S11711876EA0155701602000000000000
B0524493158263S11711953EA0155101596000000000000
B0524533158221S11712029EA0154501590000000000000
B0524573158178S11712106EA0154001587000000000000
B0525013158134S11712179EA0154101587000000000000
B0525053158091S11712250EA0154201589000000000000
B0525093158055S11712328EA0153701578000000000000
B0525133158016S11712408EA0152801573000000000000
B0525173157978S11712484EA0152501567000000000000
B0525213157937S11712561EA0151701561000000000000
B0525253157892S11712636EA0151301557000000000000
B0525293157851S11712713EA0150701548000000000000
B0525333157810S11712790EA0150201547000000000000
B0525373157771S11712863EA0150101545000000000000
B0525413157731S11712934EA0149701537000000000000
B0525453157690S11713006EA0149301536000000000000
B0525493157647S11713076EA0148901532000000000000
B0525533157602S11713146EA0148401522000000000000
B0525573157556S11713216EA0147401512000000000000
B0526013157506S11713286EA0146701506000000000000
B0526053157456S11713355EA0146101501000000000000
B0526093157404S11713420EA0146601508000000000000
B0526133157357S11713489EA0146901511000000000000
B0526173157310S11713558EA0146401501000000000000
B0526213157264S11713631EA0145401492000000000000
B0526253157227S11713706EA0144701488000000000000
B0526293157198S11713786EA0144201483000000000000
B0526333157176S11713868EA0143901475000000000000
B0526373157155S11713952EA0142901468000000000000
B0526413157129S11714037EA0142301460000000000000
B0526453157102S11714122EA0141401450000000000000
B0526493157069S11714211EA0140401442000000000000
B0526533157033S11714298EA0139801435000000000000
B0526573156999S11714388EA0138801423000000000000
B0527013156962S11714479EA0137801414000000000000
B0527053156921S11714566EA0137101407000000000000
B0527093156878S11714651EA0136301398000000000000
B0527133156835S11714735EA0135701392000000000000
B0527173156793S11714815EA0134901382000000000000
B0527213156750S11714897EA0134301376000000000000
B0527253156707S11714979EA0133701371000000000000
B0527293156663S11715064EA0133101364000000000000
B0527333156617S11715145EA0132801364000000000000
B0527373156570S11715227EA0132501357000000000000
B0527413156525S11715311EA0131801352000000000000
B0527453156481S11715398EA0131301344000000000000
B0527493156435S11715486EA0130501339000000000000
B0527533156392S11715576EA0130301334000000000000
B0527573156349S11715664EA0130001332000000000000
B0528013156306S11715751EA0130201334000000000000
B0528053156262S11715836EA0130001330000000000000
B0528093156219S11715920EA0129301326000000000000
B0528133156179S11716003EA0129201324000000000000
B0528173156141S11716085EA0129001319000000000000
B0528213156106S11716167EA0128601316000000000000
B0528253156079S11716253EA0128301310000000000000
B0528293156066S11716343EA0127401300000000000000
B0528333156055S11716434EA0126401290000000000000
B0528373156036S11716525EA0125601282000000000000
B0528413156009S11716608EA0125301283000000000000
B0528453155977S11716686EA0125301280000000000000
B0528493155945S11716763EA0125101279000000000000
B0528533155937S11716842EA0125401282000000000000
B0528573155984S11716895EA0125401280000000000000
B0529013156046S11716894EA0124501262000000000000
B0529053156088S11716838EA0122901248000000015000
B0529093156080S11716764EA0122001242000000015000
B0529133156022S11716748EA0121201233000000015000
B0529173155975S11716808EA0120101221000000015000
B0529213155966S11716897EA0119201217000000015000
B0529253155955S11716984EA0118601209000000000000
B0529293155927S11717060EA0118101206000000000000
B0529333155884S11717129EA0117901202000000000000
B0529373155834S11717193EA0117701200000000000000
B0529413155784S11717258EA0117601201000000000000
B0529453155733S11717323EA0117401196000000000000
B0529493155681S11717394EA0117601203000000000000
B0529533155676S11717479EA0118801214000000000000
B0529573155724S11717505EA0119901229000000000000
B0530013155738S11717454EA0121101238000000015000
B0530053155695S11717409EA0121901245000000015000
B0530093155629S11717419EA0122901260000000015000
B0530133155595S11717484EA0123901264000000015000
B0530173155621S11717550EA0123601259000000015000
B0530213155675S11717561EA0123801267000000015000
B0530253155706S11717513EA0124401271000000015000
B0530293155684S11717448EA0124801280000000015000
B0530333155616S11717433EA0126101297000000015000
B0530373155563S11717488EA0127501311000000015000
B0530413155563S11717565EA0128701318000000015000
B0530453155607S11717605EA0128801319000000015000
B0530493155651S11717580EA0129401325000000015000
B0530533155656S11717523EA0130301328000000015000
B0530573155612S11717476EA0131001340000000015000
B0531013155548S11717485EA0132301356000000015000
B0531053155503S11717544EA0133001363000000015000
B0531093155499S11717622EA0133701367000000015000
B0531133155534S11717677EA0133601365000000015000
B0531173155587S11717680EA0133701369000000015000
B0531213155615S11717632EA0134201375000000015000
B0531253155597S11717569EA0134901386000000015000
B0531293155545S11717535EA0136101397000000015000
B0531333155486S11717549EA0137201414000000015000
B0531373155450S11717610EA0138001417000000015000
B0531413155455S11717684EA0138001414000000015000
B0531453155498S11717729EA0137601409000000015000
B0531493155548S11717716EA0137301407000000015000
B0531533155565S11717657EA0137201410000000015000
B0531573155533S11717600EA0137601414000000015000
B0532013155472S11717587EA0138601429000000015000
B0532053155413S11717619EA0139801441000000015000
B0532093155369S11717679EA0140401443000000015000
B0532133155343S11717752EA0140601448000000000000
B0532173155373S11717816EA0140701446000000000000
B0532213155429S11717833EA0140401447000000015000
B0532253155461S11717795EA0141001451000000015000
B0532293155448S11717742EA0140601446000000015000
B0532333155394S11717718EA0140001444000000015000
B0532373155331S11717745EA0140201444000000015000
B0532413155278S11717800EA0140301446000000000000
B0532453155231S11717864EA0140801452000000000000
B0532493155190S11717933EA0141401459000000000000
B0532533155156S11718009EA0141801458000000000000
B0532573155129S11718090EA0141901461000000000000
B0533013155099S11718168EA0141801456000000000000
B0533053155069S11718246EA0140901444000000000000
B0533093155034S11718323EA0140201440000000000000
B0533133154996S11718394EA0140201441000000000000
B0533173154960S11718460EA0140101438000000000000
B0533213154924S11718528EA0139601429000000000000
B0533253154884S11718596EA0138801423000000000000
B0533293154839S11718659EA0138401417000000000000
B0533333154793S11718726EA0137301403000000000000
B0533373154748S11718792EA0136601400000000000000
B0533413154710S11718858EA0136801402000000000000
B0533453154675S11718928EA0136301392000000000000
B0533493154640S11719000EA0135201382000000000000
B0533533154598S11719070EA0134301370000000000000
B0533573154557S11719144EA0133701368000000000000
B0534013154525S11719222EA0134101374000000000000
B0534053154534S11719305EA0134601380000000000000
B0534093154555S11719386EA0134501373000000000000
B0534133154566S11719472EA0133701364000000000000
B0534173154554S11719559EA0133201362000000000000
B0534213154525S11719641EA0133001359000000000000
B0534253154485S11719715EA0132301348000000000000
B0534293154436S11719783EA0131201338000000000000
B0534333154385S11719846EA0130501332000000000000
B0534373154341S11719914EA0130301329000000000000
B0534413154297S11719991EA0129501318000000000000
B0534453154264S11720076EA0129001317000000000000
B0534493154239S11720166EA0128701314000000000000
B0534533154216S11720252EA0128401311000000000000
B0534573154215S11720336EA0128901319000000000000
B0535013154259S11720377EA0130301337000000000000
B0535053154303S11720349EA0131601344000000000000
B0535093154289S11720291EA0132301350000000015000
B0535133154228S11720270EA0131801341000000015000
B0535173154159S11720295EA0131101337000000015000
B0535213154092S11720330EA0130901333000000000000
B0535253154024S11720371EA0129501314000000000000
B0535293153953S11720422EA0128101305000000000000
B0535333153886S11720478EA0127701302000000000000
B0535373153819S11720537EA0127701305000000000000
B0535413153758S11720596EA0128301313000000000000
B0535453153706S11720663EA0128601315000000000000
B0535493153658S11720732EA0128701316000000000000
B0535533153609S11720798EA0128801317000000000000
B0535573153561S11720865EA0128901317000000000000
B0536013153511S11720933EA0128501309000000000000
B0536053153463S11721006EA0127701301000000000000
B0536093153409S11721072EA0127001295000000000000
B0536133153355S11721140EA0126401289000000000000
B0536173153303S11721207EA0126101288000000000000
B0536213153251S11721271EA0125601280000000000000
B0536253153197S11721336EA0124501268000000000000
B0536293153142S11721404EA0123701259000000000000
B0536333153086S11721467EA0123101253000000000000
B0536373153029S11721528EA0122301244000000000000
B0536413152972S11721591EA0121301235000000000000
B0536453152916S11721651EA0120401225000000000000
B0536493152861S11721710EA0119801218000000000000
B0536533152811S11721774EA0118601204000000000000
B0536573152757S11721839EA0117401191000000000000
B0537013152701S11721903EA0116701184000000000000
B0537053152647S11721967EA0117101198000000000000
B0537093152646S11722042EA0119301225000000000000
B0537133152695S11722061EA0121301242000000000000
B0537173152712S11722007EA0123201264000000000000
B0537213152674S11721967EA0124701272000000015000
B0537253152617S11721989EA0125201280000000015000
B0537293152600S11722055EA0126501298000000015000
B0537333152635S11722103EA0127501304000000015000
B0537373152683S11722073EA0128801324000000015000
B0537413152675S11722011EA0131201347000000015000
B0537453152621S11721994EA0132001349000000015000
B0537493152574S11722045EA0132901365000000015000
B0537533152577S11722117EA0133901372000000015000
B0537573152626S11722158EA0134601388000000015000
B0538013152675S11722137EA0137001423000000015000
B0538053152679S11722081EA0139501433000000015000
B0538093152631S11722046EA0140501437000000015000
B0538133152574S11722078EA0141501453000000015000
B0538173152558S11722149EA0142601462000000015000
B0538213152600S11722199EA0143401473000000015000
B0538253152648S11722176EA0145301498000000015000
B0538293152640S11722116EA0147401517000000015000
B0538333152586S11722091EA0148501523000000015000
B0538373152538S11722139EA0149001530000000015000
B0538413152557S11722211EA0149501541000000015000
B0538453152612S11722221EA0151101565000000015000
B0538493152636S11722175EA0153301574000000015000
B0538533152603S11722124EA0154101578000000015000
B0538573152542S11722132EA0154801592000000015000
B0539013152514S11722194EA0155901602000000015000
B0539053152539S11722258EA0156301605000000015000
B0539093152595S11722286EA0157201617000000015000
B0539133152638S11722254EA0158501634000000015000
B0539173152629S11722194EA0159801641000000015000
B0539213152571S11722169EA0160601648000000015000
B0539253152523S11722216EA0161501666000000015000
B0539293152543S11722284EA0162701676000000015000
B0539333152597S11722295EA0164001694000000015000
B0539373152631S11722253EA0165301700000000015000
B0539413152617S11722190EA0165501702000000015000
B0539453152562S11722155EA0166001710000000015000
B0539493152504S11722171EA0167201729000000015000
B0539533152474S11722223EA0168101730000000015000
B0539573152483S11722290EA0167501724000000015000
B0540013152529S11722341EA0167301725000000015000
B0540053152588S11722354EA0167801734000000015000
B0540093152631S11722314EA0168801743000000015000
B0540133152625S11722247EA0168401733000000015000
B0540173152568S11722212EA0168401739000000015000
B0540213152508S11722236EA0169301750000000015000
B0540253152479S11722305EA0169601751000000015000
B0540293152469S11722384EA0169501747000000015000
B0540333152444S11722461EA0168901742000000000000
B0540373152406S11722533EA0168401735000000000000
B0540413152362S11722606EA0168001731000000000000
B0540453152315S11722679EA0167901731000000000000
B0540493152265S11722750EA0167401723000000000000
B0540533152210S11722823EA0166901720000000000000
B0540573152154S11722897EA0166401715000000000000
B0541013152101S11722974EA0166101713000000000000
B0541053152046S11723052EA0165701707000000000000
B0541093151992S11723131EA0165401706000000000000
B0541133151937S11723207EA0165401704000000000000
B0541173151880S11723283EA0165101700000000000000
B0541213151823S11723360EA0164601694000000000000
B0541253151767S11723438EA0164101692000000000000
B0541293151711S11723514EA0164201691000000000000
B0541333151655S11723586EA0163901689000000000000
B0541373151600S11723654EA0164501694000000000000
B0541413151546S11723722EA0164001687000000000000
B0541453151490S11723793EA0163101679000000000000
B0541493151433S11723870EA0162801679000000000000
B0541533151377S11723950EA0163401687000000000000
B0541573151342S11724036EA0164501698000000000000
B0542013151330S11724130EA0165101700000000000000
B0542053151308S11724225EA0164701695000000000000
B0542093151269S11724314EA0164201687000000000000
B0542133151221S11724403EA0163401681000000000000
B0542173151169S11724491EA0162901677000000000000
B0542213151114S11724580EA0162201669000000000000
B0542253151057S11724667EA0162101669000000000000
B0542293151001S11724751EA0162101668000000000000
B0542333150946S11724840EA0161701662000000000000
B0542373150902S11724934EA0161401663000000000000
B0542413150862S11725028EA0162501682000000000000
B0542453150846S11725119EA0165101706000000000000
B0542493150896S11725159EA0167101723000000000000
B0542533150926S11725114EA0168001734000000015000
B0542573150891S11725070EA0169001741000000015000
B0543013150832S11725084EA0170001758000000015000
B0543053150802S11725149EA0171401767000000015000
B0543093150826S11725214EA0172201778000000015000
B0543133150878S11725222EA0172901786000000015000
B0543173150907S11725176EA0173601793000000015000
B0543213150885S11725123EA0173301790000000015000
B0543253150827S11725097EA0173501797000000015000
B0543293150766S11725120EA0174801811000000015000
B0543333150741S11725194EA0175801823000000015000
B0543373150771S11725259EA0176701829000000015000
B0543413150826S11725267EA0177001830000000015000
B0543453150861S11725220EA0177501840000000015000
B0543493150862S11725163EA0178101843000000015000
B0543533150816S11725129EA0178501847000000015000
B0543573150761S11725165EA0178901850000000015000
B0544013150748S11725246EA0178801849000000015000
B0544053150787S11725311EA0179301860000000015000
B0544093150845S11725319EA0180301867000000015000
B0544133150887S11725280EA0180401861000000015000
B0544173150883S11725215EA0179701858000000015000
B0544213150833S11725180EA0179801862000000015000
B0544253150771S11725204EA0180101863000000015000
B0544293150712S11725256EA0179501856000000015000
B0544333150658S11725321EA0179301855000000000000
B0544373150611S11725397EA0178801846000000000000
B0544413150564S11725480EA0177601831000000000000
B0544453150519S11725565EA0176701827000000000000
B0544493150476S11725651EA0176201821000000000000
B0544533150433S11725734EA0175501811000000000000
B0544573150390S11725821EA0174101795000000000000
B0545013150347S11725911EA0173001786000000000000
B0545053150304S11726003EA0172201778000000000000
B0545093150263S11726095EA0171401769000000000000
B0545133150217S11726192EA0170201747000000000000
B0545173150168S11726294EA0168201730000000000000
B0545213150118S11726400EA0166501714000000000000
B0545253150069S11726509EA0165501707000000000000
B0545293150022S11726617EA0165101704000000000000
B0545333149973S11726719EA0165101702000000000000
B0545373149926S11726822EA0164101689000000000000
B0545413149877S11726923EA0162601675000000000000
B0545453149825S11727026EA0161801665000000000000
B0545493149769S11727126EA0161501667000000000000
B0545533149713S11727222EA0161601669000000000000
B0545573149658S11727316EA0162101672000000000000
B0546013149606S11727410EA0161501663000000000000
B0546053149554S11727503EA0161001660000000000000
B0546093149502S11727598EA0160601655000000000000
B0546133149451S11727694EA0159701644000000000000
B0546173149397S11727794EA0158901632000000000000
B0546213149342S11727895EA0157501618000000000000
B0546253149288S11727996EA0156401607000000000000
B0546293149233S11728101EA0154901590000000000000
B0546333149181S11728210EA0153401576000000000000
B0546373149132S11728317EA0153601586000000000000
B0546413149091S11728418EA0155201603000000000000
B0546453149067S11728519EA0155701605000000000000
B0546493149035S11728616EA0155701604000000000000
B0546533149002S11728711EA0155601600000000000000
B0546573148969S11728810EA0155001593000000000000
B0547013148930S11728910EA0153801579000000000000
B0547053148885S11729009EA0153001576000000000000
B0547093148839S11729105EA0152701571000000000000
B0547133148790S11729200EA0152401569000000000000
B0547173148740S11729296EA0151501557000000000000
B0547213148686S11729392EA0150701549000000000000
B0547253148634S11729491EA0149701533000000000000
B0547293148582S11729590EA0149201538000000000000
B0547333148530S11729686EA0149501533000000000000
B0547373148474S11729780EA0148301520000000000000
B0547413148415S11729873EA0147101507000000000000
B0547453148359S11729965EA0146101496000000000000
B0547493148305S11730055EA0146001503000000000000
B0547533148252S11730140EA0147101514000000000000
B0547573148205S11730219EA0148001524000000000000
B0548013148158S11730294EA0148501527000000000000
B0548053148110S11730365EA0148901529000000000000
B0548093148071S11730446EA0148601524000000000000
B0548133148032S11730534EA0147501505000000000000
B0548173147986S11730625EA0145401486000000000000
B0548213147936S11730714EA0144301480000000000000
B0548253147884S11730801EA0143901475000000000000
B0548293147832S11730890EA0143001465000000000000
B0548333147778S11730979EA0142301457000000000000
B0548373147725S11731070EA0141401449000000000000
B0548413147673S11731160EA0141201455000000000000
B0548453147626S11731243EA0142201462000000000000
B0548493147581S11731325EA0142401462000000000000
B0548533147539S11731416EA0142201457000000000000
B0548573147503S11731519EA0141501451000000000000
B0549013147465S11731623EA0141201450000000000000
B0549053147427S11731724EA0140901444000000000000
B0549093147383S11731824EA0140201434000000000000
B0549133147331S11731919EA0139101423000000000000
B0549173147274S11732013EA0138301416000000000000
B0549213147215S11732101EA0137901416000000000000
B0549253147160S11732188EA0138301420000000000000
B0549293147115S11732278EA0138601421000000000000
B0549333147083S11732370EA0138301417000000000000
B0549373147050S11732461EA0137401404000000000000
B0549413147009S11732551EA0136401396000000000000
B0549453146962S11732634EA0136101394000000000000
B0549493146911S11732715EA0135801389000000000000
B0549533146857S11732799EA0135201381000000000000
B0549573146798S11732889EA0134201371000000000000
B0550013146740S11732979EA0133901372000000000000
B0550053146682S11733070EA0133501364000000000000
B0550093146624S11733163EA0132901359000000000000
B0550133146563S11733253EA0131901345000000000000
B0550173146498S11733339EA0131401349000000000000
B0550213146437S11733417EA0132101354000000000000
B0550253146377S11733498EA0132001351000000000000
B0550293146317S11733577EA0131801347000000000000
B0550333146257S11733656EA0131301342000000000000
B0550373146194S11733739EA0130101326000000000000
B0550413146125S11733823EA0129001315000000000000
B0550453146057S11733908EA0128301313000000000000
B0550493145993S11733994EA0128201309000000000000
B0550533145930S11734080EA0127401298000000000000
B0550573145869S11734170EA0126501293000000000000
B0551013145806S11734259EA0125801281000000000000
B0551053145744S11734349EA0125201276000000000000
B0551093145683S11734439EA0124801273000000000000
B0551133145623S11734527EA0124101265000000000000
B0551173145567S11734621EA0123501256000000000000
B0551213145516S11734718EA0122601251000000000000
B0551253145463S11734808EA0122401246000000000000
B0551293145408S11734895EA0121701239000000000000
B0551333145354S11734980EA0121101233000000000000
B0551373145303S11735065EA0120601227000000000000
B0551413145254S11735150EA0119701217000000000000
B0551453145198S11735232EA0118801206000000000000
B0551493145133S11735303EA0117901197000000000000
B0551533145063S11735367EA0117601195000000000000
B0551573144989S11735420EA0117101187000000000000
B0552013144909S11735471EA0116101178000000000000
B0552053144831S11735524EA0116201186000000000000
B0552093144757S11735576EA0116601186000000000000
B0552133144684S11735632EA0116201177000000000000
B0552173144614S11735697EA0115001164000000000000
B0552213144541S11735762EA0114201161000000000000
B0552253144463S11735810EA0114201158000000000000
B0552293144383S11735843EA0113601150000000000000
B0552333144305S11735883EA0113201150000000000000
B0552373144228S11735912EA0114001163000000000000
B0552413144168S11735883EA0115201172000000000000
B0552453144158S11735826EA0115501171000000000000
B0552493144194S11735783EA0114601164000000000000
B0552533144258S11735783EA0114001162000000000000
B0552573144320S11735801EA0114101161000000000000
B0553013144379S11735801EA0113801158000000000000
B0553053144402S11735748EA0113801159000000015000
B0553093144375S11735696EA0113401154000000015000
B0553133144310S11735688EA0113001153000000015000
B0553173144244S11735718EA0113001155000000000000
B0553213144192S11735778EA0113201156000000000000
B0553253144147S11735847EA0113401155000000000000
B0553293144111S11735926EA0112701147000000000000
B0553333144079S11736008EA0111801137000000000000
B0553373144043S11736092EA0110401119000000000000
B0553413143999S11736172EA0110201122000000000000
B0553453143960S11736252EA0110701131000000000000
B0553493143939S11736338EA0112001143000000000000
B0553533143990S11736384EA0113101154000000000000
B0553573144027S11736339EA0113701156000000015000
B0554013143995S11736286EA0114101168000000015000
B0554053143938S11736291EA0115601180000000015000
B0554093143902S11736354EA0116501186000000015000
B0554133143926S11736424EA0116801188000000015000
B0554173143988S11736432EA0117401198000000015000
B0554213144019S11736381EA0117701198000000015000
B0554253143994S11736322EA0118001203000000015000
B0554293143936S11736299EA0118301203000000015000
B0554333143874S11736339EA0118501210000000015000
B0554373143850S11736423EA0118701210000000015000
B0554413143878S11736502EA0119101218000000015000
B0554453143942S11736512EA0120501239000000015000
B0554493143968S11736455EA0122101250000000015000
B0554533143932S11736408EA0123101261000000015000
B0554573143872S11736417EA0123701264000000015000
B0555013143832S11736476EA0124401271000000015000
B0555053143830S11736555EA0125001275000000015000
B0555093143880S11736603EA0125401284000000015000
B0555133143933S11736580EA0126601302000000015000
B0555173143941S11736519EA0127901309000000015000
B0555213143897S11736475EA0128201316000000015000
B0555253143834S11736482EA0129101325000000015000
B0555293143791S11736540EA0129801329000000015000
B0555333143793S11736621EA0129701329000000015000
B0555373143835S11736683EA0130501339000000015000
B0555413143893S11736683EA0131301347000000015000
B0555453143913S11736629EA0132701361000000015000
B0555493143868S11736595EA0133201365000000015000
B0555533143812S11736640EA0133701372000000015000
B0555573143804S11736719EA0134701386000000015000
B0556013143842S11736777EA0135701388000000015000
B0556053143900S11736779EA0135701389000000015000
B0556093143936S11736728EA0135901394000000015000
B0556133143921S11736662EA0136201400000000015000
B0556173143867S11736625EA0136901407000000015000
B0556213143798S11736642EA0137601412000000015000
B0556253143746S11736705EA0137901416000000015000
B0556293143737S11736793EA0138201422000000015000
B0556333143777S11736853EA0139001428000000015000
B0556373143838S11736853EA0139201428000000015000
B0556413143880S11736809EA0139201428000000015000
B0556453143894S11736748EA0139801438000000015000
B0556493143852S11736697EA0140301441000000015000
B0556533143793S11736716EA0141501456000000015000
B0556573143791S11736790EA0142401461000000015000
B0557013143846S11736805EA0142701464000000015000
B0557053143860S11736751EA0143201472000000015000
B0557093143815S11736715EA0143501474000000015000
B0557133143755S11736742EA0143501474000000015000
B0557173143722S11736815EA0143501474000000015000
B0557213143737S11736894EA0144001481000000015000
B0557253143789S11736932EA0144401483000000015000
B0557293143833S11736901EA0144601485000000015000
B0557333143824S11736844EA0144801488000000015000
B0557373143770S11736819EA0145301496000000015000
B0557413143708S11736844EA0145601495000000015000
B0557453143647S11736893EA0145101489000000000000
B0557493143588S11736957EA0144401481000000000000
B0557533143526S11737030EA0143601471000000000000
B0557573143462S11737108EA0143001465000000000000
B0558013143400S11737191EA0141901453000000000000
B0558053143340S11737279EA0140801442000000000000
B0558093143274S11737359EA0140801449000000000000
B0558133143208S11737429EA0141701456000000000000
B0558173143143S11737492EA0141901457000000000000
B0558213143079S11737556EA0141401451000000000000
B0558253143013S11737617EA0141101447000000000000
B0558293142942S11737669EA0140701440000000000000
B0558333142871S11737723EA0139401422000000000000
B0558373142798S11737776EA0137801408000000000000
B0558413142727S11737832EA0136901401000000000000
B0558453142655S11737886EA0136201394000000000000
B0558493142582S11737936EA0135701389000000000000
B0558533142509S11737983EA0135201381000000000000
B0558573142433S11738027EA0133901367000000000000
B0559013142352S11738072EA0133201360000000000000
B0559053142270S11738116EA0132401350000000000000
B0559093142190S11738165EA0131801351000000000000
B0559133142117S11738218EA0132301355000000000000
B0559173142051S11738274EA0132801362000000000000
B0559213141987S11738331EA0133601368000000000000
B0559253141924S11738387EA0133601367000000000000
B0559293141862S11738447EA0133701367000000000000
B0559333141813S11738521EA0133101357000000000000
B0559373141770S11738607EA0131901344000000000000
B0559413141722S11738698EA0130501324000000000000
B0559453141674S11738789EA0129001317000000000000
B0559493141624S11738877EA0128601314000000000000
B0559533141568S11738955EA0128201308000000000000
B0559573141510S11739029EA0127601300000000000000
B0600013141453S11739102EA0126501290000000000000
B0600053141397S11739180EA0125601279000000000000
B0600093141345S11739263EA0124501269000000000000
B0600133141293S11739346EA0124201265000000000000
B0600173141241S11739427EA0123701259000000000000
B0600213141189S11739506EA0122801248000000000000
B0600253141131S11739585EA0121801240000000000000
B0600293141069S11739661EA0120901230000000000000
B0600333141005S11739735EA0119801219000000000000
B0600373140943S11739813EA0119001206000000000000
B0600413140878S11739894EA0117801192000000000000
B0600453140813S11739974EA0117001192000000000000
B0600493140762S11740060EA0118701213000000000000
B0600533140788S11740131EA0120501232000000000000
B0600573140842S11740120EA0122401255000000000000
B0601013140843S11740059EA0124201269000000015000
B0601053140788S11740020EA0124901274000000015000
B0601093140722S11740034EA0126001290000000015000
B0601133140689S11740094EA0127201300000000015000
B0601173140706S11740155EA0128101312000000015000
B0601213140751S11740169EA0129501325000000015000
B0601253140780S11740131EA0130401330000000015000
B0601293140762S11740073EA0131301335000000015000
B0601333140704S11740047EA0131901351000000015000
B0601373140647S11740070EA0133501365000000015000
B0601413140626S11740135EA0133901363000000015000
B0601453140660S11740190EA0133901370000000015000
B0601493140710S11740186EA0135201384000000015000
B0601533140730S11740131EA0136501392000000015000
B0601573140696S11740076EA0137201401000000015000
B0602013140632S11740068EA0137901408000000015000
B0602053140585S11740116EA0138501414000000015000
B0602093140588S11740187EA0138501413000000015000
B0602133140634S11740228EA0138701421000000015000
B0602173140684S11740211EA0140101436000000015000
B0602213140705S11740155EA0141101443000000015000
B0602253140680S11740094EA0141401444000000015000
B0602293140619S11740063EA0141101441000000015000
B0602333140556S11740086EA0141501449000000015000
B0602373140519S11740150EA0141701448000000015000
B0602413140514S11740229EA0141501449000000015000
B0602453140545S11740289EA0141901455000000015000
B0602493140601S11740293EA0142401463000000015000
B0602533140636S11740245EA0143501474000000015000
B0602573140617S11740181EA0144201478000000015000
B0603013140554S11740151EA0144401480000000015000
B0603053140487S11740173EA0144801483000000015000
B0603093140440S11740233EA0145001486000000015000
B0603133140436S11740308EA0145301492000000015000
B0603173140475S11740359EA0145901499000000015000
B0603213140531S11740365EA0146401501000000015000
B0603253140570S11740324EA0147001512000000015000
B0603293140571S11740260EA0147501515000000015000
B0603333140535S11740203EA0147501513000000015000
B0603373140468S11740181EA0147701517000000015000
B0603413140402S11740199EA0147801518000000015000
B0603453140349S11740251EA0148001521000000015000
B0603493140305S11740315EA0147901516000000000000
B0603533140258S11740388EA0147201508000000000000
B0603573140207S11740466EA0146501500000000000000
B0604013140155S11740546EA0146201503000000000000
B0604053140104S11740627EA0146701507000000000000
B0604093140051S11740711EA0146701505000000000000
B0604133139998S11740796EA0146501504000000000000
B0604173139943S11740884EA0146301498000000000000
B0604213139886S11740974EA0145001483000000000000
B0604253139828S11741069EA0143401466000000000000
B0604293139766S11741165EA0141501446000000000000
B0604333139705S11741261EA0141001442000000000000
B0604373139646S11741353EA0140901445000000000000
B0604413139587S11741439EA0141501452000000000000
B0604453139532S11741520EA0141901455000000000000
B0604493139480S11741595EA0141801452000000000000
B0604533139431S11741669EA0141501447000000000000
B0604573139382S11741742EA0141201447000000000000
B0605013139335S11741814EA0141101445000000000000
B0605053139287S11741884EA0140201435000000000000
B0605093139239S11741955EA0139601428000000000000
B0605133139189S11742027EA0139401429000000000000
B0605173139139S11742094EA0139301424000000000000
B0605213139087S11742165EA0138401412000000000000
B0605253139032S11742237EA0137201399000000000000
B0605293138977S11742312EA0136201390000000000000
B0605333138923S11742388EA0135001375000000000000
B0605373138866S11742462EA0133701363000000000000
B0605413138811S11742540EA0132701353000000000000
B0605453138760S11742618EA0132101346000000000000
B0605493138712S11742696EA0131401340000000000000
B0605533138663S11742772EA0130901335000000000000
B0605573138616S11742847EA0130601332000000000000
B0606013138572S11742921EA0130601335000000000000
B0606053138526S11742991EA0130601331000000000000
B0606093138481S11743063EA0130101327000000000000
B0606133138437S11743136EA0130401332000000000000
B0606173138398S11743211EA0130601331000000000000
B0606213138355S11743283EA0130101326000000000000
B0606253138305S11743350EA0129501318000000000000
B0606293138255S11743419EA0129201320000000000000
B0606333138205S11743485EA0129201314000000000000
B0606373138158S11743553EA0129001319000000000000
B0606413138113S11743621EA0129201320000000000000
B0606453138066S11743690EA0128601309000000000000
B0606493138018S11743764EA0127801301000000000000
B0606533137970S11743843EA0127701306000000000000
B0606573137923S11743917EA0128301311000000000000
B0607013137874S11743986EA0128501310000000000000
B0607053137826S11744056EA0128301309000000000000
B0607093137777S11744126EA0128101305000000000000
B0607133137723S11744189EA0127801304000000000000
B0607173137670S11744251EA0128001305000000000000
B0607213137615S11744306EA0127101292000000000000
B0607253137546S11744327EA0126301289000000000000
B0607293137477S11744324EA0126201286000000000000
B0607333137410S11744303EA0125501277000000000000
B0607373137346S11744264EA0124801269000000000000
B0607413137281S11744213EA0123501256000000000000
B0607453137217S11744160EA0123001254000000000000
B0607493137156S11744106EA0123101254000000000000
B0607533137104S11744041EA0122701249000000000000
B0607573137069S11743963EA0121801237000000000000
B0608013137052S11743881EA0121501241000000000000
B0608053137049S11743803EA0121801241000000000000
B0608093137060S11743730EA0121501238000000000000
B0608133137082S11743664EA0121101234000000000000
B0608173137112S11743601EA0120601228000000000000
B0608213137151S11743539EA0119501214000000000000
B0608253137189S11743471EA0118801203000000000000
B0608293137215S11743394EA0117901198000000000000
B0608333137217S11743311EA0117601195000000000000
B0608373137200S11743229EA0117401192000000000000
B0608413137168S11743154EA0117201188000000000000
B0608453137121S11743082EA0116201177000000000000
B0608493137068S11743015EA0115401170000000000000
B0608533137010S11742950EA0115001169000000000000
B0608573136952S11742890EA0114701165000000000000
B0609013136895S11742832EA0114501163000000000000
B0609053136836S11742776EA0114401163000000000000
B0609093136776S11742720EA0114701168000000000000
B0609133136719S11742666EA0115701183000000000000
B0609173136688S11742601EA0117101198000000000000
B0609213136689S11742533EA0118401203000000000000
B0609253136646S11742482EA0117801196000000000000
B0609293136583S11742512EA0117401191000000000000
B0609333136562S11742592EA0117001184000000000000
B0609373136571S11742679EA0116701190000000000000
B0609413136613S11742731EA0117901205000000000000
B0609453136644S11742692EA0119301218000000015000
B0609493136600S11742650EA0120301227000000015000
B0609533136537S11742685EA0120901231000000015000
B0609573136522S11742765EA0121201237000000015000
B0610013136557S11742825EA0121801244000000015000
B0610053136606S11742832EA0123101259000000015000
B0610093136637S11742791EA0124101264000000015000
B0610133136618S11742735EA0125501277000000015000
B0610173136557S11742720EA0126101282000000015000
B0610213136506S11742776EA0126501288000000015000
B0610253136507S11742855EA0127001294000000015000
B0610293136552S11742906EA0127901306000000015000
B0610333136601S11742891EA0128901317000000015000
B0610373136615S11742833EA0129901328000000015000
B0610413136572S11742783EA0130801332000000015000
B0610453136501S11742799EA0130801333000000015000
B0610493136463S11742876EA0131301341000000015000
B0610533136490S11742946EA0132201356000000015000
B0610573136545S11742964EA0133501369000000015000
B0611013136588S11742933EA0134301372000000015000
B0611053136592S11742869EA0134901381000000015000
B0611093136550S11742813EA0135501383000000015000
B0611133136481S11742796EA0135901389000000015000
B0611173136416S11742828EA0136301392000000015000
B0611213136375S11742890EA0136001384000000015000
B0611253136364S11742969EA0135501384000000015000
B0611293136386S11743046EA0136601397000000015000
B0611333136435S11743092EA0137001397000000015000
B0611373136497S11743092EA0136901401000000015000
B0611413136544S11743045EA0137401410000000015000
B0611453136563S11742976EA0138201421000000015000
B0611493136552S11742912EA0140101443000000015000
B0611533136513S11742869EA0141401445000000015000
B0611573136457S11742843EA0140701431000000015000
B0612013136392S11742850EA0139401421000000000000
B0612053136350S11742910EA0138301406000000000000
B0612093136366S11742986EA0137101397000000015000
B0612133136419S11743028EA0137301411000000015000
B0612173136475S11743043EA0138901426000000015000
B0612213136515S11743008EA0139801431000000015000
B0612253136515S11742946EA0139701429000000015000
B0612293136471S11742903EA0139501424000000015000
B0612333136412S11742916EA0138601411000000015000
B0612373136377S11742980EA0137501400000000015000
B0612413136394S11743051EA0137101405000000015000
B0612453136448S11743077EA0138001416000000015000
B0612493136496S11743043EA0138601417000000015000
B0612533136503S11742977EA0138601420000000015000
B0612573136471S11742929EA0138301412000000015000
B0613013136415S11742921EA0137101394000000015000
B0613053136363S11742965EA0135801381000000015000
B0613093136353S11743042EA0134901372000000015000
B0613133136396S11743095EA0134501374000000015000
B0613173136454S11743093EA0134801379000000015000
B0613213136510S11743067EA0134801375000000015000
B0613253136557S11743024EA0133901365000000015000
B0613293136580S11742963EA0132901354000000000000
B0613333136575S11742897EA0132001350000000000000
B0613373136548S11742834EA0131201337000000000000
B0613413136500S11742780EA0130001325000000000000
B0613453136444S11742729EA0129501320000000000000
B0613493136385S11742678EA0129101316000000000000
B0613533136323S11742630EA0128201303000000000000
B0613573136256S11742578EA0127001294000000000000
B0614013136189S11742527EA0126801295000000000000
B0614053136123S11742479EA0126701293000000000000
B0614093136056S11742430EA0126201289000000000000
B0614133135990S11742380EA0126201289000000000000
B0614173135921S11742332EA0126101287000000000000
B0614213135848S11742289EA0126001282000000000000
B0614253135774S11742244EA0125201272000000000000
B0614293135697S11742200EA0124101264000000000000
B0614333135623S11742152EA0123401255000000000000
B0614373135548S11742102EA0122301242000000000000
B0614413135473S11742053EA0121201235000000000000
B0614453135400S11742007EA0120801230000000000000
B0614493135326S11741962EA0120301225000000000000
B0614533135253S11741918EA0119601216000000000000
B0614573135179S11741876EA0118801206000000000000
B0615013135105S11741834EA0118001197000000000000
B0615053135033S11741792EA0117601195000000000000
B0615093134966S11741743EA0117601195000000000000
B0615133134895S11741699EA0117401192000000000000
B0615173134823S11741658EA0118301208000000000000
B0615213134806S11741589EA0121301247000000000000
B0615253134845S11741551EA0123401260000000000000
B0615293134898S11741581EA0123601257000000000000
B0615333134916S11741659EA0123501258000000000000
B0615373134889S11741737EA0123701261000000000000
B0615413134832S11741786EA0124201269000000000000
B0615453134771S11741777EA0125301285000000000000
B0615493134738S11741729EA0127101299000000000000
B0615533134750S11741675EA0128201309000000000000
B0615573134795S11741659EA0129101311000000000000
B0616013134843S11741707EA0128701303000000015000
B0616053134852S11741793EA0128701309000000015000
B0616093134820S11741868EA0129801322000000000000
B0616133134761S11741896EA0130601333000000000000
B0616173134707S11741868EA0131201335000000015000
B0616213134695S11741808EA0131701346000000015000
B0616253134733S11741769EA0132801360000000015000
B0616293134789S11741777EA0134101374000000015000
B0616333134841S11741816EA0135101382000000000000
B0616373134878S11741880EA0135801393000000000000
B0616413134885S11741962EA0136101394000000000000
B0616453134855S11742036EA0136501402000000000000
B0616493134802S11742080EA0136701399000000000000
B0616533134737S11742092EA0136301395000000000000
B0616573134672S11742080EA0136501401000000000000
B0617013134620S11742045EA0137201415000000000000
B0617053134620S11741988EA0138201421000000000000
B0617093134665S11741963EA0138301420000000000000
B0617133134720S11741993EA0138301425000000000000
B0617173134717S11742066EA0138901430000000000000
B0617213134663S11742100EA0139401432000000000000
B0617253134602S11742081EA0139301432000000000000
B0617293134543S11742045EA0138901424000000000000
B0617333134481S11742002EA0138101418000000000000
B0617373134414S11741957EA0138101420000000000000
B0617413134348S11741909EA0137601408000000000000
B0617453134278S11741854EA0136501397000000000000
B0617493134208S11741798EA0135201386000000000000
B0617533134137S11741741EA0134901384000000000000
B0617573134069S11741682EA0134601381000000000000
B0618013134002S11741626EA0134501380000000000000
B0618053133941S11741573EA0134701383000000000000
B0618093133884S11741520EA0134801384000000000000
B0618133133825S11741470EA0134801384000000000000
B0618173133766S11741428EA0134901384000000000000
B0618213133705S11741383EA0134201370000000000000
B0618253133638S11741338EA0132901360000000000000
B0618293133571S11741290EA0131701345000000000000
B0618333133499S11741236EA0130201330000000000000
B0618373133428S11741179EA0129101319000000000000
B0618413133357S11741121EA0128101311000000000000
B0618453133289S11741062EA0127701306000000000000
B0618493133221S11741005EA0127401303000000000000
B0618533133156S11740941EA0126401286000000000000
B0618573133092S11740875EA0125201275000000000000
B0619013133026S11740809EA0124301267000000000000
B0619053132960S11740742EA0123401258000000000000
B0619093132893S11740676EA0122501248000000000000
B0619133132831S11740605EA0121301233000000000000
B0619173132770S11740529EA0120301222000000000000
B0619213132710S11740459EA0119701219000000000000
B0619253132649S11740393EA0119201213000000000000
B0619293132587S11740334EA0119101213000000000000
B0619333132525S11740276EA0118601204000000000000
B0619373132462S11740219EA0117501191000000000000
B0619413132397S11740161EA0116201178000000000000
B0619453132332S11740103EA0115201168000000000000
B0619493132267S11740046EA0114801163000000000000
B0619533132199S11739991EA0114001151000000000000
B0619573132130S11739938EA0112901142000000000000
B0620013132060S11739887EA0112101134000000000000
B0620053131987S11739838EA0111101123000000000000
B0620093131913S11739792EA0110601120000000000000
B0620133131840S11739753EA0110001110000000000000
B0620173131765S11739714EA0108501093000000000000
B0620213131690S11739674EA0107501082000000000000
B0620253131622S11739622EA0107001080000000000000
B0620293131574S11739557EA0106901077000000000000
B0620333131527S11739492EA0106401072000000000000
B0620373131474S11739432EA0106201072000000000000
B0620413131417S11739376EA0106001071000000000000
B0620453131358S11739322EA0106201072000000000000
B0620493131313S11739254EA0106401078000000000000
B0620533131285S11739184EA0108201098000000000000
B0620573131223S11739172EA0109801109000000000000
B0621013131193S11739245EA0110401118000000000000
B0621053131222S11739309EA0111001125000000000000
B0621093131275S11739322EA0111701135000000015000
B0621133131305S11739280EA0112601140000000015000
B0621173131287S11739216EA0113101142000000015000
B0621213131225S11739182EA0113101144000000015000
B0621253131157S11739208EA0113901155000000015000
B0621293131127S11739280EA0115401177000000015000
B0621333131160S11739328EA0117001188000000015000
B0621373131202S11739303EA0117801193000000015000
B0621413131190S11739246EA0118101198000000015000
B0621453131127S11739223EA0118201195000000015000
B0621493131060S11739264EA0118101200000000015000
B0621533131034S11739346EA0119201218000000015000
B0621573131075S11739392EA0121201239000000015000
B0622013131108S11739357EA0122701249000000015000
B0622053131093S11739296EA0123101254000000015000
B0622093131030S11739272EA0124001262000000015000
B0622133130967S11739307EA0124801271000000015000
B0622173130937S11739381EA0125701283000000015000
B0622213130962S11739446EA0126901299000000015000
B0622253131012S11739459EA0128401312000000015000
B0622293131038S11739409EA0129301317000000015000
B0622333131004S11739350EA0129801325000000015000
B0622373130933S11739346EA0130801336000000015000
B0622413130873S11739401EA0131701345000000015000
B0622453130865S11739480EA0132801363000000015000
B0622493130907S11739523EA0134601383000000015000
B0622533130954S11739505EA0136001390000000015000
B0622573130968S11739444EA0136901395000000015000
B0623013130933S11739381EA0137301402000000015000
B0623053130861S11739358EA0137701406000000015000
B0623093130785S11739381EA0137901408000000015000
B0623133130726S11739445EA0137801406000000015000
B0623173130699S11739530EA0137801411000000000000
B0623213130713S11739609EA0138801427000000000000
B0623253130764S11739626EA0140201437000000015000
B0623293130783S11739567EA0140901446000000015000
B0623333130737S11739511EA0142301465000000015000
B0623373130663S11739527EA0143701471000000015000
B0623413130618S11739600EA0143601470000000015000
B0623453130634S11739671EA0144201481000000015000
B0623493130686S11739688EA0144501481000000015000
B0623533130730S11739656EA0145601496000000015000
B0623573130717S11739592EA0147301516000000015000
B0624013130648S11739583EA0148601529000000015000
B0624053130601S11739641EA0149601534000000015000
B0624093130616S11739710EA0149701537000000015000
B0624133130665S11739731EA0150501556000000015000
B0624173130694S11739691EA0152401563000000015000
B0624213130664S11739628EA0153301573000000015000
B0624253130592S11739614EA0153701570000000015000
B0624293130529S11739662EA0153401572000000015000
B0624333130517S11739745EA0153201570000000015000
B0624373130557S11739803EA0153001569000000015000
B0624413130612S11739796EA0153201578000000015000
B0624453130652S11739749EA0154301588000000015000
B0624493130648S11739679EA0155501596000000015000
B0624533130578S11739649EA0155701592000000015000
B0624573130505S11739696EA0154701585000000015000
B0625013130473S11739782EA0154901594000000015000
B0625053130458S11739869EA0155101591000000000000
B0625093130499S11739931EA0154501588000000000000
B0625133130560S11739940EA0154901595000000015000
B0625173130618S11739920EA0155401599000000015000
B0625213130674S11739890EA0156001608000000015000
B0625253130721S11739845EA0156901614000000015000
B0625293130716S11739778EA0157401620000000015000
B0625333130660S11739728EA0157201607000000015000
B0625373130595S11739680EA0156301597000000015000
B0625413130529S11739624EA0154601577000000015000
B0625453130461S11739559EA0153001569000000015000
B0625493130396S11739493EA0152001557000000015000
B0625533130330S11739428EA0151201555000000000000
B0625573130266S11739364EA0151501554000000000000
B0626013130202S11739299EA0151001551000000000000
B0626053130139S11739237EA0149601530000000000000
B0626093130071S11739169EA0148201513000000000000
B0626133130005S11739099EA0146901501000000000000
B0626173129938S11739025EA0145901491000000000000
B0626213129871S11738952EA0145101488000000000000
B0626253129803S11738885EA0144701477000000000000
B0626293129736S11738816EA0143801471000000000000
B0626333129668S11738750EA0142901461000000000000
B0626373129600S11738683EA0141901451000000000000
B0626413129535S11738614EA0141601451000000000000
B0626453129473S11738553EA0143001470000000000000
B0626493129412S11738496EA0143901479000000000000
B0626533129351S11738443EA0145001488000000000000
B0626573129278S11738425EA0145801493000000000000
B0627013129204S11738413EA0145301483000000000000
B0627053129127S11738387EA0144101473000000000000
B0627093129056S11738345EA0143701471000000000000
B0627133128991S11738295EA0143601470000000000000
B0627173128930S11738237EA0143201465000000000000
B0627213128871S11738174EA0142501458000000000000
B0627253128814S11738107EA0141901451000000000000
B0627293128758S11738040EA0141401446000000000000
B0627333128702S11737972EA0141301450000000000000
B0627373128654S11737907EA0142101458000000000000
B0627413128609S11737845EA0142601462000000000000
B0627453128562S11737782EA0142701461000000000000
B0627493128514S11737721EA0142001453000000000000
B0627533128464S11737660EA0142101459000000000000
B0627573128420S11737599EA0142501459000000000000
B0628013128375S11737535EA0141501443000000000000
B0628053128326S11737469EA0140001426000000000000
B0628093128274S11737403EA0138501415000000000000
B0628133128229S11737333EA0137701408000000000000
B0628173128185S11737262EA0137001396000000000000
B0628213128141S11737192EA0135601381000000000000
B0628253128095S11737119EA0134301368000000000000
B0628293128048S11737045EA0132701351000000000000
B0628333127998S11736978EA0132701358000000000000
B0628373127946S11736914EA0132701351000000000000
B0628413127891S11736850EA0131501337000000000000
B0628453127835S11736787EA0131201342000000000000
B0628493127780S11736731EA0131801349000000000000
B0628533127722S11736677EA0132001342000000000000
B0628573127660S11736623EA0131201338000000000000
B0629013127598S11736567EA0131601348000000000000
B0629053127562S11736501EA0132801361000000000000
B0629093127563S11736438EA0133501364000000000000
B0629133127606S11736397EA0133201356000000000000
B0629173127669S11736403EA0132601351000000000000
B0629213127713S11736462EA0132701358000000000000
B0629253127727S11736540EA0132801356000000000000
B0629293127713S11736624EA0132301348000000000000
B0629333127686S11736709EA0131301338000000000000
B0629373127627S11736776EA0130601331000000000000
B0629413127549S11736809EA0130401334000000000000
B0629453127470S11736823EA0130201326000000000000
B0629493127387S11736819EA0129301314000000000000
B0629533127310S11736787EA0128501309000000000000
B0629573127247S11736731EA0128001304000000000000
B0630013127197S11736660EA0128101308000000000000
B0630053127149S11736589EA0128101307000000000000
B0630093127103S11736515EA0127801304000000000000
B0630133127060S11736437EA0126801290000000000000
B0630173127013S11736358EA0125901282000000000000
B0630213126965S11736278EA0125401279000000000000
B0630253126915S11736200EA0125201275000000000000
B0630293126867S11736120EA0124401265000000000000
B0630333126821S11736040EA0123901261000000000000
B0630373126773S11735962EA0123501257000000000000
B0630413126726S11735886EA0122701248000000000000
B0630453126678S11735809EA0121601237000000000000
B0630493126634S11735730EA0120901227000000000000
B0630533126592S11735652EA0120201221000000000000
B0630573126553S11735574EA0119501215000000000000
B0631013126516S11735494EA0118801207000000000000
B0631053126477S11735414EA0118301205000000000000
B0631093126440S11735334EA0118001199000000000000
B0631133126404S11735251EA0117101190000000000000
B0631173126369S11735164EA0116201179000000000000
B0631213126332S11735074EA0115101167000000000000
B0631253126296S11734983EA0114701166000000000000
B0631293126267S11734896EA0114901168000000000000
B0631333126239S11734809EA0114801167000000000000
B0631373126206S11734726EA0115001167000000000000
B0631413126174S11734644EA0114101148000000000000
B0631453126140S11734557EA0113001143000000000000
B0631493126100S11734475EA0112301136000000000000
B0631533126057S11734391EA0112001134000000000000
B0631573126023S11734305EA0111601133000000000000
B0632013125994S11734223EA0111601126000000000000
B0632053125966S11734137EA0110401114000000000000
B0632093125937S11734050EA0109301103000000000000
B0632133125912S11733962EA0109301107000000000000
B0632173125882S11733873EA0109201100000000000000
B0632213125847S11733785EA0107801088000000000000
B0632253125808S11733695EA0107001083000000000000
B0632293125772S11733605EA0106601076000000000000
B0632333125739S11733513EA0106201074000000000000
B0632373125707S11733426EA0106501078000000000000
B0632413125673S11733340EA0106401076000000000000
B0632453125643S11733254EA0106401073000000000000
B0632493125616S11733167EA0105601066000000000000
B0632533125590S11733079EA0104801054000000000000
B0632573125565S11732988EA0103801044000000000000
B0633013125541S11732896EA0102601032000000000000
B0633053125517S11732802EA0101701019000000000000
B0633093125496S11732707EA0100801012000000000000
B0633133125479S11732614EA0100201008000000000000
B0633173125464S11732520EA0099901003000000000000
B0633213125452S11732426EA0099401000000000000000
B0633253125440S11732335EA0099401002000000000000
B0633293125427S11732247EA0098800990000000000000
B0633333125413S11732159EA0097600975000000000000
B0633373125403S11732069EA0096400965000000000000
B0633413125390S11731982EA0095900959000000000000
B0633453125377S11731895EA0095900968000000000000
B0633493125373S11731815EA0097300984000000000000
B0633533125377S11731741EA0098400989000000000000
B0633573125385S11731668EA0097800977000000000000
B0634013125391S11731592EA0096500965000000000000
B0634053125386S11731512EA0095400951000000000000
B0634093125368S11731433EA0094200939000000000000
B0634133125335S11731362EA0093600935000000000000
B0634173125291S11731298EA0093300932000000000000
B0634213125242S11731239EA0092700924000000000000
B0634253125188S11731184EA0091800916000000000000
B0634293125132S11731129EA0091000907000000000000
B0634333125078S11731073EA0090300902000000000000
B0634373125022S11731018EA0090600907000000000000
B0634413124978S11730960EA0090900907000000000000
B0634453124963S11730892EA0090500903000000000000
B0634493124966S11730826EA0090000894000000000000
B0634533124963S11730755EA0088700878000000000000
B0634573124946S11730679EA0087500870000000000000
B0635013124915S11730608EA0086600858000000000000
B0635053124872S11730539EA0085300843000000000000
B0635093124822S11730471EA0083900830000000000000
B0635133124771S11730402EA0083000821000000000000
B0635173124718S11730333EA0082000810000000000000
B0635213124663S11730263EA0081000798000000000000
B0635253124608S11730190EA0080100792000000000000
B0635293124555S11730116EA0079700786000000000000
B0635333124502S11730043EA0079600792000000000000
B0635373124449S11729980EA0079900788000000000000
B0635413124394S11729921EA0079400783000000000000
B0635453124338S11729864EA0078400770000000000000
B0635493124283S11729802EA0077500766000000000000
B0635533124231S11729742EA0077700770000000000000
B0635573124181S11729681EA0077800770000000000000
B0636013124122S11729626EA0078400780000000000000
B0636053124051S11729613EA0079900797000000000000
B0636093124016S11729682EA0081000799000000000000
B0636133124055S11729726EA0081000801000000000000
B0636173124091S11729699EA0081400808000000015000
B0636213124096S11729643EA0082000811000000015000
B0636253124066S11729585EA0082300812000000015000
B0636293124000S11729574EA0082400812000000015000
B0636333123968S11729639EA0082500812000000015000
B0636373123997S11729691EA0081600799000000015000
B0636413124047S11729666EA0081300805000000015000
B0636453124082S11729613EA0081700805000000015000
B0636493124072S11729544EA0081500804000000015000
B0636533124016S11729501EA0081300800000000015000
B0636573123945S11729517EA0080700789000000015000
B0637013123875S11729559EA0079600785000000015000
B0637053123806S11729601EA0079700786000000015000
B0637093123735S11729643EA0079100779000000000000
B0637133123663S11729691EA0077900766000000000000
B0637173123592S11729741EA0077100759000000000000
B0637213123522S11729791EA0076900758000000000000
B0637253123459S11729850EA0076900757000000000000
B0637293123394S11729904EA0076500753000000000000
B0637333123328S11729954EA0076000746000000000000
B0637373123258S11729995EA0075700745000000000000
B0637413123190S11730034EA0075900748000000000000
B0637453123124S11730077EA0075600743000000000000
B0637493123052S11730116EA0075200739000000000000
B0637533122980S11730150EA0074800736000000000000
B0637573122905S11730179EA0074500731000000000000
B0638013122830S11730206EA0074100725000000000000
B0638053122756S11730238EA0072900711000000000000
B0638093122686S11730283EA0072200706000000000000
B0638133122622S11730335EA0072200710000000000000
B0638173122574S11730406EA0072500709000000000000
B0638213122580S11730482EA0072400708000000000000
B0638253122629S11730501EA0071800700000000000000
B0638293122653S11730457EA0071000697000000000000
B0638333122610S11730415EA0070700693000000015000
B0638373122539S11730409EA0070400686000000015000
B0638413122471S11730439EA0070100683000000000000
B0638453122447S11730514EA0069900680000000015000
B0638493122453S11730593EA0069000666000000000000
B0638533122454S11730683EA0067900659000000000000
B0638573122434S11730771EA0067700659000000000000
B0639013122391S11730846EA0067300654000000000000
B0639053122341S11730912EA0066900648000000000000
B0639093122287S11730969EA0066100640000000000000
B0639133122229S11731022EA0065500636000000000000
B0639173122210S11731099EA0066100646000000000000
B0639213122255S11731133EA0066800645000000000000
B0639253122275S11731083EA0066700646000000015000
B0639293122229S11731047EA0066300632000000015000
B0639333122164S11731087EA0065300636000000015000
B0639373122177S11731159EA0066700653000000015000
B0639413122226S11731148EA0067300650000000015000
B0639453122219S11731090EA0066900641000000030000
B0639493122157S11731070EA0065500626000000015000
B0639533122094S11731128EA0065100637000000015000
B0639573122103S11731197EA0067300662000000015000
B0640013122146S11731185EA0068700664000000015000
B0640053122136S11731129EA0067900659000000015000
B0640093122073S11731138EA0068100665000000015000
B0640133122071S11731212EA0069000678000000015000
B0640173122122S11731223EA0069800679000000015000
B0640213122138S11731169EA0069400674000000015000
B0640253122094S11731129EA0068900666000000015000
B0640293122031S11731155EA0068100656000000015000
B0640333121992S11731228EA0067700663000000015000
B0640373122033S11731273EA0068600668000000015000
B0640413122055S11731219EA0068800670000000015000
B0640453122005S11731186EA0069600683000000015000
B0640493121951S11731228EA0069900676000000015000
B0640533121963S11731306EA0069500672000000015000
B0640573122021S11731320EA0069500678000000015000
B0641013122064S11731276EA0069400671000000015000
B0641053122041S11731215EA0069500673000000015000
B0641093121972S11731211EA0069100663000000015000
B0641133121906S11731263EA0067800655000000015000
B0641173121888S11731349EA0068400666000000015000
B0641213121930S11731401EA0069200672000000015000
B0641253121986S11731397EA0069200673000000015000
B0641293121997S11731342EA0069500679000000015000
B0641333121942S11731329EA0070400686000000015000
B0641373121910S11731397EA0070500685000000015000
B0641413121951S11731444EA0070100679000000015000
B0641453121982S11731399EA0070000682000000015000
B0641493121942S11731356EA0070500689000000015000
B0641533121880S11731379EA0070800689000000015000
B0641573121859S11731453EA0070800691000000015000
B0642013121902S11731494EA0070900694000000015000
B0642053121936S11731457EA0070800691000000015000
B0642093121903S11731408EA0070900692000000015000
B0642133121839S11731419EA0071000692000000015000
B0642173121797S11731477EA0070900691000000015000
B0642213121787S11731557EA0070600685000000015000
B0642253121828S11731620EA0070000678000000015000
B0642293121888S11731637EA0069600677000000015000
B0642333121934S11731592EA0069100671000000015000
B0642373121973S11731533EA0067900657000000015000
B0642413122011S11731471EA0066600645000000015000
B0642453122046S11731407EA0065800639000000015000
B0642493122077S11731345EA0065600637000000000000
B0642533122109S11731282EA0065000627000000000000
B0642573122144S11731223EA0063900616000000000000
B0643013122188S11731173EA0063200610000000000000
B0643053122237S11731130EA0062500598000000000000
B0643093122287S11731087EA0061300584000000000000
B0643133122330S11731037EA0060200576000000000000
B0643173122362S11730979EA0059600574000000000000
B0643213122391S11730920EA0060000578000000000000
B0643253122424S11730868EA0060400582000000000000
B0643293122458S11730810EA0060000572000000000000
B0643333122486S11730748EA0059000564000000000000
B0643373122513S11730686EA0058200553000000000000
B0643413122541S11730621EA0057100544000000000000
B0643453122566S11730556EA0056700541000000000000
B0643493122588S11730488EA0056600541000000000000
B0643533122619S11730428EA0056900546000000000000
B0643573122670S11730443EA0057700554000000000000
B0644013122655S11730515EA0058500562000000015000
B0644053122590S11730534EA0058500558000000015000
B0644093122552S11730480EA0058300557000000015000
B0644133122573S11730428EA0058400561000000015000
B0644173122612S11730448EA0059200564000000015000
B0644213122604S11730515EA0059400569000000015000
B0644253122543S11730548EA0059300561000000015000
B0644293122488S11730509EA0058700562000000015000
B0644333122483S11730448EA0058900565000000015000
B0644373122518S11730414EA0058800565000000015000
B0644413122560S11730446EA0059200570000000015000
B0644453122552S11730519EA0059800576000000015000
B0644493122491S11730558EA0060300581000000015000
B0644533122435S11730527EA0059900571000000015000
B0644573122426S11730461EA0059300570000000015000
B0645013122456S11730415EA0059500574000000015000
B0645053122501S11730427EA0060300587000000015000
B0645093122512S11730495EA0061700599000000015000
B0645133122462S11730548EA0062400601000000015000
B0645173122398S11730531EA0062300599000000015000
B0645213122385S11730471EA0062000594000000015000
B0645253122419S11730437EA0062500601000000015000
B0645293122458S11730479EA0064000614000000015000
B0645333122434S11730549EA0064000612000000015000
B0645373122362S11730562EA0063500608000000015000
B0645413122318S11730510EA0063000604000000015000
B0645453122333S11730450EA0063300618000000015000
B0645493122382S11730467EA0065000636000000015000
B0645533122385S11730539EA0066000639000000015000
B0645573122327S11730584EA0065900639000000015000
B0646013122265S11730562EA0066100641000000015000
B0646053122244S11730500EA0066000642000000015000
B0646093122284S11730472EA0067000658000000015000
B0646133122309S11730531EA0068300665000000015000
B0646173122267S11730593EA0068200663000000015000
B0646213122201S11730582EA0068300668000000015000
B0646253122188S11730523EA0069200679000000015000
B0646293122228S11730506EA0070300691000000015000
B0646333122249S11730563EA0071000692000000015000
B0646373122206S11730627EA0070700693000000015000
B0646413122141S11730623EA0071800705000000015000
B0646453122114S11730565EA0072300711000000015000
B0646493122148S11730534EA0073200722000000015000
B0646533122181S11730582EA0074100729000000015000
B0646573122157S11730654EA0074600735000000015000
B0647013122092S11730670EA0075500750000000015000
B0647053122055S11730621EA0076600755000000015000
B0647093122085S11730579EA0077200759000000015000
B0647133122131S11730614EA0077700765000000015000
B0647173122124S11730693EA0077800767000000015000
B0647213122059S11730730EA0078800784000000015000
B0647253122010S11730692EA0080200796000000015000
B0647293122023S11730638EA0081300804000000015000
B0647333122067S11730636EA0082000811000000015000
B0647373122093S11730693EA0082700816000000015000
B0647413122071S11730766EA0082900818000000015000
B0647453122006S11730797EA0083200830000000015000
B0647493121963S11730757EA0084700840000000015000
B0647533121984S11730718EA0085200841000000015000
B0647573122029S11730745EA0085200845000000015000
B0648013122038S11730817EA0085900856000000015000
B0648053121997S11730878EA0087100872000000015000
B0648093121930S11730887EA0088200879000000015000
B0648133121890S11730839EA0088600883000000015000
B0648173121908S11730794EA0089300889000000015000
B0648213121954S11730810EA0089600892000000015000
B0648253121971S11730879EA0090400908000000015000
B0648293121933S11730938EA0092200926000000015000
B0648333121869S11730943EA0092700929000000000000
B0648373121836S11730892EA0092900930000000015000
B0648413121856S11730843EA0093300935000000000000
B0648453121904S11730848EA0093800942000000015000
B0648493121936S11730905EA0094200943000000015000
B0648533121921S11730986EA0094500955000000015000
B0648573121867S11731042EA0095700960000000015000
B0649013121794S11731043EA0095500959000000000000
B0649053121743S11730996EA0095500957000000015000
B0649093121735S11730930EA0095400958000000015000
B0649133121769S11730885EA0095600962000000015000
B0649173121824S11730891EA0096000963000000015000
B0649213121858S11730955EA0096100970000000015000
B0649253121839S11731038EA0096900982000000015000
B0649293121774S11731078EA0098300994000000015000
B0649333121712S11731054EA0099201001000000015000
B0649373121698S11730992EA0100001010000000015000
B0649413121729S11730953EA0100301010000000015000
B0649453121778S11730968EA0100201011000000015000
B0649493121807S11731030EA0100701021000000015000
B0649533121789S11731104EA0101901031000000015000
B0649573121732S11731145EA0102801039000000000000
B0650013121674S11731115EA0103101043000000000000
B0650053121655S11731054EA0103901050000000015000
B0650093121677S11731003EA0104401052000000000000
B0650133121724S11730999EA0104601054000000015000
B0650173121764S11731044EA0104701056000000015000
B0650213121771S11731120EA0104701058000000000000
B0650253121747S11731200EA0105001061000000000000
B0650293121708S11731280EA0105201067000000000000
B0650333121635S11731307EA0106101076000000000000
B0650373121574S11731273EA0105701062000000000000
B0650413121550S11731203EA0104601056000000000000
B0650453121566S11731135EA0104801062000000015000
B0650493121605S11731085EA0104801058000000000000
B0650533121657S11731046EA0104001047000000000000
B0650573121712S11730999EA0103201042000000000000
B0651013121771S11730952EA0102701034000000000000
B0651053121836S11730908EA0101701021000000000000
B0651093121902S11730860EA0100301006000000000000
B0651133121962S11730797EA0099601001000000000000
B0651173122020S11730738EA0099401003000000000000
B0651213122077S11730686EA0099601002000000000000
B0651253122135S11730634EA0099000992000000000000
B0651293122194S11730587EA0098100983000000000000
B0651333122258S11730541EA0097000971000000000000
B0651373122313S11730479EA0095400951000000000000
B0651413122346S11730400EA0094300947000000000000
B0651453122358S11730316EA0094700950000000000000
B0651493122357S11730235EA0094400944000000000000
B0651533122344S11730155EA0093400931000000000000
B0651573122320S11730080EA0092800926000000000000
B0652013122293S11730006EA0092100918000000000000
B0652053122263S11729933EA0091200911000000000000
B0652093122228S11729861EA0090300900000000000000
B0652133122194S11729787EA0089300887000000000000
B0652173122161S11729711EA0088300878000000000000
B0652213122125S11729633EA0087600874000000000000
B0652253122086S11729561EA0087600877000000000000
B0652293122049S11729490EA0087900878000000000000
B0652333122019S11729417EA0087700872000000000000
B0652373121997S11729341EA0086600859000000000000
B0652413121966S11729266EA0085700854000000000000
B0652453121929S11729191EA0085900857000000000000
B0652493121907S11729115EA0086800867000000000000
B0652533121894S11729042EA0086800863000000000000
B0652573121881S11728970EA0086000853000000000000
B0653013121852S11728899EA0085400846000000000000
B0653053121802S11728837EA0084200832000000000000
B0653093121745S11728776EA0082900822000000000000
B0653133121685S11728723EA0082400815000000000000
B0653173121612S11728698EA0081500803000000000000
B0653213121533S11728727EA0080500795000000000000
B0653253121466S11728788EA0079800788000000000000
B0653293121409S11728860EA0078700775000000000000
B0653333121356S11728941EA0077900763000000000000
B0653373121308S11729024EA0076800753000000000000
B0653413121265S11729110EA0076300749000000000000
B0653453121226S11729197EA0075500740000000000000
B0653493121199S11729289EA0074700740000000000000
B0653533121197S11729377EA0076000752000000000000
B0653573121247S11729427EA0077200769000000000000
B0654013121287S11729405EA0078900782000000000000
B0654053121248S11729362EA0078000763000000015000
B0654093121183S11729395EA0077300762000000015000
B0654133121154S11729477EA0077600769000000015000
B0654173121192S11729530EA0079200788000000015000
B0654213121223S11729496EA0080400798000000015000
B0654253121196S11729447EA0081100808000000015000
B0654293121139S11729439EA0082100812000000015000
B0654333121089S11729490EA0082200809000000015000
B0654373121091S11729572EA0082200816000000015000
B0654413121137S11729613EA0083300835000000015000
B0654453121169S11729578EA0084700844000000015000
B0654493121135S11729529EA0085300850000000015000
B0654533121066S11729549EA0085900856000000015000
B0654573121050S11729629EA0087100873000000015000
B0655013121096S11729661EA0088200882000000015000
B0655053121118S11729618EA0089400897000000015000
B0655093121083S11729573EA0090600901000000015000
B0655133121019S11729585EA0091000908000000015000
B0655173121004S11729656EA0092200919000000015000
B0655213121050S11729679EA0092700928000000015000
B0655253121072S11729639EA0093900938000000015000
B0655293121037S11729592EA0094700944000000015000
B0655333120974S11729598EA0095400946000000015000
B0655373120942S11729665EA0096100960000000015000
B0655413120971S11729722EA0097100971000000015000
B0655453121017S11729725EA0097700977000000015000
B0655493121033S11729672EA0098500985000000015000
B0655533120992S11729625EA0099100994000000015000
B0655573120927S11729639EA0100201004000000015000
B0656013120896S11729707EA0100901017000000015000
B0656053120916S11729767EA0102401033000000015000
B0656093120958S11729783EA0103201040000000015000
B0656133120997S11729750EA0103201038000000015000
B0656173121002S11729691EA0103601044000000015000
B0656213120955S11729656EA0104301048000000015000
