ACAM4N6
HFDTE140122
HFFXA050
HFPLTPILOT:JOHN WELSH              
HFGTYGLIDERTYPE:HORNET      
HFGIDGLIDERID:VH-GMY      
HFDTM100GPSDATUM:
HFRFWFIRMWAREVERSION:F2.6
HFRHWHARDWAREVERSION:300 Series Version 2
HFFTYFRTYPE:CAMBRIDGE AERO INSTRUMENTS, 302+
HFGPS:GARMIN,LVS-25,12,18000
HFPRSPRESSALTSENSOR:INTERSEMA, MS5534-AP, 20000
I033638FXA3941ENL4247REX
LCAMSBVER:5FWVER:F26300
C140122030313140122000102
C0000000N00000000WTAKEOFF     
C3207529S11656999EBeverley Gld
C3131816S11804949EHines Hill  
C3220282S11752282ECorrigin    
C3207529S11656999EBeverley Gld
C0000000N00000000WLANDING     
B0445433207339S11656858EA0023000207000000000000
B0445453207339S11656858EA0023000207000000000000
B0445473207339S11656858EA0023100207000000000000
B0445493207339S11656858EA0023100207000000000000
B0445513207339S11656858EA0023000207000000000000
B0445533207339S11656858EA0023000207000000000000
B0445553207339S11656858EA0023100207000000000000
B0445573207339S11656858EA0023000207000000000000
B0445593207339S11656858EA0023000207000000000000
B0446013207339S11656858EA0023000207000000000000
B0446033207339S11656858EA0023000206000000000000
B0446053207339S11656858EA0023000206000000000000
B0446073207339S11656858EA0023000206000000000000
B0446093207339S11656860EA0023100206000000000000
B0446113207342S11656861EA0023100206000000000000
B0446123207345S11656864EA0023000206000000000000
B0446163207365S11656883EA0023000206000000000000
B0446203207403S11656909EA0023200206000000000000
B0446243207455S11656943EA0023200207000000000000
B0446283207516S11656984EA0023400209000000000000
B0446323207581S11657029EA0024400221000000000000
B0446363207646S11657075EA0025300229000000000000
B0446403207710S11657124EA0025800242000000000000
B0446443207771S11657169EA0027200257000000000000
B0446483207830S11657213EA0028700272000000000000
B0446523207889S11657255EA0029800290000000000000
B0446563207952S11657300EA0031400303000000000000
B0447003208014S11657342EA0033000319000000000000
B0447043208075S11657377EA0034400336000000000000
B0447083208138S11657411EA0035700347000000000000
B0447123208201S11657445EA0036400355000000000000
B0447163208264S11657480EA0037500365000000000000
B0447203208330S11657512EA0038400374000000000000
B0447243208400S11657540EA0039000377000000000000
B0447283208469S11657560EA0039600388000000000000
B0447323208539S11657579EA0040600400000000000000
B0447363208610S11657599EA0041800409000000000000
B0447403208681S11657631EA0042100414000000000000
B0447443208749S11657681EA0042900423000000000000
B0447483208806S11657749EA0044100440000000000000
B0447523208858S11657823EA0046100461000000000000
B0447563208898S11657909EA0048500482000000000000
B0448003208925S11658006EA0049100485000000000000
B0448043208940S11658106EA0049700495000000000000
B0448083208935S11658208EA0050900508000000000000
B0448123208907S11658305EA0052300521000000000000
B0448163208860S11658395EA0053400529000000000000
B0448203208799S11658474EA0054000535000000000000
B0448243208724S11658538EA0055100548000000000000
B0448283208641S11658587EA0056700567000000000000
B0448323208554S11658630EA0058900589000000000000
B0448363208464S11658655EA0061300617000000000000
B0448403208370S11658663EA0064000644000000000000
B0448443208274S11658652EA0066100664000000000000
B0448483208181S11658624EA0068000683000000000000
B0448523208100S11658574EA0070000705000000000000
B0448563208030S11658513EA0072100728000000000000
B0449003207971S11658444EA0074400753000000000000
B0449043207930S11658364EA0077100782000000000000
B0449083207906S11658282EA0080200815000000000000
B0449123207870S11658210EA0082200843000000000000
B0449163207800S11658209EA0084700867000000000000
B0449203207765S11658271EA0086500876000000000000
B0449243207789S11658323EA0087200887000000000000
B0449283207830S11658316EA0088000892000000015000
B0449323207836S11658261EA0088600899000000015000
B0449363207775S11658227EA0089900914000000015000
B0449403207722S11658279EA0091000926000000015000
B0449443207732S11658349EA0092000930000000015000
B0449483207781S11658370EA0092200932000000015000
B0449523207814S11658325EA0092600940000000015000
B0449563207785S11658256EA0093500946000000015000
B0450003207715S11658242EA0094800968000000015000
B0450043207659S11658290EA0096500977000000015000
B0450083207648S11658362EA0096800979000000015000
B0450123207685S11658399EA0096700980000000015000
B0450163207723S11658379EA0097000984000000015000
B0450203207736S11658325EA0097500989000000015000
B0450243207702S11658264EA0098300995000000015000
B0450283207629S11658255EA0098500997000000015000
B0450323207577S11658321EA0099501008000000015000
B0450363207585S11658394EA0100401022000000015000
B0450403207624S11658411EA0101601031000000015000
B0450443207631S11658364EA0102601036000000015000
B0450483207573S11658331EA0103301044000000015000
B0450523207511S11658373EA0104501060000000015000
B0450563207499S11658444EA0105101063000000015000
B0451003207534S11658485EA0105001068000000015000
B0451043207568S11658464EA0105701073000000015000
B0451083207563S11658404EA0106501078000000015000
B0451123207510S11658361EA0107101089000000015000
B0451163207445S11658391EA0108601103000000015000
B0451203207434S11658460EA0109501110000000015000
B0451243207471S11658495EA0109501109000000015000
B0451283207505S11658469EA0109501114000000015000
B0451323207524S11658414EA0110101120000000015000
B0451363207542S11658359EA0110501122000000015000
B0451403207554S11658296EA0110201119000000015000
B0451443207566S11658229EA0110001117000000000000
B0451483207580S11658162EA0109701113000000000000
B0451523207597S11658096EA0109101104000000000000
B0451563207622S11658032EA0108201097000000000000
B0452003207653S11657971EA0107601090000000000000
B0452043207681S11657906EA0106901082000000000000
B0452083207707S11657837EA0106001074000000000000
B0452123207735S11657766EA0105101065000000000000
B0452163207761S11657694EA0104301057000000000000
B0452203207784S11657619EA0103701049000000000000
B0452243207807S11657543EA0103101046000000000000
B0452283207830S11657468EA0102801040000000000000
B0452323207852S11657393EA0102101034000000000000
B0452363207874S11657313EA0101301025000000000000
B0452403207898S11657235EA0100501018000000000000
B0452443207922S11657159EA0100001012000000000000
B0452483207943S11657082EA0099301006000000000000
B0452523207961S11657009EA0098700998000000000000
B0452563207979S11656935EA0098000987000000000000
B0453003207997S11656860EA0096800978000000000000
B0453043208018S11656788EA0096300970000000000000
B0453083208038S11656718EA0095000958000000000000
B0453123208058S11656648EA0093800945000000000000
B0453163208082S11656580EA0092500930000000000000
B0453203208100S11656510EA0091000916000000000000
B0453243208106S11656435EA0089600903000000000000
B0453283208110S11656359EA0088500886000000000000
B0453323208117S11656284EA0086700866000000000000
B0453363208130S11656211EA0085200854000000000000
B0453403208156S11656147EA0084600852000000000000
B0453443208200S11656115EA0085100861000000000000
B0453483208249S11656102EA0085500861000000000000
B0453523208303S11656091EA0085300859000000000000
B0453563208357S11656072EA0084900855000000000000
B0454003208412S11656045EA0085000857000000000000
B0454043208452S11655998EA0085000854000000000000
B0454083208433S11655930EA0084600851000000000000
B0454123208369S11655916EA0083800835000000000000
B0454163208318S11655970EA0082300826000000000000
B0454203208296S11656045EA0082500836000000000000
B0454243208305S11656113EA0083300838000000015000
B0454283208351S11656143EA0083000834000000015000
B0454323208404S11656143EA0082100821000000015000
B0454363208457S11656129EA0080100802000000000000
B0454403208511S11656106EA0078700788000000000000
B0454443208565S11656073EA0077600780000000000000
B0454483208617S11656033EA0077200774000000000000
B0454523208672S11655994EA0076700769000000000000
B0454563208723S11655943EA0076100760000000000000
B0455003208766S11655878EA0075100749000000000000
B0455043208797S11655808EA0074200745000000000000
B0455083208820S11655740EA0074300745000000000000
B0455123208840S11655673EA0073800736000000000000
B0455163208847S11655601EA0072600725000000000000
B0455203208819S11655534EA0071800717000000000000
B0455243208758S11655492EA0070900705000000000000
B0455283208681S11655493EA0069800696000000000000
B0455323208602S11655513EA0068900686000000000000
B0455363208524S11655541EA0068300680000000000000
B0455403208448S11655578EA0067500672000000000000
B0455443208376S11655619EA0066900665000000000000
B0455483208305S11655668EA0066500664000000000000
B0455523208252S11655730EA0067400674000000000000
B0455563208268S11655795EA0068000677000000000000
B0456003208309S11655777EA0068000678000000000000
B0456043208300S11655713EA0068000677000000015000
B0456083208239S11655678EA0067900680000000015000
B0456123208187S11655720EA0068500686000000015000
B0456163208201S11655773EA0069200691000000015000
B0456203208238S11655761EA0069100687000000015000
B0456243208231S11655703EA0068500684000000015000
B0456283208173S11655669EA0068500690000000015000
B0456323208130S11655716EA0069400696000000015000
B0456363208155S11655761EA0069600694000000015000
B0456403208192S11655742EA0069400692000000015000
B0456443208191S11655681EA0069200690000000015000
B0456483208145S11655630EA0069000692000000015000
B0456523208083S11655630EA0070000699000000015000
B0456563208078S11655696EA0070000698000000015000
B0457003208125S11655687EA0070400704000000015000
B0457043208114S11655621EA0071100713000000015000
B0457083208049S11655625EA0072200725000000015000
B0457123208041S11655687EA0073500736000000015000
B0457163208084S11655696EA0073900738000000015000
B0457203208103S11655639EA0074200740000000015000
B0457243208069S11655579EA0074400746000000015000
B0457283208006S11655584EA0075600762000000015000
B0457323207991S11655649EA0076900772000000015000
B0457363208036S11655664EA0077700781000000015000
B0457403208053S11655608EA0078200786000000015000
B0457443208012S11655561EA0078600791000000015000
B0457483207947S11655588EA0079200800000000015000
B0457523207948S11655657EA0080700818000000015000
B0457563207999S11655662EA0082000825000000015000
B0458003208009S11655599EA0082600830000000015000
B0458043207954S11655560EA0083100840000000015000
B0458083207896S11655595EA0084600860000000015000
B0458123207896S11655658EA0086500875000000015000
B0458163207944S11655660EA0087000876000000015000
B0458203207960S11655601EA0087400882000000015000
B0458243207913S11655549EA0087900889000000015000
B0458283207846S11655560EA0089100901000000015000
B0458323207835S11655629EA0090800922000000015000
B0458363207880S11655645EA0092700939000000015000
B0458403207892S11655591EA0093500943000000015000
B0458443207837S11655557EA0094000951000000015000
B0458483207787S11655606EA0095100970000000015000
B0458523207801S11655673EA0097000990000000015000
B0458563207850S11655678EA0098600997000000015000
B0459003207870S11655618EA0098901001000000015000
B0459043207828S11655566EA0099601012000000015000
B0459083207763S11655580EA0100601019000000015000
B0459123207757S11655651EA0101501029000000015000
B0459163207800S11655634EA0102101034000000015000
B0459203207765S11655579EA0102701041000000015000
B0459243207705S11655619EA0103401051000000015000
B0459283207718S11655692EA0104701063000000015000
B0459323207768S11655692EA0105301069000000015000
B0459363207776S11655627EA0105601074000000015000
B0459403207728S11655573EA0106301080000000015000
B0459443207653S11655569EA0106701093000000015000
B0459483207629S11655635EA0108801119000000015000
B0459523207672S11655649EA0110901134000000015000
B0459563207677S11655599EA0112001141000000015000
B0500003207616S11655577EA0112201144000000015000
B0500043207572S11655635EA0113201159000000015000
B0500083207596S11655696EA0114801173000000015000
B0500123207638S11655683EA0115901182000000015000
B0500163207631S11655622EA0116901192000000015000
B0500203207563S11655612EA0117801207000000015000
B0500243207529S11655673EA0119601226000000015000
B0500283207562S11655713EA0120401226000000015000
B0500323207598S11655679EA0120701236000000015000
B0500363207584S11655621EA0122301253000000015000
B0500403207528S11655588EA0123601264000000015000
B0500443207469S11655629EA0124501271000000015000
B0500483207485S11655694EA0125601282000000015000
B0500523207527S11655681EA0126701297000000015000
B0500563207510S11655622EA0127901306000000015000
B0501003207445S11655629EA0128901318000000015000
B0501043207438S11655696EA0130301332000000015000
B0501083207481S11655703EA0131301345000000015000
B0501123207485S11655649EA0132801360000000015000
B0501163207430S11655616EA0134101374000000015000
B0501203207380S11655657EA0135401394000000015000
B0501243207388S11655717EA0137001404000000015000
B0501283207432S11655721EA0137501408000000015000
B0501323207441S11655671EA0138901430000000015000
B0501363207390S11655639EA0139901429000000015000
B0501403207333S11655687EA0140101439000000015000
B0501443207343S11655755EA0141401451000000015000
B0501483207385S11655752EA0142301460000000015000
B0501523207381S11655690EA0142901469000000015000
B0501563207321S11655664EA0144101481000000015000
B0502003207274S11655714EA0145501494000000015000
B0502043207295S11655773EA0146301496000000015000
B0502083207339S11655765EA0146901505000000015000
B0502123207342S11655708EA0148001514000000015000
B0502163207290S11655673EA0148801522000000015000
B0502203207229S11655701EA0149501530000000015000
B0502243207212S11655768EA0150201536000000015000
B0502283207248S11655808EA0150401541000000015000
B0502323207289S11655783EA0150901547000000015000
B0502363207272S11655723EA0151601552000000015000
B0502403207204S11655727EA0151901551000000015000
B0502443207183S11655801EA0151801556000000015000
B0502483207216S11655863EA0151801553000000015000
B0502523207261S11655916EA0151001543000000015000
B0502563207311S11655977EA0150001532000000000000
B0503003207355S11656051EA0148801521000000000000
B0503043207391S11656132EA0148101516000000000000
B0503083207421S11656215EA0146901500000000000000
B0503123207445S11656307EA0145401484000000000000
B0503163207471S11656405EA0142901458000000000000
B0503203207495S11656510EA0142001455000000000000
B0503243207510S11656614EA0142001452000000000000
B0503283207511S11656717EA0141701453000000000000
B0503323207507S11656815EA0142001454000000000000
B0503363207498S11656912EA0141901452000000000000
B0503403207498S11657003EA0141601448000000000000
B0503443207499S11657092EA0140801437000000000000
B0503483207497S11657186EA0139401423000000000000
B0503523207486S11657281EA0138601412000000000000
B0503563207471S11657374EA0137701406000000000000
B0504003207447S11657467EA0137501405000000000000
B0504043207419S11657556EA0138001413000000000000
B0504083207386S11657644EA0138901425000000000000
B0504123207350S11657728EA0139301425000000000000
B0504163207308S11657809EA0138401414000000000000
B0504203207261S11657891EA0136801395000000000000
B0504243207213S11657975EA0135701379000000000000
B0504283207165S11658063EA0133801357000000000000
B0504323207117S11658158EA0131701337000000000000
B0504363207070S11658256EA0130201326000000000000
B0504403207024S11658352EA0129201315000000000000
B0504443206977S11658446EA0128101306000000000000
B0504483206929S11658535EA0127801302000000000000
B0504523206882S11658622EA0127101296000000000000
B0504563206836S11658710EA0126101279000000000000
B0505003206791S11658799EA0124601265000000000000
B0505043206745S11658888EA0123801260000000000000
B0505083206702S11658973EA0124001268000000000000
B0505123206665S11659053EA0124401266000000000000
B0505163206628S11659135EA0123401254000000000000
B0505203206592S11659219EA0123501260000000000000
B0505243206580S11659302EA0124901274000000000000
B0505283206597S11659375EA0125901283000000000000
B0505323206635S11659425EA0126101288000000000000
B0505363206684S11659409EA0126401287000000000000
B0505403206687S11659341EA0126001277000000000000
B0505443206623S11659300EA0125101271000000015000
B0505483206544S11659287EA0124601271000000000000
B0505523206463S11659280EA0125301280000000000000
B0505563206385S11659283EA0126901302000000000000
B0506003206348S11659344EA0129101316000000000000
B0506043206392S11659375EA0130801339000000000000
B0506083206409S11659323EA0132201352000000015000
B0506123206361S11659279EA0133401365000000015000
B0506163206305S11659319EA0134801379000000015000
B0506203206324S11659376EA0136301396000000015000
B0506243206363S11659349EA0137601408000000015000
B0506283206332S11659292EA0138501419000000015000
B0506323206264S11659309EA0139801433000000015000
B0506363206240S11659375EA0141501452000000015000
B0506403206271S11659419EA0142901467000000015000
B0506443206306S11659392EA0144301477000000015000
B0506483206289S11659334EA0145401490000000015000
B0506523206225S11659322EA0146501504000000015000
B0506563206192S11659380EA0148101520000000015000
B0507003206224S11659419EA0149401530000000015000
B0507043206255S11659380EA0150601545000000015000
B0507083206224S11659326EA0152001557000000015000
B0507123206159S11659331EA0153401571000000015000
B0507163206136S11659396EA0155101589000000015000
B0507203206167S11659440EA0156501603000000015000
B0507243206207S11659421EA0157701610000000015000
B0507283206202S11659357EA0158401624000000015000
B0507323206147S11659319EA0160501645000000015000
B0507363206099S11659360EA0161501650000000015000
B0507403206121S11659417EA0161801655000000015000
B0507443206160S11659386EA0163001672000000015000
B0507483206132S11659323EA0164401691000000015000
B0507523206067S11659319EA0165801703000000015000
B0507563206036S11659386EA0167301720000000015000
B0508003206069S11659435EA0168801734000000015000
B0508043206104S11659401EA0170101746000000015000
B0508083206077S11659340EA0170801752000000015000
B0508123206011S11659331EA0171901769000000015000
B0508163205967S11659379EA0173901791000000015000
B0508203205976S11659441EA0175201798000000015000
B0508243206020S11659454EA0176101808000000015000
B0508283206043S11659409EA0177001813000000015000
B0508323206012S11659348EA0177601822000000015000
B0508363205948S11659340EA0178901840000000015000
B0508403205904S11659391EA0180001850000000015000
B0508443205909S11659456EA0181401865000000015000
B0508483205950S11659477EA0182701874000000015000
B0508523205976S11659436EA0183401879000000015000
B0508563205946S11659375EA0183701887000000015000
B0509003205885S11659374EA0184901899000000015000
B0509043205850S11659434EA0185401902000000015000
B0509083205867S11659501EA0186201916000000015000
B0509123205911S11659514EA0187301925000000015000
B0509163205933S11659464EA0187501928000000015000
B0509203205893S11659409EA0188301937000000015000
B0509243205828S11659421EA0189401947000000015000
B0509283205807S11659488EA0190101956000000015000
B0509323205847S11659518EA0191001965000000015000
B0509363205865S11659467EA0191601970000000015000
B0509403205822S11659417EA0192401981000000015000
B0509443205761S11659432EA0193301987000000015000
B0509483205746S11659500EA0193801992000000015000
B0509523205782S11659543EA0194502000000000015000
B0509563205822S11659517EA0195002002000000015000
B0510003205812S11659451EA0195402011000000015000
B0510043205757S11659408EA0195902012000000015000
B0510083205691S11659438EA0195902014000000015000
B0510123205648S11659516EA0196202016000000015000
B0510163205608S11659605EA0195802010000000000000
B0510203205565S11659704EA0194601993000000000000
B0510243205521S11659808EA0193601987000000000000
B0510283205473S11659911EA0192801978000000000000
B0510323205426S11700015EA0192001970000000000000
B0510363205379S11700117EA0191401965000000000000
B0510403205332S11700219EA0190401950000000000000
B0510443205287S11700323EA0189001937000000000000
B0510483205240S11700427EA0188501934000000000000
B0510523205194S11700530EA0188001929000000000000
B0510563205150S11700632EA0187601923000000000000
B0511003205107S11700736EA0186601911000000000000
B0511043205064S11700842EA0185501900000000000000
B0511083205025S11700944EA0185901914000000000000
B0511123204989S11701043EA0186001896000000000000
B0511163204951S11701148EA0183601875000000000000
B0511203204912S11701254EA0182201861000000000000
B0511243204876S11701355EA0181401857000000000000
B0511283204840S11701454EA0181401855000000000000
B0511323204801S11701551EA0181501861000000000000
B0511363204759S11701645EA0182201869000000000000
B0511403204716S11701735EA0182701872000000000000
B0511443204672S11701823EA0183301884000000000000
B0511483204629S11701905EA0185101904000000000000
B0511523204587S11701982EA0185901902000000000000
B0511563204543S11702067EA0184001876000000000000
B0512003204492S11702165EA0182401863000000000000
B0512043204442S11702266EA0181501858000000000000
B0512083204391S11702366EA0181401857000000000000
B0512123204340S11702465EA0181301856000000000000
B0512163204290S11702561EA0180701848000000000000
B0512203204238S11702660EA0179801839000000000000
B0512243204187S11702756EA0179701847000000000000
B0512283204139S11702849EA0180601848000000000000
B0512323204095S11702937EA0180301846000000000000
B0512363204049S11703026EA0179601837000000000000
B0512403204004S11703114EA0179201832000000000000
B0512443203956S11703205EA0178301825000000000000
B0512483203907S11703301EA0177801817000000000000
B0512523203859S11703401EA0176701802000000000000
B0512563203810S11703505EA0175401794000000000000
B0513003203761S11703609EA0174901786000000000000
B0513043203712S11703717EA0173901776000000000000
B0513083203664S11703825EA0172901767000000000000
B0513123203618S11703933EA0172601767000000000000
B0513163203573S11704040EA0172401763000000000000
B0513203203530S11704149EA0171401754000000000000
B0513243203486S11704258EA0171301752000000000000
B0513283203442S11704363EA0171301753000000000000
B0513323203399S11704469EA0170901741000000000000
B0513363203356S11704576EA0170001738000000000000
B0513403203312S11704683EA0169401725000000000000
B0513443203264S11704792EA0167801717000000000000
B0513483203220S11704898EA0167801714000000000000
B0513523203177S11705003EA0167501713000000000000
B0513563203134S11705104EA0167701716000000000000
B0514003203092S11705203EA0166901699000000000000
B0514043203048S11705307EA0165101681000000000000
B0514083203003S11705410EA0164101675000000000000
B0514123202960S11705512EA0163801673000000000000
B0514163202919S11705613EA0163701673000000000000
B0514203202879S11705711EA0163201666000000000000
B0514243202841S11705808EA0162501659000000000000
B0514283202800S11705906EA0161101636000000000000
B0514323202754S11706005EA0160201642000000000000
B0514363202708S11706097EA0160801642000000000000
B0514403202663S11706191EA0159801626000000000000
B0514443202623S11706281EA0160301659000000000000
B0514483202588S11706356EA0162601663000000000000
B0514523202554S11706435EA0161501637000000000000
B0514563202514S11706526EA0159401626000000000000
B0515003202476S11706617EA0160501644000000000000
B0515043202470S11706708EA0161401645000000000000
B0515083202488S11706798EA0159601615000000000000
B0515123202497S11706900EA0156901592000000000000
B0515163202493S11707010EA0154801570000000000000
B0515203202479S11707127EA0152701550000000000000
B0515243202461S11707247EA0151201537000000000000
B0515283202438S11707368EA0149501516000000000000
B0515323202410S11707487EA0148001507000000000000
B0515363202375S11707602EA0147901509000000000000
B0515403202345S11707709EA0148101513000000000000
B0515443202337S11707811EA0148901514000000000000
B0515483202331S11707912EA0148001504000000000000
B0515523202312S11708014EA0147201499000000000000
B0515563202282S11708112EA0146701494000000000000
B0516003202237S11708209EA0146201491000000000000
B0516043202193S11708298EA0146501497000000000000
B0516083202150S11708385EA0147001500000000000000
B0516123202104S11708470EA0147701512000000000000
B0516163202082S11708558EA0149001523000000000000
B0516203202107S11708629EA0149501524000000000000
B0516243202156S11708660EA0149601527000000000000
B0516283202211S11708668EA0149301521000000000000
B0516323202269S11708671EA0148901520000000000000
B0516363202329S11708662EA0149001521000000000000
B0516403202386S11708642EA0148601514000000000000
B0516443202436S11708605EA0148201507000000000000
B0516483202432S11708539EA0147201494000000000000
B0516523202355S11708539EA0144301451000000000000
B0516563202275S11708597EA0141301435000000000000
B0517003202202S11708674EA0140201433000000000000
B0517043202137S11708752EA0141201450000000000000
B0517083202073S11708826EA0141901447000000000000
B0517123202009S11708900EA0141701445000000000000
B0517163201944S11708976EA0141901451000000000000
B0517203201890S11709055EA0143001463000000000000
B0517243201851S11709138EA0143601468000000000000
B0517283201816S11709223EA0143901473000000000000
B0517323201813S11709306EA0145201489000000000000
B0517363201863S11709331EA0146901502000000000000
B0517403201879S11709272EA0148001513000000000000
B0517443201831S11709224EA0148401515000000015000
B0517483201760S11709245EA0148701521000000015000
B0517523201749S11709312EA0150001539000000015000
B0517563201794S11709323EA0151301549000000015000
B0518003201798S11709263EA0152101559000000015000
B0518043201738S11709237EA0152901565000000015000
B0518083201682S11709282EA0153401569000000015000
B0518123201686S11709353EA0154001578000000015000
B0518163201731S11709373EA0155001589000000015000
B0518203201757S11709323EA0155901599000000015000
B0518243201730S11709262EA0156901611000000015000
B0518283201665S11709251EA0157501613000000015000
B0518323201618S11709310EA0157601615000000015000
B0518363201632S11709376EA0158601629000000015000
B0518403201679S11709384EA0159501633000000015000
B0518443201697S11709328EA0159901640000000015000
B0518483201653S11709273EA0160601646000000015000
B0518523201583S11709280EA0161001647000000015000
B0518563201549S11709350EA0161401654000000015000
B0519003201570S11709416EA0162101660000000015000
B0519043201618S11709428EA0162901665000000015000
B0519083201625S11709363EA0162901668000000015000
B0519123201560S11709327EA0163201673000000015000
B0519163201483S11709342EA0163401676000000015000
B0519203201409S11709379EA0163801678000000000000
B0519243201352S11709441EA0163401667000000000000
B0519283201298S11709522EA0162001654000000000000
B0519323201246S11709610EA0161501651000000000000
B0519363201192S11709700EA0162001658000000000000
B0519403201163S11709792EA0163401674000000000000
B0519443201166S11709883EA0163301664000000000000
B0519483201163S11709982EA0161401644000000000000
B0519523201141S11710085EA0159301623000000000000
B0519563201101S11710189EA0157701601000000000000
B0520003201050S11710291EA0155401578000000000000
B0520043200995S11710398EA0153401563000000000000
B0520083200943S11710501EA0153401570000000000000
B0520123200895S11710597EA0154401584000000000000
B0520163200850S11710693EA0155501593000000000000
B0520203200811S11710789EA0157601620000000000000
B0520243200797S11710878EA0160401642000000000000
B0520283200843S11710920EA0161301649000000000000
B0520323200880S11710878EA0161901658000000000000
B0520363200855S11710819EA0163001674000000000000
B0520403200798S11710789EA0164601688000000015000
B0520443200752S11710844EA0166001700000000015000
B0520483200785S11710902EA0166201701000000015000
B0520523200833S11710871EA0166601708000000015000
B0520563200804S11710813EA0167601727000000015000
B0521003200735S11710818EA0169201741000000015000
B0521043200696S11710885EA0171001759000000015000
B0521083200715S11710952EA0172301767000000015000
B0521123200764S11710970EA0172701771000000015000
B0521163200795S11710927EA0173201778000000015000
B0521203200759S11710876EA0174001789000000015000
B0521243200691S11710871EA0175201801000000015000
B0521283200651S11710928EA0176901817000000015000
B0521323200674S11710985EA0177801823000000015000
B0521363200724S11710979EA0177701822000000015000
B0521403200741S11710927EA0178101829000000015000
B0521443200702S11710880EA0179201835000000015000
B0521483200633S11710878EA0179701843000000015000
B0521523200581S11710928EA0181201862000000015000
B0521563200595S11710995EA0183001875000000015000
B0522003200644S11710989EA0183601881000000015000
B0522043200642S11710930EA0184501899000000015000
B0522083200581S11710909EA0185901908000000015000
B0522123200526S11710959EA0186801918000000015000
B0522163200529S11711035EA0188201930000000015000
B0522203200573S11711061EA0188701933000000015000
B0522243200604S11711024EA0189401942000000015000
B0522283200576S11710970EA0190801957000000015000
B0522323200511S11710966EA0191601963000000015000
B0522363200460S11711026EA0192201974000000015000
B0522403200465S11711100EA0193401981000000015000
B0522443200508S11711123EA0193901985000000015000
B0522483200543S11711096EA0194401990000000015000
B0522523200526S11711040EA0195101997000000015000
B0522563200464S11711032EA0195802004000000015000
B0523003200422S11711102EA0195702005000000015000
B0523043200440S11711174EA0196902017000000015000
B0523083200485S11711178EA0197402020000000015000
B0523123200481S11711123EA0197702029000000015000
B0523163200418S11711109EA0198102027000000015000
B0523203200356S11711177EA0196802014000000015000
B0523243200306S11711270EA0195502000000000000000
B0523283200257S11711373EA0193901976000000000000
B0523323200205S11711481EA0192201962000000000000
B0523363200150S11711593EA0191001950000000000000
B0523403200093S11711703EA0190001944000000000000
B0523443200036S11711811EA0189501938000000000000
B0523483159979S11711919EA0188301923000000000000
B0523523159920S11712027EA0187001908000000000000
B0523563159863S11712137EA0186101902000000000000
B0524003159809S11712246EA0185401895000000000000
B0524043159754S11712354EA0185101892000000000000
B0524083159702S11712460EA0185001892000000000000
B0524123159650S11712564EA0184501879000000000000
B0524163159595S11712670EA0183401872000000000000
B0524203159539S11712776EA0182801868000000000000
B0524243159485S11712878EA0182801870000000000000
B0524283159432S11712981EA0182401865000000000000
B0524323159380S11713081EA0182001860000000000000
B0524363159324S11713181EA0181701856000000000000
B0524403159270S11713281EA0181701863000000000000
B0524443159221S11713376EA0182401860000000000000
B0524483159172S11713478EA0181401856000000000000
B0524523159121S11713578EA0181701861000000000000
B0524563159075S11713678EA0181001850000000000000
B0525003159029S11713779EA0180301843000000000000
B0525043158982S11713879EA0179901841000000000000
B0525083158932S11713977EA0179401834000000000000
B0525123158883S11714073EA0178801825000000000000
B0525163158835S11714170EA0178001817000000000000
B0525203158789S11714267EA0176901804000000000000
B0525243158743S11714362EA0175901796000000000000
B0525283158696S11714454EA0175301791000000000000
B0525323158653S11714546EA0175001788000000000000
B0525363158610S11714637EA0174001774000000000000
B0525403158567S11714733EA0172701761000000000000
B0525443158525S11714831EA0172001755000000000000
B0525483158486S11714927EA0171401746000000000000
B0525523158445S11715025EA0170101732000000000000
B0525563158402S11715121EA0169101727000000000000
B0526003158354S11715213EA0168601719000000000000
B0526043158301S11715301EA0168001713000000000000
B0526083158246S11715389EA0167401709000000000000
B0526123158190S11715476EA0167101704000000000000
B0526163158137S11715564EA0166301698000000000000
B0526203158085S11715651EA0166501705000000000000
B0526243158054S11715737EA0168501731000000000000
B0526283158074S11715807EA0170501741000000000000
B0526323158129S11715820EA0171401754000000000000
B0526363158163S11715769EA0172701771000000000000
B0526403158120S11715719EA0173401769000000000000
B0526443158043S11715724EA0172801767000000000000
B0526483157968S11715747EA0173001771000000000000
B0526523157896S11715790EA0172801762000000000000
B0526563157836S11715864EA0170501732000000000000
B0527003157779S11715954EA0167601704000000000000
B0527043157719S11716048EA0166201695000000000000
B0527083157660S11716139EA0165801695000000000000
B0527123157601S11716223EA0166701710000000000000
B0527163157545S11716306EA0168201722000000000000
B0527203157495S11716391EA0168901727000000000000
B0527243157450S11716483EA0168701723000000000000
B0527283157407S11716579EA0169501738000000000000
B0527323157389S11716670EA0171101750000000000000
B0527363157431S11716712EA0171601749000000000000
B0527403157459S11716659EA0171201745000000000000
B0527443157409S11716604EA0170901748000000015000
B0527483157331S11716613EA0171201748000000000000
B0527523157262S11716666EA0170501737000000000000
B0527563157210S11716748EA0169401729000000000000
B0528003157166S11716841EA0167601708000000000000
B0528043157123S11716941EA0166201690000000000000
B0528083157079S11717046EA0165001678000000000000
B0528123157033S11717153EA0163701664000000000000
B0528163156989S11717261EA0162401654000000000000
B0528203156945S11717368EA0161301641000000000000
B0528243156904S11717478EA0160101633000000000000
B0528283156860S11717584EA0159401625000000000000
B0528323156816S11717691EA0158201616000000000000
B0528363156776S11717796EA0157701610000000000000
B0528403156737S11717896EA0157501604000000000000
B0528443156696S11717995EA0156501597000000000000
B0528483156657S11718091EA0155901589000000000000
B0528523156618S11718189EA0154901577000000000000
B0528563156579S11718288EA0153201557000000000000
B0529003156536S11718389EA0151301540000000000000
B0529043156483S11718483EA0149901526000000000000
B0529083156429S11718576EA0148401511000000000000
B0529123156378S11718670EA0147701497000000000000
B0529163156327S11718763EA0146201483000000000000
B0529203156284S11718861EA0144901475000000000000
B0529243156248S11718960EA0144001462000000000000
B0529283156214S11719058EA0143601462000000000000
B0529323156206S11719157EA0144201470000000000000
B0529363156221S11719247EA0145101483000000000000
B0529403156237S11719329EA0146801499000000000000
B0529443156271S11719394EA0148001511000000000000
B0529483156322S11719389EA0148601510000000000000
B0529523156308S11719325EA0148401509000000000000
B0529563156241S11719313EA0148401509000000000000
B0530003156169S11719344EA0148601518000000000000
B0530043156105S11719390EA0150201534000000000000
B0530083156109S11719456EA0151901547000000000000
B0530123156152S11719447EA0152501551000000015000
B0530163156137S11719386EA0152801553000000015000
B0530203156071S11719372EA0153401564000000015000
B0530243156005S11719400EA0154301574000000000000
B0530283155970S11719464EA0155001580000000000000
B0530323156000S11719511EA0155101579000000000000
B0530363156045S11719478EA0155201585000000015000
B0530403156067S11719408EA0155801592000000015000
B0530443156048S11719343EA0157101611000000015000
B0530483155981S11719343EA0158101613000000015000
B0530523155950S11719411EA0158301615000000015000
B0530563155984S11719456EA0159001628000000015000
B0531003156028S11719435EA0159601634000000015000
B0531043156067S11719390EA0160001639000000000000
B0531083156083S11719330EA0161101649000000000000
B0531123156037S11719283EA0161501650000000000000
B0531163155970S11719308EA0161001644000000000000
B0531203155907S11719360EA0160701644000000000000
B0531243155849S11719422EA0161201650000000000000
B0531283155794S11719490EA0161601655000000000000
B0531323155775S11719563EA0162201659000000000000
B0531363155818S11719582EA0162601667000000000000
B0531403155857S11719541EA0163101667000000000000
B0531443155877S11719482EA0163201668000000000000
B0531483155838S11719416EA0162501656000000000000
B0531523155753S11719409EA0161801654000000000000
B0531563155675S11719459EA0161401640000000000000
B0532003155607S11719533EA0159501622000000000000
B0532043155548S11719621EA0157601607000000000000
B0532083155493S11719718EA0156201591000000000000
B0532123155438S11719816EA0154901578000000000000
B0532163155383S11719916EA0153701564000000000000
B0532203155329S11720017EA0152301546000000000000
B0532243155272S11720118EA0150601529000000000000
B0532283155212S11720215EA0149701528000000000000
B0532323155155S11720308EA0150801543000000000000
B0532363155118S11720403EA0151801543000000000000
B0532403155079S11720499EA0150701531000000000000
B0532443155028S11720594EA0149701523000000000000
B0532483154973S11720685EA0148701511000000000000
B0532523154915S11720777EA0147201495000000000000
B0532563154857S11720875EA0146101485000000000000
B0533003154796S11720966EA0146401497000000000000
B0533043154735S11721045EA0147301498000000000000
B0533083154675S11721129EA0146301481000000000000
B0533123154615S11721219EA0144601469000000000000
B0533163154559S11721310EA0143901462000000000000
B0533203154502S11721400EA0142401440000000000000
B0533243154443S11721493EA0140601426000000000000
B0533283154389S11721590EA0139301409000000000000
B0533323154349S11721692EA0138801405000000000000
B0533363154320S11721796EA0138401401000000000000
B0533403154297S11721904EA0137701393000000000000
B0533443154273S11722016EA0136001370000000000000
B0533483154251S11722136EA0134001355000000000000
B0533523154230S11722255EA0132701340000000000000
B0533563154207S11722375EA0131201327000000000000
B0534003154193S11722494EA0130701322000000000000
B0534043154202S11722606EA0130501323000000000000
B0534083154220S11722708EA0130601326000000000000
B0534123154243S11722802EA0130301317000000000000
B0534163154274S11722893EA0129101304000000000000
B0534203154317S11722977EA0128701306000000000000
B0534243154364S11723046EA0129301314000000000000
B0534283154416S11723096EA0129601311000000000000
B0534323154475S11723091EA0129501313000000000000
B0534363154508S11723031EA0129701317000000000000
B0534403154515S11722953EA0130101323000000000000
B0534443154467S11722890EA0130601324000000000000
B0534483154389S11722879EA0130001312000000015000
B0534523154304S11722892EA0128601297000000000000
B0534563154216S11722905EA0128001298000000000000
B0535003154130S11722921EA0128001295000000000000
B0535043154044S11722948EA0127001284000000000000
B0535083153961S11722986EA0126201276000000000000
B0535123153878S11723027EA0125201267000000000000
B0535163153793S11723070EA0124401257000000000000
B0535203153710S11723117EA0123401243000000000000
B0535243153628S11723176EA0121901226000000000000
B0535283153550S11723247EA0120701217000000000000
B0535323153479S11723324EA0119801209000000000000
B0535363153416S11723407EA0119401206000000000000
B0535403153355S11723491EA0118901203000000000000
B0535443153296S11723572EA0118801202000000000000
B0535483153234S11723651EA0118501196000000000000
B0535523153173S11723731EA0117801190000000000000
B0535563153119S11723809EA0118101201000000000000
B0536003153064S11723876EA0119201210000000000000
B0536043153008S11723940EA0120101217000000000000
B0536083152954S11724005EA0120301217000000000000
B0536123152899S11724069EA0120401217000000000000
B0536163152846S11724135EA0120701220000000000000
B0536203152838S11724216EA0121001226000000000000
B0536243152881S11724255EA0121901235000000000000
B0536283152915S11724219EA0122601239000000000000
B0536323152883S11724156EA0122701238000000015000
B0536363152807S11724152EA0123101249000000000000
B0536403152751S11724206EA0123901252000000000000
B0536443152768S11724271EA0124401261000000015000
B0536483152813S11724266EA0125101265000000015000
B0536523152813S11724204EA0125301266000000015000
B0536563152751S11724165EA0125501275000000015000
B0537003152677S11724167EA0126301279000000015000
B0537043152623S11724225EA0126101274000000015000
B0537083152626S11724304EA0125101261000000015000
B0537123152679S11724330EA0124401258000000015000
B0537163152734S11724307EA0124101256000000015000
B0537203152786S11724274EA0124001254000000015000
B0537243152822S11724216EA0124301261000000015000
B0537283152826S11724139EA0124701265000000015000
B0537323152785S11724074EA0125601275000000015000
B0537363152712S11724087EA0127001291000000015000
B0537403152707S11724158EA0128701307000000015000
B0537443152750S11724174EA0129301307000000015000
B0537483152766S11724125EA0129201307000000015000
B0537523152717S11724074EA0129201304000000015000
B0537563152642S11724084EA0129901320000000015000
B0538003152616S11724153EA0131701336000000015000
B0538043152653S11724195EA0131601330000000015000
B0538083152690S11724164EA0131901337000000015000
B0538123152665S11724105EA0132401340000000015000
B0538163152595S11724091EA0133201350000000015000
B0538203152542S11724141EA0133901357000000015000
B0538243152558S11724204EA0134201357000000015000
B0538283152604S11724192EA0133801357000000015000
B0538323152618S11724138EA0134501362000000015000
B0538363152571S11724089EA0135401368000000015000
B0538403152500S11724097EA0136001375000000015000
B0538443152434S11724148EA0135301357000000015000
B0538483152371S11724222EA0133101340000000015000
B0538523152308S11724307EA0132001331000000000000
B0538563152244S11724391EA0130801317000000000000
B0539003152179S11724481EA0129101301000000000000
B0539043152115S11724572EA0127501286000000000000
B0539083152051S11724661EA0126401276000000000000
B0539123151988S11724749EA0126001276000000000000
B0539163151938S11724833EA0128201316000000000000
B0539203151967S11724888EA0132201349000000000000
B0539243152014S11724849EA0133601356000000015000
B0539283151994S11724773EA0134601364000000015000
B0539323151928S11724786EA0134901364000000015000
B0539363151951S11724846EA0135701381000000015000
B0539403152006S11724830EA0137001390000000015000
B0539443152005S11724754EA0137901402000000030000
B0539483151944S11724715EA0138901408000000015000
B0539523151884S11724750EA0139201412000000015000
B0539563151884S11724814EA0140101425000000015000
B0540003151938S11724828EA0140501424000000015000
B0540043151971S11724771EA0141101439000000030000
B0540083151933S11724702EA0142201444000000030000
B0540123151864S11724690EA0142601448000000015000
B0540163151806S11724728EA0142901452000000015000
B0540203151773S11724789EA0142501439000000015000
B0540243151737S11724863EA0140601421000000015000
B0540283151690S11724942EA0140201423000000000000
B0540323151638S11725024EA0140301423000000000000
B0540363151583S11725107EA0140701437000000000000
B0540403151531S11725180EA0143301465000000000000
B0540443151529S11725256EA0145001473000000000000
B0540483151580S11725272EA0145301473000000000000
B0540523151604S11725214EA0145001469000000015000
B0540563151569S11725141EA0144801480000000015000
B0541003151505S11725114EA0147001508000000015000
B0541043151459S11725155EA0149501525000000015000
B0541083151470S11725209EA0150201528000000015000
B0541123151513S11725209EA0150001525000000015000
B0541163151525S11725145EA0149801529000000015000
B0541203151489S11725087EA0151101543000000015000
B0541243151425S11725083EA0151801547000000015000
B0541283151394S11725144EA0152501555000000015000
B0541323151431S11725172EA0153601567000000015000
B0541363151451S11725122EA0154401576000000015000
B0541403151408S11725074EA0155201583000000015000
B0541443151346S11725094EA0155301582000000015000
B0541483151325S11725162EA0155701590000000015000
B0541523151355S11725211EA0156601599000000015000
B0541563151398S11725200EA0157401604000000015000
B0542003151399S11725142EA0158101610000000015000
B0542043151344S11725111EA0158801616000000015000
B0542083151279S11725141EA0158801613000000015000
B0542123151231S11725209EA0158101606000000015000
B0542163151188S11725291EA0156701588000000000000
B0542203151147S11725386EA0154801569000000000000
B0542243151108S11725487EA0153801561000000000000
B0542283151067S11725591EA0153101551000000000000
B0542323151019S11725696EA0152001543000000000000
B0542363150969S11725802EA0151401537000000000000
B0542403150914S11725909EA0150501526000000000000
B0542443150862S11726017EA0150101524000000000000
B0542483150813S11726121EA0149201515000000000000
B0542523150766S11726223EA0148401509000000000000
B0542563150718S11726319EA0148301508000000000000
B0543003150668S11726411EA0148201508000000000000
B0543043150621S11726502EA0148401511000000000000
B0543083150581S11726596EA0148401508000000000000
B0543123150545S11726687EA0149201528000000000000
B0543163150506S11726771EA0150901538000000000000
B0543203150475S11726858EA0151001534000000000000
B0543243150452S11726948EA0150801536000000000000
B0543283150432S11727034EA0150901535000000000000
B0543323150425S11727118EA0150701532000000000000
B0543363150454S11727178EA0151001538000000000000
B0543403150499S11727190EA0151401539000000000000
B0543443150530S11727143EA0150201530000000000000
B0543483150497S11727081EA0149501523000000015000
B0543523150423S11727085EA0148601513000000015000
B0543563150361S11727144EA0147501501000000015000
B0544003150307S11727219EA0146001483000000000000
B0544043150254S11727299EA0145001475000000000000
B0544083150202S11727384EA0144201467000000000000
B0544123150155S11727472EA0143701462000000000000
B0544163150108S11727560EA0143501460000000000000
B0544203150053S11727644EA0143201457000000000000
B0544243149994S11727724EA0142601447000000000000
B0544283149938S11727811EA0142001442000000000000
B0544323149886S11727902EA0141001428000000000000
B0544363149835S11727996EA0139601416000000000000
B0544403149786S11728093EA0138701409000000000000
B0544443149739S11728190EA0138401406000000000000
B0544483149693S11728285EA0137801399000000000000
B0544523149648S11728379EA0136601386000000000000
B0544563149601S11728477EA0135801374000000000000
B0545003149553S11728576EA0134501360000000000000
B0545043149511S11728675EA0133801357000000000000
B0545083149477S11728769EA0133701358000000000000
B0545123149445S11728862EA0133201350000000000000
B0545163149412S11728957EA0131601327000000000000
B0545203149372S11729055EA0130301320000000000000
B0545243149320S11729146EA0130301322000000000000
B0545283149264S11729232EA0130601327000000000000
B0545323149211S11729313EA0131601334000000000000
B0545363149180S11729396EA0131501326000000000000
B0545403149138S11729475EA0130501317000000000000
B0545443149093S11729557EA0129401305000000000000
B0545483149051S11729646EA0128101293000000000000
B0545523149009S11729737EA0127201287000000000000
B0545563148963S11729822EA0127101288000000000000
B0546003148915S11729904EA0126301276000000000000
B0546043148870S11729991EA0125101258000000000000
B0546083148821S11730081EA0123501241000000000000
B0546123148770S11730171EA0122301235000000000000
B0546163148721S11730258EA0122001232000000000000
B0546203148664S11730335EA0122601247000000000000
B0546243148617S11730406EA0123801249000000000000
B0546283148631S11730474EA0123401241000000000000
B0546323148677S11730474EA0121601216000000000000
B0546363148688S11730406EA0119801210000000000000
B0546403148671S11730331EA0120501220000000000000
B0546443148627S11730271EA0121101220000000015000
B0546483148553S11730261EA0120101204000000015000
B0546523148484S11730309EA0119301201000000015000
B0546563148430S11730376EA0119201201000000000000
B0547003148384S11730454EA0117801176000000000000
B0547043148341S11730547EA0115101149000000000000
B0547083148304S11730647EA0113001130000000000000
B0547123148266S11730745EA0111901129000000000000
B0547163148229S11730838EA0112601137000000000000
B0547203148197S11730930EA0112201127000000000000
B0547243148167S11731025EA0110901114000000000000
B0547283148135S11731120EA0110001107000000000000
B0547323148103S11731210EA0110201111000000000000
B0547363148071S11731295EA0109001092000000000000
B0547403148031S11731384EA0107601076000000000000
B0547443147993S11731475EA0106301068000000000000
B0547483147956S11731562EA0106201069000000000000
B0547523147919S11731645EA0105801061000000000000
B0547563147882S11731730EA0104701049000000000000
B0548003147847S11731815EA0103601039000000000000
B0548043147811S11731901EA0102801029000000000000
B0548083147772S11731984EA0101501015000000000000
B0548123147734S11732070EA0100601008000000000000
B0548163147698S11732151EA0100201000000000000000
B0548203147664S11732234EA0098800983000000000000
B0548243147642S11732324EA0097000965000000000000
B0548283147616S11732417EA0095300948000000000000
B0548323147583S11732511EA0093700933000000000000
B0548363147542S11732603EA0092600924000000000000
B0548403147500S11732693EA0092900930000000000000
B0548443147461S11732779EA0093400933000000000000
B0548483147439S11732864EA0093900943000000000000
B0548523147486S11732902EA0095200954000000000000
B0548563147508S11732842EA0096400973000000000000
B0549003147456S11732803EA0098800996000000015000
B0549043147396S11732842EA0100001001000000015000
B0549083147395S11732915EA0100501008000000015000
B0549123147449S11732931EA0101101014000000015000
B0549163147479S11732872EA0102001028000000015000
B0549203147436S11732820EA0103501044000000015000
B0549243147368S11732854EA0104301046000000015000
B0549283147356S11732936EA0105001058000000015000
B0549323147404S11732967EA0106601074000000015000
B0549363147433S11732911EA0106901074000000015000
B0549403147388S11732851EA0107701088000000015000
B0549443147316S11732848EA0108901097000000015000
B0549483147275S11732914EA0109501101000000015000
B0549523147316S11732953EA0110001107000000015000
B0549563147331S11732893EA0111001121000000015000
B0550003147270S11732877EA0112201130000000015000
B0550043147232S11732941EA0112401130000000015000
B0550083147258S11733006EA0112801141000000015000
B0550123147299S11732980EA0113501145000000015000
B0550163147254S11732928EA0114201155000000015000
B0550203147192S11732968EA0115201167000000015000
B0550243147191S11733045EA0116401176000000015000
B0550283147239S11733066EA0116801176000000015000
B0550323147264S11733015EA0116601177000000015000
B0550363147236S11732950EA0117001183000000015000
B0550403147174S11732911EA0117801192000000015000
B0550443147111S11732957EA0118101190000000015000
B0550483147127S11733030EA0118901204000000015000
B0550523147162S11732991EA0120701228000000015000
B0550563147114S11732950EA0122301237000000030000
B0551003147058S11732992EA0123001246000000015000
B0551043147070S11733054EA0123601249000000015000
B0551083147119S11733043EA0124301263000000015000
B0551123147117S11732983EA0125401272000000030000
B0551163147058S11732950EA0125801273000000030000
B0551203146993S11732988EA0125801274000000030000
B0551243146979S11733062EA0126601292000000030000
B0551283147017S11733101EA0128101301000000015000
B0551323147058S11733082EA0127801295000000015000
B0551363147084S11733026EA0127101293000000015000
B0551403147072S11732954EA0127401295000000015000
B0551443147010S11732911EA0128401309000000015000
B0551483146953S11732958EA0129801323000000015000
B0551523146980S11733009EA0131001332000000015000
B0551563147020S11732984EA0131801339000000015000
B0552003146996S11732926EA0132401346000000015000
B0552043146928S11732907EA0133201356000000015000
B0552083146872S11732950EA0133901359000000015000
B0552123146879S11733017EA0134101361000000015000
B0552163146928S11733033EA0134401365000000015000
B0552203146970S11732998EA0134801365000000015000
B0552243146963S11732922EA0134901369000000015000
B0552283146897S11732888EA0136201388000000015000
B0552323146849S11732939EA0137201389000000015000
B0552363146874S11732997EA0137301396000000015000
B0552403146927S11732997EA0138301410000000015000
B0552443146952S11732940EA0139701422000000015000
B0552483146913S11732883EA0140801431000000015000
B0552523146851S11732906EA0141501437000000015000
B0552563146841S11732974EA0141501436000000015000
B0553003146887S11733000EA0142401451000000015000
B0553043146906S11732941EA0143401459000000015000
B0553083146859S11732885EA0144001465000000015000
B0553123146796S11732906EA0144701469000000015000
B0553163146780S11732976EA0144801471000000015000
B0553203146818S11733022EA0145401488000000015000
B0553243146859S11733000EA0147001496000000015000
B0553283146846S11732931EA0147201498000000015000
B0553323146781S11732913EA0148201512000000015000
B0553363146745S11732966EA0149101517000000015000
B0553403146772S11733014EA0149901528000000015000
B0553443146815S11732991EA0150601534000000015000
B0553483146811S11732919EA0150901542000000015000
B0553523146758S11732876EA0152301556000000015000
B0553563146699S11732898EA0152701553000000015000
B0554003146662S11732963EA0151601537000000015000
B0554043146627S11733043EA0150801537000000015000
B0554083146591S11733126EA0150801534000000000000
B0554123146555S11733212EA0150101523000000000000
B0554163146517S11733304EA0148301502000000000000
B0554203146481S11733400EA0147101494000000000000
B0554243146443S11733495EA0146601491000000000000
B0554283146407S11733591EA0145901483000000000000
B0554323146372S11733690EA0144701469000000000000
B0554363146334S11733791EA0143201453000000000000
B0554403146296S11733894EA0142101443000000000000
B0554443146261S11733995EA0141801442000000000000
B0554483146225S11734098EA0141601441000000000000
B0554523146188S11734196EA0141901444000000000000
B0554563146155S11734291EA0141501435000000000000
B0555003146118S11734388EA0140401427000000000000
B0555043146081S11734486EA0140201427000000000000
B0555083146043S11734583EA0139901417000000000000
B0555123146008S11734682EA0138401402000000000000
B0555163145970S11734782EA0137301387000000000000
B0555203145936S11734883EA0136001376000000000000
B0555243145904S11734985EA0135001367000000000000
B0555283145873S11735086EA0134201358000000000000
B0555323145845S11735188EA0133201350000000000000
B0555363145819S11735290EA0132401340000000000000
B0555403145795S11735394EA0131201326000000000000
B0555443145770S11735500EA0129801314000000000000
B0555483145744S11735602EA0128901299000000000000
B0555523145723S11735704EA0128001297000000000000
B0555563145702S11735801EA0128401307000000000000
B0556003145685S11735895EA0129501313000000000000
B0556043145672S11735987EA0129401311000000000000
B0556083145661S11736078EA0129201308000000000000
B0556123145646S11736172EA0128601304000000000000
B0556163145629S11736263EA0128601304000000000000
B0556203145611S11736355EA0128201296000000000000
B0556243145594S11736449EA0127801295000000000000
B0556283145613S11736532EA0128001297000000000000
B0556323145666S11736545EA0128201299000000000000
B0556363145713S11736510EA0127901293000000000000
B0556403145757S11736467EA0127301287000000000000
B0556443145730S11736402EA0127101281000000000000
B0556483145650S11736404EA0126501279000000000000
B0556523145575S11736450EA0126201276000000000000
B0556563145505S11736504EA0125801270000000000000
B0557003145446S11736575EA0125101260000000000000
B0557043145399S11736662EA0123101235000000000000
B0557083145363S11736759EA0121401222000000000000
B0557123145337S11736861EA0120901216000000000000
B0557163145323S11736962EA0120801221000000000000
B0557203145311S11737056EA0121801237000000000000
B0557243145303S11737138EA0124001257000000000000
B0557283145298S11737212EA0124001245000000000000
B0557323145302S11737292EA0122101221000000000000
B0557363145319S11737379EA0119701198000000000000
B0557403145349S11737470EA0117901185000000000000
B0557443145389S11737552EA0117101178000000000000
B0557483145431S11737632EA0115901163000000000000
B0557523145471S11737716EA0113901143000000000000
B0557563145509S11737804EA0112501131000000000000
B0558003145549S11737889EA0112401132000000000000
B0558043145584S11737972EA0112901143000000000000
B0558083145622S11738048EA0114301151000000000000
B0558123145684S11738055EA0116001175000000000000
B0558163145679S11737985EA0118401199000000015000
B0558203145618S11737988EA0119901207000000015000
B0558243145611S11738050EA0119901207000000015000
B0558283145661S11738044EA0120701222000000015000
B0558323145658S11737973EA0121801232000000015000
B0558363145596S11737949EA0122501235000000015000
B0558403145544S11737996EA0122501236000000015000
B0558443145566S11738050EA0123101243000000015000
B0558483145598S11738006EA0123901256000000015000
B0558523145555S11737957EA0125001264000000015000
B0558563145496S11737984EA0125101262000000015000
B0559003145470S11738053EA0125201266000000015000
B0559043145503S11738094EA0125801272000000015000
B0559083145542S11738046EA0125701273000000015000
B0559123145527S11737977EA0126901286000000015000
B0559163145467S11737999EA0127001279000000015000
B0559203145490S11738058EA0126601289000000015000
B0559243145535S11738044EA0128801308000000015000
B0559283145522S11737981EA0129101306000000015000
B0559323145453S11737983EA0129101305000000015000
B0559363145431S11738049EA0129401311000000015000
B0559403145477S11738058EA0130701329000000015000
B0559443145489S11737996EA0131401330000000015000
B0559483145436S11737947EA0131201332000000015000
B0559523145371S11737970EA0131801337000000015000
B0559563145355S11738033EA0132101340000000015000
B0600003145392S11738070EA0132701346000000015000
B0600043145440S11738055EA0133301348000000015000
B0600083145455S11737994EA0133501352000000015000
B0600123145411S11737937EA0133401346000000015000
B0600163145341S11737954EA0133001346000000015000
B0600203145314S11738027EA0133201345000000015000
B0600243145307S11738106EA0133901360000000015000
B0600283145307S11738181EA0134401359000000015000
B0600323145308S11738265EA0133701351000000015000
B0600363145314S11738352EA0133501354000000015000
B0600403145315S11738441EA0134701370000000000000
B0600443145308S11738525EA0136501390000000000000
B0600483145347S11738561EA0137901397000000000000
B0600523145373S11738519EA0137601387000000015000
B0600563145338S11738466EA0137001383000000015000
B0601003145269S11738482EA0136801390000000015000
B0601043145230S11738555EA0137701399000000015000
B0601083145208S11738635EA0138501408000000015000
B0601123145191S11738716EA0138901408000000000000
B0601163145211S11738779EA0138801405000000000000
B0601203145258S11738759EA0137601386000000015000
B0601243145229S11738692EA0136201372000000015000
B0601283145154S11738672EA0135101365000000015000
B0601323145080S11738707EA0134601362000000015000
B0601363145041S11738787EA0134201357000000015000
B0601403145026S11738880EA0134101360000000015000
B0601443145017S11738972EA0134101359000000015000
B0601483145011S11739065EA0133501345000000015000
B0601523145002S11739164EA0131601325000000000000
B0601563144985S11739267EA0129701308000000000000
B0602003144965S11739371EA0128701301000000000000
B0602043144948S11739474EA0127901292000000000000
B0602083144930S11739575EA0127501291000000000000
B0602123144914S11739673EA0127501292000000000000
B0602163144911S11739766EA0127501290000000000000
B0602203144908S11739861EA0126901282000000000000
B0602243144898S11739957EA0125701268000000000000
B0602283144881S11740053EA0124601257000000000000
B0602323144865S11740151EA0123201242000000000000
B0602363144849S11740247EA0121801230000000000000
B0602403144831S11740341EA0121401223000000000000
B0602443144812S11740433EA0120701216000000000000
B0602483144792S11740525EA0119801205000000000000
B0602523144774S11740618EA0119501211000000000000
B0602563144766S11740698EA0120801225000000000000
B0603003144809S11740715EA0122201234000000000000
B0603043144803S11740642EA0122701240000000000000
B0603083144731S11740623EA0123301245000000015000
B0603123144677S11740676EA0123001236000000015000
B0603163144654S11740752EA0123001243000000015000
B0603203144695S11740783EA0123501251000000015000
B0603243144716S11740726EA0124801268000000015000
B0603283144656S11740683EA0125601271000000015000
B0603323144588S11740713EA0125601272000000015000
B0603363144579S11740775EA0125801274000000015000
B0603403144625S11740785EA0126201281000000015000
B0603443144635S11740724EA0127501298000000015000
B0603483144574S11740684EA0128101296000000030000
B0603523144510S11740726EA0128001298000000030000
B0603563144514S11740788EA0129001314000000030000
B0604003144561S11740783EA0130001319000000015000
B0604043144557S11740711EA0130601329000000030000
B0604083144485S11740683EA0131401329000000015000
B0604123144427S11740732EA0131501333000000015000
B0604163144436S11740794EA0132601352000000015000
B0604203144484S11740797EA0133501356000000015000
B0604243144496S11740732EA0134201367000000015000
B0604283144436S11740685EA0134801364000000015000
B0604323144366S11740716EA0134801370000000015000
B0604363144371S11740775EA0136201384000000015000
B0604403144418S11740761EA0136701388000000015000
B0604443144413S11740690EA0137501400000000015000
B0604483144348S11740657EA0138401401000000015000
B0604523144294S11740705EA0138501402000000030000
B0604563144320S11740752EA0139101417000000015000
B0605003144345S11740701EA0140101424000000015000
B0605043144287S11740655EA0140201421000000030000
B0605083144225S11740703EA0139901422000000030000
B0605123144241S11740759EA0140701434000000015000
B0605163144287S11740746EA0141401440000000015000
B0605203144307S11740681EA0142101448000000015000
B0605243144268S11740614EA0143001456000000015000
B0605283144193S11740607EA0143001448000000015000
B0605323144145S11740672EA0143001450000000015000
B0605363144164S11740733EA0143201456000000015000
B0605403144215S11740729EA0143701462000000015000
B0605443144238S11740663EA0144201467000000015000
B0605483144222S11740586EA0145001478000000015000
B0605523144160S11740546EA0145601477000000015000
B0605563144090S11740576EA0144901464000000015000
B0606003144053S11740651EA0143601451000000015000
B0606043144028S11740741EA0142701448000000015000
B0606083144007S11740833EA0143701467000000000000
B0606123143998S11740922EA0144301469000000000000
B0606163143986S11741013EA0144701474000000000000
B0606203143971S11741103EA0145701495000000000000
B0606243143984S11741181EA0147801513000000000000
B0606283144034S11741171EA0149601531000000000000
B0606323144021S11741110EA0151101546000000015000
B0606363143960S11741116EA0152101549000000015000
B0606403143942S11741187EA0152501559000000015000
B0606443143986S11741223EA0153801576000000015000
B0606483144025S11741188EA0155501591000000015000
B0606523144006S11741129EA0156901604000000015000
B0606563143945S11741126EA0158101612000000015000
B0607003143917S11741195EA0159001622000000015000
B0607043143958S11741238EA0159901635000000015000
B0607083144001S11741197EA0161401652000000015000
B0607123143985S11741134EA0163001669000000015000
B0607163143921S11741127EA0164401678000000015000
B0607203143885S11741192EA0165101688000000015000
B0607243143916S11741248EA0166401705000000015000
B0607283143965S11741229EA0167801720000000015000
B0607323143963S11741164EA0169001733000000015000
B0607363143903S11741144EA0170301742000000015000
B0607403143865S11741205EA0171201748000000015000
B0607443143907S11741251EA0171701758000000015000
B0607483143947S11741201EA0172701770000000015000
B0607523143910S11741143EA0174101787000000015000
B0607563143843S11741147EA0175701801000000015000
B0608003143804S11741209EA0176601808000000015000
B0608043143825S11741275EA0177301818000000015000
B0608083143874S11741273EA0179401844000000015000
B0608123143884S11741216EA0181001851000000015000
B0608163143834S11741177EA0181501860000000015000
B0608203143773S11741204EA0182101864000000015000
B0608243143750S11741273EA0182401867000000015000
B0608283143781S11741330EA0182801874000000015000
B0608323143832S11741331EA0183901891000000015000
B0608363143841S11741273EA0185201897000000015000
B0608403143787S11741240EA0185701905000000015000
B0608443143733S11741279EA0187001914000000015000
B0608483143720S11741355EA0187001909000000015000
B0608523143761S11741411EA0187301922000000015000
B0608563143813S11741400EA0188901939000000015000
B0609003143826S11741344EA0189801941000000015000
B0609043143781S11741295EA0189701944000000015000
B0609083143716S11741308EA0191101964000000015000
B0609123143677S11741372EA0192001965000000015000
B0609163143691S11741448EA0192301974000000015000
B0609203143739S11741477EA0193501988000000015000
B0609243143778S11741444EA0194401991000000015000
B0609283143777S11741381EA0194101989000000015000
B0609323143731S11741327EA0194501998000000015000
B0609363143666S11741330EA0196002013000000015000
B0609403143631S11741394EA0197102019000000015000
B0609443143659S11741459EA0197202025000000015000
B0609483143709S11741463EA0198302038000000015000
B0609523143733S11741412EA0198802039000000015000
B0609563143699S11741356EA0198802043000000015000
B0610003143634S11741351EA0199702057000000015000
B0610043143582S11741400EA0200702057000000015000
B0610083143568S11741481EA0200402050000000015000
B0610123143573S11741573EA0199302041000000015000
B0610163143575S11741675EA0198402032000000000000
B0610203143568S11741781EA0196802014000000000000
B0610243143555S11741893EA0195702006000000000000
B0610283143539S11742002EA0195402000000000000000
B0610323143522S11742113EA0194301988000000000000
B0610363143503S11742226EA0193101973000000000000
B0610403143487S11742344EA0191501958000000000000
B0610443143474S11742466EA0190501950000000000000
B0610483143458S11742591EA0189801944000000000000
B0610523143436S11742715EA0190001951000000000000
B0610563143414S11742832EA0191201965000000000000
B0611003143391S11742939EA0192201974000000000000
B0611043143367S11743043EA0192401973000000000000
B0611083143344S11743144EA0192601978000000000000
B0611123143321S11743238EA0192901979000000000000
B0611163143297S11743333EA0192501973000000000000
B0611203143273S11743427EA0192101969000000000000
B0611243143248S11743519EA0192001970000000000000
B0611283143222S11743612EA0192201973000000000000
B0611323143191S11743704EA0191801965000000000000
B0611363143158S11743803EA0190301945000000000000
B0611403143132S11743911EA0189201936000000000000
B0611443143105S11744018EA0188301925000000000000
B0611483143079S11744128EA0187401918000000000000
B0611523143054S11744234EA0186701908000000000000
B0611563143035S11744342EA0185401896000000000000
B0612003143014S11744451EA0184001883000000000000
B0612043142990S11744561EA0183401878000000000000
B0612083142966S11744666EA0183401882000000000000
B0612123142941S11744769EA0184701898000000000000
B0612163142914S11744863EA0187301925000000000000
B0612203142893S11744948EA0189001945000000000000
B0612243142937S11744982EA0190801957000000000000
B0612283142957S11744922EA0191501964000000000000
B0612323142909S11744873EA0191901967000000000000
B0612363142838S11744891EA0191901966000000000000
B0612403142779S11744947EA0192201975000000000000
B0612443142747S11745019EA0193101981000000000000
B0612483142733S11745099EA0192901975000000000000
B0612523142714S11745185EA0191901963000000000000
B0612563142686S11745276EA0190601950000000000000
B0613003142656S11745373EA0189201930000000000000
B0613043142623S11745474EA0187801922000000000000
B0613083142586S11745576EA0187301920000000000000
B0613123142552S11745673EA0187701928000000000000
B0613163142519S11745770EA0187801922000000000000
B0613203142482S11745866EA0187201917000000000000
B0613243142446S11745961EA0186701911000000000000
B0613283142411S11746058EA0185701903000000000000
B0613323142376S11746156EA0185001891000000000000
B0613363142340S11746254EA0183801879000000000000
B0613403142307S11746356EA0182501864000000000000
B0613443142279S11746460EA0181001847000000000000
B0613483142255S11746568EA0179001825000000000000
B0613523142227S11746677EA0177001805000000000000
B0613563142200S11746787EA0175601794000000000000
B0614003142173S11746894EA0175301795000000000000
B0614043142145S11746997EA0175301795000000000000
B0614083142119S11747096EA0175201794000000000000
B0614123142093S11747193EA0174601781000000000000
B0614163142065S11747294EA0173301771000000000000
B0614203142036S11747397EA0172401761000000000000
B0614243142004S11747499EA0171401752000000000000
B0614283141969S11747596EA0171601761000000000000
B0614323141934S11747691EA0172401767000000000000
B0614363141906S11747787EA0173501780000000000000
B0614403141882S11747878EA0175101796000000000000
B0614443141857S11747967EA0175901802000000000000
B0614483141876S11748043EA0176101803000000000000
B0614523141923S11748043EA0176301804000000000000
B0614563141914S11747986EA0175701789000000000000
B0615003141840S11747981EA0173701769000000000000
B0615043141779S11748052EA0172701767000000000000
B0615083141735S11748142EA0171601745000000000000
B0615123141690S11748242EA0169301723000000000000
B0615163141650S11748347EA0167601709000000000000
B0615203141612S11748455EA0166601700000000000000
B0615243141577S11748566EA0165901693000000000000
B0615283141544S11748679EA0165101687000000000000
B0615323141510S11748792EA0164701682000000000000
B0615363141476S11748905EA0164401683000000000000
B0615403141445S11749014EA0164801688000000000000
B0615443141417S11749120EA0165301691000000000000
B0615483141395S11749220EA0165401691000000000000
B0615523141372S11749319EA0164801684000000000000
B0615563141345S11749417EA0164601686000000000000
B0616003141316S11749510EA0165201689000000000000
B0616043141286S11749599EA0165001687000000000000
B0616083141255S11749688EA0164701683000000000000
B0616123141229S11749780EA0164401679000000000000
B0616163141203S11749874EA0164301681000000000000
B0616203141177S11749965EA0163901671000000000000
B0616243141146S11750060EA0162201651000000000000
B0616283141112S11750161EA0160501637000000000000
B0616323141076S11750262EA0159301626000000000000
B0616363141039S11750366EA0158301616000000000000
B0616403141000S11750470EA0157601606000000000000
B0616443140960S11750572EA0157401608000000000000
B0616483140933S11750674EA0157101604000000000000
B0616523140901S11750775EA0157401611000000000000
B0616563140865S11750867EA0157701611000000000000
B0617003140834S11750964EA0157101603000000000000
B0617043140800S11751062EA0157201609000000000000
B0617083140758S11751152EA0158001616000000000000
B0617123140710S11751232EA0158101618000000000000
B0617163140658S11751306EA0158301619000000000000
B0617203140604S11751378EA0157801607000000000000
B0617243140550S11751458EA0156201587000000000000
B0617283140505S11751548EA0154701576000000000000
B0617323140472S11751644EA0154001570000000000000
B0617363140444S11751740EA0154101576000000000000
B0617403140420S11751837EA0154501575000000000000
B0617443140402S11751934EA0153001556000000000000
B0617483140377S11752034EA0151401540000000000000
B0617523140358S11752138EA0150801535000000000000
B0617563140348S11752242EA0150301527000000000000
B0618003140335S11752349EA0149401521000000000000
B0618043140301S11752448EA0150401540000000000000
B0618083140253S11752528EA0151101538000000000000
B0618123140201S11752608EA0150301528000000000000
B0618163140143S11752686EA0149101516000000000000
B0618203140089S11752766EA0148801516000000000000
B0618243140043S11752849EA0148101505000000000000
B0618283140000S11752936EA0146501487000000000000
B0618323139958S11753030EA0144101459000000000000
B0618363139917S11753130EA0142201445000000000000
B0618403139869S11753225EA0141001431000000000000
B0618443139802S11753304EA0140401427000000000000
B0618483139724S11753365EA0140501434000000000000
B0618523139657S11753427EA0142501456000000000000
B0618563139665S11753492EA0144101467000000000000
B0619003139708S11753459EA0144401471000000000000
B0619043139674S11753389EA0145501488000000015000
B0619083139601S11753389EA0146301491000000015000
B0619123139560S11753453EA0146501494000000030000
B0619163139584S11753510EA0146801496000000015000
B0619203139629S11753493EA0147101504000000015000
B0619243139630S11753420EA0147401507000000015000
B0619283139568S11753373EA0148001515000000030000
B0619323139503S11753411EA0148501520000000030000
B0619363139501S11753480EA0148801516000000030000
B0619403139548S11753502EA0148601515000000015000
B0619443139587S11753455EA0148501512000000015000
B0619483139612S11753382EA0148301512000000015000
B0619523139586S11753312EA0149201525000000015000
B0619563139513S11753321EA0149201518000000015000
B0620003139474S11753401EA0147601501000000015000
B0620043139447S11753492EA0146501496000000015000
B0620083139418S11753583EA0146201489000000015000
B0620123139392S11753676EA0146001495000000000000
B0620163139365S11753767EA0146801500000000000000
B0620203139335S11753859EA0146101476000000000000
B0620243139308S11753960EA0143901459000000000000
B0620283139282S11754062EA0142801451000000000000
B0620323139253S11754161EA0142301448000000000000
B0620363139219S11754257EA0141601437000000000000
B0620403139185S11754353EA0140501427000000000000
B0620443139157S11754450EA0139801421000000000000
B0620483139135S11754545EA0139401415000000000000
B0620523139115S11754641EA0138801408000000000000
B0620563139103S11754738EA0137801395000000000000
B0621003139089S11754838EA0136601389000000000000
B0621043139072S11754938EA0136501388000000000000
B0621083139053S11755037EA0136301383000000000000
B0621123139029S11755135EA0135501378000000000000
B0621163139007S11755230EA0134801370000000000000
B0621203138994S11755325EA0134201366000000000000
B0621243138983S11755418EA0133701360000000000000
B0621283138967S11755510EA0133301357000000000000
B0621323138938S11755598EA0133401361000000000000
B0621363138901S11755674EA0133701361000000000000
B0621403138859S11755751EA0133301355000000000000
B0621443138820S11755830EA0132401344000000000000
B0621483138784S11755913EA0131201332000000000000
B0621523138746S11755999EA0130101322000000000000
B0621563138706S11756082EA0128901307000000000000
B0622003138665S11756164EA0128001298000000000000
B0622043138624S11756244EA0127501298000000000000
B0622083138582S11756316EA0128301309000000000000
B0622123138541S11756387EA0128701308000000000000
B0622163138500S11756458EA0128701311000000000000
B0622203138459S11756527EA0129301315000000000000
B0622243138422S11756597EA0129801320000000000000
B0622283138434S11756660EA0130501330000000000000
B0622323138477S11756647EA0131501337000000000000
B0622363138460S11756571EA0131501334000000000000
B0622403138386S11756561EA0132101347000000015000
B0622443138343S11756621EA0132601347000000015000
B0622483138356S11756686EA0132501343000000015000
B0622523138408S11756700EA0132401344000000015000
B0622563138461S11756670EA0132501344000000015000
B0623003138478S11756597EA0133001348000000015000
B0623043138412S11756561EA0133801357000000030000
B0623083138386S11756630EA0134601370000000030000
B0623123138433S11756654EA0135501376000000015000
B0623163138452S11756589EA0136501393000000015000
B0623203138396S11756540EA0138301413000000030000
B0623243138338S11756579EA0139601422000000030000
B0623283138342S11756645EA0140201429000000015000
B0623323138390S11756649EA0140901436000000015000
B0623363138405S11756583EA0141701444000000015000
B0623403138352S11756522EA0142701458000000030000
B0623443138288S11756548EA0144101472000000030000
B0623483138294S11756610EA0144601474000000015000
B0623523138339S11756614EA0144801474000000015000
B0623563138349S11756545EA0145001483000000015000
B0624003138290S11756500EA0145901496000000030000
B0624043138232S11756539EA0147401507000000030000
B0624083138236S11756602EA0147701506000000015000
B0624123138284S11756628EA0147701509000000015000
B0624163138325S11756589EA0148401520000000015000
B0624203138294S11756523EA0149501532000000015000
B0624243138227S11756539EA0150601539000000030000
B0624283138217S11756601EA0151401551000000015000
B0624323138257S11756627EA0152301556000000015000
B0624363138287S11756586EA0153001566000000015000
B0624403138264S11756524EA0153901570000000015000
B0624443138200S11756510EA0154401575000000030000
B0624483138153S11756557EA0154601572000000030000
B0624523138161S11756618EA0154901584000000015000
B0624563138201S11756628EA0155501587000000015000
B0625003138223S11756579EA0155801591000000015000
B0625043138187S11756514EA0155801594000000015000
B0625083138122S11756478EA0156001595000000015000
B0625123138050S11756488EA0156101595000000015000
B0625163137997S11756547EA0156101590000000015000
B0625203137950S11756613EA0156601598000000015000
B0625243137928S11756686EA0157501608000000015000
B0625283137971S11756717EA0158201616000000015000
B0625323137997S11756667EA0158501618000000015000
B0625363137958S11756608EA0158401614000000015000
B0625403137884S11756614EA0158101616000000015000
B0625443137826S11756671EA0158201615000000015000
B0625483137774S11756742EA0157801609000000015000
B0625523137722S11756821EA0156901598000000000000
B0625563137670S11756907EA0155601584000000000000
B0626003137615S11756999EA0153701562000000000000
B0626043137559S11757096EA0151801547000000000000
B0626083137507S11757194EA0151201544000000000000
B0626123137460S11757289EA0150501537000000000000
B0626163137417S11757384EA0149801528000000000000
B0626203137376S11757477EA0149101520000000000000
B0626243137332S11757572EA0147901506000000000000
B0626283137283S11757666EA0146601494000000000000
B0626323137231S11757756EA0145401483000000000000
B0626363137178S11757847EA0144301471000000000000
B0626403137124S11757936EA0143201459000000000000
B0626443137070S11758026EA0141901446000000000000
B0626483137016S11758116EA0140701430000000000000
B0626523136960S11758204EA0139301416000000000000
B0626563136903S11758291EA0137901401000000000000
B0627003136844S11758376EA0136701388000000000000
B0627043136784S11758460EA0135401376000000000000
B0627083136726S11758546EA0134201364000000000000
B0627123136666S11758632EA0133501359000000000000
B0627163136606S11758715EA0133601361000000000000
B0627203136550S11758796EA0134501384000000000000
B0627243136522S11758876EA0137801412000000000000
B0627283136563S11758905EA0139901431000000000000
B0627323136571S11758849EA0141801452000000000000
B0627363136513S11758822EA0142901462000000015000
B0627403136464S11758875EA0144101479000000015000
B0627443136483S11758937EA0145401491000000015000
B0627483136524S11758928EA0147001507000000015000
B0627523136516S11758866EA0148001518000000015000
B0627563136453S11758841EA0148901528000000030000
B0628003136405S11758896EA0150501548000000030000
B0628043136419S11758958EA0151701555000000015000
B0628083136461S11758952EA0153001573000000015000
B0628123136458S11758894EA0154401580000000015000
B0628163136399S11758859EA0154701585000000015000
B0628203136333S11758887EA0155901607000000030000
B0628243136324S11758953EA0157501617000000015000
B0628283136366S11758970EA0158001622000000015000
B0628323136380S11758915EA0158801632000000015000
B0628363136333S11758863EA0159801641000000030000
B0628403136269S11758892EA0161601662000000030000
B0628443136263S11758957EA0163001671000000015000
B0628483136307S11758971EA0163901683000000015000
B0628523136321S11758914EA0165101694000000015000
B0628563136273S11758863EA0165901705000000015000
B0629003136204S11758877EA0167801725000000030000
B0629043136172S11758941EA0168701733000000015000
B0629083136198S11758991EA0169801741000000015000
B0629123136236S11758963EA0170701752000000015000
B0629163136215S11758900EA0172001769000000015000
B0629203136147S11758888EA0173501783000000015000
B0629243136103S11758944EA0174201790000000015000
B0629283136123S11758998EA0175001797000000015000
B0629323136165S11758984EA0175601799000000015000
B0629363136165S11758919EA0176301814000000015000
B0629403136110S11758879EA0177901829000000015000
B0629443136046S11758905EA0178601829000000030000
B0629483136029S11758978EA0178401831000000015000
B0629523136061S11759026EA0179101839000000015000
B0629563136111S11759024EA0179501842000000015000
B0630003136145S11758976EA0180001847000000015000
B0630043136115S11758905EA0180401850000000015000
B0630083136041S11758897EA0180701860000000015000
B0630123135976S11758945EA0181601867000000015000
B0630163135954S11759023EA0181901864000000015000
B0630203135990S11759075EA0182001869000000015000
B0630243136039S11759057EA0182401875000000015000
B0630283136065S11759000EA0183101880000000015000
B0630323136035S11758931EA0183101874000000015000
B0630363135959S11758913EA0182801875000000015000
B0630403135894S11758963EA0182801875000000015000
B0630443135843S11759036EA0182601872000000015000
B0630483135791S11759115EA0182401873000000015000
B0630523135736S11759193EA0182901880000000000000
B0630563135679S11759273EA0183401881000000000000
B0631003135626S11759356EA0182901877000000000000
B0631043135571S11759442EA0182501872000000000000
B0631083135518S11759527EA0182701871000000000000
B0631123135465S11759615EA0181801861000000000000
B0631163135411S11759703EA0180701851000000000000
B0631203135357S11759790EA0180501850000000000000
B0631243135298S11759872EA0179701840000000000000
B0631283135239S11759951EA0178801826000000000000
B0631323135179S11800031EA0177301810000000000000
B0631363135118S11800109EA0176201800000000000000
B0631403135060S11800188EA0175401792000000000000
B0631443135008S11800272EA0174801791000000000000
B0631483134960S11800354EA0174801789000000000000
B0631523134917S11800437EA0174901794000000000000
B0631563134880S11800518EA0175501797000000000000
B0632003134843S11800596EA0176501810000000000000
B0632043134830S11800678EA0177101813000000000000
B0632083134826S11800760EA0177101815000000000000
B0632123134824S11800844EA0176901807000000000000
B0632163134815S11800934EA0176001799000000000000
B0632203134785S11801021EA0175401793000000000000
B0632243134738S11801102EA0174601785000000000000
B0632283134681S11801176EA0174001779000000000000
B0632323134621S11801246EA0173101769000000000000
B0632363134557S11801315EA0172101760000000000000
B0632403134503S11801394EA0171801756000000000000
B0632443134460S11801480EA0171601757000000000000
B0632483134423S11801566EA0171801756000000000000
B0632523134386S11801650EA0171001747000000000000
B0632563134342S11801732EA0170301738000000000000
B0633003134288S11801810EA0168501719000000000000
B0633043134234S11801887EA0166701698000000000000
B0633083134175S11801966EA0164201672000000000000
B0633123134108S11802038EA0163701677000000000000
B0633163134040S11802095EA0164801689000000000000
B0633203133976S11802148EA0165301685000000000000
B0633243133911S11802202EA0164201670000000000000
B0633283133842S11802256EA0163001662000000000000
B0633323133773S11802313EA0162001651000000000000
B0633363133702S11802373EA0161101642000000000000
B0633403133632S11802437EA0160401637000000000000
B0633443133559S11802498EA0159901631000000000000
B0633483133481S11802550EA0159801632000000000000
B0633523133404S11802598EA0160301642000000000000
B0633563133330S11802644EA0160901642000000000000
B0634003133253S11802686EA0160401635000000000000
B0634043133178S11802733EA0160001634000000000000
B0634083133105S11802779EA0159901630000000000000
B0634123133035S11802829EA0159301625000000000000
B0634163132970S11802885EA0159201624000000000000
B0634203132910S11802946EA0158801620000000000000
B0634243132852S11803009EA0158501612000000000000
B0634283132798S11803073EA0157501603000000000000
B0634323132746S11803135EA0156901595000000000000
B0634363132702S11803203EA0156301589000000000000
B0634403132659S11803273EA0155501580000000000000
B0634443132619S11803346EA0155001580000000000000
B0634483132580S11803421EA0154901576000000000000
B0634523132540S11803500EA0154001563000000000000
B0634563132502S11803583EA0152501553000000000000
B0635003132466S11803668EA0152301550000000000000
B0635043132431S11803751EA0151701540000000000000
B0635083132395S11803837EA0150401527000000000000
B0635123132356S11803921EA0149501519000000000000
B0635163132316S11804005EA0148101507000000000000
B0635203132273S11804089EA0147601499000000000000
B0635243132230S11804174EA0146601486000000000000
B0635283132187S11804258EA0145601480000000000000
B0635323132145S11804341EA0145601488000000000000
B0635363132103S11804415EA0147501511000000000000
B0635403132108S11804484EA0149001519000000000000
B0635443132152S11804482EA0150101536000000000000
B0635483132148S11804419EA0151301542000000000000
B0635523132082S11804389EA0151701547000000000000
B0635563132030S11804436EA0152201552000000000000
B0636003132043S11804492EA0152901560000000000000
B0636043132085S11804474EA0153301563000000000000
B0636083132063S11804412EA0153701567000000000000
B0636123132000S11804417EA0154601579000000015000
B0636163131977S11804474EA0154701573000000015000
B0636203132015S11804508EA0154201573000000015000
B0636243132063S11804496EA0154401573000000000000
B0636283132095S11804448EA0154401572000000000000
B0636323132094S11804370EA0154301570000000000000
B0636363132050S11804310EA0154701574000000000000
B0636403131979S11804324EA0154201564000000015000
B0636443131934S11804393EA0153001558000000015000
B0636483131892S11804464EA0154001573000000000000
B0636523131852S11804527EA0155201586000000000000
B0636563131820S11804595EA0155901595000000000000
B0637003131831S11804649EA0157201608000000000000
B0637043131868S11804622EA0158001612000000000000
B0637083131829S11804562EA0158701624000000015000
B0637123131760S11804582EA0160001642000000015000
B0637163131738S11804643EA0161201651000000015000
B0637203131769S11804673EA0161901654000000015000
B0637243131797S11804630EA0162701664000000015000
B0637283131760S11804573EA0163901679000000015000
B0637323131693S11804583EA0165001686000000015000
B0637363131674S11804647EA0165701695000000015000
B0637403131713S11804662EA0166401703000000015000
B0637443131716S11804603EA0166901706000000015000
B0637483131649S11804570EA0167601717000000015000
B0637523131592S11804614EA0168301723000000015000
B0637563131596S11804681EA0168601726000000015000
B0638003131638S11804687EA0169901740000000015000
B0638043131640S11804623EA0171001746000000015000
B0638083131574S11804592EA0171701758000000015000
B0638123131518S11804636EA0172501768000000015000
B0638163131523S11804695EA0173301776000000015000
B0638203131561S11804696EA0174201785000000015000
B0638243131563S11804639EA0175501795000000015000
B0638283131508S11804599EA0176001796000000000000
B0638323131444S11804638EA0176001797000000015000
B0638363131437S11804707EA0176801813000000015000
B0638403131471S11804712EA0178001820000000015000
B0638443131467S11804651EA0178601827000000000000
B0638483131404S11804625EA0179201827000000015000
B0638523131344S11804675EA0179201837000000015000
B0638563131339S11804739EA0180301845000000015000
B0639003131370S11804760EA0180601845000000015000
B0639043131394S11804720EA0180701848000000015000
B0639083131383S11804656EA0181401856000000000000
B0639123131326S11804620EA0182501869000000000000
B0639163131263S11804649EA0182901871000000015000
B0639203131250S11804714EA0183301875000000015000
B0639243131281S11804747EA0183601881000000015000
B0639283131310S11804721EA0184601888000000000000
B0639323131288S11804664EA0184801884000000000000
B0639363131215S11804655EA0184801889000000015000
B0639403131175S11804713EA0185301893000000015000
B0639443131193S11804772EA0185001892000000015000
B0639483131231S11804813EA0184801890000000000000
B0639523131274S11804846EA0185101895000000000000
B0639563131322S11804873EA0185401899000000000000
B0640003131375S11804895EA0185501896000000000000
B0640043131431S11804917EA0185101896000000000000
B0640083131489S11804930EA0185001889000000000000
B0640123131549S11804921EA0184501888000000000000
B0640163131608S11804899EA0183801877000000000000
B0640203131669S11804870EA0182301860000000000000
B0640243131734S11804841EA0180701844000000000000
B0640283131801S11804809EA0179501832000000000000
B0640323131868S11804777EA0178801828000000000000
B0640363131937S11804746EA0178401823000000000000
B0640403132005S11804718EA0178301826000000000000
B0640443132068S11804698EA0179201838000000000000
B0640483132128S11804677EA0179601834000000000000
B0640523132191S11804651EA0178701823000000000000
B0640563132260S11804623EA0178301822000000000000
B0641003132332S11804596EA0178001819000000000000
B0641043132403S11804560EA0177901820000000000000
B0641083132470S11804525EA0179301841000000000000
B0641123132532S11804491EA0180001835000000000000
B0641163132598S11804449EA0178101816000000000000
B0641203132668S11804404EA0176901807000000000000
B0641243132741S11804360EA0176401800000000000000
B0641283132813S11804310EA0175201783000000000000
B0641323132888S11804267EA0174101776000000000000
B0641363132966S11804230EA0173001759000000000000
B0641403133048S11804194EA0171401744000000000000
B0641443133118S11804142EA0170801746000000000000
B0641483133185S11804089EA0170701744000000000000
B0641523133250S11804040EA0170201738000000000000
B0641563133317S11803996EA0169501728000000000000
B0642003133389S11803955EA0168701716000000000000
B0642043133459S11803911EA0167601710000000000000
B0642083133525S11803867EA0167201702000000000000
B0642123133591S11803824EA0165701681000000000000
B0642163133660S11803777EA0163701663000000000000
B0642203133731S11803732EA0162901659000000000000
B0642243133802S11803694EA0161901646000000000000
B0642283133874S11803652EA0160801636000000000000
B0642323133941S11803611EA0160501636000000000000
B0642363134011S11803577EA0159701623000000000000
B0642403134080S11803542EA0158801619000000000000
B0642443134147S11803509EA0158201602000000000000
B0642483134217S11803481EA0156101583000000000000
B0642523134286S11803455EA0155401579000000000000
B0642563134352S11803424EA0154701570000000000000
B0643003134418S11803387EA0153901565000000000000
B0643043134477S11803344EA0154401572000000000000
B0643083134526S11803296EA0154401568000000000000
B0643123134576S11803255EA0154401574000000000000
B0643163134629S11803227EA0155301586000000000000
B0643203134680S11803208EA0156001589000000000000
B0643243134732S11803187EA0156001590000000000000
B0643283134785S11803169EA0156701603000000000000
B0643323134828S11803126EA0158601623000000000000
B0643363134806S11803056EA0160201635000000000000
B0643403134733S11803049EA0160801643000000000000
B0643443134698S11803109EA0162101663000000000000
B0643483134719S11803162EA0163701673000000000000
B0643523134767S11803160EA0164801682000000000000
B0643563134772S11803096EA0166401701000000000000
B0644003134717S11803054EA0167701713000000015000
B0644043134661S11803082EA0168901727000000015000
B0644083134657S11803140EA0169601733000000015000
B0644123134696S11803171EA0171001741000000015000
B0644163134730S11803141EA0172701751000000015000
B0644203134719S11803079EA0173601759000000015000
B0644243134659S11803044EA0173901765000000015000
B0644283134602S11803073EA0174801783000000015000
B0644323134598S11803128EA0176201795000000015000
B0644363134637S11803153EA0176801801000000015000
B0644403134669S11803109EA0177701814000000015000
B0644443134646S11803044EA0178701823000000000000
B0644483134579S11803028EA0179201829000000015000
B0644523134539S11803078EA0180101840000000015000
B0644563134561S11803131EA0180501843000000015000
B0645003134611S11803122EA0180801851000000015000
B0645043134631S11803063EA0181901863000000015000
B0645083134590S11803010EA0182801870000000015000
B0645123134524S11803024EA0182801870000000015000
B0645163134504S11803087EA0183301878000000015000
B0645203134538S11803134EA0183401879000000015000
B0645243134590S11803153EA0183501878000000015000
B0645283134648S11803158EA0184001890000000000000
B0645323134704S11803162EA0185101894000000000000
B0645363134764S11803169EA0184901890000000000000
B0645403134828S11803175EA0185101898000000000000
B0645443134889S11803183EA0186001906000000000000
B0645483134951S11803192EA0186201905000000000000
B0645523135019S11803201EA0186801920000000000000
B0645563135080S11803193EA0188701939000000000000
B0646003135093S11803132EA0190401949000000000000
B0646043135036S11803089EA0190301944000000000000
B0646083134964S11803100EA0190801958000000000000
B0646123134932S11803158EA0192301971000000015000
B0646163134968S11803205EA0192901973000000015000
B0646203135011S11803174EA0193901990000000015000
B0646243134988S11803113EA0194801990000000015000
B0646283134920S11803100EA0194601994000000015000
B0646323134873S11803152EA0195702009000000015000
B0646363134885S11803218EA0196302012000000015000
B0646403134937S11803245EA0196602017000000015000
B0646443134994S11803238EA0196802016000000015000
B0646483135055S11803226EA0196502011000000000000
B0646523135122S11803218EA0196402010000000000000
B0646563135189S11803214EA0195902006000000000000
B0647003135262S11803217EA0195001993000000000000
B0647043135339S11803227EA0194101986000000000000
B0647083135414S11803240EA0193701982000000000000
B0647123135492S11803251EA0192601968000000000000
B0647163135573S11803257EA0191201954000000000000
B0647203135657S11803268EA0190401940000000000000
B0647243135743S11803269EA0188701929000000000000
B0647283135830S11803258EA0188201923000000000000
B0647323135915S11803245EA0187801920000000000000
B0647363135998S11803227EA0187501918000000000000
B0647403136080S11803208EA0187201915000000000000
B0647443136159S11803188EA0187601921000000000000
B0647483136234S11803167EA0188001923000000000000
B0647523136310S11803145EA0187901919000000000000
B0647563136385S11803122EA0187501918000000000000
B0648003136461S11803100EA0187701920000000000000
B0648043136535S11803076EA0187601916000000000000
B0648083136611S11803052EA0187001911000000000000
B0648123136689S11803030EA0186401905000000000000
B0648163136766S11803006EA0185701897000000000000
B0648203136845S11802984EA0184801889000000000000
B0648243136921S11802958EA0184201881000000000000
B0648283136995S11802933EA0183101867000000000000
B0648323137069S11802909EA0181801856000000000000
B0648363137142S11802887EA0181101849000000000000
B0648403137213S11802858EA0180501843000000000000
B0648443137286S11802833EA0180001838000000000000
B0648483137359S11802810EA0179201830000000000000
B0648523137433S11802788EA0178501821000000000000
B0648563137506S11802768EA0177901818000000000000
B0649003137577S11802750EA0178201823000000000000
B0649043137644S11802732EA0178901831000000000000
B0649083137705S11802712EA0179201832000000000000
B0649123137763S11802692EA0178901828000000000000
B0649163137822S11802671EA0178701825000000000000
B0649203137880S11802657EA0179101834000000000000
B0649243137939S11802653EA0180101842000000000000
B0649283137995S11802651EA0180401844000000000000
B0649323138053S11802655EA0180001836000000000000
B0649363138115S11802657EA0179201829000000000000
B0649403138179S11802650EA0179001831000000000000
B0649443138243S11802636EA0178901826000000000000
B0649483138308S11802619EA0177801815000000000000
B0649523138373S11802598EA0177101811000000000000
B0649563138437S11802575EA0176801806000000000000
B0650003138500S11802550EA0176601805000000000000
B0650043138564S11802536EA0177001810000000000000
B0650083138628S11802529EA0176701802000000000000
B0650123138693S11802515EA0175901796000000000000
B0650163138756S11802497EA0175601791000000000000
B0650203138823S11802478EA0174501780000000000000
B0650243138892S11802456EA0173701770000000000000
B0650283138960S11802429EA0172901765000000000000
B0650323139029S11802408EA0172501761000000000000
B0650363139100S11802389EA0172201756000000000000
B0650403139167S11802372EA0172001757000000000000
B0650443139233S11802361EA0172901773000000000000
B0650483139295S11802359EA0174401789000000000000
B0650523139340S11802335EA0176701814000000000000
B0650563139322S11802281EA0178101818000000000000
B0651003139252S11802280EA0178101819000000000000
B0651043139210S11802342EA0178101822000000015000
B0651083139223S11802412EA0178301828000000015000
B0651123139270S11802439EA0179801848000000015000
B0651163139283S11802391EA0180901853000000015000
B0651203139233S11802354EA0180801844000000015000
B0651243139167S11802385EA0180101840000000015000
B0651283139150S11802465EA0180401855000000015000
B0651323139171S11802537EA0181801868000000015000
B0651363139215S11802573EA0182701870000000015000
B0651403139267S11802559EA0182401866000000000000
B0651443139319S11802529EA0182701877000000000000
B0651483139356S11802488EA0184201890000000000000
B0651523139322S11802441EA0184701885000000000000
B0651563139257S11802472EA0183901878000000000000
B0652003139237S11802553EA0183501881000000015000
B0652043139266S11802620EA0184001888000000015000
B0652083139321S11802642EA0184501892000000015000
B0652123139375S11802642EA0184601890000000000000
B0652163139434S11802633EA0183801879000000000000
B0652203139496S11802611EA0183201874000000000000
B0652243139560S11802584EA0181701855000000000000
B0652283139627S11802555EA0180501845000000000000
B0652323139695S11802527EA0179901837000000000000
B0652363139761S11802498EA0179101827000000000000
B0652403139828S11802469EA0178201819000000000000
B0652443139894S11802442EA0177601814000000000000
B0652483139961S11802420EA0176801803000000000000
B0652523140029S11802398EA0175901797000000000000
B0652563140094S11802376EA0175401790000000000000
B0653003140158S11802355EA0174901785000000000000
B0653043140220S11802335EA0174601783000000000000
B0653083140281S11802313EA0174701787000000000000
B0653123140340S11802290EA0175301793000000000000
B0653163140396S11802269EA0175601797000000000000
B0653203140446S11802247EA0176201802000000000000
B0653243140497S11802222EA0176101798000000000000
B0653283140552S11802195EA0176201803000000000000
B0653323140609S11802181EA0176901811000000000000
B0653363140662S11802168EA0177001807000000000000
B0653403140714S11802140EA0175601789000000000000
B0653443140769S11802104EA0174301775000000000000
B0653483140823S11802061EA0173001759000000000000
B0653523140881S11802021EA0171601748000000000000
B0653563140934S11801973EA0170901745000000000000
B0654003140983S11801921EA0170501737000000000000
B0654043141039S11801871EA0169201722000000000000
B0654083141103S11801831EA0168301715000000000000
B0654123141169S11801802EA0167701710000000000000
B0654163141235S11801779EA0166801703000000000000
B0654203141300S11801760EA0166601698000000000000
B0654243141365S11801737EA0165401678000000000000
B0654283141436S11801711EA0163401659000000000000
B0654323141506S11801682EA0161701643000000000000
B0654363141577S11801646EA0159801623000000000000
B0654403141645S11801604EA0158601615000000000000
B0654443141714S11801566EA0158401614000000000000
B0654483141784S11801532EA0159101625000000000000
B0654523141850S11801511EA0160801644000000000000
B0654563141911S11801503EA0162301665000000000000
B0655003141967S11801493EA0164601686000000000000
B0655043141987S11801437EA0165601689000000000000
B0655083141924S11801401EA0165101680000000000000
B0655123141862S11801445EA0165301693000000000000
B0655163141844S11801516EA0166901714000000000000
B0655203141882S11801555EA0168701732000000015000
B0655243141915S11801518EA0170501744000000015000
B0655283141898S11801458EA0170901742000000015000
B0655323141837S11801444EA0170301734000000015000
B0655363141783S11801492EA0170501748000000015000
B0655403141778S11801554EA0172401769000000015000
B0655443141819S11801562EA0173901781000000015000
B0655483141831S11801505EA0175101794000000015000
B0655523141794S11801454EA0175701797000000015000
B0655563141731S11801455EA0175701799000000015000
B0656003141696S11801513EA0176401810000000015000
B0656043141723S11801565EA0177101817000000015000
B0656083141770S11801554EA0178301831000000015000
B0656123141771S11801493EA0180101839000000015000
B0656163141720S11801450EA0180501845000000015000
B0656203141667S11801484EA0181501859000000015000
B0656243141679S11801541EA0182301865000000015000
B0656283141727S11801544EA0182901869000000015000
B0656323141739S11801479EA0183301873000000015000
B0656363141690S11801431EA0184701893000000015000
B0656403141635S11801449EA0185801897000000015000
B0656443141616S11801510EA0185801899000000015000
B0656483141646S11801557EA0186101902000000015000
B0656523141696S11801559EA0186401907000000015000
B0656563141719S11801506EA0187101913000000015000
B0657003141679S11801461EA0187601915000000015000
B0657043141620S11801476EA0187401910000000015000
B0657083141606S11801545EA0187101915000000015000
B0657123141648S11801580EA0187701919000000015000
B0657163141706S11801575EA0187201909000000000000
B0657203141774S11801563EA0185301885000000000000
B0657243141850S11801546EA0183001864000000000000
B0657283141931S11801523EA0180301837000000000000
B0657323142015S11801497EA0179101831000000000000
B0657363142099S11801475EA0178601826000000000000
B0657403142181S11801451EA0178201821000000000000
B0657443142261S11801431EA0178001820000000000000
B0657483142339S11801411EA0177701817000000000000
B0657523142415S11801390EA0177301811000000000000
B0657563142491S11801371EA0177301816000000000000
B0658003142565S11801354EA0177701817000000000000
B0658043142641S11801336EA0177601816000000000000
B0658083142715S11801315EA0177601817000000000000
B0658123142786S11801299EA0177601817000000000000
B0658163142858S11801285EA0177001804000000000000
B0658203142928S11801272EA0176801814000000000000
B0658243142993S11801268EA0177701817000000000000
B0658283143059S11801260EA0177701815000000000000
B0658323143124S11801245EA0176901805000000000000
B0658363143191S11801225EA0176101800000000000000
B0658403143257S11801208EA0176001801000000000000
B0658443143322S11801197EA0176001798000000000000
B0658483143387S11801185EA0175301786000000000000
B0658523143453S11801169EA0174101774000000000000
B0658563143521S11801164EA0173801779000000000000
B0659003143587S11801162EA0174501786000000000000
B0659043143650S11801156EA0175101790000000000000
B0659083143713S11801150EA0175301792000000000000
B0659123143773S11801141EA0176501809000000000000
B0659163143833S11801124EA0177701822000000000000
B0659203143890S11801103EA0178201821000000000000
B0659243143954S11801081EA0177701816000000000000
B0659283144020S11801064EA0178001826000000000000
B0659323144085S11801045EA0178601824000000000000
B0659363144154S11801028EA0177801810000000000000
B0659403144225S11801016EA0176901807000000000000
B0659443144297S11800999EA0176301799000000000000
B0659483144371S11800985EA0175101784000000000000
B0659523144448S11800976EA0173701766000000000000
B0659563144527S11800957EA0171701748000000000000
B0700003144605S11800935EA0170901741000000000000
B0700043144683S11800931EA0170801745000000000000
B0700083144755S11800938EA0171101749000000000000
B0700123144822S11800943EA0170901743000000000000
B0700163144894S11800942EA0169601726000000000000
B0700203144969S11800941EA0168301713000000000000
B0700243145046S11800959EA0166901695000000000000
B0700283145121S11800993EA0165701689000000000000
B0700323145193S11801035EA0164601676000000000000
B0700363145264S11801081EA0163301662000000000000
B0700403145338S11801124EA0162301654000000000000
B0700443145411S11801155EA0161801649000000000000
B0700483145481S11801182EA0161201644000000000000
B0700523145551S11801211EA0160801638000000000000
B0700563145620S11801240EA0159901625000000000000
B0701003145693S11801267EA0158801616000000000000
B0701043145766S11801294EA0157701604000000000000
B0701083145839S11801324EA0156801597000000000000
B0701123145912S11801345EA0156401592000000000000
B0701163145984S11801359EA0155801584000000000000
B0701203146056S11801375EA0155101577000000000000
B0701243146129S11801392EA0154501571000000000000
B0701283146199S11801416EA0154201569000000000000
B0701323146269S11801442EA0154001568000000000000
B0701363146334S11801463EA0154701585000000000000
B0701403146394S11801481EA0155901591000000000000
B0701443146458S11801493EA0156201596000000000000
B0701483146523S11801502EA0156701602000000000000
B0701523146584S11801505EA0157501610000000000000
B0701563146645S11801506EA0157401601000000000000
B0702003146708S11801502EA0156401590000000000000
B0702043146776S11801502EA0155501580000000000000
B0702083146845S11801506EA0154101563000000000000
B0702123146916S11801507EA0152901554000000000000
B0702163146987S11801496EA0152201547000000000000
B0702203147057S11801487EA0151601543000000000000
B0702243147128S11801489EA0151101538000000000000
B0702283147201S11801494EA0151001536000000000000
B0702323147274S11801498EA0151101539000000000000
B0702363147348S11801505EA0150801533000000000000
B0702403147425S11801514EA0150301528000000000000
B0702443147501S11801524EA0149901526000000000000
B0702483147572S11801539EA0150701541000000000000
B0702523147634S11801557EA0151701547000000000000
B0702563147695S11801571EA0151501541000000000000
B0703003147758S11801581EA0150901532000000000000
B0703043147823S11801589EA0149601519000000000000
B0703083147890S11801589EA0148501508000000000000
B0703123147958S11801580EA0147501496000000000000
