ACAM4N6
HFDTE130122
HFFXA050
HFPLTPILOT:JOHN WELSH              
HFGTYGLIDERTYPE:HORNET      
HFGIDGLIDERID:VH-GMY      
HFDTM100GPSDATUM:
HFRFWFIRMWAREVERSION:F2.6
HFRHWHARDWAREVERSION:300 Series Version 2
HFFTYFRTYPE:CAMBRIDGE AERO INSTRUMENTS, 302+
HFGPS:GARMIN,LVS-25,12,18000
HFPRSPRESSALTSENSOR:INTERSEMA, MS5534-AP, 20000
I033638FXA3941ENL4247REX
LCAMSBVER:5FWVER:F26300
C130122043205130122000102
C0000000N00000000WTAKEOFF     
C3207529S11656999EBeverley Gld
C3301697S11652739EWilliams Sil
C3157881S11735639EYoting Silo 
C3207529S11656999EBeverley Gld
C0000000N00000000WLANDING     
B0434263207342S11656860EA0021800205000000000000
B0434283207342S11656860EA0021800205000000000000
B0434303207342S11656860EA0021900205000000000000
B0434323207342S11656860EA0021800205000000000000
B0434343207342S11656860EA0021900205000000000000
B0434363207341S11656860EA0021800205000000000000
B0434383207341S11656860EA0021800205000000000000
B0434403207341S11656860EA0021800205000000000000
B0434423207341S11656860EA0021800205000000000000
B0434443207341S11656860EA0021800205000000000000
B0434463207341S11656860EA0021800205000000000000
B0434483207341S11656860EA0021800206000000000000
B0434503207341S11656860EA0021900206000000000000
B0434523207342S11656860EA0021900206000000000000
B0434543207343S11656861EA0021900206000000000000
B0434573207355S11656871EA0021800205000000000000
B0435013207384S11656895EA0021800205000000000000
B0435053207427S11656926EA0022100206000000000000
B0435093207482S11656961EA0022600207000000000000
B0435133207546S11657001EA0022600209000000000000
B0435173207615S11657049EA0022700214000000000000
B0435213207685S11657103EA0023200219000000000000
B0435253207754S11657157EA0023800233000000000000
B0435293207818S11657216EA0025400250000000000000
B0435333207878S11657269EA0027300275000000000000
B0435373207932S11657328EA0029500296000000000000
B0435413207980S11657391EA0031300315000000000000
B0435453208032S11657454EA0033000332000000000000
B0435493208096S11657498EA0034400339000000000000
B0435533208166S11657497EA0035400351000000000000
B0435573208231S11657459EA0036200360000000000000
B0436013208279S11657389EA0037700374000000015000
B0436053208295S11657296EA0039500396000000015000
B0436093208277S11657198EA0041500411000000015000
B0436133208225S11657109EA0042700429000000015000
B0436173208157S11657034EA0044600447000000000000
B0436213208074S11656984EA0045600455000000000000
B0436253207988S11656952EA0047600489000000000000
B0436293207904S11656916EA0051000514000000000000
B0436333207817S11656897EA0052500527000000000000
B0436373207735S11656945EA0053700540000000000000
B0436413207685S11657040EA0054500545000000000000
B0436453207685S11657148EA0054600552000000000000
B0436493207728S11657239EA0055800573000000015000
B0436533207793S11657294EA0058300602000000015000
B0436573207861S11657295EA0060400618000000015000
B0437013207923S11657267EA0060900620000000000000
B0437053207978S11657217EA0061200624000000000000
B0437093208010S11657138EA0062100631000000000000
B0437133208006S11657042EA0062400636000000015000
B0437173207982S11656944EA0062700639000000000000
B0437213207952S11656849EA0063900661000000000000
B0437253207926S11656753EA0066400685000000000000
B0437293207883S11656662EA0067800699000000000000
B0437333207804S11656649EA0069800717000000000000
B0437373207767S11656717EA0070700716000000000000
B0437413207801S11656773EA0070200712000000000000
B0437453207854S11656757EA0070200712000000000000
B0437493207887S11656693EA0069500703000000015000
B0437533207880S11656609EA0068500697000000015000
B0437573207843S11656529EA0068800704000000015000
B0438013207775S11656500EA0069500709000000015000
B0438053207720S11656549EA0069500706000000015000
B0438093207719S11656623EA0069100703000000015000
B0438133207749S11656682EA0069000703000000015000
B0438173207802S11656680EA0069100698000000015000
B0438213207818S11656613EA0068600697000000015000
B0438253207776S11656546EA0068100691000000015000
B0438293207702S11656531EA0067600686000000015000
B0438333207636S11656574EA0067100680000000015000
B0438373207605S11656648EA0066500679000000015000
B0438413207588S11656726EA0066300672000000000000
B0438453207611S11656792EA0065500665000000000000
B0438493207664S11656823EA0065100665000000000000
B0438533207722S11656823EA0065700675000000000000
B0438573207720S11656758EA0067300685000000015000
B0439013207655S11656770EA0067300684000000015000
B0439053207649S11656836EA0067500689000000015000
B0439093207700S11656858EA0068100699000000015000
B0439133207711S11656799EA0069500710000000015000
B0439173207645S11656779EA0069500707000000015000
B0439213207609S11656838EA0069600712000000015000
B0439253207644S11656883EA0070200716000000015000
B0439293207677S11656836EA0070700719000000015000
B0439333207624S11656783EA0070500718000000015000
B0439373207564S11656823EA0070800725000000015000
B0439413207581S11656880EA0071600732000000015000
B0439453207631S11656870EA0072000733000000015000
B0439493207628S11656799EA0072200735000000015000
B0439533207562S11656774EA0072400737000000015000
B0439573207520S11656828EA0072800739000000015000
B0440013207549S11656878EA0073100743000000015000
B0440053207592S11656854EA0073500748000000015000
B0440093207573S11656789EA0073900753000000015000
B0440133207508S11656783EA0073900751000000015000
B0440173207477S11656843EA0073500747000000015000
B0440213207511S11656891EA0073400745000000015000
B0440253207545S11656847EA0073800749000000015000
B0440293207485S11656806EA0074300759000000015000
B0440333207440S11656853EA0074700758000000015000
B0440373207466S11656906EA0074400753000000015000
B0440413207506S11656871EA0074600761000000015000
B0440453207469S11656809EA0075200770000000015000
B0440493207404S11656825EA0075400768000000015000
B0440533207388S11656890EA0075300768000000015000
B0440573207423S11656930EA0075000761000000015000
B0441013207475S11656904EA0074700764000000015000
B0441053207466S11656836EA0076000779000000015000
B0441093207401S11656843EA0076400774000000015000
B0441133207399S11656908EA0076200775000000015000
B0441173207454S11656910EA0076200776000000015000
B0441213207464S11656848EA0077000783000000015000
B0441253207397S11656826EA0077100780000000015000
B0441293207352S11656884EA0076700780000000015000
B0441333207384S11656934EA0077100789000000015000
B0441373207425S11656906EA0077900795000000015000
B0441413207381S11656854EA0077800786000000015000
B0441453207321S11656899EA0077300791000000015000
B0441493207337S11656958EA0078400802000000015000
B0441533207386S11656951EA0078800803000000015000
B0441573207373S11656884EA0079100806000000015000
B0442013207306S11656895EA0079600813000000015000
B0442053207300S11656958EA0080200822000000015000
B0442093207349S11656960EA0080200817000000015000
B0442133207350S11656893EA0080600825000000015000
B0442173207290S11656853EA0080700823000000015000
B0442213207225S11656882EA0080800826000000015000
B0442253207212S11656949EA0081000827000000015000
B0442293207251S11656994EA0080600824000000015000
B0442333207304S11656977EA0081000830000000015000
B0442373207304S11656916EA0082200843000000015000
B0442413207238S11656906EA0082100834000000015000
B0442453207211S11656977EA0081600835000000015000
B0442493207260S11656984EA0081900834000000015000
B0442533207246S11656919EA0082300843000000015000
B0442573207180S11656916EA0082400842000000015000
B0443013207144S11656977EA0082500846000000015000
B0443053207169S11657031EA0082500842000000015000
B0443093207225S11657030EA0082100839000000015000
B0443133207281S11656999EA0081600834000000015000
B0443173207337S11656960EA0081000827000000000000
B0443213207391S11656909EA0080100820000000000000
B0443253207445S11656860EA0080300828000000000000
B0443293207492S11656805EA0080800828000000000000
B0443333207536S11656753EA0080700829000000000000
B0443373207583S11656710EA0080700826000000000000
B0443413207627S11656663EA0080200822000000000000
B0443453207667S11656611EA0079700819000000000000
B0443493207716S11656579EA0080000825000000000000
B0443533207766S11656568EA0080600829000000000000
B0443573207815S11656563EA0080400824000000000000
B0444013207867S11656576EA0080100820000000000000
B0444053207915S11656602EA0079800818000000000000
B0444093207969S11656620EA0079900818000000000000
B0444133208013S11656663EA0079300813000000000000
B0444173208018S11656739EA0078900808000000000000
B0444213207987S11656810EA0078300800000000000000
B0444253207930S11656860EA0077600790000000000000
B0444293207865S11656895EA0076600783000000000000
B0444333207796S11656891EA0076100776000000000000
B0444373207736S11656851EA0075100761000000000000
B0444413207680S11656795EA0073700748000000000000
B0444453207622S11656739EA0073200747000000000000
B0444493207551S11656704EA0073100745000000000000
B0444533207473S11656697EA0073200747000000000000
B0444573207403S11656722EA0073200746000000000000
B0445013207349S11656775EA0073000743000000000000
B0445053207336S11656847EA0072600741000000000000
B0445093207365S11656900EA0072400737000000000000
B0445133207417S11656916EA0071600730000000000000
B0445173207473S11656904EA0071800738000000000000
B0445213207485S11656840EA0072500742000000000000
B0445253207424S11656808EA0072300740000000015000
B0445293207377S11656862EA0072800748000000015000
B0445333207393S11656918EA0073700759000000015000
B0445373207433S11656909EA0074700766000000015000
B0445413207433S11656853EA0074900767000000015000
B0445453207381S11656822EA0074600761000000015000
B0445493207324S11656860EA0074200760000000015000
B0445533207326S11656925EA0074300760000000015000
B0445573207372S11656932EA0075100770000000015000
B0446013207359S11656873EA0075700773000000015000
B0446053207298S11656887EA0075900776000000015000
B0446093207293S11656949EA0076300780000000015000
B0446133207338S11656957EA0076700786000000015000
B0446173207333S11656897EA0077400792000000015000
B0446213207272S11656903EA0077500790000000015000
B0446253207264S11656969EA0077600795000000015000
B0446293207308S11656983EA0078400805000000015000
B0446333207321S11656923EA0078200796000000015000
B0446373207256S11656896EA0077700798000000015000
B0446413207215S11656953EA0078600814000000015000
B0446453207238S11657003EA0079800818000000015000
B0446493207281S11656983EA0080000818000000015000
B0446533207265S11656918EA0080100819000000015000
B0446573207198S11656908EA0080000818000000015000
B0447013207163S11656969EA0080400827000000015000
B0447053207193S11657017EA0080700828000000015000
B0447093207237S11656994EA0080900829000000015000
B0447133207226S11656925EA0080800824000000015000
B0447173207159S11656905EA0080700824000000015000
B0447213207112S11656965EA0080400822000000015000
B0447253207134S11657030EA0080100819000000015000
B0447293207189S11657031EA0080200821000000015000
B0447333207230S11656981EA0080000818000000015000
B0447373207209S11656910EA0080300825000000015000
B0447413207137S11656908EA0080600824000000015000
B0447453207090S11656971EA0080300822000000015000
B0447493207104S11657038EA0080900834000000015000
B0447533207154S11657059EA0081100832000000015000
B0447573207200S11657031EA0081100834000000015000
B0448013207178S11656975EA0082200841000000015000
B0448053207113S11656987EA0081900833000000015000
B0448093207089S11657060EA0081200831000000015000
B0448133207130S11657109EA0081000825000000015000
B0448173207180S11657085EA0080700825000000015000
B0448213207173S11657020EA0081200834000000015000
B0448253207116S11656978EA0081400830000000015000
B0448293207043S11657000EA0081100830000000015000
B0448333207016S11657070EA0081400837000000015000
B0448373207046S11657120EA0082100843000000015000
B0448413207090S11657111EA0082300842000000015000
B0448453207102S11657060EA0082300844000000015000
B0448493207060S11657016EA0082000838000000015000
B0448533206992S11657031EA0081200829000000015000
B0448573206942S11657091EA0081000830000000015000
B0449013206926S11657163EA0081600835000000000000
B0449053206961S11657205EA0082000842000000015000
B0449093206988S11657165EA0082300840000000015000
B0449133206942S11657116EA0081900836000000015000
B0449173206875S11657143EA0081700836000000015000
B0449213206861S11657217EA0081900844000000015000
B0449253206883S11657277EA0082800854000000015000
B0449293206929S11657287EA0083300853000000015000
B0449333206960S11657244EA0083100852000000015000
B0449373206925S11657191EA0082900852000000015000
B0449413206853S11657208EA0082800849000000015000
B0449453206827S11657278EA0083000856000000015000
B0449493206858S11657329EA0083200853000000015000
B0449533206909S11657319EA0083000851000000015000
B0449573206926S11657259EA0082700848000000015000
B0450013206875S11657208EA0082800850000000015000
B0450053206801S11657221EA0082800847000000015000
B0450093206756S11657285EA0082700850000000015000
B0450133206774S11657351EA0082800845000000015000
B0450173206829S11657364EA0081800834000000015000
B0450213206884S11657332EA0080500822000000015000
B0450253206938S11657287EA0079700812000000015000
B0450293206991S11657238EA0078600802000000000000
B0450333207043S11657183EA0077200789000000000000
B0450373207096S11657134EA0076400780000000000000
B0450413207150S11657087EA0075800773000000000000
B0450453207207S11657052EA0074900763000000000000
B0450493207264S11657020EA0073900752000000000000
B0450533207324S11656990EA0072800740000000000000
B0450573207381S11656957EA0071900732000000000000
B0451013207436S11656919EA0070700718000000000000
B0451053207492S11656880EA0069700709000000000000
B0451093207550S11656847EA0069200706000000000000
B0451133207603S11656815EA0069800720000000000000
B0451173207644S11656775EA0071200731000000000000
B0451213207631S11656715EA0072000733000000000000
B0451253207566S11656710EA0072000741000000000000
B0451293207544S11656774EA0073300754000000000000
B0451333207580S11656796EA0073800751000000000000
B0451373207602S11656749EA0073600749000000015000
B0451413207566S11656697EA0073600755000000015000
B0451453207510S11656711EA0074700765000000015000
B0451493207519S11656771EA0074700758000000015000
B0451533207566S11656756EA0074600758000000015000
B0451573207562S11656691EA0074600764000000015000
B0452013207501S11656675EA0075500773000000015000
B0452053207459S11656730EA0076000776000000015000
B0452093207479S11656789EA0076400779000000015000
B0452133207525S11656783EA0076500782000000015000
B0452173207540S11656724EA0076700784000000015000
B0452213207502S11656669EA0076900786000000015000
B0452253207438S11656671EA0077600791000000015000
B0452293207415S11656734EA0077900795000000015000
B0452333207450S11656778EA0078300799000000015000
B0452373207493S11656750EA0078500802000000015000
B0452413207475S11656688EA0078800809000000015000
B0452453207416S11656689EA0079800820000000015000
B0452493207391S11656747EA0080300822000000015000
B0452533207424S11656791EA0080500825000000015000
B0452573207466S11656767EA0081000828000000015000
B0453013207450S11656709EA0081300833000000015000
B0453053207386S11656717EA0081300832000000015000
B0453093207368S11656782EA0081800843000000015000
B0453133207403S11656822EA0082500845000000015000
B0453173207450S11656801EA0082500846000000015000
B0453213207454S11656740EA0082700848000000015000
B0453253207399S11656709EA0082300840000000015000
B0453293207339S11656747EA0082200844000000015000
B0453333207321S11656818EA0082600846000000015000
B0453373207358S11656864EA0082800847000000015000
B0453413207404S11656830EA0082500843000000015000
B0453453207411S11656763EA0082600848000000015000
B0453493207351S11656735EA0082600842000000015000
B0453533207300S11656791EA0082100840000000015000
B0453573207310S11656866EA0082400847000000015000
B0454013207352S11656912EA0083000854000000015000
B0454053207401S11656897EA0083600858000000015000
B0454093207381S11656841EA0084300865000000015000
B0454133207323S11656852EA0084200860000000015000
B0454173207297S11656921EA0083600857000000015000
B0454213207330S11656974EA0083800862000000015000
B0454253207376S11656955EA0084700871000000015000
B0454293207364S11656896EA0085700876000000015000
B0454333207303S11656892EA0085800876000000015000
B0454373207268S11656956EA0085700874000000015000
B0454413207293S11657021EA0085700879000000015000
B0454453207338S11657009EA0086800894000000015000
B0454493207319S11656948EA0087900900000000015000
B0454533207255S11656948EA0088400904000000015000
B0454573207226S11657013EA0088700909000000015000
B0455013207259S11657059EA0089500921000000015000
B0455053207295S11657038EA0090900932000000015000
B0455093207284S11656979EA0091700937000000015000
B0455133207222S11656961EA0092100942000000015000
B0455173207178S11657020EA0092500946000000015000
B0455213207195S11657081EA0093400958000000015000
B0455253207237S11657070EA0094500967000000015000
B0455293207229S11657008EA0095300978000000015000
B0455333207167S11656992EA0096300991000000015000
B0455373207134S11657052EA0097100996000000015000
B0455413207161S11657103EA0097601005000000015000
B0455453207198S11657078EA0098501013000000015000
B0455493207170S11657017EA0099001023000000015000
B0455533207108S11657025EA0100401034000000015000
B0455573207092S11657091EA0100901034000000015000
B0456013207134S11657117EA0101401045000000015000
B0456053207151S11657065EA0102401055000000015000
B0456093207098S11657026EA0103601067000000015000
B0456133207053S11657075EA0104201067000000015000
B0456173207077S11657140EA0104001071000000015000
B0456213207126S11657129EA0105101082000000015000
B0456253207117S11657060EA0105901090000000015000
B0456293207048S11657052EA0107201105000000015000
B0456333207026S11657120EA0107901110000000015000
B0456373207068S11657159EA0108501116000000015000
B0456413207104S11657117EA0109401128000000015000
B0456453207066S11657062EA0110201135000000015000
B0456493207005S11657094EA0111101146000000015000
B0456533207005S11657163EA0111901151000000015000
B0456573207053S11657181EA0112301156000000015000
B0457013207072S11657120EA0113401169000000015000
B0457053207021S11657077EA0114701188000000015000
B0457093206970S11657117EA0115601191000000015000
B0457133206986S11657179EA0116101203000000015000
B0457173207033S11657174EA0117001205000000015000
B0457213207027S11657104EA0117301216000000015000
B0457253206964S11657078EA0118801230000000015000
B0457293206909S11657121EA0119801239000000015000
B0457333206910S11657186EA0120701246000000015000
B0457373206955S11657213EA0121201249000000015000
B0457413206998S11657177EA0121701258000000015000
B0457453206977S11657111EA0122601265000000015000
B0457493206910S11657109EA0123801282000000015000
B0457533206888S11657172EA0124901292000000015000
B0457573206923S11657215EA0125301293000000015000
B0458013206969S11657187EA0125801299000000015000
B0458053206952S11657121EA0126501312000000015000
B0458093206888S11657107EA0128001326000000015000
B0458133206848S11657161EA0128701331000000015000
B0458173206870S11657217EA0128701330000000015000
B0458213206921S11657204EA0128901334000000015000
B0458253206925S11657135EA0129401343000000015000
B0458293206870S11657090EA0130601355000000015000
B0458333206809S11657117EA0131701366000000015000
B0458373206799S11657181EA0132501369000000015000
B0458413206836S11657220EA0132101362000000015000
B0458453206883S11657187EA0131201358000000015000
B0458493206884S11657108EA0131301366000000015000
B0458533206827S11657053EA0133001383000000015000
B0458573206756S11657061EA0134101391000000015000
B0459013206731S11657125EA0135101402000000015000
B0459053206767S11657164EA0135501401000000015000
B0459093206801S11657122EA0135401406000000015000
B0459133206767S11657059EA0136101412000000015000
B0459173206699S11657060EA0136601415000000015000
B0459213206679S11657126EA0136901417000000015000
B0459253206722S11657165EA0136801414000000015000
B0459293206764S11657127EA0136801418000000015000
B0459333206743S11657055EA0137601428000000015000
B0459373206678S11657020EA0138101431000000015000
B0459413206613S11657049EA0138401434000000015000
B0459453206589S11657116EA0138501431000000015000
B0459493206618S11657170EA0138101427000000015000
B0459533206671S11657174EA0137601425000000015000
B0459573206721S11657140EA0137501425000000015000
B0500013206757S11657090EA0137601426000000015000
B0500053206760S11657009EA0137301421000000015000
B0500093206761S11656921EA0136201405000000000000
B0500133206790S11656844EA0134901392000000000000
B0500173206842S11656795EA0134001386000000000000
B0500213206897S11656766EA0133701385000000000000
B0500253206956S11656752EA0133701385000000000000
B0500293207014S11656744EA0133801386000000000000
B0500333207070S11656750EA0134401399000000000000
B0500373207125S11656762EA0135201402000000000000
B0500413207181S11656776EA0135501407000000000000
B0500453207238S11656789EA0136201416000000000000
B0500493207294S11656791EA0137201426000000000000
B0500533207317S11656739EA0138201434000000000000
B0500573207282S11656688EA0139001445000000000000
B0501013207224S11656695EA0140101454000000000000
B0501053207186S11656756EA0139901445000000000000
B0501093207215S11656818EA0139901452000000015000
B0501133207265S11656799EA0140701462000000015000
B0501173207267S11656731EA0141601470000000015000
B0501213207212S11656697EA0142801482000000015000
B0501253207152S11656732EA0143301482000000015000
B0501293207143S11656808EA0143401489000000015000
B0501333207190S11656840EA0144601500000000015000
B0501373207230S11656801EA0145501509000000015000
B0501413207208S11656740EA0146201517000000015000
B0501453207144S11656750EA0147201524000000015000
B0501493207128S11656822EA0147501529000000015000
B0501533207173S11656860EA0148801545000000015000
B0501573207219S11656822EA0149401545000000015000
B0502013207199S11656757EA0150201559000000015000
B0502053207142S11656753EA0151501567000000015000
B0502093207102S11656809EA0151401564000000015000
B0502133207134S11656861EA0151401568000000015000
B0502173207183S11656830EA0152301579000000015000
B0502213207178S11656763EA0153001582000000015000
B0502253207122S11656740EA0153101580000000015000
B0502293207073S11656792EA0152801581000000015000
B0502333207076S11656865EA0153001584000000015000
B0502373207122S11656888EA0154101601000000015000
B0502413207164S11656854EA0154901603000000015000
B0502453207151S11656791EA0154601598000000015000
B0502493207092S11656779EA0154701605000000015000
B0502533207042S11656823EA0154901602000000015000
B0502573207034S11656896EA0154601600000000015000
B0503013207082S11656929EA0154801605000000015000
B0503053207141S11656925EA0156001616000000015000
B0503093207189S11656895EA0156801622000000015000
B0503133207180S11656827EA0156901621000000015000
B0503173207125S11656801EA0156901623000000015000
B0503213207064S11656802EA0156701621000000015000
B0503253207013S11656843EA0157101625000000015000
B0503293206998S11656917EA0156901618000000015000
B0503333207031S11656981EA0156401617000000015000
B0503373207087S11656970EA0157601638000000015000
B0503413207091S11656913EA0159301646000000015000
B0503453207037S11656895EA0159001642000000015000
B0503493206990S11656945EA0158601634000000015000
B0503533207011S11657017EA0156801610000000015000
B0503573207079S11657009EA0156401624000000015000
B0504013207143S11656983EA0157101630000000015000
B0504053207209S11656964EA0157401631000000000000
B0504093207278S11656957EA0157101624000000000000
B0504133207349S11656964EA0156301618000000000000
B0504173207420S11656969EA0155501608000000000000
B0504213207494S11656973EA0154401599000000000000
B0504253207571S11656977EA0153701592000000000000
B0504293207646S11656982EA0153501592000000000000
B0504333207722S11656988EA0153201588000000000000
B0504373207798S11656997EA0152901582000000000000
B0504413207875S11657012EA0152101575000000000000
B0504453207953S11657031EA0151501567000000000000
B0504493208031S11657055EA0150901562000000000000
B0504533208108S11657070EA0150401557000000000000
B0504573208182S11657078EA0149601549000000000000
B0505013208256S11657082EA0148401533000000000000
B0505053208327S11657086EA0147301522000000000000
B0505093208398S11657094EA0147201526000000000000
B0505133208465S11657099EA0147701532000000000000
B0505173208529S11657094EA0148701543000000000000
B0505213208589S11657077EA0149101543000000000000
B0505253208646S11657052EA0148701538000000000000
B0505293208706S11657025EA0148201531000000000000
B0505333208764S11656988EA0147301523000000000000
B0505373208831S11656960EA0146601516000000000000
B0505413208902S11656938EA0145901508000000000000
B0505453208975S11656927EA0145401507000000000000
B0505493209048S11656919EA0145601508000000000000
B0505533209122S11656918EA0145401506000000000000
B0505573209197S11656921EA0144801494000000000000
B0506013209274S11656925EA0143801487000000000000
B0506053209349S11656930EA0143401485000000000000
B0506093209422S11656935EA0143101481000000000000
B0506133209494S11656938EA0142601475000000000000
B0506173209565S11656943EA0142201471000000000000
B0506213209634S11656948EA0141801467000000000000
B0506253209702S11656955EA0141501465000000000000
B0506293209768S11656964EA0141001459000000000000
B0506333209833S11656971EA0140901460000000000000
B0506373209894S11656969EA0140701456000000000000
B0506413209954S11656953EA0140301453000000000000
B0506453210010S11656934EA0140601458000000000000
B0506493210060S11656910EA0140601455000000000000
B0506533210114S11656886EA0139601442000000000000
B0506573210172S11656865EA0138401432000000000000
B0507013210232S11656851EA0137701425000000000000
B0507053210296S11656848EA0137101419000000000000
B0507093210361S11656852EA0137001421000000000000
B0507133210424S11656854EA0137001416000000000000
B0507173210489S11656860EA0136101405000000000000
B0507213210557S11656865EA0135401398000000000000
B0507253210622S11656873EA0134601388000000000000
B0507293210688S11656882EA0133701380000000000000
B0507333210752S11656895EA0133001374000000000000
B0507373210817S11656909EA0132201364000000000000
B0507413210882S11656926EA0131601359000000000000
B0507453210947S11656935EA0131501358000000000000
B0507493211011S11656931EA0131001352000000000000
B0507533211076S11656921EA0130301346000000000000
B0507573211143S11656914EA0129501337000000000000
B0508013211210S11656906EA0129001330000000000000
B0508053211277S11656900EA0128001322000000000000
B0508093211346S11656901EA0127501315000000000000
B0508133211414S11656904EA0126701307000000000000
B0508173211483S11656909EA0125901297000000000000
B0508213211550S11656909EA0124901287000000000000
B0508253211618S11656904EA0123901276000000000000
B0508293211687S11656900EA0122901265000000000000
B0508333211756S11656897EA0122201262000000000000
B0508373211823S11656899EA0121901258000000000000
B0508413211891S11656900EA0121501254000000000000
B0508453211957S11656905EA0121301250000000000000
B0508493212022S11656921EA0120501242000000000000
B0508533212084S11656940EA0119801232000000000000
B0508573212148S11656961EA0118401215000000000000
B0509013212212S11656988EA0117301209000000000000
B0509053212273S11657016EA0117101207000000000000
B0509093212331S11657029EA0116901204000000000000
B0509133212391S11657033EA0116101194000000000000
B0509173212451S11657046EA0115301186000000000000
B0509213212508S11657068EA0114201172000000000000
B0509253212565S11657101EA0112801159000000000000
B0509293212621S11657135EA0112501162000000000000
B0509333212676S11657166EA0112501159000000000000
B0509373212732S11657192EA0111801151000000000000
B0509413212790S11657218EA0110901142000000000000
B0509453212849S11657238EA0110301134000000000000
B0509493212907S11657234EA0109701128000000000000
B0509533212965S11657226EA0108901118000000000000
B0509573213024S11657229EA0108101111000000000000
B0510013213080S11657242EA0107201101000000000000
B0510053213135S11657252EA0106601096000000000000
B0510093213187S11657267EA0106101090000000000000
B0510133213238S11657280EA0105401081000000000000
B0510173213290S11657286EA0104801078000000000000
B0510213213340S11657296EA0104301068000000000000
B0510253213395S11657298EA0102701054000000000000
B0510293213452S11657289EA0102001051000000000000
B0510333213509S11657293EA0101801046000000000000
B0510373213568S11657298EA0101001037000000000000
B0510413213626S11657299EA0100401030000000000000
B0510453213687S11657296EA0099701024000000000000
B0510493213724S11657256EA0100501041000000000000
B0510533213691S11657195EA0101501046000000000000
B0510573213622S11657199EA0101501044000000000000
B0511013213592S11657268EA0101501042000000000000
B0511053213629S11657316EA0100701031000000015000
B0511093213674S11657291EA0100401034000000015000
B0511133213707S11657238EA0100901043000000015000
B0511173213708S11657174EA0101801046000000015000
B0511213213654S11657139EA0101001031000000015000
B0511253213600S11657186EA0099601021000000000000
B0511293213607S11657259EA0099601024000000015000
B0511333213654S11657299EA0099401022000000015000
B0511373213711S11657298EA0100201031000000015000
B0511413213726S11657241EA0100001021000000015000
B0511453213670S11657205EA0098101001000000015000
B0511493213615S11657252EA0097501003000000015000
B0511533213581S11657321EA0097801007000000000000
B0511573213576S11657394EA0098401011000000000000
B0512013213625S11657419EA0098901013000000015000
B0512053213621S11657355EA0099301014000000015000
B0512093213552S11657346EA0099001016000000015000
B0512133213522S11657411EA0099601024000000015000
B0512173213556S11657464EA0100201031000000015000
B0512213213592S11657430EA0100901040000000015000
B0512253213564S11657368EA0100901034000000015000
B0512293213500S11657371EA0101001041000000015000
B0512333213475S11657433EA0101401038000000015000
B0512373213508S11657482EA0101401044000000015000
B0512413213548S11657454EA0101801045000000015000
B0512453213538S11657386EA0101801044000000015000
B0512493213474S11657358EA0101401040000000015000
B0512533213422S11657404EA0101701044000000015000
B0512573213421S11657475EA0101701043000000015000
B0513013213461S11657511EA0101601045000000015000
B0513053213496S11657477EA0102201050000000015000
B0513093213481S11657413EA0102201046000000015000
B0513133213418S11657389EA0102001043000000015000
B0513173213365S11657432EA0101801041000000015000
B0513213213365S11657499EA0101201034000000015000
B0513253213405S11657533EA0101001036000000015000
B0513293213455S11657546EA0101201040000000015000
B0513333213505S11657547EA0101001036000000000000
B0513373213556S11657521EA0100901038000000000000
B0513413213603S11657484EA0101501047000000000000
B0513453213639S11657433EA0102401056000000000000
B0513493213608S11657371EA0102601050000000000000
B0513533213544S11657384EA0102101048000000000000
B0513573213520S11657443EA0102001039000000000000
B0514013213547S11657498EA0101101036000000000000
B0514053213600S11657494EA0101701051000000015000
B0514093213626S11657441EA0103101061000000015000
B0514133213615S11657372EA0102801046000000015000
B0514173213556S11657329EA0101101031000000015000
B0514213213491S11657355EA0100301028000000015000
B0514253213446S11657411EA0099501015000000015000
B0514293213434S11657484EA0098501007000000015000
B0514333213481S11657527EA0098301009000000015000
B0514373213538S11657540EA0098501017000000000000
B0514413213591S11657547EA0099301023000000000000
B0514453213643S11657537EA0099401021000000000000
B0514493213657S11657475EA0099201020000000000000
B0514533213612S11657420EA0099001017000000000000
B0514573213544S11657426EA0098601010000000015000
B0515013213490S11657481EA0097901003000000000000
B0515053213447S11657545EA0097701002000000000000
B0515093213431S11657616EA0097701004000000000000
B0515133213459S11657671EA0098201010000000000000
B0515173213508S11657694EA0098701014000000000000
B0515213213560S11657693EA0098901016000000000000
B0515253213589S11657641EA0099001008000000000000
B0515293213552S11657582EA0097400994000000015000
B0515333213483S11657588EA0096400984000000015000
B0515373213435S11657647EA0095900981000000015000
B0515413213408S11657722EA0096100986000000000000
B0515453213405S11657792EA0097401002000000000000
B0515493213447S11657801EA0098201003000000000000
B0515533213438S11657732EA0097500995000000015000
B0515573213368S11657714EA0097501002000000015000
B0516013213317S11657772EA0098201010000000015000
B0516053213332S11657844EA0099301025000000015000
B0516093213382S11657853EA0101101043000000015000
B0516133213401S11657797EA0102401054000000015000
B0516173213355S11657749EA0102501049000000015000
B0516213213293S11657775EA0102401053000000015000
B0516253213287S11657842EA0103301067000000015000
B0516293213326S11657875EA0105001083000000015000
B0516333213364S11657844EA0106101092000000015000
B0516373213351S11657781EA0106101090000000015000
B0516413213291S11657757EA0105801084000000015000
B0516453213231S11657789EA0105501085000000015000
B0516493213202S11657855EA0106001092000000015000
B0516533213231S11657913EA0106901105000000015000
B0516573213265S11657875EA0108101116000000015000
B0517013213226S11657823EA0108801123000000015000
B0517053213171S11657852EA0109401128000000015000
B0517093213180S11657913EA0110101136000000015000
B0517133213226S11657910EA0111001148000000015000
B0517173213226S11657849EA0111801151000000015000
B0517213213170S11657818EA0112001154000000015000
B0517253213117S11657855EA0112301159000000015000
B0517293213119S11657919EA0113001165000000015000
B0517333213163S11657923EA0113801173000000015000
B0517373213174S11657865EA0114401177000000015000
B0517413213132S11657813EA0114801181000000015000
B0517453213070S11657813EA0115101185000000015000
B0517493213027S11657863EA0115201186000000015000
B0517533213037S11657922EA0115501193000000015000
B0517573213080S11657939EA0116301199000000015000
B0518013213113S11657897EA0117201216000000015000
B0518053213095S11657840EA0118301218000000015000
B0518093213035S11657810EA0117901214000000015000
B0518133212981S11657841EA0118601228000000015000
B0518173212968S11657898EA0119001225000000015000
B0518213212997S11657945EA0119001230000000015000
B0518253213041S11657946EA0119701236000000015000
B0518293213059S11657894EA0120601242000000015000
B0518333213017S11657846EA0120501238000000015000
B0518373212952S11657861EA0121101252000000015000
B0518413212920S11657924EA0121801252000000015000
B0518453212945S11657983EA0121901260000000015000
B0518493212989S11657970EA0123001271000000015000
B0518533212989S11657906EA0123701279000000015000
B0518573212932S11657870EA0124601289000000015000
B0519013212881S11657913EA0125601296000000015000
B0519053212890S11657979EA0126001302000000015000
B0519093212935S11657992EA0127301314000000015000
B0519133212955S11657945EA0128501325000000015000
B0519173212926S11657893EA0129301329000000015000
B0519213212861S11657878EA0129201328000000015000
B0519253212809S11657924EA0130101340000000015000
B0519293212799S11657995EA0130601344000000015000
B0519333212835S11658037EA0130901351000000015000
B0519373212877S11658018EA0131901358000000015000
B0519413212875S11657959EA0133001368000000015000
B0519453212823S11657926EA0134601385000000015000
B0519493212771S11657965EA0135101380000000015000
B0519533212776S11658037EA0134901388000000015000
B0519573212820S11658065EA0135501396000000015000
B0520013212863S11658028EA0135901397000000015000
B0520053212862S11657953EA0136201404000000015000
B0520093212818S11657889EA0136601406000000015000
B0520133212745S11657884EA0137401419000000015000
B0520173212686S11657924EA0138401438000000015000
B0520213212689S11657989EA0139801444000000015000
B0520253212737S11658000EA0140301452000000015000
B0520293212747S11657943EA0141201459000000015000
B0520333212693S11657900EA0141301463000000015000
B0520373212630S11657932EA0142501480000000015000
B0520413212614S11658005EA0143901487000000015000
B0520453212651S11658056EA0144201492000000015000
B0520493212701S11658043EA0145301504000000015000
B0520533212716S11657984EA0146201511000000015000
B0520573212681S11657931EA0147101518000000015000
B0521013212619S11657932EA0147101518000000015000
B0521053212582S11657995EA0147901529000000015000
B0521093212599S11658060EA0148301530000000015000
B0521133212649S11658088EA0148601537000000015000
B0521173212694S11658054EA0149501545000000015000
B0521213212693S11657992EA0150201555000000015000
B0521253212649S11657950EA0150401551000000015000
B0521293212589S11657965EA0149701544000000015000
B0521333212550S11658026EA0149601544000000015000
B0521373212555S11658096EA0150101554000000015000
B0521413212594S11658140EA0151001563000000015000
B0521453212647S11658149EA0151901575000000015000
B0521493212702S11658144EA0152701581000000000000
B0521533212759S11658130EA0152801582000000000000
B0521573212820S11658112EA0152101566000000000000
B0522013212885S11658087EA0149801540000000000000
B0522053212954S11658053EA0147701523000000000000
B0522093213024S11658015EA0146301511000000000000
B0522133213095S11657972EA0145201499000000000000
B0522173213160S11657926EA0144601497000000000000
B0522213213222S11657878EA0144401495000000000000
B0522253213287S11657833EA0143801486000000000000
B0522293213352S11657790EA0143001478000000000000
B0522333213423S11657755EA0142201467000000000000
B0522373213500S11657729EA0141201459000000000000
B0522413213574S11657706EA0140901456000000000000
B0522453213650S11657686EA0140501452000000000000
B0522493213725S11657671EA0139801445000000000000
B0522533213803S11657660EA0139301440000000000000
B0522573213880S11657651EA0139301443000000000000
B0523013213953S11657645EA0140101451000000000000
B0523053214019S11657628EA0140601453000000000000
B0523093214081S11657602EA0139701439000000000000
B0523133214148S11657577EA0138301424000000000000
B0523173214211S11657547EA0137001412000000000000
B0523213214275S11657516EA0136001404000000000000
B0523253214333S11657480EA0135301395000000000000
B0523293214393S11657442EA0134301386000000000000
B0523333214461S11657420EA0133601378000000000000
B0523373214532S11657411EA0133201375000000000000
B0523413214605S11657411EA0133001371000000000000
B0523453214675S11657412EA0132801374000000000000
B0523493214742S11657404EA0133301376000000000000
B0523533214809S11657394EA0132501366000000000000
B0523573214881S11657387EA0131901363000000000000
B0524013214950S11657381EA0132701375000000000000
B0524053215012S11657368EA0133901386000000000000
B0524093215060S11657337EA0135301400000000000000
B0524133215045S11657277EA0136201407000000000000
B0524173214980S11657274EA0136601413000000000000
B0524213214926S11657326EA0137001416000000000000
B0524253214912S11657400EA0137401420000000000000
B0524293214944S11657452EA0137801422000000015000
B0524333214986S11657436EA0138101427000000015000
B0524373214974S11657381EA0138901434000000015000
B0524413214911S11657380EA0139201438000000015000
B0524453214876S11657445EA0139501440000000015000
B0524493214894S11657510EA0139301435000000015000
B0524533214943S11657541EA0138701426000000015000
B0524573215000S11657542EA0137601419000000015000
B0525013215060S11657528EA0137001412000000000000
B0525053215120S11657507EA0136501406000000000000
B0525093215184S11657478EA0135701397000000000000
B0525133215253S11657454EA0135201394000000000000
B0525173215319S11657424EA0134801388000000000000
B0525213215388S11657394EA0132901362000000000000
B0525253215466S11657381EA0130301339000000000000
B0525293215546S11657380EA0129401334000000000000
B0525333215624S11657380EA0129001329000000000000
B0525373215702S11657378EA0128701327000000000000
B0525413215774S11657358EA0129201344000000000000
B0525453215835S11657325EA0130801356000000000000
B0525493215890S11657287EA0131101354000000000000
B0525533215940S11657242EA0130901352000000000000
B0525573215990S11657191EA0131201358000000000000
B0526013216031S11657134EA0132501372000000000000
B0526053216009S11657068EA0134601396000000000000
B0526093215943S11657083EA0136501414000000000000
B0526133215932S11657156EA0137901427000000000000
B0526173215981S11657179EA0139001437000000000000
B0526213215994S11657126EA0140301458000000015000
B0526253215934S11657111EA0142301473000000015000
B0526293215904S11657179EA0143101478000000015000
B0526333215944S11657228EA0144001490000000015000
B0526373215982S11657194EA0145201505000000015000
B0526413215957S11657135EA0147001525000000015000
B0526453215890S11657137EA0148701537000000015000
B0526493215851S11657207EA0149501543000000015000
B0526533215878S11657276EA0150201559000000015000
B0526573215930S11657287EA0151601571000000015000
B0527013215955S11657242EA0152901586000000015000
B0527053215906S11657198EA0154501601000000015000
B0527093215849S11657243EA0156101618000000015000
B0527133215857S11657316EA0157401628000000015000
B0527173215906S11657341EA0158101632000000015000
B0527213215926S11657291EA0159301652000000015000
B0527253215870S11657265EA0161201671000000015000
B0527293215815S11657317EA0162601682000000015000
B0527333215825S11657391EA0163701694000000015000
B0527373215873S11657407EA0164501701000000015000
B0527413215896S11657361EA0165901715000000015000
B0527453215860S11657315EA0167101727000000015000
B0527493215796S11657343EA0168301741000000015000
B0527533215780S11657419EA0169601753000000015000
B0527573215821S11657463EA0170301757000000015000
B0528013215858S11657438EA0171101770000000015000
B0528053215840S11657390EA0173001791000000015000
B0528093215776S11657391EA0173901795000000015000
B0528133215736S11657463EA0174601809000000015000
B0528173215753S11657534EA0175701817000000015000
B0528213215802S11657559EA0176101821000000015000
B0528253215831S11657517EA0176801830000000015000
B0528293215804S11657467EA0177801837000000015000
B0528333215736S11657471EA0178201844000000015000
B0528373215702S11657546EA0179201861000000015000
B0528413215730S11657603EA0180801868000000015000
B0528453215771S11657595EA0181001868000000015000
B0528493215770S11657541EA0180801872000000015000
B0528533215721S11657503EA0181201874000000015000
B0528573215653S11657530EA0181901887000000015000
B0529013215626S11657607EA0183201897000000015000
B0529053215650S11657668EA0183401896000000015000
B0529093215695S11657667EA0183701901000000015000
B0529133215705S11657616EA0183901903000000015000
B0529173215669S11657568EA0184001904000000015000
B0529213215601S11657584EA0184301910000000015000
B0529253215568S11657659EA0184901913000000015000
B0529293215593S11657724EA0185201916000000015000
B0529333215641S11657744EA0185101915000000015000
B0529373215696S11657745EA0184101897000000015000
B0529413215758S11657745EA0182101874000000000000
B0529453215827S11657737EA0180401865000000000000
B0529493215893S11657728EA0180601871000000000000
B0529533215958S11657718EA0180801872000000000000
B0529573216025S11657707EA0180601863000000000000
B0530013216092S11657689EA0178901844000000000000
B0530053216161S11657667EA0177201829000000000000
B0530093216229S11657645EA0176601829000000000000
B0530133216294S11657627EA0176201823000000000000
B0530173216361S11657612EA0175201812000000000000
B0530213216430S11657602EA0174501804000000000000
B0530253216498S11657593EA0174001802000000000000
B0530293216566S11657580EA0173501795000000000000
B0530333216634S11657564EA0173101793000000000000
B0530373216701S11657546EA0172801789000000000000
B0530413216766S11657523EA0172201781000000000000
B0530453216836S11657502EA0171301775000000000000
B0530493216906S11657489EA0171301775000000000000
B0530533216975S11657473EA0171201774000000000000
B0530573217044S11657451EA0170401762000000000000
B0531013217117S11657437EA0169201750000000000000
B0531053217192S11657433EA0168201742000000000000
B0531093217269S11657436EA0167601734000000000000
B0531133217343S11657439EA0167501736000000000000
B0531173217418S11657439EA0166701723000000000000
B0531213217495S11657441EA0165401708000000000000
B0531253217576S11657445EA0164001695000000000000
B0531293217655S11657449EA0163001685000000000000
B0531333217736S11657455EA0161801674000000000000
B0531373217815S11657462EA0161401671000000000000
B0531413217893S11657463EA0161201668000000000000
B0531453217971S11657468EA0160801664000000000000
B0531493218049S11657473EA0160301657000000000000
B0531533218127S11657478EA0159701649000000000000
B0531573218205S11657482EA0158801642000000000000
B0532013218284S11657484EA0157701629000000000000
B0532053218365S11657485EA0156601620000000000000
B0532093218447S11657488EA0156201618000000000000
B0532133218521S11657489EA0158001640000000000000
B0532173218588S11657484EA0159301656000000000000
B0532213218652S11657475EA0160401664000000000000
B0532253218711S11657463EA0162201690000000000000
B0532293218740S11657420EA0165001715000000000000
B0532333218698S11657374EA0166501723000000000000
B0532373218638S11657419EA0166701730000000000000
B0532413218634S11657495EA0168101747000000000000
B0532453218675S11657534EA0169301758000000000000
B0532493218716S11657511EA0170501767000000015000
B0532533218714S11657451EA0171401778000000015000
B0532573218674S11657406EA0172601783000000000000
B0533013218612S11657432EA0173601798000000000000
B0533053218594S11657501EA0174501798000000015000
B0533093218630S11657551EA0174001797000000015000
B0533133218681S11657541EA0174601818000000015000
B0533173218701S11657494EA0176201829000000015000
B0533213218678S11657439EA0176001817000000015000
B0533253218617S11657425EA0175701830000000015000
B0533293218571S11657469EA0177501848000000015000
B0533333218568S11657534EA0178201846000000015000
B0533373218609S11657575EA0178401850000000015000
B0533413218655S11657549EA0179001855000000015000
B0533453218647S11657491EA0179301853000000015000
B0533493218591S11657471EA0178601845000000015000
B0533533218538S11657521EA0178401850000000015000
B0533573218534S11657601EA0179901869000000015000
B0534013218571S11657655EA0181601884000000015000
B0534053218621S11657653EA0182601892000000015000
B0534093218640S11657597EA0182401885000000015000
B0534133218607S11657545EA0181301875000000015000
B0534173218545S11657555EA0180601867000000015000
B0534213218509S11657623EA0179901862000000015000
B0534253218522S11657703EA0179701864000000015000
B0534293218570S11657748EA0180701874000000015000
B0534333218627S11657762EA0180101862000000015000
B0534373218692S11657762EA0178701850000000000000
B0534413218763S11657764EA0177501835000000000000
B0534453218839S11657762EA0175901821000000000000
B0534493218920S11657758EA0174901807000000000000
B0534533219003S11657755EA0173701797000000000000
B0534573219086S11657754EA0173301799000000000000
B0535013219167S11657754EA0173501800000000000000
B0535053219242S11657748EA0173501799000000000000
B0535093219316S11657738EA0173201794000000000000
B0535133219390S11657729EA0172401788000000000000
B0535173219465S11657733EA0172201786000000000000
B0535213219537S11657745EA0172201786000000000000
B0535253219609S11657759EA0172001783000000000000
B0535293219679S11657772EA0171701782000000000000
B0535333219748S11657787EA0171301776000000000000
B0535373219818S11657801EA0170401765000000000000
B0535413219890S11657818EA0169701761000000000000
B0535453219961S11657836EA0169201753000000000000
B0535493220035S11657852EA0168001738000000000000
B0535533220112S11657863EA0167101727000000000000
B0535573220189S11657872EA0166301720000000000000
B0536013220265S11657885EA0165501714000000000000
B0536053220342S11657898EA0165001708000000000000
B0536093220420S11657911EA0164301700000000000000
B0536133220501S11657923EA0163701695000000000000
B0536173220579S11657924EA0163701694000000000000
B0536213220651S11657906EA0163601694000000000000
B0536253220719S11657879EA0163501695000000000000
B0536293220785S11657854EA0163701696000000000000
B0536333220846S11657828EA0163901697000000000000
B0536373220905S11657802EA0163601692000000000000
B0536413220965S11657772EA0162601680000000000000
B0536453221027S11657744EA0161001660000000000000
B0536493221096S11657723EA0159401646000000000000
B0536533221164S11657702EA0159501649000000000000
B0536573221220S11657677EA0160301662000000000000
B0537013221268S11657647EA0160901662000000000000
B0537053221318S11657616EA0160201652000000000000
B0537093221374S11657584EA0158901638000000000000
B0537133221438S11657559EA0157901630000000000000
B0537173221506S11657551EA0157801630000000000000
B0537213221569S11657551EA0157701630000000000000
B0537253221629S11657553EA0157201625000000000000
B0537293221691S11657554EA0155801607000000000000
B0537333221759S11657558EA0154201588000000000000
B0537373221831S11657563EA0152701575000000000000
B0537413221903S11657569EA0151601564000000000000
B0537453221977S11657579EA0150901559000000000000
B0537493222052S11657589EA0150101546000000000000
B0537533222128S11657592EA0148401529000000000000
B0537573222205S11657590EA0147401523000000000000
B0538013222279S11657590EA0147001517000000000000
B0538053222354S11657589EA0146201508000000000000
B0538093222431S11657586EA0145501502000000000000
B0538133222507S11657579EA0145401503000000000000
B0538173222578S11657560EA0145301498000000000000
B0538213222652S11657540EA0144401489000000000000
B0538253222726S11657517EA0143601481000000000000
B0538293222802S11657499EA0142801471000000000000
B0538333222878S11657480EA0142201466000000000000
B0538373222956S11657459EA0141001449000000000000
B0538413223034S11657436EA0139901444000000000000
B0538453223110S11657406EA0139401437000000000000
B0538493223185S11657373EA0138301419000000000000
B0538533223267S11657355EA0136501404000000000000
B0538573223346S11657347EA0136101403000000000000
B0539013223424S11657345EA0135301391000000000000
B0539053223505S11657339EA0133601371000000000000
B0539093223589S11657337EA0132101357000000000000
B0539133223674S11657342EA0130901343000000000000
B0539173223758S11657351EA0129901339000000000000
B0539213223840S11657359EA0129601335000000000000
B0539253223918S11657365EA0129301333000000000000
B0539293223992S11657360EA0129501336000000000000
B0539333224059S11657333EA0129801337000000000000
B0539373224115S11657291EA0129301330000000000000
B0539413224163S11657238EA0129201331000000000000
B0539453224202S11657173EA0129201332000000000000
B0539493224234S11657111EA0129901343000000000000
B0539533224263S11657051EA0130001337000000000000
B0539573224291S11656987EA0129301331000000000000
B0540013224324S11656926EA0129101330000000000000
B0540053224364S11656871EA0128001315000000000000
B0540093224410S11656814EA0126701298000000000000
B0540133224446S11656747EA0125901293000000000000
B0540173224470S11656671EA0125001284000000000000
B0540213224497S11656597EA0124301278000000000000
B0540253224538S11656535EA0124001275000000000000
B0540293224592S11656487EA0122801258000000000000
B0540333224652S11656445EA0121701251000000000000
B0540373224714S11656410EA0121501252000000000000
B0540413224775S11656377EA0121701254000000000000
B0540453224830S11656334EA0121401246000000000000
B0540493224887S11656292EA0120801244000000000000
B0540533224943S11656254EA0121801262000000000000
B0540573224986S11656212EA0123001265000000000000
B0541013225019S11656158EA0122301253000000000000
B0541053225052S11656094EA0121201243000000000000
B0541093225074S11656019EA0120101231000000000000
B0541133225095S11655941EA0118901217000000000000
B0541173225139S11655877EA0117701205000000000000
B0541213225199S11655839EA0116701196000000000000
B0541253225268S11655829EA0115701184000000000000
B0541293225338S11655851EA0115001175000000000000
B0541333225402S11655896EA0114001168000000000000
B0541373225459S11655954EA0113201160000000000000
B0541413225511S11656019EA0112201151000000000000
B0541453225562S11656082EA0111801149000000000000
B0541493225610S11656147EA0111601146000000000000
B0541533225659S11656211EA0110701136000000000000
B0541573225707S11656277EA0109601122000000000000
B0542013225751S11656353EA0108601110000000000000
B0542053225789S11656435EA0107301094000000000000
B0542093225825S11656519EA0106701097000000000000
B0542133225859S11656597EA0107001099000000000000
B0542173225909S11656652EA0107501104000000000000
B0542213225958S11656632EA0108601121000000000000
B0542253225953S11656579EA0110401134000000000000
B0542293225902S11656554EA0110901132000000015000
B0542333225853S11656604EA0110401125000000015000
B0542373225868S11656671EA0109801121000000015000
B0542413225923S11656675EA0109801125000000015000
B0542453225940S11656618EA0110801138000000015000
B0542493225893S11656576EA0111401142000000015000
B0542533225831S11656606EA0111801142000000015000
B0542573225818S11656684EA0111501141000000015000
B0543013225862S11656727EA0111601147000000015000
B0543053225902S11656697EA0112501154000000015000
B0543093225881S11656637EA0113201149000000015000
B0543133225812S11656635EA0113001154000000015000
B0543173225786S11656706EA0113201152000000015000
B0543213225832S11656752EA0112901156000000015000
B0543253225872S11656715EA0113901168000000015000
B0543293225838S11656663EA0114801172000000030000
B0543333225779S11656691EA0114801170000000015000
B0543373225766S11656765EA0115101181000000015000
B0543413225803S11656810EA0116201194000000015000
B0543453225840S11656786EA0117801203000000015000
B0543493225823S11656726EA0117901202000000015000
B0543533225759S11656719EA0118101207000000015000
B0543573225724S11656782EA0118401213000000015000
B0544013225750S11656839EA0119001226000000015000
B0544053225799S11656832EA0120301233000000015000
B0544093225809S11656771EA0121001235000000015000
B0544133225750S11656735EA0121201243000000015000
B0544173225693S11656775EA0121801245000000015000
B0544213225698S11656848EA0122201253000000015000
B0544253225747S11656869EA0123501271000000015000
B0544293225784S11656831EA0124901279000000015000
B0544333225775S11656765EA0125601287000000015000
B0544373225718S11656744EA0126901305000000015000
B0544413225667S11656784EA0127501302000000015000
B0544453225671S11656854EA0126901301000000015000
B0544493225718S11656890EA0127601316000000015000
B0544533225760S11656862EA0129101327000000015000
B0544573225763S11656801EA0130501336000000015000
B0545013225720S11656756EA0131201344000000015000
B0545053225658S11656770EA0131901354000000015000
B0545093225630S11656828EA0132601358000000015000
B0545133225659S11656879EA0132201357000000015000
B0545173225712S11656878EA0133001366000000015000
B0545213225741S11656830EA0133801371000000015000
B0545253225721S11656767EA0134301372000000015000
B0545293225662S11656750EA0134301378000000015000
B0545333225619S11656800EA0135001387000000015000
B0545373225633S11656862EA0135601390000000015000
B0545413225688S11656877EA0136001401000000015000
B0545453225723S11656831EA0137001408000000015000
B0545493225710S11656767EA0137101406000000015000
B0545533225662S11656735EA0137001406000000015000
B0545573225610S11656769EA0137001409000000015000
B0546013225588S11656834EA0137701424000000015000
B0546053225611S11656884EA0139201438000000015000
B0546093225654S11656861EA0139701439000000015000
B0546133225640S11656800EA0139801442000000015000
B0546173225581S11656792EA0139901445000000015000
B0546213225549S11656848EA0140301449000000015000
B0546253225569S11656910EA0141001458000000015000
B0546293225617S11656942EA0141701459000000015000
B0546333225671S11656932EA0141101450000000015000
B0546373225716S11656886EA0139901441000000015000
B0546413225754S11656823EA0138701428000000015000
B0546453225780S11656750EA0138201423000000015000
B0546493225801S11656675EA0137901420000000015000
B0546533225842S11656618EA0137501414000000000000
B0546573225902S11656588EA0136501404000000000000
B0547013225970S11656581EA0135801400000000000000
B0547053226039S11656580EA0135401393000000000000
B0547093226104S11656555EA0134901389000000000000
B0547133226157S11656514EA0134101382000000000000
B0547173226212S11656466EA0132801367000000000000
B0547213226262S11656414EA0131901355000000000000
B0547253226318S11656363EA0130701343000000000000
B0547293226375S11656318EA0130201342000000000000
B0547333226431S11656279EA0129801337000000000000
B0547373226486S11656238EA0129501333000000000000
B0547413226530S11656189EA0129701338000000000000
B0547453226566S11656133EA0130301344000000000000
B0547493226595S11656072EA0130301345000000000000
B0547533226618S11656007EA0130101339000000000000
B0547573226643S11655941EA0129601335000000000000
B0548013226669S11655870EA0129301330000000000000
B0548053226690S11655796EA0129901344000000000000
B0548093226693S11655722EA0131601359000000000000
B0548133226644S11655678EA0132501362000000000000
B0548173226589S11655717EA0132401362000000000000
B0548213226590S11655788EA0132701367000000015000
B0548253226638S11655826EA0133601377000000015000
B0548293226682S11655800EA0134601387000000015000
B0548333226678S11655733EA0134601376000000015000
B0548373226618S11655697EA0133601367000000015000
B0548413226560S11655748EA0133301371000000015000
B0548453226533S11655824EA0134201387000000015000
B0548493226555S11655879EA0136001400000000015000
B0548533226594S11655852EA0136401402000000015000
B0548573226569S11655790EA0137001410000000015000
B0549013226507S11655794EA0137901421000000015000
B0549053226486S11655857EA0138701430000000015000
B0549093226520S11655902EA0139301436000000015000
B0549133226565S11655886EA0139801440000000015000
B0549173226561S11655822EA0140701445000000015000
B0549213226500S11655787EA0140601445000000015000
B0549253226440S11655822EA0141401456000000015000
B0549293226436S11655887EA0142301469000000015000
B0549333226478S11655907EA0142801472000000015000
B0549373226509S11655865EA0143501476000000015000
B0549413226483S11655805EA0144201480000000015000
B0549453226418S11655783EA0144401485000000015000
B0549493226361S11655820EA0145201498000000015000
B0549533226353S11655883EA0146101501000000015000
B0549573226399S11655898EA0146201506000000015000
B0550013226409S11655840EA0146901512000000015000
B0550053226358S11655800EA0147101513000000015000
B0550093226297S11655824EA0147601521000000015000
B0550133226278S11655892EA0148101527000000015000
B0550173226312S11655944EA0148601533000000015000
B0550213226360S11655937EA0149401537000000015000
B0550253226373S11655881EA0150201543000000015000
B0550293226335S11655829EA0151101551000000015000
B0550333226275S11655829EA0151901563000000015000
B0550373226240S11655886EA0152501569000000015000
B0550413226262S11655946EA0153101579000000015000
B0550453226310S11655952EA0153901585000000015000
B0550493226330S11655902EA0154901589000000015000
B0550533226297S11655847EA0155401596000000015000
B0550573226236S11655847EA0156401609000000015000
B0551013226202S11655904EA0157401623000000015000
B0551053226217S11655964EA0158201632000000015000
B0551093226262S11655987EA0158801638000000015000
B0551133226300S11655955EA0159601644000000015000
B0551173226299S11655894EA0159901648000000015000
B0551213226249S11655859EA0160401656000000015000
B0551253226192S11655890EA0161001659000000015000
B0551293226183S11655965EA0161501669000000015000
B0551333226222S11656015EA0162201674000000015000
B0551373226277S11656012EA0162601678000000015000
B0551413226306S11655960EA0162801679000000015000
B0551453226295S11655895EA0163001682000000015000
B0551493226236S11655868EA0163001680000000015000
B0551533226170S11655890EA0162901680000000015000
B0551573226127S11655955EA0162901684000000015000
B0552013226136S11656033EA0163601692000000015000
B0552053226183S11656085EA0164101698000000015000
B0552093226245S11656097EA0163801691000000015000
B0552133226313S11656087EA0163101681000000000000
B0552173226382S11656071EA0162101666000000000000
B0552213226455S11656051EA0160601655000000000000
B0552253226529S11656034EA0159501638000000000000
B0552293226608S11656013EA0157801627000000000000
B0552333226689S11655994EA0157001620000000000000
B0552373226769S11655980EA0156701619000000000000
B0552413226846S11655964EA0156501618000000000000
B0552453226921S11655946EA0156001610000000000000
B0552493226995S11655922EA0155301605000000000000
B0552533227068S11655902EA0155001602000000000000
B0552573227140S11655883EA0154701600000000000000
B0553013227211S11655866EA0154401596000000000000
B0553053227281S11655847EA0154201595000000000000
B0553093227350S11655825EA0153801590000000000000
B0553133227419S11655805EA0153601587000000000000
B0553173227487S11655786EA0153501588000000000000
B0553213227552S11655765EA0153101581000000000000
B0553253227617S11655746EA0152801580000000000000
B0553293227679S11655721EA0152601575000000000000
B0553333227742S11655694EA0152101570000000000000
B0553373227800S11655661EA0151701567000000000000
B0553413227859S11655627EA0151101556000000000000
B0553453227918S11655600EA0150401553000000000000
B0553493227978S11655577EA0150101548000000000000
B0553533228038S11655558EA0149501543000000000000
B0553573228098S11655539EA0148901532000000000000
B0554013228158S11655518EA0148301532000000000000
B0554053228214S11655495EA0148301532000000000000
B0554093228271S11655469EA0147701522000000000000
B0554133228332S11655441EA0146501510000000000000
B0554173228393S11655418EA0145501499000000000000
B0554213228457S11655397EA0144401489000000000000
B0554253228518S11655374EA0143801485000000000000
B0554293228579S11655348EA0143401478000000000000
B0554333228643S11655323EA0143001475000000000000
B0554373228706S11655300EA0142801474000000000000
B0554413228769S11655279EA0142401467000000000000
B0554453228832S11655258EA0141201452000000000000
B0554493228899S11655239EA0139801440000000000000
B0554533228961S11655219EA0139801443000000000000
B0554573229020S11655201EA0140301458000000000000
B0555013229066S11655184EA0142101475000000000000
B0555053229107S11655159EA0143301483000000000000
B0555093229143S11655124EA0143601486000000000000
B0555133229179S11655085EA0144001489000000000000
B0555173229220S11655047EA0144901501000000000000
B0555213229229S11654989EA0145501503000000000000
B0555253229176S11654950EA0146201513000000000000
B0555293229116S11654986EA0146801516000000000000
B0555333229088S11655062EA0146801514000000000000
B0555373229105S11655137EA0147101522000000000000
B0555413229156S11655174EA0147801528000000000000
B0555453229202S11655144EA0148601544000000015000
B0555493229179S11655088EA0150601561000000015000
B0555533229118S11655092EA0151601565000000015000
B0555573229088S11655157EA0152101572000000015000
B0556013229109S11655222EA0152801579000000015000
B0556053229160S11655231EA0153301587000000015000
B0556093229179S11655185EA0154801596000000015000
B0556133229127S11655151EA0156101606000000015000
B0556173229077S11655196EA0157301617000000015000
B0556213229083S11655263EA0158101630000000015000
B0556253229126S11655296EA0158901637000000015000
B0556293229161S11655266EA0160201645000000015000
B0556333229131S11655215EA0161501654000000015000
B0556373229064S11655227EA0161801664000000015000
B0556413229038S11655297EA0162801676000000015000
B0556453229074S11655346EA0163301679000000015000
B0556493229122S11655333EA0163801688000000015000
B0556533229127S11655280EA0165301698000000015000
B0556573229073S11655252EA0166501703000000015000
B0557013229013S11655294EA0166801713000000015000
B0557053229003S11655367EA0168101732000000015000
B0557093229034S11655414EA0168901736000000015000
B0557133229078S11655411EA0169301741000000015000
B0557173229091S11655359EA0170401748000000015000
B0557213229049S11655309EA0171401758000000015000
B0557253228986S11655311EA0172301772000000015000
B0557293228944S11655372EA0172601772000000015000
B0557333228953S11655444EA0173001786000000015000
B0557373228992S11655482EA0173701792000000015000
B0557413229034S11655461EA0174001795000000015000
B0557453229033S11655402EA0175101801000000015000
B0557493228981S11655367EA0176301807000000015000
B0557533228922S11655398EA0177101819000000015000
B0557573228909S11655467EA0177501823000000015000
B0558013228944S11655513EA0177601829000000015000
B0558053228990S11655506EA0178001834000000015000
B0558093229033S11655475EA0178201839000000015000
B0558133229072S11655432EA0178401838000000015000
B0558173229108S11655379EA0177901832000000000000
B0558213229151S11655323EA0177301827000000000000
B0558253229208S11655283EA0176901822000000000000
B0558293229277S11655253EA0176601823000000000000
B0558333229350S11655228EA0176501819000000000000
B0558373229419S11655200EA0175801814000000000000
B0558413229486S11655159EA0175101807000000000000
B0558453229549S11655112EA0174801804000000000000
B0558493229610S11655064EA0174801804000000000000
B0558533229666S11655012EA0174701804000000000000
B0558573229719S11654959EA0174601803000000000000
B0559013229770S11654908EA0174601806000000000000
B0559053229820S11654862EA0174201798000000000000
B0559093229874S11654815EA0173201786000000000000
B0559133229936S11654780EA0172301777000000000000
B0559173230005S11654759EA0171701770000000000000
B0559213230078S11654746EA0171101767000000000000
B0559253230149S11654737EA0171001765000000000000
B0559293230223S11654728EA0170501761000000000000
B0559333230297S11654719EA0170201759000000000000
B0559373230372S11654708EA0170001754000000000000
B0559413230448S11654698EA0169001743000000000000
B0559453230525S11654691EA0168201738000000000000
B0559493230600S11654689EA0168101738000000000000
B0559533230673S11654687EA0168201737000000000000
B0559573230743S11654674EA0167701731000000000000
B0600013230814S11654656EA0166901724000000000000
B0600053230885S11654644EA0166401716000000000000
B0600093230958S11654633EA0165601710000000000000
B0600133231029S11654616EA0165501711000000000000
B0600173231102S11654603EA0165001704000000000000
B0600213231175S11654591EA0164601702000000000000
B0600253231244S11654566EA0164701704000000000000
B0600293231304S11654525EA0165001705000000000000
B0600333231358S11654474EA0164401695000000000000
B0600373231406S11654416EA0163801691000000000000
B0600413231444S11654351EA0164001695000000000000
B0600453231475S11654287EA0165001709000000000000
B0600493231500S11654223EA0165301707000000000000
B0600533231522S11654158EA0166201721000000000000
B0600573231509S11654095EA0167401728000000000000
B0601013231447S11654072EA0166401707000000000000
B0601053231408S11654140EA0164301692000000000000
B0601093231426S11654208EA0164001690000000000000
B0601133231465S11654252EA0164101696000000000000
B0601173231518S11654253EA0164301696000000000000
B0601213231570S11654238EA0164501704000000000000
B0601253231618S11654210EA0165301711000000000000
B0601293231665S11654175EA0165401706000000000000
B0601333231717S11654139EA0164101690000000000000
B0601373231779S11654109EA0162901678000000000000
B0601413231847S11654087EA0161701668000000000000
B0601453231916S11654074EA0161501668000000000000
B0601493231987S11654061EA0161201659000000000000
B0601533232059S11654052EA0160201650000000000000
B0601573232132S11654046EA0159701651000000000000
B0602013232199S11654032EA0159301641000000000000
B0602053232271S11654019EA0157601620000000000000
B0602093232346S11654010EA0156101610000000000000
B0602133232423S11654005EA0155001599000000000000
B0602173232502S11654001EA0153601583000000000000
B0602213232583S11653997EA0153001575000000000000
B0602253232665S11653998EA0152101566000000000000
B0602293232744S11653991EA0151801562000000000000
B0602333232819S11653958EA0151101560000000000000
B0602373232890S11653916EA0150901557000000000000
B0602413232959S11653874EA0150301550000000000000
B0602453233031S11653840EA0148901533000000000000
B0602493233112S11653818EA0147601524000000000000
B0602533233190S11653806EA0147801527000000000000
B0602573233264S11653796EA0148201529000000000000
B0603013233333S11653767EA0147801525000000000000
B0603053233390S11653721EA0148401536000000000000
B0603093233434S11653669EA0149201541000000000000
B0603133233476S11653614EA0148201524000000000000
B0603173233520S11653556EA0147501523000000000000
B0603213233555S11653497EA0147401520000000000000
B0603253233583S11653432EA0146601510000000000000
B0603293233615S11653368EA0145201492000000000000
B0603333233672S11653320EA0143501471000000000000
B0603373233744S11653296EA0142601476000000000000
B0603413233813S11653282EA0144101495000000000000
B0603453233863S11653250EA0145701503000000000000
B0603493233905S11653201EA0144701490000000000000
B0603533233944S11653148EA0143201473000000000000
B0603573233997S11653107EA0142101464000000000000
B0604013234061S11653086EA0141901465000000000000
B0604053234125S11653069EA0142901478000000000000
B0604093234152S11653010EA0144301491000000000000
B0604133234106S11652962EA0144901491000000000000
B0604173234032S11652983EA0144101484000000015000
B0604213233965S11653029EA0144901496000000000000
B0604253233939S11653101EA0145501495000000000000
B0604293233974S11653161EA0144801485000000015000
B0604333234031S11653157EA0144201488000000015000
B0604373234075S11653122EA0144801496000000000000
B0604413234105S11653069EA0145501500000000000000
B0604453234122S11653008EA0145701502000000000000
B0604493234138S11652948EA0146401513000000000000
B0604533234131S11652887EA0147701523000000000000
B0604573234073S11652876EA0148001522000000000000
B0605013234048S11652948EA0148001530000000015000
B0605053234080S11652997EA0149301541000000015000
B0605093234125S11652988EA0149601542000000015000
B0605133234121S11652928EA0149901549000000015000
B0605173234060S11652905EA0150601554000000015000
B0605213234008S11652960EA0151401565000000015000
B0605253234017S11653027EA0152401573000000015000
B0605293234062S11653048EA0152801574000000015000
B0605333234103S11653018EA0153001577000000015000
B0605373234119S11652967EA0153601585000000015000
B0605413234066S11652941EA0154601592000000015000
B0605453234017S11652992EA0155501606000000015000
B0605493234025S11653060EA0156601613000000015000
B0605533234069S11653084EA0156501612000000015000
B0605573234122S11653088EA0155901607000000015000
B0606013234181S11653086EA0155601603000000000000
B0606053234236S11653065EA0154901591000000000000
B0606093234295S11653030EA0153501573000000000000
B0606133234366S11653009EA0151601558000000000000
B0606173234443S11653001EA0150001540000000000000
B0606213234524S11653003EA0148501523000000000000
B0606253234606S11653004EA0147101516000000000000
B0606293234685S11653008EA0146901515000000000000
B0606333234764S11653017EA0146201507000000000000
B0606373234846S11653026EA0145101495000000000000
B0606413234927S11653035EA0144401490000000000000
B0606453235006S11653038EA0144001483000000000000
B0606493235085S11653044EA0143601484000000000000
B0606533235162S11653049EA0144201494000000000000
B0606573235236S11653039EA0145101498000000000000
B0607013235306S11653009EA0145301502000000000000
B0607053235369S11652969EA0146501517000000000000
B0607093235423S11652919EA0147801529000000000000
B0607133235462S11652856EA0149201542000000000000
B0607173235425S11652798EA0150301550000000000000
B0607213235366S11652827EA0150701555000000015000
B0607253235357S11652895EA0151401566000000015000
B0607293235393S11652945EA0152401576000000015000
B0607333235445S11652930EA0153401590000000015000
B0607373235447S11652866EA0154601597000000015000
B0607413235395S11652834EA0154701594000000015000
B0607453235343S11652876EA0154301594000000015000
B0607493235326S11652947EA0154701602000000015000
B0607533235360S11653005EA0155201605000000015000
B0607573235417S11653004EA0155701611000000015000
B0608013235421S11652939EA0156101609000000015000
B0608053235360S11652921EA0155501605000000030000
B0608093235327S11652987EA0155801611000000030000
B0608133235360S11653055EA0156601619000000015000
B0608173235417S11653091EA0156601613000000015000
B0608213235490S11653097EA0155101590000000015000
B0608253235570S11653097EA0152601561000000000000
B0608293235657S11653095EA0150001538000000000000
B0608333235747S11653091EA0148601532000000000000
B0608373235835S11653090EA0148401532000000000000
B0608413235923S11653088EA0148201529000000000000
B0608453236007S11653091EA0148101530000000000000
B0608493236088S11653092EA0149101542000000000000
B0608533236162S11653079EA0149201537000000000000
B0608573236237S11653057EA0148001528000000000000
B0609013236315S11653045EA0147801527000000000000
B0609053236394S11653048EA0147801526000000000000
B0609093236472S11653057EA0147501520000000000000
B0609133236549S11653070EA0147301527000000000000
B0609173236622S11653073EA0148001528000000000000
B0609213236690S11653048EA0147301518000000000000
B0609253236760S11653019EA0146101507000000000000
B0609293236831S11652997EA0145301500000000000000
B0609333236905S11652984EA0145001497000000000000
B0609373236977S11652980EA0144701495000000000000
B0609413237050S11652979EA0144301486000000000000
B0609453237124S11652971EA0143201475000000000000
B0609493237197S11652971EA0142201464000000000000
B0609533237272S11652986EA0141201452000000000000
B0609573237346S11653006EA0140301445000000000000
B0610013237416S11653008EA0140501451000000000000
B0610053237480S11652984EA0140701454000000000000
B0610093237541S11652954EA0141501464000000000000
B0610133237596S11652918EA0143501489000000000000
B0610173237628S11652869EA0145401501000000000000
B0610213237597S11652806EA0145301494000000000000
B0610253237528S11652818EA0145001496000000000000
B0610293237497S11652895EA0145201503000000000000
B0610333237503S11652970EA0146901524000000000000
B0610373237549S11652967EA0148301530000000015000
B0610413237546S11652901EA0148501532000000015000
B0610453237486S11652876EA0148701533000000015000
B0610493237433S11652925EA0149401545000000015000
B0610533237411S11652993EA0150901561000000015000
B0610573237442S11653043EA0151801566000000015000
B0611013237480S11653013EA0152601575000000015000
B0611053237445S11652956EA0152901576000000015000
B0611093237379S11652970EA0153001577000000015000
B0611133237356S11653043EA0153601595000000015000
B0611173237394S11653075EA0155001600000000015000
B0611213237423S11653026EA0155101602000000015000
B0611253237386S11652971EA0155401608000000015000
B0611293237320S11652980EA0155801610000000015000
B0611333237291S11653047EA0156801625000000015000
B0611373237319S11653100EA0157701632000000015000
B0611413237367S11653096EA0158301634000000015000
B0611453237385S11653038EA0158601636000000015000
B0611493237349S11652980EA0158901640000000015000
B0611533237284S11652969EA0158701635000000000000
B0611573237225S11653019EA0158601642000000000000
B0612013237197S11653090EA0160001658000000000000
B0612053237228S11653143EA0160301652000000000000
B0612093237284S11653142EA0160101657000000000000
B0612133237336S11653122EA0160601655000000000000
B0612173237380S11653073EA0159401639000000000000
B0612213237433S11653029EA0157601623000000000000
B0612253237498S11653009EA0156901621000000000000
B0612293237564S11653001EA0156701616000000000000
B0612333237633S11652999EA0156001609000000000000
B0612373237705S11652999EA0155401603000000000000
B0612413237778S11652997EA0154501591000000000000
B0612453237849S11652996EA0153501581000000000000
B0612493237919S11652996EA0153001576000000000000
B0612533237991S11652995EA0153001579000000000000
B0612573238062S11652999EA0153201582000000000000
B0613013238131S11653003EA0153601587000000000000
B0613053238201S11653004EA0153201581000000000000
B0613093238274S11653004EA0153001578000000000000
B0613133238348S11653001EA0152901583000000000000
B0613173238416S11652986EA0154201599000000000000
B0613213238474S11652953EA0154601589000000000000
B0613253238538S11652922EA0153101574000000000000
B0613293238607S11652906EA0152601572000000000000
B0613333238676S11652904EA0152101568000000000000
B0613373238746S11652902EA0151401559000000000000
B0613413238818S11652904EA0150301548000000000000
B0613453238889S11652912EA0149601539000000000000
B0613493238961S11652919EA0148501528000000000000
B0613533239035S11652927EA0147101511000000000000
B0613573239110S11652940EA0145501496000000000000
B0614013239184S11652953EA0145101500000000000000
B0614053239252S11652966EA0146001509000000000000
B0614093239316S11652971EA0146201509000000000000
B0614133239377S11652965EA0146501514000000000000
B0614173239435S11652951EA0146801515000000000000
B0614213239491S11652927EA0146301509000000000000
B0614253239551S11652900EA0145801502000000000000
B0614293239617S11652875EA0145401504000000000000
B0614333239680S11652849EA0145601502000000000000
B0614373239745S11652831EA0145001494000000000000
B0614413239813S11652817EA0144101483000000000000
B0614453239882S11652800EA0143101475000000000000
B0614493239953S11652784EA0141901461000000000000
B0614533240025S11652774EA0141301458000000000000
B0614573240096S11652771EA0141001451000000000000
B0615013240167S11652771EA0140101442000000000000
B0615053240241S11652776EA0139301432000000000000
B0615093240317S11652779EA0138501425000000000000
B0615133240393S11652782EA0137601416000000000000
B0615173240469S11652791EA0136801408000000000000
B0615213240545S11652804EA0135601394000000000000
B0615253240622S11652819EA0134601383000000000000
B0615293240699S11652836EA0133901377000000000000
B0615333240773S11652858EA0133701378000000000000
B0615373240844S11652880EA0133601376000000000000
B0615413240915S11652896EA0133101368000000000000
B0615453240986S11652909EA0131901356000000000000
B0615493241061S11652921EA0130801342000000000000
B0615533241136S11652935EA0129601331000000000000
B0615573241207S11652952EA0129201332000000000000
B0616013241275S11652974EA0129301333000000000000
B0616053241337S11652993EA0129501334000000000000
B0616093241398S11652991EA0129501334000000000000
B0616133241450S11652964EA0129301329000000000000
B0616173241497S11652928EA0128501318000000000000
B0616213241548S11652889EA0127101303000000000000
B0616253241605S11652862EA0125801292000000000000
B0616293241669S11652849EA0124601279000000000000
B0616333241734S11652841EA0123601269000000000000
B0616373241797S11652839EA0122801260000000000000
B0616413241858S11652839EA0122401260000000000000
B0616453241914S11652845EA0122201255000000000000
B0616493241968S11652860EA0121501244000000000000
B0616533242022S11652874EA0120401234000000000000
B0616573242075S11652889EA0119401222000000000000
B0617013242131S11652905EA0118401211000000000000
B0617053242186S11652927EA0117301202000000000000
B0617093242242S11652948EA0117001202000000000000
B0617133242295S11652947EA0117601210000000000000
B0617173242338S11652913EA0117301201000000000000
B0617213242371S11652858EA0117001203000000000000
B0617253242399S11652801EA0117601209000000000000
B0617293242423S11652744EA0117401204000000000000
B0617333242434S11652679EA0116901199000000000000
B0617373242443S11652613EA0116901200000000000000
B0617413242449S11652548EA0116401192000000000000
B0617453242455S11652480EA0115301181000000000000
B0617493242465S11652412EA0114101166000000000000
B0617533242468S11652340EA0112001144000000000000
B0617573242478S11652265EA0110401129000000000000
B0618013242502S11652200EA0109601122000000000000
B0618053242534S11652145EA0109001115000000000000
B0618093242577S11652099EA0108501108000000000000
B0618133242629S11652076EA0107901103000000000000
B0618173242684S11652063EA0106901092000000000000
B0618213242740S11652051EA0105601077000000000000
B0618253242797S11652038EA0104701070000000000000
B0618293242854S11652026EA0104401071000000000000
B0618333242907S11652016EA0105101079000000000000
B0618373242958S11651994EA0105601081000000000000
B0618413242956S11651929EA0106201090000000000000
B0618453242892S11651904EA0106701094000000000000
B0618493242835S11651955EA0106801094000000000000
B0618533242831S11652033EA0106801097000000000000
B0618573242879S11652060EA0107201099000000015000
B0619013242907S11652011EA0107601103000000015000
B0619053242870S11651950EA0107801106000000015000
B0619093242800S11651953EA0108401110000000015000
B0619133242762S11652024EA0108301105000000015000
B0619173242771S11652098EA0108401114000000015000
B0619213242820S11652108EA0108701115000000015000
B0619253242849S11652054EA0108901118000000015000
B0619293242854S11651982EA0108701114000000000000
B0619333242824S11651913EA0108601117000000000000
B0619373242755S11651891EA0109101121000000015000
B0619413242693S11651931EA0109501122000000015000
B0619453242680S11652007EA0109501120000000015000
B0619493242722S11652050EA0109301117000000015000
B0619533242766S11652016EA0108801114000000015000
B0619573242784S11651948EA0108501110000000015000
B0620013242796S11651873EA0108101110000000000000
B0620053242781S11651799EA0108701114000000000000
B0620093242718S11651774EA0109101118000000000000
B0620133242659S11651814EA0108701104000000015000
B0620173242638S11651895EA0107301099000000000000
B0620213242632S11651977EA0107401101000000000000
B0620253242637S11652057EA0106801093000000000000
B0620293242651S11652139EA0106301091000000000000
B0620333242664S11652221EA0106401092000000000000
B0620373242673S11652304EA0106401093000000000000
B0620413242685S11652388EA0106701095000000000000
B0620453242728S11652436EA0107601105000000000000
B0620493242771S11652402EA0108101107000000000000
B0620533242758S11652338EA0108101107000000015000
B0620573242697S11652308EA0107801106000000015000
B0621013242633S11652342EA0107901107000000015000
B0621053242606S11652412EA0108201111000000015000
B0621093242642S11652454EA0108601114000000015000
B0621133242676S11652410EA0109101122000000015000
B0621173242651S11652347EA0108901116000000030000
B0621213242585S11652334EA0108401113000000030000
B0621253242529S11652385EA0108201107000000030000
B0621293242519S11652463EA0107201096000000030000
B0621333242563S11652512EA0106901099000000015000
B0621373242615S11652499EA0107901109000000015000
B0621413242619S11652434EA0108201110000000015000
B0621453242560S11652398EA0107801103000000030000
B0621493242499S11652440EA0107801105000000030000
B0621533242478S11652515EA0107601102000000015000
B0621573242475S11652593EA0107501105000000015000
B0622013242482S11652672EA0107901111000000015000
B0622053242527S11652685EA0109101120000000015000
B0622093242511S11652622EA0109301123000000015000
B0622133242438S11652622EA0109501128000000030000
B0622173242398S11652688EA0110301135000000030000
B0622213242426S11652746EA0111501152000000015000
B0622253242468S11652731EA0113301166000000015000
B0622293242465S11652670EA0114301173000000015000
B0622333242412S11652631EA0114601173000000015000
B0622373242346S11652659EA0114801180000000015000
B0622413242324S11652728EA0116001192000000015000
B0622453242358S11652769EA0116801205000000015000
B0622493242390S11652733EA0118501225000000015000
B0622533242358S11652679EA0119601232000000015000
B0622573242291S11652688EA0119901230000000030000
B0623013242261S11652761EA0119901236000000030000
B0623053242294S11652813EA0121301257000000015000
B0623093242335S11652785EA0122801271000000015000
B0623133242309S11652723EA0124201286000000015000
B0623173242239S11652718EA0125001288000000030000
B0623213242192S11652780EA0125901303000000030000
B0623253242200S11652845EA0127301324000000015000
B0623293242243S11652862EA0128901331000000015000
B0623333242269S11652818EA0130601347000000015000
B0623373242234S11652763EA0132501355000000015000
B0623413242164S11652765EA0133101357000000030000
B0623453242125S11652830EA0134001378000000030000
B0623493242146S11652884EA0135801395000000015000
B0623533242191S11652879EA0136201402000000015000
B0623573242202S11652818EA0137501415000000015000
B0624013242150S11652766EA0139001428000000015000
B0624053242078S11652778EA0139501432000000015000
B0624093242036S11652848EA0140401445000000030000
B0624133242052S11652913EA0141901466000000015000
B0624173242094S11652934EA0142701473000000015000
B0624213242129S11652900EA0143501478000000015000
B0624253242116S11652832EA0144201490000000015000
B0624293242059S11652792EA0145601500000000015000
B0624333241990S11652811EA0146201503000000030000
B0624373241960S11652886EA0147101520000000030000
B0624413241981S11652944EA0148401528000000015000
B0624453242029S11652951EA0148401530000000015000
B0624493242057S11652904EA0149101537000000015000
B0624533242030S11652837EA0150001548000000015000
B0624573241960S11652827EA0151101553000000030000
B0625013241905S11652883EA0151401559000000030000
B0625053241903S11652956EA0152201573000000015000
B0625093241940S11652996EA0153001576000000015000
B0625133241983S11652978EA0153301581000000015000
B0625173241986S11652913EA0153601583000000015000
B0625213241931S11652861EA0153801591000000015000
B0625253241858S11652866EA0154801603000000030000
B0625293241809S11652925EA0155501607000000030000
B0625333241809S11652997EA0156101613000000015000
B0625373241847S11653032EA0156101611000000015000
B0625413241886S11653005EA0155701610000000015000
B0625453241878S11652935EA0156101620000000015000
B0625493241826S11652884EA0156901623000000015000
B0625533241754S11652888EA0157001623000000015000
B0625573241702S11652944EA0157501632000000015000
B0626013241689S11653013EA0158401639000000015000
B0626053241721S11653057EA0158201632000000015000
B0626093241766S11653048EA0157101624000000015000
B0626133241770S11652986EA0157101627000000015000
B0626173241715S11652939EA0157101627000000015000
B0626213241641S11652948EA0157601640000000015000
B0626253241575S11652980EA0158601641000000015000
B0626293241510S11653025EA0158501640000000015000
B0626333241446S11653071EA0158401636000000000000
B0626373241380S11653118EA0157601624000000000000
B0626413241306S11653155EA0156601616000000000000
B0626453241228S11653179EA0155701606000000000000
B0626493241147S11653194EA0155001599000000000000
B0626533241067S11653205EA0154301593000000000000
B0626573240986S11653213EA0153701583000000000000
B0627013240904S11653221EA0152801577000000000000
B0627053240824S11653229EA0152401569000000000000
B0627093240744S11653238EA0151801566000000000000
B0627133240666S11653247EA0151601563000000000000
B0627173240587S11653256EA0151001555000000000000
B0627213240508S11653269EA0150501554000000000000
B0627253240431S11653287EA0150601555000000000000
B0627293240357S11653311EA0150701554000000000000
B0627333240283S11653333EA0150001545000000000000
B0627373240207S11653351EA0149601546000000000000
B0627413240135S11653369EA0149801548000000000000
B0627453240062S11653387EA0149601545000000000000
B0627493239988S11653402EA0149501543000000000000
B0627533239912S11653420EA0149301542000000000000
B0627573239837S11653442EA0149301540000000000000
B0628013239759S11653458EA0148901534000000000000
B0628053239680S11653473EA0148301528000000000000
B0628093239599S11653493EA0147601519000000000000
B0628133239516S11653512EA0146501509000000000000
B0628173239433S11653533EA0146101505000000000000
B0628213239352S11653552EA0145401500000000000000
B0628253239270S11653572EA0144701492000000000000
B0628293239188S11653589EA0143701481000000000000
B0628333239105S11653610EA0142301468000000000000
B0628373239023S11653636EA0142001467000000000000
B0628413238942S11653667EA0141901464000000000000
B0628453238861S11653698EA0141101452000000000000
B0628493238779S11653727EA0140001443000000000000
B0628533238697S11653751EA0139201434000000000000
B0628573238614S11653776EA0138501429000000000000
B0629013238528S11653802EA0137901424000000000000
B0629053238441S11653825EA0137601420000000000000
B0629093238351S11653849EA0137001416000000000000
B0629133238263S11653870EA0136601408000000000000
B0629173238175S11653896EA0136001401000000000000
B0629213238090S11653924EA0135101392000000000000
B0629253238003S11653950EA0134201382000000000000
B0629293237915S11653972EA0133401375000000000000
B0629333237827S11653991EA0132801369000000000000
B0629373237740S11654007EA0131901359000000000000
B0629413237652S11654026EA0130801347000000000000
B0629453237564S11654044EA0130101337000000000000
B0629493237485S11654075EA0132201370000000000000
B0629533237440S11654132EA0134501389000000000000
B0629573237470S11654187EA0135101387000000000000
B0630013237518S11654161EA0135201395000000015000
B0630053237520S11654095EA0136201405000000015000
B0630093237471S11654049EA0137001416000000015000
B0630133237410S11654075EA0138701436000000030000
B0630173237414S11654143EA0140101449000000015000
B0630213237459S11654152EA0141101457000000015000
B0630253237481S11654095EA0141101455000000015000
B0630293237444S11654039EA0141401467000000015000
B0630333237377S11654056EA0142801479000000030000
B0630373237362S11654128EA0144001494000000030000
B0630413237407S11654165EA0145601508000000015000
B0630453237451S11654136EA0146201510000000015000
B0630493237457S11654067EA0145901512000000015000
B0630533237421S11654015EA0147201528000000015000
B0630573237364S11653997EA0148401538000000030000
B0631013237307S11654022EA0149101548000000030000
B0631053237272S11654080EA0150001557000000015000
B0631093237272S11654150EA0151301570000000015000
B0631133237312S11654189EA0152401581000000015000
B0631173237350S11654161EA0153501588000000015000
B0631213237342S11654101EA0154001592000000015000
B0631253237288S11654074EA0155001608000000015000
B0631293237230S11654092EA0156301618000000015000
B0631333237198S11654154EA0156901622000000015000
B0631373237216S11654218EA0157501632000000015000
B0631413237265S11654226EA0158501640000000015000
B0631453237298S11654182EA0159101644000000015000
B0631493237284S11654119EA0159601647000000015000
B0631533237229S11654082EA0159501645000000015000
B0631573237163S11654098EA0159601651000000015000
B0632013237104S11654139EA0160201659000000015000
B0632053237051S11654191EA0160801664000000015000
B0632093236990S11654238EA0160901665000000000000
B0632133236925S11654280EA0161001664000000000000
B0632173236853S11654321EA0160701660000000000000
B0632213236779S11654362EA0160501658000000000000
B0632253236700S11654401EA0160301654000000000000
B0632293236618S11654440EA0159201638000000000000
B0632333236535S11654481EA0157701627000000000000
B0632373236449S11654514EA0157101621000000000000
B0632413236363S11654543EA0156201611000000000000
B0632453236276S11654570EA0155401605000000000000
B0632493236188S11654600EA0154101588000000000000
B0632533236095S11654625EA0153001577000000000000
B0632573236002S11654647EA0152401571000000000000
B0633013235911S11654668EA0151901566000000000000
B0633053235820S11654694EA0151101558000000000000
B0633093235729S11654721EA0150101547000000000000
B0633133235635S11654746EA0148801532000000000000
B0633173235542S11654767EA0147501521000000000000
B0633213235448S11654782EA0147001517000000000000
B0633253235357S11654794EA0146901516000000000000
B0633293235267S11654800EA0146801517000000000000
B0633333235179S11654811EA0147301524000000000000
B0633373235092S11654832EA0147401524000000000000
B0633413235005S11654852EA0147001518000000000000
B0633453234916S11654869EA0146601514000000000000
B0633493234828S11654882EA0145901505000000000000
B0633533234741S11654889EA0145201500000000000000
B0633573234656S11654895EA0145001497000000000000
B0634013234574S11654906EA0144401486000000000000
B0634053234496S11654942EA0143401479000000000000
B0634093234421S11654989EA0143001476000000000000
B0634133234350S11655044EA0142701473000000000000
B0634173234279S11655105EA0142101466000000000000
B0634213234207S11655162EA0141401458000000000000
B0634253234135S11655220EA0140701451000000000000
B0634293234065S11655281EA0139901441000000000000
B0634333233999S11655345EA0139001431000000000000
B0634373233935S11655414EA0138101419000000000000
B0634413233875S11655487EA0137201414000000000000
B0634453233815S11655557EA0136901412000000000000
B0634493233762S11655627EA0137201416000000000000
B0634533233705S11655692EA0136301399000000000000
B0634573233633S11655748EA0134601383000000000000
B0635013233573S11655817EA0133601377000000000000
B0635053233529S11655898EA0132801366000000000000
B0635093233467S11655961EA0132001357000000000000
B0635133233390S11655995EA0131101347000000000000
B0635173233307S11656004EA0130101336000000000000
B0635213233226S11655994EA0129201330000000000000
B0635253233150S11655965EA0128501321000000000000
B0635293233076S11655930EA0128001318000000000000
B0635333233000S11655895EA0127801317000000000000
B0635373232926S11655860EA0128001322000000000000
B0635413232858S11655822EA0128801331000000000000
B0635453232795S11655790EA0129101329000000000000
B0635493232726S11655773EA0128201317000000000000
B0635533232653S11655757EA0127101307000000000000
B0635573232579S11655746EA0126501305000000000000
B0636013232505S11655734EA0126601305000000000000
B0636053232449S11655684EA0126401304000000000000
B0636093232398S11655631EA0126801314000000000000
B0636133232361S11655575EA0127601318000000000000
B0636173232372S11655522EA0128701331000000000000
B0636213232411S11655523EA0130601343000000000000
B0636253232440S11655571EA0130601328000000015000
B0636293232429S11655652EA0129101326000000015000
B0636333232385S11655721EA0129201331000000000000
B0636373232324S11655769EA0129701337000000000000
B0636413232257S11655783EA0129801335000000000000
B0636453232207S11655747EA0129101324000000000000
B0636493232164S11655692EA0127701306000000000000
B0636533232103S11655644EA0125901291000000000000
B0636573232033S11655601EA0124501280000000000000
B0637013231960S11655564EA0124101277000000000000
B0637053231885S11655527EA0123901275000000000000
B0637093231807S11655497EA0123901279000000000000
B0637133231730S11655466EA0124501288000000000000
B0637173231659S11655470EA0126701314000000000000
B0637213231644S11655543EA0128601325000000000000
B0637253231692S11655569EA0128801327000000000000
B0637293231709S11655515EA0129801344000000015000
B0637333231661S11655469EA0130801350000000015000
B0637373231592S11655493EA0131601363000000015000
B0637413231565S11655569EA0132901373000000015000
B0637453231594S11655636EA0133501380000000015000
B0637493231642S11655640EA0134301390000000015000
B0637533231657S11655584EA0135101393000000015000
B0637573231621S11655525EA0135101398000000015000
B0638013231551S11655513EA0135801410000000015000
B0638053231488S11655548EA0137301422000000015000
B0638093231497S11655616EA0138701429000000015000
B0638133231547S11655623EA0139001436000000015000
B0638173231551S11655566EA0139701445000000015000
B0638213231495S11655535EA0140101445000000015000
B0638253231435S11655580EA0140201450000000030000
B0638293231425S11655662EA0141001461000000015000
B0638333231464S11655712EA0142301476000000030000
B0638373231503S11655688EA0143101480000000030000
B0638413231496S11655627EA0143901483000000030000
B0638453231441S11655587EA0144101479000000030000
B0638493231371S11655604EA0144401491000000030000
B0638533231334S11655673EA0145301502000000030000
B0638573231343S11655748EA0146301516000000030000
B0639013231383S11655787EA0147401526000000015000
B0639053231425S11655768EA0148401531000000015000
B0639093231430S11655708EA0148301530000000015000
B0639133231383S11655653EA0148601537000000030000
B0639173231311S11655652EA0149101546000000030000
B0639213231254S11655701EA0150001553000000030000
B0639253231230S11655781EA0150101556000000015000
B0639293231256S11655846EA0150701568000000015000
B0639333231304S11655850EA0151601575000000015000
B0639373231323S11655803EA0152501585000000015000
B0639413231285S11655749EA0153701591000000030000
B0639453231218S11655751EA0154501599000000030000
B0639493231176S11655816EA0154801603000000030000
B0639533231180S11655892EA0155501615000000015000
B0639573231222S11655925EA0156801626000000015000
B0640013231261S11655898EA0157001626000000015000
B0640053231252S11655837EA0157801636000000030000
B0640093231197S11655798EA0158301639000000030000
B0640133231127S11655803EA0158701646000000030000
B0640173231076S11655864EA0159301651000000030000
B0640213231075S11655946EA0159201651000000015000
B0640253231120S11655983EA0159701659000000015000
B0640293231168S11655972EA0160001660000000015000
B0640333231213S11655946EA0160301667000000015000
B0640373231235S11655902EA0161501673000000015000
B0640413231213S11655844EA0161001663000000015000
B0640453231153S11655803EA0159201651000000015000
B0640493231076S11655778EA0158801650000000015000
B0640533230997S11655760EA0158401643000000015000
B0640573230911S11655751EA0157501633000000015000
B0641013230824S11655746EA0157201635000000015000
B0641053230737S11655746EA0157401635000000015000
B0641093230647S11655752EA0157301630000000000000
B0641133230555S11655761EA0156901630000000000000
B0641173230468S11655781EA0157601637000000000000
B0641213230379S11655800EA0157201627000000000000
B0641253230288S11655813EA0156501625000000000000
B0641293230200S11655825EA0155901611000000000000
B0641333230109S11655838EA0154001592000000000000
B0641373230015S11655848EA0152501577000000000000
B0641413229923S11655859EA0151501567000000000000
B0641453229831S11655868EA0150601560000000000000
B0641493229740S11655877EA0150001553000000000000
B0641533229651S11655886EA0149601549000000000000
B0641573229566S11655894EA0149301545000000000000
B0642013229478S11655900EA0148701535000000000000
B0642053229390S11655907EA0147801529000000000000
B0642093229299S11655916EA0147401526000000000000
B0642133229209S11655928EA0147001520000000000000
B0642173229118S11655939EA0146401515000000000000
B0642213229027S11655947EA0146201514000000000000
B0642253228938S11655952EA0145901508000000000000
B0642293228848S11655955EA0145201499000000000000
B0642333228757S11655960EA0144401494000000000000
B0642373228666S11655968EA0144201493000000000000
B0642413228578S11655976EA0143901489000000000000
B0642453228488S11655976EA0143301481000000000000
B0642493228398S11655976EA0142401472000000000000
B0642533228308S11655978EA0142001471000000000000
B0642573228223S11655981EA0141701463000000000000
B0643013228136S11655982EA0140901456000000000000
B0643053228047S11655980EA0140401451000000000000
B0643093227960S11655976EA0139901444000000000000
B0643133227872S11655973EA0139501443000000000000
B0643173227783S11655970EA0139201439000000000000
B0643213227695S11655972EA0138701433000000000000
B0643253227604S11655973EA0138201428000000000000
B0643293227515S11655968EA0137701423000000000000
B0643333227427S11655957EA0137201415000000000000
B0643373227339S11655946EA0136401406000000000000
B0643413227253S11655938EA0135901403000000000000
B0643453227166S11655934EA0134801390000000000000
B0643493227077S11655929EA0133801379000000000000
B0643533226990S11655918EA0132901369000000000000
B0643573226904S11655900EA0132401369000000000000
B0644013226823S11655882EA0132801374000000000000
B0644053226745S11655868EA0134501397000000000000
B0644093226676S11655891EA0136501410000000000000
B0644133226651S11655964EA0136301404000000015000
B0644173226690S11656015EA0136501419000000015000
B0644213226729S11656000EA0138101430000000015000
B0644253226733S11655948EA0139301435000000015000
B0644293226694S11655900EA0140401449000000015000
B0644333226630S11655891EA0141601457000000015000
B0644373226570S11655941EA0141601452000000015000
B0644413226552S11656022EA0141601460000000015000
B0644453226591S11656073EA0142401473000000015000
B0644493226637S11656054EA0143001476000000015000
B0644533226642S11655986EA0143201479000000015000
B0644573226596S11655929EA0144201496000000015000
B0645013226522S11655918EA0145701513000000015000
B0645053226459S11655959EA0146601514000000015000
B0645093226438S11656037EA0146501517000000015000
B0645133226465S11656093EA0147701535000000015000
B0645173226504S11656093EA0148901538000000015000
B0645213226518S11656042EA0148801536000000015000
B0645253226486S11655985EA0149201544000000015000
B0645293226421S11655960EA0150201554000000015000
B0645333226352S11655982EA0150201549000000015000
B0645373226306S11656052EA0150101552000000015000
B0645413226317S11656124EA0150601561000000015000
B0645453226361S11656147EA0151101564000000015000
B0645493226394S11656110EA0151501567000000015000
B0645533226379S11656043EA0151801572000000015000
B0645573226323S11656002EA0152401576000000015000
B0646013226249S11656004EA0152301571000000015000
B0646053226171S11656038EA0151701565000000000000
B0646093226091S11656067EA0151501564000000000000
B0646133226007S11656093EA0151501567000000000000
B0646173225929S11656120EA0152301577000000000000
B0646213225858S11656152EA0152501571000000000000
B0646253225781S11656188EA0151101553000000000000
B0646293225695S11656215EA0149201538000000000000
B0646333225604S11656236EA0148101529000000000000
B0646373225512S11656250EA0147301520000000000000
B0646413225420S11656260EA0146601514000000000000
B0646453225330S11656271EA0146001508000000000000
B0646493225240S11656281EA0145201499000000000000
B0646533225151S11656290EA0144301490000000000000
B0646573225061S11656303EA0143901481000000000000
B0647013224971S11656314EA0142701471000000000000
B0647053224882S11656315EA0141901465000000000000
B0647093224792S11656314EA0141501460000000000000
B0647133224704S11656315EA0141401460000000000000
B0647173224619S11656344EA0140901453000000000000
B0647213224541S11656394EA0140101447000000000000
B0647253224467S11656453EA0140001446000000000000
B0647293224395S11656518EA0139401438000000000000
B0647333224328S11656591EA0138901433000000000000
B0647373224264S11656669EA0138101421000000000000
B0647413224200S11656744EA0137501420000000000000
B0647453224133S11656809EA0137401417000000000000
B0647493224056S11656856EA0136701409000000000000
B0647533223974S11656888EA0135601395000000000000
B0647573223890S11656912EA0134201382000000000000
B0648013223804S11656927EA0133601378000000000000
B0648053223721S11656942EA0133701380000000000000
B0648093223634S11656962EA0133501374000000000000
B0648133223543S11656988EA0132701369000000000000
B0648173223458S11657020EA0133501383000000000000
B0648213223383S11657061EA0133901378000000000000
B0648253223301S11657104EA0132601363000000000000
B0648293223211S11657142EA0131901361000000000000
B0648333223124S11657178EA0132101364000000000000
B0648373223046S11657220EA0133101374000000000000
B0648413222977S11657267EA0132401362000000000000
B0648453222903S11657312EA0130301340000000000000
B0648493222821S11657345EA0129201328000000000000
B0648533222742S11657367EA0128801327000000000000
B0648573222664S11657382EA0127901311000000000000
B0649013222582S11657395EA0125801289000000000000
B0649053222495S11657404EA0124301278000000000000
B0649093222405S11657411EA0123201264000000000000
B0649133222313S11657415EA0122201259000000000000
B0649173222222S11657420EA0121701251000000000000
B0649213222130S11657425EA0121301249000000000000
B0649253222039S11657430EA0121001245000000000000
B0649293221949S11657430EA0120401236000000000000
B0649333221857S11657429EA0119601228000000000000
B0649373221764S11657425EA0119201225000000000000
B0649413221673S11657416EA0119201228000000000000
B0649453221586S11657407EA0119401230000000000000
B0649493221502S11657397EA0119401226000000000000
B0649533221417S11657389EA0118101209000000000000
B0649573221334S11657380EA0116701198000000000000
B0650013221253S11657372EA0115401182000000000000
B0650053221171S11657367EA0113901166000000000000
B0650093221090S11657365EA0112101149000000000000
B0650133221008S11657361EA0111201136000000000000
B0650173220926S11657351EA0109801119000000000000
B0650213220844S11657337EA0108301104000000000000
B0650253220758S11657337EA0106601088000000000000
B0650293220672S11657352EA0105201072000000000000
B0650333220586S11657351EA0103901060000000000000
B0650373220506S11657334EA0102701050000000000000
B0650413220428S11657317EA0102401051000000000000
B0650453220355S11657299EA0103001057000000000000
B0650493220280S11657294EA0102601051000000000000
B0650533220202S11657311EA0103001061000000000000
B0650573220133S11657332EA0105601091000000000000
B0651013220100S11657393EA0106901090000000000000
B0651053220142S11657436EA0106401092000000000000
B0651093220182S11657402EA0107101101000000000000
B0651133220168S11657338EA0107401101000000000000
B0651173220107S11657303EA0107701112000000000000
B0651213220038S11657319EA0109201125000000015000
B0651253220016S11657391EA0110201141000000015000
B0651293220055S11657428EA0111901155000000015000
B0651333220089S11657389EA0112801161000000015000
B0651373220065S11657324EA0114201182000000015000
B0651413219999S11657315EA0116001198000000015000
B0651453219957S11657374EA0117001204000000015000
B0651493219985S11657433EA0117601216000000015000
B0651533220034S11657415EA0118701225000000015000
B0651573220042S11657347EA0119801239000000015000
