ACAM4N6
HFDTE210122
HFFXA050
HFPLTPILOT:JOHN WELSH              
HFGTYGLIDERTYPE:HORNET      
HFGIDGLIDERID:VH-GMY      
HFDTM100GPSDATUM:
HFRFWFIRMWAREVERSION:F2.6
HFRHWHARDWAREVERSION:300 Series Version 2
HFFTYFRTYPE:CAMBRIDGE AERO INSTRUMENTS, 302+
HFGPS:GARMIN,LVS-25,12,18000
HFPRSPRESSALTSENSOR:INTERSEMA, MS5534-AP, 20000
I033638FXA3941ENL4247REX
LCAMSBVER:5FWVER:F26300
C210122041753210122000102
C0000000N00000000WTAKEOFF     
C3207529S11656999EBeverley Gld
C3349516S11622949EBoyup Brook 
C3229166S11816249EKondinin    
C3207529S11656999EBeverley Gld
C0000000N00000000WLANDING     
B0421303207345S11656860EA0020600212000000000000
B0421323207345S11656860EA0020600212000000000000
B0421343207345S11656860EA0020600212000000000000
B0421363207343S11656860EA0020500212000000000000
B0421383207343S11656860EA0020600212000000000000
B0421403207343S11656860EA0020600212000000000000
B0421423207343S11656858EA0020600212000000000000
B0421443207343S11656858EA0020600212000000000000
B0421463207343S11656858EA0020600212000000000000
B0421483207343S11656858EA0020600212000000000000
B0421503207343S11656858EA0020600212000000000000
B0421523207343S11656858EA0020600212000000000000
B0421543207343S11656858EA0020700212000000000000
B0421563207345S11656858EA0020700212000000000000
B0421583207346S11656860EA0020700212000000000000
B0422013207355S11656867EA0020700212000000000000
B0422053207378S11656888EA0020600211000000000000
B0422093207415S11656916EA0020800212000000000000
B0422133207464S11656948EA0021100213000000000000
B0422173207521S11656986EA0021600219000000000000
B0422213207577S11657025EA0022900236000000000000
B0422253207636S11657061EA0023600242000000000000
B0422293207690S11657092EA0024600263000000000000
B0422333207742S11657116EA0026600288000000000000
B0422373207798S11657138EA0028300298000000000000
B0422413207857S11657166EA0029100312000000000000
B0422453207910S11657196EA0030500330000000000000
B0422493207963S11657225EA0032100346000000000000
B0422533208017S11657254EA0033500360000000000000
B0422573208074S11657282EA0035300375000000000000
B0423013208135S11657309EA0036200388000000000000
B0423053208195S11657342EA0037400405000000000000
B0423093208248S11657374EA0040200431000000000000
B0423133208296S11657416EA0041900449000000000000
B0423173208337S11657472EA0043100456000000000000
B0423213208369S11657533EA0044000469000000000000
B0423253208400S11657598EA0045300480000000000000
B0423293208431S11657664EA0045900490000000000000
B0423333208463S11657731EA0047000498000000000000
B0423373208485S11657794EA0049000526000000000000
B0423413208482S11657857EA0051400557000000000000
B0423453208455S11657915EA0053900577000000000000
B0423493208408S11657963EA0055100584000000000000
B0423533208343S11657992EA0056000596000000000000
B0423573208273S11657995EA0057100607000000000000
B0424013208207S11657953EA0058000611000000000000
B0424053208157S11657879EA0058900628000000000000
B0424093208140S11657788EA0060200644000000000000
B0424133208165S11657702EA0062100661000000000000
B0424173208220S11657637EA0062800665000000015000
B0424213208290S11657611EA0063600676000000015000
B0424253208357S11657633EA0064300682000000015000
B0424293208400S11657693EA0065100690000000015000
B0424333208424S11657768EA0065600692000000015000
B0424373208447S11657845EA0066700708000000015000
B0424413208468S11657919EA0068800731000000015000
B0424453208498S11657988EA0070000742000000000000
B0424493208530S11658056EA0071100759000000000000
B0424533208548S11658125EA0073000779000000000000
B0424573208563S11658193EA0074600794000000000000
B0425013208573S11658266EA0075700804000000000000
B0425053208580S11658336EA0076800819000000000000
B0425093208580S11658404EA0078300834000000000000
B0425133208572S11658470EA0079300844000000000000
B0425173208538S11658533EA0080100851000000000000
B0425213208482S11658576EA0080800857000000000000
B0425253208412S11658602EA0081600864000000000000
B0425293208339S11658619EA0082300874000000000000
B0425333208269S11658630EA0083700891000000000000
B0425373208197S11658632EA0085300905000000000000
B0425413208123S11658621EA0086200912000000000000
B0425453208044S11658603EA0086700916000000000000
B0425493207969S11658589EA0088000934000000000000
B0425533207897S11658577EA0089400947000000000000
B0425573207820S11658561EA0090100956000000000000
B0426013207739S11658544EA0091300969000000000000
B0426053207657S11658528EA0093200992000000000000
B0426093207588S11658539EA0095101012000000000000
B0426133207566S11658591EA0097001029000000000000
B0426173207603S11658622EA0098101037000000000000
B0426213207653S11658581EA0099101049000000015000
B0426253207650S11658500EA0100501068000000015000
B0426293207601S11658451EA0101801077000000015000
B0426333207546S11658463EA0102401084000000015000
B0426373207532S11658512EA0103701094000000015000
B0426413207568S11658548EA0104601102000000015000
B0426453207624S11658530EA0105201114000000015000
B0426493207653S11658457EA0106401129000000015000
B0426533207625S11658382EA0107801142000000015000
B0426573207564S11658356EA0108601146000000015000
B0427013207527S11658399EA0108901155000000015000
B0427053207549S11658446EA0110201169000000015000
B0427093207602S11658435EA0111701183000000015000
B0427133207629S11658362EA0112501194000000015000
B0427173207599S11658284EA0113601204000000015000
B0427213207536S11658257EA0114001205000000015000
B0427253207481S11658290EA0114201209000000015000
B0427293207475S11658353EA0115001223000000015000
B0427333207518S11658396EA0116201234000000015000
B0427373207580S11658390EA0117401248000000015000
B0427413207627S11658331EA0118701265000000015000
B0427453207627S11658244EA0120301282000000015000
B0427493207589S11658167EA0121601290000000015000
B0427533207525S11658126EA0122001291000000015000
B0427573207460S11658139EA0122401296000000015000
B0428013207432S11658196EA0123701314000000015000
B0428053207467S11658239EA0125301329000000015000
B0428093207519S11658213EA0126501343000000015000
B0428133207532S11658136EA0127201352000000015000
B0428173207492S11658070EA0128101364000000015000
B0428213207432S11658057EA0129601376000000015000
B0428253207397S11658100EA0130501383000000015000
B0428293207414S11658152EA0131501389000000015000
B0428333207464S11658158EA0132701401000000015000
B0428373207510S11658112EA0134001415000000015000
B0428413207515S11658035EA0134901426000000015000
B0428453207473S11657971EA0135701434000000015000
B0428493207412S11657962EA0136201441000000015000
B0428533207381S11658009EA0137001449000000015000
B0428573207412S11658050EA0138101460000000015000
B0429013207464S11658027EA0139301468000000015000
B0429053207479S11657948EA0139701471000000015000
B0429093207433S11657883EA0140201480000000015000
B0429133207377S11657893EA0141301494000000015000
B0429173207367S11657948EA0141801497000000015000
B0429213207414S11657980EA0142301505000000015000
B0429253207471S11657936EA0143001514000000015000
B0429293207475S11657848EA0144001527000000015000
B0429333207421S11657794EA0145201539000000015000
B0429373207364S11657802EA0146001549000000015000
B0429413207341S11657849EA0147101558000000015000
B0429453207362S11657896EA0147801563000000015000
B0429493207407S11657917EA0149001578000000015000
B0429533207451S11657876EA0150501599000000015000
B0429573207463S11657803EA0151501605000000015000
B0430013207433S11657732EA0151701607000000015000
B0430053207376S11657703EA0151901610000000015000
B0430093207326S11657727EA0152501616000000015000
B0430133207316S11657777EA0153101624000000015000
B0430173207342S11657827EA0153701632000000000000
B0430213207389S11657854EA0154901644000000000000
B0430253207447S11657827EA0155701654000000000000
B0430293207473S11657753EA0157001668000000015000
B0430333207446S11657679EA0157801673000000015000
B0430373207390S11657647EA0158401677000000015000
B0430413207339S11657671EA0158601679000000015000
B0430453207315S11657723EA0159601690000000015000
B0430493207346S11657762EA0160701699000000015000
B0430533207398S11657723EA0161001696000000015000
B0430573207401S11657628EA0160801700000000015000
B0431013207345S11657563EA0161401709000000015000
B0431053207281S11657567EA0162501724000000015000
B0431093207254S11657615EA0164001736000000015000
B0431133207268S11657667EA0164701741000000015000
B0431173207303S11657705EA0165001745000000015000
B0431213207363S11657692EA0165001745000000015000
B0431253207397S11657620EA0165901761000000015000
B0431293207360S11657553EA0167501777000000015000
B0431333207302S11657555EA0168201780000000015000
B0431373207289S11657606EA0168801793000000015000
B0431413207337S11657619EA0169701796000000015000
B0431453207378S11657562EA0169601796000000015000
B0431493207367S11657475EA0169901804000000015000
B0431533207319S11657407EA0170401804000000015000
B0431573207250S11657387EA0170501808000000015000
B0432013207200S11657424EA0171401817000000015000
B0432053207186S11657482EA0171701819000000000000
B0432093207209S11657532EA0172101824000000000000
B0432133207264S11657524EA0173001832000000015000
B0432173207285S11657447EA0173301837000000015000
B0432213207241S11657380EA0173801847000000015000
B0432253207178S11657384EA0174801851000000015000
B0432293207161S11657436EA0175301856000000015000
B0432333207202S11657464EA0175601859000000015000
B0432373207255S11657433EA0175701861000000015000
B0432413207277S11657354EA0175901866000000015000
B0432453207260S11657268EA0176901877000000015000
B0432493207203S11657224EA0177701883000000015000
B0432533207156S11657248EA0178601888000000015000
B0432573207165S11657295EA0178601886000000015000
B0433013207219S11657291EA0178501887000000015000
B0433053207254S11657218EA0178601892000000015000
B0433093207247S11657127EA0178901894000000015000
B0433133207226S11657038EA0178401881000000015000
B0433173207207S11656940EA0176901868000000000000
B0433213207195S11656836EA0176001860000000000000
B0433253207193S11656732EA0175601858000000000000
B0433293207215S11656644EA0176201870000000000000
B0433333207259S11656584EA0176901873000000000000
B0433373207313S11656553EA0176701868000000000000
B0433413207369S11656557EA0176701871000000000000
B0433453207419S11656580EA0176501869000000000000
B0433493207467S11656609EA0176101862000000000000
B0433533207516S11656645EA0175101851000000000000
B0433573207559S11656695EA0174401847000000000000
B0434013207588S11656753EA0174201845000000000000
B0434053207623S11656808EA0173501836000000000000
B0434093207675S11656844EA0172501829000000000000
B0434133207737S11656857EA0172101821000000000000
B0434173207804S11656857EA0171201813000000000000
B0434213207871S11656849EA0170301803000000000000
B0434253207940S11656835EA0169601792000000000000
B0434293208010S11656818EA0168301779000000000000
B0434333208082S11656802EA0167101767000000000000
B0434373208156S11656791EA0166201758000000000000
B0434413208227S11656780EA0165501752000000000000
B0434453208299S11656767EA0164901745000000000000
B0434493208372S11656757EA0164301740000000000000
B0434533208444S11656750EA0163601731000000000000
B0434573208520S11656747EA0162801721000000000000
B0435013208598S11656741EA0162001709000000000000
B0435053208677S11656728EA0161201704000000000000
B0435093208756S11656709EA0160401695000000000000
B0435133208838S11656684EA0159101679000000000000
B0435173208923S11656654EA0157701669000000000000
B0435213209007S11656622EA0157301665000000000000
B0435253209093S11656589EA0156501655000000000000
B0435293209182S11656559EA0155201642000000000000
B0435333209271S11656532EA0154501633000000000000
B0435373209365S11656506EA0153701625000000000000
B0435413209460S11656488EA0152501613000000000000
B0435453209557S11656474EA0151601603000000000000
B0435493209656S11656463EA0150801595000000000000
B0435533209755S11656453EA0150201592000000000000
B0435573209851S11656448EA0149901587000000000000
B0436013209946S11656445EA0149001577000000000000
B0436053210040S11656446EA0148301567000000000000
B0436093210131S11656450EA0147401561000000000000
B0436133210216S11656446EA0147601564000000000000
B0436173210302S11656436EA0146901552000000000000
B0436213210389S11656422EA0145901544000000000000
B0436253210478S11656406EA0144901531000000000000
B0436293210567S11656392EA0143701520000000000000
B0436333210653S11656373EA0143901533000000000000
B0436373210730S11656353EA0146001553000000000000
B0436413210803S11656331EA0147001561000000000000
B0436453210868S11656290EA0147501567000000000000
B0436493210924S11656229EA0147401556000000000000
B0436533210995S11656189EA0146101544000000000000
B0436573211078S11656168EA0144401523000000000000
B0437013211167S11656159EA0142701508000000000000
B0437053211256S11656150EA0141801500000000000000
B0437093211346S11656137EA0141201495000000000000
B0437133211437S11656121EA0140401487000000000000
B0437173211527S11656098EA0139901483000000000000
B0437213211616S11656073EA0139301474000000000000
B0437253211706S11656048EA0138501468000000000000
B0437293211795S11656025EA0138001463000000000000
B0437333211884S11656000EA0137401459000000000000
B0437373211973S11655977EA0137401461000000000000
B0437413212056S11655956EA0137801462000000000000
B0437453212139S11655935EA0137201454000000000000
B0437493212220S11655912EA0137201459000000000000
B0437533212295S11655890EA0137301451000000000000
B0437573212374S11655863EA0135901437000000000000
B0438013212456S11655833EA0135101434000000000000
B0438053212537S11655801EA0135101435000000000000
B0438093212616S11655770EA0134701424000000000000
B0438133212699S11655736EA0133301407000000000000
B0438173212785S11655707EA0131801394000000000000
B0438213212871S11655675EA0131101386000000000000
B0438253212958S11655647EA0130101376000000000000
B0438293213046S11655621EA0129401371000000000000
B0438333213134S11655593EA0129201366000000000000
B0438373213219S11655565EA0128701365000000000000
B0438413213303S11655531EA0128101353000000000000
B0438453213391S11655496EA0126801339000000000000
B0438493213481S11655460EA0125801328000000000000
B0438533213570S11655424EA0125201332000000000000
B0438573213648S11655388EA0126701345000000000000
B0439013213724S11655352EA0127001340000000000000
B0439053213802S11655315EA0127001347000000000000
B0439093213880S11655301EA0128201360000000000000
B0439133213949S11655317EA0129501373000000000000
B0439173214005S11655356EA0129701371000000000000
B0439213214041S11655414EA0129601373000000000000
B0439253214060S11655483EA0129301366000000000000
B0439293214081S11655553EA0128501358000000000000
B0439333214105S11655626EA0127401344000000000000
B0439373214123S11655704EA0126001328000000000000
B0439413214151S11655778EA0124201308000000000000
B0439453214203S11655838EA0122701296000000000000
B0439493214262S11655885EA0122201294000000000000
B0439533214327S11655920EA0121801284000000000000
B0439573214401S11655941EA0120201266000000000000
B0440013214482S11655946EA0118701252000000000000
B0440053214567S11655938EA0116901234000000000000
B0440093214655S11655922EA0115101213000000000000
B0440133214746S11655903EA0114001205000000000000
B0440173214838S11655886EA0113501199000000000000
B0440213214929S11655868EA0113101199000000000000
B0440253215009S11655879EA0114501216000000000000
B0440293215041S11655952EA0116301244000000000000
B0440333215004S11656011EA0119201274000000000000
B0440373214942S11656000EA0121301287000000000000
B0440413214907S11655941EA0121901291000000000000
B0440453214918S11655872EA0122201298000000000000
B0440493214964S11655846EA0122801301000000015000
B0440533215008S11655865EA0123501306000000000000
B0440573215030S11655916EA0124001315000000000000
B0441013214986S11655954EA0125401330000000000000
B0441053214931S11655920EA0126301336000000000000
B0441093214922S11655850EA0126501336000000015000
B0441133214967S11655805EA0126301336000000015000
B0441173215013S11655822EA0126901345000000015000
B0441213215042S11655870EA0127501352000000015000
B0441253215011S11655916EA0129201372000000015000
B0441293214954S11655903EA0129901371000000015000
B0441333214911S11655840EA0130101379000000015000
B0441373214911S11655764EA0130701384000000015000
B0441413214950S11655712EA0131101388000000015000
B0441453215002S11655710EA0131401390000000015000
B0441493215029S11655755EA0131201387000000015000
B0441533215032S11655817EA0131201389000000015000
B0441573215025S11655879EA0131401392000000015000
B0442013214972S11655915EA0131601394000000000000
B0442053214913S11655885EA0132201405000000000000
B0442093214916S11655809EA0132601400000000000000
B0442133214967S11655760EA0131901393000000015000
B0442173215032S11655735EA0131701396000000000000
B0442213215097S11655727EA0132001401000000000000
B0442253215162S11655730EA0132301402000000000000
B0442293215229S11655729EA0131201384000000000000
B0442333215303S11655722EA0129401367000000000000
B0442373215381S11655712EA0128801362000000000000
B0442413215457S11655697EA0129701375000000000000
B0442453215522S11655710EA0130701394000000000000
B0442493215559S11655761EA0132401412000000000000
B0442533215549S11655818EA0133701417000000000000
B0442573215497S11655840EA0133301410000000000000
B0443013215440S11655801EA0133001409000000000000
B0443053215422S11655721EA0132701402000000000000
B0443093215427S11655632EA0132201398000000000000
B0443133215435S11655540EA0132401404000000000000
B0443173215416S11655454EA0133001412000000000000
B0443213215357S11655430EA0134001419000000000000
B0443253215320S11655474EA0134001415000000000000
B0443293215337S11655532EA0133601414000000000000
B0443333215384S11655562EA0133901417000000000000
B0443373215441S11655567EA0134201423000000000000
B0443413215506S11655561EA0134101423000000000000
B0443453215574S11655553EA0134601430000000000000
B0443493215644S11655548EA0134501424000000000000
B0443533215718S11655543EA0133201408000000000000
B0443573215796S11655540EA0131801394000000000000
B0444013215875S11655539EA0131201385000000000000
B0444053215956S11655539EA0130101375000000000000
B0444093216036S11655541EA0129001359000000000000
B0444133216121S11655549EA0127001338000000000000
B0444173216207S11655564EA0125401323000000000000
B0444213216295S11655577EA0123901307000000000000
B0444253216386S11655587EA0122401293000000000000
B0444293216478S11655592EA0121101281000000000000
B0444333216571S11655599EA0120001268000000000000
B0444373216663S11655606EA0119001254000000000000
B0444413216754S11655617EA0118101249000000000000
B0444453216844S11655631EA0117501244000000000000
B0444493216935S11655644EA0116401229000000000000
B0444533217028S11655652EA0115101212000000000000
B0444573217125S11655657EA0113101193000000000000
B0445013217222S11655656EA0111601178000000000000
B0445053217318S11655653EA0110401163000000000000
B0445093217411S11655652EA0110101166000000000000
B0445133217495S11655656EA0110101165000000000000
B0445173217572S11655665EA0110101168000000000000
B0445213217641S11655684EA0111201183000000000000
B0445253217706S11655705EA0112301192000000000000
B0445293217742S11655755EA0113201204000000000000
B0445333217747S11655814EA0114001211000000000000
B0445373217747S11655877EA0114201208000000000000
B0445413217746S11655943EA0113901207000000000000
B0445453217745S11656011EA0114301213000000000000
B0445493217788S11656047EA0115501226000000000000
B0445533217827S11655986EA0116701235000000000000
B0445573217797S11655908EA0117401245000000000000
B0446013217730S11655883EA0117701245000000000000
B0446053217678S11655925EA0118001249000000000000
B0446093217664S11655991EA0118901258000000015000
B0446133217689S11656048EA0119801268000000015000
B0446173217742S11656069EA0121301289000000015000
B0446213217785S11656019EA0122501296000000015000
B0446253217775S11655941EA0122301290000000015000
B0446293217716S11655895EA0122101297000000015000
B0446333217651S11655894EA0123201306000000015000
B0446373217602S11655929EA0123901309000000015000
B0446413217590S11655981EA0124201312000000015000
B0446453217630S11656006EA0124201310000000015000
B0446493217691S11656006EA0123901308000000000000
B0446533217758S11655999EA0124701319000000000000
B0446573217797S11655937EA0125701327000000000000
B0447013217762S11655865EA0125001315000000015000
B0447053217694S11655863EA0124201314000000000000
B0447093217628S11655886EA0124601324000000000000
B0447133217593S11655933EA0126401346000000000000
B0447173217621S11655968EA0127701345000000000000
B0447213217676S11655941EA0127501348000000015000
B0447253217702S11655868EA0128401362000000015000
B0447293217684S11655791EA0129401371000000015000
B0447333217625S11655764EA0129801373000000015000
B0447373217587S11655804EA0130401382000000015000
B0447413217606S11655852EA0131101384000000015000
B0447453217663S11655844EA0131401394000000015000
B0447493217691S11655775EA0132601407000000015000
B0447533217659S11655708EA0133201413000000015000
B0447573217599S11655697EA0133901419000000015000
B0448013217567S11655742EA0134301424000000015000
B0448053217580S11655792EA0134801427000000015000
B0448093217626S11655811EA0135501431000000015000
B0448133217678S11655773EA0136201440000000015000
B0448173217695S11655699EA0136701445000000015000
B0448213217658S11655635EA0136801444000000015000
B0448253217593S11655627EA0136701444000000015000
B0448293217542S11655664EA0136801448000000015000
B0448333217542S11655723EA0137201452000000015000
B0448373217577S11655773EA0137501457000000000000
B0448413217626S11655800EA0138401462000000000000
B0448453217681S11655772EA0137901452000000000000
B0448493217741S11655730EA0136501437000000000000
B0448533217812S11655697EA0135001423000000000000
B0448573217890S11655678EA0133701408000000000000
B0449013217973S11655670EA0132801404000000000000
B0449053218057S11655670EA0132401400000000000000
B0449093218139S11655673EA0131901393000000000000
B0449133218223S11655674EA0131001382000000000000
B0449173218308S11655679EA0130001375000000000000
B0449213218388S11655683EA0129801375000000000000
B0449253218467S11655687EA0129301367000000000000
B0449293218545S11655690EA0128501358000000000000
B0449333218622S11655694EA0127801352000000000000
B0449373218698S11655699EA0127001342000000000000
B0449413218773S11655703EA0125901324000000000000
B0449453218852S11655709EA0124201309000000000000
B0449493218932S11655716EA0122601293000000000000
B0449533219012S11655726EA0120901275000000000000
B0449573219091S11655738EA0119701264000000000000
B0450013219171S11655749EA0119201264000000000000
B0450053219247S11655761EA0119101257000000000000
B0450093219323S11655773EA0117501242000000000000
B0450133219400S11655787EA0116701232000000000000
B0450173219474S11655807EA0116001229000000000000
B0450213219548S11655826EA0116001231000000000000
B0450253219618S11655844EA0116701238000000000000
B0450293219689S11655861EA0116401229000000000000
B0450333219762S11655879EA0115401221000000000000
B0450373219832S11655903EA0114801216000000000000
B0450413219901S11655931EA0114201210000000000000
B0450453219970S11655961EA0113401198000000000000
B0450493220042S11655993EA0112301181000000000000
B0450533220112S11656032EA0110701164000000000000
B0450573220182S11656069EA0109601157000000000000
B0451013220251S11656104EA0108201139000000000000
B0451053220321S11656141EA0106801127000000000000
B0451093220386S11656181EA0105801117000000000000
B0451133220447S11656230EA0104501102000000000000
B0451173220506S11656282EA0103601091000000000000
B0451213220560S11656331EA0103001091000000000000
B0451253220615S11656373EA0102601076000000000000
B0451293220680S11656398EA0101301067000000000000
B0451333220754S11656397EA0100301056000000000000
B0451373220830S11656386EA0099001040000000000000
B0451413220909S11656366EA0097601024000000000000
B0451453220976S11656303EA0096301017000000000000
B0451493221025S11656215EA0096601026000000000000
B0451533221058S11656125EA0098101049000000000000
B0451573221030S11656045EA0100501061000000000000
B0452013220971S11656056EA0100801065000000000000
B0452053220978S11656107EA0101701081000000000000
B0452093221035S11656102EA0103001089000000015000
B0452133221066S11656026EA0103701101000000015000
B0452173221035S11655950EA0104801110000000015000
B0452213220976S11655925EA0105201109000000015000
B0452253220936S11655963EA0105301113000000015000
B0452293220937S11656016EA0106001116000000015000
B0452333220991S11656009EA0106701123000000015000
B0452373220995S11655925EA0107901143000000015000
B0452413220940S11655895EA0109401153000000015000
B0452453220914S11655937EA0110001161000000015000
B0452493220949S11655970EA0110701162000000015000
B0452533221005S11655941EA0111301181000000015000
B0452573221031S11655869EA0113101198000000015000
B0453013221004S11655795EA0113801201000000015000
B0453053220945S11655787EA0114101204000000015000
B0453093220923S11655839EA0114301204000000015000
B0453133220965S11655869EA0115501221000000015000
B0453173220988S11655799EA0117401242000000015000
B0453213220940S11655744EA0118301253000000015000
B0453253220895S11655769EA0119301262000000015000
B0453293220906S11655817EA0119801258000000015000
B0453333220962S11655820EA0119701269000000015000
B0453373221004S11655766EA0121001284000000015000
B0453413221005S11655687EA0121601282000000015000
B0453453220949S11655625EA0121001280000000015000
B0453493220882S11655621EA0121501289000000015000
B0453533220854S11655675EA0122201292000000015000
B0453573220897S11655708EA0122501290000000015000
B0454013220956S11655665EA0122001289000000015000
B0454053220978S11655574EA0122501299000000015000
B0454093220992S11655475EA0123301307000000000000
B0454133220961S11655393EA0124901326000000000000
B0454173220900S11655405EA0126101332000000000000
B0454213220898S11655465EA0126201334000000000000
B0454253220950S11655479EA0126701338000000015000
B0454293221005S11655428EA0126901342000000015000
B0454333221015S11655341EA0127801357000000015000
B0454373220962S11655293EA0128901366000000015000
B0454413220913S11655326EA0129301367000000015000
B0454453220917S11655382EA0129501371000000015000
B0454493220967S11655396EA0130101375000000015000
B0454533221023S11655354EA0130401382000000015000
B0454573221041S11655272EA0131301394000000015000
B0455013221005S11655202EA0132201402000000015000
B0455053220943S11655193EA0132801404000000015000
B0455093220900S11655237EA0132601401000000015000
B0455133220897S11655298EA0132801404000000015000
B0455173220926S11655346EA0133201411000000015000
B0455213220978S11655361EA0133901421000000015000
B0455253221032S11655330EA0134601423000000015000
B0455293221070S11655261EA0134701427000000015000
B0455333221097S11655180EA0135501439000000015000
B0455373221073S11655106EA0136501443000000015000
B0455413221012S11655110EA0136601447000000015000
B0455453220999S11655166EA0137201452000000015000
B0455493221040S11655193EA0138101460000000015000
B0455533221090S11655146EA0139301470000000015000
B0455573221093S11655064EA0140301483000000015000
B0456013221048S11655012EA0141101488000000015000
B0456053220993S11655027EA0141301490000000015000
B0456093220986S11655081EA0141601494000000015000
B0456133221030S11655105EA0142501503000000015000
B0456173221083S11655068EA0143101508000000015000
B0456213221116S11654997EA0144001522000000015000
B0456253221097S11654919EA0145001534000000015000
B0456293221041S11654898EA0145701538000000015000
B0456333221006S11654941EA0146001540000000015000
B0456373221030S11654988EA0146801546000000015000
B0456413221086S11654971EA0147201547000000015000
B0456453221103S11654888EA0147201554000000015000
B0456493221057S11654821EA0148101565000000015000
B0456533220995S11654819EA0148801571000000015000
B0456573220960S11654868EA0148901572000000015000
B0457013220976S11654924EA0149301577000000015000
B0457053221028S11654945EA0149701578000000015000
B0457093221088S11654911EA0150101587000000015000
B0457133221127S11654838EA0150701594000000015000
B0457173221112S11654754EA0151801610000000015000
B0457213221053S11654715EA0152901617000000015000
B0457253220996S11654735EA0153401622000000015000
B0457293220974S11654794EA0153501624000000015000
B0457333220999S11654850EA0154001627000000015000
B0457373221054S11654868EA0154401638000000015000
B0457413221113S11654832EA0155701653000000015000
B0457453221127S11654750EA0157101668000000015000
B0457493221087S11654687EA0158201677000000015000
B0457533221030S11654686EA0158601680000000015000
B0457573221004S11654737EA0158801679000000015000
B0458013221027S11654785EA0159401683000000015000
B0458053221080S11654771EA0160601692000000015000
B0458093221093S11654691EA0161301703000000015000
B0458133221045S11654641EA0162101710000000015000
B0458173220992S11654656EA0162301712000000015000
B0458213220973S11654711EA0162401713000000015000
B0458253220991S11654765EA0162701716000000015000
B0458293221040S11654793EA0164001734000000015000
B0458333221097S11654763EA0164301731000000015000
B0458373221125S11654682EA0164201735000000015000
B0458413221122S11654591EA0165001745000000015000
B0458453221070S11654544EA0165901756000000015000
B0458493221032S11654579EA0166501763000000015000
B0458533221058S11654620EA0167701773000000015000
B0458573221113S11654591EA0168601779000000015000
B0459013221125S11654507EA0168301780000000015000
B0459053221082S11654435EA0169001789000000015000
B0459093221027S11654447EA0169801795000000015000
B0459133221017S11654499EA0170201797000000015000
B0459173221057S11654529EA0171001810000000015000
B0459213221112S11654501EA0172001813000000015000
B0459253221140S11654421EA0172101819000000015000
B0459293221110S11654338EA0173001830000000015000
B0459333221048S11654317EA0174001838000000015000
B0459373221006S11654360EA0173701836000000015000
B0459413220996S11654423EA0173801838000000000000
B0459453221032S11654470EA0174401850000000000000
B0459493221091S11654435EA0175701860000000015000
B0459533221096S11654344EA0175801857000000015000
B0459573221051S11654264EA0176001864000000015000
B0500013220986S11654230EA0176701870000000015000
B0500053220935S11654264EA0177401874000000015000
B0500093220921S11654322EA0177401873000000015000
B0500133220944S11654378EA0177701875000000015000
B0500173221001S11654381EA0178501884000000015000
B0500213221034S11654305EA0179601897000000015000
B0500253220995S11654230EA0180201905000000015000
B0500293220934S11654226EA0180801911000000015000
B0500333220909S11654277EA0181001914000000015000
B0500373220936S11654323EA0181401917000000015000
B0500413220993S11654332EA0181701919000000015000
B0500453221054S11654296EA0182601930000000015000
B0500493221066S11654209EA0183301935000000015000
B0500533221019S11654147EA0183601936000000015000
B0500573220962S11654160EA0183301934000000015000
B0501013220939S11654217EA0183301939000000015000
B0501053220962S11654267EA0184501949000000000000
B0501093221023S11654248EA0185301959000000015000
B0501133221036S11654166EA0186101974000000000000
B0501173220989S11654109EA0186901979000000015000
B0501213220932S11654122EA0186901979000000015000
B0501253220918S11654176EA0187701987000000015000
B0501293220957S11654215EA0188601997000000000000
B0501333221015S11654206EA0188601988000000015000
B0501373221079S11654169EA0187101977000000000000
B0501413221152S11654134EA0186301971000000000000
B0501453221231S11654105EA0186301975000000000000
B0501493221311S11654076EA0186401976000000000000
B0501533221394S11654049EA0186401978000000000000
B0501573221473S11654019EA0188001996000000000000
B0502013221532S11653955EA0189302015000000000000
B0502053221548S11653866EA0190902025000000000000
B0502093221532S11653783EA0191502028000000000000
B0502133221472S11653746EA0191402021000000000000
B0502173221418S11653781EA0190702018000000000000
B0502213221387S11653841EA0191002026000000000000
B0502253221369S11653902EA0192202040000000000000
B0502293221404S11653944EA0193002043000000000000
B0502333221457S11653896EA0193502046000000000000
B0502373221443S11653809EA0193702051000000000000
B0502413221381S11653771EA0194202058000000000000
B0502453221321S11653789EA0194602058000000000000
B0502493221291S11653844EA0194702063000000000000
B0502533221300S11653905EA0195002063000000000000
B0502573221347S11653946EA0194802062000000000000
B0503013221412S11653945EA0195202073000000000000
B0503053221478S11653931EA0195902072000000000000
B0503093221552S11653906EA0195402071000000000000
B0503133221628S11653876EA0196002081000000000000
B0503173221699S11653845EA0196502083000000000000
B0503213221775S11653812EA0195202063000000000000
B0503253221854S11653777EA0193802050000000000000
B0503293221935S11653747EA0192802038000000000000
B0503333222015S11653721EA0192002031000000000000
B0503373222096S11653699EA0191202022000000000000
B0503413222174S11653677EA0190202009000000000000
B0503453222253S11653653EA0188501991000000000000
B0503493222336S11653627EA0186601971000000000000
B0503533222419S11653598EA0185301961000000000000
B0503573222503S11653569EA0184401952000000000000
B0504013222586S11653539EA0183201938000000000000
B0504053222669S11653508EA0182301930000000000000
B0504093222752S11653476EA0182001926000000000000
B0504133222834S11653446EA0181501923000000000000
B0504173222912S11653415EA0181501923000000000000
B0504213222989S11653386EA0181201917000000000000
B0504253223067S11653357EA0180301906000000000000
B0504293223145S11653325EA0179301898000000000000
B0504333223224S11653292EA0178901894000000000000
B0504373223303S11653261EA0179301901000000000000
B0504413223378S11653234EA0180601924000000000000
B0504453223446S11653234EA0182101929000000000000
B0504493223513S11653251EA0182101925000000000000
B0504533223586S11653263EA0181201911000000000000
B0504573223662S11653259EA0180501910000000000000
B0505013223740S11653253EA0179701899000000000000
B0505053223820S11653243EA0178801891000000000000
B0505093223899S11653231EA0177901879000000000000
B0505133223979S11653213EA0177001870000000000000
B0505173224060S11653196EA0176001861000000000000
B0505213224142S11653177EA0175001848000000000000
B0505253224225S11653157EA0174401847000000000000
B0505293224306S11653138EA0174001841000000000000
B0505333224386S11653116EA0173301834000000000000
B0505373224467S11653091EA0172601826000000000000
B0505413224549S11653068EA0171801820000000000000
B0505453224628S11653048EA0171701818000000000000
B0505493224707S11653027EA0171601817000000000000
B0505533224783S11653008EA0171901832000000000000
B0505573224849S11653006EA0174201858000000000000
B0506013224900S11653030EA0176101863000000000000
B0506053224935S11653075EA0176101863000000000000
B0506093224943S11653136EA0176301867000000000000
B0506133224932S11653200EA0176501867000000000000
B0506173224923S11653266EA0176101861000000000000
B0506213224914S11653338EA0175001850000000000000
B0506253224905S11653415EA0174001839000000000000
B0506293224918S11653486EA0173701833000000000000
B0506333224970S11653529EA0172501818000000000000
B0506373225043S11653533EA0171001806000000000000
B0506413225120S11653519EA0169701791000000000000
B0506453225201S11653499EA0167401762000000000000
B0506493225289S11653469EA0165201745000000000000
B0506533225376S11653439EA0163501726000000000000
B0506573225465S11653411EA0161501703000000000000
B0507013225555S11653382EA0160201693000000000000
B0507053225641S11653350EA0160001694000000000000
B0507093225721S11653317EA0160301698000000000000
B0507133225801S11653283EA0159901691000000000000
B0507173225880S11653247EA0160001699000000000000
B0507213225953S11653212EA0160801703000000000000
B0507253226027S11653178EA0160201693000000000000
B0507293226102S11653147EA0159301683000000000000
B0507333226178S11653118EA0159201688000000000000
B0507373226247S11653090EA0160601705000000000000
B0507413226310S11653060EA0161601715000000000000
B0507453226364S11653008EA0162601728000000000000
B0507493226356S11652928EA0164601749000000000000
B0507533226297S11652900EA0165101738000000000000
B0507573226261S11652948EA0164301743000000000000
B0508013226269S11653000EA0165101747000000000000
B0508053226308S11653034EA0165101744000000000000
B0508093226364S11653045EA0164901744000000000000
B0508133226426S11653030EA0165001746000000000000
B0508173226491S11652996EA0165601754000000000000
B0508213226555S11652957EA0166601765000000000000
B0508253226594S11652889EA0167601774000000000000
B0508293226560S11652814EA0168101780000000000000
B0508333226503S11652808EA0168401782000000000000
B0508373226479S11652856EA0168801787000000000000
B0508413226494S11652908EA0169201791000000000000
B0508453226538S11652940EA0169801796000000000000
B0508493226595S11652935EA0169801791000000015000
B0508533226660S11652908EA0168301769000000000000
B0508573226733S11652879EA0167001767000000000000
B0509013226798S11652887EA0168901799000000000000
B0509053226793S11652941EA0172101830000000015000
B0509093226733S11652930EA0173401833000000015000
B0509133226699S11652852EA0173301834000000015000
B0509173226711S11652767EA0173701837000000015000
B0509213226771S11652737EA0173501843000000015000
B0509253226782S11652793EA0176101880000000015000
B0509293226715S11652806EA0178501897000000015000
B0509333226673S11652736EA0179901910000000015000
B0509373226703S11652668EA0180601909000000015000
B0509413226752S11652691EA0181301934000000015000
B0509453226733S11652744EA0184701974000000015000
B0509493226670S11652752EA0187101985000000015000
B0509533226618S11652694EA0188001987000000015000
B0509573226626S11652606EA0187601982000000015000
B0510013226683S11652567EA0187901993000000015000
B0510053226730S11652601EA0188902002000000015000
B0510093226724S11652667EA0190202022000000015000
B0510133226663S11652698EA0192002038000000015000
B0510173226594S11652672EA0193502054000000015000
B0510213226559S11652600EA0194902066000000015000
B0510253226570S11652518EA0195102061000000015000
B0510293226621S11652462EA0194902062000000015000
B0510333226680S11652458EA0195102067000000015000
B0510373226726S11652492EA0195902074000000015000
B0510413226759S11652545EA0196402081000000000000
B0510453226765S11652615EA0197102091000000000000
B0510493226728S11652674EA0198602114000000000000
B0510533226657S11652663EA0200702126000000000000
B0510573226613S11652590EA0201302132000000000000
B0511013226621S11652507EA0201902138000000015000
B0511053226673S11652463EA0202702148000000015000
B0511093226724S11652486EA0203702161000000015000
B0511133226732S11652548EA0204902169000000015000
B0511173226682S11652594EA0205902186000000015000
B0511213226618S11652564EA0207202201000000015000
B0511253226609S11652481EA0208402211000000015000
B0511293226650S11652431EA0209702226000000015000
B0511333226700S11652441EA0210502230000000015000
B0511373226712S11652503EA0211502245000000015000
B0511413226672S11652557EA0212702255000000015000
B0511453226604S11652554EA0213602269000000015000
B0511493226564S11652490EA0215502289000000015000
B0511533226572S11652416EA0216802298000000015000
B0511573226618S11652384EA0217402304000000015000
B0512013226663S11652416EA0218002316000000015000
B0512053226647S11652479EA0219402332000000015000
B0512093226587S11652506EA0220602338000000015000
B0512133226521S11652477EA0221002347000000015000
B0512173226488S11652405EA0222402358000000015000
B0512213226509S11652333EA0223002362000000015000
B0512253226563S11652306EA0222802359000000015000
B0512293226617S11652327EA0223102367000000015000
B0512333226626S11652392EA0225202391000000015000
B0512373226581S11652440EA0226602399000000015000
B0512413226511S11652440EA0227002403000000015000
B0512453226455S11652385EA0227802417000000015000
B0512493226436S11652306EA0228702424000000015000
B0512533226452S11652229EA0229002422000000015000
B0512573226501S11652180EA0229002425000000015000
B0513013226559S11652176EA0229602430000000015000
B0513053226596S11652226EA0229502426000000015000
B0513093226578S11652304EA0229402429000000015000
B0513133226504S11652334EA0230102440000000015000
B0513173226431S11652290EA0231602457000000015000
B0513213226405S11652206EA0232402459000000015000
B0513253226443S11652139EA0232402458000000015000
B0513293226504S11652129EA0233002473000000015000
B0513333226560S11652151EA0233802476000000015000
B0513373226607S11652202EA0234202480000000000000
B0513413226592S11652268EA0235602503000000000000
B0513453226531S11652277EA0237002506000000000000
B0513493226483S11652219EA0236802510000000000000
B0513533226474S11652142EA0237602521000000015000
B0513573226505S11652083EA0238802531000000015000
B0514013226559S11652076EA0239502534000000015000
B0514053226592S11652125EA0240302547000000015000
B0514093226578S11652190EA0240802547000000015000
B0514133226520S11652226EA0240702547000000015000
B0514173226449S11652203EA0240702548000000015000
B0514213226409S11652129EA0241302554000000015000
B0514253226391S11652042EA0241502558000000000000
B0514293226407S11651960EA0242102568000000000000
B0514333226448S11651898EA0243002575000000000000
B0514373226505S11651860EA0243002566000000000000
B0514413226578S11651839EA0241302545000000000000
B0514453226659S11651822EA0239802533000000000000
B0514493226742S11651807EA0239302532000000000000
B0514533226826S11651792EA0239302536000000000000
B0514573226906S11651781EA0240402551000000000000
B0515013226973S11651775EA0242502572000000000000
B0515053227027S11651756EA0244102586000000000000
B0515093227044S11651688EA0244902591000000000000
B0515133226998S11651623EA0245102590000000000000
B0515173226924S11651622EA0245002584000000015000
B0515213226885S11651686EA0244502583000000015000
B0515253226899S11651751EA0244302582000000015000
B0515293226938S11651801EA0243602572000000000000
B0515333226997S11651834EA0243002568000000000000
B0515373227059S11651843EA0243302578000000000000
B0515413227115S11651836EA0244802595000000000000
B0515453227163S11651830EA0245602600000000000000
B0515493227213S11651823EA0245002588000000000000
B0515533227270S11651813EA0243502572000000000000
B0515573227331S11651796EA0243002572000000000000
B0516013227388S11651782EA0243702585000000000000
B0516053227439S11651770EA0244602587000000000000
B0516093227488S11651753EA0244102578000000000000
B0516133227544S11651731EA0242102552000000000000
B0516173227609S11651709EA0240302536000000000000
B0516213227675S11651691EA0239202527000000000000
B0516253227743S11651677EA0238202517000000000000
B0516293227809S11651667EA0237502510000000000000
B0516333227877S11651662EA0236902504000000000000
B0516373227944S11651652EA0236702499000000000000
B0516413228013S11651640EA0236002493000000000000
B0516453228085S11651631EA0235202484000000000000
B0516493228156S11651623EA0235102491000000000000
B0516533228219S11651640EA0235902498000000000000
B0516573228281S11651660EA0235302482000000000000
B0517013228351S11651662EA0233802471000000000000
B0517053228424S11651656EA0233502472000000000000
B0517093228494S11651648EA0233902476000000000000
B0517133228563S11651647EA0233802473000000000000
B0517173228636S11651647EA0233302466000000000000
B0517213228709S11651653EA0233302471000000000000
B0517253228771S11651671EA0233802474000000000000
B0517293228831S11651696EA0233402463000000000000
B0517333228901S11651699EA0231502443000000000000
B0517373228975S11651683EA0230102431000000000000
B0517413229049S11651664EA0229002420000000000000
B0517453229122S11651643EA0227702405000000000000
B0517493229195S11651617EA0226102389000000000000
B0517533229269S11651588EA0224802371000000000000
B0517573229345S11651558EA0223002349000000000000
B0518013229425S11651530EA0220302324000000000000
B0518053229508S11651502EA0219002317000000000000
B0518093229593S11651474EA0218402308000000000000
B0518133229680S11651441EA0216802284000000000000
B0518173229771S11651407EA0214602265000000000000
B0518213229861S11651374EA0213302254000000000000
B0518253229949S11651336EA0212502247000000000000
B0518293230040S11651300EA0211502228000000000000
B0518333230135S11651263EA0210102219000000000000
B0518373230226S11651229EA0209602214000000000000
B0518413230317S11651194EA0209002207000000000000
B0518453230404S11651162EA0208902213000000000000
B0518493230489S11651131EA0208602205000000000000
B0518533230573S11651102EA0207002185000000000000
B0518573230660S11651072EA0204902164000000000000
B0519013230751S11651042EA0203502152000000000000
B0519053230842S11651012EA0203002146000000000000
B0519093230932S11650980EA0202202134000000000000
B0519133231025S11650949EA0201002125000000000000
B0519173231119S11650913EA0200602123000000000000
B0519213231210S11650880EA0201002129000000000000
B0519253231301S11650842EA0200602123000000000000
B0519293231387S11650819EA0202002153000000000000
B0519333231451S11650838EA0204702178000000000000
B0519373231496S11650880EA0205902176000000000000
B0519413231536S11650930EA0204802155000000000000
B0519453231605S11650958EA0202602137000000000000
B0519493231685S11650960EA0201602125000000000000
B0519533231769S11650955EA0200002113000000000000
B0519573231856S11650945EA0199202105000000000000
B0520013231945S11650921EA0198702100000000000000
B0520053232032S11650893EA0198002090000000000000
B0520093232119S11650860EA0196902080000000000000
B0520133232206S11650826EA0195902069000000000000
B0520173232296S11650794EA0194802056000000000000
B0520213232383S11650760EA0194402057000000000000
B0520253232467S11650725EA0193702045000000000000
B0520293232552S11650687EA0192302032000000000000
B0520333232637S11650648EA0191302020000000000000
B0520373232723S11650611EA0189902006000000000000
B0520413232810S11650572EA0188801996000000000000
B0520453232896S11650534EA0188501995000000000000
B0520493232982S11650497EA0188001987000000000000
B0520533233069S11650462EA0187301980000000000000
B0520573233157S11650429EA0186701975000000000000
B0521013233245S11650397EA0187201990000000000000
B0521053233326S11650380EA0189402014000000000000
B0521093233394S11650400EA0191402027000000000000
B0521133233450S11650438EA0191902029000000000000
B0521173233494S11650490EA0191902024000000000000
B0521213233544S11650542EA0190702011000000000000
B0521253233592S11650595EA0190402014000000000000
B0521293233633S11650653EA0191702029000000000000
B0521333233681S11650685EA0192702037000000000000
B0521373233716S11650625EA0193402044000000000000
B0521413233685S11650548EA0193002039000000000000
B0521453233615S11650510EA0192502032000000015000
B0521493233545S11650527EA0192502038000000015000
B0521533233501S11650581EA0193002042000000015000
B0521573233486S11650644EA0193502047000000000000
B0522013233488S11650705EA0193202039000000000000
B0522053233501S11650769EA0192202028000000000000
B0522093233529S11650825EA0191702026000000000000
B0522133233577S11650859EA0191602025000000000000
B0522173233640S11650852EA0191702028000000000000
B0522213233703S11650828EA0192402038000000000000
B0522253233765S11650798EA0192902041000000000000
B0522293233814S11650737EA0192902038000000000000
B0522333233865S11650668EA0193202052000000000000
B0522373233884S11650586EA0194502054000000015000
B0522413233830S11650527EA0194202047000000015000
B0522453233772S11650559EA0193502041000000015000
B0522493233772S11650624EA0193602050000000015000
B0522533233805S11650674EA0194102054000000015000
B0522573233858S11650705EA0193802049000000000000
B0523013233926S11650718EA0192502029000000000000
B0523053234005S11650708EA0190001999000000000000
B0523093234092S11650669EA0187501984000000000000
B0523133234175S11650621EA0187201985000000000000
B0523173234256S11650572EA0186901974000000000000
B0523213234342S11650526EA0185001948000000000000
B0523253234433S11650484EA0183701942000000000000
B0523293234522S11650452EA0183101935000000000000
B0523333234616S11650422EA0181901919000000000000
B0523373234708S11650396EA0181701925000000000000
B0523413234795S11650373EA0182301931000000000000
B0523453234877S11650348EA0182401933000000000000
B0523493234955S11650326EA0182601933000000000000
B0523533235031S11650308EA0182401931000000000000
B0523573235107S11650293EA0181901920000000000000
B0524013235188S11650279EA0180201901000000000000
B0524053235275S11650263EA0178301880000000000000
B0524093235365S11650244EA0176501864000000000000
B0524133235455S11650221EA0175301855000000000000
B0524173235543S11650195EA0174001838000000000000
B0524213235634S11650166EA0172801823000000000000
B0524253235726S11650136EA0171501813000000000000
B0524293235817S11650104EA0171301818000000000000
B0524333235902S11650072EA0171501813000000000000
B0524373235986S11650041EA0170501802000000000000
B0524413236072S11650007EA0169501794000000000000
B0524453236155S11649970EA0169501798000000000000
B0524493236231S11649935EA0170301804000000000000
B0524533236305S11649901EA0169601787000000000000
B0524573236383S11649863EA0167501765000000000000
B0525013236463S11649827EA0165801749000000000000
B0525053236545S11649790EA0164201733000000000000
B0525093236628S11649754EA0162801719000000000000
B0525133236709S11649715EA0162001715000000000000
B0525173236788S11649672EA0161001701000000000000
B0525213236869S11649630EA0160701701000000000000
B0525253236946S11649586EA0161201709000000000000
B0525293237021S11649561EA0162401723000000000000
B0525333237085S11649582EA0163201729000000000000
B0525373237126S11649632EA0163501728000000000000
B0525413237159S11649691EA0162601714000000000000
B0525453237210S11649740EA0160601683000000000000
B0525493237289S11649755EA0157301655000000000000
B0525533237373S11649747EA0155801649000000000000
B0525573237458S11649732EA0155001637000000000000
B0526013237541S11649710EA0153801629000000000000
B0526053237623S11649685EA0152701612000000000000
B0526093237706S11649656EA0151401598000000000000
B0526133237791S11649628EA0150201586000000000000
B0526173237873S11649600EA0149201576000000000000
B0526213237953S11649569EA0148401571000000000000
B0526253238029S11649535EA0148001563000000000000
B0526293238107S11649499EA0146601548000000000000
B0526333238185S11649464EA0146401550000000000000
B0526373238246S11649411EA0148401575000000000000
B0526413238242S11649331EA0150501596000000000000
B0526453238198S11649279EA0152001607000000000000
B0526493238136S11649290EA0152701616000000015000
B0526533238114S11649350EA0153401621000000015000
B0526573238146S11649398EA0153801625000000015000
B0527013238199S11649404EA0154301629000000000000
B0527053238248S11649374EA0154601633000000000000
B0527093238274S11649304EA0155001638000000015000
B0527133238272S11649225EA0155501642000000000000
B0527173238242S11649153EA0156401653000000000000
B0527213238181S11649162EA0156901655000000000000
B0527253238166S11649230EA0157301667000000015000
B0527293238211S11649265EA0158701687000000015000
B0527333238251S11649221EA0160101696000000015000
B0527373238240S11649147EA0160701702000000015000
B0527413238187S11649100EA0161601712000000015000
B0527453238130S11649121EA0162301718000000015000
B0527493238122S11649183EA0163801740000000015000
B0527533238166S11649210EA0165001747000000015000
B0527573238212S11649170EA0165601751000000015000
B0528013238211S11649096EA0166101755000000015000
B0528053238159S11649051EA0166301759000000015000
B0528093238097S11649064EA0166701764000000015000
B0528133238070S11649126EA0167101765000000015000
B0528173238083S11649195EA0167301770000000015000
B0528213238139S11649217EA0168001782000000015000
B0528253238195S11649182EA0168901789000000015000
B0528293238213S11649105EA0169401794000000015000
B0528333238164S11649049EA0169901800000000015000
B0528373238103S11649064EA0170801808000000015000
B0528413238073S11649123EA0171301812000000015000
B0528453238083S11649190EA0171601816000000015000
B0528493238138S11649204EA0171901817000000015000
B0528533238194S11649155EA0171301807000000015000
B0528573238260S11649101EA0169701791000000015000
B0529013238338S11649053EA0168401779000000015000
B0529053238422S11649012EA0169001799000000015000
B0529093238471S11648937EA0171601829000000015000
B0529133238448S11648859EA0173701841000000015000
B0529173238386S11648840EA0174101838000000015000
B0529213238333S11648883EA0173401834000000015000
B0529253238300S11648949EA0173701842000000015000
B0529293238283S11649023EA0174601851000000000000
B0529333238309S11649080EA0175701861000000000000
B0529373238372S11649092EA0175101849000000000000
B0529413238443S11649073EA0174101841000000000000
B0529453238517S11649043EA0173601837000000000000
B0529493238590S11649008EA0174401856000000000000
B0529533238628S11648939EA0176801882000000000000
B0529573238580S11648882EA0178701894000000015000
B0530013238526S11648909EA0179701906000000015000
B0530053238529S11648970EA0180301909000000015000
B0530093238576S11649001EA0180801920000000015000
B0530133238632S11648991EA0182001932000000015000
B0530173238654S11648927EA0183101943000000015000
B0530213238614S11648875EA0183501942000000015000
B0530253238555S11648887EA0183701944000000015000
B0530293238525S11648944EA0184601956000000015000
B0530333238552S11648992EA0185801978000000015000
B0530373238601S11648974EA0187401983000000015000
B0530413238607S11648900EA0188001989000000015000
B0530453238556S11648858EA0188801999000000015000
B0530493238502S11648880EA0189502008000000015000
B0530533238489S11648940EA0190602021000000015000
B0530573238521S11648988EA0192002039000000015000
B0531013238573S11648979EA0193202047000000015000
B0531053238597S11648911EA0194202061000000015000
B0531093238568S11648845EA0195202069000000015000
B0531133238510S11648830EA0195902079000000015000
B0531173238465S11648870EA0197002088000000015000
B0531213238473S11648930EA0197902100000000015000
B0531253238523S11648949EA0199202113000000015000
B0531293238565S11648905EA0200202120000000015000
B0531333238567S11648828EA0201102133000000015000
B0531373238517S11648787EA0202002139000000015000
B0531413238467S11648818EA0202302143000000015000
B0531453238458S11648883EA0203002152000000015000
B0531493238498S11648930EA0203802165000000015000
B0531533238550S11648904EA0205202179000000015000
B0531573238546S11648824EA0206202188000000015000
B0532013238490S11648781EA0207302199000000015000
B0532053238434S11648804EA0208402210000000015000
B0532093238413S11648863EA0209202219000000015000
B0532133238446S11648909EA0210302233000000015000
B0532173238498S11648897EA0211502239000000015000
B0532213238516S11648828EA0212302249000000015000
B0532253238474S11648767EA0213302256000000015000
B0532293238412S11648767EA0213902266000000015000
B0532333238381S11648824EA0214602273000000015000
B0532373238406S11648879EA0215502282000000015000
B0532413238460S11648882EA0216002291000000015000
B0532453238498S11648826EA0217102304000000015000
B0532493238482S11648753EA0218302316000000015000
B0532533238428S11648714EA0219102321000000015000
B0532573238372S11648745EA0219002319000000015000
B0533013238355S11648813EA0219402328000000015000
B0533053238393S11648858EA0220402335000000015000
B0533093238448S11648843EA0220802341000000015000
B0533133238477S11648778EA0221902356000000015000
B0533173238442S11648713EA0223102364000000015000
B0533213238377S11648711EA0223502365000000015000
B0533253238338S11648770EA0223602366000000015000
B0533293238350S11648836EA0224102376000000015000
B0533333238390S11648882EA0224702378000000015000
B0533373238448S11648888EA0224602375000000015000
B0533413238517S11648871EA0224402383000000000000
B0533453238586S11648866EA0225702396000000000000
B0533493238651S11648850EA0225802386000000000000
B0533533238721S11648823EA0223302354000000000000
B0533573238799S11648787EA0220702326000000000000
B0534013238883S11648742EA0218202302000000000000
B0534053238966S11648693EA0217102299000000000000
B0534093239037S11648648EA0218202314000000000000
B0534133239101S11648601EA0218402310000000000000
B0534173239167S11648557EA0217202290000000000000
B0534213239243S11648510EA0215702273000000000000
B0534253239321S11648462EA0214702271000000000000
B0534293239396S11648416EA0214702269000000000000
B0534333239470S11648369EA0214202263000000000000
B0534373239547S11648317EA0213302252000000000000
B0534413239626S11648272EA0212502249000000000000
B0534453239708S11648237EA0213102259000000000000
B0534493239790S11648207EA0214702276000000000000
B0534533239868S11648185EA0215602283000000000000
B0534573239943S11648160EA0216102287000000000000
B0535013240021S11648133EA0214902268000000000000
B0535053240103S11648104EA0214002261000000000000
B0535093240184S11648074EA0213702261000000000000
B0535133240265S11648044EA0213402257000000000000
B0535173240343S11648014EA0213702263000000000000
B0535213240419S11647986EA0213302254000000000000
B0535253240496S11647951EA0212702251000000000000
B0535293240573S11647916EA0212302246000000000000
B0535333240649S11647878EA0211802242000000000000
B0535373240725S11647842EA0211502237000000000000
B0535413240799S11647804EA0210702230000000000000
B0535453240873S11647766EA0210102219000000000000
B0535493240948S11647726EA0209102210000000000000
B0535533241025S11647684EA0208502201000000000000
B0535573241103S11647647EA0207302188000000000000
B0536013241185S11647617EA0206102174000000000000
B0536053241269S11647587EA0204802157000000000000
B0536093241355S11647557EA0203402147000000000000
B0536133241440S11647527EA0202502139000000000000
B0536173241524S11647497EA0201802132000000000000
B0536213241606S11647466EA0201102123000000000000
B0536253241689S11647435EA0200002111000000000000
B0536293241774S11647401EA0198402093000000000000
B0536333241861S11647366EA0196502076000000000000
B0536373241945S11647332EA0195702070000000000000
B0536413242023S11647301EA0195302063000000000000
B0536453242098S11647268EA0194802060000000000000
B0536493242166S11647236EA0194002040000000000000
B0536533242241S11647199EA0191502015000000000000
B0536573242322S11647162EA0189702000000000000000
B0537013242403S11647119EA0189202004000000000000
B0537053242478S11647099EA0190202017000000000000
B0537093242546S11647103EA0190902018000000000000
B0537133242611S11647112EA0190502015000000000000
B0537173242673S11647123EA0190402012000000000000
B0537213242737S11647136EA0189201991000000000000
B0537253242814S11647141EA0186901971000000000000
B0537293242898S11647141EA0185601958000000000000
B0537333242988S11647136EA0184601952000000000000
B0537373243076S11647127EA0184301954000000000000
B0537413243162S11647124EA0184701958000000000000
B0537453243243S11647124EA0184801953000000000000
B0537493243325S11647115EA0184201950000000000000
B0537533243404S11647111EA0184501956000000000000
B0537573243477S11647116EA0185001959000000000000
B0538013243542S11647130EA0185001959000000000000
B0538053243599S11647160EA0184901953000000000000
B0538093243663S11647185EA0183201929000000000000
B0538133243738S11647193EA0181701925000000000000
B0538173243811S11647192EA0181901924000000000000
B0538213243885S11647186EA0180901908000000000000
B0538253243966S11647173EA0178701886000000000000
B0538293244049S11647151EA0178201889000000000000
B0538333244131S11647129EA0178101883000000000000
B0538373244210S11647103EA0177901886000000000000
B0538413244285S11647082EA0178501891000000000000
B0538453244360S11647064EA0179401909000000000000
B0538493244421S11647084EA0181801932000000000000
B0538533244456S11647137EA0183401945000000000000
B0538573244492S11647189EA0184601956000000000000
B0539013244547S11647158EA0186001975000000000000
B0539053244544S11647076EA0187301987000000000000
B0539093244486S11647037EA0188702002000000000000
B0539133244444S11647076EA0190402020000000000000
B0539173244457S11647133EA0191602027000000000000
B0539213244514S11647141EA0192402043000000000000
B0539253244555S11647081EA0193902060000000000000
B0539293244544S11647007EA0195302072000000015000
B0539333244495S11646960EA0196202081000000015000
B0539373244440S11646973EA0197102087000000015000
B0539413244418S11647030EA0197402092000000015000
B0539453244427S11647091EA0198702109000000000000
B0539493244475S11647115EA0200102122000000000000
B0539533244514S11647063EA0201602139000000000000
B0539573244492S11646994EA0203102152000000015000
B0540013244435S11646986EA0204402165000000015000
B0540053244405S11647036EA0205302178000000000000
B0540093244425S11647089EA0206902192000000000000
B0540133244477S11647093EA0208202207000000000000
B0540173244514S11647037EA0209302221000000000000
B0540213244503S11646961EA0210602230000000015000
B0540253244445S11646938EA0211702244000000015000
B0540293244406S11646984EA0212902255000000015000
B0540333244418S11647042EA0214102268000000015000
B0540373244471S11647063EA0215002279000000000000
B0540413244526S11647030EA0215902294000000015000
B0540453244553S11646961EA0217602309000000015000
B0540493244538S11646887EA0218702323000000015000
B0540533244491S11646838EA0219702329000000015000
B0540573244434S11646839EA0220602336000000015000
B0541013244396S11646882EA0221502347000000015000
B0541053244387S11646942EA0222202355000000000000
B0541093244422S11646985EA0222902364000000000000
B0541133244477S11646961EA0224002377000000000000
B0541173244496S11646890EA0225002389000000000000
B0541213244467S11646824EA0226202400000000015000
B0541253244414S11646798EA0227102405000000015000
B0541293244363S11646821EA0227602412000000015000
B0541333244340S11646880EA0228502424000000000000
B0541373244365S11646934EA0229602432000000000000
B0541413244421S11646933EA0230302441000000000000
B0541453244457S11646872EA0230702444000000000000
B0541493244447S11646791EA0231402453000000015000
B0541533244392S11646752EA0231802456000000015000
B0541573244337S11646774EA0232802471000000015000
B0542013244319S11646831EA0233802476000000015000
B0542053244344S11646887EA0234002477000000015000
B0542093244402S11646907EA0233902477000000000000
B0542133244470S11646890EA0234002480000000000000
B0542173244538S11646857EA0234402485000000000000
B0542213244609S11646816EA0234302481000000000000
B0542253244683S11646770EA0234102482000000000000
B0542293244761S11646721EA0234002477000000000000
B0542333244846S11646670EA0233302471000000000000
B0542373244932S11646620EA0233002467000000000000
B0542413245019S11646571EA0232202457000000000000
B0542453245104S11646523EA0231302449000000000000
B0542493245188S11646478EA0231202449000000000000
B0542533245272S11646438EA0230502436000000000000
B0542573245361S11646404EA0228602418000000000000
B0543013245452S11646371EA0227402406000000000000
B0543053245541S11646337EA0227302413000000000000
B0543093245628S11646305EA0227902414000000000000
B0543133245714S11646271EA0227702413000000000000
B0543173245797S11646240EA0227302406000000000000
B0543213245881S11646205EA0226502395000000000000
B0543253245966S11646167EA0225002381000000000000
B0543293246052S11646131EA0224302375000000000000
B0543333246139S11646096EA0223702370000000000000
B0543373246224S11646061EA0223202365000000000000
B0543413246310S11646028EA0222502354000000000000
B0543453246397S11645997EA0221302340000000000000
B0543493246485S11645964EA0220102325000000000000
B0543533246576S11645937EA0218702313000000000000
B0543573246666S11645911EA0218102310000000000000
B0544013246755S11645886EA0217302298000000000000
B0544053246845S11645862EA0216102287000000000000
B0544093246934S11645838EA0215502281000000000000
B0544133247019S11645814EA0214902274000000000000
B0544173247105S11645788EA0214202264000000000000
B0544213247191S11645762EA0213402260000000000000
B0544253247274S11645736EA0213802264000000000000
B0544293247359S11645707EA0213202253000000000000
B0544333247444S11645677EA0212302247000000000000
B0544373247530S11645648EA0211602241000000000000
B0544413247617S11645620EA0210902233000000000000
B0544453247704S11645587EA0210302229000000000000
B0544493247789S11645555EA0210002224000000000000
B0544533247871S11645521EA0210402237000000000000
B0544573247949S11645490EA0211002232000000000000
B0545013248028S11645453EA0209902220000000000000
B0545053248110S11645416EA0209302216000000000000
B0545093248191S11645378EA0209302218000000000000
B0545133248270S11645342EA0209102216000000000000
B0545173248349S11645305EA0208502205000000000000
B0545213248429S11645269EA0207202194000000000000
B0545253248507S11645235EA0207402198000000000000
B0545293248583S11645201EA0206802182000000000000
B0545333248663S11645165EA0205102167000000000000
B0545373248743S11645132EA0203602154000000000000
B0545413248826S11645100EA0202402133000000000000
B0545453248912S11645071EA0200302114000000000000
B0545493249001S11645045EA0198702098000000000000
B0545533249088S11645019EA0197802095000000000000
B0545573249173S11644995EA0197202086000000000000
B0546013249259S11644967EA0196302080000000000000
B0546053249344S11644937EA0196602086000000000000
B0546093249426S11644906EA0196802083000000000000
B0546133249509S11644875EA0196302077000000000000
B0546173249592S11644842EA0195602066000000000000
B0546213249679S11644803EA0194402052000000000000
B0546253249766S11644764EA0194102058000000000000
B0546293249855S11644753EA0194502060000000000000
B0546333249940S11644757EA0194602065000000000000
B0546373250013S11644793EA0196602101000000000000
B0546413250026S11644866EA0199902130000000000000
B0546453249968S11644881EA0202002147000000000000
B0546493249929S11644818EA0203102154000000000000
B0546533249952S11644746EA0204202171000000015000
B0546573250004S11644759EA0206402194000000015000
B0547013249994S11644820EA0207702199000000015000
B0547053249929S11644820EA0208102210000000015000
B0547093249891S11644755EA0209202223000000015000
B0547133249903S11644679EA0210502237000000015000
B0547173249953S11644646EA0212002255000000015000
B0547213249992S11644681EA0214202278000000015000
B0547253249974S11644741EA0215702286000000015000
B0547293249912S11644754EA0216202294000000015000
B0547333249861S11644702EA0217002308000000015000
B0547373249866S11644623EA0218102318000000015000
B0547413249920S11644588EA0219102332000000015000
B0547453249965S11644621EA0220602346000000015000
B0547493249952S11644688EA0221602352000000015000
B0547533249886S11644703EA0222502368000000015000
B0547573249831S11644649EA0223602379000000015000
B0548013249830S11644564EA0224802393000000015000
B0548053249879S11644517EA0226002405000000015000
B0548093249920S11644551EA0227102412000000015000
B0548133249896S11644618EA0227402416000000015000
B0548173249829S11644642EA0228802433000000015000
B0548213249765S11644603EA0229602441000000015000
B0548253249742S11644517EA0230102438000000015000
B0548293249760S11644430EA0229902439000000015000
B0548333249797S11644352EA0230402445000000015000
B0548373249851S11644298EA0230602444000000015000
B0548413249920S11644278EA0230002439000000015000
B0548453249992S11644269EA0229402434000000015000
B0548493250070S11644247EA0229802444000000000000
B0548533250146S11644208EA0231702465000000000000
B0548573250211S11644225EA0233902490000000000000
B0549013250215S11644287EA0235602503000000000000
B0549053250152S11644304EA0236602516000000000000
B0549093250099S11644248EA0237902534000000015000
B0549133250102S11644165EA0239902552000000015000
B0549173250152S11644112EA0241202563000000015000
B0549213250213S11644125EA0242302572000000015000
B0549253250238S11644185EA0242702576000000015000
B0549293250204S11644244EA0243802595000000015000
B0549333250145S11644260EA0245702614000000015000
B0549373250085S11644221EA0247102625000000015000
B0549413250063S11644139EA0248002635000000015000
B0549453250096S11644065EA0249002647000000015000
B0549493250158S11644049EA0250302661000000015000
B0549533250197S11644096EA0251202665000000015000
B0549573250184S11644164EA0252002678000000015000
B0550013250126S11644194EA0253602699000000015000
B0550053250067S11644157EA0255302713000000015000
B0550093250041S11644078EA0256502721000000015000
B0550133250060S11643996EA0257502732000000015000
B0550173250116S11643958EA0258902749000000015000
B0550213250164S11643982EA0260102759000000015000
B0550253250177S11644038EA0260602762000000015000
B0550293250141S11644092EA0260902767000000015000
B0550333250073S11644108EA0261902785000000015000
B0550373250024S11644051EA0264002805000000015000
B0550413250039S11643974EA0265502817000000015000
B0550453250094S11643958EA0266402827000000015000
B0550493250125S11644007EA0267602840000000015000
B0550533250096S11644061EA0268802853000000015000
B0550573250034S11644068EA0270202866000000015000
B0551013249977S11644018EA0271202875000000015000
B0551053249955S11643936EA0272002889000000015000
B0551093249979S11643860EA0273402901000000015000
B0551133250035S11643825EA0274002903000000015000
B0551173250091S11643852EA0274302908000000015000
B0551213250111S11643914EA0275102917000000015000
B0551253250074S11643970EA0276302930000000015000
B0551293250007S11643968EA0277302941000000015000
B0551333249959S11643899EA0278202950000000015000
B0551373249969S11643812EA0279102961000000015000
B0551413250024S11643770EA0279502967000000015000
B0551453250073S11643801EA0280002968000000015000
B0551493250073S11643871EA0280202971000000015000
B0551533250020S11643926EA0280502974000000015000
B0551573249940S11643927EA0281202985000000015000
B0552013249872S11643873EA0282402997000000015000
B0552053249827S11643792EA0283903009000000015000
B0552093249840S11643708EA0285703030000000015000
B0552133249891S11643670EA0287503047000000015000
B0552173249939S11643691EA0287903050000000015000
B0552213249948S11643750EA0288203054000000015000
B0552253249900S11643799EA0288503056000000015000
B0552293249825S11643796EA0288903063000000015000
B0552333249753S11643752EA0289803072000000015000
B0552373249705S11643678EA0291003084000000015000
B0552413249704S11643592EA0291803088000000015000
B0552453249748S11643520EA0291603085000000015000
B0552493249813S11643472EA0291603087000000015000
B0552533249885S11643436EA0291703089000000000000
B0552573249957S11643403EA0291303072000000000000
B0553013250039S11643367EA0289203055000000000000
B0553053250128S11643331EA0287903041000000000000
B0553093250220S11643297EA0287003035000000000000
B0553133250314S11643264EA0286103025000000000000
B0553173250408S11643232EA0285903028000000000000
B0553213250499S11643198EA0286103032000000000000
B0553253250585S11643165EA0287603052000000000000
B0553293250667S11643132EA0287703040000000000000
B0553333250753S11643094EA0286803034000000000000
B0553373250841S11643058EA0286003019000000000000
B0553413250932S11643022EA0284703013000000000000
B0553453251023S11642993EA0284103004000000000000
B0553493251114S11642965EA0283703007000000000000
B0553533251200S11642939EA0284503009000000000000
B0553573251289S11642915EA0283102990000000000000
B0554013251378S11642891EA0281902982000000000000
B0554053251468S11642868EA0281002974000000000000
B0554093251556S11642844EA0279902953000000000000
B0554133251645S11642821EA0277902930000000000000
B0554173251734S11642798EA0276102916000000000000
B0554213251822S11642777EA0275302910000000000000
B0554253251910S11642756EA0274302899000000000000
B0554293251997S11642734EA0273602891000000000000
B0554333252085S11642713EA0272602883000000000000
B0554373252174S11642692EA0272002875000000000000
B0554413252265S11642671EA0270602861000000000000
B0554453252358S11642649EA0269802851000000000000
B0554493252453S11642625EA0269302849000000000000
B0554533252546S11642599EA0269102849000000000000
B0554573252635S11642574EA0269802862000000000000
B0555013252719S11642554EA0270102854000000000000
B0555053252806S11642534EA0269202845000000000000
B0555093252891S11642512EA0268902846000000000000
B0555133252976S11642488EA0268502840000000000000
B0555173253059S11642462EA0268602846000000000000
B0555213253140S11642435EA0268802843000000000000
B0555253253224S11642404EA0267902830000000000000
B0555293253310S11642374EA0266802823000000000000
B0555333253396S11642343EA0266002815000000000000
B0555373253482S11642314EA0265202802000000000000
B0555413253570S11642287EA0263602786000000000000
B0555453253661S11642257EA0262402772000000000000
B0555493253752S11642227EA0261702771000000000000
B0555533253840S11642196EA0262102775000000000000
B0555573253926S11642164EA0262102773000000000000
B0556013254009S11642133EA0261502765000000000000
B0556053254095S11642105EA0261002761000000000000
B0556093254181S11642075EA0261102768000000000000
B0556133254264S11642045EA0261202764000000000000
B0556173254349S11642016EA0260902761000000000000
B0556213254433S11641985EA0260202749000000000000
B0556253254519S11641958EA0259002740000000000000
B0556293254605S11641933EA0258602741000000000000
B0556333254685S11641907EA0259702753000000000000
B0556373254765S11641881EA0260202755000000000000
B0556413254841S11641855EA0260402758000000000000
B0556453254914S11641834EA0261002763000000000000
B0556493254988S11641834EA0260402753000000000000
B0556533255068S11641828EA0258602724000000000000
B0556573255152S11641815EA0256702711000000000000
B0557013255238S11641797EA0255702700000000000000
B0557053255325S11641773EA0254402687000000000000
B0557093255412S11641751EA0253102675000000000000
B0557133255499S11641726EA0252202666000000000000
B0557173255586S11641702EA0251402660000000000000
B0557213255671S11641676EA0250602653000000000000
B0557253255755S11641646EA0249602640000000000000
B0557293255842S11641615EA0248602631000000000000
B0557333255930S11641581EA0247902623000000000000
B0557373256014S11641547EA0247702623000000000000
B0557413256099S11641514EA0247002613000000000000
B0557453256186S11641482EA0245602594000000000000
B0557493256277S11641448EA0244302586000000000000
B0557533256364S11641416EA0244202591000000000000
B0557573256446S11641384EA0244802594000000000000
B0558013256528S11641355EA0244502588000000000000
B0558053256609S11641323EA0244002587000000000000
B0558093256690S11641291EA0244202593000000000000
B0558133256765S11641260EA0244902596000000000000
B0558173256843S11641228EA0244202581000000000000
B0558213256928S11641195EA0242302560000000000000
B0558253257014S11641157EA0241002552000000000000
B0558293257098S11641119EA0239602530000000000000
B0558333257188S11641079EA0237302508000000000000
B0558373257279S11641040EA0235602493000000000000
B0558413257370S11641000EA0234602485000000000000
B0558453257458S11640962EA0234202482000000000000
B0558493257544S11640926EA0233502472000000000000
B0558533257626S11640887EA0232802464000000000000
B0558573257709S11640851EA0232102458000000000000
B0559013257798S11640818EA0231002441000000000000
B0559053257890S11640783EA0229702430000000000000
B0559093257984S11640747EA0229102429000000000000
B0559133258075S11640714EA0229402432000000000000
B0559173258164S11640679EA0229302431000000000000
B0559213258255S11640643EA0229002429000000000000
B0559253258344S11640611EA0230102450000000000000
B0559293258420S11640585EA0233002481000000000000
B0559333258488S11640591EA0235002496000000000000
B0559373258540S11640632EA0236402509000000000000
B0559413258561S11640697EA0237102508000000000000
B0559453258528S11640762EA0236302497000000000000
B0559493258452S11640779EA0234602477000000000000
B0559533258377S11640727EA0232902464000000000000
B0559573258332S11640640EA0232102457000000015000
B0600013258303S11640542EA0232002460000000015000
B0600053258290S11640446EA0232802474000000000000
B0600093258293S11640354EA0234302495000000000000
B0600133258281S11640268EA0236602518000000000000
B0600173258218S11640255EA0239102545000000015000
B0600213258198S11640315EA0241302565000000015000
B0600253258234S11640351EA0243302581000000015000
B0600293258280S11640320EA0244802593000000015000
B0600333258284S11640242EA0246502615000000015000
B0600373258240S11640182EA0248502639000000015000
B0600413258179S11640179EA0250902666000000015000
B0600453258141S11640226EA0253002683000000015000
B0600493258156S11640277EA0254502698000000015000
B0600533258205S11640257EA0255602711000000015000
B0600573258220S11640185EA0257102731000000015000
B0601013258180S11640121EA0259902754000000015000
B0601053258117S11640121EA0261302770000000030000
B0601093258078S11640173EA0262502784000000015000
B0601133258081S11640233EA0264102803000000015000
B0601173258120S11640263EA0265202807000000015000
B0601213258172S11640238EA0264902808000000015000
B0601253258216S11640177EA0265702819000000015000
B0601293258220S11640094EA0267402837000000000000
B0601333258164S11640042EA0268802857000000015000
B0601373258106S11640068EA0270402874000000015000
B0601413258095S11640130EA0272302893000000015000
B0601453258132S11640165EA0273802902000000015000
B0601493258182S11640136EA0274402906000000015000
B0601533258202S11640055EA0274902914000000015000
B0601573258176S11639967EA0276002925000000015000
B0602013258103S11639932EA0276602925000000015000
B0602053258036S11639974EA0276702931000000015000
B0602093258034S11640045EA0278002958000000015000
B0602133258086S11640048EA0280302980000000015000
B0602173258108S11639978EA0281702987000000015000
B0602213258076S11639904EA0282402997000000015000
B0602253258010S11639875EA0283202998000000015000
B0602293257950S11639910EA0283002999000000015000
B0602333257925S11639977EA0283703012000000015000
B0602373257935S11640042EA0285003021000000015000
B0602413257972S11640084EA0286003032000000015000
B0602453258028S11640078EA0286203027000000015000
B0602493258091S11640056EA0284403004000000000000
B0602533258172S11640025EA0282202985000000000000
B0602573258260S11639990EA0281502982000000000000
B0603013258350S11639954EA0281202976000000000000
B0603053258442S11639921EA0280702974000000000000
B0603093258532S11639889EA0281402990000000000000
B0603133258618S11639858EA0281902980000000000000
B0603173258705S11639827EA0280802971000000000000
B0603213258792S11639804EA0280402968000000000000
B0603253258879S11639783EA0280002966000000000000
B0603293258968S11639762EA0279402957000000000000
B0603333259059S11639739EA0278102944000000000000
B0603373259152S11639715EA0276402924000000000000
B0603413259246S11639691EA0275302910000000000000
B0603453259338S11639668EA0273802898000000000000
B0603493259428S11639646EA0273202890000000000000
B0603533259516S11639627EA0272302880000000000000
B0603573259603S11639610EA0271902880000000000000
B0604013259685S11639596EA0272102881000000000000
B0604053259763S11639583EA0271602873000000000000
B0604093259846S11639571EA0270102856000000000000
B0604133259934S11639558EA0268202836000000000000
B0604173300023S11639544EA0266902819000000000000
B0604213300112S11639531EA0266102816000000000000
B0604253300196S11639515EA0266002814000000000000
B0604293300283S11639503EA0265202805000000000000
B0604333300372S11639489EA0264302797000000000000
B0604373300459S11639472EA0263902795000000000000
B0604413300545S11639454EA0263202782000000000000
B0604453300634S11639431EA0262002774000000000000
B0604493300719S11639406EA0262702785000000000000
B0604533300801S11639384EA0262102758000000000000
B0604573300892S11639358EA0260102756000000000000
B0605013300981S11639332EA0260302758000000000000
B0605053301070S11639304EA0260302760000000000000
B0605093301152S11639276EA0260502763000000000000
B0605133301232S11639249EA0260502763000000000000
B0605173301309S11639219EA0260802765000000000000
B0605213301387S11639187EA0260102755000000000000
B0605253301469S11639148EA0258502736000000000000
B0605293301556S11639107EA0257302722000000000000
B0605333301647S11639069EA0256002708000000000000
B0605373301737S11639033EA0255102705000000000000
B0605413301821S11639003EA0256002719000000000000
B0605453301899S11638974EA0257902744000000000000
B0605493301971S11638961EA0260402766000000000000
B0605533302036S11638982EA0261802776000000000000
B0605573302089S11639034EA0261802771000000000000
B0606013302141S11639094EA0260702761000000000000
B0606053302192S11639159EA0259802749000000000000
B0606093302248S11639226EA0259002737000000000000
B0606133302318S11639281EA0257702725000000000000
B0606173302396S11639321EA0256802719000000000000
B0606213302478S11639349EA0256602721000000000000
B0606253302554S11639373EA0257002727000000000000
B0606293302626S11639403EA0257302725000000000000
B0606333302700S11639433EA0256702716000000000000
B0606373302779S11639467EA0255602706000000000000
B0606413302861S11639503EA0255002702000000000000
B0606453302946S11639544EA0254602698000000000000
B0606493303028S11639587EA0254502696000000000000
B0606533303113S11639614EA0253802683000000000000
B0606573303206S11639605EA0252402674000000000000
B0607013303295S11639584EA0252102673000000000000
B0607053303381S11639557EA0251702667000000000000
B0607093303468S11639528EA0250902657000000000000
B0607133303554S11639494EA0249802646000000000000
B0607173303641S11639460EA0248602634000000000000
B0607213303727S11639427EA0248302634000000000000
B0607253303809S11639397EA0248402628000000000000
B0607293303892S11639364EA0247202614000000000000
B0607333303978S11639329EA0246702614000000000000
B0607373304060S11639294EA0246602612000000000000
B0607413304142S11639256EA0246502612000000000000
B0607453304222S11639215EA0246502613000000000000
B0607493304304S11639174EA0246402613000000000000
B0607533304387S11639133EA0246102607000000000000
B0607573304473S11639091EA0245902606000000000000
B0608013304559S11639052EA0245502603000000000000
B0608053304642S11639015EA0245702604000000000000
B0608093304727S11638986EA0245302597000000000000
B0608133304811S11638963EA0244302585000000000000
B0608173304900S11638938EA0242802569000000000000
B0608213304992S11638917EA0241502553000000000000
B0608253305083S11638887EA0240302543000000000000
B0608293305173S11638855EA0239402532000000000000
B0608333305267S11638838EA0238002519000000000000
B0608373305361S11638848EA0237302518000000000000
B0608413305451S11638862EA0237302516000000000000
B0608453305538S11638873EA0236702507000000000000
B0608493305628S11638877EA0235202486000000000000
B0608533305724S11638870EA0233102464000000000000
B0608573305823S11638856EA0231902457000000000000
B0609013305920S11638835EA0230902444000000000000
B0609053306019S11638809EA0229702432000000000000
B0609093306116S11638783EA0228502422000000000000
B0609133306214S11638756EA0227802414000000000000
B0609173306309S11638730EA0227302410000000000000
B0609213306402S11638710EA0226702403000000000000
B0609253306496S11638691EA0225802389000000000000
B0609293306591S11638665EA0224502378000000000000
B0609333306684S11638641EA0223902374000000000000
B0609373306778S11638623EA0223602370000000000000
B0609413306869S11638597EA0223502374000000000000
B0609453306955S11638557EA0224002379000000000000
B0609493307039S11638521EA0224102381000000000000
B0609533307119S11638509EA0225702408000000000000
B0609573307189S11638514EA0227502420000000000000
B0610013307259S11638515EA0227502415000000000000
B0610053307333S11638510EA0227402417000000000000
B0610093307407S11638501EA0227302412000000000000
B0610133307484S11638488EA0226702404000000000000
B0610173307561S11638467EA0225902393000000000000
B0610213307640S11638441EA0224702380000000000000
B0610253307722S11638431EA0223802371000000000000
B0610293307805S11638420EA0222502356000000000000
B0610333307890S11638406EA0221102342000000000000
B0610373307974S11638406EA0220802346000000000000
B0610413308055S11638418EA0221202350000000000000
B0610453308127S11638431EA0221102339000000000000
B0610493308203S11638452EA0219702323000000000000
B0610533308278S11638465EA0218902317000000000000
B0610573308351S11638474EA0218502310000000000000
B0611013308423S11638457EA0218502320000000000000
B0611053308489S11638424EA0219402328000000000000
B0611093308555S11638394EA0220002335000000000000
B0611133308621S11638384EA0220802345000000000000
B0611173308680S11638361EA0223302378000000000000
B0611213308667S11638289EA0226002402000000000000
B0611253308602S11638267EA0227302412000000015000
B0611293308545S11638307EA0228602432000000015000
B0611333308532S11638374EA0230802453000000015000
B0611373308560S11638426EA0232502470000000015000
B0611413308615S11638431EA0233602480000000015000
B0611453308650S11638375EA0235502502000000015000
B0611493308619S11638309EA0236602517000000030000
B0611533308550S11638297EA0237602526000000030000
B0611573308494S11638341EA0238802544000000030000
B0612013308489S11638407EA0240902564000000015000
B0612053308528S11638453EA0242502578000000015000
B0612093308585S11638441EA0243802588000000015000
B0612133308599S11638368EA0245002604000000030000
B0612173308534S11638335EA0246302618000000030000
B0612213308485S11638384EA0248102642000000030000
B0612253308490S11638450EA0250002655000000030000
B0612293308542S11638471EA0250602659000000015000
B0612333308586S11638414EA0251202672000000030000
B0612373308558S11638340EA0252802691000000030000
B0612413308489S11638324EA0254102701000000030000
B0612453308436S11638370EA0255502718000000030000
B0612493308436S11638435EA0257002727000000030000
B0612533308485S11638466EA0256902727000000015000
B0612573308549S11638448EA0257802740000000015000
B0613013308568S11638375EA0259502760000000030000
B0613053308517S11638324EA0261002772000000030000
B0613093308447S11638328EA0261202769000000030000
B0613133308394S11638384EA0262002785000000015000
B0613173308381S11638457EA0263302797000000015000
B0613213308417S11638505EA0264302809000000015000
B0613253308476S11638501EA0265202812000000015000
B0613293308511S11638441EA0266102828000000030000
B0613333308471S11638380EA0267802847000000030000
B0613373308404S11638391EA0268902853000000030000
B0613413308368S11638452EA0269602862000000030000
B0613453308380S11638521EA0270402872000000015000
B0613493308425S11638554EA0271402878000000015000
B0613533308485S11638539EA0271602872000000015000
B0613573308555S11638517EA0271502879000000015000
B0614013308631S11638491EA0271302871000000015000
B0614053308715S11638462EA0269902856000000015000
B0614093308803S11638428EA0269002845000000015000
B0614133308893S11638392EA0267502825000000015000
B0614173308987S11638350EA0265602804000000000000
B0614213309082S11638307EA0263402789000000000000
B0614253309175S11638266EA0263202790000000000000
B0614293309269S11638227EA0262702781000000000000
B0614333309361S11638188EA0262202781000000000000
B0614373309451S11638150EA0262402785000000000000
B0614413309539S11638115EA0262202779000000000000
B0614453309629S11638080EA0261102763000000000000
B0614493309720S11638043EA0260202755000000000000
B0614533309812S11638004EA0259702752000000000000
B0614573309906S11637968EA0259202745000000000000
B0615013309998S11637930EA0259002745000000000000
B0615053310090S11637891EA0258202734000000000000
B0615093310181S11637851EA0257202726000000000000
B0615133310270S11637811EA0256502715000000000000
B0615173310358S11637769EA0255802712000000000000
B0615213310444S11637731EA0255502703000000000000
B0615253310531S11637694EA0254202688000000000000
B0615293310618S11637655EA0253002676000000000000
B0615333310708S11637618EA0251502660000000000000
B0615373310800S11637583EA0249902642000000000000
B0615413310893S11637547EA0248702631000000000000
B0615453310986S11637509EA0247402619000000000000
B0615493311080S11637470EA0246602613000000000000
B0615533311172S11637431EA0245902601000000000000
B0615573311264S11637391EA0245302598000000000000
B0616013311355S11637351EA0244702589000000000000
B0616053311448S11637309EA0243502574000000000000
B0616093311540S11637266EA0242702570000000000000
B0616133311628S11637223EA0243202581000000000000
B0616173311714S11637185EA0244502593000000000000
B0616213311797S11637187EA0246402618000000000000
B0616253311866S11637218EA0248802641000000000000
B0616293311921S11637266EA0250202657000000000000
B0616333311960S11637326EA0250902662000000000000
B0616373311996S11637391EA0251002660000000000000
B0616413312033S11637461EA0250802663000000000000
B0616453312063S11637534EA0250902651000000000000
B0616493312109S11637595EA0248802618000000000000
B0616533312191S11637604EA0245502593000000000000
B0616573312280S11637583EA0243402575000000000000
B0617013312369S11637547EA0241702557000000000000
B0617053312462S11637501EA0240202545000000000000
B0617093312553S11637453EA0239102533000000000000
B0617133312645S11637405EA0238002522000000000000
B0617173312735S11637356EA0237602517000000000000
B0617213312824S11637305EA0236702506000000000000
B0617253312914S11637254EA0236102499000000000000
B0617293313002S11637204EA0234502479000000000000
B0617333313091S11637153EA0233002467000000000000
B0617373313174S11637102EA0231602448000000000000
B0617413313260S11637054EA0229802434000000000000
B0617453313346S11637014EA0228802426000000000000
B0617493313431S11636977EA0227602410000000000000
B0617533313515S11636938EA0227002404000000000000
B0617573313595S11636902EA0226702404000000000000
B0618013313676S11636864EA0226302397000000000000
B0618053313755S11636825EA0225302385000000000000
B0618093313838S11636789EA0224102372000000000000
B0618133313923S11636756EA0223002364000000000000
B0618173314007S11636728EA0222302356000000000000
B0618213314093S11636702EA0221202342000000000000
B0618253314180S11636675EA0220502333000000000000
B0618293314266S11636647EA0219502325000000000000
B0618333314351S11636624EA0219102321000000000000
B0618373314436S11636602EA0218402313000000000000
B0618413314523S11636574EA0217602305000000000000
B0618453314612S11636546EA0216702294000000000000
B0618493314702S11636513EA0215602282000000000000
B0618533314794S11636480EA0214302268000000000000
B0618573314886S11636450EA0213202258000000000000
B0619013314980S11636422EA0212702250000000000000
B0619053315075S11636399EA0211702238000000000000
B0619093315170S11636381EA0210602229000000000000
B0619133315266S11636363EA0210102224000000000000
B0619173315362S11636340EA0209402218000000000000
B0619213315458S11636317EA0209102216000000000000
B0619253315552S11636307EA0209802226000000000000
B0619293315630S11636334EA0211502244000000000000
B0619333315691S11636378EA0212602252000000000000
B0619373315738S11636435EA0212502243000000000000
B0619413315797S11636485EA0210102211000000000000
B0619453315877S11636515EA0207202183000000000000
B0619493315964S11636530EA0205602173000000000000
B0619533316052S11636533EA0204802162000000000000
B0619573316142S11636516EA0203102147000000000000
B0620013316233S11636494EA0201902136000000000000
B0620053316323S11636477EA0202202146000000000000
B0620093316399S11636500EA0204102169000000000000
B0620133316458S11636546EA0205602183000000000000
B0620173316497S11636606EA0206702193000000000000
B0620213316529S11636668EA0207202197000000000000
B0620253316557S11636737EA0207402200000000000000
B0620293316579S11636814EA0207302192000000000000
B0620333316602S11636893EA0206202185000000000000
B0620373316636S11636967EA0205502173000000000000
B0620413316693S11637023EA0203802156000000000000
B0620453316765S11637054EA0202602143000000000000
B0620493316843S11637059EA0201702133000000000000
B0620533316922S11637044EA0200602118000000000000
B0620573317003S11637011EA0199702113000000000000
B0621013317082S11636970EA0199302113000000000000
B0621053317160S11636925EA0199002107000000000000
B0621093317240S11636877EA0197502088000000000000
B0621133317321S11636828EA0195702072000000000000
B0621173317400S11636771EA0194002054000000000000
B0621213317478S11636712EA0192402034000000000000
B0621253317556S11636654EA0190702018000000000000
B0621293317632S11636589EA0189702006000000000000
B0621333317705S11636522EA0188601994000000000000
B0621373317773S11636451EA0187101978000000000000
B0621413317842S11636377EA0185301961000000000000
B0621453317915S11636307EA0183801946000000000000
B0621493317988S11636239EA0182401933000000000000
B0621533318062S11636175EA0181401923000000000000
B0621573318137S11636117EA0180601914000000000000
B0622013318214S11636057EA0179401896000000000000
B0622053318290S11635991EA0178101884000000000000
B0622093318365S11635928EA0177001873000000000000
B0622133318439S11635866EA0175901864000000000000
B0622173318509S11635801EA0175401854000000000000
B0622213318578S11635732EA0174001843000000000000
B0622253318643S11635659EA0173301835000000000000
B0622293318706S11635583EA0172601823000000000000
B0622333318771S11635503EA0170801804000000000000
B0622373318837S11635425EA0169401790000000000000
B0622413318902S11635347EA0168101779000000000000
B0622453318968S11635268EA0166601758000000000000
B0622493319034S11635183EA0165001748000000000000
B0622533319098S11635100EA0164201741000000000000
B0622573319164S11635018EA0162701720000000000000
B0623013319231S11634935EA0161201706000000000000
B0623053319296S11634851EA0160001691000000000000
B0623093319361S11634767EA0158701679000000000000
B0623133319423S11634683EA0157701667000000000000
B0623173319486S11634600EA0156301652000000000000
B0623213319548S11634515EA0154901640000000000000
B0623253319610S11634431EA0154001631000000000000
B0623293319670S11634349EA0153601630000000000000
B0623333319729S11634267EA0153301624000000000000
B0623373319787S11634185EA0152801619000000000000
B0623413319843S11634104EA0152401615000000000000
B0623453319898S11634020EA0151301601000000000000
B0623493319952S11633937EA0150401597000000000000
B0623533320008S11633859EA0150201593000000000000
B0623573320064S11633781EA0149701586000000000000
B0624013320116S11633700EA0148901573000000000000
B0624053320167S11633617EA0147601559000000000000
B0624093320215S11633532EA0145801544000000000000
B0624133320260S11633447EA0145101536000000000000
B0624173320306S11633362EA0144201525000000000000
B0624213320347S11633275EA0143501522000000000000
B0624253320389S11633191EA0143701524000000000000
B0624293320429S11633107EA0143501523000000000000
B0624333320468S11633024EA0143201516000000000000
B0624373320503S11632937EA0142901516000000000000
B0624413320533S11632850EA0142901515000000000000
B0624453320561S11632762EA0142601510000000000000
B0624493320580S11632667EA0142001503000000000000
B0624533320592S11632568EA0141101491000000000000
B0624573320606S11632470EA0140101481000000000000
B0625013320631S11632375EA0139101471000000000000
B0625053320662S11632283EA0138601470000000000000
B0625093320697S11632195EA0138601469000000000000
B0625133320737S11632109EA0138101461000000000000
B0625173320776S11632022EA0137201451000000000000
B0625213320812S11631933EA0136701448000000000000
B0625253320847S11631845EA0136301441000000000000
B0625293320879S11631754EA0135801440000000000000
B0625333320912S11631663EA0135701437000000000000
B0625373320943S11631572EA0134901425000000000000
B0625413320960S11631472EA0133901419000000000000
B0625453320968S11631371EA0134301425000000000000
B0625493320929S11631290EA0135401438000000000000
B0625533320852S11631303EA0136701451000000000000
B0625573320831S11631386EA0137901463000000000000
B0626013320874S11631455EA0138301462000000000000
B0626053320945S11631465EA0137901461000000000000
B0626093321005S11631411EA0138101464000000015000
B0626133321021S11631325EA0138901477000000015000
B0626173320981S11631257EA0140401495000000015000
B0626213320914S11631272EA0141501503000000015000
B0626253320895S11631347EA0142101505000000015000
B0626293320938S11631406EA0142201507000000015000
B0626333321000S11631398EA0142501512000000015000
B0626373321035S11631334EA0143301520000000015000
B0626413321010S11631263EA0144201534000000015000
B0626453320945S11631256EA0146001549000000015000
B0626493320909S11631315EA0146801559000000015000
B0626533320926S11631386EA0147301562000000015000
B0626573320979S11631419EA0147901575000000015000
B0627013321030S11631387EA0148701577000000015000
B0627053321039S11631312EA0148901582000000015000
B0627093320987S11631255EA0149901598000000015000
B0627133320919S11631270EA0151801615000000015000
B0627173320896S11631341EA0152701622000000015000
B0627213320931S11631406EA0153301628000000015000
B0627253320990S11631420EA0154101635000000015000
B0627293321042S11631376EA0154301639000000015000
B0627333321060S11631300EA0155101649000000015000
B0627373321010S11631251EA0156401662000000015000
B0627413320949S11631276EA0157601676000000015000
B0627453320926S11631348EA0158401678000000015000
B0627493320956S11631420EA0158601686000000015000
B0627533321018S11631434EA0159501697000000015000
B0627573321065S11631386EA0160601707000000015000
B0628013321068S11631308EA0161401714000000015000
B0628053321018S11631255EA0162401728000000015000
B0628093320953S11631264EA0163701740000000015000
B0628133320931S11631333EA0164801753000000015000
B0628173320974S11631382EA0165701768000000015000
B0628213321027S11631367EA0167401780000000015000
B0628253321048S11631304EA0168301788000000015000
B0628293321012S11631250EA0169101802000000015000
B0628333320952S11631259EA0170401813000000015000
B0628373320926S11631322EA0171401823000000015000
B0628413320952S11631386EA0172001829000000015000
B0628453321010S11631404EA0172901839000000015000
B0628493321056S11631356EA0173801853000000015000
B0628533321047S11631286EA0175101867000000015000
B0628573320991S11631259EA0177101893000000015000
B0629013320943S11631299EA0178701899000000015000
B0629053320942S11631376EA0179101907000000015000
B0629093320986S11631425EA0180601924000000015000
B0629133321042S11631412EA0182001936000000015000
B0629173321066S11631348EA0183001947000000015000
B0629213321036S11631282EA0184301963000000015000
B0629253320978S11631274EA0186201984000000015000
B0629293320938S11631328EA0187401997000000015000
B0629333320945S11631400EA0188602008000000015000
B0629373320999S11631436EA0189702019000000015000
B0629413321055S11631410EA0190502026000000015000
B0629453321065S11631335EA0191702040000000015000
B0629493321014S11631283EA0193002053000000015000
B0629533320949S11631299EA0194602072000000015000
B0629573320914S11631364EA0196202088000000015000
B0630013320927S11631437EA0197302100000000015000
B0630053320978S11631477EA0197902100000000015000
B0630093321043S11631472EA0197702100000000015000
B0630133321100S11631432EA0198402110000000000000
B0630173321107S11631356EA0199902129000000015000
B0630213321053S11631326EA0202102154000000015000
B0630253321010S11631368EA0204102169000000015000
B0630293321026S11631436EA0204702174000000015000
B0630333321085S11631451EA0205502183000000015000
B0630373321131S11631404EA0206602194000000015000
B0630413321129S11631326EA0207702209000000015000
B0630453321078S11631274EA0208902226000000015000
B0630493321018S11631299EA0211202256000000015000
B0630533321008S11631369EA0213502270000000015000
B0630573321052S11631417EA0214502280000000015000
B0631013321114S11631410EA0215302287000000015000
B0631053321151S11631345EA0216202297000000015000
B0631093321134S11631263EA0217502312000000015000
B0631133321072S11631228EA0219602338000000015000
B0631173321016S11631263EA0221702356000000015000
B0631213321012S11631333EA0223302379000000015000
B0631253321060S11631371EA0224502388000000015000
B0631293321117S11631343EA0225602404000000015000
B0631333321139S11631272EA0227302419000000015000
B0631373321111S11631200EA0229402440000000015000
B0631413321047S11631178EA0231002457000000015000
B0631453320996S11631224EA0232102464000000015000
B0631493321000S11631304EA0232802474000000015000
B0631533321053S11631356EA0234402492000000015000
B0631573321120S11631347EA0235702510000000015000
B0632013321153S11631281EA0237602530000000015000
B0632053321131S11631204EA0239302546000000015000
B0632093321068S11631172EA0240902563000000015000
B0632133321009S11631204EA0242702582000000015000
B0632173320992S11631274EA0244302595000000015000
B0632213321029S11631335EA0245602613000000015000
B0632253321087S11631339EA0247702632000000015000
B0632293321125S11631286EA0249102645000000015000
B0632333321109S11631215EA0250102655000000015000
B0632373321049S11631185EA0251002667000000015000
B0632413320999S11631225EA0252502685000000015000
B0632453321003S11631295EA0254002699000000015000
B0632493321055S11631329EA0255502716000000015000
B0632533321109S11631295EA0256702728000000015000
B0632573321120S11631222EA0258502745000000015000
B0633013321083S11631160EA0259302749000000015000
B0633053321018S11631139EA0259802755000000015000
B0633093320956S11631172EA0260502766000000015000
B0633133320929S11631237EA0262002785000000015000
B0633173320948S11631307EA0263402800000000015000
B0633213321001S11631345EA0265102817000000015000
B0633253321049S11631304EA0266902837000000015000
B0633293321038S11631237EA0268802853000000015000
B0633333320983S11631215EA0269902865000000015000
B0633373320934S11631250EA0271002876000000015000
B0633413320931S11631321EA0272202891000000015000
B0633453320975S11631371EA0273202903000000015000
B0633493321036S11631358EA0274502917000000015000
B0633533321066S11631293EA0276002931000000015000
B0633573321036S11631228EA0277502947000000015000
B0634013320977S11631216EA0278602953000000015000
B0634053320936S11631270EA0279102963000000015000
B0634093320955S11631342EA0280402980000000015000
B0634133321010S11631381EA0282102993000000015000
B0634173321074S11631360EA0283103005000000015000
B0634213321104S11631290EA0284103017000000015000
B0634253321083S11631220EA0285103022000000015000
B0634293321023S11631186EA0285103016000000015000
B0634333320958S11631208EA0284803018000000015000
B0634373320929S11631274EA0285603033000000015000
B0634413320927S11631351EA0286703043000000015000
B0634453320974S11631402EA0287803053000000015000
B0634493321029S11631374EA0289203065000000015000
B0634533321031S11631303EA0290203080000000015000
B0634573320986S11631261EA0291603094000000015000
B0635013320930S11631281EA0292403097000000015000
B0635053320906S11631351EA0292803105000000015000
B0635093320923S11631424EA0294103119000000015000
B0635133320981S11631459EA0295003123000000015000
B0635173321051S11631441EA0294903123000000015000
B0635213321113S11631389EA0295103128000000015000
B0635253321182S11631335EA0294203108000000000000
B0635293321264S11631283EA0292503092000000000000
B0635333321351S11631231EA0291403084000000000000
B0635373321442S11631181EA0290203072000000000000
B0635413321532S11631130EA0289703062000000000000
B0635453321624S11631082EA0288603055000000000000
B0635493321715S11631033EA0287903049000000000000
B0635533321807S11630984EA0287403045000000000000
B0635573321897S11630936EA0286803035000000000000
B0636013321989S11630886EA0285603021000000000000
B0636053322082S11630838EA0284903016000000000000
B0636093322174S11630793EA0284703015000000000000
B0636133322262S11630749EA0284103007000000000000
B0636173322349S11630705EA0282902992000000000000
B0636213322438S11630658EA0281802979000000000000
B0636253322525S11630610EA0280702969000000000000
B0636293322611S11630559EA0279302951000000000000
B0636333322699S11630507EA0277802938000000000000
B0636373322788S11630454EA0276802928000000000000
B0636413322875S11630401EA0275702918000000000000
B0636453322963S11630346EA0274502903000000000000
B0636493323051S11630289EA0273802894000000000000
B0636533323135S11630224EA0272402876000000000000
B0636573323213S11630150EA0271002867000000000000
B0637013323283S11630069EA0270502862000000000000
B0637053323352S11629987EA0269702856000000000000
B0637093323418S11629905EA0269202851000000000000
B0637133323479S11629824EA0268902850000000000000
B0637173323535S11629743EA0269202854000000000000
B0637213323594S11629664EA0268702842000000000000
B0637253323652S11629584EA0267402827000000000000
B0637293323711S11629502EA0266302824000000000000
B0637333323769S11629424EA0266202824000000000000
B0637373323825S11629348EA0265602813000000000000
B0637413323889S11629276EA0264302798000000000000
B0637453323961S11629213EA0262702783000000000000
B0637493324041S11629158EA0262002779000000000000
B0637533324123S11629106EA0261802777000000000000
B0637573324202S11629057EA0262202784000000000000
B0638013324280S11629011EA0262402782000000000000
B0638053324358S11628966EA0261502769000000000000
B0638093324441S11628923EA0260002753000000000000
B0638133324524S11628880EA0258902743000000000000
B0638173324606S11628834EA0257802730000000000000
B0638213324691S11628789EA0256402715000000000000
B0638253324775S11628745EA0255902709000000000000
B0638293324861S11628704EA0254402687000000000000
B0638333324951S11628665EA0252302664000000000000
B0638373325042S11628626EA0250902655000000000000
B0638413325131S11628587EA0250702653000000000000
B0638453325219S11628542EA0250002647000000000000
B0638493325302S11628495EA0250102656000000000000
B0638533325380S11628453EA0250702660000000000000
B0638573325455S11628416EA0250702656000000000000
B0639013325532S11628378EA0249802642000000000000
