ACAM4N6
HFDTE040222
HFFXA050
HFPLTPILOT:JOHN WELSH              
HFGTYGLIDERTYPE:HORNET      
HFGIDGLIDERID:VH-GMY      
HFDTM100GPSDATUM:
HFRFWFIRMWAREVERSION:F2.6
HFRHWHARDWAREVERSION:300 Series Version 2
HFFTYFRTYPE:CAMBRIDGE AERO INSTRUMENTS, 302+
HFGPS:GARMIN,LVS-25,12,18000
HFPRSPRESSALTSENSOR:INTERSEMA, MS5534-AP, 20000
I033638FXA3941ENL4247REX
LCAMSBVER:5FWVER:F26300
C040222043004040222000102
C0000000N00000000WTAKEOFF     
C3207549S11656849EBEVAIR      
C3349999S11709999EKojonup     
C3138466S11729382ETammin      
C3207549S11656849EBEVAIR      
C0000000N00000000WLANDING     
B0432083207731S11657094EA0024000192000000000000
B0432103207731S11657094EA0024100192000000000000
B0432123207731S11657094EA0024100192000000000000
B0432143207731S11657094EA0024000192000000000000
B0432163207731S11657094EA0024100192000000000000
B0432183207731S11657094EA0024000192000000000000
B0432203207731S11657094EA0024000192000000000000
B0432223207731S11657094EA0024000192000000000000
B0432243207731S11657094EA0024100192000000000000
B0432263207731S11657094EA0024100192000000000000
B0432283207731S11657094EA0024000192000000000000
B0432303207731S11657094EA0024000193000000000000
B0432323207731S11657094EA0024000193000000000000
B0432343207731S11657094EA0024000193000000000000
B0432363207729S11657094EA0024100193000000000000
B0432393207716S11657090EA0024000193000000000000
B0432433207685S11657077EA0024000194000000000000
B0432473207640S11657049EA0024200194000000000000
B0432513207583S11657017EA0024300196000000000000
B0432553207516S11656977EA0024500197000000000000
B0432593207445S11656936EA0025100206000000000000
B0433033207369S11656895EA0025900213000000000000
B0433073207299S11656852EA0027200232000000000000
B0433113207230S11656809EA0029000249000000000000
B0433153207170S11656765EA0030600273000000000000
B0433193207116S11656722EA0033200296000000000000
B0433233207066S11656669EA0034600313000000000000
B0433273207029S11656600EA0036200338000000000000
B0433313206999S11656524EA0039000361000000000000
B0433353206973S11656444EA0040600384000000000000
B0433393206949S11656366EA0043000413000000000000
B0433433206933S11656284EA0045300435000000000000
B0433473206920S11656197EA0046700441000000000000
B0433513206912S11656107EA0046500442000000000000
B0433553206927S11656015EA0047200455000000000000
B0433593206970S11655931EA0048200464000000000000
B0434033207031S11655866EA0049300476000000000000
B0434073207109S11655821EA0050200483000000000000
B0434113207200S11655800EA0050200481000000000000
B0434153207295S11655805EA0050400485000000000000
B0434193207381S11655835EA0051400501000000000000
B0434233207458S11655878EA0052900514000000000000
B0434273207532S11655928EA0053900525000000000000
B0434313207601S11655983EA0054500535000000000000
B0434353207662S11656048EA0055700549000000000000
B0434393207710S11656121EA0057200568000000000000
B0434433207745S11656202EA0059000585000000000000
B0434473207766S11656290EA0060300597000000000000
B0434513207778S11656376EA0061900616000000000000
B0434553207780S11656461EA0063600635000000000000
B0434593207771S11656542EA0066300663000000000000
B0435033207749S11656617EA0068600688000000000000
B0435073207726S11656688EA0071000715000000000000
B0435113207705S11656760EA0073900746000000000000
B0435153207684S11656834EA0075800774000000000000
B0435193207684S11656908EA0078200791000000000000
B0435233207741S11656949EA0079100795000000000000
B0435273207811S11656912EA0079000794000000000000
B0435313207849S11656823EA0079300798000000000000
B0435353207849S11656732EA0079500798000000000000
B0435393207807S11656674EA0079800803000000015000
B0435433207757S11656675EA0080800817000000015000
B0435473207741S11656727EA0081700821000000015000
B0435513207781S11656776EA0082400830000000015000
B0435553207849S11656769EA0082800829000000015000
B0435593207896S11656706EA0082400824000000015000
B0436033207897S11656627EA0082000818000000015000
B0436073207856S11656581EA0081600822000000015000
B0436113207814S11656604EA0082700835000000015000
B0436153207844S11656653EA0083800844000000015000
B0436193207902S11656617EA0084500851000000015000
B0436233207902S11656545EA0085100859000000015000
B0436273207857S11656542EA0086200874000000015000
B0436313207858S11656597EA0087600887000000015000
B0436353207915S11656613EA0089000902000000015000
B0436393207960S11656555EA0089600899000000015000
B0436433207943S11656489EA0089600907000000015000
B0436473207896S11656487EA0091200919000000015000
B0436513207876S11656540EA0092200924000000015000
B0436553207913S11656597EA0092800935000000015000
B0436593207979S11656600EA0093600943000000015000
B0437033208035S11656555EA0093900942000000015000
B0437073208056S11656481EA0093500939000000015000
B0437113208032S11656420EA0093700948000000015000
B0437153207988S11656402EA0095200961000000015000
B0437193207948S11656424EA0096100968000000015000
B0437233207949S11656479EA0097400982000000015000
B0437273208010S11656481EA0097600983000000015000
B0437313208025S11656410EA0098300996000000015000
B0437353207976S11656397EA0099301007000000015000
B0437393207970S11656451EA0100501017000000015000
B0437433208026S11656476EA0101401032000000015000
B0437473208077S11656436EA0102801045000000015000
B0437513208074S11656366EA0103501054000000015000
B0437553208032S11656341EA0105201069000000015000
B0437593208008S11656380EA0106301075000000015000
B0438033208036S11656432EA0106501080000000015000
B0438073208101S11656435EA0106901089000000015000
B0438113208140S11656375EA0108101107000000015000
B0438153208119S11656318EA0109801122000000015000
B0438193208083S11656334EA0110801127000000015000
B0438233208108S11656388EA0111301131000000015000
B0438273208173S11656367EA0111601141000000015000
B0438313208192S11656293EA0112701158000000015000
B0438353208155S11656250EA0114201169000000015000
B0438393208116S11656276EA0115301175000000015000
B0438433208129S11656333EA0116201183000000015000
B0438473208183S11656360EA0117101194000000015000
B0438513208244S11656334EA0117901206000000015000
B0438553208269S11656269EA0118901216000000015000
B0438593208239S11656221EA0119601224000000015000
B0439033208200S11656243EA0120001227000000015000
B0439073208222S11656299EA0120601241000000015000
B0439113208283S11656301EA0122001253000000015000
B0439153208329S11656249EA0122601253000000015000
B0439193208326S11656175EA0122601260000000015000
B0439233208287S11656129EA0123501270000000015000
B0439273208257S11656162EA0124401273000000015000
B0439313208303S11656198EA0124801282000000015000
B0439353208359S11656156EA0125901297000000015000
B0439393208357S11656084EA0126801305000000015000
B0439433208313S11656061EA0127501308000000015000
B0439473208298S11656108EA0127901311000000015000
B0439513208351S11656136EA0128301320000000015000
B0439553208404S11656094EA0129901338000000015000
B0439593208404S11656025EA0130701342000000015000
B0440033208361S11655999EA0130501339000000015000
B0440073208344S11656045EA0130801342000000015000
B0440113208392S11656078EA0131201347000000015000
B0440153208459S11656061EA0131801358000000015000
B0440193208483S11655991EA0132801368000000015000
B0440233208450S11655943EA0133701377000000015000
B0440273208417S11655969EA0133901371000000015000
B0440313208446S11656024EA0133201371000000015000
B0440353208509S11656043EA0133801378000000000000
B0440393208561S11655989EA0134301382000000015000
B0440433208539S11655920EA0134701385000000015000
B0440473208490S11655929EA0135401395000000015000
B0440513208499S11655983EA0136301406000000015000
B0440553208559S11655993EA0136601405000000015000
B0440593208604S11655928EA0136601409000000015000
B0441033208587S11655853EA0137101416000000015000
B0441073208539S11655831EA0137901416000000015000
B0441113208509S11655872EA0137701412000000015000
B0441153208538S11655921EA0137701417000000015000
B0441193208603S11655922EA0138001418000000015000
B0441233208658S11655868EA0138101423000000015000
B0441273208685S11655790EA0138701427000000015000
B0441313208659S11655722EA0138201417000000015000
B0441353208602S11655704EA0136901405000000015000
B0441393208542S11655718EA0136201391000000000000
B0441433208490S11655753EA0135501388000000000000
B0441473208443S11655799EA0135101383000000000000
B0441513208396S11655847EA0134401376000000000000
B0441553208350S11655896EA0134101374000000000000
B0441593208304S11655941EA0134601380000000000000
B0442033208256S11655981EA0134101371000000000000
B0442073208205S11656021EA0133301364000000000000
B0442113208155S11656060EA0132501354000000000000
B0442153208105S11656103EA0131501340000000000000
B0442193208060S11656150EA0130401330000000000000
B0442233208017S11656195EA0129601325000000000000
B0442273207973S11656242EA0129001317000000000000
B0442313207931S11656290EA0128301312000000000000
B0442353207892S11656340EA0128001310000000000000
B0442393207853S11656389EA0127701307000000000000
B0442433207817S11656441EA0127101301000000000000
B0442473207780S11656493EA0126501293000000000000
B0442513207749S11656549EA0125901286000000000000
B0442553207719S11656607EA0125001275000000000000
B0442593207692S11656667EA0124001265000000000000
B0443033207661S11656722EA0123401261000000000000
B0443073207619S11656765EA0122901254000000000000
B0443113207572S11656797EA0122001244000000000000
B0443153207524S11656828EA0121301240000000000000
B0443193207475S11656853EA0122401256000000000000
B0443233207427S11656873EA0123701268000000000000
B0443273207415S11656923EA0124401273000000000000
B0443313207468S11656947EA0124301265000000000000
B0443353207516S11656888EA0123201254000000000000
B0443393207494S11656812EA0122901262000000000000
B0443433207450S11656756EA0124001270000000015000
B0443473207403S11656767EA0125701277000000015000
B0443513207419S11656818EA0125101269000000015000
B0443553207481S11656822EA0124501268000000015000
B0443593207518S11656760EA0124401272000000015000
B0444033207502S11656689EA0125101281000000015000
B0444073207469S11656633EA0125301280000000000000
B0444113207427S11656591EA0124701273000000000000
B0444153207375S11656574EA0124201266000000000000
B0444193207329S11656587EA0123801261000000000000
B0444233207326S11656645EA0122701243000000000000
B0444273207375S11656701EA0120801228000000000000
B0444313207441S11656740EA0119901223000000000000
B0444353207511S11656771EA0119501217000000000000
B0444393207588S11656795EA0118001201000000000000
B0444433207672S11656812EA0116901196000000000000
B0444473207759S11656825EA0117101203000000000000
B0444513207844S11656830EA0118601219000000000000
B0444553207926S11656828EA0119101219000000000000
B0444593208012S11656826EA0118601213000000000000
B0445033208099S11656822EA0118601214000000000000
B0445073208188S11656815EA0117801200000000000000
B0445113208279S11656818EA0116401185000000000000
B0445153208370S11656830EA0114801168000000000000
B0445193208465S11656840EA0113201151000000000000
B0445233208558S11656851EA0112401144000000000000
B0445273208650S11656856EA0110801124000000000000
B0445313208745S11656864EA0109001108000000000000
B0445353208838S11656871EA0108201100000000000000
B0445393208929S11656880EA0107701094000000000000
B0445433209018S11656891EA0107001086000000000000
B0445473209107S11656903EA0106101074000000000000
B0445513209196S11656914EA0105101066000000000000
B0445553209282S11656929EA0104701064000000000000
B0445593209370S11656940EA0104201058000000000000
B0446033209461S11656951EA0103501048000000000000
B0446073209549S11656964EA0103301052000000000000
B0446113209631S11656977EA0103701053000000000000
B0446153209711S11656988EA0103201045000000000000
B0446193209791S11656999EA0102201031000000000000
B0446233209876S11657009EA0101001021000000000000
B0446273209958S11657021EA0100301016000000000000
B0446313210038S11657038EA0099801009000000000000
B0446353210120S11657056EA0098901000000000000000
B0446393210201S11657072EA0098500999000000000000
B0446433210277S11657086EA0098600998000000000000
B0446473210354S11657100EA0098300991000000000000
B0446513210431S11657117EA0097600985000000000000
B0446553210508S11657134EA0097000981000000000000
B0446593210580S11657153EA0096600973000000000000
B0447033210654S11657173EA0095900966000000000000
B0447073210730S11657194EA0094900954000000000000
B0447113210805S11657211EA0093800943000000000000
B0447153210883S11657228EA0093100937000000000000
B0447193210961S11657239EA0092400925000000000000
B0447233211041S11657242EA0091800922000000000000
B0447273211115S11657216EA0092000927000000000000
B0447313211186S11657181EA0091600918000000000000
B0447353211263S11657159EA0090100900000000000000
B0447393211345S11657164EA0088700889000000000000
B0447433211425S11657182EA0088600893000000000000
B0447473211502S11657203EA0089700904000000000000
B0447513211545S11657261EA0090600915000000000000
B0447553211512S11657300EA0091100920000000000000
B0447593211471S11657255EA0091500920000000000000
B0448033211472S11657170EA0091200916000000015000
B0448073211524S11657100EA0091400922000000015000
B0448113211601S11657073EA0091700924000000015000
B0448153211675S11657090EA0091400919000000015000
B0448193211731S11657144EA0090900916000000015000
B0448233211753S11657216EA0091200922000000015000
B0448273211757S11657287EA0091200917000000000000
B0448313211745S11657352EA0091600928000000000000
B0448353211711S11657400EA0092800939000000000000
B0448393211675S11657445EA0093600948000000000000
B0448433211688S11657504EA0094700960000000000000
B0448473211750S11657503EA0095100965000000000000
B0448513211769S11657429EA0095700977000000000000
B0448553211724S11657395EA0096900983000000015000
B0448593211698S11657441EA0097600991000000015000
B0449033211733S11657491EA0098200995000000015000
B0449073211798S11657490EA0098200996000000015000
B0449113211849S11657439EA0098701004000000015000
B0449153211845S11657373EA0099701012000000015000
B0449193211798S11657350EA0100601019000000015000
B0449233211789S11657404EA0101001022000000015000
B0449273211853S11657416EA0101201025000000015000
B0449313211867S11657339EA0102001040000000015000
B0449353211821S11657321EA0103801058000000015000
B0449393211805S11657371EA0105101068000000015000
B0449433211844S11657417EA0105401069000000015000
B0449473211908S11657412EA0105901076000000015000
B0449513211948S11657350EA0105801076000000015000
B0449553211941S11657278EA0106701086000000015000
B0449593211899S11657282EA0107701097000000015000
B0450033211926S11657334EA0109201112000000015000
B0450073211988S11657308EA0109701118000000015000
B0450113211991S11657230EA0110201126000000015000
B0450153211949S11657200EA0111301136000000015000
B0450193211930S11657242EA0112601152000000015000
B0450233211974S11657285EA0113601161000000015000
B0450273212040S11657260EA0114201175000000015000
B0450313212066S11657187EA0115701187000000015000
B0450353212035S11657134EA0115701183000000015000
B0450393211992S11657147EA0116401191000000015000
B0450433212008S11657200EA0118201210000000015000
B0450473212073S11657209EA0119501221000000015000
B0450513212117S11657144EA0120501236000000015000
B0450553212099S11657077EA0121101237000000015000
B0450593212056S11657077EA0121801251000000030000
B0451033212069S11657127EA0123101261000000015000
B0451073212136S11657121EA0124101274000000015000
B0451113212160S11657047EA0125001279000000015000
B0451153212121S11657004EA0125001283000000030000
B0451193212084S11657029EA0125401286000000015000
B0451233212091S11657087EA0125901291000000015000
B0451273212146S11657129EA0126301299000000015000
B0451313212220S11657120EA0127201313000000015000
B0451353212248S11657048EA0128801324000000015000
B0451393212209S11657010EA0128901323000000015000
B0451433212182S11657051EA0129301333000000030000
B0451473212217S11657107EA0130601344000000015000
B0451513212291S11657116EA0131301353000000015000
B0451553212344S11657057EA0132501365000000015000
B0451593212335S11656988EA0132601362000000015000
B0452033212289S11656975EA0132201357000000015000
B0452073212253S11657018EA0132501359000000015000
B0452113212248S11657082EA0133301368000000015000
B0452153212315S11657113EA0134301376000000015000
B0452193212381S11657066EA0134301375000000015000
B0452233212387S11656986EA0134601378000000015000
B0452273212338S11656955EA0134501375000000030000
B0452313212286S11656968EA0134801384000000030000
B0452353212283S11657029EA0135901399000000030000
B0452393212346S11657059EA0136401398000000015000
B0452433212420S11657023EA0135901399000000015000
B0452473212460S11656951EA0137301416000000030000
B0452513212439S11656888EA0137601412000000030000
B0452553212390S11656867EA0137501418000000030000
B0452593212360S11656905EA0138701424000000030000
B0453033212408S11656945EA0139401434000000030000
B0453073212469S11656899EA0140001437000000030000
B0453113212461S11656821EA0140001438000000030000
B0453153212411S11656809EA0140701449000000045000
B0453193212389S11656861EA0141201451000000030000
B0453233212428S11656916EA0142101461000000030000
B0453273212500S11656923EA0142201457000000030000
B0453313212573S11656890EA0141901460000000015000
B0453353212641S11656843EA0142501462000000015000
B0453393212718S11656804EA0141001442000000015000
B0453433212806S11656789EA0140101444000000015000
B0453473212893S11656788EA0139701434000000015000
B0453513212983S11656796EA0138501419000000015000
B0453553213076S11656808EA0136701398000000000000
B0453593213174S11656822EA0135101387000000000000
B0454033213269S11656841EA0134201377000000000000
B0454073213366S11656861EA0133101365000000000000
B0454113213461S11656878EA0132601361000000000000
B0454153213556S11656896EA0132201357000000000000
B0454193213648S11656916EA0131701348000000000000
B0454233213741S11656934EA0130801340000000000000
B0454273213833S11656952EA0130301337000000000000
B0454313213923S11656970EA0130001335000000000000
B0454353214012S11656988EA0129601330000000000000
B0454393214102S11657004EA0129101323000000000000
B0454433214193S11657020EA0128701319000000000000
B0454473214281S11657036EA0128901329000000000000
B0454513214366S11657051EA0129501331000000000000
B0454553214452S11657057EA0129301330000000000000
B0454593214538S11657068EA0129101324000000000000
B0455033214625S11657083EA0128501318000000000000
B0455073214712S11657101EA0127801311000000000000
B0455113214801S11657117EA0127001304000000000000
B0455153214889S11657133EA0126801301000000000000
B0455193214976S11657147EA0126601299000000000000
B0455233215061S11657161EA0126301296000000000000
B0455273215146S11657174EA0125801287000000000000
B0455313215233S11657186EA0124801279000000000000
B0455353215319S11657198EA0124401274000000000000
B0455393215403S11657212EA0123901270000000000000
B0455433215488S11657231EA0123001257000000000000
B0455473215574S11657250EA0121601244000000000000
B0455513215659S11657269EA0120701236000000000000
B0455553215745S11657289EA0120301228000000000000
B0455593215830S11657306EA0119601221000000000000
B0456033215912S11657321EA0118901214000000000000
B0456073215995S11657330EA0117901204000000000000
B0456113216079S11657342EA0117301198000000000000
B0456153216164S11657355EA0116501189000000000000
B0456193216250S11657368EA0116401193000000000000
B0456233216332S11657380EA0117601206000000000000
B0456273216404S11657411EA0118601219000000000000
B0456313216447S11657471EA0120101237000000000000
B0456353216430S11657529EA0121801254000000000000
B0456393216381S11657520EA0122901267000000000000
B0456433216373S11657450EA0124101275000000015000
B0456473216428S11657399EA0124401279000000015000
B0456513216495S11657406EA0125001284000000015000
B0456553216537S11657463EA0125601294000000015000
B0456593216534S11657528EA0126901307000000015000
B0457033216488S11657550EA0127801316000000015000
B0457073216445S11657506EA0128601324000000015000
B0457113216450S11657429EA0129301335000000015000
B0457153216501S11657373EA0129901335000000015000
B0457193216569S11657367EA0130001340000000015000
B0457233216621S11657408EA0130801351000000015000
B0457273216646S11657475EA0131801359000000015000
B0457313216612S11657523EA0132801370000000015000
B0457353216563S11657511EA0133501377000000015000
B0457393216547S11657441EA0133901380000000015000
B0457433216585S11657372EA0134301384000000015000
B0457473216651S11657343EA0134601391000000015000
B0457513216719S11657360EA0135501402000000015000
B0457553216740S11657420EA0137001420000000015000
B0457593216709S11657459EA0138101424000000015000
B0458033216660S11657439EA0138301427000000015000
B0458073216640S11657373EA0138901433000000015000
B0458113216666S11657302EA0139401439000000015000
B0458153216725S11657259EA0139901447000000015000
B0458193216792S11657269EA0141001459000000015000
B0458233216827S11657325EA0141901470000000015000
B0458273216822S11657386EA0143301482000000015000
B0458313216787S11657425EA0144101485000000015000
B0458353216738S11657421EA0144801491000000015000
B0458393216705S11657374EA0145401498000000015000
B0458433216709S11657302EA0145701499000000015000
B0458473216749S11657237EA0145901503000000015000
B0458513216815S11657208EA0146401510000000015000
B0458553216883S11657216EA0147001520000000015000
B0458593216922S11657268EA0148201530000000015000
B0459033216914S11657325EA0148801539000000015000
B0459073216872S11657352EA0149501543000000015000
B0459113216827S11657328EA0150201549000000015000
B0459153216810S11657263EA0150701552000000015000
B0459193216836S11657189EA0150801556000000015000
B0459233216894S11657139EA0151201561000000015000
B0459273216966S11657127EA0151801567000000015000
B0459313217030S11657163EA0152201570000000015000
B0459353217060S11657231EA0152301570000000015000
B0459393217041S11657298EA0152401574000000015000
B0459433216993S11657320EA0153301588000000015000
B0459473216944S11657308EA0154201592000000015000
B0459513216910S11657250EA0155001599000000015000
B0459553216915S11657172EA0155501609000000015000
B0459593216957S11657107EA0156301616000000015000
B0500033217022S11657066EA0156401614000000015000
B0500073217097S11657046EA0156401616000000015000
B0500113217175S11657034EA0156501616000000015000
B0500153217256S11657027EA0156601618000000000000
B0500193217340S11657021EA0156101607000000000000
B0500233217429S11657016EA0155101602000000000000
B0500273217518S11657009EA0155001606000000000000
B0500313217609S11657004EA0155601612000000000000
B0500353217699S11657001EA0156201616000000000000
B0500393217789S11657000EA0156101612000000000000
B0500433217877S11657004EA0156101612000000000000
B0500473217966S11657009EA0156101608000000000000
B0500513218055S11657014EA0155301602000000000000
B0500553218149S11657018EA0154401593000000000000
B0500593218244S11657025EA0153901587000000000000
B0501033218336S11657031EA0153901592000000000000
B0501073218423S11657035EA0154301596000000000000
B0501113218509S11657039EA0154201591000000000000
B0501153218594S11657046EA0153501586000000000000
B0501193218679S11657057EA0153001581000000000000
B0501233218766S11657072EA0152501576000000000000
B0501273218854S11657085EA0151901570000000000000
B0501313218938S11657099EA0151701569000000000000
B0501353219019S11657113EA0151701570000000000000
B0501393219097S11657126EA0151901571000000000000
B0501433219173S11657142EA0151701569000000000000
B0501473219250S11657157EA0151401563000000000000
B0501513219324S11657173EA0151101559000000000000
B0501553219397S11657190EA0150201547000000000000
B0501593219476S11657195EA0148901535000000000000
B0502033219558S11657177EA0147801524000000000000
B0502073219641S11657155EA0147001519000000000000
B0502113219722S11657133EA0147101518000000000000
B0502153219801S11657111EA0147101520000000000000
B0502193219878S11657086EA0147201522000000000000
B0502233219953S11657055EA0147601527000000000000
B0502273220025S11657016EA0147901528000000000000
B0502313220095S11656970EA0147701528000000000000
B0502353220165S11656929EA0148001528000000000000
B0502393220232S11656880EA0147601523000000000000
B0502433220299S11656828EA0146901512000000000000
B0502473220375S11656786EA0146001504000000000000
B0502513220454S11656754EA0145301498000000000000
B0502553220537S11656741EA0144601488000000000000
B0502593220620S11656745EA0143701481000000000000
B0503033220698S11656773EA0143401477000000000000
B0503073220768S11656813EA0142901472000000000000
B0503113220836S11656856EA0142701472000000000000
B0503153220904S11656897EA0142501464000000000000
B0503193220975S11656938EA0141701460000000000000
B0503233221034S11656992EA0141901470000000000000
B0503273221061S11657062EA0142501472000000000000
B0503313221086S11657133EA0142801473000000000000
B0503353221138S11657182EA0143201484000000000000
B0503393221199S11657213EA0144601494000000000000
B0503433221251S11657166EA0144101476000000000000
B0503473221234S11657090EA0143001475000000000000
B0503513221181S11657070EA0143401479000000015000
B0503553221144S11657114EA0143301478000000015000
B0503593221125S11657178EA0143301481000000015000
B0504033221144S11657251EA0143301476000000000000
B0504073221201S11657306EA0143201486000000000000
B0504113221266S11657335EA0145201507000000015000
B0504153221299S11657273EA0146301506000000015000
B0504193221247S11657241EA0146201513000000015000
B0504233221223S11657296EA0147301526000000015000
B0504273221269S11657345EA0148501538000000015000
B0504313221322S11657303EA0149601553000000015000
B0504353221317S11657235EA0150701565000000015000
B0504393221265S11657216EA0151001568000000015000
B0504433221233S11657268EA0151501572000000030000
B0504473221259S11657332EA0152301578000000015000
B0504513221318S11657339EA0153001588000000015000
B0504553221350S11657281EA0154301603000000015000
B0504593221326S11657231EA0155801615000000015000
B0505033221279S11657234EA0155801614000000015000
B0505073221256S11657293EA0155701622000000015000
B0505113221269S11657355EA0156501625000000015000
B0505153221312S11657399EA0157001628000000015000
B0505193221372S11657399EA0157001625000000015000
B0505233221403S11657341EA0157101629000000015000
B0505273221376S11657282EA0157901639000000015000
B0505313221324S11657267EA0159401648000000030000
B0505353221287S11657308EA0159901650000000030000
B0505393221301S11657377EA0159601648000000015000
B0505433221346S11657432EA0159401644000000015000
B0505473221407S11657476EA0158401632000000015000
B0505513221477S11657517EA0157201618000000015000
B0505553221554S11657556EA0156101603000000000000
B0505593221636S11657590EA0154701593000000000000
B0506033221717S11657616EA0154001588000000000000
B0506073221799S11657642EA0153401583000000000000
B0506113221880S11657668EA0152801574000000000000
B0506153221964S11657690EA0151401560000000000000
B0506193222049S11657718EA0150501548000000000000
B0506233222130S11657753EA0149501540000000000000
B0506273222206S11657797EA0148501531000000000000
B0506313222283S11657839EA0148701540000000000000
B0506353222360S11657872EA0149801548000000000000
B0506393222438S11657891EA0150701560000000000000
B0506433222513S11657902EA0152001573000000000000
B0506473222583S11657920EA0152101568000000000000
B0506513222653S11657952EA0151401559000000000000
B0506553222733S11657974EA0150501546000000000000
B0506593222817S11657991EA0149101533000000000000
B0507033222903S11658008EA0148001520000000000000
B0507073222990S11658026EA0146801506000000000000
B0507113223079S11658045EA0145601496000000000000
B0507153223170S11658069EA0144701489000000000000
B0507193223259S11658093EA0144701488000000000000
B0507233223350S11658115EA0144401485000000000000
B0507273223443S11658136EA0143901480000000000000
B0507313223536S11658160EA0143501476000000000000
B0507353223627S11658187EA0143501482000000000000
B0507393223710S11658216EA0144501489000000000000
B0507433223791S11658243EA0144301482000000000000
B0507473223875S11658271EA0143401470000000000000
B0507513223960S11658304EA0142301462000000000000
B0507553224043S11658339EA0141701458000000000000
B0507593224124S11658377EA0141701459000000000000
B0508033224202S11658409EA0141501455000000000000
B0508073224280S11658438EA0140901444000000000000
B0508113224363S11658469EA0139501426000000000000
B0508153224449S11658498EA0138101419000000000000
B0508193224533S11658521EA0137601409000000000000
B0508233224618S11658541EA0136301395000000000000
B0508273224706S11658563EA0134701376000000000000
B0508313224796S11658583EA0133801376000000000000
B0508353224879S11658615EA0134301378000000000000
B0508393224957S11658650EA0134301379000000000000
B0508433225032S11658681EA0134501380000000000000
B0508473225108S11658691EA0134401379000000000000
B0508513225182S11658680EA0133901370000000000000
B0508553225261S11658671EA0132501353000000000000
B0508593225343S11658672EA0131501345000000000000
B0509033225425S11658674EA0130601336000000000000
B0509073225510S11658674EA0129301319000000000000
B0509113225597S11658674EA0128101311000000000000
B0509153225684S11658674EA0127301301000000000000
B0509193225772S11658672EA0126601293000000000000
B0509233225858S11658664EA0126101292000000000000
B0509273225942S11658661EA0126301295000000000000
B0509313226018S11658677EA0127301307000000000000
B0509353226078S11658725EA0128601321000000000000
B0509393226123S11658786EA0129401328000000000000
B0509433226118S11658856EA0129801333000000000000
B0509473226065S11658869EA0130401343000000000000
B0509513226030S11658819EA0131301352000000015000
B0509553226032S11658747EA0131201348000000015000
B0509593226069S11658680EA0131001350000000030000
B0510033226122S11658622EA0131601360000000015000
B0510073226187S11658595EA0132601367000000015000
B0510113226236S11658639EA0133401379000000015000
B0510153226213S11658695EA0134801397000000015000
B0510193226167S11658671EA0136201412000000015000
B0510233226174S11658602EA0137501421000000030000
B0510273226230S11658570EA0138201430000000030000
B0510313226283S11658600EA0138801429000000030000
B0510353226309S11658661EA0139501442000000030000
B0510393226303S11658721EA0140401448000000015000
B0510433226267S11658762EA0140701453000000015000
B0510473226219S11658747EA0141201458000000015000
B0510513226182S11658700EA0141501457000000015000
B0510553226171S11658629EA0141601460000000015000
B0510593226204S11658555EA0142101464000000015000
B0511033226253S11658499EA0142701471000000015000
B0511073226313S11658517EA0143501475000000030000
B0511113226326S11658577EA0143501471000000030000
B0511153226290S11658629EA0143401475000000030000
B0511193226291S11658694EA0144401487000000030000
B0511233226358S11658702EA0145301496000000030000
B0511273226381S11658634EA0146501513000000030000
B0511313226338S11658598EA0147501520000000045000
B0511353226293S11658628EA0148001528000000030000
B0511393226297S11658694EA0148601534000000030000
B0511433226349S11658749EA0148501532000000030000
B0511473226425S11658758EA0148601537000000030000
B0511513226492S11658725EA0149601548000000030000
B0511553226511S11658658EA0150901552000000030000
B0511593226475S11658607EA0150801553000000030000
B0512033226420S11658608EA0151301565000000030000
B0512073226409S11658667EA0152501576000000030000
B0512113226466S11658703EA0153001581000000030000
B0512153226527S11658665EA0153901594000000030000
B0512193226522S11658598EA0154501597000000030000
B0512233226470S11658576EA0154601602000000030000
B0512273226427S11658616EA0155401614000000030000
B0512313226439S11658684EA0156601624000000030000
B0512353226500S11658719EA0156901627000000030000
B0512393226568S11658697EA0157801643000000015000
B0512433226586S11658633EA0159101649000000030000
B0512473226543S11658598EA0158601643000000030000
B0512513226495S11658633EA0159101653000000030000
B0512553226509S11658697EA0160401665000000030000
B0512593226574S11658716EA0160301661000000030000
B0513033226642S11658681EA0161001671000000030000
B0513073226651S11658612EA0161501673000000030000
B0513113226605S11658567EA0161701674000000030000
B0513153226550S11658569EA0162301683000000030000
B0513193226522S11658620EA0163001690000000030000
B0513233226551S11658680EA0163201688000000030000
B0513273226616S11658703EA0162901684000000030000
B0513313226689S11658690EA0162601685000000015000
B0513353226761S11658669EA0162501681000000015000
B0513393226838S11658650EA0162501683000000015000
B0513433226915S11658624EA0162801687000000015000
B0513473226989S11658590EA0163501693000000015000
B0513513227055S11658541EA0163001681000000015000
B0513553227132S11658498EA0161801667000000015000
B0513593227226S11658490EA0160101651000000015000
B0514033227322S11658503EA0158701640000000015000
B0514073227419S11658522EA0157901632000000000000
B0514113227515S11658546EA0157501627000000000000
B0514153227612S11658568EA0157501629000000000000
B0514193227705S11658583EA0157801636000000000000
B0514233227792S11658593EA0158201642000000000000
B0514273227877S11658607EA0158101638000000000000
B0514313227959S11658622EA0158001638000000000000
B0514353228037S11658638EA0158101641000000000000
B0514393228112S11658651EA0158101641000000000000
B0514433228190S11658665EA0157301627000000000000
B0514473228276S11658691EA0155201601000000000000
B0514513228367S11658726EA0154201598000000000000
B0514553228451S11658749EA0154901612000000000000
B0514593228531S11658768EA0155301607000000000000
B0515033228613S11658791EA0154201595000000000000
B0515073228697S11658816EA0153201584000000000000
B0515113228787S11658840EA0152301575000000000000
B0515153228875S11658859EA0151701570000000000000
B0515193228964S11658875EA0151101564000000000000
B0515233229049S11658890EA0150801560000000000000
B0515273229134S11658906EA0150201552000000000000
B0515313229220S11658920EA0149401542000000000000
B0515353229304S11658931EA0148601531000000000000
B0515393229389S11658945EA0147601522000000000000
B0515433229473S11658957EA0147001518000000000000
B0515473229559S11658973EA0146001502000000000000
B0515513229650S11658988EA0144601488000000000000
B0515553229740S11659005EA0143601478000000000000
B0515593229832S11659022EA0142401463000000000000
B0516033229927S11659036EA0141301456000000000000
B0516073230022S11659053EA0141801467000000000000
B0516113230109S11659068EA0143501489000000000000
B0516153230187S11659064EA0145701507000000000000
B0516193230217S11658997EA0146401507000000000000
B0516233230169S11658963EA0147001523000000000000
B0516273230138S11659005EA0148501535000000000000
B0516313230162S11659064EA0149701545000000000000
B0516353230226S11659074EA0150801554000000000000
B0516393230279S11659027EA0151401557000000015000
B0516433230294S11658957EA0152301571000000015000
B0516473230271S11658903EA0153101575000000000000
B0516513230225S11658898EA0152801572000000000000
B0516553230196S11658945EA0153001577000000000000
B0516593230206S11659003EA0153901586000000000000
B0517033230255S11659045EA0154601591000000000000
B0517073230321S11659059EA0154901597000000000000
B0517113230390S11659058EA0155301602000000000000
B0517153230450S11659027EA0156201610000000000000
B0517193230457S11658962EA0156101604000000000000
B0517233230414S11658929EA0155701609000000000000
B0517273230372S11658958EA0156501614000000000000
B0517313230377S11659022EA0157701624000000000000
B0517353230433S11659062EA0157801621000000015000
B0517393230505S11659059EA0157801624000000000000
B0517433230568S11659028EA0158001630000000000000
B0517473230587S11658962EA0158101622000000000000
B0517513230555S11658911EA0157601623000000000000
B0517553230504S11658911EA0157501622000000000000
B0517593230450S11658924EA0157601625000000000000
B0518033230400S11658950EA0158001631000000000000
B0518073230405S11659019EA0158301634000000000000
B0518113230470S11659062EA0158601643000000000000
B0518153230546S11659070EA0159101643000000000000
B0518193230624S11659066EA0158901642000000000000
B0518233230700S11659054EA0158801640000000000000
B0518273230778S11659038EA0158201626000000000000
B0518313230864S11659024EA0157001612000000000000
B0518353230953S11659019EA0156401612000000000000
B0518393231044S11659020EA0156301609000000000000
B0518433231136S11659031EA0155901603000000000000
B0518473231228S11659044EA0155501604000000000000
B0518513231318S11659055EA0155401602000000000000
B0518553231405S11659062EA0156001613000000000000
B0518593231487S11659068EA0156701618000000000000
B0519033231568S11659071EA0156701613000000000000
B0519073231652S11659071EA0155601600000000000000
B0519113231742S11659074EA0154401586000000000000
B0519153231834S11659076EA0153201579000000000000
B0519193231922S11659079EA0152601571000000000000
B0519233232013S11659083EA0151501559000000000000
B0519273232103S11659092EA0150801552000000000000
B0519313232195S11659102EA0149401538000000000000
B0519353232289S11659116EA0148401524000000000000
B0519393232383S11659136EA0147301512000000000000
B0519433232474S11659168EA0146601508000000000000
B0519473232562S11659205EA0146401507000000000000
B0519513232649S11659243EA0145801500000000000000
B0519553232738S11659283EA0145301497000000000000
B0519593232826S11659323EA0145101497000000000000
B0520033232910S11659366EA0144901493000000000000
B0520073232996S11659410EA0144701489000000000000
B0520113233082S11659456EA0144501494000000000000
B0520153233161S11659500EA0145001493000000000000
B0520193233245S11659544EA0144401484000000000000
B0520233233330S11659587EA0143701479000000000000
B0520273233419S11659625EA0143301473000000000000
B0520313233510S11659660EA0142601464000000000000
B0520353233602S11659688EA0142001461000000000000
B0520393233693S11659712EA0141601456000000000000
B0520433233785S11659735EA0140901448000000000000
B0520473233878S11659756EA0140101439000000000000
B0520513233973S11659774EA0139501432000000000000
B0520553234067S11659791EA0139001430000000000000
B0520593234161S11659803EA0138901428000000000000
B0521033234255S11659813EA0138301421000000000000
B0521073234343S11659818EA0138601424000000000000
B0521113234430S11659815EA0137901415000000000000
B0521153234517S11659816EA0137301407000000000000
B0521193234607S11659822EA0136301397000000000000
B0521233234695S11659831EA0135801392000000000000
B0521273234782S11659842EA0136101406000000000000
B0521313234863S11659848EA0137001409000000000000
B0521353234946S11659847EA0136901406000000000000
B0521393235029S11659841EA0136101393000000000000
B0521433235117S11659837EA0135301388000000000000
B0521473235205S11659837EA0134701378000000000000
B0521513235295S11659838EA0133901370000000000000
B0521553235387S11659842EA0133101363000000000000
B0521593235479S11659847EA0132701359000000000000
B0522033235572S11659852EA0132401356000000000000
B0522073235664S11659864EA0131801348000000000000
B0522113235757S11659876EA0131001339000000000000
B0522153235848S11659887EA0130801341000000000000
B0522193235937S11659895EA0130701337000000000000
B0522233236025S11659903EA0129801325000000000000
B0522273236115S11659908EA0129401327000000000000
B0522313236199S11659919EA0129901333000000000000
B0522353236280S11659939EA0130001332000000000000
B0522393236361S11659964EA0129801331000000000000
B0522433236440S11659987EA0130301339000000000000
B0522473236515S11700011EA0130901341000000000000
B0522513236591S11700023EA0130801337000000000000
B0522553236666S11700017EA0130401332000000000000
B0522593236742S11659998EA0129401322000000000000
B0523033236821S11659981EA0128801315000000000000
B0523073236903S11659973EA0127801304000000000000
B0523113236987S11659969EA0127001296000000000000
B0523153237072S11659969EA0126201287000000000000
B0523193237158S11659969EA0125201277000000000000
B0523233237245S11659971EA0124001262000000000000
B0523273237336S11659972EA0122801249000000000000
B0523313237425S11659974EA0121601236000000000000
B0523353237515S11659978EA0120501226000000000000
B0523393237603S11659987EA0119501215000000000000
B0523433237692S11659989EA0119301219000000000000
B0523473237774S11659969EA0119901227000000000000
B0523513237852S11659938EA0120301229000000000000
B0523553237926S11659896EA0120401233000000000000
B0523593237996S11659848EA0120901238000000000000
B0524033238062S11659792EA0121501245000000000000
B0524073238112S11659726EA0122601255000000000000
B0524113238097S11659664EA0122901252000000000000
B0524153238048S11659668EA0122301248000000000000
B0524193238032S11659730EA0122301255000000000000
B0524233238060S11659795EA0123301264000000000000
B0524273238112S11659841EA0124201273000000000000
B0524313238178S11659855EA0124901279000000000000
B0524353238235S11659804EA0125101280000000000000
B0524393238230S11659734EA0125101285000000000000
B0524433238187S11659729EA0125301283000000000000
B0524473238169S11659787EA0124801280000000000000
B0524513238199S11659854EA0125401290000000015000
B0524553238263S11659889EA0126001294000000015000
B0524593238338S11659894EA0126701303000000015000
B0525033238382S11659837EA0127801309000000015000
B0525073238360S11659777EA0127801308000000000000
B0525113238316S11659799EA0128001315000000015000
B0525153238322S11659867EA0129201330000000015000
B0525193238380S11659903EA0130701345000000015000
B0525233238441S11659872EA0131401350000000015000
B0525273238456S11659804EA0131801356000000015000
B0525313238426S11659759EA0132301359000000000000
B0525353238385S11659770EA0132901365000000000000
B0525393238368S11659821EA0133801377000000000000
B0525433238393S11659880EA0134801384000000000000
B0525473238450S11659915EA0135301389000000000000
B0525513238516S11659898EA0135801397000000000000
B0525553238555S11659835EA0136301400000000000000
B0525593238541S11659776EA0136501405000000000000
B0526033238497S11659769EA0137001409000000000000
B0526073238469S11659815EA0137401413000000000000
B0526113238482S11659882EA0138201423000000000000
B0526153238529S11659934EA0139001429000000000000
B0526193238602S11659946EA0139401434000000000000
B0526233238663S11659903EA0140301447000000015000
B0526273238673S11659837EA0141101453000000015000
B0526313238638S11659800EA0141301454000000000000
B0526353238598S11659818EA0141501457000000000000
B0526393238585S11659877EA0141801462000000000000
B0526433238608S11659943EA0142601470000000000000
B0526473238668S11659982EA0143301477000000000000
B0526513238737S11659973EA0143901485000000000000
B0526553238794S11659924EA0144401490000000000000
B0526593238810S11659857EA0145301498000000000000
B0527033238780S11659816EA0145601498000000000000
B0527073238733S11659820EA0145201496000000000000
B0527113238694S11659854EA0145201499000000000000
B0527153238676S11659912EA0145901508000000000000
B0527193238690S11659978EA0146901519000000000000
B0527233238734S11700033EA0147401519000000000000
B0527273238801S11700078EA0146901511000000000000
B0527313238879S11700110EA0145801500000000000000
B0527353238961S11700137EA0144801489000000000000
B0527393239046S11700163EA0143401472000000000000
B0527433239137S11700186EA0142301461000000000000
B0527473239230S11700207EA0141901463000000000000
B0527513239322S11700229EA0142401468000000000000
B0527553239412S11700244EA0143701486000000000000
B0527593239466S11700184EA0145801504000000000000
B0528033239433S11700132EA0146701508000000000000
B0528073239391S11700164EA0147001516000000015000
B0528113239395S11700234EA0147701525000000015000
B0528153239435S11700293EA0148401529000000015000
B0528193239501S11700303EA0149101538000000015000
B0528233239546S11700246EA0149601541000000015000
B0528273239531S11700179EA0150201553000000015000
B0528313239487S11700158EA0151101558000000000000
B0528353239448S11700189EA0151601565000000000000
B0528393239439S11700244EA0153101579000000000000
B0528433239460S11700303EA0153701582000000000000
B0528473239511S11700351EA0153701583000000000000
B0528513239577S11700366EA0154001585000000000000
B0528553239648S11700359EA0153901585000000000000
B0528593239721S11700351EA0154101588000000000000
B0529033239795S11700344EA0153901585000000000000
B0529073239871S11700338EA0153301579000000000000
B0529113239950S11700328EA0152701571000000000000
B0529153240031S11700318EA0152501572000000000000
B0529193240112S11700309EA0152601571000000000000
B0529233240193S11700298EA0151701558000000000000
B0529273240280S11700297EA0150401543000000000000
B0529313240367S11700320EA0149401539000000000000
B0529353240450S11700354EA0149201536000000000000
B0529393240530S11700392EA0148901533000000000000
B0529433240610S11700428EA0148601530000000000000
B0529473240694S11700462EA0148201525000000000000
B0529513240779S11700497EA0147701516000000000000
B0529553240865S11700536EA0147201516000000000000
B0529593240950S11700572EA0147301514000000000000
B0530033241033S11700610EA0147001510000000000000
B0530073241119S11700650EA0146301504000000000000
B0530113241203S11700693EA0145601498000000000000
B0530153241288S11700738EA0144901489000000000000
B0530193241373S11700784EA0144101482000000000000
B0530233241458S11700834EA0144001481000000000000
B0530273241542S11700884EA0143101472000000000000
B0530313241626S11700935EA0142401464000000000000
B0530353241709S11700987EA0141801455000000000000
B0530393241793S11701035EA0140801446000000000000
B0530433241880S11701082EA0139801431000000000000
B0530473241970S11701126EA0138501424000000000000
B0530513242057S11701173EA0137901419000000000000
B0530553242142S11701222EA0137701417000000000000
B0530593242225S11701273EA0137301409000000000000
B0531033242303S11701333EA0137001408000000000000
B0531073242369S11701403EA0136901409000000000000
B0531113242425S11701479EA0137301412000000000000
B0531153242482S11701549EA0137001407000000000000
B0531193242537S11701624EA0136101399000000000000
B0531233242577S11701709EA0135501393000000000000
B0531273242605S11701798EA0135001388000000000000
B0531313242627S11701891EA0134501378000000000000
B0531353242647S11701984EA0133501369000000000000
B0531393242667S11702080EA0132401357000000000000
B0531433242680S11702179EA0131601350000000000000
B0531473242685S11702277EA0130801341000000000000
B0531513242688S11702374EA0130601341000000000000
B0531553242689S11702469EA0130601340000000000000
B0531593242690S11702561EA0130201337000000000000
B0532033242690S11702652EA0130201338000000000000
B0532073242685S11702737EA0130301338000000000000
B0532113242672S11702815EA0130201338000000000000
B0532153242650S11702886EA0130001332000000000000
B0532193242621S11702953EA0129201323000000000000
B0532233242599S11703028EA0128501314000000000000
B0532273242621S11703111EA0128101312000000000000
B0532313242679S11703178EA0127801304000000000000
B0532353242762S11703206EA0126701294000000000000
B0532393242850S11703209EA0125701283000000000000
B0532433242940S11703201EA0124901280000000000000
B0532473243026S11703184EA0125201285000000000000
B0532513243108S11703161EA0125401285000000000000
B0532553243184S11703136EA0125701289000000000000
B0532593243256S11703098EA0125401283000000000000
B0533033243329S11703059EA0124401273000000000000
B0533073243404S11703022EA0123501262000000000000
B0533113243482S11702984EA0122801255000000000000
B0533153243563S11702958EA0122601254000000000000
B0533193243643S11702944EA0122301247000000000000
B0533233243721S11702918EA0121001231000000000000
B0533273243802S11702888EA0120001224000000000000
B0533313243886S11702868EA0120101231000000000000
B0533353243934S11702803EA0122501254000000000000
B0533393243889S11702758EA0123901269000000000000
B0533433243855S11702801EA0125501290000000000000
B0533473243884S11702855EA0126501295000000000000
B0533513243945S11702849EA0127301308000000015000
B0533553243977S11702782EA0128501321000000015000
B0533593243960S11702715EA0129501331000000015000
B0534033243912S11702686EA0130201338000000015000
B0534073243876S11702721EA0130901345000000015000
B0534113243889S11702784EA0131301345000000015000
B0534153243946S11702823EA0131301349000000015000
B0534193244006S11702794EA0132201362000000015000
B0534233244029S11702717EA0132901366000000015000
B0534273243998S11702649EA0133101374000000015000
B0534313243945S11702654EA0134301389000000015000
B0534353243931S11702714EA0135201394000000015000
B0534393243973S11702762EA0135501398000000015000
B0534433244035S11702754EA0135601400000000015000
B0534473244084S11702704EA0135401397000000015000
B0534513244122S11702638EA0134901391000000000000
B0534553244123S11702554EA0134601392000000000000
B0534593244090S11702495EA0135501402000000000000
B0535033244044S11702513EA0136201406000000000000
B0535073244020S11702574EA0135701399000000015000
B0535113244037S11702649EA0135001397000000015000
B0535153244080S11702710EA0135701405000000000000
B0535193244142S11702736EA0136301411000000000000
B0535233244213S11702729EA0136701413000000000000
B0535273244284S11702715EA0136301403000000000000
B0535313244356S11702691EA0135901403000000000000
B0535353244425S11702655EA0136201407000000000000
B0535393244488S11702612EA0136501405000000000000
B0535433244552S11702563EA0135401387000000000000
B0535473244618S11702506EA0134101377000000000000
B0535513244685S11702447EA0133501372000000000000
B0535553244752S11702385EA0132601360000000000000
B0535593244822S11702321EA0130901339000000000000
B0536033244895S11702257EA0129101323000000000000
B0536073244968S11702201EA0129101330000000000000
B0536113245039S11702152EA0129301325000000000000
B0536153245107S11702096EA0128701318000000000000
B0536193245172S11702034EA0127901310000000000000
B0536233245233S11701967EA0127001300000000000000
B0536273245307S11701911EA0125901286000000000000
B0536313245396S11701891EA0124601275000000000000
B0536353245484S11701902EA0123501263000000000000
B0536393245570S11701928EA0122701251000000000000
B0536433245656S11701958EA0121301237000000000000
B0536473245743S11701991EA0120301229000000000000
B0536513245829S11702026EA0119701222000000000000
B0536553245913S11702060EA0119301221000000000000
B0536593245995S11702097EA0119201220000000000000
B0537033246072S11702142EA0119001216000000000000
B0537073246150S11702188EA0118301207000000000000
B0537113246229S11702230EA0117801198000000000000
B0537153246316S11702255EA0116401183000000000000
B0537193246403S11702268EA0115201170000000000000
B0537233246492S11702281EA0113901157000000000000
B0537273246573S11702309EA0113001148000000000000
B0537313246654S11702342EA0112001137000000000000
B0537353246733S11702378EA0111001129000000000000
B0537393246814S11702417EA0109901114000000000000
B0537433246897S11702459EA0108301097000000000000
B0537473246983S11702500EA0107201082000000000000
B0537513247069S11702546EA0105701069000000000000
B0537553247156S11702591EA0104201050000000000000
B0537593247246S11702638EA0102501035000000000000
B0538033247333S11702684EA0101901034000000000000
B0538073247415S11702733EA0101801033000000000000
B0538113247495S11702779EA0102001037000000000000
B0538153247571S11702825EA0102701043000000000000
B0538193247646S11702828EA0103901057000000000000
B0538233247712S11702788EA0104301057000000000000
B0538273247777S11702740EA0104001049000000000000
B0538313247840S11702682EA0103201043000000000000
B0538353247906S11702629EA0102601037000000000000
B0538393247977S11702584EA0101701026000000000000
B0538433248061S11702569EA0100701018000000000000
B0538473248144S11702584EA0100001007000000000000
B0538513248223S11702619EA0098900998000000000000
B0538553248295S11702665EA0098100991000000000000
B0538593248361S11702721EA0097100977000000000000
B0539033248426S11702781EA0096100970000000000000
B0539073248487S11702846EA0095300959000000000000
B0539113248540S11702920EA0094900960000000000000
B0539153248586S11702997EA0094800956000000000000
B0539193248624S11703079EA0094300951000000000000
B0539233248656S11703163EA0094300952000000000000
B0539273248709S11703228EA0095000963000000000000
B0539313248778S11703217EA0095800967000000000000
B0539353248806S11703144EA0095500966000000000000
B0539393248769S11703100EA0096000970000000000000
B0539433248733S11703136EA0096400975000000000000
B0539473248748S11703208EA0096300976000000000000
B0539513248813S11703243EA0096500978000000000000
B0539553248878S11703210EA0096800983000000015000
B0539593248893S11703141EA0097100984000000000000
B0540033248850S11703118EA0097300985000000000000
B0540073248819S11703170EA0097400987000000000000
B0540113248845S11703237EA0098100993000000015000
B0540153248912S11703257EA0098300992000000015000
B0540193248969S11703208EA0098200992000000015000
B0540233248965S11703139EA0098701001000000015000
B0540273248919S11703130EA0099301004000000000000
B0540313248893S11703183EA0099101002000000000000
B0540353248913S11703256EA0099301007000000015000
B0540393248975S11703300EA0099701009000000015000
B0540433249045S11703279EA0100001017000000015000
B0540473249073S11703214EA0100401020000000015000
B0540513249040S11703174EA0100601018000000015000
B0540553249002S11703209EA0100601023000000015000
B0540593249003S11703279EA0101001024000000015000
B0541033249046S11703344EA0101101027000000015000
B0541073249119S11703364EA0101501034000000015000
B0541113249185S11703323EA0102201039000000015000
B0541153249205S11703244EA0102201037000000015000
B0541193249172S11703184EA0102401043000000015000
B0541233249121S11703176EA0103001048000000015000
B0541273249088S11703223EA0103801054000000015000
B0541313249097S11703295EA0104101056000000015000
B0541353249151S11703349EA0104301059000000015000
B0541393249225S11703349EA0104601066000000015000
B0541433249281S11703295EA0105101068000000015000
B0541473249288S11703214EA0104701061000000015000
B0541513249242S11703169EA0104901069000000015000
B0541553249194S11703195EA0105601079000000015000
B0541593249184S11703265EA0106401085000000015000
B0542033249220S11703334EA0106801087000000015000
B0542073249294S11703354EA0106801087000000015000
B0542113249355S11703308EA0107201095000000015000
B0542153249365S11703232EA0107901100000000015000
B0542193249336S11703180EA0108801113000000015000
B0542233249292S11703188EA0109701118000000015000
B0542273249288S11703252EA0110001124000000015000
B0542313249337S11703305EA0110301127000000015000
B0542353249410S11703310EA0110401125000000015000
B0542393249465S11703257EA0110801138000000015000
B0542433249472S11703187EA0111601138000000015000
B0542473249436S11703145EA0111401139000000015000
B0542513249391S11703159EA0112301148000000000000
B0542553249374S11703215EA0112701147000000000000
B0542593249397S11703284EA0112601148000000015000
B0543033249457S11703328EA0112801150000000015000
B0543073249532S11703344EA0112801152000000015000
B0543113249601S11703317EA0113401158000000015000
B0543153249610S11703239EA0113701162000000015000
B0543193249570S11703195EA0114401175000000015000
B0543233249530S11703215EA0115401179000000015000
B0543273249534S11703280EA0116201186000000015000
B0543313249586S11703326EA0116701188000000015000
B0543353249656S11703314EA0116801193000000015000
B0543393249687S11703245EA0117401200000000015000
B0543433249661S11703185EA0118201212000000015000
B0543473249619S11703185EA0119501221000000015000
B0543513249610S11703241EA0120401228000000015000
B0543553249643S11703301EA0120601230000000015000
B0543593249709S11703327EA0120901238000000015000
B0544033249773S11703296EA0121801251000000015000
B0544073249800S11703223EA0122601254000000015000
B0544113249783S11703157EA0123201268000000015000
B0544153249739S11703146EA0124201274000000015000
B0544193249722S11703198EA0124801279000000015000
B0544233249751S11703262EA0125201282000000015000
B0544273249813S11703297EA0125901291000000015000
B0544313249883S11703274EA0126801303000000015000
B0544353249914S11703197EA0127401317000000015000
B0544393249896S11703126EA0128201324000000015000
B0544433249851S11703107EA0128901333000000015000
B0544473249818S11703144EA0129601336000000015000
B0544513249813S11703208EA0130101341000000015000
B0544553249838S11703273EA0130401344000000000000
B0544593249896S11703319EA0130801352000000015000
B0545033249965S11703343EA0132301367000000000000
B0545073250025S11703304EA0132801365000000000000
B0545113250037S11703227EA0132701364000000015000
B0545153249998S11703180EA0132901376000000000000
B0545193249953S11703170EA0133801379000000000000
B0545233249937S11703227EA0134401388000000000000
B0545273249981S11703286EA0135301395000000015000
B0545313250055S11703293EA0136101405000000015000
B0545353250108S11703237EA0136601408000000015000
B0545393250113S11703156EA0136501407000000015000
B0545433250080S11703096EA0137201419000000015000
B0545473250037S11703085EA0138701432000000000000
B0545513250000S11703110EA0139301432000000000000
B0545553249992S11703174EA0138301426000000000000
B0545593250018S11703245EA0137901423000000000000
B0546033250070S11703304EA0138301433000000000000
B0546073250135S11703344EA0139201439000000000000
B0546113250204S11703375EA0139201432000000000000
B0546153250281S11703403EA0138401422000000000000
B0546193250367S11703421EA0136901408000000000000
B0546233250454S11703434EA0135701393000000000000
B0546273250544S11703447EA0134201379000000000000
B0546313250633S11703464EA0133101366000000000000
B0546353250728S11703479EA0131501349000000000000
B0546393250823S11703497EA0130301339000000000000
B0546433250917S11703520EA0129601331000000000000
B0546473251012S11703539EA0128701319000000000000
B0546513251105S11703556EA0128001316000000000000
B0546553251198S11703570EA0127401307000000000000
B0546593251287S11703586EA0126401295000000000000
B0547033251378S11703605EA0125201284000000000000
B0547073251468S11703625EA0124301276000000000000
B0547113251556S11703644EA0123601267000000000000
B0547153251645S11703668EA0122701258000000000000
B0547193251732S11703694EA0122001251000000000000
B0547233251815S11703720EA0121901251000000000000
B0547273251897S11703742EA0121501244000000000000
B0547313251981S11703767EA0120601235000000000000
B0547353252070S11703790EA0120301236000000000000
B0547393252158S11703809EA0120401235000000000000
B0547433252247S11703830EA0120101229000000000000
B0547473252338S11703851EA0119601225000000000000
B0547513252430S11703871EA0119101217000000000000
B0547553252525S11703882EA0118701215000000000000
B0547593252620S11703885EA0118701218000000000000
B0548033252712S11703882EA0118701214000000000000
B0548073252807S11703882EA0118001209000000000000
B0548113252899S11703886EA0118001211000000000000
B0548153252989S11703891EA0117601203000000000000
B0548193253079S11703904EA0116301186000000000000
B0548233253170S11703924EA0115201175000000000000
B0548273253259S11703945EA0114501164000000000000
B0548313253350S11703965EA0113301153000000000000
B0548353253440S11703988EA0112601149000000000000
B0548393253527S11704010EA0112201146000000000000
B0548433253616S11704030EA0112101146000000000000
B0548473253703S11704047EA0112201148000000000000
B0548513253782S11704072EA0113201159000000000000
B0548553253860S11704095EA0112601147000000000000
B0548593253943S11704118EA0111601135000000000000
B0549033254026S11704140EA0110401123000000000000
B0549073254113S11704164EA0109401112000000000000
B0549113254202S11704185EA0108601106000000000000
B0549153254290S11704202EA0108501107000000000000
B0549193254376S11704212EA0108501105000000000000
B0549233254464S11704215EA0107701095000000000000
B0549273254554S11704216EA0106701084000000000000
B0549313254643S11704222EA0106001073000000000000
B0549353254734S11704225EA0104701060000000000000
B0549393254825S11704228EA0103501050000000000000
B0549433254913S11704229EA0102901044000000000000
B0549473255001S11704229EA0102601047000000000000
B0549513255081S11704207EA0104101071000000000000
B0549553255127S11704144EA0106201086000000000000
B0549593255100S11704089EA0107401094000000000000
B0550033255060S11704111EA0107401091000000000000
B0550073255065S11704176EA0107201093000000000000
B0550113255122S11704219EA0107501100000000015000
B0550153255191S11704209EA0108901117000000015000
B0550193255212S11704142EA0110301131000000015000
B0550233255178S11704102EA0111001132000000015000
B0550273255138S11704127EA0110301123000000000000
B0550313255143S11704197EA0109801119000000015000
B0550353255205S11704246EA0110001125000000015000
B0550393255278S11704249EA0111501146000000015000
B0550433255295S11704183EA0113001155000000015000
B0550473255254S11704163EA0114101172000000015000
B0550513255233S11704216EA0114901175000000015000
B0550553255267S11704283EA0115201185000000015000
B0550593255332S11704287EA0116601207000000015000
B0551033255372S11704231EA0118201217000000015000
B0551073255356S11704173EA0119201230000000015000
B0551113255312S11704175EA0120401235000000015000
B0551153255289S11704233EA0120401234000000015000
B0551193255317S11704305EA0120801243000000015000
B0551233255385S11704336EA0121901256000000015000
B0551273255451S11704302EA0123601275000000015000
B0551313255462S11704232EA0125401292000000015000
B0551353255423S11704198EA0126201300000000015000
B0551393255386S11704229EA0127401309000000015000
B0551433255403S11704296EA0127701309000000015000
B0551473255469S11704323EA0128801330000000015000
B0551513255527S11704285EA0130901348000000015000
B0551553255530S11704222EA0131901359000000015000
B0551593255490S11704198EA0132701364000000015000
B0552033255462S11704242EA0133601373000000015000
B0552073255484S11704314EA0134101381000000015000
B0552113255549S11704333EA0135901405000000015000
B0552153255598S11704284EA0137401414000000015000
B0552193255594S11704214EA0138001421000000015000
B0552233255553S11704189EA0139501440000000015000
B0552273255525S11704228EA0140601449000000015000
B0552313255536S11704297EA0140801454000000015000
B0552353255592S11704345EA0142101476000000015000
B0552393255657S11704329EA0144001492000000015000
B0552433255688S11704262EA0145001499000000015000
B0552473255664S11704205EA0145801510000000015000
B0552513255620S11704212EA0147101521000000015000
B0552553255610S11704279EA0147901529000000015000
B0552593255657S11704336EA0149601552000000015000
B0553033255724S11704332EA0151401569000000015000
B0553073255758S11704272EA0152501581000000015000
B0553113255732S11704220EA0153301587000000015000
B0553153255690S11704237EA0154401601000000015000
B0553193255685S11704301EA0155901613000000015000
B0553233255732S11704352EA0157601629000000015000
B0553273255800S11704339EA0158601639000000015000
B0553313255828S11704271EA0159601649000000015000
B0553353255801S11704219EA0159901653000000015000
B0553393255750S11704235EA0160101655000000015000
B0553433255746S11704313EA0161301674000000015000
B0553473255802S11704370EA0163501697000000015000
B0553513255872S11704362EA0164901715000000015000
B0553553255911S11704301EA0166301725000000015000
B0553593255897S11704232EA0166701726000000015000
B0554033255849S11704209EA0167001735000000015000
B0554073255809S11704245EA0168901761000000015000
B0554113255816S11704311EA0170801776000000015000
B0554153255876S11704352EA0172101791000000015000
B0554193255944S11704328EA0173101800000000015000
B0554233255974S11704261EA0173601803000000015000
B0554273255952S11704196EA0173801807000000015000
B0554313255902S11704177EA0174701824000000015000
B0554353255865S11704207EA0176101830000000015000
B0554393255862S11704279EA0176001830000000015000
B0554433255906S11704346EA0176701846000000015000
B0554473255976S11704365EA0178501863000000015000
B0554513256024S11704307EA0179701870000000015000
B0554553256002S11704245EA0179901872000000015000
B0554593255950S11704235EA0180601881000000015000
B0555033255913S11704281EA0181401885000000015000
B0555073255933S11704355EA0181901896000000015000
B0555113256001S11704379EA0183601916000000015000
B0555153256062S11704341EA0185001927000000015000
B0555193256078S11704272EA0185901933000000015000
B0555233256045S11704224EA0186301939000000015000
B0555273255997S11704223EA0187301946000000015000
B0555313255972S11704275EA0188101949000000015000
B0555353255997S11704344EA0188701962000000015000
B0555393256061S11704367EA0190501981000000015000
B0555433256115S11704324EA0191501993000000015000
B0555473256119S11704257EA0192502000000000015000
B0555513256083S11704214EA0192902002000000015000
B0555553256035S11704215EA0193402007000000015000
B0555593256011S11704270EA0193902011000000015000
B0556033256040S11704333EA0194202018000000015000
B0556073256108S11704355EA0195402031000000015000
B0556113256166S11704307EA0196602043000000015000
B0556153256166S11704238EA0197502054000000015000
B0556193256122S11704205EA0197702053000000015000
B0556233256069S11704207EA0197802054000000015000
B0556273256031S11704257EA0197802053000000015000
B0556313256023S11704332EA0197602054000000015000
B0556353256047S11704407EA0198202065000000015000
B0556393256089S11704467EA0199702083000000000000
B0556433256156S11704471EA0200702083000000015000
B0556473256216S11704424EA0200002074000000015000
B0556513256247S11704344EA0199602078000000015000
B0556553256234S11704272EA0201002093000000000000
B0556593256182S11704285EA0202102102000000015000
B0557033256171S11704359EA0202202100000000015000
B0557073256223S11704419EA0202702109000000015000
B0557113256296S11704397EA0203502114000000015000
B0557153256331S11704319EA0203702118000000015000
B0557193256320S11704242EA0204302127000000015000
B0557233256278S11704196EA0205202135000000015000
B0557273256219S11704190EA0205402134000000000000
B0557313256166S11704220EA0205502138000000000000
B0557353256154S11704292EA0205702138000000015000
B0557393256197S11704361EA0204902126000000015000
B0557433256269S11704401EA0204502130000000015000
B0557473256348S11704413EA0205302140000000000000
B0557513256429S11704411EA0205402132000000000000
B0557553256516S11704401EA0204402124000000000000
B0557593256607S11704383EA0204102127000000000000
B0558033256695S11704365EA0203902118000000000000
B0558073256782S11704346EA0203502116000000000000
B0558113256872S11704331EA0202202098000000000000
B0558153256966S11704327EA0201302094000000000000
B0558193257061S11704332EA0200902087000000000000
B0558233257161S11704346EA0199402067000000000000
B0558273257266S11704363EA0197902057000000000000
B0558313257371S11704381EA0198002065000000000000
B0558353257467S11704397EA0200202091000000000000
B0558393257558S11704406EA0201402092000000000000
B0558433257651S11704410EA0201102088000000000000
B0558473257746S11704411EA0200602078000000000000
B0558513257842S11704414EA0199102063000000000000
B0558553257939S11704439EA0197702049000000000000
B0558593258038S11704478EA0196202031000000000000
B0559033258140S11704521EA0194302012000000000000
B0559073258244S11704562EA0192501994000000000000
B0559113258350S11704604EA0191001975000000000000
B0559153258457S11704641EA0189401962000000000000
B0559193258563S11704674EA0188201947000000000000
B0559233258670S11704706EA0187801953000000000000
B0559273258773S11704734EA0188501959000000000000
B0559313258873S11704758EA0189601976000000000000
B0559353258964S11704777EA0191901995000000000000
B0559393259048S11704779EA0192602001000000000000
B0559433259134S11704775EA0192501996000000000000
B0559473259225S11704761EA0192001995000000000000
B0559513259315S11704747EA0192902006000000000000
B0559553259401S11704731EA0193502013000000000000
B0559593259484S11704718EA0194302020000000000000
B0600033259566S11704706EA0194602025000000000000
B0600073259650S11704703EA0194702024000000000000
B0600113259736S11704712EA0194302013000000000000
B0600153259823S11704717EA0193102002000000000000
B0600193259913S11704725EA0191301982000000000000
B0600233300005S11704760EA0189401951000000000000
B0600273300101S11704814EA0186401926000000000000
B0600313300200S11704875EA0184601911000000000000
B0600353300300S11704937EA0183801906000000000000
B0600393300399S11704992EA0183301900000000000000
B0600433300498S11705043EA0182801895000000000000
B0600473300598S11705090EA0181901886000000000000
B0600513300701S11705128EA0181301881000000000000
B0600553300803S11705158EA0181001877000000000000
B0600593300903S11705185EA0181501895000000000000
B0601033301002S11705211EA0184201911000000000000
B0601073301091S11705207EA0185901935000000000000
B0601113301172S11705191EA0187001938000000000000
B0601153301254S11705173EA0186601932000000000000
B0601193301336S11705155EA0186201930000000000000
B0601233301418S11705142EA0185701925000000000000
B0601273301503S11705129EA0185001912000000000000
B0601313301596S11705138EA0182801887000000000000
B0601353301694S11705165EA0180801870000000000000
B0601393301794S11705194EA0180101862000000000000
B0601433301893S11705220EA0179101854000000000000
B0601473301991S11705247EA0178301843000000000000
B0601513302092S11705275EA0177401834000000000000
B0601553302192S11705299EA0176401821000000000000
B0601593302296S11705315EA0175001807000000000000
B0602033302398S11705332EA0173801797000000000000
B0602073302497S11705356EA0174301814000000000000
B0602113302588S11705360EA0176301835000000000000
B0602153302673S11705341EA0178001850000000000000
B0602193302718S11705276EA0179801865000000000000
B0602233302695S11705215EA0180401861000000000000
B0602273302639S11705219EA0179201849000000000000
B0602313302606S11705282EA0178901856000000000000
B0602353302614S11705360EA0179701862000000015000
B0602393302666S11705424EA0179901865000000015000
B0602433302739S11705453EA0180501872000000015000
B0602473302820S11705455EA0181301882000000015000
B0602513302899S11705437EA0182501900000000000000
B0602553302939S11705377EA0183601902000000015000
B0602593302907S11705329EA0183301895000000015000
B0603033302864S11705356EA0183101902000000015000
B0603073302856S11705420EA0184501918000000015000
B0603113302869S11705493EA0185401926000000000000
B0603153302916S11705553EA0186101933000000000000
B0603193302991S11705570EA0186701935000000000000
B0603233303064S11705542EA0186001925000000015000
B0603273303143S11705516EA0184601910000000000000
B0603313303230S11705493EA0184001908000000000000
B0603353303317S11705463EA0183401899000000000000
B0603393303411S11705438EA0182301885000000000000
B0603433303509S11705424EA0181301874000000000000
B0603473303605S11705415EA0180601870000000000000
B0603513303701S11705406EA0180301869000000000000
B0603553303795S11705401EA0180601872000000000000
B0603593303887S11705392EA0181801894000000000000
B0604033303960S11705359EA0184601920000000000000
B0604073303974S11705284EA0185601923000000000000
B0604113303921S11705245EA0185901930000000000000
B0604153303866S11705276EA0187201948000000000000
B0604193303886S11705342EA0189301968000000015000
B0604233303953S11705346EA0190501976000000015000
B0604273303979S11705281EA0191101985000000015000
B0604313303944S11705226EA0191701997000000015000
B0604353303891S11705226EA0193002010000000015000
B0604393303873S11705288EA0194102022000000015000
B0604433303915S11705353EA0194402022000000015000
B0604473303990S11705362EA0195002034000000015000
B0604513304044S11705311EA0196302044000000015000
B0604553304057S11705236EA0196702046000000015000
B0604593304023S11705172EA0196802050000000015000
B0605033303970S11705173EA0198402070000000015000
B0605073303953S11705237EA0199202071000000015000
B0605113303992S11705302EA0199402080000000015000
B0605153304061S11705315EA0200402089000000015000
B0605193304112S11705265EA0201102096000000015000
B0605233304123S11705191EA0201502098000000015000
B0605273304095S11705128EA0202002106000000015000
B0605313304045S11705104EA0203202119000000015000
B0605353303996S11705132EA0203702117000000000000
B0605393303974S11705202EA0203102112000000015000
B0605433303993S11705281EA0203002114000000015000
B0605473304053S11705336EA0203102113000000015000
B0605513304126S11705363EA0203402119000000015000
B0605553304204S11705372EA0203902120000000000000
B0605593304283S11705368EA0203702116000000000000
B0606033304367S11705356EA0202702103000000000000
B0606073304455S11705341EA0201302088000000000000
B0606113304545S11705324EA0200202079000000000000
B0606153304637S11705312EA0198802063000000000000
B0606193304736S11705302EA0197302046000000000000
B0606233304840S11705298EA0196502039000000000000
B0606273304942S11705293EA0196202039000000000000
B0606313305043S11705285EA0196302042000000000000
B0606353305140S11705277EA0196602044000000000000
B0606393305236S11705267EA0196402041000000000000
B0606433305332S11705254EA0196202040000000000000
B0606473305429S11705242EA0195702034000000000000
B0606513305525S11705229EA0195202029000000000000
B0606553305622S11705217EA0195002028000000000000
B0606593305720S11705208EA0194902024000000000000
B0607033305819S11705199EA0194502020000000000000
B0607073305916S11705190EA0193902014000000000000
B0607113306014S11705180EA0193102006000000000000
B0607153306111S11705169EA0192401998000000000000
B0607193306210S11705159EA0191701989000000000000
B0607233306309S11705148EA0191001984000000000000
B0607273306408S11705137EA0190301978000000000000
B0607313306502S11705124EA0190301981000000000000
B0607353306593S11705109EA0190701984000000000000
B0607393306679S11705094EA0191101986000000000000
B0607433306762S11705076EA0190701979000000000000
B0607473306846S11705054EA0190201975000000000000
B0607513306929S11705031EA0189401965000000000000
B0607553307012S11705008EA0189001963000000000000
B0607593307094S11704985EA0188801962000000000000
B0608033307175S11704961EA0188601959000000000000
B0608073307256S11704938EA0188401955000000000000
B0608113307334S11704912EA0187901949000000000000
B0608153307414S11704888EA0186801935000000000000
B0608193307493S11704870EA0185801928000000000000
B0608233307570S11704851EA0185501924000000000000
B0608273307645S11704827EA0184901916000000000000
B0608313307723S11704800EA0183801905000000000000
B0608353307802S11704770EA0182901891000000000000
B0608393307884S11704742EA0181701882000000000000
B0608433307966S11704712EA0181001872000000000000
B0608473308049S11704680EA0180001863000000000000
B0608513308135S11704649EA0179401860000000000000
B0608553308221S11704617EA0178601851000000000000
B0608593308308S11704586EA0177401837000000000000
B0609033308398S11704550EA0176901833000000000000
B0609073308489S11704513EA0176501829000000000000
B0609113308579S11704472EA0175901825000000000000
B0609153308667S11704432EA0175501819000000000000
B0609193308757S11704397EA0174801811000000000000
B0609233308848S11704365EA0174301804000000000000
B0609273308940S11704332EA0173701797000000000000
B0609313309030S11704297EA0173201796000000000000
B0609353309114S11704259EA0173101795000000000000
B0609393309199S11704222EA0173001794000000000000
B0609433309282S11704186EA0172801793000000000000
B0609473309366S11704154EA0172701790000000000000
B0609513309453S11704127EA0172301786000000000000
B0609553309542S11704106EA0172101784000000000000
B0609593309632S11704088EA0171601774000000000000
B0610033309725S11704071EA0170401762000000000000
B0610073309819S11704054EA0169501753000000000000
B0610113309915S11704036EA0168701746000000000000
B0610153310009S11704017EA0168201739000000000000
B0610193310101S11703998EA0167601734000000000000
B0610233310193S11703977EA0166801725000000000000
B0610273310282S11703955EA0166201720000000000000
B0610313310370S11703934EA0165501710000000000000
B0610353310460S11703915EA0164601699000000000000
B0610393310552S11703895EA0163701691000000000000
B0610433310646S11703877EA0162801681000000000000
B0610473310739S11703858EA0161801674000000000000
B0610513310833S11703841EA0161301666000000000000
B0610553310928S11703825EA0160701660000000000000
B0610593311023S11703812EA0160101654000000000000
B0611033311119S11703800EA0159501645000000000000
B0611073311219S11703789EA0158301631000000000000
B0611113311320S11703781EA0157301624000000000000
B0611153311420S11703772EA0157001623000000000000
B0611193311519S11703763EA0156601616000000000000
B0611233311618S11703755EA0156101614000000000000
B0611273311710S11703741EA0156101612000000000000
B0611313311801S11703718EA0155501607000000000000
B0611353311887S11703696EA0155101603000000000000
B0611393311968S11703670EA0155401610000000000000
B0611433312038S11703637EA0156101618000000000000
B0611473312100S11703596EA0157501637000000000000
B0611513312138S11703544EA0158901641000000000000
B0611553312120S11703490EA0158501635000000000000
B0611593312066S11703465EA0158301638000000000000
B0612033312008S11703465EA0158901645000000000000
B0612073311973S11703533EA0159501650000000000000
B0612113312003S11703609EA0159901653000000000000
B0612153312068S11703635EA0160101658000000015000
B0612193312120S11703604EA0160301657000000015000
B0612233312138S11703539EA0159401645000000015000
B0612273312117S11703473EA0159101648000000015000
B0612313312070S11703438EA0160501666000000015000
B0612353312025S11703473EA0162301685000000015000
B0612393312040S11703548EA0163301692000000015000
B0612433312102S11703577EA0163401692000000015000
B0612473312155S11703543EA0163501693000000015000
B0612513312172S11703479EA0163701696000000015000
B0612553312144S11703421EA0164001702000000015000
B0612593312091S11703416EA0165701724000000015000
B0613033312077S11703483EA0167601737000000015000
B0613073312126S11703543EA0167601737000000015000
B0613113312196S11703535EA0168301748000000015000
B0613153312234S11703479EA0169301757000000015000
B0613193312230S11703413EA0170101762000000015000
B0613233312190S11703373EA0170801779000000015000
B0613273312139S11703387EA0172701798000000015000
B0613313312113S11703451EA0174201807000000015000
B0613353312137S11703527EA0174701811000000015000
B0613393312198S11703569EA0175101819000000015000
B0613433312260S11703549EA0175801826000000030000
B0613473312294S11703488EA0176301829000000030000
B0613513312280S11703423EA0177001841000000015000
B0613553312228S11703409EA0178401855000000015000
B0613593312183S11703461EA0179201863000000015000
B0614033312189S11703546EA0180101874000000015000
B0614073312242S11703601EA0181101883000000015000
B0614113312310S11703603EA0182001892000000030000
B0614153312360S11703555EA0182401896000000030000
B0614193312371S11703483EA0183101904000000030000
B0614233312334S11703429EA0183801910000000015000
B0614273312277S11703430EA0185101931000000015000
B0614313312237S11703488EA0186101941000000015000
B0614353312245S11703572EA0187101951000000015000
B0614393312294S11703633EA0187701960000000015000
B0614433312359S11703646EA0188701971000000030000
B0614473312412S11703607EA0189401977000000030000
B0614513312437S11703538EA0189801980000000030000
B0614553312421S11703468EA0189901979000000030000
B0614593312373S11703426EA0190501987000000015000
B0615033312312S11703442EA0191301995000000015000
B0615073312280S11703510EA0192302004000000015000
B0615113312303S11703595EA0192702006000000015000
B0615153312368S11703640EA0193002008000000015000
B0615193312441S11703637EA0193202012000000015000
B0615233312497S11703594EA0193902019000000015000
B0615273312520S11703523EA0194002014000000015000
B0615313312495S11703458EA0194102018000000015000
B0615353312443S11703439EA0194702023000000015000
B0615393312386S11703469EA0194602022000000015000
B0615433312330S11703514EA0194902028000000000000
B0615473312278S11703561EA0196002041000000000000
B0615513312233S11703616EA0196002034000000000000
B0615553312234S11703699EA0195202023000000000000
B0615593312297S11703759EA0194002012000000015000
B0616033312377S11703770EA0193302012000000000000
B0616073312458S11703765EA0193402010000000000000
B0616113312541S11703752EA0192902002000000000000
B0616153312625S11703739EA0192602003000000000000
B0616193312710S11703726EA0192501999000000000000
B0616233312796S11703716EA0191401984000000000000
B0616273312884S11703702EA0189801972000000000000
B0616313312973S11703689EA0189201960000000000000
B0616353313062S11703673EA0187901947000000000000
B0616393313153S11703653EA0186801937000000000000
B0616433313244S11703627EA0185901928000000000000
B0616473313337S11703601EA0185001918000000000000
B0616513313431S11703578EA0184001906000000000000
B0616553313528S11703561EA0183001897000000000000
B0616593313624S11703547EA0182401892000000000000
B0617033313720S11703535EA0181401880000000000000
B0617073313816S11703525EA0180501871000000000000
B0617113313912S11703516EA0179701862000000000000
B0617153314007S11703504EA0179701867000000000000
B0617193314101S11703494EA0179701863000000000000
B0617233314195S11703484EA0178801854000000000000
B0617273314288S11703477EA0178001844000000000000
B0617313314384S11703469EA0177101836000000000000
B0617353314481S11703462EA0176601827000000000000
B0617393314575S11703455EA0175601821000000000000
B0617433314668S11703444EA0175101814000000000000
B0617473314757S11703432EA0174901813000000000000
B0617513314845S11703417EA0174701810000000000000
B0617553314934S11703401EA0173801798000000000000
B0617593315024S11703383EA0173701801000000000000
B0618033315111S11703364EA0173801803000000000000
B0618073315194S11703334EA0173801799000000000000
B0618113315280S11703308EA0173301798000000000000
B0618153315367S11703288EA0174101811000000000000
B0618193315448S11703263EA0175501823000000000000
B0618233315489S11703201EA0176601832000000000000
B0618273315452S11703143EA0176501823000000000000
B0618313315391S11703161EA0175701816000000000000
B0618353315362S11703236EA0174701805000000000000
B0618393315379S11703327EA0174701811000000015000
B0618433315418S11703413EA0175301818000000000000
B0618473315476S11703486EA0175501817000000000000
B0618513315554S11703530EA0175701827000000000000
B0618553315635S11703526EA0177201849000000000000
B0618593315686S11703471EA0179401863000000015000
B0619033315677S11703396EA0179001854000000015000
B0619073315617S11703354EA0178801858000000015000
B0619113315557S11703378EA0179701869000000015000
B0619153315543S11703452EA0180501872000000015000
B0619193315586S11703525EA0180101863000000015000
B0619233315662S11703561EA0179901871000000015000
B0619273315742S11703564EA0181001878000000015000
B0619313315817S11703544EA0181901887000000015000
B0619353315894S11703521EA0182401889000000015000
B0619393315977S11703497EA0182601894000000000000
B0619433316059S11703468EA0183101903000000000000
B0619473316119S11703409EA0184201910000000000000
B0619513316093S11703344EA0184901917000000000000
B0619553316033S11703338EA0185301926000000000000
B0619593315981S11703370EA0186101936000000000000
B0620033315953S11703438EA0186801943000000000000
B0620073315982S11703508EA0188201958000000015000
B0620113316054S11703501EA0189101965000000015000
B0620153316091S11703431EA0189601968000000015000
B0620193316072S11703353EA0189101962000000015000
B0620233316011S11703326EA0189301965000000015000
B0620273315957S11703364EA0189801974000000015000
B0620313315946S11703436EA0190601980000000015000
B0620353315982S11703504EA0191001987000000015000
B0620393316046S11703540EA0191801998000000015000
B0620433316116S11703535EA0193102008000000015000
B0620473316160S11703474EA0193602011000000015000
B0620513316137S11703417EA0194302022000000015000
B0620553316087S11703430EA0194702020000000015000
B0620593316077S11703496EA0194802028000000015000
B0621033316111S11703561EA0196102039000000015000
B0621073316167S11703598EA0197202058000000015000
B0621113316229S11703570EA0198802068000000015000
B0621153316238S11703501EA0199502072000000015000
B0621193316194S11703474EA0199902079000000015000
B0621233316152S11703508EA0200302084000000015000
B0621273316147S11703574EA0201302092000000015000
B0621313316184S11703638EA0201802096000000015000
B0621353316250S11703664EA0202802110000000015000
B0621393316301S11703617EA0204602131000000015000
B0621433316278S11703568EA0205902142000000015000
B0621473316236S11703595EA0206102142000000015000
B0621513316245S11703665EA0206702153000000015000
B0621553316301S11703705EA0208102167000000015000
B0621593316367S11703685EA0209002177000000015000
B0622033316403S11703612EA0209502177000000015000
B0622073316373S11703551EA0209902185000000015000
B0622113316319S11703557EA0210602192000000015000
B0622153316285S11703616EA0210702190000000015000
B0622193316302S11703692EA0211402202000000015000
B0622233316360S11703743EA0211802205000000015000
B0622273316438S11703738EA0212402215000000015000
B0622313316501S11703686EA0213802228000000030000
B0622353316527S11703611EA0214702236000000030000
B0622393316512S11703540EA0215002237000000030000
B0622433316467S11703500EA0214802236000000030000
B0622473316407S11703483EA0214002224000000015000
B0622513316343S11703505EA0213502227000000015000
B0622553316303S11703568EA0214002229000000015000
B0622593316303S11703653EA0213702227000000015000
B0623033316349S11703728EA0214002234000000015000
B0623073316423S11703760EA0215102248000000015000
B0623113316497S11703748EA0217002259000000030000
B0623153316515S11703673EA0217702265000000030000
B0623193316470S11703635EA0218802282000000030000
B0623233316428S11703676EA0219902294000000030000
B0623273316429S11703748EA0220402302000000030000
B0623313316479S11703806EA0221002308000000030000
B0623353316553S11703813EA0221502313000000030000
B0623393316619S11703772EA0222002316000000030000
B0623433316644S11703689EA0221502310000000030000
B0623473316623S11703604EA0221302311000000030000
B0623513316576S11703549EA0222402321000000015000
B0623553316519S11703544EA0222202315000000015000
B0623593316466S11703585EA0221502309000000015000
B0624033316440S11703657EA0220902304000000015000
B0624073316429S11703744EA0220602305000000015000
B0624113316427S11703834EA0220902311000000015000
B0624153316431S11703925EA0221702317000000015000
B0624193316440S11704016EA0222502328000000000000
B0624233316464S11704103EA0223502339000000000000
B0624273316503S11704183EA0225002353000000000000
B0624313316575S11704202EA0226202365000000015000
B0624353316629S11704155EA0226402363000000015000
B0624393316633S11704084EA0225802355000000015000
B0624433316593S11704034EA0224902345000000015000
B0624473316531S11704019EA0223902341000000015000
B0624513316464S11704012EA0224002348000000015000
B0624553316401S11704028EA0224702359000000015000
B0624593316347S11704072EA0226002372000000000000
B0625033316306S11704132EA0226902376000000000000
B0625073316277S11704206EA0228002393000000000000
B0625113316256S11704283EA0229902414000000000000
B0625153316265S11704365EA0231602422000000000000
B0625193316334S11704393EA0231802425000000015000
B0625233316381S11704342EA0232502437000000015000
B0625273316369S11704275EA0233502445000000015000
B0625313316312S11704249EA0233802447000000015000
B0625353316249S11704284EA0234702458000000015000
B0625393316251S11704372EA0236602483000000015000
B0625433316319S11704401EA0238702500000000030000
B0625473316375S11704359EA0239302501000000030000
B0625513316371S11704288EA0240202514000000030000
B0625553316319S11704254EA0241502526000000030000
B0625593316262S11704287EA0242102530000000015000
B0626033316242S11704370EA0242702542000000030000
B0626073316282S11704444EA0244202557000000030000
B0626113316359S11704461EA0244902559000000030000
B0626153316415S11704407EA0245502569000000030000
B0626193316399S11704339EA0246402580000000030000
B0626233316342S11704320EA0247402589000000030000
B0626273316284S11704355EA0248202598000000030000
B0626313316260S11704432EA0249502611000000030000
B0626353316295S11704506EA0250702622000000030000
B0626393316366S11704532EA0251502629000000030000
B0626433316429S11704497EA0252302636000000030000
B0626473316454S11704427EA0252802641000000015000
B0626513316432S11704362EA0253302646000000015000
B0626553316376S11704339EA0254002654000000015000
B0626593316319S11704362EA0254702658000000015000
B0627033316272S11704419EA0255002662000000015000
B0627073316237S11704495EA0255502670000000000000
B0627113316208S11704580EA0256402679000000000000
B0627153316191S11704671EA0257502688000000000000
B0627193316226S11704756EA0258402696000000000000
B0627233316304S11704784EA0258802698000000000000
B0627273316376S11704747EA0259102709000000015000
B0627313316410S11704674EA0259902717000000015000
B0627353316401S11704599EA0260302714000000015000
B0627393316354S11704541EA0260202717000000015000
B0627433316289S11704510EA0260902723000000015000
B0627473316228S11704553EA0262502746000000015000
B0627513316223S11704638EA0264802765000000015000
B0627553316264S11704710EA0265602766000000000000
B0627593316338S11704734EA0265502765000000015000
B0628033316402S11704693EA0265802770000000015000
B0628073316429S11704621EA0266002772000000015000
B0628113316416S11704543EA0266202780000000015000
B0628153316366S11704497EA0267302793000000015000
B0628193316306S11704535EA0268302799000000015000
B0628233316303S11704623EA0269302813000000015000
B0628273316364S11704667EA0270502820000000015000
B0628313316423S11704627EA0270202812000000015000
B0628353316431S11704548EA0269702816000000015000
B0628393316394S11704482EA0270202820000000015000
B0628433316330S11704446EA0270102817000000015000
B0628473316258S11704457EA0270102816000000015000
B0628513316197S11704518EA0270002813000000015000
B0628553316160S11704608EA0269502808000000015000
B0628593316134S11704708EA0269002803000000000000
B0629033316103S11704809EA0269202810000000000000
B0629073316074S11704903EA0269902818000000000000
B0629113316056S11704992EA0270002813000000000000
B0629153316090S11705076EA0268302788000000000000
B0629193316171S11705098EA0265902768000000000000
B0629233316254S11705080EA0264202745000000000000
B0629273316338S11705048EA0261902720000000000000
B0629313316427S11705007EA0259802708000000000000
B0629353316518S11704957EA0259302706000000000000
B0629393316606S11704903EA0259902718000000000000
B0629433316693S11704851EA0260702722000000000000
B0629473316778S11704797EA0261402733000000000000
B0629513316858S11704744EA0262002734000000000000
B0629553316940S11704690EA0262102737000000000000
B0629593317021S11704635EA0262202733000000000000
B0630033317105S11704580EA0260902715000000000000
B0630073317198S11704527EA0258802693000000000000
B0630113317295S11704475EA0257202684000000000000
B0630153317391S11704424EA0256802678000000000000
B0630193317486S11704374EA0255902669000000000000
B0630233317582S11704323EA0254702654000000000000
B0630273317679S11704271EA0253502644000000000000
B0630313317775S11704216EA0252802637000000000000
B0630353317866S11704158EA0252202630000000000000
B0630393317955S11704097EA0251402618000000000000
B0630433318045S11704038EA0250702616000000000000
B0630473318135S11703984EA0250602614000000000000
B0630513318226S11703933EA0250202610000000000000
B0630553318317S11703885EA0249902605000000000000
B0630593318409S11703841EA0249202600000000000000
B0631033318501S11703798EA0248602593000000000000
B0631073318595S11703755EA0248102586000000000000
B0631113318689S11703713EA0247502582000000000000
B0631153318780S11703676EA0247302581000000000000
B0631193318869S11703638EA0247102578000000000000
B0631233318955S11703601EA0246602571000000000000
B0631273319042S11703566EA0245902562000000000000
B0631313319131S11703536EA0244702548000000000000
B0631353319219S11703510EA0243702540000000000000
B0631393319310S11703488EA0242902530000000000000
B0631433319404S11703471EA0242002520000000000000
B0631473319497S11703453EA0241302513000000000000
B0631513319592S11703434EA0240402504000000000000
B0631553319688S11703410EA0239702500000000000000
B0631593319781S11703383EA0239502498000000000000
B0632033319869S11703353EA0238802488000000000000
B0632073319957S11703325EA0237502475000000000000
B0632113320048S11703301EA0236502461000000000000
B0632153320139S11703273EA0235202449000000000000
B0632193320225S11703231EA0233902435000000000000
B0632233320303S11703175EA0232802426000000000000
B0632273320373S11703111EA0232702427000000000000
B0632313320432S11703039EA0232302419000000000000
B0632353320484S11702955EA0230802404000000000000
B0632393320533S11702863EA0229602387000000000000
B0632433320576S11702767EA0228702383000000000000
B0632473320617S11702673EA0228602382000000000000
B0632513320661S11702585EA0228102374000000000000
B0632553320709S11702496EA0227202364000000000000
B0632593320763S11702412EA0226302356000000000000
B0633033320823S11702330EA0225602349000000000000
B0633073320878S11702251EA0226502370000000000000
B0633113320929S11702178EA0227702376000000000000
B0633153320981S11702109EA0228402381000000000000
B0633193321042S11702049EA0228502383000000000000
B0633233321099S11701988EA0228902385000000000000
B0633273321101S11701908EA0228502377000000000000
B0633313321047S11701861EA0227502367000000000000
B0633353320974S11701862EA0226402358000000000000
B0633393320897S11701875EA0225002337000000000000
B0633433320814S11701891EA0223402322000000000000
B0633473320730S11701910EA0222202312000000000000
B0633513320644S11701934EA0222002312000000000000
B0633553320559S11701960EA0222402321000000000000
B0633593320476S11701991EA0224402348000000000000
B0634033320425S11702060EA0227202371000000000000
B0634073320451S11702139EA0228602377000000000000
B0634113320522S11702162EA0227902366000000015000
B0634153320593S11702126EA0227502373000000015000
B0634193320656S11702073EA0229102391000000000000
B0634233320675S11702005EA0231302417000000015000
B0634273320628S11701982EA0233002426000000015000
B0634313320587S11702038EA0234002445000000015000
B0634353320598S11702117EA0236602472000000015000
B0634393320652S11702170EA0238602491000000015000
B0634433320723S11702169EA0239402500000000015000
B0634473320774S11702114EA0239902506000000015000
B0634513320779S11702041EA0240302511000000015000
B0634553320741S11701993EA0240902518000000015000
B0634593320683S11701995EA0241702527000000015000
B0635033320640S11702048EA0243302550000000015000
B0635073320645S11702126EA0245602569000000015000
B0635113320692S11702187EA0247302587000000015000
B0635153320762S11702207EA0248802598000000015000
B0635193320828S11702178EA0249302600000000015000
B0635233320869S11702114EA0249302591000000015000
B0635273320873S11702036EA0248002580000000015000
B0635313320838S11701969EA0247802583000000015000
B0635353320787S11701927EA0248402594000000000000
B0635393320723S11701919EA0249602607000000000000
B0635433320669S11701957EA0250902622000000000000
B0635473320666S11702030EA0252602635000000000000
B0635513320726S11702080EA0252802633000000000000
B0635553320793S11702052EA0254602665000000015000
B0635593320809S11701988EA0257602695000000015000
B0636033320778S11701949EA0259202706000000015000
B0636073320727S11701957EA0259502709000000015000
B0636113320695S11702010EA0260202714000000015000
B0636153320706S11702083EA0260002710000000015000
B0636193320766S11702132EA0260302723000000015000
B0636233320834S11702113EA0261702734000000015000
B0636273320854S11702045EA0263202751000000015000
B0636313320817S11702012EA0264802764000000015000
B0636353320776S11702047EA0265002761000000015000
B0636393320779S11702125EA0264802760000000015000
B0636433320825S11702199EA0265502773000000015000
B0636473320893S11702239EA0267502795000000015000
B0636513320964S11702218EA0268602803000000015000
B0636553320996S11702153EA0268902804000000015000
B0636593320982S11702087EA0268902804000000015000
B0637033320931S11702058EA0269002809000000015000
B0637073320873S11702071EA0269902818000000015000
B0637113320838S11702132EA0270602826000000015000
B0637153320844S11702220EA0271102830000000015000
B0637193320893S11702296EA0272002840000000000000
B0637233320970S11702316EA0273502855000000015000
B0637273321010S11702256EA0274602869000000015000
B0637313320987S11702205EA0275602876000000015000
B0637353320935S11702209EA0275502872000000015000
B0637393320890S11702268EA0275302875000000015000
B0637433320882S11702359EA0275602875000000015000
B0637473320930S11702434EA0276002878000000015000
B0637513321012S11702435EA0276402887000000015000
B0637553321077S11702387EA0276602884000000015000
B0637593321104S11702312EA0276602888000000015000
B0638033321113S11702233EA0276802887000000000000
B0638073321095S11702158EA0276802890000000000000
B0638113321062S11702095EA0276902890000000000000
B0638153321018S11702041EA0276602880000000000000
B0638193320952S11702017EA0274602854000000000000
B0638233320870S11702028EA0273302857000000000000
B0638273320792S11702049EA0273902866000000000000
B0638313320715S11702071EA0274702873000000000000
B0638353320640S11702096EA0275002874000000000000
B0638393320565S11702122EA0275002875000000000000
B0638433320487S11702142EA0274802869000000000000
B0638473320406S11702156EA0274302857000000000000
B0638513320321S11702175EA0272202835000000000000
B0638553320237S11702200EA0271002830000000000000
B0638593320155S11702230EA0271402838000000000000
B0639033320076S11702262EA0272202844000000000000
B0639073320002S11702301EA0273002855000000000000
B0639113319931S11702338EA0273302852000000000000
B0639153319857S11702377EA0272502844000000000000
B0639193319779S11702415EA0271902836000000000000
B0639233319697S11702450EA0270602822000000000000
B0639273319614S11702481EA0270102814000000000000
B0639313319530S11702506EA0269402811000000000000
B0639353319445S11702529EA0268602800000000000000
B0639393319361S11702548EA0268602808000000000000
B0639433319279S11702569EA0268802797000000000000
B0639473319190S11702589EA0267702794000000000000
B0639513319105S11702611EA0268202797000000000000
B0639553319020S11702633EA0266802774000000000000
B0639593318930S11702660EA0265202762000000000000
B0640033318841S11702686EA0264602756000000000000
B0640073318748S11702703EA0264002750000000000000
B0640113318656S11702714EA0263702752000000000000
B0640153318570S11702719EA0264502766000000000000
B0640193318492S11702723EA0265902775000000000000
B0640233318417S11702725EA0265902771000000000000
B0640273318339S11702727EA0265102763000000000000
B0640313318260S11702717EA0264802760000000000000
B0640353318180S11702704EA0264502757000000000000
B0640393318102S11702690EA0264202751000000000000
B0640433318022S11702673EA0263502743000000000000
B0640473317941S11702658EA0262602737000000000000
B0640513317857S11702649EA0262102732000000000000
B0640553317771S11702652EA0261502725000000000000
B0640593317682S11702668EA0260602712000000000000
B0641033317594S11702689EA0259702707000000000000
B0641073317508S11702712EA0259202702000000000000
B0641113317424S11702737EA0258902698000000000000
B0641153317341S11702760EA0258602695000000000000
B0641193317257S11702781EA0258502695000000000000
B0641233317177S11702798EA0258502698000000000000
B0641273317097S11702816EA0258502693000000000000
B0641313317017S11702834EA0257802686000000000000
B0641353316938S11702854EA0257302681000000000000
B0641393316857S11702868EA0256602672000000000000
B0641433316776S11702876EA0255802664000000000000
B0641473316696S11702880EA0255002657000000000000
B0641513316616S11702881EA0254902654000000000000
B0641553316538S11702877EA0254302648000000000000
B0641593316463S11702875EA0253802642000000000000
B0642033316386S11702870EA0253102633000000000000
B0642073316310S11702864EA0252502629000000000000
B0642113316233S11702857EA0251802618000000000000
B0642153316154S11702846EA0250802612000000000000
B0642193316074S11702836EA0250502609000000000000
B0642233315996S11702821EA0250302606000000000000
B0642273315920S11702808EA0249902604000000000000
B0642313315839S11702793EA0249602601000000000000
B0642353315760S11702775EA0249102589000000000000
B0642393315677S11702759EA0247702574000000000000
B0642433315589S11702743EA0246702565000000000000
B0642473315504S11702725EA0245902556000000000000
B0642513315418S11702704EA0245302552000000000000
B0642553315332S11702686EA0244902548000000000000
B0642593315248S11702669EA0244802547000000000000
B0643033315164S11702654EA0244502541000000000000
B0643073315080S11702641EA0243702532000000000000
B0643113314995S11702630EA0242902524000000000000
B0643153314911S11702626EA0241902515000000000000
B0643193314824S11702630EA0241202509000000000000
B0643233314738S11702634EA0240902506000000000000
B0643273314652S11702638EA0240602503000000000000
B0643313314568S11702643EA0240202499000000000000
B0643353314481S11702652EA0239202485000000000000
B0643393314391S11702662EA0238602485000000000000
B0643433314305S11702672EA0239202497000000000000
B0643473314226S11702680EA0239902496000000000000
B0643513314146S11702689EA0239102485000000000000
B0643553314066S11702697EA0237802472000000000000
B0643593313983S11702702EA0236902462000000000000
B0644033313901S11702707EA0235902453000000000000
B0644073313821S11702714EA0235302446000000000000
B0644113313743S11702720EA0234002428000000000000
B0644153313663S11702725EA0232302412000000000000
B0644193313580S11702730EA0231202404000000000000
B0644233313499S11702736EA0231202404000000000000
B0644273313418S11702738EA0230602390000000000000
B0644313313334S11702742EA0229102381000000000000
B0644353313251S11702742EA0229602395000000000000
B0644393313171S11702732EA0232102428000000000000
B0644433313103S11702716EA0235002454000000000000
B0644473313044S11702737EA0236602464000000000000
B0644513313034S11702810EA0237002465000000000000
B0644553313090S11702871EA0236002448000000000000
B0644593313177S11702875EA0234902443000000015000
B0645033313243S11702812EA0234902455000000015000
B0645073313281S11702727EA0236902475000000015000
B0645113313304S11702639EA0238702494000000000000
B0645153313294S11702558EA0239802495000000000000
B0645193313239S11702551EA0239302488000000000000
B0645233313197S11702602EA0238802487000000000000
B0645273313165S11702672EA0238002477000000000000
B0645313313123S11702743EA0237302472000000000000
B0645353313074S11702811EA0236902467000000000000
B0645393313017S11702873EA0235002441000000000000
B0645433312943S11702928EA0233002423000000000000
B0645473312861S11702974EA0232002416000000000000
B0645513312775S11703010EA0231502411000000000000
B0645553312688S11703040EA0230902403000000000000
B0645593312597S11703070EA0230002394000000000000
B0646033312506S11703097EA0229302386000000000000
B0646073312415S11703124EA0229102388000000000000
B0646113312328S11703148EA0229202386000000000000
B0646153312242S11703170EA0228402377000000000000
B0646193312159S11703192EA0227402363000000000000
B0646233312076S11703215EA0225902349000000000000
B0646273311991S11703235EA0224502334000000000000
B0646313311907S11703252EA0223002317000000000000
B0646353311819S11703267EA0221902302000000000000
B0646393311728S11703284EA0220702287000000000000
B0646433311632S11703296EA0219002275000000000000
B0646473311537S11703305EA0218702272000000000000
B0646513311444S11703314EA0218102263000000000000
B0646553311353S11703322EA0217402261000000000000
B0646593311263S11703327EA0216802252000000000000
B0647033311175S11703336EA0216202245000000000000
B0647073311088S11703351EA0215802243000000000000
B0647113311002S11703367EA0215302236000000000000
B0647153310917S11703388EA0214502227000000000000
B0647193310831S11703405EA0213802219000000000000
B0647233310746S11703416EA0213202212000000000000
B0647273310662S11703423EA0212602208000000000000
B0647313310578S11703436EA0211402189000000000000
B0647353310491S11703456EA0209602172000000000000
B0647393310404S11703477EA0208502163000000000000
B0647433310318S11703492EA0208202160000000000000
B0647473310232S11703508EA0207402146000000000000
B0647513310144S11703527EA0206002132000000000000
B0647553310057S11703553EA0204802119000000000000
B0647593309972S11703598EA0203902113000000000000
B0648033309895S11703657EA0203702116000000000000
B0648073309820S11703716EA0203602115000000000000
B0648113309746S11703770EA0204402126000000000000
B0648153309673S11703817EA0204902126000000000000
B0648193309600S11703861EA0204602127000000000000
B0648233309526S11703890EA0205702140000000000000
B0648273309456S11703894EA0206902155000000000000
B0648313309392S11703885EA0207602154000000000000
B0648353309325S11703882EA0207002147000000000000
B0648393309256S11703877EA0206202141000000000000
B0648433309184S11703868EA0205702134000000000000
B0648473309112S11703859EA0204602117000000000000
B0648513309034S11703847EA0202502096000000000000
B0648553308953S11703835EA0201202084000000000000
B0648593308871S11703833EA0200002066000000000000
B0649033308784S11703833EA0197702047000000000000
B0649073308698S11703829EA0197202048000000000000
B0649113308616S11703820EA0197002037000000000000
B0649153308536S11703815EA0196102028000000000000
B0649193308455S11703809EA0195002019000000000000
B0649233308377S11703800EA0194802023000000000000
B0649273308300S11703791EA0194902025000000000000
B0649313308224S11703780EA0195302027000000000000
B0649353308151S11703773EA0196402049000000000000
B0649393308085S11703764EA0198602073000000000000
