ACAM4N6
HFDTE160222
HFFXA050
HFPLTPILOT:JOHN WELSH              
HFGTYGLIDERTYPE:HORNET      
HFGIDGLIDERID:VH-GMY      
HFDTM100GPSDATUM:
HFRFWFIRMWAREVERSION:F2.6
HFRHWHARDWAREVERSION:300 Series Version 2
HFFTYFRTYPE:CAMBRIDGE AERO INSTRUMENTS, 302+
HFGPS:GARMIN,LVS-25,12,18000
HFPRSPRESSALTSENSOR:INTERSEMA, MS5534-AP, 20000
I033638FXA3941ENL4247REX
LCAMSBVER:5FWVER:F26300
C160222033151160222000102
C0000000N00000000WTAKEOFF     
C3207549S11656849EBEVAIR      
C3301432S11652383EWilliams    
C3230082S11842715EKalgarin    
C3207549S11656849EBEVAIR      
C0000000N00000000WLANDING     
B0339033207384S11656886EA0017400205000000000000
B0339053207384S11656886EA0017400205000000000000
B0339073207384S11656886EA0017400205000000000000
B0339093207384S11656886EA0017400205000000000000
B0339113207384S11656886EA0017500205000000000000
B0339133207384S11656886EA0017500205000000000000
B0339153207384S11656886EA0017500205000000000000
B0339173207384S11656886EA0017500205000000000000
B0339193207384S11656886EA0017400205000000000000
B0339213207384S11656886EA0017400205000000000000
B0339233207384S11656886EA0017500205000000000000
B0339253207384S11656886EA0017500205000000000000
B0339273207384S11656886EA0017500205000000000000
B0339293207385S11656886EA0017500205000000000000
B0339313207386S11656887EA0017400205000000000000
B0339363207399S11656899EA0017400205000000000000
B0339403207428S11656921EA0017500205000000000000
B0339443207471S11656949EA0017600206000000000000
B0339483207524S11656983EA0017800207000000000000
B0339523207585S11657020EA0018200214000000000000
B0339563207649S11657060EA0019000223000000000000
B0340003207714S11657103EA0019600228000000000000
B0340043207781S11657151EA0019800232000000000000
B0340083207849S11657203EA0020300241000000000000
B0340123207915S11657259EA0021300259000000000000
B0340163207974S11657319EA0023700282000000000000
B0340203208031S11657378EA0024800296000000000000
B0340243208083S11657442EA0026600317000000000000
B0340283208129S11657506EA0028400339000000000000
B0340323208169S11657571EA0030300353000000000000
B0340363208204S11657638EA0031700365000000000000
B0340403208233S11657711EA0032600379000000000000
B0340443208260S11657789EA0033800387000000000000
B0340483208286S11657870EA0034100392000000000000
B0340523208309S11657953EA0034700399000000000000
B0340563208329S11658040EA0035600410000000000000
B0341003208343S11658127EA0037200432000000000000
B0341043208357S11658212EA0039400453000000000000
B0341083208365S11658299EA0040500458000000000000
B0341123208374S11658387EA0041000466000000000000
B0341163208381S11658473EA0042400481000000000000
B0341203208386S11658559EA0043800495000000000000
B0341243208389S11658646EA0045000508000000000000
B0341283208385S11658736EA0046700526000000000000
B0341323208379S11658827EA0049000551000000000000
B0341363208369S11658916EA0051600581000000000000
B0341403208363S11659002EA0054200607000000000000
B0341443208356S11659081EA0056200631000000000000
B0341483208350S11659158EA0058200651000000000000
B0341523208344S11659235EA0059600662000000000000
B0341563208342S11659315EA0060200666000000000000
B0342003208329S11659400EA0060600670000000000000
B0342043208314S11659488EA0060700671000000000000
B0342083208299S11659575EA0061400681000000000000
B0342123208285S11659662EA0062500696000000000000
B0342163208266S11659750EA0064300714000000000000
B0342203208247S11659835EA0066100737000000000000
B0342243208229S11659917EA0068900767000000000000
B0342283208238S11659984EA0070500770000000000000
B0342323208286S11659999EA0070100761000000000000
B0342363208324S11659946EA0068700741000000000000
B0342403208317S11659863EA0066900733000000000000
B0342443208286S11659778EA0067000738000000000000
B0342483208236S11659713EA0068400754000000000000
B0342523208182S11659740EA0070100768000000000000
B0342563208187S11659800EA0069800759000000000000
B0343003208238S11659799EA0069700765000000000000
B0343043208264S11659734EA0070900776000000015000
B0343083208221S11659677EA0071800785000000015000
B0343123208169S11659711EA0072100783000000015000
B0343163208191S11659765EA0072000785000000015000
B0343203208240S11659751EA0072200790000000015000
B0343243208257S11659685EA0073200802000000015000
B0343283208201S11659652EA0073900806000000015000
B0343323208162S11659703EA0073800800000000015000
B0343363208197S11659748EA0073600808000000015000
B0343403208242S11659714EA0074800824000000015000
B0343443208229S11659648EA0076200833000000015000
B0343483208166S11659636EA0076400829000000015000
B0343523208138S11659690EA0076600834000000015000
B0343563208170S11659724EA0077100839000000015000
B0344003208210S11659687EA0077900854000000015000
B0344043208196S11659623EA0079300866000000030000
B0344083208136S11659607EA0079200858000000030000
B0344123208100S11659660EA0078600856000000015000
B0344163208134S11659704EA0078800858000000015000
B0344203208184S11659678EA0079400867000000015000
B0344243208164S11659613EA0080300880000000015000
B0344283208103S11659614EA0081300884000000015000
B0344323208084S11659672EA0081700888000000015000
B0344363208126S11659696EA0082200896000000015000
B0344403208158S11659644EA0082800904000000015000
B0344443208131S11659577EA0083500912000000015000
B0344483208071S11659551EA0084200915000000015000
B0344523208021S11659587EA0084100911000000015000
B0344563208012S11659651EA0083500902000000015000
B0345003208051S11659691EA0083300908000000015000
B0345043208099S11659679EA0084400923000000015000
B0345083208108S11659614EA0085600932000000015000
B0345123208058S11659571EA0086100935000000015000
B0345163208000S11659599EA0086100930000000015000
B0345203207991S11659664EA0085900933000000015000
B0345243208032S11659682EA0086600942000000015000
B0345283208057S11659627EA0087600953000000015000
B0345323208017S11659571EA0088200956000000015000
B0345363207954S11659575EA0088400957000000015000
B0345403207919S11659627EA0088000953000000015000
B0345443207940S11659674EA0087900955000000015000
B0345483207984S11659686EA0087900954000000015000
B0345523208026S11659660EA0087900952000000015000
B0345563208028S11659590EA0088300951000000015000
B0346003207970S11659556EA0088200953000000015000
B0346043207931S11659604EA0088400954000000015000
B0346083207956S11659653EA0088000953000000015000
B0346123208004S11659634EA0088300960000000015000
B0346163208004S11659565EA0089200965000000015000
B0346203207947S11659526EA0089100961000000015000
B0346243207888S11659560EA0088700959000000015000
B0346283207884S11659627EA0088500959000000015000
B0346323207923S11659659EA0089000967000000015000
B0346363207967S11659633EA0089600974000000015000
B0346403207980S11659568EA0090100978000000015000
B0346443207962S11659496EA0090500983000000000000
B0346483207913S11659451EA0091000984000000015000
B0346523207850S11659461EA0090400975000000015000
B0346563207820S11659517EA0089600967000000015000
B0347003207824S11659581EA0088900963000000000000
B0347043207839S11659640EA0088900967000000000000
B0347083207857S11659698EA0089000963000000000000
B0347123207889S11659744EA0087800947000000000000
B0347163207943S11659744EA0086500937000000000000
B0347203207974S11659687EA0085300925000000000000
B0347243207967S11659608EA0083900910000000015000
B0347283207950S11659526EA0083900917000000000000
B0347323207930S11659445EA0084500922000000000000
B0347363207865S11659427EA0084800921000000000000
B0347403207846S11659486EA0084800923000000015000
B0347443207891S11659509EA0084800925000000000000
B0347483207927S11659464EA0085300928000000015000
B0347523207918S11659393EA0085700924000000015000
B0347563207861S11659354EA0085000916000000015000
B0348003207800S11659373EA0084600914000000015000
B0348043207784S11659427EA0084600915000000015000
B0348083207820S11659449EA0084300911000000015000
B0348123207858S11659409EA0084000912000000015000
B0348163207858S11659339EA0083300902000000015000
B0348203207841S11659263EA0082500895000000015000
B0348243207820S11659188EA0081900885000000000000
B0348283207800S11659110EA0080600866000000000000
B0348323207772S11659031EA0078900850000000000000
B0348363207741S11658954EA0077600839000000000000
B0348403207706S11658880EA0076500829000000000000
B0348443207668S11658804EA0075600817000000000000
B0348483207625S11658733EA0074500809000000000000
B0348523207579S11658665EA0074900818000000000000
B0348563207529S11658603EA0076600837000000000000
B0349003207467S11658608EA0078800859000000000000
B0349043207472S11658661EA0080000871000000000000
B0349083207519S11658639EA0081100886000000015000
B0349123207519S11658564EA0082600909000000015000
B0349163207463S11658522EA0084900927000000015000
B0349203207411S11658551EA0086500943000000015000
B0349243207419S11658608EA0088500963000000015000
B0349283207469S11658594EA0089900981000000015000
B0349323207472S11658520EA0091701001000000015000
B0349363207412S11658491EA0093801025000000015000
B0349403207378S11658537EA0096301048000000015000
B0349443207412S11658577EA0097601057000000015000
B0349483207454S11658531EA0099201083000000015000
B0349523207430S11658464EA0101301101000000015000
B0349563207368S11658456EA0102701111000000015000
B0350003207339S11658516EA0104001137000000015000
B0350043207376S11658560EA0106901159000000015000
B0350083207423S11658534EA0108401184000000015000
B0350123207425S11658468EA0110701202000000015000
B0350163207376S11658422EA0112201215000000015000
B0350203207323S11658448EA0113401228000000015000
B0350243207333S11658507EA0115701261000000015000
B0350283207380S11658503EA0117701277000000015000
B0350323207393S11658440EA0119301297000000015000
B0350363207345S11658398EA0121401313000000015000
B0350403207291S11658424EA0122701330000000015000
B0350443207299S11658479EA0124801349000000015000
B0350483207350S11658482EA0126101361000000015000
B0350523207364S11658417EA0127801380000000015000
B0350563207312S11658372EA0129801399000000015000
B0351003207260S11658401EA0131601419000000015000
B0351043207264S11658460EA0133301433000000015000
B0351083207316S11658478EA0133801441000000015000
B0351123207345S11658421EA0135401463000000015000
B0351163207303S11658366EA0137301482000000015000
B0351203207251S11658392EA0139001501000000015000
B0351243207255S11658452EA0140401511000000015000
B0351283207306S11658466EA0141101520000000015000
B0351323207338S11658411EA0142401539000000015000
B0351363207304S11658348EA0144101551000000015000
B0351403207243S11658352EA0145601572000000015000
B0351443207225S11658408EA0147401589000000015000
B0351483207263S11658446EA0148101592000000015000
B0351523207315S11658422EA0149101611000000015000
B0351563207329S11658356EA0151201629000000015000
B0352003207289S11658300EA0152301638000000015000
B0352043207226S11658304EA0153701656000000015000
B0352083207207S11658364EA0155101665000000015000
B0352123207252S11658403EA0156301682000000015000
B0352163207303S11658375EA0157401699000000015000
B0352203207312S11658307EA0158601705000000015000
B0352243207267S11658252EA0159301712000000015000
B0352283207211S11658265EA0160601732000000015000
B0352323207191S11658323EA0162201742000000015000
B0352363207221S11658378EA0163101752000000015000
B0352403207280S11658381EA0164101764000000015000
B0352443207320S11658326EA0165001770000000015000
B0352483207315S11658249EA0164701760000000015000
B0352523207267S11658192EA0164001757000000015000
B0352563207199S11658178EA0164201766000000015000
B0353003207139S11658200EA0165801788000000015000
B0353043207113S11658261EA0167601799000000015000
B0353083207142S11658318EA0168401803000000015000
B0353123207202S11658317EA0168301804000000015000
B0353163207238S11658253EA0169401820000000015000
B0353203207215S11658186EA0170601827000000015000
B0353243207164S11658186EA0171601836000000015000
B0353283207164S11658242EA0172401846000000015000
B0353323207213S11658277EA0172901855000000015000
B0353363207267S11658243EA0174101864000000015000
B0353403207261S11658170EA0174101858000000015000
B0353443207208S11658135EA0173401849000000015000
B0353483207157S11658170EA0173401865000000015000
B0353523207135S11658227EA0175201876000000015000
B0353563207169S11658279EA0175401872000000015000
B0354003207234S11658278EA0175501881000000015000
B0354043207278S11658219EA0176101880000000015000
B0354083207274S11658143EA0175601874000000015000
B0354123207233S11658078EA0174301854000000015000
B0354163207190S11658000EA0172601844000000000000
B0354203207156S11657913EA0173201856000000000000
B0354243207122S11657831EA0174101868000000000000
B0354283207087S11657750EA0174701869000000000000
B0354323207052S11657663EA0174401863000000000000
B0354363207022S11657572EA0173701857000000000000
B0354403206996S11657478EA0173101851000000000000
B0354443206968S11657382EA0172501845000000000000
B0354483206939S11657286EA0172201841000000000000
B0354523206913S11657190EA0171101828000000000000
B0354563206886S11657092EA0170001819000000000000
B0355003206860S11656996EA0169301810000000000000
B0355043206838S11656901EA0168601803000000000000
B0355083206821S11656806EA0167901792000000000000
B0355123206809S11656708EA0166701779000000000000
B0355163206801S11656607EA0165701769000000000000
B0355203206790S11656510EA0164601761000000000000
B0355243206778S11656414EA0164201756000000000000
B0355283206766S11656319EA0163501749000000000000
B0355323206754S11656227EA0162901741000000000000
B0355363206741S11656136EA0161901732000000000000
B0355403206723S11656050EA0161501727000000000000
B0355443206699S11655967EA0161401728000000000000
B0355483206661S11655890EA0161501728000000000000
B0355523206608S11655826EA0161401729000000000000
B0355563206539S11655783EA0161801734000000000000
B0356003206466S11655764EA0161801734000000000000
B0356043206390S11655768EA0162201738000000000000
B0356083206322S11655794EA0162401740000000000000
B0356123206263S11655838EA0162601741000000000000
B0356163206208S11655887EA0162101732000000000000
B0356203206164S11655950EA0161301725000000000000
B0356243206138S11656024EA0160501717000000000000
B0356283206128S11656102EA0159801709000000000000
B0356323206145S11656168EA0159301708000000000000
B0356363206190S11656206EA0159101704000000000000
B0356403206251S11656203EA0158001689000000000000
B0356443206312S11656167EA0156301673000000000000
B0356483206358S11656107EA0155601666000000000000
B0356523206393S11656035EA0155101658000000000000
B0356563206423S11655960EA0153901646000000000000
B0357003206441S11655874EA0153001640000000000000
B0357043206439S11655782EA0152601639000000000000
B0357083206428S11655688EA0153701658000000000000
B0357123206403S11655605EA0155701674000000000000
B0357163206338S11655592EA0157901702000000000000
B0357203206315S11655653EA0159401712000000000000
B0357243206355S11655684EA0160201720000000000000
B0357283206397S11655642EA0160701722000000000000
B0357323206379S11655571EA0161301735000000015000
B0357363206318S11655562EA0162901755000000015000
B0357403206294S11655621EA0164101758000000015000
B0357443206337S11655658EA0164501771000000015000
B0357483206381S11655623EA0165801780000000015000
B0357523206377S11655552EA0166201784000000015000
B0357563206320S11655519EA0167201800000000015000
B0358003206271S11655557EA0169001813000000015000
B0358043206281S11655622EA0169501816000000015000
B0358083206332S11655638EA0170501835000000015000
B0358123206372S11655595EA0171301839000000015000
B0358163206376S11655523EA0172001844000000015000
B0358203206331S11655471EA0172601855000000015000
B0358243206272S11655486EA0173901868000000015000
B0358283206263S11655548EA0175001878000000015000
B0358323206307S11655582EA0176201891000000015000
B0358363206358S11655560EA0177301898000000015000
B0358403206385S11655499EA0177801904000000015000
B0358443206363S11655435EA0178001904000000015000
B0358483206305S11655410EA0178301910000000015000
B0358523206250S11655437EA0179501925000000015000
B0358563206234S11655493EA0180701938000000015000
B0359003206271S11655525EA0181701945000000015000
B0359043206318S11655492EA0182101952000000015000
B0359083206320S11655423EA0183301968000000015000
B0359123206283S11655367EA0184801980000000015000
B0359163206223S11655348EA0185801989000000015000
B0359203206173S11655385EA0187202003000000015000
B0359243206180S11655445EA0188202012000000015000
B0359283206225S11655456EA0189702028000000015000
B0359323206255S11655408EA0190602035000000015000
B0359363206233S11655343EA0191002040000000015000
B0359403206172S11655323EA0191402046000000015000
B0359443206124S11655370EA0192102055000000015000
B0359483206123S11655432EA0193302072000000015000
B0359523206158S11655470EA0194802084000000015000
B0359563206206S11655466EA0195802093000000015000
B0400003206237S11655419EA0196702101000000015000
B0400043206223S11655357EA0197402104000000015000
B0400083206167S11655322EA0197302100000000015000
B0400123206104S11655344EA0197402105000000015000
B0400163206086S11655408EA0198102119000000015000
B0400203206120S11655449EA0199002125000000015000
B0400243206169S11655434EA0199502130000000015000
B0400283206192S11655375EA0200002139000000015000
B0400323206167S11655313EA0200502137000000015000
B0400363206107S11655281EA0199702129000000015000
B0400403206034S11655275EA0199302127000000000000
B0400443205959S11655275EA0198902124000000000000
B0400483205880S11655279EA0199102125000000000000
B0400523205800S11655288EA0199202128000000000000
B0400563205720S11655300EA0199902137000000000000
B0401003205647S11655330EA0200802144000000000000
B0401043205614S11655402EA0201502153000000000000
B0401083205636S11655467EA0202102160000000000000
B0401123205686S11655496EA0202702164000000000000
B0401163205739S11655488EA0203002166000000000000
B0401203205776S11655444EA0202702164000000000000
B0401243205779S11655378EA0202702162000000000000
B0401283205747S11655313EA0202502162000000000000
B0401323205692S11655266EA0202502163000000000000
B0401363205627S11655235EA0202802164000000000000
B0401403205553S11655223EA0202902169000000000000
B0401443205477S11655223EA0203602180000000000000
B0401483205400S11655229EA0205102197000000000000
B0401523205332S11655257EA0206502209000000000000
B0401563205306S11655322EA0207702219000000000000
B0402003205339S11655371EA0207802216000000000000
B0402043205392S11655358EA0207602220000000015000
B0402083205412S11655297EA0208002224000000015000
B0402123205396S11655226EA0208502234000000015000
B0402163205352S11655172EA0209802244000000015000
B0402203205285S11655174EA0210302244000000015000
B0402243205252S11655235EA0210302247000000015000
B0402283205274S11655293EA0210502248000000015000
B0402323205326S11655305EA0210502247000000015000
B0402363205366S11655259EA0210802256000000015000
B0402403205375S11655193EA0211802267000000015000
B0402443205369S11655124EA0212502273000000015000
B0402483205354S11655055EA0213002279000000000000
B0402523205335S11654985EA0213502284000000000000
B0402563205306S11654919EA0213702279000000000000
B0403003205252S11654881EA0212902271000000015000
B0403043205201S11654925EA0212502273000000015000
B0403083205185S11654990EA0213002277000000015000
B0403123205178S11655057EA0212702271000000000000
B0403163205183S11655125EA0212402268000000000000
B0403203205191S11655194EA0212602273000000000000
B0403243205196S11655263EA0213002275000000000000
B0403283205210S11655327EA0213002274000000000000
B0403323205245S11655375EA0212502264000000000000
B0403363205297S11655389EA0211102246000000000000
B0403403205357S11655384EA0209502232000000000000
B0403443205415S11655369EA0208702228000000000000
B0403483205473S11655344EA0208502226000000000000
B0403523205526S11655311EA0208402224000000000000
B0403563205569S11655259EA0208402223000000000000
B0404003205595S11655189EA0208202224000000000000
B0404043205599S11655112EA0208402226000000000000
B0404083205581S11655037EA0208902234000000000000
B0404123205542S11654973EA0209502238000000000000
B0404163205482S11654932EA0209202233000000000000
B0404203205410S11654925EA0209202240000000000000
B0404243205344S11654946EA0210002245000000000000
B0404283205313S11655011EA0210902259000000000000
B0404323205331S11655070EA0211502258000000000000
B0404363205379S11655073EA0211402258000000015000
B0404403205409S11655025EA0211202253000000015000
B0404443205391S11654956EA0210402239000000015000
B0404483205330S11654916EA0209902248000000015000
B0404523205257S11654907EA0210202248000000015000
B0404563205184S11654919EA0210302249000000015000
B0405003205115S11654942EA0210602251000000015000
B0405043205049S11654980EA0210902255000000000000
B0405083204986S11655025EA0210702252000000000000
B0405123204925S11655075EA0210702252000000000000
B0405163204871S11655127EA0210902252000000000000
B0405203204816S11655176EA0210302243000000000000
B0405243204755S11655220EA0208802222000000000000
B0405283204681S11655254EA0207102211000000000000
B0405323204604S11655281EA0206702209000000000000
B0405363204528S11655306EA0206202203000000000000
B0405403204451S11655327EA0206002202000000000000
B0405443204374S11655344EA0205702197000000000000
B0405483204297S11655357EA0205302194000000000000
B0405523204222S11655369EA0204802187000000000000
B0405563204147S11655379EA0204102178000000000000
B0406003204067S11655385EA0203302169000000000000
B0406043203988S11655395EA0202402161000000000000
B0406083203907S11655406EA0201602152000000000000
B0406123203826S11655418EA0201102148000000000000
B0406163203748S11655439EA0200702146000000000000
B0406203203676S11655465EA0201302156000000000000
B0406243203610S11655496EA0202702167000000000000
B0406283203559S11655548EA0203002168000000000000
B0406323203538S11655623EA0203302173000000000000
B0406363203549S11655697EA0203202170000000000000
B0406403203599S11655730EA0203402173000000000000
B0406443203645S11655701EA0203202171000000000000
B0406483203646S11655639EA0202802167000000000000
B0406523203599S11655592EA0202202158000000015000
B0406563203529S11655593EA0201402151000000015000
B0407003203455S11655616EA0201102148000000015000
B0407043203378S11655639EA0200602144000000000000
B0407083203300S11655662EA0200302143000000000000
B0407123203222S11655686EA0200402146000000000000
B0407163203146S11655710EA0200402141000000000000
B0407203203068S11655733EA0200002136000000000000
B0407243202987S11655751EA0199302129000000000000
B0407283202905S11655772EA0198502120000000000000
B0407323202822S11655794EA0197702111000000000000
B0407363202739S11655814EA0197002103000000000000
B0407403202656S11655837EA0196302095000000000000
B0407443202570S11655857EA0195502089000000000000
B0407483202485S11655873EA0195202086000000000000
B0407523202399S11655886EA0194202073000000000000
B0407563202312S11655898EA0193002060000000000000
B0408003202224S11655913EA0191702048000000000000
B0408043202137S11655937EA0190902041000000000000
B0408083202052S11655959EA0191202047000000000000
B0408123201973S11655985EA0191302044000000000000
B0408163201895S11656011EA0190802037000000000000
B0408203201816S11656039EA0190002031000000000000
B0408243201739S11656071EA0189802031000000000000
B0408283201668S11656108EA0189802030000000000000
B0408323201599S11656147EA0189102019000000000000
B0408363201521S11656184EA0187602002000000000000
B0408403201439S11656219EA0186501995000000000000
B0408443201354S11656246EA0186101989000000000000
B0408483201268S11656268EA0185701986000000000000
B0408523201184S11656286EA0185301980000000000000
B0408563201097S11656302EA0184301971000000000000
B0409003201010S11656312EA0183801964000000000000
B0409043200921S11656321EA0183001956000000000000
B0409083200836S11656332EA0182301950000000000000
B0409123200750S11656336EA0181701946000000000000
B0409163200667S11656334EA0181201937000000000000
B0409203200585S11656333EA0180501929000000000000
B0409243200505S11656333EA0179901924000000000000
B0409283200427S11656337EA0179301919000000000000
B0409323200352S11656342EA0179101916000000000000
B0409363200278S11656349EA0178901914000000000000
B0409403200205S11656354EA0179101919000000000000
B0409443200132S11656364EA0179301921000000000000
B0409483200063S11656379EA0179801928000000000000
B0409523200001S11656402EA0180201931000000000000
B0409563159940S11656428EA0180501933000000000000
B0410003159875S11656454EA0181101941000000000000
B0410043159816S11656485EA0182001949000000000000
B0410083159790S11656544EA0182101950000000000000
B0410123159811S11656605EA0182001944000000000000
B0410163159871S11656633EA0180701929000000000000
B0410203159939S11656602EA0179801925000000000000
B0410243159978S11656531EA0180201932000000015000
B0410283159980S11656448EA0180401930000000015000
B0410323159954S11656370EA0180001923000000015000
B0410363159913S11656294EA0179401920000000015000
B0410403159863S11656224EA0179001915000000015000
B0410443159803S11656165EA0178401907000000000000
B0410483159734S11656116EA0177401895000000000000
B0410523159658S11656080EA0175801880000000000000
B0410563159575S11656058EA0174701870000000000000
B0411003159490S11656047EA0174601874000000000000
B0411043159415S11656059EA0176201897000000000000
B0411083159409S11656116EA0179201920000000015000
B0411123159463S11656121EA0179701921000000015000
B0411163159494S11656047EA0179701926000000015000
B0411203159464S11655972EA0180801941000000015000
B0411243159407S11655938EA0182001952000000030000
B0411283159359S11655957EA0182701956000000030000
B0411323159351S11656012EA0182801953000000015000
B0411363159390S11656051EA0182901958000000015000
B0411403159446S11656035EA0183601967000000015000
B0411443159474S11655967EA0183701966000000015000
B0411483159448S11655894EA0183901975000000015000
B0411523159394S11655863EA0184501977000000015000
B0411563159342S11655877EA0184701979000000015000
B0412003159320S11655928EA0184401974000000015000
B0412043159309S11655989EA0184001968000000015000
B0412083159311S11656052EA0183801965000000015000
B0412123159352S11656095EA0183601964000000000000
B0412163159416S11656074EA0183501962000000015000
B0412203159442S11655996EA0184001974000000015000
B0412243159416S11655925EA0185501990000000015000
B0412283159367S11655911EA0186201994000000015000
B0412323159315S11655933EA0185201976000000015000
B0412363159257S11655964EA0183701963000000015000
B0412403159198S11656002EA0183401968000000000000
B0412443159140S11656037EA0184301981000000000000
B0412483159086S11656076EA0185501994000000000000
B0412523159043S11656124EA0187402015000000000000
B0412563159053S11656184EA0189402037000000000000
B0413003159104S11656206EA0190402041000000000000
B0413043159156S11656165EA0190202038000000015000
B0413083159169S11656087EA0190402040000000015000
B0413123159129S11656021EA0190302039000000015000
B0413163159062S11656004EA0190902054000000015000
B0413203159005S11656034EA0192602075000000015000
B0413243159000S11656095EA0195002099000000015000
B0413283159048S11656124EA0196902118000000015000
B0413323159100S11656085EA0198202127000000015000
B0413363159108S11656008EA0198302123000000015000
B0413403159064S11655951EA0198902135000000015000
B0413443159008S11655967EA0200502150000000030000
B0413483159006S11656030EA0202002167000000015000
B0413523159060S11656055EA0203602185000000015000
B0413563159103S11656003EA0204502190000000015000
B0414003159091S11655929EA0205002196000000015000
B0414043159038S11655892EA0205802205000000015000
B0414083158982S11655915EA0206402212000000030000
B0414123158969S11655983EA0207502225000000015000
B0414163159009S11656037EA0209102248000000015000
B0414203159068S11656026EA0211402266000000015000
B0414243159100S11655963EA0212302269000000015000
B0414293159074S11655873EA0212802278000000015000
B0414333159018S11655839EA0213102283000000015000
B0414373158957S11655857EA0213702296000000015000
B0414413158927S11655913EA0215202311000000015000
B0414453158943S11655973EA0216402319000000015000
B0414493158999S11655993EA0217002326000000015000
B0414533159049S11655947EA0217902334000000015000
B0414573159055S11655868EA0218702344000000015000
B0415013159016S11655808EA0219702351000000015000
B0415053158956S11655804EA0220602362000000030000
B0415093158927S11655860EA0221002363000000015000
B0415133158962S11655917EA0220902367000000015000
B0415173159025S11655912EA0221802376000000015000
B0415213159060S11655848EA0222502378000000015000
B0415253159043S11655773EA0222602380000000015000
B0415293158988S11655734EA0223002386000000015000
B0415333158925S11655740EA0223302387000000015000
B0415373158880S11655792EA0223002382000000015000
B0415413158844S11655856EA0222502376000000015000
B0415453158802S11655921EA0221802368000000015000
B0415493158756S11655989EA0221602370000000000000
B0415533158709S11656058EA0222502382000000000000
B0415573158663S11656123EA0223002380000000000000
B0416013158610S11656189EA0222402374000000000000
B0416053158553S11656251EA0222302372000000000000
B0416093158489S11656307EA0221502363000000000000
B0416133158423S11656359EA0220802354000000000000
B0416173158358S11656414EA0220102348000000000000
B0416213158295S11656471EA0219502342000000000000
B0416253158233S11656531EA0219102339000000000000
B0416293158173S11656591EA0218802330000000000000
B0416333158111S11656652EA0217902326000000000000
B0416373158043S11656706EA0216902308000000000000
B0416413157970S11656750EA0215002290000000000000
B0416453157896S11656793EA0214102285000000000000
B0416493157825S11656834EA0213802282000000000000
B0416533157752S11656874EA0213202273000000000000
B0416573157679S11656919EA0212202263000000000000
B0417013157608S11656965EA0211302256000000000000
B0417053157539S11657014EA0211102254000000000000
B0417093157472S11657066EA0210802251000000000000
B0417133157411S11657121EA0210702251000000000000
B0417173157346S11657168EA0210602250000000000000
B0417213157276S11657196EA0210102245000000000000
B0417253157198S11657202EA0209502238000000000000
B0417293157119S11657190EA0208602226000000000000
B0417333157038S11657166EA0207302212000000000000
B0417373156955S11657138EA0206602209000000000000
B0417413156876S11657113EA0206702210000000000000
B0417453156795S11657086EA0206702211000000000000
B0417493156713S11657059EA0207002217000000000000
B0417533156631S11657039EA0208002227000000000000
B0417573156551S11657027EA0208402232000000000000
B0418013156473S11657017EA0208202225000000000000
B0418053156391S11657005EA0207702221000000000000
B0418093156309S11656992EA0207902226000000000000
B0418133156227S11656990EA0208802234000000000000
B0418173156158S11657022EA0209402242000000000000
B0418213156131S11657092EA0209602242000000000000
B0418253156154S11657159EA0209402238000000000000
B0418293156210S11657182EA0209602244000000000000
B0418333156262S11657148EA0209602242000000000000
B0418373156288S11657072EA0209002236000000015000
B0418413156279S11656981EA0209102239000000000000
B0418453156236S11656903EA0209702250000000015000
B0418493156172S11656858EA0211302262000000015000
B0418533156113S11656884EA0211502258000000015000
B0418573156118S11656945EA0211202252000000015000
B0419013156172S11656958EA0210502252000000015000
B0419053156221S11656901EA0211002258000000015000
B0419093156222S11656815EA0211702269000000015000
B0419133156176S11656749EA0212402273000000015000
B0419173156109S11656721EA0212302269000000015000
B0419213156035S11656708EA0211202255000000015000
B0419253155957S11656700EA0210502252000000015000
B0419293155877S11656696EA0210402251000000015000
B0419333155794S11656689EA0210102249000000000000
B0419373155711S11656682EA0210402250000000000000
B0419413155626S11656680EA0209902245000000000000
B0419453155541S11656684EA0209502240000000000000
B0419493155454S11656685EA0208802232000000000000
B0419533155365S11656685EA0207702219000000000000
B0419573155275S11656682EA0206902212000000000000
B0420013155186S11656680EA0206502208000000000000
B0420053155099S11656682EA0206202201000000000000
B0420093155009S11656676EA0204802185000000000000
B0420133154921S11656669EA0204102182000000000000
B0420173154832S11656665EA0203102168000000000000
B0420213154742S11656661EA0201502153000000000000
B0420253154651S11656652EA0201002149000000000000
B0420293154563S11656639EA0200602145000000000000
B0420333154475S11656620EA0200202141000000000000
B0420373154390S11656601EA0200202144000000000000
B0420413154310S11656581EA0200102137000000000000
B0420453154230S11656557EA0199402130000000000000
B0420493154151S11656533EA0198402118000000000000
B0420533154070S11656513EA0197502112000000000000
B0420573153992S11656494EA0197202111000000000000
B0421013153916S11656472EA0196902105000000000000
B0421053153840S11656451EA0196002094000000000000
B0421093153766S11656433EA0194702081000000000000
B0421133153691S11656415EA0194002069000000000000
B0421173153615S11656401EA0192402052000000000000
B0421213153539S11656390EA0190702035000000000000
B0421253153462S11656383EA0189202020000000000000
B0421293153384S11656371EA0188602019000000000000
B0421333153306S11656359EA0188502015000000000000
B0421373153227S11656354EA0187602007000000000000
B0421413153147S11656351EA0186902002000000000000
B0421453153068S11656350EA0186201990000000000000
B0421493152990S11656350EA0185001971000000000000
B0421533152911S11656359EA0184201976000000000000
B0421573152844S11656397EA0185401990000000000000
B0422013152830S11656472EA0186701999000000000000
B0422053152885S11656520EA0187202010000000000000
B0422093152948S11656497EA0188202015000000015000
B0422133152976S11656427EA0187902007000000015000
B0422173152947S11656350EA0187001999000000015000
B0422213152882S11656331EA0187402010000000030000
B0422253152841S11656380EA0188602022000000030000
B0422293152847S11656448EA0189402031000000015000
B0422333152896S11656484EA0190402041000000015000
B0422373152956S11656463EA0190402034000000015000
B0422413152986S11656392EA0189702030000000030000
B0422453152969S11656312EA0189402027000000030000
B0422493152916S11656262EA0189002024000000030000
B0422533152852S11656229EA0189202031000000015000
B0422573152786S11656217EA0191202053000000015000
B0423013152763S11656271EA0193502074000000015000
B0423053152822S11656288EA0195102094000000015000
B0423093152848S11656220EA0196502106000000030000
B0423133152798S11656177EA0197402114000000030000
B0423173152751S11656214EA0199402142000000030000
B0423213152768S11656266EA0201802167000000015000
B0423253152824S11656262EA0203802184000000015000
B0423293152860S11656203EA0204202182000000030000
B0423333152843S11656130EA0204202189000000030000
B0423373152783S11656104EA0205102199000000030000
B0423413152746S11656147EA0206602218000000030000
B0423453152765S11656197EA0208502232000000015000
B0423493152820S11656191EA0209702238000000015000
B0423533152843S11656123EA0210602253000000015000
B0423573152811S11656059EA0211902262000000015000
B0424013152750S11656048EA0212202266000000015000
B0424053152729S11656104EA0213002277000000015000
B0424093152770S11656142EA0214002290000000015000
B0424133152825S11656111EA0215802306000000015000
B0424173152842S11656035EA0216702322000000015000
B0424213152805S11655970EA0217802329000000015000
B0424253152742S11655950EA0218202329000000015000
B0424293152698S11655990EA0218302329000000015000
B0424333152713S11656046EA0218202328000000015000
B0424373152776S11656054EA0217902332000000015000
B0424413152839S11656033EA0219002343000000000000
B0424453152876S11655968EA0220402351000000000000
B0424493152854S11655891EA0221002356000000000000
B0424533152794S11655856EA0220802353000000000000
B0424573152734S11655877EA0220702351000000015000
B0425013152709S11655939EA0220202346000000015000
B0425053152720S11656009EA0219502338000000000000
B0425093152764S11656064EA0219502350000000000000
B0425133152826S11656087EA0220802363000000000000
B0425173152880S11656054EA0222402377000000000000
B0425213152865S11655981EA0222802380000000000000
B0425253152803S11655959EA0223702392000000015000
B0425293152760S11656003EA0225202411000000015000
B0425333152764S11656063EA0227102428000000015000
B0425373152815S11656094EA0227602430000000015000
B0425413152874S11656061EA0228202442000000015000
B0425453152886S11655987EA0229802462000000015000
B0425493152843S11655941EA0230902465000000000000
B0425533152783S11655952EA0231302472000000015000
B0425573152761S11656009EA0232602493000000015000
B0426013152791S11656059EA0234002500000000015000
B0426053152848S11656061EA0234302500000000015000
B0426093152885S11655998EA0234002498000000015000
B0426133152869S11655924EA0235102513000000015000
B0426173152822S11655878EA0235902519000000015000
B0426213152763S11655869EA0236402519000000015000
B0426253152705S11655890EA0236202513000000015000
B0426293152678S11655951EA0234902501000000015000
B0426333152705S11656015EA0234502510000000015000
B0426373152764S11656020EA0235402513000000015000
B0426413152800S11655956EA0235302513000000015000
B0426453152779S11655879EA0236002522000000015000
B0426493152722S11655847EA0236302517000000015000
B0426533152655S11655842EA0235002503000000015000
B0426573152584S11655846EA0234302502000000000000
B0427013152513S11655852EA0234202501000000000000
B0427053152439S11655859EA0234002498000000000000
B0427093152363S11655863EA0233802499000000000000
B0427133152289S11655870EA0234202503000000000000
B0427173152214S11655878EA0234602506000000000000
B0427213152137S11655886EA0235402519000000000000
B0427253152063S11655892EA0236502525000000000000
B0427293151988S11655902EA0236702526000000000000
B0427333151908S11655907EA0236402522000000000000
B0427373151830S11655902EA0236302522000000000000
B0427413151752S11655892EA0236502523000000000000
B0427453151672S11655882EA0235902516000000000000
B0427493151587S11655879EA0235502511000000000000
B0427533151502S11655886EA0234802501000000000000
B0427573151416S11655898EA0233902494000000000000
B0428013151330S11655903EA0233102484000000000000
B0428053151243S11655912EA0232002471000000000000
B0428093151154S11655928EA0231002460000000000000
B0428133151069S11655950EA0230802462000000000000
B0428173150995S11655986EA0231202464000000000000
B0428213150954S11656048EA0231202460000000000000
B0428253150979S11656108EA0230502452000000000000
B0428293151041S11656128EA0229202442000000000000
B0428333151109S11656125EA0228902446000000000000
B0428373151177S11656117EA0229402449000000000000
B0428413151242S11656110EA0229402448000000000000
B0428453151305S11656098EA0228702437000000000000
B0428493151372S11656087EA0228402439000000000000
B0428533151437S11656082EA0228402437000000000000
B0428573151503S11656090EA0228002433000000000000
B0429013151568S11656104EA0228502442000000000000
B0429053151633S11656119EA0228702440000000000000
B0429093151699S11656134EA0228402437000000000000
B0429133151765S11656147EA0228502440000000000000
B0429173151834S11656163EA0229202449000000000000
B0429213151901S11656176EA0229502451000000000000
B0429253151964S11656193EA0230102461000000000000
B0429293152025S11656216EA0231302470000000000000
B0429333152084S11656240EA0231702473000000000000
B0429373152145S11656258EA0231702472000000000000
B0429413152209S11656275EA0231502474000000000000
B0429453152271S11656290EA0232602490000000000000
B0429493152332S11656279EA0234602515000000000000
B0429533152367S11656217EA0236902529000000000000
B0429573152370S11656133EA0237902541000000000000
B0430013152391S11656051EA0238402542000000000000
B0430053152451S11655993EA0237902533000000000000
B0430093152530S11655960EA0236402517000000000000
B0430133152617S11655944EA0235802516000000000000
B0430173152704S11655938EA0236202520000000000000
B0430213152792S11655933EA0235902512000000000000
B0430253152882S11655928EA0234302492000000000000
B0430293152971S11655921EA0233202485000000000000
B0430333153055S11655915EA0232902485000000000000
B0430373153136S11655907EA0232902481000000000000
B0430413153214S11655896EA0232302478000000000000
B0430453153290S11655886EA0231602465000000000000
B0430493153367S11655873EA0230302456000000000000
B0430533153441S11655856EA0229802450000000000000
B0430573153514S11655834EA0229602447000000000000
B0431013153588S11655811EA0229102444000000000000
B0431053153661S11655788EA0228902440000000000000
B0431093153734S11655765EA0228402435000000000000
B0431133153806S11655736EA0227702425000000000000
B0431173153879S11655707EA0226802419000000000000
B0431213153952S11655681EA0226502417000000000000
B0431253154026S11655658EA0226202414000000000000
B0431293154099S11655642EA0226002412000000000000
B0431333154172S11655631EA0225802407000000000000
B0431373154242S11655623EA0225602409000000000000
B0431413154308S11655595EA0225502402000000000000
B0431453154373S11655553EA0224802398000000000000
B0431493154438S11655522EA0225002402000000000000
B0431533154505S11655499EA0224402394000000000000
B0431573154572S11655478EA0223602384000000000000
B0432013154641S11655465EA0223202382000000000000
B0432053154709S11655453EA0222602373000000000000
B0432093154778S11655443EA0222002370000000000000
B0432133154846S11655427EA0221802368000000000000
B0432173154914S11655406EA0221702366000000000000
B0432213154983S11655388EA0221102357000000000000
B0432253155053S11655379EA0220402351000000000000
B0432293155123S11655370EA0219702346000000000000
B0432333155192S11655361EA0219602343000000000000
B0432373155259S11655350EA0219402343000000000000
B0432413155324S11655337EA0219202341000000000000
B0432453155389S11655326EA0219202342000000000000
B0432493155454S11655317EA0219102339000000000000
B0432533155520S11655311EA0218702335000000000000
B0432573155589S11655306EA0218202326000000000000
B0433013155663S11655301EA0217002312000000000000
B0433053155738S11655298EA0216502307000000000000
B0433093155811S11655292EA0216302309000000000000
B0433133155881S11655288EA0216102302000000000000
B0433173155951S11655285EA0215002291000000000000
B0433213156016S11655296EA0214702291000000000000
B0433253156083S11655302EA0213802277000000000000
B0433293156153S11655302EA0212402265000000000000
B0433333156223S11655302EA0211802263000000000000
B0433373156288S11655296EA0211702261000000000000
B0433413156349S11655287EA0211302252000000000000
B0433453156414S11655272EA0210102238000000000000
B0433493156483S11655261EA0209602238000000000000
B0433533156551S11655258EA0210002243000000000000
B0433573156616S11655265EA0210702250000000000000
B0434013156681S11655271EA0210602247000000000000
B0434053156746S11655276EA0210002240000000000000
B0434093156811S11655287EA0209202231000000000000
B0434133156876S11655305EA0208602225000000000000
B0434173156938S11655326EA0208102221000000000000
B0434213156999S11655343EA0207602212000000000000
B0434253157066S11655358EA0206602202000000000000
B0434293157134S11655371EA0205402192000000000000
B0434333157205S11655387EA0205102190000000000000
B0434373157270S11655408EA0205102190000000000000
B0434413157332S11655431EA0204402179000000000000
B0434453157396S11655454EA0203502169000000000000
B0434493157458S11655479EA0202702163000000000000
B0434533157524S11655493EA0201802152000000000000
B0434573157591S11655504EA0200802142000000000000
B0435013157660S11655508EA0199702132000000000000
B0435053157727S11655505EA0199002125000000000000
B0435093157792S11655497EA0198302119000000000000
B0435133157857S11655488EA0197702108000000000000
B0435173157922S11655483EA0196602100000000000000
B0435213157989S11655483EA0195502084000000000000
B0435253158060S11655483EA0195102088000000000000
B0435293158129S11655473EA0197302122000000000000
B0435333158163S11655410EA0200402153000000000000
B0435373158137S11655344EA0203302174000000000000
B0435413158077S11655323EA0203902169000000000000
B0435453158022S11655358EA0202902160000000000000
B0435493158009S11655427EA0202102154000000015000
B0435533158041S11655484EA0202102165000000015000
B0435573158094S11655491EA0204202189000000015000
B0436013158099S11655417EA0206402217000000015000
B0436053158041S11655382EA0209202244000000015000
B0436093157982S11655409EA0210802253000000015000
B0436133157963S11655469EA0211302257000000015000
B0436173157991S11655518EA0212002268000000015000
B0436213158039S11655505EA0213602279000000015000
B0436253158051S11655435EA0215302303000000015000
B0436293158004S11655384EA0217502329000000015000
B0436333157942S11655383EA0218902333000000015000
B0436373157896S11655423EA0218802327000000015000
B0436413157896S11655484EA0217802320000000015000
B0436453157929S11655530EA0218502329000000015000
B0436493157978S11655517EA0219402335000000015000
B0436533157977S11655449EA0220402347000000015000
B0436573157912S11655432EA0221602359000000015000
B0437013157861S11655482EA0221702356000000015000
B0437053157872S11655554EA0221602370000000015000
B0437093157920S11655587EA0223202384000000015000
B0437133157973S11655562EA0224402401000000015000
B0437173157991S11655495EA0225502410000000015000
B0437213157943S11655443EA0227102433000000015000
B0437253157881S11655462EA0228802443000000015000
B0437293157860S11655532EA0229502452000000015000
B0437333157899S11655580EA0230702468000000015000
B0437373157951S11655561EA0232502485000000015000
B0437413157964S11655495EA0233302489000000015000
B0437453157916S11655441EA0234402507000000015000
B0437493157852S11655458EA0235702524000000015000
B0437533157825S11655522EA0236802525000000015000
B0437573157864S11655582EA0236602526000000015000
B0438013157935S11655603EA0236702526000000015000
B0438053158015S11655609EA0236002512000000000000
B0438093158099S11655605EA0234302494000000000000
B0438133158187S11655599EA0233302485000000000000
B0438173158276S11655592EA0231802470000000000000
B0438213158366S11655582EA0230902462000000000000
B0438253158451S11655566EA0230402458000000000000
B0438293158535S11655548EA0230102453000000000000
B0438333158616S11655528EA0229202443000000000000
B0438373158698S11655505EA0228802441000000000000
B0438413158779S11655484EA0228202431000000000000
B0438453158860S11655462EA0227402426000000000000
B0438493158938S11655440EA0227402430000000000000
B0438533159013S11655421EA0227602429000000000000
B0438573159087S11655405EA0227402425000000000000
B0439013159161S11655392EA0227002420000000000000
B0439053159235S11655379EA0226202413000000000000
B0439093159311S11655367EA0225602406000000000000
B0439133159386S11655356EA0225302400000000000000
B0439173159460S11655343EA0224602395000000000000
B0439213159536S11655330EA0224302393000000000000
B0439253159610S11655317EA0223902389000000000000
B0439293159684S11655304EA0223402382000000000000
B0439333159759S11655294EA0222802377000000000000
B0439373159835S11655287EA0222602375000000000000
B0439413159911S11655275EA0222102370000000000000
B0439453159988S11655263EA0221602363000000000000
B0439493200066S11655253EA0221102357000000000000
B0439533200145S11655244EA0220602355000000000000
B0439573200219S11655237EA0220802359000000000000
B0440013200290S11655233EA0220802356000000000000
B0440053200361S11655228EA0220102348000000000000
B0440093200433S11655224EA0219602343000000000000
B0440133200505S11655220EA0218802333000000000000
B0440173200578S11655216EA0218002324000000000000
B0440213200651S11655214EA0217302317000000000000
B0440253200722S11655215EA0216802314000000000000
B0440293200789S11655219EA0216702313000000000000
B0440333200851S11655226EA0216502308000000000000
B0440373200916S11655228EA0215302295000000000000
B0440413200985S11655227EA0214602292000000000000
B0440453201054S11655220EA0214402289000000000000
B0440493201124S11655214EA0213902279000000000000
B0440533201197S11655206EA0212902270000000000000
B0440573201270S11655201EA0211902260000000000000
B0441013201343S11655197EA0211202253000000000000
B0441053201415S11655193EA0210402245000000000000
B0441093201488S11655188EA0209802239000000000000
B0441133201562S11655180EA0209102231000000000000
B0441173201636S11655174EA0208702229000000000000
B0441213201708S11655167EA0208902233000000000000
B0441253201775S11655168EA0209102234000000000000
B0441293201842S11655171EA0209002227000000000000
B0441333201911S11655166EA0208402226000000000000
B0441373201981S11655158EA0208202221000000000000
B0441413202054S11655150EA0207402216000000000000
B0441453202129S11655144EA0207302213000000000000
B0441493202206S11655142EA0206802209000000000000
B0441533202281S11655144EA0206702211000000000000
B0441573202357S11655145EA0206902212000000000000
B0442013202429S11655148EA0206902211000000000000
B0442053202501S11655150EA0206802208000000000000
B0442093202575S11655155EA0205802195000000000000
B0442133202652S11655155EA0205302192000000000000
B0442173202728S11655150EA0204602182000000000000
B0442213202808S11655146EA0203702174000000000000
B0442253202884S11655142EA0203502177000000000000
B0442293202958S11655141EA0203502177000000000000
B0442333203031S11655140EA0203302173000000000000
B0442373203103S11655137EA0203002171000000000000
B0442413203174S11655132EA0202702164000000000000
B0442453203247S11655125EA0202002157000000000000
B0442493203319S11655119EA0201002144000000000000
B0442533203391S11655115EA0200002137000000000000
B0442573203464S11655114EA0199202125000000000000
B0443013203538S11655110EA0198302115000000000000
B0443053203614S11655107EA0197502109000000000000
B0443093203694S11655106EA0196802100000000000000
B0443133203777S11655106EA0196002092000000000000
B0443173203859S11655107EA0195302086000000000000
B0443213203941S11655110EA0194202071000000000000
B0443253204024S11655115EA0193002058000000000000
B0443293204108S11655120EA0191602046000000000000
B0443333204188S11655123EA0190902042000000000000
B0443373204268S11655122EA0190702037000000000000
B0443413204347S11655114EA0189602022000000000000
B0443453204427S11655103EA0188102005000000000000
B0443493204508S11655092EA0186701990000000000000
B0443533204590S11655075EA0185501981000000000000
B0443573204668S11655054EA0184601971000000000000
B0444013204746S11655032EA0183601961000000000000
B0444053204823S11655018EA0182801952000000000000
B0444093204899S11655011EA0181701936000000000000
B0444133204972S11654980EA0180201927000000000000
B0444173205040S11654938EA0179501922000000000000
B0444213205105S11654894EA0179201919000000000000
B0444253205171S11654850EA0178801912000000000000
B0444293205236S11654803EA0178301908000000000000
B0444333205304S11654758EA0177801903000000000000
B0444373205373S11654713EA0177401900000000000000
B0444413205444S11654674EA0176901892000000000000
B0444453205512S11654635EA0176401891000000000000
B0444493205575S11654591EA0176401886000000000000
B0444533205635S11654540EA0175601878000000000000
B0444573205686S11654479EA0174601866000000000000
B0445013205731S11654410EA0173701856000000000000
B0445053205773S11654340EA0172701847000000000000
B0445093205826S11654290EA0172201843000000000000
B0445133205886S11654271EA0171301833000000000000
B0445173205945S11654288EA0170001818000000000000
B0445213205994S11654334EA0168901803000000000000
B0445253206026S11654400EA0167401789000000000000
B0445293206042S11654475EA0166101779000000000000
B0445333206043S11654559EA0165101767000000000000
B0445373206037S11654643EA0164001753000000000000
B0445413206030S11654732EA0162701744000000000000
B0445453206029S11654816EA0162401744000000000000
B0445493206036S11654897EA0162401743000000000000
B0445533206049S11654975EA0162001735000000000000
B0445573206065S11655053EA0161101726000000000000
B0446013206084S11655128EA0160601724000000000000
B0446053206103S11655201EA0160401723000000000000
B0446093206123S11655268EA0160301719000000000000
B0446133206134S11655339EA0159801715000000000000
B0446173206160S11655402EA0159401709000000000000
B0446213206203S11655453EA0159001705000000000000
B0446253206264S11655476EA0158401697000000000000
B0446293206327S11655450EA0158201699000000000000
B0446333206344S11655369EA0158701707000000000000
B0446373206296S11655324EA0159901721000000000000
B0446413206262S11655374EA0161301739000000015000
B0446453206297S11655419EA0162701743000000015000
B0446493206357S11655395EA0162501743000000015000
B0446533206361S11655318EA0163401761000000015000
B0446573206307S11655287EA0164701766000000015000
B0447013206273S11655332EA0165501776000000015000
B0447053206324S11655361EA0165901778000000015000
B0447093206364S11655293EA0165901782000000015000
B0447133206320S11655235EA0166501788000000015000
B0447173206267S11655270EA0166501791000000015000
B0447213206268S11655337EA0167801806000000015000
B0447253206325S11655356EA0168201804000000015000
B0447293206374S11655298EA0168101807000000015000
B0447333206385S11655213EA0168101801000000015000
B0447373206370S11655125EA0167101789000000000000
B0447413206318S11655059EA0166501789000000000000
B0447453206242S11655036EA0166801794000000000000
B0447493206166S11655054EA0167501799000000015000
B0447533206107S11655110EA0167701803000000015000
B0447573206073S11655181EA0168601816000000000000
B0448013206073S11655250EA0170001828000000000000
B0448053206124S11655279EA0170301824000000000000
B0448093206180S11655236EA0169401813000000015000
B0448133206188S11655153EA0168901810000000015000
B0448173206136S11655096EA0168901814000000000000
B0448213206067S11655094EA0169001809000000000000
B0448253205995S11655119EA0168101798000000000000
B0448293205920S11655151EA0167301791000000000000
B0448333205837S11655189EA0166301783000000000000
B0448373205760S11655239EA0167601816000000000000
B0448413205733S11655313EA0171301846000000000000
B0448453205764S11655371EA0172901860000000000000
B0448493205816S11655358EA0174101870000000015000
B0448533205818S11655284EA0174701875000000015000
B0448573205772S11655214EA0174701873000000015000
B0449013205707S11655151EA0174701879000000000000
B0449053205631S11655107EA0176901904000000000000
B0449093205558S11655114EA0179001926000000000000
B0449133205505S11655159EA0179301919000000000000
B0449173205488S11655227EA0178601909000000000000
B0449213205522S11655285EA0177101892000000000000
B0449253205581S11655322EA0175701885000000000000
B0449293205646S11655348EA0175901898000000000000
B0449333205707S11655354EA0177801913000000000000
B0449373205744S11655298EA0178701920000000000000
B0449413205722S11655224EA0179101922000000000000
B0449453205653S11655203EA0179101920000000000000
B0449493205603S11655254EA0179401930000000000000
B0449533205575S11655323EA0180301938000000000000
B0449573205601S11655382EA0180801941000000000000
B0450013205655S11655365EA0181101944000000000000
B0450053205659S11655291EA0181601951000000015000
B0450093205601S11655241EA0182101952000000000000
B0450133205538S11655270EA0182401958000000000000
B0450173205531S11655341EA0182901962000000015000
B0450213205578S11655375EA0183401970000000015000
B0450253205616S11655333EA0184401978000000015000
B0450293205583S11655271EA0184901980000000015000
B0450333205517S11655284EA0184701981000000015000
B0450373205474S11655348EA0185201986000000015000
B0450413205495S11655413EA0185601987000000015000
B0450453205551S11655409EA0185701988000000015000
B0450493205574S11655345EA0185701987000000015000
B0450533205552S11655263EA0185201984000000015000
B0450573205521S11655180EA0185101983000000015000
B0451013205534S11655093EA0185401986000000015000
B0451053205575S11655023EA0186001996000000000000
B0451093205613S11654950EA0186902002000000000000
B0451133205597S11654864EA0187602009000000000000
B0451173205531S11654872EA0188802024000000000000
B0451213205525S11654940EA0190102037000000015000
B0451253205569S11654966EA0191102050000000015000
B0451293205605S11654908EA0191402044000000015000
B0451333205561S11654833EA0191202052000000015000
B0451373205490S11654829EA0192202057000000015000
B0451413205479S11654895EA0193102072000000015000
B0451453205530S11654904EA0194502087000000015000
B0451493205566S11654843EA0195102085000000015000
B0451533205531S11654769EA0195602095000000015000
B0451573205466S11654765EA0196402103000000015000
B0452013205456S11654825EA0197002107000000015000
B0452053205512S11654821EA0196902103000000015000
B0452093205527S11654741EA0196902107000000015000
B0452133205493S11654660EA0197502116000000015000
B0452173205422S11654642EA0198202118000000015000
B0452213205387S11654702EA0198402124000000015000
B0452253205432S11654746EA0199202130000000015000
B0452293205484S11654689EA0199102127000000015000
B0452333205512S11654595EA0199102131000000015000
B0452373205505S11654499EA0199602130000000000000
B0452413205439S11654470EA0199702130000000000000
B0452453205402S11654534EA0198202109000000015000
B0452493205410S11654618EA0196902106000000000000
B0452533205423S11654700EA0197502114000000000000
B0452573205447S11654778EA0198202123000000000000
B0453013205478S11654851EA0199002134000000000000
B0453053205513S11654921EA0199802138000000000000
B0453093205543S11654997EA0200402146000000000000
B0453133205573S11655075EA0201102156000000000000
B0453173205617S11655131EA0202802170000000000000
B0453213205668S11655089EA0204002185000000000000
B0453253205653S11655011EA0204702185000000000000
B0453293205592S11654981EA0204102177000000000000
B0453333205535S11655019EA0204102181000000000000
B0453373205512S11655092EA0204202183000000000000
B0453413205508S11655172EA0204302187000000000000
B0453453205540S11655239EA0205602203000000000000
B0453493205591S11655203EA0206802201000000015000
B0453533205570S11655131EA0205902194000000015000
B0453573205503S11655114EA0205702202000000000000
B0454013205445S11655154EA0206702208000000000000
B0454053205414S11655224EA0207102214000000015000
B0454093205443S11655280EA0208702233000000015000
B0454133205492S11655244EA0208602218000000015000
B0454173205471S11655166EA0207402214000000015000
B0454213205406S11655158EA0208102228000000015000
B0454253205358S11655200EA0209302239000000015000
B0454293205332S11655261EA0209802240000000015000
B0454333205349S11655322EA0209202229000000000000
B0454373205410S11655331EA0208602229000000015000
B0454413205449S11655270EA0208302224000000015000
B0454453205423S11655198EA0208002222000000015000
B0454493205362S11655192EA0207502206000000000000
B0454533205334S11655262EA0206702208000000015000
B0454573205350S11655335EA0206302201000000015000
B0455013205401S11655388EA0205702195000000000000
B0455053205465S11655426EA0204402179000000000000
B0455093205536S11655457EA0203502172000000000000
B0455133205609S11655484EA0202702164000000000000
B0455173205685S11655509EA0202202157000000000000
B0455213205761S11655530EA0201602152000000000000
B0455253205838S11655548EA0201302148000000000000
B0455293205916S11655566EA0200402133000000000000
B0455333205997S11655583EA0199302126000000000000
B0455373206078S11655593EA0198502117000000000000
B0455413206163S11655606EA0197502105000000000000
B0455453206246S11655622EA0196602098000000000000
B0455493206331S11655636EA0196202095000000000000
B0455533206413S11655649EA0196002092000000000000
B0455573206494S11655662EA0195502085000000000000
B0456013206576S11655677EA0194602076000000000000
B0456053206657S11655690EA0194002071000000000000
B0456093206736S11655703EA0193302065000000000000
B0456133206817S11655716EA0192802059000000000000
B0456173206896S11655729EA0192402056000000000000
B0456213206974S11655739EA0192602061000000000000
B0456253207050S11655747EA0192902061000000000000
B0456293207129S11655753EA0191902042000000000000
B0456333207212S11655764EA0190402030000000000000
B2359433207385S11656887EV0189300000000000000128
B2359473207385S11656887EV0188700000000000000128
B2359513207385S11656887EV0187900000000000000128
B2359553207385S11656887EV0187500000000000000128
B0456563207385S11656887EV0187200000000000000128
B0457013207788S11655811EA0186101998030000210000
B0457053207867S11655817EA0185701993015000210000
B0457093207945S11655827EA0185201988000000060000
B0457133208027S11655838EA0184201979000000150000
B0457173208112S11655846EA0182501961000000090000
B0457213208197S11655856EA0180901949000000060000
B0457253208282S11655866EA0180001940000000045000
B0457293208364S11655876EA0178901927000000030000
B0457333208448S11655887EA0177701913000000015000
B0457373208532S11655898EA0176801909000000015000
B0457413208613S11655907EA0176101899000000015000
B0457453208698S11655916EA0175201890000000015000
B0457493208779S11655925EA0175001888000000015000
B0457533208859S11655935EA0174401878000000015000
B0457573208941S11655946EA0173701871000000000000
B0458013209022S11655959EA0172901863000000000000
B0458053209104S11655972EA0172301853000000000000
B0458093209187S11655982EA0171001841000000000000
B0458133209273S11655991EA0169901830000000000000
B0458173209360S11656002EA0169001820000000000000
B0458213209447S11656009EA0168501815000000000000
B0458253209535S11656019EA0167901806000000000000
B0458293209622S11656029EA0167001795000000000000
B0458333209711S11656039EA0166301786000000000000
B0458373209799S11656051EA0165301776000000000000
B0458413209887S11656064EA0164501772000000000000
B0458453209975S11656076EA0164601774000000000000
B0458493210058S11656085EA0164201759000000000000
B0458533210147S11656094EA0161901731000000000000
B0458573210240S11656106EA0159601714000000000000
B0459013210329S11656119EA0158601705000000000000
B0459053210415S11656130EA0157601695000000000000
B0459093210500S11656145EA0156801687000000000000
B0459133210582S11656156EA0155701668000000000000
B0459173210666S11656172EA0153801650000000000000
B0459213210751S11656189EA0152301637000000000000
B0459253210835S11656206EA0150801620000000000000
B0459293210921S11656223EA0149501606000000000000
B0459333211008S11656241EA0148401598000000000000
B0459373211094S11656258EA0148101596000000000000
B0459413211176S11656279EA0148301603000000000000
B0459453211250S11656318EA0148501596000000000000
B0459493211327S11656350EA0147601588000000000000
B0459533211407S11656373EA0146701577000000000000
B0459573211489S11656386EA0146301581000000000000
B0500013211566S11656394EA0147401597000000000000
B0500053211635S11656402EA0149101615000000000000
B0500093211687S11656442EA0151201633000000000000
B0500133211701S11656519EA0151901633000000000000
B0500173211710S11656598EA0150601614000000000000
B0500213211732S11656682EA0148401587000000000000
B0500253211801S11656739EA0145301557000000000000
B0500293211892S11656761EA0143001542000000000000
B0500333211984S11656767EA0141901535000000000000
B0500373212070S11656778EA0142801546000000000000
B0500413212139S11656810EA0143501551000000000000
B0500453212211S11656838EA0143201534000000000000
B0500493212292S11656841EA0141401517000000000000
B0500533212380S11656830EA0139701496000000000000
B0500573212468S11656802EA0137301472000000000000
B0501013212559S11656767EA0135501457000000000000
B0501053212647S11656732EA0134701450000000000000
B0501093212732S11656698EA0133801442000000000000
B0501133212815S11656663EA0132801428000000000000
B0501173212898S11656624EA0131601412000000000000
B0501213212983S11656587EA0130101398000000000000
B0501253213069S11656548EA0128801387000000000000
B0501293213150S11656514EA0128501385000000000000
B0501333213232S11656483EA0127501377000000000000
B0501373213313S11656455EA0126801365000000000000
B0501413213396S11656428EA0125401353000000000000
B0501453213477S11656401EA0124601344000000000000
B0501493213557S11656372EA0123801337000000000000
B0501533213638S11656341EA0122701324000000000000
B0501573213719S11656315EA0122001313000000000000
B0502013213800S11656290EA0120701297000000000000
B0502053213880S11656264EA0119301291000000000000
B0502093213955S11656237EA0118801283000000000000
B0502133214034S11656210EA0117601268000000000000
B0502173214115S11656181EA0115601246000000000000
B0502213214197S11656156EA0114501242000000000000
B0502253214275S11656134EA0114101234000000000000
B0502293214354S11656115EA0113101215000000000000
B0502333214436S11656100EA0111101199000000000000
B0502373214515S11656089EA0110901204000000000000
B0502413214591S11656085EA0111701215000000000000
B0502453214657S11656081EA0113501235000000000000
B0502493214720S11656063EA0114401236000000000000
B0502533214735S11655978EA0114901243000000000000
B0502573214674S11655917EA0115601251000000000000
B0503013214599S11655909EA0115001234000000000000
B0503053214564S11655974EA0113201217000000000000
B0503093214593S11656041EA0112001210000000015000
B0503133214639S11656097EA0111901210000000000000
B0503173214694S11656141EA0112101214000000000000
B0503213214760S11656155EA0111901205000000000000
B0503253214835S11656136EA0110401194000000000000
B0503293214908S11656107EA0110301195000000000000
B0503333214977S11656068EA0110901203000000000000
B0503373215035S11656019EA0112401222000000000000
B0503413215085S11655968EA0113901236000000000000
B0503453215121S11655908EA0115901255000000000000
B0503493215082S11655847EA0117101263000000000000
B0503533215030S11655887EA0117701273000000000000
B0503573215048S11655948EA0118301284000000015000
B0504013215104S11655954EA0119701299000000015000
B0504053215133S11655891EA0121501316000000015000
B0504093215087S11655835EA0123101332000000015000
B0504133215026S11655852EA0124001337000000015000
B0504173215016S11655918EA0124301342000000015000
B0504213215068S11655952EA0125001349000000015000
B0504253215124S11655913EA0125901366000000015000
B0504293215129S11655834EA0127701384000000015000
B0504333215064S11655805EA0129101399000000015000
B0504373215016S11655855EA0129901405000000015000
B0504413215028S11655924EA0130301411000000015000
B0504453215085S11655947EA0131001426000000015000
B0504493215145S11655922EA0132501439000000015000
B0504533215188S11655872EA0133801449000000015000
B0504573215147S11655813EA0134301450000000015000
B0505013215072S11655834EA0134101446000000015000
B0505053215008S11655882EA0134901461000000015000
B0505093215003S11655952EA0137201487000000015000
B0505133215054S11655935EA0139501508000000015000
B0505173215039S11655866EA0140701514000000015000
B0505213214974S11655876EA0141301522000000015000
B0505253214969S11655942EA0142701540000000015000
B0505293215019S11655955EA0144501561000000015000
B0505333215046S11655895EA0145601567000000015000
B0505373215007S11655839EA0146801582000000015000
B0505413214954S11655872EA0148001595000000015000
B0505453214972S11655926EA0149201609000000015000
B0505493215024S11655908EA0150201616000000015000
B0505533215037S11655833EA0150501620000000015000
B0505573214996S11655768EA0151301632000000015000
B0506013214929S11655762EA0152501642000000015000
B0506053214892S11655820EA0153401654000000015000
B0506093214941S11655851EA0154901670000000015000
B0506133214973S11655790EA0156201683000000015000
B0506173214935S11655726EA0157401697000000015000
B0506213214870S11655734EA0158201701000000015000
B0506253214847S11655801EA0159201719000000015000
B0506293214874S11655856EA0160801731000000015000
B0506333214926S11655855EA0162101746000000015000
B0506373214964S11655801EA0162901752000000015000
B0506413214956S11655729EA0163801760000000015000
B0506453214900S11655682EA0164401766000000015000
B0506493214838S11655701EA0165301775000000015000
B0506533214827S11655773EA0165901787000000015000
B0506573214881S11655794EA0167401806000000015000
B0507013214898S11655729EA0169301819000000015000
B0507053214843S11655686EA0170101829000000015000
B0507093214781S11655713EA0170801838000000015000
B0507133214760S11655782EA0171901849000000015000
B0507173214790S11655835EA0173001860000000015000
B0507213214843S11655822EA0173601863000000015000
B0507253214874S11655756EA0174201870000000015000
B0507293214864S11655679EA0175201878000000015000
B0507333214805S11655635EA0176001887000000015000
B0507373214740S11655658EA0176601894000000015000
B0507413214707S11655727EA0177201901000000015000
B0507453214729S11655795EA0177401901000000015000
B0507493214792S11655809EA0177701911000000015000
B0507533214855S11655777EA0178401915000000015000
B0507573214921S11655735EA0177401887000000000000
B0508013215007S11655703EA0174401858000000000000
B0508053215104S11655679EA0171701833000000000000
B0508093215207S11655664EA0170001818000000000000
B0508133215306S11655649EA0169801819000000000000
B0508173215401S11655635EA0169501808000000000000
B0508213215494S11655625EA0168001789000000000000
B0508253215587S11655626EA0166601778000000000000
B0508293215674S11655631EA0165501769000000000000
B0508333215758S11655639EA0164601761000000000000
B0508373215841S11655648EA0163601749000000000000
B0508413215923S11655658EA0162201734000000000000
B0508453216007S11655668EA0160701718000000000000
B0508493216090S11655678EA0159301705000000000000
B0508533216173S11655686EA0158401694000000000000
B0508573216254S11655694EA0157601689000000000000
B0509013216332S11655703EA0156901678000000000000
B0509053216410S11655712EA0155701667000000000000
B0509093216486S11655720EA0155101660000000000000
B0509133216562S11655730EA0154001647000000000000
B0509173216637S11655738EA0152601634000000000000
B0509213216712S11655744EA0150901615000000000000
B0509253216789S11655751EA0149701603000000000000
B0509293216865S11655757EA0148201584000000000000
B0509333216943S11655761EA0146801571000000000000
B0509373217018S11655766EA0146201569000000000000
B0509413217093S11655772EA0145701563000000000000
B0509453217174S11655775EA0144001537000000000000
B0509493217255S11655778EA0142701533000000000000
B0509533217330S11655777EA0142701527000000000000
B0509573217405S11655774EA0140101493000000000000
B0510013217485S11655774EA0138801484000000000000
B0510053217559S11655778EA0137701471000000000000
B0510093217635S11655782EA0135601444000000000000
B0510133217713S11655790EA0133401425000000000000
B0510173217791S11655799EA0131401404000000000000
B0510213217869S11655809EA0129601390000000000000
B0510253217947S11655822EA0128301374000000000000
B0510293218027S11655834EA0126101351000000000000
B0510333218106S11655844EA0124801341000000000000
B0510373218185S11655852EA0124001326000000000000
B0510413218265S11655863EA0122401310000000000000
B0510453218345S11655872EA0120401284000000000000
B0510493218428S11655883EA0118201269000000000000
B0510533218512S11655892EA0117001257000000000000
B0510573218594S11655900EA0116501256000000000000
B0511013218672S11655908EA0117001263000000000000
B0511053218747S11655915EA0118201279000000000000
B0511093218816S11655925EA0119501290000000000000
B0511133218877S11655954EA0120401302000000000000
B0511173218916S11656008EA0121701314000000000000
B0511213218937S11656077EA0122701326000000000000
B0511253218956S11656145EA0124101342000000000000
B0511293219008S11656156EA0125601356000000000000
B0511333219028S11656086EA0126001350000000000000
B0511373218976S11656033EA0125601355000000000000
B0511413218912S11656055EA0126101361000000000000
B0511453218881S11656120EA0127001371000000000000
B0511493218882S11656194EA0127701375000000015000
B0511533218919S11656253EA0127201359000000015000
B0511573218981S11656279EA0125501346000000015000
B0512013219050S11656284EA0124501335000000000000
B0512053219123S11656279EA0123501325000000000000
B0512093219198S11656268EA0122601319000000000000
B0512133219275S11656253EA0121801308000000000000
B0512173219353S11656240EA0121001301000000000000
B0512213219432S11656228EA0121301314000000000000
B0512253219504S11656221EA0122601320000000000000
B0512293219574S11656216EA0122001312000000000000
B0512333219649S11656206EA0121401310000000000000
B0512373219721S11656189EA0122301323000000000000
B0512413219761S11656120EA0123401337000000000000
B0512453219771S11656037EA0124401341000000000000
B0512493219747S11655961EA0124401337000000000000
B0512533219682S11655959EA0124301342000000000000
B0512573219687S11656028EA0125301351000000015000
B0513013219749S11656021EA0125501356000000015000
B0513053219779S11655948EA0125701351000000015000
B0513093219793S11655864EA0125701359000000000000
B0513133219797S11655782EA0127001373000000000000
B0513173219796S11655700EA0127901380000000000000
B0513213219778S11655622EA0128501387000000000000
B0513253219715S11655606EA0129301396000000000000
B0513293219715S11655665EA0130301408000000015000
B0513333219774S11655644EA0131601426000000015000
B0513373219773S11655573EA0133601447000000015000
B0513413219719S11655558EA0134901453000000015000
B0513453219700S11655614EA0135301459000000015000
B0513493219749S11655645EA0136201476000000015000
B0513533219799S11655601EA0137701489000000015000
B0513573219783S11655528EA0139201501000000015000
B0514013219726S11655514EA0139901507000000015000
B0514053219704S11655570EA0141001522000000015000
B0514093219753S11655599EA0142401539000000015000
B0514133219799S11655552EA0144001555000000015000
B0514173219791S11655480EA0145501570000000015000
B0514213219741S11655443EA0146101571000000015000
B0514253219686S11655467EA0146501578000000015000
B0514293219679S11655526EA0147301590000000015000
B0514333219734S11655525EA0148801603000000015000
B0514373219744S11655447EA0149701617000000015000
B0514413219689S11655419EA0151301632000000015000
B0514453219660S11655469EA0152201640000000015000
B0514493219688S11655514EA0153201645000000015000
B0514533219741S11655505EA0154101650000000015000
B0514573219775S11655439EA0154701659000000015000
B0515013219754S11655365EA0155801669000000015000
B0515053219695S11655357EA0156401679000000015000
B0515093219679S11655417EA0157401691000000015000
B0515133219727S11655444EA0158301699000000015000
B0515173219777S11655396EA0159101711000000015000
B0515213219767S11655319EA0160301722000000015000
B0515253219712S11655283EA0161001729000000015000
B0515293219658S11655307EA0161601742000000015000
B0515333219661S11655366EA0162601749000000015000
B0515373219714S11655367EA0163501759000000015000
B0515413219743S11655302EA0164501770000000015000
B0515453219721S11655231EA0165001770000000015000
B0515493219660S11655198EA0165001772000000015000
B0515533219600S11655224EA0165501776000000015000
B0515573219574S11655285EA0166101784000000015000
B0516013219597S11655346EA0166501789000000015000
B0516053219640S11655396EA0166901791000000015000
B0516093219704S11655401EA0167001796000000015000
B0516133219767S11655357EA0167701809000000015000
B0516173219792S11655278EA0169401824000000015000
B0516213219745S11655223EA0170601829000000015000
B0516253219696S11655255EA0170201823000000015000
B0516293219706S11655317EA0170201831000000015000
B0516333219758S11655349EA0171001837000000015000
B0516373219821S11655328EA0171501839000000015000
B0516413219842S11655245EA0171801845000000015000
B0516453219805S11655167EA0172201847000000015000
B0516493219745S11655109EA0172901859000000000000
B0516533219678S11655086EA0173801862000000000000
B0516573219634S11655129EA0173901866000000000000
B0517013219653S11655190EA0173801860000000015000
B0517053219700S11655237EA0173301862000000000000
B0517093219752S11655281EA0173701865000000000000
B0517133219810S11655317EA0174101867000000000000
B0517173219882S11655318EA0174001871000000000000
B0517213219927S11655259EA0175701894000000000000
B0517253219891S11655188EA0177701909000000000000
B0517293219822S11655197EA0178401914000000000000
B0517333219806S11655263EA0178901917000000015000
B0517373219839S11655319EA0178801919000000015000
B0517413219895S11655348EA0178901919000000000000
B0517453219965S11655349EA0178101902000000000000
B0517493220044S11655343EA0177101900000000000000
B0517533220126S11655332EA0177501910000000000000
B0517573220209S11655318EA0178501918000000000000
B0518013220294S11655296EA0178601912000000000000
B0518053220380S11655267EA0177701904000000000000
B0518093220466S11655235EA0176801892000000000000
B0518133220558S11655202EA0175301873000000000000
B0518173220653S11655172EA0174401871000000000000
B0518213220746S11655146EA0174601873000000000000
B0518253220840S11655127EA0174501873000000000000
B0518293220928S11655106EA0174801876000000000000
B0518333221017S11655085EA0174501866000000000000
B0518373221106S11655067EA0174001866000000000000
B0518413221195S11655047EA0173701863000000000000
B0518453221278S11655028EA0174501877000000000000
B0518493221356S11655015EA0175001877000000000000
B0518533221434S11655008EA0174401866000000000000
B0518573221519S11654993EA0172001837000000000000
B0519013221613S11654979EA0169101811000000000000
B0519053221710S11654967EA0167201790000000000000
B0519093221807S11654954EA0165501768000000000000
B0519133221906S11654940EA0164101760000000000000
B0519173222001S11654924EA0163701759000000000000
B0519213222093S11654908EA0164001761000000000000
B0519253222180S11654890EA0164901778000000000000
B0519293222258S11654872EA0166201784000000000000
B0519333222336S11654851EA0165901778000000000000
B0519373222416S11654830EA0165801778000000000000
B0519413222497S11654810EA0165001761000000000000
B0519453222582S11654794EA0163601754000000000000
B0519493222661S11654778EA0163801761000000000000
B0519533222735S11654771EA0165101779000000000000
B0519573222800S11654790EA0167201804000000000000
B0520013222848S11654839EA0169601827000000000000
B0520053222882S11654907EA0170601825000000000000
B0520093222920S11654976EA0170301825000000000000
B0520133222967S11655036EA0170601830000000000000
B0520173223019S11655090EA0171901845000000000000
B0520213223075S11655120EA0172901852000000000000
B0520253223098S11655060EA0174401873000000000000
B0520293223034S11655024EA0175201877000000000000
B0520333222968S11655070EA0175101875000000000000
B0520373222955S11655151EA0175001873000000015000
B0520413222976S11655231EA0174401868000000015000
B0520453223002S11655310EA0173501855000000000000
B0520493223043S11655382EA0172401845000000000000
B0520533223105S11655422EA0170801825000000000000
B0520573223180S11655415EA0168801807000000000000
B0521013223253S11655388EA0167501799000000000000
B0521053223323S11655358EA0167201796000000000000
B0521093223394S11655327EA0166901791000000000000
B0521133223469S11655294EA0166601787000000000000
B0521173223540S11655261EA0166901798000000000000
B0521213223608S11655232EA0167801805000000000000
B0521253223678S11655211EA0168201807000000000000
B0521293223753S11655201EA0167201789000000000000
B0521333223839S11655196EA0165401773000000000000
B0521373223934S11655193EA0164601765000000000000
B0521413224025S11655164EA0166201795000000000000
B0521453224050S11655080EA0170601843000000000000
B0521493223996S11655042EA0173801867000000000000
B0521533223959S11655092EA0174101866000000015000
B0521573223979S11655155EA0174501874000000015000
B0522013224031S11655167EA0175601885000000015000
B0522053224057S11655107EA0176601894000000015000
B0522093224013S11655055EA0176701891000000015000
B0522133223955S11655084EA0176501897000000015000
B0522173223956S11655149EA0177401907000000015000
B0522213223985S11655205EA0178001911000000015000
B0522253224034S11655237EA0178801919000000015000
B0522293224077S11655192EA0179901932000000015000
B0522333224043S11655131EA0180901943000000015000
B0522373223986S11655151EA0181201941000000015000
B0522413223983S11655216EA0181601952000000015000
B0522453224029S11655252EA0182701957000000015000
B0522493224090S11655240EA0183001962000000015000
B0522533224126S11655179EA0183601967000000015000
B0522573224159S11655103EA0182501934000000015000
B0523013224223S11655036EA0179201908000000015000
B0523053224303S11654979EA0177001893000000000000
B0523093224389S11654936EA0176401889000000000000
B0523133224477S11654901EA0175801884000000000000
B0523173224563S11654869EA0175701882000000000000
B0523213224646S11654838EA0174201862000000000000
B0523253224732S11654811EA0172601847000000000000
B0523293224818S11654784EA0170901830000000000000
B0523333224902S11654759EA0169301814000000000000
B0523373224987S11654735EA0168201800000000000000
B0523413225071S11654716EA0166901785000000000000
B0523453225155S11654696EA0165501770000000000000
B0523493225237S11654676EA0164201760000000000000
B0523533225316S11654655EA0163701757000000000000
B0523573225394S11654635EA0163301749000000000000
B0524013225472S11654605EA0163301755000000000000
B0524053225541S11654572EA0163701755000000000000
B0524093225610S11654534EA0164501768000000000000
B0524133225677S11654530EA0166601793000000000000
B0524173225719S11654581EA0168301816000000000000
B0524213225706S11654648EA0170701845000000000000
B0524253225649S11654674EA0172601853000000000000
B0524293225593S11654639EA0173401864000000000000
B0524333225582S11654570EA0174101873000000000000
B0524373225619S11654527EA0175101882000000000000
B0524413225658S11654557EA0176001893000000000000
B0524453225645S11654622EA0177001902000000015000
B0524493225585S11654654EA0178101914000000015000
B0524533225525S11654630EA0179101923000000015000
B0524573225512S11654565EA0180001934000000015000
B0525013225547S11654529EA0180701945000000000000
B0525053225582S11654556EA0181801953000000000000
B0525093225584S11654618EA0182501961000000015000
B0525133225534S11654664EA0183201971000000015000
B0525173225471S11654648EA0184401982000000015000
B0525213225443S11654586EA0185101989000000015000
B0525253225464S11654531EA0186001997000000000000
B0525293225508S11654524EA0186802003000000000000
B0525333225556S11654543EA0186401991000000000000
B0525373225624S11654555EA0183301953000000000000
B0525413225714S11654565EA0180501938000000000000
B0525453225810S11654573EA0181201951000000000000
B0525493225907S11654585EA0181301943000000000000
B0525533226010S11654596EA0180801946000000000000
B0525573226111S11654604EA0182301965000000000000
B0526013226208S11654609EA0183701975000000000000
B0526053226301S11654615EA0183201955000000000000
B0526093226399S11654630EA0181201936000000000000
B0526133226496S11654665EA0180501941000000000000
B0526173226585S11654704EA0181501954000000000000
B0526213226670S11654742EA0182801966000000000000
B0526253226760S11654776EA0183401971000000000000
B0526293226836S11654755EA0187202034000000000000
B0526333226838S11654690EA0193002080000000000000
B0526373226777S11654667EA0194702084000000000000
B0526413226726S11654721EA0195502098000000000000
B0526453226743S11654787EA0197402124000000015000
B0526493226790S11654795EA0199602136000000015000
B0526533226810S11654743EA0200902145000000015000
B0526573226764S11654698EA0201402145000000015000
B0527013226703S11654745EA0201502154000000015000
B0527053226711S11654821EA0203002183000000015000
B0527093226752S11654828EA0205502202000000015000
B0527133226765S11654773EA0206502208000000015000
B0527173226722S11654724EA0207602225000000015000
B0527213226660S11654743EA0208602231000000015000
B0527253226642S11654813EA0209902255000000015000
B0527293226677S11654842EA0211902269000000015000
B0527333226703S11654800EA0212302266000000015000
B0527373226663S11654738EA0212002268000000015000
B0527413226592S11654715EA0213402290000000015000
B0527453226542S11654763EA0215302309000000015000
B0527493226557S11654825EA0216602321000000015000
B0527533226603S11654828EA0218602342000000015000
B0527573226615S11654774EA0220302356000000015000
B0528013226566S11654724EA0220702358000000015000
B0528053226498S11654741EA0221502377000000015000
B0528093226465S11654803EA0223402398000000015000
B0528133226475S11654864EA0225002410000000015000
B0528173226522S11654871EA0225802418000000015000
B0528213226556S11654825EA0227002432000000015000
B0528253226556S11654761EA0228502447000000015000
B0528293226503S11654722EA0229302449000000015000
B0528333226442S11654758EA0229902462000000015000
B0528373226438S11654825EA0232302490000000015000
B0528413226479S11654858EA0233802498000000015000
B0528453226522S11654820EA0235002517000000015000
B0528493226501S11654759EA0237002536000000015000
B0528533226438S11654743EA0238202544000000015000
B0528573226397S11654800EA0239302561000000015000
B0529013226410S11654863EA0241402579000000015000
B0529053226460S11654869EA0242602598000000015000
B0529093226472S11654811EA0244802619000000015000
B0529133226423S11654768EA0245402612000000015000
B0529173226358S11654806EA0245602629000000015000
B0529213226344S11654884EA0247602649000000015000
B0529253226386S11654921EA0249402662000000015000
B0529293226420S11654882EA0250802681000000015000
B0529333226395S11654824EA0252502693000000015000
B0529373226327S11654812EA0253102697000000015000
B0529413226270S11654863EA0254802724000000015000
B0529453226266S11654934EA0256302729000000015000
B0529493226310S11654973EA0255902722000000015000
B0529533226377S11654981EA0254702710000000015000
B0529573226456S11654980EA0254202709000000015000
B0530013226538S11654969EA0255002722000000000000
B0530053226624S11654951EA0254502706000000000000
B0530093226717S11654933EA0252502685000000000000
B0530133226819S11654912EA0251902687000000000000
B0530173226917S11654893EA0252602695000000000000
B0530213227008S11654878EA0254502727000000000000
B0530253227094S11654867EA0256402731000000000000
B0530293227184S11654856EA0255202703000000000000
B0530333227284S11654843EA0252602687000000000000
B0530373227388S11654833EA0251602672000000000000
B0530413227496S11654823EA0250002658000000000000
B0530453227608S11654811EA0249002651000000000000
B0530493227717S11654798EA0249902671000000000000
B0530533227821S11654786EA0249902655000000000000
B0530573227929S11654773EA0248202641000000000000
B0531013228037S11654758EA0247102630000000000000
B0531053228142S11654742EA0246202626000000000000
B0531093228245S11654726EA0246002623000000000000
B0531133228345S11654711EA0245802621000000000000
B0531173228442S11654696EA0245602616000000000000
B0531213228539S11654686EA0245302613000000000000
B0531253228633S11654674EA0244602605000000000000
B0531293228730S11654661EA0243402594000000000000
B0531333228827S11654652EA0242302581000000000000
B0531373228925S11654642EA0241302570000000000000
B0531413229022S11654629EA0240402563000000000000
B0531453229120S11654617EA0239802556000000000000
B0531493229215S11654602EA0239202551000000000000
B0531533229307S11654586EA0238802545000000000000
B0531573229399S11654572EA0237602532000000000000
B0532013229490S11654555EA0236802525000000000000
B0532053229579S11654534EA0236502522000000000000
B0532093229667S11654512EA0236302524000000000000
B0532133229753S11654492EA0237102532000000000000
B0532173229836S11654478EA0237602541000000000000
B0532213229917S11654462EA0238102542000000000000
B0532253229996S11654448EA0237402525000000000000
B0532293230080S11654433EA0235202501000000000000
B0532333230166S11654418EA0234202500000000000000
B0532373230249S11654407EA0234402500000000000000
B0532413230334S11654399EA0233802493000000000000
B0532453230421S11654391EA0233702492000000000000
B0532493230508S11654384EA0234102501000000000000
B0532533230594S11654379EA0234002496000000000000
B0532573230684S11654373EA0233602489000000000000
B0533013230773S11654364EA0232602472000000000000
B0533053230867S11654355EA0230702457000000000000
B0533093230962S11654347EA0229102439000000000000
B0533133231055S11654336EA0227702426000000000000
B0533173231149S11654326EA0226002405000000000000
B0533213231245S11654316EA0224502392000000000000
B0533253231341S11654305EA0223402383000000000000
B0533293231439S11654292EA0222202369000000000000
B0533333231536S11654282EA0221002354000000000000
B0533373231634S11654270EA0220202351000000000000
B0533413231726S11654258EA0219902347000000000000
B0533453231815S11654248EA0219502344000000000000
B0533493231903S11654240EA0219002338000000000000
B0533533231989S11654234EA0218702334000000000000
B0533573232075S11654225EA0218402333000000000000
B0534013232160S11654215EA0218202330000000000000
B0534053232245S11654205EA0217902328000000000000
B0534093232331S11654192EA0217402321000000000000
B0534133232419S11654179EA0216202304000000000000
B0534173232513S11654166EA0214502286000000000000
B0534213232608S11654150EA0213002271000000000000
B0534253232702S11654131EA0211402254000000000000
B0534293232799S11654110EA0210102242000000000000
B0534333232894S11654091EA0209202234000000000000
B0534373232987S11654071EA0208602228000000000000
B0534413233079S11654054EA0207902220000000000000
B0534453233169S11654039EA0207202211000000000000
B0534493233256S11654023EA0206302201000000000000
B0534533233343S11654009EA0204802183000000000000
B0534573233433S11654005EA0203302169000000000000
B0535013233523S11654000EA0201802151000000000000
B0535053233612S11653983EA0200302136000000000000
B0535093233702S11653954EA0198802122000000000000
B0535133233793S11653935EA0197902116000000000000
B0535173233880S11653926EA0198002120000000000000
B0535213233963S11653916EA0198202119000000000000
B0535253234047S11653911EA0197002104000000000000
B0535293234132S11653913EA0196202104000000000000
B0535333234212S11653919EA0197302121000000000000
B0535373234285S11653923EA0198102118000000000000
B0535413234364S11653916EA0196602101000000000000
B0535453234444S11653914EA0196202102000000000000
B0535493234522S11653918EA0196402102000000000000
B0535533234600S11653919EA0195902094000000000000
B0535573234680S11653909EA0195202091000000000000
B0536013234756S11653897EA0195902102000000000000
B0536053234828S11653879EA0197202113000000000000
B0536093234875S11653815EA0198302127000000000000
B0536133234883S11653729EA0199402135000000000000
B0536173234858S11653646EA0199202129000000000000
B0536213234842S11653560EA0198402118000000000000
B0536253234868S11653476EA0197102108000000000000
B0536293234923S11653409EA0196102087000000000000
B0536333234996S11653363EA0193402059000000000000
B0536373235081S11653338EA0191402048000000000000
B0536413235166S11653324EA0190802040000000000000
B0536453235250S11653305EA0189502017000000000000
B0536493235334S11653270EA0187602007000000000000
B0536533235414S11653237EA0186601993000000000000
B0536573235500S11653221EA0184901976000000000000
B0537013235588S11653225EA0183101958000000000000
B0537053235674S11653243EA0181901951000000000000
B0537093235756S11653269EA0181101940000000000000
B0537133235835S11653299EA0180301929000000000000
B0537173235911S11653331EA0179301917000000000000
B0537213235990S11653357EA0177501899000000000000
B0537253236072S11653386EA0176201885000000000000
B0537293236153S11653424EA0174801870000000000000
B0537333236231S11653473EA0173301854000000000000
B0537373236305S11653525EA0172801855000000000000
B0537413236376S11653571EA0172901856000000000000
B0537453236449S11653608EA0172501845000000000000
B0537493236527S11653637EA0171201830000000000000
B0537533236609S11653660EA0169701820000000000000
B0537573236691S11653677EA0169601821000000000000
B0538013236773S11653692EA0169701820000000000000
B0538053236852S11653701EA0170101829000000000000
B0538093236926S11653707EA0170101824000000000000
B0538133236999S11653708EA0169801820000000000000
B0538173237072S11653711EA0169101809000000000000
B0538213237146S11653710EA0167701792000000000000
B0538253237221S11653714EA0167301797000000000000
B0538293237293S11653723EA0167401794000000000000
B0538333237364S11653736EA0167201797000000000000
B0538373237433S11653749EA0167901805000000000000
B0538413237501S11653763EA0168401809000000000000
B0538453237567S11653776EA0169601830000000000000
B0538493237628S11653789EA0171901851000000000000
B0538533237688S11653794EA0174201874000000000000
B0538573237718S11653747EA0176101889000000000000
B0539013237663S11653714EA0176101884000000000000
B0539053237614S11653779EA0176501905000000015000
B0539093237628S11653851EA0178901933000000015000
B0539133237678S11653854EA0181501956000000030000
B0539173237683S11653794EA0183001964000000030000
B0539213237627S11653768EA0183901978000000015000
B0539253237585S11653827EA0185001990000000030000
B0539293237611S11653885EA0186702009000000030000
B0539333237665S11653876EA0188502026000000030000
B0539373237680S11653815EA0190302046000000030000
B0539413237640S11653767EA0191902062000000030000
B0539453237579S11653781EA0193102074000000030000
B0539493237554S11653849EA0194402089000000030000
B0539533237590S11653898EA0195802109000000030000
B0539573237640S11653879EA0197702122000000030000
B0540013237633S11653812EA0199102140000000030000
B0540053237574S11653796EA0200702155000000015000
B0540093237532S11653854EA0201702163000000015000
B0540133237551S11653922EA0203602187000000015000
B0540173237600S11653926EA0205602200000000015000
B0540213237611S11653868EA0206102209000000015000
B0540253237563S11653833EA0208202233000000015000
B0540293237507S11653868EA0209602244000000015000
B0540333237506S11653939EA0211002259000000015000
B0540373237553S11653968EA0212302269000000015000
B0540413237584S11653922EA0212602270000000015000
B0540453237551S11653861EA0213202289000000015000
B0540493237488S11653876EA0215302307000000015000
B0540533237473S11653952EA0216602320000000015000
B0540573237519S11653987EA0218002333000000015000
B0541013237550S11653940EA0218602332000000015000
B0541053237514S11653880EA0218702340000000015000
B0541093237446S11653858EA0220202360000000015000
B0541133237389S11653911EA0221602367000000015000
B0541173237407S11653985EA0222602380000000015000
B0541213237462S11653989EA0224202398000000015000
B0541253237480S11653929EA0225802417000000015000
B0541293237420S11653906EA0227402434000000015000
B0541333237380S11653968EA0228602445000000015000
B0541373237411S11654028EA0229702456000000015000
B0541413237460S11654009EA0231102468000000015000
B0541453237458S11653940EA0231502470000000015000
B0541493237397S11653914EA0232602491000000015000
B0541533237351S11653974EA0234202506000000015000
B0541573237373S11654039EA0235402515000000015000
B0542013237427S11654030EA0236202522000000015000
B0542053237433S11653961EA0236902527000000015000
B0542093237381S11653909EA0237502541000000015000
B0542133237317S11653932EA0239402562000000015000
B0542173237321S11654006EA0240502567000000015000
B0542213237375S11654017EA0241102574000000015000
B0542253237399S11653952EA0241802581000000015000
B0542293237354S11653901EA0242902596000000015000
B0542333237288S11653940EA0244002604000000015000
B0542373237278S11654026EA0244302608000000015000
B0542413237325S11654083EA0245202618000000015000
B0542453237390S11654097EA0245702621000000015000
B0542493237462S11654104EA0244902607000000000000
B0542533237542S11654110EA0243002588000000000000
B0542573237628S11654115EA0242102582000000000000
B0543013237714S11654114EA0241702578000000000000
B0543053237801S11654114EA0241002572000000000000
B0543093237889S11654114EA0240902574000000000000
B0543133237978S11654108EA0241602580000000000000
B0543173238066S11654093EA0242402594000000000000
B0543213238149S11654082EA0244102611000000000000
B0543253238227S11654075EA0245702625000000000000
B0543293238302S11654069EA0246202627000000000000
B0543333238381S11654058EA0245802626000000000000
B0543373238464S11654049EA0246802643000000000000
B0543413238546S11654035EA0248002657000000000000
B0543453238627S11654011EA0249602671000000000000
B0543493238706S11653987EA0249902662000000000000
B0543533238796S11653966EA0248602660000000000000
B0543573238884S11653950EA0248802653000000000000
B0544013238978S11653940EA0247602638000000000000
B0544053239072S11653931EA0246202625000000000000
B0544093239171S11653926EA0244802610000000000000
B0544133239270S11653923EA0243202592000000000000
B0544173239369S11653926EA0242802594000000000000
B0544213239453S11653926EA0243902606000000000000
B0544253239534S11653919EA0244102602000000000000
B0544293239611S11653910EA0243802598000000000000
B0544333239686S11653902EA0243502597000000000000
B0544373239761S11653898EA0242202575000000000000
B0544413239843S11653892EA0239902551000000000000
B0544453239934S11653889EA0237202523000000000000
B0544493240031S11653889EA0235202506000000000000
B0544533240125S11653890EA0234602501000000000000
B0544573240219S11653889EA0233702485000000000000
B0545013240314S11653887EA0231902467000000000000
B0545053240409S11653885EA0229802443000000000000
B0545093240504S11653881EA0227802429000000000000
B0545133240595S11653879EA0228002440000000000000
B0545173240677S11653884EA0229402449000000000000
B0545213240759S11653881EA0229102447000000000000
B0545253240843S11653870EA0229402452000000000000
B0545293240928S11653854EA0229302450000000000000
B0545333241011S11653845EA0229402452000000000000
B0545373241094S11653838EA0228502433000000000000
B0545413241184S11653835EA0226402413000000000000
B0545453241276S11653829EA0224802396000000000000
B0545493241372S11653825EA0223302381000000000000
B0545533241468S11653824EA0222902386000000000000
B0545573241561S11653822EA0224102399000000000000
B0546013241650S11653819EA0224302399000000000000
B0546053241740S11653818EA0224102395000000000000
B0546093241830S11653814EA0224402403000000000000
B0546133241914S11653811EA0225802419000000000000
B0546173241995S11653809EA0226402418000000000000
B0546213242077S11653806EA0225402408000000000000
B0546253242161S11653805EA0224102393000000000000
B0546293242251S11653805EA0222602375000000000000
B0546333242346S11653805EA0221502361000000000000
B0546373242442S11653805EA0220302349000000000000
B0546413242540S11653805EA0218802332000000000000
B0546453242638S11653803EA0217002313000000000000
B0546493242740S11653806EA0215702302000000000000
B0546533242840S11653811EA0214902294000000000000
B0546573242939S11653818EA0213902282000000000000
B0547013243036S11653822EA0212902272000000000000
B0547053243132S11653827EA0211602258000000000000
B0547093243230S11653833EA0210402248000000000000
B0547133243326S11653838EA0209802243000000000000
B0547173243420S11653841EA0209802245000000000000
B0547213243511S11653841EA0209602238000000000000
B0547253243602S11653837EA0208802230000000000000
B0547293243694S11653832EA0207602217000000000000
B0547333243788S11653825EA0206102200000000000000
B0547373243881S11653819EA0204602184000000000000
B0547413243976S11653814EA0203202169000000000000
B0547453244068S11653807EA0201802154000000000000
B0547493244162S11653801EA0200102136000000000000
B0547533244254S11653794EA0198902125000000000000
B0547573244344S11653789EA0197602108000000000000
B0548013244434S11653786EA0196602107000000000000
B0548053244517S11653786EA0196902112000000000000
B0548093244600S11653789EA0196602099000000000000
B0548133244685S11653796EA0195802098000000000000
B0548173244768S11653801EA0196302106000000000000
B0548213244846S11653805EA0196902110000000000000
B0548253244924S11653810EA0196402099000000000000
B0548293245004S11653815EA0195502091000000000000
B0548333245086S11653822EA0194602082000000000000
B0548373245169S11653828EA0193802076000000000000
B0548413245255S11653840EA0193202070000000000000
B0548453245341S11653850EA0192902064000000000000
B0548493245428S11653862EA0191902051000000000000
B0548533245518S11653871EA0191202047000000000000
B0548573245608S11653879EA0191402060000000000000
B0549013245692S11653883EA0193402081000000000000
B0549053245771S11653885EA0194702087000000000000
B0549093245849S11653889EA0194302080000000000000
B0549133245929S11653894EA0193502072000000000000
B0549173246008S11653897EA0193002065000000000000
B0549213246090S11653901EA0192002052000000000000
B0549253246172S11653907EA0190402034000000000000
B0549293246255S11653918EA0188902020000000000000
B0549333246336S11653931EA0187902014000000000000
B0549373246415S11653945EA0187902017000000000000
B0549413246490S11653959EA0188702025000000000000
B0549453246562S11653972EA0189202030000000000000
B0549493246629S11653992EA0190102042000000000000
B0549533246692S11654013EA0190702040000000000000
B0549573246758S11654027EA0189802029000000000000
B0550013246828S11654035EA0189402032000000000000
B0550053246896S11654039EA0190602051000000000000
B0550093246958S11654037EA0192402061000000000000
B0550133247021S11654031EA0192502057000000000000
B0550173247086S11654005EA0192602066000000000000
B0550213247147S11653967EA0193502073000000000000
B0550253247148S11653877EA0195102095000000000000
B0550293247078S11653831EA0196302100000000000000
B0550333247004S11653851EA0196102097000000000000
B0550373246943S11653898EA0196302104000000000000
B0550413246911S11653963EA0197102110000000000000
B0550453246927S11654026EA0197202113000000000000
B0550493246975S11654026EA0198402129000000000000
B0550533246979S11653950EA0199502135000000015000
B0550573246906S11653906EA0199002131000000015000
B0551013246841S11653948EA0200302151000000015000
B0551053246822S11654014EA0201102155000000015000
B0551093246828S11654083EA0201102154000000015000
B0551133246863S11654140EA0201502161000000000000
B0551173246914S11654183EA0202202163000000000000
B0551213246983S11654199EA0201302155000000000000
B0551253247058S11654186EA0201202161000000000000
B0551293247132S11654154EA0201202155000000000000
B0551333247207S11654109EA0200902156000000000000
B0551373247277S11654052EA0201102158000000000000
B0551413247346S11653993EA0200402148000000000000
B0551453247416S11653936EA0199602142000000000000
B0551493247493S11653901EA0199802151000000000000
B0551533247564S11653892EA0201802184000000000000
B0551573247632S11653888EA0204402200000000000000
B0552013247691S11653842EA0205402202000000015000
B0552053247743S11653783EA0205002196000000000000
B0552093247803S11653728EA0204002184000000000000
B0552133247875S11653695EA0204102194000000000000
B0552173247945S11653695EA0206202217000000000000
B0552213248003S11653731EA0207002216000000000000
B0552253248068S11653766EA0205402196000000000000
B0552293248145S11653801EA0203202172000000000000
B0552333248226S11653837EA0202702173000000000000
B0552373248302S11653877EA0203002175000000000000
B0552413248377S11653922EA0202502169000000000000
B0552453248451S11653971EA0201802164000000000000
B0552493248523S11654013EA0201902167000000000000
B0552533248594S11654048EA0202502175000000000000
B0552573248661S11654075EA0204102194000000000000
B0553013248721S11654093EA0206202215000000000000
B0553053248774S11654106EA0207902232000000000000
B0553093248826S11654096EA0208702238000000000000
B0553133248851S11654027EA0209102237000000000000
B0553173248812S11653959EA0209002239000000000000
B0553213248743S11653957EA0209302240000000000000
B0553253248709S11654015EA0209702249000000000000
B0553293248717S11654080EA0210302249000000000000
B0553333248746S11654137EA0210202247000000000000
B0553373248786S11654189EA0209802242000000000000
B0553413248845S11654223EA0208102221000000000000
B0553453248916S11654223EA0207502223000000000000
B0553493248985S11654202EA0208002233000000000000
B0553533249047S11654163EA0208602237000000000000
B0553573249106S11654113EA0209302248000000000000
B0554013249160S11654057EA0210402258000000000000
B0554053249207S11653997EA0211402270000000000000
B0554093249229S11653923EA0212802282000000000000
B0554133249185S11653862EA0213502283000000000000
B0554173249111S11653872EA0213202278000000000000
B0554213249041S11653915EA0213002278000000000000
B0554253249001S11653985EA0213502288000000000000
B0554293249016S11654058EA0213902279000000000000
B0554333249072S11654110EA0212402265000000000000
B0554373249144S11654144EA0211602262000000000000
B0554413249222S11654170EA0211002253000000000000
B0554453249307S11654183EA0210002241000000000000
B0554493249400S11654196EA0208902234000000000000
B0554533249491S11654204EA0209002239000000000000
B0554573249579S11654208EA0209302240000000000000
B0555013249667S11654214EA0207902216000000000000
B0555053249764S11654219EA0204902188000000000000
B0555093249864S11654225EA0203402180000000000000
B0555133249961S11654228EA0203302175000000000000
B0555173250059S11654235EA0202102155000000000000
B0555213250160S11654245EA0200302139000000000000
B0555253250262S11654257EA0198902125000000000000
B0555293250363S11654267EA0197502111000000000000
B0555333250464S11654278EA0195902093000000000000
B0555373250567S11654291EA0194002077000000000000
B0555413250667S11654308EA0194002085000000000000
B0555453250765S11654321EA0194402087000000000000
B0555493250858S11654338EA0194202081000000000000
B0555533250953S11654355EA0193202063000000000000
B0555573251051S11654369EA0190902040000000000000
B0556013251151S11654387EA0189202022000000000000
B0556053251250S11654407EA0187802015000000000000
B0556093251346S11654430EA0187702014000000000000
B0556133251441S11654455EA0187102007000000000000
B0556173251533S11654482EA0186201998000000000000
B0556213251625S11654509EA0184801981000000000000
B0556253251719S11654539EA0183201964000000000000
B0556293251810S11654573EA0182301957000000000000
B0556333251898S11654607EA0182401962000000000000
B0556373251981S11654644EA0183201973000000000000
B0556413252057S11654682EA0184701993000000000000
