ACAM4N6
HFDTE290820
HFFXA050
HFPLTPILOT:JOHN WELSH              
HFGTYGLIDERTYPE:HORNET      
HFGIDGLIDERID:VH-GMY      
HFDTM100GPSDATUM:
HFRFWFIRMWAREVERSION:F2.6
HFRHWHARDWAREVERSION:300 Series Version 2
HFFTYFRTYPE:CAMBRIDGE AERO INSTRUMENTS, 302+
HFGPS:GARMIN,LVS-25,12,18000
HFPRSPRESSALTSENSOR:INTERSEMA, MS5534-AP, 20000
I033638FXA3941ENL4247REX
LCAMSBVER:5FWVER:F26300
C080320044711080320000102
C0000000N00000000WTAKEOFF     
C3207549S11656849EBEVERLEY AF 
C3053283S11642765EWongan Hills
C3136216S11753732EDoodlakine  
C3207549S11656849EBEVERLEY AF 
C0000000N00000000WLANDING     
B0229033207338S11656856EA0012800208000000000000
B0229053207338S11656856EA0012800208000000000000
B0229073207338S11656856EA0012800208000000000000
B0229093207337S11656854EA0012800208000000000000
B0229113207337S11656854EA0012900208000000000000
B0229133207337S11656854EA0012800208000000000000
B0229153207337S11656854EA0012800208000000000000
B0229173207337S11656854EA0012900208000000000000
B0229193207337S11656854EA0012900208000000000000
B0229213207337S11656854EA0012900208000000000000
B0229233207337S11656856EA0012900208000000000000
B0229253207337S11656856EA0012900208000000000000
B0229273207337S11656856EA0012900208000000000000
B0229293207338S11656856EA0012800208000000000000
B0229313207339S11656857EA0012900208000000000000
B0229323207342S11656858EA0012900208000000000000
B0229363207363S11656875EA0012900208000000000000
B0229403207398S11656901EA0013000208000000000000
B0229443207449S11656936EA0013300208000000000000
B0229483207506S11656975EA0013500212000000000000
B0229523207567S11657017EA0014200223000000000000
B0229563207628S11657059EA0015700242000000000000
B0230003207681S11657101EA0018300270000000000000
B0230043207728S11657142EA0020800293000000000000
B0230083207775S11657183EA0022200306000000000000
B0230123207820S11657224EA0023900327000000000000
B0230163207865S11657264EA0025500344000000000000
B0230203207911S11657306EA0027000357000000000000
B0230243207958S11657350EA0028700376000000000000
B0230283208008S11657395EA0030400392000000000000
B0230323208057S11657439EA0032400413000000000000
B0230363208105S11657478EA0035100440000000000000
B0230403208151S11657523EA0037400461000000000000
B0230443208197S11657560EA0039100478000000000000
B0230483208249S11657576EA0040900497000000000000
B0230523208303S11657582EA0042800516000000000000
B0230563208355S11657601EA0045500542000000000000
B0231003208408S11657625EA0048200568000000000000
B0231043208465S11657655EA0050200587000000000000
B0231083208524S11657686EA0052300610000000000000
B0231123208581S11657715EA0054800633000000000000
B0231163208637S11657738EA0057300658000000000000
B0231203208693S11657758EA0059800684000000000000
B0231243208745S11657746EA0063100716000000000000
B0231283208785S11657699EA0065100739000000000000
B0231323208788S11657633EA0067700762000000000000
B0231363208737S11657590EA0069100766000000000000
B0231403208667S11657606EA0069400770000000000000
B0231443208626S11657672EA0070000775000000000000
B0231483208637S11657740EA0070300778000000000000
B0231523208678S11657768EA0070600781000000000000
B0231563208711S11657741EA0071600794000000015000
B0232003208695S11657688EA0072700802000000015000
B0232043208633S11657671EA0073200803000000015000
B0232083208581S11657724EA0073100805000000015000
B0232123208581S11657794EA0073200807000000015000
B0232163208616S11657832EA0073700814000000015000
B0232203208646S11657807EA0074700819000000015000
B0232243208620S11657751EA0074800823000000015000
B0232283208551S11657751EA0075900833000000015000
B0232323208506S11657816EA0076300835000000015000
B0232363208520S11657881EA0076600839000000015000
B0232403208560S11657880EA0076900842000000015000
B0232443208567S11657819EA0076800839000000015000
B0232483208508S11657777EA0077700855000000015000
B0232523208443S11657811EA0078900860000000015000
B0232563208424S11657884EA0079000861000000015000
B0233003208456S11657930EA0079200864000000015000
B0233043208491S11657905EA0079500866000000015000
B0233083208478S11657845EA0079800870000000015000
B0233123208413S11657820EA0080100876000000015000
B0233163208343S11657849EA0080700882000000015000
B0233203208305S11657915EA0081500888000000015000
B0233243208308S11657984EA0081900890000000015000
B0233283208342S11658019EA0082200891000000015000
B0233323208377S11658002EA0082300893000000015000
B0233363208378S11657946EA0082500894000000015000
B0233403208330S11657901EA0082800902000000015000
B0233443208262S11657915EA0083600907000000015000
B0233483208220S11657979EA0083600904000000000000
B0233523208222S11658050EA0083700906000000015000
B0233563208256S11658087EA0083800903000000015000
B0234003208303S11658099EA0082800895000000000000
B0234043208353S11658095EA0082400894000000000000
B0234083208402S11658082EA0082600899000000000000
B0234123208448S11658069EA0082800899000000000000
B0234163208496S11658056EA0082600898000000000000
B0234203208543S11658045EA0082800900000000000000
B0234243208589S11658031EA0083200905000000000000
B0234283208607S11657983EA0084300915000000000000
B0234323208564S11657933EA0085000922000000000000
B0234363208499S11657946EA0085900935000000000000
B0234403208472S11658006EA0087600954000000000000
B0234443208495S11658047EA0088800959000000000000
B0234483208520S11658014EA0089000959000000015000
B0234523208487S11657959EA0089100959000000015000
B0234563208420S11657966EA0090000976000000015000
B0235003208398S11658031EA0091600989000000015000
B0235043208428S11658066EA0092500995000000015000
B0235083208451S11658027EA0092600998000000015000
B0235123208418S11657974EA0093101003000000015000
B0235163208353S11657972EA0093701009000000015000
B0235203208305S11658026EA0094501024000000015000
B0235243208316S11658086EA0096001034000000015000
B0235283208351S11658089EA0096801038000000015000
B0235323208357S11658035EA0096701033000000015000
B0235363208314S11657983EA0096901042000000015000
B0235403208244S11657978EA0097701051000000015000
B0235443208186S11658023EA0098901064000000000000
B0235483208170S11658091EA0100201074000000000000
B0235523208196S11658132EA0100801080000000015000
B0235563208230S11658118EA0101001079000000015000
B0236003208235S11658062EA0100901080000000015000
B0236043208203S11658000EA0101301085000000015000
B0236083208136S11657974EA0102001097000000015000
B0236123208083S11658024EA0103001101000000015000
B0236163208097S11658083EA0103801111000000015000
B0236203208139S11658069EA0104301114000000015000
B0236243208134S11658005EA0105101125000000015000
B0236283208077S11657965EA0106101132000000015000
B0236323208009S11657989EA0106701141000000015000
B0236363207982S11658060EA0107401145000000015000
B0236403208008S11658115EA0108201153000000015000
B0236443208051S11658112EA0108901157000000015000
B0236483208058S11658053EA0109701167000000015000
B0236523208014S11657998EA0110101168000000015000
B0236563207941S11657997EA0110401174000000015000
B0237003207892S11658058EA0110901179000000015000
B0237043207909S11658122EA0111401183000000015000
B0237083207950S11658109EA0111901189000000015000
B0237123207935S11658048EA0112501195000000015000
B0237163207867S11658028EA0112701193000000015000
B0237203207804S11658076EA0112701196000000015000
B0237243207791S11658156EA0113101199000000015000
B0237283207827S11658203EA0113701205000000015000
B0237323207869S11658177EA0114101207000000015000
B0237363207870S11658110EA0114501215000000015000
B0237403207823S11658058EA0115501223000000015000
B0237443207753S11658054EA0115801226000000015000
B0237483207696S11658104EA0116001230000000015000
B0237523207662S11658177EA0116301231000000000000
B0237563207662S11658251EA0116701236000000000000
B0238003207692S11658299EA0117401242000000000000
B0238043207733S11658305EA0117601242000000015000
B0238083207763S11658270EA0117501242000000015000
B0238123207765S11658212EA0117701245000000015000
B0238163207724S11658158EA0117901244000000015000
B0238203207654S11658141EA0117601239000000015000
B0238243207579S11658167EA0116901233000000000000
B0238283207503S11658210EA0116501229000000000000
B0238323207440S11658277EA0116401230000000000000
B0238363207425S11658366EA0116501225000000000000
B0238403207459S11658435EA0115801220000000000000
B0238443207516S11658459EA0114701205000000000000
B0238483207580S11658457EA0113501200000000000000
B0238523207644S11658455EA0113101192000000000000
B0238563207710S11658451EA0111901180000000000000
B0239003207779S11658442EA0110901169000000000000
B0239043207849S11658433EA0110901175000000000000
B0239083207919S11658425EA0110601166000000000000
B0239123207991S11658422EA0110201166000000000000
B0239163208060S11658422EA0110801177000000000000
B0239203208125S11658422EA0111101175000000000000
B0239243208191S11658421EA0110101161000000000000
B0239283208260S11658417EA0109001152000000000000
B0239323208329S11658407EA0107901139000000000000
B0239363208398S11658392EA0107001131000000000000
B0239403208468S11658379EA0106301124000000000000
B0239443208535S11658365EA0105701122000000000000
B0239483208602S11658357EA0105301117000000000000
B0239523208668S11658356EA0104801113000000000000
B0239563208730S11658357EA0104501112000000000000
B0240003208792S11658359EA0104101106000000000000
B0240043208857S11658361EA0102901092000000000000
B0240083208922S11658364EA0102401092000000000000
B0240123208984S11658368EA0102401088000000000000
B0240163209046S11658372EA0101501078000000000000
B0240203209109S11658374EA0100801073000000000000
B0240243209171S11658379EA0099901063000000000000
B0240283209232S11658387EA0098701049000000000000
B0240323209296S11658394EA0097101032000000000000
B0240363209362S11658398EA0095201014000000000000
B0240403209430S11658398EA0094401008000000000000
B0240443209495S11658399EA0093400995000000000000
B0240483209561S11658398EA0092300986000000000000
B0240523209627S11658399EA0091400977000000000000
B0240563209692S11658399EA0090400968000000000000
B0241003209757S11658399EA0089700965000000000000
B0241043209820S11658398EA0089400959000000000000
B0241083209886S11658399EA0088600948000000000000
B0241123209955S11658403EA0087500939000000000000
B0241163210023S11658413EA0087000939000000000000
B0241203210088S11658426EA0087300944000000000000
B0241243210151S11658438EA0087700946000000000000
B0241283210215S11658455EA0088200953000000000000
B0241323210276S11658472EA0089200963000000000000
B0241363210336S11658490EA0089800969000000000000
B0241403210394S11658511EA0090200973000000000000
B0241443210453S11658528EA0090700978000000000000
B0241483210504S11658515EA0092401002000000000000
B0241523210495S11658457EA0094601015000000000000
B0241563210431S11658444EA0094701010000000000000
B0242003210378S11658499EA0094201011000000000000
B0242043210370S11658576EA0095401023000000000000
B0242083210404S11658608EA0096801040000000015000
B0242123210424S11658567EA0097901049000000015000
B0242163210387S11658515EA0098801054000000015000
B0242203210318S11658522EA0099501063000000015000
B0242243210276S11658585EA0099901065000000015000
B0242283210285S11658654EA0100301070000000015000
B0242323210326S11658678EA0100801079000000015000
B0242363210357S11658642EA0102001091000000015000
B0242403210332S11658582EA0103201100000000015000
B0242443210264S11658573EA0103901104000000015000
B0242483210214S11658634EA0104001107000000015000
B0242523210218S11658707EA0104701114000000015000
B0242563210262S11658734EA0105601122000000015000
B0243003210290S11658691EA0107001135000000015000
B0243043210255S11658629EA0107401137000000015000
B0243083210181S11658620EA0108201148000000015000
B0243123210123S11658674EA0108901152000000015000
B0243163210115S11658754EA0108701147000000015000
B0243203210157S11658804EA0108601149000000015000
B0243243210203S11658782EA0109901169000000015000
B0243283210194S11658717EA0111701179000000015000
B0243323210127S11658693EA0112301185000000015000
B0243363210064S11658742EA0112901192000000015000
B0243403210051S11658820EA0113501199000000015000
B0243443210086S11658871EA0114701210000000015000
B0243483210124S11658847EA0116001225000000015000
B0243523210106S11658786EA0117301233000000015000
B0243563210042S11658759EA0117801234000000015000
B0244003209972S11658793EA0117801235000000015000
B0244043209929S11658866EA0118201233000000015000
B0244083209925S11658945EA0118001235000000015000
B0244123209959S11658999EA0118201241000000015000
B0244163210003S11659003EA0119001248000000015000
B0244203210027S11658958EA0119401253000000015000
B0244243210008S11658892EA0120201262000000015000
B0244283209946S11658853EA0121401276000000015000
B0244323209872S11658872EA0122501289000000015000
B0244363209829S11658942EA0123201298000000015000
B0244403209841S11659015EA0123801302000000015000
B0244443209885S11659041EA0124501310000000015000
B0244483209917S11659010EA0125301318000000015000
B0244523209907S11658951EA0126201323000000015000
B0244563209852S11658908EA0126501323000000015000
B0245003209778S11658927EA0127001332000000015000
B0245043209738S11658999EA0127901343000000015000
B0245083209748S11659071EA0128701347000000015000
B0245123209791S11659100EA0129001350000000015000
B0245163209825S11659071EA0129301354000000015000
B0245203209816S11659012EA0129801357000000015000
B0245243209759S11658976EA0130201361000000015000
B0245283209689S11658999EA0130501365000000015000
B0245323209647S11659071EA0131101373000000015000
B0245363209652S11659144EA0131701378000000015000
B0245403209690S11659183EA0131701376000000015000
B0245443209735S11659196EA0130901367000000015000
B0245483209790S11659197EA0130001352000000000000
B0245523209850S11659188EA0129201351000000000000
B0245563209910S11659172EA0128701345000000000000
B0246003209971S11659153EA0127801336000000000000
B0246043210028S11659128EA0127501340000000000000
B0246083210082S11659103EA0128301349000000000000
B0246123210137S11659085EA0128201342000000000000
B0246163210192S11659070EA0127401335000000000000
B0246203210248S11659050EA0126501325000000000000
B0246243210305S11659029EA0125801320000000000000
B0246283210363S11659012EA0125801322000000000000
B0246323210420S11659001EA0125701318000000000000
B0246363210479S11658994EA0125101312000000000000
B0246403210537S11658988EA0124701308000000000000
B0246443210593S11658983EA0124101301000000000000
B0246483210649S11658975EA0123201293000000000000
B0246523210705S11658964EA0122701291000000000000
B0246563210764S11658964EA0122501285000000000000
B0247003210825S11658977EA0121501272000000000000
B0247043210885S11659001EA0120601265000000000000
B0247083210942S11659032EA0120001263000000000000
B0247123210998S11659063EA0119801260000000000000
B0247163211055S11659094EA0119201255000000000000
B0247203211115S11659126EA0119201258000000000000
B0247243211174S11659155EA0119101250000000000000
B0247283211234S11659191EA0118401246000000000000
B0247323211293S11659230EA0118301247000000000000
B0247363211350S11659272EA0118301244000000000000
B0247403211407S11659315EA0117901240000000000000
B0247443211463S11659360EA0117601239000000000000
B0247483211516S11659405EA0117501238000000000000
B0247523211570S11659449EA0117101234000000000000
B0247563211623S11659492EA0116901232000000000000
B0248003211678S11659531EA0116701232000000000000
B0248043211728S11659569EA0116701231000000000000
B0248083211782S11659601EA0116701231000000000000
B0248123211836S11659633EA0116301225000000000000
B0248163211892S11659664EA0115901223000000000000
B0248203211948S11659698EA0115301215000000000000
B0248243212008S11659731EA0114601207000000000000
B0248283212070S11659760EA0113701200000000000000
B0248323212130S11659794EA0113101195000000000000
B0248363212187S11659834EA0112701191000000000000
B0248403212242S11659878EA0112301188000000000000
B0248443212298S11659917EA0112001181000000000000
B0248483212356S11659955EA0111201173000000000000
B0248523212416S11659986EA0110701172000000000000
B0248563212473S11700013EA0110301166000000000000
B0249003212532S11700036EA0109601160000000000000
B0249043212589S11700058EA0109101155000000000000
B0249083212647S11700081EA0108701155000000000000
B0249123212703S11700101EA0109301165000000000000
B0249163212758S11700120EA0110201171000000000000
B0249203212812S11700136EA0111101184000000000000
B0249243212862S11700132EA0112901201000000000000
B0249283212876S11700081EA0114401214000000000000
B0249323212832S11700036EA0115401223000000000000
B0249363212767S11700049EA0116401231000000000000
B0249403212733S11700110EA0117101240000000000000
B0249443212751S11700163EA0118201247000000000000
B0249483212793S11700167EA0119001255000000015000
B0249523212802S11700114EA0119501258000000015000
B0249563212747S11700077EA0119701257000000015000
B0250003212688S11700127EA0119601261000000015000
B0250043212688S11700202EA0120701279000000015000
B0250083212729S11700244EA0121901284000000015000
B0250123212781S11700244EA0122701292000000015000
B0250163212799S11700192EA0124001307000000015000
B0250203212751S11700145EA0125001310000000015000
B0250243212677S11700163EA0125401316000000015000
B0250283212634S11700234EA0126301328000000015000
B0250323212645S11700311EA0127401337000000015000
B0250363212690S11700361EA0127901339000000015000
B0250403212747S11700393EA0127901341000000015000
B0250443212802S11700429EA0128601352000000000000
B0250483212854S11700458EA0129001349000000000000
B0250523212909S11700484EA0127801334000000000000
B0250563212968S11700506EA0126701327000000000000
B0251003213028S11700524EA0125801317000000000000
B0251043213085S11700539EA0125201315000000000000
B0251083213141S11700553EA0125601321000000000000
B0251123213193S11700566EA0126501330000000000000
B0251163213243S11700576EA0126601331000000000000
B0251203213292S11700587EA0126401328000000000000
B0251243213343S11700592EA0126601332000000000000
B0251283213395S11700591EA0126801331000000000000
B0251323213448S11700593EA0127001335000000000000
B0251363213501S11700601EA0127101335000000000000
B0251403213555S11700614EA0127101335000000000000
B0251443213608S11700632EA0126901333000000000000
B0251483213664S11700649EA0126801332000000000000
B0251523213722S11700663EA0126001322000000000000
B0251563213782S11700676EA0125401316000000000000
B0252003213841S11700683EA0125101315000000000000
B0252043213898S11700689EA0125001313000000000000
B0252083213951S11700700EA0124901314000000000000
B0252123213999S11700714EA0124801313000000000000
B0252163214047S11700732EA0124301307000000000000
B0252203214098S11700752EA0123201294000000000000
B0252243214154S11700774EA0122401290000000000000
B0252283214209S11700795EA0122501293000000000000
B0252323214261S11700809EA0122801295000000000000
B0252363214309S11700823EA0123101299000000000000
B0252403214358S11700836EA0123201298000000000000
B0252443214408S11700853EA0123501303000000000000
B0252483214454S11700877EA0123601302000000000000
B0252523214501S11700899EA0123001296000000000000
B0252563214553S11700921EA0122601291000000000000
B0253003214608S11700940EA0122701296000000000000
B0253043214664S11700962EA0122801294000000000000
B0253083214722S11700985EA0123101301000000000000
B0253123214778S11701008EA0124201311000000000000
B0253163214831S11701030EA0124801316000000000000
B0253203214885S11701050EA0125001316000000000000
B0253243214941S11701065EA0125001314000000000000
B0253283214995S11701077EA0124701312000000000000
B0253323215048S11701091EA0124301307000000000000
B0253363215099S11701111EA0123901304000000000000
B0253403215149S11701129EA0123501301000000000000
B0253443215199S11701148EA0123401299000000000000
B0253483215254S11701170EA0122901291000000000000
B0253523215311S11701191EA0122201287000000000000
B0253563215370S11701208EA0121901284000000000000
B0254003215427S11701217EA0122301291000000000000
B0254043215483S11701222EA0122701292000000000000
B0254083215536S11701225EA0122801295000000000000
B0254123215588S11701229EA0122801292000000000000
B0254163215640S11701229EA0122301289000000000000
B0254203215692S11701230EA0122101286000000000000
B0254243215744S11701237EA0121701282000000000000
B0254283215795S11701243EA0121701285000000000000
B0254323215843S11701251EA0122201291000000000000
B0254363215891S11701258EA0122501291000000000000
B0254403215940S11701267EA0122601291000000000000
B0254443215991S11701277EA0122401289000000000000
B0254483216043S11701286EA0122401291000000000000
B0254523216096S11701291EA0123101298000000000000
B0254563216148S11701294EA0123701305000000000000
B0255003216200S11701294EA0124101306000000000000
B0255043216254S11701291EA0123701300000000000000
B0255083216309S11701282EA0123401299000000000000
B0255123216368S11701280EA0123501301000000000000
B0255163216426S11701285EA0124001307000000000000
B0255203216484S11701290EA0124601313000000000000
B0255243216541S11701295EA0124601309000000000000
B0255283216598S11701299EA0123601299000000000000
B0255323216657S11701303EA0123101296000000000000
B0255363216716S11701311EA0123101295000000000000
B0255403216774S11701317EA0123101295000000000000
B0255443216829S11701328EA0123001294000000000000
B0255483216885S11701341EA0123001295000000000000
B0255523216941S11701354EA0122401285000000000000
B0255563216998S11701365EA0121401275000000000000
B0256003217058S11701378EA0120601269000000000000
B0256043217117S11701394EA0120301266000000000000
B0256083217175S11701408EA0119901260000000000000
B0256123217234S11701427EA0119201256000000000000
B0256163217294S11701447EA0118701249000000000000
B0256203217353S11701468EA0117801239000000000000
B0256243217416S11701486EA0116901231000000000000
B0256283217477S11701503EA0116501228000000000000
B0256323217535S11701519EA0115901221000000000000
B0256363217593S11701534EA0115701221000000000000
B0256403217647S11701547EA0115001214000000000000
B0256443217703S11701562EA0115001216000000000000
B0256483217759S11701576EA0115601223000000000000
B0256523217814S11701590EA0115901223000000000000
B0256563217871S11701605EA0115501219000000000000
B0257003217927S11701620EA0114701208000000000000
B0257043217986S11701635EA0113701201000000000000
B0257083218044S11701649EA0113501202000000000000
B0257123218098S11701659EA0114401210000000000000
B0257163218153S11701670EA0114601212000000000000
B0257203218207S11701677EA0114901214000000000000
B0257243218259S11701668EA0114601211000000000000
B0257283218308S11701649EA0114601211000000000000
B0257323218354S11701623EA0114501209000000000000
B0257363218400S11701590EA0113801199000000000000
B0257403218448S11701550EA0112801190000000000000
B0257443218499S11701510EA0112301189000000000000
B0257483218548S11701475EA0112601193000000000000
B0257523218599S11701445EA0112901197000000000000
B0257563218646S11701415EA0113501202000000000000
B0258003218692S11701385EA0113701201000000000000
B0258043218740S11701358EA0112801193000000000000
B0258083218792S11701332EA0112201184000000000000
B0258123218844S11701307EA0111701182000000000000
B0258163218895S11701278EA0111901185000000000000
B0258203218946S11701251EA0111801184000000000000
B0258243218997S11701222EA0111601180000000000000
B0258283219047S11701195EA0111501181000000000000
B0258323219098S11701170EA0111701182000000000000
B0258363219147S11701144EA0111801183000000000000
B0258403219198S11701118EA0111501179000000000000
B0258443219249S11701091EA0110901172000000000000
B0258483219298S11701056EA0110301165000000000000
B0258523219342S11701007EA0109501156000000000000
B0258563219393S11700964EA0109101159000000000000
B0259003219448S11700934EA0109301160000000000000
B0259043219504S11700910EA0109901167000000000000
B0259083219557S11700888EA0110501172000000000000
B0259123219613S11700869EA0110501170000000000000
B0259163219670S11700848EA0110401172000000000000
B0259203219725S11700825EA0111001177000000000000
B0259243219779S11700800EA0110901174000000000000
B0259283219834S11700777EA0110401168000000000000
B0259323219890S11700748EA0109701165000000000000
B0259363219943S11700718EA0110001164000000000000
B0259403219996S11700682EA0109201156000000000000
B0259443220050S11700640EA0108701152000000000000
B0259483220103S11700596EA0108801152000000000000
B0259523220156S11700556EA0108701153000000000000
B0259563220211S11700522EA0108701153000000000000
B0300003220265S11700491EA0108601152000000000000
B0300043220319S11700461EA0108501151000000000000
B0300083220372S11700432EA0108801156000000000000
B0300123220421S11700397EA0108901157000000000000
B0300163220464S11700357EA0109101158000000000000
B0300203220507S11700314EA0108801151000000000000
B0300243220559S11700284EA0108701155000000000000
B0300283220611S11700263EA0109601165000000000000
B0300323220622S11700202EA0110701174000000000000
B0300363220563S11700162EA0110801171000000000000
B0300403220493S11700201EA0110201165000000000000
B0300443220450S11700276EA0109901162000000000000
B0300483220454S11700355EA0110301169000000000000
B0300523220493S11700401EA0110401169000000000000
B0300563220545S11700403EA0110101164000000015000
B0301003220601S11700393EA0109701161000000000000
B0301043220658S11700375EA0109401159000000000000
B0301083220711S11700348EA0108901150000000000000
B0301123220745S11700286EA0108301147000000000000
B0301163220735S11700203EA0108101147000000000000
B0301203220683S11700138EA0109001160000000015000
B0301243220609S11700116EA0110201170000000015000
B0301283220531S11700133EA0110701173000000000000
B0301323220473S11700182EA0111401181000000000000
B0301363220490S11700240EA0111901184000000000000
B0301403220525S11700219EA0111701178000000015000
B0301443220512S11700154EA0110901167000000015000
B0301483220471S11700085EA0109501154000000015000
B0301523220419S11700015EA0108801151000000015000
B0301563220359S11659947EA0108301143000000000000
B0302003220298S11659881EA0107601136000000000000
B0302043220237S11659815EA0106701128000000000000
B0302083220173S11659750EA0106201124000000000000
B0302123220108S11659687EA0106101123000000000000
B0302163220033S11659635EA0106201126000000000000
B0302203219946S11659607EA0106701129000000000000
B0302243219882S11659545EA0107001138000000000000
B0302283219881S11659475EA0108201155000000000000
B0302323219913S11659435EA0109401161000000000000
B0302363219955S11659438EA0109801167000000000000
B0302403219979S11659491EA0110601176000000000000
B0302443219970S11659561EA0111401185000000000000
B0302483219925S11659616EA0112501193000000000000
B0302523219857S11659627EA0112701194000000000000
B0302563219799S11659582EA0112701190000000000000
B0303003219777S11659513EA0112501191000000000000
B0303043219792S11659451EA0112501189000000000000
B0303083219830S11659414EA0112601196000000000000
B0303123219874S11659419EA0113501204000000000000
B0303163219904S11659466EA0114301211000000000000
B0303203219908S11659532EA0115001216000000000000
B0303243219877S11659600EA0115001213000000000000
B0303283219817S11659648EA0114501207000000000000
B0303323219741S11659675EA0114301207000000000000
B0303363219661S11659690EA0114201206000000000000
B0303403219574S11659703EA0112801188000000000000
B0303443219480S11659708EA0112401187000000000000
B0303483219400S11659742EA0113601203000000000000
B0303523219381S11659817EA0114801211000000000000
B0303563219420S11659859EA0114901209000000000000
B0304003219476S11659860EA0114601210000000015000
B0304043219526S11659841EA0115401222000000000000
B0304083219553S11659790EA0115901223000000000000
B0304123219535S11659720EA0115201209000000000000
B0304163219468S11659672EA0113701195000000015000
B0304203219383S11659669EA0112801190000000015000
B0304243219298S11659692EA0112801192000000000000
B0304283219218S11659722EA0112801193000000000000
B0304323219137S11659751EA0112801193000000000000
B0304363219058S11659779EA0112801193000000000000
B0304403218976S11659811EA0112001178000000000000
B0304443218891S11659844EA0110301163000000000000
B0304483218804S11659878EA0109801164000000000000
B0304523218713S11659911EA0109701161000000000000
B0304563218625S11659948EA0110001163000000000000
B0305003218551S11700013EA0109801161000000000000
B0305043218470S11700077EA0109401160000000000000
B0305083218389S11700138EA0109601159000000000000
B0305123218305S11700194EA0109701165000000000000
B0305163218224S11700247EA0110401169000000000000
B0305203218148S11700306EA0111001177000000000000
B0305243218113S11700390EA0112501188000000000000
B0305283218136S11700462EA0112601189000000000000
B0305323218188S11700474EA0112401186000000015000
B0305363218224S11700431EA0112101182000000015000
B0305403218217S11700359EA0112201181000000015000
B0305443218165S11700301EA0111901177000000015000
B0305483218084S11700277EA0111401177000000015000
B0305523217998S11700281EA0111801185000000015000
B0305563217912S11700301EA0113001199000000015000
B0306003217882S11700371EA0115101217000000015000
B0306043217921S11700398EA0115701218000000015000
B0306083217950S11700351EA0115701220000000015000
B0306123217931S11700284EA0116201226000000015000
B0306163217864S11700250EA0117101235000000015000
B0306203217795S11700281EA0117801242000000015000
B0306243217768S11700350EA0118901253000000015000
B0306283217790S11700401EA0119101252000000015000
B0306323217834S11700401EA0118701250000000015000
B0306363217859S11700350EA0119201259000000015000
B0306403217834S11700286EA0120101268000000015000
B0306443217767S11700259EA0121001270000000015000
B0306483217695S11700286EA0121101271000000015000
B0306523217648S11700353EA0121101274000000015000
B0306563217648S11700424EA0121501279000000015000
B0307003217691S11700450EA0121601279000000015000
B0307043217724S11700409EA0122301288000000015000
B0307083217708S11700340EA0123201295000000015000
B0307123217642S11700301EA0123801302000000015000
B0307163217563S11700323EA0124501306000000015000
B0307203217521S11700397EA0125101312000000015000
B0307243217543S11700463EA0125301315000000015000
B0307283217589S11700468EA0126001322000000015000
B0307323217611S11700415EA0126401326000000015000
B0307363217576S11700348EA0127201336000000015000
B0307403217499S11700332EA0128401346000000015000
B0307443217442S11700389EA0129101356000000015000
B0307483217443S11700462EA0129801357000000015000
B0307523217483S11700493EA0129801359000000015000
B0307563217525S11700468EA0129901361000000015000
B0308003217526S11700402EA0130301368000000015000
B0308043217474S11700345EA0131001373000000015000
B0308083217392S11700329EA0131101364000000015000
B0308123217304S11700349EA0129101342000000015000
B0308163217210S11700379EA0128001339000000015000
B0308203217117S11700414EA0127201328000000000000
B0308243217019S11700450EA0125301306000000000000
B0308283216922S11700492EA0124901314000000000000
B0308323216828S11700536EA0125801315000000000000
B0308363216736S11700580EA0125601317000000000000
B0308403216644S11700621EA0125601316000000000000
B0308443216551S11700658EA0125201312000000000000
B0308483216458S11700691EA0124801310000000000000
B0308523216365S11700722EA0124901310000000000000
B0308563216273S11700752EA0125301317000000000000
B0309003216183S11700777EA0126001321000000000000
B0309043216096S11700791EA0125701317000000000000
B0309083216008S11700803EA0124901309000000000000
B0309123215918S11700819EA0124301304000000000000
B0309163215828S11700831EA0124201304000000000000
B0309203215737S11700832EA0123801300000000000000
B0309243215644S11700827EA0123301294000000000000
B0309283215553S11700827EA0123301296000000000000
B0309323215462S11700835EA0123301296000000000000
B0309363215373S11700842EA0123701304000000000000
B0309403215289S11700855EA0124601312000000000000
B0309443215215S11700887EA0126001328000000000000
B0309483215145S11700925EA0126801331000000000000
B0309523215065S11700956EA0126101321000000000000
B0309563214976S11700969EA0125701317000000000000
B0310003214879S11700965EA0125301313000000000000
B0310043214786S11700952EA0125801320000000000000
B0310083214692S11700936EA0126001319000000000000
B0310123214596S11700918EA0124901303000000000000
B0310163214496S11700901EA0123701293000000000000
B0310203214396S11700884EA0123001289000000000000
B0310243214297S11700870EA0122501283000000000000
B0310283214200S11700856EA0122101280000000000000
B0310323214103S11700843EA0121901278000000000000
B0310363214007S11700840EA0121301271000000000000
B0310403213912S11700842EA0120901266000000000000
B0310443213817S11700843EA0120501266000000000000
B0310483213725S11700842EA0120401261000000000000
B0310523213631S11700838EA0119501252000000000000
B0310563213538S11700829EA0118501243000000000000
B0311003213444S11700817EA0117801237000000000000
B0311043213351S11700816EA0117201232000000000000
B0311083213260S11700817EA0116601225000000000000
B0311123213170S11700819EA0117001231000000000000
B0311163213079S11700834EA0117201239000000000000
B0311203213005S11700879EA0119601268000000000000
B0311243213004S11700951EA0122001281000000000000
B0311283213050S11700961EA0122201288000000015000
B0311323213063S11700907EA0123301298000000015000
B0311363213013S11700864EA0124901309000000015000
B0311403212957S11700901EA0126101326000000015000
B0311443212959S11700964EA0127001328000000015000
B0311483213002S11700981EA0127001327000000015000
B0311523213026S11700938EA0128501336000000015000
B0311563213007S11700883EA0130001346000000015000
B0312003212955S11700847EA0130701352000000015000
B0312043212885S11700836EA0131201361000000015000
B0312083212811S11700849EA0131801369000000015000
B0312123212733S11700882EA0131401363000000015000
B0312163212653S11700922EA0130601358000000000000
B0312203212567S11700964EA0129901350000000000000
B0312243212480S11701007EA0129301350000000000000
B0312283212395S11701048EA0129701354000000000000
B0312323212311S11701083EA0129601353000000000000
B0312363212227S11701116EA0130001361000000000000
B0312403212147S11701150EA0130901371000000000000
B0312443212069S11701185EA0131401375000000000000
B0312483211990S11701220EA0131901378000000000000
B0312523211912S11701258EA0131701377000000000000
B0312563211835S11701295EA0131901378000000000000
B0313003211758S11701330EA0131601374000000000000
B0313043211681S11701373EA0131001365000000000000
B0313083211622S11701438EA0130301361000000000000
B0313123211583S11701518EA0129801355000000000000
B0313163211546S11701602EA0129001347000000000000
B0313203211483S11701663EA0128401344000000000000
B0313243211399S11701676EA0127801336000000000000
B0313283211316S11701653EA0127001327000000000000
B0313323211242S11701601EA0126001319000000000000
B0313363211172S11701542EA0125401313000000000000
B0313403211103S11701484EA0124601306000000000000
B0313443211033S11701427EA0123701296000000000000
B0313483210960S11701367EA0122801284000000000000
B0313523210888S11701304EA0121701275000000000000
B0313563210814S11701247EA0120801265000000000000
B0314003210742S11701190EA0119801257000000000000
B0314043210670S11701133EA0119101250000000000000
B0314083210597S11701077EA0118901252000000000000
B0314123210526S11701022EA0118901250000000000000
B0314163210453S11700966EA0118301243000000000000
B0314203210378S11700910EA0117801239000000000000
B0314243210303S11700855EA0117301232000000000000
B0314283210228S11700800EA0116801228000000000000
B0314323210151S11700747EA0116001219000000000000
B0314363210072S11700692EA0115301214000000000000
B0314403209994S11700637EA0114901210000000000000
B0314443209915S11700584EA0114901211000000000000
B0314483209838S11700533EA0114801210000000000000
B0314523209760S11700483EA0114801209000000000000
B0314563209681S11700436EA0114401206000000000000
B0315003209601S11700389EA0114001202000000000000
B0315043209522S11700341EA0113801200000000000000
B0315083209443S11700292EA0113201195000000000000
B0315123209366S11700241EA0112901193000000000000
B0315163209289S11700193EA0112801192000000000000
B0315203209214S11700149EA0112601188000000000000
B0315243209135S11700116EA0112001180000000000000
B0315283209050S11700095EA0111001169000000000000
B0315323208963S11700084EA0109501154000000000000
B0315363208872S11700077EA0108401144000000000000
B0315403208780S11700073EA0107501138000000000000
B0315443208686S11700076EA0107501142000000000000
B0315483208597S11700088EA0108401150000000000000
B0315523208509S11700107EA0108401151000000000000
B0315563208428S11700140EA0109401168000000000000
B0316003208400S11700214EA0111401185000000000000
B0316043208439S11700246EA0112501193000000015000
B0316083208463S11700207EA0113201197000000015000
B0316123208430S11700154EA0113301195000000015000
B0316163208361S11700129EA0113101194000000015000
B0316203208287S11700167EA0113801210000000015000
B0316243208279S11700244EA0116101236000000015000
B0316283208317S11700264EA0117901245000000015000
B0316323208334S11700224EA0118201248000000015000
B0316363208296S11700176EA0118301249000000015000
B0316403208226S11700193EA0119001262000000015000
B0316443208197S11700264EA0120601276000000015000
B0316483208225S11700314EA0121901289000000015000
B0316523208262S11700311EA0122601290000000015000
B0316563208266S11700263EA0122601290000000015000
B0317003208223S11700219EA0122501289000000015000
B0317043208155S11700205EA0122901297000000015000
B0317083208093S11700249EA0123601299000000015000
B0317123208078S11700331EA0123901304000000015000
B0317163208114S11700368EA0124801320000000015000
B0317203208145S11700342EA0126101324000000015000
B0317243208134S11700289EA0126801326000000015000
B0317283208079S11700253EA0127001331000000015000
B0317323208009S11700264EA0127401335000000015000
B0317363207952S11700322EA0127601338000000015000
B0317403207928S11700398EA0128301346000000015000
B0317443207945S11700461EA0128801350000000015000
B0317483207986S11700485EA0128901350000000015000
B0317523208022S11700465EA0129101353000000015000
B0317563208035S11700419EA0129201352000000015000
B0318003208019S11700359EA0128801346000000015000
B0318043207980S11700298EA0128501348000000015000
B0318083207930S11700240EA0129001353000000015000
B0318123207875S11700184EA0129301356000000000000
B0318163207818S11700128EA0129401355000000000000
B0318203207755S11700069EA0129701359000000000000
B0318243207690S11700015EA0131401379000000000000
B0318283207616S11700015EA0132901391000000000000
B0318323207599S11700084EA0133801402000000000000
B0318363207641S11700114EA0134701409000000015000
B0318403207677S11700071EA0135401418000000015000
B0318443207672S11659998EA0136301420000000015000
B0318483207624S11659933EA0135401401000000015000
B0318523207557S11659872EA0133501386000000015000
B0318563207485S11659809EA0132401377000000015000
B0319003207411S11659748EA0131601367000000015000
B0319043207336S11659687EA0130601360000000000000
B0319083207258S11659627EA0130301360000000000000
B0319123207180S11659569EA0129501349000000000000
B0319163207103S11659505EA0128701345000000000000
B0319203207030S11659435EA0128101336000000000000
B0319243206969S11659356EA0127301330000000000000
B0319283206916S11659270EA0127201333000000000000
B0319323206868S11659187EA0128601353000000000000
B0319363206822S11659111EA0130101365000000000000
B0319403206780S11659032EA0130401362000000000000
B0319443206751S11658946EA0130101362000000000000
B0319483206728S11658858EA0130601370000000000000
B0319523206713S11658769EA0131401378000000000000
B0319563206697S11658684EA0132101383000000000000
B0320003206680S11658599EA0132201383000000000000
B0320043206666S11658515EA0132101383000000000000
B0320083206658S11658430EA0131701377000000000000
B0320123206650S11658342EA0131401373000000000000
B0320163206644S11658253EA0131301377000000000000
B0320203206631S11658164EA0131101370000000000000
B0320243206614S11658075EA0130701368000000000000
B0320283206604S11657988EA0130201363000000000000
B0320323206600S11657902EA0129601355000000000000
B0320363206596S11657819EA0128501344000000000000
B0320403206588S11657738EA0128001345000000000000
B0320443206576S11657662EA0128201348000000000000
B0320483206570S11657588EA0128801352000000000000
B0320523206565S11657519EA0129801365000000000000
B0320563206549S11657452EA0130701373000000000000
B0321003206515S11657390EA0131601383000000000000
B0321043206458S11657350EA0132901394000000000000
B0321083206388S11657351EA0133101390000000000000
B0321123206325S11657402EA0133101394000000000000
B0321163206301S11657480EA0133801401000000000000
B0321203206318S11657553EA0134001400000000000000
B0321243206366S11657590EA0133501394000000015000
B0321283206419S11657586EA0133401397000000015000
B0321323206458S11657550EA0133601400000000015000
B0321363206470S11657490EA0134401410000000015000
B0321403206446S11657429EA0135701424000000015000
B0321443206393S11657386EA0136901433000000015000
B0321483206322S11657374EA0137401438000000015000
B0321523206245S11657384EA0137601433000000015000
B0321563206163S11657398EA0136901430000000000000
B0322003206077S11657413EA0136701427000000000000
B0322043205986S11657426EA0136301421000000000000
B0322083205894S11657442EA0135701415000000000000
B0322123205803S11657456EA0135501413000000000000
B0322163205717S11657475EA0135701412000000000000
B0322203205647S11657525EA0135101408000000000000
B0322243205603S11657597EA0134301399000000000000
B0322283205592S11657680EA0133201387000000000000
B0322323205618S11657753EA0131901374000000000000
B0322363205670S11657796EA0130701365000000000000
B0322403205729S11657803EA0130101361000000000000
B0322443205781S11657789EA0129801360000000000000
B0322483205829S11657763EA0129001349000000000000
B0322523205876S11657732EA0128101343000000000000
B0322563205922S11657699EA0128001345000000000000
B0323003205971S11657668EA0128001343000000000000
B0323043206020S11657638EA0128001345000000000000
B0323083206068S11657611EA0128701354000000000000
B0323123206116S11657586EA0129801366000000000000
B0323163206166S11657560EA0130301366000000000000
B0323203206218S11657534EA0130401371000000000000
B0323243206271S11657507EA0131301381000000000000
B0323283206322S11657481EA0131701379000000000000
B0323323206375S11657455EA0131401376000000000000
B0323363206428S11657428EA0130901372000000000000
B0323403206481S11657398EA0130301364000000000000
B0323443206536S11657371EA0129501358000000000000
B0323483206593S11657343EA0129301357000000000000
B0323523206649S11657320EA0129201356000000000000
B0323563206706S11657298EA0129101354000000000000
B0324003206761S11657273EA0129201356000000000000
B0324043206814S11657244EA0129001353000000000000
B0324083206866S11657212EA0128401347000000000000
B0324123206920S11657179EA0128101346000000000000
B0324163206972S11657147EA0127801342000000000000
B0324203207026S11657112EA0127301335000000000000
B0324243207079S11657074EA0126801333000000000000
B0324283207133S11657039EA0126501328000000000000
B0324323207189S11657004EA0126301326000000000000
B0324363207246S11656970EA0126001321000000000000
B0324403207300S11656932EA0125201315000000000000
B0324443207359S11656899EA0124301307000000000000
B0324483207419S11656875EA0123901303000000000000
B0324523207481S11656854EA0123601299000000000000
B0324563207542S11656828EA0123301297000000000000
B0325003207605S11656806EA0123401298000000000000
B0325043207663S11656789EA0123401299000000000000
B0325083207720S11656770EA0123301298000000000000
B0325123207766S11656731EA0123601302000000000000
B0325163207778S11656669EA0124201304000000000000
B0325203207748S11656600EA0123901299000000000000
B0325243207684S11656549EA0123301295000000000000
B0325283207605S11656523EA0122901293000000000000
B0325323207520S11656507EA0122501288000000000000
B0325363207432S11656492EA0122301283000000000000
B0325403207341S11656479EA0121601275000000000000
B0325443207247S11656467EA0120701265000000000000
B0325483207155S11656455EA0119701259000000000000
B0325523207063S11656450EA0119101253000000000000
B0325563206972S11656454EA0118701248000000000000
B0326003206881S11656470EA0118301245000000000000
B0326043206792S11656494EA0118301244000000000000
B0326083206705S11656527EA0118201244000000000000
B0326123206622S11656567EA0118101243000000000000
B0326163206539S11656611EA0117701239000000000000
B0326203206458S11656662EA0117601241000000000000
B0326243206381S11656717EA0117801242000000000000
B0326283206306S11656771EA0117801242000000000000
B0326323206232S11656826EA0117501238000000000000
B0326363206156S11656883EA0117101236000000000000
B0326403206080S11656940EA0117401240000000000000
B0326443206003S11656996EA0117501240000000000000
B0326483205922S11657052EA0117401235000000000000
B0326523205844S11657109EA0116701230000000000000
B0326563205765S11657165EA0116101222000000000000
B0327003205686S11657220EA0115901226000000000000
B0327043205608S11657273EA0115901221000000000000
B0327083205527S11657324EA0115701224000000000000
B0327123205452S11657372EA0117101241000000000000
B0327163205405S11657441EA0118901259000000000000
B0327203205428S11657491EA0120101269000000000000
B0327243205465S11657469EA0120001265000000000000
B0327283205453S11657408EA0119801269000000015000
B0327323205395S11657371EA0120501276000000015000
B0327363205323S11657365EA0121001278000000015000
B0327403205275S11657417EA0121701289000000015000
B0327443205293S11657477EA0122001284000000015000
B0327483205344S11657481EA0121601282000000015000
B0327523205366S11657423EA0121901288000000015000
B0327563205328S11657359EA0122301290000000015000
B0328003205253S11657346EA0122201287000000015000
B0328043205189S11657395EA0122601295000000015000
B0328083205170S11657476EA0122901297000000015000
B0328123205201S11657537EA0123501305000000015000
B0328163205249S11657534EA0124101308000000015000
B0328203205267S11657476EA0124001303000000015000
B0328243205228S11657412EA0123401299000000015000
B0328283205154S11657387EA0123201299000000015000
B0328323205072S11657398EA0123301299000000015000
B0328363204989S11657416EA0123201299000000000000
B0328403204903S11657439EA0123401302000000000000
B0328443204817S11657469EA0123901307000000000000
B0328483204733S11657506EA0123801300000000000000
B0328523204645S11657541EA0123001294000000000000
B0328563204554S11657572EA0122501289000000000000
B0329003204463S11657602EA0121801278000000000000
B0329043204370S11657634EA0121601282000000000000
B0329083204279S11657670EA0122201290000000000000
B0329123204196S11657711EA0124001311000000000000
B0329163204154S11657783EA0126301329000000000000
B0329203204187S11657831EA0127001334000000000000
B0329243204227S11657805EA0126501330000000000000
B0329283204226S11657741EA0126501329000000015000
B0329323204180S11657684EA0126601333000000015000
B0329363204112S11657658EA0126901336000000015000
B0329403204035S11657670EA0126901338000000000000
B0329443203961S11657702EA0127201339000000000000
B0329483203902S11657763EA0127401341000000000000
B0329523203893S11657846EA0127701344000000000000
B0329563203932S11657889EA0128501355000000015000
B0330003203966S11657862EA0129301363000000015000
B0330043203943S11657806EA0129801362000000015000
B0330083203868S11657794EA0129801362000000015000
B0330123203805S11657850EA0130101368000000015000
B0330163203794S11657932EA0130301368000000015000
B0330203203837S11657975EA0130801375000000015000
B0330243203881S11657949EA0131301376000000015000
B0330283203878S11657887EA0131701380000000015000
B0330323203824S11657840EA0131901381000000015000
B0330363203749S11657837EA0132101381000000015000
B0330403203680S11657879EA0132501388000000015000
B0330443203644S11657950EA0132501388000000015000
B0330483203633S11658034EA0132101381000000015000
B0330523203640S11658118EA0131401374000000000000
B0330563203650S11658203EA0131101371000000000000
B0331003203663S11658291EA0129901359000000000000
B0331043203676S11658385EA0129101353000000000000
B0331083203688S11658477EA0128801351000000000000
B0331123203701S11658570EA0128101341000000000000
B0331163203715S11658665EA0127201335000000000000
B0331203203731S11658760EA0126801329000000000000
B0331243203744S11658856EA0126001321000000000000
B0331283203757S11658953EA0125201314000000000000
B0331323203766S11659045EA0125001316000000000000
B0331363203775S11659132EA0125001313000000000000
B0331403203783S11659218EA0124301306000000000000
B0331443203792S11659302EA0123501298000000000000
B0331483203806S11659384EA0123001295000000000000
B0331523203823S11659462EA0122601289000000000000
B0331563203844S11659543EA0122201286000000000000
B0332003203866S11659623EA0121701280000000000000
B0332043203892S11659701EA0121401278000000000000
B0332083203919S11659776EA0121301277000000000000
B0332123203946S11659848EA0120901273000000000000
B0332163203971S11659921EA0120601269000000000000
B0332203203997S11659997EA0120201265000000000000
B0332243204026S11700068EA0120201267000000000000
B0332283204060S11700134EA0120201266000000000000
B0332323204099S11700193EA0119601263000000000000
B0332363204139S11700249EA0120001267000000000000
B0332403204179S11700301EA0120001265000000000000
B0332443204223S11700341EA0119701262000000000000
B0332483204274S11700366EA0119701264000000000000
B0332523204325S11700375EA0120301265000000000000
B0332563204372S11700354EA0119801260000000000000
B0333003204416S11700319EA0118501245000000000000
B0333043204468S11700288EA0118001243000000000000
B0333083204516S11700258EA0118901255000000000000
B0333123204561S11700220EA0119301257000000000000
B0333163204580S11700156EA0120101269000000000000
B0333203204539S11700104EA0121601284000000000000
B0333243204472S11700111EA0122201284000000000000
B0333283204427S11700173EA0122601289000000000000
B0333323204431S11700246EA0122801288000000000000
B0333363204473S11700292EA0122901293000000000000
B0333403204521S11700283EA0123401298000000015000
B0333443204546S11700227EA0123301295000000015000
B0333483204525S11700156EA0123101296000000015000
B0333523204463S11700114EA0123501306000000015000
B0333563204390S11700124EA0124601317000000015000
B0334003204338S11700181EA0125601321000000015000
B0334043204326S11700254EA0126201331000000015000
B0334083204359S11700306EA0126801334000000015000
B0334123204407S11700306EA0127001335000000015000
B0334163204433S11700257EA0127101333000000015000
B0334203204413S11700185EA0126301325000000015000
B0334243204349S11700140EA0126601337000000015000
B0334283204278S11700151EA0128101348000000015000
B0334323204232S11700212EA0128701352000000015000
B0334363204232S11700286EA0129101360000000015000
B0334403204270S11700331EA0129801365000000015000
B0334443204313S11700316EA0130201368000000015000
B0334483204323S11700258EA0130201362000000015000
B0334523204281S11700201EA0129701361000000015000
B0334563204206S11700184EA0129801363000000015000
B0335003204135S11700215EA0130401372000000015000
B0335043204105S11700289EA0130901375000000015000
B0335083204121S11700367EA0130701371000000015000
B0335123204156S11700437EA0130501369000000015000
B0335163204200S11700502EA0130401368000000000000
B0335203204243S11700565EA0130501368000000000000
B0335243204287S11700627EA0130101362000000000000
B0335283204334S11700687EA0129001346000000000000
B0335323204385S11700745EA0128301345000000000000
B0335363204437S11700804EA0128601346000000000000
B0335403204491S11700858EA0128601348000000000000
B0335443204551S11700896EA0129301356000000000000
B0335483204616S11700901EA0130301368000000000000
B0335523204661S11700852EA0131601382000000000000
B0335563204629S11700790EA0133201401000000015000
B0336003204563S11700804EA0134101400000000015000
B0336043204538S11700875EA0134001402000000015000
B0336083204574S11700920EA0134901416000000015000
B0336123204615S11700884EA0136201428000000015000
B0336163204593S11700819EA0137001434000000015000
B0336203204528S11700804EA0137301432000000015000
B0336243204468S11700851EA0136701428000000015000
B0336283204424S11700921EA0136801432000000015000
B0336323204382S11700994EA0137101435000000000000
B0336363204339S11701073EA0135601412000000000000
B0336403204294S11701160EA0134901414000000000000
B0336443204245S11701246EA0135501418000000000000
B0336483204196S11701328EA0135901425000000000000
B0336523204147S11701407EA0136501427000000000000
B0336563204096S11701488EA0136101423000000000000
B0337003204041S11701568EA0135301413000000000000
B0337043203988S11701651EA0134301404000000000000
B0337083203936S11701739EA0133801402000000000000
B0337123203891S11701827EA0134601414000000000000
B0337163203848S11701915EA0135601426000000000000
B0337203203833S11702001EA0137301442000000000000
B0337243203875S11702034EA0139101462000000000000
B0337283203897S11701984EA0140201463000000015000
B0337323203858S11701919EA0139801458000000015000
B0337363203783S11701896EA0139601458000000015000
B0337403203703S11701927EA0139701461000000015000
B0337443203638S11701989EA0139801459000000000000
B0337483203586S11702067EA0139601459000000000000
B0337523203538S11702151EA0139501459000000000000
B0337563203493S11702236EA0138901449000000000000
B0338003203445S11702325EA0138101440000000000000
B0338043203397S11702417EA0137101432000000000000
B0338083203346S11702507EA0136301423000000000000
B0338123203291S11702597EA0135001410000000000000
B0338163203238S11702684EA0134201404000000000000
B0338203203190S11702773EA0133301394000000000000
B0338243203140S11702864EA0132201384000000000000
B0338283203088S11702954EA0131401376000000000000
B0338323203035S11703042EA0131001375000000000000
B0338363202986S11703131EA0130701370000000000000
B0338403202935S11703217EA0130101366000000000000
B0338443202880S11703300EA0129901363000000000000
B0338483202825S11703378EA0130001367000000000000
B0338523202770S11703451EA0130001365000000000000
B0338563202715S11703525EA0129601360000000000000
B0339003202663S11703603EA0129201354000000000000
B0339043202627S11703685EA0129001355000000000000
B0339083202614S11703767EA0129101356000000000000
B0339123202613S11703842EA0129101357000000000000
B0339163202624S11703912EA0129301361000000000000
B0339203202649S11703973EA0129801364000000000000
B0339243202687S11704025EA0129601360000000000000
B0339283202734S11704064EA0129301356000000000000
B0339323202786S11704097EA0129301355000000000000
B0339363202841S11704108EA0129301356000000000000
B0339403202890S11704079EA0129701362000000000000
B0339443202879S11704012EA0130601373000000000000
B0339483202821S11703973EA0130501367000000000000
B0339523202745S11703988EA0129601356000000000000
B0339563202682S11704041EA0129201352000000000000
B0340003202626S11704108EA0129301358000000000000
B0340043202585S11704188EA0129501356000000000000
B0340083202563S11704276EA0128901348000000000000
B0340123202570S11704367EA0127301333000000000000
B0340163202591S11704457EA0126201325000000000000
B0340203202613S11704544EA0125901319000000000000
B0340243202635S11704631EA0124801309000000000000
B0340283202656S11704717EA0124301304000000000000
B0340323202676S11704801EA0124501311000000000000
B0340363202700S11704881EA0125001316000000000000
B0340403202724S11704957EA0125601321000000000000
B0340443202752S11705033EA0125701320000000000000
B0340483202779S11705109EA0125201313000000000000
B0340523202800S11705193EA0124201302000000000000
B0340563202818S11705278EA0123201293000000000000
B0341003202835S11705359EA0122601289000000000000
B0341043202852S11705434EA0122201284000000000000
B0341083202867S11705509EA0122001284000000000000
B0341123202883S11705580EA0122201289000000000000
B0341163202905S11705644EA0122501284000000000000
B0341203202944S11705694EA0121901280000000000000
B0341243202997S11705711EA0121901281000000000000
B0341283203056S11705705EA0121501277000000000000
B0341323203103S11705661EA0121901285000000000000
B0341363203124S11705590EA0122501291000000000000
B0341403203105S11705514EA0123101295000000000000
B0341443203046S11705466EA0123501299000000000000
B0341483202968S11705468EA0123201293000000015000
B0341523202903S11705522EA0122601291000000015000
B0341563202854S11705594EA0122801297000000000000
B0342003202822S11705672EA0124001306000000000000
B0342043202843S11705726EA0125001315000000000000
B0342083202880S11705700EA0125001309000000015000
B0342123202864S11705628EA0124801313000000015000
B0342163202795S11705585EA0125401318000000015000
B0342203202715S11705598EA0126201330000000015000
B0342243202670S11705661EA0127001334000000015000
B0342283202685S11705720EA0127101335000000015000
B0342323202727S11705730EA0127001334000000015000
B0342363202765S11705700EA0127501338000000015000
B0342403202784S11705648EA0128101345000000015000
B0342443202754S11705585EA0129001353000000015000
B0342483202684S11705575EA0129501356000000015000
B0342523202637S11705633EA0129901362000000015000
B0342563202652S11705693EA0130301367000000015000
B0343003202696S11705701EA0130301362000000015000
B0343043202713S11705642EA0130601373000000015000
B0343083202670S11705585EA0131601380000000015000
B0343123202598S11705581EA0132301386000000015000
B0343163202542S11705633EA0132701389000000015000
B0343203202526S11705705EA0133001391000000015000
B0343243202558S11705759EA0132501384000000015000
B0343283202609S11705769EA0132801391000000015000
B0343323202644S11705728EA0133201393000000015000
B0343363202639S11705658EA0132901387000000015000
B0343403202583S11705600EA0132301385000000015000
B0343443202502S11705588EA0132201384000000015000
B0343483202424S11705626EA0132201386000000015000
B0343523202362S11705688EA0132301386000000015000
B0343563202303S11705753EA0131801379000000000000
B0344003202243S11705823EA0130701367000000000000
B0344043202181S11705897EA0130101362000000000000
B0344083202115S11705971EA0129501357000000000000
B0344123202048S11706044EA0129101354000000000000
B0344163201980S11706117EA0128801349000000000000
B0344203201911S11706191EA0128001340000000000000
B0344243201846S11706268EA0127701343000000000000
B0344283201781S11706341EA0127601337000000000000
B0344323201713S11706413EA0126701327000000000000
B0344363201638S11706481EA0125901322000000000000
B0344403201560S11706541EA0125601320000000000000
B0344443201482S11706595EA0126501332000000000000
B0344483201404S11706645EA0127301339000000000000
B0344523201326S11706692EA0127101334000000000000
B0344563201248S11706738EA0126801333000000000000
B0345003201167S11706780EA0126701332000000000000
B0345043201088S11706816EA0126701332000000000000
B0345083201008S11706854EA0126401328000000000000
B0345123200927S11706887EA0126301328000000000000
B0345163200846S11706920EA0126301326000000000000
B0345203200767S11706954EA0126101323000000000000
B0345243200686S11706991EA0125801323000000000000
B0345283200608S11707028EA0125501319000000000000
B0345323200531S11707069EA0124901309000000000000
B0345363200455S11707111EA0123901302000000000000
B0345403200377S11707154EA0123701302000000000000
B0345443200304S11707200EA0124401311000000000000
B0345483200243S11707254EA0126101329000000000000
B0345523200243S11707321EA0128101351000000000000
B0345563200288S11707330EA0128801349000000000000
B0346003200319S11707280EA0128301341000000000000
B0346043200305S11707210EA0127901342000000015000
B0346083200257S11707154EA0128101346000000015000
B0346123200189S11707141EA0128201342000000015000
B0346163200117S11707170EA0127401338000000000000
B0346203200045S11707213EA0128001348000000000000
B0346243200027S11707280EA0129901369000000000000
B0346283200070S11707297EA0131001376000000015000
B0346323200089S11707241EA0131501381000000015000
B0346363200044S11707191EA0132501393000000015000
B0346403159978S11707212EA0132901390000000015000
B0346443159955S11707277EA0134001409000000015000
B0346483159985S11707314EA0135101417000000015000
B0346523200023S11707290EA0135601418000000015000
B0346563200014S11707228EA0135801422000000015000
B0347003159953S11707204EA0136001421000000015000
B0347043159897S11707248EA0136001426000000015000
B0347083159900S11707312EA0136801435000000015000
B0347123159940S11707325EA0137801440000000015000
B0347163159968S11707279EA0137901437000000015000
B0347203159953S11707212EA0137801442000000015000
B0347243159894S11707176EA0138501450000000015000
B0347283159824S11707189EA0138701447000000015000
B0347323159770S11707240EA0139101454000000015000
B0347363159760S11707306EA0139701464000000015000
B0347403159796S11707340EA0140201464000000015000
B0347443159840S11707314EA0139901457000000015000
B0347483159851S11707245EA0139301454000000015000
B0347523159825S11707170EA0139101453000000015000
B0347563159776S11707101EA0138601446000000015000
B0348003159715S11707033EA0137501434000000000000
B0348043159651S11706963EA0136801429000000000000
B0348083159589S11706889EA0135801417000000000000
B0348123159524S11706814EA0135101414000000000000
B0348163159463S11706740EA0135201414000000000000
B0348203159404S11706664EA0134801410000000000000
B0348243159347S11706593EA0134401404000000000000
B0348283159289S11706523EA0133901403000000000000
B0348323159231S11706455EA0133801400000000000000
B0348363159172S11706391EA0133401397000000000000
B0348403159110S11706330EA0133301396000000000000
B0348443159047S11706269EA0133001392000000000000
B0348483158982S11706208EA0133001396000000000000
B0348523158921S11706144EA0133201393000000000000
B0348563158861S11706079EA0132801390000000000000
B0349003158797S11706017EA0132401388000000000000
B0349043158732S11705956EA0132301386000000000000
B0349083158666S11705892EA0131801379000000000000
B0349123158600S11705828EA0131201373000000000000
B0349163158531S11705765EA0130301363000000000000
B0349203158460S11705704EA0129301352000000000000
B0349243158389S11705641EA0128401346000000000000
B0349283158320S11705577EA0128301345000000000000
B0349323158250S11705515EA0128301345000000000000
B0349363158181S11705454EA0128101341000000000000
B0349403158111S11705395EA0127601340000000000000
B0349443158039S11705338EA0127501338000000000000
B0349483157968S11705280EA0127101333000000000000
B0349523157894S11705221EA0126901333000000000000
B0349563157820S11705161EA0126801329000000000000
B0350003157743S11705103EA0126301321000000000000
B0350043157664S11705046EA0125601316000000000000
B0350083157582S11704992EA0124701304000000000000
B0350123157498S11704939EA0123401293000000000000
B0350163157417S11704882EA0122701288000000000000
B0350203157336S11704827EA0122101283000000000000
B0350243157255S11704770EA0121301274000000000000
B0350283157177S11704709EA0120901271000000000000
B0350323157103S11704647EA0120901272000000000000
B0350363157030S11704589EA0120801270000000000000
B0350403156960S11704532EA0120401267000000000000
B0350443156890S11704480EA0119901260000000000000
B0350483156816S11704432EA0119301257000000000000
B0350523156743S11704385EA0119801266000000000000
B0350563156674S11704336EA0120901279000000000000
B0351003156607S11704289EA0121901285000000000000
B0351043156530S11704285EA0123101300000000000000
B0351083156475S11704342EA0123901309000000000000
B0351123156474S11704415EA0125201320000000015000
B0351163156512S11704440EA0125601325000000015000
B0351203156533S11704401EA0127101344000000015000
B0351243156507S11704346EA0128201345000000015000
B0351283156439S11704326EA0128101345000000015000
B0351323156369S11704363EA0128201350000000015000
B0351363156332S11704435EA0129301366000000015000
B0351403156344S11704504EA0130101366000000030000
B0351443156386S11704530EA0130001364000000015000
B0351483156419S11704491EA0130201368000000015000
B0351523156408S11704420EA0131101377000000030000
B0351563156351S11704366EA0131501383000000030000
B0352003156270S11704365EA0132101389000000030000
B0352043156208S11704423EA0132701395000000030000
B0352083156196S11704505EA0133301399000000030000
B0352123156232S11704560EA0133901407000000015000
B0352163156279S11704547EA0134501408000000030000
B0352203156287S11704475EA0134701414000000030000
B0352243156247S11704404EA0135001417000000030000
B0352283156169S11704388EA0135701428000000030000
B0352323156097S11704432EA0136301426000000030000
B0352363156061S11704514EA0136201426000000030000
B0352403156072S11704597EA0135901423000000030000
B0352443156113S11704657EA0136501437000000030000
B0352483156157S11704656EA0138601458000000030000
B0352523156153S11704604EA0139901463000000030000
B0352563156094S11704567EA0139901462000000030000
B0353003156016S11704578EA0140001464000000030000
B0353043155967S11704641EA0140601475000000030000
B0353083155970S11704714EA0141001476000000030000
B0353123156013S11704742EA0141201481000000030000
B0353163156048S11704705EA0141601481000000030000
B0353203156032S11704635EA0141901481000000030000
B0353243155979S11704566EA0141201472000000015000
B0353283155915S11704500EA0140301465000000015000
B0353323155847S11704435EA0139801462000000015000
B0353363155779S11704368EA0139601461000000015000
B0353403155710S11704302EA0139301456000000015000
B0353443155643S11704229EA0139101456000000015000
B0353483155578S11704154EA0138701450000000015000
B0353523155515S11704075EA0138101447000000015000
B0353563155452S11703995EA0137701439000000000000
B0354003155389S11703915EA0136701429000000000000
B0354043155326S11703833EA0135801423000000000000
B0354083155269S11703751EA0135301419000000000000
B0354123155218S11703670EA0135001417000000000000
B0354163155168S11703590EA0134601413000000000000
B0354203155119S11703513EA0134801417000000000000
B0354243155070S11703439EA0135201420000000000000
B0354283155018S11703367EA0134801411000000000000
B0354323154966S11703293EA0133801405000000000000
B0354363154917S11703218EA0133601404000000000000
B0354403154874S11703141EA0133801408000000000000
B0354443154841S11703062EA0133801405000000000000
B0354483154813S11702979EA0132601392000000000000
B0354523154783S11702893EA0131701384000000000000
B0354563154753S11702805EA0131201377000000000000
B0355003154722S11702715EA0130801373000000000000
B0355043154688S11702628EA0130901381000000000000
B0355083154653S11702548EA0131501384000000000000
B0355123154618S11702469EA0131201376000000000000
B0355163154580S11702389EA0130101365000000000000
B0355203154542S11702307EA0129501362000000000000
B0355243154502S11702227EA0129701365000000000000
B0355283154460S11702149EA0129901367000000000000
B0355323154415S11702075EA0130301373000000000000
B0355363154371S11702005EA0130901380000000000000
B0355403154317S11701944EA0131701389000000000000
B0355443154247S11701927EA0133101405000000000000
B0355483154183S11701976EA0133601400000000000000
B0355523154176S11702057EA0133101398000000015000
B0355563154216S11702106EA0132501390000000015000
B0356003154274S11702105EA0131701383000000015000
B0356043154320S11702057EA0131401382000000015000
B0356083154337S11701982EA0131501386000000015000
B0356123154333S11701897EA0131501383000000015000
B0356163154312S11701806EA0131701386000000015000
B0356203154286S11701714EA0131601380000000015000
B0356243154258S11701620EA0130701371000000015000
B0356283154224S11701521EA0129601358000000000000
B0356323154187S11701421EA0128801356000000000000
B0356363154150S11701323EA0128501349000000000000
B0356403154115S11701222EA0127401339000000000000
B0356443154083S11701120EA0126601332000000000000
B0356483154055S11701018EA0126001325000000000000
B0356523154029S11700918EA0125501320000000000000
B0356563154004S11700821EA0125001316000000000000
B0357003153978S11700725EA0124601312000000000000
B0357043153951S11700631EA0124101306000000000000
B0357083153923S11700539EA0123801304000000000000
B0357123153895S11700448EA0123001295000000000000
B0357163153870S11700357EA0122301289000000000000
B0357203153843S11700268EA0122101290000000000000
B0357243153814S11700182EA0121901288000000000000
B0357283153780S11700099EA0121701285000000000000
B0357323153744S11700017EA0121201278000000000000
B0357363153709S11659933EA0121101280000000000000
B0357403153682S11659850EA0121201279000000000000
B0357443153650S11659770EA0121301284000000000000
B0357483153618S11659691EA0122101295000000000000
B0357523153602S11659609EA0123201303000000000000
B0357563153643S11659573EA0125001330000000000000
B0358003153680S11659609EA0126901346000000015000
B0358043153675S11659675EA0128401359000000015000
B0358083153624S11659724EA0129501369000000015000
B0358123153561S11659731EA0130301376000000015000
B0358163153498S11659703EA0130801377000000015000
B0358203153461S11659647EA0131001382000000015000
B0358243153455S11659587EA0131401387000000015000
B0358283153479S11659539EA0131901389000000015000
B0358323153523S11659521EA0132001391000000015000
B0358363153570S11659542EA0132701399000000015000
B0358403153597S11659597EA0133601408000000015000
B0358443153587S11659673EA0134501416000000015000
B0358483153543S11659738EA0134801423000000015000
B0358523153472S11659764EA0135501429000000015000
B0358563153403S11659738EA0136001430000000015000
B0359003153358S11659677EA0136201433000000015000
B0359043153354S11659607EA0136701441000000015000
B0359083153384S11659555EA0137101441000000015000
B0359123153431S11659530EA0137301446000000015000
B0359163153480S11659549EA0138201457000000015000
B0359203153509S11659604EA0139101463000000015000
B0359243153510S11659675EA0139301463000000015000
B0359283153487S11659751EA0139101460000000015000
B0359323153429S11659811EA0138901459000000015000
B0359363153350S11659838EA0138801457000000015000
B0359403153267S11659822EA0138701457000000015000
B0359443153192S11659776EA0138601448000000015000
B0359483153132S11659700EA0137901446000000015000
B0359523153085S11659617EA0137801447000000000000
B0359563153042S11659529EA0137601446000000000000
B0400003153004S11659435EA0137501444000000000000
B0400043152968S11659336EA0136501431000000000000
B0400083152930S11659236EA0135701425000000000000
B0400123152893S11659136EA0135801430000000000000
B0400163152855S11659040EA0136301434000000000000
B0400203152817S11658944EA0136201430000000000000
B0400243152776S11658846EA0135501420000000000000
B0400283152735S11658749EA0134901417000000000000
B0400323152699S11658652EA0134501411000000000000
B0400363152666S11658556EA0133701403000000000000
B0400403152634S11658463EA0133301402000000000000
B0400443152600S11658375EA0133201403000000000000
B0400483152569S11658290EA0133201399000000000000
B0400523152539S11658204EA0132501390000000000000
B0400563152512S11658118EA0131501382000000000000
B0401003152482S11658034EA0130901375000000000000
B0401043152452S11657953EA0130301371000000000000
B0401083152423S11657872EA0129901368000000000000
B0401123152392S11657793EA0129201360000000000000
B0401163152361S11657714EA0128501352000000000000
B0401203152330S11657633EA0128001348000000000000
B0401243152297S11657556EA0127601343000000000000
B0401283152263S11657481EA0127001338000000000000
B0401323152230S11657406EA0126701338000000000000
B0401363152200S11657332EA0127201346000000000000
B0401403152167S11657263EA0127801349000000000000
B0401443152136S11657192EA0127901351000000000000
B0401483152098S11657126EA0128801357000000000000
B0401523152032S11657099EA0129401363000000000000
B0401563151971S11657135EA0129201358000000000000
B0402003151951S11657205EA0128801354000000015000
B0402043151973S11657263EA0128801354000000015000
B0402083152022S11657273EA0128601354000000015000
B0402123152063S11657237EA0128901357000000015000
B0402163152072S11657174EA0129501366000000015000
B0402203152029S11657126EA0130501374000000015000
B0402243151963S11657143EA0130601369000000015000
B0402283151933S11657211EA0130401366000000015000
B0402323151960S11657264EA0130201365000000015000
B0402363152009S11657256EA0129801360000000015000
B0402403152027S11657195EA0129601360000000015000
B0402443151988S11657133EA0129701363000000015000
B0402483151912S11657126EA0129801366000000015000
B0402523151858S11657182EA0130401374000000015000
B0402563151851S11657252EA0130501375000000015000
B0403003151892S11657289EA0130101373000000015000
B0403043151937S11657270EA0130001370000000015000
B0403083151945S11657207EA0129501363000000015000
B0403123151902S11657151EA0129801370000000015000
B0403163151837S11657147EA0130601373000000015000
B0403203151781S11657194EA0130201366000000015000
B0403243151764S11657265EA0129801364000000015000
B0403283151794S11657315EA0129601367000000015000
B0403323151840S11657307EA0129801369000000015000
B0403363151860S11657251EA0129401367000000015000
B0403403151849S11657179EA0129101361000000015000
B0403443151824S11657103EA0128601361000000015000
B0403483151790S11657026EA0128801363000000015000
B0403523151750S11656952EA0129001366000000000000
B0403563151682S11656909EA0129601370000000000000
B0404003151616S11656945EA0129901369000000015000
B0404043151604S11657021EA0129801365000000015000
B0404083151650S11657046EA0129001357000000015000
B0404123151698S11657004EA0127601343000000015000
B0404163151737S11656939EA0126801341000000015000
B0404203151773S11656869EA0126601338000000015000
B0404243151819S11656805EA0126201332000000015000
B0404283151869S11656747EA0125401323000000000000
B0404323151927S11656696EA0124701315000000000000
B0404363151990S11656653EA0123801307000000000000
B0404403152057S11656613EA0122901297000000000000
B0404443152124S11656576EA0121901286000000000000
B0404483152192S11656541EA0120801275000000000000
B0404523152261S11656513EA0119801269000000000000
B0404563152327S11656483EA0119301263000000000000
B0405003152392S11656448EA0118801254000000000000
B0405043152456S11656414EA0117801246000000000000
B0405083152518S11656379EA0117001240000000000000
B0405123152578S11656344EA0116501234000000000000
B0405163152642S11656310EA0115701225000000000000
B0405203152705S11656277EA0115201224000000000000
B0405243152765S11656249EA0115201223000000000000
B0405283152825S11656221EA0114801219000000000000
B0405323152881S11656188EA0114901222000000000000
B0405363152934S11656150EA0115101221000000000000
B0405403152993S11656123EA0114801219000000000000
B0405443153052S11656107EA0114801219000000000000
B0405483153114S11656094EA0114101210000000000000
B0405523153176S11656098EA0114801226000000000000
B0405563153229S11656097EA0117501251000000000000
B0406003153246S11656042EA0119201266000000000000
B0406043153193S11656004EA0120101274000000000000
B0406083153137S11656046EA0120501275000000015000
B0406123153137S11656117EA0120601277000000015000
B0406163153185S11656154EA0121101284000000015000
B0406203153232S11656123EA0121601285000000015000
B0406243153225S11656048EA0121601285000000015000
B0406283153162S11656011EA0121601288000000015000
B0406323153090S11656043EA0122401300000000015000
B0406363153047S11656115EA0123701311000000015000
B0406403153063S11656181EA0125001324000000015000
B0406443153102S11656159EA0126401339000000015000
B0406483153080S11656095EA0126901340000000015000
B0406523153011S11656091EA0127601349000000015000
B0406563152974S11656159EA0128501357000000015000
B0407003153000S11656217EA0129401366000000015000
B0407043153047S11656208EA0130501376000000015000
B0407083153051S11656147EA0131501388000000015000
B0407123152994S11656110EA0131301381000000015000
B0407163152928S11656146EA0131501392000000015000
B0407203152913S11656219EA0132801403000000015000
B0407243152948S11656269EA0133501406000000015000
B0407283153000S11656259EA0133901410000000015000
B0407323153020S11656193EA0134701417000000015000
B0407363152978S11656134EA0135301421000000015000
B0407403152907S11656151EA0135101421000000015000
B0407443152874S11656220EA0136001435000000015000
B0407483152887S11656285EA0137001442000000015000
B0407523152935S11656316EA0137301442000000015000
B0407563152984S11656284EA0137901445000000015000
B0408003152976S11656214EA0138101449000000015000
B0408043152919S11656173EA0138101443000000015000
B0408083152848S11656195EA0137101440000000015000
B0408123152799S11656259EA0137901453000000015000
B0408163152796S11656337EA0139201465000000015000
B0408203152839S11656384EA0140401474000000015000
B0408243152887S11656363EA0141101477000000015000
B0408283152893S11656290EA0141001474000000015000
B0408323152833S11656243EA0140301469000000015000
B0408363152760S11656271EA0140501479000000015000
B0408403152718S11656341EA0142101496000000015000
B0408443152731S11656414EA0143701511000000015000
B0408483152782S11656419EA0145001519000000015000
B0408523152787S11656351EA0145301518000000015000
B0408563152729S11656303EA0144901514000000015000
B0409003152656S11656329EA0145301525000000015000
B0409043152622S11656399EA0146901543000000015000
B0409083152635S11656464EA0148201552000000015000
B0409123152686S11656483EA0148801553000000015000
B0409163152712S11656422EA0148901557000000015000
B0409203152669S11656362EA0149301564000000015000
B0409243152599S11656364EA0149801568000000015000
B0409283152552S11656423EA0150201571000000015000
B0409323152552S11656497EA0150801577000000015000
B0409363152590S11656549EA0151301579000000015000
B0409403152647S11656571EA0150901572000000015000
B0409443152713S11656579EA0149201548000000015000
B0409483152786S11656583EA0146801525000000015000
B0409523152865S11656592EA0145301514000000000000
B0409563152943S11656606EA0144801512000000000000
B0410003153017S11656618EA0144701513000000000000
B0410043153089S11656627EA0144701510000000000000
B0410083153162S11656637EA0144401509000000000000
B0410123153234S11656646EA0144001500000000000000
B0410163153310S11656658EA0142801487000000000000
B0410203153388S11656670EA0141801480000000000000
B0410243153465S11656683EA0141301478000000000000
B0410283153539S11656696EA0141301478000000000000
B0410323153610S11656704EA0141001473000000000000
B0410363153682S11656709EA0140701471000000000000
B0410403153752S11656714EA0140301465000000000000
B0410443153823S11656721EA0139301453000000000000
B0410483153895S11656732EA0138201443000000000000
B0410523153968S11656752EA0137701440000000000000
B0410563154040S11656773EA0137901446000000000000
B0411003154109S11656791EA0138901458000000000000
B0411043154176S11656809EA0139901469000000000000
B0411083154242S11656828EA0141001479000000000000
B0411123154306S11656860EA0141601484000000000000
B0411163154367S11656893EA0142501493000000000000
B0411203154429S11656895EA0143601503000000000000
B0411243154490S11656899EA0144401509000000000000
B0411283154554S11656908EA0143801492000000000000
B0411323154627S11656917EA0140601458000000000000
B0411363154709S11656925EA0138501446000000000000
B0411403154787S11656934EA0138601451000000000000
B0411443154861S11656943EA0138901456000000000000
B0411483154928S11656951EA0139301459000000000000
B0411523154995S11656961EA0139101453000000000000
B0411563155062S11656971EA0138401444000000000000
B0412003155130S11656982EA0137601437000000000000
B0412043155197S11656990EA0136701429000000000000
B0412083155266S11656999EA0135801421000000000000
B0412123155335S11657005EA0135501420000000000000
B0412163155400S11657012EA0135501420000000000000
B0412203155461S11657021EA0135301420000000000000
B0412243155521S11657027EA0135401420000000000000
B0412283155581S11657031EA0135601424000000000000
B0412323155641S11657039EA0136701440000000000000
B0412363155699S11657046EA0138101449000000000000
B0412403155741S11657009EA0139101460000000000000
B0412443155727S11656945EA0140101466000000000000
B0412483155663S11656926EA0139301452000000000000
B0412523155610S11656979EA0138101446000000015000
B0412563155603S11657052EA0138301451000000015000
B0413003155633S11657112EA0138501449000000015000
B0413043155684S11657150EA0138201447000000015000
B0413083155741S11657182EA0138001443000000015000
B0413123155802S11657212EA0137101433000000000000
B0413163155866S11657243EA0136401428000000000000
B0413203155929S11657273EA0136401431000000000000
B0413243155990S11657307EA0136701433000000000000
B0413283156053S11657338EA0136201421000000000000
B0413323156117S11657371EA0135201416000000000000
B0413363156176S11657400EA0134701410000000000000
B0413403156235S11657429EA0134401410000000000000
B0413443156296S11657454EA0134101403000000000000
B0413483156356S11657478EA0133801404000000000000
B0413523156406S11657517EA0134601414000000000000
B0413563156451S11657566EA0135001417000000000000
B0414003156495S11657614EA0134801411000000000000
B0414043156548S11657645EA0134101406000000000000
B0414083156607S11657662EA0134101410000000000000
B0414123156663S11657675EA0135201421000000000000
B0414163156717S11657686EA0136001430000000000000
B0414203156772S11657696EA0137001438000000000000
B0414243156828S11657706EA0137901446000000000000
B0414283156886S11657716EA0138101447000000000000
B0414323156946S11657727EA0138101445000000000000
B0414363157008S11657733EA0137401437000000000000
B0414403157075S11657741EA0136501427000000000000
B0414443157144S11657749EA0135801422000000000000
B0414483157211S11657757EA0135901424000000000000
B0414523157277S11657761EA0135601420000000000000
B0414563157344S11657758EA0135301418000000000000
B0415003157410S11657757EA0135001415000000000000
B0415043157475S11657761EA0134801413000000000000
B0415083157539S11657763EA0134601412000000000000
B0415123157601S11657766EA0134201406000000000000
B0415163157664S11657772EA0133501400000000000000
B0415203157726S11657779EA0132601389000000000000
B0415243157784S11657781EA0132101390000000000000
B0415283157840S11657788EA0132101387000000000000
B0415323157898S11657790EA0131101375000000000000
B0415363157957S11657789EA0129601362000000000000
B0415403158020S11657787EA0128801351000000000000
B0415443158080S11657788EA0127901343000000000000
B0415483158137S11657785EA0127701346000000000000
B0415523158191S11657774EA0128101351000000000000
B0415563158243S11657757EA0128301351000000000000
B0416003158298S11657733EA0128001345000000000000
B0416043158349S11657699EA0128701356000000000000
B0416083158362S11657637EA0130701376000000000000
B0416123158312S11657593EA0131501382000000000000
B0416163158242S11657618EA0131501385000000000000
B0416203158208S11657686EA0132401395000000000000
B0416243158220S11657753EA0132801390000000015000
B0416283158263S11657785EA0132701395000000015000
B0416323158311S11657781EA0133601401000000015000
B0416363158329S11657727EA0134701412000000015000
B0416403158290S11657672EA0135101413000000015000
B0416443158220S11657670EA0135101413000000015000
B0416483158163S11657723EA0134501410000000015000
B0416523158135S11657801EA0134801413000000015000
B0416563158138S11657881EA0134801411000000015000
B0417003158177S11657941EA0134601407000000015000
B0417043158238S11657962EA0134101405000000015000
B0417083158302S11657961EA0134001407000000015000
B0417123158364S11657950EA0134301410000000000000
B0417163158431S11657939EA0134001403000000000000
B0417203158502S11657926EA0133701404000000000000
B0417243158577S11657914EA0134101406000000000000
B0417283158653S11657901EA0134801416000000000000
B0417323158726S11657887EA0136301435000000000000
B0417363158797S11657870EA0137201432000000000000
B0417403158873S11657855EA0135701408000000000000
B0417443158951S11657846EA0133701393000000000000
B0417483159027S11657840EA0132901392000000000000
B0417523159101S11657837EA0133201395000000000000
B0417563159174S11657841EA0133301398000000000000
B0418003159242S11657849EA0134001406000000000000
B0418043159307S11657861EA0135101418000000000000
B0418083159370S11657870EA0135401419000000000000
B0418123159435S11657874EA0135401420000000000000
B0418163159500S11657872EA0135301414000000000000
B0418203159567S11657868EA0134301404000000000000
B0418243159636S11657865EA0133501397000000000000
B0418283159702S11657861EA0132801393000000000000
B0418323159770S11657854EA0132301387000000000000
B0418363159836S11657848EA0133001399000000000000
B0418403159900S11657842EA0133301397000000000000
B0418443159965S11657839EA0132901394000000000000
B0418483200031S11657836EA0132401390000000000000
B0418523200098S11657831EA0131901383000000000000
B0418563200170S11657824EA0131601379000000000000
B0419003200243S11657822EA0131501382000000000000
B0419043200313S11657822EA0131301379000000000000
B0419083200384S11657822EA0131301380000000000000
B0419123200453S11657818EA0131801387000000000000
B0419163200518S11657811EA0133101400000000000000
B0419203200579S11657806EA0133301400000000000000
B0419243200642S11657801EA0133301401000000000000
B0419283200703S11657794EA0134001412000000000000
B0419323200759S11657785EA0135001419000000000000
B0419363200816S11657780EA0135801426000000000000
B0419403200849S11657738EA0137101440000000000000
B0419443200828S11657679EA0137501437000000000000
B0419483200763S11657647EA0137201438000000000000
B0419523200693S11657671EA0137501444000000000000
B0419563200647S11657731EA0138901461000000000000
B0420003200652S11657792EA0140001468000000000000
B0420043200695S11657803EA0140101467000000015000
B0420083200719S11657755EA0140601477000000015000
B0420123200685S11657694EA0141101477000000015000
B0420163200613S11657685EA0141501486000000015000
B0420203200563S11657741EA0142501499000000015000
B0420243200573S11657806EA0143501501000000015000
B0420283200621S11657819EA0143401498000000015000
B0420323200654S11657772EA0144001505000000015000
B0420363200637S11657705EA0144801517000000015000
B0420403200577S11657672EA0146001524000000015000
B0420443200508S11657702EA0146201527000000015000
B0420483200482S11657772EA0147201540000000015000
B0420523200505S11657827EA0147501540000000015000
B0420563200557S11657840EA0147101526000000015000
B0421003200621S11657836EA0145901520000000000000
B0421043200689S11657828EA0145401511000000000000
B0421083200761S11657818EA0144001496000000000000
B0421123200836S11657807EA0142801486000000000000
B0421163200911S11657800EA0141901478000000000000
B0421203200984S11657792EA0141201474000000000000
B0421243201057S11657783EA0140701469000000000000
B0421283201125S11657774EA0140501469000000000000
B0421323201192S11657768EA0140401468000000000000
B0421363201255S11657761EA0140301467000000000000
B0421403201319S11657753EA0140301466000000000000
B0421443201383S11657744EA0139501455000000000000
B0421483201448S11657736EA0138401444000000000000
B0421523201515S11657732EA0137501438000000000000
B0421563201583S11657725EA0136801428000000000000
B0422003201651S11657720EA0135701420000000000000
B0422043201718S11657719EA0135301417000000000000
B0422083201782S11657719EA0134701410000000000000
B0422123201846S11657722EA0134101404000000000000
B0422163201908S11657723EA0133601399000000000000
B0422203201970S11657727EA0133101397000000000000
B0422243202032S11657725EA0133601405000000000000
B0422283202089S11657716EA0134401409000000000000
B0422323202145S11657703EA0134301410000000000000
B0422363202202S11657690EA0135001419000000000000
B0422403202258S11657676EA0135801426000000000000
B0422443202312S11657658EA0136301431000000000000
B0422483202366S11657638EA0136201423000000000000
B0422523202422S11657612EA0135101413000000000000
B0422563202480S11657582EA0134501413000000000000
B0423003202539S11657558EA0135401425000000000000
B0423043202596S11657534EA0136501435000000000000
B0423083202649S11657507EA0137201439000000000000
B0423123202706S11657481EA0136601428000000000000
B0423163202766S11657452EA0135401415000000000000
B0423203202831S11657428EA0134301405000000000000
B0423243202896S11657399EA0133901403000000000000
B0423283202960S11657368EA0133901406000000000000
B0423323203020S11657339EA0134301407000000000000
B0423363203081S11657313EA0133901402000000000000
B0423403203142S11657286EA0132901389000000000000
B0423443203207S11657261EA0131701379000000000000
B0423483203270S11657237EA0131401378000000000000
B0423523203333S11657213EA0131301377000000000000
B0423563203397S11657191EA0131001371000000000000
B0424003203464S11657172EA0130201362000000000000
B0424043203536S11657163EA0129101351000000000000
B0424083203608S11657159EA0128701352000000000000
B0424123203681S11657164EA0128801352000000000000
B0424163203753S11657173EA0128601349000000000000
B0424203203823S11657181EA0128401350000000000000
B0424243203893S11657187EA0128601352000000000000
B0424283203962S11657194EA0129001356000000000000
B0424323204030S11657203EA0128801352000000000000
B0424363204100S11657209EA0128401347000000000000
B0424403204171S11657215EA0128101347000000000000
B0424443204242S11657220EA0128501352000000000000
B0424483204312S11657220EA0128501350000000000000
B0424523204383S11657225EA0128801359000000000000
B0424563204452S11657230EA0130401374000000000000
B0425003204520S11657230EA0130801364000000000000
B0425043204591S11657230EA0129101349000000000000
B0425083204664S11657234EA0128101343000000000000
B0425123204738S11657237EA0127201332000000000000
B0425163204814S11657235EA0126601330000000000000
B0425203204886S11657233EA0126501329000000000000
B0425243204957S11657228EA0126101322000000000000
B0425283205029S11657224EA0125301313000000000000
B0425323205102S11657224EA0124301304000000000000
B0425363205175S11657225EA0123801301000000000000
B0425403205246S11657228EA0123501297000000000000
B0425443205317S11657228EA0122901291000000000000
B0425483205386S11657226EA0122101283000000000000
B0425523205453S11657224EA0121301274000000000000
B0425563205521S11657222EA0120601269000000000000
B0426003205587S11657220EA0120001264000000000000
B0426043205653S11657218EA0119401256000000000000
B0426083205720S11657228EA0118401247000000000000
B0426123205782S11657246EA0118101250000000000000
B0426163205841S11657263EA0118501255000000000000
B0426203205896S11657273EA0119701269000000000000
B0426243205948S11657280EA0120501275000000000000
B0426283206002S11657283EA0120901277000000000000
B0426323206056S11657285EA0120801275000000000000
B0426363206111S11657281EA0121101280000000000000
B0426403206158S11657257EA0121901288000000000000
B0426443206160S11657194EA0122601292000000000000
B0426483206110S11657142EA0122401289000000000000
B0426523206032S11657147EA0122801296000000000000
B0426563205984S11657213EA0123601307000000000000
B0427003205990S11657287EA0124601315000000000000
B0427043206034S11657312EA0125301324000000015000
B0427083206063S11657270EA0125801326000000015000
B0427123206033S11657209EA0126001329000000015000
B0427163205965S11657198EA0126601340000000015000
B0427203205908S11657243EA0127201339000000015000
B0427243205886S11657321EA0127001338000000015000
B0427283205906S11657391EA0127001337000000015000
B0427323205951S11657439EA0126301327000000015000
B0427363206008S11657475EA0125801326000000000000
B0427403206067S11657506EA0125901326000000000000
B0427443206124S11657528EA0126001328000000000000
B0427483206181S11657532EA0126001328000000000000
B0427523206238S11657523EA0126201332000000000000
B0427563206290S11657495EA0127501347000000000000
B0428003206297S11657432EA0128601352000000000000
B0428043206236S11657404EA0129101358000000000000
B0428083206179S11657455EA0129201359000000000000
B0428123206168S11657537EA0130001371000000000000
B0428163206207S11657592EA0131301383000000015000
B0428203206260S11657585EA0132001386000000015000
B0428243206283S11657521EA0132501392000000015000
B0428283206246S11657460EA0133001398000000015000
B0428323206176S11657446EA0133301398000000015000
B0428363206110S11657489EA0133501403000000015000
B0428403206080S11657562EA0135001425000000015000
B0428443206110S11657610EA0137001439000000015000
B0428483206147S11657581EA0137701442000000015000
B0428523206128S11657516EA0138401455000000015000
B0428563206064S11657498EA0139701464000000015000
B0429003206010S11657553EA0140001466000000015000
B0429043205998S11657633EA0140401471000000015000
B0429083206025S11657697EA0140701473000000015000
B0429123206077S11657723EA0141101479000000015000
B0429163206129S11657701EA0141301482000000015000
B0429203206146S11657636EA0142201496000000015000
B0429243206114S11657571EA0143401503000000015000
B0429283206049S11657543EA0144101505000000015000
B0429323205982S11657576EA0144101508000000015000
B0429363205942S11657649EA0144401512000000015000
B0429403205921S11657731EA0145401521000000015000
B0429443205925S11657807EA0145901523000000000000
B0429483205971S11657854EA0145601519000000000000
B0429523206033S11657870EA0145101517000000000000
B0429563206098S11657870EA0145601521000000000000
B0430003206162S11657853EA0145601518000000000000
B0430043206224S11657823EA0145401517000000000000
B0430083206285S11657787EA0144601501000000000000
B0430123206346S11657744EA0142801487000000000000
B0430163206407S11657701EA0141901480000000000000
B0430203206468S11657658EA0141401472000000000000
B0430243206530S11657611EA0140801472000000000000
B0430283206588S11657569EA0141101473000000000000
B0430323206645S11657527EA0140701467000000000000
B0430363206700S11657482EA0140401464000000000000
B0430403206752S11657438EA0139901460000000000000
B0430443206803S11657394EA0139401453000000000000
B0430483206856S11657348EA0138401442000000000000
B0430523206909S11657300EA0137601437000000000000
B0430563206961S11657251EA0137101432000000000000
B0431003207012S11657202EA0136901430000000000000
B0431043207063S11657155EA0136501425000000000000
B0431083207115S11657112EA0136101419000000000000
B0431123207168S11657072EA0135401412000000000000
B0431163207222S11657030EA0134501403000000000000
B0431203207274S11656990EA0133901399000000000000
B0431243207325S11656949EA0133501396000000000000
B0431283207375S11656908EA0132901389000000000000
B0431323207427S11656866EA0132201381000000000000
B0431363207480S11656825EA0131401372000000000000
B0431403207533S11656780EA0130701366000000000000
B0431443207588S11656736EA0130101361000000000000
B0431483207640S11656693EA0129801358000000000000
B0431523207688S11656645EA0129201352000000000000
B0431563207733S11656593EA0128701347000000000000
B0432003207779S11656542EA0128401346000000000000
B0432043207824S11656496EA0128001342000000000000
B0432083207869S11656453EA0127501333000000000000
B0432123207918S11656412EA0126501324000000000000
B0432163207969S11656375EA0125901319000000000000
B0432203208018S11656337EA0125601317000000000000
B0432243208065S11656298EA0125601320000000000000
B0432283208109S11656260EA0125801319000000000000
B0432323208152S11656220EA0125201314000000000000
B0432363208195S11656178EA0124801310000000000000
B0432403208239S11656141EA0124101299000000000000
B0432443208290S11656120EA0122901288000000000000
B0432483208346S11656123EA0121801277000000000000
B0432523208402S11656143EA0120801268000000000000
B0432563208459S11656175EA0120201262000000000000
B0433003208517S11656189EA0119501256000000000000
B0433043208576S11656171EA0118501247000000000000
B0433083208626S11656129EA0118201247000000000000
B0433123208675S11656080EA0117901241000000000000
B0433163208720S11656024EA0117401235000000000000
B0433203208764S11655967EA0116801230000000000000
B0433243208807S11655909EA0116201223000000000000
B0433283208850S11655853EA0115401215000000000000
B0433323208890S11655796EA0114401207000000000000
B0433363208928S11655735EA0113501198000000000000
B0433403208966S11655674EA0112601183000000000000
B0433443209006S11655617EA0111201173000000000000
B0433483209048S11655561EA0110301164000000000000
B0433523209089S11655506EA0109201152000000000000
B0433563209135S11655448EA0108301147000000000000
B0434003209184S11655401EA0108701154000000000000
B0434043209236S11655370EA0109401160000000000000
B0434083209289S11655356EA0109701164000000000000
B0434123209345S11655349EA0109801163000000000000
B0434163209391S11655318EA0110101170000000000000
B0434203209423S11655265EA0110701169000000000000
B0434243209436S11655194EA0110401166000000000000
B0434283209438S11655120EA0110501170000000000000
B0434323209432S11655045EA0110001160000000000000
B0434363209412S11654967EA0109101154000000000000
B0434403209374S11654897EA0108601150000000000000
B0434443209322S11654834EA0107401135000000000000
B0434483209262S11654773EA0106201124000000000000
B0434523209200S11654715EA0105001112000000000000
B0434563209136S11654654EA0104001104000000000000
B0435003209078S11654591EA0103501102000000000000
B0435043209028S11654524EA0103401101000000000000
B0435083208979S11654459EA0103701106000000000000
B0435123208927S11654401EA0103801105000000000000
B0435163208862S11654360EA0103401101000000000000
B0435203208794S11654321EA0102901093000000000000
B0435243208721S11654291EA0102101086000000000000
B0435283208643S11654293EA0101301078000000000000
B0435323208564S11654317EA0100801073000000000000
B0435363208493S11654360EA0100501072000000000000
B0435403208437S11654421EA0101801094000000000000
B0435443208446S11654478EA0104201111000000000000
B0435483208489S11654460EA0104501116000000000000
B0435523208486S11654397EA0105301122000000000000
B0435563208429S11654365EA0105501124000000000000
B0436003208369S11654397EA0106601136000000015000
B0436043208366S11654462EA0107601146000000015000
B0436083208409S11654482EA0108201154000000015000
B0436123208435S11654436EA0109101166000000015000
B0436163208402S11654387EA0110301169000000015000
B0436203208335S11654401EA0110301171000000015000
B0436243208309S11654469EA0110901178000000015000
B0436283208347S11654511EA0111201181000000015000
B0436323208386S11654475EA0112301197000000015000
B0436363208372S11654414EA0113401202000000015000
B0436403208313S11654379EA0113601207000000015000
B0436443208244S11654391EA0114301213000000000000
B0436483208199S11654452EA0115001220000000015000
B0436523208197S11654525EA0115401222000000015000
B0436563208240S11654560EA0115301219000000015000
B0437003208286S11654522EA0115001220000000015000
B0437043208273S11654451EA0115901235000000000000
B0437083208214S11654408EA0116901241000000000000
B0437123208148S11654435EA0117701247000000015000
B0437163208116S11654505EA0118101250000000015000
B0437203208129S11654576EA0118201253000000015000
B0437243208170S11654615EA0118101246000000015000
B0437283208223S11654605EA0117501242000000015000
B0437323208273S11654572EA0118201252000000000000
B0437363208290S11654517EA0119801266000000000000
B0437403208257S11654461EA0120201266000000000000
B0437443208191S11654448EA0120001266000000000000
B0437483208125S11654481EA0120201272000000000000
B0437523208087S11654547EA0120901277000000000000
B0437563208099S11654611EA0121001277000000000000
B0438003208149S11654633EA0120601270000000000000
B0438043208208S11654626EA0120101268000000000000
B0438083208269S11654612EA0120001266000000000000
B0438123208333S11654591EA0118801250000000000000
B0438163208396S11654570EA0118301250000000000000
B0438203208459S11654551EA0117701236000000000000
B0438243208525S11654535EA0116701231000000000000
B0438283208590S11654520EA0116401226000000000000
B0438323208656S11654508EA0115901224000000000000
B0438363208721S11654495EA0115501218000000000000
B0438403208785S11654485EA0114901214000000000000
B0438443208847S11654470EA0114501211000000000000
B0438483208910S11654457EA0114101201000000000000
B0438523208974S11654449EA0113101193000000000000
B0438563209035S11654434EA0112801190000000000000
B0439003209091S11654403EA0112001183000000000000
B0439043209146S11654370EA0111601181000000000000
B0439083209204S11654343EA0111101173000000000000
B0439123209262S11654310EA0110201164000000000000
B0439163209322S11654282EA0109601157000000000000
B0439203209382S11654258EA0108801150000000000000
B0439243209442S11654231EA0108201143000000000000
B0439283209499S11654196EA0108101148000000000000
B0439323209555S11654163EA0108601150000000000000
B0439363209609S11654128EA0109001154000000000000
B0439403209626S11654066EA0111001182000000000000
B0439443209575S11654035EA0112501190000000000000
B0439483209530S11654082EA0112901195000000000000
B0439523209543S11654148EA0113401198000000000000
B0439563209592S11654163EA0113201195000000000000
B0440003209631S11654118EA0113101194000000000000
B0440043209617S11654048EA0113201198000000000000
B0440083209553S11654010EA0113501200000000000000
B0440123209486S11654043EA0113901207000000000000
B0440163209451S11654115EA0114401211000000000000
B0440203209442S11654196EA0115101218000000000000
B0440243209471S11654256EA0115501221000000000000
B0440283209529S11654258EA0115001215000000000000
B0440323209587S11654234EA0114401210000000000000
B0440363209643S11654202EA0114101203000000000000
B0440403209692S11654149EA0113501196000000000000
B0440443209729S11654078EA0113001195000000000000
B0440483209751S11653998EA0113301197000000000000
B0440523209768S11653914EA0112601188000000000000
B0440563209781S11653824EA0111901184000000000000
B0441003209789S11653737EA0113301200000000000000
B0441043209747S11653675EA0115201219000000000000
B0441083209677S11653688EA0116001225000000000000
B0441123209657S11653762EA0116401232000000000000
B0441163209694S11653822EA0116901232000000000000
B0441203209751S11653832EA0116701227000000000000
B0441243209796S11653785EA0116201229000000015000
B0441283209817S11653718EA0116701235000000000000
B0441323209824S11653642EA0116801231000000000000
B0441363209829S11653560EA0116401226000000000000
B0441403209830S11653474EA0115001208000000000000
B0441443209828S11653383EA0113601193000000000000
B0441483209828S11653289EA0112301180000000000000
B0441523209829S11653196EA0112101185000000000000
B0441563209830S11653109EA0112301184000000000000
B0442003209830S11653026EA0111901179000000000000
B0442043209828S11652944EA0111001173000000000000
B0442083209825S11652865EA0110701172000000000000
B0442123209824S11652787EA0110601170000000000000
B0442163209821S11652710EA0110301168000000000000
B0442203209815S11652636EA0110401169000000000000
B0442243209804S11652564EA0110401169000000000000
B0442283209796S11652493EA0110701175000000000000
B0442323209812S11652428EA0111401182000000000000
B0442363209848S11652377EA0112201189000000000000
B0442403209874S11652325EA0113201200000000000000
B0442443209845S11652273EA0114301210000000000000
B0442483209783S11652281EA0114901216000000000000
B0442523209756S11652347EA0115301219000000000000
B0442563209785S11652406EA0115601224000000000000
B0443003209832S11652403EA0116201229000000000000
B0443043209848S11652350EA0116601232000000000000
B0443083209816S11652295EA0117001237000000000000
B0443123209752S11652282EA0117401241000000000000
B0443163209699S11652329EA0117901247000000000000
B0443203209698S11652405EA0118401251000000015000
B0443243209747S11652442EA0118801252000000015000
B0443283209795S11652415EA0119101256000000015000
B0443323209804S11652350EA0119201254000000015000
B0443363209761S11652290EA0118801248000000015000
B0443403209686S11652276EA0118201245000000000000
B0443443209604S11652289EA0118201248000000000000
B0443483209548S11652345EA0120001268000000000000
B0443523209570S11652406EA0121601284000000015000
B0443563209620S11652389EA0122601294000000015000
B0444003209616S11652329EA0123601304000000015000
B0444043209560S11652303EA0124201307000000000000
B0444083209505S11652346EA0124601312000000015000
B0444123209505S11652415EA0125501321000000015000
B0444163209555S11652437EA0126301330000000015000
B0444203209585S11652392EA0127301340000000015000
B0444243209557S11652338EA0127901345000000000000
B0444283209497S11652329EA0128301352000000000000
B0444323209453S11652376EA0128901355000000015000
B0444363209453S11652445EA0129301363000000015000
B0444403209492S11652481EA0130301373000000015000
B0444443209536S11652468EA0131601384000000015000
B0444483209551S11652424EA0132901394000000000000
B0444523209521S11652379EA0133101392000000000000
B0444563209461S11652363EA0133201394000000000000
B0445003209401S11652389EA0133601402000000000000
B0445043209382S11652458EA0134101406000000015000
B0445083209421S11652499EA0134801413000000015000
B0445123209457S11652466EA0135701423000000015000
B0445163209438S11652408EA0136601431000000015000
B0445203209377S11652399EA0137101435000000000000
B0445243209334S11652454EA0137701443000000015000
B0445283209349S11652515EA0138701450000000015000
B0445323209397S11652522EA0139301455000000015000
B0445363209426S11652475EA0140001464000000015000
B0445403209405S11652418EA0140801471000000000000
B0445443209343S11652395EA0141001474000000000000
B0445483209287S11652436EA0141501481000000000000
B0445523209282S11652507EA0142101487000000015000
B0445563209321S11652546EA0142701495000000015000
B0446003209366S11652529EA0143801502000000000000
B0446043209378S11652473EA0144401506000000000000
B0446083209332S11652431EA0144501508000000000000
B0446123209269S11652455EA0144801511000000000000
B0446163209245S11652524EA0145601520000000015000
B0446203209273S11652579EA0146001524000000015000
B0446243209327S11652584EA0145801519000000015000
B0446283209383S11652561EA0145601519000000015000
B0446323209436S11652532EA0145501515000000000000
