ACAM4N6
HFDTE050222
HFFXA050
HFPLTPILOT:JOHN WELSH              
HFGTYGLIDERTYPE:HORNET      
HFGIDGLIDERID:VH-GMY      
HFDTM100GPSDATUM:
HFRFWFIRMWAREVERSION:F2.6
HFRHWHARDWAREVERSION:300 Series Version 2
HFFTYFRTYPE:CAMBRIDGE AERO INSTRUMENTS, 302+
HFGPS:GARMIN,LVS-25,12,18000
HFPRSPRESSALTSENSOR:INTERSEMA, MS5534-AP, 20000
I033638FXA3941ENL4247REX
LCAMSBVER:5FWVER:F26300
C050222030823050222000103
C0000000N00000000WTAKEOFF     
C3207547S11656879EBeverley Air
C3111282S11701799EDowerin     
C3203749S11824249ENarembeen   
C3256165S11710679ENarrogin Sil
C3207547S11656879EBeverley Air
C0000000N00000000WLANDING     
B0329053207733S11657095EA0024900196000000000000
B0329073207733S11657095EA0024900196000000000000
B0329093207733S11657095EA0024900196000000000000
B0329113207733S11657095EA0024800196000000000000
B0329133207733S11657095EA0024900196000000000000
B0329153207733S11657095EA0024900196000000000000
B0329173207733S11657095EA0024900196000000000000
B0329193207733S11657095EA0024900196000000000000
B0329213207733S11657095EA0024900196000000000000
B0329233207733S11657095EA0024900196000000000000
B0329253207733S11657095EA0024900196000000000000
B0329273207733S11657095EA0024900196000000000000
B0329293207733S11657095EA0024900196000000000000
B0329313207733S11657095EA0025000196000000000000
B0329333207731S11657094EA0025000196000000000000
B0329343207728S11657094EA0025000196000000000000
B0329383207707S11657086EA0025000196000000000000
B0329423207672S11657069EA0025100197000000000000
B0329463207624S11657040EA0025200198000000000000
B0329503207566S11657005EA0025300199000000000000
B0329543207501S11656966EA0025800205000000000000
B0329583207434S11656926EA0026500215000000000000
B0330023207368S11656883EA0027300225000000000000
B0330063207302S11656841EA0028800237000000000000
B0330103207234S11656801EA0029500252000000000000
B0330143207169S11656765EA0031900281000000000000
B0330183207107S11656721EA0034200307000000000000
B0330223207060S11656657EA0036200339000000000000
B0330263207034S11656572EA0038400350000000000000
B0330303207043S11656477EA0039500371000000000000
B0330343207081S11656384EA0041200385000000000000
B0330383207143S11656305EA0042600398000000000000
B0330423207228S11656253EA0043800410000000000000
B0330463207328S11656240EA0044700420000000015000
B0330503207428S11656271EA0045500430000000015000
B0330543207510S11656341EA0046300438000000015000
B0330583207559S11656436EA0047400451000000015000
B0331023207579S11656533EA0048900469000000015000
B0331063207580S11656627EA0051100493000000000000
B0331103207562S11656711EA0053600518000000000000
B0331143207533S11656791EA0055500547000000000000
B0331183207499S11656866EA0058000577000000000000
B0331223207458S11656934EA0060600600000000000000
B0331263207408S11656984EA0062700623000000000000
B0331303207349S11657004EA0065100649000000000000
B0331343207289S11656988EA0067400673000000000000
B0331383207238S11656936EA0069600699000000000000
B0331423207209S11656857EA0072000721000000000000
B0331463207213S11656762EA0073800741000000000000
B0331503207259S11656674EA0075500758000000000000
B0331543207339S11656615EA0077000773000000000000
B0331583207438S11656607EA0078600790000000015000
B0332023207527S11656650EA0080400810000000015000
B0332063207590S11656723EA0083100842000000015000
B0332103207661S11656770EA0086100875000000015000
B0332143207733S11656737EA0088000883000000015000
B0332183207761S11656657EA0087800880000000015000
B0332223207736S11656591EA0087800884000000015000
B0332263207684S11656583EA0088600891000000015000
B0332303207641S11656628EA0088900890000000015000
B0332343207624S11656704EA0089500906000000015000
B0332383207653S11656774EA0091900934000000015000
B0332423207719S11656776EA0094100954000000015000
B0332463207750S11656710EA0095500969000000015000
B0332503207728S11656650EA0096300972000000015000
B0332543207688S11656662EA0098100994000000015000
B0332583207715S11656718EA0100301017000000015000
B0333023207779S11656711EA0102401037000000015000
B0333063207806S11656648EA0102901036000000015000
B0333103207778S11656594EA0103201042000000015000
B0333143207733S11656605EA0103601046000000015000
B0333183207732S11656672EA0104601071000000015000
B0333223207794S11656688EA0107401098000000015000
B0333263207846S11656640EA0109101103000000015000
B0333303207832S11656576EA0109201111000000015000
B0333343207787S11656567EA0109701111000000015000
B0333383207772S11656628EA0109201112000000015000
B0333423207822S11656688EA0110001129000000015000
B0333463207895S11656713EA0111901146000000015000
B0333503207944S11656650EA0113201162000000015000
B0333543207914S11656609EA0114801179000000015000
B0333583207888S11656650EA0115901183000000015000
B0334023207927S11656705EA0117301207000000015000
B0334063207997S11656698EA0119101220000000015000
B0334103208040S11656636EA0120201230000000015000
B0334143208025S11656579EA0120901236000000015000
B0334183207986S11656587EA0121101235000000015000
B0334223207979S11656648EA0121801247000000015000
B0334263208028S11656704EA0123201265000000015000
B0334303208103S11656710EA0124501282000000015000
B0334343208162S11656663EA0125801296000000015000
B0334383208174S11656594EA0127001303000000015000
B0334423208144S11656553EA0127001298000000015000
B0334463208095S11656552EA0126001294000000015000
B0334503208049S11656581EA0126401303000000015000
B0334543208064S11656649EA0127901316000000015000
B0334583208135S11656658EA0129601337000000015000
B0335023208166S11656589EA0131401349000000015000
B0335063208130S11656558EA0132101352000000015000
B0335103208112S11656607EA0132401363000000015000
B0335143208161S11656653EA0133701375000000015000
B0335183208230S11656620EA0134601391000000015000
B0335223208249S11656548EA0136101401000000015000
B0335263208213S11656509EA0136401399000000015000
B0335303208181S11656546EA0136201398000000015000
B0335343208208S11656610EA0136601406000000015000
B0335383208282S11656623EA0137601416000000015000
B0335423208335S11656559EA0138301418000000015000
B0335463208308S11656498EA0138501428000000015000
B0335503208266S11656514EA0139201429000000015000
B0335543208278S11656579EA0139301435000000015000
B0335583208339S11656617EA0140501449000000015000
B0336023208413S11656611EA0141401453000000015000
B0336063208468S11656544EA0141701462000000015000
B0336103208456S11656476EA0143001470000000015000
B0336143208417S11656489EA0143401473000000015000
B0336183208443S11656544EA0143901483000000015000
B0336223208515S11656540EA0144201481000000015000
B0336263208551S11656463EA0144101483000000015000
B0336303208532S11656394EA0144001477000000015000
B0336343208481S11656377EA0143301470000000015000
B0336383208428S11656396EA0141901455000000015000
B0336423208376S11656433EA0139801429000000000000
B0336463208318S11656477EA0137601408000000000000
B0336503208260S11656522EA0136701408000000000000
B0336543208200S11656559EA0136601405000000000000
B0336583208135S11656594EA0135801395000000000000
B0337023208067S11656628EA0135801397000000000000
B0337063208001S11656658EA0135701391000000000000
B0337103207935S11656688EA0135001384000000000000
B0337143207871S11656718EA0134301377000000000000
B0337183207806S11656749EA0133501368000000000000
B0337223207741S11656783EA0132301355000000000000
B0337263207674S11656818EA0130801337000000000000
B0337303207602S11656852EA0128901316000000000000
B0337343207525S11656880EA0127301303000000000000
B0337383207449S11656905EA0126801299000000000000
B0337423207376S11656923EA0126501292000000000000
B0337463207302S11656935EA0125601284000000000000
B0337503207229S11656938EA0125701289000000000000
B0337543207159S11656939EA0126001292000000000000
B0337583207090S11656948EA0125701287000000000000
B0338023207016S11656960EA0125001278000000000000
B0338063206940S11656971EA0124201270000000000000
B0338103206865S11656986EA0124301273000000000000
B0338143206791S11657005EA0124401276000000000000
B0338183206718S11657021EA0125101288000000000000
B0338223206648S11657033EA0125901288000000000000
B0338263206576S11657049EA0125601287000000000000
B0338303206505S11657065EA0125901289000000000000
B0338343206433S11657086EA0125601287000000000000
B0338383206367S11657112EA0125201281000000000000
B0338423206301S11657138EA0124101267000000000000
B0338463206232S11657166EA0122901256000000000000
B0338503206160S11657196EA0122001246000000000000
B0338543206090S11657215EA0121801248000000000000
B0338583206023S11657226EA0121301236000000000000
B0339023205952S11657235EA0119701217000000000000
B0339063205881S11657250EA0118301205000000000000
B0339103205809S11657264EA0117401196000000000000
B0339143205737S11657280EA0117001193000000000000
B0339183205675S11657312EA0118801219000000000000
B0339223205686S11657382EA0121801248000000000000
B0339263205751S11657394EA0122801249000000000000
B0339303205795S11657334EA0122001240000000015000
B0339343205781S11657267EA0121601242000000015000
B0339383205733S11657238EA0121901250000000015000
B0339423205687S11657259EA0123101263000000015000
B0339463205703S11657321EA0124401272000000015000
B0339503205769S11657315EA0124501268000000015000
B0339543205789S11657247EA0124601276000000015000
B0339583205752S11657211EA0125101278000000015000
B0340023205717S11657250EA0125401283000000015000
B0340063205739S11657317EA0125701285000000015000
B0340103205808S11657332EA0126201295000000015000
B0340143205833S11657276EA0127201302000000015000
B0340183205786S11657264EA0126901300000000015000
B0340223205779S11657334EA0127301303000000015000
B0340263205846S11657365EA0127701311000000015000
B0340303205893S11657313EA0128701322000000015000
B0340343205874S11657255EA0129601333000000015000
B0340383205828S11657263EA0130401335000000015000
B0340423205834S11657335EA0130501331000000015000
B0340463205902S11657359EA0129901326000000015000
B0340503205955S11657306EA0129801330000000015000
B0340543205969S11657234EA0130301341000000015000
B0340583205934S11657190EA0130801337000000015000
B0341023205878S11657199EA0130701345000000015000
B0341063205867S11657263EA0131901355000000015000
B0341103205925S11657304EA0132201350000000015000
B0341143205993S11657277EA0131001334000000015000
B0341183205998S11657196EA0130101343000000015000
B0341223205960S11657143EA0131401352000000015000
B0341263205903S11657125EA0131901357000000015000
B0341303205854S11657146EA0133301375000000015000
B0341343205864S11657212EA0134801386000000015000
B0341383205933S11657243EA0134401371000000015000
B0341423205997S11657189EA0133401370000000015000
B0341463206017S11657105EA0133901379000000015000
B0341503205993S11657033EA0134601384000000015000
B0341543205943S11656991EA0134901384000000015000
B0341583205881S11656973EA0133901366000000015000
B0342023205811S11656974EA0132501354000000000000
B0342063205735S11656986EA0131401343000000000000
B0342103205657S11656999EA0130901346000000000000
B0342143205582S11657022EA0130901343000000000000
B0342183205513S11657052EA0131901354000000000000
B0342223205445S11657087EA0131701346000000000000
B0342263205375S11657124EA0131401347000000000000
B0342303205305S11657161EA0131401347000000000000
B0342343205235S11657204EA0130401336000000000000
B0342383205165S11657251EA0130201335000000000000
B0342423205092S11657293EA0130601342000000000000
B0342463205020S11657335EA0131501354000000000000
B0342503204964S11657391EA0133101369000000000000
B0342543204997S11657467EA0134801389000000000000
B0342583205071S11657464EA0135601385000000015000
B0343023205114S11657397EA0135001386000000015000
B0343063205118S11657321EA0135701396000000015000
B0343103205084S11657273EA0136301402000000015000
B0343143205033S11657268EA0136501400000000015000
B0343183204979S11657276EA0135201378000000015000
B0343223204919S11657295EA0133201360000000000000
B0343263204854S11657320EA0131201338000000000000
B0343303204784S11657342EA0130101331000000000000
B0343343204717S11657372EA0130301339000000000000
B0343383204650S11657399EA0130701340000000000000
B0343423204578S11657425EA0130201332000000000000
B0343463204505S11657451EA0129401328000000000000
B0343503204439S11657481EA0129701332000000000000
B0343543204374S11657511EA0129401324000000000000
B0343583204308S11657542EA0128201308000000000000
B0344023204238S11657575EA0126301290000000000000
B0344063204160S11657590EA0124701272000000000000
B0344103204079S11657595EA0123901265000000000000
B0344143204001S11657606EA0123101257000000000000
B0344183203923S11657618EA0122001242000000000000
B0344223203845S11657628EA0120701227000000000000
B0344263203768S11657637EA0119601222000000000000
B0344303203693S11657645EA0119001212000000000000
B0344343203620S11657641EA0118501209000000000000
B0344383203550S11657634EA0117501195000000000000
B0344423203477S11657637EA0116701186000000000000
B0344463203410S11657660EA0115701172000000000000
B0344503203343S11657694EA0114101157000000000000
B0344543203276S11657736EA0112201135000000000000
B0344583203205S11657768EA0112001142000000000000
B0345023203137S11657768EA0113901165000000000000
B0345063203075S11657771EA0115701182000000000000
B0345103203016S11657779EA0116501189000000000000
B0345143202958S11657797EA0116901192000000000000
B0345183202913S11657837EA0117501203000000000000
B0345223202927S11657907EA0118901217000000000000
B0345263202995S11657936EA0119301212000000000000
B0345303203064S11657901EA0118501202000000015000
B0345343203085S11657824EA0117701203000000015000
B0345383203064S11657754EA0118401211000000015000
B0345423203029S11657698EA0118901215000000015000
B0345463202984S11657719EA0119201217000000015000
B0345503203009S11657787EA0118801207000000015000
B0345543203087S11657806EA0118101206000000015000
B0345583203168S11657788EA0119201216000000015000
B0346023203185S11657714EA0120601227000000015000
B0346063203139S11657702EA0121101231000000015000
B0346103203135S11657767EA0120701223000000015000
B0346143203204S11657789EA0121301239000000015000
B0346183203254S11657728EA0122801254000000015000
B0346223203250S11657655EA0123401257000000015000
B0346263203208S11657621EA0123501259000000015000
B0346303203172S11657655EA0123501256000000015000
B0346343203190S11657722EA0123001252000000015000
B0346383203260S11657744EA0123001256000000015000
B0346423203338S11657737EA0123601269000000015000
B0346463203412S11657719EA0124801278000000000000
B0346503203447S11657647EA0125301284000000015000
B0346543203415S11657599EA0126301297000000015000
B0346583203382S11657620EA0126801293000000000000
B0347023203407S11657675EA0126401291000000015000
B0347063203475S11657673EA0127001304000000015000
B0347103203525S11657616EA0127601307000000015000
B0347143203532S11657540EA0127801309000000015000
B0347183203494S11657498EA0127501299000000015000
B0347223203441S11657490EA0125801274000000015000
B0347263203377S11657493EA0123101245000000000000
B0347303203307S11657497EA0121001227000000000000
B0347343203234S11657499EA0119201209000000000000
B0347383203159S11657499EA0118001196000000000000
B0347423203083S11657498EA0116701182000000000000
B0347463203008S11657499EA0115301169000000000000
B0347503202930S11657501EA0114101154000000000000
B0347543202851S11657507EA0112801143000000000000
B0347583202775S11657532EA0112501144000000000000
B0348023202702S11657556EA0113001151000000000000
B0348063202630S11657575EA0114001166000000000000
B0348103202562S11657593EA0115201179000000000000
B0348143202496S11657615EA0116301190000000000000
B0348183202436S11657649EA0117401202000000000000
B0348223202450S11657723EA0119801228000000000000
B0348263202518S11657723EA0120501220000000015000
B0348303202540S11657647EA0118701208000000015000
B0348343202507S11657586EA0119401224000000015000
B0348383202468S11657619EA0120901234000000015000
B0348423202510S11657681EA0121601238000000015000
B0348463202585S11657658EA0121301234000000015000
B0348503202607S11657575EA0121601246000000015000
B0348543202575S11657521EA0122701253000000015000
B0348583202528S11657550EA0123001254000000015000
B0349023202544S11657624EA0124001269000000015000
B0349063202613S11657657EA0124701272000000015000
B0349103202682S11657615EA0125001285000000015000
B0349143202698S11657546EA0126301300000000015000
B0349183202662S11657510EA0126701295000000015000
B0349223202618S11657536EA0126101293000000015000
B0349263202609S11657606EA0126501301000000015000
B0349303202648S11657670EA0127301303000000015000
B0349343202722S11657692EA0127001298000000015000
B0349383202792S11657645EA0127001301000000015000
B0349423202809S11657569EA0127701315000000015000
B0349463202766S11657538EA0128501317000000015000
B0349503202734S11657585EA0128901322000000015000
B0349543202775S11657649EA0129701329000000015000
B0349583202854S11657649EA0130001335000000015000
B0350023202906S11657593EA0131201350000000015000
B0350063202896S11657532EA0132001355000000015000
B0350103202851S11657530EA0131701351000000015000
B0350143202843S11657595EA0131801360000000015000
B0350183202904S11657645EA0132901368000000015000
B0350223202983S11657647EA0133501374000000015000
B0350263203020S11657581EA0133701376000000015000
B0350303202982S11657529EA0134101377000000015000
B0350343202923S11657528EA0133701371000000015000
B0350383202860S11657540EA0133101366000000000000
B0350423202795S11657560EA0132901364000000000000
B0350463202730S11657586EA0132401356000000000000
B0350503202659S11657607EA0131501348000000000000
B0350543202587S11657623EA0131601358000000000000
B0350583202518S11657638EA0132601363000000000000
B0351023202450S11657654EA0132401360000000000000
B0351063202380S11657666EA0132101354000000000000
B0351103202308S11657673EA0132701370000000000000
B0351143202240S11657677EA0134301382000000000000
B0351183202172S11657686EA0135201392000000000000
B0351223202108S11657706EA0137201415000000000000
B0351263202112S11657776EA0139801444000000000000
B0351303202180S11657774EA0141901466000000000000
B0351343202194S11657706EA0143601484000000015000
B0351383202149S11657685EA0145201498000000000000
B0351423202128S11657740EA0146701517000000015000
B0351463202184S11657783EA0149001541000000015000
B0351503202242S11657748EA0150401555000000015000
B0351543202237S11657680EA0151701566000000015000
B0351583202185S11657670EA0152501577000000015000
B0352023202163S11657733EA0153901595000000015000
B0352063202212S11657788EA0156501624000000015000
B0352103202279S11657772EA0158301638000000015000
B0352143202297S11657705EA0159701657000000015000
B0352183202263S11657663EA0161301669000000015000
B0352223202220S11657686EA0162701678000000015000
B0352263202230S11657749EA0164101699000000015000
B0352303202294S11657763EA0165201706000000015000
B0352343202334S11657703EA0165701718000000015000
B0352383202307S11657649EA0166501728000000015000
B0352423202256S11657658EA0167801742000000015000
B0352463202241S11657718EA0169301755000000015000
B0352503202279S11657772EA0170201763000000015000
B0352543202345S11657774EA0170901771000000015000
B0352583202392S11657719EA0171801784000000015000
B0353023202381S11657654EA0173201795000000015000
B0353063202328S11657644EA0173801802000000015000
B0353103202298S11657696EA0175201818000000015000
B0353143202324S11657761EA0175701818000000015000
B0353183202397S11657764EA0176001828000000015000
B0353223202437S11657698EA0177001843000000015000
B0353263202420S11657631EA0178901863000000015000
B0353303202372S11657633EA0180301872000000015000
B0353343202362S11657699EA0181001875000000015000
B0353383202414S11657749EA0181301882000000015000
B0353423202485S11657735EA0182001890000000015000
B0353463202519S11657662EA0183101910000000015000
B0353503202494S11657598EA0185101926000000015000
B0353543202444S11657598EA0186201933000000015000
B0353583202431S11657660EA0186801943000000015000
B0354023202477S11657712EA0187601950000000015000
B0354063202546S11657694EA0187901951000000015000
B0354103202572S11657616EA0188701965000000015000
B0354143202533S11657556EA0189701975000000015000
B0354183202479S11657568EA0190901987000000015000
B0354223202468S11657633EA0191401983000000015000
B0354263202514S11657690EA0191001982000000015000
B0354303202588S11657699EA0190801982000000015000
B0354343202656S11657667EA0191501992000000015000
B0354383202637S11657597EA0192702002000000015000
B0354423202584S11657623EA0193302011000000015000
B0354463202614S11657685EA0194502019000000015000
B0354503202687S11657681EA0194202016000000015000
B0354543202732S11657612EA0194902034000000015000
B0354583202721S11657542EA0196502045000000015000
B0355023202669S11657515EA0196502039000000015000
B0355063202624S11657551EA0196902048000000015000
B0355103202635S11657618EA0197502051000000015000
B0355143202697S11657646EA0197702052000000015000
B0355183202754S11657601EA0197902059000000015000
B0355223202773S11657525EA0198202060000000015000
B0355263202734S11657462EA0198002051000000015000
B0355303202665S11657450EA0196602037000000015000
B0355343202589S11657460EA0194902017000000000000
B0355383202510S11657477EA0193302002000000000000
B0355423202425S11657497EA0191401979000000000000
B0355463202337S11657516EA0189101960000000000000
B0355503202249S11657533EA0187701944000000000000
B0355543202158S11657550EA0185901925000000000000
B0355583202064S11657568EA0184101906000000000000
B0356023201969S11657588EA0182901895000000000000
B0356063201877S11657607EA0182401891000000000000
B0356103201785S11657627EA0181901886000000000000
B0356143201694S11657644EA0181701888000000000000
B0356183201606S11657662EA0181901889000000000000
B0356223201522S11657681EA0182501899000000000000
B0356263201447S11657694EA0184801925000000000000
B0356303201376S11657710EA0185301921000000000000
B0356343201304S11657727EA0184001907000000000000
B0356383201228S11657748EA0183001900000000000000
B0356423201150S11657767EA0182301891000000000000
B0356463201072S11657785EA0181501880000000000000
B0356503200993S11657805EA0180801875000000000000
B0356543200916S11657824EA0180501873000000000000
B0356583200838S11657841EA0180001866000000000000
B0357023200759S11657853EA0179201860000000000000
B0357063200680S11657862EA0178601851000000000000
B0357103200599S11657868EA0177501837000000000000
B0357143200517S11657875EA0176701834000000000000
B0357183200439S11657883EA0176701835000000000000
B0357223200368S11657891EA0177401846000000000000
B0357263200304S11657896EA0178201848000000000000
B0357303200243S11657896EA0177501834000000000000
B0357343200176S11657891EA0175701812000000000000
B0357383200108S11657885EA0174101798000000000000
B0357423200040S11657879EA0173301795000000000000
B0357463159975S11657880EA0173001789000000000000
B0357503159913S11657884EA0172501786000000000000
B0357543159851S11657889EA0172201781000000000000
B0357583159793S11657897EA0171701775000000000000
B0358023159731S11657904EA0170401756000000000000
B0358063159662S11657910EA0168501738000000000000
B0358103159589S11657917EA0166801722000000000000
B0358143159517S11657926EA0166101718000000000000
B0358183159450S11657933EA0166001717000000000000
B0358223159382S11657937EA0164801700000000000000
B0358263159309S11657941EA0163401688000000000000
B0358303159234S11657944EA0162701679000000000000
B0358343159160S11657945EA0161801668000000000000
B0358383159084S11657945EA0161201664000000000000
B0358423159009S11657946EA0160601656000000000000
B0358463158934S11657948EA0159201638000000000000
B0358503158857S11657950EA0157501621000000000000
B0358543158778S11657956EA0156101606000000000000
B0358583158697S11657967EA0155101601000000000000
B0359023158616S11657979EA0154901597000000000000
B0359063158538S11657997EA0155301604000000000000
B0359103158464S11658021EA0155901615000000000000
B0359143158393S11658045EA0156701619000000000000
B0359183158325S11658069EA0157101625000000000000
B0359223158260S11658097EA0157401628000000000000
B0359263158200S11658127EA0158501643000000000000
B0359303158143S11658156EA0159401646000000000000
B0359343158083S11658186EA0158901639000000000000
B0359383158024S11658214EA0158701640000000000000
B0359423157969S11658245EA0158701634000000000000
B0359463157909S11658274EA0157101615000000000000
B0359503157843S11658299EA0156001603000000000000
B0359543157774S11658326EA0154501589000000000000
B0359583157703S11658351EA0153201578000000000000
B0400023157628S11658369EA0152701572000000000000
B0400063157556S11658392EA0152101565000000000000
B0400103157482S11658412EA0151101554000000000000
B0400143157406S11658433EA0149801539000000000000
B0400183157332S11658456EA0149201533000000000000
B0400223157253S11658468EA0148001520000000000000
B0400263157172S11658477EA0146801510000000000000
B0400303157090S11658483EA0146001499000000000000
B0400343157007S11658482EA0145001490000000000000
B0400383156923S11658483EA0144101479000000000000
B0400423156841S11658482EA0143701481000000000000
B0400463156763S11658490EA0143701477000000000000
B0400503156683S11658499EA0143001472000000000000
B0400543156607S11658512EA0142901471000000000000
B0400583156533S11658538EA0142701466000000000000
B0401023156461S11658561EA0142101460000000000000
B0401063156392S11658593EA0141301448000000000000
B0401103156317S11658609EA0139901431000000000000
B0401143156240S11658609EA0138501419000000000000
B0401183156161S11658603EA0137301407000000000000
B0401223156081S11658591EA0136501398000000000000
B0401263156002S11658574EA0135501385000000000000
B0401303155920S11658568EA0133901368000000000000
B0401343155838S11658574EA0132601353000000000000
B0401383155756S11658582EA0131901356000000000000
B0401423155678S11658596EA0132701363000000000000
B0401463155607S11658624EA0133001367000000000000
B0401503155538S11658651EA0133401369000000000000
B0401543155469S11658684EA0133901377000000000000
B0401583155402S11658713EA0134801390000000000000
B0402023155344S11658750EA0136801410000000000000
B0402063155363S11658817EA0139201439000000000000
B0402103155424S11658803EA0140801448000000000000
B0402143155431S11658739EA0141401455000000000000
B0402183155387S11658745EA0142201466000000000000
B0402223155400S11658811EA0143201475000000000000
B0402263155465S11658810EA0144101487000000000000
B0402303155481S11658746EA0145101497000000000000
B0402343155442S11658713EA0146301509000000000000
B0402383155416S11658760EA0148001531000000000000
B0402423155459S11658811EA0149501544000000000000
B0402463155520S11658788EA0150701557000000015000
B0402503155528S11658724EA0151801567000000015000
B0402543155485S11658703EA0152701576000000000000
B0402583155467S11658764EA0153801589000000000000
B0403023155516S11658823EA0155301605000000015000
B0403063155581S11658804EA0156701620000000015000
B0403103155602S11658746EA0158601642000000015000
B0403143155580S11658704EA0159701647000000015000
B0403183155546S11658733EA0160401656000000015000
B0403223155581S11658791EA0161401667000000000000
B0403263155643S11658769EA0162201682000000015000
B0403303155646S11658711EA0163401689000000015000
B0403343155604S11658704EA0164101699000000015000
B0403383155598S11658768EA0165401716000000015000
B0403423155649S11658815EA0167201738000000015000
B0403463155704S11658791EA0169101751000000015000
B0403503155710S11658733EA0169501754000000015000
B0403543155668S11658712EA0170401764000000015000
B0403583155642S11658759EA0171401773000000015000
B0404023155678S11658821EA0172701791000000015000
B0404063155740S11658828EA0174901814000000015000
B0404103155771S11658776EA0175901819000000015000
B0404143155746S11658725EA0176501822000000015000
B0404183155703S11658738EA0177701833000000015000
B0404223155712S11658807EA0178601847000000015000
B0404263155772S11658833EA0180701874000000015000
B0404303155816S11658791EA0181901882000000015000
B0404343155805S11658729EA0182601894000000015000
B0404383155763S11658726EA0183901908000000015000
B0404423155747S11658785EA0184701913000000015000
B0404463155789S11658841EA0185701930000000015000
B0404503155854S11658843EA0187601954000000015000
B0404543155893S11658790EA0189701973000000015000
B0404583155879S11658737EA0191001984000000015000
B0405023155837S11658741EA0191401982000000015000
B0405063155824S11658808EA0191501992000000015000
B0405103155876S11658856EA0194202028000000015000
B0405143155929S11658824EA0196402042000000015000
B0405183155922S11658760EA0197202048000000015000
B0405223155873S11658755EA0198102062000000015000
B0405263155859S11658817EA0200102084000000015000
B0405303155912S11658868EA0201802105000000015000
B0405343155972S11658841EA0203402127000000015000
B0405383155989S11658778EA0205402138000000015000
B0405423155958S11658730EA0205802143000000015000
B0405463155914S11658739EA0207502156000000015000
B0405503155919S11658807EA0208602159000000015000
B0405543155990S11658840EA0208702168000000015000
B0405583156045S11658788EA0210702200000000015000
B0406023156053S11658721EA0212702216000000015000
B0406063156019S11658686EA0214702234000000015000
B0406103155980S11658712EA0216102243000000015000
B0406143155977S11658781EA0216502248000000015000
B0406183156028S11658843EA0217302261000000015000
B0406223156104S11658843EA0218702281000000015000
B0406263156139S11658781EA0220002289000000015000
B0406303156109S11658728EA0220802302000000015000
B0406343156058S11658746EA0222802326000000015000
B0406383156054S11658816EA0225002348000000015000
B0406423156109S11658869EA0226302368000000015000
B0406463156172S11658849EA0228202384000000015000
B0406503156188S11658782EA0229302393000000015000
B0406543156152S11658745EA0230602406000000015000
B0406583156113S11658786EA0232502429000000015000
B0407023156132S11658858EA0234302447000000015000
B0407063156197S11658881EA0235902465000000015000
B0407103156239S11658830EA0237302477000000015000
B0407143156210S11658780EA0237902480000000015000
B0407183156157S11658798EA0239102503000000015000
B0407223156148S11658866EA0241302520000000015000
B0407263156208S11658905EA0242002530000000015000
B0407303156269S11658869EA0243402543000000015000
B0407343156275S11658801EA0243502545000000015000
B0407383156230S11658758EA0244502564000000015000
B0407423156171S11658756EA0245902566000000015000
B0407463156109S11658768EA0245102552000000015000
B0407503156037S11658782EA0243402533000000015000
B0407543155961S11658794EA0241902518000000000000
B0407583155879S11658806EA0240202501000000000000
B0408023155794S11658814EA0238602485000000000000
B0408063155710S11658819EA0237602475000000000000
B0408103155625S11658824EA0236702468000000000000
B0408143155543S11658832EA0236302464000000000000
B0408183155463S11658838EA0236302463000000000000
B0408223155385S11658838EA0236002460000000000000
B0408263155308S11658838EA0235602456000000000000
B0408303155230S11658838EA0235202450000000000000
B0408343155151S11658837EA0234102436000000000000
B0408383155066S11658838EA0232902424000000000000
B0408423154980S11658841EA0231802414000000000000
B0408463154892S11658842EA0230802403000000000000
B0408503154802S11658846EA0229702391000000000000
B0408543154711S11658849EA0228802380000000000000
B0408583154620S11658850EA0228102374000000000000
B0409023154531S11658850EA0227102365000000000000
B0409063154441S11658849EA0226202353000000000000
B0409103154349S11658845EA0225102341000000000000
B0409143154256S11658843EA0224002333000000000000
B0409183154165S11658843EA0223802333000000000000
B0409223154079S11658843EA0224102336000000000000
B0409263153998S11658842EA0224102334000000000000
B0409303153916S11658841EA0223702333000000000000
B0409343153838S11658840EA0223802330000000000000
B0409383153758S11658838EA0222902321000000000000
B0409423153679S11658841EA0222602319000000000000
B0409463153601S11658846EA0223802336000000000000
B0409503153531S11658854EA0225202351000000000000
B0409543153466S11658864EA0225702355000000000000
B0409583153400S11658876EA0225802352000000000000
B0410023153329S11658882EA0225202343000000000000
B0410063153257S11658889EA0224602336000000000000
B0410103153180S11658893EA0224602345000000000000
B0410143153107S11658898EA0226202366000000000000
B0410183153038S11658905EA0227302371000000000000
B0410223152965S11658910EA0227302370000000000000
B0410263152889S11658916EA0226602354000000000000
B0410303152808S11658919EA0225202344000000000000
B0410343152726S11658920EA0224002330000000000000
B0410383152642S11658923EA0223102319000000000000
B0410423152560S11658928EA0222902322000000000000
B0410463152479S11658934EA0222602317000000000000
B0410503152397S11658937EA0221602302000000000000
B0410543152314S11658941EA0219902284000000000000
B0410583152231S11658942EA0218102266000000000000
B0411023152146S11658942EA0216802255000000000000
B0411063152062S11658936EA0215802243000000000000
B0411103151973S11658940EA0214802231000000000000
B0411143151886S11658950EA0214402230000000000000
B0411183151799S11658964EA0214002223000000000000
B0411223151711S11658975EA0213002216000000000000
B0411263151624S11658980EA0212702213000000000000
B0411303151537S11658979EA0212702214000000000000
B0411343151451S11658976EA0212802215000000000000
B0411383151369S11658977EA0212702216000000000000
B0411423151286S11658979EA0212302205000000000000
B0411463151201S11658983EA0211102192000000000000
B0411503151114S11658988EA0209902178000000000000
B0411543151026S11658993EA0208802166000000000000
B0411583150937S11658998EA0207902162000000000000
B0412023150853S11659003EA0207702156000000000000
B0412063150767S11659006EA0206702145000000000000
B0412103150679S11659007EA0205502131000000000000
B0412143150589S11659012EA0204102117000000000000
B0412183150499S11659018EA0203002104000000000000
B0412223150407S11659025EA0201702090000000000000
B0412263150316S11659035EA0200702081000000000000
B0412303150225S11659040EA0199502063000000000000
B0412343150133S11659050EA0198002052000000000000
B0412383150043S11659044EA0198602069000000000000
B0412423149966S11659028EA0200802094000000000000
B0412463149893S11659015EA0201902097000000000000
B0412503149817S11659007EA0201002083000000000000
B0412543149736S11659006EA0200102075000000000000
B0412583149652S11659010EA0198602054000000000000
B0413023149565S11659016EA0197102041000000000000
B0413063149476S11659027EA0196002032000000000000
B0413103149388S11659038EA0195102018000000000000
B0413143149297S11659050EA0193702004000000000000
B0413183149204S11659063EA0192401990000000000000
B0413223149111S11659080EA0191401981000000000000
B0413263149020S11659098EA0191201984000000000000
B0413303148937S11659113EA0192001993000000000000
B0413343148859S11659123EA0191801985000000000000
B0413383148779S11659131EA0190801974000000000000
B0413423148697S11659133EA0189801962000000000000
B0413463148612S11659132EA0188601951000000000000
B0413503148526S11659135EA0187701941000000000000
B0413543148441S11659137EA0186901934000000000000
B0413583148357S11659142EA0185601915000000000000
B0414023148268S11659152EA0183701895000000000000
B0414063148179S11659162EA0181901879000000000000
B0414103148089S11659174EA0180601867000000000000
B0414143148001S11659183EA0180101863000000000000
B0414183147915S11659192EA0179501854000000000000
B0414223147828S11659202EA0178901854000000000000
B0414263147746S11659214EA0179201854000000000000
B0414303147667S11659226EA0178501844000000000000
B0414343147586S11659239EA0177501832000000000000
B0414383147505S11659250EA0176601824000000000000
B0414423147423S11659263EA0175301807000000000000
B0414463147338S11659276EA0173801794000000000000
B0414503147252S11659287EA0173301793000000000000
B0414543147171S11659297EA0174101805000000000000
B0414583147095S11659310EA0174501802000000000000
B0415023147017S11659318EA0173901798000000000000
B0415063146939S11659327EA0173201792000000000000
B0415103146861S11659337EA0172601781000000000000
B0415143146781S11659349EA0171301765000000000000
B0415183146701S11659361EA0169701748000000000000
B0415223146616S11659374EA0168401735000000000000
B0415263146534S11659387EA0168201743000000000000
B0415303146458S11659395EA0169401757000000000000
B0415343146382S11659406EA0169801756000000000000
B0415383146308S11659422EA0169301747000000000000
B0415423146235S11659443EA0168801744000000000000
B0415463146162S11659462EA0168301735000000000000
B0415503146087S11659483EA0167101722000000000000
B0415543146008S11659504EA0165701707000000000000
B0415583145927S11659522EA0164801700000000000000
B0416023145847S11659540EA0164401694000000000000
B0416063145767S11659558EA0163401679000000000000
B0416103145684S11659573EA0161501659000000000000
B0416143145597S11659586EA0159901642000000000000
B0416183145510S11659596EA0158401628000000000000
B0416223145423S11659616EA0156901608000000000000
B0416263145333S11659631EA0155001589000000000000
B0416303145245S11659643EA0153801578000000000000
B0416343145159S11659657EA0152701568000000000000
B0416383145076S11659679EA0151601554000000000000
B0416423144992S11659703EA0150101539000000000000
B0416463144909S11659724EA0149101530000000000000
B0416503144826S11659738EA0148001515000000000000
B0416543144739S11659753EA0146501502000000000000
B0416583144656S11659772EA0146001503000000000000
B0417023144584S11659790EA0147301516000000000000
B0417063144515S11659807EA0148101524000000000000
B0417103144449S11659811EA0148801524000000000000
B0417143144380S11659815EA0148401520000000000000
B0417183144310S11659816EA0148601530000000000000
B0417223144242S11659820EA0149901547000000000000
B0417263144176S11659829EA0152001566000000000000
B0417303144153S11659891EA0154101591000000000000
B0417343144201S11659935EA0155701605000000000000
B0417383144258S11659919EA0156401612000000000000
B0417423144283S11659860EA0157501628000000015000
B0417463144253S11659808EA0159001640000000015000
B0417503144202S11659821EA0160101653000000015000
B0417543144199S11659887EA0161201663000000015000
B0417583144259S11659919EA0162201676000000015000
B0418023144316S11659881EA0163701695000000015000
B0418063144322S11659812EA0165101715000000015000
B0418103144280S11659770EA0166701728000000015000
B0418143144231S11659787EA0168101737000000015000
B0418183144224S11659848EA0168901742000000015000
B0418223144268S11659898EA0169401750000000015000
B0418263144333S11659898EA0170301761000000015000
B0418303144342S11659830EA0171501780000000015000
B0418343144292S11659822EA0173401800000000015000
B0418383144283S11659885EA0174901813000000015000
B0418423144337S11659920EA0176101825000000015000
B0418463144385S11659876EA0177101839000000015000
B0418503144376S11659809EA0179001861000000015000
B0418543144328S11659789EA0180701876000000015000
B0418583144293S11659831EA0181701883000000015000
B0419023144305S11659894EA0182401887000000015000
B0419063144355S11659933EA0182801893000000015000
B0419103144418S11659938EA0183801903000000015000
B0419143144454S11659882EA0184501912000000015000
B0419183144428S11659822EA0185701925000000015000
B0419223144381S11659850EA0186801938000000015000
B0419263144400S11659912EA0187901948000000015000
B0419303144462S11659922EA0188901960000000015000
B0419343144501S11659864EA0189701968000000015000
B0419383144475S11659800EA0191001986000000015000
B0419423144422S11659809EA0192401996000000015000
B0419463144407S11659877EA0192902002000000015000
B0419503144446S11659938EA0193302007000000015000
B0419543144513S11659948EA0193802011000000015000
B0419583144566S11659899EA0194102014000000015000
B0420023144584S11659821EA0194702025000000015000
B0420063144560S11659756EA0196402041000000015000
B0420103144509S11659761EA0197502051000000015000
B0420143144506S11659829EA0197902055000000015000
B0420183144560S11659870EA0199102071000000015000
B0420223144622S11659854EA0200002080000000015000
B0420263144644S11659783EA0200702088000000015000
B0420303144608S11659726EA0201902105000000015000
B0420343144552S11659721EA0203202115000000015000
B0420383144522S11659774EA0204102122000000015000
B0420423144539S11659841EA0204802128000000015000
B0420463144595S11659880EA0204902130000000015000
B0420503144665S11659890EA0205102132000000015000
B0420543144725S11659847EA0205602139000000015000
B0420583144757S11659773EA0206702156000000015000
B0421023144739S11659704EA0208702172000000015000
B0421063144690S11659720EA0209902177000000015000
B0421103144696S11659786EA0210402188000000015000
B0421143144760S11659799EA0211402205000000015000
B0421183144813S11659746EA0212602218000000015000
B0421223144821S11659668EA0214002233000000015000
B0421263144771S11659630EA0215502246000000015000
B0421303144727S11659668EA0216602256000000015000
B0421343144742S11659735EA0217402264000000015000
B0421383144803S11659753EA0218602282000000015000
B0421423144855S11659703EA0219902295000000015000
B0421463144859S11659626EA0221202308000000015000
B0421503144813S11659584EA0222202320000000015000
B0421543144766S11659612EA0223102327000000015000
B0421583144765S11659677EA0223602330000000015000
B0422023144818S11659716EA0224302344000000015000
B0422063144883S11659694EA0225202348000000015000
B0422103144934S11659633EA0226002359000000015000
B0422143144918S11659560EA0227202371000000015000
B0422183144868S11659568EA0228502384000000015000
B0422223144873S11659631EA0229402391000000015000
B0422263144937S11659643EA0229602395000000015000
B0422303144982S11659575EA0230302405000000015000
B0422343144960S11659504EA0231202417000000015000
B0422383144904S11659493EA0232502428000000015000
B0422423144873S11659547EA0233302435000000015000
B0422463144892S11659610EA0234002441000000015000
B0422503144951S11659639EA0234702448000000015000
B0422543145017S11659607EA0235302456000000015000
B0422583145050S11659536EA0236502473000000015000
B0423023145020S11659478EA0238102485000000015000
B0423063144973S11659491EA0239102492000000015000
B0423103144965S11659549EA0239402495000000015000
B0423143145012S11659592EA0239702501000000015000
B0423183145078S11659575EA0240602514000000015000
B0423223145122S11659512EA0241202520000000015000
B0423263145126S11659432EA0242102532000000015000
B0423303145085S11659380EA0243602543000000015000
B0423343145031S11659397EA0244402550000000015000
B0423383145035S11659464EA0244902552000000015000
B0423423145102S11659482EA0244802551000000015000
B0423463145148S11659409EA0244702552000000015000
B0423503145128S11659328EA0245902568000000015000
B0423543145070S11659292EA0246702571000000015000
B0423583145004S11659292EA0246002560000000015000
B0424023144930S11659306EA0245102553000000015000
B0424063144851S11659327EA0243802534000000000000
B0424103144764S11659347EA0241802514000000000000
B0424143144675S11659367EA0239902492000000000000
B0424183144584S11659389EA0237402463000000000000
B0424223144489S11659406EA0234802441000000000000
B0424263144392S11659418EA0233402427000000000000
B0424303144293S11659432EA0232802423000000000000
B0424343144198S11659445EA0233402437000000000000
B0424383144108S11659458EA0234002440000000000000
B0424423144020S11659471EA0233902440000000000000
B0424463143934S11659486EA0234602449000000000000
B0424503143848S11659504EA0234602442000000000000
B0424543143759S11659521EA0233202425000000000000
B0424583143668S11659534EA0232502424000000000000
B0425023143581S11659543EA0232602422000000000000
B0425063143491S11659547EA0231802411000000000000
B0425103143401S11659553EA0230402398000000000000
B0425143143310S11659558EA0229602392000000000000
B0425183143219S11659561EA0228602380000000000000
B0425223143128S11659562EA0227902366000000000000
B0425263143036S11659558EA0226402350000000000000
B0425303142942S11659551EA0224902335000000000000
B0425343142846S11659545EA0223302320000000000000
B0425383142750S11659540EA0222102307000000000000
B0425423142655S11659538EA0221302302000000000000
B0425463142565S11659536EA0221102301000000000000
B0425503142478S11659543EA0220402290000000000000
B0425543142392S11659553EA0219902290000000000000
B0425583142312S11659571EA0220102289000000000000
B0426023142233S11659588EA0220002294000000000000
B0426063142157S11659605EA0220802297000000000000
B0426103142083S11659621EA0220702295000000000000
B0426143142008S11659634EA0220702291000000000000
B0426183141927S11659643EA0219202275000000000000
B0426223141845S11659651EA0218702275000000000000
B0426263141763S11659657EA0219902293000000000000
B0426303141694S11659675EA0223402331000000000000
B0426343141680S11659739EA0226302354000000000000
B0426383141735S11659776EA0227002359000000000000
B0426423141802S11659737EA0226702354000000000000
B0426463141831S11659655EA0226702367000000000000
B0426503141822S11659578EA0228402388000000000000
B0426543141779S11659542EA0230302405000000015000
B0426583141752S11659596EA0232002419000000015000
B0427023141798S11659652EA0232802427000000015000
B0427063141869S11659629EA0233902445000000015000
B0427103141889S11659558EA0235302457000000015000
B0427143141854S11659506EA0235802456000000015000
B0427183141798S11659517EA0236502475000000015000
B0427223141779S11659578EA0239002498000000015000
B0427263141823S11659633EA0239902505000000015000
B0427303141891S11659616EA0241002517000000015000
B0427343141915S11659549EA0241802528000000015000
B0427383141893S11659488EA0242902542000000015000
B0427423141845S11659466EA0244102555000000015000
B0427463141797S11659491EA0245202563000000015000
B0427503141774S11659549EA0246102572000000015000
B0427543141784S11659617EA0246602577000000000000
B0427583141828S11659666EA0247102581000000000000
B0428023141895S11659682EA0247202581000000000000
B0428063141960S11659651EA0247002578000000000000
B0428103142001S11659581EA0247002583000000000000
B0428143142013S11659508EA0248102600000000000000
B0428183141984S11659451EA0249502611000000000000
B0428223141932S11659432EA0250802624000000015000
B0428263141885S11659460EA0252102632000000000000
B0428303141870S11659523EA0252302634000000000000
B0428343141897S11659594EA0252302633000000015000
B0428383141963S11659621EA0252902644000000015000
B0428423142019S11659582EA0253702651000000015000
B0428463142030S11659510EA0254102658000000015000
B0428503141999S11659454EA0254702665000000015000
B0428543141947S11659430EA0255102663000000015000
B0428583141887S11659415EA0254202648000000015000
B0429023141814S11659406EA0252602630000000000000
B0429063141731S11659397EA0251202617000000000000
B0429103141644S11659386EA0251002622000000000000
B0429143141558S11659374EA0251102618000000000000
B0429183141469S11659361EA0250202608000000000000
B0429223141378S11659349EA0248902591000000000000
B0429263141281S11659340EA0246602565000000000000
B0429303141176S11659330EA0244102542000000000000
B0429343141070S11659317EA0241602514000000000000
B0429383140965S11659304EA0240402502000000000000
B0429423140862S11659291EA0239802501000000000000
B0429463140764S11659279EA0239902499000000000000
B0429503140665S11659272EA0240002505000000000000
B0429543140571S11659270EA0240202502000000000000
B0429583140480S11659267EA0240002502000000000000
B0430023140393S11659263EA0240002501000000000000
B0430063140306S11659253EA0239402493000000000000
B0430103140220S11659243EA0238502478000000000000
B0430143140132S11659241EA0237202466000000000000
B0430183140045S11659241EA0236202456000000000000
B0430223139958S11659240EA0235202444000000000000
B0430263139873S11659236EA0233902432000000000000
B0430303139790S11659231EA0232902422000000000000
B0430343139708S11659226EA0231602409000000000000
B0430383139627S11659218EA0230802401000000000000
B0430423139547S11659206EA0230602402000000000000
B0430463139466S11659198EA0231002409000000000000
B0430503139391S11659204EA0232902434000000000000
B0430543139321S11659220EA0234902456000000000000
B0430583139253S11659237EA0237102471000000000000
B0431023139185S11659254EA0237502474000000000000
B0431063139115S11659271EA0237202468000000000000
B0431103139040S11659283EA0236702463000000000000
B0431143138960S11659292EA0236802469000000000000
B0431183138882S11659301EA0237402477000000000000
B0431223138803S11659310EA0238202485000000000000
B0431263138725S11659321EA0238702489000000000000
B0431303138647S11659328EA0238702486000000000000
B0431343138565S11659341EA0237602472000000000000
B0431383138485S11659353EA0237502477000000000000
B0431423138407S11659366EA0238302490000000000000
B0431463138331S11659383EA0239502497000000000000
B0431503138255S11659401EA0239602502000000000000
B0431543138179S11659418EA0240802518000000000000
B0431583138105S11659434EA0241302513000000000000
B0432023138026S11659453EA0239802492000000000000
B0432063137941S11659473EA0238702489000000000000
B0432103137855S11659493EA0239502502000000000000
B0432143137772S11659512EA0240902512000000000000
B0432183137688S11659527EA0240702508000000000000
B0432223137598S11659548EA0239702494000000000000
B0432263137506S11659570EA0238902489000000000000
B0432303137415S11659595EA0238702488000000000000
B0432343137328S11659621EA0239402499000000000000
B0432383137243S11659652EA0239902505000000000000
B0432423137160S11659679EA0240902517000000000000
B0432463137077S11659703EA0242202530000000000000
B0432503136999S11659725EA0242502529000000000000
B0432543136922S11659753EA0241802519000000000000
B0432583136844S11659787EA0240602505000000000000
B0433023136766S11659821EA0239602491000000000000
B0433063136684S11659855EA0237802475000000000000
B0433103136604S11659895EA0236002451000000000000
B0433143136514S11659928EA0234002431000000000000
B0433183136425S11659965EA0233502434000000000000
B0433223136344S11700015EA0233602433000000000000
B0433263136264S11700067EA0232902424000000000000
B0433303136178S11700104EA0231702410000000000000
B0433343136086S11700125EA0230502398000000000000
B0433383135993S11700140EA0229102380000000000000
B0433423135898S11700147EA0227802368000000000000
B0433463135804S11700154EA0227002364000000000000
B0433503135713S11700163EA0226502358000000000000
B0433543135622S11700173EA0226202355000000000000
B0433583135532S11700185EA0225902351000000000000
B0434023135443S11700197EA0225402344000000000000
B0434063135356S11700210EA0224902341000000000000
B0434103135270S11700225EA0224302330000000000000
B0434143135184S11700241EA0223102321000000000000
B0434183135098S11700254EA0221902305000000000000
B0434223135012S11700266EA0220402289000000000000
B0434263134927S11700283EA0219902289000000000000
B0434303134841S11700309EA0219902291000000000000
B0434343134758S11700338EA0221102303000000000000
B0434383134683S11700375EA0222302324000000000000
B0434423134622S11700423EA0224602343000000000000
B0434463134624S11700497EA0226802367000000000000
B0434503134687S11700530EA0228802386000000000000
B0434543134755S11700489EA0229202386000000000000
B0434583134780S11700411EA0228902384000000015000
B0435023134765S11700332EA0229002387000000015000
B0435063134721S11700280EA0229402386000000000000
B0435103134660S11700283EA0228802386000000015000
B0435143134612S11700328EA0229102389000000000000
B0435183134578S11700394EA0229302390000000000000
B0435223134553S11700471EA0229402391000000000000
B0435263134522S11700545EA0229402391000000000000
B0435303134486S11700621EA0228702381000000000000
B0435343134433S11700691EA0228602387000000000000
B0435383134370S11700751EA0230002402000000000000
B0435423134301S11700801EA0231002412000000000000
B0435463134235S11700847EA0232502436000000000000
B0435503134217S11700921EA0235702469000000000000
B0435543134277S11700968EA0238002489000000000000
B0435583134347S11700943EA0239402501000000000000
B0436023134384S11700881EA0240402511000000000000
B0436063134374S11700812EA0241302520000000015000
B0436103134329S11700774EA0242202527000000015000
B0436143134275S11700795EA0242902534000000015000
B0436183134266S11700864EA0244302556000000015000
B0436223134319S11700913EA0246302574000000015000
B0436263134383S11700886EA0247402589000000015000
B0436303134401S11700816EA0248202595000000015000
B0436343134366S11700765EA0248602598000000015000
B0436383134310S11700766EA0249102604000000015000
B0436423134273S11700819EA0249902616000000015000
B0436463134287S11700895EA0251502632000000015000
B0436503134353S11700934EA0253402653000000015000
B0436543134422S11700907EA0254302660000000015000
B0436583134447S11700834EA0255202670000000015000
B0437023134422S11700766EA0255902678000000015000
B0437063134368S11700738EA0256402681000000015000
B0437103134314S11700771EA0257002693000000015000
B0437143134312S11700849EA0258602705000000015000
B0437183134381S11700894EA0259602715000000015000
B0437223134453S11700862EA0261002736000000015000
B0437263134477S11700790EA0262302746000000015000
B0437303134444S11700730EA0263102751000000015000
B0437343134390S11700734EA0263902763000000015000
B0437383134358S11700793EA0264902776000000015000
B0437423134384S11700865EA0266402791000000015000
B0437463134453S11700894EA0267502801000000015000
B0437503134521S11700862EA0268602816000000015000
B0437543134553S11700796EA0269902827000000015000
B0437583134537S11700730EA0270702833000000015000
B0438023134485S11700712EA0271402842000000015000
B0438063134443S11700754EA0272702856000000015000
B0438103134447S11700826EA0273902867000000015000
B0438143134501S11700879EA0274602875000000015000
B0438183134573S11700870EA0275202884000000015000
B0438223134617S11700808EA0276102894000000015000
B0438263134608S11700738EA0277102906000000015000
B0438303134564S11700701EA0278102913000000015000
B0438343134512S11700722EA0279102923000000015000
B0438383134500S11700790EA0280302933000000015000
B0438423134537S11700860EA0280602936000000015000
B0438463134609S11700890EA0281402949000000015000
B0438503134680S11700862EA0282302962000000015000
B0438543134725S11700800EA0283302970000000015000
B0438583134728S11700728EA0284302980000000015000
B0439023134687S11700686EA0285002985000000015000
B0439063134639S11700709EA0285602988000000015000
B0439103134633S11700782EA0286102998000000015000
B0439143134672S11700857EA0286803003000000015000
B0439183134747S11700887EA0288003019000000000000
B0439223134815S11700856EA0289303031000000015000
B0439263134828S11700784EA0289603031000000015000
B0439303134789S11700732EA0289703033000000015000
B0439343134730S11700719EA0289603028000000015000
B0439383134669S11700732EA0289603035000000000000
B0439423134609S11700757EA0289903034000000000000
B0439463134548S11700782EA0289503026000000000000
B0439503134485S11700808EA0288303011000000000000
B0439543134413S11700836EA0286502996000000000000
B0439583134338S11700866EA0286202995000000000000
B0440023134258S11700897EA0286503002000000000000
B0440063134178S11700930EA0287003002000000000000
B0440103134092S11700962EA0286302990000000000000
B0440143134005S11700995EA0286102993000000000000
B0440183133915S11701020EA0285402980000000000000
B0440223133819S11701040EA0284202967000000000000
B0440263133723S11701056EA0283102957000000000000
B0440303133627S11701072EA0282502951000000000000
B0440343133530S11701083EA0281702943000000000000
B0440383133434S11701095EA0281502936000000000000
B0440423133343S11701105EA0281402934000000000000
B0440463133253S11701117EA0280902924000000000000
B0440503133161S11701125EA0279902917000000000000
B0440543133070S11701131EA0279302911000000000000
B0440583132979S11701137EA0278602903000000000000
B0441023132887S11701142EA0277902898000000000000
B0441063132795S11701148EA0277202887000000000000
B0441103132700S11701155EA0276402880000000000000
B0441143132606S11701163EA0276402884000000000000
B0441183132514S11701170EA0276302878000000000000
B0441223132421S11701180EA0276202883000000000000
B0441263132328S11701191EA0275902871000000000000
B0441303132232S11701207EA0274302854000000000000
B0441343132135S11701217EA0273502851000000000000
B0441383132042S11701226EA0273302846000000000000
B0441423131947S11701233EA0272302835000000000000
B0441463131849S11701239EA0271502828000000000000
B0441503131753S11701246EA0271202825000000000000
B0441543131657S11701250EA0270302814000000000000
B0441583131562S11701254EA0269602802000000000000
B0442023131466S11701258EA0267902783000000000000
B0442063131368S11701261EA0266402769000000000000
B0442103131272S11701268EA0265702765000000000000
B0442143131179S11701274EA0264902755000000000000
B0442183131082S11701290EA0264102753000000000000
B0442223130988S11701306EA0264902763000000000000
B0442263130895S11701323EA0266402782000000000000
B0442303130809S11701350EA0268702809000000000000
B0442343130729S11701380EA0270402830000000000000
B0442383130652S11701411EA0272202845000000000000
B0442423130579S11701445EA0273702863000000000000
B0442463130505S11701482EA0274702868000000000000
B0442503130431S11701521EA0274902867000000000000
B0442543130354S11701563EA0274302858000000000000
B0442583130269S11701596EA0272802839000000000000
B0443023130176S11701623EA0271202825000000000000
B0443063130080S11701644EA0270502815000000000000
B0443103129983S11701664EA0269802806000000000000
B0443143129885S11701681EA0269002799000000000000
B0443183129789S11701693EA0268202794000000000000
B0443223129691S11701702EA0267702786000000000000
B0443263129595S11701713EA0267302784000000000000
B0443303129498S11701722EA0266602771000000000000
B0443343129399S11701727EA0265202753000000000000
B0443383129299S11701732EA0263302732000000000000
B0443423129196S11701736EA0262002724000000000000
B0443463129096S11701742EA0261502718000000000000
B0443503128996S11701750EA0260302703000000000000
B0443543128897S11701766EA0259302695000000000000
B0443583128798S11701781EA0258302685000000000000
B0444023128697S11701798EA0257302672000000000000
B0444063128594S11701813EA0256002656000000000000
B0444103128490S11701826EA0254402641000000000000
B0444143128386S11701835EA0253302632000000000000
B0444183128285S11701844EA0252202619000000000000
B0444223128183S11701854EA0250902605000000000000
B0444263128082S11701865EA0249502590000000000000
B0444303127979S11701871EA0248302576000000000000
B0444343127877S11701880EA0247402569000000000000
B0444383127775S11701891EA0246202551000000000000
B0444423127674S11701904EA0244802538000000000000
B0444463127571S11701918EA0243202520000000000000
B0444503127468S11701932EA0241902509000000000000
B0444543127366S11701950EA0241102508000000000000
B0444583127268S11701967EA0241502509000000000000
B0445023127171S11701980EA0240702500000000000000
B0445063127076S11701995EA0240102494000000000000
B0445103126982S11702006EA0239802490000000000000
B0445143126889S11702015EA0239302485000000000000
B0445183126796S11702019EA0238602480000000000000
B0445223126705S11702025EA0237802469000000000000
B0445263126612S11702035EA0236802455000000000000
B0445303126518S11702045EA0235402444000000000000
B0445343126423S11702056EA0233702427000000000000
B0445383126327S11702066EA0233002419000000000000
B0445423126232S11702077EA0232102410000000000000
B0445463126139S11702084EA0231802411000000000000
B0445503126045S11702093EA0231202399000000000000
B0445543125950S11702103EA0229602383000000000000
B0445583125855S11702113EA0228602373000000000000
B0446023125760S11702127EA0228202381000000000000
B0446063125672S11702143EA0230402400000000000000
B0446103125590S11702157EA0231902417000000000000
B0446143125515S11702178EA0232802424000000000000
B0446183125440S11702203EA0233002424000000000000
B0446223125366S11702230EA0232602418000000000000
B0446263125294S11702262EA0231602412000000000000
B0446303125218S11702294EA0230702402000000000000
B0446343125140S11702324EA0229402389000000000000
B0446383125062S11702355EA0228902388000000000000
B0446423124984S11702385EA0228002366000000000000
B0446463124906S11702415EA0226502359000000000000
B0446503124827S11702443EA0225302344000000000000
B0446543124744S11702463EA0224002328000000000000
B0446583124658S11702483EA0222902325000000000000
B0447023124577S11702512EA0223202326000000000000
B0447063124494S11702539EA0222502312000000000000
B0447103124408S11702568EA0221802311000000000000
B0447143124328S11702598EA0222602327000000000000
B0447183124259S11702630EA0225102353000000000000
B0447223124198S11702667EA0227202371000000000000
B0447263124150S11702721EA0228602385000000000000
B0447303124176S11702795EA0230602413000000000000
B0447343124248S11702795EA0232702431000000000000
B0447383124296S11702733EA0233202431000000000000
B0447423124294S11702651EA0233302436000000015000
B0447463124246S11702606EA0234002445000000015000
B0447503124191S11702625EA0235102456000000030000
B0447543124177S11702694EA0236002462000000015000
B0447583124224S11702755EA0236002461000000015000
B0448023124304S11702747EA0236402473000000015000
B0448063124365S11702688EA0237402479000000015000
B0448103124406S11702608EA0237802485000000015000
B0448143124386S11702530EA0238902495000000015000
B0448183124325S11702524EA0239202496000000015000
B0448223124277S11702572EA0239702504000000015000
B0448263124294S11702645EA0240502514000000015000
B0448303124368S11702656EA0241102518000000015000
B0448343124424S11702587EA0241002517000000015000
B0448383124433S11702500EA0242202537000000015000
B0448423124397S11702444EA0243802547000000030000
B0448463124339S11702438EA0243402539000000015000
B0448503124274S11702448EA0242602532000000015000
B0448543124208S11702470EA0242502535000000015000
B0448583124144S11702502EA0243002537000000000000
B0449023124079S11702533EA0241902516000000000000
B0449063124001S11702554EA0239602492000000000000
B0449103123917S11702563EA0237402471000000000000
B0449143123828S11702565EA0236002461000000000000
B0449183123741S11702564EA0234802447000000000000
B0449223123656S11702560EA0234102442000000000000
B0449263123571S11702555EA0233502434000000000000
B0449303123485S11702550EA0232502422000000000000
B0449343123401S11702545EA0231702417000000000000
B0449383123318S11702543EA0231302411000000000000
B0449423123236S11702555EA0231102411000000000000
B0449463123158S11702576EA0230102396000000000000
B0449503123076S11702594EA0228902384000000000000
B0449543122991S11702604EA0227102366000000000000
B0449583122904S11702610EA0225802354000000000000
B0450023122818S11702611EA0225302349000000000000
B0450063122734S11702608EA0224602342000000000000
B0450103122648S11702603EA0224102336000000000000
B0450143122562S11702593EA0223302327000000000000
B0450183122476S11702581EA0222502318000000000000
B0450223122389S11702568EA0221402305000000000000
B0450263122302S11702554EA0220602299000000000000
B0450303122214S11702539EA0219302286000000000000
B0450343122125S11702526EA0218402270000000000000
B0450383122036S11702516EA0217102260000000000000
B0450423121946S11702511EA0215802241000000000000
B0450463121854S11702504EA0214002223000000000000
B0450503121761S11702502EA0212502214000000000000
B0450543121672S11702500EA0212602214000000000000
B0450583121583S11702499EA0213002222000000000000
B0451023121505S11702516EA0214902246000000000000
B0451063121436S11702542EA0216802263000000000000
B0451103121377S11702582EA0217902274000000000000
B0451143121322S11702632EA0218902290000000000000
B0451183121277S11702682EA0220902313000000000000
B0451223121290S11702751EA0222502323000000000000
B0451263121355S11702767EA0223302333000000000000
B0451303121416S11702730EA0224102338000000015000
B0451343121452S11702663EA0224002334000000015000
B0451383121456S11702582EA0224202342000000015000
B0451423121429S11702513EA0225402353000000015000
B0451463121369S11702480EA0226002362000000015000
B0451503121336S11702529EA0227702382000000015000
B0451543121388S11702573EA0229002393000000015000
B0451583121451S11702541EA0230502412000000015000
B0452023121461S11702469EA0232402430000000015000
B0452063121417S11702429EA0233302442000000015000
B0452103121373S11702461EA0234502458000000030000
B0452143121387S11702526EA0236202470000000015000
B0452183121449S11702552EA0237002481000000015000
B0452223121507S11702515EA0238902506000000015000
B0452263121520S11702444EA0240702519000000015000
B0452303121483S11702389EA0241602527000000015000
B0452343121429S11702391EA0242902544000000030000
B0452383121412S11702451EA0244602560000000015000
B0452423121455S11702507EA0245402567000000015000
B0452463121525S11702499EA0246602583000000015000
B0452503121548S11702429EA0248402601000000015000
B0452543121507S11702374EA0249302612000000015000
B0452583121456S11702395EA0250802631000000030000
B0453023121459S11702461EA0251902638000000015000
B0453063121518S11702496EA0252802652000000015000
B0453103121579S11702465EA0254502668000000015000
B0453143121581S11702387EA0255602675000000015000
B0453183121524S11702363EA0256202683000000015000
B0453223121494S11702418EA0257602697000000015000
B0453263121531S11702480EA0258302703000000015000
B0453303121604S11702482EA0259302716000000015000
B0453343121642S11702417EA0261202736000000015000
B0453383121602S11702366EA0263102754000000030000
B0453423121559S11702404EA0263702759000000030000
B0453463121591S11702467EA0264502764000000030000
B0453503121652S11702448EA0266102789000000015000
B0453543121663S11702379EA0267302801000000015000
B0453583121620S11702335EA0268302806000000015000
B0454023121568S11702353EA0268902815000000030000
B0454063121555S11702417EA0269202813000000015000
B0454103121603S11702469EA0268802806000000015000
B0454143121676S11702444EA0269002820000000015000
B0454183121724S11702389EA0271102839000000015000
B0454223121716S11702316EA0272402847000000015000
B0454263121661S11702288EA0272602848000000015000
B0454303121595S11702282EA0271702835000000015000
B0454343121520S11702285EA0271602841000000015000
B0454383121444S11702290EA0272202849000000000000
B0454423121368S11702300EA0271902836000000000000
B0454463121284S11702309EA0270302818000000000000
B0454503121197S11702316EA0268602801000000000000
B0454543121108S11702324EA0266602777000000000000
B0454583121014S11702327EA0264302756000000000000
B0455023120919S11702330EA0262702741000000000000
B0455063120824S11702333EA0261502729000000000000
B0455103120731S11702337EA0260402722000000000000
B0455143120638S11702339EA0260002717000000000000
B0455183120549S11702343EA0259702715000000000000
B0455223120460S11702348EA0259702717000000000000
B0455263120373S11702353EA0259402709000000000000
B0455303120283S11702359EA0258102694000000000000
B0455343120192S11702364EA0256902682000000000000
B0455383120101S11702366EA0256202679000000000000
B0455423120012S11702369EA0256102677000000000000
B0455463119921S11702370EA0255802674000000000000
B0455503119830S11702373EA0255902675000000000000
B0455543119740S11702368EA0255302665000000000000
B0455583119649S11702365EA0255002663000000000000
B0456023119557S11702363EA0253602645000000000000
B0456063119463S11702361EA0251702625000000000000
B0456103119369S11702357EA0250302612000000000000
B0456143119276S11702353EA0249302602000000000000
B0456183119181S11702347EA0248102591000000000000
B0456223119087S11702339EA0247302583000000000000
B0456263118991S11702333EA0246402568000000000000
B0456303118894S11702326EA0245202560000000000000
B0456343118796S11702320EA0244302546000000000000
B0456383118696S11702314EA0243902553000000000000
B0456423118599S11702311EA0243802542000000000000
B0456463118501S11702308EA0242402527000000000000
B0456503118402S11702304EA0241502521000000000000
B0456543118305S11702303EA0241102516000000000000
B0456583118207S11702300EA0239902504000000000000
B0457023118110S11702296EA0239302498000000000000
B0457063118015S11702291EA0239202497000000000000
B0457103117921S11702287EA0239302502000000000000
B0457143117829S11702285EA0238802488000000000000
B0457183117735S11702283EA0237902484000000000000
B0457223117642S11702281EA0237402479000000000000
B0457263117547S11702279EA0236202464000000000000
B0457303117449S11702274EA0234802451000000000000
B0457343117349S11702268EA0234002438000000000000
B0457383117249S11702260EA0232902428000000000000
B0457423117149S11702251EA0231902418000000000000
B0457463117049S11702240EA0231002410000000000000
B0457503116950S11702227EA0230302403000000000000
B0457543116853S11702214EA0229702395000000000000
B0457583116756S11702203EA0228802385000000000000
B0458023116659S11702190EA0227802377000000000000
B0458063116563S11702175EA0227002367000000000000
B0458103116467S11702160EA0226202357000000000000
B0458143116370S11702144EA0225002344000000000000
B0458183116273S11702127EA0223702330000000000000
B0458223116175S11702113EA0222702320000000000000
B0458263116077S11702099EA0221802311000000000000
B0458303115978S11702083EA0220802298000000000000
B0458343115876S11702067EA0219302282000000000000
B0458383115775S11702053EA0218102269000000000000
B0458423115675S11702040EA0217002257000000000000
B0458463115573S11702028EA0215602243000000000000
B0458503115473S11702017EA0214502231000000000000
B0458543115375S11702002EA0213202216000000000000
B0458583115274S11701988EA0211602197000000000000
B0459023115174S11701971EA0210302186000000000000
B0459063115077S11701953EA0209602180000000000000
B0459103114981S11701936EA0209002173000000000000
B0459143114886S11701919EA0208102161000000000000
B0459183114790S11701904EA0207102153000000000000
B0459223114697S11701888EA0207402157000000000000
B0459263114606S11701878EA0207602162000000000000
B0459303114520S11701869EA0207902165000000000000
B0459343114437S11701863EA0207902164000000000000
B0459383114355S11701856EA0207102145000000000000
B0459423114270S11701848EA0204802127000000000000
B0459463114180S11701841EA0203102108000000000000
B0459503114090S11701833EA0202002101000000000000
B0459543114002S11701827EA0200902088000000000000
B0459583113912S11701822EA0199802078000000000000
B0500023113822S11701817EA0198902067000000000000
B0500063113735S11701810EA0198102060000000000000
B0500103113648S11701806EA0197602053000000000000
B0500143113561S11701801EA0197002047000000000000
B0500183113475S11701798EA0196202037000000000000
B0500223113391S11701796EA0195302032000000000000
B0500263113306S11701792EA0195002029000000000000
B0500303113224S11701791EA0194502023000000000000
B0500343113142S11701791EA0193802014000000000000
B0500383113061S11701791EA0192902005000000000000
B0500423112976S11701789EA0191801993000000000000
B0500463112889S11701788EA0190901984000000000000
B0500503112803S11701789EA0189601967000000000000
B0500543112717S11701794EA0188401957000000000000
B0500583112632S11701801EA0187501948000000000000
B0501023112548S11701807EA0187201945000000000000
B0501063112466S11701810EA0187001940000000000000
B0501103112387S11701809EA0186301934000000000000
B0501143112309S11701806EA0185301923000000000000
B0501183112230S11701806EA0184401912000000000000
B0501223112149S11701806EA0183101897000000000000
B0501263112066S11701804EA0181501881000000000000
B0501303111980S11701797EA0180201869000000000000
B0501343111894S11701791EA0179301860000000000000
B0501383111809S11701785EA0178301850000000000000
B0501423111724S11701783EA0177601842000000000000
B0501463111642S11701780EA0176801832000000000000
B0501503111560S11701783EA0176001823000000000000
B0501543111478S11701789EA0175001818000000000000
B0501583111400S11701798EA0175301822000000000000
B0502023111328S11701807EA0175501823000000000000
B0502063111257S11701817EA0175801827000000000000
B0502103111192S11701822EA0176601837000000000000
B0502143111133S11701827EA0177201839000000000000
B0502183111078S11701858EA0177101837000000000000
B0502223111052S11701930EA0177301844000000000000
B0502263111064S11702008EA0178501858000000000000
B0502303111129S11702044EA0179801869000000000000
B0502343111200S11702001EA0180401874000000015000
B0502383111241S11701927EA0180501873000000015000
B0502423111242S11701845EA0180001866000000015000
B0502463111200S11701787EA0179501864000000015000
B0502503111140S11701774EA0179501868000000015000
B0502543111083S11701793EA0179901872000000015000
B0502583111030S11701822EA0180501879000000015000
B0503023110979S11701852EA0180501871000000000000
B0503063110926S11701887EA0180201870000000000000
B0503103110870S11701922EA0180101868000000000000
B0503143110813S11701963EA0180101868000000000000
B0503183110756S11702005EA0180401874000000000000
B0503223110700S11702045EA0180701878000000000000
B0503263110646S11702091EA0180901878000000000000
B0503303110605S11702148EA0182001895000000000000
B0503343110637S11702213EA0184401921000000000000
B0503383110704S11702187EA0185801930000000000000
B0503423110702S11702112EA0186501937000000015000
B0503463110654S11702079EA0187201948000000015000
B0503503110607S11702105EA0188201955000000015000
B0503543110600S11702168EA0189101967000000015000
B0503583110641S11702222EA0190901985000000015000
B0504023110711S11702218EA0192101999000000015000
B0504063110754S11702156EA0193402013000000015000
B0504103110747S11702087EA0194402023000000015000
B0504143110702S11702054EA0195002025000000015000
B0504183110650S11702062EA0195002023000000015000
B0504223110606S11702113EA0194802027000000015000
B0504263110562S11702168EA0196302048000000015000
B0504303110558S11702238EA0197902057000000015000
B0504343110622S11702268EA0197902052000000015000
B0504383110671S11702208EA0197802057000000015000
B0504423110683S11702126EA0198302064000000015000
B0504463110652S11702052EA0199002078000000015000
B0504503110594S11702036EA0201002105000000015000
B0504543110571S11702090EA0203302120000000015000
B0504583110609S11702143EA0203602112000000015000
B0505023110676S11702135EA0203002114000000015000
B0505063110710S11702069EA0203702123000000015000
B0505103110689S11701999EA0204802137000000015000
B0505143110632S11701979EA0206002150000000015000
B0505183110591S11702026EA0207102157000000015000
B0505223110605S11702097EA0206902152000000015000
B0505263110669S11702132EA0206902157000000015000
B0505303110736S11702117EA0207302159000000015000
B0505343110797S11702075EA0208002166000000015000
B0505383110818S11701997EA0208602177000000015000
B0505423110774S11701947EA0210202196000000015000
B0505463110740S11702000EA0211702209000000015000
B0505503110792S11702040EA0212702218000000015000
B0505543110831S11701982EA0213502226000000015000
B0505583110788S11701923EA0214402239000000015000
B0506023110730S11701947EA0216002255000000015000
B0506063110726S11702014EA0217602270000000015000
B0506103110776S11702056EA0218202271000000015000
B0506143110840S11702038EA0218302270000000015000
B0506183110879S11701966EA0218202269000000015000
B0506223110877S11701884EA0219202283000000000000
B0506263110817S11701878EA0220902304000000015000
B0506303110814S11701941EA0222602320000000015000
B0506343110871S11701963EA0223302323000000015000
B0506383110910S11701902EA0223802331000000015000
B0506423110882S11701832EA0224802343000000000000
B0506463110821S11701818EA0225402355000000000000
B0506503110778S11701863EA0226602366000000015000
B0506543110773S11701930EA0227302372000000000000
B0506583110796S11701999EA0226602353000000000000
B0507023110831S11702078EA0224502329000000000000
B0507063110874S11702164EA0222402307000000000000
B0507103110929S11702252EA0220202285000000000000
B0507143110987S11702340EA0219402283000000000000
B0507183111048S11702425EA0218802274000000000000
B0507223111111S11702509EA0218102269000000000000
B0507263111174S11702590EA0218102269000000000000
B0507303111237S11702667EA0217202258000000000000
B0507343111300S11702741EA0216902257000000000000
B0507383111363S11702810EA0217402268000000000000
B0507423111425S11702877EA0218502276000000000000
B0507463111490S11702941EA0219202285000000000000
B0507503111550S11703007EA0219902289000000000000
B0507543111608S11703079EA0219202283000000000000
B0507583111663S11703144EA0220202300000000000000
B0508023111719S11703206EA0220302287000000000000
B0508063111779S11703274EA0218902270000000000000
B0508103111841S11703349EA0217602259000000000000
B0508143111904S11703427EA0216602246000000000000
B0508183111966S11703510EA0215202229000000000000
B0508223112028S11703594EA0213802218000000000000
B0508263112091S11703677EA0213102210000000000000
B0508303112153S11703760EA0212302205000000000000
B0508343112213S11703842EA0211802199000000000000
B0508383112271S11703925EA0211102189000000000000
B0508423112330S11704010EA0210102178000000000000
B0508463112388S11704092EA0210102183000000000000
B0508503112433S11704175EA0210702185000000000000
B0508543112463S11704266EA0209602166000000000000
B0508583112505S11704354EA0207502147000000000000
B0509023112557S11704441EA0205902132000000000000
B0509063112611S11704527EA0204702120000000000000
B0509103112668S11704613EA0203302104000000000000
B0509143112726S11704699EA0202002093000000000000
B0509183112786S11704784EA0201102080000000000000
B0509223112847S11704872EA0199902070000000000000
B0509263112911S11704957EA0199202061000000000000
B0509303112972S11705044EA0198002048000000000000
B0509343113036S11705132EA0196302028000000000000
B0509383113100S11705216EA0195002020000000000000
B0509423113161S11705299EA0194802019000000000000
B0509463113219S11705382EA0194202010000000000000
B0509503113269S11705467EA0194202012000000000000
B0509543113296S11705555EA0194502018000000000000
B0509583113302S11705635EA0195302027000000000000
B0510023113298S11705706EA0195502021000000000000
B0510063113306S11705782EA0194002004000000000000
B0510103113322S11705862EA0192501987000000000000
B0510143113334S11705947EA0190701963000000000000
B0510183113373S11706034EA0188101946000000000000
B0510223113423S11706114EA0188501960000000000000
B0510263113449S11706191EA0191301999000000000000
B0510303113438S11706252EA0194302022000000000000
B0510343113425S11706311EA0195402026000000000000
B0510383113471S11706357EA0195902031000000000000
B0510423113547S11706338EA0195602023000000000000
B0510463113596S11706261EA0195102028000000000000
B0510503113618S11706173EA0196902054000000000000
B0510543113579S11706130EA0199602081000000000000
B0510583113549S11706165EA0201402098000000015000
B0511023113582S11706218EA0202902113000000015000
B0511063113651S11706211EA0204602131000000015000
B0511103113685S11706140EA0206402150000000015000
B0511143113659S11706081EA0207602165000000015000
B0511183113609S11706082EA0209102174000000015000
B0511223113591S11706134EA0210502184000000015000
B0511263113630S11706186EA0212002197000000015000
B0511303113701S11706181EA0212802208000000015000
B0511343113742S11706110EA0214302231000000015000
B0511383113718S11706049EA0215902244000000015000
B0511423113668S11706045EA0217202255000000015000
B0511463113639S11706095EA0218902267000000015000
B0511503113662S11706162EA0219302266000000015000
B0511543113730S11706194EA0219102273000000015000
B0511583113798S11706160EA0219902288000000015000
B0512023113839S11706091EA0221402307000000015000
B0512063113835S11706018EA0223202319000000015000
B0512103113794S11705977EA0224302337000000000000
B0512143113743S11705974EA0225802346000000000000
B0512183113722S11706026EA0227302359000000015000
B0512223113769S11706079EA0228102364000000015000
B0512263113847S11706062EA0227902369000000015000
B0512303113877S11705983EA0229402397000000015000
B0512343113842S11705932EA0231802419000000015000
B0512383113795S11705944EA0233202426000000015000
B0512423113783S11706005EA0234002433000000015000
B0512463113818S11706069EA0234502437000000015000
B0512503113889S11706101EA0234302435000000015000
B0512543113969S11706108EA0234402439000000015000
B0512583114039S11706068EA0235702461000000015000
B0513023114025S11706000EA0237702482000000015000
B0513063113980S11706025EA0239602499000000015000
B0513103114000S11706092EA0240902515000000015000
B0513143114068S11706112EA0242202527000000015000
B0513183114117S11706057EA0243302545000000015000
B0513223114108S11705991EA0244602560000000015000
B0513263114059S11705977EA0246002571000000015000
B0513303114029S11706025EA0247302580000000015000
B0513343114045S11706094EA0248002583000000015000
B0513383114114S11706130EA0248102585000000015000
B0513423114186S11706100EA0249102606000000015000
B0513463114229S11706038EA0250802617000000015000
B0513503114210S11705970EA0251602629000000000000
B0513543114156S11705966EA0253102644000000015000
B0513583114140S11706029EA0254302656000000015000
B0514023114177S11706094EA0255002663000000015000
B0514063114249S11706095EA0255502673000000015000
B0514103114293S11706032EA0256502682000000015000
B0514143114283S11705960EA0257302691000000000000
B0514183114232S11705925EA0257802693000000000000
B0514223114171S11705945EA0257902693000000000000
B0514263114137S11706017EA0258202704000000015000
B0514303114145S11706100EA0259002705000000000000
B0514343114176S11706187EA0258202694000000000000
B0514383114214S11706277EA0257202685000000000000
B0514423114254S11706372EA0256102674000000000000
B0514463114293S11706468EA0255302665000000000000
B0514503114332S11706568EA0254402654000000000000
B0514543114371S11706669EA0253202645000000000000
B0514583114402S11706773EA0253002642000000000000
B0515023114429S11706879EA0251302615000000000000
B0515063114461S11706992EA0249002596000000000000
B0515103114494S11707104EA0247802584000000000000
B0515143114530S11707214EA0247502585000000000000
B0515183114565S11707319EA0247802589000000000000
B0515223114600S11707423EA0247702587000000000000
B0515263114635S11707526EA0247602585000000000000
B0515303114670S11707630EA0247102576000000000000
B0515343114706S11707733EA0246202567000000000000
B0515383114744S11707836EA0245702564000000000000
B0515423114783S11707936EA0245402558000000000000
B0515463114823S11708036EA0244602550000000000000
B0515503114864S11708135EA0244002547000000000000
B0515543114905S11708229EA0244102551000000000000
B0515583114949S11708322EA0244502554000000000000
B0516023114994S11708414EA0244702552000000000000
B0516063115034S11708509EA0243902541000000000000
B0516103115073S11708605EA0243402538000000000000
B0516143115112S11708700EA0243002535000000000000
B0516183115148S11708795EA0242802532000000000000
B0516223115185S11708890EA0241802519000000000000
B0516263115224S11708987EA0240902513000000000000
B0516303115263S11709089EA0240602510000000000000
B0516343115299S11709189EA0240502515000000000000
B0516383115325S11709285EA0241802532000000000000
B0516423115330S11709376EA0244002559000000000000
B0516463115312S11709455EA0246402579000000000000
B0516503115277S11709519EA0247402580000000000000
B0516543115254S11709593EA0246502568000000000000
B0516583115272S11709678EA0245802564000000000000
B0517023115311S11709757EA0245102559000000000000
B0517063115356S11709834EA0245702568000000000000
B0517103115411S11709905EA0246402576000000000000
B0517143115476S11709968EA0247602589000000000000
B0517183115553S11709999EA0248402591000000000000
B0517223115609S11709944EA0248502593000000000000
B0517263115584S11709877EA0248202580000000000000
B0517303115516S11709893EA0247102579000000000000
B0517343115456S11709944EA0247002582000000000000
B0517383115401S11710004EA0247902592000000000000
B0517423115346S11710059EA0248202597000000000000
B0517463115297S11710114EA0248202585000000000000
B0517503115264S11710191EA0247202579000000000000
B0517543115245S11710277EA0247102579000000000000
B0517583115229S11710367EA0246502569000000000000
B0518023115229S11710465EA0244502546000000000000
B0518063115246S11710568EA0243202537000000000000
B0518103115271S11710670EA0241802519000000000000
B0518143115303S11710772EA0240402501000000000000
B0518183115339S11710878EA0238602485000000000000
B0518223115380S11710983EA0237202474000000000000
B0518263115421S11711088EA0236502468000000000000
B0518303115466S11711191EA0235802460000000000000
B0518343115511S11711292EA0235102453000000000000
B0518383115559S11711394EA0234102440000000000000
B0518423115609S11711495EA0233802446000000000000
B0518463115645S11711591EA0235702466000000000000
B0518503115676S11711682EA0236202465000000000000
B0518543115709S11711775EA0236002468000000000000
B0518583115736S11711867EA0235802458000000000000
B0519023115768S11711960EA0234802447000000000000
B0519063115805S11712053EA0233902441000000000000
B0519103115843S11712146EA0233402432000000000000
B0519143115883S11712240EA0232202423000000000000
B0519183115927S11712336EA0231602418000000000000
B0519223115971S11712428EA0231402414000000000000
B0519263116018S11712523EA0230802403000000000000
B0519303116064S11712620EA0229602395000000000000
B0519343116106S11712714EA0229802398000000000000
B0519383116147S11712812EA0229302391000000000000
B0519423116184S11712912EA0229402394000000000000
B0519463116223S11713011EA0229002386000000000000
B0519503116262S11713115EA0227302367000000000000
B0519543116300S11713225EA0227102371000000000000
B0519583116320S11713336EA0229002395000000000000
B0520023116326S11713441EA0230702417000000000000
B0520063116330S11713539EA0232302432000000000000
B0520103116330S11713634EA0233602438000000000000
B0520143116329S11713730EA0233502434000000000000
B0520183116329S11713826EA0232902420000000000000
B0520223116334S11713931EA0231402411000000000000
B0520263116340S11714039EA0230902407000000000000
B0520303116346S11714148EA0229902388000000000000
B0520343116357S11714259EA0228102374000000000000
B0520383116376S11714368EA0226802358000000000000
B0520423116400S11714472EA0226402360000000000000
B0520463116422S11714572EA0226302355000000000000
B0520503116450S11714672EA0225302342000000000000
B0520543116486S11714772EA0224202333000000000000
B0520583116524S11714872EA0223402328000000000000
B0521023116563S11714969EA0223102325000000000000
B0521063116600S11715066EA0222502317000000000000
B0521103116641S11715164EA0221202302000000000000
B0521143116684S11715266EA0220002285000000000000
B0521183116727S11715372EA0218702272000000000000
B0521223116769S11715477EA0217602260000000000000
B0521263116811S11715585EA0216402248000000000000
B0521303116851S11715694EA0215202237000000000000
B0521343116892S11715802EA0214102224000000000000
B0521383116935S11715911EA0212602205000000000000
B0521423116979S11716022EA0210902185000000000000
B0521463117023S11716133EA0209102169000000000000
B0521503117066S11716245EA0207902155000000000000
B0521543117107S11716354EA0206802147000000000000
B0521583117150S11716461EA0206002140000000000000
B0522023117193S11716566EA0205302128000000000000
B0522063117237S11716674EA0204102116000000000000
B0522103117283S11716781EA0203502111000000000000
B0522143117327S11716886EA0202402098000000000000
B0522183117374S11716994EA0201102085000000000000
B0522223117421S11717103EA0199802069000000000000
B0522263117468S11717211EA0198002047000000000000
B0522303117516S11717316EA0196402034000000000000
B0522343117562S11717420EA0195202019000000000000
B0522383117608S11717526EA0193702004000000000000
B0522423117651S11717631EA0192301990000000000000
B0522463117695S11717735EA0191401985000000000000
B0522503117737S11717836EA0191401986000000000000
B0522543117774S11717938EA0190901974000000000000
B0522583117809S11718038EA0190401978000000000000
B0523023117841S11718129EA0192102003000000000000
B0523063117860S11718211EA0194302024000000000000
B0523103117854S11718284EA0196102041000000000000
B0523143117826S11718340EA0198202067000000000000
B0523183117781S11718355EA0200302087000000000000
B0523223117746S11718310EA0201902103000000000000
B0523263117761S11718242EA0202902113000000000000
B0523303117824S11718208EA0203702117000000000000
B0523343117889S11718232EA0204502127000000000000
B0523383117925S11718288EA0205602143000000000000
B0523423117916S11718342EA0207202157000000000000
B0523463117871S11718358EA0209002173000000000000
B0523503117832S11718319EA0210702196000000000000
B0523543117821S11718251EA0212802207000000015000
B0523583117850S11718180EA0213202213000000015000
B0524023117910S11718133EA0213802223000000000000
B0524063117982S11718139EA0215102238000000000000
B0524103118027S11718190EA0216602253000000000000
B0524143118014S11718238EA0218002268000000000000
B0524183117967S11718234EA0219302284000000000000
B0524223117938S11718177EA0220402294000000015000
B0524263117959S11718104EA0221202309000000015000
B0524303118025S11718073EA0222302319000000000000
B0524343118089S11718102EA0223902339000000000000
B0524383118116S11718160EA0225202347000000015000
B0524423118103S11718215EA0226202358000000000000
B0524463118054S11718225EA0228002373000000015000
B0524503118024S11718167EA0230802398000000015000
B0524543118053S11718098EA0231902408000000015000
B0524583118120S11718073EA0233002424000000015000
B0525023118185S11718096EA0233902432000000015000
B0525063118222S11718151EA0234602445000000015000
B0525103118212S11718210EA0235802460000000000000
B0525143118171S11718239EA0237902475000000015000
B0525183118127S11718198EA0241102513000000015000
B0525223118129S11718122EA0243702537000000015000
B0525263118175S11718064EA0245402551000000015000
B0525303118245S11718039EA0245802557000000015000
B0525343118314S11718064EA0246602571000000015000
B0525383118350S11718122EA0247702584000000015000
B0525423118331S11718174EA0250002620000000015000
B0525463118288S11718169EA0253502652000000015000
B0525503118264S11718106EA0255702671000000015000
B0525543118288S11718025EA0257002688000000015000
B0525583118352S11717981EA0258102698000000000000
B0526023118418S11718003EA0258902703000000000000
B0526063118449S11718069EA0259502717000000000000
B0526103118433S11718132EA0261302741000000015000
B0526143118388S11718150EA0264302772000000015000
B0526183118345S11718115EA0267002799000000015000
B0526223118333S11718044EA0269302824000000015000
B0526263118359S11717970EA0271402844000000000000
B0526303118418S11717924EA0272302849000000000000
B0526343118488S11717918EA0272602852000000000000
B0526383118543S11717965EA0272802857000000000000
B0526423118560S11718033EA0273902872000000000000
B0526463118528S11718081EA0275602886000000000000
B0526503118475S11718076EA0277402911000000015000
B0526543118436S11718026EA0280102940000000000000
B0526583118430S11717948EA0282302960000000015000
B0527023118465S11717877EA0284302980000000000000
B0527063118530S11717848EA0285302985000000000000
B0527103118591S11717873EA0285402984000000000000
B0527143118628S11717934EA0285302985000000000000
B0527183118621S11717999EA0285802997000000000000
B0527223118574S11718016EA0287503018000000015000
B0527263118528S11717979EA0289403038000000015000
B0527303118521S11717904EA0291703066000000015000
B0527343118558S11717844EA0293803081000000015000
B0527383118619S11717829EA0294203076000000000000
B0527423118670S11717866EA0293703073000000000000
B0527463118683S11717930EA0293603072000000015000
B0527503118654S11717983EA0293903081000000015000
B0527543118609S11718022EA0295003096000000000000
B0527583118553S11718017EA0296903119000000000000
B0528023118527S11717957EA0298803134000000000000
B0528063118558S11717883EA0299903149000000000000
B0528103118627S11717856EA0301703170000000000000
B0528143118686S11717891EA0303703189000000000000
B0528183118705S11717956EA0305003198000000000000
B0528223118671S11718009EA0306303214000000015000
B0528263118615S11718004EA0307703226000000015000
B0528303118582S11717946EA0307903224000000015000
B0528343118593S11717866EA0308003231000000015000
B0528383118654S11717821EA0309003244000000000000
B0528423118723S11717830EA0310703263000000000000
B0528463118777S11717879EA0311603267000000015000
B0528503118816S11717951EA0312003268000000000000
B0528543118852S11718034EA0312503277000000000000
B0528583118888S11718121EA0312803276000000000000
B0529023118927S11718211EA0311203254000000000000
B0529063118970S11718302EA0309803243000000000000
B0529103119013S11718397EA0308303227000000000000
B0529143119057S11718498EA0307103211000000000000
B0529183119099S11718602EA0305903200000000000000
B0529223119142S11718707EA0305003191000000000000
B0529263119187S11718813EA0303903180000000000000
B0529303119232S11718918EA0303003173000000000000
B0529343119275S11719022EA0302403165000000000000
B0529383119317S11719125EA0301603156000000000000
B0529423119363S11719224EA0301003150000000000000
B0529463119408S11719318EA0300903150000000000000
B0529503119453S11719409EA0300903148000000000000
B0529543119501S11719497EA0300503144000000000000
B0529583119551S11719581EA0300603145000000000000
B0530023119601S11719671EA0300403143000000000000
B0530063119648S11719763EA0300303144000000000000
B0530103119694S11719854EA0299903139000000000000
B0530143119741S11719944EA0300103143000000000000
B0530183119783S11720028EA0300703147000000000000
B0530223119824S11720114EA0299903126000000000000
B0530263119870S11720206EA0297903107000000000000
B0530303119919S11720304EA0296403094000000000000
B0530343119970S11720401EA0295503088000000000000
B0530383120021S11720499EA0294803078000000000000
B0530423120074S11720596EA0293503065000000000000
B0530463120127S11720695EA0292203054000000000000
B0530503120182S11720793EA0291603050000000000000
B0530543120237S11720890EA0291003043000000000000
B0530583120292S11720988EA0290303031000000000000
B0531023120350S11721086EA0289103019000000000000
B0531063120412S11721184EA0288103010000000000000
B0531103120476S11721280EA0287403004000000000000
B0531143120538S11721375EA0286902999000000000000
B0531183120599S11721473EA0286002988000000000000
B0531223120660S11721570EA0284802975000000000000
B0531263120720S11721666EA0283902967000000000000
B0531303120783S11721760EA0283402960000000000000
B0531343120846S11721853EA0281902941000000000000
B0531383120911S11721950EA0280602928000000000000
B0531423120974S11722048EA0279802924000000000000
B0531463121035S11722146EA0279202915000000000000
B0531503121096S11722246EA0278202904000000000000
B0531543121156S11722345EA0277402896000000000000
B0531583121214S11722441EA0277402899000000000000
B0532023121269S11722529EA0278002909000000000000
B0532063121321S11722613EA0278302909000000000000
B0532103121370S11722692EA0278302903000000000000
B0532143121421S11722775EA0276802878000000000000
B0532183121478S11722866EA0274602857000000000000
B0532223121538S11722961EA0272902843000000000000
B0532263121600S11723057EA0271802830000000000000
B0532303121661S11723155EA0270502818000000000000
B0532343121724S11723251EA0269702810000000000000
B0532383121786S11723346EA0268702803000000000000
B0532423121849S11723441EA0268102795000000000000
B0532463121911S11723537EA0267202782000000000000
B0532503121973S11723634EA0266002771000000000000
B0532543122037S11723731EA0264902761000000000000
B0532583122099S11723828EA0264002751000000000000
B0533023122162S11723926EA0263202745000000000000
B0533063122220S11724026EA0263002745000000000000
B0533103122276S11724122EA0263102745000000000000
B0533143122331S11724217EA0262802739000000000000
B0533183122384S11724312EA0261602724000000000000
B0533223122437S11724411EA0260202710000000000000
B0533263122492S11724511EA0258902694000000000000
B0533303122549S11724612EA0257502686000000000000
B0533343122606S11724713EA0257102681000000000000
B0533383122665S11724817EA0256402671000000000000
B0533423122722S11724923EA0255402662000000000000
B0533463122782S11725029EA0254702654000000000000
B0533503122843S11725135EA0254802666000000000000
B0533543122902S11725233EA0255602665000000000000
B0533583122963S11725336EA0254802652000000000000
B0534023123026S11725441EA0253702642000000000000
B0534063123091S11725548EA0252702634000000000000
B0534103123156S11725656EA0251702618000000000000
B0534143123223S11725765EA0250102603000000000000
B0534183123290S11725874EA0249602608000000000000
B0534223123354S11725978EA0250102615000000000000
B0534263123409S11726077EA0252102649000000000000
B0534303123429S11726167EA0255602686000000000000
B0534343123420S11726238EA0258302706000000000000
B0534383123393S11726289EA0259702717000000000000
B0534423123353S11726324EA0260202719000000000000
B0534463123305S11726358EA0259902714000000000000
B0534503123253S11726396EA0260302726000000000000
B0534543123227S11726458EA0261902741000000000000
B0534583123264S11726520EA0261902732000000000000
B0535023123336S11726522EA0261302729000000000000
B0535063123410S11726511EA0260002705000000000000
B0535103123488S11726549EA0257002673000000000000
B0535143123562S11726613EA0254802657000000000000
B0535183123635S11726686EA0253602646000000000000
B0535223123706S11726761EA0252302633000000000000
B0535263123779S11726838EA0250902617000000000000
B0535303123851S11726917EA0250202613000000000000
B0535343123917S11727000EA0249902608000000000000
B0535383123978S11727087EA0249102598000000000000
B0535423124039S11727177EA0248202589000000000000
B0535463124100S11727267EA0247402579000000000000
B0535503124161S11727356EA0246402571000000000000
B0535543124222S11727446EA0245202555000000000000
B0535583124283S11727538EA0243802542000000000000
B0536023124343S11727631EA0243502540000000000000
B0536063124400S11727718EA0243602541000000000000
B0536103124459S11727802EA0243202534000000000000
B0536143124520S11727885EA0242002522000000000000
B0536183124582S11727969EA0240902510000000000000
B0536223124645S11728052EA0239502495000000000000
B0536263124707S11728134EA0239002492000000000000
B0536303124768S11728212EA0238602488000000000000
B0536343124831S11728290EA0238002481000000000000
B0536383124893S11728368EA0237502474000000000000
B0536423124957S11728443EA0237102472000000000000
B0536463125021S11728519EA0236802468000000000000
B0536503125083S11728595EA0236102459000000000000
B0536543125147S11728673EA0235102447000000000000
B0536583125210S11728754EA0233802433000000000000
B0537023125274S11728834EA0232602423000000000000
B0537063125339S11728915EA0231402409000000000000
B0537103125403S11728994EA0231202414000000000000
B0537143125463S11729071EA0231402411000000000000
B0537183125524S11729145EA0231502415000000000000
B0537223125585S11729215EA0232102424000000000000
B0537263125641S11729284EA0232902429000000000000
B0537303125703S11729345EA0232902429000000000000
B0537343125767S11729401EA0233202430000000000000
B0537383125828S11729457EA0232502423000000000000
B0537423125885S11729517EA0232102416000000000000
B0537463125940S11729581EA0231102403000000000000
B0537503125998S11729646EA0229802388000000000000
B0537543126063S11729711EA0228702381000000000000
B0537583126132S11729770EA0229102394000000000000
B0538023126200S11729825EA0230102400000000000000
B0538063126257S11729886EA0230502403000000000000
B0538103126288S11729958EA0231002409000000000000
B0538143126282S11730025EA0230902402000000000000
B0538183126278S11730101EA0229602382000000000000
B0538223126309S11730183EA0228602385000000000000
B0538263126345S11730259EA0229302400000000000000
B0538303126374S11730335EA0231202420000000000000
B0538343126361S11730400EA0233302440000000000000
B0538383126318S11730398EA0235002461000000000000
B0538423126309S11730329EA0236602475000000000000
B0538463126361S11730270EA0237502481000000000000
B0538503126438S11730264EA0238002489000000000000
B0538543126496S11730310EA0239802509000000000000
B0538583126505S11730370EA0241302522000000015000
B0539023126471S11730401EA0242302529000000015000
B0539063126428S11730375EA0243202539000000015000
B0539103126418S11730303EA0244702559000000000000
B0539143126454S11730236EA0245902571000000000000
B0539183126525S11730206EA0246302572000000000000
B0539223126603S11730212EA0247102585000000000000
B0539263126668S11730249EA0248202596000000000000
B0539303126683S11730310EA0249402609000000000000
B0539343126653S11730341EA0249602604000000000000
B0539383126604S11730345EA0249002597000000000000
B0539423126549S11730349EA0249102604000000000000
B0539463126496S11730362EA0250902625000000000000
B0539503126493S11730424EA0252302634000000000000
B0539543126556S11730461EA0252002627000000000000
B0539583126633S11730433EA0252902646000000000000
B0540023126675S11730368EA0254902661000000015000
B0540063126672S11730293EA0255202660000000015000
B0540103126634S11730246EA0255502670000000000000
B0540143126582S11730244EA0256402684000000000000
B0540183126544S11730274EA0257902693000000000000
B0540223126558S11730339EA0258002690000000000000
B0540263126616S11730400EA0256802675000000000000
B0540303126687S11730461EA0256002675000000000000
B0540343126764S11730519EA0256702689000000000000
B0540383126842S11730553EA0258502704000000000000
B0540423126921S11730548EA0259102708000000000000
B0540463127000S11730544EA0259202707000000000000
B0540503127082S11730550EA0258502696000000000000
B0540543127164S11730586EA0257302685000000000000
B0540583127238S11730643EA0256502678000000000000
B0541023127306S11730709EA0256002669000000000000
B0541063127372S11730781EA0255202662000000000000
B0541103127440S11730856EA0253902644000000000000
B0541143127511S11730933EA0252302632000000000000
B0541183127583S11731012EA0251702628000000000000
B0541223127649S11731089EA0251302625000000000000
B0541263127717S11731165EA0250802619000000000000
B0541303127782S11731243EA0250202613000000000000
B0541343127847S11731321EA0249802607000000000000
B0541383127912S11731399EA0249402603000000000000
B0541423127974S11731480EA0248902597000000000000
B0541463128037S11731559EA0248202591000000000000
B0541503128099S11731644EA0247202576000000000000
B0541543128164S11731731EA0245702560000000000000
B0541583128232S11731823EA0243402535000000000000
B0542023128298S11731917EA0241402514000000000000
B0542063128363S11732009EA0240302509000000000000
B0542103128425S11732100EA0239602493000000000000
B0542143128488S11732191EA0237902476000000000000
B0542183128549S11732283EA0236402461000000000000
B0542223128610S11732376EA0235002442000000000000
B0542263128674S11732468EA0233302430000000000000
B0542303128741S11732559EA0232302420000000000000
B0542343128809S11732650EA0231302409000000000000
B0542383128876S11732740EA0230702403000000000000
B0542423128940S11732828EA0230402402000000000000
B0542463129005S11732915EA0229702391000000000000
B0542503129071S11733004EA0228602380000000000000
B0542543129140S11733091EA0228402380000000000000
B0542583129208S11733176EA0228702385000000000000
B0543023129274S11733260EA0229602393000000000000
B0543063129340S11733340EA0230802408000000000000
B0543103129399S11733418EA0232302436000000000000
B0543143129460S11733482EA0235802470000000000000
B0543183129537S11733478EA0238802498000000000000
B0543223129577S11733408EA0240802514000000000000
B0543263129558S11733336EA0242702536000000000000
B0543303129506S11733322EA0244602556000000000000
B0543343129481S11733370EA0246702581000000000000
B0543383129511S11733429EA0248502599000000015000
B0543423129578S11733438EA0249902614000000015000
B0543463129632S11733383EA0251002622000000015000
B0543503129632S11733305EA0252302639000000015000
B0543543129591S11733261EA0253602656000000015000
B0543583129547S11733274EA0255002664000000000000
B0544023129537S11733332EA0255902673000000015000
B0544063129580S11733386EA0257502693000000015000
B0544103129650S11733361EA0259002704000000015000
B0544143129665S11733284EA0260402721000000015000
B0544183129621S11733251EA0262302747000000015000
B0544223129589S11733284EA0264902767000000015000
B0544263129607S11733345EA0266302777000000015000
B0544303129673S11733370EA0267602794000000015000
B0544343129738S11733335EA0268702804000000015000
B0544383129767S11733262EA0269402814000000015000
B0544423129751S11733192EA0270602830000000015000
B0544463129707S11733157EA0271702838000000000000
B0544503129660S11733171EA0271902839000000000000
B0544543129642S11733230EA0272502848000000000000
B0544583129652S11733296EA0274402867000000000000
B0545023129712S11733323EA0276202887000000015000
B0545063129767S11733277EA0277502896000000015000
B0545103129763S11733202EA0278002906000000015000
B0545143129714S11733171EA0279102923000000015000
B0545183129673S11733202EA0281002945000000015000
B0545223129675S11733264EA0282802956000000015000
B0545263129724S11733308EA0284102973000000015000
B0545303129794S11733293EA0285802988000000015000
B0545343129831S11733228EA0287003001000000015000
B0545383129816S11733162EA0287903010000000015000
B0545423129768S11733136EA0288903025000000015000
B0545463129732S11733165EA0290403042000000015000
B0545503129737S11733223EA0292103052000000015000
B0545543129788S11733261EA0293603065000000015000
B0545583129855S11733235EA0294903077000000015000
B0546023129884S11733165EA0295803086000000015000
B0546063129859S11733100EA0296303094000000015000
B0546103129808S11733075EA0297403109000000015000
B0546143129769S11733109EA0298803126000000015000
B0546183129782S11733171EA0300203138000000015000
B0546223129847S11733191EA0301003149000000015000
B0546263129903S11733137EA0302203158000000015000
B0546303129901S11733057EA0302803166000000015000
