ACAM4N6
HFDTE101222
HFFXA050
HFPLTPILOT:JOHN WELSH              
HFGTYGLIDERTYPE:HORNET      
HFGIDGLIDERID:VH-GMY      
HFDTM100GPSDATUM:
HFRFWFIRMWAREVERSION:F2.6
HFRHWHARDWAREVERSION:300 Series Version 2
HFFTYFRTYPE:CAMBRIDGE AERO INSTRUMENTS, 302+
HFGPS:GARMIN,LVS-25,12,18000
HFPRSPRESSALTSENSOR:INTERSEMA, MS5534-AP, 20000
I033638FXA3941ENL4247REX
LCAMSBVER:5FWVER:F26300
C101222041836101222000102
C0000000N00000000WTAKEOFF     
C3207547S11656819EBeverley Air
C3110882S11723216EWyalkatchem 
C3152967S11809479EBruce Rock  
C3207547S11656819EBeverley Air
C0000000N00000000WLANDING     
B0419543207333S11656864EA0018500198000000000000
B0419563207333S11656864EA0018600198000000000000
B0419583207333S11656864EA0018500198000000000000
B0420003207333S11656864EA0018500198000000000000
B0420023207333S11656864EA0018500198000000000000
B0420043207333S11656864EA0018500198000000000000
B0420063207333S11656864EA0018500198000000000000
B0420083207333S11656864EA0018500198000000000000
B0420103207333S11656864EA0018500198000000000000
B0420123207333S11656864EA0018500198000000000000
B0420143207333S11656864EA0018500198000000000000
B0420163207333S11656864EA0018500198000000000000
B0420183207333S11656864EA0018400198000000000000
B0420203207334S11656865EA0018400198000000000000
B0420223207337S11656866EA0018600198000000000000
B0420253207349S11656875EA0018600197000000000000
B0420293207380S11656895EA0018700197000000000000
B0420333207425S11656925EA0018800197000000000000
B0420373207482S11656960EA0019000197000000000000
B0420413207549S11657000EA0019200199000000000000
B0420453207620S11657042EA0020100210000000000000
B0420493207693S11657088EA0021100217000000000000
B0420533207766S11657131EA0022200231000000000000
B0420573207839S11657174EA0023200243000000000000
B0421013207909S11657217EA0024800264000000000000
B0421053207978S11657256EA0026800286000000000000
B0421093208047S11657294EA0028400297000000000000
B0421133208114S11657338EA0030300323000000000000
B0421173208177S11657390EA0032200340000000000000
B0421213208225S11657456EA0034400363000000000000
B0421253208249S11657534EA0036500383000000000000
B0421293208251S11657615EA0037800402000000000000
B0421333208227S11657693EA0039700418000000000000
B0421373208177S11657754EA0040900428000000000000
B0421413208112S11657794EA0042400443000000000000
B0421453208038S11657810EA0043500457000000000000
B0421493207965S11657803EA0045300477000000000000
B0421533207892S11657789EA0046700490000000000000
B0421573207818S11657770EA0048100504000000000000
B0422013207741S11657753EA0049300513000000000000
B0422053207664S11657727EA0049900519000000000000
B0422093207603S11657664EA0050400522000000000000
B0422133207576S11657580EA0051000534000000000000
B0422173207576S11657493EA0052100546000000000000
B0422213207594S11657413EA0053500564000000000000
B0422253207632S11657346EA0055200579000000000000
B0422293207683S11657291EA0056400593000000000000
B0422333207746S11657251EA0058200615000000000000
B0422373207814S11657225EA0061600654000000000000
B0422413207882S11657203EA0064800682000000000000
B0422453207954S11657194EA0066800701000000000000
B0422493208025S11657224EA0068900727000000000000
B0422533208071S11657285EA0071300745000000000000
B0422573208096S11657361EA0073200764000000000000
B0423013208095S11657442EA0074900780000000000000
B0423053208067S11657519EA0075900791000000000000
B0423093208017S11657576EA0077100798000000000000
B0423133207989S11657645EA0076800790000000000000
B0423173208019S11657703EA0076500791000000000000
B0423213208079S11657709EA0076200783000000000000
B0423253208130S11657657EA0075300780000000000000
B0423293208156S11657579EA0075600781000000000000
B0423333208109S11657524EA0075800783000000000000
B0423373208058S11657560EA0075500783000000000000
B0423413208064S11657621EA0075700783000000000000
B0423453208113S11657647EA0075600786000000000000
B0423493208170S11657645EA0076000790000000000000
B0423533208227S11657624EA0077000801000000000000
B0423573208227S11657554EA0078100813000000000000
B0424013208168S11657537EA0079200824000000000000
B0424053208126S11657581EA0080000827000000000000
B0424093208129S11657647EA0080100830000000000000
B0424133208177S11657685EA0080600836000000000000
B0424173208234S11657660EA0081800851000000000000
B0424213208246S11657588EA0083400867000000000000
B0424253208190S11657559EA0084600873000000000000
B0424293208174S11657620EA0085400889000000000000
B0424333208223S11657636EA0087300910000000000000
B0424373208255S11657579EA0088600921000000000000
B0424413208218S11657520EA0089700934000000000000
B0424453208156S11657524EA0090800943000000000000
B0424493208131S11657582EA0091700955000000000000
B0424533208169S11657628EA0093000965000000000000
B0424573208221S11657601EA0094400984000000000000
B0425013208217S11657529EA0095900996000000000000
B0425053208158S11657511EA0096901004000000000000
B0425093208126S11657562EA0098101018000000000000
B0425133208158S11657603EA0099501032000000000000
B0425173208207S11657572EA0100701047000000000000
B0425213208203S11657503EA0102201058000000000000
B0425253208148S11657476EA0102701063000000000000
B0425293208104S11657516EA0103701074000000000000
B0425333208119S11657571EA0104701083000000000000
B0425373208171S11657563EA0106201100000000000000
B0425413208175S11657499EA0107801116000000000000
B0425453208125S11657472EA0108501121000000000000
B0425493208083S11657516EA0108601123000000000000
B0425533208096S11657576EA0109501136000000000000
B0425573208145S11657586EA0110501140000000000000
B0426013208179S11657533EA0111201154000000000000
B0426053208144S11657484EA0112701166000000000000
B0426093208093S11657512EA0113201172000000000000
B0426133208101S11657573EA0114101180000000000000
B0426173208155S11657582EA0114601184000000000000
B0426213208190S11657525EA0115301192000000000000
B0426253208166S11657465EA0116001199000000000000
B0426293208110S11657469EA0115601189000000000000
B0426333208078S11657534EA0116001198000000000000
B0426373208090S11657598EA0117001210000000000000
B0426413208147S11657603EA0117601211000000000000
B0426453208170S11657538EA0118101223000000000000
B0426493208118S11657506EA0119401230000000000000
B0426533208075S11657563EA0119601236000000000000
B0426573208100S11657631EA0120701250000000000000
B0427013208160S11657644EA0121601257000000000000
B0427053208201S11657593EA0122801271000000000000
B0427093208179S11657534EA0124201282000000000000
B0427133208121S11657540EA0124201276000000000000
B0427173208087S11657611EA0123801276000000000000
B0427213208099S11657693EA0124301285000000000000
B0427253208153S11657727EA0125501295000000000000
B0427293208200S11657685EA0126001299000000000000
B0427333208190S11657620EA0126901311000000000000
B0427373208130S11657610EA0127201310000000000000
B0427413208095S11657671EA0127501316000000000000
B0427453208126S11657735EA0127801313000000000000
B0427493208191S11657737EA0127301310000000000000
B0427533208242S11657683EA0127001309000000000000
B0427573208286S11657614EA0126801308000000000000
B0428013208335S11657546EA0126401300000000000000
B0428053208390S11657481EA0125801298000000000000
B0428093208446S11657419EA0126801312000000000000
B0428133208498S11657358EA0128301334000000000000
B0428173208528S11657285EA0130101343000000000000
B0428213208487S11657216EA0130601346000000000000
B0428253208413S11657220EA0131201363000000000000
B0428293208372S11657286EA0134001397000000000000
B0428333208416S11657328EA0137301427000000000000
B0428373208457S11657282EA0139501441000000015000
B0428413208430S11657220EA0140401449000000015000
B0428453208372S11657242EA0142101473000000015000
B0428493208386S11657307EA0144401498000000015000
B0428533208443S11657311EA0146801518000000015000
B0428573208476S11657257EA0147801524000000015000
B0429013208450S11657191EA0148201529000000015000
B0429053208381S11657169EA0148701533000000015000
B0429093208303S11657165EA0149801545000000015000
B0429133208220S11657153EA0149901543000000015000
B0429173208132S11657137EA0149801542000000015000
B0429213208044S11657121EA0150101549000000015000
B0429253207958S11657111EA0150401548000000000000
B0429293207872S11657105EA0149801538000000000000
B0429333207789S11657090EA0148701526000000000000
B0429373207710S11657060EA0147901522000000000000
B0429413207628S11657036EA0147401517000000000000
B0429453207550S11657007EA0147301516000000000000
B0429493207489S11656955EA0147601522000000000000
B0429533207443S11656896EA0148401531000000000000
B0429573207414S11656834EA0149001537000000000000
B0430013207398S11656770EA0149201535000000000000
B0430053207391S11656701EA0148701528000000000000
B0430093207382S11656630EA0148201524000000000000
B0430133207330S11656584EA0148101523000000000000
B0430173207256S11656584EA0147201510000000000000
B0430213207178S11656615EA0146001497000000000000
B0430253207100S11656657EA0145101491000000000000
B0430293207021S11656700EA0144801487000000000000
B0430333206939S11656744EA0143601470000000000000
B0430373206849S11656789EA0141901451000000000000
B0430413206757S11656832EA0140801447000000000000
B0430453206663S11656871EA0140501439000000000000
B0430493206565S11656909EA0139401429000000000000
B0430533206462S11656942EA0137901414000000000000
B0430573206361S11656975EA0137301407000000000000
B0431013206260S11657007EA0136601403000000000000
B0431053206166S11657036EA0136501406000000000000
B0431093206077S11657062EA0138101436000000000000
B0431133206007S11657083EA0141801468000000000000
B0431173205937S11657105EA0142701461000000000000
B0431213205861S11657126EA0142201457000000000000
B0431253205783S11657147EA0141401447000000000000
B0431293205700S11657164EA0139901433000000000000
B0431333205612S11657179EA0139601435000000000000
B0431373205527S11657194EA0141201457000000000000
B0431413205445S11657205EA0142201461000000000000
B0431453205361S11657216EA0142701470000000000000
B0431493205275S11657221EA0143801480000000000000
B0431533205192S11657228EA0144001481000000000000
B0431573205113S11657237EA0144401483000000000000
B0432013205027S11657247EA0143301468000000000000
B0432053204934S11657263EA0143001476000000000000
B0432093204845S11657280EA0145001503000000000000
B0432133204794S11657339EA0148401538000000000000
B0432173204836S11657387EA0150801554000000000000
B0432213204881S11657345EA0151801566000000015000
B0432253204867S11657272EA0152801576000000015000
B0432293204803S11657248EA0154101590000000015000
B0432333204760S11657304EA0155601604000000015000
B0432373204788S11657364EA0156901619000000015000
B0432413204846S11657364EA0157701624000000015000
B0432453204868S11657296EA0158401633000000015000
B0432493204827S11657238EA0159501646000000015000
B0432533204763S11657246EA0161001659000000015000
B0432573204736S11657312EA0161701662000000015000
B0433013204764S11657374EA0163201682000000015000
B0433053204816S11657394EA0163901689000000015000
B0433093204867S11657367EA0164601695000000015000
B0433133204881S11657299EA0165001698000000015000
B0433173204846S11657237EA0165601708000000015000
B0433213204785S11657216EA0167001721000000015000
B0433253204716S11657222EA0167401716000000015000
B0433293204635S11657244EA0165901696000000015000
B0433333204546S11657273EA0163901678000000015000
B0433373204451S11657302EA0162701668000000015000
B0433413204356S11657332EA0162001662000000000000
B0433453204257S11657360EA0160601645000000000000
B0433493204157S11657389EA0159901638000000000000
B0433533204056S11657413EA0158801626000000000000
B0433573203954S11657438EA0157401608000000000000
B0434013203853S11657463EA0155701594000000000000
B0434053203754S11657489EA0154601580000000000000
B0434093203654S11657520EA0153301572000000000000
B0434133203554S11657553EA0152701565000000000000
B0434173203454S11657584EA0152101562000000000000
B0434213203355S11657614EA0152001565000000000000
B0434253203261S11657641EA0152501566000000000000
B0434293203170S11657673EA0151801552000000000000
B0434333203075S11657709EA0150001532000000000000
B0434373202978S11657744EA0148601527000000000000
B0434413202882S11657783EA0148001516000000000000
B0434453202784S11657819EA0147201511000000000000
B0434493202689S11657849EA0147101510000000000000
B0434533202597S11657878EA0146401503000000000000
B0434573202501S11657910EA0144501476000000000000
B0435013202402S11657941EA0143901479000000000000
B0435053202315S11657967EA0146901524000000000000
B0435093202234S11657987EA0149801549000000000000
B0435133202155S11658004EA0151001562000000000000
B0435173202076S11658013EA0152801585000000000000
B0435213202003S11658032EA0155101601000000000000
B0435253201972S11658100EA0156501613000000000000
B0435293202007S11658143EA0157701627000000000000
B0435333202042S11658102EA0159201648000000015000
B0435373202008S11658047EA0161001660000000015000
B0435413201947S11658054EA0161801664000000015000
B0435453201913S11658122EA0161801661000000015000
B0435493201934S11658182EA0163001684000000015000
B0435533201974S11658151EA0164701701000000015000
B0435573201957S11658083EA0166501716000000030000
B0436013201892S11658061EA0167401719000000015000
B0436053201840S11658113EA0167701724000000015000
B0436093201853S11658180EA0168301733000000015000
B0436133201904S11658180EA0169601752000000015000
B0436173201907S11658113EA0172101780000000030000
B0436213201852S11658074EA0173701778000000030000
B0436253201786S11658110EA0173201774000000015000
B0436293201752S11658183EA0173801788000000015000
B0436333201765S11658248EA0175301800000000015000
B0436373201824S11658245EA0175801805000000015000
B0436413201877S11658196EA0177001824000000015000
B0436453201894S11658123EA0179901860000000015000
B0436493201834S11658093EA0182601878000000015000
B0436533201792S11658149EA0183701885000000015000
B0436573201824S11658206EA0184101890000000015000
B0437013201873S11658175EA0185501909000000015000
B0437053201857S11658100EA0187101924000000030000
B0437093201787S11658076EA0188501933000000015000
B0437133201710S11658099EA0187701913000000015000
B0437173201618S11658122EA0185401893000000015000
B0437213201514S11658145EA0184401888000000015000
B0437253201409S11658173EA0184501887000000015000
B0437293201304S11658197EA0183801877000000015000
B0437333201198S11658219EA0182401863000000015000
B0437373201092S11658238EA0181101850000000000000
B0437413200985S11658257EA0179501832000000000000
B0437453200881S11658277EA0178901835000000000000
B0437493200780S11658294EA0179201835000000000000
B0437533200681S11658310EA0178401824000000000000
B0437573200579S11658330EA0177601822000000000000
B0438013200482S11658353EA0177601823000000000000
B0438053200384S11658377EA0177301811000000000000
B0438093200286S11658401EA0176201804000000000000
B0438133200191S11658426EA0175701800000000000000
B0438173200100S11658459EA0175101793000000000000
B0438213200005S11658494EA0174001779000000000000
B0438253159911S11658530EA0174801806000000000000
B0438293159827S11658567EA0176701812000000000000
B0438333159741S11658603EA0176601809000000000000
B0438373159653S11658639EA0176401810000000000000
B0438413159560S11658672EA0176101805000000000000
B0438453159464S11658702EA0176101805000000000000
B0438493159367S11658733EA0175701797000000000000
B0438533159269S11658764EA0175201795000000000000
B0438573159172S11658794EA0174401779000000000000
B0439013159071S11658821EA0172501762000000000000
B0439053158970S11658849EA0171101745000000000000
B0439093158869S11658879EA0169601738000000000000
B0439133158770S11658908EA0169301734000000000000
B0439173158674S11658938EA0168501726000000000000
B0439213158577S11658970EA0167401712000000000000
B0439253158477S11658999EA0165901696000000000000
B0439293158376S11659028EA0164801688000000000000
B0439333158277S11659051EA0164101678000000000000
B0439373158180S11659072EA0163601676000000000000
B0439413158083S11659093EA0163201672000000000000
B0439453157987S11659113EA0162201659000000000000
B0439493157891S11659135EA0162201669000000000000
B0439533157800S11659155EA0163001676000000000000
B0439573157712S11659179EA0163101674000000000000
B0440013157623S11659206EA0163101676000000000000
B0440053157535S11659236EA0163201679000000000000
B0440093157446S11659267EA0163301677000000000000
B0440133157357S11659298EA0162901670000000000000
B0440173157263S11659322EA0162101659000000000000
B0440213157166S11659341EA0160801648000000000000
B0440253157066S11659358EA0159701638000000000000
B0440293156962S11659375EA0158801630000000000000
B0440333156859S11659393EA0158401627000000000000
B0440373156756S11659412EA0159401643000000000000
B0440413156659S11659428EA0160601649000000000000
B0440453156562S11659447EA0160501637000000000000
B0440493156462S11659465EA0158701618000000000000
B0440533156356S11659480EA0156401589000000000000
B0440573156248S11659497EA0154201574000000000000
B0441013156141S11659513EA0153501572000000000000
B0441053156037S11659531EA0152801562000000000000
B0441093155935S11659552EA0151701548000000000000
B0441133155829S11659571EA0150201534000000000000
B0441173155725S11659588EA0148901521000000000000
B0441213155624S11659603EA0148501528000000000000
B0441253155526S11659614EA0148501521000000000000
B0441293155428S11659623EA0147801513000000000000
B0441333155325S11659633EA0146201490000000000000
B0441373155217S11659646EA0144801485000000000000
B0441413155110S11659659EA0143601468000000000000
B0441453155005S11659672EA0142001450000000000000
B0441493154901S11659686EA0140401436000000000000
B0441533154797S11659700EA0138801419000000000000
B0441573154694S11659720EA0138001417000000000000
B0442013154593S11659740EA0137701411000000000000
B0442053154493S11659760EA0136701400000000000000
B0442093154390S11659781EA0135601393000000000000
B0442133154289S11659800EA0136701419000000000000
B0442173154195S11659815EA0139201441000000000000
B0442213154104S11659831EA0140001428000000000000
B0442253154007S11659851EA0138201415000000000000
B0442293153907S11659873EA0137801416000000000000
B0442333153812S11659893EA0137901418000000000000
B0442373153719S11659911EA0137801417000000000000
B0442413153627S11659926EA0137201408000000000000
B0442453153535S11659942EA0136301396000000000000
B0442493153442S11659967EA0135201387000000000000
B0442533153350S11659995EA0134001372000000000000
B0442573153257S11700023EA0132901360000000000000
B0443013153164S11700051EA0132301362000000000000
B0443053153076S11700080EA0132801366000000000000
B0443093152991S11700107EA0133201369000000000000
B0443133152902S11700130EA0132101349000000000000
B0443173152805S11700150EA0131101347000000000000
B0443213152717S11700171EA0131901365000000000000
B0443253152638S11700189EA0133401368000000000000
B0443293152558S11700219EA0132601358000000000000
B0443333152475S11700250EA0131401346000000000000
B0443373152391S11700280EA0130501336000000000000
B0443413152305S11700314EA0129201324000000000000
B0443453152214S11700345EA0127701307000000000000
B0443493152118S11700374EA0126301293000000000000
B0443533152023S11700402EA0125101280000000000000
B0443573151924S11700429EA0123201256000000000000
B0444013151823S11700437EA0121701249000000000000
B0444053151729S11700415EA0121201248000000000000
B0444093151642S11700381EA0120401237000000000000
B0444133151563S11700336EA0119601231000000000000
B0444173151489S11700283EA0119001224000000000000
B0444213151414S11700224EA0118001208000000000000
B0444253151340S11700159EA0116001190000000000000
B0444293151265S11700089EA0114701176000000000000
B0444333151191S11700015EA0113901173000000000000
B0444373151121S11659938EA0113801170000000000000
B0444413151050S11659865EA0113201162000000000000
B0444453150969S11659811EA0112301152000000000000
B0444493150875S11659790EA0111201138000000000000
B0444533150783S11659782EA0111901161000000000000
B0444573150696S11659778EA0113101164000000000000
B0445013150614S11659798EA0113401168000000000000
B0445053150538S11659841EA0113901174000000000000
B0445093150491S11659915EA0113901172000000000000
B0445133150507S11659998EA0113901175000000000000
B0445173150567S11700038EA0114701183000000000000
B0445213150632S11700042EA0115301189000000000000
B0445253150668S11659977EA0115501184000000015000
B0445293150663S11659889EA0114801178000000015000
B0445333150636S11659800EA0114201173000000015000
B0445373150579S11659727EA0114101172000000015000
B0445413150498S11659682EA0113701165000000015000
B0445453150407S11659659EA0113501169000000000000
B0445493150317S11659644EA0113401162000000000000
B0445533150225S11659633EA0112701155000000000000
B0445573150131S11659627EA0111601146000000000000
B0446013150036S11659629EA0110701133000000000000
B0446053149939S11659638EA0108801112000000000000
B0446093149840S11659655EA0106901097000000000000
B0446133149740S11659668EA0105901088000000000000
B0446173149643S11659677EA0105601084000000000000
B0446213149545S11659683EA0105301082000000000000
B0446253149449S11659687EA0104701072000000000000
B0446293149353S11659685EA0103101053000000000000
B0446333149253S11659679EA0101401037000000000000
B0446373149154S11659669EA0100001024000000000000
B0446413149052S11659652EA0099001016000000000000
B0446453148954S11659631EA0097600999000000000000
B0446493148852S11659610EA0097000999000000000000
B0446533148756S11659583EA0098001016000000000000
B0446573148669S11659551EA0099301027000000000000
B0447013148586S11659525EA0100001028000000000000
B0447053148500S11659509EA0099101016000000000000
B0447093148413S11659492EA0097600996000000000000
B0447133148323S11659486EA0095900982000000000000
B0447173148233S11659487EA0094900973000000000000
B0447213148146S11659506EA0094100965000000000000
B0447253148062S11659535EA0092500948000000000000
B0447293147976S11659552EA0091600939000000000000
B0447333147888S11659553EA0090600926000000000000
B0447373147799S11659536EA0090100929000000000000
B0447413147717S11659514EA0091700948000000000000
B0447453147668S11659573EA0094200976000000000000
B0447493147716S11659618EA0096100996000000000000
B0447533147758S11659578EA0097901016000000015000
B0447573147733S11659517EA0099401025000000015000
B0448013147665S11659513EA0099701025000000015000
B0448053147631S11659581EA0101201053000000015000
B0448093147676S11659610EA0104201080000000015000
B0448133147695S11659560EA0105401085000000015000
B0448173147646S11659525EA0106301098000000015000
B0448213147594S11659566EA0107601114000000015000
B0448253147602S11659639EA0109901138000000015000
B0448293147655S11659656EA0111501158000000015000
B0448333147680S11659607EA0113201173000000030000
B0448373147646S11659556EA0114701190000000015000
B0448413147586S11659569EA0116301202000000015000
B0448453147561S11659642EA0117801224000000015000
B0448493147598S11659690EA0120501251000000015000
B0448533147642S11659673EA0122301264000000015000
B0448573147647S11659618EA0123601269000000015000
B0449013147602S11659575EA0124301276000000015000
B0449053147537S11659588EA0125401289000000015000
B0449093147514S11659662EA0127401316000000015000
B0449133147559S11659703EA0129901340000000015000
B0449173147596S11659668EA0131301350000000030000
B0449213147574S11659610EA0132401363000000030000
B0449253147508S11659604EA0132901371000000015000
B0449293147466S11659669EA0134901401000000015000
B0449333147501S11659725EA0137801427000000015000
B0449373147551S11659708EA0139801439000000015000
B0449413147560S11659647EA0140401450000000030000
B0449453147511S11659610EA0141801463000000015000
B0449493147451S11659640EA0143201483000000015000
B0449533147433S11659713EA0145801507000000015000
B0449573147472S11659760EA0147801526000000015000
B0450013147516S11659733EA0148901532000000015000
B0450053147514S11659672EA0150101542000000015000
B0450093147461S11659640EA0151101554000000015000
B0450133147403S11659679EA0152601572000000015000
B0450173147392S11659756EA0154601603000000015000
B0450213147433S11659804EA0157201621000000015000
B0450253147481S11659789EA0158601630000000015000
B0450293147483S11659730EA0159501642000000015000
B0450333147429S11659707EA0160501650000000015000
B0450373147369S11659746EA0161501664000000015000
B0450413147383S11659820EA0163801688000000015000
B0450453147435S11659822EA0165201699000000015000
B0450493147453S11659764EA0165901704000000030000
B0450533147410S11659714EA0166801715000000015000
B0450573147344S11659729EA0168501734000000015000
B0451013147322S11659803EA0170401753000000015000
B0451053147361S11659855EA0172301770000000015000
B0451093147413S11659844EA0173101778000000015000
B0451133147427S11659782EA0173301777000000030000
B0451173147379S11659730EA0173701790000000030000
B0451213147308S11659742EA0175401807000000015000
B0451253147271S11659813EA0177101823000000015000
B0451293147299S11659883EA0178901841000000015000
B0451333147360S11659899EA0180101849000000015000
B0451373147401S11659850EA0180601852000000015000
B0451413147388S11659776EA0181001856000000030000
B0451453147322S11659747EA0182001878000000015000
B0451493147262S11659787EA0183901889000000015000
B0451533147248S11659869EA0184601897000000015000
B0451573147287S11659935EA0186001911000000015000
B0452013147349S11659941EA0186801914000000015000
B0452053147382S11659882EA0186801908000000030000
B0452093147344S11659817EA0186701913000000030000
B0452133147271S11659813EA0188201932000000015000
B0452173147204S11659851EA0189101939000000015000
B0452213147140S11659902EA0189701943000000015000
B0452253147074S11659964EA0189501943000000015000
B0452293147007S11700033EA0190201946000000015000
B0452333146936S11700106EA0189701939000000015000
B0452373146858S11700182EA0188401921000000015000
B0452413146775S11700262EA0186601904000000000000
B0452453146689S11700338EA0185201892000000000000
B0452493146603S11700409EA0185001897000000000000
B0452533146520S11700475EA0185001894000000000000
B0452573146437S11700541EA0184501886000000000000
B0453013146355S11700606EA0184001880000000000000
B0453053146274S11700675EA0183201874000000000000
B0453093146192S11700741EA0182901872000000000000
B0453133146112S11700803EA0182201863000000000000
B0453173146031S11700866EA0181201855000000000000
B0453213145953S11700930EA0181001856000000000000
B0453253145879S11700994EA0180601848000000000000
B0453293145804S11701060EA0179201833000000000000
B0453333145724S11701125EA0178301818000000000000
B0453373145639S11701191EA0176801806000000000000
B0453413145553S11701259EA0176201809000000000000
B0453453145468S11701324EA0177701831000000000000
B0453493145388S11701386EA0179701838000000000000
B0453533145306S11701455EA0177901810000000000000
B0453573145217S11701531EA0176001798000000000000
B0454013145129S11701605EA0175601796000000000000
B0454053145041S11701679EA0175101790000000000000
B0454093144955S11701754EA0174701785000000000000
B0454133144872S11701831EA0174201782000000000000
B0454173144791S11701908EA0173801776000000000000
B0454213144712S11701984EA0173101768000000000000
B0454253144634S11702062EA0171901757000000000000
B0454293144556S11702140EA0171101747000000000000
B0454333144476S11702214EA0170101739000000000000
B0454373144396S11702286EA0169301731000000000000
B0454413144314S11702356EA0168001719000000000000
B0454453144232S11702422EA0167501712000000000000
B0454493144149S11702491EA0166301697000000000000
B0454533144067S11702565EA0164601679000000000000
B0454573143984S11702642EA0162601661000000000000
B0455013143903S11702719EA0162001659000000000000
B0455053143825S11702795EA0162001661000000000000
B0455093143750S11702871EA0162301664000000000000
B0455133143682S11702948EA0162701670000000000000
B0455173143616S11703023EA0162601666000000000000
B0455213143547S11703101EA0162201659000000000000
B0455253143478S11703178EA0161901661000000000000
B0455293143408S11703252EA0162001666000000000000
B0455333143344S11703321EA0163701685000000000000
B0455373143286S11703387EA0166401715000000000000
B0455413143278S11703462EA0168801734000000000000
B0455453143332S11703473EA0170601752000000000000
B0455493143354S11703410EA0172001769000000015000
B0455533143317S11703352EA0173201781000000015000
B0455573143252S11703348EA0174701795000000015000
B0456013143232S11703414EA0176601820000000015000
B0456053143279S11703439EA0178601837000000015000
B0456093143317S11703391EA0179601849000000015000
B0456133143297S11703326EA0181001862000000015000
B0456173143236S11703318EA0181801874000000015000
B0456213143211S11703378EA0183101888000000000000
B0456253143257S11703410EA0184701906000000015000
B0456293143297S11703366EA0186001916000000015000
B0456333143275S11703301EA0186701922000000015000
B0456373143211S11703282EA0187801936000000000000
B0456413143158S11703318EA0189201947000000000000
B0456453143153S11703386EA0190601963000000000000
B0456493143200S11703422EA0191901972000000015000
B0456533143244S11703373EA0193001986000000015000
B0456573143206S11703318EA0194802003000000015000
B0457013143145S11703348EA0195102000000000015000
B0457053143104S11703421EA0195002002000000000000
B0457093143063S11703504EA0194902001000000000000
B0457133143023S11703595EA0194501990000000000000
B0457173142977S11703692EA0193701986000000000000
B0457213142927S11703789EA0193601984000000000000
B0457253142871S11703889EA0192301967000000000000
B0457293142812S11703989EA0191101962000000000000
B0457333142753S11704088EA0190901956000000000000
B0457373142690S11704188EA0189801944000000000000
B0457413142628S11704289EA0188201928000000000000
B0457453142567S11704391EA0187501925000000000000
B0457493142515S11704487EA0187901938000000000000
B0457533142473S11704575EA0188701937000000000000
B0457573142425S11704664EA0187101912000000000000
B0458013142369S11704756EA0185201899000000000000
B0458053142314S11704846EA0185401911000000000000
B0458093142268S11704927EA0187301936000000000000
B0458133142223S11704998EA0189301951000000000000
B0458173142173S11705067EA0188801936000000000000
B0458213142116S11705147EA0186701913000000000000
B0458253142056S11705234EA0185901911000000000000
B0458293141995S11705321EA0187101929000000000000
B0458333141935S11705403EA0188201942000000000000
B0458373141876S11705476EA0189501945000000000000
B0458413141818S11705553EA0188401927000000000000
B0458453141759S11705636EA0186901919000000000000
B0458493141703S11705722EA0186001905000000000000
B0458533141644S11705810EA0184301893000000000000
B0458573141588S11705896EA0184201891000000000000
B0459013141531S11705980EA0183201883000000000000
B0459053141472S11706064EA0182701877000000000000
B0459093141411S11706146EA0181901863000000000000
B0459133141347S11706230EA0181301865000000000000
B0459173141284S11706312EA0181501860000000000000
B0459213141221S11706396EA0181401863000000000000
B0459253141170S11706485EA0183101892000000000000
B0459293141126S11706567EA0186101922000000000000
B0459333141090S11706649EA0187401929000000000000
B0459373141055S11706736EA0187401925000000000000
B0459413141018S11706827EA0186901920000000000000
B0459453140983S11706918EA0186101909000000000000
B0459493140947S11707009EA0185001892000000000000
B0459533140903S11707102EA0182901872000000000000
B0459573140853S11707193EA0181201854000000000000
B0500013140799S11707282EA0179201834000000000000
B0500053140743S11707370EA0177701822000000000000
B0500093140686S11707452EA0177901829000000000000
B0500133140622S11707524EA0177501821000000000000
B0500173140561S11707596EA0177101821000000000000
B0500213140504S11707674EA0176801818000000000000
B0500253140446S11707755EA0176601816000000000000
B0500293140389S11707841EA0176501814000000000000
B0500333140331S11707927EA0176901822000000000000
B0500373140281S11708005EA0177601828000000000000
B0500413140233S11708080EA0177501826000000000000
B0500453140184S11708154EA0177001816000000000000
B0500493140123S11708227EA0176001805000000000000
B0500533140055S11708296EA0175501802000000000000
B0500573139989S11708365EA0174701793000000000000
B0501013139924S11708441EA0173501780000000000000
B0501053139859S11708518EA0173201779000000000000
B0501093139795S11708599EA0172501770000000000000
B0501133139734S11708681EA0172301774000000000000
B0501173139674S11708761EA0173001783000000000000
B0501213139614S11708846EA0172601766000000000000
B0501253139551S11708933EA0171501762000000000000
B0501293139486S11709017EA0170601750000000000000
B0501333139419S11709103EA0170301752000000000000
B0501373139354S11709188EA0170701762000000000000
B0501413139292S11709269EA0171301764000000000000
B0501453139232S11709353EA0172301781000000000000
B0501493139176S11709431EA0174301803000000000000
B0501533139122S11709509EA0175901815000000000000
B0501573139063S11709588EA0176201806000000000000
B0502013139003S11709675EA0174901792000000000000
B0502053138942S11709766EA0173901786000000000000
B0502093138881S11709856EA0173401780000000000000
B0502133138817S11709947EA0172501764000000000000
B0502173138747S11710036EA0171101752000000000000
B0502213138676S11710122EA0170101744000000000000
B0502253138607S11710208EA0169301738000000000000
B0502293138535S11710293EA0168301728000000000000
B0502333138468S11710378EA0167801722000000000000
B0502373138399S11710462EA0166801711000000000000
B0502413138327S11710545EA0165301694000000000000
B0502453138256S11710632EA0164101685000000000000
B0502493138187S11710715EA0163701682000000000000
B0502533138117S11710794EA0163201674000000000000
B0502573138044S11710872EA0162301664000000000000
B0503013137974S11710950EA0161401656000000000000
B0503053137906S11711026EA0161001653000000000000
B0503093137842S11711106EA0160501650000000000000
B0503133137781S11711190EA0159501636000000000000
B0503173137718S11711273EA0158301625000000000000
B0503213137649S11711349EA0157801622000000000000
B0503253137580S11711424EA0157001610000000000000
B0503293137512S11711500EA0155201590000000000000
B0503333137447S11711583EA0153401573000000000000
B0503373137382S11711667EA0152101562000000000000
B0503413137316S11711746EA0150901545000000000000
B0503453137247S11711828EA0148801523000000000000
B0503493137173S11711907EA0147201511000000000000
B0503533137099S11711984EA0146101498000000000000
B0503573137023S11712062EA0144601483000000000000
B0504013136949S11712140EA0143401472000000000000
B0504053136878S11712220EA0142101459000000000000
B0504093136808S11712302EA0141301454000000000000
B0504133136740S11712386EA0140701445000000000000
B0504173136676S11712475EA0139401430000000000000
B0504213136606S11712564EA0138001414000000000000
B0504253136532S11712648EA0137001413000000000000
B0504293136459S11712727EA0137601420000000000000
B0504333136386S11712802EA0138601434000000000000
B0504373136318S11712869EA0140101445000000000000
B0504413136251S11712941EA0140301449000000000000
B0504453136189S11713013EA0140001437000000000000
B0504493136123S11713089EA0138301416000000000000
B0504533136047S11713164EA0136801403000000000000
B0504573135967S11713232EA0136601407000000000000
B0505013135887S11713294EA0136001392000000000000
B0505053135804S11713354EA0134301375000000000000
B0505093135723S11713416EA0132901364000000000000
B0505133135640S11713478EA0132001354000000000000
B0505173135558S11713537EA0131001340000000000000
B0505213135474S11713596EA0129901335000000000000
B0505253135395S11713652EA0129401327000000000000
B0505293135313S11713704EA0128101311000000000000
B0505333135228S11713752EA0126501296000000000000
B0505373135142S11713797EA0125501290000000000000
B0505413135060S11713843EA0126101307000000000000
B0505453134989S11713888EA0128201327000000000000
B0505493134921S11713931EA0129701340000000000000
B0505533134876S11713996EA0130901356000000000000
B0505573134890S11714064EA0133001381000000000000
B0506013134930S11714035EA0135201399000000000000
B0506053134906S11713969EA0136901420000000000000
B0506093134838S11713966EA0139101438000000000000
B0506133134813S11714037EA0140501452000000000000
B0506173134860S11714064EA0142201473000000000000
B0506213134888S11714004EA0144101490000000000000
B0506253134843S11713944EA0146401517000000000000
B0506293134774S11713953EA0148701534000000000000
B0506333134741S11714022EA0149501538000000000000
B0506373134778S11714076EA0150801561000000000000
B0506413134826S11714057EA0153601588000000000000
B0506453134833S11713991EA0155101600000000000000
B0506493134772S11713951EA0157201626000000000000
B0506533134708S11713979EA0159301641000000000000
B0506573134691S11714051EA0159901646000000000000
B0507013134738S11714083EA0161201669000000000000
B0507053134771S11714029EA0163201685000000000000
B0507093134739S11713961EA0164701704000000000000
B0507133134674S11713952EA0166301716000000000000
B0507173134631S11714013EA0167101716000000000000
B0507213134654S11714086EA0167601728000000000000
B0507253134704S11714120EA0169701754000000000000
B0507293134743S11714072EA0171501768000000000000
B0507333134708S11714011EA0173601794000000000000
B0507373134646S11714030EA0175701811000000000000
B0507413134644S11714100EA0176601814000000000000
B0507453134693S11714134EA0178101839000000000000
B0507493134730S11714098EA0180801867000000000000
B0507533134719S11714035EA0183201887000000000000
B0507573134659S11714009EA0184701902000000000000
B0508013134608S11714059EA0185701913000000000000
B0508053134624S11714125EA0186901928000000000000
B0508093134674S11714139EA0189001954000000000000
B0508133134704S11714091EA0191401977000000000000
B0508173134685S11714026EA0193501997000000000000
B0508213134625S11713999EA0195502012000000000000
B0508253134570S11714037EA0196702018000000000000
B0508293134570S11714112EA0197202026000000000000
B0508333134620S11714139EA0199102050000000000000
B0508373134655S11714096EA0201302072000000000000
B0508413134633S11714035EA0202902090000000000000
B0508453134568S11714022EA0204102097000000000000
B0508493134496S11714051EA0204002082000000000000
B0508533134410S11714091EA0201302044000000000000
B0508573134310S11714143EA0198802032000000000000
B0509013134209S11714198EA0198702033000000000000
B0509053134108S11714251EA0199202047000000000000
B0509093134010S11714302EA0200602052000000000000
B0509133133911S11714351EA0199502030000000000000
B0509173133807S11714401EA0197102010000000000000
B0509213133705S11714447EA0196502004000000000000
B0509253133603S11714493EA0196401997000000000000
B0509293133502S11714537EA0195401987000000000000
B0509333133399S11714583EA0194001971000000000000
B0509373133292S11714627EA0192301955000000000000
B0509413133183S11714671EA0191201944000000000000
B0509453133074S11714710EA0190301937000000000000
B0509493132966S11714749EA0189901934000000000000
B0509533132858S11714789EA0188901921000000000000
B0509573132754S11714831EA0188601932000000000000
B0510013132657S11714869EA0188501928000000000000
B0510053132557S11714906EA0187601921000000000000
B0510093132457S11714943EA0187401920000000000000
B0510133132359S11714975EA0186901911000000000000
B0510173132259S11715009EA0185901902000000000000
B0510213132160S11715045EA0185201895000000000000
B0510253132061S11715083EA0184801892000000000000
B0510293131965S11715127EA0184101887000000000000
B0510333131874S11715178EA0183501880000000000000
B0510373131786S11715230EA0183401882000000000000
B0510413131699S11715283EA0182301864000000000000
B0510453131610S11715344EA0180801844000000000000
B0510493131514S11715398EA0180001852000000000000
B0510533131420S11715441EA0181301868000000000000
B0510573131327S11715476EA0182701883000000000000
B0511013131238S11715509EA0184501898000000000000
B0511053131147S11715543EA0184501891000000000000
B0511093131051S11715576EA0183501877000000000000
B0511133130954S11715610EA0182001865000000000000
B0511173130860S11715643EA0181901864000000000000
B0511213130768S11715675EA0181401859000000000000
B0511253130673S11715703EA0180401848000000000000
B0511293130575S11715729EA0179401833000000000000
B0511333130478S11715754EA0178301827000000000000
B0511373130378S11715772EA0178101827000000000000
B0511413130278S11715784EA0178301829000000000000
B0511453130176S11715794EA0177501818000000000000
B0511493130075S11715811EA0177001813000000000000
B0511533129972S11715829EA0176601812000000000000
B0511573129873S11715840EA0178201833000000000000
B0512013129782S11715846EA0180801859000000000000
B0512053129698S11715853EA0182101871000000000000
B0512093129613S11715862EA0183301885000000000000
B0512133129542S11715902EA0184601893000000000000
B0512173129470S11715942EA0184601886000000000000
B0512213129387S11715967EA0182701861000000000000
B0512253129292S11715977EA0179501834000000000000
B0512293129190S11715979EA0177501816000000000000
B0512333129087S11715977EA0176501804000000000000
B0512373128983S11715974EA0175801798000000000000
B0512413128882S11715971EA0175201790000000000000
B0512453128780S11715968EA0174101778000000000000
B0512493128676S11715970EA0172601760000000000000
B0512533128571S11715972EA0171001747000000000000
B0512573128466S11715974EA0169801738000000000000
B0513013128362S11715971EA0169301731000000000000
B0513053128259S11715971EA0168201721000000000000
B0513093128155S11715972EA0167101711000000000000
B0513133128052S11715972EA0166401705000000000000
B0513173127951S11715963EA0166101701000000000000
B0513213127851S11715953EA0165201686000000000000
B0513253127745S11715940EA0163201665000000000000
B0513293127644S11715920EA0162501666000000000000
B0513333127545S11715897EA0161501647000000000000
B0513373127445S11715873EA0159701632000000000000
B0513413127346S11715846EA0158401617000000000000
B0513453127249S11715818EA0157201613000000000000
B0513493127160S11715792EA0158401635000000000000
B0513533127078S11715769EA0160401650000000000000
B0513573126995S11715755EA0160801651000000000000
B0514013126911S11715753EA0161501660000000000000
B0514053126824S11715749EA0161701658000000000000
B0514093126733S11715750EA0160901644000000000000
B0514133126639S11715768EA0160001644000000000000
B0514173126544S11715786EA0160701655000000000000
B0514213126453S11715799EA0161501662000000000000
B0514253126362S11715808EA0161801662000000000000
B0514293126272S11715823EA0162101670000000000000
B0514333126185S11715838EA0163201682000000000000
B0514373126101S11715850EA0164001685000000000000
B0514413126016S11715864EA0163401670000000000000
B0514453125925S11715886EA0161101641000000000000
B0514493125828S11715920EA0158201617000000000000
B0514533125728S11715961EA0157001607000000000000
B0514573125629S11716003EA0155601586000000000000
B0515013125528S11716046EA0153901571000000000000
B0515053125426S11716087EA0152201554000000000000
B0515093125326S11716124EA0150701539000000000000
B0515133125225S11716159EA0149001523000000000000
B0515173125123S11716192EA0147901513000000000000
B0515213125024S11716221EA0147201510000000000000
B0515253124930S11716250EA0146701501000000000000
B0515293124832S11716283EA0145201482000000000000
B0515333124733S11716318EA0143301465000000000000
B0515373124633S11716353EA0142001452000000000000
B0515413124533S11716387EA0141001444000000000000
B0515453124436S11716421EA0140501441000000000000
B0515493124341S11716455EA0139801433000000000000
B0515533124246S11716491EA0139001424000000000000
B0515573124152S11716531EA0137801409000000000000
B0516013124056S11716574EA0136701401000000000000
B0516053123960S11716616EA0135801390000000000000
B0516093123864S11716655EA0134801382000000000000
B0516133123767S11716690EA0134101374000000000000
B0516173123674S11716724EA0133601371000000000000
B0516213123581S11716757EA0133201366000000000000
B0516253123489S11716790EA0132601362000000000000
B0516293123397S11716821EA0132201355000000000000
B0516333123305S11716854EA0131401346000000000000
B0516373123212S11716886EA0130301332000000000000
B0516413123119S11716919EA0128601315000000000000
B0516453123025S11716952EA0127801311000000000000
B0516493122941S11716994EA0127501306000000000000
B0516533122861S11717049EA0126301293000000000000
B0516573122791S11717118EA0125401287000000000000
B0517013122731S11717197EA0124801280000000000000
B0517053122677S11717280EA0124201277000000000000
B0517093122623S11717357EA0125301293000000000000
B0517133122567S11717420EA0127401317000000000000
B0517173122518S11717479EA0129401339000000000000
B0517213122519S11717549EA0130801348000000000000
B0517253122569S11717565EA0131301350000000000000
B0517293122592S11717511EA0131201349000000000000
B0517333122557S11717457EA0130901346000000000000
B0517373122491S11717454EA0131301356000000000000
B0517413122426S11717475EA0132301364000000000000
B0517453122379S11717531EA0131801345000000000000
B0517493122333S11717609EA0129401324000000000000
B0517533122280S11717695EA0128301319000000000000
B0517573122228S11717782EA0128601325000000000000
B0518013122187S11717868EA0129401334000000000000
B0518053122153S11717953EA0129901338000000000000
B0518093122118S11718038EA0130201343000000000000
B0518133122079S11718122EA0130301343000000000000
B0518173122038S11718206EA0130101339000000000000
B0518213121988S11718289EA0129801337000000000000
B0518253121933S11718367EA0130301344000000000000
B0518293121876S11718438EA0130601346000000000000
B0518333121817S11718509EA0130301340000000000000
B0518373121756S11718576EA0129601334000000000000
B0518413121690S11718642EA0128601321000000000000
B0518453121620S11718706EA0127801313000000000000
B0518493121546S11718767EA0126501293000000000000
B0518533121468S11718827EA0125101289000000000000
B0518573121387S11718879EA0124801282000000000000
B0519013121303S11718927EA0123801270000000000000
B0519053121215S11718973EA0122601259000000000000
B0519093121130S11719019EA0121901255000000000000
B0519133121048S11719068EA0121601250000000000000
B0519173120967S11719118EA0120801241000000000000
B0519213120888S11719174EA0119701227000000000000
B0519253120805S11719224EA0118601218000000000000
B0519293120718S11719266EA0117501204000000000000
B0519333120629S11719307EA0116101192000000000000
B0519373120536S11719342EA0115401185000000000000
B0519413120443S11719370EA0114601178000000000000
B0519453120350S11719399EA0114101172000000000000
B0519493120256S11719421EA0114001173000000000000
B0519533120168S11719446EA0114601186000000000000
B0519573120084S11719476EA0115501193000000000000
B0520013120001S11719504EA0115601192000000000000
B0520053119917S11719533EA0115701194000000000000
B0520093119835S11719563EA0116601203000000000000
B0520133119806S11719634EA0118101220000000000000
B0520173119850S11719672EA0119501231000000000000
B0520213119901S11719636EA0119601227000000000000
B0520253119919S11719560EA0118801221000000000000
B0520293119901S11719480EA0118901225000000000000
B0520333119849S11719417EA0119001223000000000000
B0520373119769S11719396EA0118301214000000000000
B0520413119683S11719402EA0118201222000000000000
B0520453119600S11719420EA0119001227000000000000
B0520493119516S11719447EA0119501236000000000000
B0520533119446S11719494EA0121601260000000000000
B0520573119454S11719555EA0124501288000000000000
B0521013119494S11719545EA0126001300000000000000
B0521053119497S11719484EA0126701303000000000000
B0521093119453S11719429EA0126601302000000000000
B0521133119380S11719416EA0127301311000000000000
B0521173119317S11719445EA0128901332000000000000
B0521213119328S11719506EA0130001338000000000000
B0521253119377S11719491EA0131201355000000000000
B0521293119380S11719422EA0132801371000000000000
B0521333119324S11719385EA0133901384000000000000
B0521373119263S11719408EA0135201395000000000000
B0521413119258S11719476EA0136201409000000000000
B0521453119301S11719500EA0137601420000000000000
B0521493119334S11719454EA0138801436000000000000
B0521533119311S11719387EA0140101446000000000000
B0521573119245S11719380EA0141301457000000000000
B0522013119217S11719439EA0142501470000000000000
B0522053119251S11719484EA0143601478000000000000
B0522093119293S11719447EA0144501493000000000000
B0522133119280S11719378EA0146101507000000000000
B0522173119220S11719341EA0146901514000000000000
B0522213119160S11719372EA0147701524000000000000
B0522253119167S11719432EA0149501549000000000000
B0522293119211S11719437EA0150901556000000000000
B0522333119236S11719378EA0151501565000000000000
B0522373119207S11719311EA0152601575000000000000
B0522413119139S11719289EA0153201576000000000000
B0522453119078S11719333EA0153201575000000000000
B0522493119078S11719406EA0154301594000000000000
B0522533119128S11719420EA0155701607000000000000
B0522573119160S11719368EA0157201627000000000000
B0523013119145S11719299EA0158701635000000000000
B0523053119081S11719264EA0158901634000000000000
B0523093119005S11719289EA0158101623000000000000
B0523133118927S11719333EA0157601622000000000000
B0523173118851S11719385EA0157901626000000000000
B0523213118778S11719441EA0158301630000000000000
B0523253118708S11719499EA0158601631000000000000
B0523293118639S11719563EA0158301626000000000000
B0523333118570S11719632EA0157701618000000000000
B0523373118489S11719694EA0157901625000000000000
B0523413118404S11719747EA0158501632000000000000
B0523453118313S11719793EA0158701631000000000000
B0523493118219S11719835EA0159101639000000000000
B0523533118125S11719875EA0161001659000000000000
B0523573118047S11719926EA0162601673000000000000
B0524013117973S11719984EA0161901647000000000000
B0524053117885S11720041EA0159901639000000000000
B0524093117789S11720093EA0160201645000000000000
B0524133117689S11720139EA0161201662000000000000
B0524173117596S11720183EA0163301675000000000000
B0524213117503S11720231EA0161901645000000000000
B0524253117401S11720280EA0159401626000000000000
B0524293117299S11720325EA0158401621000000000000
B0524333117195S11720362EA0157601610000000000000
B0524373117091S11720400EA0156401601000000000000
B0524413116989S11720436EA0156101602000000000000
B0524453116894S11720472EA0156601611000000000000
B0524493116807S11720504EA0157001607000000000000
B0524533116721S11720539EA0156001596000000000000
B0524573116637S11720582EA0154601581000000000000
B0525013116548S11720628EA0152601557000000000000
B0525053116456S11720670EA0151901565000000000000
B0525093116370S11720708EA0153701585000000000000
B0525133116283S11720742EA0154001582000000000000
B0525173116191S11720777EA0153001567000000000000
B0525213116092S11720807EA0152301558000000000000
B0525253115992S11720834EA0151401550000000000000
B0525293115892S11720856EA0150701543000000000000
B0525333115792S11720878EA0149801531000000000000
B0525373115693S11720903EA0148601522000000000000
B0525413115594S11720925EA0147501508000000000000
B0525453115495S11720950EA0146201496000000000000
B0525493115398S11720976EA0145701495000000000000
B0525533115308S11721001EA0145701491000000000000
B0525573115217S11721024EA0144301467000000000000
B0526013115122S11721051EA0142101446000000000000
B0526053115025S11721079EA0140401433000000000000
B0526093114927S11721110EA0138901417000000000000
B0526133114831S11721144EA0137901412000000000000
B0526173114739S11721177EA0137201404000000000000
B0526213114648S11721213EA0136301395000000000000
B0526253114556S11721244EA0135201383000000000000
B0526293114461S11721267EA0134301371000000000000
B0526333114367S11721281EA0132601355000000000000
B0526373114273S11721289EA0131901352000000000000
B0526413114188S11721289EA0132501363000000000000
B0526453114108S11721285EA0132701359000000000000
B0526493114029S11721279EA0132401360000000000000
B0526533113956S11721265EA0133001368000000000000
B0526573113887S11721280EA0133601373000000000000
B0527013113863S11721349EA0134301379000000000000
B0527053113877S11721427EA0134501381000000000000
B0527093113933S11721460EA0135301394000000000000
B0527133113965S11721397EA0136701408000000000000
B0527173113928S11721331EA0137201407000000000000
B0527213113859S11721324EA0137201408000000000000
B0527253113815S11721384EA0137201409000000000000
B0527293113798S11721470EA0137301409000000000000
B0527333113808S11721553EA0138601427000000000000
B0527373113870S11721567EA0140201441000000000000
B0527413113907S11721506EA0140901445000000000000
B0527453113870S11721436EA0140701440000000000000
B0527493113799S11721393EA0140101434000000000000
B0527533113714S11721363EA0139501431000000000000
B0527573113626S11721339EA0139401432000000000000
B0528013113535S11721323EA0139401431000000000000
B0528053113438S11721311EA0139101428000000000000
B0528093113343S11721300EA0140801459000000000000
B0528133113254S11721289EA0142601462000000000000
B0528173113161S11721279EA0141701448000000000000
B0528213113061S11721271EA0141601457000000000000
B0528253112964S11721263EA0142901469000000000000
B0528293112871S11721257EA0142501454000000000000
B0528333112772S11721252EA0140401435000000000000
B0528373112668S11721248EA0138801414000000000000
B0528413112563S11721246EA0137101403000000000000
B0528453112459S11721248EA0136201395000000000000
B0528493112356S11721253EA0135401387000000000000
B0528533112258S11721271EA0135301385000000000000
B0528573112171S11721307EA0135401390000000000000
B0529013112095S11721356EA0135301388000000000000
B0529053112021S11721405EA0135001381000000000000
B0529093111944S11721453EA0134601380000000000000
B0529133111871S11721506EA0134401377000000000000
B0529173111798S11721565EA0134301375000000000000
B0529213111729S11721634EA0134101373000000000000
B0529253111668S11721712EA0134101375000000000000
B0529293111614S11721795EA0134701388000000000000
B0529333111569S11721870EA0137401417000000000000
B0529373111593S11721929EA0139801439000000000000
B0529413111632S11721895EA0140901445000000000000
B0529453111606S11721827EA0141501453000000000000
B0529493111534S11721826EA0142301464000000000000
B0529533111493S11721889EA0143201473000000000000
B0529573111511S11721955EA0144301486000000000000
B0530013111564S11721964EA0144701482000000000000
B0530053111608S11721911EA0144101483000000000000
B0530093111618S11721835EA0145001496000000000000
B0530133111547S11721826EA0146101506000000000000
B0530173111528S11721896EA0147201521000000000000
B0530213111572S11721934EA0148301527000000000000
B0530253111618S11721892EA0149001537000000000000
B0530293111599S11721821EA0149901545000000000000
B0530333111527S11721808EA0150601553000000000000
B0530373111467S11721860EA0150801552000000000000
B0530413111419S11721935EA0150601553000000000000
B0530453111373S11722016EA0150801549000000000000
B0530493111325S11722103EA0149501529000000000000
B0530533111273S11722197EA0147701515000000000000
B0530573111222S11722292EA0146401504000000000000
B0531013111177S11722388EA0145901498000000000000
B0531053111139S11722485EA0144801484000000000000
B0531093111100S11722585EA0143101470000000000000
B0531133111059S11722682EA0142801471000000000000
B0531173111020S11722775EA0143201474000000000000
B0531213110984S11722871EA0143001472000000000000
B0531253110951S11722968EA0143901492000000000000
B0531293110917S11723057EA0146101512000000000000
B0531333110887S11723143EA0147101518000000000000
B0531373110860S11723229EA0147601522000000000000
B0531413110839S11723312EA0147701520000000000000
B0531453110851S11723393EA0147401515000000000000
B0531493110890S11723455EA0147001516000000000000
B0531533110934S11723517EA0147701523000000000000
B0531573110984S11723566EA0148901545000000000000
B0532013111035S11723547EA0151301565000000000000
B0532053111036S11723469EA0152101562000000000000
B0532093110970S11723423EA0152301570000000000000
B0532133110899S11723451EA0153401583000000000000
B0532173110869S11723521EA0154501597000000000000
B0532213110886S11723589EA0155801605000000000000
B0532253110939S11723608EA0156801617000000000000
B0532293110983S11723559EA0157701621000000000000
B0532333110977S11723476EA0157501619000000000000
B0532373110910S11723425EA0158401632000000000000
B0532413110834S11723438EA0159201637000000000000
B0532453110783S11723508EA0159501641000000000000
B0532493110795S11723592EA0160401656000000000000
B0532533110839S11723654EA0161501663000000000000
B0532573110891S11723712EA0162501673000000000000
B0533013110949S11723768EA0163001674000000000000
B0533053111010S11723823EA0162801670000000000000
B0533093111069S11723880EA0161901659000000000000
B0533133111127S11723943EA0161101651000000000000
B0533173111186S11724006EA0160901653000000000000
B0533213111244S11724073EA0160701649000000000000
B0533253111304S11724141EA0160201639000000000000
B0533293111367S11724214EA0158901626000000000000
B0533333111433S11724288EA0157401611000000000000
B0533373111499S11724366EA0156701604000000000000
B0533413111566S11724446EA0155701595000000000000
B0533453111632S11724525EA0155101591000000000000
B0533493111694S11724603EA0154901590000000000000
B0533533111754S11724681EA0153901576000000000000
B0533573111811S11724765EA0152601558000000000000
B0534013111865S11724853EA0151301550000000000000
B0534053111915S11724940EA0150701543000000000000
B0534093111966S11725028EA0150101540000000000000
B0534133112013S11725111EA0151401566000000000000
B0534173112058S11725188EA0153401577000000000000
B0534213112110S11725253EA0153601578000000000000
B0534253112162S11725311EA0153401573000000000000
B0534293112214S11725373EA0152401560000000000000
B0534333112265S11725443EA0151701560000000000000
B0534373112322S11725492EA0153801587000000000000
B0534413112377S11725486EA0155501605000000000000
B0534453112382S11725421EA0156501606000000000000
B0534493112316S11725387EA0156101599000000000000
B0534533112245S11725431EA0155601601000000000000
B0534573112200S11725508EA0156501614000000000000
B0535013112201S11725590EA0157701623000000000000
B0535053112235S11725662EA0156901602000000000000
B0535093112287S11725737EA0154401576000000000000
B0535133112349S11725811EA0153501576000000000000
B0535173112413S11725878EA0153601575000000000000
B0535213112483S11725938EA0153301571000000000000
B0535253112560S11725986EA0152101558000000000000
B0535293112642S11726025EA0151101549000000000000
B0535333112721S11726064EA0150501545000000000000
B0535373112799S11726101EA0149901534000000000000
B0535413112877S11726137EA0148501519000000000000
B0535453112954S11726173EA0148001519000000000000
B0535493113028S11726206EA0147601512000000000000
B0535533113105S11726238EA0146201496000000000000
B0535573113181S11726273EA0144801482000000000000
B0536013113262S11726305EA0143201467000000000000
B0536053113343S11726328EA0143001475000000000000
B0536093113417S11726348EA0143601475000000000000
B0536133113491S11726368EA0143801485000000000000
B0536173113558S11726394EA0145401500000000000000
B0536213113617S11726424EA0146701513000000000000
B0536253113674S11726445EA0148401529000000000000
B0536293113714S11726410EA0149701543000000000000
B0536333113666S11726358EA0151601568000000000000
B0536373113603S11726393EA0153701588000000000000
B0536413113596S11726461EA0155601601000000000000
B0536453113636S11726485EA0156201602000000000000
B0536493113666S11726439EA0156001603000000000000
B0536533113660S11726363EA0157101620000000000000
B0536573113596S11726333EA0159001644000000000000
B0537013113551S11726388EA0160801659000000000000
B0537053113569S11726449EA0162101671000000000000
B0537093113614S11726448EA0163201679000000000000
B0537133113630S11726389EA0163901686000000000000
B0537173113590S11726328EA0164801697000000000000
B0537213113523S11726342EA0166401717000000000000
B0537253113506S11726406EA0167801731000000000000
B0537293113544S11726436EA0169001738000000000000
B0537333113573S11726390EA0169901750000000000000
B0537373113540S11726327EA0170701754000000000000
B0537413113469S11726316EA0171801769000000000000
B0537453113439S11726379EA0173601785000000000000
B0537493113477S11726410EA0175001802000000000000
B0537533113506S11726368EA0176701818000000000000
B0537573113479S11726303EA0177301822000000000000
B0538013113412S11726288EA0178101837000000000000
B0538053113366S11726340EA0179501846000000000000
B0538093113378S11726402EA0180301857000000000000
B0538133113423S11726407EA0181601870000000000000
B0538173113427S11726345EA0182601875000000000000
B0538213113365S11726312EA0183201885000000000000
B0538253113311S11726353EA0184401899000000000000
B0538293113311S11726414EA0185701910000000000000
B0538333113352S11726433EA0186501918000000000000
B0538373113383S11726394EA0186701915000000000000
B0538413113375S11726324EA0186801923000000000000
B0538453113323S11726277EA0188701940000000000000
B0538493113262S11726297EA0189401945000000000000
B0538533113240S11726361EA0189801950000000000000
B0538573113275S11726406EA0190101947000000000000
B0539013113332S11726432EA0189001929000000000000
B0539053113404S11726465EA0187301917000000000000
B0539093113480S11726498EA0186701913000000000000
B0539133113560S11726533EA0186001900000000000000
B0539173113643S11726569EA0184701889000000000000
B0539213113725S11726600EA0184601894000000000000
B0539253113804S11726624EA0185101898000000000000
B0539293113883S11726644EA0184701893000000000000
B0539333113964S11726662EA0184201887000000000000
B0539373114045S11726679EA0184201896000000000000
B0539413114120S11726696EA0185601907000000000000
B0539453114192S11726721EA0186301910000000000000
B0539493114259S11726748EA0187101915000000000000
B0539533114324S11726778EA0187301919000000000000
B0539573114388S11726818EA0187601917000000000000
B0540013114449S11726866EA0187201913000000000000
B0540053114509S11726925EA0187301917000000000000
B0540093114562S11726986EA0188301921000000000000
B0540133114617S11727053EA0186501894000000000000
B0540173114680S11727125EA0184901885000000000000
B0540213114741S11727196EA0185101886000000000000
B0540253114804S11727268EA0184701882000000000000
B0540293114868S11727338EA0184901889000000000000
B0540333114930S11727407EA0185201892000000000000
B0540373114992S11727475EA0185601896000000000000
B0540413115053S11727545EA0185801895000000000000
B0540453115117S11727614EA0185901900000000000000
B0540493115182S11727683EA0185701891000000000000
B0540533115252S11727754EA0184001869000000000000
B0540573115323S11727830EA0182901860000000000000
B0541013115391S11727902EA0183701878000000000000
B0541053115455S11727970EA0185201890000000000000
B0541093115520S11728038EA0185301892000000000000
B0541133115585S11728101EA0185901890000000000000
B0541173115654S11728168EA0184601872000000000000
B0541213115727S11728239EA0182901859000000000000
B0541253115804S11728311EA0182101857000000000000
B0541293115876S11728383EA0182201871000000000000
B0541333115939S11728452EA0185101907000000000000
B0541373115992S11728519EA0187901933000000000000
B0541413116043S11728581EA0189601944000000000000
B0541453116095S11728639EA0190001944000000000000
B0541493116144S11728704EA0188801929000000000000
B0541533116197S11728775EA0187001909000000000000
B0541573116255S11728847EA0185701895000000000000
B0542013116314S11728920EA0184501880000000000000
B0542053116377S11728989EA0182701863000000000000
B0542093116442S11729055EA0181501855000000000000
B0542133116507S11729117EA0180501843000000000000
B0542173116573S11729179EA0179401833000000000000
B0542213116639S11729239EA0178601824000000000000
B0542253116710S11729300EA0176801798000000000000
B0542293116781S11729366EA0174401776000000000000
B0542333116853S11729431EA0173201770000000000000
B0542373116927S11729491EA0172501758000000000000
B0542413117001S11729553EA0170701740000000000000
B0542453117079S11729614EA0168601718000000000000
B0542493117156S11729677EA0167501712000000000000
B0542533117230S11729735EA0166901706000000000000
B0542573117302S11729798EA0166401701000000000000
B0543013117374S11729858EA0166301700000000000000
B0543053117448S11729915EA0165601694000000000000
B0543093117520S11729971EA0166101701000000000000
B0543133117587S11730030EA0166901710000000000000
B0543173117653S11730093EA0166101689000000000000
B0543213117724S11730153EA0165001689000000000000
B0543253117791S11730211EA0164701680000000000000
B0543293117860S11730274EA0163501663000000000000
B0543333117930S11730336EA0162201657000000000000
B0543373117998S11730400EA0161601650000000000000
B0543413118069S11730458EA0160601636000000000000
B0543453118142S11730519EA0159401624000000000000
B0543493118211S11730587EA0158301617000000000000
B0543533118277S11730656EA0157401606000000000000
B0543573118341S11730722EA0156301595000000000000
B0544013118406S11730783EA0154701576000000000000
B0544053118472S11730849EA0152401548000000000000
B0544093118537S11730925EA0151801558000000000000
B0544133118600S11730986EA0153601580000000000000
B0544173118665S11731020EA0155101591000000000000
B0544213118734S11731016EA0155801597000000000000
B0544253118797S11730982EA0155501590000000000000
B0544293118859S11730944EA0154401578000000000000
B0544333118931S11730935EA0152101552000000000000
B0544373119009S11730964EA0149801529000000000000
B0544413119078S11731018EA0148601515000000000000
B0544453119141S11731089EA0147001499000000000000
B0544493119197S11731168EA0145301480000000000000
B0544533119249S11731252EA0143701466000000000000
B0544573119302S11731336EA0142101449000000000000
B0545013119353S11731421EA0140901439000000000000
B0545053119402S11731507EA0140701441000000000000
B0545093119450S11731592EA0140401434000000000000
B0545133119498S11731676EA0140201437000000000000
B0545173119550S11731750EA0140301429000000000000
B0545213119603S11731828EA0139001419000000000000
B0545253119650S11731913EA0138701420000000000000
B0545293119693S11731997EA0138901424000000000000
B0545333119733S11732083EA0139001425000000000000
B0545373119775S11732162EA0140501447000000000000
B0545413119821S11732225EA0142601464000000000000
B0545453119883S11732237EA0143601471000000000000
B0545493119919S11732182EA0144401482000000000000
B0545533119873S11732134EA0146201504000000000000
B0545573119811S11732161EA0147001508000000000000
B0546013119792S11732234EA0147101508000000000000
B0546053119826S11732295EA0147701514000000000000
B0546093119887S11732299EA0148301521000000000000
B0546133119892S11732233EA0148801525000000000000
B0546173119823S11732209EA0149001524000000000000
B0546213119757S11732257EA0149101530000000000000
B0546253119733S11732337EA0150401547000000000000
B0546293119752S11732417EA0151501553000000000000
B0546333119789S11732493EA0150801531000000000000
B0546373119840S11732577EA0148501510000000000000
B0546413119899S11732666EA0147301499000000000000
B0546453119961S11732746EA0147001503000000000000
B0546493120022S11732825EA0146801495000000000000
B0546533120082S11732906EA0145601483000000000000
B0546573120146S11732985EA0144801479000000000000
B0547013120201S11733062EA0144901480000000000000
B0547053120256S11733135EA0144901481000000000000
B0547093120309S11733204EA0144101469000000000000
B0547133120361S11733277EA0142801456000000000000
B0547173120412S11733352EA0141901448000000000000
B0547213120465S11733423EA0143001464000000000000
B0547253120530S11733438EA0145601494000000000000
B0547293120560S11733379EA0147101503000000000000
B0547333120520S11733322EA0146601486000000000000
B0547373120450S11733340EA0144901481000000000000
B0547413120387S11733384EA0145601499000000000000
B0547453120333S11733434EA0147601518000000000000
B0547493120346S11733488EA0148901527000000000000
B0547533120390S11733464EA0149401533000000000000
B0547573120377S11733392EA0150101543000000000000
B0548013120318S11733351EA0151201555000000000000
B0548053120255S11733364EA0152501562000000000000
B0548093120212S11733409EA0152301555000000000000
B0548133120195S11733473EA0151201545000000000000
B0548173120224S11733535EA0150701543000000000000
B0548213120268S11733587EA0150801547000000000000
B0548253120321S11733642EA0150001523000000000000
B0548293120377S11733715EA0147601503000000000000
B0548333120429S11733797EA0147101506000000000000
B0548373120477S11733877EA0146801501000000000000
B0548413120523S11733958EA0146201494000000000000
B0548453120565S11734040EA0145901495000000000000
B0548493120611S11734118EA0145501486000000000000
B0548533120658S11734200EA0144001472000000000000
B0548573120707S11734283EA0142501456000000000000
B0549013120757S11734367EA0142001454000000000000
B0549053120803S11734449EA0141801452000000000000
B0549093120848S11734534EA0141101441000000000000
B0549133120894S11734621EA0140201431000000000000
B0549173120941S11734707EA0139201423000000000000
B0549213120989S11734792EA0138401415000000000000
B0549253121037S11734876EA0137501407000000000000
B0549293121087S11734955EA0136901401000000000000
B0549333121136S11735033EA0136301392000000000000
B0549373121188S11735111EA0135601379000000000000
B0549413121239S11735189EA0134301370000000000000
B0549453121288S11735268EA0134301375000000000000
B0549493121339S11735345EA0134801380000000000000
B0549533121391S11735418EA0135801394000000000000
B0549573121448S11735471EA0138001419000000000000
B0550013121503S11735448EA0141001450000000000000
B0550053121508S11735386EA0142501459000000000000
B0550093121472S11735329EA0142501457000000000000
B0550133121408S11735327EA0143401473000000000000
B0550173121373S11735384EA0144301476000000000000
B0550213121397S11735449EA0144601485000000000000
B0550253121453S11735455EA0145801497000000000000
B0550293121486S11735402EA0147101511000000000000
B0550333121462S11735342EA0148501521000000015000
B0550373121400S11735324EA0148801525000000015000
B0550413121345S11735366EA0149401531000000015000
B0550453121331S11735441EA0150001537000000015000
B0550493121373S11735485EA0151401554000000015000
B0550533121413S11735444EA0152601563000000015000
B0550573121381S11735384EA0153001569000000015000
B0551013121316S11735394EA0153701575000000015000
B0551053121279S11735459EA0154201581000000015000
B0551093121299S11735531EA0154801590000000015000
B0551133121353S11735563EA0156001601000000000000
B0551173121407S11735522EA0156201599000000000000
B0551213121408S11735445EA0156901610000000000000
B0551253121374S11735377EA0158501629000000000000
B0551293121313S11735372EA0159901641000000000000
B0551333121284S11735436EA0160501641000000000000
B0551373121314S11735506EA0159801633000000000000
B0551413121368S11735570EA0159301625000000000000
B0551453121431S11735633EA0156901592000000000000
B0551493121507S11735702EA0154001566000000000000
B0551533121585S11735773EA0153301567000000000000
B0551573121657S11735839EA0153701572000000000000
B0552013121730S11735905EA0153601568000000000000
B0552053121800S11735968EA0153801578000000000000
B0552093121865S11736023EA0154801582000000000000
B0552133121933S11736081EA0153601566000000000000
B0552173122006S11736142EA0153101567000000000000
B0552213122077S11736202EA0153601570000000000000
B0552253122148S11736264EA0153401567000000000000
B0552293122219S11736317EA0152301551000000000000
B0552333122296S11736374EA0150101528000000000000
B0552373122374S11736438EA0148601513000000000000
B0552413122449S11736501EA0148701521000000000000
B0552453122518S11736563EA0149501531000000000000
B0552493122587S11736624EA0149401529000000000000
B0552533122652S11736684EA0149901532000000000000
B0552573122716S11736746EA0149801531000000000000
B0553013122782S11736805EA0149401524000000000000
B0553053122848S11736867EA0149301527000000000000
B0553093122915S11736922EA0151001552000000000000
B0553133122980S11736972EA0152301559000000000000
B0553173123046S11737023EA0152901570000000000000
B0553213123111S11737074EA0153001561000000000000
B0553253123182S11737130EA0152301561000000000000
B0553293123247S11737183EA0153901580000000000000
B0553333123308S11737239EA0154301571000000000000
B0553373123375S11737300EA0152001536000000000000
B0553413123449S11737364EA0149301516000000000000
B0553453123524S11737426EA0148701514000000000000
B0553493123597S11737490EA0148001507000000000000
B0553533123667S11737555EA0147401501000000000000
B0553573123736S11737622EA0146801498000000000000
B0554013123802S11737690EA0146201486000000000000
B0554053123873S11737756EA0144801474000000000000
B0554093123943S11737823EA0143901462000000000000
B0554133124014S11737884EA0142401451000000000000
B0554173124085S11737945EA0140701430000000000000
B0554213124153S11738009EA0139101417000000000000
B0554253124222S11738068EA0138101409000000000000
B0554293124289S11738127EA0137001397000000000000
B0554333124360S11738181EA0136001389000000000000
B0554373124433S11738231EA0135701387000000000000
B0554413124510S11738279EA0135301381000000000000
B0554453124584S11738327EA0135901397000000000000
B0554493124649S11738374EA0138301430000000000000
B0554533124707S11738414EA0141101454000000000000
B0554573124766S11738448EA0141501448000000000000
B0555013124831S11738484EA0140101427000000000000
B0555053124901S11738525EA0139101424000000000000
B0555093124966S11738568EA0139901437000000000000
B0555133125031S11738610EA0140701443000000000000
B0555173125095S11738649EA0141901461000000000000
B0555213125157S11738683EA0143001465000000000000
B0555253125219S11738718EA0142301457000000000000
B0555293125286S11738760EA0142201457000000000000
B0555333125352S11738804EA0142701466000000000000
B0555373125416S11738848EA0144301485000000000000
B0555413125482S11738878EA0146801510000000000000
B0555453125524S11738828EA0149601544000000000000
B0555493125495S11738769EA0151101546000000000000
B0555533125421S11738760EA0150801548000000000000
B0555573125365S11738812EA0153201585000000000000
B0556013125369S11738878EA0156401614000000000000
B0556053125414S11738909EA0158301628000000000000
B0556093125464S11738887EA0158901626000000000000
B0556133125477S11738815EA0158001618000000000000
B0556173125435S11738744EA0158001618000000000000
B0556213125356S11738711EA0158701632000000015000
B0556253125283S11738746EA0161701667000000015000
B0556293125278S11738820EA0163601688000000015000
B0556333125330S11738838EA0165101697000000015000
B0556373125355S11738777EA0166601720000000015000
B0556413125305S11738727EA0168801744000000015000
B0556453125239S11738747EA0171301769000000015000
B0556493125213S11738815EA0173001778000000015000
B0556533125249S11738870EA0173401778000000015000
B0556573125307S11738847EA0174201792000000015000
B0557013125312S11738774EA0176201814000000015000
B0557053125253S11738738EA0178101835000000015000
B0557093125196S11738782EA0180101851000000015000
B0557133125201S11738857EA0181401863000000015000
B0557173125253S11738881EA0182601881000000015000
B0557213125291S11738829EA0183901894000000015000
B0557253125275S11738757EA0185401908000000015000
B0557293125212S11738726EA0187201929000000015000
B0557333125151S11738768EA0189301948000000015000
B0557373125148S11738842EA0190601959000000000000
B0557413125203S11738869EA0191401965000000000000
B0557453125249S11738821EA0192901981000000000000
B0557493125234S11738747EA0194201994000000015000
B0557533125170S11738716EA0195902014000000015000
B0557573125104S11738750EA0197402032000000015000
B0558013125082S11738821EA0199102045000000015000
B0558053125114S11738882EA0199602047000000015000
B0558093125174S11738881EA0200502061000000015000
B0558133125201S11738817EA0201802070000000015000
B0558173125162S11738751EA0203102089000000015000
B0558213125091S11738738EA0205402115000000015000
B0558253125031S11738779EA0207202127000000015000
B0558293125015S11738855EA0207602129000000015000
B0558333125052S11738924EA0207602125000000000000
B0558373125110S11738985EA0206202102000000000000
B0558413125182S11739041EA0205202095000000000000
B0558453125255S11739093EA0205402101000000000000
B0558493125326S11739147EA0205202094000000000000
B0558533125398S11739210EA0204602090000000000000
B0558573125470S11739276EA0203802080000000000000
B0559013125542S11739346EA0204302092000000000000
B0559053125609S11739416EA0204502086000000000000
B0559093125682S11739491EA0202402059000000000000
B0559133125759S11739571EA0201202056000000000000
B0559173125834S11739647EA0201202061000000000000
B0559213125907S11739714EA0202102067000000000000
B0559253125979S11739782EA0201502061000000000000
B0559293126044S11739849EA0201602064000000000000
B0559333126105S11739918EA0201702065000000000000
B0559373126165S11739985EA0201302058000000000000
B0559413126227S11740053EA0200402044000000000000
B0559453126297S11740124EA0198502020000000000000
B0559493126373S11740199EA0196602005000000000000
B0559533126451S11740272EA0195902000000000000000
B0559573126529S11740341EA0195501997000000000000
B0600013126605S11740414EA0194401986000000000000
B0600053126679S11740485EA0194201986000000000000
B0600093126751S11740559EA0193801976000000000000
B0600133126824S11740636EA0192701967000000000000
B0600173126896S11740707EA0192201962000000000000
B0600213126971S11740783EA0190901943000000000000
B0600253127046S11740865EA0189401933000000000000
B0600293127117S11740944EA0189201933000000000000
B0600333127188S11741015EA0189001932000000000000
B0600373127260S11741075EA0189301937000000000000
B0600413127332S11741131EA0189601942000000000000
B0600453127401S11741181EA0190801961000000000000
B0600493127466S11741230EA0191901964000000000000
B0600533127535S11741282EA0192101965000000000000
B0600573127605S11741335EA0192401970000000000000
B0601013127673S11741390EA0192201961000000000000
B0601053127745S11741450EA0190601946000000000000
B0601093127822S11741508EA0189801938000000000000
B0601133127897S11741565EA0188701924000000000000
B0601173127972S11741625EA0187201910000000000000
B0601213128044S11741688EA0186001896000000000000
B0601253128117S11741749EA0185501901000000000000
B0601293128187S11741805EA0187101923000000000000
B0601333128255S11741853EA0188401927000000000000
B0601373128325S11741903EA0187701917000000000000
B0601413128395S11741955EA0188201932000000000000
B0601453128459S11742003EA0190001951000000000000
B0601493128523S11742050EA0190501944000000000000
B0601533128594S11742098EA0190401948000000000000
B0601573128667S11742145EA0191101955000000000000
B0602013128739S11742195EA0191001950000000000000
B0602053128817S11742245EA0189701932000000000000
B0602093128901S11742295EA0188701920000000000000
B0602133128986S11742348EA0187601912000000000000
B0602173129070S11742404EA0187401908000000000000
B0602213129153S11742460EA0186501897000000000000
B0602253129234S11742517EA0185301885000000000000
B0602293129317S11742573EA0183801865000000000000
B0602333129402S11742629EA0181901853000000000000
B0602373129486S11742681EA0181401846000000000000
B0602413129569S11742737EA0180501837000000000000
B0602453129651S11742795EA0180101838000000000000
B0602493129730S11742848EA0180101839000000000000
B0602533129812S11742900EA0179801832000000000000
B0602573129896S11742954EA0178801819000000000000
B0603013129981S11743007EA0177901813000000000000
B0603053130065S11743060EA0177601815000000000000
B0603093130149S11743108EA0178701830000000000000
B0603133130230S11743151EA0179801842000000000000
B0603173130310S11743188EA0180501843000000000000
B0603213130393S11743224EA0179401824000000000000
B0603253130483S11743266EA0178101814000000000000
B0603293130570S11743305EA0177601816000000000000
B0603333130655S11743341EA0177501806000000000000
B0603373130742S11743379EA0176001787000000000000
B0603413130829S11743414EA0175201789000000000000
B0603453130916S11743440EA0175401791000000000000
B0603493131001S11743474EA0175401788000000000000
B0603533131081S11743511EA0175701801000000000000
B0603573131157S11743548EA0176301795000000000000
B0604013131237S11743580EA0174601767000000000000
B0604053131327S11743617EA0172201750000000000000
B0604093131411S11743657EA0172001751000000000000
B0604133131491S11743704EA0171701751000000000000
B0604173131566S11743749EA0171101742000000000000
B0604213131641S11743796EA0170101729000000000000
B0604253131718S11743843EA0168901722000000000000
B0604293131794S11743887EA0169901744000000000000
B0604333131865S11743927EA0171801763000000000000
B0604373131930S11743969EA0174601794000000000000
B0604413131992S11744008EA0176001798000000000000
B0604453132057S11744043EA0176901812000000000000
B0604493132125S11744080EA0177501817000000000000
B0604533132191S11744113EA0178801832000000000000
B0604573132260S11744147EA0179301830000000000000
B0605013132333S11744181EA0178801822000000000000
B0605053132406S11744220EA0178801826000000000000
B0605093132477S11744258EA0178801826000000000000
B0605133132553S11744291EA0177501804000000000000
B0605173132629S11744328EA0176601802000000000000
B0605213132704S11744349EA0176601806000000000000
B0605253132779S11744358EA0176601800000000000000
B0605293132857S11744372EA0176201797000000000000
B0605333132938S11744398EA0176201801000000000000
B0605373133016S11744431EA0176301799000000000000
B0605413133096S11744464EA0175701784000000000000
B0605453133181S11744493EA0175201794000000000000
B0605493133261S11744516EA0176001791000000000000
B0605533133347S11744541EA0174601778000000000000
B0605573133432S11744572EA0174201777000000000000
B0606013133517S11744614EA0173501767000000000000
B0606053133603S11744663EA0173001762000000000000
B0606093133688S11744718EA0172301754000000000000
B0606133133776S11744765EA0171601747000000000000
B0606173133870S11744801EA0170301736000000000000
B0606213133963S11744832EA0170801744000000000000
B0606253134054S11744854EA0171101747000000000000
B0606293134140S11744869EA0172101765000000000000
B0606333134219S11744878EA0173801782000000000000
B0606373134295S11744882EA0174801790000000000000
B0606413134369S11744886EA0174701784000000000000
B0606453134446S11744899EA0174201781000000000000
B0606493134522S11744919EA0174501789000000000000
B0606533134594S11744944EA0175001791000000000000
B0606573134663S11744971EA0174701785000000000000
B0607013134732S11745012EA0173001762000000000000
B0607053134803S11745065EA0170701738000000000000
B0607093134875S11745127EA0169301727000000000000
B0607133134941S11745196EA0168401718000000000000
B0607173135005S11745265EA0167801715000000000000
B0607213135067S11745331EA0167101702000000000000
B0607253135132S11745400EA0165801689000000000000
B0607293135202S11745465EA0165301688000000000000
B0607333135270S11745528EA0165601694000000000000
B0607373135337S11745588EA0165901696000000000000
B0607413135408S11745641EA0166201703000000000000
B0607453135480S11745690EA0165901692000000000000
B0607493135552S11745742EA0165101684000000000000
B0607533135626S11745792EA0163801673000000000000
B0607573135703S11745833EA0164401690000000000000
B0608013135778S11745874EA0164901684000000000000
B0608053135856S11745916EA0164001680000000000000
B0608093135930S11745961EA0164301682000000000000
B0608133136000S11746006EA0165701709000000000000
B0608173136063S11746044EA0168601737000000000000
B0608213136126S11746048EA0170701752000000000000
B0608253136146S11745976EA0171901766000000000000
B0608293136090S11745933EA0173301782000000000000
B0608333136034S11745971EA0174701800000000000000
B0608373136025S11746041EA0176601816000000000000
B0608413136065S11746082EA0178001831000000000000
B0608453136110S11746049EA0179401842000000000000
B0608493136099S11745976EA0180501853000000000000
B0608533136039S11745950EA0181101859000000000000
B0608573135982S11745992EA0181801868000000000000
B0609013135964S11746069EA0182901878000000000000
B0609053135995S11746134EA0183901888000000000000
B0609093136052S11746134EA0185101900000000000000
B0609133136085S11746072EA0186401915000000000000
B0609173136060S11745998EA0188001929000000000000
B0609213135994S11745988EA0189001938000000000000
B0609253135951S11746046EA0190101952000000000000
B0609293135957S11746122EA0190701954000000000000
B0609333136011S11746136EA0191401966000000000000
B0609373136032S11746070EA0192501978000000000000
B0609413135989S11746011EA0193401983000000000000
B0609453135921S11746024EA0194201996000000015000
B0609493135890S11746095EA0194901993000000000000
B0609533135915S11746174EA0193901976000000000000
B0609573135976S11746240EA0191901953000000000000
B0610013136051S11746305EA0191101955000000000000
B0610053136128S11746368EA0191001952000000000000
B0610093136208S11746427EA0190801949000000000000
B0610133136293S11746487EA0190201941000000000000
B0610173136377S11746544EA0190201943000000000000
B0610213136463S11746605EA0189801934000000000000
B0610253136552S11746669EA0189101929000000000000
B0610293136639S11746734EA0188601921000000000000
B0610333136728S11746803EA0187401910000000000000
B0610373136817S11746873EA0186701905000000000000
B0610413136904S11746941EA0186101895000000000000
B0610453136988S11747007EA0185301892000000000000
B0610493137070S11747075EA0184001876000000000000
B0610533137150S11747145EA0183301869000000000000
B0610573137225S11747216EA0182701864000000000000
B0611013137299S11747289EA0181601850000000000000
B0611053137371S11747363EA0180401838000000000000
B0611093137441S11747435EA0179501832000000000000
B0611133137511S11747505EA0179201832000000000000
B0611173137579S11747570EA0179201830000000000000
B0611213137647S11747638EA0178301819000000000000
B0611253137718S11747704EA0177501808000000000000
B0611293137790S11747769EA0176201792000000000000
B0611333137863S11747834EA0175001782000000000000
B0611373137935S11747899EA0173901772000000000000
B0611413138008S11747960EA0173001765000000000000
B0611453138079S11748017EA0172401762000000000000
B0611493138151S11748072EA0172001757000000000000
B0611533138223S11748125EA0170701736000000000000
B0611573138301S11748178EA0169101727000000000000
B0612013138381S11748228EA0169001725000000000000
B0612053138457S11748280EA0168201715000000000000
B0612093138537S11748333EA0167801713000000000000
B0612133138613S11748386EA0167001704000000000000
B0612173138689S11748442EA0166001692000000000000
B0612213138765S11748498EA0164801678000000000000
B0612253138843S11748554EA0163201661000000000000
B0612293138925S11748611EA0161501646000000000000
B0612333139005S11748670EA0160701637000000000000
B0612373139084S11748728EA0159801626000000000000
B0612413139163S11748789EA0158401611000000000000
B0612453139240S11748856EA0156901597000000000000
B0612493139314S11748922EA0156101592000000000000
B0612533139386S11748988EA0154901576000000000000
B0612573139458S11749053EA0153301562000000000000
B0613013139532S11749118EA0152101550000000000000
B0613053139608S11749179EA0151401540000000000000
B0613093139685S11749238EA0150201528000000000000
B0613133139761S11749298EA0149001517000000000000
B0613173139835S11749358EA0148501513000000000000
B0613213139909S11749416EA0147601503000000000000
B0613253139984S11749477EA0147001498000000000000
B0613293140055S11749541EA0146501492000000000000
B0613333140127S11749603EA0145601480000000000000
B0613373140202S11749662EA0144101462000000000000
B0613413140279S11749718EA0143501470000000000000
B0613453140350S11749771EA0144801483000000000000
B0613493140416S11749824EA0145401488000000000000
B0613533140479S11749881EA0146101497000000000000
B0613573140537S11749939EA0146901505000000000000
B0614013140595S11749995EA0147501510000000000000
B0614053140658S11750045EA0147801515000000000000
B0614093140719S11750093EA0148701523000000000000
B0614133140782S11750141EA0149301528000000000000
B0614173140847S11750186EA0149401527000000000000
B0614213140913S11750225EA0148601514000000000000
B0614253140983S11750260EA0148001510000000000000
B0614293141059S11750281EA0146901497000000000000
B0614333141138S11750294EA0145701485000000000000
B0614373141219S11750303EA0145201480000000000000
B0614413141303S11750318EA0145301489000000000000
B0614453141385S11750326EA0147401516000000000000
B0614493141456S11750313EA0150301545000000000000
B0614533141460S11750244EA0152901567000000000000
B0614573141395S11750238EA0154101583000000000000
B0615013141365S11750300EA0155601598000000000000
B0615053141395S11750356EA0157401618000000000000
B0615093141449S11750346EA0159301637000000000000
B0615133141455S11750282EA0161301657000000000000
B0615173141406S11750243EA0162601667000000000000
B0615213141343S11750268EA0163601679000000000000
B0615253141330S11750336EA0164901701000000000000
B0615293141377S11750370EA0166801718000000000000
B0615333141421S11750329EA0168401733000000000000
B0615373141403S11750261EA0169801743000000000000
B0615413141338S11750249EA0170701756000000000000
B0615453141293S11750301EA0172401774000000000000
B0615493141300S11750370EA0173901787000000000000
B0615533141354S11750396EA0175301800000000000000
B0615573141401S11750347EA0176801816000000000000
B0616013141385S11750273EA0177901831000000000000
B0616053141325S11750243EA0179301845000000000000
B0616093141268S11750278EA0180601859000000000000
B0616133141255S11750346EA0182301875000000000000
B0616173141299S11750386EA0183301882000000000000
B0616213141356S11750366EA0184801902000000000000
B0616253141368S11750300EA0186401912000000000000
B0616293141315S11750258EA0187101919000000000000
B0616333141254S11750284EA0188001929000000000000
B0616373141235S11750353EA0189101941000000000000
B0616413141265S11750417EA0189501944000000000000
B0616453141321S11750461EA0190501959000000000000
B0616493141377S11750434EA0192701987000000000000
B0616533141368S11750365EA0194702002000000015000
B0616573141310S11750338EA0195802012000000015000
B0617013141251S11750374EA0197002027000000015000
B0617053141238S11750446EA0198702039000000000000
B0617093141276S11750509EA0199602049000000000000
B0617133141336S11750513EA0201502075000000000000
B0617173141367S11750456EA0203602091000000000000
B0617213141339S11750392EA0204902104000000000000
B0617253141276S11750370EA0205702110000000000000
B0617293141220S11750409EA0206802129000000000000
B0617333141209S11750478EA0208602144000000000000
B0617373141246S11750529EA0209702153000000000000
B0617413141302S11750529EA0211202170000000000000
B0617453141332S11750478EA0212902186000000000000
B0617493141307S11750416EA0213902194000000000000
B0617533141246S11750394EA0214802203000000000000
B0617573141186S11750426EA0216202220000000000000
B0618013141157S11750494EA0217402227000000000000
B0618053141161S11750574EA0217402221000000000000
B0618093141178S11750663EA0216202207000000000000
B0618133141200S11750762EA0215802206000000000000
B0618173141232S11750859EA0215602205000000000000
B0618213141267S11750958EA0214702189000000000000
B0618253141302S11751064EA0212802172000000000000
B0618293141336S11751174EA0211902165000000000000
B0618333141367S11751284EA0210702151000000000000
B0618373141397S11751396EA0209302138000000000000
B0618413141427S11751509EA0208402130000000000000
B0618453141456S11751621EA0207802127000000000000
B0618493141489S11751726EA0208202133000000000000
B0618533141520S11751824EA0208702139000000000000
B0618573141554S11751915EA0208402129000000000000
B0619013141584S11752008EA0207002112000000000000
B0619053141615S11752108EA0205302094000000000000
B0619093141654S11752208EA0203602080000000000000
B0619133141696S11752310EA0203002079000000000000
B0619173141735S11752407EA0203802091000000000000
B0619213141768S11752501EA0205302104000000000000
B0619253141800S11752592EA0205102101000000000000
B0619293141832S11752679EA0204702092000000000000
B0619333141863S11752765EA0203402076000000000000
B0619373141896S11752851EA0202302070000000000000
B0619413141932S11752931EA0202102071000000000000
B0619453141971S11753007EA0202202071000000000000
B0619493142010S11753083EA0201902063000000000000
B0619533142052S11753161EA0201302059000000000000
B0619573142093S11753241EA0201502066000000000000
B0620013142132S11753315EA0202202072000000000000
B0620053142170S11753384EA0202002067000000000000
B0620093142207S11753458EA0201302056000000000000
B0620133142249S11753531EA0200202047000000000000
B0620173142294S11753602EA0199602042000000000000
B0620213142335S11753674EA0199102036000000000000
B0620253142376S11753744EA0198302028000000000000
B0620293142416S11753815EA0196802013000000000000
B0620333142457S11753888EA0195402000000000000000
B0620373142499S11753963EA0194301986000000000000
B0620413142541S11754040EA0194201991000000000000
B0620453142586S11754112EA0194802000000000000000
B0620493142638S11754186EA0195402003000000000000
B0620533142694S11754269EA0195302001000000000000
B0620573142749S11754357EA0195602003000000000000
B0621013142808S11754446EA0195602003000000000000
B0621053142867S11754533EA0195602004000000000000
B0621093142923S11754621EA0196402014000000000000
B0621133142971S11754707EA0195901999000000000000
B0621173143019S11754799EA0194201983000000000000
B0621213143070S11754894EA0192701967000000000000
B0621253143122S11754994EA0191501954000000000000
B0621293143172S11755096EA0190201941000000000000
B0621333143223S11755197EA0190401952000000000000
B0621373143273S11755289EA0190901955000000000000
B0621413143323S11755382EA0190601945000000000000
B0621453143374S11755474EA0189301934000000000000
B0621493143423S11755566EA0188201921000000000000
B0621533143474S11755659EA0187001908000000000000
B0621573143526S11755751EA0185201889000000000000
B0622013143579S11755845EA0184201879000000000000
B0622053143631S11755941EA0182601860000000000000
B0622093143686S11756038EA0180701841000000000000
B0622133143739S11756137EA0179401832000000000000
B0622173143795S11756233EA0178401816000000000000
B0622213143854S11756327EA0176501797000000000000
B0622253143915S11756420EA0174701783000000000000
B0622293143975S11756508EA0173701775000000000000
B0622333144032S11756595EA0172601759000000000000
B0622373144090S11756682EA0171401751000000000000
B0622413144149S11756765EA0171201749000000000000
B0622453144216S11756829EA0171601764000000000000
B0622493144290S11756862EA0174501801000000000000
B0622533144358S11756853EA0178001836000000000000
B0622573144383S11756792EA0181801874000000000000
B0623013144337S11756740EA0184401897000000000000
B0623053144272S11756760EA0186401916000000000000
B0623093144251S11756827EA0188001934000000000000
B0623133144284S11756879EA0190101951000000000000
B0623173144335S11756872EA0191901971000000000000
B0623213144348S11756810EA0194401999000000000000
B0623253144294S11756771EA0196302013000000000000
B0623293144233S11756809EA0197502033000000000000
B0623333144232S11756879EA0199802056000000000000
B0623373144279S11756899EA0201802071000000000000
B0623413144313S11756847EA0203102085000000000000
B0623453144279S11756782EA0205002106000000000000
B0623493144206S11756778EA0206602121000000000000
B0623533144163S11756839EA0208802149000000000000
B0623573144179S11756901EA0211202169000000000000
B0624013144225S11756900EA0213402192000000000000
B0624053144238S11756840EA0215202206000000000000
B0624093144189S11756788EA0216402219000000000000
B0624133144119S11756799EA0217702241000000000000
B0624173144086S11756864EA0219802258000000000000
B0624213144102S11756938EA0220402252000000000000
B0624253144146S11757017EA0219102232000000000000
B0624293144203S11757106EA0218302227000000000000
B0624333144267S11757200EA0219202243000000000000
B0624373144332S11757299EA0220902261000000000000
B0624413144396S11757398EA0221802264000000000000
B0624453144462S11757499EA0222002262000000000000
B0624493144530S11757605EA0221302257000000000000
B0624533144596S11757714EA0221402259000000000000
B0624573144658S11757823EA0222502258000000000000
B0625013144721S11757932EA0221302239000000000000
B0625053144786S11758043EA0219502222000000000000
B0625093144851S11758156EA0217502199000000000000
B0625133144920S11758273EA0215202179000000000000
B0625173144989S11758389EA0213702166000000000000
B0625213145056S11758503EA0213002160000000000000
B0625253145120S11758615EA0211802148000000000000
B0625293145184S11758729EA0210402135000000000000
B0625333145246S11758842EA0209602130000000000000
B0625373145308S11758953EA0209302129000000000000
B0625413145371S11759061EA0209102126000000000000
B0625453145432S11759170EA0208202114000000000000
B0625493145494S11759282EA0207202103000000000000
B0625533145554S11759392EA0206602101000000000000
B0625573145615S11759499EA0206202097000000000000
B0626013145675S11759605EA0205302090000000000000
B0626053145735S11759708EA0205102089000000000000
B0626093145797S11759806EA0204802080000000000000
B0626133145862S11759902EA0203702072000000000000
B0626173145926S11759997EA0203102066000000000000
B0626213145991S11800090EA0202202058000000000000
B0626253146055S11800181EA0201902052000000000000
B0626293146113S11800278EA0201402051000000000000
B0626333146173S11800372EA0200302037000000000000
B0626373146238S11800463EA0199202026000000000000
B0626413146305S11800553EA0198102011000000000000
B0626453146376S11800644EA0196601997000000000000
B0626493146450S11800734EA0195901992000000000000
B0626533146523S11800825EA0195101982000000000000
B0626573146597S11800916EA0194001972000000000000
B0627013146669S11801006EA0193401969000000000000
B0627053146740S11801095EA0193001965000000000000
B0627093146807S11801184EA0192701961000000000000
B0627133146874S11801269EA0192501964000000000000
B0627173146942S11801347EA0192501957000000000000
B0627213147010S11801429EA0191101937000000000000
B0627253147078S11801514EA0190101932000000000000
B0627293147141S11801601EA0189501927000000000000
B0627333147205S11801687EA0188301911000000000000
B0627373147271S11801775EA0187101902000000000000
B0627413147338S11801861EA0186201892000000000000
B0627453147405S11801947EA0185301887000000000000
B0627493147470S11802031EA0184601875000000000000
B0627533147535S11802116EA0183101863000000000000
B0627573147600S11802200EA0182201853000000000000
B0628013147668S11802278EA0181401846000000000000
B0628053147737S11802354EA0180201831000000000000
B0628093147807S11802430EA0179101828000000000000
B0628133147871S11802502EA0180701860000000000000
B0628173147927S11802559EA0183101876000000000000
B0628213147985S11802606EA0183601870000000000000
B0628253148050S11802654EA0182401848000000000000
B0628293148118S11802712EA0180601837000000000000
B0628333148183S11802779EA0179501819000000000000
B0628373148246S11802854EA0177301799000000000000
B0628413148310S11802936EA0175501778000000000000
B0628453148370S11803024EA0174901789000000000000
B0628493148419S11803096EA0177601817000000000000
B0628533148469S11803162EA0177801798000000000000
B0628573148525S11803235EA0175701777000000000000
B0629013148586S11803308EA0175601793000000000000
B0629053148642S11803385EA0177101803000000000000
B0629093148696S11803464EA0175701787000000000000
B0629133148755S11803550EA0174101770000000000000
B0629173148811S11803643EA0172501750000000000000
B0629213148866S11803742EA0170501732000000000000
B0629253148926S11803836EA0169801732000000000000
B0629293148994S11803920EA0168901715000000000000
B0629333149068S11804002EA0166901695000000000000
B0629373149141S11804085EA0165901690000000000000
B0629413149212S11804165EA0164801676000000000000
B0629453149285S11804240EA0163801673000000000000
B0629493149358S11804308EA0163701666000000000000
B0629533149433S11804374EA0163301676000000000000
B0629573149503S11804432EA0165901708000000000000
B0630013149575S11804447EA0168801732000000000000
B0630053149636S11804402EA0169801729000000000000
B0630093149710S11804391EA0168901730000000000000
B0630133149787S11804408EA0168901723000000000000
B0630173149860S11804453EA0168001715000000000000
B0630213149927S11804517EA0167201704000000000000
B0630253149988S11804590EA0166501699000000000000
B0630293150042S11804665EA0167001708000000000000
B0630333150091S11804740EA0167601715000000000000
B0630373150146S11804805EA0168101722000000000000
B0630413150200S11804868EA0169101735000000000000
B0630453150257S11804922EA0170001744000000000000
B0630493150313S11804980EA0170901751000000000000
B0630533150361S11805051EA0172101766000000000000
B0630573150419S11805090EA0174601792000000000000
B0631013150446S11805032EA0176801812000000000000
B0631053150397S11804989EA0178101825000000000000
B0631093150332S11805012EA0178601826000000000000
B0631133150298S11805086EA0179001832000000000000
B0631173150300S11805173EA0179801841000000000000
B0631213150351S11805212EA0181201868000000000000
B0631253150385S11805168EA0183601888000000000000
B0631293150355S11805108EA0185001899000000000000
B0631333150290S11805099EA0186501912000000000000
B0631373150231S11805147EA0187201918000000000000
B0631413150243S11805219EA0187801921000000000000
B0631453150302S11805221EA0188201929000000000000
B0631493150328S11805158EA0189301941000000000000
B0631533150294S11805091EA0190501956000000000000
B0631573150228S11805076EA0192101969000000000000
B0632013150179S11805136EA0193001979000000000000
B0632053150183S11805219EA0193101970000000000000
B0632093150213S11805309EA0192101958000000000000
B0632133150252S11805405EA0190601937000000000000
B0632173150302S11805504EA0188701923000000000000
B0632213150354S11805601EA0187501913000000000000
B0632253150406S11805697EA0186301900000000000000
B0632293150459S11805793EA0185501893000000000000
B0632333150514S11805888EA0184501884000000000000
B0632373150567S11805985EA0183601875000000000000
B0632413150618S11806081EA0183101871000000000000
B0632453150670S11806177EA0182101854000000000000
B0632493150722S11806276EA0180601843000000000000
B0632533150771S11806378EA0179201823000000000000
B0632573150822S11806482EA0177501813000000000000
B0633013150871S11806579EA0177201809000000000000
B0633053150914S11806679EA0176501803000000000000
B0633093150957S11806776EA0176201802000000000000
B0633133151001S11806870EA0175301792000000000000
B0633173151044S11806965EA0174601780000000000000
B0633213151089S11807064EA0173101766000000000000
B0633253151140S11807157EA0173301777000000000000
B0633293151187S11807251EA0174501793000000000000
B0633333151227S11807339EA0175701802000000000000
B0633373151268S11807424EA0176001802000000000000
B0633413151312S11807507EA0175301792000000000000
B0633453151364S11807590EA0174101777000000000000
B0633493151424S11807677EA0171901754000000000000
B0633533151487S11807766EA0170301733000000000000
B0633573151555S11807850EA0168801723000000000000
B0634013151622S11807929EA0168001713000000000000
B0634053151690S11808005EA0167001706000000000000
B0634093151759S11808071EA0166801713000000000000
B0634133151824S11808132EA0167901720000000000000
B0634173151892S11808188EA0167701713000000000000
B0634213151958S11808248EA0167901722000000000000
B0634253152016S11808310EA0168201722000000000000
B0634293152077S11808374EA0167601711000000000000
B0634333152139S11808443EA0166701705000000000000
B0634373152198S11808514EA0166101698000000000000
B0634413152259S11808586EA0165301688000000000000
B0634453152323S11808657EA0164201677000000000000
B0634493152387S11808730EA0163101667000000000000
B0634533152449S11808806EA0162301661000000000000
B0634573152514S11808877EA0161801655000000000000
B0635013152577S11808949EA0161301653000000000000
B0635053152636S11809019EA0161001646000000000000
B0635093152695S11809088EA0160401639000000000000
B0635133152752S11809160EA0159501633000000000000
B0635173152807S11809231EA0159901642000000000000
B0635213152861S11809296EA0161001654000000000000
B0635253152915S11809354EA0162501670000000000000
B0635293152965S11809411EA0163501677000000000000
B0635333153015S11809467EA0162901667000000000000
B0635373153064S11809527EA0162101661000000000000
B0635413153115S11809584EA0161901658000000000000
B0635453153166S11809639EA0161901655000000000000
B0635493153234S11809649EA0160901642000000000000
B0635533153294S11809591EA0159401623000000000000
B0635573153315S11809493EA0158101617000000000000
B0636013153307S11809392EA0157201602000000000000
B0636053153289S11809288EA0155401582000000000000
B0636093153271S11809179EA0153901571000000000000
B0636133153253S11809068EA0152901558000000000000
B0636173153225S11808958EA0151201540000000000000
B0636213153195S11808847EA0149701527000000000000
B0636253153163S11808739EA0148701518000000000000
B0636293153136S11808631EA0148201518000000000000
B0636333153114S11808526EA0147701509000000000000
B0636373153091S11808421EA0147301508000000000000
B0636413153068S11808315EA0147801517000000000000
B0636453153043S11808215EA0148701527000000000000
B0636493153017S11808120EA0150001542000000000000
B0636533152990S11808032EA0151701558000000000000
B0636573152942S11807959EA0151901550000000000000
B0637013152891S11807881EA0149901526000000000000
B0637053152861S11807785EA0148001509000000000000
B0637093152850S11807681EA0146601496000000000000
B0637133152844S11807577EA0146101496000000000000
B0637173152834S11807477EA0146101495000000000000
B0637213152824S11807374EA0145301482000000000000
B0637253152818S11807270EA0144901485000000000000
