ACAM4N6
HFDTE051122
HFFXA050
HFPLTPILOT:JOHN WELSH              
HFGTYGLIDERTYPE:HORNET      
HFGIDGLIDERID:VH-GMY      
HFDTM100GPSDATUM:
HFRFWFIRMWAREVERSION:F2.6
HFRHWHARDWAREVERSION:300 Series Version 2
HFFTYFRTYPE:CAMBRIDGE AERO INSTRUMENTS, 302+
HFGPS:GARMIN,LVS-25,12,18000
HFPRSPRESSALTSENSOR:INTERSEMA, MS5534-AP, 20000
I033638FXA3941ENL4247REX
LCAMSBVER:5FWVER:F26300
C051122025029051122000102
C0000000N00000000WTAKEOFF     
C3207549S11656849E01Bev Airfie
C3118099S11649299E29Goomalling
C3203749S11824249E48Narembeen 
C3207549S11656849E01Bev Airfie
C0000000N00000000WLANDING     
B0429133207330S11656861EA0017200208000004000000
B0429153207330S11656862EA0017300208000004000000
B0429173207330S11656862EA0017300208000004000000
B0429193207330S11656862EA0017200208000004000000
B0429213207330S11656862EA0017200208000004000000
B0429233207330S11656862EA0017200208000004000000
B0429253207330S11656862EA0017200208000004000000
B0429273207330S11656862EA0017200208000004000000
B0429293207330S11656862EA0017200208000000000000
B0429313207329S11656862EA0017200208000004000000
B0429333207329S11656862EA0017200208000004000000
B0429353207329S11656862EA0017200208000004000000
B0429373207330S11656862EA0017200208000000000000
B0429393207332S11656862EA0017200208000000000000
B0429413207333S11656864EA0017300208000000000000
B0429443207343S11656871EA0017200208000004000000
B0429483207371S11656888EA0017400208000004000000
B0429523207412S11656912EA0017400208000000000000
B0429563207464S11656943EA0017500209000000000000
B0430003207524S11656981EA0017900214000004000000
B0430043207585S11657018EA0018500218000004000000
B0430083207642S11657056EA0019900239000000000000
B0430123207701S11657088EA0021800262000000000000
B0430163207759S11657118EA0023900287000000000000
B0430203207814S11657157EA0026500313000000000000
B0430243207867S11657200EA0028800335000000000000
B0430283207919S11657235EA0030500354000000000000
B0430323207948S11657295EA0032500371000000000000
B0430363207947S11657369EA0034000386000000000000
B0430403207931S11657441EA0035400397000000000000
B0430443207918S11657512EA0036400408000000000000
B0430483207908S11657584EA0037700421000000000000
B0430523207897S11657657EA0038700430000000000000
B0430563207884S11657731EA0039900443000004000000
B0431003207854S11657801EA0041500460000004000000
B0431043207813S11657866EA0043100474000004000000
B0431083207772S11657932EA0044800495000004000000
B0431123207733S11657996EA0047200519000000000000
B0431163207675S11658048EA0049700542000000000000
B0431203207601S11658080EA0051500560000000000000
B0431243207520S11658070EA0053400582000004000000
B0431283207450S11658014EA0055400596000004000000
B0431323207407S11657930EA0057100614000004000000
B0431363207406S11657832EA0058100628000004000000
B0431403207445S11657748EA0059300637000000000000
B0431443207511S11657711EA0060600659000000000000
B0431483207575S11657732EA0062800677000000000000
B0431523207625S11657783EA0064300689000000000000
B0431563207653S11657855EA0066000713000004000000
B0432003207666S11657932EA0068800740000004000000
B0432043207671S11658013EA0071600769000004000000
B0432083207676S11658084EA0074700802000000000000
B0432123207713S11658110EA0077800828000000000000
B0432163207746S11658062EA0078500820000000000000
B0432203207737S11657979EA0077300812000000000000
B0432243207689S11657910EA0077200816000000000000
B0432283207627S11657868EA0078000824000000000000
B0432323207562S11657866EA0079300837000004000000
B0432363207542S11657917EA0080900856000004000000
B0432403207579S11657932EA0081600856000000015000
B0432443207596S11657868EA0081600861000004015000
B0432483207547S11657828EA0082600874000000015000
B0432523207501S11657859EA0083300880000000015000
B0432563207499S11657918EA0084100886000004015000
B0433003207545S11657939EA0085800906000000015000
B0433043207586S11657900EA0088000920000000015000
B0433083207588S11657823EA0088700929000000015000
B0433123207544S11657766EA0089800947000000015000
B0433163207486S11657758EA0091600962000000015000
B0433203207445S11657793EA0092500971000000000000
B0433243207436S11657849EA0093300980000000000000
B0433283207463S11657894EA0094900996000000015000
B0433323207508S11657891EA0097001012000000015000
B0433363207537S11657831EA0097901021000000015000
B0433403207524S11657755EA0098401031000000015000
B0433443207473S11657711EA0099801047000000000000
B0433483207433S11657741EA0101401064000000000000
B0433523207447S11657788EA0102601075000000015000
B0433563207489S11657777EA0104501088000004015000
B0434003207502S11657720EA0105201087000004015000
B0434043207466S11657653EA0104301086000000015000
B0434083207403S11657640EA0105501108000004000000
B0434123207371S11657681EA0107201121000004000000
B0434163207391S11657722EA0108701132000004015000
B0434203207433S11657696EA0109801144000000015000
B0434243207432S11657627EA0110801154000000015000
B0434283207381S11657581EA0111201157000000015000
B0434323207334S11657614EA0112001169000000015000
B0434363207345S11657664EA0113201179000000015000
B0434403207389S11657664EA0113901184000000015000
B0434443207412S11657602EA0113801180000000015000
B0434483207390S11657523EA0114001188000000015000
B0434523207329S11657489EA0114701197000000015000
B0434563207291S11657530EA0116001213000000015000
B0435003207315S11657571EA0117501222000004015000
B0435043207356S11657543EA0118801235000004015000
B0435083207359S11657475EA0119601235000000015000
B0435123207303S11657423EA0119401242000000015000
B0435163207242S11657429EA0120801259000000015000
B0435203207220S11657475EA0122601277000000015000
B0435243207255S11657482EA0123701285000000015000
B0435283207269S11657416EA0124301291000000015000
B0435323207219S11657359EA0125301304000000015000
B0435363207161S11657368EA0126401320000000015000
B0435403207138S11657411EA0127301322000004000000
B0435443207163S11657447EA0127801329000000015000
B0435483207211S11657433EA0128601337000000015000
B0435523207235S11657369EA0129701351000000015000
B0435563207204S11657298EA0131101365000000015000
B0436003207146S11657276EA0132401378000004015000
B0436043207105S11657307EA0133501386000000000000
B0436083207116S11657348EA0133801387000000015000
B0436123207165S11657341EA0133801391000000015000
B0436163207186S11657269EA0135101408000004015000
B0436203207148S11657200EA0136701420000004015000
B0436243207085S11657190EA0137301426000000015000
B0436283207051S11657233EA0137801429000000000000
B0436323207076S11657273EA0137901430000004015000
B0436363207125S11657252EA0138201435000004015000
B0436403207138S11657173EA0139001446000000015000
B0436443207092S11657111EA0140401458000000015000
B0436483207030S11657109EA0141101461000000015000
B0436523207003S11657155EA0141401466000000015000
B0436563207024S11657196EA0141601465000000015000
B0437003207074S11657191EA0141701469000000015000
B0437043207107S11657130EA0142701481000000015000
B0437083207086S11657053EA0143601486000000015000
B0437123207025S11657020EA0143601486000000015000
B0437163206974S11657055EA0143501486000000015000
B0437203206975S11657109EA0143901493000000015000
B0437243207021S11657122EA0144801499000000015000
B0437283207059S11657065EA0144901497000000015000
B0437323207060S11656978EA0145101503000000015000
B0437363207005S11656939EA0146301516000004015000
B0437403206965S11656971EA0146601513000004015000
B0437443206973S11657022EA0145701506000000015000
B0437483207001S11657069EA0145101502000000015000
B0437523207038S11657120EA0144101492000000000000
B0437563207081S11657174EA0143501482000000000000
B0438003207124S11657231EA0142401471000000000000
B0438043207168S11657293EA0141201462000000000000
B0438083207208S11657356EA0140501455000004000000
B0438123207245S11657420EA0139701446000000000000
B0438163207276S11657485EA0140001454000000000000
B0438203207302S11657546EA0141201471000004000000
B0438243207325S11657598EA0142601481000004000000
B0438283207352S11657645EA0142601480000004000000
B0438323207381S11657688EA0142601482000000000000
B0438363207410S11657732EA0142901484000004000000
B0438403207438S11657775EA0143101486000000000000
B0438443207469S11657816EA0143001478000000000000
B0438483207503S11657861EA0141601466000000000000
B0438523207538S11657907EA0140801459000000000000
B0438563207572S11657954EA0140301454000000000000
B0439003207606S11658005EA0139801449000004000000
B0439043207641S11658054EA0139401448000004000000
B0439083207679S11658100EA0139301446000000000000
B0439123207728S11658131EA0139001443000000000000
B0439163207776S11658162EA0138601437000004000000
B0439203207817S11658201EA0137801425000000000000
B0439243207859S11658236EA0136901416000000000000
B0439283207917S11658232EA0136501415000000000000
B0439323207961S11658179EA0136401417000000000000
B0439363207973S11658100EA0136501414000004000000
B0439403207974S11658014EA0135701405000004000000
B0439443207983S11657928EA0135201400000000000000
B0439483208008S11657846EA0134601393000000000000
B0439523208044S11657774EA0134301391000000000000
B0439563208084S11657707EA0133801388000004000000
B0440003208121S11657641EA0133401383000004000000
B0440043208153S11657571EA0132601371000000000000
B0440083208184S11657494EA0131501364000004000000
B0440123208214S11657415EA0130901356000004000000
B0440163208249S11657335EA0130401352000004000000
B0440203208291S11657265EA0130201350000000000000
B0440243208337S11657200EA0129701344000000000000
B0440283208385S11657135EA0129301339000004000000
B0440323208431S11657072EA0128701331000004000000
B0440363208481S11657009EA0127701321000000000000
B0440403208530S11656947EA0127401322000000000000
B0440443208576S11656884EA0127401320000004000000
B0440483208619S11656818EA0126901316000004000000
B0440523208662S11656752EA0126801313000004000000
B0440563208714S11656700EA0126301305000000000000
B0441003208773S11656667EA0125401299000000000000
B0441043208834S11656641EA0124701291000000000000
B0441083208897S11656615EA0124101286000000000000
B0441123208959S11656580EA0123501280000004000000
B0441163209018S11656535EA0123001276000004000000
B0441203209072S11656483EA0122401268000004000000
B0441243209122S11656427EA0121901261000004000000
B0441283209170S11656366EA0121501263000004000000
B0441323209204S11656293EA0122101268000004000000
B0441363209201S11656207EA0122501270000000000000
B0441403209174S11656124EA0122401274000000000000
B0441443209140S11656042EA0122601274000000000000
B0441483209102S11655963EA0122701274000000000000
B0441523209061S11655886EA0122401269000000000000
B0441563209000S11655835EA0122201267000000000000
B0442003208929S11655817EA0121601260000004000000
B0442043208866S11655834EA0121201257000004000000
B0442083208820S11655878EA0121101256000004000000
B0442123208806S11655937EA0121001255000004000000
B0442163208828S11655987EA0120701253000000000000
B0442203208877S11656006EA0120401248000000000000
B0442243208931S11655974EA0119401240000000000000
B0442283208958S11655904EA0118801233000000000000
B0442323208949S11655822EA0118101222000000000000
B0442363208912S11655746EA0116901212000000000000
B0442403208862S11655681EA0116101204000000000000
B0442443208795S11655648EA0115201197000000000000
B0442483208723S11655643EA0114201186000000000000
B0442523208650S11655648EA0113401178000000000000
B0442563208576S11655660EA0112501169000000000000
B0443003208503S11655679EA0111701162000000000000
B0443043208431S11655704EA0110701154000000000000
B0443083208360S11655734EA0110101146000000000000
B0443123208291S11655769EA0109201136000000000000
B0443163208226S11655809EA0108401130000004000000
B0443203208168S11655857EA0107601121000004000000
B0443243208113S11655909EA0106701112000004000000
B0443283208061S11655965EA0105701103000004000000
B0443323208014S11656024EA0105601104000004000000
B0443363207973S11656081EA0105301101000000000000
B0443403207939S11656141EA0104801096000000000000
B0443443207913S11656206EA0104301092000004000000
B0443483207887S11656269EA0103901082000004000000
B0443523207857S11656336EA0102101061000000000000
B0443563207820S11656398EA0100501049000004000000
B0444003207776S11656454EA0099501040000004000000
B0444043207729S11656505EA0098501029000004000000
B0444083207679S11656554EA0096901012000000000000
B0444123207625S11656607EA0095501002000000000000
B0444163207580S11656665EA0095100998000000000000
B0444203207546S11656728EA0094700993000000000000
B0444243207510S11656791EA0094100987000000000000
B0444283207462S11656844EA0094300995000004000000
B0444323207406S11656875EA0095401007000004000000
B0444363207341S11656878EA0096601019000004000000
B0444403207286S11656831EA0098901043000004000000
B0444443207272S11656749EA0100501055000000000000
B0444483207302S11656685EA0101601066000000000000
B0444523207355S11656678EA0102101064000000000000
B0444563207382S11656723EA0102401075000000000000
B0445003207351S11656766EA0103401081000000000000
B0445043207293S11656749EA0104001096000000015000
B0445083207269S11656676EA0105501105000004015000
B0445123207306S11656613EA0106701123000000015000
B0445163207358S11656614EA0108301135000000015000
B0445203207363S11656665EA0108801130000004015000
B0445243207299S11656680EA0108201131000000015000
B0445283207238S11656640EA0109201149000000015000
B0445323207207S11656566EA0111101166000000015000
B0445363207209S11656483EA0112101171000000015000
B0445403207246S11656419EA0112401171000000015000
B0445443207307S11656397EA0112601178000004015000
B0445483207362S11656406EA0113601191000004000000
B0445523207397S11656438EA0114801200000004000000
B0445563207395S11656488EA0115101201000004000000
B0446003207363S11656527EA0114801196000004000000
B0446043207304S11656532EA0114301194000000000000
B0446083207250S11656481EA0114601199000000015000
B0446123207211S11656405EA0115601209000000015000
B0446163207216S11656316EA0116701223000000000000
B0446203207267S11656263EA0117801227000000015000
B0446243207328S11656263EA0117801230000000015000
B0446283207367S11656306EA0118301235000004015000
B0446323207376S11656364EA0118301225000004015000
B0446363207372S11656435EA0116701202000000000000
B0446403207363S11656514EA0114701186000000000000
B0446443207355S11656596EA0113601176000000000000
B0446483207347S11656679EA0112301165000000000000
B0446523207342S11656762EA0111401155000000000000
B0446563207337S11656844EA0109701139000000000000
B0447003207330S11656926EA0108201122000000000000
B0447043207323S11657008EA0106301105000000000000
B0447083207316S11657090EA0105201096000000000000
B0447123207310S11657168EA0104701092000000000000
B0447163207302S11657244EA0104201083000000000000
B0447203207295S11657317EA0104101089000004000000
B0447243207286S11657385EA0104701092000004000000
B0447283207276S11657450EA0104901094000000000000
B0447323207264S11657516EA0104801094000000000000
B0447363207256S11657584EA0104901098000000000000
B0447403207254S11657645EA0106701119000000000000
B0447443207287S11657676EA0108001127000000000000
B0447483207321S11657615EA0108601135000000000000
B0447523207291S11657540EA0109601146000000000000
B0447563207228S11657517EA0110101152000000000000
B0448003207178S11657546EA0111101161000000000000
B0448043207164S11657594EA0112301178000000000000
B0448083207200S11657611EA0113701187000000015000
B0448123207228S11657559EA0114901197000004015000
B0448163207200S11657489EA0115301198000000015000
B0448203207139S11657477EA0115401206000004015000
B0448243207111S11657517EA0116601221000004015000
B0448283207126S11657555EA0117701225000004015000
B0448323207167S11657536EA0118501231000004015000
B0448363207170S11657464EA0119201239000004015000
B0448403207124S11657404EA0119601241000004015000
B0448443207064S11657407EA0120301255000000015000
B0448483207034S11657449EA0121301261000000015000
B0448523207057S11657484EA0122201267000004015000
B0448563207094S11657446EA0123101275000000015000
B0449003207077S11657368EA0123201275000004015000
B0449043207016S11657334EA0123701286000004015000
B0449083206964S11657363EA0124901297000004000000
B0449123206960S11657407EA0125901312000004015000
B0449163206998S11657399EA0126901315000000015000
B0449203207011S11657330EA0127101318000000015000
B0449243206969S11657261EA0127301321000000015000
B0449283206904S11657256EA0128201337000000015000
B0449323206873S11657296EA0129601346000004000000
B0449363206897S11657326EA0130801354000004015000
B0449403206931S11657286EA0131501358000004015000
B0449443206920S11657207EA0131701360000000015000
B0449483206865S11657150EA0132401373000004015000
B0449523206801S11657140EA0133801388000000015000
B0449563206770S11657174EA0134301390000000000000
B0450003206786S11657215EA0134301392000004015000
B0450043206825S11657192EA0135301402000000015000
B0450083206817S11657114EA0135901404000004015000
B0450123206756S11657070EA0136301414000004015000
B0450163206713S11657098EA0137301424000004015000
B0450203206732S11657131EA0137801424000004015000
B0450243206774S11657094EA0138201437000004015000
B0450283206764S11657020EA0139701448000004015000
B0450323206706S11656978EA0140101449000000015000
B0450363206654S11657000EA0140301454000004015000
B0450403206647S11657046EA0140401453000004015000
B0450443206683S11657068EA0140401455000004015000
B0450483206723S11657030EA0141101463000000015000
B0450523206710S11656948EA0141601465000004015000
B0450563206653S11656887EA0141801469000004015000
B0451003206588S11656880EA0142301472000004015000
B0451043206541S11656917EA0141901459000004015000
B0451083206527S11656974EA0140701450000004000000
B0451123206537S11657035EA0139701445000004000000
B0451163206558S11657096EA0139001441000000000000
B0451203206587S11657152EA0139101445000004000000
B0451243206617S11657205EA0139701451000000000000
B0451283206647S11657254EA0140301458000000000000
B0451323206678S11657299EA0141401471000000000000
B0451363206708S11657345EA0142501479000004000000
B0451403206743S11657389EA0142401478000000000000
B0451443206778S11657437EA0142501481000000000000
B0451483206813S11657489EA0143001483000000000000
B0451523206848S11657545EA0142901482000004000000
B0451563206882S11657602EA0142301477000000000000
B0452003206916S11657659EA0142001470000000000000
B0452043206949S11657716EA0141201461000000000000
B0452083206982S11657772EA0140401456000000000000
B0452123207009S11657829EA0140401456000000000000
B0452163207030S11657887EA0140001449000004000000
B0452203207064S11657940EA0139001438000004000000
B0452243207099S11657993EA0138301433000004000000
B0452283207131S11658048EA0138101432000000000000
B0452323207164S11658100EA0137801428000000000000
B0452363207198S11658151EA0137401422000004000000
B0452403207230S11658204EA0136501415000004000000
B0452443207255S11658261EA0136001410000004000000
B0452483207274S11658320EA0136001412000004000000
B0452523207293S11658374EA0136001412000004000000
B0452563207312S11658429EA0135901407000004000000
B0453003207329S11658487EA0135601406000004000000
B0453043207346S11658544EA0135701406000004000000
B0453083207369S11658596EA0135401404000004000000
B0453123207393S11658647EA0135401405000004000000
B0453163207420S11658694EA0135601409000000000000
B0453203207453S11658733EA0136401418000000000000
B0453243207499S11658738EA0136601415000000000000
B0453283207521S11658669EA0136201411000000000000
B0453323207482S11658602EA0135601406000000000000
B0453363207421S11658602EA0135001397000000000000
B0453403207391S11658652EA0134801402000000000000
B0453443207380S11658708EA0135301406000000000000
B0453483207398S11658752EA0135401406000000000000
B0453523207437S11658780EA0134501395000000000000
B0453563207489S11658795EA0133201381000000000000
B0454003207545S11658811EA0132101372000000000000
B0454043207605S11658821EA0131201360000004000000
B0454083207667S11658829EA0130301353000004000000
B0454123207729S11658817EA0130201355000004000000
B0454163207792S11658802EA0130401356000004000000
B0454203207856S11658780EA0130001352000004000000
B0454243207917S11658773EA0130001354000000000000
B0454283207966S11658790EA0130301356000000000000
B0454323208000S11658827EA0130101352000004000000
B0454363208017S11658875EA0129401345000000000000
B0454403208032S11658925EA0128601336000000000000
B0454443208045S11658979EA0128101334000000000000
B0454483208047S11659037EA0128501337000004000000
B0454523208051S11659096EA0128401334000004000000
B0454563208058S11659153EA0128501336000004000000
B0455003208077S11659207EA0128201332000000000000
B0455043208100S11659263EA0127501322000000000000
B0455083208130S11659321EA0126801318000000000000
B0455123208166S11659369EA0126801321000004000000
B0455163208201S11659414EA0127201324000004000000
B0455203208235S11659457EA0128001337000004000000
B0455243208269S11659483EA0129301346000004000000
B0455283208309S11659435EA0129301340000004000000
B0455323208285S11659350EA0128601337000004000000
B0455363208218S11659322EA0129001344000004000000
B0455403208162S11659344EA0129201343000004000000
B0455443208139S11659396EA0128901337000004000000
B0455483208153S11659451EA0128401334000004015000
B0455523208187S11659500EA0128501340000004000000
B0455563208218S11659547EA0129501349000000000000
B0456003208255S11659594EA0129101342000000000000
B0456043208292S11659642EA0129101344000000000000
B0456083208326S11659691EA0128701342000000000000
B0456123208359S11659744EA0128301331000000000000
B0456163208390S11659798EA0127201320000004000000
B0456203208430S11659846EA0126001306000000000000
B0456243208460S11659902EA0124801299000000000000
B0456283208467S11659967EA0125201308000000000000
B0456323208472S11700029EA0125601307000000000000
B0456363208486S11700093EA0124401293000004000000
B0456403208508S11700156EA0123601288000004000000
B0456443208533S11700218EA0123301284000004000000
B0456483208573S11700259EA0123301287000004000000
B0456523208629S11700249EA0123601289000000000000
B0456563208671S11700190EA0123601291000000015000
B0457003208678S11700110EA0124201298000000015000
B0457043208625S11700056EA0124501294000004015000
B0457083208565S11700062EA0123801290000000015000
B0457123208538S11700108EA0123201285000004015000
B0457163208550S11700162EA0122101276000000015000
B0457203208577S11700214EA0120801261000004015000
B0457243208613S11700264EA0119601251000004015000
B0457283208664S11700296EA0119501253000004015000
B0457323208724S11700302EA0119501252000004000000
B0457363208788S11700279EA0119101246000000000000
B0457403208840S11700218EA0119601262000000000000
B0457443208810S11700143EA0121901282000004000000
B0457483208751S11700146EA0122401281000000015000
B0457523208734S11700202EA0122601286000004015000
B0457563208779S11700223EA0123501297000004015000
B0458003208814S11700168EA0124701308000004015000
B0458043208781S11700098EA0125501312000004015000
B0458083208720S11700085EA0125301307000004015000
B0458123208691S11700136EA0125501314000004015000
B0458163208727S11700172EA0126301324000004030000
B0458203208773S11700134EA0127401335000004030000
B0458243208769S11700058EA0128301343000004015000
B0458283208716S11700019EA0128901347000004015000
B0458323208668S11700045EA0129301354000000015000
B0458363208668S11700093EA0130401358000004015000
B0458403208714S11700101EA0130901358000000015000
B0458443208759S11700054EA0131201364000000015000
B0458483208764S11659976EA0132201373000000015000
B0458523208720S11659920EA0132501372000004015000
B0458563208667S11659941EA0132301372000000015000
B0459003208671S11659990EA0132901387000000015000
B0459043208721S11659981EA0133801390000004015000
B0459083208742S11659903EA0133901393000000015000
B0459123208693S11659851EA0134801403000004015000
B0459163208649S11659880EA0135101408000004015000
B0459203208649S11659932EA0135601411000004015000
B0459243208693S11659952EA0136001414000000015000
B0459283208733S11659894EA0136501419000000015000
B0459323208707S11659816EA0137101427000000015000
B0459363208650S11659808EA0138101439000000015000
B0459403208630S11659855EA0138701444000004015000
B0459443208673S11659878EA0138901446000000015000
B0459483208719S11659820EA0139701457000000015000
B0459523208699S11659740EA0141201468000000015000
B0459563208646S11659724EA0141601472000004015000
B0500003208624S11659769EA0141601474000004015000
B0500043208656S11659804EA0142201476000004015000
B0500083208707S11659764EA0143001483000004015000
B0500123208699S11659686EA0143901494000004015000
B0500163208646S11659659EA0144201493000004015000
B0500203208617S11659698EA0144501500000000015000
B0500243208647S11659731EA0145201503000000015000
B0500283208701S11659712EA0145601508000004015000
B0500323208724S11659643EA0146701520000004015000
B0500363208682S11659591EA0146801514000004015000
B0500403208638S11659622EA0146201513000004015000
B0500443208649S11659677EA0146601516000004015000
B0500483208706S11659677EA0147501523000004015000
B0500523208732S11659604EA0148301529000004015000
B0500563208691S11659542EA0148701536000004015000
B0501003208642S11659558EA0149401542000004015000
B0501043208658S11659605EA0149701547000004015000
B0501083208711S11659592EA0150201549000004015000
B0501123208733S11659519EA0150401551000004015000
B0501163208699S11659452EA0150701558000004015000
B0501203208643S11659438EA0151301560000000015000
B0501243208623S11659482EA0151501562000000015000
B0501283208659S11659512EA0151801566000000015000
B0501323208711S11659484EA0152101567000000015000
B0501363208732S11659412EA0152101564000004015000
B0501403208701S11659339EA0151901566000000015000
B0501443208645S11659322EA0151901567000000015000
B0501483208606S11659357EA0151801569000000015000
B0501523208623S11659406EA0151801569000000015000
B0501563208675S11659422EA0151801570000000015000
B0502003208727S11659375EA0151701566000000015000
B0502043208736S11659293EA0151501564000000015000
B0502083208695S11659223EA0151101560000000015000
B0502123208637S11659172EA0150701557000000015000
B0502163208580S11659115EA0150401552000000000000
B0502203208521S11659054EA0149501543000004000000
B0502243208456S11658990EA0148401532000004000000
B0502283208387S11658928EA0147401524000000000000
B0502323208318S11658864EA0147101522000000000000
B0502363208256S11658790EA0147101523000000000000
B0502403208204S11658712EA0147001521000000000000
B0502443208155S11658632EA0146601521000000000000
B0502483208104S11658554EA0146601521000000000000
B0502523208054S11658476EA0146701525000004000000
B0502563208005S11658398EA0146901527000004000000
B0503003207957S11658320EA0146801523000000000000
B0503043207910S11658235EA0145801512000000000000
B0503083207866S11658143EA0144801503000004000000
B0503123207826S11658043EA0144401498000000000000
B0503163207788S11657943EA0144101495000004000000
B0503203207753S11657844EA0143801494000000000000
B0503243207720S11657748EA0143501486000004000000
B0503283207684S11657650EA0142501478000004000000
B0503323207649S11657556EA0142701484000004000000
B0503363207614S11657465EA0142401478000000000000
B0503403207579S11657374EA0141701470000000000000
B0503443207545S11657281EA0141201466000000000000
B0503483207508S11657186EA0140701457000000000000
B0503523207468S11657090EA0139301445000004000000
B0503563207425S11656992EA0138301434000004000000
B0504003207381S11656896EA0137001419000000000000
B0504043207321S11656812EA0135901410000000000000
B0504083207254S11656741EA0135601407000000000000
B0504123207182S11656679EA0134901399000000000000
B0504163207109S11656624EA0134101392000000000000
B0504203207030S11656575EA0133201382000000000000
B0504243206949S11656531EA0132401372000000000000
B0504283206865S11656493EA0131401360000000000000
B0504323206778S11656468EA0130201348000004000000
B0504363206689S11656453EA0128601333000004000000
B0504403206600S11656442EA0127501323000000000000
B0504443206510S11656433EA0126501314000000000000
B0504483206418S11656424EA0125701306000000000000
B0504523206325S11656418EA0126101314000000000000
B0504563206241S11656415EA0127301330000004000000
B0505003206162S11656407EA0127901330000000000000
B0505043206084S11656396EA0127401325000000000000
B0505083206002S11656380EA0126601314000000000000
B0505123205920S11656357EA0126301316000004000000
B0505163205838S11656333EA0126201310000004000000
B0505203205755S11656307EA0125701304000004000000
B0505243205666S11656280EA0125101304000004000000
B0505283205582S11656243EA0127201330000004000000
B0505323205526S11656269EA0129501346000000000000
B0505363205552S11656306EA0131001363000004000000
B0505403205596S11656264EA0131901369000004000000
B0505443205597S11656176EA0132401375000004000000
B0505483205552S11656110EA0133401383000004015000
B0505523205499S11656121EA0133701383000004015000
B0505563205506S11656167EA0134301394000000015000
B0506003205553S11656159EA0135001403000000015000
B0506043205579S11656085EA0135801411000000015000
B0506083205549S11656003EA0136701417000000015000
B0506123205483S11655954EA0136401408000000015000
B0506163205408S11655918EA0135901408000000015000
B0506203205330S11655889EA0135801404000000000000
B0506243205246S11655865EA0135301396000000000000
B0506283205162S11655851EA0134301385000000000000
B0506323205076S11655846EA0133401381000000000000
B0506363204989S11655844EA0132701371000004000000
B0506403204898S11655847EA0131901367000004000000
B0506443204807S11655844EA0132901380000004000000
B0506483204721S11655826EA0134101391000004000000
B0506523204637S11655809EA0134401396000004000000
B0506563204552S11655801EA0134501390000000000000
B0507003204464S11655801EA0133901386000000000000
B0507043204374S11655804EA0133101373000004000000
B0507083204281S11655804EA0131601362000000000000
B0507123204184S11655804EA0130701355000000000000
B0507163204091S11655803EA0131201366000000000000
B0507203204023S11655837EA0133801392000000000000
B0507243204000S11655900EA0135201405000004000000
B0507283203954S11655952EA0135901411000000000000
B0507323203888S11655973EA0136801423000000000000
B0507363203818S11655964EA0137801431000000000000
B0507403203749S11655939EA0137201414000004000000
B0507443203666S11655929EA0134001381000004000000
B0507483203572S11655925EA0131901366000004000000
B0507523203480S11655921EA0130801357000004000000
B0507563203390S11655917EA0130401354000004000000
B0508003203304S11655913EA0130401356000004000000
B0508043203221S11655911EA0130301350000004000000
B0508083203137S11655911EA0128801332000000000000
B0508123203047S11655911EA0127101315000000000000
B0508163202958S11655908EA0126601316000000000000
B0508203202873S11655900EA0126901318000004000000
B0508243202793S11655890EA0128001331000004000000
B0508283202721S11655892EA0129501344000004000000
B0508323202693S11655943EA0131101360000004000000
B0508363202744S11655955EA0132901382000000000000
B0508403202773S11655887EA0134401394000000015000
B0508443202739S11655820EA0135201399000000015000
B0508483202684S11655814EA0135401403000000015000
B0508523202662S11655859EA0135801407000004015000
B0508563202689S11655902EA0136601412000004015000
B0509003202741S11655861EA0137801423000004015000
B0509043202718S11655783EA0139101439000000015000
B0509083202665S11655777EA0140201449000000015000
B0509123202652S11655820EA0140701451000000015000
B0509163202693S11655842EA0141501463000000015000
B0509203202736S11655788EA0142201467000000015000
B0509243202719S11655705EA0142501474000000015000
B0509283202666S11655656EA0143501483000000015000
B0509323202600S11655623EA0142701467000000015000
B0509363202522S11655592EA0141901462000000015000
B0509403202438S11655571EA0141701458000000000000
B0509443202353S11655560EA0140801452000000000000
B0509483202271S11655551EA0142201475000000000000
B0509523202193S11655548EA0143701494000000000000
B0509563202117S11655544EA0145101503000000000000
B0510003202041S11655541EA0145301503000004000000
B0510043201963S11655543EA0145101501000000000000
B0510083201881S11655541EA0144701494000004000000
B0510123201794S11655535EA0143401479000000000000
B0510163201703S11655521EA0142101466000000000000
B0510203201610S11655506EA0140801453000000000000
B0510243201515S11655497EA0139301437000000000000
B0510283201421S11655489EA0138301425000000000000
B0510323201323S11655478EA0137001414000000000000
B0510363201228S11655467EA0136001404000000000000
B0510403201132S11655454EA0135601401000000000000
B0510443201041S11655444EA0136701425000000000000
B0510483200958S11655443EA0139101447000000000000
B0510523200885S11655404EA0141101471000000000000
B0510563200851S11655323EA0142501473000000000000
B0511003200881S11655246EA0141801461000000000000
B0511043200943S11655241EA0141001460000004000000
B0511083200975S11655285EA0141301464000000000000
B0511123200984S11655343EA0141401462000004000000
B0511163200992S11655402EA0141701473000004000000
B0511203201006S11655456EA0143601494000000000000
B0511243201057S11655462EA0145201504000004000000
B0511283201086S11655387EA0146001512000004015000
B0511323201055S11655317EA0146601516000004015000
B0511363201008S11655320EA0146901518000004015000
B0511403201015S11655361EA0147801530000000015000
B0511443201064S11655361EA0148501529000000015000
B0511483201110S11655294EA0148501535000000015000
B0511523201120S11655206EA0148901533000000015000
B0511563201088S11655129EA0147701519000000015000
B0512003201024S11655086EA0146401508000000015000
B0512043200950S11655049EA0145301497000000015000
B0512083200871S11655015EA0144801493000000000000
B0512123200787S11654986EA0144801499000004000000
B0512163200706S11654956EA0145001498000004000000
B0512203200618S11654921EA0144301485000000000000
B0512243200525S11654886EA0142601465000000000000
B0512283200426S11654850EA0141701467000000000000
B0512323200330S11654820EA0143001485000000000000
B0512363200248S11654824EA0145101505000000000000
B0512403200170S11654828EA0145101491000000000000
B0512443200080S11654810EA0142901463000000000000
B0512483159984S11654780EA0140801451000000000000
B0512523159888S11654746EA0139601437000000000000
B0512563159793S11654712EA0139001434000000000000
B0513003159701S11654677EA0138801436000004000000
B0513043159615S11654637EA0139301440000004000000
B0513083159528S11654602EA0138901436000004000000
B0513123159438S11654574EA0139301443000000000000
B0513163159350S11654547EA0139901450000004000000
B0513203159261S11654521EA0139401431000004000000
B0513243159166S11654499EA0136801413000004000000
B0513283159073S11654477EA0136201411000004000000
B0513323158982S11654453EA0135701403000004000000
B0513363158888S11654430EA0134901394000004000000
B0513403158795S11654407EA0134201388000004000000
B0513443158700S11654379EA0133201376000000000000
B0513483158603S11654347EA0131901366000000000000
B0513523158507S11654314EA0130701354000000000000
B0513563158416S11654286EA0131101364000000000000
B0514003158329S11654257EA0131501365000000000000
B0514043158242S11654227EA0131401366000004000000
B0514083158154S11654199EA0131201354000004000000
B0514123158061S11654171EA0130201345000004000000
B0514163157968S11654149EA0129201336000004000000
B0514203157873S11654134EA0128201325000004000000
B0514243157775S11654119EA0127101313000004000000
B0514283157677S11654108EA0125801298000004000000
B0514323157578S11654102EA0124801293000000000000
B0514363157483S11654098EA0125101295000004000000
B0514403157392S11654095EA0124501285000004000000
B0514443157298S11654089EA0123201273000004000000
B0514483157203S11654088EA0121601254000004000000
B0514523157106S11654085EA0120201241000004000000
B0514563157008S11654079EA0119401236000004000000
B0515003156916S11654072EA0119101235000004000000
B0515043156828S11654066EA0118301225000000000000
B0515083156741S11654059EA0117601218000000000000
B0515123156655S11654053EA0117101214000004000000
B0515163156570S11654044EA0116701210000004000000
B0515203156486S11654031EA0116201202000004000000
B0515243156401S11654018EA0115201191000004000000
B0515283156313S11654005EA0114601191000004000000
B0515323156226S11653989EA0115801206000000000000
B0515363156167S11654030EA0117701227000000000000
B0515403156191S11654076EA0120101256000000000000
B0515443156239S11654053EA0122301272000000000000
B0515483156254S11653984EA0123001274000004000000
B0515523156215S11653928EA0123001276000000015000
B0515563156161S11653937EA0123101276000000015000
B0516003156136S11653991EA0123401283000000015000
B0516043156159S11654032EA0125001300000000015000
B0516083156202S11653994EA0127001321000000015000
B0516123156188S11653920EA0128301332000004015000
B0516163156130S11653900EA0128901335000004015000
B0516203156100S11653944EA0129601350000000015000
B0516243156135S11653972EA0131601367000000015000
B0516283156172S11653928EA0133301384000000015000
B0516323156161S11653853EA0134201394000000015000
B0516363156104S11653812EA0134901397000000015000
B0516403156055S11653842EA0135801415000004015000
B0516443156075S11653887EA0137601429000000015000
B0516483156124S11653866EA0138901443000000015000
B0516523156126S11653790EA0140501458000000015000
B0516563156075S11653741EA0141501466000000015000
B0517003156022S11653755EA0142701484000000015000
B0517043156014S11653805EA0144201491000000015000
B0517083156059S11653819EA0145001500000004015000
B0517123156097S11653768EA0146201514000004015000
B0517163156075S11653698EA0147401523000004015000
B0517203156015S11653680EA0147801526000004015000
B0517243155984S11653728EA0148901537000004015000
B0517283156020S11653760EA0149601547000004015000
B0517323156067S11653719EA0150901559000004015000
B0517363156057S11653641EA0151501569000000015000
B0517403155997S11653615EA0152501574000000015000
B0517443155968S11653664EA0153101579000000015000
B0517483156011S11653689EA0153801592000000015000
B0517523156050S11653633EA0155201605000000015000
B0517563156028S11653559EA0156301615000000015000
B0518003155970S11653538EA0156901620000000015000
B0518043155928S11653573EA0157501624000000015000
B0518083155957S11653617EA0157601624000004015000
B0518123156016S11653603EA0158201634000000015000
B0518163156026S11653528EA0159801649000000015000
B0518203155974S11653476EA0160101646000000015000
B0518243155901S11653450EA0159401642000000015000
B0518283155823S11653433EA0159701648000000000000
B0518323155743S11653421EA0160001650000004000000
B0518363155660S11653409EA0159901643000004000000
B0518403155576S11653400EA0159101637000004000000
B0518443155489S11653394EA0158201625000000000000
B0518483155399S11653386EA0156901612000004000000
B0518523155307S11653376EA0155201592000000000000
B0518563155212S11653365EA0153301574000000000000
B0519003155113S11653356EA0151401555000000000000
B0519043155012S11653344EA0149901541000004000000
B0519083154910S11653334EA0149001533000004000000
B0519123154811S11653322EA0148701533000004000000
B0519163154718S11653308EA0148601531000000000000
B0519203154624S11653295EA0147801521000004000000
B0519243154531S11653283EA0146701508000004000000
B0519283154436S11653270EA0145801502000000000000
B0519323154342S11653257EA0145401499000004000000
B0519363154251S11653243EA0145301500000000000000
B0519403154164S11653230EA0145001492000004000000
B0519443154077S11653216EA0144501490000004000000
B0519483153991S11653203EA0144201487000004000000
B0519523153905S11653187EA0143801484000000000000
B0519563153822S11653168EA0143301476000000000000
B0520003153740S11653144EA0142701473000004000000
B0520043153661S11653121EA0142201466000000000000
B0520083153580S11653099EA0141401457000000000000
B0520123153501S11653078EA0140101443000000000000
B0520163153418S11653058EA0139201432000000000000
B0520203153332S11653038EA0137901421000000000000
B0520243153247S11653017EA0137101412000000000000
B0520283153160S11652996EA0136101401000000000000
B0520323153072S11652975EA0134801389000004000000
B0520363152982S11652956EA0133901382000004000000
B0520403152896S11652936EA0134101387000004000000
B0520443152816S11652919EA0134401388000004000000
B0520483152737S11652906EA0133801378000004000000
B0520523152657S11652889EA0132701367000000000000
B0520563152574S11652871EA0131301354000000000000
B0521003152488S11652854EA0130901358000000000000
B0521043152408S11652835EA0132301374000000000000
B0521083152331S11652817EA0133001374000000000000
B0521123152263S11652832EA0132901370000000000000
B0521163152226S11652891EA0131801357000000000000
B0521203152193S11652957EA0129701334000000000000
B0521243152133S11653010EA0127901308000000000000
B0521283152051S11653035EA0125801292000004000000
B0521323151962S11653036EA0124001275000004000000
B0521363151868S11653023EA0122501260000000000000
B0521403151776S11653001EA0120801243000004000000
B0521443151681S11652977EA0119501231000000000000
B0521483151590S11652949EA0118901230000004000000
B0521523151502S11652922EA0118601228000000000000
B0521563151412S11652902EA0117701210000000000000
B0522003151321S11652883EA0116301198000000000000
B0522043151230S11652860EA0115101187000000000000
B0522083151140S11652834EA0114101176000004000000
B0522123151050S11652808EA0112701159000000000000
B0522163150961S11652783EA0111201148000000000000
B0522203150872S11652757EA0110501143000004000000
B0522243150785S11652731EA0109801135000000000000
B0522283150697S11652702EA0109201128000000000000
B0522323150608S11652678EA0108301115000000000000
B0522363150519S11652655EA0107001102000000000000
B0522403150429S11652632EA0105801094000000000000
B0522443150341S11652606EA0105801098000000000000
B0522483150254S11652583EA0106601107000000000000
B0522523150170S11652580EA0108301123000000000000
B0522563150131S11652639EA0110001145000000000000
B0523003150170S11652674EA0111601156000000000000
B0523043150215S11652633EA0112101162000000015000
B0523083150211S11652563EA0112701169000000015000
B0523123150165S11652506EA0112901170000000015000
B0523163150098S11652510EA0113101171000000015000
B0523203150078S11652567EA0113801179000000015000
B0523243150127S11652580EA0114001173000000015000
B0523283150157S11652516EA0113501176000000015000
B0523323150144S11652437EA0113901182000000015000
B0523363150120S11652355EA0114401186000000015000
B0523403150081S11652277EA0115701202000000000000
B0523443150012S11652260EA0117401217000000000000
B0523483150000S11652314EA0118901234000000015000
B0523523150044S11652312EA0120501250000000015000
B0523563150048S11652243EA0121901264000000015000
B0524003149991S11652195EA0123001274000000015000
B0524043149938S11652225EA0124601292000000015000
B0524083149955S11652269EA0126301313000000015000
B0524123149996S11652252EA0127901322000000015000
B0524163149996S11652184EA0129301337000000015000
B0524203149940S11652138EA0130301346000004015000
B0524243149884S11652161EA0131501364000004015000
B0524283149883S11652212EA0132801371000004015000
B0524323149929S11652213EA0133601382000004015000
B0524363149939S11652143EA0134701390000000015000
B0524403149886S11652091EA0135901406000004015000
B0524443149832S11652117EA0137501418000000015000
B0524483149847S11652160EA0138201425000000015000
B0524523149892S11652135EA0139201440000004015000
B0524563149890S11652063EA0140501450000000015000
B0525003149830S11652024EA0141601462000004015000
B0525043149780S11652051EA0142401467000000015000
B0525083149793S11652094EA0143101478000000015000
B0525123149840S11652085EA0144101486000000015000
B0525163149870S11652024EA0144601493000000015000
B0525203149849S11651947EA0145601503000000015000
B0525243149788S11651951EA0146401503000000015000
B0525283149784S11652009EA0146501513000004015000
B0525323149827S11652013EA0148001527000004015000
B0525363149852S11651951EA0148501530000004015000
B0525403149815S11651881EA0149601550000004015000
B0525443149757S11651873EA0151301563000004015000
B0525483149727S11651916EA0151601560000004015000
B0525523149740S11651961EA0151301558000000015000
B0525563149784S11651979EA0151601560000000015000
B0526003149831S11651934EA0151901565000004015000
B0526043149834S11651849EA0153401586000004015000
B0526083149782S11651788EA0154401591000004015000
B0526123149705S11651756EA0153901579000004015000
B0526163149618S11651729EA0152301561000000015000
B0526203149526S11651704EA0150601547000004015000
B0526243149432S11651678EA0149701539000004000000
B0526283149340S11651652EA0148901530000004000000
B0526323149249S11651626EA0148501531000004000000
B0526363149160S11651597EA0149201536000000000000
B0526403149071S11651565EA0150101549000004000000
B0526443148986S11651539EA0152201571000000000000
B0526483148905S11651518EA0152701573000000000000
B0526523148822S11651493EA0151801552000000000000
B0526563148733S11651459EA0149501534000000000000
B0527003148642S11651423EA0148901532000000000000
B0527043148554S11651391EA0149301543000004000000
B0527083148471S11651361EA0149701540000004000000
B0527123148388S11651335EA0149101534000004000000
B0527163148304S11651309EA0148401526000004000000
B0527203148216S11651281EA0147601515000004000000
B0527243148125S11651261EA0146701508000004000000
B0527283148037S11651250EA0147401526000004000000
B0527323147960S11651254EA0149501545000004000000
B0527363147919S11651298EA0151101555000000000000
B0527403147927S11651353EA0151201550000000000000
B0527443147951S11651404EA0150801551000000000000
B0527483147988S11651440EA0151501561000004000000
B0527523148038S11651441EA0152101566000004000000
B0527563148076S11651394EA0153101574000004000000
B0528003148058S11651315EA0153301575000004015000
B0528043148020S11651241EA0153501582000004015000
B0528083147976S11651168EA0153801582000000000000
B0528123147924S11651094EA0153301577000000000000
B0528163147868S11651017EA0153001571000000000000
B0528203147804S11650937EA0151701554000000000000
B0528243147724S11650867EA0150201539000000000000
B0528283147635S11650817EA0149201536000004000000
B0528323147546S11650786EA0149301533000004000000
B0528363147455S11650763EA0148001518000004000000
B0528403147361S11650746EA0146901510000004000000
B0528443147269S11650729EA0146401508000000000000
B0528483147175S11650709EA0146301506000000000000
B0528523147080S11650687EA0146001502000004000000
B0528563146983S11650661EA0145401496000000000000
B0529003146885S11650633EA0145401499000004000000
B0529043146789S11650607EA0145801503000004000000
B0529083146689S11650583EA0145501497000004000000
B0529123146588S11650559EA0145001493000000000000
B0529163146485S11650523EA0144201481000000000000
B0529203146381S11650484EA0142701469000000000000
B0529243146279S11650444EA0142301466000000000000
B0529283146181S11650404EA0142201466000000000000
B0529323146086S11650365EA0142501475000000000000
B0529363145996S11650330EA0143801489000000000000
B0529403145910S11650293EA0144401494000000000000
B0529443145828S11650262EA0145001494000000000000
B0529483145743S11650234EA0144401490000000000000
B0529523145654S11650204EA0143201469000000000000
B0529563145559S11650175EA0141401455000000000000
B0530003145466S11650145EA0140601448000004000000
B0530043145375S11650117EA0139701438000004000000
B0530083145282S11650089EA0138601425000000000000
B0530123145191S11650068EA0137801418000000000000
B0530163145103S11650046EA0137501416000000000000
B0530203145016S11650023EA0137501419000000000000
B0530243144930S11650000EA0138101430000000000000
B0530283144847S11649975EA0138601429000000000000
B0530323144757S11649951EA0137601415000000000000
B0530363144662S11649923EA0137001413000000000000
B0530403144567S11649892EA0137501421000004000000
B0530443144483S11649881EA0140501455000004000000
B0530483144467S11649928EA0143001473000004000000
B0530523144518S11649919EA0143301476000004015000
B0530563144552S11649847EA0144401500000000015000
B0531003144511S11649785EA0146601518000000015000
B0531043144463S11649805EA0147901527000000015000
B0531083144465S11649850EA0148401529000000015000
B0531123144509S11649859EA0149101541000000015000
B0531163144534S11649794EA0150401554000004015000
B0531203144496S11649728EA0151601565000004015000
B0531243144432S11649727EA0152401573000004015000
B0531283144414S11649775EA0153601586000004015000
B0531323144453S11649788EA0155001603000004015000
B0531363144479S11649725EA0156201613000004015000
B0531403144441S11649656EA0157601629000004015000
B0531443144381S11649646EA0158701640000004015000
B0531483144357S11649684EA0159401641000000015000
B0531523144397S11649710EA0159301644000004015000
B0531563144450S11649684EA0161201668000004015000
B0532003144457S11649613EA0162901679000004015000
B0532043144402S11649567EA0163001680000004015000
B0532083144346S11649591EA0163201689000000015000
B0532123144348S11649637EA0165101713000004015000
B0532163144393S11649632EA0167101726000000015000
B0532203144417S11649564EA0167801730000000015000
B0532243144376S11649502EA0168401738000000015000
B0532283144314S11649499EA0168601736000000015000
B0532323144289S11649547EA0169401753000004015000
B0532363144323S11649572EA0171001761000000015000
B0532403144368S11649520EA0171401766000000015000
B0532443144349S11649441EA0172301776000000015000
B0532483144290S11649415EA0172801776000000015000
B0532523144255S11649456EA0173201781000004015000
B0532563144281S11649494EA0174101795000004015000
B0533003144331S11649467EA0175201802000000015000
B0533043144342S11649390EA0175601808000000015000
B0533083144305S11649322EA0176101807000000030000
B0533123144236S11649286EA0173801779000000015000
B0533163144149S11649255EA0172301765000000015000
B0533203144055S11649221EA0171401761000004015000
B0533243143958S11649195EA0170301747000004015000
B0533283143858S11649170EA0169201737000004015000
B0533323143757S11649143EA0168401734000004000000
B0533363143663S11649112EA0168801736000004000000
B0533403143569S11649079EA0168401731000004000000
B0533443143475S11649047EA0168301732000004000000
B0533483143386S11649010EA0168301731000004000000
B0533523143300S11648976EA0167801726000004000000
B0533563143213S11648944EA0167301717000004000000
B0534003143126S11648910EA0166201707000004000000
B0534043143036S11648880EA0165301699000000000000
B0534083142948S11648848EA0164401690000000000000
B0534123142858S11648814EA0163301678000004000000
B0534163142766S11648781EA0162501670000004000000
B0534203142676S11648750EA0162101668000004000000
B0534243142589S11648718EA0162101666000004000000
B0534283142506S11648683EA0162101674000004000000
B0534323142424S11648649EA0162801677000000000000
B0534363142343S11648610EA0162501672000000000000
B0534403142260S11648575EA0162101667000004000000
B0534443142173S11648540EA0161401657000000000000
B0534483142083S11648502EA0160101647000000000000
B0534523141996S11648464EA0160001651000000000000
B0534563141910S11648428EA0160101649000000000000
B0535003141824S11648391EA0159801647000000000000
B0535043141737S11648354EA0159701645000000000000
B0535083141649S11648319EA0159701647000000000000
B0535123141559S11648282EA0159401642000000000000
B0535163141466S11648246EA0158701634000004000000
B0535203141373S11648207EA0158401634000004000000
B0535243141287S11648168EA0158401633000004000000
B0535283141203S11648131EA0158201631000000000000
B0535323141121S11648099EA0158201633000000000000
B0535363141042S11648064EA0158101629000004000000
B0535403140962S11648027EA0157801626000004000000
B0535443140883S11647991EA0157301620000000000000
B0535483140803S11647952EA0156701614000000000000
B0535523140719S11647910EA0156001610000000000000
B0535563140639S11647869EA0156601619000004000000
B0536003140559S11647829EA0157601629000004000000
B0536043140484S11647791EA0157801628000004000000
B0536083140407S11647754EA0157701625000000000000
B0536123140328S11647715EA0157501623000000000000
B0536163140247S11647675EA0156901614000000000000
B0536203140168S11647639EA0157201626000000000000
B0536243140093S11647604EA0158101632000000000000
B0536283140017S11647580EA0159301646000000000000
B0536323139947S11647579EA0161101665000000000000
B0536363139924S11647630EA0163201686000000000000
B0536403139961S11647650EA0164301689000000000000
B0536443139998S11647601EA0163901684000000015000
B0536483139978S11647530EA0163901688000000015000
B0536523139920S11647504EA0164401692000000015000
B0536563139863S11647518EA0165501706000000015000
B0537003139865S11647566EA0166101700000000015000
B0537043139919S11647559EA0165301699000000015000
B0537083139948S11647498EA0166401711000004015000
B0537123139926S11647427EA0166801713000000015000
B0537163139877S11647366EA0166601709000004015000
B0537203139803S11647328EA0165801699000000015000
B0537243139717S11647299EA0165101695000000015000
B0537283139626S11647273EA0164401680000000000000
B0537323139530S11647245EA0162901668000000000000
B0537363139434S11647219EA0162401667000000000000
B0537403139343S11647205EA0162701668000000000000
B0537443139253S11647194EA0161901660000004000000
B0537483139162S11647180EA0161001650000000000000
B0537523139070S11647158EA0160001641000004000000
B0537563138979S11647132EA0159501636000000000000
B0538003138889S11647102EA0158601626000004000000
B0538043138797S11647069EA0157801614000004000000
B0538083138703S11647042EA0156701604000004000000
B0538123138608S11647024EA0155701593000004000000
B0538163138513S11647008EA0154601581000004000000
B0538203138417S11646993EA0152901562000004000000
B0538243138318S11646978EA0151701558000000000000
B0538283138222S11646964EA0152201566000000000000
B0538323138130S11646947EA0153001573000000000000
B0538363138039S11646926EA0153101574000000000000
B0538403137953S11646907EA0153701582000000000000
B0538443137868S11646889EA0153701574000000000000
B0538483137780S11646872EA0152201558000000000000
B0538523137689S11646851EA0151501553000000000000
B0538563137597S11646825EA0150601544000004000000
B0539003137503S11646791EA0149901539000004000000
B0539043137412S11646755EA0150301546000000000000
B0539083137330S11646718EA0151601561000004000000
B0539123137255S11646678EA0152501565000004000000
B0539163137177S11646635EA0151701556000004000000
B0539203137091S11646595EA0150601538000004000000
B0539243137001S11646552EA0149201530000004000000
B0539283136916S11646506EA0149201534000004000000
B0539323136834S11646471EA0149801540000004000000
B0539363136754S11646443EA0149901537000004000000
B0539403136675S11646425EA0149201528000004000000
B0539443136594S11646418EA0148301520000004000000
B0539483136515S11646418EA0147401510000004000000
B0539523136435S11646421EA0146501502000000000000
B0539563136355S11646426EA0145901493000000000000
B0540003136275S11646432EA0144801482000004000000
B0540043136193S11646439EA0143901475000004000000
B0540083136111S11646444EA0143401469000004000000
B0540123136030S11646449EA0142301459000000000000
B0540163135950S11646456EA0141301450000004000000
B0540203135870S11646464EA0140401439000004000000
B0540243135790S11646471EA0139501431000004000000
B0540283135710S11646475EA0139001422000000000000
B0540323135631S11646480EA0137401405000000000000
B0540363135549S11646486EA0136501400000000000000
B0540403135469S11646487EA0136001397000000000000
B0540443135388S11646483EA0136401404000000000000
B0540483135309S11646477EA0137301413000000000000
B0540523135232S11646453EA0138501430000000000000
B0540563135170S11646400EA0140001440000000000000
B0541003135119S11646335EA0140201437000000000000
B0541043135064S11646275EA0140301439000004000000
B0541083135002S11646231EA0139601424000000000000
B0541123134925S11646207EA0137201399000000000000
B0541163134838S11646194EA0135401385000000000000
B0541203134748S11646191EA0135201390000000000000
B0541243134660S11646189EA0135501386000000000000
B0541283134572S11646191EA0134201371000000000000
B0541323134483S11646193EA0133101363000000000000
B0541363134397S11646197EA0132201353000000000000
B0541403134312S11646201EA0131601348000004000000
B0541443134230S11646207EA0131301348000000000000
B0541483134148S11646218EA0130901337000000000000
B0541523134063S11646231EA0129401324000004000000
B0541563133979S11646239EA0129501331000004000000
B0542003133898S11646243EA0129401323000000000000
B0542043133816S11646248EA0128001302000000000000
B0542083133732S11646257EA0126201290000000000000
B0542123133651S11646265EA0125201280000000000000
B0542163133572S11646276EA0124101269000000000000
B0542203133494S11646289EA0123201262000000000000
B0542243133419S11646304EA0122501257000000000000
B0542283133347S11646327EA0121901250000000000000
B0542323133274S11646353EA0121101240000004000000
B0542363133200S11646379EA0120101231000000000000
B0542403133125S11646404EA0119201221000004000000
B0542443133052S11646427EA0118301211000004000000
B0542483132978S11646449EA0117101200000004000000
B0542523132904S11646466EA0116201194000004000000
B0542563132832S11646482EA0115701190000004000000
B0543003132761S11646496EA0114701178000004000000
B0543043132688S11646513EA0113901171000004000000
B0543083132616S11646527EA0113201164000000000000
B0543123132548S11646544EA0113201169000000000000
B0543163132481S11646561EA0113501170000004000000
B0543203132425S11646591EA0114101179000004000000
B0543243132405S11646643EA0115001185000000000000
B0543283132407S11646700EA0114901185000004000000
B0543323132423S11646755EA0115901196000004000000
B0543363132471S11646770EA0116001192000000000000
B0543403132516S11646713EA0116101200000000015000
B0543443132499S11646635EA0116701204000000015000
B0543483132442S11646600EA0116601204000000000000
B0543523132390S11646613EA0116701208000004000000
B0543563132367S11646656EA0117101206000004000000
B0544003132372S11646709EA0115901189000004000000
B0544043132398S11646760EA0115101185000004000000
B0544083132440S11646803EA0114901183000004000000
B0544123132494S11646834EA0115101189000000000000
B0544163132548S11646794EA0117101211000000000000
B0544203132527S11646714EA0118401223000004000000
B0544243132471S11646695EA0119401232000004000000
B0544283132442S11646731EA0119201226000004000000
B0544323132459S11646783EA0118801227000004000000
B0544363132505S11646812EA0120101246000004000000
B0544403132542S11646756EA0122101263000004015000
B0544443132512S11646682EA0122901267000004015000
B0544483132454S11646674EA0124201283000004015000
B0544523132432S11646720EA0125401292000000015000
B0544563132464S11646757EA0126501307000000015000
B0545003132514S11646726EA0127601313000000015000
B0545043132522S11646640EA0127901314000000015000
B0545083132471S11646583EA0128901330000004015000
B0545123132420S11646600EA0130201340000004015000
B0545163132406S11646655EA0130301339000004015000
B0545203132438S11646700EA0131501357000004015000
B0545243132489S11646661EA0132401361000004015000
B0545283132490S11646570EA0132201357000004015000
B0545323132434S11646504EA0132501369000004015000
B0545363132375S11646512EA0134101391000000015000
B0545403132373S11646565EA0135501396000000015000
B0545443132425S11646574EA0136201408000004015000
B0545483132459S11646505EA0137401415000004015000
B0545523132428S11646423EA0137601418000004015000
B0545563132364S11646405EA0138801431000000015000
B0546003132320S11646436EA0139101430000004000000
B0546043132312S11646491EA0138701425000000015000
B0546083132333S11646548EA0137701419000000000000
B0546123132377S11646587EA0138501431000000000000
B0546163132425S11646532EA0139601439000000015000
B0546203132390S11646457EA0140201441000004015000
B0546243132334S11646471EA0140101442000004000000
B0546283132332S11646530EA0140201442000004000000
B0546323132376S11646566EA0140401448000004000000
B0546363132428S11646531EA0141301456000004015000
B0546403132424S11646438EA0141901467000004015000
B0546443132364S11646393EA0143401477000000015000
B0546483132319S11646422EA0143601473000000015000
B0546523132314S11646486EA0142401458000000000000
B0546563132289S11646558EA0141101445000000000000
B0547003132238S11646623EA0139201425000000000000
B0547043132168S11646677EA0137601414000004000000
B0547083132089S11646716EA0136601405000004000000
B0547123132005S11646747EA0135701396000004000000
B0547163131920S11646776EA0134701386000000000000
B0547203131833S11646803EA0134001381000000000000
B0547243131744S11646826EA0133501372000004000000
B0547283131657S11646847EA0132901366000004000000
B0547323131570S11646864EA0131901353000004000000
B0547363131483S11646882EA0130901348000000000000
B0547403131398S11646899EA0130301344000004000000
B0547443131315S11646917EA0130601346000004000000
B0547483131231S11646934EA0130601348000004000000
B0547523131162S11646968EA0131801362000004000000
B0547563131118S11647020EA0132501356000004000000
B0548003131066S11647073EA0130701329000004000000
B0548043130997S11647119EA0128101310000004000000
B0548083130919S11647149EA0127201307000004000000
B0548123130838S11647168EA0126701303000004000000
B0548163130757S11647181EA0126101297000004000000
B0548203130676S11647195EA0125801294000004000000
B0548243130595S11647214EA0125001286000004000000
B0548283130516S11647234EA0124501281000000000000
B0548323130436S11647255EA0124001273000004000000
B0548363130358S11647276EA0123501274000000000000
B0548403130283S11647297EA0123501271000000000000
B0548443130208S11647323EA0122801262000000000000
B0548483130135S11647349EA0122001255000000000000
B0548523130063S11647376EA0121401249000000000000
B0548563129993S11647405EA0120701241000000000000
B0549003129922S11647435EA0119801230000000000000
B0549043129850S11647463EA0118901223000000000000
B0549083129777S11647492EA0118201214000004000000
B0549123129704S11647522EA0117401206000004000000
B0549163129632S11647556EA0116401195000000000000
B0549203129559S11647593EA0115301187000004000000
B0549243129487S11647631EA0115101185000004000000
B0549283129416S11647666EA0114701181000004000000
B0549323129343S11647701EA0114301175000004000000
B0549363129272S11647736EA0114001174000004000000
B0549403129200S11647774EA0114001174000004000000
B0549443129129S11647812EA0114101180000000000000
B0549483129058S11647849EA0115001189000000000000
B0549523128993S11647886EA0115301185000000000000
B0549563128926S11647925EA0113901170000000000000
B0550003128859S11647965EA0113001161000000000000
B0550043128792S11648005EA0112301158000000000000
B0550083128724S11648042EA0112201156000000000000
B0550123128659S11648081EA0111801148000004000000
B0550163128593S11648122EA0110901139000004000000
B0550203128528S11648163EA0110101132000004000000
B0550243128464S11648203EA0109801132000000000000
B0550283128401S11648241EA0109301124000000000000
B0550323128336S11648277EA0108601117000000000000
B0550363128274S11648317EA0108501119000000000000
B0550403128219S11648362EA0108401114000000000000
B0550443128169S11648412EA0107701108000004000000
B0550483128125S11648464EA0107201102000004000000
B0550523128081S11648519EA0106401094000004000000
B0550563128035S11648573EA0105701085000004000000
B0551003127991S11648628EA0105101079000000000000
B0551043127951S11648688EA0104101068000004000000
B0551083127909S11648749EA0103001056000004000000
B0551123127866S11648806EA0102201051000004000000
B0551163127822S11648858EA0101801047000000000000
B0551203127778S11648904EA0101101038000000000000
B0551243127727S11648943EA0100001027000000000000
B0551283127671S11648973EA0099001016000000000000
B0551323127611S11648999EA0098101005000004000000
B0551363127549S11649023EA0097101000000004000000
B0551403127488S11649047EA0096700992000004000000
B0551443127420S11649066EA0096200988000004000000
B0551483127353S11649090EA0095800986000004000000
B0551523127294S11649127EA0096300990000004000000
B0551563127259S11649181EA0096600996000000000000
B0552003127236S11649238EA0097201003000004000000
B0552043127216S11649298EA0097901012000000000000
B0552083127212S11649356EA0098201007000004000000
B0552123127264S11649368EA0097601004000000000000
B0552163127293S11649295EA0097200999000004000000
B0552203127254S11649222EA0096300991000004000000
B0552243127184S11649192EA0096100992000004000000
B0552283127114S11649201EA0096501001000004000000
B0552323127058S11649236EA0097101001000004000000
B0552363127037S11649295EA0096600994000004000000
B0552403127029S11649359EA0095200980000004000000
B0552443127023S11649422EA0094300974000004000000
B0552483127023S11649487EA0094100972000000000000
B0552523127034S11649551EA0093400962000000000000
B0552563127041S11649616EA0093000959000000000000
B0553003127038S11649681EA0092200949000000000000
B0553043127023S11649747EA0091100938000000000000
B0553083126998S11649816EA0090400931000000000000
B0553123126969S11649888EA0090100932000004000000
B0553163126948S11649957EA0090600936000004000000
B0553203126950S11650024EA0090400928000004000000
B0553243126972S11650085EA0089700930000000000000
B0553283126998S11650140EA0090600938000000000000
B0553323127034S11650187EA0091400946000004000000
B0553363127086S11650166EA0092500952000000000000
B0553403127076S11650083EA0092900956000000000000
B0553443127013S11650050EA0092700954000004000000
B0553483126961S11650087EA0093000960000000000000
B0553523126961S11650141EA0093700972000000000000
B0553563127007S11650133EA0095100985000004015000
B0554003127016S11650061EA0096000988000004015000
B0554043126967S11650007EA0096200992000004015000
B0554083126907S11650022EA0096400995000000015000
B0554123126899S11650075EA0097101003000000015000
B0554163126943S11650078EA0098101019000000015000
B0554203126965S11650016EA0099401026000000015000
B0554243126930S11649951EA0099601026000000015000
B0554283126867S11649950EA0099701031000000015000
B0554323126838S11649998EA0100301039000000015000
B0554363126867S11650032EA0100801040000000015000
B0554403126912S11649990EA0101001048000004015000
B0554443126898S11649911EA0102101059000000015000
B0554483126834S11649879EA0102901063000004015000
B0554523126785S11649914EA0103301069000000015000
B0554563126794S11649962EA0104201080000000015000
B0555003126838S11649959EA0105101087000000015000
B0555043126860S11649890EA0105501089000000015000
B0555083126818S11649819EA0106001097000000015000
B0555123126752S11649808EA0107001106000000015000
B0555163126733S11649858EA0108101118000000015000
B0555203126773S11649877EA0108701121000000015000
B0555243126807S11649820EA0109301130000000015000
B0555283126777S11649743EA0109801139000004015000
B0555323126712S11649717EA0110701147000000015000
B0555363126674S11649755EA0112001158000004015000
B0555403126691S11649795EA0112401163000000015000
B0555443126735S11649780EA0112901168000004015000
B0555483126750S11649708EA0113401175000004015000
B0555523126703S11649643EA0114001179000004015000
B0555563126638S11649642EA0115001191000004015000
B0556003126618S11649688EA0116001197000000015000
B0556043126652S11649708EA0116201199000004015000
B0556083126688S11649663EA0116901208000000015000
B0556123126670S11649587EA0117601215000000015000
B0556163126605S11649564EA0118001218000000015000
B0556203126573S11649608EA0118601227000000015000
B0556243126604S11649634EA0119101230000000015000
B0556283126639S11649582EA0119601237000000015000
B0556323126614S11649506EA0120801252000000015000
B0556363126552S11649476EA0122001258000000015000
B0556403126503S11649506EA0122201259000000015000
B0556443126504S11649554EA0122301259000004015000
B0556483126549S11649559EA0122401261000004015000
B0556523126574S11649489EA0123001273000000015000
B0556563126538S11649415EA0124401286000004015000
B0557003126471S11649394EA0125201290000004015000
B0557043126425S11649429EA0125201289000000015000
B0557083126430S11649477EA0125301293000000000000
B0557123126465S11649504EA0125801297000000000000
B0557163126514S11649485EA0126001298000000015000
B0557203126523S11649403EA0126401306000000015000
B0557243126473S11649326EA0127101315000000015000
B0557283126404S11649283EA0128301324000000015000
B0557323126358S11649320EA0128801326000000015000
B0557363126382S11649353EA0129101329000000015000
B0557403126417S11649300EA0128401318000004015000
B0557443126370S11649223EA0128301328000004015000
B0557483126293S11649200EA0128101315000004015000
B0557523126206S11649200EA0126001294000004000000
B0557563126113S11649201EA0124601275000004000000
B0558003126014S11649199EA0122801259000000000000
B0558043125918S11649192EA0121901254000000000000
B0558083125824S11649188EA0121301248000000000000
B0558123125730S11649188EA0120801241000000000000
B0558163125634S11649186EA0119401224000004000000
B0558203125537S11649182EA0118101218000000000000
B0558243125440S11649179EA0118101217000000000000
B0558283125347S11649179EA0117901217000000000000
B0558323125253S11649179EA0117601208000000000000
B0558363125161S11649182EA0116701200000000000000
B0558403125070S11649191EA0115501185000004000000
B0558443124980S11649210EA0114401180000004000000
B0558483124907S11649249EA0116201209000004000000
B0558523124896S11649307EA0119601241000000000000
B0558563124945S11649281EA0121301253000004000000
B0559003124936S11649197EA0122901272000004000000
B0559043124875S11649178EA0124301283000004000000
B0559083124859S11649223EA0125501295000004000000
B0559123124907S11649216EA0126201305000004000000
B0559163124926S11649140EA0127301315000004015000
B0559203124883S11649073EA0128101326000000015000
B0559243124823S11649075EA0129601338000004000000
B0559283124813S11649122EA0130201342000004000000
B0559323124858S11649136EA0130201340000000000000
B0559363124906S11649080EA0130901354000000015000
B0559403124896S11649004EA0132001360000004015000
B0559443124835S11648991EA0132601367000004015000
B0559483124813S11649039EA0133701382000000015000
B0559523124853S11649052EA0135101393000000015000
B0559563124885S11648988EA0135501398000004015000
B0600003124852S11648922EA0135901402000000015000
B0600043124793S11648921EA0136401408000000015000
B0600083124764S11648963EA0137101410000000000000
B0600123124797S11648999EA0137301414000000015000
B0600163124849S11648971EA0138301425000004015000
B0600203124861S11648897EA0138901427000000015000
B0600243124815S11648840EA0138501421000000015000
B0600283124746S11648823EA0137901419000004015000
B0600323124673S11648826EA0137201408000000000000
B0600363124597S11648837EA0136201400000000000000
B0600403124517S11648853EA0135401391000004000000
B0600443124437S11648871EA0134601385000004000000
B0600483124355S11648893EA0134301385000000000000
B0600523124276S11648918EA0135401398000000000000
B0600563124203S11648947EA0136701414000000000000
B0601003124146S11648988EA0138401425000000000000
B0601043124112S11649044EA0138001413000004000000
B0601083124065S11649104EA0136201397000000000000
B0601123124003S11649157EA0135401388000000000000
B0601163123935S11649204EA0135001387000000000000
B0601203123866S11649248EA0135201396000000000000
B0601243123808S11649304EA0136601407000000000000
B0601283123776S11649370EA0137301409000000000000
B0601323123756S11649439EA0136601403000000000000
B0601363123717S11649503EA0136101399000004000000
B0601403123653S11649548EA0135501392000000000000
B0601443123575S11649580EA0134101375000000000000
B0601483123488S11649603EA0132901362000000000000
B0601523123394S11649617EA0132101357000000000000
B0601563123299S11649629EA0131801354000000000000
B0602003123206S11649639EA0131701353000000000000
B0602043123115S11649651EA0131101347000000000000
B0602083123022S11649663EA0130801346000000000000
B0602123122933S11649675EA0130801345000000000000
B0602163122846S11649688EA0130401340000000000000
B0602203122759S11649697EA0130401345000000000000
B0602243122683S11649720EA0131401356000000000000
B0602283122623S11649755EA0132101363000000000000
B0602323122566S11649789EA0133001371000000000000
B0602363122519S11649829EA0133201373000000000000
B0602403122484S11649881EA0132701363000000000000
B0602443122441S11649936EA0131401347000000000000
B0602483122384S11649987EA0130201339000004000000
B0602523122318S11650026EA0129801334000000000000
B0602563122245S11650053EA0129401328000000000000
B0603003122168S11650072EA0128901325000000000000
B0603043122093S11650091EA0129901342000000000000
B0603083122067S11650143EA0131501355000000000000
B0603123122107S11650166EA0132601370000000000000
B0603163122157S11650123EA0134101384000000000000
B0603203122151S11650041EA0135301396000000000000
B0603243122092S11649997EA0135901398000000000000
B0603283122047S11650033EA0136601409000000000000
B0603323122051S11650083EA0137801420000000000000
B0603363122102S11650075EA0138801431000000015000
B0603403122127S11650003EA0139801441000004015000
B0603443122089S11649924EA0140401445000004015000
B0603483122021S11649906EA0140901454000004015000
B0603523121986S11649945EA0142201471000000015000
B0603563121998S11649990EA0143301475000000000000
B0604003122047S11649976EA0144101489000000015000
B0604043122059S11649899EA0145201494000000015000
B0604083122011S11649828EA0145401498000000015000
B0604123121942S11649812EA0146201510000004015000
B0604163121903S11649851EA0147001511000000000000
B0604203121921S11649898EA0147301515000004015000
B0604243121967S11649863EA0149001533000004015000
B0604283121947S11649785EA0150401547000004015000
B0604323121882S11649767EA0151101553000004015000
B0604363121856S11649814EA0151501558000004015000
B0604403121890S11649845EA0152101565000004000000
B0604443121932S11649793EA0153101579000004015000
B0604483121903S11649714EA0154701595000004015000
B0604523121838S11649688EA0155901604000004015000
B0604563121798S11649727EA0156401607000004000000
B0605003121823S11649766EA0156701615000004000000
B0605043121871S11649741EA0157901632000004015000
B0605083121881S11649669EA0159501644000004015000
B0605123121829S11649613EA0159901646000004015000
B0605163121773S11649628EA0160801655000000015000
B0605203121768S11649675EA0161401658000000000000
B0605243121811S11649684EA0161801665000000000000
B0605283121842S11649626EA0163101678000000015000
B0605323121815S11649552EA0163301674000000015000
B0605363121746S11649521EA0163501685000000015000
B0605403121702S11649552EA0164501695000000015000
B0605443121711S11649595EA0164901692000000000000
B0605483121759S11649593EA0164701693000000015000
B0605523121790S11649526EA0165301703000000015000
B0605563121787S11649443EA0166201713000000015000
B0606003121726S11649394EA0166801715000004015000
B0606043121686S11649430EA0167601727000004015000
B0606083121720S11649450EA0168801737000000015000
B0606123121759S11649399EA0169601748000004015000
B0606163121748S11649317EA0170901761000004015000
B0606203121691S11649270EA0172201772000000015000
B0606243121644S11649291EA0172001764000000000000
B0606283121654S11649335EA0171801765000000000000
B0606323121700S11649322EA0173001780000000015000
B0606363121726S11649257EA0174301789000004015000
B0606403121689S11649181EA0174101784000000015000
B0606443121615S11649160EA0174201791000004015000
B0606483121538S11649161EA0173401771000000000000
B0606523121455S11649166EA0171801762000000000000
B0606563121368S11649175EA0171201755000000000000
B0607003121278S11649186EA0170801754000000000000
B0607043121188S11649196EA0170801756000000000000
B0607083121100S11649209EA0170601752000000000000
B0607123121010S11649223EA0169801743000000000000
B0607163120918S11649231EA0169301739000000000000
B0607203120828S11649239EA0169101739000000000000
B0607243120744S11649248EA0169201743000000000000
B0607283120663S11649259EA0169601745000000000000
B0607323120582S11649268EA0169201736000004000000
B0607363120498S11649274EA0168201727000004000000
B0607403120413S11649278EA0167901726000004000000
B0607443120330S11649281EA0167601722000000000000
B0607483120250S11649279EA0167101718000000000000
B0607523120172S11649281EA0167001720000004000000
B0607563120095S11649286EA0167301718000004000000
B0608003120018S11649295EA0166401706000000000000
B0608043119940S11649305EA0165201696000000000000
B0608083119861S11649312EA0164901694000000000000
B0608123119778S11649321EA0163801679000000000000
B0608163119688S11649325EA0163201676000004000000
B0608203119596S11649324EA0163301681000004000000
B0608243119509S11649322EA0164401692000004000000
B0608283119429S11649331EA0164901695000004000000
B0608323119351S11649344EA0164301687000004000000
B0608363119268S11649353EA0163501674000000000000
B0608403119184S11649364EA0162701673000000000000
B0608443119104S11649374EA0163101678000000000000
B0608483119030S11649390EA0163201676000000000000
B0608523118957S11649411EA0163301681000000000000
B0608563118887S11649418EA0163701683000000000000
B0609003118817S11649416EA0163001671000000000000
B0609043118744S11649407EA0161901662000000000000
B0609083118667S11649394EA0160501645000000000000
B0609123118588S11649382EA0158901629000000000000
B0609163118505S11649374EA0157401613000000000000
B0609203118418S11649363EA0157201615000004000000
B0609243118329S11649346EA0156701605000004000000
B0609283118240S11649327EA0155501595000004000000
B0609323118150S11649309EA0154401582000000000000
B0609363118063S11649294EA0153601580000000000000
B0609403117980S11649277EA0153401577000000000000
B0609443117899S11649260EA0153201575000000000000
B0609483117821S11649243EA0152701571000000000000
B0609523117748S11649244EA0152701570000000000000
B0609563117698S11649287EA0152201560000000000000
B0610003117683S11649353EA0151301551000000000000
B0610043117699S11649420EA0150201539000000000000
B0610083117728S11649483EA0149101530000000000000
B0610123117750S11649552EA0148401521000000000000
B0610163117767S11649624EA0147401513000004000000
B0610203117781S11649695EA0147601517000004000000
B0610243117800S11649759EA0147401509000000000000
B0610283117830S11649821EA0146401498000000000000
B0610323117861S11649888EA0145001481000000000000
B0610363117895S11649955EA0143701471000000000000
B0610403117929S11650024EA0143001466000000000000
B0610443117962S11650091EA0142501461000000000000
B0610483117990S11650156EA0142501464000000000000
B0610523118020S11650218EA0141901455000000000000
B0610563118056S11650276EA0140401439000000000000
B0611003118085S11650344EA0139101418000000000000
B0611043118107S11650418EA0137601410000000000000
B0611083118136S11650483EA0137401411000000000000
B0611123118171S11650534EA0138001421000000000000
B0611163118205S11650575EA0138501422000000000000
B0611203118237S11650616EA0138201417000000000000
B0611243118271S11650655EA0137501409000000000000
B0611283118307S11650695EA0136501399000000000000
B0611323118341S11650738EA0136001397000000000000
B0611363118383S11650777EA0135401383000000000000
B0611403118420S11650828EA0134301378000000000000
B0611443118444S11650887EA0134301379000000000000
B0611483118469S11650947EA0133601369000004000000
B0611523118497S11651003EA0133501375000004000000
B0611563118528S11651055EA0133501369000004000000
B0612003118560S11651111EA0132401355000000000000
B0612043118592S11651171EA0131201345000004000000
B0612083118627S11651224EA0131101347000004000000
B0612123118656S11651280EA0130601340000000000000
B0612163118684S11651341EA0129401321000000000000
B0612203118716S11651405EA0128301312000000000000
B0612243118757S11651457EA0127201300000000000000
B0612283118810S11651502EA0125501285000000000000
B0612323118865S11651547EA0124801280000000000000
B0612363118914S11651600EA0123901270000000000000
B0612403118955S11651661EA0123501267000000000000
B0612443118990S11651723EA0124101277000000000000
B0612483119021S11651783EA0124601279000000000000
B0612523119055S11651842EA0124201274000000000000
B0612563119087S11651903EA0124001272000000000000
B0613003119122S11651961EA0123401266000000000000
B0613043119161S11652016EA0122901262000000000000
B0613083119194S11652073EA0123001269000000000000
B0613123119221S11652128EA0124401284000000000000
B0613163119245S11652180EA0125501291000000000000
B0613203119271S11652230EA0126701304000004000000
B0613243119319S11652225EA0128201320000000000000
B0613283119329S11652152EA0130101343000000000000
B0613323119284S11652093EA0131001349000000000000
B0613363119217S11652086EA0131201350000000000000
B0613403119178S11652133EA0131801359000000000000
B0613443119198S11652180EA0132601365000000000000
B0613483119250S11652163EA0133501381000004015000
B0613523119260S11652090EA0135701403000000015000
B0613563119215S11652031EA0137101412000000015000
B0614003119152S11652038EA0137501416000000000000
B0614043119134S11652091EA0138201422000000000000
B0614083119174S11652117EA0138801427000000000000
B0614123119219S11652067EA0139801442000000015000
B0614163119213S11651987EA0141701460000000015000
B0614203119158S11651943EA0142301464000000015000
B0614243119108S11651974EA0142801472000000000000
B0614283119125S11652022EA0143701479000000000000
B0614323119178S11652011EA0144301486000000015000
B0614363119190S11651934EA0145401495000000015000
B0614403119134S11651896EA0146101505000000015000
B0614443119098S11651933EA0147001510000000000000
B0614483119121S11651977EA0146801506000000000000
B0614523119180S11651983EA0147001511000000000000
B0614563119219S11651922EA0148401521000000015000
B0615003119186S11651853EA0147901513000000015000
B0615043119124S11651848EA0147601516000000015000
B0615083119078S11651887EA0148401525000000000000
B0615123119069S11651948EA0148401521000000000000
B0615163119096S11652008EA0148001523000000000000
B0615203119135S11652065EA0148301524000004000000
B0615243119176S11652124EA0147701514000000000000
B0615283119217S11652190EA0146301491000004000000
B0615323119265S11652258EA0144401476000004000000
B0615363119316S11652325EA0142801459000004000000
B0615403119363S11652394EA0141901456000004000000
B0615443119403S11652462EA0141701452000000000000
B0615483119442S11652527EA0141101445000000000000
B0615523119479S11652596EA0139901433000000000000
B0615563119516S11652666EA0138901423000000000000
B0616003119555S11652737EA0138101416000004000000
B0616043119594S11652808EA0137801416000004000000
B0616083119633S11652876EA0137601412000000000000
B0616123119671S11652943EA0137401409000000000000
B0616163119710S11653010EA0136301396000000000000
B0616203119752S11653079EA0135101384000000000000
B0616243119792S11653151EA0133801369000004000000
B0616283119832S11653229EA0132201353000004000000
B0616323119869S11653309EA0131201344000004000000
B0616363119906S11653393EA0130601339000004000000
B0616403119944S11653476EA0130601344000004000000
B0616443119984S11653558EA0130701337000004000000
B0616483120026S11653638EA0130201341000004000000
B0616523120065S11653720EA0130301342000004000000
B0616563120101S11653801EA0129701329000004000000
B0617003120135S11653881EA0128801325000004000000
B0617043120170S11653955EA0129701338000004000000
B0617083120203S11654026EA0130201339000004000000
B0617123120235S11654095EA0130701346000004000000
B0617163120266S11654161EA0130601340000000000000
B0617203120302S11654230EA0130601345000000000000
B0617243120342S11654290EA0131501356000000000000
B0617283120381S11654347EA0132301366000000000000
B0617323120422S11654388EA0134101382000000000000
B0617363120471S11654351EA0135001384000004000000
B0617403120454S11654271EA0134901388000004000000
B0617443120390S11654251EA0135501397000004000000
B0617483120335S11654275EA0136201403000004000000
B0617523120315S11654329EA0137201413000004000000
B0617563120356S11654343EA0137701410000000000000
B0618003120378S11654271EA0136801405000000015000
B0618043120333S11654215EA0137401417000000015000
B0618083120279S11654231EA0138301422000000000000
B0618123120269S11654280EA0138701429000000000000
B0618163120290S11654327EA0138601424000000000000
B0618203120322S11654374EA0137001405000000000000
B0618243120359S11654430EA0135701390000000000000
B0618283120394S11654492EA0134301375000004000000
B0618323120432S11654557EA0132701360000004000000
B0618363120473S11654620EA0131601351000004000000
B0618403120513S11654680EA0131301348000000000000
B0618443120549S11654742EA0130701341000000000000
B0618483120578S11654808EA0129601331000000000000
B0618523120604S11654875EA0129101327000000000000
B0618563120633S11654938EA0129001328000000000000
B0619003120663S11655001EA0128801322000000000000
B0619043120694S11655063EA0128101316000000000000
B0619083120719S11655127EA0127901314000000000000
B0619123120738S11655193EA0127201304000000000000
B0619163120754S11655262EA0126501299000000000000
B0619203120770S11655330EA0126101299000004000000
B0619243120793S11655393EA0126601301000000000000
B0619283120828S11655449EA0127001308000000000000
B0619323120868S11655502EA0127201307000000000000
B0619363120915S11655548EA0127201310000000000000
B0619403120966S11655580EA0127201303000000000000
B0619443121014S11655622EA0126601298000004000000
B0619483121048S11655678EA0126301301000004000000
B0619523121076S11655735EA0126701302000000000000
B0619563121113S11655787EA0126201300000000000000
B0620003121149S11655839EA0126901307000004000000
B0620043121184S11655887EA0127601311000004000000
B0620083121235S11655859EA0128601319000004000000
B0620123121215S11655772EA0128401317000004000000
B0620163121147S11655734EA0128501322000004000000
B0620203121079S11655755EA0128901328000004000000
B0620243121043S11655803EA0129601335000004000000
B0620283121057S11655850EA0129701331000004000000
B0620323121098S11655883EA0129501337000004000000
B0620363121149S11655865EA0131301357000000015000
B0620403121144S11655778EA0132001352000000015000
B0620443121071S11655744EA0132501367000000015000
B0620483121035S11655786EA0133801380000004015000
B0620523121050S11655837EA0134501384000004000000
B0620563121100S11655820EA0135801400000004015000
B0621003121096S11655730EA0137201416000004015000
B0621043121036S11655678EA0139101436000000015000
B0621083120978S11655696EA0140201445000004015000
B0621123120966S11655753EA0141001449000000000000
B0621163121010S11655770EA0141501454000000015000
B0621203121045S11655708EA0142101464000000015000
B0621243121014S11655621EA0143301478000000015000
B0621283120942S11655593EA0144501495000000015000
B0621323120903S11655636EA0146401509000000000000
B0621363120915S11655684EA0146901503000000015000
B0621403120971S11655684EA0146401507000000015000
B0621443121001S11655612EA0147801530000004015000
B0621483120959S11655544EA0150201553000000015000
B0621523120901S11655553EA0151301557000000015000
B0621563120905S11655603EA0152201570000000000000
B0622003120953S11655590EA0153601579000000015000
B0622043120965S11655506EA0154401593000004015000
B0622083120910S11655443EA0156101611000004015000
B0622123120845S11655445EA0157601623000004015000
B0622163120824S11655495EA0158301627000000015000
B0622203120862S11655522EA0158701634000004000000
B0622243120907S11655483EA0159701646000004015000
B0622283120896S11655400EA0160801659000004015000
B0622323120829S11655361EA0161801668000000015000
B0622363120773S11655389EA0162801676000000000000
B0622403120770S11655443EA0163601684000000000000
B0622443120810S11655460EA0163701678000004000000
B0622483120853S11655408EA0163101676000000015000
B0622523120857S11655317EA0163601683000004015000
B0622563120822S11655232EA0164601695000004015000
B0623003120754S11655227EA0166101712000004015000
B0623043120746S11655271EA0167201721000004015000
B0623083120790S11655265EA0168301731000004015000
B0623123120812S11655193EA0169001737000000015000
B0623163120771S11655116EA0168901736000000015000
B0623203120699S11655102EA0169701750000000000000
B0623243120659S11655140EA0170801757000000000000
B0623283120669S11655180EA0171501762000000000000
B0623323120714S11655164EA0171901765000004000000
B0623363120723S11655083EA0172701777000004000000
B0623403120669S11655023EA0173801789000004000000
B0623443120608S11655029EA0174401792000004000000
B0623483120588S11655073EA0174501790000000000000
B0623523120614S11655114EA0173701782000000000000
B0623563120660S11655144EA0172801772000000000000
B0624003120716S11655175EA0172101760000000000000
B0624043120776S11655215EA0170601745000000000000
B0624083120842S11655259EA0169301732000004000000
B0624123120914S11655304EA0169001738000000000000
B0624163120984S11655344EA0170201751000004000000
B0624203121052S11655380EA0172001772000004000000
B0624243121114S11655410EA0173501783000000000000
B0624283121176S11655436EA0174001786000004000000
B0624323121239S11655465EA0173601773000004000000
B0624363121305S11655496EA0171601758000004000000
B0624403121368S11655538EA0170901749000004000000
B0624443121431S11655579EA0170001740000004000000
B0624483121498S11655622EA0169001731000004000000
B0624523121566S11655666EA0168401725000004000000
B0624563121633S11655709EA0168101724000004000000
B0625003121693S11655755EA0168501727000004000000
B0625043121739S11655812EA0168201725000004000000
B0625083121778S11655878EA0167401713000004000000
B0625123121816S11655952EA0166501702000004000000
B0625163121850S11656032EA0165801700000004000000
B0625203121884S11656107EA0165801702000004000000
B0625243121923S11656177EA0165801700000000000000
B0625283121964S11656246EA0165201690000004000000
B0625323122007S11656315EA0164501687000004000000
B0625363122047S11656385EA0164301685000004000000
B0625403122081S11656458EA0163701678000000000000
B0625443122112S11656532EA0163101671000000000000
B0625483122141S11656605EA0162701665000000000000
B0625523122174S11656676EA0162101657000004000000
B0625563122210S11656747EA0160801643000000000000
B0626003122237S11656825EA0159701634000004000000
B0626043122259S11656903EA0158801626000004000000
B0626083122274S11656982EA0157801614000004000000
B0626123122278S11657065EA0156501604000004000000
B0626163122283S11657147EA0155701596000004000000
B0626203122293S11657230EA0154901584000000000000
B0626243122305S11657315EA0154201581000000000000
B0626283122318S11657400EA0153701573000000000000
B0626323122332S11657486EA0152701565000000000000
B0626363122352S11657571EA0152201562000000000000
B0626403122382S11657653EA0152001560000004000000
B0626443122413S11657732EA0151601553000004000000
B0626483122440S11657814EA0150801544000000000000
B0626523122478S11657888EA0149801535000000000000
B0626563122517S11657963EA0149101525000000000000
B0627003122547S11658044EA0148401519000000000000
B0627043122562S11658125EA0148301521000004000000
B0627083122574S11658205EA0147901514000004000000
B0627123122586S11658286EA0147001503000000000000
B0627163122597S11658368EA0146601503000004000000
B0627203122612S11658447EA0146601501000000000000
B0627243122631S11658525EA0146301497000000000000
B0627283122653S11658603EA0145401484000004000000
B0627323122679S11658681EA0144601481000004000000
B0627363122700S11658763EA0144301474000000000000
B0627403122716S11658847EA0143201462000000000000
B0627443122725S11658936EA0142701462000004000000
B0627483122733S11659023EA0142501459000004000000
B0627523122742S11659110EA0142501461000000000000
B0627563122761S11659189EA0142501461000000000000
B0628003122791S11659263EA0142101452000000000000
B0628043122827S11659336EA0140501434000000000000
B0628083122868S11659409EA0139201425000004000000
B0628123122905S11659483EA0138501414000004000000
B0628163122943S11659556EA0137101403000004000000
B0628203122980S11659629EA0136101394000004000000
B0628243123013S11659700EA0135701390000000000000
B0628283123045S11659772EA0134901383000004000000
B0628323123065S11659847EA0134101371000004000000
B0628363123077S11659926EA0132801358000004000000
B0628403123081S11700004EA0131901351000000000000
B0628443123084S11700081EA0131701348000004000000
B0628483123082S11700158EA0130601333000004000000
B0628523123073S11700234EA0130101337000004000000
B0628563123063S11700311EA0130501339000004000000
B0629003123061S11700384EA0130601337000004000000
B0629043123078S11700454EA0130401338000000000000
B0629083123110S11700519EA0130501340000000000000
B0629123123142S11700580EA0130801345000000000000
B0629163123180S11700635EA0131301352000000000000
B0629203123221S11700684EA0131801355000000000000
B0629243123267S11700728EA0131501347000000000000
B0629283123321S11700769EA0131001345000004000000
B0629323123381S11700803EA0130901343000004000000
B0629363123442S11700838EA0130001331000000000000
B0629403123501S11700886EA0128601317000000000000
B0629443123555S11700939EA0127701310000000000000
B0629483123598S11701000EA0127301303000000000000
B0629523123623S11701072EA0126301292000000000000
B0629563123615S11701146EA0125701292000004000000
B0630003123587S11701212EA0125701288000000000000
B0630043123555S11701277EA0124901279000000000000
B0630083123516S11701341EA0124001269000000000000
B0630123123468S11701397EA0123101258000004000000
B0630163123414S11701451EA0121901250000000000000
B0630203123362S11701507EA0120901240000004000000
B0630243123308S11701566EA0120001232000000000000
B0630283123256S11701625EA0119401223000000000000
B0630323123203S11701685EA0118301212000000000000
B0630363123146S11701742EA0117301202000004000000
B0630403123090S11701801EA0116401193000004000000
B0630443123033S11701858EA0115501183000000000000
B0630483122976S11701915EA0114401173000004000000
B0630523122917S11701967EA0113901169000004000000
B0630563122856S11702014EA0113401165000004000000
B0631003122796S11702061EA0113201164000004000000
B0631043122742S11702105EA0113401166000004000000
B0631083122694S11702152EA0113401166000004000000
B0631123122649S11702201EA0113101160000004000000
B0631163122618S11702256EA0112801161000004000000
B0631203122601S11702312EA0113301166000004000000
B0631243122630S11702355EA0113501165000000000000
B0631283122678S11702377EA0112901159000000000000
B0631323122727S11702395EA0112501154000000000000
B0631363122782S11702408EA0111301140000000000000
B0631403122839S11702418EA0110001126000000000000
B0631443122892S11702447EA0108901113000000000000
B0631483122942S11702486EA0107501098000000000000
B0631523122989S11702535EA0106101085000000000000
B0631563123032S11702586EA0105401082000000000000
B0632003123086S11702621EA0105001075000000000000
B0632043123151S11702639EA0104001064000000000000
B0632083123221S11702647EA0102601050000000000000
B0632123123294S11702651EA0101201037000000000000
B0632163123368S11702655EA0099801024000000000000
B0632203123440S11702671EA0098901011000000000000
B0632243123506S11702695EA0097701000000000000000
B0632283123570S11702719EA0096300985000000000000
B0632323123636S11702740EA0094700969000000000000
B0632363123704S11702760EA0093100952000000000000
B0632403123771S11702779EA0091700941000000000000
B0632443123840S11702794EA0090500929000000000000
B0632483123912S11702806EA0089400916000000000000
B0632523123983S11702814EA0088300903000004000000
B0632563124055S11702821EA0087400898000004000000
B0633003124124S11702825EA0087800906000004000000
B0633043124186S11702846EA0088000905000000000000
B0633083124231S11702886EA0088000906000000000000
B0633123124273S11702932EA0087900907000004000000
B0633163124319S11702974EA0088100908000004000000
B0633203124369S11703013EA0088300908000004000000
B0633243124430S11703001EA0089000917000000000000
B0633283124438S11702919EA0090600935000000000000
B0633323124381S11702872EA0091300942000000000000
B0633363124329S11702897EA0092200954000000000000
B0633403124326S11702949EA0092700954000000000000
B0633443124371S11702963EA0092700954000000000000
B0633483124415S11702915EA0092800954000000000000
B0633523124412S11702828EA0092800956000004000000
B0633563124350S11702776EA0093500966000004015000
B0634003124290S11702797EA0095000982000004015000
B0634043124278S11702849EA0096000988000000015000
B0634083124319S11702877EA0096100987000004000000
B0634123124367S11702838EA0096300992000004015000
B0634163124361S11702758EA0097001000000004015000
B0634203124304S11702708EA0097501006000004015000
B0634243124244S11702728EA0098301015000004015000
B0634283124239S11702782EA0098701014000004015000
B0634323124289S11702805EA0098501012000004015000
B0634363124339S11702763EA0098801017000004015000
B0634403124361S11702682EA0099601026000004015000
B0634443124338S11702598EA0100401034000000015000
B0634483124274S11702578EA0101201046000004015000
B0634523124270S11702628EA0102401053000000015000
B0634563124319S11702621EA0103101064000000015000
B0635003124332S11702546EA0103901071000000015000
B0635043124280S11702482EA0104201076000004015000
B0635083124221S11702493EA0105201091000000015000
B0635123124213S11702542EA0106801103000000015000
B0635163124257S11702552EA0107801108000000015000
B0635203124286S11702485EA0108501119000000015000
B0635243124251S11702408EA0109401127000004015000
B0635283124189S11702392EA0110301142000004015000
B0635323124155S11702431EA0111901158000004015000
B0635363124177S11702468EA0113201164000000015000
B0635403124224S11702435EA0114101172000000015000
B0635443124213S11702355EA0114901180000000015000
B0635483124153S11702317EA0115801192000000015000
B0635523124108S11702344EA0117101208000000015000
B0635563124120S11702389EA0118001215000000015000
B0636003124169S11702378EA0119301227000004015000
B0636043124191S11702309EA0120601243000004015000
B0636083124157S11702238EA0121601251000000015000
B0636123124095S11702223EA0122501263000004015000
B0636163124072S11702266EA0123601273000004015000
B0636203124105S11702295EA0124601284000004015000
B0636243124146S11702251EA0126101298000000015000
B0636283124138S11702170EA0126901305000000015000
B0636323124083S11702119EA0127601314000004015000
B0636363124031S11702135EA0128801326000000015000
B0636403124027S11702186EA0129701332000000015000
B0636443124072S11702207EA0130801345000004000000
B0636483124112S11702162EA0132101358000000000000
B0636523124096S11702086EA0132801360000000015000
B0636563124034S11702054EA0133301372000000015000
B0637003123994S11702087EA0134501386000000015000
B0637043124008S11702132EA0135501393000000015000
B0637083124057S11702135EA0136301403000000015000
B0637123124082S11702069EA0137701421000000000000
B0637163124048S11702002EA0139001431000000015000
B0637203123986S11701992EA0139701440000000000000
B0637243123944S11702030EA0140701450000004015000
B0637283123947S11702083EA0141801458000004000000
B0637323123994S11702103EA0142501471000000000000
B0637363124030S11702052EA0144201487000000000000
B0637403124003S11701979EA0145301499000000000000
B0637443123940S11701960EA0146301508000000000000
B0637483123905S11702005EA0146801511000000000000
B0637523123927S11702054EA0147401519000004015000
B0637563123979S11702060EA0148401527000000015000
B0638003124022S11702006EA0149301538000000015000
B0638043124016S11701930EA0150501547000000015000
B0638083123958S11701879EA0150801552000004015000
B0638123123897S11701897EA0151501564000000015000
B0638163123879S11701950EA0152701576000004015000
B0638203123904S11701995EA0153701579000000015000
B0638243123956S11701997EA0153901583000000000000
B0638283124000S11701947EA0154701594000000015000
B0638323123991S11701872EA0155501599000000015000
B0638363123935S11701824EA0155601602000000015000
B0638403123871S11701824EA0156601612000000015000
B0638443123831S11701869EA0157101617000000015000
B0638483123841S11701923EA0157601620000000015000
B0638523123878S11701973EA0156701603000000015000
B0638563123923S11702028EA0154401580000000000000
B0639003123974S11702093EA0152201561000000000000
B0639043124021S11702169EA0151401557000004000000
B0639083124069S11702242EA0151001549000000000000
B0639123124126S11702309EA0149601535000000000000
B0639163124190S11702372EA0148501527000000000000
B0639203124256S11702431EA0147901521000004000000
B0639243124322S11702490EA0147401516000000000000
B0639283124387S11702550EA0147101513000000000000
B0639323124455S11702606EA0146801504000000000000
B0639363124527S11702658EA0145801497000000000000
B0639403124594S11702711EA0145601493000000000000
B0639443124664S11702759EA0144301479000000000000
B0639483124738S11702805EA0143001468000000000000
B0639523124805S11702860EA0142501466000000000000
B0639563124855S11702925EA0142701470000000000000
B0640003124893S11702997EA0142701467000004000000
B0640043124930S11703067EA0142301461000004000000
B0640083124970S11703135EA0141701456000000000000
B0640123125015S11703198EA0140901447000000000000
B0640163125062S11703261EA0140101439000000000000
B0640203125104S11703326EA0139901437000004000000
B0640243125153S11703382EA0139801438000004000000
B0640283125208S11703431EA0139101431000004000000
B0640323125264S11703481EA0137901414000000000000
B0640363125323S11703529EA0136601401000000000000
B0640403125381S11703581EA0136001401000000000000
B0640443125430S11703638EA0136201402000000000000
B0640483125481S11703695EA0136501408000000000000
B0640523125537S11703746EA0137801428000004000000
B0640563125590S11703786EA0140101450000004000000
B0641003125647S11703791EA0142301470000004000000
B0641043125656S11703712EA0143501479000004000000
B0641083125587S11703674EA0145001495000004000000
B0641123125542S11703720EA0145801502000004000000
B0641163125561S11703767EA0146901514000004015000
B0641203125613S11703750EA0147801523000000015000
B0641243125625S11703672EA0148401530000000015000
B0641283125570S11703614EA0149301540000000015000
B0641323125509S11703627EA0150001549000000015000
B0641363125496S11703681EA0150701557000000015000
B0641403125542S11703695EA0151501562000000015000
B0641443125574S11703631EA0152501576000000015000
B0641483125534S11703566EA0153801584000000015000
B0641523125469S11703572EA0153501578000000015000
B0641563125444S11703630EA0153501585000000015000
B0642003125461S11703685EA0155101595000000015000
B0642043125515S11703668EA0157001609000000015000
B0642083125508S11703582EA0158801630000000015000
B0642123125447S11703553EA0160001637000000015000
B0642163125407S11703599EA0160601649000004015000
B0642203125424S11703646EA0161901666000004015000
B0642243125473S11703640EA0163201675000004015000
B0642283125496S11703573EA0163901683000004015000
B0642323125461S11703500EA0164401690000004015000
B0642363125400S11703483EA0165601703000004015000
B0642403125356S11703516EA0166301712000004015000
B0642443125355S11703562EA0167401720000000015000
B0642483125401S11703568EA0168201724000000015000
B0642523125422S11703499EA0168201721000000015000
B0642563125377S11703429EA0168301732000000015000
B0643003125313S11703417EA0169401744000000015000
B0643043125273S11703453EA0170201751000000015000
B0643083125274S11703504EA0171201758000004015000
B0643123125300S11703551EA0171701760000000015000
B0643163125340S11703595EA0170601745000000000000
B0643203125385S11703643EA0169401737000000000000
B0643243125429S11703699EA0168501729000000000000
B0643283125468S11703760EA0167801724000000000000
B0643323125503S11703824EA0167401720000004000000
B0643363125537S11703891EA0166901715000004000000
B0643403125570S11703960EA0166401710000004000000
B0643443125600S11704032EA0166001704000004000000
B0643483125629S11704102EA0165601698000000000000
B0643523125660S11704170EA0164901691000000000000
B0643563125691S11704236EA0164301685000000000000
B0644003125726S11704302EA0163701679000004000000
B0644043125760S11704366EA0163001671000004000000
B0644083125801S11704426EA0162001657000000000000
B0644123125856S11704478EA0160201640000000000000
B0644163125918S11704528EA0159201633000000000000
B0644203125977S11704579EA0158801629000000000000
B0644243126033S11704632EA0158501626000000000000
B0644283126079S11704691EA0158501627000000000000
B0644323126109S11704756EA0158301625000000000000
B0644363126133S11704821EA0158201625000000000000
B0644403126159S11704886EA0158001621000000000000
B0644443126189S11704951EA0157101612000000000000
B0644483126222S11705015EA0157501623000000000000
B0644523126252S11705073EA0159301640000000000000
B0644563126285S11705121EA0160601660000000000000
B0645003126321S11705165EA0162501674000000000000
B0645043126360S11705210EA0163001675000000000000
B0645083126405S11705252EA0162601668000000000000
B0645123126452S11705301EA0161701656000000000000
B0645163126497S11705359EA0160301644000000000000
B0645203126534S11705429EA0159101634000000000000
B0645243126570S11705501EA0158601628000000000000
B0645283126610S11705571EA0157701618000000000000
B0645323126655S11705639EA0156801606000000000000
B0645363126703S11705704EA0156201606000000000000
B0645403126750S11705765EA0156201602000004000000
B0645443126803S11705822EA0155501595000004000000
B0645483126856S11705880EA0154601586000004000000
B0645523126904S11705947EA0153901581000000000000
B0645563126951S11706014EA0154401592000000000000
B0646003126997S11706073EA0155101596000000000000
B0646043127045S11706129EA0154401585000000000000
B0646083127095S11706183EA0153501572000000000000
B0646123127147S11706239EA0152201562000000000000
B0646163127199S11706295EA0151401553000000000000
B0646203127251S11706354EA0150301543000000000000
B0646243127306S11706411EA0149301530000004000000
B0646283127363S11706471EA0147501510000000000000
B0646323127423S11706533EA0146801507000000000000
B0646363127480S11706595EA0146101498000000000000
B0646403127537S11706655EA0145401492000004000000
B0646443127592S11706716EA0144901486000000000000
