ACAM4N6
HFDTE261122
HFFXA050
HFPLTPILOT:JOHN WELSH              
HFGTYGLIDERTYPE:HORNET      
HFGIDGLIDERID:VH-GMY      
HFDTM100GPSDATUM:
HFRFWFIRMWAREVERSION:F2.6
HFRHWHARDWAREVERSION:300 Series Version 2
HFFTYFRTYPE:CAMBRIDGE AERO INSTRUMENTS, 302+
HFGPS:GARMIN,LVS-25,12,18000
HFPRSPRESSALTSENSOR:INTERSEMA, MS5534-AP, 20000
I033638FXA3941ENL4247REX
LCAMSBVER:5FWVER:F26300
C261122054804261122000102
C0000000N00000000WTAKEOFF     
C3207549S11656849EBeverley Air
C3137399S11712982ECunderdin Ai
C3200816S11723699EQuairading  
C3207549S11656849EBeverley Air
C0000000N00000000WLANDING     
B0608253207326S11656857EA0020400201000000000000
B0608273207326S11656857EA0020400201000000000000
B0608293207326S11656857EA0020400201000000000000
B0608313207326S11656857EA0020300201000000000000
B0608333207326S11656857EA0020300201000000000000
B0608353207326S11656857EA0020400201000000000000
B0608373207326S11656857EA0020300201000000000000
B0608393207326S11656858EA0020400201000000000000
B0608413207326S11656858EA0020400201000000000000
B0608433207326S11656858EA0020300201000000000000
B0608453207326S11656857EA0020300201000000000000
B0608473207326S11656857EA0020300201000000000000
B0608493207326S11656857EA0020300201000000000000
B0608513207329S11656858EA0020400201000000000000
B0608533207333S11656861EA0020400201000000000000
B0608563207345S11656870EA0020300201000000000000
B0609003207373S11656888EA0020500200000000000000
B0609043207416S11656917EA0020600200000000000000
B0609083207471S11656948EA0021000202000000000000
B0609123207531S11656984EA0021500206000000000000
B0609163207593S11657023EA0021600208000000000000
B0609203207654S11657069EA0022300219000000000000
B0609243207715S11657111EA0023500235000000000000
B0609283207775S11657152EA0025300255000000000000
B0609323207835S11657191EA0026800270000000000000
B0609363207895S11657233EA0028100283000000000000
B0609403207957S11657274EA0029500299000000000000
B0609443208018S11657319EA0031500320000000000000
B0609483208080S11657358EA0033300335000000000000
B0609523208143S11657397EA0034300346000000000000
B0609563208200S11657441EA0035400365000000000000
B0610003208257S11657486EA0038000384000000000000
B0610043208311S11657543EA0039600401000000000000
B0610083208350S11657621EA0040500407000000000000
B0610123208386S11657697EA0041200417000000000000
B0610163208415S11657776EA0042000428000000000000
B0610203208417S11657867EA0043000435000000000000
B0610243208398S11657958EA0043700443000000000000
B0610283208376S11658048EA0044500451000000000000
B0610323208352S11658136EA0045700466000000000000
B0610363208327S11658225EA0047700492000000000000
B0610403208304S11658316EA0049700504000000000000
B0610443208282S11658408EA0050700515000000000000
B0610483208261S11658499EA0051900528000000000000
B0610523208238S11658590EA0053200541000000000000
B0610563208220S11658684EA0054000548000000000000
B0611003208205S11658778EA0054600553000000000000
B0611043208205S11658877EA0055100560000000000000
B0611083208230S11658968EA0056000574000000000000
B0611123208273S11659046EA0057800593000000000000
B0611163208321S11659118EA0059800615000000000000
B0611203208374S11659185EA0062000638000000000000
B0611243208439S11659235EA0064200655000000000000
B0611283208513S11659248EA0065700671000000000000
B0611323208584S11659227EA0066800680000000000000
B0611363208645S11659175EA0067300685000000000000
B0611403208684S11659101EA0068200698000000000000
B0611443208695S11659012EA0069900716000000000000
B0611483208681S11658928EA0072400745000000000000
B0611523208633S11658866EA0075100765000000000000
B0611563208573S11658888EA0076100769000000000000
B0612003208555S11658960EA0075200758000000000000
B0612043208591S11659020EA0075600768000000000000
B0612083208647S11659035EA0076500777000000000000
B0612123208689S11659001EA0077100785000000000000
B0612163208677S11658945EA0078100795000000000000
B0612203208620S11658945EA0078400793000000000000
B0612243208589S11659010EA0078500800000000000000
B0612283208615S11659068EA0079300810000000000000
B0612323208664S11659064EA0079800809000000000000
B0612363208685S11659012EA0079500804000000000000
B0612403208662S11658953EA0078800800000000000000
B0612443208604S11658912EA0078700800000000000000
B0612483208535S11658927EA0078900802000000000000
B0612523208500S11658997EA0079100805000000000000
B0612563208515S11659072EA0079800818000000000000
B0613003208564S11659076EA0081400837000000000000
B0613043208587S11659025EA0081500829000000000000
B0613083208555S11658960EA0081000835000000000000
B0613123208493S11658940EA0082000839000000000000
B0613163208429S11658972EA0081700829000000000000
B0613203208396S11659050EA0081100825000000000000
B0613243208409S11659126EA0081900839000000000000
B0613283208463S11659114EA0083300853000000000000
B0613323208472S11659050EA0084700869000000000000
B0613363208420S11659020EA0086800891000000000000
B0613403208373S11659055EA0088000893000000000000
B0613443208369S11659120EA0088300898000000000000
B0613483208415S11659129EA0088800904000000000000
B0613523208424S11659070EA0089500913000000000000
B0613563208370S11659031EA0090700925000000000000
B0614003208316S11659063EA0091500934000000000000
B0614043208320S11659127EA0092200944000000000000
B0614083208365S11659132EA0093200952000000000000
B0614123208386S11659077EA0093800961000000000000
B0614163208343S11659028EA0094900973000000000000
B0614203208281S11659044EA0096000980000000000000
B0614243208261S11659109EA0096800989000000000000
B0614283208294S11659149EA0098101006000000000000
B0614323208334S11659127EA0099101011000000000000
B0614363208337S11659066EA0099901023000000000000
B0614403208294S11659020EA0101101035000000000000
B0614443208231S11659019EA0101801038000000000000
B0614483208183S11659068EA0101801037000000000000
B0614523208181S11659140EA0102201042000000000000
B0614563208221S11659175EA0102901050000000000000
B0615003208262S11659146EA0103101053000000000000
B0615043208262S11659084EA0104001068000000000000
B0615083208213S11659050EA0105401079000000000000
B0615123208157S11659076EA0105601076000000000000
B0615163208144S11659140EA0105601076000000000000
B0615203208182S11659183EA0105901078000000000000
B0615243208229S11659162EA0106101081000000000000
B0615283208238S11659094EA0106801092000000000000
B0615323208186S11659044EA0107501094000000000000
B0615363208116S11659051EA0107801097000000000000
B0615403208062S11659105EA0108001100000000000000
B0615443208049S11659183EA0108001098000000000000
B0615483208088S11659239EA0107801092000000000000
B0615523208145S11659231EA0107501097000000000000
B0615563208183S11659172EA0108201106000000000000
B0616003208173S11659096EA0109201116000000000000
B0616043208112S11659050EA0109601115000000000000
B0616083208038S11659064EA0109801118000000000000
B0616123208008S11659133EA0110701130000000000000
B0616163208045S11659176EA0111401132000000000000
B0616203208095S11659142EA0111201130000000000000
B0616243208099S11659064EA0111301134000000000000
B0616283208048S11659010EA0111901144000000000000
B0616323207979S11659009EA0112101139000000000000
B0616363207923S11659062EA0111401129000000000000
B0616403207913S11659146EA0110501119000000000000
B0616443207945S11659224EA0109801114000000000000
B0616483207995S11659291EA0108501101000000000000
B0616523208049S11659354EA0108101104000000000000
B0616563208105S11659414EA0108401102000000000000
B0617003208166S11659473EA0107801092000000000000
B0617043208233S11659523EA0107001085000000000000
B0617083208296S11659582EA0106401077000000000000
B0617123208355S11659655EA0105901080000000000000
B0617163208408S11659722EA0107601103000000000000
B0617203208465S11659781EA0108801109000000000000
B0617243208525S11659835EA0109301113000000000000
B0617283208548S11659913EA0110101127000000000000
B0617323208503S11659969EA0112901164000000000000
B0617363208441S11659968EA0115001174000000000000
B0617403208396S11659909EA0114801167000000000000
B0617443208398S11659829EA0114201164000000000000
B0617483208435S11659766EA0114301166000000000000
B0617523208491S11659735EA0114401166000000000000
B0617563208551S11659744EA0115001175000000000000
B0618003208606S11659773EA0115501178000000000000
B0618043208662S11659805EA0115901182000000000000
B0618083208724S11659822EA0117101197000000000000
B0618123208747S11659766EA0119801231000000000000
B0618163208699S11659737EA0121401236000000000000
B0618203208660S11659790EA0121601241000000000000
B0618243208681S11659852EA0122501254000000000000
B0618283208737S11659865EA0123901267000000000000
B0618323208769S11659815EA0124901281000000000000
B0618363208745S11659752EA0125701283000000000000
B0618403208685S11659743EA0125901286000000000000
B0618443208645S11659798EA0126501298000000000000
B0618483208664S11659861EA0128101313000000000000
B0618523208716S11659846EA0129801329000000000000
B0618563208715S11659778EA0131001340000000000000
B0619003208662S11659742EA0131601346000000000000
B0619043208608S11659776EA0132601357000000000000
B0619083208607S11659839EA0134301377000000000000
B0619123208654S11659868EA0135701389000000000000
B0619163208694S11659828EA0136701400000000000000
B0619203208681S11659759EA0137401404000000000000
B0619243208624S11659725EA0137801412000000000000
B0619283208569S11659756EA0138901425000000000000
B0619323208568S11659821EA0140401437000000000000
B0619363208620S11659842EA0141101447000000000000
B0619403208654S11659789EA0142601462000000000000
B0619443208620S11659725EA0143101461000000000000
B0619483208555S11659720EA0143901473000000000000
B0619523208515S11659774EA0144901484000000000000
B0619563208517S11659847EA0145701491000000000000
B0620003208565S11659893EA0146401495000000000000
B0620043208621S11659859EA0147301513000000000000
B0620083208633S11659785EA0148701522000000000000
B0620123208586S11659733EA0149601530000000000000
B0620163208519S11659738EA0150301537000000000000
B0620203208473S11659794EA0151601552000000000000
B0620243208470S11659867EA0152701564000000000000
B0620283208512S11659917EA0153701569000000000000
B0620323208569S11659896EA0154801586000000000000
B0620363208576S11659826EA0157001607000000000000
B0620403208529S11659787EA0158001617000000000000
B0620443208472S11659812EA0158701624000000000000
B0620483208450S11659878EA0159701636000000000000
B0620523208469S11659942EA0160701640000000000000
B0620563208524S11659967EA0161201651000000000000
B0621003208568S11659925EA0162501663000000000000
B0621043208567S11659852EA0163401673000000000000
B0621083208520S11659799EA0164701683000000000000
B0621123208455S11659800EA0165701693000000000000
B0621163208412S11659854EA0166701704000000000000
B0621203208412S11659924EA0167301709000000000000
B0621243208451S11659980EA0167401709000000000000
B0621283208509S11659977EA0168201724000000000000
B0621323208515S11659911EA0169901743000000000000
B0621363208460S11659868EA0171201751000000000000
B0621403208398S11659896EA0172401767000000000000
B0621443208381S11659967EA0173701778000000000000
B0621483208417S11700017EA0174601785000000000000
B0621523208468S11700003EA0175801800000000000000
B0621563208474S11659943EA0177201814000000000000
B0622003208429S11659902EA0178401824000000000000
B0622043208376S11659935EA0179301837000000000000
B0622083208376S11700000EA0180201843000000000000
B0622123208421S11700030EA0180501845000000000000
B0622163208461S11659989EA0181101855000000000000
B0622203208435S11659924EA0182301864000000000000
B0622243208372S11659922EA0183601878000000000000
B0622283208338S11659984EA0184501884000000000000
B0622323208360S11700050EA0184701885000000000000
B0622363208413S11700063EA0185401893000000000000
B0622403208443S11700012EA0186201901000000000000
B0622443208404S11659959EA0186601903000000000000
B0622483208338S11659981EA0187401916000000000000
B0622523208317S11700051EA0188601928000000000000
B0622563208350S11700106EA0189001928000000000000
B0623003208411S11700128EA0188701923000000000000
B0623043208476S11700140EA0188501923000000000000
B0623083208543S11700147EA0188501917000000000000
B0623123208617S11700151EA0187201902000000000000
B0623163208691S11700154EA0186501902000000000000
B0623203208760S11700155EA0186601901000000000000
B0623243208827S11700159EA0186001892000000000000
B0623283208897S11700167EA0185501891000000000000
B0623323208964S11700169EA0185601894000000000000
B0623363209032S11700171EA0186201903000000000000
B0623403209096S11700172EA0187101911000000000000
B0623443209159S11700175EA0187201910000000000000
B0623483209224S11700179EA0187201911000000000000
B0623523209291S11700188EA0187401911000000000000
B0623563209358S11700198EA0187401914000000000000
B0624003209427S11700199EA0188201927000000000000
B0624043209495S11700189EA0189701941000000000000
B0624083209546S11700146EA0190801950000000000000
B0624123209538S11700071EA0191801964000000000000
B0624163209478S11700024EA0192701966000000000000
B0624203209400S11700029EA0193301979000000000000
B0624243209352S11700085EA0195202001000000000000
B0624283209352S11700158EA0196502006000000000000
B0624323209393S11700208EA0197302020000000000000
B0624363209438S11700197EA0198502030000000000000
B0624403209435S11700134EA0198402026000000000000
B0624443209379S11700090EA0199502043000000000000
B0624483209317S11700119EA0201302060000000000000
B0624523209308S11700192EA0202202065000000000000
B0624563209358S11700223EA0202802074000000000000
B0625003209395S11700182EA0203702082000000000000
B0625043209373S11700123EA0204802102000000000000
B0625083209314S11700115EA0206802115000000000000
B0625123209275S11700173EA0207302115000000000000
B0625163209302S11700236EA0207902127000000000000
B0625203209352S11700244EA0208902134000000000000
B0625243209378S11700197EA0209302139000000000000
B0625283209352S11700142EA0210002147000000000000
B0625323209295S11700129EA0210902155000000000000
B0625363209241S11700171EA0211602163000000000000
B0625403209221S11700240EA0212302173000000000000
B0625443209232S11700306EA0213302183000000000000
B0625483209271S11700345EA0214002181000000000000
B0625523209317S11700333EA0213302172000000000000
B0625563209327S11700279EA0212702169000000000000
B0626003209284S11700232EA0213202182000000000000
B0626043209226S11700233EA0215002198000000000000
B0626083209179S11700284EA0215502198000000000000
B0626123209170S11700358EA0216502214000000000000
B0626163209192S11700415EA0217302215000000000000
B0626203209231S11700452EA0216702208000000000000
B0626243209279S11700475EA0216002195000000000000
B0626283209335S11700497EA0214502178000000000000
B0626323209397S11700513EA0213102165000000000000
B0626363209464S11700510EA0212002159000000000000
B0626403209529S11700502EA0212802175000000000000
B0626443209591S11700498EA0214102187000000000000
B0626483209652S11700491EA0215102195000000000000
B0626523209712S11700493EA0215802202000000000000
B0626563209773S11700501EA0216102202000000000000
B0627003209838S11700502EA0215702196000000000000
B0627043209906S11700498EA0215302195000000000000
B0627083209972S11700494EA0215402195000000000000
B0627123210038S11700493EA0215102191000000000000
B0627163210103S11700484EA0215302195000000000000
B0627203210150S11700439EA0215302190000000000000
B0627243210133S11700372EA0214702185000000000000
B0627283210068S11700368EA0215002193000000000000
B0627323210025S11700428EA0215202191000000000000
B0627363209994S11700498EA0214602179000000000000
B0627403209933S11700523EA0213702177000000000000
B0627443209882S11700480EA0213202169000000000000
B0627483209886S11700410EA0212702162000000000000
B0627523209923S11700355EA0212202162000000000000
B0627563209962S11700309EA0212602169000000000000
B0628003209998S11700270EA0213802181000000000000
B0628043210034S11700236EA0214502186000000000000
B0628083210075S11700202EA0214202177000000000000
B0628123210115S11700167EA0213602177000000000000
B0628163210149S11700133EA0213602171000000000000
B0628203210181S11700086EA0212902164000000000000
B0628243210207S11700041EA0212802164000000000000
B0628283210235S11659987EA0211502143000000000000
B0628323210267S11659921EA0210702155000000000000
B0628363210292S11659877EA0212702169000000000000
B0628403210320S11659825EA0211302134000000000000
B0628443210361S11659753EA0208902123000000000000
B0628483210406S11659692EA0208502123000000000000
B0628523210450S11659648EA0209102134000000000000
B0628563210487S11659614EA0209502134000000000000
B0629003210530S11659575EA0207602111000000000000
B0629043210582S11659539EA0207002113000000000000
B0629083210630S11659536EA0207602121000000000000
B0629123210651S11659560EA0206002065000000000000
B0629163210658S11659622EA0196501959000000000000
B0629203210674S11659724EA0192501981000000015000
B0629243210714S11659787EA0195002001000000000000
B0629283210762S11659789EA0196702007000000015000
B0629323210775S11659777EA0193201923000000015000
B0629363210830S11659703EA0183801872000000015000
B0629403210860S11659620EA0184301896000000015000
B0629443210853S11659543EA0185101884000000015000
B0629483210817S11659471EA0183501862000000000000
B0629523210758S11659414EA0181701850000000000000
B0629563210691S11659370EA0180301831000000000000
B0630003210617S11659328EA0178701818000000000000
B0630043210541S11659289EA0177301800000000000000
B0630083210471S11659233EA0175701789000000000000
B0630123210419S11659158EA0174901781000000000000
B0630163210381S11659074EA0173801766000000000000
B0630203210346S11658983EA0172601757000000000000
B0630243210314S11658890EA0171901745000000000000
B0630283210280S11658799EA0170801738000000000000
B0630323210246S11658708EA0169801725000000000000
B0630363210212S11658616EA0168501713000000000000
B0630403210180S11658521EA0167801710000000000000
B0630443210149S11658425EA0168301716000000000000
B0630483210112S11658330EA0168501718000000000000
B0630523210071S11658235EA0168601720000000000000
B0630563210028S11658141EA0168701720000000000000
B0631003209986S11658047EA0169101731000000000000
B0631043209946S11657957EA0170701747000000000000
B0631083209903S11657870EA0171801756000000000000
B0631123209859S11657789EA0172301759000000000000
B0631163209817S11657711EA0172301759000000000000
B0631203209778S11657637EA0172301759000000000000
B0631243209737S11657566EA0171801753000000000000
B0631283209689S11657501EA0170801741000000000000
B0631323209634S11657442EA0170001734000000000000
B0631363209575S11657386EA0169501727000000000000
B0631403209513S11657334EA0168801718000000000000
B0631443209445S11657285EA0167401702000000000000
B0631483209370S11657237EA0165501669000000000000
B0631523209278S11657183EA0161101605000000000000
B0631563209165S11657122EA0155101539000000000000
B0632003209036S11657056EA0150201486000000000000
B0632043208897S11656986EA0146401454000000000000
B0632083208756S11656909EA0143801426000000000000
B0632123208615S11656830EA0139901384000000000000
B0632163208468S11656748EA0135701341000000000000
B0632203208320S11656663EA0133201307000000000000
B0632243208170S11656580EA0129901280000000000000
B0632283208022S11656498EA0126601241000000000000
B0632323207869S11656416EA0122401202000000000000
B0632363207724S11656346EA0122701249000000000000
B0632403207599S11656292EA0127001294000000000000
B0632443207486S11656253EA0129101308000000000000
B0632483207378S11656250EA0130101318000000000000
B0632523207289S11656295EA0131101331000000000000
B0632563207226S11656373EA0131201326000000000000
B0633003207189S11656470EA0130101313000000000000
B0633043207170S11656575EA0128701298000000000000
B0633083207165S11656682EA0128201290000000000000
B0633123207169S11656788EA0126301281000000000000
B0633163207178S11656893EA0125701276000000000000
B0633203207191S11657000EA0124501261000000000000
B0633243207206S11657105EA0123301251000000000000
B0633283207225S11657211EA0121801230000000000000
B0633323207264S11657309EA0120401218000000000000
B0633363207321S11657399EA0119001203000000000000
B0633403207394S11657472EA0118601206000000000000
B0633443207477S11657528EA0118701205000000000000
B0633483207563S11657568EA0118101195000000000000
B0633523207653S11657602EA0116901183000000000000
B0633563207745S11657607EA0116301178000000000000
B0634003207831S11657576EA0116001177000000000000
B0634043207913S11657534EA0115101164000000000000
B0634083207997S11657494EA0113801152000000000000
B0634123208080S11657456EA0112801143000000000000
B0634163208161S11657424EA0112301138000000000000
B0634203208240S11657394EA0111701134000000000000
B0634243208321S11657372EA0110901123000000000000
B0634283208404S11657372EA0110001114000000000000
B0634323208486S11657390EA0109401110000000000000
B0634363208567S11657421EA0109001105000000000000
B0634403208645S11657459EA0109201112000000000000
B0634443208721S11657491EA0109801115000000000000
B0634483208799S11657516EA0109601114000000000000
B0634523208875S11657537EA0109801117000000000000
B0634563208949S11657554EA0109401108000000000000
B0635003209020S11657569EA0108901109000000000000
B0635043209089S11657584EA0108401097000000000000
B0635083209162S11657606EA0106901083000000000000
B0635123209235S11657633EA0106301081000000000000
B0635163209306S11657663EA0105301066000000000000
B0635203209375S11657696EA0104101054000000000000
B0635243209447S11657723EA0103201041000000000000
B0635283209522S11657748EA0101401016000000000000
B0635323209600S11657789EA0099501001000000000000
B0635363209666S11657854EA0099201009000000000000
B0635403209713S11657932EA0100401023000000000000
B0635443209739S11658019EA0101001024000000000000
B0635483209747S11658114EA0101001023000000000000
B0635523209751S11658213EA0101001027000000000000
B0635563209752S11658308EA0101801036000000000000
B0636003209782S11658382EA0102701042000000000000
B0636043209842S11658390EA0103301047000000000000
B0636083209880S11658331EA0104101063000000000000
B0636123209863S11658258EA0106101088000000000000
B0636163209803S11658219EA0108001105000000000000
B0636203209735S11658239EA0109301115000000000000
B0636243209704S11658301EA0110301122000000000000
B0636283209728S11658356EA0110401120000000000000
B0636323209780S11658347EA0110101121000000000000
B0636363209796S11658279EA0111101137000000000000
B0636403209763S11658213EA0113001155000000000000
B0636443209699S11658192EA0115001176000000000000
B0636483209646S11658222EA0116201185000000000000
B0636523209634S11658284EA0116401181000000000000
B0636563209670S11658323EA0116201182000000000000
B0637003209718S11658307EA0116601192000000000000
B0637043209731S11658243EA0118101210000000000000
B0637083209694S11658186EA0120101229000000000000
B0637123209631S11658177EA0121701241000000000000
B0637163209590S11658226EA0122101240000000000000
B0637203209611S11658287EA0121701238000000000000
B0637243209665S11658296EA0122101249000000000000
B0637283209708S11658251EA0123101259000000000000
B0637323209702S11658174EA0124601278000000000000
B0637363209644S11658130EA0126001289000000000000
B0637403209582S11658152EA0127501303000000000000
B0637443209561S11658216EA0128101304000000000000
B0637483209594S11658268EA0128701315000000000000
B0637523209647S11658257EA0129601322000000000000
B0637563209673S11658190EA0130701335000000000000
B0638003209644S11658113EA0131601340000000000000
B0638043209577S11658083EA0132201350000000000000
B0638083209512S11658108EA0133001355000000000000
B0638123209477S11658171EA0133201353000000000000
B0638163209487S11658249EA0132701350000000000000
B0638203209536S11658294EA0133001357000000000000
B0638243209599S11658294EA0133501360000000000000
B0638283209648S11658251EA0134901380000000000000
B0638323209626S11658179EA0136801398000000000000
B0638363209560S11658151EA0137801403000000000000
B0638403209496S11658186EA0137901404000000000000
B0638443209479S11658265EA0138201409000000000000
B0638483209514S11658327EA0138701415000000000000
B0638523209577S11658336EA0139101418000000000000
B0638563209622S11658278EA0139601425000000000000
B0639003209604S11658201EA0141201451000000000000
B0639043209547S11658166EA0143201467000000000000
B0639083209486S11658186EA0144101469000000000000
B0639123209458S11658248EA0144301472000000000000
B0639163209474S11658316EA0144301470000000000000
B0639203209527S11658359EA0143701459000000000000
B0639243209596S11658351EA0143601465000000000000
B0639283209642S11658296EA0145201489000000000000
B0639323209640S11658230EA0147001503000000000000
B0639363209595S11658182EA0147501504000000000000
B0639403209530S11658179EA0147601503000000000000
B0639443209474S11658229EA0147501506000000000000
B0639483209460S11658307EA0148301519000000000000
B0639523209497S11658356EA0149901537000000000000
B0639563209547S11658339EA0151501552000000000000
B0640003209553S11658281EA0152901563000000000000
B0640043209514S11658229EA0153101559000000000000
B0640083209448S11658213EA0153001561000000000000
B0640123209384S11658248EA0153401568000000000000
B0640163209348S11658312EA0154401574000000000000
B0640203209357S11658382EA0154301570000000000000
B0640243209400S11658442EA0153301558000000000000
B0640283209444S11658515EA0152501548000000000000
B0640323209474S11658604EA0151501540000000000000
B0640363209478S11658706EA0150901529000000000000
B0640403209462S11658810EA0149201509000000000000
B0640443209443S11658915EA0147901500000000000000
B0640483209426S11659020EA0147401497000000000000
B0640523209410S11659127EA0146301477000000000000
B0640563209392S11659235EA0144501467000000000000
B0641003209374S11659337EA0145201483000000000000
B0641043209354S11659430EA0146501493000000000000
B0641083209332S11659522EA0146501490000000000000
B0641123209322S11659616EA0147401504000000000000
B0641163209360S11659679EA0149301521000000000000
B0641203209421S11659672EA0150101529000000000000
B0641243209458S11659608EA0150901538000000000000
B0641283209451S11659526EA0151601545000000000000
B0641323209417S11659448EA0151601536000000000000
B0641363209379S11659357EA0150001511000000000000
B0641403209343S11659252EA0148101499000000000000
B0641443209312S11659141EA0147001481000000000000
B0641483209286S11659023EA0145501472000000000000
B0641523209266S11658907EA0146301488000000000000
B0641563209245S11658799EA0147401498000000000000
B0642003209219S11658698EA0147501497000000000000
B0642043209184S11658602EA0146601487000000000000
B0642083209150S11658503EA0145501476000000000000
B0642123209115S11658405EA0144101461000000000000
B0642163209081S11658305EA0142901445000000000000
B0642203209052S11658204EA0141401434000000000000
B0642243209023S11658102EA0140801431000000000000
B0642283208997S11658006EA0140801432000000000000
B0642323208967S11657913EA0140801435000000000000
B0642363208927S11657822EA0140801431000000000000
B0642403208880S11657731EA0140301428000000000000
B0642443208831S11657645EA0140001423000000000000
B0642483208782S11657563EA0139501418000000000000
B0642523208738S11657480EA0138801405000000000000
B0642563208689S11657397EA0138101402000000000000
B0643003208621S11657333EA0138001398000000000000
B0643043208535S11657290EA0136701384000000000000
B0643083208443S11657259EA0136001381000000000000
B0643123208355S11657226EA0135901382000000000000
B0643163208268S11657195EA0135001367000000000000
B0643203208179S11657163EA0133701356000000000000
B0643243208088S11657131EA0132901350000000000000
B0643283207999S11657100EA0132701349000000000000
B0643323207909S11657065EA0132101341000000000000
B0643363207818S11657026EA0131201327000000000000
B0643403207727S11656983EA0129701312000000000000
B0643443207637S11656934EA0128501303000000000000
B0643483207547S11656883EA0127501294000000000000
B0643523207458S11656835EA0126401282000000000000
B0643563207365S11656795EA0125501274000000000000
B0644003207271S11656771EA0125001265000000000000
B0644043207172S11656765EA0123801254000000000000
B0644083207073S11656771EA0122601240000000000000
B0644123206974S11656791EA0121501227000000000000
B0644163206878S11656825EA0120301218000000000000
B0644203206787S11656862EA0119601214000000000000
B0644243206701S11656904EA0119901221000000000000
B0644283206626S11656943EA0119901217000000000000
B0644323206549S11656979EA0118501199000000000000
B0644363206471S11657022EA0116801184000000000000
B0644403206393S11657064EA0115401169000000000000
B0644443206314S11657105EA0113601149000000000000
B0644483206233S11657152EA0112501137000000000000
B0644523206150S11657200EA0111901134000000000000
B0644563206069S11657252EA0112801152000000000000
B0645003206010S11657316EA0114601168000000000000
B0645043205976S11657400EA0115701183000000000000
B0645083205951S11657489EA0117001187000000000000
B0645123205922S11657581EA0117101194000000000000
B0645163205864S11657646EA0118601209000000000000
B0645203205795S11657696EA0118801207000000000000
B0645243205725S11657741EA0118301202000000000000
B0645283205652S11657794EA0117201188000000000000
B0645323205579S11657859EA0116601184000000000000
B0645363205505S11657923EA0116701186000000000000
B0645403205431S11657989EA0117101193000000000000
B0645443205360S11658053EA0117801199000000000000
B0645483205284S11658114EA0117301185000000000000
B0645523205206S11658184EA0116101180000000000000
B0645563205131S11658257EA0116001177000000000000
B0646003205050S11658322EA0116001181000000000000
B0646043204966S11658369EA0117101193000000000000
B0646083204882S11658407EA0118201203000000000000
B0646123204838S11658483EA0118801208000000000000
B0646163204873S11658544EA0120001230000000000000
B0646203204929S11658534EA0122001252000000000000
B0646243204946S11658476EA0123801265000000000000
B0646283204908S11658422EA0124101264000000000000
B0646323204842S11658422EA0124001260000000000000
B0646363204799S11658482EA0123801259000000000000
B0646403204812S11658551EA0124801275000000000000
B0646443204856S11658591EA0126701298000000000000
B0646483204881S11658543EA0128901318000000000000
B0646523204833S11658495EA0130101328000000000000
B0646563204771S11658522EA0131401342000000000000
B0647003204759S11658593EA0133201362000000000000
B0647043204803S11658616EA0135101391000000000000
B0647083204827S11658564EA0138001411000000000000
B0647123204789S11658507EA0139301428000000000000
B0647163204726S11658516EA0141101445000000000000
B0647203204706S11658581EA0143001464000000000000
B0647243204739S11658622EA0145001493000000000000
B0647283204782S11658604EA0147501511000000000000
B0647323204788S11658537EA0149201526000000000000
B0647363204742S11658485EA0150401536000000000000
B0647403204676S11658491EA0151801553000000000000
B0647443204643S11658552EA0153701571000000000000
B0647483204673S11658599EA0155601594000000000000
B0647523204717S11658574EA0158001615000000015000
B0647563204715S11658502EA0159501629000000015000
B0648003204659S11658457EA0161001644000000015000
B0648043204593S11658483EA0162101663000000015000
B0648083204570S11658554EA0164401691000000015000
B0648123204608S11658593EA0166801711000000015000
B0648163204648S11658552EA0169001733000000015000
B0648203204629S11658478EA0170301737000000015000
B0648243204557S11658455EA0171201753000000015000
B0648283204492S11658496EA0172901770000000015000
B0648323204476S11658570EA0174601789000000015000
B0648363204517S11658611EA0177101820000000015000
B0648403204557S11658572EA0179601841000000015000
B0648443204542S11658499EA0181201852000000015000
B0648483204477S11658476EA0182601868000000015000
B0648523204427S11658520EA0183901887000000015000
B0648563204433S11658582EA0185301895000000015000
B0649003204483S11658604EA0186501913000000015000
B0649043204525S11658564EA0189101940000000015000
B0649083204516S11658494EA0190901952000000015000
B0649123204457S11658460EA0191901962000000015000
B0649163204398S11658491EA0193101973000000015000
B0649203204392S11658556EA0194101983000000015000
B0649243204438S11658583EA0195402001000000015000
B0649283204481S11658544EA0197502019000000015000
B0649323204473S11658473EA0198502028000000015000
B0649363204412S11658444EA0199202033000000015000
B0649403204357S11658487EA0199602037000000015000
B0649443204353S11658561EA0200102049000000015000
B0649483204395S11658604EA0202002069000000015000
B0649523204447S11658583EA0204002088000000015000
B0649563204463S11658516EA0205302098000000015000
B0650003204426S11658456EA0206002100000000015000
B0650043204355S11658447EA0205202087000000015000
B0650083204271S11658479EA0203802073000000015000
B0650123204182S11658521EA0203502071000000000000
B0650163204086S11658568EA0202302054000000000000
B0650203203984S11658620EA0201902060000000000000
B0650243203883S11658671EA0203802075000000000000
B0650283203785S11658719EA0204802094000000000000
B0650323203689S11658767EA0205502087000000000000
B0650363203589S11658815EA0204402080000000000000
B0650403203485S11658862EA0204802094000000000000
B0650443203385S11658908EA0206002099000000000000
B0650483203285S11658958EA0205502087000000000000
B0650523203185S11659014EA0204202074000000000000
B0650563203083S11659067EA0202702059000000000000
B0651003202982S11659122EA0200402030000000000000
B0651043202875S11659171EA0198102013000000000000
B0651083202771S11659219EA0198002016000000000000
B0651123202671S11659267EA0197702005000000000000
B0651163202565S11659310EA0195801980000000000000
B0651203202453S11659352EA0194301969000000000000
B0651243202344S11659393EA0194601982000000000000
B0651283202243S11659435EA0195201984000000000000
B0651323202147S11659474EA0194901979000000000000
B0651363202047S11659508EA0194001966000000000000
B0651403201946S11659536EA0193301961000000000000
B0651443201848S11659571EA0193001960000000000000
B0651483201752S11659605EA0192201950000000000000
B0651523201653S11659644EA0191601947000000000000
B0651563201554S11659686EA0191601943000000000000
B0652003201460S11659737EA0191201936000000000000
B0652043201367S11659794EA0190101926000000000000
B0652083201272S11659850EA0188201906000000000000
B0652123201175S11659902EA0186901897000000000000
B0652163201080S11659954EA0186201891000000000000
B0652203200985S11700006EA0185101875000000000000
B0652243200888S11700059EA0183701861000000000000
B0652283200791S11700114EA0182401848000000000000
B0652323200691S11700167EA0180701830000000000000
B0652363200589S11700218EA0179701817000000000000
B0652403200490S11700270EA0178901811000000000000
B0652443200392S11700320EA0177701797000000000000
B0652483200293S11700368EA0176001779000000000000
B0652523200195S11700418EA0174401765000000000000
B0652563200100S11700472EA0173701763000000000000
B0653003200005S11700524EA0173301756000000000000
B0653043159913S11700580EA0173201758000000000000
B0653083159827S11700641EA0174401774000000000000
B0653123159749S11700705EA0175601790000000000000
B0653163159675S11700767EA0176901807000000000000
B0653203159597S11700816EA0179301836000000000000
B0653243159517S11700855EA0181001846000000000000
B0653283159434S11700899EA0181301840000000000000
B0653323159342S11700948EA0180301826000000000000
B0653363159243S11701001EA0179401820000000000000
B0653403159139S11701052EA0178801808000000000000
B0653443159034S11701105EA0178201810000000000000
B0653483158928S11701156EA0178101803000000000000
B0653523158822S11701206EA0176801787000000000000
B0653563158711S11701258EA0175401774000000000000
B0654003158600S11701310EA0174201758000000000000
B0654043158486S11701364EA0172701745000000000000
B0654083158373S11701419EA0171601731000000000000
B0654123158258S11701469EA0169501703000000000000
B0654163158141S11701523EA0167401693000000000000
B0654203158035S11701571EA0168601717000000000000
B0654243157938S11701616EA0168101701000000000000
B0654283157838S11701664EA0165501671000000000000
B0654323157740S11701716EA0164501672000000000000
B0654363157644S11701768EA0164601672000000000000
B0654403157554S11701828EA0165201688000000000000
B0654443157470S11701882EA0166501698000000000000
B0654483157385S11701930EA0166601695000000000000
B0654523157302S11701975EA0166501696000000000000
B0654563157219S11702017EA0166201689000000000000
B0655003157132S11702061EA0165601684000000000000
B0655043157041S11702104EA0165101679000000000000
B0655083156945S11702144EA0164801681000000000000
B0655123156850S11702183EA0165801701000000000000
B0655163156767S11702230EA0169001726000000000000
B0655203156743S11702314EA0170901740000000000000
B0655243156802S11702348EA0171801756000000000000
B0655283156848S11702292EA0173701778000000000000
B0655323156843S11702210EA0175501795000000000000
B0655363156796S11702143EA0176701805000000000000
B0655403156726S11702129EA0178601835000000000000
B0655443156703S11702187EA0181201857000000000000
B0655483156737S11702223EA0183001871000000000000
B0655523156780S11702190EA0184501886000000000000
B0655563156780S11702114EA0185901906000000000000
B0656003156733S11702062EA0188301928000000000000
B0656043156666S11702070EA0189201932000000000000
B0656083156633S11702130EA0190401947000000000000
B0656123156655S11702187EA0191901959000000000000
B0656163156707S11702183EA0193101980000000000000
B0656203156716S11702117EA0195001997000000000000
B0656243156666S11702065EA0196302009000000000000
B0656283156601S11702075EA0197402017000000000000
B0656323156568S11702138EA0198102022000000000000
B0656363156587S11702208EA0199002033000000000000
B0656403156640S11702233EA0200502050000000000000
B0656443156690S11702196EA0202002059000000000000
B0656483156703S11702118EA0202302063000000000000
B0656523156659S11702048EA0203302076000000000000
B0656563156586S11702030EA0204802091000000000000
B0657003156516S11702060EA0205002082000000000000
B0657043156439S11702109EA0202902059000000000000
B0657083156353S11702170EA0202002048000000000000
B0657123156261S11702234EA0200502033000000000000
B0657163156162S11702295EA0199902034000000000000
B0657203156065S11702356EA0199502026000000000000
B0657243155966S11702420EA0198402015000000000000
B0657283155867S11702483EA0197602010000000000000
B0657323155767S11702543EA0197202007000000000000
B0657363155669S11702602EA0196502000000000000000
B0657403155573S11702659EA0196001993000000000000
B0657443155478S11702717EA0195301988000000000000
B0657483155385S11702776EA0194801980000000000000
B0657523155290S11702831EA0194201975000000000000
B0657563155196S11702883EA0193701969000000000000
B0658003155101S11702931EA0193201966000000000000
B0658043155006S11702975EA0193101966000000000000
B0658083154914S11703015EA0193201968000000000000
B0658123154826S11703057EA0193201969000000000000
B0658163154736S11703094EA0193001965000000000000
B0658203154646S11703132EA0192601957000000000000
B0658243154554S11703171EA0191801950000000000000
B0658283154462S11703214EA0191001942000000000000
B0658323154368S11703256EA0190301937000000000000
B0658363154276S11703299EA0189601928000000000000
B0658403154183S11703347EA0189301926000000000000
B0658443154099S11703397EA0189701925000000000000
B0658483154016S11703453EA0188601911000000000000
B0658523153929S11703505EA0187501903000000000000
B0658563153840S11703555EA0187001895000000000000
B0659003153752S11703600EA0186201887000000000000
B0659043153661S11703642EA0185601881000000000000
B0659083153571S11703686EA0184701867000000000000
B0659123153480S11703733EA0182801848000000000000
B0659163153389S11703785EA0181601838000000000000
B0659203153297S11703837EA0180501825000000000000
B0659243153202S11703887EA0179201811000000000000
B0659283153107S11703939EA0177901793000000000000
B0659323153010S11703991EA0176101773000000000000
B0659363152911S11704045EA0174501760000000000000
B0659403152813S11704098EA0173201750000000000000
B0659443152717S11704147EA0172401740000000000000
B0659483152622S11704197EA0170801724000000000000
B0659523152530S11704249EA0169701716000000000000
B0659563152440S11704302EA0169001711000000000000
B0700003152350S11704354EA0167801700000000000000
B0700043152262S11704406EA0167001691000000000000
B0700083152172S11704454EA0166001679000000000000
B0700123152081S11704500EA0164801670000000000000
B0700163151989S11704543EA0163901660000000000000
B0700203151898S11704583EA0163101651000000000000
B0700243151806S11704625EA0161801637000000000000
B0700283151716S11704662EA0161501635000000000000
B0700323151630S11704704EA0160801631000000000000
B0700363151548S11704747EA0161401643000000000000
B0700403151468S11704787EA0162601657000000000000
B0700443151390S11704826EA0162801650000000000000
B0700483151307S11704868EA0160901625000000000000
B0700523151216S11704913EA0159001607000000000000
B0700563151118S11704957EA0157601592000000000000
B0701003151021S11705003EA0156801588000000000000
B0701043150924S11705046EA0156601584000000000000
B0701083150829S11705090EA0156101581000000000000
B0701123150735S11705134EA0155601575000000000000
B0701163150640S11705177EA0154701566000000000000
B0701203150545S11705216EA0154001558000000000000
B0701243150449S11705256EA0152701541000000000000
B0701283150348S11705297EA0151001523000000000000
B0701323150247S11705340EA0149401505000000000000
B0701363150146S11705384EA0147701483000000000000
B0701403150047S11705433EA0146601485000000000000
B0701443149951S11705481EA0146301471000000000000
B0701483149856S11705536EA0144901462000000000000
B0701523149760S11705588EA0144301455000000000000
B0701563149666S11705637EA0145101480000000000000
B0702003149581S11705679EA0148201509000000000000
B0702043149502S11705719EA0148701502000000000000
B0702083149422S11705769EA0147801492000000000000
B0702123149337S11705828EA0147101487000000000000
B0702163149258S11705888EA0148301507000000000000
B0702203149181S11705945EA0149801521000000000000
B0702243149107S11706005EA0150501527000000000000
B0702283149032S11706070EA0150201517000000000000
B0702323148955S11706136EA0149501509000000000000
B0702363148876S11706204EA0147701485000000000000
B0702403148792S11706272EA0146101470000000000000
B0702443148705S11706337EA0144301450000000000000
B0702483148621S11706406EA0142701437000000000000
B0702523148539S11706474EA0141601425000000000000
B0702563148460S11706549EA0140101410000000000000
B0703003148379S11706625EA0139001399000000000000
B0703043148300S11706702EA0137801387000000000000
B0703083148226S11706781EA0137501388000000000000
B0703123148151S11706850EA0137001382000000000000
B0703163148072S11706907EA0136101372000000000000
B0703203147992S11706958EA0135401367000000000000
B0703243147911S11707010EA0134101347000000000000
B0703283147824S11707062EA0132201328000000000000
B0703323147729S11707101EA0131501328000000000000
B0703363147630S11707130EA0132001339000000000000
B0703403147533S11707156EA0132101327000000000000
B0703443147433S11707187EA0130901318000000000000
B0703483147332S11707214EA0130601314000000000000
B0703523147228S11707236EA0129601305000000000000
B0703563147126S11707258EA0128801294000000000000
B0704003147022S11707282EA0127601282000000000000
B0704043146920S11707306EA0126201266000000000000
B0704083146820S11707335EA0124801252000000000000
B0704123146721S11707365EA0123301241000000000000
B0704163146623S11707394EA0122301227000000000000
B0704203146525S11707423EA0120901213000000000000
B0704243146426S11707452EA0119401198000000000000
B0704283146328S11707483EA0118201186000000000000
B0704323146227S11707514EA0117201176000000000000
B0704363146127S11707544EA0116201164000000000000
B0704403146027S11707577EA0115301154000000000000
B0704443145927S11707608EA0115001158000000000000
B0704483145830S11707638EA0114801151000000000000
B0704523145732S11707670EA0113701138000000000000
B0704563145636S11707709EA0112801132000000000000
B0705003145542S11707751EA0112501132000000000000
B0705043145457S11707799EA0112301127000000000000
B0705083145372S11707852EA0111101113000000000000
B0705123145284S11707901EA0109701096000000000000
B0705163145191S11707930EA0108801092000000000000
B0705203145100S11707945EA0108301090000000000000
B0705243145011S11707958EA0107401083000000000000
B0705283144920S11707971EA0106501071000000000000
B0705323144827S11707984EA0105401058000000000000
B0705363144732S11707990EA0104301052000000000000
B0705403144640S11707994EA0104501056000000000000
B0705443144549S11707993EA0105801079000000000000
B0705483144476S11708027EA0109201113000000000000
B0705523144497S11708093EA0112401146000000000000
B0705563144544S11708066EA0114701170000000000000
B0706003144530S11708001EA0116801190000000000000
B0706043144467S11707984EA0118801209000000000000
B0706083144430S11708044EA0121001235000000000000
B0706123144459S11708099EA0123301253000000000000
B0706163144508S11708073EA0124601270000000000000
B0706203144497S11708008EA0126301287000000000000
B0706243144435S11707986EA0128401308000000000000
B0706283144380S11708032EA0130601331000000000000
B0706323144378S11708102EA0132201342000000000000
B0706363144428S11708125EA0133201356000000000000
B0706403144458S11708070EA0135501383000000000000
B0706443144414S11708018EA0137801403000000000000
B0706483144348S11708033EA0139301425000000000000
B0706523144314S11708096EA0141301439000000000000
B0706563144337S11708155EA0141701440000000000000
B0707003144394S11708159EA0142801459000000000000
B0707043144401S11708088EA0145201487000000000000
B0707083144342S11708055EA0148001520000000000000
B0707123144292S11708093EA0150501534000000000000
B0707163144294S11708155EA0151301539000000000000
B0707203144346S11708164EA0152701565000000000000
B0707243144376S11708110EA0155201589000000000000
B0707283144340S11708051EA0157701615000000000000
B0707323144276S11708068EA0160001634000000000000
B0707363144246S11708131EA0161101640000000000000
B0707403144263S11708194EA0162101651000000000000
B0707443144310S11708215EA0162101646000000000000
B0707483144357S11708170EA0161601641000000000000
B0707523144374S11708086EA0162001649000000000000
B0707563144344S11708008EA0163701683000000000000
B0708003144281S11708018EA0167401722000000000000
B0708043144266S11708081EA0170301740000000000000
B0708083144314S11708107EA0171601752000000000000
B0708123144361S11708058EA0173701780000000000000
B0708163144359S11707981EA0176201805000000000000
B0708203144310S11707936EA0178401825000000000000
B0708243144250S11707951EA0180101836000000000000
B0708283144228S11708020EA0180101833000000000000
B0708323144262S11708083EA0181401858000000000000
B0708363144320S11708073EA0184701890000000000000
B0708403144349S11708005EA0187101911000000000000
B0708443144315S11707938EA0189201933000000000000
B0708483144255S11707949EA0191201951000000000000
B0708523144244S11708021EA0191801955000000000000
B0708563144298S11708054EA0194201988000000000000
B0709003144339S11708001EA0196502014000000000000
B0709043144314S11707930EA0198502027000000000000
B0709083144249S11707908EA0199702037000000015000
B0709123144193S11707951EA0200502042000000015000
B0709163144192S11708031EA0201402057000000000000
B0709203144246S11708076EA0203202076000000000000
B0709243144315S11708066EA0205402097000000000000
B0709283144352S11707998EA0207002110000000000000
B0709323144310S11707927EA0208202122000000000000
B0709363144233S11707893EA0208202110000000000000
B0709403144140S11707878EA0205802082000000000000
B0709443144032S11707876EA0204802080000000000000
B0709483143920S11707882EA0204902083000000000000
B0709523143806S11707898EA0204502075000000000000
B0709563143689S11707923EA0203402060000000000000
B0710003143570S11707962EA0202002054000000000000
B0710043143457S11708010EA0202102060000000000000
B0710083143351S11708062EA0202302048000000000000
B0710123143247S11708124EA0200602033000000000000
B0710163143139S11708188EA0198902017000000000000
B0710203143033S11708248EA0198302015000000000000
B0710243142928S11708306EA0197502006000000000000
B0710283142824S11708362EA0196401992000000000000
B0710323142721S11708419EA0195201975000000000000
B0710363142619S11708475EA0193801965000000000000
B0710403142516S11708532EA0192701956000000000000
B0710443142416S11708591EA0191701946000000000000
B0710483142317S11708649EA0191401949000000000000
B0710523142220S11708705EA0191101938000000000000
B0710563142123S11708762EA0189801930000000000000
B0711003142031S11708820EA0189501927000000000000
B0711043141944S11708874EA0189401928000000000000
B0711083141856S11708925EA0188901920000000000000
B0711123141768S11708973EA0188501916000000000000
B0711163141679S11709020EA0187701907000000000000
B0711203141589S11709068EA0187001901000000000000
B0711243141499S11709115EA0186301893000000000000
B0711283141408S11709162EA0185801889000000000000
B0711323141315S11709202EA0186201896000000000000
B0711363141222S11709241EA0186701900000000000000
B0711403141130S11709282EA0186501896000000000000
B0711443141042S11709329EA0185701884000000000000
B0711483140953S11709380EA0184501874000000000000
B0711523140864S11709425EA0184701882000000000000
B0711563140782S11709474EA0185401890000000000000
B0712003140702S11709527EA0185101881000000000000
B0712043140622S11709585EA0184701880000000000000
B0712083140545S11709649EA0184501878000000000000
B0712123140470S11709715EA0184301878000000000000
B0712163140394S11709784EA0184601881000000000000
B0712203140318S11709853EA0184401873000000000000
B0712243140233S11709919EA0184501885000000000000
B0712283140151S11709979EA0185801894000000000000
B0712323140064S11710040EA0185101878000000000000
B0712363139977S11710105EA0184701880000000000000
B0712403139891S11710166EA0184601877000000000000
B0712443139805S11710225EA0183701864000000000000
B0712483139717S11710285EA0182401848000000000000
B0712523139626S11710346EA0181501842000000000000
B0712563139535S11710404EA0181301843000000000000
B0713003139444S11710465EA0181301844000000000000
B0713043139357S11710529EA0181001837000000000000
B0713083139267S11710595EA0179801821000000000000
B0713123139178S11710663EA0178801818000000000000
B0713163139087S11710724EA0178901820000000000000
B0713203138996S11710781EA0178401810000000000000
B0713243138903S11710839EA0177301798000000000000
B0713283138814S11710896EA0176901801000000000000
B0713323138729S11710953EA0177601809000000000000
B0713363138648S11711010EA0178201815000000000000
B0713403138570S11711067EA0178501815000000000000
B0713443138494S11711128EA0178101814000000000000
B0713483138422S11711195EA0178401818000000000000
B0713523138352S11711265EA0178301811000000000000
B0713563138281S11711339EA0176601786000000000000
B0714003138214S11711427EA0174501767000000000000
B0714043138153S11711522EA0172901754000000000000
B0714083138100S11711622EA0171801742000000000000
B0714123138049S11711723EA0170901736000000000000
B0714163137996S11711821EA0170401731000000000000
B0714203137940S11711916EA0169801724000000000000
B0714243137879S11712006EA0169501723000000000000
B0714283137824S11712097EA0169401722000000000000
B0714323137772S11712187EA0169001717000000000000
B0714363137722S11712278EA0168501711000000000000
B0714403137671S11712370EA0167601701000000000000
B0714443137618S11712461EA0167101701000000000000
B0714483137567S11712549EA0166901698000000000000
B0714523137516S11712636EA0166501692000000000000
B0714563137469S11712725EA0165901683000000000000
B0715003137417S11712812EA0165101676000000000000
B0715043137363S11712895EA0164701676000000000000
B0715083137306S11712973EA0164901678000000000000
B0715123137252S11713050EA0165501687000000000000
B0715163137224S11713134EA0166701701000000000000
B0715203137237S11713214EA0167801708000000000000
B0715243137281S11713271EA0167601702000000000000
B0715283137342S11713311EA0166501688000000000000
B0715323137411S11713344EA0165701683000000000000
B0715363137482S11713363EA0165901686000000000000
B0715403137555S11713377EA0166801699000000000000
B0715443137625S11713388EA0167701709000000000000
B0715483137696S11713379EA0168601721000000000000
B0715523137762S11713357EA0170401740000000000000
B0715563137802S11713286EA0172101757000000000000
B0716003137762S11713208EA0174501783000000000000
B0716043137690S11713210EA0176201797000000000000
B0716083137663S11713272EA0176801802000000000000
B0716123137690S11713327EA0178201819000000000000
B0716163137737S11713329EA0180301841000000000000
B0716203137753S11713263EA0181501849000000000000
B0716243137706S11713201EA0183001868000000000000
B0716283137636S11713202EA0184701882000000000000
B0716323137590S11713255EA0185301891000000000000
B0716363137606S11713316EA0186801914000000000000
B0716403137650S11713323EA0189101935000000000000
B0716443137673S11713264EA0190401942000000000000
B0716483137636S11713195EA0191501959000000000000
B0716523137566S11713185EA0193101972000000000000
B0716563137517S11713237EA0194201981000000000000
B0717003137530S11713299EA0195601997000000000000
B0717043137580S11713306EA0197602018000000000000
B0717083137612S11713251EA0199302031000000000000
B0717123137585S11713176EA0200002044000000000000
B0717163137516S11713150EA0201702064000000000000
B0717203137454S11713181EA0203102075000000000000
B0717243137432S11713247EA0204102086000000000000
B0717283137455S11713298EA0205902107000000000000
B0717323137502S11713301EA0207602123000000000000
B0717363137537S11713247EA0209302135000000000000
B0717403137521S11713171EA0210502149000000000000
B0717443137455S11713134EA0211402156000000000000
B0717483137390S11713167EA0211902161000000000000
B0717523137389S11713237EA0212502171000000000000
B0717563137432S11713284EA0213402177000000000000
B0718003137491S11713315EA0214002180000000000000
B0718043137562S11713345EA0213502170000000000000
B0718083137636S11713375EA0213102167000000000000
B0718123137714S11713414EA0212302156000000000000
B0718163137794S11713454EA0211402149000000000000
B0718203137876S11713500EA0210902134000000000000
B0718243137957S11713554EA0210002125000000000000
B0718283138032S11713611EA0210102129000000000000
B0718323138101S11713671EA0210602133000000000000
B0718363138165S11713738EA0210202123000000000000
B0718403138231S11713810EA0209202106000000000000
B0718443138301S11713886EA0208002099000000000000
B0718483138374S11713955EA0207302090000000000000
B0718523138447S11714024EA0206402085000000000000
B0718563138520S11714092EA0205802078000000000000
B0719003138595S11714159EA0205602080000000000000
B0719043138669S11714222EA0206202087000000000000
B0719083138746S11714284EA0205702079000000000000
B0719123138824S11714345EA0204902065000000000000
B0719163138902S11714404EA0203602054000000000000
B0719203138980S11714460EA0203002054000000000000
B0719243139058S11714514EA0202202042000000000000
B0719283139136S11714568EA0201002029000000000000
B0719323139211S11714623EA0200002019000000000000
B0719363139287S11714679EA0198802007000000000000
B0719403139362S11714735EA0197701997000000000000
B0719443139438S11714791EA0197001989000000000000
B0719483139512S11714843EA0196601985000000000000
B0719523139588S11714888EA0196101983000000000000
B0719563139664S11714928EA0196001987000000000000
B0720003139737S11714960EA0196601992000000000000
B0720043139807S11714992EA0196001980000000000000
B0720083139877S11715031EA0194201961000000000000
B0720123139952S11715073EA0192401940000000000000
B0720163140028S11715123EA0190701925000000000000
B0720203140107S11715177EA0190001920000000000000
B0720243140184S11715231EA0189801918000000000000
B0720283140262S11715281EA0190201929000000000000
B0720323140338S11715329EA0190701930000000000000
B0720363140410S11715381EA0191001934000000000000
B0720403140480S11715435EA0190301920000000000000
B0720443140556S11715493EA0189901929000000000000
B0720483140630S11715551EA0191101940000000000000
B0720523140702S11715611EA0191701952000000000000
B0720563140773S11715669EA0193501975000000000000
B0721003140840S11715725EA0193401964000000000000
B0721043140914S11715782EA0192401956000000000000
B0721083140985S11715841EA0192801966000000000000
B0721123141056S11715896EA0193501972000000000000
B0721163141130S11715946EA0194101983000000000000
B0721203141200S11715993EA0195101984000000000000
B0721243141276S11716044EA0194101973000000000000
B0721283141351S11716098EA0194401984000000000000
B0721323141423S11716157EA0195601990000000000000
B0721363141495S11716214EA0195601991000000000000
B0721403141567S11716271EA0196201996000000000000
B0721443141637S11716330EA0196702003000000000000
B0721483141702S11716387EA0196601993000000000000
B0721523141771S11716449EA0195601984000000000000
B0721563141841S11716518EA0194701974000000000000
B0722003141908S11716588EA0194001970000000000000
B0722043141974S11716655EA0193501964000000000000
B0722083142039S11716716EA0193501962000000000000
B0722123142103S11716774EA0193101961000000000000
B0722163142164S11716826EA0193501962000000000000
B0722203142227S11716872EA0193401961000000000000
B0722243142290S11716913EA0192801954000000000000
B0722283142357S11716954EA0191701941000000000000
B0722323142433S11716991EA0190801939000000000000
B0722363142509S11717025EA0190901938000000000000
B0722403142587S11717058EA0190501933000000000000
B0722443142671S11717086EA0189901929000000000000
B0722483142753S11717116EA0189901929000000000000
B0722523142832S11717147EA0189901929000000000000
B0722563142910S11717177EA0189601921000000000000
B0723003142988S11717210EA0189201921000000000000
B0723043143068S11717242EA0188101902000000000000
B0723083143152S11717281EA0186601889000000000000
B0723123143231S11717319EA0186601895000000000000
B0723163143312S11717350EA0185901881000000000000
B0723203143396S11717376EA0184801870000000000000
B0723243143481S11717402EA0183901865000000000000
B0723283143564S11717428EA0183501859000000000000
B0723323143647S11717449EA0182701854000000000000
B0723363143728S11717469EA0182101846000000000000
B0723403143808S11717491EA0181201834000000000000
B0723443143889S11717509EA0180101824000000000000
B0723483143972S11717522EA0178501805000000000000
B0723523144058S11717527EA0177101791000000000000
B0723563144145S11717531EA0176201784000000000000
B0724003144231S11717531EA0176201793000000000000
B0724043144310S11717527EA0177001799000000000000
B0724083144391S11717515EA0177301799000000000000
B0724123144472S11717495EA0177501803000000000000
B0724163144554S11717471EA0178201813000000000000
B0724203144636S11717461EA0178601812000000000000
B0724243144721S11717472EA0177901807000000000000
B0724283144805S11717500EA0177001794000000000000
B0724323144888S11717539EA0176201790000000000000
B0724363144972S11717579EA0175601778000000000000
B0724403145052S11717627EA0174501770000000000000
B0724443145132S11717678EA0174101767000000000000
B0724483145210S11717727EA0174001770000000000000
B0724523145286S11717781EA0174001765000000000000
B0724563145364S11717834EA0173801767000000000000
B0725003145442S11717891EA0173601762000000000000
B0725043145522S11717947EA0173001754000000000000
B0725083145598S11718003EA0172601752000000000000
B0725123145672S11718059EA0173301765000000000000
B0725163145744S11718112EA0173401756000000000000
B0725203145817S11718167EA0172301746000000000000
B0725243145891S11718224EA0172301742000000000000
B0725283145966S11718280EA0173201755000000000000
B0725323146040S11718328EA0174901771000000000000
B0725363146116S11718373EA0174501746000000000000
B0725403146198S11718419EA0171601724000000000000
B0725443146279S11718460EA0172001746000000000000
B0725483146359S11718502EA0173201746000000000000
B0725523146438S11718545EA0172001725000000000000
B0725563146521S11718588EA0170101708000000000000
B0726003146604S11718633EA0168501691000000000000
B0726043146688S11718679EA0167201681000000000000
B0726083146770S11718726EA0166401671000000000000
B0726123146850S11718776EA0165601669000000000000
B0726163146928S11718826EA0165901673000000000000
B0726203147001S11718878EA0166001678000000000000
B0726243147069S11718934EA0166001676000000000000
B0726283147135S11718988EA0165901681000000000000
B0726323147205S11719034EA0167001695000000000000
B0726363147279S11719062EA0168101705000000000000
B0726403147356S11719090EA0169101716000000000000
B0726443147433S11719109EA0169601715000000000000
B0726483147513S11719129EA0168701700000000000000
B0726523147600S11719148EA0168101704000000000000
B0726563147686S11719174EA0168301704000000000000
B0727003147774S11719200EA0168901716000000000000
B0727043147860S11719217EA0170501729000000000000
B0727083147941S11719234EA0171001737000000000000
B0727123148018S11719257EA0172001747000000000000
B0727163148089S11719290EA0172701754000000000000
B0727203148159S11719328EA0173001752000000000000
B0727243148236S11719363EA0172201743000000000000
B0727283148319S11719389EA0171901738000000000000
B0727323148405S11719404EA0171401733000000000000
B0727363148493S11719413EA0171401738000000000000
B0727403148577S11719422EA0172801752000000000000
B0727443148657S11719424EA0173901764000000000000
B0727483148735S11719424EA0174401764000000000000
B0727523148816S11719416EA0174901769000000000000
B0727563148902S11719399EA0174401761000000000000
B0728003148991S11719387EA0174201762000000000000
B0728043149080S11719377EA0174401769000000000000
B0728083149163S11719365EA0175301777000000000000
B0728123149246S11719356EA0176101788000000000000
B0728163149325S11719350EA0176701787000000000000
B0728203149410S11719348EA0175801776000000000000
B0728243149496S11719350EA0175401774000000000000
B0728283149583S11719352EA0174101751000000000000
B0728323149675S11719360EA0172001733000000000000
B0728363149766S11719369EA0170501717000000000000
B0728403149857S11719374EA0168401698000000000000
B0728443149948S11719376EA0167401684000000000000
B0728483150040S11719378EA0165601666000000000000
B0728523150134S11719382EA0164001650000000000000
B0728563150226S11719391EA0162701641000000000000
B0729003150320S11719403EA0161301620000000000000
B0729043150413S11719416EA0159601607000000000000
B0729083150504S11719429EA0158901601000000000000
B0729123150595S11719441EA0157801589000000000000
B0729163150685S11719452EA0157601590000000000000
B0729203150771S11719465EA0157401591000000000000
B0729243150854S11719477EA0157601589000000000000
B0729283150943S11719485EA0156101572000000000000
B0729323151034S11719487EA0154801562000000000000
B0729363151127S11719484EA0154701560000000000000
B0729403151218S11719481EA0156001589000000000000
B0729443151301S11719473EA0158001596000000000000
B0729483151388S11719463EA0158001600000000000000
B0729523151474S11719451EA0158601602000000000000
B0729563151561S11719445EA0158801608000000000000
B0730003151647S11719443EA0159401611000000000000
B0730043151733S11719447EA0158701601000000000000
B0730083151823S11719451EA0158101596000000000000
B0730123151912S11719451EA0157701593000000000000
B0730163152002S11719452EA0157701594000000000000
B0730203152085S11719443EA0159801620000000000000
B0730243152144S11719394EA0161101629000000000000
B0730283152210S11719357EA0160801620000000000000
B0730323152283S11719348EA0159701610000000000000
B0730363152358S11719361EA0158701600000000000000
B0730403152436S11719387EA0157801593000000000000
B0730443152516S11719416EA0157701591000000000000
B0730483152595S11719437EA0157501584000000000000
B0730523152675S11719447EA0156801582000000000000
B0730563152753S11719456EA0157201590000000000000
B0731003152826S11719468EA0157901603000000000000
B0731043152894S11719478EA0159701624000000000000
B0731083152952S11719471EA0162301650000000000000
B0731123152948S11719407EA0164701675000000000000
B0731163152880S11719386EA0166301692000000000000
B0731203152817S11719429EA0167401699000000000000
B0731243152804S11719503EA0167901703000000000000
B0731283152841S11719556EA0168701711000000000000
B0731323152896S11719554EA0169201715000000000000
B0731363152930S11719498EA0170101727000000000000
B0731403152899S11719430EA0171801750000000000000
B0731443152825S11719424EA0173501769000000000000
B0731483152769S11719480EA0175001780000000000000
B0731523152764S11719554EA0175801786000000000000
B0731563152803S11719599EA0175701778000000000000
B0732003152864S11719615EA0174501758000000000000
B0732043152938S11719620EA0173201745000000000000
B0732083153016S11719619EA0172201733000000000000
B0732123153101S11719615EA0170301710000000000000
B0732163153188S11719604EA0169701722000000000000
B0732203153267S11719595EA0171201741000000000000
B0732243153340S11719588EA0173001758000000000000
B0732283153411S11719575EA0174101768000000000000
B0732323153484S11719562EA0174201761000000000000
B0732363153566S11719567EA0173401757000000000000
B0732403153650S11719586EA0173001749000000000000
B0732443153735S11719619EA0172801746000000000000
B0732483153818S11719666EA0172001734000000000000
B0732523153901S11719716EA0171201725000000000000
B0732563153982S11719775EA0170401720000000000000
B0733003154061S11719838EA0169401704000000000000
B0733043154142S11719902EA0167201680000000000000
B0733083154222S11719966EA0166301675000000000000
B0733123154300S11720028EA0166201677000000000000
B0733163154378S11720087EA0165501665000000000000
B0733203154460S11720143EA0164201651000000000000
B0733243154545S11720200EA0163601658000000000000
B0733283154624S11720254EA0164801671000000000000
B0733323154700S11720308EA0164901663000000000000
B0733363154780S11720364EA0164001653000000000000
B0733403154857S11720430EA0163501646000000000000
B0733443154932S11720498EA0163101646000000000000
B0733483155005S11720561EA0162401638000000000000
B0733523155079S11720625EA0161901634000000000000
B0733563155152S11720686EA0161001624000000000000
B0734003155229S11720747EA0160001611000000000000
B0734043155309S11720806EA0159101605000000000000
B0734083155390S11720868EA0158101590000000000000
B0734123155470S11720934EA0157701594000000000000
B0734163155548S11720995EA0157601589000000000000
B0734203155625S11721059EA0157101585000000000000
B0734243155702S11721119EA0156701582000000000000
B0734283155780S11721175EA0156101575000000000000
B0734323155857S11721228EA0155301566000000000000
B0734363155933S11721283EA0154001548000000000000
B0734403156010S11721340EA0152501530000000000000
B0734443156087S11721397EA0151201527000000000000
B0734483156158S11721448EA0151501531000000000000
B0734523156226S11721497EA0151101524000000000000
B0734563156292S11721543EA0150401520000000000000
B0735003156357S11721588EA0150501522000000000000
B0735043156419S11721630EA0150501522000000000000
B0735083156483S11721671EA0149401509000000000000
B0735123156549S11721717EA0148401493000000000000
B0735163156614S11721761EA0147201485000000000000
B0735203156681S11721801EA0146301477000000000000
B0735243156747S11721843EA0145101459000000000000
B0735283156817S11721887EA0143601445000000000000
B0735323156885S11721933EA0142101427000000000000
B0735363156952S11721978EA0140501414000000000000
B0735403157024S11722025EA0138901393000000000000
B0735443157094S11722076EA0137401383000000000000
B0735483157164S11722128EA0136401371000000000000
B0735523157233S11722178EA0135401355000000000000
B0735563157302S11722233EA0133601344000000000000
B0736003157370S11722288EA0132601335000000000000
B0736043157439S11722338EA0132301333000000000000
B0736083157509S11722380EA0132501342000000000000
B0736123157576S11722412EA0134501373000000000000
B0736163157638S11722442EA0136101380000000000000
B0736203157705S11722470EA0136401380000000000000
B0736243157775S11722490EA0136301379000000000000
B0736283157844S11722510EA0136501387000000000000
B0736323157912S11722523EA0137401392000000000000
B0736363157981S11722535EA0137701393000000000000
B0736403158051S11722539EA0138601403000000000000
B0736443158120S11722526EA0138701399000000000000
B0736483158194S11722524EA0139101410000000000000
B0736523158264S11722537EA0140701428000000000000
B0736563158334S11722539EA0141901437000000000000
B0737003158397S11722509EA0143001447000000000000
B0737043158389S11722428EA0144401463000000000000
B0737083158316S11722396EA0145101467000000000000
B0737123158246S11722425EA0145301466000000000000
B0737163158221S11722494EA0145201470000000000000
B0737203158245S11722558EA0145601477000000000000
B0737243158293S11722600EA0145901475000000000000
B0737283158350S11722636EA0145601471000000000000
B0737323158414S11722670EA0144601457000000000000
B0737363158483S11722708EA0143701450000000000000
B0737403158555S11722744EA0142801439000000000000
B0737443158631S11722779EA0142001432000000000000
B0737483158707S11722815EA0141501424000000000000
B0737523158784S11722851EA0141001419000000000000
B0737563158861S11722884EA0140101409000000000000
B0738003158938S11722918EA0139001400000000000000
B0738043159017S11722949EA0138301393000000000000
B0738083159097S11722978EA0137701388000000000000
B0738123159178S11723003EA0137901389000000000000
B0738163159257S11723023EA0137701390000000000000
B0738203159337S11723042EA0138201401000000000000
B0738243159412S11723051EA0139101407000000000000
B0738283159487S11723064EA0139301409000000000000
B0738323159563S11723086EA0139601413000000000000
B0738363159636S11723111EA0141001431000000000000
B0738403159703S11723135EA0142501443000000000000
B0738443159775S11723143EA0143001445000000000000
B0738483159849S11723150EA0142201434000000000000
B0738523159923S11723174EA0142601442000000000000
B0738563159997S11723203EA0143101440000000000000
B0739003200072S11723231EA0142201429000000000000
B0739043200153S11723257EA0141801430000000000000
B0739083200231S11723285EA0142601443000000000000
B0739123200308S11723303EA0143601451000000000000
B0739163200387S11723316EA0143401447000000000000
B0739203200470S11723335EA0142701435000000000000
B0739243200559S11723352EA0142601435000000000000
B0739283200643S11723374EA0143901456000000000000
B0739323200721S11723397EA0145301468000000000000
B0739363200797S11723412EA0145701471000000000000
B0739403200869S11723430EA0146101475000000000000
B0739443200938S11723452EA0146001471000000000000
B0739483201015S11723464EA0144701450000000000000
B0739523201098S11723475EA0143301439000000000000
B0739563201183S11723495EA0142601433000000000000
B0740003201265S11723527EA0142201433000000000000
B0740043201333S11723579EA0142901441000000000000
B0740083201371S11723658EA0143101449000000000000
B0740123201372S11723748EA0143401452000000000000
B0740163201337S11723829EA0143901458000000000000
B0740203201265S11723859EA0144201462000000000000
B0740243201197S11723823EA0144301460000000000000
B0740283201177S11723745EA0143501447000000000000
B0740323201202S11723666EA0141901428000000000000
B0740363201248S11723589EA0140401417000000000000
B0740403201301S11723517EA0139301403000000000000
B0740443201361S11723447EA0138301388000000000000
B0740483201424S11723377EA0136701373000000000000
B0740523201491S11723308EA0135301362000000000000
B0740563201561S11723243EA0134401352000000000000
B0741003201630S11723177EA0133801348000000000000
B0741043201699S11723111EA0133801350000000000000
B0741083201766S11723047EA0134901363000000000000
B0741123201816S11722974EA0138001397000000000000
B0741163201778S11722909EA0141901443000000000000
B0741203201717S11722942EA0143701456000000000000
B0741243201722S11723001EA0144401467000000000000
B0741283201765S11723017EA0145401476000000000000
B0741323201804S11722975EA0146401486000000000000
B0741363201790S11722906EA0147701504000000000000
B0741403201727S11722874EA0149501524000000000000
B0741443201661S11722906EA0151201539000000000000
B0741483201643S11722971EA0152701557000000000000
B0741523201673S11723007EA0153801563000000000000
B0741563201714S11722978EA0154101566000000000000
B0742003201712S11722910EA0155501585000000000000
B0742043201656S11722873EA0157601607000000000000
B0742083201590S11722904EA0158901621000000000000
B0742123201566S11722974EA0160501633000000000000
B0742163201593S11723023EA0161501645000000000000
B0742203201638S11723018EA0162701655000000000000
B0742243201661S11722961EA0163601663000000000000
B0742283201629S11722899EA0165401690000000000000
B0742323201562S11722884EA0167301706000000000000
B0742363201502S11722931EA0168601718000000000000
B0742403201492S11723003EA0170201730000000000000
B0742443201530S11723042EA0170801737000000000000
B0742483201578S11723017EA0171301740000000000000
B0742523201596S11722943EA0172001751000000000000
B0742563201545S11722891EA0174101784000000000000
B0743003201483S11722926EA0176801803000000000000
B0743043201482S11722996EA0178101817000000000000
B0743083201526S11723016EA0179701830000000000000
B0743123201560S11722968EA0180501840000000000000
B0743163201549S11722897EA0182001857000000000000
B0743203201491S11722858EA0184001876000000000000
B0743243201421S11722879EA0184901878000000000000
B0743283201375S11722953EA0185501888000000000000
B0743323201376S11723031EA0186701906000000000000
B0743363201418S11723069EA0188301920000000000000
B0743403201467S11723051EA0189101923000000000000
B0743443201492S11722984EA0189701931000000000000
B0743483201469S11722906EA0190801947000000000000
B0743523201398S11722871EA0192901968000000000000
B0743563201324S11722903EA0194701984000000000000
B0744003201285S11722978EA0195901992000000000000
B0744043201296S11723056EA0196702001000000000000
B0744083201339S11723107EA0197802010000000000000
B0744123201396S11723109EA0198502023000000000000
B0744163201432S11723059EA0199602034000000000000
B0744203201423S11722983EA0200702043000000000000
B0744243201359S11722943EA0201702057000000000000
B0744283201288S11722981EA0203502076000000000000
B0744323201262S11723061EA0204802085000000000000
B0744363201291S11723133EA0205502089000000000000
B0744403201346S11723153EA0206602107000000000000
B0744443201396S11723127EA0207802109000000000000
B0744483201426S11723060EA0206602093000000000000
B0744523201443S11722966EA0205502082000000000000
B0744563201458S11722861EA0204702073000000000000
B0745003201474S11722747EA0204102067000000000000
B0745043201484S11722622EA0204102075000000000000
B0745083201493S11722497EA0205502087000000000000
B0745123201502S11722373EA0206102094000000000000
B0745163201509S11722250EA0206002080000000000000
B0745203201519S11722121EA0205002074000000000000
B0745243201530S11721993EA0205002079000000000000
B0745283201541S11721868EA0205302079000000000000
B0745323201551S11721744EA0204702073000000000000
B0745363201557S11721622EA0204102068000000000000
B0745403201569S11721502EA0203302057000000000000
B0745443201582S11721382EA0202102044000000000000
B0745483201595S11721258EA0200502026000000000000
B0745523201608S11721135EA0199202019000000000000
B0745563201621S11721011EA0198302009000000000000
B0746003201636S11720888EA0197501999000000000000
B0746043201652S11720763EA0196801991000000000000
B0746083201666S11720643EA0197402007000000000000
B0746123201675S11720533EA0198202016000000000000
B0746163201683S11720429EA0198902023000000000000
B0746203201686S11720329EA0199302026000000000000
B0746243201683S11720230EA0199502029000000000000
B0746283201675S11720131EA0199502027000000000000
B0746323201669S11720030EA0199702030000000000000
B0746363201664S11719931EA0199502027000000000000
B0746403201661S11719833EA0198702017000000000000
B0746443201660S11719734EA0197802008000000000000
B0746483201656S11719636EA0197001999000000000000
B0746523201656S11719536EA0196301990000000000000
B0746563201658S11719435EA0195401982000000000000
B0747003201665S11719335EA0194301970000000000000
B0747043201682S11719235EA0193401961000000000000
B0747083201709S11719142EA0192601954000000000000
B0747123201744S11719051EA0192001949000000000000
B0747163201781S11718964EA0191501945000000000000
B0747203201817S11718876EA0191101939000000000000
B0747243201851S11718788EA0190801937000000000000
B0747283201883S11718698EA0190701933000000000000
B0747323201918S11718607EA0189701920000000000000
B0747363201956S11718514EA0188501907000000000000
B0747403201993S11718419EA0187901906000000000000
B0747443202029S11718327EA0188001907000000000000
B0747483202065S11718238EA0187801905000000000000
B0747523202103S11718150EA0187201898000000000000
B0747563202137S11718060EA0186901900000000000000
B0748003202171S11717970EA0187101898000000000000
B0748043202203S11717877EA0186101884000000000000
B0748083202240S11717786EA0185501876000000000000
B0748123202277S11717697EA0183901856000000000000
B0748163202315S11717602EA0181901838000000000000
B0748203202350S11717511EA0181201839000000000000
B0748243202389S11717430EA0181401838000000000000
B0748283202428S11717348EA0180301820000000000000
B0748323202471S11717253EA0178401800000000000000
B0748363202519S11717153EA0177001790000000000000
B0748403202562S11717054EA0177001795000000000000
B0748443202606S11716959EA0176701788000000000000
B0748483202654S11716867EA0176301787000000000000
B0748523202698S11716776EA0176401790000000000000
B0748563202741S11716686EA0176401790000000000000
B0749003202780S11716596EA0176401791000000000000
B0749043202819S11716505EA0176701796000000000000
B0749083202856S11716418EA0177801815000000000000
B0749123202886S11716335EA0179701834000000000000
B0749163202908S11716250EA0181401847000000000000
B0749203202908S11716162EA0182501856000000000000
B0749243202853S11716106EA0184001875000000000000
B0749283202787S11716126EA0184601872000000000000
B0749323202765S11716197EA0183901867000000000000
B0749363202801S11716250EA0184001872000000000000
B0749403202857S11716258EA0184201872000000000000
B0749443202917S11716253EA0183601862000000000000
B0749483202982S11716228EA0183201860000000000000
B0749523203044S11716189EA0183701872000000000000
B0749563203104S11716144EA0184601876000000000000
B0750003203161S11716089EA0185001883000000000000
B0750043203211S11716027EA0187101904000000000000
B0750083203242S11715945EA0187401894000000000000
B0750123203250S11715836EA0185201873000000000000
B0750163203250S11715716EA0184201865000000000000
B0750203203248S11715597EA0184501874000000000000
B0750243203252S11715482EA0184101867000000000000
B0750283203272S11715372EA0183301858000000000000
B0750323203304S11715266EA0182701850000000000000
B0750363203343S11715164EA0181801841000000000000
B0750403203385S11715062EA0180901831000000000000
B0750443203426S11714960EA0180401826000000000000
B0750483203468S11714856EA0179201811000000000000
B0750523203508S11714750EA0178001801000000000000
B0750563203550S11714641EA0176801788000000000000
B0751003203590S11714532EA0175401771000000000000
B0751043203631S11714420EA0174201760000000000000
B0751083203670S11714307EA0173401755000000000000
B0751123203711S11714198EA0172501747000000000000
B0751163203754S11714087EA0171301729000000000000
B0751203203800S11713975EA0169401709000000000000
B0751243203849S11713860EA0167201686000000000000
B0751283203898S11713743EA0165701672000000000000
B0751323203944S11713626EA0164901670000000000000
B0751363203984S11713511EA0164801668000000000000
B0751403204024S11713400EA0164401662000000000000
B0751443204066S11713289EA0163601657000000000000
B0751483204106S11713181EA0163301656000000000000
B0751523204147S11713075EA0163301654000000000000
B0751563204184S11712971EA0162801651000000000000
B0752003204219S11712865EA0162001639000000000000
B0752043204253S11712757EA0160801628000000000000
B0752083204287S11712647EA0159401614000000000000
B0752123204323S11712536EA0158501604000000000000
B0752163204357S11712427EA0157901598000000000000
B0752203204392S11712319EA0156101576000000000000
B0752243204429S11712207EA0154201565000000000000
B0752283204465S11712098EA0153201552000000000000
B0752323204505S11711988EA0152101543000000000000
B0752363204543S11711879EA0151501537000000000000
B0752403204580S11711771EA0151101534000000000000
B0752443204609S11711665EA0151301530000000000000
B0752483204638S11711561EA0150801525000000000000
B0752523204667S11711461EA0150101516000000000000
B0752563204695S11711361EA0148801501000000000000
B0753003204725S11711262EA0148001494000000000000
B0753043204756S11711167EA0147001487000000000000
B0753083204786S11711075EA0146501484000000000000
B0753123204814S11710983EA0145901476000000000000
B0753163204840S11710889EA0145001466000000000000
B0753203204867S11710793EA0144101456000000000000
B0753243204895S11710694EA0143401453000000000000
B0753283204923S11710595EA0143201450000000000000
B0753323204950S11710497EA0142801441000000000000
B0753363204975S11710397EA0142001433000000000000
B0753403205002S11710300EA0141001423000000000000
B0753443205029S11710207EA0140301417000000000000
B0753483205055S11710114EA0139701412000000000000
B0753523205080S11710021EA0138701400000000000000
B0753563205102S11709926EA0137901392000000000000
B0754003205124S11709827EA0137001383000000000000
B0754043205148S11709728EA0136601381000000000000
B0754083205174S11709632EA0136601383000000000000
B0754123205201S11709535EA0136501382000000000000
B0754163205227S11709435EA0136601386000000000000
B0754203205250S11709336EA0138001407000000000000
B0754243205279S11709241EA0139601418000000000000
B0754283205282S11709142EA0141501441000000000000
B0754323205215S11709099EA0144501482000000000000
B0754363205165S11709142EA0147001504000000000000
B0754403205168S11709206EA0147901508000000000000
B0754443205218S11709237EA0148201511000000000000
B0754483205271S11709206EA0149001525000000000000
B0754523205285S11709133EA0151001547000000000000
B0754563205248S11709065EA0152601560000000000000
B0755003205179S11709058EA0154201579000000000000
B0755043205141S11709110EA0156301601000000000000
B0755083205157S11709167EA0158001616000000000000
B0755123205204S11709181EA0159301635000000000000
B0755163205241S11709139EA0161301654000000000000
B0755203205236S11709067EA0162701661000000000000
B0755243205181S11709011EA0163701678000000000000
B0755283205114S11709008EA0165801698000000000000
B0755323205075S11709055EA0167601715000000000000
B0755363205087S11709116EA0168201714000000000000
B0755403205137S11709150EA0168801727000000000000
B0755443205189S11709124EA0171201758000000000000
B0755483205197S11709055EA0173601776000000000000
B0755523205157S11708994EA0174701791000000000000
B0755563205092S11708989EA0176701812000000000000
B0756003205054S11709039EA0178001820000000000000
B0756043205075S11709097EA0178901831000000000000
B0756083205128S11709097EA0180401847000000000000
B0756123205157S11709037EA0182201863000000000000
B0756163205127S11708964EA0183201872000000000000
B0756203205055S11708948EA0184701890000000000000
B0756243205001S11708993EA0186401905000000000000
B0756283204997S11709059EA0187701917000000000000
B0756323205041S11709095EA0188701927000000000000
B0756363205093S11709071EA0190001945000000000000
B0756403205113S11709004EA0191501955000000000000
B0756443205080S11708933EA0192101961000000000000
B0756483205009S11708915EA0193601981000000000000
B0756523204953S11708960EA0195201995000000000000
B0756563204951S11709025EA0196802012000000000000
B0757003204994S11709059EA0198002020000000000000
B0757043205044S11709028EA0199102036000000000000
B0757083205059S11708959EA0200102046000000000000
B0757123205046S11708878EA0200602046000000000000
B0757163205036S11708785EA0200602044000000000000
B0757203205037S11708684EA0200502042000000000000
B0757243205053S11708580EA0201002039000000000000
B0757283205071S11708470EA0200402031000000000000
B0757323205093S11708358EA0199402016000000000000
B0757363205118S11708242EA0197101988000000000000
B0757403205142S11708119EA0194301962000000000000
B0757443205168S11707988EA0191901937000000000000
B0757483205194S11707854EA0190101917000000000000
B0757523205223S11707716EA0188301900000000000000
B0757563205252S11707577EA0187201884000000000000
B0758003205280S11707436EA0185801872000000000000
B0758043205311S11707295EA0184201854000000000000
B0758083205344S11707153EA0182501836000000000000
B0758123205376S11707010EA0181101826000000000000
B0758163205406S11706868EA0179801812000000000000
B0758203205435S11706729EA0178701804000000000000
B0758243205461S11706593EA0178001799000000000000
B0758283205488S11706459EA0177501793000000000000
B0758323205514S11706330EA0177101790000000000000
B0758363205543S11706204EA0176401784000000000000
B0758403205571S11706083EA0176101783000000000000
B0758443205600S11705965EA0175401772000000000000
B0758483205629S11705847EA0173701754000000000000
B0758523205656S11705723EA0172001736000000000000
B0758563205683S11705596EA0170801725000000000000
B0759003205712S11705467EA0170001714000000000000
B0759043205742S11705340EA0168701700000000000000
B0759083205772S11705212EA0167301683000000000000
B0759123205802S11705083EA0165601666000000000000
B0759163205829S11704956EA0163701647000000000000
B0759203205850S11704829EA0162001632000000000000
B0759243205868S11704701EA0160501619000000000000
B0759283205886S11704578EA0159301610000000000000
B0759323205906S11704459EA0158701605000000000000
B0759363205925S11704346EA0158101596000000000000
B0759403205943S11704236EA0156801584000000000000
B0759443205956S11704123EA0155201564000000000000
B0759483205968S11704006EA0153401548000000000000
B0759523205981S11703887EA0152501544000000000000
B0759563205998S11703773EA0152201542000000000000
B0800003206019S11703660EA0151701534000000000000
B0800043206042S11703548EA0151101525000000000000
B0800083206064S11703431EA0149701511000000000000
B0800123206086S11703306EA0149101505000000000000
B0800163206107S11703178EA0148901506000000000000
B0800203206128S11703046EA0149001507000000000000
B0800243206147S11702914EA0149501507000000000000
B0800283206164S11702782EA0148801502000000000000
B0800323206179S11702656EA0148501497000000000000
B0800363206193S11702528EA0147501486000000000000
B0800403206211S11702398EA0147301487000000000000
B0800443206234S11702274EA0147601494000000000000
B0800483206258S11702157EA0148001498000000000000
B0800523206283S11702043EA0147201483000000000000
B0800563206309S11701923EA0145301459000000000000
B0801003206335S11701798EA0143001435000000000000
B0801043206361S11701671EA0140801412000000000000
B0801083206384S11701541EA0138901394000000000000
B0801123206405S11701414EA0138101399000000000000
B0801163206422S11701293EA0139101421000000000000
B0801203206436S11701181EA0141401449000000000000
B0801243206452S11701076EA0143601462000000000000
B0801283206470S11700968EA0143501456000000000000
B0801323206491S11700858EA0143901465000000000000
B0801363206517S11700757EA0144801478000000000000
B0801403206549S11700666EA0145901485000000000000
B0801443206580S11700579EA0145601479000000000000
B0801483206610S11700494EA0144401462000000000000
B0801523206640S11700403EA0142201434000000000000
B0801563206665S11700301EA0139801414000000000000
B0802003206691S11700193EA0137801391000000000000
B0802043206715S11700081EA0136201374000000000000
B0802083206740S11659965EA0134501358000000000000
B0802123206762S11659848EA0133201348000000000000
B0802163206783S11659730EA0132001336000000000000
B0802203206806S11659613EA0131301329000000000000
B0802243206834S11659500EA0130601321000000000000
B0802283206862S11659387EA0129601309000000000000
B0802323206891S11659274EA0128501299000000000000
B0802363206922S11659161EA0127801294000000000000
B0802403206952S11659050EA0126901281000000000000
B0802443206981S11658936EA0125101260000000000000
B0802483207007S11658817EA0123201244000000000000
B0802523207034S11658700EA0122501241000000000000
B0802563207063S11658587EA0121901235000000000000
B0803003207092S11658474EA0120901220000000000000
B0803043207124S11658361EA0119401206000000000000
B0803083207152S11658247EA0118501199000000000000
B0803123207181S11658134EA0117701191000000000000
B0803163207213S11658023EA0117001185000000000000
B0803203207250S11657919EA0117501190000000000000
B0803243207285S11657820EA0117901186000000000000
B0803283207321S11657722EA0117101176000000000000
B0803323207352S11657621EA0116201172000000000000
B0803363207382S11657521EA0115701163000000000000
B0803403207410S11657419EA0114701153000000000000
B0803443207437S11657315EA0114901161000000000000
B0803483207463S11657212EA0114901160000000000000
B0803523207489S11657113EA0114501151000000000000
B0803563207521S11657020EA0113101135000000000000
B0804003207554S11656926EA0111601120000000000000
B0804043207590S11656832EA0110101103000000000000
B0804083207631S11656737EA0108201081000000000000
B0804123207674S11656637EA0106201060000000000000
B0804163207713S11656532EA0104401042000000000000
B0804203207752S11656425EA0103301035000000000000
B0804243207791S11656328EA0103401043000000000000
B0804283207826S11656245EA0104301050000000000000
B0804323207859S11656163EA0104001041000000000000
B0804363207895S11656077EA0103401039000000000000
B0804403207926S11655990EA0103401041000000000000
B0804443207954S11655904EA0103901051000000000000
B0804483207983S11655821EA0104701056000000000000
B0804523208013S11655742EA0104901060000000000000
B0804563208043S11655661EA0105001057000000000000
B0805003208073S11655580EA0104401050000000000000
B0805043208100S11655495EA0104201054000000000000
B0805083208132S11655415EA0104601060000000000000
B0805123208166S11655341EA0105601070000000000000
B0805163208203S11655271EA0106201072000000000000
B0805203208239S11655201EA0106201071000000000000
B0805243208277S11655125EA0105901067000000000000
B0805283208321S11655049EA0105201057000000000000
B0805323208364S11654966EA0104601054000000000000
B0805363208408S11654884EA0104201044000000000000
B0805403208447S11654797EA0103001030000000000000
B0805443208480S11654707EA0101501013000000000000
B0805483208511S11654616EA0099700993000000000000
B0805523208552S11654531EA0097800975000000000000
B0805563208598S11654451EA0096700966000000000000
B0806003208634S11654360EA0095500954000000000000
B0806043208677S11654274EA0095000954000000000000
B0806083208733S11654217EA0095900970000000000000
B0806123208793S11654174EA0096600973000000000000
B0806163208857S11654136EA0097700987000000000000
B0806203208886S11654070EA0100501020000000000000
B0806243208837S11654019EA0102001036000000000000
B0806283208773S11654044EA0103001048000000000000
B0806323208758S11654106EA0104901074000000000000
B0806363208792S11654136EA0106901089000000000000
B0806403208829S11654106EA0107901101000000000000
B0806443208832S11654043EA0109001109000000000000
B0806483208789S11653983EA0109301109000000000000
B0806523208717S11653974EA0109901121000000000000
B0806563208685S11654032EA0111501149000000000000
B0807003208714S11654063EA0114101170000000000000
B0807043208747S11654037EA0115701182000000000000
B0807083208741S11653979EA0116401187000000000000
B0807123208689S11653936EA0116501186000000000000
B0807163208621S11653948EA0117001196000000000000
B0807203208582S11654002EA0118401217000000000000
B0807243208591S11654053EA0120801239000000000000
B0807283208630S11654062EA0122401253000000000000
B0807323208660S11654022EA0123201256000000000000
B0807363208642S11653953EA0123301260000000000000
B0807403208577S11653918EA0123801264000000000000
B0807443208507S11653942EA0124901279000000000000
B0807483208480S11654005EA0126601299000000000000
B0807523208495S11654057EA0128401318000000000000
B0807563208535S11654066EA0129901330000000000000
B0808003208567S11654020EA0130801338000000000000
B0808043208559S11653949EA0131601345000000000000
B0808083208504S11653896EA0132001347000000000000
B0808123208426S11653885EA0133001362000000000000
B0808163208365S11653927EA0134301376000000000000
B0808203208342S11653996EA0135701392000000000000
B0808243208365S11654046EA0137201407000000000000
B0808283208411S11654041EA0138701422000000000000
B0808323208431S11653981EA0140101436000000000000
B0808363208403S11653913EA0141601448000000000000
B0808403208337S11653875EA0142501456000000000000
B0808443208262S11653897EA0143701470000000000000
B0808483208229S11653961EA0145101486000000000000
B0808523208243S11654015EA0146301503000000000000
B0808563208283S11654030EA0147601510000000000000
B0809003208326S11653996EA0148401521000000000000
B0809043208343S11653927EA0149301527000000000000
B0809083208314S11653848EA0150201538000000000000
B0809123208246S11653805EA0152101559000000000000
B0809163208170S11653819EA0153501570000000000000
B0809203208126S11653881EA0154701584000000000000
B0809243208129S11653945EA0156201599000000000000
B0809283208162S11653978EA0157301615000000000000
B0809323208203S11653955EA0158601623000000000000
B0809363208213S11653884EA0159201626000000000000
B0809403208173S11653810EA0160101642000000000000
B0809443208097S11653789EA0161801656000000000000
B0809483208036S11653835EA0163201667000000000000
B0809523208022S11653902EA0164101679000000000000
B0809563208053S11653945EA0165501692000000000000
B0810003208101S11653932EA0166301695000000000000
B0810043208125S11653858EA0166301697000000000000
B0810083208097S11653767EA0166601707000000000000
B0810123208030S11653701EA0168201720000000000000
B0810163207944S11653681EA0169301732000000000000
B0810203207869S11653716EA0170601747000000000000
B0810243207836S11653784EA0171901760000000000000
B0810283207849S11653849EA0172801764000000000000
B0810323207898S11653879EA0173101768000000000000
B0810363207958S11653877EA0173801773000000000000
B0810403208022S11653848EA0173801768000000000000
B0810443208079S11653781EA0172501755000000000000
B0810483208122S11653685EA0172301769000000000000
B0810523208157S11653590EA0174101783000000000000
B0810563208201S11653503EA0174601781000000000000
B0811003208247S11653413EA0174501779000000000000
B0811043208294S11653318EA0173701765000000000000
B0811083208340S11653218EA0173101764000000000000
B0811123208387S11653120EA0172901757000000000000
B0811163208433S11653022EA0171401743000000000000
B0811203208481S11652925EA0170001729000000000000
B0811243208530S11652828EA0169001717000000000000
B0811283208580S11652735EA0168001707000000000000
B0811323208626S11652646EA0167001700000000000000
B0811363208673S11652562EA0166301694000000000000
B0811403208717S11652479EA0165701687000000000000
B0811443208763S11652393EA0164901680000000000000
B0811483208808S11652310EA0164401676000000000000
B0811523208858S11652232EA0164301676000000000000
B0811563208909S11652158EA0164101673000000000000
B0812003208963S11652087EA0163501664000000000000
B0812043209023S11652020EA0162401650000000000000
B0812083209084S11651950EA0160801636000000000000
B0812123209145S11651875EA0159801628000000000000
B0812163209206S11651801EA0159101621000000000000
B0812203209267S11651729EA0158401616000000000000
B0812243209326S11651657EA0158001610000000000000
B0812283209384S11651586EA0157401602000000000000
B0812323209442S11651513EA0156601595000000000000
B0812363209499S11651445EA0156101590000000000000
B0812403209557S11651381EA0155201582000000000000
B0812443209616S11651323EA0155501589000000000000
B0812483209673S11651270EA0156601602000000000000
B0812523209731S11651222EA0158101620000000000000
B0812563209789S11651177EA0159801636000000000000
B0813003209852S11651157EA0161201655000000000000
B0813043209899S11651194EA0163601688000000000000
B0813083209900S11651259EA0166201702000000000000
B0813123209852S11651305EA0167001709000000000000
B0813163209791S11651283EA0167701716000000000000
B0813203209773S11651216EA0168701729000000000000
B0813243209807S11651173EA0170201742000000000000
B0813283209856S11651189EA0171701759000000015000
B0813323209881S11651249EA0173101768000000015000
B0813363209855S11651318EA0173201772000000015000
B0813403209790S11651344EA0174201785000000015000
B0813443209725S11651318EA0175301793000000015000
B0813483209694S11651248EA0176101802000000015000
B0813523209718S11651184EA0177301816000000015000
B0813563209772S11651188EA0179101837000000015000
B0814003209790S11651250EA0180901853000000015000
B0814043209759S11651311EA0182101863000000015000
B0814083209696S11651336EA0182901873000000015000
B0814123209629S11651320EA0184001882000000015000
B0814163209579S11651261EA0185301898000000015000
B0814203209578S11651189EA0187001916000000015000
B0814243209622S11651154EA0188201927000000015000
B0814283209668S11651194EA0189201935000000015000
B0814323209666S11651266EA0190401948000000015000
B0814363209617S11651315EA0191501963000000015000
B0814403209547S11651307EA0193001976000000015000
B0814443209496S11651250EA0194301992000000015000
B0814483209488S11651177EA0196202009000000015000
B0814523209526S11651132EA0197702021000000015000
B0814563209578S11651145EA0199002034000000015000
B0815003209604S11651202EA0200802053000000015000
B0815043209583S11651263EA0201802063000000015000
B0815083209526S11651294EA0202602075000000015000
B0815123209458S11651279EA0203902087000000015000
B0815163209409S11651222EA0205202098000000015000
B0815203209390S11651147EA0205602103000000015000
B0815243209410S11651077EA0206802113000000000000
B0815283209458S11651038EA0208402130000000000000
B0815323209512S11651041EA0209702141000000000000
B0815363209555S11651082EA0210502147000000015000
B0815403209560S11651150EA0211102157000000015000
B0815443209522S11651210EA0211902167000000015000
B0815483209456S11651231EA0212602175000000015000
B0815523209390S11651203EA0213802188000000015000
B0815563209343S11651138EA0215002199000000015000
B0816003209332S11651059EA0216002210000000015000
B0816043209357S11650985EA0216902214000000015000
B0816083209403S11650923EA0216702209000000000000
B0816123209457S11650867EA0216102200000000000000
B0816163209521S11650811EA0215402194000000000000
B0816203209586S11650754EA0215202192000000000000
B0816243209652S11650687EA0214802184000000000000
B0816283209718S11650614EA0214102172000000000000
B0816323209791S11650540EA0212902150000000000000
B0816363209869S11650462EA0210602127000000000000
B0816403209952S11650383EA0209402118000000000000
B0816443210034S11650304EA0208402107000000000000
B0816483210118S11650226EA0207402099000000000000
B0816523210201S11650150EA0206802093000000000000
B0816563210284S11650079EA0206202088000000000000
B0817003210367S11650009EA0205402078000000000000
B0817043210450S11649940EA0204602076000000000000
B0817083210531S11649876EA0204802079000000000000
B0817123210609S11649808EA0204202072000000000000
B0817163210686S11649738EA0203602064000000000000
B0817203210761S11649665EA0202802057000000000000
B0817243210835S11649595EA0202302055000000000000
B0817283210911S11649529EA0202102050000000000000
B0817323210985S11649465EA0201502047000000000000
B0817363211059S11649408EA0201202042000000000000
B0817403211132S11649351EA0200602035000000000000
B0817443211204S11649295EA0199902029000000000000
B0817483211277S11649239EA0199402026000000000000
B0817523211347S11649187EA0199102023000000000000
B0817563211419S11649136EA0198302015000000000000
B0818003211492S11649086EA0197502002000000000000
B0818043211570S11649034EA0196201990000000000000
B0818083211649S11648983EA0195101977000000000000
B0818123211732S11648931EA0193801965000000000000
B0818163211817S11648879EA0193201960000000000000
B0818203211897S11648830EA0193001960000000000000
B0818243211974S11648779EA0192601954000000000000
B0818283212045S11648720EA0191601944000000000000
B0818323212116S11648659EA0190801936000000000000
B0818363212187S11648605EA0190001925000000000000
B0818403212257S11648551EA0188601909000000000000
B0818443212328S11648492EA0187301901000000000000
B0818483212395S11648428EA0186101884000000000000
B0818523212465S11648359EA0184401868000000000000
B0818563212538S11648293EA0183501862000000000000
B0819003212611S11648230EA0183001859000000000000
B0819043212681S11648169EA0182601852000000000000
B0819083212750S11648107EA0181701838000000000000
B0819123212819S11648042EA0180201826000000000000
B0819163212888S11647977EA0179101813000000000000
B0819203212957S11647912EA0177901803000000000000
B0819243213027S11647853EA0177001796000000000000
B0819283213096S11647796EA0176101786000000000000
B0819323213165S11647741EA0174801772000000000000
B0819363213234S11647684EA0173701766000000000000
B0819403213299S11647628EA0173201759000000000000
B0819443213364S11647572EA0172601751000000000000
B0819483213429S11647514EA0171801746000000000000
B0819523213491S11647452EA0171601745000000000000
B0819563213555S11647389EA0171401742000000000000
B0820003213613S11647320EA0171101738000000000000
B0820043213670S11647249EA0170501734000000000000
B0820083213730S11647179EA0170101729000000000000
B0820123213794S11647112EA0169601722000000000000
B0820163213859S11647047EA0169701728000000000000
B0820203213920S11646976EA0169901725000000000000
B0820243213981S11646899EA0169901730000000000000
B0820283214038S11646821EA0170301729000000000000
B0820323214092S11646737EA0169701719000000000000
B0820363214150S11646659EA0168901712000000000000
B0820403214216S11646591EA0167901702000000000000
B0820443214288S11646529EA0166601681000000000000
B0820483214367S11646473EA0165101674000000000000
B0820523214447S11646423EA0164801672000000000000
B0820563214527S11646382EA0164201661000000000000
B0821003214610S11646339EA0162901644000000000000
B0821043214697S11646298EA0161501635000000000000
B0821083214785S11646263EA0161001631000000000000
B0821123214870S11646226EA0160101618000000000000
B0821163214956S11646187EA0159401618000000000000
B0821203215041S11646144EA0159501623000000000000
B0821243215120S11646097EA0160401632000000000000
B0821283215197S11646050EA0160801636000000000000
B0821323215269S11645997EA0161501645000000000000
B0821363215341S11645945EA0162301650000000000000
B0821403215407S11645898EA0163601673000000000000
B0821443215468S11645858EA0165001682000000000000
B0821483215528S11645811EA0165001676000000000000
B0821523215592S11645759EA0165501683000000000000
B0821563215617S11645685EA0167201709000000000000
B0822003215565S11645637EA0169201729000000000000
B0822043215494S11645652EA0169301723000000000000
B0822083215450S11645720EA0169601735000000000000
B0822123215453S11645791EA0171001752000000000000
B0822163215489S11645837EA0172201758000000000000
B0822203215539S11645841EA0172101757000000000000
B0822243215566S11645789EA0171601751000000000000
B0822283215539S11645717EA0170801743000000000000
B0822323215468S11645678EA0170901747000000000000
B0822363215385S11645672EA0170701741000000000000
B0822403215299S11645684EA0171101753000000000000
B0822443215280S11645747EA0173601784000000000000
B0822483215323S11645756EA0175401792000000000000
B0822523215347S11645699EA0175701794000000000000
B0822563215305S11645639EA0176601812000000000000
B0823003215238S11645642EA0178101821000000000000
B0823043215198S11645698EA0178701828000000000000
B0823083215206S11645759EA0179901841000000000000
B0823123215250S11645780EA0180201839000000000000
B0823163215294S11645742EA0180101842000000000000
B0823203215293S11645671EA0181201858000000000000
B0823243215233S11645638EA0182501865000000000000
B0823283215178S11645680EA0183101874000000000000
B0823323215176S11645742EA0184201886000000000000
B0823363215214S11645776EA0184501885000000000000
B0823403215264S11645755EA0184201882000000000000
B0823443215311S11645702EA0183701869000000000000
B0823483215354S11645628EA0182401856000000000000
B0823523215396S11645543EA0181601846000000000000
B0823563215440S11645451EA0180001833000000000000
B0824003215484S11645356EA0179301827000000000000
B0824043215527S11645261EA0179001825000000000000
B0824083215568S11645164EA0178201816000000000000
B0824123215611S11645067EA0177601809000000000000
B0824163215654S11644975EA0176801800000000000000
B0824203215702S11644883EA0175801789000000000000
B0824243215753S11644792EA0174501773000000000000
B0824283215805S11644697EA0173101762000000000000
B0824323215860S11644601EA0171901748000000000000
B0824363215914S11644507EA0171001745000000000000
B0824403215968S11644416EA0170401733000000000000
B0824443216022S11644325EA0168901721000000000000
B0824483216077S11644234EA0168301713000000000000
B0824523216130S11644142EA0167801707000000000000
B0824563216185S11644053EA0167201701000000000000
B0825003216239S11643966EA0166501695000000000000
B0825043216294S11643882EA0165801687000000000000
B0825083216348S11643795EA0164801675000000000000
B0825123216403S11643706EA0163301658000000000000
B0825163216460S11643615EA0161801646000000000000
B0825203216515S11643524EA0161301642000000000000
B0825243216567S11643431EA0160501630000000000000
B0825283216615S11643334EA0159201620000000000000
B0825323216659S11643236EA0158401611000000000000
B0825363216702S11643134EA0157001596000000000000
B0825403216749S11643034EA0156001587000000000000
B0825443216794S11642935EA0155401583000000000000
B0825483216839S11642838EA0155401584000000000000
B0825523216881S11642742EA0154901572000000000000
B0825563216927S11642643EA0153301554000000000000
