ACAM4N6
HFDTE161222
HFFXA050
HFPLTPILOT:JOHN WELSH              
HFGTYGLIDERTYPE:HORNET      
HFGIDGLIDERID:VH-GMY      
HFDTM100GPSDATUM:
HFRFWFIRMWAREVERSION:F2.6
HFRHWHARDWAREVERSION:300 Series Version 2
HFFTYFRTYPE:CAMBRIDGE AERO INSTRUMENTS, 302+
HFGPS:GARMIN,LVS-25,12,18000
HFPRSPRESSALTSENSOR:INTERSEMA, MS5534-AP, 20000
I033638FXA3941ENL4247REX
LCAMSBVER:5FWVER:F26300
C161222034757161222000104
C0000000N00000000WTAKEOFF     
C3207549S11656849EBeverley Air
C3301433S11652382EWilliams    
C3152966S11809465EBruce Rock  
C3110883S11723215EWyalkatchem 
C3118099S11649299EGoomalling  
C3207549S11656849EBeverley Air
C0000000N00000000WLANDING     
B0351313207333S11656864EA0020600214000000000000
B0351333207333S11656864EA0020700214000000000000
B0351353207333S11656864EA0020700214000000000000
B0351373207333S11656864EA0020700214000000000000
B0351393207333S11656864EA0020700214000000000000
B0351413207333S11656864EA0020600214000000000000
B0351433207333S11656864EA0020600214000000000000
B0351453207333S11656864EA0020600214000000000000
B0351473207333S11656864EA0020700214000000000000
B0351493207333S11656864EA0020600214000000000000
B0351513207333S11656864EA0020700214000000000000
B0351533207333S11656864EA0020600214000000000000
B0351553207333S11656864EA0020600214000000000000
B0351573207334S11656864EA0020600214000000000000
B0351593207336S11656865EA0020600213000000000000
B0352003207337S11656866EA0020700213000000000000
B0352043207356S11656878EA0020700213000000000000
B0352083207389S11656900EA0020700213000000000000
B0352123207436S11656929EA0021000213000000000000
B0352163207492S11656964EA0021100215000000000000
B0352203207551S11657005EA0021700222000000000000
B0352243207611S11657051EA0022700229000000000000
B0352283207670S11657094EA0023300244000000000000
B0352323207728S11657133EA0024500261000000000000
B0352363207784S11657174EA0025900276000000000000
B0352403207843S11657213EA0027500288000000000000
B0352443207901S11657254EA0028600302000000000000
B0352483207961S11657293EA0030300318000000000000
B0352523208023S11657328EA0031500333000000000000
B0352563208087S11657364EA0032600341000000000000
B0353003208148S11657400EA0034000363000000000000
B0353043208209S11657437EA0035900376000000000000
B0353083208269S11657480EA0036600386000000000000
B0353123208317S11657533EA0037900394000000000000
B0353163208355S11657597EA0039200407000000000000
B0353203208386S11657664EA0040700429000000000000
B0353243208418S11657729EA0042500446000000000000
B0353283208451S11657794EA0043800459000000000000
B0353323208474S11657863EA0045300473000000000000
B0353363208486S11657941EA0046400485000000000000
B0353403208489S11658022EA0047800500000000000000
B0353443208483S11658102EA0049600525000000000000
B0353483208476S11658184EA0051400534000000000000
B0353523208464S11658264EA0052800549000000000000
B0353563208451S11658344EA0054200561000000000000
B0354003208443S11658425EA0055700579000000000000
B0354043208446S11658505EA0057200592000000000000
B0354083208450S11658589EA0058700605000000000000
B0354123208447S11658671EA0060800630000000000000
B0354163208439S11658752EA0062700641000000000000
B0354203208438S11658833EA0063400652000000000000
B0354243208447S11658906EA0065000667000000000000
B0354283208464S11658975EA0066000675000000000000
B0354323208487S11659044EA0066700681000000000000
B0354363208509S11659115EA0067500689000000000000
B0354403208525S11659188EA0068900706000000000000
B0354443208533S11659262EA0070600724000000000000
B0354483208528S11659339EA0072200739000000000000
B0354523208503S11659412EA0073900757000000000000
B0354563208467S11659479EA0075700774000000000000
B0355003208457S11659542EA0076900781000000000000
B0355043208499S11659561EA0077300785000000000000
B0355083208537S11659505EA0077300779000000000000
B0355123208526S11659413EA0076600771000000000000
B0355163208467S11659343EA0075700763000000000000
B0355203208390S11659332EA0074600752000000000000
B0355243208333S11659376EA0074300753000000000000
B0355283208294S11659438EA0074500754000000000000
B0355323208268S11659508EA0074000747000000000000
B0355363208255S11659581EA0073900750000000000000
B0355403208247S11659652EA0074800758000000000000
B0355443208290S11659682EA0076200772000000000000
B0355483208334S11659627EA0077100779000000000000
B0355523208326S11659545EA0077700784000000000000
B0355563208275S11659480EA0077500777000000000000
B0356003208203S11659471EA0076900775000000000000
B0356043208149S11659513EA0076600774000000000000
B0356083208122S11659578EA0076800776000000000000
B0356123208136S11659640EA0077800791000000000000
B0356163208194S11659603EA0080000816000000000000
B0356203208192S11659510EA0082100834000000000000
B0356243208132S11659456EA0083100842000000000000
B0356283208065S11659471EA0084300858000000000000
B0356323208039S11659534EA0085900869000000000000
B0356363208078S11659565EA0087200886000000000000
B0356403208119S11659505EA0089000901000000000000
B0356443208103S11659415EA0089700907000000000000
B0356483208034S11659383EA0091600935000000000000
B0356523207980S11659423EA0093600959000000000000
B0356563207980S11659480EA0095500976000000000000
B0357003208028S11659470EA0097000985000000000000
B0357043208041S11659392EA0097900990000000000000
B0357083207989S11659330EA0098201000000000000000
B0357123207934S11659367EA0100201027000000000000
B0357163207953S11659412EA0103101051000000000000
B0357203207999S11659382EA0103901048000000015000
B0357243208009S11659295EA0104101055000000015000
B0357283207956S11659235EA0104701064000000015000
B0357323207906S11659283EA0106701094000000015000
B0357363207937S11659319EA0109601120000000015000
B0357403207979S11659276EA0110701120000000015000
B0357443207966S11659192EA0110601120000000015000
B0357483207897S11659165EA0111301130000000015000
B0357523207862S11659228EA0113101155000000015000
B0357563207897S11659263EA0115701180000000015000
B0358003207945S11659224EA0116201172000000015000
B0358043207945S11659133EA0116201181000000015000
B0358083207893S11659068EA0117301191000000015000
B0358123207818S11659062EA0118501208000000015000
B0358163207774S11659111EA0121401241000000015000
B0358203207800S11659145EA0123301254000000015000
B0358243207841S11659102EA0124401265000000015000
B0358283207832S11659019EA0125201271000000015000
B0358323207763S11658984EA0126601299000000015000
B0358363207709S11659023EA0129101319000000015000
B0358403207709S11659080EA0130901334000000015000
B0358443207749S11659094EA0132001337000000015000
B0358483207792S11659045EA0130901323000000015000
B0358523207787S11658955EA0130901335000000015000
B0358563207731S11658894EA0132701353000000015000
B0359003207667S11658916EA0134701372000000015000
B0359043207670S11658979EA0135401373000000015000
B0359083207723S11658988EA0135601375000000015000
B0359123207768S11658925EA0135101370000000015000
B0359163207762S11658830EA0136001385000000015000
B0359203207732S11658734EA0136601395000000015000
B0359243207697S11658641EA0137901411000000015000
B0359283207659S11658551EA0139201425000000015000
B0359323207615S11658465EA0140401434000000015000
B0359363207573S11658375EA0141201444000000000000
B0359403207537S11658286EA0143301466000000000000
B0359443207505S11658197EA0144101467000000000000
B0359483207471S11658101EA0143501458000000000000
B0359523207437S11658004EA0143101459000000000000
B0359563207404S11657910EA0144601475000000000000
B0400003207375S11657826EA0145801484000000000000
B0400043207346S11657737EA0145401475000000000000
B0400083207310S11657646EA0145501483000000000000
B0400123207272S11657555EA0146901503000000000000
B0400163207233S11657468EA0148301507000000000000
B0400203207195S11657381EA0149201519000000000000
B0400243207161S11657293EA0149501518000000000000
B0400283207128S11657205EA0148701507000000000000
B0400323207077S11657121EA0147101492000000000000
B0400363207022S11657046EA0147301500000000000000
B0400403206961S11656981EA0148401515000000000000
B0400443206888S11656968EA0150001532000000000000
B0400483206862S11657020EA0151801555000000000000
B0400523206896S11657051EA0153901570000000000000
B0400563206947S11657013EA0155001576000000015000
B0401003206973S11656927EA0155301582000000015000
B0401043206974S11656830EA0156001594000000015000
B0401083206999S11656747EA0157501607000000000000
B0401123207051S11656711EA0158501612000000015000
B0401163207105S11656713EA0158401610000000015000
B0401203207163S11656724EA0158201608000000000000
B0401243207228S11656727EA0157901603000000000000
B0401283207299S11656721EA0157001592000000000000
B0401323207376S11656708EA0155801581000000000000
B0401363207459S11656693EA0154301563000000000000
B0401403207547S11656679EA0153101548000000000000
B0401443207638S11656663EA0151201526000000000000
B0401483207732S11656648EA0149201510000000000000
B0401523207827S11656630EA0148201499000000000000
B0401563207922S11656611EA0146301478000000000000
B0402003208019S11656596EA0144101458000000000000
B0402043208117S11656583EA0142701446000000000000
B0402083208213S11656571EA0141801435000000000000
B0402123208308S11656558EA0140901428000000000000
B0402163208399S11656544EA0141101432000000000000
B0402203208485S11656529EA0140701425000000000000
B0402243208572S11656519EA0139501409000000000000
B0402283208660S11656510EA0137901402000000000000
B0402323208743S11656505EA0137701397000000000000
B0402363208827S11656502EA0136401379000000000000
B0402403208910S11656501EA0135501377000000000000
B0402443208993S11656497EA0134601363000000000000
B0402483209075S11656490EA0133801359000000000000
B0402523209156S11656480EA0133501355000000000000
B0402563209235S11656470EA0133201355000000000000
B0403003209310S11656464EA0133901365000000000000
B0403043209378S11656466EA0134901374000000000000
B0403083209444S11656464EA0134801366000000000000
B0403123209517S11656461EA0134201360000000000000
B0403163209592S11656450EA0134301370000000000000
B0403203209646S11656477EA0137001406000000000000
B0403243209650S11656532EA0139901430000000015000
B0403283209599S11656563EA0141901451000000015000
B0403323209535S11656531EA0143801467000000015000
B0403363209514S11656453EA0145301481000000015000
B0403403209543S11656396EA0146601497000000015000
B0403443209579S11656405EA0148101506000000015000
B0403483209573S11656453EA0149001516000000030000
B0403523209518S11656476EA0149901525000000030000
B0403563209456S11656429EA0150701534000000030000
B0404003209429S11656346EA0151801545000000015000
B0404043209461S11656295EA0153001560000000015000
B0404083209494S11656316EA0154301566000000030000
B0404123209479S11656370EA0155301575000000030000
B0404163209419S11656389EA0156701593000000030000
B0404203209357S11656353EA0158201607000000030000
B0404243209318S11656277EA0158901611000000015000
B0404283209313S11656197EA0159701626000000015000
B0404323209332S11656126EA0160201625000000015000
B0404363209379S11656081EA0159701621000000015000
B0404403209440S11656058EA0159801624000000015000
B0404443209508S11656054EA0159801622000000015000
B0404483209581S11656061EA0159101610000000000000
B0404523209663S11656080EA0158201604000000000000
B0404563209744S11656103EA0158101599000000000000
B0405003209828S11656124EA0157101595000000000000
B0405043209910S11656145EA0157201593000000000000
B0405083209990S11656165EA0157201598000000000000
B0405123210067S11656186EA0158001607000000000000
B0405163210141S11656204EA0158301604000000000000
B0405203210218S11656220EA0157201589000000000000
B0405243210298S11656232EA0155401572000000000000
B0405283210379S11656241EA0154001561000000000000
B0405323210458S11656249EA0152801543000000000000
B0405363210540S11656267EA0150501523000000000000
B0405403210619S11656292EA0149901520000000000000
B0405443210692S11656312EA0150201528000000000000
B0405483210758S11656329EA0151601546000000000000
B0405523210822S11656340EA0153201561000000000000
B0405563210890S11656355EA0153401550000000000000
B0406003210965S11656379EA0152501546000000000000
B0406043211042S11656399EA0153001553000000000000
B0406083211120S11656418EA0153501557000000000000
B0406123211198S11656435EA0153101545000000000000
B0406163211278S11656449EA0151801533000000000000
B0406203211358S11656461EA0150901529000000000000
B0406243211434S11656471EA0150201520000000000000
B0406283211514S11656480EA0148301497000000000000
B0406323211600S11656489EA0146801480000000000000
B0406363211685S11656501EA0146301487000000000000
B0406403211766S11656511EA0146701487000000000000
B0406443211844S11656523EA0146401485000000000000
B0406483211918S11656533EA0146601487000000000000
B0406523211991S11656545EA0146201479000000000000
B0406563212065S11656555EA0146001483000000000000
B0407003212136S11656566EA0146701489000000000000
B0407043212209S11656578EA0146201482000000000000
B0407083212285S11656592EA0146001480000000000000
B0407123212363S11656605EA0146501487000000000000
B0407163212435S11656614EA0147101499000000000000
B0407203212502S11656622EA0147801489000000000000
B0407243212575S11656630EA0145701461000000000000
B0407283212654S11656637EA0144001449000000000000
B0407323212733S11656643EA0142501434000000000000
B0407363212814S11656645EA0141201425000000000000
B0407403212889S11656648EA0140501418000000000000
B0407443212963S11656649EA0139601409000000000000
B0407483213040S11656648EA0138501397000000000000
B0407523213117S11656648EA0137701387000000000000
B0407563213196S11656641EA0136901384000000000000
B0408003213274S11656633EA0137301395000000000000
B0408043213349S11656622EA0138301404000000000000
B0408083213421S11656607EA0139201412000000000000
B0408123213487S11656598EA0139901421000000000000
B0408163213555S11656587EA0140101421000000000000
B0408203213622S11656574EA0140501427000000000000
B0408243213689S11656553EA0140501424000000000000
B0408283213755S11656544EA0140201422000000000000
B0408323213821S11656544EA0139801413000000000000
B0408363213890S11656546EA0139301412000000000000
B0408403213956S11656554EA0139701417000000000000
B0408443214023S11656559EA0139601409000000000000
B0408483214092S11656563EA0138101394000000000000
B0408523214166S11656570EA0137501393000000000000
B0408563214239S11656574EA0137801397000000000000
B0409003214306S11656572EA0138501397000000000000
B0409043214376S11656572EA0137601386000000000000
B0409083214450S11656572EA0137301387000000000000
B0409123214525S11656571EA0137401393000000000000
B0409163214597S11656568EA0138401407000000000000
B0409203214666S11656566EA0139301410000000000000
B0409243214739S11656562EA0139001409000000000000
B0409283214813S11656559EA0139101413000000000000
B0409323214887S11656561EA0139101410000000000000
B0409363214961S11656563EA0139001407000000000000
B0409403215038S11656565EA0138301397000000000000
B0409443215113S11656567EA0137301391000000000000
B0409483215188S11656570EA0137501395000000000000
B0409523215260S11656574EA0137301384000000000000
B0409563215336S11656576EA0135601367000000000000
B0410003215415S11656580EA0134001352000000000000
B0410043215496S11656585EA0132601338000000000000
B0410083215575S11656588EA0131401322000000000000
B0410123215657S11656593EA0129501301000000000000
B0410163215736S11656601EA0128401295000000000000
B0410203215812S11656610EA0127601288000000000000
B0410243215887S11656622EA0125901262000000000000
B0410283215968S11656633EA0123901245000000000000
B0410323216051S11656644EA0122601238000000000000
B0410363216131S11656653EA0122801246000000000000
B0410403216208S11656658EA0122901240000000000000
B0410443216287S11656662EA0122001227000000000000
B0410483216368S11656663EA0120601215000000000000
B0410523216449S11656661EA0119201197000000000000
B0410563216529S11656659EA0117601182000000000000
B0411003216607S11656658EA0116001166000000000000
B0411043216683S11656656EA0115201162000000000000
B0411083216754S11656653EA0114401149000000000000
B0411123216824S11656652EA0113101139000000000000
B0411163216891S11656652EA0112501135000000000000
B0411203216956S11656650EA0112001131000000000000
B0411243217018S11656652EA0111901133000000000000
B0411283217078S11656656EA0111601123000000000000
B0411323217141S11656672EA0110401108000000000000
B0411363217205S11656705EA0108401088000000000000
B0411403217266S11656747EA0107401087000000000000
B0411443217321S11656793EA0108101097000000000000
B0411483217373S11656838EA0109201107000000000000
B0411523217421S11656883EA0109101098000000000000
B0411563217472S11656927EA0107901092000000000000
B0412003217517S11656973EA0107701090000000000000
B0412043217561S11657020EA0106901076000000000000
B0412083217602S11657073EA0105401060000000000000
B0412123217641S11657129EA0103801042000000000000
B0412163217680S11657191EA0101601019000000000000
B0412203217719S11657257EA0099901006000000000000
B0412243217755S11657326EA0098200988000000000000
B0412283217791S11657400EA0097100979000000000000
B0412323217834S11657468EA0097601002000000000000
B0412363217871S11657529EA0100301029000000000000
B0412403217908S11657584EA0101601031000000000000
B0412443217954S11657637EA0101701032000000000000
B0412483218014S11657620EA0103201055000000000000
B0412523218015S11657545EA0104501059000000000000
B0412563217960S11657511EA0104501058000000000000
B0413003217915S11657546EA0104601062000000015000
B0413043217907S11657606EA0105301068000000015000
B0413083217938S11657655EA0105801073000000015000
B0413123217996S11657634EA0106501082000000015000
B0413163217990S11657558EA0108101100000000015000
B0413203217934S11657537EA0108601098000000015000
B0413243217903S11657588EA0108601102000000015000
B0413283217928S11657641EA0109201113000000015000
B0413323217984S11657644EA0110101123000000015000
B0413363218012S11657575EA0111301137000000030000
B0413403217970S11657514EA0112601149000000030000
B0413443217920S11657533EA0113901162000000015000
B0413483217933S11657586EA0114601163000000015000
B0413523217989S11657582EA0115301177000000030000
B0413563218018S11657510EA0116401187000000030000
B0414003217979S11657441EA0117401193000000030000
B0414043217918S11657445EA0118401205000000030000
B0414083217902S11657501EA0119401213000000015000
B0414123217936S11657546EA0119901219000000015000
B0414163217992S11657547EA0120901236000000015000
B0414203218025S11657488EA0123001260000000015000
B0414243217980S11657424EA0125501287000000015000
B0414283217924S11657438EA0127801303000000015000
B0414323217928S11657490EA0128701310000000015000
B0414363217976S11657501EA0129801324000000015000
B0414403218006S11657443EA0131501346000000015000
B0414443217977S11657368EA0133301362000000015000
B0414483217910S11657342EA0135301383000000015000
B0414523217873S11657382EA0137401400000000015000
B0414563217898S11657424EA0138301408000000015000
B0415003217947S11657411EA0139101418000000015000
B0415043217967S11657339EA0141001439000000015000
B0415083217919S11657273EA0142501458000000015000
B0415123217858S11657283EA0144401477000000015000
B0415163217846S11657335EA0145801487000000015000
B0415203217882S11657365EA0146601491000000015000
B0415243217932S11657337EA0147601501000000015000
B0415283217931S11657259EA0149901526000000015000
B0415323217869S11657216EA0151501541000000015000
B0415363217815S11657247EA0153201556000000015000
B0415403217815S11657302EA0154301569000000015000
B0415443217855S11657325EA0155101573000000015000
B0415483217906S11657294EA0156001585000000015000
B0415523217906S11657212EA0158301613000000015000
B0415563217845S11657168EA0159801625000000015000
B0416003217791S11657207EA0161301646000000015000
B0416043217802S11657263EA0163101660000000015000
B0416083217856S11657269EA0163901666000000015000
B0416123217890S11657195EA0165101692000000015000
B0416163217856S11657118EA0167801715000000015000
B0416203217789S11657108EA0169601729000000015000
B0416243217759S11657161EA0171301747000000015000
B0416283217791S11657203EA0172801759000000015000
B0416323217845S11657181EA0174001772000000015000
B0416363217847S11657098EA0176201796000000015000
B0416403217789S11657053EA0178201817000000015000
B0416443217736S11657085EA0179501829000000015000
B0416483217742S11657142EA0180701843000000015000
B0416523217793S11657146EA0182201854000000015000
B0416563217824S11657074EA0183001869000000030000
B0417003217785S11657001EA0185201896000000015000
B0417043217721S11657001EA0187601910000000015000
B0417083217702S11657060EA0188501920000000015000
B0417123217743S11657090EA0189701932000000015000
B0417163217789S11657039EA0191001947000000015000
B0417203217763S11656961EA0192401961000000015000
B0417243217697S11656964EA0193901973000000015000
B0417283217680S11657027EA0195001983000000015000
B0417323217724S11657053EA0196402001000000015000
B0417363217768S11657003EA0198202017000000030000
B0417403217745S11656926EA0199202023000000030000
B0417443217674S11656918EA0199602028000000015000
B0417483217641S11656971EA0200502037000000015000
B0417523217665S11657022EA0201002041000000015000
B0417563217729S11657020EA0201302047000000015000
B0418003217798S11656995EA0202202055000000015000
B0418043217872S11656966EA0202002046000000015000
B0418083217957S11656935EA0200802033000000015000
B0418123218049S11656916EA0199902028000000000000
B0418163218141S11656910EA0199502024000000000000
B0418203218232S11656918EA0198902013000000000000
B0418243218322S11656931EA0198102008000000000000
B0418283218412S11656944EA0197702002000000000000
B0418323218501S11656957EA0196601992000000000000
B0418363218591S11656971EA0195401980000000000000
B0418403218681S11656988EA0194901974000000000000
B0418443218765S11657005EA0194901974000000000000
B0418483218850S11657017EA0194401970000000000000
B0418523218935S11657026EA0193501958000000000000
B0418563219021S11657038EA0192401947000000000000
B0419003219108S11657049EA0191201936000000000000
B0419043219195S11657064EA0190301926000000000000
B0419083219285S11657078EA0188601909000000000000
B0419123219379S11657090EA0187401897000000000000
B0419163219470S11657105EA0186701888000000000000
B0419203219561S11657120EA0185501874000000000000
B0419243219650S11657137EA0184901875000000000000
B0419283219734S11657160EA0185001877000000000000
B0419323219813S11657186EA0185201877000000000000
B0419363219891S11657208EA0185101876000000000000
B0419403219968S11657231EA0184401867000000000000
B0419443220046S11657252EA0183701861000000000000
B0419483220124S11657273EA0183201852000000000000
B0419523220202S11657295EA0182301844000000000000
B0419563220278S11657316EA0181601838000000000000
B0420003220358S11657335EA0181001833000000000000
B0420043220436S11657354EA0180701832000000000000
B0420083220514S11657369EA0180301827000000000000
B0420123220590S11657384EA0179701819000000000000
B0420163220668S11657398EA0178901812000000000000
B0420203220746S11657411EA0178401803000000000000
B0420243220827S11657425EA0177401795000000000000
B0420283220908S11657438EA0177101795000000000000
B0420323220987S11657449EA0176601788000000000000
B0420363221066S11657456EA0175801778000000000000
B0420403221145S11657464EA0174601767000000000000
B0420443221225S11657476EA0173701758000000000000
B0420483221300S11657489EA0173101752000000000000
B0420523221376S11657502EA0172001739000000000000
B0420563221450S11657516EA0171201735000000000000
B0421003221520S11657537EA0171201735000000000000
B0421043221587S11657560EA0170801727000000000000
B0421083221655S11657584EA0169501715000000000000
B0421123221727S11657601EA0168801710000000000000
B0421163221793S11657620EA0169501722000000000000
B0421203221857S11657638EA0169601715000000000000
B0421243221927S11657654EA0168501704000000000000
B0421283222001S11657664EA0167501694000000000000
B0421323222078S11657675EA0167301695000000000000
B0421363222154S11657681EA0167601702000000000000
B0421403222224S11657688EA0169101721000000000000
B0421443222291S11657696EA0170301729000000000000
B0421483222356S11657697EA0171401740000000000000
B0421523222396S11657634EA0173401768000000000000
B0421563222356S11657573EA0175101778000000000000
B0422003222302S11657602EA0175801781000000000000
B0422043222322S11657658EA0176301789000000000000
B0422083222379S11657653EA0177001798000000015000
B0422123222405S11657572EA0178401816000000015000
B0422163222361S11657498EA0179801828000000015000
B0422203222301S11657516EA0181301843000000015000
B0422243222301S11657575EA0182301855000000015000
B0422283222349S11657590EA0183801870000000015000
B0422323222391S11657540EA0185301885000000015000
B0422363222383S11657455EA0185901888000000030000
B0422403222318S11657426EA0186401898000000015000
B0422443222287S11657477EA0187501907000000015000
B0422483222323S11657519EA0187901909000000015000
B0422523222383S11657503EA0188501917000000015000
B0422563222443S11657468EA0188701910000000015000
B0423003222516S11657434EA0186901886000000015000
B0423043222601S11657404EA0185301878000000015000
B0423083222689S11657380EA0185701882000000015000
B0423123222773S11657356EA0184401862000000000000
B0423163222859S11657332EA0182001837000000000000
B0423203222946S11657308EA0180601827000000000000
B0423243223030S11657282EA0180001821000000000000
B0423283223112S11657256EA0179201810000000000000
B0423323223192S11657229EA0178901813000000000000
B0423363223270S11657204EA0178401797000000000000
B0423403223352S11657178EA0176401781000000000000
B0423443223433S11657155EA0175301773000000000000
B0423483223514S11657133EA0174601766000000000000
B0423523223595S11657112EA0173601755000000000000
B0423563223675S11657091EA0172601745000000000000
B0424003223756S11657072EA0171801736000000000000
B0424043223834S11657055EA0171601737000000000000
B0424083223912S11657042EA0171101728000000000000
B0424123223990S11657031EA0170601727000000000000
B0424163224068S11657018EA0170601729000000000000
B0424203224143S11656999EA0170401724000000000000
B0424243224220S11656977EA0169201709000000000000
B0424283224301S11656955EA0167901698000000000000
B0424323224381S11656934EA0167201687000000000000
B0424363224464S11656909EA0165901671000000000000
B0424403224548S11656886EA0164101654000000000000
B0424443224633S11656864EA0162501638000000000000
B0424483224720S11656845EA0160901622000000000000
B0424523224805S11656825EA0159801615000000000000
B0424563224887S11656802EA0159101608000000000000
B0425003224969S11656782EA0158401600000000000000
B0425043225051S11656760EA0157001585000000000000
B0425083225134S11656736EA0156001574000000000000
B0425123225216S11656711EA0155101568000000000000
B0425163225295S11656687EA0154301557000000000000
B0425203225373S11656666EA0153701555000000000000
B0425243225451S11656650EA0152701541000000000000
B0425283225532S11656637EA0151101524000000000000
B0425323225614S11656620EA0149901515000000000000
B0425363225693S11656600EA0149201507000000000000
B0425403225768S11656581EA0148701502000000000000
B0425443225840S11656563EA0148801518000000000000
B0425483225898S11656541EA0151401547000000000000
B0425523225948S11656498EA0153001549000000000000
B0425563225957S11656416EA0153301559000000000000
B0426003225918S11656340EA0154601573000000015000
B0426043225851S11656329EA0156101588000000015000
B0426083225816S11656373EA0156701585000000015000
B0426123225832S11656424EA0155801578000000015000
B0426163225877S11656450EA0155601578000000015000
B0426203225933S11656455EA0155901581000000000000
B0426243225993S11656453EA0156201589000000000000
B0426283226043S11656410EA0158301613000000000000
B0426323226017S11656336EA0161101647000000015000
B0426363225957S11656333EA0163801669000000015000
B0426403225933S11656383EA0165201674000000015000
B0426443225961S11656431EA0165501678000000015000
B0426483226020S11656418EA0166501692000000015000
B0426523226056S11656347EA0168301715000000015000
B0426563226024S11656272EA0170501739000000015000
B0427003225961S11656279EA0172901760000000015000
B0427043225948S11656341EA0174901779000000015000
B0427083225997S11656367EA0176601795000000015000
B0427123226045S11656318EA0177701805000000015000
B0427163226031S11656236EA0179401826000000030000
B0427203225968S11656210EA0181601849000000015000
B0427243225931S11656259EA0183101867000000015000
B0427283225965S11656307EA0185701888000000015000
B0427323226022S11656289EA0186501894000000015000
B0427363226044S11656214EA0187301906000000030000
B0427403225994S11656156EA0188301917000000015000
B0427443225941S11656189EA0190201938000000015000
B0427483225965S11656246EA0191501946000000015000
B0427523226028S11656243EA0192101947000000015000
B0427563226065S11656168EA0193001966000000015000
B0428003226039S11656082EA0195001981000000015000
B0428043225968S11656071EA0196501995000000015000
B0428083225932S11656133EA0197302000000000015000
B0428123225963S11656195EA0197802006000000015000
B0428163226028S11656202EA0197902004000000015000
B0428203226104S11656191EA0196501977000000015000
B0428243226195S11656178EA0193501943000000015000
B0428283226293S11656162EA0191201929000000000000
B0428323226392S11656147EA0189501915000000000000
B0428363226487S11656138EA0189201918000000000000
B0428403226578S11656126EA0189201916000000000000
B0428443226667S11656116EA0189201916000000000000
B0428483226751S11656106EA0188701910000000000000
B0428523226836S11656094EA0187901902000000000000
B0428563226921S11656080EA0187301892000000000000
B0429003227008S11656065EA0186101880000000000000
B0429043227094S11656050EA0185201873000000000000
B0429083227181S11656033EA0184401864000000000000
B0429123227267S11656016EA0183601857000000000000
B0429163227352S11655998EA0182901852000000000000
B0429203227435S11655980EA0182201842000000000000
B0429243227518S11655963EA0180901828000000000000
B0429283227604S11655944EA0179901819000000000000
B0429323227688S11655926EA0179101809000000000000
B0429363227773S11655909EA0178001798000000000000
B0429403227857S11655898EA0177301793000000000000
B0429443227941S11655886EA0177601799000000000000
B0429483228017S11655874EA0177901796000000000000
B0429523228097S11655865EA0176101777000000000000
B0429563228180S11655856EA0175501775000000000000
B0430003228262S11655847EA0175301773000000000000
B0430043228345S11655835EA0174701761000000000000
B0430083228429S11655822EA0173601753000000000000
B0430123228514S11655811EA0172901745000000000000
B0430163228598S11655795EA0172101739000000000000
B0430203228682S11655779EA0171301730000000000000
B0430243228763S11655765EA0170401721000000000000
B0430283228848S11655747EA0169001707000000000000
B0430323228935S11655730EA0168101700000000000000
B0430363229022S11655712EA0167601692000000000000
B0430403229108S11655694EA0166801685000000000000
B0430443229195S11655675EA0165901673000000000000
B0430483229285S11655658EA0165001669000000000000
B0430523229368S11655638EA0165401676000000000000
B0430563229447S11655617EA0165401670000000000000
B0431003229529S11655601EA0164101656000000000000
B0431043229614S11655587EA0163101642000000000000
B0431083229699S11655571EA0161601632000000000000
B0431123229785S11655557EA0160901624000000000000
B0431163229872S11655541EA0160301618000000000000
B0431203229958S11655525EA0159401609000000000000
B0431243230044S11655510EA0158301599000000000000
B0431283230130S11655497EA0157701594000000000000
B0431323230214S11655484EA0156901584000000000000
B0431363230299S11655473EA0156401582000000000000
B0431403230379S11655461EA0156301581000000000000
B0431443230459S11655445EA0155601574000000000000
B0431483230535S11655430EA0155101568000000000000
B0431523230609S11655414EA0154501561000000000000
B0431563230682S11655400EA0153801553000000000000
B0432003230756S11655388EA0152701540000000000000
B0432043230833S11655375EA0151801531000000000000
B0432083230910S11655362EA0151501534000000000000
B0432123230983S11655348EA0151801533000000000000
B0432163231054S11655335EA0151801537000000000000
B0432203231124S11655322EA0151601530000000000000
B0432243231197S11655304EA0150901524000000000000
B0432283231274S11655285EA0150801529000000000000
B0432323231347S11655267EA0151801543000000000000
B0432363231418S11655254EA0152801547000000000000
B0432403231488S11655232EA0153101552000000000000
B0432443231560S11655201EA0153801564000000000000
B0432483231616S11655138EA0155601580000000000000
B0432523231614S11655047EA0157201597000000000000
B0432563231560S11654995EA0157701592000000000000
B0433003231501S11655015EA0157001587000000000000
B0433043231491S11655071EA0157001593000000000000
B0433083231510S11655129EA0158101609000000000000
B0433123231545S11655175EA0159601621000000000000
B0433163231597S11655144EA0160701629000000000000
B0433203231597S11655053EA0160201616000000015000
B0433243231534S11654995EA0159901623000000015000
B0433283231469S11655006EA0161901650000000015000
B0433323231464S11655053EA0164001666000000000000
B0433363231516S11655032EA0164501668000000015000
B0433403231519S11654943EA0164801671000000015000
B0433443231458S11654915EA0166401692000000015000
B0433483231445S11654963EA0167701702000000015000
B0433523231495S11654962EA0168601717000000015000
B0433563231526S11654888EA0169801723000000015000
B0434003231491S11654815EA0170401735000000015000
B0434043231434S11654813EA0171801745000000015000
B0434083231431S11654864EA0172601755000000015000
B0434123231483S11654869EA0174101773000000015000
B0434163231530S11654813EA0175301777000000015000
B0434203231523S11654725EA0175501783000000015000
B0434243231465S11654674EA0176301789000000015000
B0434283231410S11654689EA0178001815000000015000
B0434323231410S11654733EA0179401820000000000000
B0434363231466S11654741EA0179801827000000000000
B0434403231506S11654678EA0181601848000000000000
B0434443231475S11654605EA0182201851000000000000
B0434483231414S11654604EA0182201850000000000000
B0434523231408S11654656EA0182601854000000000000
B0434563231470S11654673EA0182701854000000000000
B0435003231545S11654663EA0182201848000000000000
B0435043231625S11654648EA0180801824000000000000
B0435083231713S11654633EA0178501805000000000000
B0435123231804S11654617EA0177101794000000000000
B0435163231896S11654599EA0176101785000000000000
B0435203231989S11654579EA0175101771000000000000
B0435243232084S11654557EA0173801762000000000000
B0435283232177S11654537EA0173201758000000000000
B0435323232270S11654520EA0172801752000000000000
B0435363232362S11654504EA0172101745000000000000
B0435403232452S11654490EA0171701740000000000000
B0435443232540S11654477EA0170901733000000000000
B0435483232628S11654461EA0170101727000000000000
B0435523232715S11654448EA0169001711000000000000
B0435563232805S11654436EA0167701700000000000000
B0436003232894S11654426EA0166701691000000000000
B0436043232982S11654412EA0166101686000000000000
B0436083233069S11654399EA0165501679000000000000
B0436123233157S11654386EA0164801670000000000000
B0436163233247S11654374EA0163801656000000000000
B0436203233338S11654364EA0162401643000000000000
B0436243233428S11654352EA0161401633000000000000
B0436283233518S11654332EA0160101619000000000000
B0436323233610S11654313EA0158501602000000000000
B0436363233701S11654299EA0157001589000000000000
B0436403233792S11654280EA0155601575000000000000
B0436443233883S11654253EA0154701567000000000000
B0436483233969S11654218EA0154701577000000000000
B0436523234049S11654182EA0155301573000000000000
B0436563234130S11654141EA0155201578000000000000
B0437003234203S11654102EA0156701597000000000000
B0437043234270S11654067EA0157801604000000000000
B0437083234337S11654036EA0158201608000000000000
B0437123234403S11654009EA0158901617000000000000
B0437163234469S11653987EA0160201631000000000000
B0437203234534S11653980EA0161401641000000000000
B0437243234598S11653967EA0162701658000000000000
B0437283234615S11653890EA0164501679000000000000
B0437323234560S11653840EA0166001691000000000000
B0437363234507S11653868EA0167001702000000000000
B0437403234512S11653929EA0168301718000000000000
B0437443234563S11653952EA0169901733000000000000
B0437483234610S11653901EA0171901754000000000000
B0437523234585S11653823EA0173801773000000000000
B0437563234521S11653809EA0175201782000000000000
B0438003234490S11653863EA0176001793000000000000
B0438043234530S11653909EA0177401805000000000000
B0438083234591S11653872EA0178501818000000000000
B0438123234593S11653776EA0180201836000000000000
B0438163234526S11653725EA0181801858000000000000
B0438203234470S11653763EA0183301869000000000000
B0438243234481S11653832EA0184601882000000000000
B0438283234543S11653846EA0186001894000000000000
B0438323234582S11653768EA0187001905000000000000
B0438363234534S11653692EA0189001927000000000000
B0438403234470S11653711EA0190501941000000000000
B0438443234463S11653777EA0191701950000000000000
B0438483234515S11653809EA0192801962000000000000
B0438523234571S11653758EA0193901972000000000000
B0438563234561S11653662EA0195301988000000000000
B0439003234494S11653624EA0197002010000000000000
B0439043234444S11653664EA0198602023000000000000
B0439083234457S11653723EA0199702036000000000000
B0439123234509S11653729EA0200802045000000000000
B0439163234550S11653662EA0201102045000000000000
B0439203234551S11653560EA0201202052000000000000
B0439243234535S11653460EA0202502063000000000000
B0439283234482S11653389EA0203502072000000000000
B0439323234421S11653403EA0204302078000000000000
B0439363234422S11653460EA0204402079000000000000
B0439403234478S11653468EA0205602097000000000000
B0439443234517S11653399EA0206602102000000000000
B0439483234535S11653304EA0206202092000000000000
B0439523234587S11653222EA0205002082000000000000
B0439563234669S11653173EA0203802064000000000000
B0440003234763S11653148EA0202602052000000000000
B0440043234859S11653142EA0201302037000000000000
B0440083234958S11653143EA0199902026000000000000
B0440123235054S11653148EA0199002018000000000000
B0440163235150S11653153EA0198502015000000000000
B0440203235247S11653155EA0198102011000000000000
B0440243235340S11653152EA0198302017000000000000
B0440283235435S11653149EA0197502001000000000000
B0440323235529S11653144EA0197102002000000000000
B0440363235618S11653146EA0197202006000000000000
B0440403235704S11653146EA0197202002000000000000
B0440443235794S11653142EA0196301991000000000000
B0440483235885S11653139EA0195201979000000000000
B0440523235978S11653139EA0194001967000000000000
B0440563236073S11653139EA0192701957000000000000
B0441003236168S11653140EA0191501944000000000000
B0441043236266S11653140EA0190601939000000000000
B0441083236359S11653138EA0190001930000000000000
B0441123236456S11653136EA0188701919000000000000
B0441163236549S11653138EA0188201913000000000000
B0441203236640S11653140EA0187601907000000000000
B0441243236730S11653146EA0186901899000000000000
B0441283236818S11653152EA0185701887000000000000
B0441323236908S11653157EA0184801880000000000000
B0441363236998S11653160EA0184001866000000000000
B0441403237091S11653160EA0182301851000000000000
B0441443237187S11653157EA0180901832000000000000
B0441483237285S11653153EA0180101828000000000000
B0441523237380S11653149EA0179601824000000000000
B0441563237472S11653146EA0179301822000000000000
B0442003237563S11653138EA0178501811000000000000
B0442043237655S11653129EA0177401802000000000000
B0442083237746S11653117EA0176901797000000000000
B0442123237837S11653109EA0176401794000000000000
B0442163237927S11653100EA0176501799000000000000
B0442203238017S11653091EA0176701798000000000000
B0442243238107S11653084EA0176001782000000000000
B0442283238199S11653078EA0174501772000000000000
B0442323238290S11653069EA0174201769000000000000
B0442363238382S11653062EA0173101757000000000000
B0442403238476S11653055EA0172201747000000000000
B0442443238569S11653047EA0171301741000000000000
B0442483238662S11653039EA0170601736000000000000
B0442523238753S11653029EA0170001728000000000000
B0442563238841S11653019EA0169401724000000000000
B0443003238928S11653009EA0169001717000000000000
B0443043239014S11653005EA0168401711000000000000
B0443083239097S11653009EA0167701706000000000000
B0443123239178S11653010EA0167001698000000000000
B0443163239256S11653016EA0166301696000000000000
B0443203239331S11653025EA0166701702000000000000
B0443243239405S11653035EA0167101706000000000000
B0443283239478S11653039EA0167501709000000000000
B0443323239548S11653052EA0168101715000000000000
B0443363239603S11653091EA0169001729000000000000
B0443403239644S11653140EA0170201741000000000000
B0443443239683S11653191EA0170701742000000000000
B0443483239712S11653250EA0171301751000000000000
B0443523239742S11653303EA0172501760000000000000
B0443563239791S11653276EA0173301767000000000000
B0444003239780S11653191EA0173901776000000000000
B0444043239716S11653143EA0174401780000000000000
B0444083239654S11653162EA0175601797000000000000
B0444123239659S11653209EA0176601803000000000000
B0444163239707S11653208EA0176701801000000000000
B0444203239734S11653139EA0176901807000000000000
B0444243239695S11653065EA0177401811000000000000
B0444283239626S11653058EA0178201823000000000000
B0444323239586S11653107EA0179201832000000000000
B0444363239569S11653168EA0180501846000000000000
B0444403239595S11653207EA0181901854000000000000
B0444443239628S11653148EA0181701849000000000000
B0444483239586S11653073EA0181701854000000000000
B0444523239516S11653062EA0181901856000000000000
B0444563239461S11653104EA0182401863000000000000
B0445003239442S11653160EA0183401876000000000000
B0445043239462S11653209EA0184501885000000000000
B0445083239504S11653225EA0185701899000000000000
B0445123239526S11653162EA0186401902000000000000
B0445163239470S11653104EA0187101909000000000000
B0445203239414S11653135EA0187101900000000000000
B0445243239436S11653187EA0186401899000000000000
B0445283239494S11653201EA0185701891000000000000
B0445323239564S11653203EA0184601878000000000000
B0445363239639S11653199EA0185101892000000000000
B0445403239713S11653198EA0185201888000000000000
B0445443239790S11653194EA0184701879000000000000
B0445483239872S11653188EA0183501865000000000000
B0445523239954S11653185EA0183101867000000000000
B0445563240036S11653178EA0182901864000000000000
B0446003240119S11653173EA0182501857000000000000
B0446043240202S11653168EA0181601848000000000000
B0446083240287S11653165EA0180501836000000000000
B0446123240374S11653164EA0179401824000000000000
B0446163240461S11653164EA0178201814000000000000
B0446203240548S11653162EA0177501809000000000000
B0446243240634S11653159EA0177401807000000000000
B0446283240718S11653157EA0177401806000000000000
B0446323240803S11653156EA0176301792000000000000
B0446363240889S11653156EA0175001778000000000000
B0446403240974S11653157EA0174101772000000000000
B0446443241060S11653157EA0173701768000000000000
B0446483241145S11653161EA0173301767000000000000
B0446523241227S11653166EA0173001762000000000000
B0446563241310S11653172EA0172401753000000000000
B0447003241392S11653178EA0171601748000000000000
B0447043241471S11653182EA0171201746000000000000
B0447083241549S11653186EA0170601738000000000000
B0447123241627S11653190EA0169801729000000000000
B0447163241706S11653192EA0168701718000000000000
B0447203241783S11653195EA0167901711000000000000
B0447243241858S11653198EA0167301701000000000000
B0447283241932S11653198EA0166301695000000000000
B0447323242007S11653198EA0165701689000000000000
B0447363242078S11653195EA0166101697000000000000
B0447403242130S11653144EA0168201723000000000000
B0447443242134S11653056EA0170101741000000000000
B0447483242111S11652970EA0171601755000000000000
B0447523242043S11652947EA0173101770000000000000
B0447563242005S11652995EA0174101775000000000000
B0448003242031S11653035EA0174601780000000000000
B0448043242078S11653006EA0175501791000000000000
B0448083242070S11652927EA0176701804000000000000
B0448123242004S11652896EA0177901816000000000000
B0448163241951S11652931EA0178901822000000000000
B0448203241951S11652990EA0178801818000000000000
B0448243241999S11652996EA0179301832000000000000
B0448283242022S11652926EA0179901830000000000000
B0448323242004S11652827EA0179701831000000000000
B0448363241953S11652749EA0181201851000000000000
B0448403241886S11652761EA0182501855000000000000
B0448443241875S11652822EA0182701858000000000000
B0448483241919S11652845EA0183101857000000000000
B0448523241981S11652847EA0181801842000000000000
B0448563242049S11652839EA0181801847000000000000
B0449003242124S11652823EA0181201840000000000000
B0449043242199S11652802EA0181601851000000000000
B0449083242270S11652779EA0182901864000000000000
B0449123242341S11652756EA0183901870000000000000
B0449163242413S11652743EA0183501863000000000000
B0449203242490S11652723EA0183601870000000000000
B0449243242563S11652705EA0184101866000000000000
B0449283242641S11652688EA0182401836000000000000
B0449323242732S11652666EA0179601817000000000000
B0449363242824S11652644EA0178501807000000000000
B0449403242918S11652626EA0176901788000000000000
B0449443243011S11652606EA0175401778000000000000
B0449483243102S11652589EA0174701771000000000000
B0449523243193S11652576EA0174101766000000000000
B0449563243282S11652564EA0174101770000000000000
B0450003243368S11652554EA0174801781000000000000
B0450043243444S11652559EA0176401798000000000000
B0450083243515S11652572EA0177001799000000000000
B0450123243587S11652584EA0176901800000000000000
B0450163243660S11652589EA0177601806000000000000
B0450203243734S11652589EA0177501799000000000000
B0450243243815S11652588EA0175701778000000000000
B0450283243899S11652587EA0173801757000000000000
B0450323243988S11652588EA0171801739000000000000
B0450363244077S11652590EA0170501724000000000000
B0450403244167S11652593EA0169101715000000000000
B0450443244257S11652594EA0168401705000000000000
B0450483244348S11652593EA0167301696000000000000
B0450523244438S11652589EA0166301685000000000000
B0450563244530S11652584EA0165101673000000000000
B0451003244621S11652576EA0164501668000000000000
B0451043244709S11652570EA0163801661000000000000
B0451083244798S11652566EA0162801650000000000000
B0451123244881S11652561EA0163001656000000000000
B0451163244963S11652554EA0162501646000000000000
B0451203245046S11652549EA0161001626000000000000
B0451243245130S11652545EA0159501620000000000000
B0451283245211S11652541EA0159901628000000000000
B0451323245286S11652532EA0161301646000000000000
B0451363245354S11652528EA0163301666000000000000
B0451403245411S11652549EA0165101681000000000000
B0451443245458S11652581EA0165701685000000000000
B0451483245501S11652623EA0165701684000000000000
B0451523245532S11652678EA0165101674000000000000
B0451563245563S11652733EA0164501669000000000000
B0452003245598S11652788EA0164201665000000000000
B0452043245648S11652832EA0163501662000000000000
B0452083245701S11652871EA0163601662000000000000
B0452123245751S11652913EA0164301674000000000000
B0452163245795S11652957EA0165901692000000000000
B0452203245831S11653003EA0167201704000000000000
B0452243245870S11653049EA0168001709000000000000
B0452283245923S11653075EA0169601727000000000000
B0452323245964S11653018EA0170801739000000000000
B0452363245942S11652939EA0170901736000000000000
B0452403245881S11652917EA0171301744000000000000
B0452443245843S11652953EA0172001753000000000000
B0452483245839S11653009EA0172901758000000000000
B0452523245864S11653060EA0173801772000000000000
B0452563245921S11653058EA0175101780000000000000
B0453003245959S11652990EA0176001792000000000000
B0453043245933S11652913EA0177001800000000000000
B0453083245878S11652891EA0177501802000000000000
B0453123245842S11652930EA0177501809000000000000
B0453163245852S11652982EA0178401819000000000000
B0453203245899S11652997EA0179301828000000000000
B0453243245940S11652941EA0179701825000000000000
B0453283245926S11652854EA0179401821000000000000
B0453323245869S11652830EA0180201837000000000000
B0453363245831S11652862EA0181101841000000000000
B0453403245836S11652917EA0181001840000000000000
B0453443245864S11652971EA0180601840000000000000
B0453483245896S11653023EA0180801840000000000000
B0453523245946S11653066EA0180501830000000000000
B0453563246014S11653092EA0179301815000000000000
B0454003246095S11653107EA0177301793000000000000
B0454043246182S11653109EA0175201770000000000000
B0454083246269S11653113EA0173701756000000000000
B0454123246360S11653114EA0172101742000000000000
B0454163246451S11653114EA0170501729000000000000
B0454203246541S11653113EA0170101729000000000000
B0454243246628S11653112EA0170001725000000000000
B0454283246716S11653110EA0169301719000000000000
B0454323246804S11653109EA0168401709000000000000
B0454363246892S11653108EA0167401696000000000000
B0454403246979S11653105EA0166401687000000000000
B0454443247065S11653101EA0165601681000000000000
B0454483247148S11653099EA0165201677000000000000
B0454523247229S11653100EA0164801674000000000000
B0454563247308S11653101EA0164501668000000000000
B0455003247386S11653104EA0164101665000000000000
B0455043247461S11653108EA0164101666000000000000
B0455083247535S11653110EA0163501655000000000000
B0455123247610S11653114EA0162201643000000000000
B0455163247682S11653117EA0162101649000000000000
B0455203247746S11653135EA0162901657000000000000
B0455243247788S11653179EA0163601662000000000000
B0455283247819S11653231EA0163301653000000000000
B0455323247864S11653277EA0161801639000000000000
B0455363247923S11653309EA0161601642000000000000
B0455403247977S11653346EA0162501649000000000000
B0455443248027S11653393EA0162401643000000000000
B0455483248079S11653441EA0162001645000000000000
B0455523248119S11653499EA0162401648000000000000
B0455563248157S11653558EA0161601633000000000000
B0456003248209S11653607EA0159701615000000000000
B0456043248276S11653640EA0158201601000000000000
B0456083248352S11653659EA0157001590000000000000
B0456123248430S11653671EA0156001581000000000000
B0456163248510S11653676EA0155001571000000000000
B0456203248592S11653676EA0154001556000000000000
B0456243248676S11653675EA0152601544000000000000
B0456283248761S11653672EA0151101526000000000000
B0456323248847S11653669EA0150201523000000000000
B0456363248932S11653664EA0149601514000000000000
B0456403249016S11653658EA0149001513000000000000
B0456443249098S11653649EA0149601519000000000000
B0456483249176S11653636EA0151001539000000000000
B0456523249242S11653656EA0152501554000000000000
B0456563249271S11653714EA0154701581000000000000
B0457003249245S11653760EA0155901594000000000000
B0457043249192S11653724EA0157401612000000000000
B0457083249194S11653643EA0159101627000000000000
B0457123249244S11653617EA0160601637000000000000
B0457163249263S11653662EA0161201638000000000000
B0457203249223S11653695EA0161501650000000000000
B0457243249167S11653669EA0162601657000000000000
B0457283249140S11653594EA0163901673000000000000
B0457323249167S11653526EA0165401689000000000000
B0457363249210S11653530EA0166501694000000000000
B0457403249207S11653582EA0166101686000000000000
B0457443249155S11653610EA0166501701000000000000
B0457483249093S11653584EA0167801713000000000000
B0457523249069S11653507EA0169401729000000000000
B0457563249103S11653446EA0170401743000000000000
B0458003249149S11653452EA0171801755000000000000
B0458043249149S11653500EA0172901758000000000000
B0458083249094S11653515EA0173401773000000000000
B0458123249046S11653461EA0174901782000000000000
B0458163249051S11653382EA0175601796000000000000
B0458203249098S11653347EA0177001806000000000000
B0458243249128S11653380EA0177601809000000000000
B0458283249102S11653425EA0177901813000000000000
B0458323249043S11653425EA0179201829000000000000
B0458363248993S11653380EA0180201834000000000000
B0458403248977S11653299EA0180601842000000000000
B0458443249007S11653226EA0181601848000000000000
B0458483249059S11653173EA0181201839000000000000
B0458523249128S11653142EA0180001825000000000000
B0458563249206S11653126EA0179501822000000000000
B0459003249287S11653117EA0178201799000000000000
B0459043249371S11653109EA0176201785000000000000
B0459083249453S11653103EA0175101772000000000000
B0459123249537S11653101EA0173401755000000000000
B0459163249621S11653100EA0172301747000000000000
B0459203249699S11653100EA0171501741000000000000
B0459243249775S11653101EA0170801732000000000000
B0459283249852S11653101EA0169401718000000000000
B0459323249930S11653101EA0168601712000000000000
B0459363250005S11653104EA0168601713000000000000
B0459403250082S11653108EA0168401710000000000000
B0459443250159S11653112EA0167701699000000000000
B0459483250237S11653113EA0166901693000000000000
B0459523250317S11653113EA0166401690000000000000
B0459563250398S11653113EA0165501677000000000000
B0500003250483S11653114EA0164401668000000000000
B0500043250563S11653116EA0164401672000000000000
B0500083250642S11653122EA0163801660000000000000
B0500123250724S11653130EA0162701647000000000000
B0500163250808S11653136EA0161501636000000000000
B0500203250891S11653144EA0160701629000000000000
B0500243250975S11653155EA0160301627000000000000
B0500283251057S11653165EA0159801622000000000000
B0500323251136S11653177EA0159201614000000000000
B0500363251217S11653191EA0158101602000000000000
B0500403251299S11653204EA0157001592000000000000
B0500443251382S11653214EA0156401583000000000000
B0500483251465S11653226EA0155401575000000000000
B0500523251547S11653238EA0155001571000000000000
B0500563251630S11653251EA0154401566000000000000
B0501003251716S11653261EA0153601556000000000000
B0501043251801S11653272EA0153201555000000000000
B0501083251884S11653279EA0152701547000000000000
B0501123251967S11653289EA0151801539000000000000
B0501163252049S11653296EA0151001532000000000000
B0501203252128S11653303EA0150301523000000000000
B0501243252206S11653308EA0149601513000000000000
B0501283252282S11653313EA0148501502000000000000
B0501323252356S11653317EA0147101488000000000000
B0501363252431S11653317EA0145601473000000000000
B0501403252507S11653316EA0144101459000000000000
B0501443252582S11653317EA0142301439000000000000
B0501483252657S11653320EA0140801426000000000000
B0501523252732S11653325EA0140001413000000000000
B0501563252804S11653329EA0139701422000000000000
B0502003252869S11653335EA0141301442000000000000
B0502043252897S11653382EA0143501467000000000000
B0502083252850S11653416EA0145901488000000000000
B0502123252793S11653361EA0146901491000000000000
B0502163252804S11653282EA0147301497000000000000
B0502203252843S11653289EA0147801507000000000000
B0502243252826S11653338EA0148801515000000000000
B0502283252763S11653355EA0149801528000000000000
B0502323252702S11653317EA0150501529000000000000
B0502363252668S11653243EA0149501515000000000000
B0502403252673S11653157EA0148501506000000000000
B0502443252716S11653103EA0148501510000000000000
B0502483252761S11653108EA0149001523000000000000
B0502523252789S11653147EA0150301533000000000000
B0502563252816S11653192EA0150801538000000000000
B0503003252834S11653247EA0151701546000000000000
B0503043252798S11653296EA0152401550000000000000
B0503083252726S11653272EA0152501554000000000000
B0503123252702S11653187EA0152801554000000000000
B0503163252745S11653127EA0153001557000000000000
B0503203252800S11653121EA0153301562000000000000
B0503243252841S11653156EA0153601560000000000000
B0503283252867S11653208EA0153201554000000000000
B0503323252895S11653261EA0152401542000000000000
B0503363252949S11653295EA0150801526000000000000
B0503403253018S11653303EA0149601518000000000000
B0503443253089S11653305EA0149101512000000000000
B0503483253163S11653307EA0147801496000000000000
B0503523253239S11653308EA0146201482000000000000
B0503563253314S11653311EA0144901469000000000000
B0504003253388S11653313EA0144401465000000000000
B0504043253461S11653316EA0144001460000000000000
B0504083253532S11653320EA0143701458000000000000
B0504123253603S11653324EA0143201453000000000000
B0504163253673S11653328EA0142701446000000000000
B0504203253743S11653333EA0141601434000000000000
B0504243253813S11653338EA0140601426000000000000
B0504283253883S11653343EA0139801417000000000000
B0504323253952S11653344EA0138901408000000000000
B0504363254020S11653346EA0138701406000000000000
B0504403254085S11653344EA0138101400000000000000
B0504443254150S11653343EA0137601396000000000000
B0504483254214S11653344EA0137001389000000000000
B0504523254277S11653347EA0136301386000000000000
B0504563254340S11653351EA0136201383000000000000
B0505003254402S11653355EA0135801378000000000000
B0505043254464S11653357EA0135501376000000000000
B0505083254528S11653359EA0135201372000000000000
B0505123254592S11653360EA0135201376000000000000
B0505163254649S11653355EA0136501393000000000000
B0505203254700S11653367EA0136701388000000000000
B0505243254734S11653400EA0136601390000000000000
B0505283254749S11653448EA0136301386000000000000
B0505323254753S11653500EA0136001381000000000000
B0505363254753S11653554EA0135901381000000000000
B0505403254750S11653610EA0136201385000000000000
B0505443254756S11653663EA0136201384000000000000
B0505483254762S11653720EA0136101382000000000000
B0505523254766S11653776EA0136301386000000000000
B0505563254769S11653833EA0136201381000000000000
B0506003254779S11653890EA0135501375000000000000
B0506043254797S11653945EA0135501377000000000000
B0506083254812S11653998EA0135701379000000000000
B0506123254831S11654048EA0135301372000000000000
B0506163254856S11654098EA0134301363000000000000
B0506203254882S11654150EA0133601356000000000000
B0506243254900S11654208EA0133201352000000000000
B0506283254914S11654266EA0132901345000000000000
B0506323254929S11654326EA0131601331000000000000
B0506363254935S11654392EA0129901313000000000000
B0506403254948S11654461EA0128301294000000000000
B0506443254986S11654512EA0127001288000000000000
B0506483255042S11654531EA0126801287000000000000
B0506523255103S11654526EA0126101279000000000000
B0506563255166S11654513EA0125601272000000000000
B0507003255231S11654499EA0125501277000000000000
B0507043255299S11654488EA0125201264000000000000
B0507083255364S11654488EA0124001254000000000000
B0507123255420S11654514EA0123401249000000000000
B0507163255471S11654550EA0123701259000000000000
B0507203255504S11654603EA0124601261000000000000
B0507243255538S11654657EA0124101256000000000000
B0507283255573S11654712EA0124101259000000000000
B0507323255603S11654765EA0124401262000000000000
B0507363255627S11654824EA0124301256000000000000
B0507403255647S11654884EA0123501245000000000000
B0507443255672S11654943EA0121901226000000000000
B0507483255701S11655006EA0120201212000000000000
B0507523255737S11655059EA0119701212000000000000
B0507563255764S11655114EA0119601208000000000000
B0508003255780S11655172EA0118801196000000000000
B0508043255809S11655226EA0117601187000000000000
B0508083255852S11655262EA0117101183000000000000
B0508123255909S11655272EA0115901169000000000000
B0508163255975S11655253EA0114001149000000000000
B0508203256044S11655219EA0112401128000000000000
B0508243256114S11655181EA0110501108000000000000
B0508283256188S11655141EA0108301087000000000000
B0508323256261S11655098EA0106701075000000000000
B0508363256333S11655054EA0105501064000000000000
B0508403256400S11655006EA0104701056000000000000
B0508443256468S11654956EA0103901051000000000000
B0508483256531S11654908EA0104101057000000000000
B0508523256585S11654862EA0104701061000000000000
B0508563256638S11654819EA0104201055000000000000
B0509003256691S11654777EA0103501045000000000000
B0509043256747S11654737EA0102201030000000000000
B0509083256810S11654707EA0100901020000000000000
B0509123256873S11654682EA0100401017000000000000
B0509163256934S11654656EA0099901012000000000000
B0509203256997S11654638EA0099201005000000000000
B0509243257050S11654657EA0099401010000000000000
B0509283257089S11654694EA0099601011000000000000
B2359433207334S11656862EV0099300000000000000128
B2359473207334S11656862EV0099400000000000000128
B2359513207334S11656862EV0098900000000000000128
B2359553207334S11656862EV0097500000000000000128
B2359593207334S11656862EV0095700000000000000128
B0509553207334S11656862EV0095100000000000000128
B0510003257213S11655159EA0093600964000000225000
B0510043257194S11655229EA0092300952000000090000
B0510083257165S11655296EA0091000939000000060000
B0510123257128S11655359EA0089700926000000030000
B0510163257093S11655423EA0088300910000000015000
B0510203257055S11655489EA0086600892000000015000
B0510243257016S11655557EA0085500882000000015000
B0510283256979S11655623EA0084600867000000000000
B0510323256941S11655692EA0082900851000000000000
B0510363256902S11655761EA0081600845000000000000
B0510403256864S11655829EA0081100839000000000000
B0510443256829S11655896EA0080400830000000000000
B0510483256795S11655964EA0079300820000000000000
B0510523256763S11656033EA0078200808000000000000
B0510563256732S11656102EA0077900810000000000000
B0511003256687S11656160EA0079300824000000000000
B0511043256673S11656221EA0080300840000000000000
B0511083256723S11656221EA0082300857000000000000
B0511123256726S11656145EA0083100868000000000000
B0511163256672S11656099EA0083800866000000000000
B0511203256621S11656126EA0084000872000000000000
B0511243256633S11656184EA0084800879000000000000
B0511283256690S11656171EA0085600892000000000000
B0511323256695S11656087EA0086800907000000000000
B0511363256637S11656042EA0087800914000000000000
B0511403256590S11656074EA0088700923000000000000
B0511443256616S11656120EA0089600933000000000000
B0511483256663S11656080EA0091100951000000000000
B0511523256650S11656000EA0092500961000000000000
B0511563256589S11655969EA0093100966000000000000
B0512003256555S11656015EA0094000977000000000000
B0512043256585S11656051EA0095700995000000000000
B0512083256632S11656016EA0096801006000000000000
B0512123256622S11655937EA0098301023000000000000
B0512163256564S11655909EA0099401028000000000000
B0512203256531S11655957EA0099901033000000000000
B0512243256563S11655998EA0101301050000000000000
B0512283256611S11655965EA0102901069000000000000
B0512323256607S11655887EA0104101084000000000000
B0512363256547S11655865EA0105701100000000000000
B0512403256524S11655909EA0107301113000000000000
B0512443256564S11655933EA0108101121000000000000
B0512483256604S11655881EA0109601141000000000000
B0512523256582S11655807EA0111401156000000000000
B0512563256521S11655786EA0112601167000000000000
B0513003256485S11655827EA0113901180000000000000
B0513043256503S11655870EA0115601197000000000000
B0513083256548S11655856EA0117001211000000000000
B0513123256556S11655781EA0118601226000000000000
B0513163256505S11655733EA0119701236000000000000
B0513203256452S11655748EA0121001255000000000000
B0513243256448S11655796EA0122401264000000000000
B0513283256494S11655812EA0123301277000000000000
B0513323256530S11655760EA0125101300000000000000
B0513363256512S11655687EA0127001314000000000000
B0513403256453S11655665EA0128301325000000000000
B0513443256417S11655710EA0129301342000000000000
B0513483256443S11655751EA0131301360000000000000
B0513523256486S11655720EA0132901380000000000000
B0513563256481S11655645EA0134701395000000000000
B0514003256420S11655617EA0135801401000000000000
B0514043256379S11655664EA0137501427000000000000
B0514083256398S11655705EA0140101449000000000000
B0514123256442S11655684EA0141301457000000000000
B0514163256440S11655605EA0142201471000000000000
B0514203256383S11655565EA0144801500000000000000
B0514243256343S11655600EA0147001518000000000000
B0514283256369S11655635EA0148901539000000000000
B0514323256407S11655597EA0150201549000000000000
B0514363256394S11655522EA0151601564000000000000
B0514403256329S11655497EA0153001583000000000000
B0514443256299S11655545EA0155001608000000000000
B0514483256329S11655573EA0157101619000000000000
B0514523256374S11655536EA0157901628000000000000
B0514563256377S11655460EA0159301645000000000000
B0515003256327S11655401EA0160701658000000000000
B0515043256270S11655417EA0162701682000000000000
B0515083256270S11655463EA0164501696000000000000
B0515123256313S11655473EA0165601705000000000000
B0515163256346S11655417EA0166701718000000000000
B0515203256321S11655346EA0168001730000000000000
B0515243256258S11655320EA0169301745000000000000
B0515283256213S11655353EA0171101762000000000000
B0515323256235S11655389EA0172001766000000000000
B0515363256282S11655357EA0172701782000000000000
B0515403256278S11655283EA0174101794000000000000
B0515443256217S11655257EA0175301802000000000000
B0515483256188S11655306EA0175901812000000000000
B0515523256223S11655333EA0177201825000000000000
B0515563256262S11655294EA0178101832000000000000
B0516003256266S11655218EA0178401836000000000000
B0516043256231S11655145EA0179601849000000000000
B0516083256166S11655124EA0180201853000000000000
B0516123256115S11655157EA0181701874000000000000
B0516163256117S11655206EA0183401889000000000000
B0516203256157S11655213EA0184601898000000000000
B0516243256186S11655148EA0184901901000000000000
B0516283256158S11655066EA0186301919000000000000
B0516323256100S11655024EA0188101937000000000000
B0516363256049S11655041EA0189601950000000000000
B0516403256044S11655089EA0190501958000000000000
B0516443256080S11655111EA0191601974000000000000
B0516483256122S11655079EA0192801978000000000000
B0516523256118S11654998EA0193001980000000000000
B0516563256061S11654946EA0193701988000000000000
B0517003256013S11654979EA0194201996000000000000
B0517043256026S11655021EA0195402010000000000000
B0517083256070S11655021EA0196002010000000000000
B0517123256114S11654977EA0196002011000000000000
B0517163256162S11654928EA0195902008000000000000
B0517203256222S11654880EA0194101981000000000000
B0517243256291S11654834EA0192101967000000000000
B0517283256365S11654798EA0191301959000000000000
B0517323256440S11654761EA0191501969000000000000
B0517363256516S11654724EA0191901972000000000000
B0517403256593S11654687EA0191901966000000000000
B0517443256676S11654648EA0190601946000000000000
B0517483256760S11654613EA0188801933000000000000
B0517523256845S11654579EA0187901927000000000000
B0517563256925S11654548EA0187401915000000000000
B0518003257010S11654517EA0185501897000000000000
B0518043257093S11654485EA0184201886000000000000
B0518083257176S11654453EA0183101874000000000000
B0518123257259S11654423EA0181801861000000000000
B0518163257341S11654387EA0181201858000000000000
B0518203257422S11654353EA0181001856000000000000
B0518243257503S11654322EA0180401846000000000000
B0518283257584S11654287EA0179001833000000000000
B0518323257665S11654254EA0178501832000000000000
B0518363257743S11654221EA0177901823000000000000
B0518403257822S11654188EA0176601810000000000000
B0518443257903S11654153EA0174901791000000000000
B0518483257986S11654118EA0173601781000000000000
B0518523258068S11654084EA0173301777000000000000
B0518563258150S11654049EA0172601770000000000000
B0519003258229S11654014EA0172001764000000000000
B0519043258307S11653979EA0171501761000000000000
B0519083258383S11653944EA0171301761000000000000
B0519123258457S11653909EA0170901753000000000000
B0519163258532S11653874EA0169901743000000000000
B0519203258606S11653832EA0168601730000000000000
B0519243258680S11653793EA0167601719000000000000
B0519283258754S11653764EA0167001713000000000000
B0519323258829S11653741EA0166001706000000000000
B0519363258903S11653720EA0164701700000000015000
B0519403258977S11653708EA0164301695000000015000
B0519443259050S11653698EA0163601691000000015000
B0519483259121S11653682EA0162701686000000015000
B0519523259193S11653659EA0162801686000000015000
B0519563259263S11653637EA0161901689000000030000
B0520003259336S11653620EA0161001689000000030000
B0520043259407S11653610EA0160001688000000030000
B0520083259480S11653601EA0158801687000000045000
B0520123259551S11653597EA0157001673000000045000
B0520163259625S11653588EA0155001653000000045000
B0520203259697S11653578EA0154501634000000030000
B0520243259766S11653571EA0154101617000000015000
B0520283259833S11653562EA0153501608000000030000
B0520323259901S11653555EA0153101600000000030000
B0520363259966S11653537EA0152401586000000030000
B0520403300031S11653506EA0151301566000000015000
B0520443300097S11653476EA0150601560000000015000
B0520483300162S11653447EA0150201552000000015000
B0520523300226S11653420EA0149601541000000000000
B0520563300291S11653389EA0148401526000000000000
B0521003300360S11653363EA0146801510000000000000
B0521043300430S11653339EA0145501494000000000000
B0521083300500S11653312EA0144401484000000000000
B0521123300567S11653277EA0144301490000000000000
B0521163300629S11653243EA0144801491000000000000
B0521203300691S11653203EA0144801488000000000000
B0521243300753S11653161EA0144101482000000000000
B0521283300812S11653118EA0143901479000000000000
B0521323300871S11653075EA0143701478000000000000
B0521363300927S11653032EA0143801475000000000000
B0521403300985S11652992EA0143101466000000000000
B0521443301045S11652957EA0143001468000000000000
B0521483301105S11652921EA0143701477000000000000
B0521523301159S11652886EA0143901473000000000000
B0521563301217S11652860EA0143301463000000000000
B0522003301274S11652827EA0142501456000000000000
B0522043301330S11652791EA0142301456000000000000
B0522083301382S11652754EA0143401467000000000000
B0522123301432S11652722EA0144101470000000000000
B0522163301484S11652692EA0143901466000000000000
B0522203301538S11652659EA0143601464000000000000
B0522243301590S11652618EA0144001473000000000000
B0522283301639S11652575EA0144801474000000000000
B0522323301692S11652537EA0144001460000000000000
B0522363301747S11652498EA0142401443000000000000
B0522403301799S11652444EA0141501440000000000000
B0522443301846S11652388EA0141701443000000000000
B0522483301845S11652304EA0142001445000000000000
B0522523301782S11652263EA0141101420000000000000
B0522563301721S11652295EA0139101405000000000000
B0523003301673S11652349EA0136801381000000000000
B0523043301624S11652408EA0135501377000000000000
B0523083301573S11652466EA0134601363000000000000
B0523123301521S11652520EA0134601373000000000000
B0523163301465S11652564EA0136601392000000000000
B0523203301417S11652611EA0137901404000000000000
B0523243301425S11652652EA0139501423000000000000
B0523283301460S11652602EA0139701422000000000000
B0523323301434S11652514EA0140301437000000000000
B0523363301366S11652485EA0141801446000000000000
B0523403301331S11652525EA0142601452000000000000
B0523443301361S11652549EA0143001456000000000000
B0523483301395S11652490EA0143401461000000000000
B0523523301374S11652405EA0144401473000000000000
B0523563301308S11652363EA0145101478000000000000
B0524003301248S11652386EA0145801485000000000000
B0524043301241S11652432EA0146601494000000000000
B0524083301279S11652440EA0147301499000000000000
B0524123301306S11652380EA0147801503000000000000
B0524163301279S11652298EA0148301508000000000000
B0524203301210S11652269EA0149001516000000000000
B0524243301166S11652303EA0149401520000000000000
B0524283301183S11652340EA0149601519000000000000
B0524323301226S11652317EA0150201527000000000000
B0524363301262S11652262EA0150501532000000000000
B0524403301270S11652184EA0151201544000000000000
B0524443301217S11652115EA0152001541000000000000
B0524483301140S11652099EA0151701544000000000000
B0524523301080S11652134EA0152001544000000000000
B0524563301028S11652180EA0151501538000000000000
B0525003300977S11652229EA0150801529000000000000
B0525043300928S11652285EA0150001521000000000000
B0525083300880S11652342EA0149901527000000000000
B0525123300833S11652399EA0150501532000000000000
B0525163300790S11652458EA0151001540000000000000
B0525203300749S11652514EA0152201553000000000000
B0525243300706S11652567EA0153601568000000000000
B0525283300660S11652618EA0154801577000000000000
B0525323300611S11652666EA0155201579000000000000
B0525363300564S11652715EA0155201575000000000000
B0525403300516S11652770EA0153801558000000000000
B0525443300464S11652828EA0152201542000000000000
B0525483300416S11652892EA0151001534000000000000
B0525523300373S11652961EA0150201520000000000000
B0525563300324S11653027EA0149101512000000000000
B0526003300268S11653088EA0148501506000000000000
B0526043300209S11653148EA0147501494000000000000
B0526083300149S11653209EA0146201479000000000000
B0526123300090S11653269EA0144701464000000000000
B0526163300031S11653328EA0143001445000000000000
B0526203259970S11653385EA0141201431000000000000
B0526243259910S11653439EA0140401425000000000000
B0526283259850S11653493EA0139801414000000000000
B0526323259792S11653546EA0139001411000000000000
B0526363259736S11653598EA0139201416000000000000
B0526403259693S11653654EA0139501417000000000000
B0526443259659S11653716EA0139001406000000000000
B0526483259623S11653780EA0137501391000000000000
B0526523259580S11653844EA0136101379000000000000
B0526563259533S11653905EA0135101369000000000000
B0527003259482S11653963EA0133901358000000000000
B0527043259428S11654017EA0133501358000000000000
B0527083259373S11654066EA0133201351000000000000
B0527123259319S11654118EA0132701348000000000000
B0527163259265S11654170EA0133001352000000000000
B0527203259224S11654228EA0133601359000000000000
B0527243259198S11654292EA0134201366000000000000
B0527283259172S11654355EA0135001373000000000000
B0527323259148S11654420EA0135001369000000000000
B0527363259128S11654486EA0134701368000000000000
B0527403259108S11654550EA0134601366000000000000
B0527443259094S11654615EA0134101359000000000000
B0527483259076S11654681EA0132801342000000000000
B0527523259055S11654747EA0131701337000000000000
B0527563259033S11654815EA0131001329000000000000
B0528003258999S11654881EA0130701327000000000000
B0528043258959S11654946EA0130701328000000000000
B0528083258916S11655008EA0131301333000000000000
B0528123258878S11655072EA0131001325000000000000
B0528163258845S11655140EA0130101318000000000000
B0528203258810S11655206EA0129501315000000000000
B0528243258769S11655266EA0129601316000000000000
B0528283258721S11655324EA0129301310000000000000
B0528323258670S11655384EA0129001308000000000000
B0528363258617S11655445EA0128601300000000000000
B0528403258562S11655508EA0127601291000000000000
B0528443258506S11655569EA0127101289000000000000
B0528483258449S11655626EA0126801283000000000000
B0528523258390S11655684EA0125701268000000000000
B0528563258332S11655740EA0124701261000000000000
B0529003258275S11655795EA0123801254000000000000
B0529043258218S11655848EA0122301246000000015000
B0529083258163S11655904EA0120901240000000015000
B0529123258106S11655957EA0119801232000000015000
B0529163258046S11656011EA0118701224000000030000
B0529203257987S11656064EA0117601216000000030000
B0529243257932S11656117EA0117101209000000030000
B0529283257878S11656167EA0116601204000000045000
B0529323257826S11656217EA0116001200000000045000
B0529363257774S11656269EA0115601197000000045000
B0529403257727S11656314EA0114901184000000045000
B0529443257677S11656366EA0114001178000000045000
B0529483257625S11656416EA0113801172000000045000
B0529523257586S11656472EA0113601168000000045000
B0529563257565S11656532EA0112801163000000045000
B0530003257551S11656594EA0112001157000000060000
B0530043257531S11656663EA0110801150000000060000
B0530083257505S11656731EA0111001144000000060000
B0530123257490S11656800EA0112501151000000045000
B0530163257532S11656802EA0114701171000000030000
B0530203257539S11656727EA0115701181000000030000
B0530243257487S11656671EA0116801191000000030000
B0530283257430S11656688EA0118201205000000015000
B0530323257427S11656737EA0119501214000000015000
B0530363257473S11656734EA0120701229000000015000
B0530403257488S11656667EA0121901240000000015000
B0530443257440S11656605EA0122701246000000015000
B0530483257378S11656611EA0123901264000000015000
B0530523257347S11656661EA0125301273000000015000
B0530563257374S11656695EA0126501285000000015000
B0531003257422S11656661EA0126801287000000015000
B0531043257432S11656584EA0128301309000000015000
B0531083257375S11656546EA0129101307000000015000
B0531123257335S11656592EA0129701322000000015000
B0531163257362S11656635EA0131301338000000015000
B0531203257408S11656607EA0132701352000000015000
B0531243257404S11656529EA0133401358000000015000
B0531283257349S11656479EA0134301367000000015000
B0531323257283S11656481EA0136001386000000015000
B0531363257262S11656531EA0137301400000000015000
B0531403257304S11656548EA0138201405000000015000
B0531443257337S11656490EA0138501407000000015000
B0531483257304S11656414EA0139001420000000015000
B0531523257240S11656398EA0140901440000000015000
B0531563257205S11656444EA0142501453000000015000
B0532003257219S11656490EA0143601459000000000000
B0532043257267S11656488EA0143601456000000000000
B0532083257292S11656419EA0143901466000000000000
B0532123257258S11656345EA0144901474000000000000
B0532163257194S11656323EA0145801484000000000000
B0532203257168S11656371EA0146801492000000000000
B0532243257204S11656386EA0147401499000000000000
B0532283257231S11656324EA0147401497000000000000
B0532323257198S11656247EA0147801511000000000000
B0532363257136S11656229EA0149201524000000000000
B0532403257096S11656267EA0150301530000000000000
B0532443257103S11656316EA0150401527000000000000
B0532483257142S11656328EA0150101524000000000000
B0532523257181S11656282EA0149801521000000000000
B0532563257188S11656206EA0149901524000000000000
B0533003257153S11656129EA0150201531000000000000
B0533043257093S11656081EA0151101540000000000000
B0533083257033S11656089EA0152301550000000000000
B0533123257035S11656133EA0153801569000000000000
B0533163257074S11656116EA0154501568000000000000
B0533203257087S11656038EA0154501574000000000000
B0533243257046S11655967EA0155701587000000000000
B0533283256980S11655952EA0156501597000000000000
B0533323256938S11655993EA0157801611000000000000
B0533363256955S11656033EA0158601616000000000000
B0533403256997S11656002EA0159301624000000000000
B0533443256997S11655921EA0159701630000000000000
B0533483256945S11655866EA0160701638000000000000
B0533523256884S11655877EA0161301648000000000000
B0533563256855S11655921EA0162201652000000000000
B0534003256862S11655973EA0161601638000000000000
B0534043256875S11656032EA0159801620000000000000
B0534083256873S11656099EA0157901600000000000000
B0534123256858S11656172EA0156401588000000000000
B0534163256830S11656242EA0155601581000000000000
B0534203256795S11656308EA0154601568000000000000
B0534243256752S11656371EA0153701563000000000000
B0534283256706S11656431EA0153001555000000000000
B0534323256656S11656489EA0151901542000000000000
B0534363256606S11656548EA0150401528000000000000
B0534403256555S11656605EA0149601524000000000000
B0534443256509S11656656EA0149601522000000000000
B0534483256465S11656706EA0148301508000000000000
B0534523256421S11656756EA0147601502000000000000
B0534563256379S11656806EA0148101517000000000000
B0535003256355S11656857EA0149701528000000000000
B0535043256348S11656910EA0150001528000000000000
B0535083256351S11656968EA0149701522000000000000
B0535123256349S11657033EA0148201503000000000000
B0535163256333S11657107EA0146301482000000000000
B0535203256303S11657183EA0144801471000000000000
B0535243256268S11657255EA0143701456000000000000
B0535283256227S11657325EA0142301447000000000000
B0535323256186S11657391EA0141801443000000000000
B0535363256145S11657456EA0141501441000000000000
B0535403256100S11657521EA0140401426000000000000
B0535443256053S11657588EA0139501417000000000000
B0535483256005S11657655EA0138601411000000000000
B0535523255957S11657719EA0138001406000000000000
B0535563255907S11657783EA0137301397000000000000
B0536003255857S11657848EA0136101384000000000000
B0536043255807S11657917EA0135101379000000000000
B0536083255759S11657983EA0134901377000000000000
B0536123255712S11658049EA0134001367000000000000
B0536163255666S11658117EA0133701370000000000000
B0536203255638S11658187EA0135201389000000000000
B0536243255634S11658252EA0136801402000000000000
B0536283255637S11658314EA0137601406000000000000
B0536323255649S11658373EA0137501403000000000000
B0536363255662S11658433EA0137101397000000000000
B0536403255679S11658491EA0136601393000000000000
B0536443255692S11658551EA0135801382000000000000
B0536483255690S11658619EA0134101362000000000000
B0536523255675S11658691EA0132401348000000000000
B0536563255646S11658763EA0132101349000000000000
B0537003255616S11658832EA0132701353000000000000
B0537043255607S11658899EA0132301350000000000000
B0537083255610S11658967EA0131901345000000000000
B0537123255618S11659036EA0131301339000000000000
B0537163255616S11659107EA0130801333000000000000
B0537203255602S11659176EA0130601333000000000000
B0537243255576S11659241EA0129901321000000000000
B0537283255540S11659308EA0128601306000000000000
B0537323255497S11659371EA0127001289000000000000
B0537363255451S11659436EA0125401276000000000000
B0537403255410S11659504EA0124401265000000000000
B0537443255365S11659570EA0123201252000000000000
B0537483255324S11659639EA0122101243000000000000
B0537523255282S11659708EA0121301230000000000000
B0537563255238S11659776EA0120101218000000000000
B0538003255192S11659842EA0119001208000000000000
B0538043255143S11659906EA0118101197000000000000
B0538083255092S11659969EA0116901188000000000000
B0538123255043S11700033EA0116001179000000000000
B0538163254994S11700097EA0114901167000000000000
B0538203254947S11700162EA0113901159000000000000
B0538243254897S11700228EA0113401156000000000000
B0538283254849S11700293EA0113501162000000000000
B0538323254801S11700354EA0114501172000000000000
B0538363254765S11700418EA0115401182000000000000
B0538403254732S11700480EA0116301188000000000000
B0538443254709S11700540EA0117201195000000000000
B0538483254739S11700578EA0117901202000000000000
B0538523254791S11700528EA0118401204000000000000
B0538563254812S11700428EA0118501206000000000000
B0539003254782S11700331EA0119501221000000000000
B0539043254723S11700325EA0120401222000000000000
B0539083254749S11700355EA0120401223000000000000
B0539123254791S11700288EA0120701225000000000000
B0539163254760S11700195EA0121801241000000000000
B0539203254698S11700162EA0123101252000000000000
B0539243254652S11700181EA0123501255000000000000
B0539283254624S11700221EA0123401251000000000000
B0539323254601S11700271EA0122901246000000000000
B0539363254580S11700327EA0122801247000000000000
B0539403254559S11700388EA0123101257000000000000
B0539443254544S11700446EA0123501256000000000000
B0539483254533S11700509EA0122601245000000000000
B0539523254523S11700574EA0122001237000000000000
B0539563254511S11700640EA0120901228000000000000
B0540003254494S11700705EA0120401222000000000000
B0540043254474S11700770EA0119701212000000000000
B0540083254454S11700838EA0118401197000000000000
B0540123254431S11700907EA0117401189000000000000
B0540163254402S11700970EA0116401179000000000000
B0540203254368S11701029EA0115301168000000000000
B0540243254337S11701089EA0113901151000000000000
B0540283254312S11701148EA0112501140000000000000
B0540323254295S11701209EA0111901134000000000000
B0540363254286S11701269EA0111001118000000000000
B0540403254273S11701332EA0109301110000000000000
B0540443254243S11701390EA0108401107000000000000
B0540483254197S11701436EA0109001114000000000000
B0540523254142S11701469EA0109201111000000000000
B0540563254080S11701497EA0109001110000000000000
B0541003254012S11701520EA0109001109000000000000
B0541043253948S11701554EA0109701121000000000000
B0541083253963S11701598EA0112601152000000000000
B0541123254007S11701555EA0113901162000000000000
B0541163253983S11701475EA0115501182000000000000
B0541203253922S11701469EA0116901189000000000000
B0541243253920S11701524EA0118401211000000000000
B0541283253972S11701516EA0121101237000000000000
B0541323253990S11701438EA0123001254000000000000
B0541363253950S11701372EA0124301267000000000000
B0541403253889S11701382EA0125401280000000000000
B0541443253885S11701433EA0127701311000000000000
B0541483253933S11701423EA0130401332000000000000
B0541523253950S11701341EA0132001351000000000000
B0541563253907S11701280EA0134301372000000000000
B0542003253855S11701291EA0136001387000000000000
B0542043253856S11701343EA0137501405000000000000
B0542083253903S11701346EA0140601442000000000000
B0542123253935S11701287EA0143101457000000000000
B0542163253924S11701206EA0144201468000000000000
B0542203253868S11701163EA0145301479000000000000
B0542243253820S11701189EA0146801498000000000000
B0542283253826S11701237EA0148701517000000000000
B0542323253873S11701230EA0151401547000000000000
B0542363253889S11701152EA0152701559000000000000
B0542403253839S11701099EA0154701584000000000000
B0542443253795S11701122EA0156601595000000000000
B0542483253812S11701172EA0157401606000000000000
B0542523253865S11701152EA0159801636000000000000
B0542563253886S11701073EA0162001655000000000000
B0543003253851S11701000EA0164101676000000000000
B0543043253795S11700987EA0165901692000000000000
B0543083253764S11701024EA0166901699000000000000
B0543123253782S11701070EA0167701709000000000000
B0543163253831S11701060EA0170101733000000000000
B0543203253853S11700982EA0171101741000000000000
B0543243253811S11700916EA0173101765000000000000
B0543283253760S11700926EA0174501779000000000000
B0543323253759S11700975EA0175801790000000000000
B0543363253804S11700981EA0177301816000000000000
B0543403253837S11700914EA0179101826000000000000
B0543443253811S11700832EA0180201841000000000000
B0543483253753S11700797EA0182101865000000000000
B0543523253708S11700817EA0183601870000000000000
B0543563253701S11700868EA0184301882000000000000
B0544003253739S11700890EA0186201902000000000000
B0544043253783S11700844EA0187301911000000000000
B0544083253778S11700757EA0188001918000000000000
B0544123253723S11700704EA0189501936000000000000
B0544163253670S11700718EA0190401941000000000000
B0544203253664S11700771EA0191101950000000000000
B0544243253710S11700780EA0192901966000000000000
B0544283253744S11700712EA0193701975000000000000
B0544323253718S11700628EA0194401987000000000000
B0544363253657S11700596EA0195801997000000000000
B0544403253609S11700624EA0196502002000000000000
B0544443253612S11700676EA0197002007000000000000
B0544483253653S11700700EA0198102019000000000000
B0544523253704S11700665EA0198802024000000000000
B0544563253713S11700580EA0198802020000000000000
B0545003253653S11700526EA0198902029000000000000
B0545043253588S11700540EA0199802038000000000000
B0545083253534S11700583EA0200002035000000000000
B0545123253478S11700639EA0199602030000000000000
B0545163253421S11700702EA0198702017000000000000
B0545203253361S11700775EA0197402006000000000000
B0545243253298S11700852EA0196501997000000000000
B0545283253237S11700927EA0196001992000000000000
B0545323253176S11701001EA0195101983000000000000
B0545363253112S11701077EA0194501973000000000000
B0545403253049S11701154EA0193401961000000000000
B0545443252988S11701234EA0192201952000000000000
B0545483252924S11701311EA0191501946000000000000
B0545523252863S11701385EA0191401951000000000000
B0545563252811S11701450EA0192701966000000000000
B0546003252764S11701508EA0192801958000000000000
B0546043252716S11701570EA0191401941000000000000
B0546083252667S11701635EA0189101919000000000000
B0546123252615S11701697EA0188701919000000000000
B0546163252561S11701753EA0188801920000000000000
B0546203252511S11701809EA0188301913000000000000
B0546243252462S11701870EA0187101899000000000000
B0546283252405S11701935EA0185901888000000000000
B0546323252343S11702000EA0184901880000000000000
B0546363252279S11702064EA0184501877000000000000
B0546403252219S11702123EA0184201871000000000000
B0546443252162S11702182EA0183301863000000000000
B0546483252106S11702238EA0183101863000000000000
B0546523252052S11702294EA0182401854000000000000
B0546563251998S11702348EA0182601865000000000000
B0547003251950S11702398EA0184101880000000000000
B0547043251922S11702455EA0185301890000000000000
B0547083251907S11702515EA0186201898000000000000
B0547123251894S11702577EA0185901891000000000000
B0547163251879S11702647EA0186701908000000000000
B0547203251874S11702707EA0189201931000000000000
B0547243251910S11702734EA0190101934000000000000
B0547283251961S11702686EA0190501944000000000000
B0547323251966S11702606EA0192301960000000000000
B0547363251926S11702535EA0192501957000000000000
B0547403251858S11702517EA0192601964000000000000
B0547443251801S11702542EA0193201972000000000000
B0547483251764S11702591EA0194701987000000000000
B0547523251760S11702642EA0196001997000000000000
B0547563251801S11702655EA0197002010000000000000
B0548003251835S11702600EA0198302023000000000000
B0548043251820S11702521EA0199602037000000000000
B0548083251762S11702480EA0201202053000000000000
B0548123251706S11702495EA0202502069000000000000
B0548163251690S11702541EA0203602074000000000000
B0548203251718S11702568EA0204102075000000000000
B0548243251762S11702539EA0204302081000000000000
B0548283251777S11702464EA0205202091000000000000
B0548323251747S11702387EA0206502105000000000000
B0548363251684S11702378EA0207702117000000000000
B0548403251667S11702428EA0208902127000000000000
B0548443251699S11702450EA0209302128000000000000
B0548483251741S11702409EA0208902124000000000000
B0548523251747S11702326EA0209702141000000000000
B0548563251711S11702261EA0211502154000000000000
B0549003251653S11702236EA0210902140000000000000
B0549043251593S11702270EA0210402142000000000000
B0549083251538S11702316EA0210602143000000000000
B0549123251485S11702370EA0210602139000000000000
B0549163251429S11702430EA0209502123000000000000
B0549203251369S11702496EA0207902109000000000000
B0549243251308S11702564EA0206802100000000000000
B0549283251250S11702632EA0206802103000000000000
B0549323251196S11702693EA0207102106000000000000
B0549363251142S11702754EA0205702087000000000000
B0549403251077S11702819EA0204102064000000000000
B0549443251009S11702886EA0202002048000000000000
B0549483250939S11702953EA0201202042000000000000
B0549523250871S11703018EA0200602039000000000000
B0549563250804S11703080EA0200202035000000000000
B0550003250737S11703140EA0200102036000000000000
B0550043250674S11703197EA0199802032000000000000
B0550083250613S11703254EA0199502028000000000000
B0550123250549S11703313EA0198702018000000000000
B0550163250486S11703373EA0198302017000000000000
B0550203250421S11703431EA0197802010000000000000
B0550243250356S11703490EA0197302006000000000000
B0550283250293S11703547EA0197002002000000000000
B0550323250226S11703605EA0196001990000000000000
B0550363250161S11703664EA0195101981000000000000
B0550403250096S11703724EA0194301971000000000000
B0550443250035S11703789EA0193301957000000000000
B0550483249976S11703858EA0192001949000000000000
B0550523249917S11703926EA0191301944000000000000
B0550563249860S11703994EA0190501934000000000000
B0551003249801S11704064EA0189201918000000000000
B0551043249742S11704136EA0187901907000000000000
B0551083249680S11704203EA0187301904000000000000
B0551123249619S11704267EA0186701896000000000000
B0551163249557S11704331EA0185801882000000000000
B0551203249492S11704396EA0184701878000000000000
B0551243249428S11704457EA0184901882000000000000
B0551283249366S11704517EA0185201884000000000000
B0551323249306S11704575EA0185401888000000000000
B0551363249248S11704632EA0185901892000000000000
B0551403249188S11704690EA0185501884000000000000
B0551443249131S11704753EA0184601874000000000000
B0551483249073S11704821EA0183601866000000000000
B0551523249015S11704887EA0183001852000000000000
B0551563248951S11704955EA0181201835000000000000
B0552003248889S11705022EA0180101830000000000000
B0552043248826S11705089EA0179601823000000000000
B0552083248764S11705155EA0178501812000000000000
B0552123248699S11705221EA0177901808000000000000
B0552163248634S11705286EA0176901795000000000000
B0552203248566S11705351EA0176101790000000000000
B0552243248497S11705415EA0175701785000000000000
B0552283248427S11705479EA0174901774000000000000
B0552323248357S11705542EA0173901766000000000000
B0552363248291S11705603EA0173401763000000000000
B0552403248227S11705661EA0173001755000000000000
B0552443248167S11705720EA0172201745000000000000
B0552483248111S11705783EA0171401742000000000000
B0552523248054S11705841EA0171101735000000000000
B0552563247993S11705897EA0170501731000000000000
B0553003247931S11705953EA0170001724000000000000
B0553043247864S11706010EA0168901712000000000000
B0553083247797S11706070EA0168001705000000000000
B0553123247730S11706131EA0167801711000000000000
B0553163247668S11706187EA0169101727000000000000
B0553203247613S11706244EA0170401735000000000000
B0553243247577S11706311EA0171201742000000000000
B0553283247556S11706382EA0171201740000000000000
B0553323247543S11706454EA0171801752000000000000
B0553363247543S11706525EA0173101770000000000000
B0553403247558S11706590EA0176201797000000000000
B0553443247607S11706594EA0178401826000000000000
B0553483247625S11706526EA0180001832000000000000
B0553523247580S11706467EA0180801849000000000000
B0553563247524S11706477EA0182901869000000000000
B0554003247522S11706526EA0184701888000000000000
B0554043247568S11706529EA0186501899000000000000
B0554083247602S11706465EA0187201905000000000000
B0554123247577S11706383EA0188501927000000000000
B0554163247519S11706356EA0190501945000000000000
B0554203247481S11706395EA0192601966000000000000
B0554243247508S11706437EA0194301981000000000000
B0554283247559S11706407EA0196402004000000000000
B0554323247563S11706329EA0198002018000000000000
B0554363247509S11706279EA0199402033000000000000
B0554403247460S11706309EA0200802047000000000000
B0554443247477S11706363EA0202702067000000000000
B0554483247532S11706355EA0204502090000000000000
B0554523247563S11706290EA0206202101000000000000
B0554563247538S11706214EA0207602119000000000000
B0555003247480S11706196EA0209002129000000000000
B0555043247454S11706244EA0210102141000000000000
B0555083247491S11706282EA0211402156000000000000
B0555123247543S11706253EA0212902171000000000000
B0555163247558S11706179EA0214002178000000000000
B0555203247525S11706112EA0215002189000000000000
B0555243247467S11706088EA0215802195000000000000
B0555283247425S11706123EA0217202215000000000000
B0555323247438S11706172EA0219302235000000000000
B0555363247486S11706170EA0220002239000000000000
B0555403247521S11706110EA0220202238000000000000
B0555443247503S11706032EA0220002236000000000000
B0555483247439S11706008EA0220202240000000000000
B0555523247382S11706043EA0220502245000000000000
B0555563247329S11706094EA0220802240000000000000
B0556003247273S11706157EA0219202219000000000000
B0556043247218S11706235EA0217502205000000000000
B0556083247161S11706317EA0216202191000000000000
B0556123247100S11706403EA0215002177000000000000
B0556163247038S11706489EA0213802165000000000000
B0556203246976S11706576EA0213202165000000000000
B0556243246921S11706662EA0213402168000000000000
B0556283246878S11706750EA0213802169000000000000
B0556323246833S11706837EA0212902160000000000000
B0556363246787S11706926EA0211102137000000000000
B0556403246733S11707017EA0209902130000000000000
B0556443246679S11707101EA0209702130000000000000
B0556483246624S11707182EA0209502124000000000000
B0556523246566S11707260EA0208702119000000000000
B0556563246508S11707338EA0208502119000000000000
B0557003246453S11707413EA0208302115000000000000
B0557043246394S11707488EA0207602105000000000000
B0557083246333S11707563EA0206902099000000000000
B0557123246273S11707638EA0206502096000000000000
B0557163246216S11707711EA0206002092000000000000
B0557203246161S11707784EA0205602085000000000000
B0557243246107S11707854EA0204802077000000000000
B0557283246053S11707920EA0204602080000000000000
B0557323246000S11707982EA0204602077000000000000
B0557363245947S11708044EA0204602081000000000000
B0557403245892S11708103EA0205602089000000000000
B0557443245838S11708162EA0205402086000000000000
B0557483245780S11708224EA0205202083000000000000
B0557523245725S11708289EA0205102083000000000000
B0557563245669S11708356EA0204902075000000000000
B0558003245611S11708427EA0203402059000000000000
B0558043245550S11708499EA0202502057000000000000
B0558083245491S11708564EA0203602076000000000000
B0558123245437S11708621EA0205402088000000000000
B0558163245389S11708683EA0204802073000000000000
B0558203245335S11708752EA0203002055000000000000
B0558243245280S11708826EA0201902044000000000000
B0558283245220S11708899EA0200902038000000000000
B0558323245164S11708972EA0200802038000000000000
B0558363245106S11709042EA0200902040000000000000
B0558403245047S11709104EA0201402046000000000000
B0558443244990S11709162EA0201802050000000000000
B0558483244930S11709214EA0201802045000000000000
B0558523244868S11709264EA0199702018000000000000
B0558563244800S11709328EA0196701988000000000000
B0559003244729S11709394EA0195101977000000000000
B0559043244659S11709451EA0195401986000000000000
B0559083244594S11709497EA0196501997000000000000
B0559123244532S11709531EA0196701995000000000000
B0559163244465S11709562EA0195501977000000000000
B0559203244397S11709601EA0193901964000000000000
B0559243244330S11709646EA0193301957000000000000
B0559283244259S11709689EA0192601952000000000000
B0559323244187S11709728EA0192401949000000000000
B0559363244114S11709766EA0191901942000000000000
B0559403244041S11709804EA0191201938000000000000
B0559443243972S11709843EA0191001939000000000000
B0559483243908S11709888EA0191001937000000000000
B0559523243846S11709938EA0190701936000000000000
B0559563243791S11709987EA0191201944000000000000
B0600003243737S11710033EA0191001930000000000000
B0600043243680S11710083EA0189601918000000000000
B0600083243622S11710142EA0188601908000000000000
B0600123243570S11710203EA0188501911000000000000
B0600163243539S11710270EA0188401908000000000000
B0600203243499S11710338EA0187401895000000000000
B0600243243451S11710403EA0186801898000000000000
B0600283243404S11710467EA0187501904000000000000
B0600323243360S11710532EA0187901909000000000000
B0600363243317S11710595EA0188201910000000000000
B0600403243270S11710663EA0187301886000000000000
B0600443243222S11710742EA0184901870000000000000
B0600483243170S11710823EA0184301867000000000000
B0600523243119S11710906EA0183301852000000000000
B0600563243065S11710991EA0181901840000000000000
B0601003243009S11711071EA0181501834000000000000
B0601043242956S11711154EA0180101819000000000000
B0601083242909S11711242EA0178801807000000000000
B0601123242858S11711330EA0177301786000000000000
B0601163242790S11711411EA0175501773000000000000
B0601203242718S11711490EA0174501766000000000000
B0601243242655S11711572EA0174701767000000000000
B0601283242598S11711658EA0174501763000000000000
B0601323242542S11711742EA0173501748000000000000
B0601363242485S11711829EA0172101738000000000000
B0601403242423S11711910EA0171301730000000000000
B0601443242354S11711984EA0170401720000000000000
B0601483242278S11712054EA0169601713000000000000
B0601523242199S11712120EA0168801705000000000000
B0601563242121S11712187EA0167801695000000000000
B0602003242043S11712249EA0167301694000000000000
B0602043241968S11712309EA0167001691000000000000
B0602083241892S11712367EA0166901689000000000000
B0602123241817S11712428EA0166201679000000000000
B0602163241745S11712499EA0165401675000000000000
B0602203241682S11712577EA0164601660000000000000
B0602243241617S11712657EA0163201646000000000000
B0602283241549S11712738EA0161701630000000000000
B0602323241481S11712818EA0159901611000000000000
B0602363241410S11712899EA0158301597000000000000
B0602403241344S11712981EA0157301587000000000000
B0602443241276S11713063EA0156401578000000000000
B0602483241202S11713137EA0155701574000000000000
B0602523241138S11713210EA0155701573000000000000
B0602563241085S11713289EA0155001571000000000000
B0603003241033S11713359EA0155801578000000000000
B0603043240981S11713426EA0155701570000000000000
B0603083240925S11713491EA0155201570000000000000
B0603123240877S11713562EA0155101567000000000000
B0603163240843S11713636EA0154901565000000000000
B0603203240812S11713710EA0154501562000000000000
B0603243240781S11713783EA0153901557000000000000
B0603283240739S11713856EA0153601556000000000000
B0603323240700S11713929EA0154801576000000000000
B0603363240691S11713995EA0157501600000000000000
B0603403240742S11713983EA0159001613000000000000
B0603443240739S11713900EA0159901625000000000000
B0603483240682S11713842EA0161701648000000000000
B0603523240614S11713840EA0163501659000000000000
B0603563240584S11713887EA0163301652000000000000
B0604003240609S11713930EA0163101652000000000000
B0604043240665S11713925EA0164201668000000000000
B0604083240710S11713870EA0165601684000000000000
B0604123240696S11713793EA0167701705000000000000
B0604163240632S11713799EA0169101717000000000000
B0604203240636S11713852EA0170401730000000000000
B0604243240684S11713840EA0171301747000000000000
B0604283240699S11713769EA0172801760000000000000
B0604323240653S11713706EA0174301776000000000000
B0604363240588S11713695EA0176001795000000000000
B0604403240541S11713734EA0176901794000000000000
B0604443240549S11713788EA0177101801000000000000
B0604483240591S11713817EA0178701820000000000000
B0604523240634S11713775EA0179701825000000000000
B0604563240625S11713700EA0180501835000000000000
B0605003240566S11713682EA0181801849000000000000
B0605043240548S11713732EA0182001846000000000000
B0605083240588S11713762EA0182701860000000000000
B0605123240630S11713718EA0183301857000000000000
B0605163240612S11713641EA0183801871000000000000
B0605203240552S11713604EA0184701879000000000000
B0605243240491S11713621EA0185701895000000000000
B0605283240448S11713667EA0187101900000000000000
B0605323240415S11713732EA0186201884000000000000
B0605363240385S11713810EA0184601864000000000000
B0605403240348S11713890EA0182001834000000000000
B0605443240297S11713968EA0180401828000000000000
B0605483240246S11714043EA0181001839000000000000
B0605523240200S11714117EA0182501854000000000000
B0605563240170S11714193EA0184301877000000000000
B0606003240164S11714263EA0187201905000000000000
B0606043240207S11714274EA0189701931000000000000
B0606083240235S11714212EA0190701941000000000000
B0606123240205S11714131EA0192301963000000000000
B0606163240135S11714113EA0194801986000000000000
B0606203240099S11714163EA0196601999000000000000
B0606243240123S11714209EA0197702011000000000000
B0606283240171S11714182EA0199102027000000000000
B0606323240167S11714099EA0201302055000000000000
B0606363240109S11714046EA0203302069000000000000
B0606403240047S11714060EA0204902084000000000000
B0606443240028S11714115EA0205802089000000000000
B0606483240060S11714152EA0206402094000000000000
B0606523240109S11714109EA0208602125000000000000
B0606563240109S11714025EA0210402145000000000000
B0607003240049S11713968EA0212502166000000000000
B0607043239990S11713991EA0214102177000000000000
B0607083239992S11714050EA0214702181000000000000
B0607123240040S11714042EA0216402209000000000000
B0607163240050S11713961EA0218502223000000000000
B0607203239994S11713899EA0220402247000000000000
B0607243239933S11713909EA0222102259000000000000
B0607283239921S11713966EA0222402256000000000000
B0607323239964S11713977EA0223802279000000000000
B0607363239990S11713913EA0225602294000000000000
B0607403239955S11713830EA0226502303000000000000
B0607443239888S11713823EA0228302321000000000000
B0607483239875S11713875EA0229002323000000000000
B0607523239920S11713886EA0228902320000000000000
B0607563239945S11713808EA0229702338000000000000
B0608003239904S11713727EA0231302352000000000000
B0608043239837S11713713EA0232202360000000000000
B0608083239799S11713762EA0232402363000000000000
B0608123239817S11713810EA0232802364000000000000
B0608163239867S11713790EA0232902370000000000000
B0608203239899S11713718EA0233902374000000000000
B0608243239884S11713627EA0234302377000000000000
B0608283239811S11713593EA0234702390000000000000
B0608323239746S11713621EA0235402386000000000000
B0608363239694S11713679EA0233902366000000000000
B0608403239639S11713749EA0232402352000000000000
B0608443239581S11713827EA0230702333000000000000
B0608483239521S11713910EA0229402319000000000000
B0608523239457S11713995EA0228502308000000000000
B0608563239395S11714082EA0227602303000000000000
