ACAM4N6
HFDTE050223
HFFXA050
HFPLTPILOT:JOHN WELSH              
HFGTYGLIDERTYPE:HORNET      
HFGIDGLIDERID:VH-GMY      
HFDTM100GPSDATUM:
HFRFWFIRMWAREVERSION:F2.6
HFRHWHARDWAREVERSION:300 Series Version 2
HFFTYFRTYPE:CAMBRIDGE AERO INSTRUMENTS, 302+
HFGPS:GARMIN,LVS-25,12,18000
HFPRSPRESSALTSENSOR:INTERSEMA, MS5534-AP, 20000
I033638FXA3941ENL4247REX
LCAMSBVER:5FWVER:F26300
C050223032104050223000102
C0000000N00000000WTAKEOFF     
C3207549S11656849EBEVERLEY AF 
C3123133S11829099EBurracoppin 
C3042666S11646399EKondut      
C3207549S11656849EBEVERLEY AF 
C0000000N00000000WLANDING     
B0332043207731S11657096EA0026700204000000000000
B0332063207731S11657096EA0026700204000000000000
B0332083207731S11657096EA0026800204000000000000
B0332103207731S11657096EA0026800204000000000000
B0332123207731S11657096EA0026800204000000000000
B0332143207731S11657096EA0026800204000000000000
B0332163207731S11657096EA0026700204000000000000
B0332183207731S11657096EA0026800204000000000000
B0332203207731S11657096EA0026800204000000000000
B0332223207732S11657096EA0026900204000000000000
B0332243207731S11657096EA0026800204000000000000
B0332263207731S11657095EA0026700204000000000000
B0332283207729S11657094EA0026800204000000000000
B0332303207728S11657094EA0026800204000000000000
B0332323207726S11657092EA0026700204000000000000
B0332353207718S11657088EA0026800204000000000000
B0332393207693S11657078EA0026800204000000000000
B0332433207655S11657057EA0027000205000000000000
B0332473207606S11657029EA0027200206000000000000
B0332513207547S11656995EA0027300208000000000000
B0332553207484S11656957EA0027900218000000000000
B0332593207419S11656919EA0028900226000000000000
B0333033207356S11656884EA0030000247000000000000
B0333073207297S11656854EA0031500267000000000000
B0333113207242S11656822EA0033500288000000000000
B0333153207187S11656789EA0035000299000000000000
B0333193207134S11656753EA0035900305000000000000
B0333233207082S11656714EA0036600318000000000000
B0333273207029S11656676EA0037600332000000000000
B0333313206990S11656617EA0039400353000000000000
B0333353206970S11656539EA0041500370000000000000
B0333393206970S11656453EA0043000391000000000000
B0333433206987S11656370EA0045700419000000000000
B0333473207017S11656285EA0047200429000000000000
B0333513207066S11656208EA0048000437000000000000
B0333553207135S11656150EA0048900446000000000000
B0333593207216S11656110EA0049500454000000000000
B0334033207304S11656097EA0050900471000000000000
B0334073207398S11656103EA0052000478000000000000
B0334113207492S11656136EA0052300477000000000000
B0334153207571S11656195EA0052800486000000000000
B0334193207628S11656273EA0054000502000000000000
B0334233207670S11656363EA0055200515000000000000
B0334273207692S11656461EA0056500528000000000000
B0334313207696S11656563EA0057900544000000000000
B0334353207690S11656667EA0059200561000000000000
B0334393207675S11656771EA0060600577000000000000
B0334433207644S11656867EA0062500597000000000000
B0334473207606S11656961EA0064300616000000000000
B0334513207562S11657047EA0066000632000000000000
B0334553207508S11657120EA0067300651000000000000
B0334593207441S11657170EA0068700658000000000000
B0335033207372S11657213EA0070200682000000000000
B0335073207308S11657260EA0072700709000000000000
B0335113207243S11657300EA0075300739000000000000
B0335153207178S11657333EA0078100769000000000000
B0335193207112S11657356EA0080700794000000000000
B0335233207044S11657377EA0082900814000000000000
B0335273206975S11657399EA0084200827000000000000
B0335313206905S11657428EA0086100851000000000000
B0335353206840S11657464EA0088400874000000000000
B0335393206774S11657504EA0090500896000000000000
B0335433206722S11657556EA0092800923000000000000
B0335473206722S11657633EA0095000943000000000000
B0335513206771S11657696EA0095500945000000000000
B0335553206844S11657716EA0095600946000000000000
B0335593206917S11657703EA0095600945000000000000
B0336033206986S11657673EA0095700944000000000000
B0336073207053S11657638EA0095300938000000000000
B0336113207124S11657606EA0094900937000000000000
B0336153207199S11657580EA0094700933000000000000
B0336193207276S11657559EA0094600933000000000000
B0336233207355S11657541EA0095000938000000000000
B0336273207425S11657573EA0096100963000000000000
B0336313207425S11657640EA0098900988000000000000
B0336353207381S11657664EA0100200995000000000000
B0336393207338S11657640EA0101001002000000000000
B0336433207315S11657584EA0101101000000000000000
B0336473207333S11657516EA0101301007000000000000
B0336513207391S11657480EA0102601023000000000000
B0336553207458S11657488EA0104401043000000000000
B0336593207502S11657537EA0106601068000000015000
B0337033207498S11657595EA0108301079000000015000
B0337073207459S11657620EA0108801088000000000000
B0337113207425S11657586EA0110001104000000000000
B0337153207438S11657532EA0111401115000000000000
B0337193207494S11657504EA0112201125000000000000
B0337233207550S11657541EA0113901151000000000000
B0337273207550S11657602EA0116001163000000015000
B0337313207505S11657621EA0116201164000000015000
B0337353207475S11657585EA0117901187000000000000
B0337393207495S11657532EA0119201191000000000000
B0337433207562S11657514EA0119501199000000000000
B0337473207625S11657553EA0120901222000000000000
B0337513207645S11657621EA0123201247000000000000
B0337553207632S11657685EA0125101260000000015000
B0337593207589S11657720EA0126001266000000015000
B0338033207538S11657714EA0127101276000000015000
B0338073207502S11657671EA0127501284000000000000
B0338113207485S11657614EA0127801283000000000000
B0338153207482S11657543EA0126801268000000000000
B0338193207503S11657465EA0126301268000000000000
B0338233207553S11657400EA0126401273000000000000
B0338273207623S11657365EA0127101279000000000000
B0338313207702S11657364EA0127901285000000000000
B0338353207780S11657382EA0128601295000000000000
B0338393207827S11657449EA0130001314000000000000
B0338433207814S11657512EA0131401324000000000000
B0338473207765S11657528EA0131801327000000000000
B0338513207728S11657480EA0132801339000000000000
B0338553207748S11657408EA0133801356000000000000
B0338593207806S11657365EA0135301367000000000000
B0339033207879S11657376EA0136301380000000015000
B0339073207930S11657428EA0137401391000000015000
B0339113207944S11657501EA0137701390000000015000
B0339153207923S11657568EA0137301383000000000000
B0339193207874S11657612EA0137301388000000000000
B0339233207817S11657615EA0138401404000000015000
B0339273207781S11657564EA0140401425000000015000
B0339313207791S11657498EA0141701440000000000000
B0339353207839S11657447EA0142701442000000000000
B0339393207914S11657436EA0143101456000000000000
B0339433207979S11657475EA0144401466000000000000
B0339473208001S11657545EA0144901469000000000000
B0339513207975S11657601EA0145201473000000015000
B0339553207919S11657624EA0145401473000000015000
B0339593207861S11657653EA0146201486000000000000
B0340033207846S11657728EA0148101505000000000000
B0340073207892S11657789EA0148701505000000000000
B0340113207966S11657797EA0148601506000000000000
B0340153208030S11657759EA0149101517000000000000
B0340193208054S11657696EA0150701538000000000000
B0340233208027S11657642EA0152001547000000000000
B0340273207975S11657645EA0153101563000000000000
B0340313207960S11657710EA0154901582000000000000
B0340353207996S11657772EA0156101590000000000000
B0340393208061S11657788EA0157001602000000000000
B0340433208110S11657755EA0158301617000000000000
B0340473208127S11657698EA0159001621000000000000
B0340513208127S11657632EA0159101617000000000000
B0340553208121S11657554EA0158301611000000000000
B0340593208114S11657469EA0158601614000000000000
B0341033208106S11657382EA0158901621000000000000
B0341073208096S11657295EA0159501622000000000000
B0341113208082S11657209EA0159301621000000000000
B0341153208060S11657125EA0159601626000000000000
B0341193208031S11657044EA0159801625000000000000
B0341233207992S11656970EA0159201613000000000000
B0341273207945S11656904EA0158201607000000000000
B0341313207891S11656858EA0157901603000000000000
B0341353207831S11656828EA0157001592000000000000
B0341393207767S11656809EA0155801581000000000000
B0341433207702S11656812EA0155001571000000000000
B0341473207638S11656835EA0154001560000000000000
B0341513207577S11656875EA0152901542000000000000
B0341553207524S11656936EA0151101526000000000000
B0341593207476S11657007EA0149601513000000000000
B0342033207429S11657075EA0149201515000000000000
B0342073207385S11657146EA0149301515000000000000
B0342113207343S11657217EA0148801506000000000000
B0342153207299S11657293EA0147601495000000000000
B0342193207256S11657371EA0146701485000000000000
B0342233207211S11657451EA0145901473000000000000
B0342273207163S11657532EA0144701467000000000000
B0342313207109S11657608EA0144601464000000000000
B0342353207056S11657684EA0144601465000000000000
B0342393207004S11657763EA0144101457000000000000
B0342433206951S11657845EA0142701439000000000000
B0342473206896S11657930EA0140601417000000000000
B0342513206840S11658017EA0139501413000000000000
B0342553206786S11658099EA0139501409000000000000
B0342593206730S11658174EA0139101408000000000000
B0343033206662S11658219EA0139601425000000000000
B0343073206596S11658232EA0141801450000000000000
B0343113206536S11658230EA0144301471000000000000
B0343153206491S11658262EA0145601479000000000000
B0343193206509S11658335EA0146301485000000000000
B0343233206580S11658360EA0146901493000000000000
B0343273206641S11658316EA0147601500000000000000
B0343313206662S11658244EA0148201508000000000000
B0343353206648S11658178EA0148901513000000000000
B0343393206606S11658152EA0149901525000000000000
B0343433206579S11658199EA0150901532000000000000
B0343473206609S11658266EA0151101535000000000000
B0343513206682S11658287EA0151301534000000000000
B0343553206751S11658242EA0151001531000000000000
B0343593206771S11658160EA0151201538000000000000
B0344033206749S11658091EA0151801544000000000000
B0344073206701S11658053EA0151901544000000000000
B0344113206640S11658034EA0151801541000000000000
B0344153206572S11658031EA0151201530000000000000
B0344193206504S11658074EA0150401529000000000000
B0344233206436S11658121EA0152001558000000000000
B0344273206379S11658091EA0154901590000000000000
B0344313206398S11658028EA0158301618000000000000
B0344353206465S11658032EA0159601624000000000000
B0344393206487S11658108EA0161101647000000000000
B0344433206442S11658149EA0162801661000000000000
B0344473206401S11658104EA0163401665000000015000
B0344513206427S11658034EA0165101689000000000000
B0344553206492S11658023EA0167501713000000000000
B0344593206535S11658074EA0169301739000000000000
B0345033206524S11658138EA0171301753000000000000
B0345073206475S11658157EA0172301761000000000000
B0345113206433S11658115EA0173101770000000000000
B0345153206452S11658049EA0174201780000000000000
B0345193206519S11658039EA0175301796000000000000
B0345233206561S11658092EA0177301819000000000000
B0345273206549S11658153EA0179101836000000000000
B0345313206502S11658177EA0180001840000000000000
B0345353206459S11658138EA0180501847000000000000
B0345393206468S11658071EA0181401861000000000000
B0345433206527S11658047EA0182201863000000000000
B0345473206587S11658080EA0183001883000000000000
B0345513206602S11658144EA0184801897000000000000
B0345553206563S11658186EA0185701901000000000000
B0345593206513S11658158EA0185901905000000015000
B0346033206507S11658089EA0186501913000000000000
B0346073206540S11658027EA0186401904000000000000
B0346113206608S11658002EA0186201907000000000000
B0346153206682S11658001EA0186601911000000000000
B0346193206754S11658028EA0187701925000000000000
B0346233206787S11658096EA0189301945000000000000
B0346273206756S11658153EA0190701957000000000000
B0346313206701S11658141EA0191801969000000000000
B0346353206686S11658076EA0192701976000000000000
B0346393206731S11658019EA0193701987000000000000
B0346433206799S11658015EA0194802000000000000000
B0346473206855S11658058EA0196502020000000015000
B0346513206879S11658128EA0197702028000000000000
B0346553206853S11658193EA0198402036000000000000
B0346593206800S11658217EA0199502049000000015000
B0347033206754S11658182EA0200502058000000015000
B0347073206764S11658114EA0201102061000000015000
B0347113206818S11658069EA0201402068000000015000
B0347153206888S11658065EA0202502086000000015000
B0347193206948S11658101EA0204602102000000015000
B0347233206969S11658170EA0205702110000000015000
B0347273206939S11658230EA0206102115000000015000
B0347313206884S11658247EA0206602123000000015000
B0347353206845S11658203EA0207402131000000015000
B0347393206857S11658136EA0207702134000000015000
B0347433206913S11658105EA0208202138000000000000
B0347473206982S11658122EA0208702145000000000000
B0347513207047S11658160EA0209502156000000000000
B0347553207072S11658235EA0210202158000000015000
B0347593207044S11658307EA0210202162000000015000
B0348033206995S11658356EA0211002170000000000000
B0348073206931S11658360EA0211802178000000000000
B0348113206868S11658333EA0212302182000000000000
B0348153206808S11658297EA0212402180000000000000
B0348193206741S11658283EA0212102177000000000000
B0348233206675S11658313EA0211802165000000000000
B0348273206615S11658375EA0210102151000000000000
B0348313206563S11658451EA0209102143000000000000
B0348353206514S11658531EA0208502139000000000000
B0348393206467S11658613EA0207602126000000000000
B0348433206418S11658698EA0206102110000000000000
B0348473206367S11658781EA0204902098000000000000
B0348513206315S11658862EA0204102088000000000000
B0348553206263S11658940EA0203302084000000000000
B0348593206212S11659014EA0202702078000000000000
B0349033206163S11659085EA0201902067000000000000
B0349073206116S11659157EA0200702056000000000000
B0349113206069S11659224EA0199702044000000000000
B0349153206024S11659292EA0198702033000000000000
B0349193205976S11659361EA0197002013000000000000
B0349233205924S11659430EA0195402000000000000000
B0349273205870S11659501EA0194201979000000000000
B0349313205817S11659577EA0192201959000000000000
B0349353205764S11659651EA0190701946000000000000
B0349393205713S11659730EA0189401936000000000000
B0349433205665S11659813EA0188501925000000000000
B0349473205618S11659898EA0187801922000000000000
B0349513205571S11659981EA0187401915000000000000
B0349553205521S11700064EA0186001902000000000000
B0349593205473S11700149EA0185101893000000000000
B0350033205423S11700234EA0184401881000000000000
B0350073205374S11700324EA0182901865000000000000
B0350113205323S11700414EA0181501852000000000000
B0350153205275S11700506EA0180801847000000000000
B0350193205227S11700595EA0180501846000000000000
B0350233205179S11700680EA0180601849000000000000
B0350273205133S11700762EA0181301856000000000000
B0350313205087S11700842EA0180801847000000000000
B0350353205038S11700921EA0180101836000000000000
B0350393204988S11700999EA0179101826000000000000
B0350433204936S11701078EA0178001812000000000000
B0350473204882S11701160EA0176401797000000000000
B0350513204827S11701242EA0175501791000000000000
B0350553204773S11701325EA0174501782000000000000
B0350593204719S11701406EA0174101779000000000000
B0351033204664S11701489EA0173701774000000000000
B0351073204611S11701570EA0173801779000000000000
B0351113204547S11701625EA0174801794000000000000
B0351153204485S11701655EA0175901800000000000000
B0351193204424S11701670EA0176001799000000000000
B0351233204362S11701688EA0175001777000000000000
B0351273204300S11701741EA0172301749000000000000
B0351313204244S11701817EA0170401733000000000000
B0351353204188S11701898EA0168901721000000000000
B0351393204136S11701983EA0168301717000000000000
B0351433204088S11702067EA0167801706000000000000
B0351473204039S11702155EA0166601695000000000000
B0351513203987S11702244EA0165601685000000000000
B0351553203935S11702330EA0165901695000000000000
B0351593203879S11702402EA0166601695000000000000
B0352033203828S11702480EA0166101685000000000000
B0352073203780S11702564EA0164401665000000000000
B0352113203735S11702650EA0164001669000000000000
B0352153203690S11702730EA0164401673000000000000
B0352193203647S11702812EA0163401655000000000000
B0352233203598S11702894EA0162001643000000000000
B0352273203542S11702974EA0161001635000000000000
B0352313203488S11703052EA0159801620000000000000
B0352353203429S11703131EA0158801608000000000000
B0352393203371S11703211EA0157101587000000000000
B0352433203315S11703296EA0155501578000000000000
B0352473203261S11703379EA0154801574000000000000
B0352513203208S11703462EA0154301568000000000000
B0352553203157S11703547EA0153701558000000000000
B0352593203108S11703633EA0151801534000000000000
B0353033203056S11703722EA0150001519000000000000
B0353073203004S11703809EA0149001507000000000000
B0353113202949S11703893EA0148101505000000000000
B0353153202895S11703959EA0149201521000000000000
B0353193202835S11704004EA0150201526000000000000
B0353233202778S11704046EA0149701518000000000000
B0353273202721S11704079EA0149201516000000000000
B0353313202663S11704094EA0149001506000000000000
B0353353202610S11704136EA0147401483000000000000
B0353393202567S11704202EA0145501473000000000000
B0353433202528S11704275EA0145601482000000000000
B0353473202492S11704349EA0146301489000000000000
B0353513202444S11704402EA0147101501000000000000
B0353553202388S11704413EA0148501517000000000000
B0353593202336S11704406EA0149601525000000000000
B0354033202284S11704396EA0149801523000000000000
B0354073202229S11704379EA0149401517000000000000
B0354113202169S11704365EA0149001514000000000000
B0354153202103S11704362EA0148801513000000000000
B0354193202035S11704361EA0149201523000000000000
B0354233201972S11704358EA0149901523000000000000
B0354273201907S11704371EA0149101513000000000000
B0354313201842S11704398EA0148501508000000000000
B0354353201778S11704418EA0148001501000000000000
B0354393201714S11704440EA0147001485000000000000
B0354433201660S11704501EA0144801460000000000000
B0354473201616S11704583EA0142801449000000000000
B0354513201571S11704667EA0142201442000000000000
B0354553201530S11704752EA0141401432000000000000
B0354593201489S11704839EA0139801417000000000000
B0355033201449S11704927EA0137901397000000000000
B0355073201408S11705016EA0136901389000000000000
B0355113201366S11705102EA0136501386000000000000
B0355153201326S11705185EA0135901375000000000000
B0355193201289S11705271EA0134601362000000000000
B0355233201253S11705358EA0133801356000000000000
B0355273201240S11705451EA0134801372000000000000
B0355313201279S11705538EA0136201383000000000000
B0355353201350S11705598EA0136401380000000000000
B0355393201430S11705641EA0136201381000000000000
B0355433201514S11705658EA0136101379000000000000
B0355473201600S11705661EA0135701375000000000000
B0355513201687S11705684EA0135901381000000000000
B0355553201740S11705753EA0136401385000000000000
B0355593201736S11705832EA0136701388000000015000
B0356033201692S11705880EA0136301376000000015000
B0356073201631S11705902EA0134901366000000015000
B0356113201565S11705906EA0134101357000000000000
B0356153201497S11705918EA0133501352000000000000
B0356193201430S11705945EA0134001360000000000000
B0356233201365S11705971EA0136001379000000000000
B0356273201363S11706048EA0139201417000000000000
B0356313201427S11706086EA0141101437000000000000
B0356353201488S11706053EA0142401450000000000000
B0356393201504S11705991EA0143401453000000000000
B0356433201467S11705953EA0143301454000000015000
B0356473201423S11705974EA0144201467000000015000
B0356513201432S11706043EA0145901487000000015000
B0356553201497S11706064EA0147601503000000015000
B0356593201538S11706004EA0147901502000000015000
B0357033201504S11705957EA0149001523000000015000
B0357073201474S11706001EA0150901541000000015000
B0357113201521S11706060EA0152401561000000015000
B0357153201588S11706036EA0154201577000000015000
B0357193201610S11705967EA0155001580000000015000
B0357233201571S11705925EA0154801578000000015000
B0357273201530S11705967EA0155701594000000015000
B0357313201538S11706040EA0157701619000000015000
B0357353201605S11706060EA0159401638000000015000
B0357393201636S11706001EA0161401654000000015000
B0357433201600S11705961EA0162801662000000015000
B0357473201556S11705993EA0163501676000000015000
B0357513201584S11706060EA0165701701000000015000
B0357553201658S11706051EA0167401716000000015000
B0357593201678S11705984EA0169501741000000015000
B0358033201635S11705953EA0170901748000000015000
B0358073201608S11706008EA0172101771000000015000
B0358113201661S11706056EA0174201788000000015000
B0358153201718S11706012EA0175701807000000015000
B0358193201697S11705954EA0177701820000000015000
B0358233201647S11705975EA0178501834000000015000
B0358273201653S11706051EA0180701860000000015000
B0358313201720S11706087EA0182601875000000015000
B0358353201783S11706047EA0183901892000000015000
B0358393201785S11705978EA0185901917000000015000
B0358433201738S11705953EA0187401925000000015000
B0358473201712S11706013EA0188601943000000015000
B0358513201760S11706069EA0191001969000000015000
B0358553201827S11706047EA0192301978000000015000
B0358593201831S11705975EA0194002002000000015000
B0359033201781S11705965EA0195502014000000015000
B0359073201768S11706032EA0197302038000000015000
B0359113201822S11706078EA0199302063000000015000
B0359153201889S11706053EA0200902070000000015000
B0359193201898S11705982EA0201802090000000015000
B0359233201856S11705956EA0203702105000000015000
B0359273201818S11705999EA0204502111000000015000
B0359313201835S11706073EA0205702131000000015000
B0359353201903S11706103EA0207802153000000015000
B0359393201964S11706064EA0208802155000000015000
B0359433201972S11705996EA0210002173000000015000
B0359473201929S11705990EA0211402183000000015000
B0359513201916S11706052EA0212702196000000015000
B0359553201977S11706094EA0213902212000000015000
B0359593202041S11706051EA0215002219000000015000
B0400033202037S11705979EA0215702231000000015000
B0400073201987S11705971EA0217002247000000015000
B0400113201957S11706031EA0217602245000000015000
B0400153201993S11706109EA0218202255000000015000
B0400193202072S11706109EA0219302270000000015000
B0400233202115S11706044EA0221002291000000015000
B0400273202103S11705982EA0222402299000000015000
B0400313202054S11705970EA0223002303000000015000
B0400353202011S11706023EA0222702293000000015000
B0400393202007S11706112EA0222202294000000015000
B0400433202067S11706178EA0223102305000000015000
B0400473202146S11706214EA0224002315000000015000
B0400513202216S11706181EA0225602333000000015000
B0400553202204S11706120EA0226602338000000015000
B0400593202163S11706143EA0226802339000000015000
B0401033202171S11706221EA0226802339000000015000
B0401073202238S11706273EA0227302350000000015000
B0401113202305S11706233EA0228802363000000015000
B0401153202301S11706162EA0229102361000000015000
B0401193202251S11706130EA0228902355000000015000
B0401233202185S11706133EA0227902345000000015000
B0401273202117S11706174EA0226902329000000015000
B0401313202054S11706243EA0224702305000000000000
B0401353201996S11706333EA0223302307000000000000
B0401393201942S11706426EA0223802309000000000000
B0401433201889S11706523EA0223902307000000000000
B0401473201838S11706623EA0223002299000000000000
B0401513201786S11706724EA0222002288000000000000
B0401553201734S11706825EA0220702274000000000000
B0401593201678S11706927EA0219702265000000000000
B0402033201623S11707026EA0219402262000000000000
B0402073201569S11707119EA0219102262000000000000
B0402113201517S11707208EA0219002262000000000000
B0402153201465S11707293EA0218302248000000000000
B0402193201409S11707377EA0217002235000000000000
B0402233201354S11707457EA0216502233000000000000
B0402273201301S11707537EA0215902226000000000000
B0402313201249S11707620EA0216302233000000000000
B0402353201196S11707700EA0216602235000000000000
B0402393201146S11707785EA0216502232000000000000
B0402433201094S11707868EA0215802220000000000000
B0402473201042S11707954EA0214102197000000000000
B0402513200988S11708050EA0212002178000000000000
B0402553200937S11708149EA0211102174000000000000
B0402593200885S11708248EA0210002162000000000000
B0403033200832S11708346EA0209102153000000000000
B0403073200776S11708443EA0208002142000000000000
B0403113200720S11708538EA0207302130000000000000
B0403153200663S11708629EA0206502127000000000000
B0403193200607S11708718EA0206102121000000000000
B0403233200553S11708808EA0205802120000000000000
B0403273200501S11708898EA0205302114000000000000
B0403313200449S11708989EA0204802111000000000000
B0403353200399S11709076EA0204502104000000000000
B0403393200343S11709162EA0203302093000000000000
B0403433200284S11709246EA0201902077000000000000
B0403473200225S11709334EA0200802059000000000000
B0403513200162S11709424EA0199802056000000000000
B0403553200105S11709514EA0200102071000000000000
B0403593200054S11709596EA0202102092000000000000
B0404033200006S11709669EA0203902111000000000000
B0404073159954S11709730EA0205602128000000000000
B0404113159892S11709762EA0206702138000000000000
B0404153159829S11709773EA0208102152000000000000
B0404193159771S11709771EA0209402169000000000000
B0404233159716S11709763EA0211302188000000000000
B0404273159666S11709753EA0212202192000000000000
B0404313159608S11709754EA0211502179000000000000
B0404353159545S11709770EA0209902151000000000000
B0404393159477S11709825EA0206802120000000000000
B0404433159419S11709903EA0205002112000000000000
B0404473159364S11709986EA0204302109000000000000
B0404513159312S11710072EA0204602114000000000000
B0404553159264S11710160EA0205002118000000000000
B0404593159216S11710250EA0206002134000000000000
B0405033159165S11710317EA0208202159000000000000
B0405073159105S11710347EA0209902173000000000000
B0405113159048S11710368EA0209802166000000000000
B0405153158990S11710411EA0207802139000000000000
B0405193158935S11710485EA0205902116000000000000
B0405233158883S11710569EA0204002097000000000000
B0405273158831S11710654EA0202702092000000000000
B0405313158779S11710741EA0202102083000000000000
B0405353158727S11710828EA0201502081000000000000
B0405393158675S11710913EA0201302078000000000000
B0405433158622S11710998EA0201302079000000000000
B0405473158571S11711079EA0201902089000000000000
B0405513158524S11711153EA0202002084000000000000
B0405553158475S11711225EA0201002065000000000000
B0405593158419S11711295EA0199002046000000000000
B0406033158360S11711366EA0198102043000000000000
B0406073158303S11711435EA0198002037000000000000
B0406113158243S11711503EA0197002025000000000000
B0406153158182S11711578EA0194401987000000000000
B0406193158119S11711660EA0191601964000000000000
B0406233158056S11711743EA0190201950000000000000
B0406273157994S11711825EA0188401931000000000000
B0406313157929S11711908EA0187201917000000000000
B0406353157866S11711992EA0185801899000000000000
B0406393157805S11712077EA0184101883000000000000
B0406433157748S11712162EA0183201878000000000000
B0406473157692S11712246EA0182401868000000000000
B0406513157639S11712332EA0181401859000000000000
B0406553157587S11712419EA0180901855000000000000
B0406593157536S11712505EA0180001844000000000000
B0407033157482S11712590EA0179201834000000000000
B0407073157428S11712673EA0178601831000000000000
B0407113157376S11712751EA0178701835000000000000
B0407153157331S11712831EA0178501829000000000000
B0407193157285S11712909EA0177501817000000000000
B0407233157237S11712986EA0176701809000000000000
B0407273157190S11713062EA0176301806000000000000
B0407313157144S11713138EA0176201808000000000000
B0407353157092S11713203EA0176301800000000000000
B0407393157036S11713268EA0174701781000000000000
B0407433156980S11713338EA0173301770000000000000
B0407473156929S11713414EA0172201755000000000000
B0407513156885S11713500EA0170601741000000000000
B0407553156843S11713587EA0169601735000000000000
B0407593156806S11713670EA0169301732000000000000
B0408033156765S11713749EA0168401719000000000000
B0408073156722S11713835EA0166801703000000000000
B0408113156681S11713921EA0166201698000000000000
B0408153156642S11714007EA0165701691000000000000
B0408193156603S11714092EA0164601677000000000000
B0408233156562S11714177EA0163301665000000000000
B0408273156521S11714260EA0162601659000000000000
B0408313156477S11714339EA0162101654000000000000
B0408353156434S11714416EA0161401645000000000000
B0408393156392S11714497EA0160701639000000000000
B0408433156348S11714576EA0160601640000000000000
B0408473156308S11714654EA0161201652000000000000
B0408513156267S11714723EA0162401664000000000000
B0408553156214S11714768EA0162801661000000000000
B0408593156150S11714783EA0162101650000000000000
B0409033156085S11714779EA0161801651000000000000
B0409073156020S11714784EA0161601649000000000000
B0409113155958S11714802EA0161401645000000000000
B0409153155905S11714856EA0160501628000000000000
B0409193155862S11714940EA0158801613000000000000
B0409233155827S11715036EA0158301616000000000000
B0409273155794S11715134EA0159301628000000000000
B0409313155749S11715208EA0161401655000000000000
B0409353155691S11715208EA0163901678000000000000
B0409393155681S11715147EA0165501692000000000000
B0409433155741S11715105EA0166501700000000000000
B0409473155820S11715117EA0166901711000000015000
B0409513155877S11715178EA0168101723000000015000
B0409553155870S11715249EA0169301737000000015000
B0409593155828S11715247EA0170201740000000015000
B0410033155827S11715183EA0170201738000000015000
B0410073155885S11715138EA0170401745000000015000
B0410113155964S11715122EA0171001753000000015000
B0410153156040S11715149EA0172001765000000015000
B0410193156085S11715217EA0173001772000000015000
B0410233156094S11715294EA0173401774000000015000
B0410273156076S11715359EA0173301771000000000000
B0410313156033S11715400EA0172601758000000000000
B0410353155976S11715398EA0171401749000000000000
B0410393155919S11715377EA0170301732000000000000
B0410433155854S11715381EA0169101720000000000000
B0410473155795S11715431EA0167701704000000000000
B0410513155749S11715504EA0165901683000000000000
B0410553155706S11715590EA0163101651000000000000
B0410593155664S11715685EA0160701631000000000000
B0411033155625S11715782EA0159901629000000000000
B0411073155589S11715877EA0159601625000000000000
B0411113155551S11715966EA0159701626000000000000
B0411153155513S11716053EA0159301617000000000000
B0411193155478S11716148EA0157701598000000000000
B0411233155446S11716245EA0156501594000000000000
B0411273155412S11716340EA0155701583000000000000
B0411313155374S11716432EA0154401566000000000000
B0411353155333S11716523EA0153401557000000000000
B0411393155294S11716613EA0153101558000000000000
B0411433155257S11716703EA0152701553000000000000
B0411473155222S11716789EA0152901554000000000000
B0411513155187S11716868EA0153301564000000000000
B0411553155142S11716934EA0153801567000000000000
B0411593155083S11716971EA0154001571000000000000
B0412033155023S11716976EA0154001565000000000000
B0412073154963S11716995EA0153401558000000000000
B0412113154917S11717049EA0152901554000000000000
B0412153154900S11717128EA0153001557000000000000
B0412193154918S11717214EA0152701545000000000000
B0412233154980S11717271EA0150901528000000000000
B0412273155045S11717332EA0149201497000000000000
B0412313155061S11717426EA0146501477000000000000
B0412353155041S11717513EA0144801463000000000000
B0412393155006S11717591EA0143201446000000000000
B0412433154963S11717669EA0141401426000000000000
B0412473154921S11717753EA0140001418000000000000
B0412513154879S11717823EA0141401437000000000000
B0412553154827S11717861EA0142101436000000000000
B0412593154775S11717904EA0140901420000000000000
B0413033154727S11717965EA0139001400000000000000
B0413073154680S11718039EA0138101397000000000000
B0413113154637S11718116EA0138001395000000000000
B0413153154596S11718191EA0138201404000000000000
B0413193154547S11718258EA0138501400000000000000
B0413233154488S11718299EA0137601390000000000000
B0413273154425S11718337EA0136201367000000000000
B0413313154371S11718397EA0134801362000000000000
B0413353154323S11718463EA0135001363000000000000
B0413393154281S11718538EA0134501358000000000000
B0413433154238S11718616EA0134701364000000000000
B0413473154202S11718689EA0135801379000000000000
B0413513154207S11718775EA0136801383000000000000
B0413553154274S11718832EA0137001386000000000000
B0413593154362S11718830EA0137201387000000000000
B0414033154427S11718776EA0137801395000000000000
B0414073154446S11718696EA0138501405000000000000
B0414113154416S11718632EA0139101409000000000000
B0414153154358S11718626EA0139601413000000000000
B0414193154329S11718691EA0140301422000000000000
B0414233154377S11718754EA0141601436000000000000
B0414273154451S11718752EA0142301445000000015000
B0414313154475S11718689EA0143401455000000000000
B0414353154428S11718670EA0144001463000000000000
B0414393154402S11718724EA0145101475000000015000
B0414433154445S11718782EA0146001481000000015000
B0414473154512S11718774EA0146501487000000015000
B0414513154534S11718711EA0147201491000000015000
B0414553154497S11718667EA0147301494000000015000
B0414593154449S11718689EA0148401508000000015000
B0415033154443S11718752EA0149601517000000015000
B0415073154494S11718804EA0149601513000000015000
B0415113154568S11718818EA0149501517000000015000
B0415153154644S11718821EA0149601523000000000000
B0415193154706S11718779EA0150901536000000000000
B0415233154727S11718709EA0151801545000000000000
B0415273154692S11718658EA0152001544000000000000
B0415313154633S11718637EA0152001549000000000000
B0415353154573S11718629EA0152801557000000000000
B0415393154545S11718687EA0154001568000000000000
B0415433154588S11718754EA0154701570000000000000
B0415473154662S11718780EA0154601570000000000000
B0415513154727S11718743EA0155101581000000000000
B0415553154726S11718675EA0156201592000000000000
B0415593154677S11718681EA0157001598000000015000
B0416033154674S11718752EA0158101610000000015000
B0416073154720S11718809EA0158501612000000015000
B0416113154788S11718804EA0159701633000000015000
B0416153154815S11718745EA0161101649000000015000
B0416193154792S11718692EA0161801649000000000000
B0416233154742S11718705EA0162001654000000000000
B0416273154741S11718776EA0162701661000000015000
B0416313154794S11718826EA0163301671000000015000
B0416353154859S11718810EA0164901686000000015000
B0416393154884S11718746EA0166301703000000015000
B0416433154848S11718705EA0167201706000000015000
B0416473154807S11718745EA0167201705000000015000
B0416513154830S11718819EA0167401707000000015000
B0416553154897S11718844EA0168401724000000015000
B0416593154950S11718800EA0169801747000000015000
B0417033154944S11718735EA0171601762000000015000
B0417073154895S11718711EA0172601764000000015000
B0417113154858S11718762EA0172801766000000015000
B0417153154885S11718835EA0173301774000000015000
B0417193154956S11718850EA0173901779000000015000
B0417233155004S11718798EA0174801791000000015000
B0417273154989S11718735EA0176001806000000015000
B0417313154940S11718720EA0177001810000000015000
B0417353154906S11718779EA0176601806000000015000
B0417393154934S11718860EA0176601808000000015000
B0417433155009S11718883EA0176901813000000015000
B0417473155062S11718828EA0177801826000000015000
B0417513155051S11718761EA0179001841000000015000
B0417553155000S11718757EA0180601851000000015000
B0417593154982S11718822EA0181001846000000015000
B0418033155028S11718887EA0181001854000000015000
B0418073155099S11718876EA0182301868000000015000
B0418113155123S11718813EA0183401878000000015000
B0418153155090S11718761EA0183401874000000015000
B0418193155031S11718732EA0182801869000000000000
B0418233154957S11718711EA0181801857000000000000
B0418273154879S11718726EA0182001873000000000000
B0418313154813S11718774EA0183001873000000000000
B0418353154753S11718839EA0182501863000000000000
B0418393154694S11718915EA0180901836000000000000
B0418433154633S11718999EA0177901812000000000000
B0418473154572S11719090EA0175901793000000000000
B0418513154514S11719182EA0174901786000000000000
B0418553154458S11719276EA0173501770000000000000
B0418593154404S11719372EA0171701751000000000000
B0419033154352S11719472EA0170501737000000000000
B0419073154303S11719572EA0169501729000000000000
B0419113154254S11719672EA0168601717000000000000
B0419153154204S11719772EA0167301704000000000000
B0419193154157S11719872EA0165801689000000000000
B0419233154108S11719968EA0164901682000000000000
B0419273154063S11720061EA0164501679000000000000
B0419313154021S11720148EA0163801671000000000000
B0419353153981S11720235EA0162601651000000000000
B0419393153935S11720316EA0160801632000000000000
B0419433153887S11720391EA0159101618000000000000
B0419473153835S11720461EA0158001605000000000000
B0419513153783S11720530EA0157601609000000000000
B0419553153735S11720589EA0159301631000000000000
B0419593153683S11720616EA0161101649000000000000
B0420033153631S11720621EA0162301662000000000000
B0420073153582S11720609EA0163601674000000000000
B0420113153530S11720592EA0164701685000000000000
B0420153153478S11720576EA0165601699000000000000
B0420193153433S11720596EA0166901707000000000000
B0420233153468S11720656EA0167801723000000000000
B0420273153536S11720638EA0169801747000000000000
B0420313153558S11720569EA0171501761000000000000
B0420353153526S11720531EA0172801770000000000000
B0420393153492S11720561EA0173601779000000000000
B0420433153513S11720622EA0174801793000000015000
B0420473153579S11720630EA0176101806000000015000
B0420513153622S11720573EA0177001812000000015000
B0420553153601S11720517EA0177801823000000015000
B0420593153562S11720531EA0178401826000000015000
B0421033153570S11720596EA0179201839000000015000
B0421073153627S11720635EA0180701858000000015000
B0421113153696S11720630EA0182101867000000015000
B0421153153735S11720568EA0182801877000000015000
B0421193153721S11720500EA0183801888000000015000
B0421233153679S11720478EA0184501891000000015000
B0421273153648S11720529EA0184101884000000015000
B0421313153660S11720608EA0184501895000000015000
B0421353153705S11720680EA0185301905000000000000
B0421393153765S11720732EA0186501915000000000000
B0421433153847S11720722EA0186301905000000000000
B0421473153901S11720654EA0185901908000000000000
B0421513153916S11720576EA0186801926000000000000
B0421553153875S11720559EA0188901946000000000000
B0421593153845S11720608EA0189501936000000015000
B0422033153819S11720681EA0188201924000000000000
B0422073153792S11720765EA0186501902000000000000
B0422113153760S11720856EA0185201899000000000000
B0422153153725S11720949EA0186101914000000000000
B0422193153691S11721038EA0186701911000000000000
B0422233153654S11721129EA0186201908000000000000
B0422273153619S11721220EA0186101905000000000000
B0422313153585S11721313EA0185001893000000000000
B0422353153553S11721411EA0184101884000000000000
B0422393153519S11721510EA0183501879000000000000
B0422433153485S11721610EA0182901871000000000000
B0422473153453S11721709EA0182501866000000000000
B0422513153423S11721809EA0182401868000000000000
B0422553153397S11721908EA0182301868000000000000
B0422593153374S11722006EA0181801861000000000000
B0423033153348S11722100EA0180901851000000000000
B0423073153319S11722194EA0179801842000000000000
B0423113153290S11722288EA0179101833000000000000
B0423153153266S11722379EA0178501828000000000000
B0423193153241S11722471EA0177901821000000000000
B0423233153219S11722558EA0177501821000000000000
B0423273153198S11722644EA0177501817000000000000
B0423313153180S11722728EA0176601807000000000000
B0423353153162S11722814EA0175401791000000000000
B0423393153141S11722901EA0173901777000000000000
B0423433153119S11722988EA0172701762000000000000
B0423473153097S11723073EA0171401750000000000000
B0423513153075S11723159EA0169701727000000000000
B0423553153050S11723248EA0167501704000000000000
B0423593153017S11723339EA0165801690000000000000
B0424033152984S11723430EA0165101686000000000000
B0424073152950S11723519EA0164601678000000000000
B0424113152917S11723606EA0164201679000000000000
B0424153152882S11723690EA0163901669000000000000
B0424193152846S11723774EA0163301669000000000000
B0424233152809S11723854EA0163101662000000000000
B0424273152770S11723936EA0162601663000000000000
B0424313152731S11724002EA0164701686000000000000
B0424353152701S11724069EA0166701706000000000000
B0424393152657S11724118EA0167501712000000000000
B0424433152596S11724123EA0168801729000000000000
B0424473152535S11724113EA0170901754000000000000
B0424513152504S11724169EA0173601778000000000000
B0424553152565S11724213EA0175401800000000000000
B0424593152612S11724166EA0176701814000000000000
B0425033152584S11724122EA0177801822000000000000
B0425073152544S11724160EA0179101836000000000000
B0425113152579S11724226EA0180801858000000015000
B0425153152646S11724222EA0182101867000000015000
B0425193152666S11724162EA0182801875000000015000
B0425233152630S11724130EA0183501888000000015000
B0425273152599S11724177EA0185201906000000015000
B0425313152647S11724234EA0186101900000000015000
B0425353152709S11724187EA0185201899000000015000
B0425393152694S11724131EA0187001933000000015000
B0425433152647S11724141EA0189501948000000015000
B0425473152640S11724212EA0191201965000000015000
B0425513152701S11724265EA0192901981000000015000
B0425553152766S11724245EA0194001994000000015000
B0425593152778S11724183EA0194501994000000015000
B0426033152735S11724152EA0195402014000000015000
B0426073152688S11724175EA0197602039000000015000
B0426113152699S11724248EA0200302065000000015000
B0426153152765S11724277EA0202202079000000015000
B0426193152816S11724232EA0202702082000000015000
B0426233152808S11724170EA0203702100000000015000
B0426273152763S11724153EA0205702118000000015000
B0426313152738S11724212EA0207202135000000015000
B0426353152783S11724279EA0209702165000000015000
B0426393152851S11724273EA0211402183000000015000
B0426433152873S11724213EA0212502189000000015000
B0426473152838S11724175EA0213602205000000015000
B0426513152796S11724210EA0215102221000000015000
B0426553152818S11724286EA0216802238000000015000
B0426593152891S11724299EA0218602262000000015000
B0427033152928S11724245EA0220102273000000015000
B0427073152907S11724196EA0221402286000000015000
B0427113152861S11724204EA0223602309000000015000
B0427153152854S11724273EA0225502326000000015000
B0427193152922S11724310EA0227202349000000015000
B0427233152976S11724271EA0229202369000000015000
B0427273152963S11724218EA0231302391000000015000
B0427313152917S11724231EA0233302412000000015000
B0427353152913S11724301EA0235202429000000015000
B0427393152974S11724344EA0236702446000000015000
B0427433153036S11724312EA0237402454000000015000
B0427473153034S11724248EA0238902475000000015000
B0427513152987S11724245EA0241402505000000015000
B0427553152977S11724310EA0243902523000000015000
B0427593153036S11724355EA0245202539000000015000
B0428033153095S11724325EA0246802560000000015000
B0428073153097S11724266EA0248902582000000015000
B0428113153054S11724253EA0250702596000000015000
B0428153153025S11724308EA0252302611000000015000
B0428193153069S11724368EA0253702626000000015000
B0428233153136S11724348EA0255002642000000015000
B0428273153138S11724288EA0257002664000000015000
B0428313153091S11724281EA0258702680000000015000
B0428353153072S11724340EA0259902689000000015000
B0428393153123S11724398EA0261302703000000015000
B0428433153192S11724385EA0262502719000000015000
B0428473153212S11724323EA0263502736000000015000
B0428513153176S11724287EA0265002743000000015000
B0428553153132S11724318EA0265702751000000015000
B0428593153136S11724392EA0266502761000000015000
B0429033153186S11724456EA0267402764000000015000
B0429073153264S11724466EA0267702771000000015000
B0429113153318S11724420EA0268702785000000015000
B0429153153333S11724353EA0270102800000000015000
B0429193153305S11724307EA0270902804000000015000
B0429233153255S11724283EA0271402811000000015000
B0429273153218S11724325EA0272502818000000000000
B0429313153242S11724403EA0273202826000000015000
B0429353153306S11724456EA0273902839000000015000
B0429393153385S11724447EA0274402839000000015000
B0429433153432S11724382EA0274902845000000015000
B0429473153426S11724310EA0275102843000000015000
B0429513153379S11724268EA0274802841000000015000
B0429553153322S11724238EA0273902825000000000000
B0429593153251S11724214EA0272002803000000000000
B0430033153173S11724205EA0269602772000000000000
B0430073153091S11724248EA0267502757000000000000
B0430113153017S11724320EA0265802738000000000000
B0430153152955S11724414EA0264202727000000000000
B0430193152900S11724520EA0263302718000000000000
B0430233152854S11724630EA0262102704000000000000
B0430273152812S11724746EA0260802693000000000000
B0430313152773S11724860EA0260402690000000000000
B0430353152738S11724976EA0259402678000000000000
B0430393152703S11725094EA0258502672000000000000
B0430433152669S11725213EA0258102668000000000000
B0430473152638S11725328EA0258002667000000000000
B0430513152608S11725443EA0257302659000000000000
B0430553152578S11725558EA0256302651000000000000
B0430593152548S11725673EA0256102648000000000000
B0431033152517S11725785EA0255702645000000000000
B0431073152478S11725890EA0255302640000000000000
B0431113152435S11725989EA0255002638000000000000
B0431153152393S11726086EA0254902637000000000000
B0431193152352S11726181EA0255002637000000000000
B0431233152306S11726270EA0254702635000000000000
B0431273152262S11726358EA0254202628000000000000
B0431313152218S11726446EA0253502624000000000000
B0431353152174S11726535EA0253102619000000000000
B0431393152131S11726622EA0253002619000000000000
B0431433152089S11726708EA0253102620000000000000
B0431473152048S11726788EA0253502626000000000000
B0431513152005S11726866EA0254002629000000000000
B0431553151953S11726929EA0254902643000000000000
B0431593151897S11726964EA0256102651000000000000
B0432033151837S11726987EA0256202650000000000000
B0432073151776S11727014EA0256202652000000000000
B0432113151716S11727038EA0257502667000000000000
B0432153151656S11727052EA0258302677000000000000
B0432193151595S11727070EA0258702678000000000000
B0432233151530S11727085EA0259002684000000000000
B0432273151463S11727100EA0259802690000000000000
B0432313151395S11727122EA0260702700000000000000
B0432353151327S11727138EA0261502710000000000000
B0432393151261S11727151EA0263102728000000000000
B0432433151212S11727196EA0264702741000000000000
B0432473151247S11727281EA0265302739000000000000
B0432513151339S11727303EA0264602738000000000000
B0432553151435S11727304EA0264702741000000000000
B0432593151515S11727261EA0265702754000000000000
B0433033151541S11727185EA0266602756000000000000
B0433073151511S11727125EA0266702757000000000000
B0433113151451S11727116EA0266502755000000000000
B0433153151386S11727120EA0266502760000000000000
B0433193151320S11727129EA0266102746000000000000
B0433233151251S11727163EA0264502730000000000000
B0433273151187S11727235EA0263002716000000000000
B0433313151135S11727334EA0262502710000000000000
B0433353151091S11727446EA0261502697000000000000
B0433393151053S11727564EA0259902685000000000000
B0433433151019S11727683EA0259502683000000000000
B0433473150989S11727801EA0259002679000000000000
B0433513150961S11727918EA0258602673000000000000
B0433553150931S11728035EA0257802665000000000000
B0433593150900S11728151EA0257602663000000000000
B0434033150871S11728265EA0257102659000000000000
B0434073150844S11728378EA0256602654000000000000
B0434113150818S11728493EA0256102646000000000000
B0434153150792S11728607EA0255402637000000000000
B0434193150766S11728723EA0254202627000000000000
B0434233150742S11728841EA0253402619000000000000
B0434273150720S11728957EA0252902615000000000000
B0434313150701S11729070EA0252902618000000000000
B0434353150683S11729180EA0253202620000000000000
B0434393150667S11729291EA0252802614000000000000
B0434433150651S11729401EA0252502616000000000000
B0434473150632S11729510EA0253102617000000000000
B0434513150610S11729620EA0253302625000000000000
B0434553150589S11729726EA0254402635000000000000
B0434593150567S11729829EA0255202644000000000000
B0435033150545S11729930EA0255902651000000000000
B0435073150521S11730032EA0256202648000000000000
B0435113150499S11730134EA0255102634000000000000
B0435153150477S11730240EA0253802617000000000000
B0435193150451S11730349EA0251802594000000000000
B0435233150424S11730462EA0249702574000000000000
B0435273150395S11730579EA0247902558000000000000
B0435313150369S11730696EA0247002550000000000000
B0435353150343S11730813EA0246102542000000000000
B0435393150317S11730927EA0245402535000000000000
B0435433150291S11731042EA0244802526000000000000
B0435473150264S11731156EA0243702516000000000000
B0435513150234S11731269EA0242802503000000000000
B0435553150204S11731384EA0242002495000000000000
B0435593150174S11731497EA0241302491000000000000
B0436033150147S11731611EA0240802483000000000000
B0436073150125S11731727EA0239702473000000000000
B0436113150103S11731845EA0238702463000000000000
B0436153150078S11731962EA0237602451000000000000
B0436193150051S11732077EA0236502439000000000000
B0436233150023S11732188EA0235802436000000000000
B0436273149999S11732295EA0235802436000000000000
B0436313149975S11732400EA0234902420000000000000
B0436353149951S11732506EA0234202420000000000000
B0436393149925S11732606EA0233602410000000000000
B0436433149900S11732705EA0233502413000000000000
B0436473149877S11732797EA0233602414000000000000
B0436513149852S11732888EA0233002401000000000000
B0436553149826S11732983EA0231602389000000000000
B0436593149800S11733079EA0230602377000000000000
B0437033149774S11733179EA0229102360000000000000
B0437073149750S11733282EA0228202353000000000000
B0437113149727S11733386EA0227902352000000000000
B0437153149706S11733486EA0228602363000000000000
B0437193149685S11733585EA0228602359000000000000
B0437233149665S11733686EA0228402357000000000000
B0437273149645S11733787EA0228402361000000000000
B0437313149632S11733886EA0229502373000000000000
B0437353149622S11733982EA0229902373000000000000
B0437393149610S11734076EA0229102360000000000000
B0437433149598S11734174EA0227302342000000000000
B0437473149585S11734275EA0225602322000000000000
B0437513149568S11734379EA0224502314000000000000
B0437553149552S11734483EA0223402301000000000000
B0437593149533S11734587EA0222702299000000000000
B0438033149514S11734688EA0222702297000000000000
B0438073149492S11734791EA0222002288000000000000
B0438113149468S11734895EA0221302283000000000000
B0438153149444S11734999EA0220702275000000000000
B0438193149419S11735104EA0219802267000000000000
B0438233149394S11735210EA0219002255000000000000
B0438273149371S11735319EA0217502236000000000000
B0438313149347S11735432EA0215902223000000000000
B0438353149324S11735545EA0215302216000000000000
B0438393149301S11735657EA0214402209000000000000
B0438433149277S11735769EA0213102192000000000000
B0438473149250S11735878EA0212102182000000000000
B0438513149224S11735982EA0212602197000000000000
B0438553149203S11736078EA0213202197000000000000
B0438593149181S11736174EA0212402185000000000000
B0439033149156S11736272EA0212002186000000000000
B0439073149133S11736365EA0212502195000000000000
B0439113149113S11736454EA0213102198000000000000
B0439153149095S11736541EA0212302181000000000000
B0439193149072S11736631EA0209902152000000000000
B0439233149038S11736725EA0207602131000000000000
B0439273149002S11736819EA0206802128000000000000
B0439313148965S11736913EA0205902114000000000000
B0439353148926S11737009EA0204402097000000000000
B0439393148887S11737108EA0203202085000000000000
B0439433148847S11737209EA0201602065000000000000
B0439473148804S11737312EA0199902051000000000000
B0439513148755S11737412EA0198602038000000000000
B0439553148704S11737509EA0197502024000000000000
B0439593148652S11737607EA0196002011000000000000
B0440033148601S11737704EA0195002002000000000000
B0440073148549S11737798EA0194301995000000000000
B0440113148497S11737886EA0193801984000000000000
B0440153148444S11737976EA0192001966000000000000
B0440193148392S11738064EA0191301963000000000000
B0440233148341S11738152EA0191301965000000000000
B0440273148296S11738237EA0190701951000000000000
B0440313148249S11738324EA0189701944000000000000
B0440353148203S11738413EA0188401924000000000000
B0440393148158S11738501EA0187101915000000000000
B0440433148109S11738590EA0185801899000000000000
B0440473148059S11738679EA0183701874000000000000
B0440513148011S11738773EA0181901859000000000000
B0440553147964S11738868EA0180601846000000000000
B0440593147915S11738959EA0179801842000000000000
B0441033147863S11739046EA0179201834000000000000
B0441073147807S11739125EA0178501827000000000000
B0441113147750S11739198EA0177901819000000000000
B0441153147689S11739267EA0177501818000000000000
B0441193147628S11739331EA0177501819000000000000
B0441233147564S11739384EA0177301816000000000000
B0441273147496S11739416EA0177401819000000000000
B0441313147429S11739439EA0178001825000000000000
B0441353147365S11739457EA0178201830000000000000
B0441393147303S11739465EA0179701850000000000000
B0441433147244S11739465EA0181501867000000000000
B0441473147186S11739458EA0181801860000000000000
B0441513147126S11739455EA0181001855000000000000
B0441553147067S11739453EA0181001856000000000000
B0441593147006S11739457EA0180401844000000000000
B0442033146942S11739467EA0179201836000000000000
B0442073146876S11739476EA0178701828000000000000
B0442113146809S11739487EA0177501815000000000000
B0442153146742S11739507EA0176101795000000000000
B0442193146677S11739562EA0173601768000000000000
B0442233146625S11739644EA0172501760000000000000
B0442273146571S11739719EA0171901760000000000000
B0442313146507S11739745EA0172801777000000000000
B0442353146450S11739760EA0173701773000000000000
B0442393146398S11739801EA0172101747000000000000
B0442433146352S11739874EA0169201716000000000000
B0442473146309S11739965EA0166701692000000000000
B0442513146273S11740064EA0165201683000000000000
B0442553146246S11740170EA0164101667000000000000
B0442593146220S11740281EA0162901658000000000000
B0443033146195S11740390EA0162701657000000000000
B0443073146162S11740492EA0162701663000000000000
B0443113146120S11740575EA0163701670000000000000
B0443153146078S11740657EA0164001673000000000000
B0443193146036S11740735EA0163501667000000000000
B0443233145983S11740791EA0163701673000000000000
B0443273145927S11740824EA0164001674000000000000
B0443313145870S11740861EA0163601667000000000000
B0443353145814S11740905EA0162801659000000000000
B0443393145761S11740958EA0162201650000000000000
B0443433145717S11741036EA0160801635000000000000
B0443473145683S11741126EA0159701627000000000000
B0443513145653S11741222EA0158901613000000000000
B0443553145627S11741322EA0157701602000000000000
B0443593145603S11741424EA0157301606000000000000
B0444033145566S11741506EA0158101619000000000000
B0444073145511S11741541EA0159601632000000000000
B0444113145457S11741558EA0159901627000000000000
B0444153145401S11741565EA0159401627000000000000
B0444193145345S11741559EA0159401625000000000000
B0444233145290S11741543EA0158801617000000000000
B0444273145236S11741521EA0158001607000000000000
B0444313145176S11741502EA0157101597000000000000
B0444353145113S11741478EA0156301587000000000000
B0444393145051S11741452EA0155401582000000000000
B0444433144990S11741425EA0155701586000000000000
B0444473144931S11741398EA0155501583000000000000
B0444513144874S11741368EA0155201579000000000000
B0444553144814S11741331EA0155201583000000000000
B0444593144757S11741295EA0155801590000000000000
B0445033144703S11741260EA0156201591000000000000
B0445073144648S11741227EA0155201573000000000000
B0445113144587S11741217EA0153701556000000000000
B0445153144535S11741266EA0152601545000000000000
B0445193144505S11741347EA0151601541000000000000
B0445233144463S11741411EA0151401546000000000000
B0445273144413S11741429EA0152601560000000000000
B0445313144367S11741422EA0153501566000000000000
B0445353144322S11741404EA0153401561000000000000
B0445393144271S11741385EA0152201548000000000000
B0445433144218S11741355EA0151901547000000000000
B0445473144162S11741322EA0151701541000000000000
B0445513144103S11741299EA0150701526000000000000
B0445553144041S11741308EA0149801514000000000000
B0445593143999S11741376EA0148501498000000000000
B0446033143986S11741470EA0146901489000000000000
B0446073143985S11741571EA0146201485000000000000
B0446113143989S11741672EA0145901482000000000000
B0446153143989S11741771EA0146101489000000000000
B0446193143955S11741846EA0147401510000000000000
B0446233143907S11741893EA0149101522000000000000
B0446273143852S11741905EA0150501538000000000000
B0446313143812S11741863EA0151501544000000000000
B0446353143829S11741793EA0152101547000000000000
B0446393143893S11741751EA0152101549000000015000
B0446433143967S11741759EA0152901564000000015000
B0446473144015S11741812EA0154401577000000015000
B0446513144001S11741876EA0155001575000000015000
B0446553143947S11741899EA0155001581000000015000
B0446593143893S11741884EA0155201587000000015000
B0447033143887S11741816EA0156601601000000015000
B0447073143938S11741766EA0157201598000000015000
B0447113144014S11741754EA0156801606000000015000
B0447153144077S11741788EA0158201623000000015000
B0447193144079S11741854EA0160001635000000015000
B0447233144028S11741877EA0160201631000000015000
B0447273143989S11741831EA0160301645000000015000
B0447313144007S11741758EA0161701653000000015000
B0447353144068S11741714EA0162301663000000015000
B0447393144140S11741717EA0163501674000000015000
B0447433144192S11741767EA0164201680000000015000
B0447473144206S11741838EA0164601682000000015000
B0447513144183S11741906EA0164701681000000015000
B0447553144137S11741959EA0164301673000000015000
B0447593144082S11742011EA0163701667000000015000
B0448033144024S11742068EA0162401650000000015000
B0448073143964S11742128EA0161401648000000015000
B0448113143906S11742191EA0161701653000000000000
B0448153143848S11742250EA0161701649000000000000
B0448193143790S11742310EA0161301648000000000000
B0448233143730S11742364EA0160901639000000000000
B0448273143670S11742421EA0160201635000000000000
B0448313143612S11742477EA0160401638000000000000
B0448353143549S11742530EA0160501640000000000000
B0448393143488S11742577EA0160701641000000000000
B0448433143429S11742620EA0161001645000000000000
B0448473143371S11742661EA0161001641000000000000
B0448513143313S11742708EA0160101626000000000000
B0448553143252S11742759EA0158701615000000000000
B0448593143188S11742799EA0158001609000000000000
B0449033143124S11742839EA0157401597000000000000
B0449073143076S11742913EA0156001582000000000000
B0449113143057S11743010EA0154801574000000000000
B0449153143061S11743112EA0154201566000000000000
B0449193143076S11743215EA0153101551000000000000
B0449233143094S11743319EA0151501537000000000000
B0449273143118S11743420EA0150401528000000000000
B0449313143143S11743521EA0150201529000000000000
B0449353143165S11743617EA0150901542000000000000
B0449393143182S11743705EA0153001567000000000000
B0449433143202S11743786EA0155001582000000000000
B0449473143265S11743843EA0155701583000000000000
B0449513143353S11743838EA0155801587000000000000
B0449553143422S11743777EA0156301594000000015000
B0449593143462S11743697EA0156801599000000015000
B0450033143457S11743618EA0157001596000000015000
B0450073143417S11743560EA0156601593000000015000
B0450113143370S11743502EA0156601594000000015000
B0450153143321S11743445EA0156901597000000015000
B0450193143267S11743400EA0157301600000000000000
B0450233143206S11743389EA0157101595000000000000
B0450273143150S11743431EA0156101581000000015000
B0450313143122S11743511EA0154801565000000015000
B0450353143119S11743612EA0153101550000000015000
B0450393143126S11743716EA0152101542000000015000
B0450433143133S11743822EA0151501535000000000000
B0450473143143S11743930EA0151201535000000000000
B0450513143152S11744035EA0151101536000000000000
B0450553143167S11744138EA0151501540000000000000
B0450593143184S11744242EA0150801526000000000000
B0451033143198S11744350EA0149701519000000000000
B0451073143208S11744454EA0150101527000000000000
B0451113143221S11744554EA0150601529000000000000
B0451153143239S11744654EA0150801534000000000000
B0451193143258S11744748EA0151401538000000000000
B0451233143280S11744840EA0151401538000000000000
B0451273143309S11744930EA0151201533000000000000
B0451313143340S11745022EA0150501527000000000000
B0451353143365S11745117EA0150501530000000000000
B0451393143374S11745209EA0150601531000000000000
B0451433143375S11745299EA0150801535000000000000
B0451473143378S11745387EA0151401539000000000000
B0451513143360S11745467EA0151501543000000000000
B0451553143310S11745506EA0152501553000000000000
B0451593143254S11745511EA0152801553000000000000
B0452033143198S11745503EA0152601544000000000000
B0452073143139S11745499EA0151701540000000000000
B0452113143080S11745491EA0151701539000000000000
B0452153143019S11745490EA0151601539000000000000
B0452193142959S11745504EA0151201531000000000000
B0452233142915S11745560EA0150801528000000000000
B0452273142920S11745646EA0150801528000000000000
B0452313142980S11745705EA0151101530000000000000
B0452353143061S11745714EA0150801522000000015000
B0452393143148S11745698EA0149501510000000000000
B0452433143235S11745662EA0148301497000000000000
B0452473143321S11745611EA0147101485000000000000
B0452513143406S11745556EA0146501480000000000000
B0452553143471S11745480EA0145701471000000000000
B0452593143497S11745383EA0145301472000000000000
B0453033143500S11745290EA0145601476000000000000
B0453073143491S11745198EA0145701478000000000000
B0453113143455S11745136EA0146801500000000000000
B0453153143413S11745161EA0148501503000000000000
B0453193143429S11745234EA0148001496000000015000
B0453233143499S11745265EA0148101503000000015000
B0453273143560S11745230EA0148601511000000015000
B0453313143559S11745162EA0149201517000000015000
B0453353143517S11745159EA0149901521000000015000
B0453393143508S11745221EA0149501511000000015000
B0453433143559S11745273EA0149601523000000015000
B0453473143622S11745257EA0150501528000000015000
B0453513143669S11745199EA0149801516000000015000
B0453553143705S11745125EA0148701508000000015000
B0453593143733S11745042EA0148401506000000015000
B0454033143711S11744975EA0149401516000000015000
B0454073143669S11745001EA0149901521000000015000
B0454113143686S11745065EA0149901517000000015000
B0454153143752S11745094EA0149401514000000015000
B0454193143817S11745062EA0149401516000000015000
B0454233143868S11745004EA0149101511000000015000
B0454273143911S11744934EA0149301522000000015000
B0454313143924S11744863EA0150501530000000015000
B0454353143882S11744847EA0150401522000000015000
B0454393143856S11744902EA0149801512000000015000
B0454433143889S11744974EA0149601520000000015000
B0454473143955S11745016EA0150801532000000015000
B0454513144029S11745001EA0151201535000000015000
B0454553144081S11744944EA0151701545000000015000
B0454593144124S11744878EA0152501550000000015000
B0455033144155S11744806EA0152701554000000015000
B0455073144140S11744748EA0153101556000000015000
B0455113144098S11744740EA0152901549000000015000
B0455153144062S11744782EA0152201542000000015000
B0455193144060S11744853EA0152101544000000015000
B0455233144110S11744918EA0151701536000000015000
B0455273144189S11744923EA0151801541000000015000
B0455313144249S11744871EA0152001545000000015000
B0455353144296S11744801EA0152201550000000015000
B0455393144326S11744723EA0153301564000000015000
B0455433144300S11744675EA0154001565000000015000
B0455473144279S11744722EA0154201567000000015000
B0455513144332S11744778EA0154501571000000015000
B0455553144411S11744761EA0155201582000000015000
B0455593144470S11744702EA0156201594000000015000
B0456033144500S11744631EA0156301587000000015000
B0456073144482S11744572EA0155801582000000015000
B0456113144440S11744558EA0155001568000000015000
B0456153144398S11744594EA0153701554000000015000
B0456193144365S11744658EA0152001535000000015000
B0456233144333S11744740EA0150701528000000015000
B0456273144305S11744828EA0150201522000000015000
B0456313144279S11744926EA0148901505000000015000
B0456353144254S11745031EA0148001493000000015000
B0456393144236S11745142EA0146801485000000000000
B0456433144223S11745251EA0146501484000000000000
B0456473144211S11745360EA0146001475000000000000
B0456513144202S11745469EA0144901464000000000000
B0456553144190S11745575EA0144201463000000000000
B0456593144175S11745672EA0144501466000000000000
B0457033144138S11745744EA0145101477000000000000
B0457073144094S11745790EA0146401488000000000000
B0457113144053S11745833EA0146801491000000000000
B0457153144007S11745871EA0146701492000000000000
B0457193143954S11745888EA0147201496000000000000
B0457233143898S11745896EA0147701498000000000000
B0457273143842S11745911EA0147901503000000000000
B0457313143803S11745949EA0148401510000000000000
B0457353143835S11746006EA0149301513000000000000
B0457393143916S11746000EA0148901504000000000000
B0457433143976S11745923EA0148201503000000000000
B0457473143986S11745828EA0148901520000000000000
B0457513143946S11745793EA0150901533000000015000
B0457553143930S11745836EA0151001527000000015000
B0457593143981S11745885EA0150101518000000015000
B0458033144059S11745866EA0149901521000000015000
B0458073144114S11745793EA0149901526000000015000
B0458113144140S11745705EA0150301524000000015000
B0458153144112S11745636EA0150301522000000015000
B0458193144063S11745630EA0150201524000000015000
B0458233144012S11745658EA0149701519000000015000
B0458273143959S11745695EA0149701526000000015000
B0458313143904S11745732EA0150401533000000015000
B0458353143851S11745775EA0151201539000000000000
B0458393143834S11745850EA0151901544000000000000
B0458433143894S11745914EA0151701537000000015000
B0458473143980S11745890EA0151501539000000015000
B0458513144019S11745816EA0151501540000000015000
B0458553144001S11745747EA0151901544000000015000
B0458593143949S11745732EA0152301552000000015000
B0459033143897S11745757EA0152701548000000015000
B0459073143855S11745809EA0151301524000000015000
B0459113143821S11745889EA0148501496000000015000
B0459153143790S11745984EA0145801469000000000000
B0459193143761S11746087EA0144101458000000000000
B0459233143735S11746189EA0142901444000000000000
B0459273143713S11746293EA0141601431000000000000
B0459313143695S11746399EA0140901421000000000000
B0459353143679S11746501EA0140001415000000000000
B0459393143663S11746602EA0139301407000000000000
B0459433143650S11746700EA0138601400000000000000
B0459473143640S11746795EA0137801391000000000000
B0459513143633S11746890EA0137001387000000000000
B0459553143624S11746981EA0136401376000000000000
B0459593143616S11747073EA0135301365000000000000
B0500033143605S11747167EA0134601356000000000000
B0500073143595S11747259EA0133701346000000000000
B0500113143583S11747352EA0132801339000000000000
B0500153143573S11747444EA0132401338000000000000
B0500193143564S11747534EA0132401335000000000000
B0500233143560S11747622EA0131701328000000000000
B0500273143557S11747709EA0130901321000000000000
B0500313143546S11747791EA0130501316000000000000
B0500353143518S11747860EA0129501304000000000000
B0500393143475S11747909EA0128801292000000000000
B0500433143423S11747944EA0127801283000000000000
B0500473143364S11747955EA0126701275000000000000
B0500513143301S11747937EA0125901265000000000000
B0500553143245S11747890EA0124401248000000000000
B0500593143193S11747831EA0122701230000000000000
B0501033143143S11747770EA0121501219000000000000
B0501073143093S11747707EA0120201204000000000000
B0501113143041S11747643EA0119001193000000000000
B0501153142988S11747577EA0118501186000000000000
B0501193142935S11747514EA0118201184000000000000
B0501233142883S11747452EA0118301188000000000000
B0501273142832S11747401EA0119201196000000000000
B0501313142776S11747365EA0119801204000000000000
B0501353142727S11747375EA0121501223000000000000
B0501393142738S11747441EA0122801232000000000000
B0501433142810S11747474EA0122901232000000000000
B0501473142886S11747440EA0122801233000000000000
B0501513142906S11747365EA0123701245000000015000
B0501553142867S11747333EA0124401249000000015000
B0501593142836S11747376EA0125201260000000015000
B0502033142866S11747440EA0125901265000000015000
B0502073142944S11747454EA0125801261000000015000
B0502113143009S11747405EA0126001270000000015000
B0502153143022S11747331EA0126701276000000015000
B0502193142984S11747292EA0127301284000000015000
B0502233142951S11747328EA0128301292000000015000
B0502273142983S11747393EA0128701299000000015000
B0502313143057S11747408EA0129201300000000015000
B0502353143117S11747352EA0129101303000000015000
B0502393143119S11747279EA0129801312000000015000
B0502433143078S11747246EA0130601316000000015000
B0502473143036S11747276EA0130501314000000015000
B0502513143035S11747349EA0130901323000000015000
B0502553143091S11747405EA0131801331000000015000
B0502593143172S11747398EA0132001325000000015000
B0503033143228S11747332EA0131401329000000015000
B0503073143230S11747255EA0132101334000000015000
B0503113143187S11747215EA0132201333000000015000
B0503153143141S11747241EA0132601338000000015000
B0503193143145S11747313EA0133101344000000015000
B0503233143206S11747363EA0133501351000000015000
B0503273143288S11747361EA0133901350000000015000
B0503313143351S11747300EA0133301343000000015000
B0503353143357S11747216EA0133501347000000015000
B0503393143323S11747157EA0133801350000000015000
B0503433143271S11747148EA0134101356000000015000
B0503473143231S11747189EA0134801365000000015000
B0503513143237S11747258EA0136001383000000015000
B0503553143295S11747302EA0137201388000000015000
B0503593143370S11747294EA0137301391000000015000
B0504033143427S11747241EA0137301386000000015000
B0504073143440S11747166EA0136501377000000015000
B0504113143414S11747103EA0136301379000000015000
B0504153143365S11747084EA0136901387000000015000
B0504193143326S11747116EA0137701402000000015000
B0504233143360S11747175EA0139501420000000015000
B0504273143430S11747167EA0140801430000000015000
B0504313143462S11747103EA0141101432000000015000
B0504353143443S11747044EA0141501437000000015000
B0504393143401S11747034EA0142401450000000015000
B0504433143387S11747080EA0144001465000000015000
B0504473143427S11747132EA0144001456000000015000
B0504513143505S11747140EA0143601458000000015000
B0504553143565S11747086EA0144501471000000015000
B0504593143564S11747019EA0145601478000000015000
B0505033143521S11747001EA0146401486000000015000
B0505073143499S11747046EA0147901505000000015000
B0505113143522S11747106EA0148301505000000015000
B0505153143592S11747138EA0148501514000000015000
B0505193143660S11747103EA0150101528000000015000
B0505233143681S11747037EA0150801537000000015000
B0505273143657S11746993EA0151301539000000015000
B0505313143620S11747005EA0151901544000000015000
B0505353143618S11747060EA0152601556000000015000
B0505393143673S11747105EA0153301561000000015000
B0505433143746S11747086EA0154001570000000015000
B0505473143776S11747021EA0154601577000000015000
B0505513143751S11746975EA0155301583000000015000
B0505553143715S11746979EA0156301596000000015000
B0505593143705S11747024EA0157001603000000015000
B0506033143744S11747076EA0157601609000000015000
B0506073143817S11747083EA0158401616000000015000
B0506113143871S11747028EA0158901621000000015000
B0506153143872S11746959EA0159601625000000015000
B0506193143833S11746925EA0159501623000000015000
B0506233143791S11746943EA0159901630000000015000
B0506273143780S11747005EA0160201634000000015000
B0506313143813S11747076EA0160801644000000015000
B0506353143887S11747102EA0162301664000000015000
B0506393143947S11747059EA0164001679000000015000
B0506433143950S11746990EA0164001673000000015000
B0506473143913S11746946EA0163801673000000015000
B0506513143864S11746953EA0164301682000000015000
B0506553143856S11747011EA0166001703000000015000
B0506593143904S11747063EA0166901707000000015000
B0507033143980S11747046EA0167601715000000015000
B0507073144024S11746977EA0168201722000000015000
B0507113144021S11746902EA0168801727000000015000
B0507153143981S11746862EA0169301732000000015000
B0507193143934S11746884EA0169901740000000015000
B0507233143919S11746947EA0170501747000000015000
B0507273143949S11747018EA0170601742000000015000
B0507313144019S11747050EA0170501745000000015000
B0507353144098S11747024EA0171101751000000015000
B0507393144171S11746977EA0171301754000000015000
B0507433144231S11746912EA0171901763000000015000
B0507473144232S11746838EA0172901769000000015000
B0507513144190S11746807EA0173301773000000015000
B0507553144153S11746838EA0174001781000000015000
B0507593144163S11746903EA0174501788000000015000
B0508033144231S11746941EA0175301794000000015000
B0508073144306S11746915EA0176001803000000015000
B0508113144348S11746843EA0176801810000000015000
B0508153144342S11746772EA0177201814000000015000
B0508193144303S11746738EA0177501815000000015000
B0508233144255S11746751EA0177101806000000015000
B0508273144205S11746798EA0175301787000000015000
B0508313144150S11746862EA0174101779000000015000
B0508353144095S11746932EA0173001764000000015000
B0508393144041S11747011EA0171401740000000000000
B0508433143985S11747094EA0169901732000000000000
B0508473143932S11747176EA0168901719000000000000
B0508513143877S11747258EA0167401705000000000000
B0508553143821S11747340EA0166201692000000000000
B0508593143767S11747423EA0164901678000000000000
B0509033143711S11747505EA0163501665000000000000
B0509073143651S11747580EA0162701655000000000000
B0509113143595S11747652EA0162801659000000000000
B0509153143538S11747723EA0162401653000000000000
B0509193143482S11747798EA0161401641000000000000
B0509233143427S11747870EA0160501636000000000000
B0509273143375S11747943EA0160001628000000000000
B0509313143319S11748016EA0159201625000000000000
B0509353143265S11748087EA0159001624000000000000
B0509393143211S11748159EA0158601617000000000000
B0509433143157S11748230EA0157501606000000000000
B0509473143102S11748302EA0156501594000000000000
B0509513143046S11748373EA0155701582000000000000
B0509553142990S11748445EA0154201564000000000000
B0509593142935S11748520EA0152401545000000000000
B0510033142876S11748594EA0151201537000000000000
B0510073142819S11748665EA0150301524000000000000
B0510113142762S11748734EA0149501520000000000000
B0510153142707S11748799EA0149001515000000000000
B0510193142651S11748862EA0148001504000000000000
B0510233142593S11748922EA0147401496000000000000
B0510273142535S11748982EA0147601503000000000000
B0510313142483S11749039EA0148201508000000000000
B0510353142434S11749100EA0147801503000000000000
B0510393142383S11749159EA0147501499000000000000
B0510433142331S11749216EA0146801488000000000000
B0510473142279S11749274EA0144801465000000000000
B0510513142229S11749337EA0143601455000000000000
B0510553142181S11749398EA0142701445000000000000
B0510593142129S11749454EA0142001438000000000000
B0511033142079S11749508EA0141201429000000000000
B0511073142031S11749571EA0140201415000000000000
B0511113141983S11749641EA0138401396000000000000
B0511153141935S11749710EA0137701391000000000000
B0511193141883S11749768EA0137101386000000000000
B0511233141820S11749819EA0136301380000000000000
B0511273141758S11749866EA0136301381000000000000
B0511313141693S11749905EA0136401384000000000000
B0511353141623S11749922EA0137301399000000000000
B0511393141555S11749897EA0138601409000000000000
B0511433141524S11749826EA0140301438000000000000
B0511473141558S11749763EA0142701455000000015000
B0511513141622S11749763EA0143101453000000015000
B0511553141659S11749815EA0143301456000000015000
B0511593141649S11749876EA0143601459000000015000
B0512033141605S11749913EA0143901462000000015000
B0512073141547S11749920EA0143601458000000015000
B0512113141501S11749872EA0144101471000000015000
B0512153141507S11749796EA0145201476000000015000
B0512193141567S11749749EA0145601486000000015000
B0512233141628S11749772EA0146801495000000015000
B0512273141646S11749835EA0147401502000000030000
B0512313141618S11749885EA0147801502000000015000
B0512353141566S11749897EA0148001505000000015000
B0512393141514S11749872EA0147901502000000015000
B0512433141467S11749816EA0147601498000000015000
B0512473141408S11749768EA0147201492000000015000
B0512513141341S11749748EA0147401502000000015000
B0512553141285S11749793EA0148401506000000015000
B0512593141276S11749880EA0148601509000000015000
B0513033141319S11749957EA0149001513000000015000
B0513073141391S11749991EA0148901508000000015000
B0513113141471S11749987EA0148301503000000015000
B0513153141521S11749926EA0148101498000000015000
B0513193141502S11749857EA0148101497000000015000
B0513233141445S11749842EA0147701495000000015000
B0513273141384S11749852EA0147101486000000015000
B0513313141319S11749870EA0146201475000000015000
B0513353141250S11749884EA0145501470000000015000
B0513393141180S11749897EA0145101465000000000000
B0513433141109S11749915EA0144001451000000000000
B0513473141040S11749953EA0142501438000000000000
B0513513140974S11750002EA0141501426000000000000
B0513553140905S11750039EA0140701426000000000000
B0513593140836S11750040EA0141001424000000000000
B0514033140771S11750028EA0139801407000000000000
B0514073140704S11750032EA0138801396000000000000
B0514113140639S11750053EA0137701384000000000000
B0514153140575S11750080EA0136501371000000000000
B0514193140509S11750108EA0135401361000000000000
B0514233140441S11750136EA0134301350000000000000
B0514273140374S11750173EA0133501344000000000000
B0514313140306S11750214EA0132801336000000000000
B0514353140240S11750256EA0131701325000000000000
B0514393140172S11750296EA0130901314000000000000
B0514433140102S11750331EA0129601303000000000000
B0514473140029S11750356EA0129301311000000000000
B0514513139958S11750356EA0130001317000000000000
B0514553139894S11750331EA0130601318000000000000
B0514593139835S11750300EA0130401316000000000000
B0515033139774S11750271EA0129901310000000000000
B0515073139713S11750240EA0129401305000000000000
B0515113139652S11750208EA0129201303000000000000
B0515153139592S11750169EA0129101302000000000000
B0515193139529S11750134EA0128901299000000000000
B0515233139465S11750100EA0129301309000000000000
B0515273139409S11750115EA0130801318000000000000
B0515313139428S11750193EA0131001316000000000000
B0515353139509S11750206EA0130601316000000000000
B0515393139584S11750161EA0130701319000000015000
B0515433139617S11750086EA0131401325000000015000
B0515473139579S11750034EA0131401324000000015000
B0515513139523S11750002EA0131201324000000015000
B0515553139467S11750005EA0131701324000000015000
B0515593139473S11750078EA0132301330000000015000
B0516033139535S11750122EA0131801322000000015000
B0516073139603S11750092EA0130901304000000015000
B0516113139633S11750011EA0129201300000000015000
B0516153139646S11749930EA0130001319000000015000
B0516193139609S11749898EA0131801333000000015000
B0516233139605S11749958EA0132301330000000015000
B0516273139669S11750004EA0131001309000000015000
B0516313139746S11749962EA0129501306000000015000
B0516353139777S11749883EA0130101317000000015000
B0516393139739S11749835EA0131301327000000015000
B0516433139685S11749814EA0131601330000000015000
B0516473139664S11749876EA0133001345000000015000
B0516513139737S11749911EA0134101355000000015000
B0516553139798S11749863EA0134501360000000015000
B0516593139799S11749797EA0135601372000000015000
B0517033139752S11749779EA0136201376000000015000
B0517073139743S11749845EA0137001388000000015000
B0517113139809S11749881EA0137901395000000015000
B0517153139867S11749831EA0138201402000000015000
B0517193139842S11749776EA0139401413000000015000
B0517233139799S11749810EA0140301424000000015000
B0517273139826S11749884EA0141401433000000015000
B0517313139907S11749897EA0141701436000000015000
B0517353139959S11749835EA0142201445000000015000
B0517393139934S11749777EA0143601465000000015000
B0517433139890S11749792EA0145401483000000015000
B0517473139891S11749862EA0146601492000000015000
B0517513139956S11749906EA0147401500000000015000
B0517553140028S11749879EA0148401509000000015000
B0517593140047S11749814EA0149601523000000015000
B0518033140006S11749790EA0150401531000000015000
B0518073139980S11749841EA0151701550000000015000
B0518113140016S11749907EA0152801555000000015000
B0518153140091S11749927EA0153301565000000015000
B0518193140154S11749889EA0154201571000000015000
B0518233140175S11749823EA0154901580000000015000
B0518273140141S11749787EA0155701591000000015000
B0518313140120S11749840EA0157101604000000015000
B0518353140177S11749885EA0158101613000000015000
B0518393140238S11749852EA0158601615000000015000
B0518433140245S11749787EA0158901624000000015000
B0518473140206S11749755EA0159901640000000015000
B0518513140168S11749788EA0161201650000000015000
B0518553140195S11749857EA0162701667000000015000
B0518593140267S11749868EA0163701671000000015000
B0519033140314S11749815EA0163801671000000015000
B0519073140297S11749759EA0164001681000000015000
B0519113140250S11749766EA0165501697000000015000
B0519153140232S11749828EA0166901707000000015000
B0519193140267S11749904EA0167801716000000015000
B0519233140341S11749935EA0168701724000000015000
B0519273140407S11749898EA0169201734000000015000
B0519313140431S11749833EA0170101740000000015000
B0519353140406S11749783EA0170301740000000015000
B0519393140358S11749787EA0171201754000000015000
B0519433140337S11749846EA0172801774000000015000
B0519473140376S11749915EA0173901781000000015000
B0519513140449S11749935EA0174301785000000015000
B0519553140510S11749888EA0174601791000000015000
B0519593140520S11749818EA0175301795000000015000
B0520033140485S11749783EA0176301811000000015000
B0520073140455S11749823EA0178001827000000015000
B0520113140484S11749891EA0178901836000000015000
B0520153140557S11749905EA0179501841000000015000
B0520193140609S11749852EA0179801843000000015000
B0520233140606S11749785EA0180501853000000015000
B0520273140565S11749759EA0181801866000000015000
B0520313140524S11749792EA0183101880000000015000
B0520353140519S11749862EA0184401894000000015000
B0520393140566S11749924EA0184901892000000015000
B0520433140644S11749935EA0185201900000000015000
B0520473140702S11749888EA0186101907000000015000
B0520513140715S11749820EA0186501919000000015000
B0520553140695S11749762EA0187701931000000015000
B0520593140654S11749770EA0189601957000000015000
B0521033140673S11749835EA0191601969000000015000
B0521073140745S11749862EA0191501959000000015000
B0521113140806S11749809EA0191701975000000015000
B0521153140809S11749740EA0193401991000000015000
B0521193140769S11749707EA0194601999000000015000
B0521233140725S11749741EA0195302008000000015000
B0521273140726S11749816EA0196602026000000015000
B0521313140783S11749876EA0198202041000000015000
B0521353140860S11749885EA0199002044000000015000
B0521393140914S11749829EA0199602056000000015000
B0521433140920S11749761EA0200802072000000015000
B0521473140878S11749735EA0202102082000000015000
B0521513140838S11749767EA0203302095000000015000
B0521553140843S11749836EA0205002117000000015000
B0521593140897S11749888EA0206202123000000015000
B0522033140972S11749885EA0206502124000000015000
B0522073141016S11749827EA0206702127000000015000
B0522113141008S11749763EA0207702142000000015000
B0522153140969S11749727EA0209002154000000015000
B0522193140922S11749722EA0209702164000000015000
B0522233140894S11749770EA0211002176000000015000
B0522273140918S11749840EA0211302182000000015000
B0522313140986S11749871EA0212502195000000015000
B0522353141053S11749837EA0212802191000000015000
B0522393141077S11749763EA0213102200000000015000
B0522433141056S11749707EA0214502215000000015000
B0522473141014S11749694EA0215402220000000015000
B0522513140975S11749735EA0215702222000000015000
B0522553140975S11749807EA0215902228000000015000
B0522593141030S11749867EA0216702236000000015000
B0523033141116S11749878EA0217002238000000015000
B0523073141200S11749849EA0217202241000000015000
B0523113141228S11749774EA0217702249000000015000
B0523153141191S11749733EA0218802258000000015000
B0523193141141S11749748EA0218702245000000015000
B0523233141089S11749793EA0216702220000000015000
B0523273141030S11749854EA0214302196000000015000
B0523313140966S11749923EA0212902184000000015000
B0523353140899S11749992EA0211302168000000000000
B0523393140830S11750065EA0209702149000000000000
B0523433140760S11750139EA0207802132000000000000
B0523473140688S11750209EA0207102127000000000000
B0523513140621S11750275EA0207002129000000000000
B0523553140556S11750342EA0206602119000000000000
B0523593140491S11750408EA0205702112000000000000
B0524033140424S11750476EA0204902101000000000000
B0524073140359S11750542EA0203402085000000000000
B0524113140293S11750608EA0202102071000000000000
B0524153140228S11750671EA0201302066000000000000
B0524193140162S11750723EA0201302066000000000000
B0524233140097S11750772EA0202002076000000000000
B0524273140034S11750816EA0202702084000000000000
B0524313139974S11750860EA0203302094000000000000
B0524353139917S11750905EA0203402086000000000000
B0524393139857S11750949EA0202202072000000000000
B0524433139799S11750998EA0201002058000000000000
B0524473139738S11751049EA0200002053000000000000
B0524513139678S11751100EA0199502046000000000000
B0524553139618S11751153EA0198002027000000000000
B0524593139555S11751207EA0196202008000000000000
B0525033139488S11751265EA0195202002000000000000
B0525073139422S11751321EA0194701988000000000000
B0525113139354S11751376EA0193201973000000000000
B0525153139285S11751434EA0191501953000000000000
B0525193139218S11751495EA0190501952000000000000
B0525233139155S11751553EA0190501953000000000000
B0525273139092S11751604EA0190001945000000000000
B0525313139033S11751653EA0189801945000000000000
B0525353138973S11751701EA0189201939000000000000
B0525393138912S11751748EA0189001939000000000000
B0525433138855S11751799EA0189101943000000000000
B0525473138798S11751852EA0189101944000000000000
B0525513138742S11751906EA0189601956000000000000
B0525553138680S11751929EA0190901969000000000000
B0525593138620S11751922EA0192901993000000000000
B0526033138567S11751902EA0195302018000000000000
B0526073138516S11751898EA0197202032000000000000
B0526113138499S11751961EA0198102036000000000000
B0526153138547S11752025EA0198602043000000000000
B0526193138626S11752021EA0199702057000000000000
B0526233138686S11751961EA0200902068000000000000
B0526273138693S11751880EA0201702080000000015000
B0526313138648S11751841EA0203002095000000015000
B0526353138609S11751880EA0204302102000000015000
B0526393138641S11751954EA0205002106000000015000
B0526433138720S11751969EA0205702117000000015000
B0526473138781S11751908EA0207002131000000015000
B0526513138785S11751824EA0208002138000000015000
B0526553138742S11751773EA0208902150000000015000
B0526593138685S11751781EA0210002163000000015000
B0527033138658S11751847EA0211402176000000015000
B0527073138693S11751926EA0212402188000000015000
B0527113138771S11751958EA0213502196000000015000
B0527153138846S11751912EA0214302206000000015000
B0527193138871S11751824EA0215402222000000015000
B0527233138843S11751751EA0216802238000000015000
B0527273138790S11751738EA0218502257000000015000
B0527313138768S11751795EA0220702275000000015000
B0527353138816S11751856EA0221902282000000015000
B0527393138898S11751864EA0222202285000000015000
B0527433138968S11751811EA0222802296000000015000
B0527473138998S11751726EA0224302313000000015000
B0527513138983S11751653EA0225602330000000015000
B0527553138937S11751618EA0226802339000000015000
B0527593138889S11751635EA0227402342000000015000
B0528033138867S11751695EA0228002351000000015000
B0528073138897S11751765EA0229202363000000015000
B0528113138968S11751792EA0230902381000000015000
B0528153139036S11751752EA0231702384000000015000
B0528193139057S11751673EA0231702387000000015000
B0528233139032S11751600EA0232102390000000015000
B0528273138980S11751570EA0232102389000000015000
B0528313138923S11751590EA0231202367000000015000
B0528353138859S11751633EA0228902346000000015000
B0528393138791S11751688EA0227602339000000015000
B0528433138720S11751751EA0226702331000000015000
B0528473138646S11751818EA0225902323000000000000
B0528513138572S11751890EA0224602309000000000000
B0528553138499S11751961EA0223802298000000000000
B0528593138427S11752034EA0223202300000000000000
B0529033138361S11752103EA0223902307000000000000
B0529073138297S11752169EA0223602300000000000000
B0529113138235S11752242EA0222902291000000000000
B0529153138174S11752319EA0222402291000000000000
B0529193138117S11752393EA0223902315000000000000
B0529233138066S11752459EA0225402322000000000000
B0529273138010S11752527EA0224302304000000000000
B0529313137949S11752596EA0223702305000000000000
B0529353137887S11752658EA0224302313000000000000
B0529393137823S11752715EA0224602314000000000000
B0529433137758S11752771EA0225102323000000000000
B0529473137694S11752816EA0226902342000000000000
B0529513137631S11752825EA0228302355000000000000
B0529553137572S11752809EA0229002360000000000000
B0529593137523S11752765EA0229202353000000000000
B0530033137471S11752719EA0228002337000000000000
B0530073137406S11752695EA0225802312000000000000
B0530113137334S11752718EA0223902301000000000000
B0530153137269S11752762EA0223102295000000000000
B0530193137209S11752819EA0222002279000000000000
B0530233137150S11752886EA0220102256000000000000
B0530273137090S11752959EA0218402246000000000000
B0530313137035S11753030EA0218202243000000000000
B0530353136983S11753104EA0217402229000000000000
B0530393136929S11753180EA0216702228000000000000
B0530433136877S11753252EA0216602228000000000000
B0530473136823S11753326EA0216102222000000000000
B0530513136770S11753397EA0215802215000000000000
B0530553136717S11753469EA0214702202000000000000
B0530593136665S11753546EA0213702192000000000000
B0531033136607S11753619EA0212302179000000000000
B0531073136548S11753689EA0211702172000000000000
B0531113136492S11753763EA0211002165000000000000
B0531153136436S11753835EA0210202161000000000000
B0531193136385S11753902EA0210402163000000000000
B0531233136346S11753976EA0210202159000000000000
B0531273136315S11754057EA0208902143000000000000
B0531313136272S11754127EA0207702131000000000000
B0531353136216S11754177EA0206902124000000000000
B0531393136156S11754216EA0206402116000000000000
B0531433136095S11754252EA0205202100000000000000
B0531473136032S11754288EA0203502085000000000000
B0531513135967S11754320EA0202802084000000000000
B0531553135905S11754347EA0202902084000000000000
B0531593135844S11754374EA0203102088000000000000
B0532033135786S11754399EA0203502091000000000000
B0532073135725S11754416EA0203702097000000000000
B0532113135666S11754409EA0205602120000000000000
B0532153135639S11754346EA0207402144000000000000
B0532193135688S11754288EA0209802170000000000000
B0532233135761S11754307EA0211302170000000015000
B0532273135788S11754376EA0211402180000000015000
B0532313135757S11754404EA0212902196000000015000
B0532353135736S11754353EA0214502208000000015000
B0532393135772S11754287EA0215402222000000015000
B0532433135842S11754261EA0216502232000000015000
B0532473135917S11754281EA0217602238000000015000
B0532513135977S11754335EA0218002241000000015000
B0532553136003S11754409EA0218302243000000015000
B0532593135983S11754472EA0218202238000000015000
B0533033135933S11754496EA0218402253000000015000
B0533073135879S11754502EA0220002279000000015000
B0533113135850S11754451EA0222302301000000015000
B0533153135870S11754376EA0224002311000000015000
B0533193135933S11754318EA0224502315000000015000
B0533233136016S11754300EA0225102326000000015000
B0533273136095S11754322EA0226702341000000015000
B0533313136156S11754373EA0227902349000000015000
B0533353136188S11754444EA0228402353000000015000
B0533393136181S11754512EA0228702357000000015000
B0533433136138S11754548EA0229402366000000015000
B0533473136091S11754529EA0230602389000000015000
B0533513136076S11754465EA0232702407000000015000
B0533553136107S11754390EA0234102420000000015000
B0533593136176S11754339EA0235602438000000015000
B0534033136259S11754338EA0237602458000000015000
B0534073136329S11754386EA0238802462000000015000
B0534113136367S11754463EA0239002464000000015000
B0534153136370S11754542EA0239902477000000015000
B0534193136340S11754597EA0240702489000000015000
B0534233136293S11754611EA0241902501000000015000
B0534273136246S11754590EA0243002512000000015000
B0534313136207S11754542EA0244102523000000015000
B0534353136215S11754464EA0245602548000000015000
B0534393136285S11754421EA0248402576000000015000
B0534433136366S11754444EA0250402591000000015000
B0534473136423S11754512EA0251202601000000015000
B0534513136438S11754593EA0252802616000000015000
B0534553136415S11754656EA0253702630000000015000
B0534593136368S11754684EA0255102643000000015000
B0535033136319S11754668EA0256402658000000015000
B0535073136288S11754612EA0257902673000000015000
B0535113136290S11754534EA0259402688000000015000
B0535153136333S11754457EA0261302712000000015000
B0535193136407S11754412EA0263602736000000015000
B0535233136493S11754405EA0265702753000000015000
B0535273136579S11754437EA0266502761000000015000
B0535313136654S11754495EA0267702776000000015000
B0535353136702S11754569EA0269302795000000015000
B0535393136718S11754647EA0271102809000000015000
B0535433136704S11754716EA0272102811000000015000
B0535473136665S11754768EA0272302815000000015000
B0535513136609S11754785EA0272802825000000015000
B0535553136555S11754759EA0273902837000000015000
B0535593136523S11754698EA0274702840000000015000
B0536033136503S11754621EA0275002848000000000000
B0536073136524S11754537EA0276502871000000000000
B0536113136592S11754491EA0278702900000000015000
B0536153136667S11754509EA0281002917000000015000
B0536193136717S11754572EA0282002926000000015000
B0536233136721S11754645EA0282902932000000015000
B0536273136685S11754694EA0283602941000000015000
B0536313136636S11754703EA0284402949000000015000
B0536353136591S11754675EA0285202958000000015000
B0536393136565S11754611EA0286502980000000015000
B0536433136570S11754534EA0289003006000000015000
B0536473136617S11754473EA0292403042000000015000
B0536513136688S11754454EA0295303067000000015000
B0536553136763S11754485EA0296803084000000015000
B0536593136812S11754554EA0298303102000000015000
B0537033136821S11754628EA0299903117000000015000
B0537073136799S11754688EA0300803121000000015000
B0537113136752S11754715EA0301003122000000015000
B0537153136698S11754698EA0301403124000000015000
B0537193136652S11754647EA0302103139000000015000
B0537233136640S11754571EA0304803171000000015000
B0537273136670S11754493EA0307203193000000000000
B0537313136732S11754430EA0309303215000000015000
B0537353136813S11754400EA0311203246000000015000
B0537393136897S11754413EA0314203276000000015000
B0537433136974S11754456EA0316603295000000015000
B0537473137026S11754526EA0318903316000000015000
B0537513137043S11754607EA0320303326000000015000
B0537553137026S11754678EA0320903326000000015000
B0537593136982S11754724EA0320703325000000015000
B0538033136925S11754734EA0320803331000000015000
B0538073136869S11754712EA0322203348000000015000
B0538113136825S11754663EA0323303358000000000000
B0538153136806S11754587EA0324503378000000000000
B0538193136832S11754508EA0326703404000000000000
B0538233136892S11754457EA0329103423000000015000
B0538273136971S11754446EA0330503436000000015000
B0538313137047S11754486EA0332003456000000015000
B0538353137095S11754563EA0333903471000000015000
B0538393137105S11754650EA0335303486000000015000
B0538433137081S11754719EA0337103505000000015000
B0538473137033S11754753EA0338403517000000015000
B0538513136981S11754742EA0339503528000000015000
B0538553136947S11754691EA0340603546000000015000
B0538593136960S11754620EA0343103572000000015000
B0539033137014S11754568EA0344903577000000015000
B0539073137096S11754550EA0345303584000000015000
B0539113137181S11754573EA0345803595000000015000
B0539153137252S11754636EA0346803602000000015000
B0539193137300S11754721EA0347803613000000015000
B0539233137330S11754812EA0348303616000000015000
B0539273137337S11754906EA0347403603000000015000
B0539313137311S11754990EA0347003602000000015000
B0539353137265S11755059EA0347403601000000015000
B0539393137213S11755127EA0347403604000000015000
B0539433137157S11755198EA0347703611000000000000
B0539473137105S11755273EA0348703620000000000000
B0539513137057S11755352EA0348403607000000000000
B0539553137005S11755436EA0347803601000000000000
B0539593136955S11755521EA0347703589000000000000
B0540033136903S11755613EA0345503566000000000000
B0540073136845S11755707EA0343503545000000000000
B0540113136786S11755800EA0342603540000000000000
B0540153136727S11755897EA0341303522000000000000
B0540193136667S11755993EA0340203516000000000000
B0540233136610S11756089EA0339003500000000000000
B0540273136553S11756186EA0337503489000000000000
B0540313136497S11756284EA0336403474000000000000
B0540353136441S11756383EA0334903462000000000000
B0540393136389S11756476EA0334103456000000000000
B0540433136345S11756567EA0333903458000000000000
B0540473136311S11756658EA0333903458000000000000
B0540513136281S11756751EA0333303447000000000000
B0540553136246S11756844EA0331403424000000000000
B0540593136197S11756938EA0329303399000000000000
B0541033136136S11757029EA0327403381000000000000
B0541073136067S11757112EA0326203371000000000000
B0541113135996S11757190EA0326103375000000000000
B0541153135929S11757264EA0326203376000000000000
B0541193135859S11757337EA0326203372000000000000
B0541233135788S11757411EA0325703367000000000000
B0541273135720S11757485EA0325603365000000000000
B0541313135651S11757561EA0325303363000000000000
B0541353135583S11757631EA0325503367000000000000
B0541393135515S11757698EA0325403365000000000000
B0541433135449S11757767EA0325503364000000000000
B0541473135392S11757847EA0325903375000000000000
B0541513135344S11757928EA0326703380000000000000
B0541553135298S11758012EA0326103373000000000000
B0541593135250S11758096EA0325603368000000000000
B0542033135205S11758177EA0326003378000000000000
B0542073135159S11758253EA0325803365000000000000
B0542113135110S11758338EA0324203347000000000000
B0542153135062S11758428EA0323303341000000000000
B0542193135014S11758515EA0322803337000000000000
B0542233134969S11758602EA0321503323000000000000
B0542273134923S11758685EA0321903333000000000000
B0542313134875S11758760EA0322603339000000000000
B0542353134825S11758835EA0323103345000000000000
B0542393134773S11758896EA0324403367000000000000
B0542433134769S11758976EA0327303398000000000000
B0542473134843S11759006EA0329903428000000000000
B0542513134899S11758954EA0332403453000000000000
B0542553134899S11758887EA0333403456000000000000
B0542593134855S11758853EA0334003461000000000000
B0543033134810S11758877EA0334603472000000000000
B0543073134798S11758940EA0335803484000000000000
B0543113134833S11759000EA0336903493000000000000
B0543153134912S11759000EA0337603499000000000000
B0543193134971S11758937EA0338503507000000000000
B0543233134972S11758858EA0338903514000000000000
B0543273134925S11758824EA0339203516000000015000
B0543313134880S11758857EA0338903509000000015000
B0543353134839S11758916EA0337303473000000015000
B0543393134795S11758992EA0334203443000000000000
B0543433134751S11759079EA0331403419000000000000
B0543473134708S11759171EA0330603419000000000000
B0543513134669S11759265EA0330103413000000000000
B0543553134633S11759362EA0328803399000000000000
B0543593134596S11759461EA0327503388000000000000
B0544033134563S11759564EA0326303379000000000000
B0544073134529S11759667EA0325303367000000000000
B0544113134490S11759769EA0324203350000000000000
B0544153134446S11759871EA0322703336000000000000
B0544193134401S11759972EA0321703328000000000000
B0544233134357S11800072EA0320803318000000000000
B0544273134312S11800174EA0319903313000000000000
B0544313134265S11800278EA0319203303000000000000
B0544353134221S11800379EA0318903303000000000000
B0544393134176S11800482EA0318803303000000000000
B0544433134131S11800578EA0319503311000000000000
B0544473134087S11800673EA0319503308000000000000
B0544513134040S11800766EA0318903302000000000000
B0544553133988S11800859EA0317903287000000000000
B0544593133935S11800954EA0316903280000000000000
B0545033133885S11801050EA0316703278000000000000
B0545073133842S11801149EA0315903271000000000000
B0545113133802S11801251EA0315403260000000000000
B0545153133763S11801358EA0314203245000000000000
B0545193133729S11801471EA0313503247000000000000
B0545233133701S11801585EA0313903250000000000000
B0545273133676S11801697EA0313903248000000000000
B0545313133654S11801810EA0313303242000000000000
B0545353133630S11801923EA0312303232000000000000
B0545393133607S11802038EA0311603226000000000000
B0545433133585S11802150EA0311203222000000000000
B0545473133563S11802261EA0310803219000000000000
B0545513133543S11802372EA0310603217000000000000
B0545553133525S11802482EA0310203212000000000000
B0545593133502S11802589EA0310003212000000000000
B0546033133477S11802693EA0309803207000000000000
B0546073133450S11802798EA0309403205000000000000
B0546113133421S11802900EA0308803196000000000000
B0546153133390S11803004EA0307603184000000000000
B0546193133357S11803109EA0306903177000000000000
B0546233133318S11803206EA0307103186000000000000
B0546273133276S11803297EA0307703186000000000000
B0546313133235S11803390EA0307503184000000000000
B0546353133196S11803486EA0307103178000000000000
B0546393133160S11803589EA0306503167000000000000
B0546433133127S11803694EA0305303160000000000000
B0546473133094S11803795EA0304803154000000000000
B0546513133060S11803895EA0304403149000000000000
B0546553133029S11803994EA0304003145000000000000
B0546593132999S11804096EA0303403138000000000000
B0547033132971S11804200EA0302803130000000000000
B0547073132943S11804308EA0302103124000000000000
B0547113132917S11804418EA0301303119000000000000
B0547153132893S11804530EA0300703106000000000000
B0547193132870S11804647EA0299303091000000000000
B0547233132849S11804766EA0298203083000000000000
B0547273132831S11804885EA0297903083000000000000
B0547313132815S11805000EA0297903080000000000000
B0547353132798S11805114EA0297603080000000000000
B0547393132779S11805223EA0297503078000000000000
B0547433132757S11805331EA0297103072000000000000
B0547473132733S11805439EA0295903053000000000000
B0547513132710S11805549EA0294403040000000000000
B0547553132687S11805658EA0293803038000000000000
B0547593132665S11805766EA0293603039000000000000
B0548033132645S11805871EA0293803042000000000000
B0548073132628S11805973EA0293703035000000000000
B0548113132610S11806076EA0292503025000000000000
B0548153132594S11806173EA0293203043000000000000
B0548193132577S11806259EA0294603053000000000000
B0548233132561S11806345EA0294503046000000000000
B0548273132541S11806430EA0293603038000000000000
B0548313132522S11806515EA0293203037000000000000
B0548353132502S11806599EA0293103031000000000000
B0548393132485S11806688EA0292203019000000000000
B0548433132471S11806781EA0290403000000000000000
B0548473132460S11806878EA0288702980000000000000
B0548513132447S11806976EA0287302969000000000000
B0548553132436S11807074EA0286502963000000000000
B0548593132421S11807170EA0285702954000000000000
B0549033132405S11807266EA0284802945000000000000
B0549073132384S11807360EA0284102940000000000000
B0549113132359S11807448EA0283702936000000000000
B0549153132330S11807530EA0283802937000000000000
B0549193132304S11807611EA0283702933000000000000
B0549233132276S11807693EA0283402937000000000000
B0549273132246S11807768EA0284002942000000000000
B0549313132215S11807841EA0284402947000000000000
B0549353132169S11807897EA0284602947000000000000
