ACAM4N6
HFDTE250223
HFFXA050
HFPLTPILOT:JOHN WELSH              
HFGTYGLIDERTYPE:HORNET      
HFGIDGLIDERID:VH-GMY      
HFDTM100GPSDATUM:
HFRFWFIRMWAREVERSION:F2.6
HFRHWHARDWAREVERSION:300 Series Version 2
HFFTYFRTYPE:CAMBRIDGE AERO INSTRUMENTS, 302+
HFGPS:GARMIN,LVS-25,12,18000
HFPRSPRESSALTSENSOR:INTERSEMA, MS5534-AP, 20000
I033638FXA3941ENL4247REX
LCAMSBVER:5FWVER:F26300
C180223051851180223000103
C0000000N00000000WTAKEOFF     
C3207549S11656849EBEVERLEY AF 
C3255649S11704982ENarrogin AF 
C3256166S11710665ENarroginSilo
C3137399S11712982ECunderdnrdrm
C3207549S11656849EBEVERLEY AF 
C0000000N00000000WLANDING     
B0508593207332S11656864EA0019300215000000000000
B0509013207332S11656864EA0019300215000000000000
B0509033207332S11656864EA0019300215000000000000
B0509053207332S11656864EA0019300215000000000000
B0509073207332S11656864EA0019300215000000000000
B0509093207332S11656864EA0019200215000000000000
B0509113207332S11656864EA0019300215000000000000
B0509133207332S11656864EA0019200215000000000000
B0509153207332S11656864EA0019200214000000000000
B0509173207332S11656864EA0019300214000000000000
B0509193207332S11656864EA0019200214000000000000
B0509213207332S11656864EA0019300214000000000000
B0509233207332S11656864EA0019300214000000000000
B0509253207332S11656864EA0019300214000000000000
B0509273207334S11656865EA0019300214000000000000
B0509303207345S11656871EA0019400213000000000000
B0509343207371S11656890EA0019300213000004000000
B0509383207411S11656914EA0019400213000004000000
B0509423207463S11656945EA0019500213000004000000
B0509463207524S11656986EA0019600215000000000000
B0509503207585S11657030EA0020400225000004000000
B0509543207640S11657078EA0021800243000000000000
B0509583207693S11657121EA0023300266000004000000
B0510023207748S11657157EA0024900278000004000000
B0510063207805S11657192EA0026100291000004000000
B0510103207857S11657237EA0027100302000004000000
B0510143207882S11657303EA0028500322000004000000
B0510183207880S11657372EA0030900344000004000000
B0510223207880S11657441EA0032300352000004000000
B0510263207893S11657501EA0034100380000000000000
B0510303207901S11657563EA0036000396000000000000
B0510343207872S11657627EA0037400406000004000000
B0510383207811S11657670EA0038200413000004000000
B0510423207735S11657677EA0039100421000004000000
B0510463207657S11657651EA0040100432000000000000
B0510503207585S11657599EA0041400447000004000000
B0510543207528S11657524EA0043300472000004000000
B0510583207495S11657436EA0046200502000000000000
B0511023207468S11657341EA0048100514000004000000
B0511063207443S11657248EA0050200541000004000000
B0511103207451S11657153EA0052900572000004000000
B0511143207493S11657073EA0055500595000004000000
B0511183207559S11657026EA0057200611000000000000
B0511223207631S11657029EA0058700625000000000000
B0511263207685S11657073EA0060100640000004000000
B0511303207714S11657134EA0062500671000004000000
B0511343207741S11657194EA0064100675000000000000
B0511383207806S11657194EA0064200676000004000000
B0511423207833S11657108EA0064400679000004000000
B0511463207794S11657026EA0064300674000000000000
B0511503207724S11657001EA0063400662000000000000
B0511543207668S11657038EA0062600660000000000000
B0511583207683S11657094EA0063500675000000000000
B0512023207737S11657049EA0065600697000004000000
B0512063207724S11656964EA0065700686000004000000
B0512103207663S11656932EA0065200692000004000000
B0512143207623S11656970EA0066200696000004000000
B0512183207662S11657000EA0066800701000000000000
B0512223207685S11656921EA0067200706000004000000
B0512263207632S11656879EA0067600710000004000000
B0512303207598S11656921EA0067400704000004000000
B0512343207623S11656981EA0066800699000004000000
B0512383207684S11656964EA0067800718000000000000
B0512423207689S11656880EA0068600717000000000000
B0512463207632S11656828EA0067900711000000000000
B0512503207579S11656853EA0068800727000004000000
B0512543207609S11656891EA0070300738000004000000
B0512583207650S11656832EA0070900742000000000000
B0513023207601S11656767EA0071000743000004000000
B0513063207559S11656805EA0071700757000004000000
B0513103207601S11656840EA0072700761000004000000
B0513143207638S11656775EA0073400768000004000000
B0513183207596S11656700EA0073200769000000000000
B0513223207534S11656709EA0074100780000004000000
B0513263207537S11656761EA0075100788000004000000
B0513303207586S11656723EA0075800795000004000000
B0513343207545S11656658EA0076000797000004000000
B0513383207503S11656695EA0076400801000004000000
B0513423207546S11656728EA0077200811000004000000
B0513463207573S11656659EA0078500822000004000000
B0513503207521S11656610EA0078900833000004000000
B0513543207485S11656646EA0079500830000004000000
B0513583207529S11656669EA0079500833000004000000
B0514023207549S11656589EA0080000840000000000000
B0514063207492S11656559EA0080900856000000000000
B0514103207479S11656601EA0082400870000000000000
B0514143207524S11656602EA0083100867000000000000
B0514183207542S11656528EA0083600878000000000000
B0514223207497S11656475EA0084100881000000000000
B0514263207449S11656496EA0084500889000000000000
B0514303207458S11656541EA0085400898000000000000
B0514343207506S11656533EA0086200904000000000000
B0514383207529S11656464EA0086100899000004000000
B0514423207495S11656393EA0085900903000004000000
B0514463207438S11656379EA0086400908000004000000
B0514503207412S11656419EA0086600908000000000000
B0514543207423S11656470EA0086500906000000000000
B0514583207473S11656454EA0086600903000000000000
B0515023207488S11656363EA0085800893000000000000
B0515063207447S11656280EA0086400906000000000000
B0515103207389S11656279EA0087700923000004000000
B0515143207385S11656324EA0088100924000004000000
B0515183207434S11656329EA0088900934000000000000
B0515223207464S11656264EA0089800943000000000000
B0515263207437S11656191EA0090300949000000000000
B0515303207381S11656177EA0090600949000000000000
B0515343207363S11656219EA0090700951000000000000
B0515383207403S11656242EA0091000957000000000000
B0515423207438S11656182EA0092000968000000000000
B0515463207407S11656111EA0092900975000000000000
B0515503207354S11656104EA0093300977000004000000
B0515543207337S11656150EA0093300978000000000000
B0515583207367S11656186EA0093700982000000000000
B0516023207416S11656167EA0094100985000000000000
B0516063207436S11656089EA0094400990000000000000
B0516103207395S11656021EA0095501004000004000000
B0516143207342S11656022EA0096101008000000000000
B0516183207334S11656067EA0096501009000000000000
B0516223207380S11656078EA0096701011000000000000
B0516263207416S11656017EA0097201024000000000000
B0516303207391S11655944EA0098501037000000000000
B0516343207337S11655941EA0098901035000000000000
B0516383207325S11655987EA0099301046000000000000
B0516423207362S11656002EA0100201052000000000000
B0516463207397S11655951EA0100701059000000000000
B0516503207381S11655877EA0101401058000000000000
B0516543207319S11655838EA0101101063000000000000
B0516583207269S11655856EA0102201070000000000000
B0517023207272S11655902EA0102201067000000000000
B0517063207317S11655909EA0102401076000004000000
B0517103207356S11655855EA0103201079000004000000
B0517143207351S11655768EA0103201079000004000000
B0517183207298S11655705EA0103801090000004000000
B0517223207247S11655716EA0104501096000000000000
B0517263207254S11655759EA0104701095000000000000
B0517303207304S11655756EA0104801098000004000000
B0517343207345S11655700EA0105701108000004000000
B0517383207345S11655616EA0106401117000004000000
B0517423207300S11655552EA0107001117000004000000
B0517463207250S11655560EA0106801114000004000000
B0517503207237S11655608EA0105801100000000000000
B0517543207250S11655668EA0104301088000000000000
B0517583207272S11655734EA0103901086000004000000
B0518023207299S11655801EA0103301075000000000000
B0518063207326S11655873EA0102001061000000000000
B0518103207355S11655948EA0100901051000000000000
B0518143207382S11656026EA0100501052000004000000
B0518183207407S11656100EA0100601053000000000000
B0518223207434S11656173EA0099701040000000000000
B0518263207467S11656246EA0098501026000000000000
B0518303207498S11656321EA0096801005000000000000
B0518343207534S11656396EA0096701023000000000000
B0518383207568S11656459EA0099301054000000000000
B0518423207606S11656513EA0101601070000000000000
B0518463207667S11656502EA0103001081000000000000
B0518503207683S11656419EA0104001089000004000000
B0518543207627S11656363EA0104301091000000000000
B0518583207560S11656379EA0104001088000004000000
B0519023207542S11656440EA0105301104000000000000
B0519063207585S11656466EA0105401096000000000000
B0519103207637S11656410EA0104901095000000000000
B0519143207622S11656323EA0105801108000004000000
B0519183207560S11656282EA0105901105000004000000
B0519223207497S11656306EA0106001110000004000000
B0519263207490S11656360EA0106301112000004000000
B0519303207544S11656375EA0106101105000004000000
B0519343207598S11656319EA0105201097000000000000
B0519383207623S11656228EA0105201104000000000000
B0519423207586S11656151EA0106001108000000000000
B0519463207516S11656155EA0105701108000000000000
B0519503207486S11656216EA0105901115000004000000
B0519543207499S11656277EA0106701121000004000000
B0519583207557S11656275EA0107401126000004000000
B0520023207584S11656202EA0107601124000000000000
B0520063207537S11656138EA0107301122000000000000
B0520103207476S11656151EA0106801118000000000000
B0520143207445S11656204EA0106901122000000000000
B0520183207438S11656267EA0106601115000000000000
B0520223207449S11656336EA0106101111000000000000
B0520263207464S11656407EA0106301117000004000000
B0520303207485S11656479EA0106801117000004000000
B0520343207508S11656552EA0105701104000004000000
B0520383207528S11656632EA0104701091000004000000
B0520423207547S11656713EA0103901086000004000000
B0520463207566S11656792EA0103201079000004000000
B0520503207581S11656870EA0102301071000000000000
B0520543207599S11656948EA0101601060000000000000
B0520583207619S11657027EA0100301046000000000000
B0521023207636S11657111EA0099001036000000000000
B0521063207646S11657196EA0098501032000000000000
B0521103207657S11657282EA0097801021000004000000
B0521143207667S11657372EA0096401011000004000000
B0521183207679S11657459EA0096301013000004000000
B0521223207689S11657541EA0096201009000004000000
B0521263207702S11657623EA0095701003000004000000
B0521303207713S11657705EA0095300999000000000000
B0521343207720S11657788EA0095000997000000000000
B0521383207724S11657870EA0095000997000000000000
B0521423207729S11657949EA0094900995000004000000
B0521463207739S11658026EA0095301005000000000000
B0521503207749S11658097EA0096201015000000000000
B0521543207772S11658158EA0097701030000004000000
B0521583207830S11658144EA0098401030000000000000
B0522023207837S11658054EA0098101028000000000000
B0522063207784S11657984EA0097901025000000000000
B0522103207716S11657983EA0098101036000000000000
B0522143207674S11658034EA0099001042000004000000
B0522183207655S11658102EA0099501047000004000000
B0522223207651S11658174EA0100801066000000000000
B0522263207700S11658188EA0102701075000000000000
B0522303207713S11658104EA0102701073000000000000
B0522343207653S11658037EA0103201091000004000000
B0522383207594S11658071EA0105201109000004000000
B0522423207623S11658121EA0106901124000004000000
B0522463207679S11658095EA0107701125000000000000
B0522503207685S11658005EA0108101137000004000000
B0522543207627S11657949EA0109801154000004000000
B0522583207564S11657978EA0111001167000000000000
B0523023207560S11658047EA0112101175000000000000
B0523063207615S11658052EA0113201187000000000000
B0523103207633S11657974EA0114101197000000000000
B0523143207577S11657922EA0115601215000000000000
B0523183207524S11657962EA0117201235000000000000
B0523223207541S11658014EA0118701247000000000000
B0523263207586S11657987EA0119701253000000000000
B0523303207585S11657904EA0120001258000004000000
B0523343207520S11657868EA0121601281000000000000
B0523383207466S11657914EA0123201292000004000000
B0523423207476S11657975EA0124401303000000000000
B0523463207529S11657967EA0125201309000004000000
B0523503207547S11657889EA0125801321000000000000
B0523543207495S11657823EA0127101335000000000000
B0523583207424S11657840EA0128501347000000000000
B0524023207416S11657910EA0129701360000000000000
B0524063207468S11657931EA0130901368000004000000
B0524103207510S11657868EA0131301372000000000000
B0524143207484S11657777EA0132201388000004000000
B0524183207411S11657740EA0134301409000004000000
B0524223207342S11657770EA0135301416000004000000
B0524263207332S11657841EA0135801420000004000000
B0524303207380S11657880EA0136001418000004000000
B0524343207430S11657828EA0136501428000004000000
B0524383207429S11657733EA0137401437000004000000
B0524423207375S11657659EA0138701458000004000000
B0524463207313S11657684EA0141201483000004000000
B0524503207320S11657744EA0142901493000004000000
B0524543207372S11657749EA0143101495000004000000
B0524583207395S11657673EA0144101511000000000000
B0525023207349S11657602EA0146001528000000000000
B0525063207274S11657612EA0147401542000004000000
B0525103207256S11657676EA0148301549000004000000
B0525143207298S11657705EA0149001556000004000000
B0525183207342S11657659EA0149501558000000000000
B0525223207341S11657572EA0149801567000000000000
B0525263207276S11657525EA0151401587000000000000
B0525303207232S11657577EA0152401585000000000000
B0525343207263S11657624EA0152201590000000000000
B0525383207315S11657602EA0152901597000000000000
B0525423207351S11657542EA0153401604000000000000
B0525463207354S11657463EA0154401611000000000000
B0525503207303S11657397EA0154901621000000000000
B0525543207237S11657404EA0156401638000000000000
B0525583207208S11657463EA0156901633000000000000
B0526023207234S11657515EA0156701637000000000000
B0526063207284S11657515EA0157001636000000000000
B0526103207320S11657458EA0157101643000000000000
B0526143207298S11657384EA0158101651000000000000
B0526183207238S11657393EA0158701660000000000000
B0526223207239S11657454EA0159301660000004000000
B0526263207290S11657464EA0159301663000004000000
B0526303207320S11657399EA0160101675000000000000
B0526343207295S11657325EA0161101682000000000000
B0526383207237S11657281EA0161801692000000000000
B0526423207173S11657289EA0162701698000000000000
B0526483207128S11657369EA0162201684000000000000
B0526523207150S11657423EA0160801673000000000000
B0526563207195S11657450EA0159601661000000000000
B0527003207251S11657434EA0159101664000000000000
B0527043207300S11657390EA0160101674000004000000
B0527083207334S11657320EA0160901681000004000000
B0527123207333S11657237EA0161101680000004000000
B0527163207281S11657178EA0161101683000004000000
B0527203207215S11657176EA0161801696000004000000
B0527243207167S11657215EA0163201704000004000000
B0527283207142S11657273EA0163201696000004000000
B0527323207155S11657332EA0162701691000004000000
B0527363207202S11657354EA0162701699000000000000
B0527403207251S11657326EA0163201704000000000000
B0527443207291S11657276EA0163701706000000000000
B0527483207323S11657211EA0163501703000004000000
B0527523207351S11657140EA0162801695000004000000
B0527563207382S11657073EA0162401692000004000000
B0528003207412S11657007EA0162301691000004000000
B0528043207458S11656952EA0162201687000000000000
B0528083207510S11656905EA0161501682000000000000
B0528123207563S11656861EA0160901676000004000000
B0528163207614S11656814EA0160301669000004000000
B0528203207661S11656760EA0159501660000004000000
B0528243207702S11656695EA0159301660000004000000
B0528283207697S11656609EA0158801653000004000000
B0528323207640S11656554EA0157601641000004000000
B0528363207563S11656542EA0156401623000004000000
B0528403207485S11656550EA0155001611000000000000
B0528443207407S11656574EA0154401606000004000000
B0528483207336S11656611EA0153901601000004000000
B0528523207265S11656656EA0153901607000004000000
B0528563207199S11656701EA0154701618000000000000
B0529003207135S11656744EA0156301639000000000000
B0529043207078S11656786EA0158401658000000000000
B0529083207022S11656830EA0158801656000000000000
B0529123206965S11656877EA0158101646000000000000
B0529163206907S11656929EA0156801628000000000000
B0529203206844S11656981EA0155001612000000000000
B0529243206777S11657031EA0154001601000004000000
B0529283206702S11657078EA0152401584000000000000
B0529323206623S11657122EA0151201576000000000000
B0529363206541S11657160EA0150401566000004000000
B0529403206459S11657196EA0149301556000000000000
B0529443206377S11657238EA0148201544000000000000
B0529483206297S11657283EA0147101535000000000000
B0529523206216S11657328EA0146201526000000000000
B0529563206133S11657369EA0145401515000004000000
B0530003206049S11657407EA0144301504000004000000
B0530043205963S11657441EA0143501498000004000000
B0530083205876S11657471EA0142701488000000000000
B0530123205789S11657502EA0141701478000000000000
B0530163205703S11657534EA0141001473000000000000
B0530203205623S11657568EA0141001476000000000000
B0530243205548S11657598EA0141301477000000000000
B0530283205475S11657628EA0140801469000004000000
B0530323205404S11657660EA0140001463000000000000
B0530363205331S11657692EA0139301449000000000000
B0530403205256S11657723EA0137701436000000000000
B0530443205179S11657754EA0136701426000000000000
B0530483205098S11657783EA0136101418000000000000
B0530523205019S11657811EA0135801420000000000000
B0530563204941S11657839EA0136201425000000000000
B0531003204867S11657865EA0136501427000004000000
B0531043204797S11657901EA0136701431000004000000
B0531083204741S11657954EA0137601440000004000000
B0531123204706S11658022EA0137801437000004000000
B0531163204693S11658097EA0137501437000004000000
B0531203204691S11658169EA0137701441000004000000
B0531243204697S11658238EA0137901441000004000000
B0531283204704S11658309EA0137801443000004000000
B0531323204713S11658381EA0137001427000004000000
B0531363204719S11658459EA0136101423000004000000
B0531403204715S11658533EA0137101436000000000000
B0531443204717S11658607EA0137101431000000000000
B0531483204728S11658682EA0136701424000000000000
B0531523204746S11658755EA0135701415000004000000
B0531563204758S11658828EA0136201427000000000000
B0532003204769S11658895EA0136701424000000000000
B0532043204786S11658966EA0136001418000004000000
B0532083204791S11659041EA0135101408000004000000
B0532123204771S11659119EA0133401387000004000000
B0532163204721S11659191EA0131401370000004000000
B0532203204654S11659252EA0130101353000004000000
B0532243204574S11659301EA0128601338000004000000
B0532283204489S11659343EA0127301325000004000000
B0532323204405S11659386EA0126101316000004000000
B0532363204325S11659426EA0125501314000004000000
B0532403204249S11659464EA0125801317000000000000
B0532443204177S11659500EA0126801327000004000000
B0532483204143S11659566EA0127501332000000000000
B0532523204158S11659634EA0127701333000000000000
B0532563204195S11659694EA0127501330000000000000
B0533003204217S11659763EA0127701337000000000000
B0533043204231S11659833EA0128501345000000000000
B0533083204258S11659894EA0129801359000004000000
B0533123204317S11659872EA0131401372000000000000
B0533163204323S11659786EA0132001376000000000000
B0533203204269S11659730EA0132601382000000000000
B0533243204229S11659765EA0134001404000000000000
B0533283204257S11659798EA0135501410000000000000
B0533323204307S11659757EA0135401409000000000000
B0533363204300S11659673EA0135701413000000000000
B0533403204236S11659631EA0136101420000000000000
B0533443204178S11659657EA0137101431000000000000
B0533483204169S11659713EA0137601429000000000000
B0533523204214S11659739EA0137001417000000000000
B0533563204266S11659694EA0136701426000000000000
B0534003204277S11659610EA0137601432000000000000
B0534043204238S11659535EA0138201440000004000000
B0534083204179S11659545EA0139401452000004000000
B0534123204195S11659595EA0139901456000000000000
B0534163204245S11659571EA0140801467000004000000
B0534203204253S11659490EA0141501477000000000000
B0534243204200S11659440EA0142801491000000000000
B0534283204154S11659473EA0143701492000000000000
B0534323204177S11659518EA0144101500000004000000
B0534363204226S11659490EA0144901510000000000000
B0534403204226S11659410EA0145901521000000000000
B0534443204173S11659365EA0147201532000000000000
B0534483204121S11659388EA0147601534000000000000
B0534523204114S11659443EA0147901539000000000000
B0534563204151S11659474EA0148201535000000000000
B0535003204203S11659439EA0147201525000000000000
B0535043204223S11659356EA0146901528000004000000
B0535083204210S11659267EA0147901542000000000000
B0535123204151S11659248EA0149301553000000000000
B0535163204128S11659301EA0149501553000000000000
B0535203204161S11659344EA0150001563000000000000
B0535243204213S11659343EA0151201571000000000000
B0535283204260S11659288EA0151301570000000000000
B0535323204271S11659200EA0151501575000000000000
B0535363204252S11659110EA0151901581000000000000
B0535403204199S11659053EA0152501585000000000000
B0535443204131S11659038EA0152601580000000000000
B0535483204062S11659059EA0151301565000004000000
B0535523203991S11659094EA0149601550000000000000
B0535563203918S11659136EA0148501541000004000000
B0536003203844S11659180EA0147701533000004000000
B0536043203772S11659226EA0146901525000000000000
B0536083203699S11659274EA0146001510000004000000
B0536123203624S11659323EA0144801502000004000000
B0536163203550S11659373EA0144101495000004000000
B0536203203475S11659421EA0143301488000004000000
B0536243203400S11659465EA0142501480000004000000
B0536283203324S11659508EA0141901471000000000000
B0536323203252S11659549EA0141601473000000000000
B0536363203186S11659591EA0141801474000004000000
B0536403203121S11659633EA0141501470000004000000
B0536443203057S11659675EA0141001462000004000000
B0536483202994S11659721EA0140401458000000000000
B0536523202930S11659766EA0139801452000000000000
B0536563202866S11659812EA0139001445000000000000
B0537003202801S11659859EA0138701442000004000000
B0537043202735S11659902EA0138201434000004000000
B0537083202665S11659945EA0137201426000004000000
B0537123202592S11659986EA0136701418000004000000
B0537163202518S11700029EA0136001409000000000000
B0537203202446S11700075EA0135301404000000000000
B0537243202377S11700123EA0134501393000000000000
B0537283202306S11700173EA0133401385000004000000
B0537323202237S11700223EA0133701391000004000000
B0537363202173S11700271EA0133601389000000000000
B0537403202115S11700323EA0133801391000000000000
B0537443202069S11700383EA0133801390000000000000
B0537483202038S11700450EA0133701389000000000000
B0537523202011S11700517EA0133101381000000000000
B0537563201995S11700585EA0132701377000000000000
B0538003201995S11700652EA0132301375000000000000
B0538043201994S11700721EA0131401362000000000000
B0538083201972S11700797EA0129601342000000000000
B0538123201925S11700870EA0128201328000000000000
B0538163201861S11700930EA0127301324000000000000
B0538203201786S11700977EA0126901320000004000000
B0538243201710S11701017EA0127501332000004000000
B0538283201686S11701083EA0129301360000000000000
B0538323201733S11701100EA0131401369000000000000
B0538363201764S11701022EA0130901358000004000000
B0538403201733S11700918EA0130401358000000000000
B0538443201707S11700814EA0131001365000004000000
B0538483201747S11700741EA0131401366000000000000
B0538523201795S11700758EA0131101357000000015000
B0538563201813S11700814EA0129901346000000015000
B0539003201801S11700881EA0128901338000000000000
B0539043201766S11700946EA0128901340000000000000
B0539083201729S11701005EA0129501348000004000000
B0539123201692S11701064EA0130001351000004000000
B0539163201662S11701124EA0130301354000004000000
B0539203201634S11701187EA0129801342000004000000
B0539243201586S11701247EA0128801334000004000000
B0539283201526S11701299EA0128001325000004000000
B0539323201458S11701345EA0126901315000004000000
B0539363201383S11701382EA0125601300000004000000
B0539403201306S11701417EA0124601292000000000000
B0539443201228S11701451EA0123801285000000000000
B0539483201151S11701486EA0123501282000000000000
B0539523201076S11701523EA0123201280000000000000
B0539563201005S11701564EA0123401285000000000000
B0540003200937S11701609EA0124101294000000000000
B0540043200904S11701671EA0125501311000000000000
B0540083200910S11701735EA0126901319000000000000
B0540123200924S11701797EA0127001319000004000000
B0540163200937S11701861EA0126601313000004000000
B0540203200954S11701927EA0125701302000004000000
B0540243200971S11701995EA0124601294000000000000
B0540283200973S11702066EA0123901284000000000000
B0540323200947S11702136EA0122501268000004000000
B0540363200895S11702197EA0120501248000004000000
B0540403200821S11702242EA0119501241000004000000
B0540443200743S11702281EA0119301235000004000000
B0540483200664S11702320EA0118001220000004000000
B0540523200585S11702361EA0116501207000004000000
B0540563200505S11702403EA0115301195000004000000
B0541003200427S11702442EA0114301186000004000000
B0541043200355S11702481EA0113901182000000000000
B0541083200283S11702519EA0113901184000000000000
B0541123200217S11702555EA0113801176000000000000
B0541163200148S11702594EA0112401164000000000000
B0541203200079S11702629EA0111601157000000000000
B0541243200011S11702665EA0111601161000000000000
B0541283159944S11702704EA0112001166000004000000
B0541323159897S11702758EA0113101180000000000000
B0541363159935S11702790EA0115501206000000000000
B0541403159971S11702736EA0115701196000000000000
B0541443159949S11702650EA0114801191000000000000
B0541483159887S11702604EA0114801193000000000000
B0541523159822S11702621EA0115701205000000000000
B0541563159833S11702675EA0117101220000000000000
B0542003159890S11702654EA0118101228000000000000
B0542043159903S11702576EA0118701236000000000000
B0542083159855S11702517EA0119201238000000000000
B0542123159798S11702529EA0120001251000000000000
B0542163159803S11702582EA0120901256000000000000
B0542203159859S11702593EA0121301263000000000000
B0542243159897S11702529EA0122201272000000000000
B0542283159868S11702452EA0122601269000000000000
B0542323159806S11702450EA0122801280000004000000
B0542363159812S11702503EA0124301297000004000000
B0542403159864S11702495EA0125401305000004000000
B0542443159883S11702418EA0126001309000004000000
B0542483159845S11702348EA0126001309000004000000
B0542523159781S11702335EA0127001322000004000000
B0542563159744S11702379EA0127901330000004000000
B0543003159772S11702426EA0127801319000004000000
B0543043159838S11702403EA0127401327000000000000
B0543083159859S11702318EA0128701343000000000000
B0543123159816S11702253EA0130101357000000000000
B0543163159767S11702281EA0131501374000000000000
B0543203159780S11702329EA0133401385000004000000
B0543243159837S11702327EA0133401386000004000000
B0543283159868S11702256EA0134501399000000000000
B0543323159842S11702179EA0135101401000000000000
B0543363159783S11702171EA0135501406000004015000
B0543403159790S11702226EA0136701421000004015000
B0543443159853S11702200EA0137801430000004015000
B0543483159851S11702110EA0138901445000000015000
B0543523159790S11702078EA0140101454000000015000
B0543563159740S11702113EA0140301454000000015000
B0544003159732S11702178EA0140801464000000000000
B0544043159772S11702225EA0141501466000000000000
B0544083159838S11702214EA0141001457000000000000
B0544123159892S11702149EA0140801464000004000000
B0544163159893S11702064EA0141801476000000000000
B0544203159836S11702015EA0142301476000000000000
B0544243159771S11702021EA0142701484000000000000
B0544283159771S11702079EA0143501493000004000000
B0544323159832S11702069EA0144701508000000000000
B0544363159845S11701987EA0145401507000000000000
B0544403159785S11701944EA0145401511000004000000
B0544443159738S11701980EA0146201519000000000000
B0544483159754S11702040EA0146901526000000000000
B0544523159811S11702061EA0147801534000004000000
B0544563159866S11702017EA0148001531000004000000
B0545003159872S11701928EA0147801534000004000000
B0545043159825S11701866EA0148301536000004000000
B0545083159755S11701862EA0147501518000004000000
B0545123159684S11701900EA0145501505000004000000
B0545163159615S11701950EA0145601514000004000000
B0545203159562S11702019EA0147001528000000000000
B0545243159545S11702105EA0147501525000000000000
B0545283159516S11702195EA0146601519000000000000
B0545323159490S11702287EA0146601521000000000000
B0545363159467S11702381EA0146001510000000000000
B0545403159432S11702472EA0145801515000000000000
B0545443159403S11702560EA0146101519000000000000
B0545483159372S11702650EA0146001516000000000000
B0545523159326S11702737EA0145401509000000000000
B0545563159274S11702821EA0144801500000004000000
B0546003159221S11702905EA0143301482000004000000
B0546043159160S11702980EA0142601482000004000000
B0546083159090S11703045EA0142001469000004000000
B0546123159008S11703097EA0140901459000004000000
B0546163158922S11703143EA0140001451000004000000
B0546203158837S11703183EA0139101440000004000000
B0546243158752S11703219EA0138501437000004000000
B0546283158668S11703252EA0138301432000004000000
B0546323158584S11703287EA0137101415000000000000
B0546363158497S11703323EA0136001406000000000000
B0546403158411S11703358EA0135401403000000000000
B0546443158325S11703390EA0134801394000004000000
B0546483158241S11703421EA0134201389000004000000
B0546523158159S11703452EA0134001389000004000000
B0546563158078S11703483EA0134001388000000000000
B0547003157999S11703514EA0133301377000004000000
B0547043157916S11703544EA0132301368000004000000
B0547083157830S11703572EA0131301356000004000000
B0547123157748S11703600EA0131001355000004000000
B0547163157669S11703629EA0131101360000004000000
B0547203157596S11703664EA0131701365000000000000
B0547243157554S11703728EA0133001382000004000000
B0547283157541S11703795EA0133901384000004000000
B0547323157544S11703861EA0133401380000004000000
B0547363157554S11703925EA0133301380000004000000
B0547403157563S11703988EA0132901370000000000000
B0547443157560S11704058EA0130701340000004000000
B0547483157523S11704132EA0128301319000004000000
B0547523157456S11704192EA0126701307000004000000
B0547563157378S11704242EA0126001304000000000000
B0548003157302S11704292EA0126501311000000000000
B0548043157257S11704358EA0126901311000000000000
B0548083157219S11704432EA0125801297000000000000
B0548123157167S11704501EA0124401282000000000000
B0548163157102S11704563EA0123301270000004000000
B0548203157030S11704618EA0122301260000000000000
B0548243156954S11704665EA0120901243000004000000
B0548283156867S11704704EA0119201225000000000000
B0548323156774S11704738EA0117401210000000000000
B0548363156683S11704769EA0116901209000000000000
B0548403156598S11704801EA0117301214000000000000
B0548443156522S11704838EA0117901219000004000000
B0548483156469S11704895EA0117201207000004000000
B0548523156409S11704952EA0116001193000000000000
B0548563156336S11704995EA0115101184000000000000
B0549003156256S11705024EA0113901170000004000000
B0549043156169S11705043EA0112301153000004000000
B0549083156079S11705063EA0111001142000004000000
B0549123155990S11705076EA0111101154000004000000
B0549163155912S11705085EA0112601162000004000000
B0549203155833S11705096EA0111501146000000000000
B0549243155753S11705113EA0110201132000000000000
B0549283155672S11705133EA0109501126000000000000
B0549323155591S11705154EA0108601116000000000000
B0549363155512S11705180EA0107401105000000000000
B0549403155433S11705203EA0106501099000004000000
B0549443155356S11705225EA0106301096000000000000
B0549483155282S11705246EA0105501087000000000000
B0549523155208S11705267EA0104301076000000000000
B0549563155132S11705288EA0103601067000000000000
B0550003155056S11705312EA0103701082000000000000
B0550043154988S11705337EA0106301105000000000000
B0550083154962S11705392EA0107501112000000000000
B0550123154996S11705427EA0107301103000000000000
B0550163155048S11705398EA0106201086000004000000
B0550203155054S11705312EA0104301071000004000000
B0550243155018S11705230EA0103901079000000000000
B0550283154965S11705165EA0104901088000000000000
B0550323154896S11705180EA0104701079000000000000
B0550363154891S11705245EA0104901088000000000000
B0550403154943S11705245EA0105601093000004000000
B0550443154967S11705167EA0105201090000000000000
B0550483154953S11705074EA0105401095000000000000
B0550523154884S11705044EA0106501102000000000000
B0550563154857S11705107EA0106101093000000015000
B0551003154888S11705160EA0106201105000004015000
B0551043154935S11705117EA0107501116000004015000
B0551083154911S11705039EA0108101121000004015000
B0551123154844S11705028EA0108501125000004015000
B0551163154814S11705085EA0108701127000004015000
B0551203154824S11705146EA0108901130000004000000
B0551243154874S11705160EA0108401116000000000000
B0551283154905S11705091EA0107001107000000000000
B0551323154887S11705004EA0107001111000000000000
B0551363154863S11704916EA0107201112000004000000
B0551403154832S11704829EA0107101112000000000000
B0551443154798S11704740EA0107101107000000000000
B0551483154746S11704666EA0106601102000004000000
B0551523154671S11704626EA0105701092000000000000
B0551563154585S11704608EA0104701082000000000000
B0552003154497S11704601EA0104001077000000000000
B0552043154411S11704600EA0103901078000000000000
B0552083154338S11704621EA0104101078000000000000
B0552123154274S11704658EA0103901076000000000000
B0552163154213S11704699EA0103801073000000000000
B0552203154174S11704757EA0104301085000000000000
B0552243154193S11704812EA0105101091000000000000
B0552283154230S11704860EA0104701081000000000000
B0552323154273S11704913EA0104301083000004000000
B0552363154316S11704966EA0104801086000000000000
B0552403154359S11705025EA0104201074000004000000
B0552443154404S11705083EA0103801074000004000000
B0552483154467S11705070EA0104101074000004000000
B0552523154459S11704976EA0104401088000004000000
B0552563154397S11704909EA0105801097000004000000
B0553003154333S11704916EA0105801093000004000000
B0553043154345S11704966EA0106201103000004000000
B0553083154398S11704948EA0106201095000004000000
B0553123154397S11704860EA0105401090000004000000
B0553163154346S11704787EA0104301076000004000000
B0553203154273S11704766EA0103501071000000000000
B0553243154216S11704807EA0103201072000004000000
B0553283154182S11704869EA0103501075000000000000
B0553323154160S11704934EA0104401086000004000000
B0553363154104S11704960EA0105001097000004000000
B0553403154064S11704890EA0106801119000004000000
B0553443154072S11704807EA0107901121000004000000
B0553483154118S11704747EA0107901129000004000000
B0553523154173S11704742EA0109401143000004015000
B0553563154202S11704782EA0110201147000004015000
B0554003154191S11704834EA0110801154000000015000
B0554043154143S11704856EA0111701162000000015000
B0554083154085S11704818EA0112101165000000015000
B0554123154047S11704742EA0112701171000004000000
B0554163154048S11704653EA0113201178000004000000
B0554203154089S11704586EA0113901186000004000000
B0554243154147S11704565EA0114801192000000015000
B0554283154177S11704608EA0115301199000000015000
B0554323154148S11704652EA0116201213000004015000
B0554363154092S11704641EA0117601223000004015000
B0554403154051S11704575EA0118201228000000015000
B0554443154048S11704492EA0118901236000004015000
B0554483154091S11704435EA0119701247000000015000
B0554523154143S11704426EA0120401251000004015000
B0554563154181S11704454EA0120701256000000015000
B0555003154189S11704502EA0121001256000000015000
B0555043154163S11704550EA0120801253000000000000
B0555083154113S11704583EA0121001254000000000000
B0555123154048S11704586EA0121001255000004000000
B0555163153983S11704549EA0121001253000004000000
B0555203153929S11704482EA0120901252000004000000
B0555243153886S11704394EA0120401244000000000000
B0555283153851S11704297EA0119701238000000000000
B0555323153813S11704201EA0120401248000000000000
B0555363153749S11704186EA0122101265000000000000
B0555403153736S11704240EA0122101263000000000000
B0555443153770S11704287EA0122001263000000000000
B0555483153829S11704263EA0122701275000000000000
B0555523153836S11704176EA0123301277000000000000
B0555563153782S11704114EA0123501284000000000000
B0556003153719S11704111EA0124301291000000000000
B0556043153687S11704158EA0124401290000000000000
B0556083153706S11704209EA0124701293000000000000
B0556123153766S11704197EA0124801295000000000000
B0556163153804S11704119EA0125101297000004000000
B0556203153783S11704029EA0125801305000004000000
B0556243153726S11703977EA0126301311000004000000
B0556283153665S11703980EA0126201300000004000000
B0556323153597S11704001EA0125301295000000000000
B0556363153526S11704021EA0124701287000000000000
B0556403153448S11704047EA0123201269000000000000
B0556443153364S11704072EA0122101259000000000000
B0556483153280S11704089EA0120701241000000000000
B0556523153193S11704102EA0119201229000000000000
B0556563153107S11704112EA0117801215000000000000
B0557003153023S11704123EA0116901206000000000000
B0557043152939S11704133EA0115901197000000000000
B0557083152859S11704144EA0115301190000000000000
B0557123152781S11704153EA0114801185000000000000
B0557163152704S11704160EA0114401181000004000000
B0557203152630S11704166EA0113901177000000000000
B0557243152557S11704171EA0113701178000004000000
B0557283152487S11704175EA0114301182000004000000
B0557323152417S11704179EA0114201182000004000000
B0557363152347S11704188EA0115001191000000000000
B0557403152275S11704201EA0115401194000000000000
B0557443152235S11704250EA0115901203000000000000
B0557483152271S11704289EA0116801214000000000000
B0557523152328S11704248EA0117801234000004000000
B0557563152326S11704164EA0120201255000004000000
B0558003152270S11704123EA0121301259000004000000
B0558043152227S11704153EA0121501258000004000000
B0558083152246S11704199EA0121601263000004000000
B0558123152302S11704196EA0122801281000004000000
B0558163152323S11704121EA0124701301000000000000
B0558203152276S11704068EA0126301312000000000000
B0558243152230S11704088EA0127001320000000000000
B0558283152237S11704134EA0127501321000000000000
B0558323152288S11704147EA0129101348000000000000
B0558363152334S11704106EA0131401365000000000000
B0558403152352S11704028EA0132401375000004000000
B0558443152319S11703959EA0133301388000000000000
B0558483152261S11703949EA0134601400000000000000
B0558523152237S11703993EA0135401407000000000000
B0558563152272S11704032EA0136401423000000000000
B0559003152327S11704006EA0138401442000004000000
B0559043152350S11703928EA0139501447000004000000
B0559083152315S11703858EA0140101457000004000000
B0559123152254S11703847EA0141501474000004000000
B0559163152223S11703891EA0142301474000004000000
B0559203152257S11703936EA0143001488000004000000
B0559243152314S11703911EA0144501505000000000000
B0559283152341S11703835EA0145801515000000000000
B0559323152311S11703760EA0146501522000000000000
B0559363152248S11703742EA0147001532000000000000
B0559403152205S11703781EA0148301543000000000000
B0559443152217S11703837EA0149401559000000000000
B0559483152271S11703852EA0151001570000000000000
B0559523152319S11703794EA0151501572000000000000
B0559563152306S11703712EA0151901577000000000000
B0600003152246S11703676EA0152601586000000000000
B0600043152194S11703700EA0153601596000000000000
B0600083152200S11703756EA0154901613000004000000
B0600123152250S11703773EA0155901623000004000000
B0600163152305S11703725EA0156601625000004000000
B0600203152318S11703640EA0157201637000004000000
B0600243152285S11703570EA0158401649000004000000
B0600283152228S11703556EA0159201650000000000000
B0600323152196S11703601EA0159401657000004000000
B0600363152220S11703651EA0161001678000000000000
B0600403152278S11703651EA0162001678000000000000
B0600443152327S11703592EA0162001682000004000000
B0600483152326S11703509EA0163001692000004000000
B0600523152282S11703451EA0163401692000004000000
B0600563152218S11703436EA0163101686000004000000
B0601003152154S11703457EA0162601684000000000000
B0601043152090S11703495EA0162501682000004000000
B0601083152036S11703549EA0163601699000004000000
B0601123151999S11703616EA0164301700000000000000
B0601163151962S11703687EA0163601687000000000000
B0601203151918S11703763EA0162401679000000000000
B0601243151866S11703838EA0161501668000000000000
B0601283151808S11703911EA0160201657000000000000
B0601323151743S11703978EA0159601649000004000000
B0601363151674S11704040EA0158901643000004000000
B0601403151600S11704092EA0158401639000000000000
B0601443151525S11704137EA0158001636000004000000
B0601483151450S11704177EA0157901634000000000000
B0601523151373S11704214EA0157401627000000000000
B0601563151295S11704250EA0156501618000000000000
B0602003151216S11704285EA0155801611000000000000
B0602043151136S11704318EA0155301602000000000000
B0602083151056S11704346EA0154501596000000000000
B0602123150978S11704375EA0153901587000000000000
B0602163150901S11704407EA0152501570000000000000
B0602203150820S11704443EA0151301564000000000000
B0602243150741S11704474EA0151801571000000000000
B0602283150667S11704505EA0152601580000004000000
B0602323150598S11704539EA0153401588000004000000
B0602363150530S11704573EA0153901592000004000000
B0602403150460S11704610EA0154001592000004000000
B0602443150397S11704657EA0153901590000000000000
B0602483150338S11704713EA0154101597000004000000
B0602523150290S11704770EA0155501614000000000000
B0602563150248S11704831EA0156401620000000000000
B0603003150222S11704900EA0157001627000000000000
B0603043150209S11704973EA0156601618000000000000
B0603083150185S11705052EA0154601598000000000000
B0603123150139S11705132EA0154001596000000000000
B0603163150077S11705199EA0153701587000000000000
B0603203150000S11705252EA0152901579000000000000
B0603243149916S11705295EA0152101574000004000000
B0603283149830S11705330EA0151801570000004000000
B0603323149744S11705364EA0151101560000004000000
B0603363149656S11705399EA0150401558000004000000
B0603403149571S11705434EA0150501559000004000000
B0603443149490S11705466EA0150501557000000000000
B0603483149411S11705499EA0150001548000000000000
B0603523149331S11705532EA0149201540000004000000
B0603563149250S11705562EA0148601535000004000000
B0604003149173S11705583EA0148601539000000000000
B0604043149104S11705598EA0148801539000004000000
B0604083149035S11705614EA0148401532000000000000
B0604123148964S11705632EA0147701526000000000000
B0604163148892S11705654EA0145901503000000000000
B0604203148817S11705683EA0145001500000004000000
B0604243148747S11705714EA0145001498000004000000
B0604283148682S11705754EA0145301502000004000000
B0604323148622S11705797EA0144701492000004000000
B0604363148558S11705840EA0143301471000004000000
B0604403148488S11705883EA0141501457000000000000
B0604443148413S11705923EA0140201444000000000000
B0604483148335S11705964EA0138801427000000000000
B0604523148254S11706003EA0137701421000000000000
B0604563148175S11706039EA0137901426000000000000
B0605003148097S11706074EA0138101426000000000000
B0605043148027S11706109EA0139501443000000000000
B0605083147977S11706157EA0140001442000000000000
B0605123147940S11706218EA0138601426000000000000
B0605163147885S11706277EA0137401410000004000000
B0605203147820S11706328EA0136501406000000000000
B0605243147748S11706369EA0136101400000000000000
B0605283147673S11706407EA0134801380000000000000
B0605323147592S11706442EA0133201372000000000000
B0605363147511S11706474EA0132801370000000000000
B0605403147425S11706503EA0132001360000000000000
B0605443147338S11706530EA0131701359000004000000
B0605483147252S11706556EA0131601357000004000000
B0605523147166S11706581EA0131901362000004000000
B0605563147083S11706606EA0132201366000000000000
B0606003147001S11706632EA0132601368000004000000
B0606043146923S11706663EA0132001360000000000000
B0606083146845S11706697EA0130701344000000000000
B0606123146766S11706732EA0129601335000000000000
B0606163146685S11706767EA0128301318000000000000
B0606203146602S11706803EA0127001308000000000000
B0606243146523S11706845EA0127101312000000000000
B0606283146452S11706896EA0126501305000000000000
B0606323146381S11706944EA0126301301000000000000
B0606363146305S11706985EA0125501290000000000000
B0606403146230S11707027EA0124601287000000000000
B0606443146155S11707067EA0124901292000000000000
B0606483146081S11707109EA0125601301000000000000
B0606523146040S11707175EA0126801309000000000000
B0606563146070S11707231EA0127201309000000000000
B0607003146133S11707213EA0126501298000000000000
B0607043146156S11707122EA0125501293000004000000
B0607083146140S11707018EA0125001289000000000000
B0607123146117S11706911EA0125001291000004000000
B0607163146058S11706835EA0126601314000004000000
B0607203145993S11706848EA0128301327000000000000
B0607243145964S11706906EA0127901313000000000000
B0607283145926S11706975EA0125301281000000000000
B0607323145871S11707048EA0123301266000000000000
B0607363145808S11707119EA0121801247000000000000
B0607403145736S11707188EA0119701226000004000000
B0607443145657S11707253EA0118301213000000000000
B0607483145575S11707313EA0117101202000004000000
B0607523145493S11707369EA0116301195000000000000
B0607563145411S11707421EA0115401182000000000000
B0608003145327S11707472EA0113901168000000000000
B0608043145241S11707521EA0112601155000000000000
B0608083145155S11707570EA0111701149000000000000
B0608123145070S11707621EA0111101140000000000000
B0608163144985S11707672EA0110701136000004000000
B0608203144900S11707720EA0110601139000004000000
B0608243144814S11707761EA0110601138000004000000
B0608283144727S11707803EA0110701141000004000000
B0608323144639S11707842EA0110601136000000000000
B0608363144552S11707886EA0110101132000000000000
B0608403144466S11707933EA0109301121000000000000
B0608443144378S11707979EA0107901109000000000000
B0608483144289S11708025EA0107301102000004000000
B0608523144202S11708075EA0107601115000004000000
B0608563144128S11708127EA0109501133000004000000
B0609003144112S11708200EA0111001144000004000000
B0609043144166S11708218EA0111601151000000000000
B0609083144203S11708146EA0112201161000004000000
B0609123144194S11708057EA0113501177000004000000
B0609163144134S11708015EA0114601183000004000000
B0609203144084S11708044EA0114301173000004000000
B0609243144086S11708102EA0113201162000004000000
B0609283144144S11708106EA0112501157000000000000
B0609323144172S11708024EA0112001157000000000000
B0609363144164S11707924EA0112401162000004000000
B0609403144138S11707832EA0113601175000004000000
B0609443144076S11707794EA0114901188000004000000
B0609483144033S11707828EA0115401189000004000000
B0609523144058S11707867EA0115401185000004000000
B0609563144107S11707834EA0115201190000004000000
B0610003144121S11707750EA0115701196000004000000
B0610043144099S11707665EA0116201203000004000000
B0610083144036S11707634EA0116201192000004000000
B0610123143968S11707654EA0114901179000004000000
B0610163143906S11707695EA0113001156000004000000
B0610203143842S11707748EA0110401130000004000000
B0610243143774S11707808EA0108401109000000000000
B0610283143705S11707867EA0107301101000000000000
B0610323143639S11707925EA0106301093000000000000
B0610363143573S11707986EA0105701085000000000000
B0610403143505S11708046EA0105101080000000000000
B0610443143444S11708107EA0105201080000000000000
B0610483143400S11708175EA0105101080000000000000
B0610523143365S11708249EA0103901064000004000000
B0610563143326S11708323EA0102701059000000000000
B0611003143283S11708393EA0102401053000000000000
B0611043143236S11708461EA0102301054000004000000
B0611083143192S11708530EA0102301052000004000000
B0611123143191S11708600EA0103001067000000000000
B0611163143240S11708623EA0104101073000000000000
B0611203143276S11708557EA0103801060000000000000
B0611243143245S11708469EA0102601055000000000000
B0611283143174S11708424EA0102201048000004000000
B0611323143093S11708419EA0101301036000004000000
B0611363143011S11708436EA0100601038000004000000
B0611403142976S11708497EA0102501063000000000000
B0611443143028S11708499EA0105101089000000000000
B0611483143037S11708415EA0106801104000004000000
B0611523142981S11708365EA0107701111000004000000
B0611563142931S11708395EA0108401121000000000000
B0612003142946S11708444EA0109901136000000000000
B0612043142997S11708423EA0112001161000000000000
B0612083143019S11708350EA0113501172000004000000
B0612123142980S11708279EA0113701172000004000000
B0612163142915S11708283EA0113901179000004000000
B0612203142907S11708335EA0115101195000004000000
B0612243142955S11708340EA0116501208000004000000
B0612283142987S11708268EA0117601218000000000000
B0612323142951S11708192EA0118601225000000000000
B0612363142886S11708179EA0119401238000000000000
B0612403142860S11708227EA0120701250000000000000
B0612443142892S11708263EA0121601259000004000000
B0612483142945S11708235EA0122901275000000000000
B0612523142962S11708153EA0124401289000000000000
B0612563142922S11708080EA0125101292000000000000
B0613003142855S11708073EA0125501301000000000000
B0613043142828S11708125EA0126301312000000000000
B0613083142858S11708163EA0127701326000000000000
B0613123142907S11708124EA0128901332000000000000
B0613163142906S11708036EA0129801346000000000000
B0613203142849S11707986EA0130801356000004000000
B0613243142790S11708002EA0131901369000004000000
B0613283142781S11708057EA0132601369000004000000
B0613323142832S11708071EA0133101379000004000000
B0613363142868S11708005EA0134301393000004000000
B0613403142833S11707924EA0136001412000000000000
B0613443142766S11707904EA0137201424000004000000
B0613483142721S11707946EA0138001428000000000000
B0613523142741S11707997EA0138601438000004000000
B0613563142795S11707986EA0139501443000000000000
B0614003142821S11707904EA0139701446000000000000
B0614043142777S11707832EA0141001468000000000000
B0614083142724S11707854EA0142601477000000000000
B0614123142732S11707911EA0142901476000000000000
B0614163142782S11707928EA0143501484000000000000
B0614203142825S11707864EA0144501499000000000000
B0614243142798S11707784EA0146101514000004000000
B0614283142732S11707763EA0147101521000000000000
B0614323142693S11707807EA0148001532000000000000
B0614363142714S11707855EA0148901541000000000000
B0614403142767S11707852EA0149201539000004000000
B0614443142812S11707793EA0149501549000004000000
B0614483142828S11707702EA0150501562000004000000
B0614523142788S11707630EA0152501581000004000000
B0614563142725S11707630EA0153801592000004000000
B0615003142702S11707680EA0154701603000004000000
B0615043142738S11707708EA0155901614000004000000
B0615083142792S11707672EA0156401620000004000000
B0615123142812S11707589EA0157901638000004000000
B0615163142782S11707514EA0159401649000000000000
B0615203142721S11707488EA0160001657000000000000
B0615243142668S11707516EA0160701664000004000000
B0615283142660S11707570EA0161701679000004000000
B0615323142701S11707590EA0163201689000004000000
B0615363142751S11707548EA0163401691000004000000
B0615403142766S11707462EA0164201703000004000000
B0615443142724S11707395EA0165501714000004000000
B0615483142664S11707401EA0166101717000000000000
B0615523142650S11707459EA0166601728000000000000
B0615563142682S11707494EA0168101741000000000000
B0616003142736S11707462EA0168301736000000000000
B0616043142759S11707374EA0168201742000000000000
B0616083142737S11707288EA0169201755000000000000
B0616123142673S11707261EA0170101759000000000000
B0616163142624S11707300EA0170401761000000000000
B0616203142628S11707355EA0171201770000000000000
B0616243142685S11707345EA0171401765000004000000
B0616283142702S11707257EA0171201770000004000000
B0616323142654S11707192EA0172001779000004000000
B0616363142589S11707193EA0171701767000004000000
B0616403142526S11707234EA0170501756000004000000
B0616443142465S11707286EA0169401745000004000000
B0616483142403S11707347EA0168101731000000000000
B0616523142339S11707414EA0166501715000004000000
B0616563142275S11707486EA0165501702000004000000
B0617003142212S11707559EA0164401693000000000000
B0617043142147S11707633EA0163701688000000000000
B0617083142082S11707704EA0163101683000000000000
B0617123142019S11707776EA0162601676000004000000
B0617163141957S11707846EA0161601668000004000000
B0617203141895S11707916EA0161001660000004000000
B0617243141832S11707986EA0160201653000004000000
B0617283141771S11708051EA0160201656000004000000
B0617323141713S11708115EA0160301656000000000000
B0617363141654S11708176EA0160201655000004000000
B0617403141597S11708237EA0160501664000004000000
B0617443141544S11708297EA0161601671000004000000
B0617483141489S11708358EA0160801654000004000000
B0617523141428S11708423EA0159201641000004000000
B0617563141364S11708487EA0158201631000004000000
B0618003141300S11708551EA0156901618000004000000
B0618043141235S11708613EA0156301612000004000000
B0618083141173S11708675EA0156101610000004000000
B0618123141112S11708738EA0155501600000004000000
B0618163141052S11708800EA0154501592000000000000
B0618203140995S11708863EA0153801585000004000000
B0618243140934S11708922EA0153001578000004000000
B0618283140873S11708980EA0152501573000004000000
B0618323140813S11709038EA0151901568000004000000
B0618363140751S11709095EA0151601565000004000000
B0618403140692S11709152EA0151901571000004000000
B0618443140636S11709211EA0152501578000004000000
B0618483140580S11709269EA0153101582000004000000
B0618523140523S11709327EA0153201581000000000000
B0618563140466S11709386EA0152501574000004000000
B0619003140407S11709448EA0152201571000004000000
B0619043140348S11709511EA0151401562000004000000
B0619083140288S11709578EA0151101559000000000000
B0619123140227S11709648EA0150001541000004000000
B0619163140163S11709719EA0148501531000004000000
B0619203140098S11709789EA0147401521000004000000
B0619243140036S11709861EA0146501510000000000000
B0619283139978S11709932EA0145501504000000000000
B0619323139920S11709999EA0145501507000004000000
B0619363139860S11710056EA0145501505000000000000
B0619403139799S11710109EA0145401503000004000000
B0619443139737S11710160EA0144501487000000000000
B0619483139672S11710213EA0142701466000000000000
B0619523139607S11710272EA0140401447000004000000
B0619563139542S11710332EA0139501439000000000000
B0620003139474S11710390EA0138201423000004000000
B0620043139408S11710452EA0136901411000004000000
B0620083139344S11710515EA0137001422000004000000
B0620123139288S11710575EA0137501415000004000000
B0620163139232S11710637EA0136101398000000000000
B0620203139175S11710705EA0134401381000004000000
B0620243139116S11710774EA0132901368000004000000
B0620283139058S11710845EA0131601353000004000000
B0620323138999S11710919EA0130301342000004000000
B0620363138940S11710993EA0128901326000004000000
B0620403138880S11711065EA0127801316000000000000
B0620443138823S11711140EA0127101313000000000000
B0620483138771S11711218EA0127801325000004000000
B0620523138745S11711303EA0130001350000000000000
B0620563138751S11711374EA0132401376000000000000
B0621003138807S11711385EA0134101383000000000000
B0621043138825S11711314EA0135401406000000000000
B0621083138784S11711262EA0136801414000000000000
B0621123138730S11711277EA0137901427000000000000
B0621163138734S11711326EA0138701430000004000000
B0621203138788S11711329EA0138901435000004000000
B0621243138823S11711268EA0139701447000004000000
B0621283138798S11711205EA0141201462000004000000
B0621323138743S11711212EA0141901469000000000000
B0621363138734S11711265EA0142801477000000000000
B0621403138782S11711281EA0143001473000000000000
B0621443138815S11711214EA0143001478000000000000
B0621483138795S11711141EA0144301504000000000000
B0621523138738S11711134EA0146301510000000000000
B0621563138719S11711190EA0146401516000000000000
B0622003138765S11711218EA0147001518000000000000
B0622043138811S11711167EA0147101523000004000000
B0622083138816S11711086EA0147701531000004000000
B0622123138784S11711017EA0149401553000004000000
B0622163138730S11711031EA0151401573000000000000
B0622203138736S11711083EA0152701581000000000000
B0622243138789S11711078EA0153101585000000000000
B0622283138815S11711008EA0154201601000000000000
B0622323138794S11710937EA0155201605000000000000
B0622363138733S11710914EA0155401616000000000000
B0622403138694S11710956EA0157001631000000000000
B0622443138726S11710995EA0157801637000000000000
B0622483138778S11710957EA0158201643000000000000
B0622523138785S11710879EA0160101664000000000000
B0622563138742S11710829EA0161201675000004000000
B0623003138687S11710848EA0161601679000000000000
B0623043138674S11710902EA0162801689000000000000
B0623083138702S11710950EA0162901682000000000000
B0623123138741S11711002EA0161601669000000000000
B0623163138764S11711075EA0160601661000004000000
B0623203138769S11711158EA0160301657000000000000
B0623243138756S11711245EA0159301641000004000000
B0623283138728S11711334EA0157401619000004000000
B0623323138685S11711422EA0155601603000000000000
B0623363138629S11711504EA0154601595000000000000
B0623403138568S11711580EA0154201592000000000000
B0623443138508S11711652EA0153501585000000000000
B0623483138451S11711726EA0152601576000000000000
B0623523138394S11711801EA0152101571000000000000
B0623563138336S11711872EA0151601568000000000000
B0624003138281S11711941EA0151601568000000000000
B0624043138225S11712006EA0151601569000000000000
B0624083138170S11712068EA0151601569000000000000
B0624123138115S11712128EA0151201565000004000000
B0624163138062S11712185EA0150701561000004000000
B0624203138010S11712244EA0150001551000004000000
B0624243137958S11712301EA0149401545000000000000
B0624283137904S11712358EA0149001544000000000000
B0624323137846S11712413EA0148701540000000000000
B0624363137789S11712465EA0148201533000000000000
B0624403137735S11712514EA0148001532000000000000
B0624443137684S11712568EA0146901517000004000000
B0624483137632S11712621EA0145201501000004000000
B0624523137579S11712677EA0144201492000000000000
B0624563137530S11712737EA0143801490000004000000
B0625003137482S11712796EA0143701487000004000000
B0625043137434S11712855EA0143001475000004000000
B0625083137387S11712917EA0141201455000000000000
B0625123137341S11712982EA0139901448000000000000
B0625163137298S11713047EA0139801444000000000000
B0625203137264S11713112EA0139101438000000000000
B0625243137272S11713179EA0139101441000000000000
B0625283137315S11713225EA0139401445000000000000
B0625323137377S11713249EA0139201440000000000000
B0625363137449S11713255EA0139301446000000000000
B0625403137520S11713254EA0140101453000000000000
B0625443137594S11713253EA0139901443000000000000
B0625483137675S11713247EA0138401431000000000000
B0625523137757S11713241EA0137101416000000000000
B0625563137837S11713237EA0136401411000000000000
B0626003137915S11713240EA0135901406000000000000
B0626043137992S11713245EA0134801392000000000000
B0626083138069S11713251EA0133701378000000000000
B0626123138147S11713258EA0132701373000004000000
B0626163138223S11713263EA0133001379000000000000
B0626203138299S11713271EA0133201381000000000000
B0626243138369S11713292EA0133901392000000000000
B0626283138421S11713332EA0135701415000000000000
B0626323138453S11713380EA0137001423000000000000
B0626363138472S11713439EA0137601429000000000000
B0626403138481S11713502EA0139001444000000000000
B0626443138511S11713548EA0140701460000000000000
B0626483138557S11713511EA0142001480000000000000
B0626523138546S11713433EA0143201489000004000000
B0626563138486S11713402EA0144101502000004000000
B0627003138439S11713440EA0145301510000004000000
B0627043138446S11713496EA0146001517000004000000
B0627083138494S11713514EA0146801527000004000000
B0627123138543S11713466EA0147801537000004000000
B0627163138541S11713380EA0148401544000000000000
B0627203138485S11713329EA0149501555000000000000
B0627243138429S11713351EA0150601567000004000000
B0627283138417S11713405EA0151401574000004000000
B0627323138453S11713437EA0152101579000004000000
B0627363138507S11713403EA0152601584000004000000
B0627403138513S11713320EA0153701599000004000000
B0627443138465S11713262EA0154901607000000000000
B0627483138408S11713268EA0155401613000000000000
B0627523138386S11713319EA0156001620000000000000
B0627563138417S11713357EA0156601622000000000000
B0628003138472S11713325EA0156801624000000000000
B0628043138477S11713240EA0157501637000000000000
B0628083138438S11713164EA0158201640000000000000
B0628123138373S11713140EA0158401640000000000000
B0628163138329S11713185EA0158601647000000000000
B0628203138323S11713247EA0159101649000000000000
B0628243138366S11713279EA0159701660000004000000
B0628283138422S11713238EA0159801658000004000000
B0628323138456S11713159EA0160101665000004000000
B0628363138439S11713071EA0161101672000004000000
B0628403138382S11713021EA0161501677000004000000
B0628443138323S11713036EA0162401687000004000000
B0628483138301S11713085EA0163001693000004000000
B0628523138327S11713127EA0163701699000004000000
B0628563138379S11713112EA0164101699000004000000
B0629003138401S11713029EA0163801698000004000000
B0629043138365S11712951EA0164201707000000000000
B0629083138303S11712938EA0165101715000000000000
B0629123138269S11712984EA0165201711000000000000
B0629163138286S11713039EA0164701707000000000000
B0629203138325S11713090EA0164101699000000000000
B0629243138379S11713133EA0163501690000004000000
B0629283138447S11713168EA0162301673000004000000
B0629323138524S11713198EA0160901666000004000000
B0629363138604S11713224EA0161201673000004000000
B0629403138685S11713247EA0161301673000004000000
B0629443138768S11713270EA0161601681000004000000
B0629483138850S11713281EA0163901705000004000000
B0629523138932S11713270EA0164501702000000000000
B0629563139016S11713263EA0164601706000004000000
B0630003139094S11713276EA0165001711000000000000
B0630043139166S11713302EA0164801702000000000000
B0630083139243S11713333EA0162401674000000000000
B0630123139328S11713367EA0160101654000004000000
B0630163139415S11713402EA0159301648000004000000
B0630203139500S11713433EA0159101646000004000000
B0630243139583S11713459EA0158701639000000000000
B0630283139669S11713484EA0157701629000000000000
B0630323139755S11713510EA0156601617000000000000
B0630363139839S11713536EA0155901615000000000000
B0630403139922S11713561EA0155701612000000000000
B0630443140000S11713589EA0155501610000000000000
B0630483140078S11713615EA0155001605000004000000
B0630523140155S11713640EA0154501600000004000000
B0630563140232S11713663EA0154301597000004000000
B0631003140310S11713689EA0153601589000004000000
B0631043140388S11713714EA0152901583000004000000
B0631083140466S11713739EA0152001571000000000000
B0631123140545S11713767EA0150801562000004000000
B0631163140623S11713797EA0150801565000004000000
B0631203140699S11713825EA0151801581000000000000
B0631243140766S11713849EA0152401579000000000000
B0631283140836S11713874EA0151501569000000000000
B0631323140908S11713897EA0151001566000000000000
B0631363140979S11713921EA0151001568000004000000
B0631403141048S11713946EA0151201569000004000000
B0631443141116S11713974EA0151401571000004000000
B0631483141185S11714000EA0151201568000000000000
B0631523141259S11714025EA0150601563000000000000
B0631563141334S11714048EA0150401561000000000000
B0632003141412S11714072EA0150101557000000000000
B0632043141489S11714095EA0150001555000000000000
B0632083141566S11714118EA0149701550000000000000
B0632123141641S11714143EA0148501534000000000000
B0632163141719S11714170EA0147101522000004000000
B0632203141797S11714199EA0145901508000004000000
B0632243141878S11714228EA0144801500000004000000
B0632283141956S11714254EA0144201496000004000000
B0632323142034S11714276EA0143901491000004000000
B0632363142112S11714298EA0142901479000004000000
B0632403142191S11714321EA0142301475000000000000
B0632443142270S11714342EA0141901471000000000000
B0632483142343S11714376EA0142201478000004000000
B0632523142399S11714425EA0142801482000004000000
B0632563142441S11714482EA0142401472000004000000
B0633003142493S11714534EA0141301462000004000000
B0633043142538S11714594EA0140701458000000000000
B0633083142574S11714659EA0140601457000000000000
B0633123142611S11714722EA0139901448000000000000
B0633163142652S11714787EA0139401444000000000000
B0633203142688S11714854EA0139001436000000000000
B0633243142728S11714922EA0137301420000000000000
B0633283142769S11714987EA0136401407000000000000
B0633323142820S11715045EA0133501376000000000000
B0633363142893S11715088EA0131401353000000000000
B0633403142974S11715119EA0129701336000000000000
B0633443143055S11715144EA0128201324000000000000
B0633483143136S11715168EA0127101311000000000000
B0633523143218S11715188EA0126101304000000000000
B0633563143297S11715207EA0125101289000000000000
B0634003143379S11715223EA0123801278000000000000
B0634043143460S11715239EA0123101276000000000000
B0634083143536S11715253EA0122601267000000000000
B0634123143617S11715266EA0121601254000000000000
B0634163143698S11715277EA0120401243000000000000
B0634203143780S11715288EA0118901228000004000000
B0634243143861S11715300EA0117701217000004000000
B0634283143945S11715309EA0116701205000004000000
B0634323144029S11715318EA0114901186000004000000
B0634363144114S11715330EA0114001177000000000000
B0634403144197S11715343EA0113201170000004000000
B0634443144274S11715359EA0112701164000000000000
B0634483144352S11715377EA0111601154000000000000
B0634523144427S11715392EA0111301150000000000000
B0634563144500S11715418EA0110901150000000000000
B0635003144553S11715472EA0111301156000004000000
B0635043144591S11715533EA0111801159000000000000
B0635083144615S11715598EA0112301167000000000000
B0635123144635S11715662EA0112701170000000000000
B0635163144658S11715725EA0112101158000004000000
B0635203144680S11715793EA0111501156000004000000
B0635243144700S11715860EA0111501153000004000000
B0635283144722S11715925EA0111201154000004000000
B0635323144745S11715984EA0111301150000004000000
B0635363144784S11716033EA0110701144000000000000
B0635403144843S11716070EA0109701129000000000000
B0635443144913S11716096EA0108601121000000000000
B0635483144986S11716120EA0108101118000000000000
B0635523145059S11716146EA0108001116000000000000
B0635563145124S11716184EA0107501110000000000000
B0636003145189S11716221EA0107301108000004000000
B0636043145259S11716239EA0107001104000004000000
B0636083145330S11716252EA0106201091000004000000
B0636123145403S11716263EA0104901081000004000000
B0636163145479S11716270EA0103401063000000000000
B0636203145555S11716274EA0101801046000000000000
B0636243145632S11716275EA0100201032000004000000
B0636283145710S11716274EA0098901020000000000000
B0636323145788S11716269EA0097601006000000000000
B0636363145869S11716263EA0096500994000000000000
B0636403145951S11716260EA0095100973000000000000
B0636443146031S11716266EA0094100975000000000000
B0636483146101S11716275EA0095000986000004000000
B0636523146165S11716288EA0095500988000004000000
B0636563146227S11716301EA0095500988000000000000
B0637003146286S11716318EA0095700990000004000000
B0637043146350S11716319EA0095700991000004000000
B0637083146409S11716279EA0096400998000004000000
B0637123146416S11716198EA0096700998000000000000
B0637163146356S11716146EA0095300979000004000000
B0637203146294S11716170EA0094700978000004000000
B0637243146255S11716223EA0094600978000004000000
B0637283146234S11716288EA0094500977000004000000
B0637323146225S11716357EA0094300974000004000000
B0637363146218S11716427EA0094200970000000000000
B0637403146212S11716500EA0094400977000000000000
B0637443146248S11716534EA0096100991000000000000
B0637483146276S11716460EA0095900985000000000000
B0637523146224S11716388EA0095900993000000000000
B0637563146155S11716382EA0096901001000000000000
B0638003146140S11716434EA0097301005000000000000
B0638043146187S11716432EA0098501023000000000000
B0638083146205S11716362EA0098901017000000000000
B0638123146161S11716291EA0098501015000000000000
B0638163146099S11716301EA0098701021000000000000
B0638203146103S11716351EA0099101026000000000000
B0638243146149S11716323EA0099901033000000000000
B0638283146146S11716243EA0100301038000000000000
B0638323146086S11716195EA0100501036000000000000
B0638363146034S11716227EA0100701039000000000000
B0638403146057S11716263EA0101101045000000000000
B0638443146099S11716211EA0101501048000000000000
B0638483146075S11716128EA0102601061000000000000
B0638523146008S11716114EA0102801059000000000000
B0638563145982S11716166EA0102801062000000000000
B0639003146022S11716184EA0103401070000000000000
B0639043146062S11716126EA0104201078000000000000
B0639083146036S11716048EA0105001083000000000000
B0639123145971S11716048EA0105101086000000000000
B0639163145958S11716100EA0105401088000000000000
B0639203145996S11716128EA0106101098000004000000
B0639243146031S11716075EA0106601093000004000000
B0639283146000S11715993EA0106001094000004000000
B0639323145930S11715967EA0106501100000004000000
B0639363145873S11716000EA0106701099000004000000
B0639403145867S11716061EA0106501098000004000000
B0639443145909S11716074EA0107301108000004000000
B0639483145925S11715992EA0107301103000004000000
B0639523145893S11715897EA0107001105000004000000
B0639563145824S11715859EA0108301120000004000000
B0640003145784S11715899EA0108601117000004000000
B0640043145809S11715942EA0108401116000004000000
B0640083145853S11715905EA0108701122000004000000
B0640123145843S11715816EA0108701119000004000000
B0640163145772S11715771EA0108601120000000000000
B0640203145717S11715801EA0109101128000004000000
B0640243145719S11715854EA0109301124000000000000
B0640283145743S11715906EA0108801119000000000000
B0640323145771S11715962EA0108701120000004000000
B0640363145806S11716022EA0107301098000004000000
B0640403145844S11716088EA0105201080000004000000
B0640443145891S11716152EA0103401059000004000000
B0640483145947S11716211EA0101701042000004000000
B0640523146008S11716267EA0100501032000004000000
B0640563146068S11716322EA0100301034000004000000
B0641003146127S11716375EA0100201034000004000000
B0641043146168S11716442EA0100701041000000000000
B0641083146195S11716505EA0101001042000000000000
B0641123146233S11716562EA0100501031000000000000
B0641163146286S11716611EA0099301020000000000000
B0641203146347S11716652EA0098301010000004000000
B0641243146411S11716691EA0097100997000004000000
B0641283146476S11716726EA0095900987000004000000
B0641323146541S11716759EA0095100980000004000000
B0641363146606S11716785EA0094500974000004000000
B0641403146671S11716808EA0093500958000004000000
B0641443146738S11716832EA0091900943000000000000
B0641483146809S11716852EA0090600932000000000000
B0641523146877S11716872EA0090200929000000000000
B0641563146944S11716895EA0089600922000004000000
B0642003147007S11716919EA0088900913000000000000
B0642043147070S11716942EA0087900903000004000000
B0642083147130S11716971EA0086900893000000000000
B0642123147188S11716998EA0085700880000000000000
B0642163147252S11717021EA0084500863000000000000
B0642203147318S11717045EA0083000850000004000000
B0642243147381S11717071EA0082000842000004000000
B0642283147443S11717095EA0081900844000004000000
B0642323147509S11717116EA0081600839000004000000
B0642363147576S11717140EA0081500840000000000000
B0642403147607S11717198EA0082400855000004000000
B0642443147566S11717248EA0084600882000004000000
B0642483147504S11717225EA0086100886000004000000
B0642523147472S11717142EA0085400874000004000000
B0642563147499S11717054EA0084700870000004000000
B0643003147561S11717001EA0084100864000004000000
B0643043147631S11716997EA0084400878000000000000
B0643083147630S11717051EA0086800908000004000000
B0643123147573S11717033EA0088600908000000000000
B0643163147559S11716947EA0088400914000004000000
B0643203147603S11716884EA0089300926000000000000
B0643243147650S11716895EA0090500938000000000000
B0643283147638S11716945EA0091500949000000000000
B0643323147581S11716950EA0092300954000000000000
B0643363147537S11716887EA0092900961000004000000
B0643403147555S11716808EA0094100974000004000000
B0643443147607S11716785EA0094700979000004000000
B0643483147644S11716821EA0094700975000000000000
B0643523147643S11716884EA0094500976000000000000
B0643563147599S11716930EA0094900980000000000000
B0644003147531S11716932EA0094900977000000000000
B0644043147465S11716886EA0095100982000004000000
B0644083147434S11716803EA0096100997000004000000
B0644123147469S11716739EA0098101016000000000000
B0644163147511S11716756EA0098601012000000000000
B0644203147494S11716809EA0098701022000004000000
B0644243147433S11716815EA0099901030000004000000
B0644283147377S11716755EA0100001030000000000000
B0644323147374S11716661EA0100101032000000000000
B0644363147425S11716598EA0100701042000000000000
B0644403147474S11716622EA0102001063000004015000
B0644443147464S11716676EA0103201071000000000000
B0644483147403S11716687EA0104401084000004000000
B0644523147336S11716638EA0104901082000004000000
B0644563147301S11716546EA0105101087000004000000
B0645003147326S11716458EA0106001100000000000000
B0645043147384S11716429EA0107001108000000000000
B0645083147430S11716464EA0108201124000000000000
B0645123147423S11716521EA0109301133000000000000
B0645163147371S11716547EA0110601149000000000000
B0645203147306S11716517EA0111901159000000000000
B0645243147258S11716445EA0112201159000000000000
B0645283147248S11716351EA0112301161000000000000
B0645323147284S11716274EA0112201157000000000000
B0645363147345S11716247EA0112501165000000000000
B0645403147399S11716267EA0113501180000000000000
B0645443147417S11716321EA0114801191000004000000
B0645483147375S11716358EA0116201209000004000000
B0645523147321S11716331EA0117901223000004000000
B0645563147295S11716254EA0118401222000004000000
B0646003147316S11716171EA0118501227000004000000
B0646043147368S11716119EA0119601242000000000000
B0646083147425S11716117EA0120901258000000000000
B0646123147461S11716152EA0122101263000000000000
B0646163147453S11716205EA0122301264000000000000
B0646203147408S11716244EA0122201260000000000000
B0646243147338S11716241EA0121901261000000000000
B0646283147269S11716197EA0122901274000000000000
B0646323147214S11716128EA0123801280000000000000
B0646363147197S11716035EA0124001284000000000000
B0646403147235S11715958EA0124501287000000000000
B0646443147297S11715937EA0124501285000000000000
B0646483147355S11715966EA0124601291000000000000
B0646523147386S11716022EA0125101304000000000000
B0646563147352S11716058EA0127401333000000000000
B0647003147296S11716035EA0128801330000004000000
B0647043147264S11715958EA0128301332000004000000
B0647083147292S11715880EA0129401344000000000000
B0647123147355S11715859EA0129901343000000000000
B0647163147404S11715894EA0129801344000000000000
B0647203147414S11715959EA0130001346000000000000
B0647243147384S11716020EA0129901346000000000000
B0647283147319S11716049EA0130001346000000000000
B0647323147240S11716039EA0129501331000000000000
B0647363147169S11715975EA0128301324000000000000
B0647403147132S11715873EA0127901320000000000000
B0647443147105S11715767EA0127901323000000000000
B0647483147071S11715660EA0127701321000000000000
B0647523147063S11715550EA0127901325000000000000
B0647563147093S11715450EA0128401328000000000000
B0648003147115S11715351EA0129901348000004000000
B0648043147067S11715275EA0131301356000000000000
B0648083147005S11715288EA0130901346000004000000
B0648123146997S11715351EA0129601327000004000000
B0648163147037S11715404EA0128001319000004000000
B0648203147084S11715460EA0127401317000004000000
B0648243147132S11715521EA0127301313000004000000
B0648283147183S11715587EA0126601311000004000000
B0648323147187S11715664EA0128401346000004000000
B0648363147135S11715697EA0131601372000004000000
B0648403147071S11715664EA0132601369000004000000
B0648443147023S11715586EA0131501354000004000000
B0648483146984S11715491EA0130601348000000000000
B0648523146933S11715403EA0130301347000000000000
B0648563146857S11715377EA0131401359000004000000
B0649003146810S11715424EA0131701359000000000000
B0649043146809S11715491EA0131301351000000000000
B0649083146818S11715565EA0129701330000000000000
B0649123146837S11715646EA0128001318000000000000
B0649163146863S11715727EA0127501311000000000000
B0649203146894S11715808EA0126201300000000000000
B0649243146928S11715892EA0125201290000000000000
B0649283146968S11715970EA0124601285000000000000
B0649323147015S11716040EA0124701289000000000000
B0649363147069S11716100EA0125201297000000000000
B0649403147122S11716161EA0126201307000004000000
B0649443147171S11716227EA0126801312000000000000
B0649483147214S11716297EA0127101321000000000000
B0649523147249S11716367EA0128001330000000000000
B0649563147280S11716438EA0129001339000000000000
B0650003147312S11716507EA0129201337000000000000
B0650043147342S11716581EA0128601329000000000000
B0650083147371S11716657EA0128301328000000000000
B0650123147404S11716734EA0128301328000004000000
B0650163147438S11716809EA0128101325000004000000
B0650203147474S11716887EA0127801325000000000000
B0650243147516S11716958EA0128801336000004000000
B0650283147585S11716943EA0130701358000004000000
B0650323147598S11716852EA0132101366000004000000
B0650363147550S11716770EA0132501377000000000000
B0650403147482S11716746EA0133501383000004000000
B0650443147440S11716793EA0133501380000004000000
B0650483147426S11716859EA0132901373000004000000
B0650523147413S11716930EA0132601368000004000000
B0650563147412S11717008EA0131801358000004000000
B0651003147439S11717084EA0131201350000000000000
B0651043147487S11717150EA0130301344000000000000
B0651083147546S11717205EA0130701352000004000000
B0651123147608S11717253EA0130601346000004000000
B0651163147674S11717297EA0129501337000000000000
B0651203147745S11717340EA0128901331000004000000
B0651243147813S11717380EA0128501326000004000000
B0651283147881S11717422EA0127601316000000000000
B0651323147950S11717461EA0126901313000000000000
B0651363148018S11717497EA0126201304000004000000
B0651403148085S11717536EA0125301294000000000000
B0651443148151S11717574EA0124601287000000000000
B0651483148218S11717610EA0123901279000000000000
B0651523148285S11717643EA0123401276000000000000
B0651563148350S11717673EA0124101291000000000000
B0652003148410S11717699EA0125901309000000000000
B0652043148467S11717723EA0127201319000000000000
B0652083148519S11717756EA0127801327000000000000
B0652123148554S11717803EA0128401332000000000000
B0652163148562S11717859EA0129601344000000000000
B0652203148560S11717917EA0130601353000000000000
B0652243148600S11717955EA0131201359000004000000
B0652283148649S11717905EA0132501377000000000000
B0652323148639S11717823EA0133801388000000000000
B0652363148584S11717779EA0134301389000000000000
B0652403148534S11717801EA0134701401000000000000
B0652443148532S11717856EA0136101416000000000000
B0652483148579S11717879EA0137501430000000000000
B0652523148625S11717831EA0139101445000000000000
B0652563148608S11717753EA0140201453000004000000
B0653003148548S11717726EA0140601456000004000000
B0653043148505S11717766EA0141601470000000000000
B0653083148513S11717822EA0142501477000000000000
B0653123148571S11717838EA0143801493000000000000
B0653163148609S11717771EA0145301511000004000000
B0653203148578S11717697EA0146201513000000000000
B0653243148518S11717696EA0147001533000004000000
B0653283148489S11717740EA0149001550000004000000
B0653323148508S11717791EA0150201558000000000000
B0653363148565S11717804EA0151301572000004000000
B0653403148614S11717755EA0152601584000004000000
B0653443148617S11717673EA0153801594000004000000
B0653483148567S11717623EA0154901607000004000000
B0653523148518S11717641EA0156101624000004000000
B0653563148509S11717697EA0157501637000004000000
B0654003148552S11717736EA0158701649000004000000
B0654043148612S11717709EA0160101662000004000000
B0654083148630S11717626EA0161001667000004000000
B0654123148593S11717554EA0161901684000004000000
B0654163148538S11717541EA0163601700000004000000
B0654203148501S11717582EA0165301716000004000000
B0654243148513S11717641EA0166301728000004000000
B0654283148570S11717661EA0167201732000004000000
B0654323148623S11717601EA0167201732000000000000
B0654363148625S11717510EA0168201748000004000000
B0654403148579S11717454EA0170001763000004000000
B0654443148523S11717458EA0171101778000000000000
B0654483148506S11717511EA0172801794000004000000
B0654523148547S11717553EA0173901804000000000000
B0654563148609S11717531EA0175201813000000000000
B0655003148635S11717452EA0175501820000000000000
B0655043148609S11717379EA0176301831000000000000
B0655083148554S11717365EA0177401845000000000000
B0655123148522S11717406EA0179001861000000000000
B0655163148544S11717462EA0180201870000000000000
B0655203148606S11717474EA0181101879000000000000
B0655243148656S11717413EA0181901887000004000000
B0655283148655S11717328EA0182301890000000000000
B0655323148610S11717272EA0182801897000004000000
B0655363148554S11717268EA0183801909000000000000
B0655403148515S11717305EA0184901921000000000000
B0655443148513S11717361EA0185601922000000000000
B0655483148561S11717398EA0185601922000000000000
B0655523148626S11717361EA0186001927000000000000
B0655563148664S11717277EA0186201925000004000000
B0656003148642S11717197EA0186701934000004000000
B0656043148588S11717193EA0187201936000000000000
B0656083148591S11717255EA0187201932000000000000
B0656123148649S11717307EA0185401914000000000000
B0656163148730S11717344EA0184201903000000000000
B0656203148814S11717379EA0182501884000004000000
B0656243148902S11717414EA0181401872000004000000
B0656283148993S11717445EA0180701868000000000000
B0656323149081S11717474EA0180601869000000000000
B0656363149165S11717501EA0180401862000000000000
B0656403149253S11717530EA0179401853000000000000
B0656443149338S11717561EA0178801848000000000000
B0656483149423S11717591EA0178401846000004000000
B0656523149503S11717623EA0178401848000004000000
B0656563149583S11717654EA0178401846000004000000
B0657003149661S11717687EA0178101840000004000000
B0657043149739S11717716EA0177401836000004000000
B0657083149817S11717745EA0177001832000000000000
B0657123149893S11717774EA0176601826000000000000
B0657163149969S11717804EA0176201824000000000000
B0657203150042S11717838EA0176201823000000000000
B0657243150113S11717869EA0175601816000000000000
B0657283150185S11717904EA0174901806000000000000
B0657323150257S11717939EA0174201799000004000000
B0657363150332S11717974EA0173301792000000000000
B0657403150406S11718011EA0172901789000000000000
B0657443150478S11718046EA0172401782000000000000
B0657483150553S11718082EA0171701775000000000000
B0657523150625S11718119EA0171201768000000000000
B0657563150701S11718155EA0170101757000000000000
B0658003150779S11718193EA0168701744000000000000
B0658043150858S11718232EA0168101739000000000000
B0658083150935S11718271EA0168001740000000000000
B0658123151010S11718308EA0167801733000000000000
B0658163151086S11718347EA0167101724000004000000
B0658203151161S11718385EA0166201716000004000000
B0658243151238S11718421EA0165201707000004000000
B0658283151314S11718458EA0164701704000004000000
B0658323151391S11718492EA0164001695000004000000
B0658363151470S11718525EA0163301687000004000000
B0658403151547S11718561EA0162701679000000000000
B0658443151626S11718594EA0161601670000000000000
B0658483151704S11718626EA0161401671000000000000
B0658523151782S11718655EA0161301667000000000000
B0658563151859S11718683EA0161101665000000000000
B0659003151936S11718710EA0160201654000000000000
B0659043152015S11718743EA0159101647000000000000
B0659083152096S11718774EA0158501636000004000000
B0659123152176S11718808EA0157601626000004000000
B0659163152256S11718841EA0156901619000004000000
B0659203152335S11718873EA0155901608000004000000
B0659243152417S11718904EA0154701597000004000000
B0659283152496S11718934EA0154201592000004000000
B0659323152577S11718962EA0153401585000004000000
B0659363152657S11718991EA0153601581000004000000
B0659403152738S11719017EA0153001574000000000000
B0659443152817S11719047EA0152501565000004000000
B0659483152894S11719078EA0151701561000004000000
B0659523152969S11719109EA0151201551000004000000
B0659563153047S11719144EA0149901536000004000000
B0700003153127S11719181EA0148501523000004000000
B0700043153208S11719220EA0147401512000004000000
B0700083153290S11719259EA0146801510000004000000
B0700123153370S11719300EA0146501504000000000000
B0700163153450S11719341EA0145201486000000000000
B0700203153530S11719380EA0144301487000000000000
B0700243153605S11719415EA0144501487000000000000
B0700283153679S11719447EA0144201483000004000000
B0700323153752S11719481EA0143601474000004000000
B0700363153823S11719519EA0142901470000004000000
B0700403153894S11719556EA0142401460000000000000
B0700443153965S11719597EA0141201449000000000000
B0700483154038S11719637EA0140301440000000000000
B0700523154112S11719679EA0139701432000000000000
B0700563154183S11719724EA0138501418000000000000
B0701003154256S11719771EA0137401408000000000000
B0701043154329S11719812EA0136401401000000000000
B0701083154401S11719853EA0135401397000000000000
B0701123154471S11719890EA0135001393000000000000
B0701163154541S11719928EA0134701392000000000000
B0701203154607S11719962EA0135001397000000000000
B0701243154670S11719996EA0135201397000004000000
B0701283154735S11720027EA0134901393000000000000
B0701323154804S11720052EA0134501390000004000000
B0701363154871S11720082EA0134601395000004000000
B0701403154918S11720131EA0135301406000004000000
B0701443154944S11720192EA0136301414000004000000
B0701483154949S11720254EA0137401425000000000000
B0701523154939S11720312EA0137601424000000000000
B0701563154917S11720368EA0137501421000000000000
B0702003154889S11720426EA0136701411000004000000
B0702043154856S11720483EA0136001406000004000000
B0702083154818S11720538EA0135201396000004000000
B0702123154800S11720603EA0134001380000000000000
B0702163154819S11720665EA0132701369000000000000
B0702203154862S11720717EA0131201353000004000000
B0702243154921S11720755EA0130301342000004000000
B0702283154986S11720782EA0129201331000000000000
B0702323155056S11720800EA0128301325000000000000
B0702363155129S11720810EA0127701316000004000000
B0702403155204S11720816EA0126601307000004000000
B0702443155279S11720820EA0126001305000004000000
B0702483155353S11720817EA0125801299000004000000
B0702523155430S11720813EA0124801287000004000000
B0702563155508S11720810EA0123601275000004000000
B0703003155585S11720807EA0122701266000004000000
B0703043155660S11720806EA0121901253000004000000
B0703083155733S11720803EA0121001248000004000000
B0703123155805S11720799EA0120101237000004000000
B0703163155876S11720798EA0118601218000004000000
B0703203155950S11720797EA0117001202000004000000
B0703243156026S11720795EA0115601190000004000000
B0703283156101S11720795EA0114301176000004000000
B0703323156178S11720794EA0112901163000004000000
B0703363156253S11720797EA0112001151000000000000
B0703403156328S11720798EA0111001142000000000000
B0703443156403S11720799EA0110801143000000000000
B0703483156477S11720799EA0110601141000000000000
B0703523156549S11720802EA0110501142000000000000
B0703563156611S11720837EA0110701149000004000000
B0704003156640S11720899EA0112401169000000000000
B0704043156640S11720963EA0113501173000000000000
B0704083156635S11721024EA0113601174000000000000
B0704123156630S11721084EA0114001178000000000000
B0704163156627S11721148EA0113201160000004000000
B0704203156631S11721216EA0111101140000000000000
B0704243156653S11721283EA0109801127000000000000
B0704283156709S11721311EA0108901120000000000000
B0704323156774S11721287EA0108201111000000000000
B0704363156834S11721229EA0106501092000000000000
B0704403156891S11721155EA0105001079000000000000
B0704443156946S11721076EA0104001068000000000000
B0704483156997S11720993EA0103401060000000000000
B0704523157036S11720903EA0102301049000004000000
B0704563157072S11720810EA0100901034000004000000
B0705003157111S11720717EA0099401018000004000000
B0705043157160S11720634EA0097901004000004000000
B0705083157225S11720581EA0096900996000004000000
B0705123157294S11720564EA0096200989000004000000
B0705163157361S11720569EA0095100977000004000000
B0705203157426S11720585EA0094200964000004000000
B0705243157492S11720604EA0093000952000000000000
B0705283157560S11720630EA0092200947000000000000
B0705323157625S11720663EA0092200949000000000000
B0705363157690S11720698EA0091800939000000000000
B0705403157756S11720737EA0090200921000000000000
B0705443157825S11720774EA0089300915000004000000
B0705483157890S11720811EA0088800912000004000000
B0705523157953S11720845EA0088400908000004000000
B0705563158015S11720881EA0088100905000004000000
B0706003158073S11720919EA0088300908000004000000
B0706043158132S11720951EA0088300907000004000000
B0706083158191S11720979EA0088000901000000000000
B0706123158251S11721005EA0087300895000000000000
B0706163158310S11721033EA0086700889000000000000
B0706203158367S11721066EA0086500888000000000000
B0706243158403S11721123EA0086200886000000000000
B0706283158414S11721185EA0086200884000000000000
B0706323158428S11721245EA0085500873000000000000
B0706363158475S11721285EA0084400863000000000000
B0706403158540S11721302EA0083200851000000000000
B0706443158607S11721322EA0082000839000000000000
B0706483158670S11721353EA0081300833000000000000
B0706523158732S11721380EA0082100846000000000000
B0706563158784S11721327EA0083900862000000000000
B0707003158750S11721252EA0084700871000000000000
B0707043158694S11721257EA0084900867000000000000
B0707083158688S11721311EA0084100860000000000000
B0707123158719S11721359EA0084100870000000000000
B0707163158765S11721318EA0085400878000000000000
B0707203158726S11721248EA0086200884000000000000
B0707243158676S11721268EA0086700893000000000000
B0707283158704S11721297EA0087700902000000000000
B0707323158741S11721246EA0088400912000004000000
B0707363158713S11721171EA0089300918000000000000
B0707403158653S11721168EA0089100912000000000000
B0707443158648S11721220EA0089400924000000000000
B0707483158691S11721237EA0090600935000000000000
B0707523158727S11721181EA0091300937000004000000
B0707563158700S11721094EA0091800947000000000000
B0708003158636S11721079EA0093000960000000000000
B0708043158615S11721120EA0094100970000004000000
B0708083158650S11721141EA0094700974000000000000
B0708123158691S11721093EA0095200982000000000000
B0708163158674S11721015EA0096600997000000000000
B0708203158615S11720993EA0096900996000000000000
B0708243158588S11721036EA0097301003000000000000
B0708283158618S11721064EA0098201011000000000000
B0708323158666S11721029EA0098701017000000000000
B0708363158672S11720946EA0099401027000000000000
B0708403158615S11720904EA0100201033000000000000
B0708443158579S11720943EA0100701042000000000000
B0708483158606S11720975EA0101801053000000000000
B0708523158649S11720930EA0102401056000000000000
B0708563158640S11720843EA0102901065000004000000
B0709003158581S11720795EA0103901076000000000000
B0709043158531S11720815EA0104601081000004000000
B0709083158541S11720855EA0104901082000004000000
B0709123158596S11720832EA0104801083000004000000
B0709163158606S11720748EA0105801096000004000000
B0709203158550S11720690EA0106501103000004000000
B0709243158506S11720713EA0107901118000000000000
B0709283158529S11720743EA0108501119000004000000
B0709323158579S11720713EA0108601123000004000000
B0709363158589S11720629EA0109101132000000000000
B0709403158546S11720560EA0109901137000000000000
B0709443158486S11720552EA0110401142000000000000
B0709483158458S11720591EA0110601143000000000000
B0709523158470S11720637EA0110301135000000000000
B0709563158496S11720683EA0109701130000000000000
B0710003158535S11720726EA0109801133000000000000
B0710043158594S11720707EA0110401140000004000000
B0710083158607S11720620EA0111301162000004000000
B0710123158557S11720563EA0113301176000000000000
B0710163158506S11720578EA0114101184000004000000
B0710203158520S11720618EA0114501186000000000000
B0710243158572S11720604EA0114801187000000000000
B0710283158597S11720525EA0115501203000000000000
B0710323158554S11720453EA0117001215000004000000
B0710363158494S11720456EA0118001225000004000000
B0710403158497S11720496EA0119001233000004000000
B0710443158548S11720487EA0119201236000000000000
B0710483158580S11720417EA0120401253000000000000
B0710523158548S11720344EA0121701261000000000000
B0710563158485S11720344EA0122201265000000000000
B0711003158475S11720391EA0123001278000000000000
B0711043158519S11720403EA0123901285000000000000
B0711083158562S11720348EA0124601295000000000000
B0711123158553S11720264EA0125601304000000000000
B0711163158498S11720205EA0126101309000000000000
B0711203158433S11720192EA0126801315000000000000
B0711243158388S11720221EA0127301321000000000000
B0711283158381S11720269EA0127501322000004000000
B0711323158406S11720314EA0127601322000004000000
B0711363158454S11720325EA0128201330000004000000
B0711403158503S11720271EA0128601336000000000000
B0711443158518S11720188EA0129901355000000000000
B0711483158463S11720147EA0131801367000000000000
B0711523158419S11720175EA0132301372000000000000
B0711563158428S11720223EA0132801377000000000000
B0712003158475S11720227EA0133801392000000000000
B0712043158502S11720158EA0135101400000000000000
B0712083158460S11720088EA0135801410000000000000
B0712123158402S11720096EA0136901419000004000000
B0712163158390S11720147EA0137401424000000000000
B0712203158425S11720174EA0138101431000004000000
B0712243158472S11720131EA0138601438000004000000
B0712283158468S11720046EA0139401452000004000000
B0712323158414S11719998EA0141101466000004000000
B0712363158356S11720013EA0141901475000000000000
B0712403158345S11720062EA0142701479000000000000
B0712443158392S11720075EA0142901478000000000000
B0712483158437S11720017EA0143201486000004000000
B0712523158432S11719928EA0144101498000000000000
B0712563158382S11719863EA0145601514000000000000
B0713003158324S11719868EA0146601521000000000000
B0713043158320S11719920EA0146801523000000000000
B0713083158366S11719932EA0147601539000004000000
B0713123158407S11719888EA0148901547000004000000
B0713163158411S11719809EA0149701560000004000000
B0713203158366S11719753EA0151101568000000000000
B0713243158304S11719749EA0151501573000000000000
B0713283158263S11719783EA0152101580000004000000
B0713323158263S11719831EA0152501584000000000000
B0713363158299S11719850EA0153201589000000000000
B0713403158345S11719818EA0153501590000000000000
B0713443158358S11719737EA0153701593000000000000
B0713483158314S11719669EA0154101605000000000000
B0713523158250S11719654EA0155201613000000000000
B0713563158193S11719680EA0155901617000004000000
B0714003158172S11719729EA0156701625000004000000
B0714043158198S11719766EA0156501617000004000000
B0714083158251S11719755EA0156301620000000000000
B0714123158291S11719695EA0156901626000000000000
B0714163158293S11719612EA0157201628000000000000
B0714203158247S11719543EA0157701635000000000000
B0714243158185S11719534EA0158301644000004000000
B0714283158147S11719578EA0158901645000000000000
B0714323158143S11719638EA0158601639000000000000
B0714363158155S11719702EA0157601625000004000000
B0714403158177S11719770EA0156901619000004000000
B0714443158206S11719841EA0155501599000000000000
B0714483158242S11719916EA0152901570000004000000
B0714523158280S11719996EA0150801556000000000000
B0714563158319S11720076EA0149801547000004000000
B0715003158358S11720154EA0149101540000004000000
B0715043158401S11720228EA0148601536000004000000
B0715083158444S11720301EA0148401534000004000000
B0715123158488S11720371EA0148001528000004000000
B0715163158531S11720443EA0147301521000004000000
B0715203158574S11720514EA0146501514000000000000
B0715243158616S11720585EA0145901507000000000000
B0715283158659S11720655EA0145101497000000000000
B0715323158706S11720724EA0144001488000000000000
B0715363158756S11720790EA0143501483000004000000
B0715403158804S11720855EA0143001477000000000000
B0715443158850S11720921EA0142601474000000000000
B0715483158900S11720988EA0142001465000000000000
B0715523158951S11721053EA0140901451000000000000
B0715563159000S11721122EA0139501438000000000000
B0716003159048S11721190EA0138301428000000000000
B0716043159096S11721259EA0137501419000000000000
B0716083159144S11721330EA0136601409000000000000
B0716123159188S11721402EA0136001407000004000000
B0716163159224S11721476EA0135701400000000000000
B0716203159252S11721553EA0134701386000004000000
B0716243159286S11721629EA0133201370000004000000
B0716283159324S11721705EA0131601356000004000000
B0716323159365S11721781EA0130801350000004000000
B0716363159409S11721853EA0130001341000004000000
B0716403159455S11721928EA0128801329000000000000
B0716443159504S11722000EA0127901320000004000000
B0716483159558S11722073EA0127201312000004000000
B0716523159608S11722146EA0128001329000000000000
B0716563159640S11722223EA0129301345000004000000
B0717003159655S11722298EA0130301348000004000000
B0717043159672S11722372EA0130201347000004000000
B0717083159694S11722441EA0130601352000004000000
B0717123159720S11722506EA0130101343000000000000
B0717163159749S11722572EA0128801329000000000000
B0717203159788S11722636EA0127501317000000000000
B0717243159820S11722704EA0127701325000000000000
B0717283159840S11722771EA0128101320000004000000
B0717323159863S11722835EA0127501313000000000000
B0717363159893S11722896EA0126901311000000000000
B0717403159924S11722955EA0126601308000000000000
B0717443159961S11723012EA0126101300000000000000
B0717483200005S11723066EA0125201286000004000000
B0717523200065S11723111EA0123601271000000000000
B0717563200134S11723142EA0122501264000000000000
B0718003200206S11723170EA0122001257000000000000
B0718043200282S11723192EA0121801259000000000000
B0718083200349S11723221EA0122101266000000000000
B0718123200408S11723260EA0122701269000000000000
B0718163200456S11723309EA0122301261000004000000
B0718203200498S11723368EA0122001263000004000000
B0718243200537S11723430EA0122601271000004000000
B0718283200576S11723486EA0123801286000000000000
B0718323200625S11723512EA0125501302000000000000
B0718363200672S11723473EA0126501310000000000000
B0718403200674S11723395EA0126501309000000000000
B0718443200630S11723332EA0126701315000004000000
B0718483200569S11723312EA0127501328000004000000
B0718523200525S11723338EA0128801335000004000000
B0718563200525S11723389EA0129101335000004000000
B0719003200569S11723417EA0129001336000004000000
B0719043200621S11723391EA0129101339000000000000
B0719083200642S11723321EA0129201338000000000000
B0719123200637S11723238EA0129101339000000000000
B0719163200605S11723166EA0129801348000000000000
B0719203200548S11723150EA0130101346000000000000
B0719243200513S11723194EA0130101351000000000000
B0719283200530S11723244EA0131401366000000000000
B0719323200581S11723241EA0132301372000004000000
B0719363200611S11723172EA0132801374000000000000
B0719403200579S11723103EA0133201383000000000000
B0719443200522S11723092EA0133601386000000000000
B0719483200490S11723133EA0133901391000004000000
B0719523200501S11723185EA0134801398000000000000
B0719563200547S11723203EA0135101400000000000000
B0720003200596S11723172EA0135401402000000000000
B0720043200613S11723101EA0135501401000000000000
B0720083200585S11723026EA0135101401000000000000
B0720123200527S11722984EA0135801410000000000000
B0720163200472S11722987EA0136501417000000000000
B0720203200427S11723017EA0136701417000000000000
B0720243200401S11723070EA0136301411000000000000
B0720283200390S11723130EA0135601398000000000000
B0720323200407S11723187EA0134101383000000000000
B0720363200452S11723229EA0132701369000000000000
B0720403200504S11723268EA0130801347000000000000
B0720443200563S11723306EA0129401335000000000000
B0720483200620S11723347EA0129101335000004000000
B0720523200670S11723394EA0129201334000004000000
B0720563200722S11723436EA0128501328000000000000
B0721003200764S11723489EA0128101324000000000000
B0721043200798S11723547EA0127701318000004000000
B0721083200826S11723606EA0126801308000004000000
B0721123200855S11723666EA0125801296000004000000
B0721163200878S11723728EA0124601283000000000000
B0721203200894S11723796EA0123301270000004000000
B0721243200904S11723865EA0122101258000000000000
B0721283200940S11723918EA0121401252000000000000
B0721323200995S11723941EA0120701246000000000000
B0721363201062S11723920EA0120301241000000000000
B0721403201122S11723858EA0119801233000000000000
B0721443201168S11723774EA0118601214000000000000
B0721483201209S11723673EA0116801198000000000000
B0721523201240S11723568EA0115401189000004000000
B0721563201266S11723459EA0114401177000000000000
B0722003201289S11723348EA0113601172000000000000
B0722043201310S11723238EA0113901179000004000000
B0722083201328S11723129EA0114301181000000000000
B0722123201343S11723017EA0113901176000004000000
B0722163201354S11722904EA0113701174000004000000
B0722203201365S11722791EA0113101164000000000000
B0722243201370S11722675EA0111301143000000000000
B0722283201374S11722555EA0109701127000000000000
B0722323201365S11722437EA0108201109000004000000
B0722363201330S11722327EA0106901099000000000000
B0722403201267S11722243EA0106101092000000000000
B0722443201190S11722185EA0105701088000000000000
B0722483201110S11722143EA0105101080000004000000
B0722523201027S11722110EA0104301074000000000000
B0722563200942S11722080EA0104001070000000000000
B0723003200859S11722058EA0103501066000000000000
B0723043200776S11722047EA0103401064000004000000
B0723083200693S11722047EA0102801060000004000000
B0723123200609S11722043EA0103201070000004000000
B0723163200557S11721968EA0105501099000000000000
B0723203200592S11721900EA0107601116000000000000
B0723243200638S11721917EA0108201122000000000000
B0723283200637S11721965EA0109401133000000000000
B0723323200599S11722000EA0109901143000000000000
B0723363200543S11722000EA0110901147000004000000
B0723403200487S11721963EA0111101150000004000000
B0723443200444S11721899EA0111401153000004000000
B0723483200412S11721825EA0111101145000000000000
B0723523200404S11721736EA0109901130000004000000
B0723563200448S11721666EA0108601118000000000000
B0724003200513S11721661EA0108101120000000000000
B0724043200565S11721691EA0108701128000000000000
B0724083200608S11721734EA0109001131000004000000
B0724123200608S11721795EA0109501139000000000000
B0724163200560S11721834EA0110501146000000000000
B0724203200496S11721817EA0111201160000000000000
B0724243200459S11721751EA0112601173000000000000
B0724283200470S11721673EA0114201185000000000000
B0724323200525S11721634EA0114201178000000000000
B0724363200572S11721662EA0114801194000000015000
B0724403200572S11721717EA0115701200000000015000
B0724443200534S11721757EA0116301203000000015000
B0724483200472S11721762EA0116201200000000015000
B0724523200408S11721726EA0116101199000000015000
B0724563200365S11721652EA0115901195000000015000
B0725003200356S11721558EA0115201183000000015000
B0725043200386S11721473EA0114101176000000000000
B0725083200446S11721424EA0113701173000004000000
B0725123200509S11721428EA0113801180000004000000
B0725163200566S11721450EA0114701184000004000000
B0725203200626S11721424EA0115101189000004000000
B0725243200631S11721339EA0115501195000004000000
B0725283200579S11721278EA0116401208000004000000
B0725323200517S11721276EA0117401221000004000000
B0725363200507S11721326EA0119101236000004000000
B0725403200550S11721341EA0120101247000004000000
B0725443200591S11721294EA0120701248000004000000
B0725483200591S11721216EA0120901252000004000000
B0725523200537S11721174EA0121401257000000000000
B0725563200491S11721207EA0122101270000000000000
B0726003200508S11721253EA0123601285000000000000
B0726043200559S11721246EA0124401285000000000000
B0726083200592S11721180EA0124501288000000000000
B0726123200574S11721102EA0125201298000000000000
B0726163200518S11721055EA0126001306000000000000
B0726203200457S11721066EA0126601315000000000000
B0726243200453S11721119EA0127701329000000000000
B0726283200507S11721119EA0128601333000000000000
