ACAM4N6
HFDTE120323
HFFXA050
HFPLTPILOT:JOHN WELSH              
HFGTYGLIDERTYPE:HORNET      
HFGIDGLIDERID:VH-GMY      
HFDTM100GPSDATUM:
HFRFWFIRMWAREVERSION:F2.6
HFRHWHARDWAREVERSION:300 Series Version 2
HFFTYFRTYPE:CAMBRIDGE AERO INSTRUMENTS, 302+
HFGPS:GARMIN,LVS-25,12,18000
HFPRSPRESSALTSENSOR:INTERSEMA, MS5534-AP, 20000
I033638FXA3941ENL4247REX
LCAMSBVER:5FWVER:F26300
C120323035839120323000102
C0000000N00000000WTAKEOFF     
C3207549S11656849EBEVERLEY AF 
C3152966S11809465EBruce Rock  
C3110883S11723215EWyalkatchem 
C3207549S11656849EBEVERLEY AF 
C0000000N00000000WLANDING     
B0359443207723S11657092EA0019900227000000000000
B0359463207723S11657092EA0019900227000000000000
B0359483207723S11657092EA0019800227000000000000
B0359503207723S11657092EA0019900227000000000000
B0359523207723S11657092EA0019800227000000000000
B0359543207723S11657092EA0019900227000000000000
B0359563207723S11657092EA0019900227000000000000
B0359583207723S11657092EA0019800227000000000000
B0400003207723S11657092EA0019900227000000000000
B0400023207723S11657092EA0020000227000000000000
B0400043207723S11657092EA0019900227000000000000
B0400063207723S11657092EA0020000227000000000000
B0400083207723S11657092EA0019900227000000000000
B0400103207723S11657092EA0019900227000000000000
B0400123207722S11657091EA0019900227000000000000
B0400153207715S11657088EA0019900227000000000000
B0400193207692S11657078EA0019900227000000000000
B0400233207653S11657056EA0020000228000000000000
B0400273207602S11657027EA0020100228000000000000
B0400313207541S11656990EA0020200230000000000000
B0400353207473S11656949EA0021100239000000000000
B0400393207404S11656912EA0022100249000000000000
B0400433207337S11656874EA0022800257000000000000
B0400473207273S11656845EA0024100283000000000000
B0400513207211S11656818EA0026200307000000000000
B0400553207151S11656789EA0028200326000000000000
B0400593207091S11656758EA0030100343000000000000
B0401033207033S11656719EA0031100357000000000000
B0401073206981S11656669EA0032300370000000000000
B0401113206953S11656594EA0033900383000000000000
B0401153206953S11656514EA0034700394000000000000
B0401193206981S11656436EA0036000407000000000000
B0401233207034S11656373EA0037200419000000000000
B0401273207098S11656337EA0039200445000000000000
B0401313207174S11656329EA0041000457000000000000
B0401353207251S11656357EA0041900463000000000000
B0401393207315S11656418EA0042700474000000000000
B0401433207355S11656503EA0043500480000000000000
B0401473207372S11656598EA0044300492000000000000
B0401513207364S11656692EA0046000507000000000000
B0401553207341S11656782EA0046900519000000000000
B0401593207308S11656866EA0048100532000000000000
B0402033207265S11656945EA0049600550000000000000
B0402073207217S11657020EA0051300569000000000000
B0402113207165S11657090EA0052800584000000000000
B0402153207103S11657131EA0054600607000000000000
B0402193207035S11657113EA0056700624000000000000
B0402233206995S11657049EA0058200639000000000000
B0402273206994S11656962EA0059400650000000000000
B0402313207042S11656892EA0060100661000000000000
B0402353207118S11656869EA0061700679000000000000
B0402393207196S11656903EA0063200694000000000000
B0402433207245S11656986EA0064500707000000000000
B0402473207246S11657083EA0065900723000000000000
B0402513207215S11657164EA0067800741000000000000
B0402553207160S11657215EA0069000761000000000000
B0402593207099S11657234EA0070900770000000000000
B0403033207069S11657302EA0071100765000000000000
B0403073207113S11657361EA0070600762000000000000
B0403113207186S11657354EA0070200757000000000000
B0403153207229S11657286EA0069700751000000000000
B0403193207220S11657208EA0069300749000000000000
B0403233207163S11657200EA0070000758000000000000
B0403273207134S11657264EA0070600766000000000000
B0403313207148S11657334EA0071100769000000000000
B0403353207203S11657367EA0070900767000000000000
B0403393207263S11657355EA0071000767000000000000
B0403433207281S11657299EA0070600762000000000000
B0403473207241S11657269EA0070300761000000000000
B0403513207195S11657304EA0070100756000000000000
B0403553207203S11657382EA0069500749000000000000
B0403593207252S11657445EA0069300753000000000000
B0404033207311S11657419EA0069600750000000000000
B0404073207289S11657364EA0069800760000000000000
B0404113207238S11657376EA0070300764000000000000
B0404153207224S11657443EA0070700766000000000000
B0404193207261S11657506EA0071100773000000000000
B0404233207319S11657504EA0072000781000000000000
B0404273207334S11657451EA0072400784000000000000
B0404313207295S11657424EA0072400782000000000000
B0404353207256S11657471EA0072400785000000000000
B0404393207272S11657542EA0072900793000000000000
B0404433207330S11657564EA0073800801000000000000
B0404473207363S11657514EA0074300803000000000000
B0404513207330S11657472EA0074600809000000000000
B0404553207285S11657502EA0075100815000000000000
B0404593207295S11657572EA0075800824000000000000
B0405033207352S11657592EA0076600829000000000000
B0405073207386S11657542EA0076900834000000000000
B0405113207360S11657495EA0077500837000000000000
B0405153207311S11657514EA0077700840000000000000
B0405193207295S11657581EA0078300850000000000000
B0405233207333S11657640EA0079000857000000000000
B0405273207393S11657625EA0079900867000000000000
B0405313207398S11657568EA0080600871000000000000
B0405353207351S11657555EA0081000876000000000000
B0405393207320S11657608EA0081400882000000000000
B0405433207338S11657679EA0082100890000000000000
B0405473207401S11657696EA0083000900000000000000
B0405513207429S11657644EA0084000907000000000000
B0405553207393S11657610EA0084300912000000000000
B0405593207350S11657646EA0084700915000000000000
B0406033207362S11657719EA0085600927000000000000
B0406073207421S11657748EA0086800938000000000000
B0406113207469S11657710EA0087800948000000000000
B0406153207458S11657655EA0088200950000000000000
B0406193207407S11657653EA0088500953000000000000
B0406233207380S11657711EA0089100962000000000000
B0406273207408S11657777EA0090500976000000000000
B0406313207469S11657792EA0092000987000000000000
B0406353207508S11657748EA0092900991000000000000
B0406393207493S11657692EA0093200996000000000000
B0406433207442S11657688EA0093800999000000000000
B0406473207412S11657748EA0094501008000000000000
B0406513207436S11657816EA0095601021000000000000
B0406553207498S11657836EA0096801032000000000000
B0406593207542S11657793EA0098101042000000000000
B0407033207540S11657735EA0098801043000000000000
B0407073207494S11657710EA0098901048000000000000
B0407113207447S11657745EA0099301054000000000000
B0407153207441S11657814EA0100901073000000000000
B0407193207488S11657859EA0102201083000000000000
B0407233207542S11657836EA0102801086000000000000
B0407273207546S11657776EA0103401093000000000000
B0407313207499S11657754EA0103801094000000000000
B0407353207454S11657801EA0104001100000000000000
B0407393207464S11657876EA0105501122000000000000
B0407433207524S11657901EA0107301136000000000000
B0407473207568S11657858EA0108101142000000000000
B0407513207547S11657806EA0108501143000000000000
B0407553207493S11657818EA0108701149000000000000
B0407593207476S11657888EA0110201166000000000000
B0408033207524S11657940EA0111601176000000000000
B0408073207581S11657917EA0112601187000000000000
B0408113207576S11657859EA0113401193000000000000
B0408153207521S11657854EA0113801199000000000000
B0408193207494S11657915EA0115201219000000000000
B0408233207524S11657979EA0116701237000000000000
B0408273207583S11657992EA0118101246000000000000
B0408313207623S11657950EA0118601253000000000000
B0408353207610S11657897EA0119301259000000000000
B0408393207560S11657887EA0120101269000000000000
B0408433207524S11657933EA0121301283000000000000
B0408473207545S11657998EA0122901295000000000000
B0408513207605S11658018EA0123601301000000000000
B0408553207650S11657975EA0124201305000000000000
B0408593207644S11657913EA0124601312000000000000
B0409033207598S11657881EA0125001315000000000000
B0409073207544S11657906EA0125501329000000000000
B0409113207553S11657978EA0127401350000000000000
B0409153207614S11657989EA0129001361000000000000
B0409193207650S11657931EA0129701364000000000000
B0409233207625S11657872EA0130401376000000000000
B0409273207573S11657872EA0131901393000000000000
B0409313207546S11657928EA0133601409000000000000
B0409353207562S11657996EA0134301410000000000000
B0409393207616S11658037EA0134501415000000000000
B0409433207676S11658018EA0135601429000000000000
B0409473207694S11657957EA0136501433000000000000
B0409513207661S11657915EA0136901440000000000000
B0409553207611S11657941EA0137501450000000000000
B0409593207605S11658015EA0138501458000000000000
B0410033207649S11658078EA0139201466000000000000
B0410073207715S11658086EA0140201477000000000000
B0410113207761S11658039EA0141001480000000000000
B0410153207763S11657972EA0140701475000000000000
B0410193207731S11657918EA0140201467000000000000
B0410233207675S11657891EA0139301462000000000000
B0410273207616S11657918EA0139801473000000000000
B0410313207577S11657980EA0140701482000000000000
B0410353207598S11658052EA0141701491000000000000
B0410393207662S11658058EA0141801489000000000000
B0410433207702S11658001EA0141601488000000000000
B0410473207688S11657937EA0142001496000000000000
B0410513207638S11657917EA0142801504000000000000
B0410553207598S11657969EA0143401507000000000000
B0410593207614S11658041EA0143201507000000000000
B0411033207674S11658076EA0143501512000000000000
B0411073207740S11658061EA0144201515000000000000
B0411113207779S11658002EA0144201513000000000000
B0411153207772S11657933EA0144101511000000000000
B0411193207726S11657889EA0143401505000000000000
B0411233207664S11657900EA0143401511000000000000
B0411273207625S11657956EA0144301517000000000000
B0411313207629S11658028EA0144401512000000000000
B0411353207680S11658082EA0144001510000000000000
B0411393207748S11658082EA0144301517000000000000
B0411433207806S11658048EA0145001525000000000000
B0411473207830S11657989EA0145601528000000000000
B0411513207797S11657945EA0145101520000000000000
B0411553207746S11657963EA0144801520000000000000
B0411593207731S11658030EA0145301525000000000000
B0412033207765S11658095EA0145301524000000000000
B0412073207828S11658110EA0145601527000000000000
B0412113207879S11658067EA0145701529000000000000
B0412153207898S11658005EA0145601524000000000000
B0412193207901S11657937EA0144501509000000000000
B0412233207893S11657865EA0142401489000000000000
B0412273207876S11657789EA0140901473000000000000
B0412313207856S11657710EA0139601462000000000000
B0412353207830S11657632EA0139001454000000000000
B0412393207802S11657551EA0138201446000000000000
B0412433207774S11657473EA0137601442000000000000
B0412473207742S11657398EA0136901433000000000000
B0412513207709S11657326EA0136201425000000000000
B0412553207675S11657256EA0135401419000000000000
B0412593207645S11657189EA0135101417000000000000
B0413033207620S11657120EA0134701412000000000000
B0413073207596S11657051EA0134201406000000000000
B0413113207570S11656981EA0133701400000000000000
B0413153207549S11656908EA0133201396000000000000
B0413193207528S11656834EA0132501389000000000000
B0413233207515S11656757EA0132201388000000000000
B0413273207519S11656680EA0132301389000000000000
B0413313207497S11656618EA0132701392000000000000
B0413353207446S11656596EA0132701388000000000000
B0413393207390S11656623EA0132201385000000000000
B0413433207345S11656676EA0131501373000000000000
B0413473207308S11656748EA0130201361000000000000
B0413513207287S11656832EA0129301354000000000000
B0413553207274S11656921EA0128401344000000000000
B0413593207265S11657013EA0127501336000000000000
B0414033207252S11657104EA0127001332000000000000
B0414073207239S11657195EA0126501327000000000000
B0414113207226S11657286EA0125901322000000000000
B0414153207215S11657377EA0125901323000000000000
B0414193207203S11657464EA0125801321000000000000
B0414233207190S11657549EA0125501318000000000000
B0414273207177S11657633EA0125101315000000000000
B0414313207168S11657716EA0125001315000000000000
B0414353207157S11657800EA0124401304000000000000
B0414393207146S11657888EA0123301293000000000000
B0414433207135S11657978EA0122501289000000000000
B0414473207129S11658066EA0122401290000000000000
B0414513207125S11658152EA0122601289000000000000
B0414553207121S11658240EA0123001296000000000000
B0414593207142S11658323EA0123701305000000000000
B0415033207198S11658365EA0124801311000000000000
B0415073207252S11658346EA0125401320000000000000
B0415113207277S11658294EA0125801318000000000000
B0415153207263S11658238EA0125401315000000000000
B0415193207216S11658216EA0125101315000000000000
B0415233207164S11658244EA0125701323000000000000
B0415273207146S11658313EA0126501329000000000000
B0415313207193S11658373EA0126301322000000000000
B0415353207250S11658349EA0127001336000000000000
B0415393207261S11658282EA0126801324000000000000
B0415433207216S11658232EA0126601330000000000000
B0415473207161S11658261EA0127801344000000000000
B0415513207181S11658338EA0128601348000000000000
B0415553207247S11658356EA0128701350000000000000
B0415593207277S11658296EA0129101354000000000000
B0416033207239S11658249EA0129501362000000000000
B0416073207186S11658264EA0130401370000000000000
B0416113207151S11658321EA0130801371000000000000
B0416153207135S11658398EA0129701355000000000000
B0416193207121S11658485EA0128201340000000000000
B0416233207109S11658578EA0127501336000000000000
B0416273207096S11658672EA0126801328000000000000
B0416313207076S11658765EA0126301323000000000000
B0416353207052S11658858EA0125601316000000000000
B0416393207030S11658950EA0125101312000000000000
B0416433207008S11659042EA0124601308000000000000
B0416473206986S11659129EA0124201302000000000000
B0416513206964S11659217EA0123301294000000000000
B0416553206942S11659304EA0122301283000000000000
B0416593206920S11659395EA0120801266000000000000
B0417033206894S11659487EA0119901255000000000000
B0417073206866S11659573EA0119501254000000000000
B0417113206842S11659653EA0119201249000000000000
B0417153206821S11659737EA0118801247000000000000
B0417193206804S11659820EA0119101253000000000000
B0417233206788S11659902EA0119401255000000000000
B0417273206775S11659980EA0119301252000000000000
B0417313206762S11700060EA0119001249000000000000
B0417353206748S11700145EA0118801248000000000000
B0417393206741S11700231EA0119901261000000000000
B0417433206783S11700292EA0121401279000000000000
B0417473206838S11700284EA0122401286000000000000
B0417513206860S11700231EA0121901270000000000000
B0417553206831S11700181EA0120701267000000000000
B0417593206778S11700163EA0121101278000000000000
B0418033206728S11700197EA0122101286000000000000
B0418073206748S11700271EA0123301299000000000000
B0418113206805S11700284EA0124101303000000000000
B0418153206834S11700234EA0124501310000000000000
B0418193206804S11700195EA0125801324000000000000
B0418233206762S11700228EA0126401324000000000000
B0418273206774S11700305EA0126601334000000000000
B0418313206832S11700332EA0127901345000000000000
B0418353206874S11700289EA0128801354000000000000
B0418393206856S11700234EA0129401359000000000000
B0418433206800S11700223EA0129801363000000000000
B0418473206758S11700277EA0130101371000000000000
B0418513206777S11700354EA0131701387000000000000
B0418553206835S11700370EA0133001399000000000000
B0418593206865S11700319EA0134101410000000000000
B0419033206838S11700276EA0134301406000000000000
B0419073206784S11700296EA0134001408000000000000
B0419113206751S11700363EA0134701417000000000000
B0419153206775S11700437EA0135401420000000000000
B0419193206838S11700444EA0135501421000000000000
B0419233206860S11700383EA0136201432000000000000
B0419273206845S11700324EA0136701436000000000000
B0419313206791S11700316EA0136401432000000000000
B0419353206738S11700374EA0136801444000000000000
B0419393206738S11700452EA0138301458000000000000
B0419433206791S11700494EA0138801453000000000000
B0419473206844S11700467EA0138801462000000000000
B0419513206840S11700410EA0140401481000000000000
B0419553206786S11700411EA0141701489000000000000
B0419593206760S11700479EA0142201494000000000000
B0420033206803S11700543EA0141801485000000000000
B0420073206870S11700541EA0141701487000000000000
B0420113206904S11700489EA0142601500000000000000
B0420153206869S11700444EA0143201497000000000000
B0420193206801S11700455EA0142501494000000000000
B0420233206747S11700519EA0142201488000000000000
B0420273206713S11700606EA0141301480000000000000
B0420313206691S11700702EA0140001471000000000000
B0420353206673S11700800EA0139501465000000000000
B0420393206654S11700896EA0138801457000000000000
B0420433206634S11700991EA0138101449000000000000
B0420473206609S11701085EA0137501444000000000000
B0420513206583S11701176EA0136801436000000000000
B0420553206557S11701265EA0136401432000000000000
B0420593206531S11701354EA0135901427000000000000
B0421033206506S11701442EA0135401424000000000000
B0421073206481S11701528EA0135001415000000000000
B0421113206458S11701615EA0134001404000000000000
B0421153206435S11701702EA0133201399000000000000
B0421193206414S11701788EA0133001397000000000000
B0421233206396S11701875EA0132701395000000000000
B0421273206376S11701962EA0133101401000000000000
B0421313206361S11702047EA0134401419000000000000
B0421353206380S11702122EA0135701425000000000000
B0421393206439S11702139EA0135801420000000000000
B0421433206474S11702088EA0134001398000000000000
B0421473206444S11702026EA0133101400000000000000
B0421513206390S11701980EA0133501406000000000000
B0421553206336S11701939EA0134101412000000000000
B0421593206279S11701956EA0135401426000000000000
B0422033206293S11702028EA0136701440000000000000
B0422073206351S11702026EA0137801456000000000000
B0422113206368S11701971EA0139001464000000000000
B0422153206335S11701930EA0139501468000000000000
B0422193206284S11701943EA0140101477000000000000
B0422233206255S11702004EA0140901482000000000000
B0422273206285S11702069EA0141401489000000000000
B0422313206345S11702079EA0142201496000000000000
B0422353206384S11702031EA0143001505000000000000
B0422393206371S11701973EA0143701513000000000000
B0422433206320S11701967EA0144401520000000000000
B0422473206283S11702022EA0144801522000000000000
B0422513206297S11702096EA0145201529000000000000
B0422553206355S11702116EA0145901536000000000000
B0422593206390S11702064EA0146501541000000000000
B0423033206364S11702009EA0147101549000000000000
B0423073206311S11702023EA0148101560000000000000
B0423113206297S11702093EA0148601560000000000000
B0423153206337S11702151EA0149001567000000000000
B0423193206396S11702147EA0149701572000000000000
B0423233206426S11702092EA0150201580000000000000
B0423273206401S11702040EA0150601585000000000000
B0423313206348S11702041EA0151201588000000000000
B0423353206314S11702103EA0151401589000000000000
B0423393206340S11702171EA0151401590000000000000
B0423433206401S11702184EA0151901598000000000000
B0423473206439S11702135EA0152501603000000000000
B0423513206448S11702065EA0152501603000000000000
B0423553206439S11701992EA0152701605000000000000
B0423593206407S11701931EA0153101609000000000000
B0424033206346S11701922EA0153601613000000000000
B0424073206290S11701958EA0153301606000000000000
B0424113206249S11702021EA0152701607000000000000
B0424153206215S11702088EA0153001609000000000000
B0424193206186S11702160EA0153301612000000000000
B0424233206162S11702235EA0153701616000000000000
B0424273206138S11702311EA0153201607000000000000
B0424313206116S11702391EA0151601589000000000000
B0424353206097S11702480EA0150601580000000000000
B0424393206075S11702571EA0150201576000000000000
B0424433206052S11702664EA0149601565000000000000
B0424473206032S11702760EA0148301553000000000000
B0424513206012S11702858EA0147301544000000000000
B0424553205993S11702957EA0146501537000000000000
B0424593205971S11703052EA0145901530000000000000
B0425033205948S11703146EA0144801516000000000000
B0425073205929S11703243EA0144201515000000000000
B0425113205909S11703338EA0144001513000000000000
B0425153205890S11703431EA0143801509000000000000
B0425193205869S11703526EA0143101503000000000000
B0425233205850S11703620EA0142701497000000000000
B0425273205826S11703712EA0141901489000000000000
B0425313205803S11703802EA0141101478000000000000
B0425353205779S11703890EA0140301474000000000000
B0425393205756S11703977EA0139901469000000000000
B0425433205731S11704064EA0139501466000000000000
B0425473205712S11704149EA0139301464000000000000
B0425513205694S11704233EA0139201463000000000000
B0425553205677S11704316EA0139101461000000000000
B0425593205659S11704402EA0138601455000000000000
B0426033205642S11704489EA0138101450000000000000
B0426073205625S11704576EA0137501441000000000000
B0426113205609S11704665EA0136401430000000000000
B0426153205594S11704753EA0135901426000000000000
B0426193205577S11704840EA0135501422000000000000
B0426233205560S11704927EA0135001416000000000000
B0426273205545S11705013EA0134601413000000000000
B0426313205531S11705099EA0134101408000000000000
B0426353205516S11705185EA0133901405000000000000
B0426393205500S11705269EA0133301399000000000000
B0426433205486S11705353EA0132201385000000000000
B0426473205466S11705438EA0131001375000000000000
B0426513205444S11705523EA0130701373000000000000
B0426553205419S11705606EA0130401370000000000000
B0426593205396S11705685EA0130401370000000000000
B0427033205373S11705763EA0130301370000000000000
B0427073205352S11705840EA0130301368000000000000
B0427113205332S11705918EA0130101367000000000000
B0427153205311S11705995EA0130401371000000000000
B0427193205295S11706071EA0130101364000000000000
B0427233205276S11706151EA0129701363000000000000
B0427273205254S11706229EA0130001367000000000000
B0427313205214S11706295EA0130901375000000000000
B0427353205154S11706295EA0131701397000000000000
B0427393205150S11706238EA0134001411000000000000
B0427433205205S11706226EA0134501413000000000000
B0427473205249S11706274EA0134701417000000000000
B0427513205249S11706348EA0135501427000000000000
B0427553205209S11706406EA0136501443000000000000
B0427593205155S11706394EA0138301460000000000000
B0428033205148S11706337EA0139701471000000000000
B0428073205187S11706303EA0140701478000000000000
B0428113205241S11706331EA0141001482000000000000
B0428153205265S11706399EA0142501505000000000000
B0428193205250S11706465EA0143801519000000000000
B0428233205204S11706499EA0145101529000000000000
B0428273205152S11706486EA0146001537000000000000
B0428313205129S11706435EA0146501542000000000000
B0428353205144S11706378EA0147201547000000000000
B0428393205189S11706346EA0147501550000000000000
B0428433205246S11706357EA0148501560000000000000
B0428473205284S11706417EA0149201572000000000000
B0428513205278S11706490EA0150901592000000000000
B0428553205232S11706525EA0152201599000000000000
B0428593205185S11706502EA0152901609000000000000
B0429033205172S11706448EA0153401613000000000000
B0429073205197S11706393EA0153701615000000000000
B0429113205249S11706365EA0154401627000000015000
B0429153205306S11706378EA0155401636000000015000
B0429193205349S11706432EA0155901641000000000000
B0429233205352S11706506EA0157001655000000000000
B0429273205306S11706549EA0158601673000000000000
B0429313205254S11706532EA0159901683000000000000
B0429353205233S11706477EA0160801691000000000000
B0429393205254S11706422EA0161601697000000000000
B0429433205304S11706391EA0161701697000000000000
B0429473205367S11706393EA0161801697000000015000
B0429513205427S11706425EA0161201689000000000000
B0429553205471S11706489EA0161001693000000000000
B0429593205495S11706568EA0161801701000000000000
B0430033205458S11706628EA0162501713000000000000
B0430073205412S11706606EA0163701723000000000000
B0430113205434S11706550EA0164801736000000000000
B0430153205497S11706565EA0166201751000000000000
B0430193205521S11706640EA0167101760000000000000
B0430233205490S11706703EA0167801768000000000000
B0430273205435S11706721EA0168501776000000000000
B0430313205389S11706690EA0169101778000000000000
B0430353205379S11706629EA0169701787000000000000
B0430393205418S11706588EA0171501808000000000000
B0430433205475S11706602EA0172901815000000015000
B0430473205512S11706667EA0173601827000000000000
B0430513205509S11706740EA0174501835000000000000
B0430553205474S11706794EA0175101840000000000000
B0430593205419S11706805EA0175401843000000000000
B0431033205379S11706768EA0175601845000000000000
B0431073205376S11706707EA0175701846000000000000
B0431113205404S11706649EA0176501860000000000000
B0431153205456S11706625EA0178401882000000000000
B0431193205505S11706655EA0180401897000000000000
B0431233205522S11706720EA0181301901000000000000
B0431273205499S11706786EA0181601907000000000000
B0431313205449S11706822EA0181601905000000000000
B0431353205393S11706811EA0181501906000000000000
B0431393205349S11706771EA0181801908000000000000
B0431433205318S11706711EA0182401920000000000000
B0431473205334S11706649EA0183701938000000000000
B0431513205388S11706636EA0185201943000000000000
B0431553205430S11706694EA0185201938000000015000
B0431593205419S11706773EA0185401951000000015000
B0432033205367S11706811EA0186801967000000015000
B0432073205317S11706785EA0187701969000000015000
B0432113205306S11706719EA0188001974000000015000
B0432153205343S11706664EA0189201989000000015000
B0432193205402S11706643EA0189701988000000015000
B0432233205466S11706662EA0189501986000000015000
B0432273205518S11706715EA0189501989000000015000
B0432313205551S11706786EA0190402002000000015000
B0432353205560S11706864EA0191302008000000015000
B0432393205530S11706929EA0191702008000000015000
B0432433205483S11706978EA0191202000000000000000
B0432473205436S11707040EA0189601980000000000000
B0432513205401S11707122EA0188201972000000000000
B0432553205374S11707206EA0187901968000000000000
B0432593205347S11707295EA0187401955000000000000
B0433033205314S11707388EA0185801936000000000000
B0433073205279S11707488EA0183701915000000000000
B0433113205243S11707592EA0182001898000000000000
B0433153205201S11707696EA0180601887000000000000
B0433193205159S11707797EA0180101886000000000000
B0433233205116S11707893EA0180201887000000000000
B0433273205072S11707985EA0179801881000000000000
B0433313205025S11708075EA0179401876000000000000
B0433353204979S11708166EA0178501868000000000000
B0433393204934S11708255EA0178301870000000000000
B0433433204890S11708340EA0178701874000000000000
B0433473204849S11708421EA0179301879000000000000
B0433513204806S11708502EA0179401881000000000000
B0433553204763S11708582EA0180001889000000000000
B0433593204721S11708664EA0179401875000000000000
B0434033204681S11708752EA0177901859000000000000
B0434073204641S11708846EA0177501859000000000000
B0434113204603S11708937EA0177501862000000000000
B0434153204567S11709025EA0178101866000000000000
B0434193204534S11709119EA0177701859000000000000
B0434233204502S11709214EA0177701860000000000000
B0434273204466S11709306EA0177001850000000000000
B0434313204429S11709402EA0175801836000000000000
B0434353204388S11709501EA0174301822000000000000
B0434393204347S11709597EA0173601817000000000000
B0434433204305S11709692EA0173201812000000000000
B0434473204266S11709788EA0172801807000000000000
B0434513204227S11709883EA0172401806000000000000
B0434553204190S11709977EA0172401808000000000000
B0434593204153S11710068EA0172601809000000000000
B0435033204118S11710156EA0172201801000000000000
B0435073204082S11710248EA0171501797000000000000
B0435113204048S11710337EA0171401797000000000000
B0435153204017S11710425EA0171301795000000000000
B0435193203988S11710512EA0170801788000000000000
B0435233203962S11710602EA0170501785000000000000
B0435273203935S11710690EA0170301783000000000000
B0435313203910S11710777EA0170301785000000000000
B0435353203887S11710861EA0170401784000000000000
B0435393203862S11710946EA0169601773000000000000
B0435433203837S11711035EA0169201772000000000000
B0435473203813S11711122EA0169001769000000000000
B0435513203785S11711210EA0168201760000000000000
B0435553203761S11711299EA0167501754000000000000
B0435593203733S11711387EA0167001748000000000000
B0436033203706S11711478EA0166501740000000000000
B0436073203679S11711570EA0165601731000000000000
B0436113203647S11711659EA0165101729000000000000
B0436153203612S11711747EA0164901726000000000000
B0436193203580S11711836EA0164301718000000000000
B0436233203549S11711924EA0163601711000000000000
B0436273203520S11712011EA0163101708000000000000
B0436313203495S11712097EA0162701703000000000000
B0436353203471S11712183EA0162101695000000000000
B0436393203447S11712271EA0161201685000000000000
B0436433203425S11712360EA0160701684000000000000
B0436473203402S11712448EA0160701684000000000000
B0436513203378S11712534EA0160901689000000000000
B0436553203334S11712597EA0161601699000000000000
B0436593203273S11712618EA0162201700000000000000
B0437033203211S11712603EA0161701691000000000000
B0437073203146S11712579EA0161101685000000000000
B0437113203075S11712574EA0160301678000000000000
B0437153203001S11712592EA0160101676000000000000
B0437193202930S11712622EA0159801673000000000000
B0437233202873S11712683EA0159401671000000000000
B0437273202831S11712759EA0159201669000000000000
B0437313202800S11712842EA0158901667000000000000
B0437353202775S11712928EA0158701661000000000000
B0437393202753S11713017EA0158201658000000000000
B0437433202735S11713111EA0158301660000000000000
B0437473202718S11713206EA0158501663000000000000
B0437513202701S11713299EA0158401659000000000000
B0437553202684S11713396EA0157901653000000000000
B0437593202667S11713489EA0157401650000000000000
B0438033202652S11713582EA0157101644000000000000
B0438073202633S11713674EA0156401635000000000000
B0438113202614S11713769EA0155401623000000000000
B0438153202592S11713866EA0154101611000000000000
B0438193202571S11713964EA0153501607000000000000
B0438233202549S11714063EA0152901603000000000000
B0438273202527S11714159EA0152501598000000000000
B0438313202505S11714256EA0152501600000000000000
B0438353202484S11714352EA0152401595000000000000
B0438393202462S11714447EA0151701588000000000000
B0438433202442S11714541EA0150901579000000000000
B0438473202424S11714635EA0150101568000000000000
B0438513202406S11714729EA0148901557000000000000
B0438553202385S11714824EA0147801546000000000000
B0438593202363S11714919EA0147001540000000000000
B0439033202341S11715010EA0146501535000000000000
B0439073202319S11715099EA0146601539000000000000
B0439113202299S11715186EA0147401551000000000000
B0439153202260S11715261EA0148501563000000000000
B0439193202197S11715290EA0149901577000000000000
B0439233202136S11715279EA0150501576000000000000
B0439273202072S11715282EA0149701564000000000000
B0439313202025S11715339EA0149201562000000000000
B0439353202026S11715421EA0149201559000000000000
B0439393202072S11715489EA0148101549000000000000
B0439433202128S11715547EA0147501545000000000000
B0439473202188S11715600EA0147001540000000000000
B0439513202240S11715672EA0146601535000000000000
B0439553202281S11715755EA0146401534000000000000
B0439593202308S11715847EA0146201533000000000000
B0440033202320S11715942EA0146001530000000000000
B0440073202318S11716040EA0145301522000000000000
B0440113202303S11716137EA0144201509000000000000
B0440153202280S11716235EA0142801495000000000000
B0440193202254S11716334EA0141601482000000000000
B0440233202225S11716434EA0140701472000000000000
B0440273202195S11716530EA0140001468000000000000
B0440313202167S11716625EA0139701465000000000000
B0440353202138S11716717EA0139201457000000000000
B0440393202110S11716811EA0138501450000000000000
B0440433202080S11716903EA0138101447000000000000
B0440473202051S11716997EA0137201435000000000000
B0440513202024S11717092EA0136401428000000000000
B0440553201996S11717185EA0135801422000000000000
B0440593201969S11717279EA0135101413000000000000
B0441033201942S11717371EA0134401404000000000000
B0441073201916S11717462EA0133401393000000000000
B0441113201889S11717553EA0132401386000000000000
B0441153201861S11717641EA0132301387000000000000
B0441193201834S11717727EA0131701375000000000000
B0441233201805S11717814EA0130501366000000000000
B0441273201777S11717903EA0129601356000000000000
B0441313201746S11717989EA0128801347000000000000
B0441353201713S11718074EA0127601330000000000000
B0441393201678S11718161EA0126201316000000000000
B0441433201644S11718250EA0125301312000000000000
B0441473201614S11718337EA0125101311000000000000
B0441513201582S11718423EA0124801305000000000000
B0441553201551S11718506EA0124601305000000000000
B0441593201530S11718593EA0125001312000000000000
B0442033201543S11718676EA0126001323000000000000
B0442073201600S11718701EA0126901332000000000000
B0442113201627S11718650EA0127201331000000000000
B0442153201599S11718593EA0126901325000000000000
B0442193201549S11718554EA0126801330000000000000
B0442233201505S11718601EA0127401337000000000000
B0442273201521S11718671EA0127101325000000000000
B0442313201582S11718688EA0126701325000000000000
B0442353201618S11718639EA0126901330000000000000
B0442393201604S11718579EA0127001330000000000000
B0442433201567S11718525EA0126901327000000000000
B0442473201519S11718479EA0126901329000000000000
B0442513201463S11718437EA0127101334000000000000
B0442553201402S11718415EA0128101347000000000000
B0442593201392S11718485EA0129401352000000000000
B0443033201460S11718489EA0129901366000000000000
B0443073201469S11718424EA0131701387000000000000
B0443113201419S11718401EA0133401401000000000000
B0443153201380S11718446EA0134401410000000000000
B0443193201398S11718510EA0135501424000000000000
B0443233201454S11718516EA0136401427000000000000
B0443273201484S11718463EA0136601432000000000000
B0443313201457S11718410EA0137101437000000000000
B0443353201406S11718432EA0137801446000000000000
B0443393201419S11718499EA0138201448000000000000
B0443433201479S11718523EA0139001461000000000000
B0443473201512S11718477EA0140001471000000000000
B0443513201489S11718423EA0140401473000000000000
B0443553201435S11718418EA0141201484000000000000
B0443593201410S11718476EA0142401495000000000000
B0444033201447S11718533EA0143201501000000000000
B0444073201505S11718533EA0144101512000000000000
B0444113201536S11718486EA0145201522000000000000
B0444153201525S11718428EA0145601524000000000000
B0444193201480S11718393EA0146201532000000000000
B0444233201428S11718412EA0146901542000000000000
B0444273201415S11718479EA0147701550000000000000
B0444313201458S11718529EA0148801561000000000000
B0444353201515S11718520EA0149601569000000000000
B0444393201538S11718464EA0150201574000000000000
B0444433201508S11718408EA0150201573000000000000
B0444473201449S11718394EA0150801580000000000000
B0444513201408S11718445EA0151401586000000000000
B0444553201419S11718519EA0152401599000000000000
B0444593201466S11718571EA0153001603000000000000
B0445033201528S11718561EA0153201607000000000000
B0445073201557S11718498EA0154001618000000000000
B0445113201540S11718432EA0154601617000000000000
B0445153201487S11718390EA0154501622000000000000
B0445193201424S11718389EA0155401631000000000000
B0445233201388S11718447EA0156501642000000000000
B0445273201419S11718516EA0157601653000000000000
B0445313201482S11718519EA0158901667000000000000
B0445353201514S11718463EA0159701677000000000000
B0445393201493S11718405EA0160501684000000000000
B0445433201439S11718394EA0161101687000000000000
B0445473201398S11718449EA0161401692000000000000
B0445513201411S11718520EA0162501708000000000000
B0445553201465S11718549EA0163801719000000000000
B0445593201513S11718511EA0164601724000000000000
B0446033201513S11718445EA0165101730000000000000
B0446073201467S11718410EA0165401732000000000000
B0446113201415S11718434EA0165601736000000000000
B0446153201402S11718502EA0166301746000000000000
B0446193201436S11718562EA0167101753000000000000
B0446233201495S11718562EA0168001762000000000000
B0446273201515S11718503EA0169101773000000000000
B0446313201482S11718459EA0169901778000000000000
B0446353201428S11718466EA0169701773000000000000
B0446393201387S11718520EA0169701777000000000000
B0446433201382S11718593EA0170601787000000000000
B0446473201431S11718631EA0171601804000000000000
B0446513201476S11718609EA0173001811000000000000
B0446553201491S11718549EA0173101812000000000000
B0446593201456S11718502EA0174001825000000000000
B0447033201410S11718532EA0174701832000000000000
B0447073201411S11718601EA0175501839000000000000
B0447113201463S11718644EA0176401852000000000000
B0447153201515S11718622EA0177801867000000000000
B0447193201526S11718561EA0178501868000000000000
B0447233201484S11718515EA0178501870000000000000
B0447273201424S11718522EA0178801873000000000000
B0447313201391S11718583EA0179201881000000000000
B0447353201408S11718654EA0180401893000000000000
B0447393201461S11718692EA0181401905000000000000
B0447433201513S11718667EA0182601916000000000000
B0447473201522S11718605EA0183201917000000000000
B0447513201480S11718554EA0183001914000000000000
B0447553201418S11718558EA0183201918000000000000
B0447593201387S11718624EA0184001928000000000000
B0448033201392S11718698EA0184901938000000000000
B0448073201449S11718728EA0186201953000000000000
B0448113201493S11718689EA0187201968000000000000
B0448153201482S11718629EA0188501974000000000000
B0448193201428S11718609EA0188701975000000000000
B0448233201379S11718645EA0189401985000000000000
B0448273201376S11718711EA0190201992000000000000
B0448313201424S11718758EA0190601995000000000000
B0448353201486S11718750EA0191502005000000000000
B0448393201518S11718696EA0192502017000000000000
B0448433201501S11718633EA0192902019000000000000
B0448473201449S11718600EA0192902020000000000000
B0448513201391S11718619EA0193102022000000000000
B0448553201359S11718681EA0193202025000000015000
B0448593201348S11718761EA0193002017000000000000
B0449033201339S11718850EA0192702020000000000000
B0449073201320S11718941EA0192502009000000000000
B0449113201288S11719035EA0190801992000000000000
B0449153201252S11719130EA0189501981000000000000
B0449193201214S11719227EA0188601973000000000000
B0449233201179S11719326EA0187601964000000000000
B0449273201149S11719428EA0187001954000000000000
B0449313201120S11719532EA0186301948000000000000
B0449353201092S11719634EA0185701942000000000000
B0449393201066S11719736EA0185001936000000000000
B0449433201046S11719838EA0184401928000000000000
B0449473201027S11719940EA0183901922000000000000
B0449513201007S11720039EA0183301918000000000000
B0449553200989S11720132EA0183101917000000000000
B0449593200972S11720223EA0182701911000000000000
B0450033200954S11720316EA0182901916000000000000
B0450073200938S11720404EA0183301918000000000000
B0450113200925S11720492EA0182401906000000000000
B0450153200910S11720586EA0181001891000000000000
B0450193200894S11720682EA0180201885000000000000
B0450233200878S11720778EA0179601880000000000000
B0450273200862S11720873EA0179101875000000000000
B0450313200845S11720969EA0178401863000000000000
B0450353200826S11721071EA0177101847000000000000
B0450393200807S11721176EA0176001839000000000000
B0450433200785S11721283EA0175101832000000000000
B0450473200761S11721387EA0174701826000000000000
B0450513200737S11721489EA0174201821000000000000
B0450553200712S11721588EA0173301812000000000000
B0450593200693S11721690EA0172401801000000000000
B0451033200683S11721790EA0172001801000000000000
B0451073200685S11721887EA0172101802000000000000
B0451113200696S11721983EA0172001802000000000000
B0451153200720S11722076EA0172101801000000000000
B0451193200746S11722169EA0171301790000000000000
B0451233200764S11722266EA0171301796000000000000
B0451273200780S11722358EA0172101803000000000000
B0451313200794S11722450EA0172501804000000000000
B0451353200836S11722522EA0172901812000000000000
B0451393200897S11722527EA0173101807000000000000
B0451433200929S11722475EA0172301796000000000000
B0451473200906S11722419EA0171401786000000000000
B0451513200849S11722433EA0170901783000000000000
B0451553200832S11722509EA0171001789000000000000
B0451593200846S11722589EA0170701781000000000000
B0452033200864S11722676EA0169401764000000000000
B0452073200869S11722774EA0167801750000000000000
B0452113200863S11722874EA0166901746000000000000
B0452153200849S11722969EA0167301751000000000000
B0452193200832S11723059EA0167201748000000000000
B0452233200808S11723148EA0166701743000000000000
B0452273200777S11723237EA0166601742000000000000
B0452313200745S11723324EA0166501743000000000000
B0452353200724S11723412EA0166601745000000000000
B0452393200706S11723503EA0166101736000000000000
B0452433200683S11723594EA0165601731000000000000
B0452473200654S11723681EA0165301729000000000000
B0452513200617S11723763EA0164501717000000000000
B0452553200579S11723848EA0163201701000000000000
B0452593200540S11723936EA0161801690000000000000
B0453033200498S11724022EA0161201681000000000000
B0453073200455S11724109EA0160101667000000000000
B0453113200410S11724197EA0158501655000000000000
B0453153200369S11724284EA0158001653000000000000
B0453193200329S11724368EA0158101654000000000000
B0453233200291S11724450EA0157801648000000000000
B0453273200253S11724535EA0156701638000000000000
B0453313200217S11724622EA0156401637000000000000
B0453353200180S11724706EA0156301633000000000000
B0453393200145S11724788EA0156401638000000000000
B0453433200123S11724869EA0157401650000000000000
B0453473200134S11724953EA0158301660000000000000
B0453513200167S11725028EA0159201670000000000000
B0453553200227S11725040EA0160701685000000000000
B0453593200252S11724984EA0161201683000000000000
B0454033200218S11724929EA0161101685000000000000
B0454073200160S11724912EA0162101699000000000000
B0454113200140S11724976EA0163701714000000000000
B0454153200187S11725019EA0164201720000000000000
B0454193200235S11724984EA0165301731000000000000
B0454233200226S11724925EA0166501745000000000000
B0454273200175S11724920EA0167701755000000000000
B0454313200150S11724980EA0168201760000000000000
B0454353200183S11725040EA0168601767000000000000
B0454393200240S11725037EA0169601778000000000000
B0454433200264S11724985EA0170601788000000000000
B0454473200245S11724929EA0171101788000000000000
B0454513200197S11724903EA0171401797000000000000
B0454553200163S11724951EA0172201801000000000000
B0454593200201S11725010EA0171901795000000000000
B0455033200267S11724999EA0172501809000000000000
B0455073200286S11724942EA0174001824000000000000
B0455113200241S11724910EA0175001830000000015000
B0455153200200S11724958EA0175301834000000015000
B0455193200225S11725025EA0175901843000000000000
B0455233200283S11725037EA0177001855000000000000
B0455273200322S11724993EA0177501856000000000000
B0455313200317S11724929EA0177601860000000000000
B0455353200270S11724889EA0178201870000000000000
B0455393200215S11724903EA0179301879000000000000
B0455433200192S11724964EA0179701877000000000000
B0455473200222S11725031EA0179101873000000000000
B0455513200284S11725038EA0179301879000000000000
B0455553200321S11724984EA0180201889000000000000
B0455593200299S11724928EA0181101898000000000000
B0456033200244S11724925EA0181601899000000000000
B0456073200212S11724981EA0181601896000000000000
B0456113200187S11725054EA0180401878000000000000
B0456153200161S11725139EA0179201870000000000000
B0456193200136S11725230EA0178701865000000000000
B0456233200110S11725322EA0178401866000000000000
B0456273200083S11725415EA0178601870000000000000
B0456313200058S11725506EA0179401878000000000000
B0456353200035S11725595EA0179801881000000000000
B0456393200007S11725682EA0179501877000000000000
B0456433159976S11725766EA0179401877000000000000
B0456473159946S11725851EA0179401877000000000000
B0456513159916S11725935EA0179401876000000000000
B0456553159885S11726019EA0179201873000000000000
B0456593159855S11726106EA0178401861000000000000
B0457033159824S11726195EA0176901844000000000000
B0457073159793S11726289EA0175301829000000000000
B0457113159762S11726384EA0174101819000000000000
B0457153159733S11726479EA0173601814000000000000
B0457193159706S11726574EA0173301810000000000000
B0457233159684S11726669EA0173201811000000000000
B0457273159663S11726761EA0173001807000000000000
B0457313159645S11726857EA0172001794000000000000
B0457353159624S11726953EA0170901785000000000000
B0457393159601S11727050EA0170101778000000000000
B0457433159575S11727143EA0169601773000000000000
B0457473159551S11727238EA0169501773000000000000
B0457513159529S11727329EA0169201766000000000000
B0457553159506S11727421EA0168101751000000000000
B0457593159484S11727515EA0166501736000000000000
B0458033159461S11727609EA0165301725000000000000
B0458073159441S11727698EA0165601737000000000000
B0458113159411S11727780EA0166901748000000000000
B0458153159364S11727844EA0167601756000000000000
B0458193159300S11727865EA0168401765000000000000
B0458233159239S11727856EA0168801766000000000000
B0458273159181S11727832EA0168401760000000000000
B0458313159121S11727815EA0169401780000000000000
B0458353159075S11727862EA0171001790000000000000
B0458393159101S11727930EA0171801796000000000000
B0458433159160S11727940EA0171601789000000000000
B0458473159192S11727887EA0170901783000000000000
B0458513159166S11727824EA0171001791000000000000
B0458553159120S11727778EA0172201805000000000000
B0458593159069S11727804EA0173801816000000000000
B0459033159100S11727867EA0173901816000000000000
B0459073159160S11727844EA0174101823000000000000
B0459113159178S11727778EA0175501839000000000000
B0459153159153S11727720EA0176601852000000000000
B0459193159099S11727723EA0177801865000000000000
B0459233159070S11727784EA0179201880000000000000
B0459273159103S11727843EA0180501890000000000000
B0459313159161S11727841EA0180901892000000000000
B0459353159185S11727788EA0181801906000000000000
B0459393159146S11727755EA0182801914000000000000
B0459433159103S11727793EA0183801925000000000000
B0459473159118S11727862EA0184701932000000000000
B0459513159179S11727878EA0185001932000000000000
B0459553159209S11727827EA0185901951000000000000
B0459593159182S11727785EA0187401961000000000000
B0500033159135S11727807EA0188001966000000000000
B0500073159130S11727879EA0188601971000000000000
B0500113159182S11727926EA0188601968000000000000
B0500153159238S11727901EA0188901986000000000000
B0500193159248S11727848EA0190601997000000000000
B0500233159213S11727809EA0190801994000000000000
B0500273159157S11727807EA0190902000000000000000
B0500313159125S11727865EA0192102013000000000000
B0500353159157S11727930EA0192802015000000000000
B0500393159220S11727935EA0192902016000000000000
B0500433159256S11727887EA0193202023000000000000
B0500473159251S11727831EA0194202033000000000000
B0500513159216S11727792EA0194702035000000000000
B0500553159161S11727796EA0194402028000000000000
B0500593159113S11727846EA0193602019000000000000
B0501033159087S11727931EA0193202025000000000000
B0501073159083S11728021EA0194902049000000000000
B0501113159142S11728053EA0197802076000000000000
B0501153159183S11728013EA0198602069000000000000
B0501193159174S11727947EA0197502064000000000000
B0501233159126S11727915EA0198402080000000000000
B0501273159086S11727958EA0200402100000000000000
B0501313159113S11728025EA0201602108000000000000
B0501353159175S11728028EA0202802122000000000000
B0501393159207S11727983EA0203702129000000000000
B0501433159194S11727932EA0203502127000000000000
B0501473159151S11727896EA0203502127000000000000
B0501513159095S11727911EA0203702130000000000000
B0501553159057S11727969EA0205002147000000000000
B0501593159090S11728031EA0206102153000000000000
B0502033159149S11728027EA0206502160000000000000
B0502073159177S11727976EA0207902178000000000000
B0502113159161S11727926EA0208602175000000000000
B0502153159110S11727910EA0207702167000000000000
B0502193159061S11727950EA0208202178000000000000
B0502233159045S11728023EA0209402191000000000000
B0502273159083S11728084EA0210002192000000000000
B0502313159143S11728075EA0209802188000000000000
B0502353159165S11728015EA0210002197000000000000
B0502393159146S11727956EA0211002205000000000000
B0502433159095S11727932EA0211202208000000000000
B0502473159040S11727967EA0211202207000000000000
B0502513159005S11728041EA0211102207000000000000
B0502553158986S11728132EA0211402206000000000000
B0502593158971S11728230EA0211002202000000000000
B0503033158957S11728331EA0210002188000000000000
B0503073158945S11728437EA0208802177000000000000
B0503113158934S11728547EA0207402161000000000000
B0503153158923S11728660EA0206602161000000000000
B0503193158923S11728763EA0207702174000000000000
B0503233158922S11728862EA0207502163000000000000
B0503273158915S11728964EA0206002147000000000000
B0503313158899S11729071EA0204202127000000000000
B0503353158874S11729183EA0203102117000000000000
B0503393158849S11729293EA0202902122000000000000
B0503433158824S11729397EA0203502127000000000000
B0503473158800S11729500EA0203202119000000000000
B0503513158774S11729604EA0202602112000000000000
B0503553158750S11729708EA0201802105000000000000
B0503593158727S11729815EA0201002097000000000000
B0504033158704S11729921EA0200402092000000000000
B0504073158680S11730028EA0199502083000000000000
B0504113158657S11730137EA0198902075000000000000
B0504153158635S11730246EA0198502070000000000000
B0504193158613S11730354EA0198202069000000000000
B0504233158589S11730459EA0197602059000000000000
B0504273158568S11730566EA0196502050000000000000
B0504313158550S11730671EA0195802043000000000000
B0504353158529S11730773EA0195802046000000000000
B0504393158509S11730870EA0196902062000000000000
B0504433158488S11730965EA0197102055000000000000
B0504473158467S11731067EA0196302049000000000000
B0504513158446S11731172EA0195802041000000000000
B0504553158427S11731280EA0194402025000000000000
B0504593158408S11731392EA0193202014000000000000
B0505033158389S11731506EA0191801998000000000000
B0505073158368S11731622EA0190001981000000000000
B0505113158347S11731737EA0189301976000000000000
B0505153158328S11731849EA0189301978000000000000
B0505193158310S11731958EA0189601984000000000000
B0505233158294S11732062EA0190001991000000000000
B0505273158282S11732157EA0191102002000000000000
B0505313158273S11732248EA0191602005000000000000
B0505353158263S11732338EA0191101994000000000000
B0505393158251S11732432EA0189901982000000000000
B0505433158246S11732528EA0189001973000000000000
B0505473158245S11732623EA0188501968000000000000
B0505513158238S11732716EA0187601957000000000000
B0505553158223S11732811EA0187101955000000000000
B0505593158203S11732902EA0188001972000000000000
B0506033158187S11732991EA0188901975000000000000
B0506073158168S11733080EA0188701969000000000000
B0506113158148S11733173EA0187801954000000000000
B0506153158129S11733273EA0185601932000000000000
B0506193158108S11733375EA0184201918000000000000
B0506233158085S11733481EA0183001909000000000000
B0506273158061S11733586EA0182901912000000000000
B0506313158039S11733690EA0182301899000000000000
B0506353158018S11733798EA0181001884000000000000
B0506393157998S11733906EA0180101879000000000000
B0506433157976S11734011EA0179701875000000000000
B0506473157952S11734118EA0178601858000000000000
B0506513157930S11734226EA0177201845000000000000
B0506553157908S11734333EA0176201839000000000000
B0506593157885S11734439EA0175501830000000000000
B0507033157859S11734547EA0174301815000000000000
B0507073157831S11734657EA0172801800000000000000
B0507113157801S11734770EA0171701791000000000000
B0507153157770S11734881EA0171101784000000000000
B0507193157738S11734993EA0170401778000000000000
B0507233157705S11735103EA0169501767000000000000
B0507273157670S11735215EA0168501754000000000000
B0507313157636S11735328EA0167501747000000000000
B0507353157605S11735442EA0166301733000000000000
B0507393157576S11735555EA0165601727000000000000
B0507433157548S11735663EA0166501748000000000000
B0507473157523S11735760EA0168501763000000000000
B0507513157497S11735854EA0168001745000000000000
B0507553157472S11735955EA0166601739000000000000
B0507593157449S11736055EA0167201752000000000000
B0508033157428S11736148EA0168701769000000000000
B0508073157404S11736239EA0169501771000000000000
B0508113157378S11736330EA0169401771000000000000
B0508153157350S11736421EA0169001763000000000000
B0508193157323S11736517EA0168101752000000000000
B0508233157294S11736619EA0167301745000000000000
B0508273157266S11736725EA0166601739000000000000
B0508313157241S11736828EA0166701742000000000000
B0508353157216S11736930EA0166001731000000000000
B0508393157192S11737031EA0165701728000000000000
B0508433157167S11737134EA0164301708000000000000
B0508473157141S11737239EA0162701693000000000000
B0508513157116S11737346EA0161501683000000000000
B0508553157093S11737450EA0160901681000000000000
B0508593157071S11737551EA0160901681000000000000
B0509033157056S11737647EA0161901694000000000000
B0509073157064S11737734EA0163001704000000000000
B0509113157081S11737815EA0163701715000000000000
B0509153157101S11737888EA0164701718000000000000
B0509193157128S11737955EA0164001708000000000000
B0509233157145S11738042EA0161201676000000000000
B0509273157146S11738144EA0159301664000000000000
B0509313157136S11738245EA0158501658000000000000
B0509353157121S11738347EA0158101652000000000000
B0509393157103S11738449EA0157401646000000000000
B0509433157084S11738552EA0156701632000000000000
B0509473157059S11738661EA0155201617000000000000
B0509513157033S11738770EA0154701610000000000000
B0509553157004S11738880EA0154501612000000000000
B0509593156976S11738987EA0155201620000000000000
B0510033156949S11739093EA0155901627000000000000
B0510073156924S11739194EA0155701619000000000000
B0510113156900S11739296EA0154401605000000000000
B0510153156877S11739398EA0153301595000000000000
B0510193156856S11739502EA0152501587000000000000
B0510233156837S11739609EA0151601579000000000000
B0510273156819S11739715EA0150701568000000000000
B0510313156800S11739823EA0150001563000000000000
B0510353156783S11739933EA0149501558000000000000
B0510393156767S11740040EA0149001552000000000000
B0510433156752S11740150EA0149301559000000000000
B0510473156744S11740256EA0149801564000000000000
B0510513156739S11740363EA0149301557000000000000
B0510553156734S11740471EA0148701549000000000000
B0510593156726S11740579EA0147701539000000000000
B0511033156717S11740688EA0146401524000000000000
B0511073156707S11740800EA0145101508000000000000
B0511113156696S11740911EA0143401491000000000000
B0511153156686S11741023EA0143101495000000000000
B0511193156673S11741129EA0143401494000000000000
B0511233156664S11741233EA0142701488000000000000
B0511273156657S11741335EA0143101498000000000000
B0511313156652S11741433EA0144201511000000000000
B0511353156648S11741524EA0145501522000000000000
B0511393156630S11741612EA0145601517000000000000
B0511433156573S11741669EA0145801529000000000000
B0511473156509S11741673EA0147601550000000000000
B0511513156468S11741633EA0148901553000000000000
B0511553156464S11741568EA0148501547000000000000
B0511593156501S11741511EA0148101546000000000000
B0512033156564S11741487EA0148201547000000000000
B0512073156631S11741476EA0148401551000000000000
B0512113156699S11741464EA0149101558000000000000
B0512153156757S11741435EA0149801565000000000000
B0512193156772S11741372EA0150801575000000000000
B0512233156738S11741317EA0151101573000000000000
B0512273156683S11741279EA0150301564000000000000
B0512313156624S11741243EA0150101563000000000000
B0512353156559S11741218EA0150101561000000000000
B0512393156490S11741244EA0150101566000000000000
B0512433156429S11741296EA0150701573000000000000
B0512473156367S11741348EA0151801585000000000000
B0512513156300S11741350EA0153301605000000000000
B0512553156293S11741286EA0155101621000000000000
B0512593156344S11741266EA0155601625000000000000
B0513033156384S11741320EA0156301638000000015000
B0513073156367S11741395EA0157701653000000015000
B0513113156308S11741403EA0159001666000000015000
B0513153156299S11741342EA0160201676000000015000
B0513193156352S11741318EA0160701681000000015000
B0513233156397S11741368EA0161801702000000015000
B0513273156382S11741435EA0164301723000000015000
B0513313156328S11741452EA0165301728000000015000
B0513353156296S11741403EA0165901734000000015000
B0513393156319S11741347EA0166901750000000015000
B0513433156370S11741344EA0168701767000000015000
B0513473156404S11741395EA0169701776000000015000
B0513513156395S11741468EA0170501782000000015000
B0513553156345S11741507EA0171101790000000015000
B0513593156288S11741493EA0171601791000000015000
B0514033156247S11741444EA0171801791000000015000
B0514073156226S11741382EA0171401785000000000000
B0514113156245S11741320EA0171501793000000000000
B0514153156293S11741287EA0172301802000000000000
B0514193156349S11741281EA0173301809000000000000
B0514233156408S11741287EA0173401808000000000000
B0514273156461S11741327EA0173201804000000000000
B0514313156504S11741387EA0173401811000000000000
B0514353156552S11741437EA0174501824000000000000
B0514393156605S11741416EA0175701834000000000000
B0514433156605S11741348EA0175401826000000000000
B0514473156551S11741311EA0174101809000000000000
B0514513156488S11741356EA0172301795000000000000
B0514553156466S11741447EA0172201798000000000000
B0514593156461S11741546EA0172601807000000000000
B0515033156458S11741646EA0173201809000000000000
B0515073156458S11741750EA0171901793000000000000
B0515113156457S11741864EA0170601774000000000000
B0515153156455S11741981EA0169601771000000000000
B0515193156452S11742094EA0169801776000000000000
B0515233156449S11742202EA0170101776000000000000
B0515273156447S11742309EA0170001776000000000000
B0515313156443S11742416EA0170001774000000000000
B0515353156435S11742521EA0169601773000000000000
B0515393156423S11742627EA0169401769000000000000
B0515433156409S11742735EA0169601771000000000000
B0515473156395S11742848EA0169401768000000000000
B0515513156377S11742960EA0168001747000000000000
B0515553156360S11743075EA0166601737000000000000
B0515593156343S11743189EA0165701725000000000000
B0516033156326S11743302EA0164601716000000000000
B0516073156314S11743414EA0163901710000000000000
B0516113156305S11743523EA0163601708000000000000
B0516153156295S11743627EA0163701712000000000000
B0516193156286S11743727EA0165001727000000000000
B0516233156275S11743818EA0165801736000000000000
B0516273156269S11743907EA0167001752000000000000
B0516313156265S11743990EA0167701755000000000000
B0516353156258S11744073EA0168201758000000000000
B0516393156249S11744155EA0167701749000000000000
B0516433156236S11744239EA0166801741000000000000
B0516473156228S11744325EA0166201736000000000000
B0516513156222S11744412EA0166001732000000000000
B0516553156223S11744498EA0165501728000000000000
B0516593156235S11744581EA0165401728000000000000
B0517033156261S11744661EA0165301725000000000000
B0517073156273S11744745EA0165801737000000000000
B0517113156240S11744814EA0167301752000000000000
B0517153156178S11744811EA0168801767000000000000
B0517193156170S11744748EA0169801770000000000000
B0517233156223S11744719EA0169301765000000000000
B0517273156276S11744753EA0169601777000000000000
B0517313156301S11744814EA0170501782000000000000
B0517353156280S11744878EA0170701788000000000000
B0517393156224S11744910EA0171801798000000000000
B0517433156169S11744948EA0172701804000000000000
B0517473156167S11745022EA0173001805000000000000
B0517513156222S11745034EA0173101803000000000000
B0517553156243S11744969EA0172501793000000000000
B0517593156189S11744922EA0172201800000000000000
B0518033156122S11744944EA0173301813000000000000
B0518073156085S11745010EA0174501826000000000000
B0518113156076S11745090EA0174801824000000000000
B0518153156081S11745170EA0174801826000000000000
B0518193156092S11745252EA0174301813000000000000
B0518233156102S11745343EA0172501794000000000000
B0518273156104S11745439EA0171101782000000000000
B0518313156101S11745539EA0170001769000000000000
B0518353156096S11745642EA0168701757000000000000
B0518393156088S11745746EA0168101751000000000000
B0518433156078S11745850EA0167501744000000000000
B0518473156071S11745952EA0166801736000000000000
B0518513156067S11746053EA0166101728000000000000
B0518553156063S11746153EA0164901715000000000000
B0518593156058S11746254EA0163701705000000000000
B0519033156053S11746355EA0163401702000000000000
B0519073156046S11746455EA0162701695000000000000
B0519113156037S11746553EA0162201685000000000000
B0519153156027S11746652EA0161101677000000000000
B0519193156018S11746750EA0160501671000000000000
B0519233156010S11746846EA0160001664000000000000
B0519273156002S11746942EA0158701649000000000000
B0519313155994S11747040EA0157401639000000000000
B0519353155987S11747135EA0157001636000000000000
B0519393155979S11747228EA0156201625000000000000
B0519433155972S11747322EA0155101609000000000000
B0519473155970S11747415EA0154101601000000000000
B0519513155971S11747506EA0153701601000000000000
B0519553155974S11747595EA0153201591000000000000
B0519593155979S11747686EA0151601574000000000000
B0520033155977S11747778EA0151301581000000000000
B0520073155975S11747861EA0152601592000000000000
B0520113155971S11747941EA0153701607000000000000
B0520153155994S11748004EA0155401624000000000000
B0520193156049S11747994EA0156301629000000000000
B0520233156058S11747928EA0156401631000000000000
B0520273156005S11747891EA0156701635000000000000
B0520313155950S11747925EA0157101640000000000000
B0520353155938S11747995EA0158001650000000000000
B0520393155977S11748051EA0158901660000000000000
B0520433156031S11748035EA0160401680000000000000
B0520473156016S11747974EA0161201679000000000000
B0520513155955S11747972EA0160801680000000000000
B0520553155933S11748042EA0161601695000000000000
B0520593155974S11748104EA0162801702000000000000
B0521033156029S11748091EA0164001719000000000000
B0521073156037S11748030EA0165901733000000000000
B0521113155994S11747987EA0165901727000000000000
B0521153155933S11748011EA0166501741000000000000
B0521193155911S11748080EA0167801756000000000000
B0521233155933S11748146EA0168801762000000000000
B0521273155993S11748163EA0169101766000000000000
B0521313156033S11748121EA0170301784000000000000
B0521353156003S11748073EA0172001796000000000000
B0521393155949S11748102EA0172301797000000000000
B0521433155950S11748176EA0173401813000000000000
B0521473156005S11748208EA0174201819000000000000
B0521513156053S11748180EA0175501836000000000000
B0521553156050S11748120EA0176901849000000000000
B0521593156003S11748090EA0177601855000000000000
B0522033155950S11748120EA0178801869000000000000
B0522073155942S11748189EA0179901877000000000000
B0522113155987S11748237EA0180401884000000000000
B0522153156042S11748220EA0180701889000000000000
B0522193156057S11748160EA0181601901000000000000
B0522233156028S11748108EA0182701908000000000000
B0522273155974S11748095EA0183601919000000000000
B0522313155928S11748137EA0184701926000000000000
B0522353155938S11748203EA0185101930000000000000
B0522393155996S11748224EA0185401934000000000000
B0522433156040S11748180EA0186101945000000000000
B0522473156028S11748116EA0187201955000000000000
B0522513155975S11748095EA0188401968000000000000
B0522553155932S11748143EA0189001971000000000000
B0522593155941S11748216EA0189201974000000000000
B0523033155996S11748251EA0189701980000000000000
B0523073156053S11748225EA0190101987000000000000
B0523113156076S11748167EA0191402003000000000000
B0523153156061S11748112EA0192602011000000000000
B0523193156014S11748078EA0192502005000000000000
B0523233155951S11748095EA0193202026000000000000
B0523273155924S11748150EA0195202042000000000000
B0523313155958S11748201EA0195302040000000000000
B0523353156018S11748191EA0195502043000000000000
B0523393156039S11748128EA0196002052000000000000
B0523433156006S11748076EA0197102061000000000000
B0523473155951S11748091EA0198302079000000000000
B0523513155953S11748152EA0199502084000000000000
B0523553156006S11748178EA0199302082000000000000
B0523593156053S11748136EA0199902094000000000000
B0524033156046S11748076EA0201102100000000000000
B0524073155994S11748043EA0201402106000000000000
B0524113155949S11748082EA0203002130000000000000
B0524153155971S11748137EA0203902128000000000000
B0524193156029S11748137EA0203802130000000000000
B0524233156057S11748081EA0204702141000000000000
B0524273156032S11748022EA0204802139000000000000
B0524313155972S11748007EA0204902147000000000000
B0524353155928S11748047EA0206302160000000000000
B0524393155941S11748108EA0206702156000000000000
B0524433156000S11748138EA0206402157000000000000
B0524473156062S11748117EA0206902163000000000000
B0524513156094S11748056EA0207602170000000000000
B0524553156087S11747985EA0207502165000000000000
B0524593156045S11747929EA0206502153000000000000
B0525033155984S11747907EA0205902152000000000000
B0525073155922S11747913EA0206402160000000000000
B0525113155867S11747947EA0206702158000000000000
B0525153155827S11748006EA0205502140000000000000
B0525193155808S11748086EA0204002126000000000000
B0525233155799S11748173EA0202602112000000000000
B0525273155792S11748268EA0200702088000000000000
B0525313155782S11748373EA0199402079000000000000
B0525353155773S11748483EA0198402072000000000000
B0525393155766S11748593EA0198302070000000000000
B0525433155759S11748702EA0198502077000000000000
B0525473155750S11748805EA0199802089000000000000
B0525513155740S11748903EA0201202105000000000000
B0525553155730S11748995EA0201002095000000000000
B0525593155721S11749095EA0198402066000000000000
B0526033155710S11749203EA0196502048000000000000
B0526073155693S11749312EA0196202049000000000000
B0526113155675S11749420EA0196002044000000000000
B0526153155655S11749528EA0195202035000000000000
B0526193155636S11749638EA0194602033000000000000
B0526233155619S11749748EA0194502029000000000000
B0526273155603S11749858EA0193402016000000000000
B0526313155585S11749969EA0192702011000000000000
B0526353155565S11750078EA0192502009000000000000
B0526393155548S11750187EA0191701996000000000000
B0526433155530S11750299EA0190601986000000000000
B0526473155511S11750412EA0189601974000000000000
B0526513155491S11750525EA0188201963000000000000
B0526553155472S11750637EA0187901961000000000000
B0526593155451S11750747EA0187501956000000000000
B0527033155431S11750856EA0186901949000000000000
B0527073155413S11750968EA0185901938000000000000
B0527113155395S11751081EA0185101929000000000000
B0527153155376S11751196EA0184401923000000000000
B0527193155357S11751309EA0183901919000000000000
B0527233155338S11751421EA0183501915000000000000
B0527273155318S11751531EA0182901907000000000000
B0527313155298S11751640EA0182301903000000000000
B0527353155281S11751750EA0180901886000000000000
B0527393155264S11751859EA0179701873000000000000
B0527433155244S11751967EA0179001868000000000000
B0527473155223S11752071EA0178601863000000000000
B0527513155203S11752169EA0178101857000000000000
B0527553155183S11752270EA0177801856000000000000
B0527593155161S11752368EA0177501853000000000000
B0528033155140S11752463EA0177601857000000000000
B0528073155118S11752556EA0177601854000000000000
B0528113155096S11752648EA0176801844000000000000
B0528153155073S11752743EA0175701831000000000000
B0528193155049S11752843EA0174601813000000000000
B0528233155026S11752946EA0172801802000000000000
B0528273155004S11753044EA0172901805000000000000
B0528313154980S11753142EA0172701799000000000000
B0528353154960S11753241EA0171801785000000000000
B0528393154936S11753345EA0170201772000000000000
B0528433154910S11753446EA0169801773000000000000
B0528473154880S11753540EA0170601787000000000000
B0528513154849S11753622EA0171501791000000000000
B0528553154818S11753702EA0171201787000000000000
B0528593154785S11753787EA0171201788000000000000
B0529033154750S11753872EA0171401793000000000000
B0529073154718S11753956EA0172901812000000000000
B0529113154735S11754028EA0175401840000000000000
B0529153154789S11754040EA0176901848000000000000
B0529193154818S11753988EA0177901865000000000000
B0529233154796S11753931EA0178901869000000000000
B0529273154740S11753919EA0179301876000000000000
B0529313154700S11753966EA0180401889000000000000
B0529353154705S11754031EA0181601900000000000000
B0529393154746S11754067EA0182501908000000000000
B0529433154797S11754058EA0182801909000000000000
B0529473154827S11754005EA0183101919000000000000
B0529513154817S11753945EA0184401932000000000000
B0529553154767S11753926EA0185401939000000000000
B0529593154729S11753970EA0185501935000000000000
B0530033154748S11754034EA0185801947000000000000
B0530073154797S11754044EA0187101959000000000000
B0530113154830S11754000EA0187901965000000000000
B0530153154819S11753937EA0188401972000000000000
B0530193154770S11753905EA0189101983000000000000
B0530233154722S11753941EA0190001989000000000000
B0530273154726S11754006EA0190902000000000000000
B0530313154774S11754032EA0191502004000000000000
B0530353154818S11753997EA0192102013000000000000
B0530393154823S11753934EA0192902021000000000000
B0530433154787S11753883EA0193602028000000000000
B0530473154727S11753882EA0194402035000000000000
B0530513154683S11753931EA0195402046000000000000
B0530553154685S11754000EA0196002050000000000000
B0530593154732S11754038EA0196402056000000000000
B0531033154781S11754017EA0197102066000000000000
B0531073154796S11753956EA0198202073000000000000
B0531113154765S11753900EA0198802083000000000000
B0531153154710S11753880EA0200002095000000000000
B0531193154653S11753893EA0200902101000000000000
B0531233154612S11753941EA0200902099000000000000
B0531273154588S11754009EA0200002085000000000000
B0531313154566S11754088EA0198702073000000000000
B0531353154546S11754175EA0198002061000000000000
B0531393154527S11754266EA0196502045000000000000
B0531433154510S11754363EA0195402035000000000000
B0531473154493S11754460EA0194502029000000000000
B0531513154475S11754558EA0194202028000000000000
B0531553154458S11754659EA0193802023000000000000
B0531593154442S11754762EA0193202018000000000000
B0532033154427S11754864EA0193002014000000000000
B0532073154407S11754967EA0192602008000000000000
B0532113154388S11755071EA0192002004000000000000
B0532153154371S11755175EA0191701998000000000000
B0532193154354S11755279EA0191201993000000000000
B0532233154338S11755382EA0190701988000000000000
B0532273154324S11755486EA0190101982000000000000
B0532313154308S11755591EA0189401974000000000000
B0532353154294S11755696EA0188301962000000000000
B0532393154281S11755806EA0187501951000000000000
B0532433154268S11755915EA0186601943000000000000
B0532473154256S11756024EA0185601934000000000000
B0532513154242S11756133EA0184501923000000000000
B0532553154228S11756242EA0183801917000000000000
B0532593154209S11756352EA0183301911000000000000
B0533033154195S11756461EA0182801906000000000000
B0533073154181S11756567EA0182401902000000000000
B0533113154167S11756673EA0181901897000000000000
B0533153154152S11756778EA0181301890000000000000
B0533193154137S11756883EA0180701882000000000000
B0533233154121S11756990EA0179901873000000000000
B0533273154104S11757098EA0178901863000000000000
B0533313154087S11757208EA0178001855000000000000
B0533353154070S11757319EA0177401849000000000000
B0533393154055S11757429EA0176601842000000000000
B0533433154040S11757540EA0176101835000000000000
B0533473154027S11757649EA0175301828000000000000
B0533513154011S11757758EA0174901823000000000000
B0533553153991S11757865EA0174501819000000000000
B0533593153972S11757970EA0174301817000000000000
B0534033153956S11758071EA0174101814000000000000
B0534073153943S11758174EA0173701810000000000000
B0534113153930S11758276EA0173401808000000000000
B0534153153917S11758376EA0173101804000000000000
B0534193153904S11758477EA0171901789000000000000
B0534233153892S11758582EA0171001780000000000000
B0534273153882S11758685EA0170401777000000000000
B0534313153871S11758788EA0169501763000000000000
B0534353153861S11758893EA0168301753000000000000
B0534393153851S11758998EA0167601747000000000000
B0534433153838S11759104EA0166601731000000000000
B0534473153825S11759210EA0164901718000000000000
B0534513153813S11759317EA0163901707000000000000
B0534553153803S11759422EA0163201701000000000000
B0534593153792S11759525EA0162901698000000000000
B0535033153780S11759626EA0162301685000000000000
B0535073153765S11759729EA0160501663000000000000
B0535113153747S11759836EA0157901630000000000000
B0535153153723S11759946EA0155601614000000000000
B0535193153702S11800057EA0154301603000000000000
B0535233153691S11800164EA0153601596000000000000
B0535273153675S11800266EA0153201596000000000000
B0535313153656S11800359EA0153001592000000000000
B0535353153640S11800453EA0152401582000000000000
B0535393153627S11800549EA0151201570000000000000
B0535433153615S11800647EA0150101559000000000000
B0535473153602S11800744EA0149101552000000000000
B0535513153588S11800839EA0148701547000000000000
B0535553153578S11800937EA0147801536000000000000
B0535593153566S11801034EA0146801526000000000000
B0536033153552S11801130EA0145901516000000000000
B0536073153535S11801228EA0144801503000000000000
B0536113153519S11801328EA0143701492000000000000
B0536153153507S11801429EA0142801485000000000000
B0536193153500S11801524EA0143101492000000000000
B0536233153493S11801618EA0142801481000000000000
B0536273153487S11801717EA0141701472000000000000
B0536313153484S11801815EA0141001462000000000000
B0536353153485S11801918EA0139901453000000000000
B0536393153494S11802014EA0140201461000000000000
B0536433153507S11802104EA0140001453000000000000
B0536473153518S11802196EA0139501449000000000000
B0536513153498S11802283EA0140101468000000000000
B0536553153459S11802351EA0141701478000000000000
B0536593153415S11802412EA0142101481000000000000
B0537033153367S11802469EA0142201483000000000000
B0537073153323S11802528EA0142701488000000000000
B0537113153332S11802601EA0143801502000000000000
B0537153153393S11802615EA0144301502000000000000
B0537193153420S11802558EA0144601509000000000000
B0537233153390S11802503EA0144901506000000000000
B0537273153331S11802502EA0144501504000000000000
B0537313153272S11802542EA0144201499000000000000
B0537353153214S11802597EA0143901496000000000000
B0537393153160S11802654EA0144501511000000000000
B0537433153154S11802727EA0146001523000000000000
B0537473153218S11802751EA0146801529000000000000
B0537513153262S11802701EA0147501539000000000000
B0537553153260S11802632EA0148001542000000000000
B0537593153223S11802580EA0148301546000000000000
B0538033153167S11802555EA0148601547000000000000
B0538073153101S11802563EA0148901554000000000000
B0538103153051S11802581EA0149101555000000000000
B0538153152981S11802632EA0150701572000000000000
B0538193152999S11802702EA0151301573000000000000
B0538233153064S11802710EA0151101573000000000000
B0538273153115S11802663EA0151101572000000000000
B0538313153129S11802593EA0151201578000000000000
B0538353153097S11802529EA0151401576000000000000
B0538393153050S11802468EA0151001572000000000000
B0538433152990S11802423EA0151201577000000000000
B0538473152933S11802450EA0152601598000000000000
B0538513152909S11802517EA0153601599000000000000
B0538553152896S11802598EA0152901589000000000000
B0538593152883S11802688EA0152301585000000000000
B0539033152870S11802783EA0151901579000000000000
B0539073152859S11802881EA0150501559000000000000
B0539113152844S11802987EA0148901542000000000000
B0539153152830S11803092EA0147101526000000000000
B0539193152812S11803196EA0145701514000000000000
B0539233152794S11803297EA0144601500000000000000
B0539273152774S11803396EA0143901495000000000000
B0539313152757S11803492EA0144401506000000000000
B0539353152726S11803574EA0146001526000000000000
B0539393152675S11803622EA0148401551000000000000
B0539433152617S11803641EA0149501555000000000000
B0539473152555S11803656EA0149601554000000000000
B0539513152493S11803681EA0149601558000000000000
B0539553152436S11803712EA0150801576000000000000
B0539593152387S11803743EA0152301592000000000000
B0540033152339S11803776EA0153501596000000000000
B0540073152331S11803840EA0153001587000000000000
B0540113152380S11803869EA0152301582000000000000
B0540153152430S11803829EA0152101581000000000000
B0540193152441S11803755EA0151701575000000000000
B0540233152396S11803695EA0151801583000000000000
B0540273152331S11803667EA0152501593000000000000
B0540313152265S11803642EA0153701610000000000000
B0540353152205S11803660EA0155701627000000000000
B0540393152209S11803730EA0156501630000000000000
B0540433152266S11803751EA0156701634000000000000
B0540473152288S11803691EA0157201640000000000000
B0540513152239S11803656EA0157801647000000000000
B0540553152181S11803686EA0158701657000000000000
B0540593152155S11803754EA0159201661000000000000
B0541033152178S11803823EA0159801666000000000000
B0541073152227S11803816EA0160601674000000000000
B0541113152220S11803751EA0160201668000000000000
B0541153152172S11803698EA0159901669000000000000
B0541193152109S11803680EA0160801679000000000000
B0541233152068S11803739EA0160501670000000000000
B0541273152062S11803829EA0158801650000000000000
B0541313152070S11803931EA0157601642000000000000
B0541353152081S11804036EA0157501639000000000000
B0541393152094S11804142EA0157101637000000000000
B0541433152110S11804249EA0157301641000000000000
B0541473152140S11804344EA0158201653000000000000
B0541513152180S11804431EA0158701656000000000000
B0541553152215S11804522EA0158501654000000000000
B0541593152244S11804616EA0158901657000000000000
B0542033152267S11804712EA0158001646000000000000
B0542073152282S11804812EA0157001635000000000000
B0542113152289S11804917EA0156501634000000000000
B0542153152293S11805021EA0157301646000000000000
B0542193152296S11805121EA0158701658000000000000
B0542233152302S11805220EA0158901659000000000000
B0542273152310S11805315EA0159101660000000000000
B0542313152319S11805413EA0158801653000000000000
B0542353152330S11805513EA0158601657000000000000
B0542393152341S11805610EA0159201661000000000000
B0542433152352S11805708EA0158901656000000000000
B0542473152367S11805805EA0158501653000000000000
B0542513152388S11805907EA0157801642000000000000
B0542553152410S11806011EA0156901634000000000000
B0542593152436S11806115EA0156301623000000000000
B0543033152465S11806220EA0154801606000000000000
B0543073152495S11806328EA0153101592000000000000
B0543113152523S11806436EA0152401585000000000000
B0543153152552S11806538EA0152101585000000000000
B0543193152578S11806633EA0151701579000000000000
B0543233152603S11806729EA0150201562000000000000
B0543273152623S11806826EA0148801550000000000000
B0543313152642S11806918EA0148301543000000000000
B0543353152659S11807009EA0147601537000000000000
B0543393152674S11807099EA0147501538000000000000
B0543433152685S11807188EA0147701539000000000000
B0543473152692S11807278EA0147401534000000000000
B0543513152703S11807369EA0147401537000000000000
B0543553152755S11807422EA0149401564000000000000
B0543593152803S11807385EA0151201576000000000000
B0544033152790S11807325EA0151701581000000000000
B0544073152738S11807316EA0151901583000000000000
B0544113152692S11807359EA0152301594000000000000
B0544153152709S11807420EA0153801609000000000000
B0544193152768S11807413EA0154401606000000000000
B0544233152786S11807344EA0154401613000000000000
B0544273152746S11807303EA0155501624000000000000
B0544313152690S11807314EA0155601621000000000000
B0544353152640S11807361EA0155801628000000000000
B0544393152639S11807431EA0156701640000000000000
B0544433152699S11807451EA0157301640000000000000
B0544473152747S11807395EA0157401643000000000000
B0544513152731S11807325EA0157901648000000000000
B0544553152672S11807295EA0158101649000000000000
B0544593152605S11807273EA0158201651000000000000
B0545033152547S11807299EA0159001666000000000000
B0545073152530S11807368EA0160101672000000000000
B0545113152549S11807447EA0160101673000000000000
B0545153152581S11807522EA0161001686000000000000
B0545193152636S11807561EA0162701704000000000000
B0545233152670S11807507EA0163901711000000000000
B0545273152634S11807455EA0164401719000000000000
B0545313152581S11807473EA0165501735000000000000
B0545353152573S11807533EA0166901745000000000000
B0545393152618S11807572EA0167801755000000000000
B0545433152669S11807547EA0168401761000000000000
B0545473152679S11807485EA0168901768000000000000
B0545513152640S11807443EA0169901779000000000000
B0545553152592S11807464EA0170601785000000000000
B0545593152583S11807526EA0171501796000000000000
B0546033152623S11807571EA0172701810000000000000
B0546073152678S11807554EA0173701813000000000000
B0546113152700S11807490EA0173701815000000000000
B0546153152668S11807435EA0174401823000000000000
B0546193152612S11807434EA0174901826000000000000
B0546233152577S11807489EA0175201831000000000000
B0546273152592S11807556EA0175701839000000000000
B0546313152629S11807621EA0176601849000000000000
B0546353152686S11807651EA0177401851000000000000
B0546393152731S11807603EA0177101845000000000000
B0546433152713S11807537EA0176901843000000000000
B0546473152662S11807490EA0176501843000000000000
B0546513152605S11807448EA0177601856000000000000
B0546553152551S11807463EA0178801867000000000000
B0546593152542S11807530EA0179201870000000000000
B0547033152579S11807590EA0179701883000000000000
B0547073152636S11807586EA0181701908000000000000
B0547113152662S11807530EA0183301915000000000000
B0547153152636S11807473EA0184101923000000000000
B0547193152583S11807473EA0184301924000000000000
B0547233152561S11807532EA0184601929000000000000
B0547273152582S11807600EA0185201938000000000000
B0547313152635S11807632EA0186701955000000000000
B0547353152683S11807598EA0187901961000000000000
B0547393152686S11807533EA0188201965000000000000
B0547433152643S11807495EA0189001974000000000000
B0547473152600S11807526EA0189601979000000000000
B0547513152607S11807593EA0190001988000000000000
B0547553152644S11807650EA0191202002000000000000
B0547593152704S11807650EA0191901998000000000000
B0548033152737S11807587EA0191301992000000000000
B0548073152709S11807524EA0191001990000000000000
B0548113152648S11807516EA0191602001000000000000
B0548153152605S11807571EA0192302009000000000000
B0548193152599S11807650EA0193002016000000000000
B0548233152613S11807732EA0193402021000000000000
B0548273152638S11807814EA0193002006000000000000
B0548313152672S11807902EA0191201989000000000000
B0548353152708S11807997EA0189801978000000000000
B0548393152740S11808094EA0189501980000000000000
B0548433152766S11808193EA0190401989000000000000
B0548473152791S11808291EA0191301998000000000000
B0548513152809S11808387EA0191501998000000000000
B0548553152825S11808484EA0191401995000000000000
B0548593152843S11808585EA0190701985000000000000
B0549033152867S11808686EA0189501975000000000000
B0549073152893S11808789EA0189101969000000000000
B0549113152919S11808893EA0188301959000000000000
B0549153152939S11808999EA0188001960000000000000
B0549193152955S11809103EA0188201962000000000000
B0549233152971S11809207EA0188101959000000000000
B0549273152987S11809311EA0187201948000000000000
B0549313153003S11809417EA0186101938000000000000
B0549353153015S11809523EA0184901926000000000000
B0549393153023S11809628EA0184601927000000000000
B0549433153011S11809723EA0184701927000000000000
B0549473152964S11809794EA0184801927000000000000
B0549513152895S11809823EA0184801927000000000000
B0549553152820S11809816EA0185001931000000000000
B0549593152751S11809786EA0184801926000000000000
B0550033152688S11809738EA0184701927000000000000
B0550073152626S11809684EA0183201903000000000000
B0550113152558S11809621EA0180901879000000000000
B0550153152491S11809554EA0179901874000000000000
B0550193152431S11809485EA0179801873000000000000
B0550233152373S11809417EA0179401868000000000000
B0550273152314S11809348EA0178801859000000000000
B0550313152254S11809279EA0177901852000000000000
B0550353152191S11809207EA0176801837000000000000
B0550393152127S11809133EA0175701828000000000000
B0550433152064S11809059EA0175001821000000000000
B0550473152002S11808985EA0174201811000000000000
B0550513151938S11808912EA0172801797000000000000
B0550553151876S11808841EA0172301792000000000000
B0550593151814S11808770EA0171601783000000000000
B0551033151750S11808703EA0170401769000000000000
B0551073151686S11808635EA0169101756000000000000
B0551113151620S11808566EA0167401737000000000000
B0551153151557S11808495EA0166201728000000000000
B0551193151499S11808419EA0165101713000000000000
B0551233151442S11808344EA0163801701000000000000
B0551273151385S11808271EA0162701687000000000000
B0551313151329S11808197EA0161001668000000000000
B0551353151269S11808128EA0159601653000000000000
B0551393151208S11808065EA0157901638000000000000
B0551433151143S11808007EA0156501623000000000000
B0551473151080S11807946EA0154501599000000000000
B0551513151022S11807875EA0153401596000000000000
B0551553150970S11807805EA0153301594000000000000
B0551593150917S11807736EA0152101577000000000000
B0552033150861S11807665EA0150901568000000000000
B0552073150803S11807598EA0150501564000000000000
B0552113150738S11807541EA0150501566000000000000
B0552153150676S11807489EA0150801570000000000000
B0552193150616S11807437EA0151301578000000000000
B0552233150560S11807391EA0153001595000000000000
B0552273150508S11807346EA0153301593000000000000
B0552313150459S11807294EA0153101591000000000000
B0552353150408S11807242EA0151901575000000000000
B0552393150355S11807184EA0150201550000000000000
B0552433150302S11807123EA0149001555000000000000
B0552473150260S11807060EA0150301568000000000000
B0552513150218S11806999EA0151301580000000000000
B0552553150181S11806937EA0152401588000000000000
B0552593150125S11806917EA0153001593000000000000
B0553033150103S11806980EA0153201596000000000000
B0553073150151S11807023EA0153001592000000000000
B0553113150216S11807006EA0152601589000000000000
B0553153150268S11806960EA0152801592000000000000
B0553193150276S11806888EA0153301598000000000000
B0553233150241S11806828EA0153501600000000000000
B0553273150196S11806775EA0153401597000000000000
B0553313150150S11806719EA0153601601000000000000
B0553353150100S11806666EA0154201607000000000000
B0553393150038S11806655EA0155401628000000000000
B0553433150017S11806719EA0157501647000000000000
B0553473150064S11806763EA0158001649000000000000
B0553513150121S11806742EA0159001661000000000000
B0553553150130S11806685EA0159901668000000000000
B0553593150081S11806672EA0160301672000000000000
B0554033150047S11806731EA0160801679000000000000
B0554073150073S11806797EA0161301683000000000000
B0554113150135S11806793EA0161501685000000000000
B0554153150146S11806729EA0162001694000000000000
B0554193150098S11806702EA0162801700000000000000
B0554233150044S11806739EA0163001700000000000000
B0554273150020S11806814EA0163501712000000000000
B0554313150062S11806869EA0164401721000000000000
B0554353150121S11806857EA0165101721000000000000
B0554393150143S11806794EA0165301726000000000000
B0554433150116S11806736EA0165901730000000000000
B0554473150060S11806757EA0166001732000000000000
B0554513150038S11806833EA0166401735000000000000
B0554553150072S11806900EA0166901745000000000000
B0554593150129S11806889EA0167801753000000000000
B0555033150144S11806827EA0168101755000000000000
B0555073150113S11806770EA0168501757000000000000
B0555113150056S11806749EA0168901762000000000000
B0555153149994S11806727EA0168501753000000000000
B0555193149929S11806690EA0167501742000000000000
B0555233149860S11806654EA0167001741000000000000
B0555273149795S11806611EA0167101743000000000000
B0555313149731S11806568EA0166501731000000000000
B0555353149667S11806518EA0164701712000000000000
B0555393149607S11806456EA0163801702000000000000
B0555433149544S11806404EA0162801690000000000000
B0555473149477S11806349EA0161301676000000000000
B0555513149418S11806284EA0160501669000000000000
B0555553149362S11806212EA0159601660000000000000
B0555593149310S11806139EA0159101657000000000000
B0556033149256S11806066EA0158801652000000000000
B0556073149197S11806003EA0158401649000000000000
B0556113149134S11805946EA0158201648000000000000
B0556153149072S11805892EA0158201649000000000000
B0556193149008S11805848EA0158501651000000000000
B0556233148943S11805814EA0158401650000000000000
B0556273148876S11805788EA0157801640000000000000
B0556313148808S11805758EA0156501624000000000000
B0556353148744S11805710EA0155501614000000000000
B0556393148687S11805652EA0154201602000000000000
B0556433148634S11805587EA0152801587000000000000
B0556473148582S11805519EA0151501574000000000000
B0556513148532S11805450EA0151001570000000000000
B0556553148486S11805381EA0150701568000000000000
B0556593148439S11805314EA0150501567000000000000
B0557033148384S11805263EA0151801586000000000000
B0557073148336S11805299EA0154001608000000000000
B0557113148356S11805368EA0154801609000000000000
B0557153148421S11805384EA0154201599000000000000
B0557193148473S11805335EA0153401596000000000000
B0557233148487S11805263EA0153701598000000000000
B0557273148457S11805202EA0153101589000000000000
B0557313148404S11805156EA0151101565000000000000
B0557353148341S11805104EA0149201547000000000000
B0557393148278S11805047EA0148801552000000000000
B0557433148210S11805002EA0149801566000000000000
B0557473148140S11804968EA0150701568000000000000
B0557513148066S11804946EA0149901557000000000000
B0557553147990S11804916EA0148301537000000000000
B0557593147920S11804865EA0147101528000000000000
B0558033147855S11804809EA0146401521000000000000
B0558073147794S11804746EA0145501511000000000000
B0558113147737S11804677EA0145001509000000000000
B0558153147683S11804607EA0145701518000000000000
B0558193147622S11804549EA0146501526000000000000
B0558233147555S11804503EA0146501521000000000000
B0558273147485S11804454EA0145401507000000000000
B0558313147413S11804404EA0143901490000000000000
B0558353147344S11804344EA0142401478000000000000
B0558393147277S11804288EA0141901473000000000000
B0558433147210S11804236EA0140801463000000000000
B0558473147149S11804178EA0139901451000000000000
B0558513147096S11804115EA0139301448000000000000
B0558553147049S11804049EA0138901440000000000000
B0558593147002S11803981EA0137901428000000000000
B0559033146957S11803911EA0136801417000000000000
B0559073146913S11803838EA0135501403000000000000
B0559113146867S11803762EA0134201390000000000000
B0559153146823S11803684EA0133001378000000000000
B0559193146775S11803606EA0131901368000000000000
B0559233146723S11803530EA0131001358000000000000
B0559273146671S11803455EA0130101346000000000000
B0559313146619S11803381EA0129001336000000000000
B0559353146568S11803304EA0127601321000000000000
B0559393146519S11803223EA0126201306000000000000
B0559433146468S11803143EA0125101298000000000000
B0559473146416S11803069EA0125201302000000000000
B0559513146359S11803008EA0125801307000000000000
B0559553146300S11802952EA0126001308000000000000
B0559593146237S11802904EA0125801303000000000000
B0600033146173S11802861EA0125301302000000000000
B0600073146117S11802811EA0125401305000000000000
B0600113146064S11802766EA0125901311000000000000
B0600153146012S11802720EA0126201313000000000000
B0600193145960S11802672EA0125901306000000000000
B0600233145908S11802620EA0125301300000000000000
B0600273145853S11802566EA0125201301000000000000
B0600313145800S11802510EA0125101297000000000000
B0600353145744S11802455EA0125101301000000000000
B0600393145691S11802475EA0126301315000000000000
B0600433145715S11802537EA0126601307000000000000
B0600473145783S11802530EA0125801306000000000000
B0600513145787S11802464EA0126501313000000000000
B0600553145732S11802459EA0127201321000000000000
B0600593145720S11802520EA0127401319000000000000
B0601033145770S11802567EA0126201305000000000000
B0601073145839S11802568EA0125501304000000000000
B0601113145857S11802501EA0126101312000000000000
B0601153145808S11802473EA0126801319000000000000
B0601193145769S11802519EA0127601333000000000000
B0601233145779S11802579EA0128601335000000000000
B0601273145832S11802593EA0127801323000000000000
B0601313145865S11802533EA0127001319000000000000
B0601353145841S11802463EA0126601313000000000000
B0601393145780S11802436EA0126501314000000000000
B0601433145733S11802480EA0126801317000000000000
B0601473145741S11802553EA0126701314000000000000
B0601513145796S11802598EA0126101303000000000000
B0601553145861S11802581EA0125301302000000000000
B0601593145914S11802528EA0124901294000000000000
B0602033145930S11802451EA0124701296000000000000
B0602073145908S11802373EA0124401291000000000000
B0602113145871S11802299EA0124101289000000000000
B0602153145826S11802226EA0123201280000000000000
B0602193145780S11802147EA0122601273000000000000
B0602233145735S11802068EA0122501274000000000000
B0602273145684S11801992EA0122501272000000000000
B0602313145629S11801925EA0122101265000000000000
B0602353145568S11801869EA0120901250000000000000
B0602393145510S11801804EA0119401237000000000000
B0602433145462S11801727EA0118301226000000000000
B0602473145423S11801648EA0117401216000000000000
B0602513145392S11801563EA0116301204000000000000
B0602553145362S11801477EA0115601196000000000000
B0602593145329S11801394EA0114901190000000000000
B0603033145298S11801308EA0114401186000000000000
B0603073145277S11801219EA0114401187000000000000
B0603113145255S11801129EA0113801177000000000000
B0603153145234S11801039EA0112801171000000000000
B0603193145219S11800954EA0112801170000000000000
B0603233145204S11800868EA0112101157000000000000
B0603273145184S11800782EA0110701142000000000000
B0603313145164S11800696EA0109301131000000000000
B0603353145145S11800614EA0108901126000000000000
B0603393145113S11800536EA0107901114000000000000
B0603433145074S11800463EA0106601101000000000000
B0603473145031S11800391EA0105201087000000000000
B0603513144990S11800318EA0104001076000000000000
B0603553144950S11800245EA0103401068000000000000
B0603593144905S11800174EA0102801059000000000000
B0604033144860S11800105EA0101501046000000000000
B0604073144813S11800034EA0100101031000000000000
B0604113144775S11759954EA0099801034000000000000
B0604153144762S11759865EA0100601044000000000000
B0604193144771S11759778EA0101001048000000000000
B0604233144831S11759738EA0102201064000000000000
B0604273144868S11759784EA0103601073000000000000
B0604313144835S11759829EA0102401051000000000000
B0604353144775S11759813EA0101401050000000000000
B0604393144729S11759758EA0101301048000000000000
B0604433144705S11759680EA0101401054000000000000
B0604473144753S11759628EA0102801077000000000000
B0604513144800S11759668EA0104801093000000000000
B0604553144783S11759720EA0105701095000000000000
B0604593144731S11759711EA0105801097000000000000
B0605033144710S11759646EA0106201105000000000000
B0605073144749S11759590EA0107601124000000000000
B0605113144813S11759590EA0108601129000000000000
B0605153144857S11759642EA0109701144000000000000
B0605193144849S11759703EA0110901151000000000000
B0605233144800S11759720EA0111001150000000000000
B0605273144760S11759673EA0111201158000000000000
B0605313144778S11759604EA0112301173000000000000
B0605353144840S11759586EA0113701188000000000000
B0605393144891S11759625EA0115201202000000000000
B0605433144898S11759685EA0116201208000000000000
B0605473144860S11759724EA0116301203000000000000
B0605513144805S11759708EA0116201208000000000000
B0605553144782S11759648EA0116901221000000000000
B0605593144814S11759595EA0118701239000000000000
B0606033144874S11759599EA0119701246000000000000
B0606073144904S11759656EA0120501254000000000000
B0606113144882S11759706EA0121101260000000000000
B0606153144835S11759702EA0121501260000000000000
B0606193144808S11759643EA0121601267000000000000
B0606233144826S11759577EA0122901281000000000000
B0606273144883S11759547EA0123501285000000000000
B0606313144948S11759569EA0124401298000000000000
B0606353144963S11759633EA0125801314000000000000
B0606393144922S11759656EA0126801319000000000000
B0606433144877S11759633EA0126901318000000000000
B0606473144857S11759572EA0127301327000000000000
B0606513144901S11759524EA0128601337000000000000
B0606553144956S11759563EA0129101349000000000000
B0606593144943S11759624EA0130501361000000000000
B0607033144894S11759620EA0131301364000000000000
B0607073144866S11759561EA0131601373000000000000
B0607113144883S11759495EA0132701386000000000000
B0607153144933S11759456EA0134001401000000000000
B0607193144986S11759472EA0135501413000000000000
B0607233145016S11759530EA0136201418000000000000
B0607273144991S11759587EA0136801426000000000000
B0607313144940S11759587EA0137501431000000000000
B0607353144914S11759526EA0137701434000000000000
B0607393144947S11759462EA0138401446000000000000
B0607433145009S11759449EA0139101450000000000000
B0607473145064S11759490EA0140101465000000000000
B0607513145096S11759555EA0141101470000000000000
B0607553145143S11759605EA0141401471000000000000
B0607593145203S11759581EA0141501471000000000000
B0608033145207S11759513EA0141201468000000000000
B0608073145165S11759459EA0140501457000000000000
B0608113145109S11759423EA0140101458000000000000
B0608153145042S11759422EA0140701466000000000000
B0608193144996S11759473EA0141901484000000000000
B0608233145025S11759538EA0143301496000000000000
B0608273145086S11759553EA0144301506000000000000
B0608313145126S11759503EA0144801509000000000000
B0608353145108S11759443EA0145301514000000000000
B0608393145057S11759456EA0146101523000000000000
B0608433145061S11759524EA0146901535000000000000
B0608473145115S11759544EA0148601552000000000000
B0608513145158S11759504EA0148901549000000000000
B0608553145154S11759440EA0148901553000000000000
B0608593145108S11759409EA0149601558000000000000
B0609033145054S11759425EA0149601559000000000000
B0609073145017S11759482EA0149901567000000000000
B0609113145025S11759552EA0150801574000000000000
B0609153145052S11759618EA0151201581000000000000
B0609193145108S11759641EA0151901586000000000000
B0609233145155S11759598EA0152501590000000000000
B0609273145148S11759531EA0152501588000000000000
B0609313145111S11759477EA0152101588000000000000
B0609353145055S11759466EA0153001600000000000000
B0609393145015S11759513EA0154201607000000000000
B0609433145012S11759582EA0154401610000000000000
B0609473145047S11759637EA0154401609000000000000
B0609513145099S11759680EA0154601612000000000000
B0609553145160S11759677EA0155201620000000000000
B0609593145195S11759624EA0155301615000000000000
B0610033145190S11759553EA0154401605000000000000
B0610073145171S11759481EA0153401594000000000000
B0610113145145S11759401EA0152501583000000000000
B0610153145109S11759322EA0151401574000000000000
B0610193145070S11759238EA0150601567000000000000
B0610233145030S11759157EA0151101574000000000000
B0610273144982S11759083EA0151501579000000000000
B0610313144930S11759014EA0152201589000000000000
B0610353144877S11758946EA0152601587000000000000
B0610393144820S11758880EA0152501588000000000000
B0610433144761S11758814EA0152701589000000000000
B0610473144700S11758755EA0151901576000000000000
B0610513144641S11758692EA0150801568000000000000
B0610553144583S11758625EA0150901572000000000000
B0610593144524S11758568EA0152101587000000000000
B0611033144467S11758515EA0153201596000000000000
B0611073144406S11758461EA0152701588000000000000
B0611113144345S11758408EA0152301583000000000000
B0611153144284S11758355EA0151601577000000000000
B0611193144227S11758300EA0152001586000000000000
B0611233144173S11758250EA0152301584000000000000
B0611273144119S11758199EA0151901581000000000000
B0611313144064S11758147EA0152401589000000000000
B0611353144012S11758095EA0153001592000000000000
B0611393143958S11758044EA0153301596000000000000
B0611433143895S11758014EA0154501609000000000000
B0611473143851S11758061EA0155501618000000000000
B0611513143864S11758126EA0155201606000000000000
B0611553143920S11758152EA0153701591000000000000
B0611593143972S11758117EA0153101595000000000000
B0612033144007S11758061EA0153601602000000000000
B0612073144015S11757993EA0154301614000000000000
B0612113143991S11757935EA0155801631000000000000
B0612153143938S11757949EA0157301642000000000000
B0612193143939S11758019EA0158001647000000000000
B0612233143995S11758044EA0157901645000000000000
B0612273144038S11757997EA0158101651000000000000
B0612313144032S11757931EA0159001661000000000000
B0612353143978S11757915EA0160301675000000000000
B0612393143950S11757977EA0161301688000000000000
B0612433143984S11758035EA0162201689000000000000
B0612473144043S11758039EA0161901689000000000000
B0612513144089S11757993EA0162501701000000000000
B0612553144088S11757931EA0163801715000000000000
B0612593144041S11757915EA0165101728000000000000
B0613033144003S11757964EA0165901731000000000000
B0613073144012S11758036EA0166601744000000000000
B0613113144060S11758071EA0167801754000000000000
B0613153144110S11758045EA0168801762000000000000
B0613193144118S11757986EA0169401769000000000000
B0613233144075S11757953EA0170401780000000000000
B0613273144028S11757983EA0171201793000000000000
B0613313144019S11758051EA0172201799000000000000
B0613353144058S11758108EA0172501803000000000000
B0613393144118S11758113EA0173701819000000000000
B0613433144159S11758075EA0174801826000000000000
B0613473144164S11758016EA0175401832000000000000
B0613513144131S11757975EA0176301844000000000000
B0613553144082S11757990EA0177101849000000000000
B0613593144058S11758049EA0177501854000000000000
B0614033144082S11758114EA0178101862000000000000
B0614073144140S11758122EA0179001876000000000000
B0614113144172S11758073EA0180001881000000000000
B0614153144153S11758017EA0180501887000000000000
B0614193144099S11758009EA0181101894000000000000
B0614233144062S11758058EA0181501898000000000000
B0614273144063S11758134EA0182001905000000000000
B0614313144102S11758188EA0183201918000000000000
B0614353144155S11758199EA0183901918000000000000
B0614393144193S11758156EA0183601916000000000000
B0614433144186S11758094EA0183801921000000000000
B0614473144150S11758047EA0184201925000000000000
B0614513144106S11758001EA0183901915000000000000
B0614553144051S11757953EA0183301914000000000000
B0614593143995S11757902EA0183901922000000000000
B0615033143937S11757850EA0184301924000000000000
B0615073143876S11757796EA0184401924000000000000
B0615113143812S11757739EA0183801913000000000000
B0615153143744S11757680EA0182301900000000000000
B0615193143674S11757616EA0181601892000000000000
B0615233143603S11757551EA0180801880000000000000
B0615273143533S11757485EA0179701869000000000000
B0615313143462S11757418EA0178801860000000000000
B0615353143392S11757350EA0177701849000000000000
B0615393143323S11757276EA0176601838000000000000
B0615433143256S11757200EA0175901830000000000000
B0615473143189S11757125EA0174901822000000000000
B0615513143123S11757051EA0174301810000000000000
B0615553143057S11756978EA0172501787000000000000
B0615593142989S11756904EA0170601769000000000000
B0616033142923S11756829EA0169301762000000000000
B0616073142860S11756753EA0168801754000000000000
B0616113142795S11756683EA0168101749000000000000
B0616153142729S11756621EA0168101754000000000000
B0616193142668S11756561EA0169301770000000000000
B0616233142611S11756504EA0170401777000000000000
B0616273142552S11756446EA0170901788000000000000
B0616313142487S11756411EA0172801810000000000000
B0616353142442S11756467EA0175101832000000000000
B0616393142472S11756532EA0176301840000000000000
B0616433142530S11756540EA0176801848000000000000
B0616473142561S11756493EA0178101865000000000000
B0616513142530S11756452EA0179701880000000000000
B0616553142478S11756475EA0180501882000000000000
B0616593142461S11756552EA0180401884000000000000
B0617033142496S11756619EA0181001893000000000000
B0617073142558S11756639EA0182201905000000000000
B0617113142603S11756604EA0183201915000000000000
B0617153142607S11756544EA0184201926000000000000
