ACAM4N6
HFDTE020623
HFFXA050
HFPLTPILOT:JOHN WELSH              
HFGTYGLIDERTYPE:HORNET      
HFGIDGLIDERID:VH-GMY      
HFDTM100GPSDATUM:
HFRFWFIRMWAREVERSION:F2.6
HFRHWHARDWAREVERSION:300 Series Version 2
HFFTYFRTYPE:CAMBRIDGE AERO INSTRUMENTS, 302+
HFGPS:GARMIN,LVS-25,12,18000
HFPRSPRESSALTSENSOR:INTERSEMA, MS5534-AP, 20000
I033638FXA3941ENL4247REX
LCAMSBVER:5FWVER:F26300
C120323035839120323000102
C0000000N00000000WTAKEOFF     
C3207549S11656849EBEVERLEY AF 
C3152966S11809465EBruce Rock  
C3110883S11723215EWyalkatchem 
C3207549S11656849EBEVERLEY AF 
C0000000N00000000WLANDING     
B0355103207378S11656887EA0013100206000000000000
B0355123207378S11656887EA0013100206000000000000
B0355143207378S11656887EA0013000206000000000000
B0355163207378S11656887EA0013000206000000000000
B0355183207378S11656887EA0013100206000000000000
B0355203207378S11656887EA0013100206000000000000
B0355223207378S11656887EA0013100206000000000000
B0355243207378S11656887EA0013100206000000000000
B0355263207378S11656887EA0013000206000000000000
B0355283207378S11656887EA0013000206000000000000
B0355303207378S11656887EA0013100206000000000000
B0355323207378S11656887EA0013100206000000000000
B0355343207378S11656887EA0013000206000000000000
B0355363207378S11656887EA0013000206000000000000
B0355383207381S11656888EA0013000206000000000000
B0355413207393S11656897EA0013200206000000000000
B0355453207421S11656917EA0013200206000000000000
B0355493207463S11656945EA0013600207000000000000
B0355533207519S11656979EA0013700208000000000000
B0355573207581S11657020EA0014200213000000000000
B0356013207638S11657065EA0014900229000000000000
B0356053207692S11657111EA0017000250000000000000
B0356093207744S11657156EA0018600269000000000000
B0356133207794S11657204EA0020600294000000000000
B0356173207846S11657250EA0023400321000000000000
B0356213207902S11657289EA0025700346000000000000
B0356253207961S11657328EA0027900361000000000000
B0356293208023S11657365EA0029300379000000000000
B0356333208082S11657403EA0031600402000000000000
B0356373208139S11657438EA0033700423000000000000
B0356413208192S11657473EA0036100448000000000000
B0356453208246S11657507EA0038200465000000000000
B0356493208301S11657542EA0039600479000000000000
B0356533208357S11657577EA0041000494000000000000
B0356573208413S11657612EA0042800513000000000000
B0357013208468S11657649EA0044500527000000000000
B0357053208524S11657685EA0045800540000000000000
B0357093208585S11657716EA0046900549000000000000
B0357133208651S11657733EA0047800560000000000000
B0357173208721S11657723EA0049400578000000000000
B0357213208789S11657693EA0051000593000000000000
B0357253208851S11657645EA0052600608000000000000
B0357293208905S11657582EA0054500626000000000000
B0357333208958S11657519EA0056400648000000000000
B0357373209013S11657460EA0058900668000000000000
B0357413209065S11657404EA0060700689000000000000
B0357453209119S11657354EA0062900707000000000000
B0357493209172S11657306EA0064700724000000000000
B0357533209227S11657260EA0066300739000000000000
B0357573209287S11657230EA0067400753000000000000
B0358013209351S11657224EA0068500764000000000000
B0358053209409S11657250EA0070100780000000000000
B0358093209453S11657300EA0072000799000000000000
B0358133209475S11657369EA0074100820000000000000
B0358173209474S11657450EA0075900835000000000000
B0358213209447S11657532EA0077000844000000000000
B0358253209396S11657606EA0078300858000000000000
B0358293209326S11657660EA0080100876000000000000
B0358333209244S11657689EA0081500895000000000000
B0358373209154S11657696EA0083700912000000000000
B0358413209063S11657692EA0085300928000000000000
B0358453208971S11657688EA0086800944000000000000
B0358493208880S11657671EA0088700964000000000000
B0358533208795S11657629EA0091000985000000000000
B0358573208711S11657579EA0092701001000000000000
B0359013208625S11657529EA0094301016000000000000
B0359053208538S11657478EA0095901029000000000000
B0359093208451S11657432EA0097101042000000000000
B0359133208361S11657391EA0098701057000000000000
B0359173208270S11657363EA0100301074000000000000
B0359213208181S11657332EA0101501090000000000000
B0359253208095S11657289EA0103001106000000000000
B0359293208014S11657234EA0104901122000000000000
B0359333207943S11657181EA0106201132000000000000
B0359373207870S11657143EA0106601134000000000000
B0359413207800S11657150EA0106901136000000000000
B0359453207759S11657200EA0106701129000000000000
B0359493207762S11657263EA0105601121000000000000
B0359533207778S11657324EA0104701113000000000000
B0359573207796S11657386EA0104001104000000000000
B0400013207809S11657454EA0103301096000000000000
B0400053207817S11657525EA0102501089000000000000
B0400093207820S11657598EA0102001085000000000000
B0400133207820S11657670EA0101901086000000000000
B0400173207819S11657738EA0102001087000000000000
B0400213207818S11657805EA0101801085000000000000
B0400253207817S11657870EA0102001087000000000000
B0400293207823S11657930EA0102201089000000000000
B0400333207850S11657965EA0102401093000000000000
B0400373207891S11657963EA0102601091000000000000
B0400413207922S11657918EA0102401089000000000000
B0400453207927S11657849EA0102201088000000000000
B0400493207893S11657781EA0101801082000000000000
B0400533207827S11657749EA0101301078000000000000
B0400573207763S11657768EA0100801074000000000000
B0401013207735S11657819EA0100601072000000000000
B0401053207740S11657871EA0100301068000000000000
B0401093207759S11657917EA0099901064000000000000
B0401133207780S11657961EA0099701064000000000000
B0401173207791S11658010EA0099701065000000000000
B0401213207785S11658062EA0099901066000000000000
B0401253207765S11658115EA0099801065000000000000
B0401293207737S11658170EA0099701063000000000000
B0401333207718S11658229EA0099501061000000000000
B0401373207711S11658286EA0099701063000000000000
B0401413207727S11658329EA0100001067000000000000
B0401453207765S11658326EA0100001064000000000000
B0401493207792S11658273EA0099601061000000000000
B0401533207783S11658199EA0099301058000000000000
B0401573207749S11658123EA0098801053000000000000
B0402013207711S11658049EA0098501051000000000000
B0402053207677S11657976EA0098701055000000000000
B0402093207650S11657901EA0098701052000000000000
B0402133207624S11657824EA0098301048000000000000
B0402173207599S11657748EA0098101046000000000000
B0402213207576S11657670EA0097901043000000000000
B0402253207554S11657593EA0097601041000000000000
B0402293207538S11657514EA0097301038000000000000
B0402333207521S11657436EA0097001034000000000000
B0402373207497S11657358EA0096501030000000000000
B0402413207493S11657281EA0095901026000000000000
B0402453207523S11657226EA0095601021000000000000
B0402493207570S11657220EA0095201017000000000000
B0402533207597S11657261EA0094901013000000000000
B0402573207585S11657324EA0094401007000000000000
B0403013207547S11657385EA0093700999000000000000
B0403053207499S11657438EA0093401000000000000000
B0403093207455S11657491EA0093601001000000000000
B0403133207428S11657550EA0093401000000000000000
B0403173207423S11657608EA0093200998000000000000
B0403213207432S11657663EA0092900996000000000000
B0403253207447S11657712EA0092800994000000000000
B0403293207464S11657761EA0092600992000000000000
B0403333207479S11657810EA0092300988000000000000
B0403373207493S11657861EA0092000983000000000000
B0403413207493S11657919EA0091500981000000000000
B0403453207469S11657979EA0091400980000000000000
B0403493207432S11658034EA0091300976000000000000
B0403533207398S11658089EA0091100975000000000000
B0403573207397S11658151EA0090700970000000000000
B0404013207440S11658173EA0090500971000000000000
B0404053207476S11658128EA0090500970000000000000
B0404093207459S11658054EA0090600971000000000000
B0404133207397S11658018EA0090100964000000000000
B0404173207334S11658044EA0089600961000000000000
B0404213207304S11658108EA0089200953000000000000
B0404253207317S11658175EA0088300947000000000000
B0404293207365S11658196EA0088400950000000000000
B0404333207406S11658152EA0088800954000000000000
B0404373207397S11658075EA0088800951000000000000
B0404413207339S11658024EA0088400949000000000000
B0404453207272S11658032EA0088300948000000000000
B0404493207220S11658083EA0087600939000000000000
B0404533207178S11658147EA0086700931000000000000
B0404573207138S11658213EA0086100926000000000000
B0405013207098S11658281EA0085900925000000000000
B0405053207055S11658348EA0085400918000000000000
B0405093207011S11658417EA0084900913000000000000
B0405133206969S11658489EA0084800915000000000000
B0405173206931S11658561EA0085100916000000000000
B0405213206920S11658642EA0084800911000000000000
B0405253206955S11658702EA0084600910000000000000
B0405293207012S11658710EA0084200905000000000000
B0405333207056S11658660EA0084100906000000000000
B0405373207061S11658583EA0083700899000000000000
B0405413207022S11658513EA0082600889000000000000
B0405453206959S11658468EA0081800881000000000000
B0405493206888S11658435EA0081300880000000000000
B0405533206818S11658412EA0081500883000000000000
B0405573206745S11658395EA0081500882000000000000
B0406013206674S11658378EA0081600883000000000000
B0406053206602S11658362EA0082000886000000000000
B0406093206546S11658403EA0082200887000000000000
B0406133206545S11658470EA0082000885000000000000
B0406173206587S11658508EA0081900884000000000000
B0406213206637S11658490EA0081500881000000000000
B0406253206666S11658430EA0081500883000000000000
B0406293206648S11658362EA0081700884000000000000
B0406333206592S11658320EA0081700883000000000000
B0406373206524S11658326EA0081900884000000000000
B0406413206488S11658385EA0081700883000000000000
B0406453206511S11658443EA0081700880000000000000
B0406493206553S11658489EA0081100874000000000000
B0406533206601S11658533EA0080800873000000000000
B0406573206650S11658574EA0080700873000000000000
B0407013206700S11658619EA0080400870000000000000
B0407053206748S11658664EA0080000864000000000000
B0407093206795S11658713EA0079500860000000000000
B0407133206842S11658760EA0079500863000000000000
B0407173206886S11658807EA0079200857000000000000
B0407213206931S11658853EA0078500849000000000000
B0407253206981S11658894EA0077700841000000000000
B0407293207040S11658916EA0077200839000000000000
B0407333207099S11658918EA0077300838000000000000
B0407373207157S11658906EA0076900831000000000000
B0407413207216S11658884EA0076000823000000000000
B0407453207276S11658855EA0075200815000000000000
B0407493207334S11658824EA0074500810000000000000
B0407533207393S11658790EA0074200808000000000000
B0407573207447S11658755EA0074100808000000000000
B0408013207501S11658720EA0073900805000000000000
B0408053207553S11658684EA0073700802000000000000
B0408093207605S11658646EA0073200798000000000000
B0408133207655S11658608EA0073000799000000000000
B0408173207703S11658569EA0073000798000000000000
B0408213207752S11658530EA0073000796000000000000
B0408253207801S11658495EA0072900795000000000000
B0408293207850S11658460EA0072700794000000000000
B0408333207898S11658426EA0072700794000000000000
B0408373207945S11658390EA0072400790000000000000
B0408413207992S11658356EA0072100788000000000000
B0408453208038S11658323EA0072100786000000000000
B0408493208086S11658295EA0071200776000000000000
B0408533208139S11658266EA0070700773000000000000
B0408573208192S11658240EA0070500771000000000000
B0409013208244S11658209EA0070500772000000000000
B0409053208286S11658157EA0071200780000000000000
B0409093208274S11658088EA0071900786000000000000
B0409133208213S11658061EA0071800784000000000000
B0409173208166S11658102EA0071600783000000000000
B0409213208161S11658166EA0071700782000000000000
B0409253208199S11658200EA0071700785000000000000
B0409293208242S11658170EA0072100789000000000000
B0409333208235S11658104EA0072400789000000000000
B0409373208179S11658062EA0071800782000000000000
B0409413208118S11658088EA0071500782000000000000
B0409453208104S11658152EA0071800785000000000000
B0409493208139S11658191EA0072100793000000000000
B0409533208179S11658165EA0072900797000000000000
B0409573208178S11658099EA0072800792000000000000
B0410013208126S11658049EA0072100784000000000000
B0410053208056S11658054EA0071700784000000000000
B0410093208014S11658105EA0072400794000000000000
B0410133208025S11658157EA0073000795000000000000
B0410173208071S11658169EA0072700791000000000000
B0410213208116S11658127EA0072300788000000000000
B0410253208117S11658054EA0072500793000000000000
B0410293208071S11657995EA0072800791000000000000
B0410333208001S11657984EA0072300787000000000000
B0410373207948S11658024EA0072400793000000000000
B0410413207930S11658086EA0073000798000000000000
B0410453207962S11658123EA0073300800000000000000
B0410493208008S11658093EA0073200794000000000000
B0410533208008S11658018EA0073000795000000000000
B0410573207956S11657966EA0073000796000000000000
B0411013207888S11657971EA0073000797000000000000
B0411053207850S11658024EA0073200801000000000000
B0411093207854S11658080EA0073400800000000000000
B0411133207897S11658108EA0073200797000000000000
B0411173207941S11658074EA0073500804000000000000
B0411213207932S11658006EA0074100806000000000000
B0411253207878S11657970EA0073900803000000000000
B0411293207822S11657992EA0074100809000000000000
B0411333207810S11658044EA0074400810000000000000
B0411373207844S11658070EA0074400809000000000000
B0411413207876S11658028EA0074400810000000000000
B0411453207852S11657962EA0074600811000000000000
B0411493207788S11657954EA0074400809000000000000
B0411533207757S11658009EA0074500814000000000000
B0411573207781S11658053EA0074900814000000000000
B0412013207827S11658036EA0075100819000000000000
B0412053207830S11657969EA0075400821000000000000
B0412093207776S11657926EA0075300817000000000000
B0412133207716S11657953EA0074900814000000000000
B0412173207709S11658014EA0075400820000000000000
B0412213207753S11658031EA0075300818000000000000
B0412253207785S11657971EA0074900812000000000000
B0412293207754S11657896EA0074400809000000000000
B0412333207681S11657883EA0074400810000000000000
B0412373207640S11657936EA0074800817000000000000
B0412413207650S11657998EA0075100816000000000000
B0412453207698S11658022EA0075100815000000000000
B0412493207746S11657983EA0074700810000000000000
B0412533207748S11657902EA0074500810000000000000
B0412573207693S11657840EA0074600812000000000000
B0413013207618S11657824EA0074200806000000000000
B0413053207554S11657865EA0074200809000000000000
B0413093207544S11657930EA0074600814000000000000
B0413133207583S11657961EA0074800816000000000000
B0413173207627S11657935EA0075000814000000000000
B0413213207629S11657862EA0074700812000000000000
B0413253207577S11657805EA0074200806000000000000
B0413293207508S11657766EA0073700801000000000000
B0413333207438S11657780EA0073500800000000000000
B0413373207404S11657841EA0073600803000000000000
B0413413207417S11657905EA0073500800000000000000
B0413453207466S11657935EA0073400799000000000000
B0413493207519S11657923EA0073400800000000000000
B0413533207554S11657870EA0073600805000000000000
B0413573207529S11657798EA0073900803000000000000
B0414013207463S11657768EA0073300796000000000000
B0414053207401S11657801EA0073100796000000000000
B0414093207377S11657865EA0073100794000000000000
B0414133207393S11657928EA0072200786000000000000
B0414173207438S11657959EA0072300792000000000000
B0414213207488S11657954EA0072700794000000000000
B0414253207518S11657905EA0072700790000000000000
B0414293207533S11657833EA0071600775000000000000
B0414333207549S11657755EA0070300765000000000000
B0414373207564S11657675EA0069800764000000000000
B0414413207577S11657594EA0069800765000000000000
B0414453207573S11657515EA0071100777000000000000
B0414493207510S11657481EA0071900785000000000000
B0414533207454S11657517EA0072100781000000000000
B0414573207462S11657573EA0071700778000000000000
B0415013207510S11657582EA0071500777000000000000
B0415053207560S11657549EA0071300775000000000000
B0415093207593S11657485EA0071000774000000000000
B0415133207554S11657421EA0071800787000000000000
B0415173207492S11657428EA0072600791000000000000
B0415213207473S11657485EA0073000797000000000000
B0415253207506S11657517EA0073700800000000000000
B0415293207546S11657489EA0073300793000000000000
B0415333207549S11657417EA0072800788000000000000
B0415373207494S11657363EA0072400790000000000000
B0415413207428S11657350EA0073100801000000000000
B0415453207394S11657400EA0074100809000000000000
B0415493207423S11657437EA0074800815000000000000
B0415533207464S11657412EA0074600807000000000000
B0415573207466S11657341EA0074200808000000000000
B0416013207414S11657289EA0074300810000000000000
B0416053207346S11657280EA0074800816000000000000
B0416093207300S11657324EA0075100817000000000000
B0416133207313S11657378EA0075300819000000000000
B0416173207362S11657378EA0075600820000000000000
B0416213207390S11657319EA0075500820000000000000
B0416253207372S11657244EA0076000829000000000000
B0416293207315S11657204EA0076500830000000000000
B0416333207251S11657220EA0076600832000000000000
B0416373207239S11657276EA0077100837000000000000
B0416413207280S11657295EA0077600842000000000000
B0416453207311S11657246EA0077700840000000000000
B0416493207284S11657176EA0077800845000000000000
B0416533207220S11657166EA0078200848000000000000
B0416573207186S11657216EA0078400850000000000000
B0417013207209S11657257EA0078800855000000000000
B0417053207252S11657242EA0079300861000000000000
B0417093207259S11657177EA0079700862000000000000
B0417133207215S11657124EA0079700862000000000000
B0417173207154S11657133EA0079600860000000000000
B0417213207137S11657190EA0079600862000000000000
B0417253207173S11657215EA0079800865000000000000
B0417293207208S11657170EA0080100866000000000000
B0417333207191S11657100EA0080200866000000000000
B0417373207130S11657073EA0080200866000000000000
B0417413207083S11657112EA0080200867000000000000
B0417453207095S11657165EA0080000864000000000000
B0417493207143S11657164EA0080200869000000000000
B0417533207165S11657105EA0081000877000000000000
B0417573207131S11657043EA0081000872000000000000
B0418013207069S11657034EA0080900874000000000000
B0418053207039S11657083EA0081000874000000000000
B0418093207069S11657118EA0080800873000000000000
B0418133207104S11657081EA0081100877000000000000
B0418173207103S11657008EA0080800870000000000000
B0418213207094S11656927EA0079800858000000000000
B0418253207086S11656840EA0078400848000000000000
B0418293207079S11656750EA0077800843000000000000
B0418333207077S11656662EA0077300840000000000000
B0418373207077S11656576EA0077300841000000000000
B0418413207077S11656496EA0077300840000000000000
B0418453207079S11656415EA0076600828000000000000
B0418493207090S11656336EA0075600820000000000000
B0418533207103S11656256EA0074700815000000000000
B0418573207115S11656178EA0074800817000000000000
B0419013207126S11656102EA0075400823000000000000
B0419053207098S11656032EA0076200831000000000000
B0419093207031S11656013EA0076700834000000000000
B0419133206990S11656061EA0077200839000000000000
B0419173207012S11656104EA0077900849000000000000
B0419213207053S11656084EA0078600852000000000000
B0419253207048S11656012EA0078700855000000000000
B0419293206991S11655980EA0079500865000000000000
B0419333206944S11656016EA0079900865000000000000
B0419373206951S11656068EA0080200871000000000000
B0419413206995S11656073EA0080600874000000000000
B0419453207022S11656019EA0081100879000000000000
B0419493206990S11655951EA0081300879000000000000
B0419533206922S11655939EA0081800888000000000000
B0419573206884S11655981EA0082600892000000000000
B0420013206905S11656026EA0082600893000000000000
B0420053206951S11656013EA0083400901000000000000
B0420093206957S11655944EA0083700902000000000000
B0420133206901S11655894EA0083700905000000000000
B0420173206838S11655909EA0084200913000000000000
B0420213206814S11655961EA0084900916000000000000
B0420253206842S11655999EA0085200918000000000000
B0420293206884S11655983EA0085700924000000000000
B0420333206897S11655922EA0086100925000000000000
B0420373206855S11655863EA0085700920000000000000
B0420413206787S11655864EA0085800925000000000000
B0420453206754S11655915EA0086400929000000000000
B0420493206775S11655957EA0086800933000000000000
B0420533206818S11655951EA0087100932000000000000
B0420573206842S11655891EA0087000933000000000000
B0421013206825S11655817EA0087400936000000000000
B0421053206771S11655761EA0087700939000000000000
B0421093206704S11655759EA0088000943000000000000
B0421133206663S11655811EA0088100942000000000000
B0421173206678S11655866EA0088200943000000000000
B0421213206722S11655885EA0088200946000000000000
B0421253206774S11655874EA0088400947000000000000
B0421293206826S11655850EA0088600950000000000000
B0421333206877S11655816EA0089000950000000000000
B0421373206933S11655786EA0088700949000000000000
B0421413206988S11655760EA0089300954000000000000
B0421453207022S11655695EA0090200962000000000000
B0421493206991S11655621EA0090600965000000000000
B0421533206920S11655593EA0090600964000000000000
B0421573206853S11655621EA0090600966000000000000
B0422013206827S11655683EA0090900968000000000000
B0422053206853S11655733EA0091500973000000000000
B0422093206904S11655723EA0091500973000000000000
B0422133206929S11655652EA0091600975000000000000
B0422173206896S11655571EA0091800975000000000000
B0422213206822S11655540EA0092000979000000000000
B0422253206753S11655564EA0092400985000000000000
B0422293206721S11655625EA0092900985000000000000
B0422333206734S11655686EA0092500982000000000000
B0422373206777S11655726EA0092400983000000000000
B0422413206831S11655749EA0092600983000000000000
B0422453206891S11655759EA0092600985000000000000
B0422493206955S11655760EA0092800987000000000000
B0422533207020S11655756EA0092300977000000000000
B0422573207090S11655749EA0090700960000000000000
B0423013207163S11655743EA0089100947000000000000
B0423053207235S11655740EA0088400939000000000000
B0423093207308S11655742EA0087800936000000000000
B0423133207380S11655740EA0087400929000000000000
B0423173207451S11655739EA0086700923000000000000
B0423213207521S11655738EA0086400920000000000000
B0423253207586S11655738EA0086400923000000000000
B0423293207650S11655735EA0085900914000000000000
B0423333207714S11655730EA0084600903000000000000
B0423373207779S11655725EA0084000896000000000000
B0423413207845S11655718EA0083200889000000000000
B0423453207909S11655709EA0082700884000000000000
B0423493207973S11655697EA0082400882000000000000
B0423533208034S11655686EA0082100879000000000000
B0423573208096S11655675EA0081700874000000000000
B0424013208158S11655668EA0080900865000000000000
B0424053208223S11655669EA0080200860000000000000
B0424093208288S11655677EA0080100859000000000000
B0424133208353S11655686EA0079600856000000000000
B0424173208415S11655697EA0080200864000000000000
B0424213208470S11655710EA0080900875000000000000
B0424253208522S11655733EA0081800883000000000000
B0424293208572S11655757EA0082900895000000000000
B0424333208613S11655730EA0084300905000000000000
B0424373208600S11655658EA0084700908000000000000
B0424413208537S11655627EA0084900909000000000000
B0424453208478S11655660EA0084900912000000000000
B0424493208464S11655720EA0085700923000000000000
B0424533208489S11655765EA0086500928000000000000
B0424573208529S11655781EA0087100933000000000000
B0425013208559S11655731EA0087600938000000000000
B0425053208537S11655660EA0087800940000000000000
B0425093208476S11655629EA0088600955000000000000
B0425133208416S11655644EA0089400956000000000000
B0425173208379S11655694EA0089700963000000000000
B0425213208381S11655751EA0090600971000000000000
B0425253208417S11655775EA0091200976000000000000
B0425293208454S11655743EA0092000985000000000000
B0425333208446S11655671EA0092500986000000000000
B0425373208389S11655629EA0093000994000000000000
B0425413208324S11655645EA0094101005000000000000
B0425453208291S11655703EA0094901012000000000000
B0425493208307S11655757EA0095501018000000000000
B0425533208352S11655761EA0096101023000000000000
B0425573208378S11655705EA0096901033000000000000
B0426013208356S11655632EA0097601036000000000000
B0426053208290S11655604EA0098101045000000000000
B0426093208236S11655647EA0099001053000000000000
B0426133208234S11655714EA0099601055000000000000
B0426173208277S11655744EA0100001061000000000000
B0426213208314S11655701EA0100801074000000000000
B0426253208298S11655631EA0101601071000000000000
B0426293208226S11655595EA0100701066000000000000
B0426333208161S11655631EA0101601083000000000000
B0426373208139S11655703EA0102501077000000000000
B0426413208175S11655769EA0101001062000000000000
B0426453208240S11655808EA0099101042000000000000
B0426493208314S11655843EA0097501025000000000000
B0426533208386S11655892EA0096601020000000000000
B0426573208452S11655951EA0095701010000000000000
B0427013208515S11656016EA0094500998000000000000
B0427053208574S11656085EA0093700994000000000000
B0427093208636S11656152EA0093400989000000000000
B0427133208697S11656221EA0092800979000000000000
B0427173208756S11656293EA0091800974000000000000
B0427213208816S11656362EA0091900980000000000000
B0427253208872S11656429EA0092800991000000000000
B0427293208923S11656493EA0093901001000000000000
B0427333208971S11656557EA0093900998000000000000
B0427373209019S11656622EA0093901001000000000000
B0427413209067S11656685EA0094301004000000000000
B0427453209113S11656749EA0094501008000000000000
B0427493209159S11656812EA0095501020000000000000
B0427533209215S11656839EA0097201032000000000000
B0427573209256S11656792EA0097901039000000000000
B0428013209240S11656718EA0098001037000000000000
B0428053209178S11656679EA0097601035000000000000
B0428093209107S11656705EA0098101046000000000000
B0428133209070S11656770EA0099401056000000000000
B0428173209087S11656834EA0099901056000000000000
B0428213209141S11656853EA0099501051000000000000
B0428253209193S11656812EA0099301053000000000000
B0428293209209S11656734EA0099501051000000000000
B0428333209166S11656654EA0099401050000000000000
B0428373209085S11656624EA0099101048000000000000
B0428413209009S11656665EA0099801058000000000000
B0428453208979S11656748EA0100601064000000000000
B0428493209005S11656826EA0099901043000000000000
B0428533209076S11656874EA0097201020000000000000
B0428573209159S11656916EA0095801010000000000000
B0429013209247S11656956EA0094700999000000000000
B0429053209336S11657001EA0093500980000000000000
B0429093209429S11657044EA0092000969000000000000
B0429133209520S11657083EA0091200966000000000000
B0429173209608S11657122EA0090400958000000000000
B0429213209689S11657165EA0090500967000000000000
B0429253209761S11657211EA0091200971000000000000
B0429293209825S11657274EA0090700965000000000000
B0429333209873S11657351EA0091000973000000000000
B0429373209911S11657432EA0091600976000000000000
B0429413209942S11657516EA0091400973000000000000
B0429453209968S11657599EA0091200974000000000000
B0429493209997S11657679EA0091000962000000000000
B0429533210050S11657738EA0089800955000000000000
B0429573210112S11657776EA0089400952000000000000
B0430013210179S11657800EA0088900947000000000000
B0430053210246S11657810EA0088600943000000000000
B0430093210313S11657803EA0088400943000000000000
B0430133210376S11657783EA0088400943000000000000
B0430173210439S11657753EA0088200940000000000000
B0430213210502S11657720EA0087600934000000000000
B0430253210567S11657686EA0087000927000000000000
B0430293210630S11657641EA0086100917000000000000
B0430333210688S11657582EA0085800917000000000000
B0430373210739S11657516EA0085800916000000000000
B0430413210787S11657443EA0085400911000000000000
B0430453210833S11657371EA0085000907000000000000
B0430493210877S11657295EA0084400900000000000000
B0430533210920S11657216EA0083800895000000000000
B0430573210960S11657139EA0083500894000000000000
B0431013210998S11657065EA0083600897000000000000
B0431053211035S11656996EA0083700894000000000000
B0431093211073S11656927EA0083300893000000000000
B0431133211112S11656861EA0082900889000000000000
B0431173211155S11656800EA0082800888000000000000
B0431213211197S11656739EA0082800890000000000000
B0431253211249S11656689EA0083200893000000000000
B0431293211307S11656697EA0083900905000000000000
B0431333211327S11656753EA0085000915000000000000
B0431373211293S11656808EA0085700920000000000000
B0431413211230S11656813EA0086700933000000000000
B0431453211186S11656761EA0088000944000000000000
B0431493211199S11656698EA0088600949000000000000
B0431533211243S11656688EA0089100953000000000000
B0431573211272S11656728EA0089200954000000000000
B0432013211264S11656787EA0089300956000000000000
B0432053211220S11656823EA0089400953000000000000
B0432093211159S11656819EA0089100950000000000000
B0432133211099S11656788EA0088700944000000000000
B0432173211056S11656723EA0088500944000000000000
B0432213211030S11656645EA0088700947000000000000
B0432253211050S11656574EA0089200956000000000000
B0432293211095S11656567EA0090300964000000000000
B0432333211109S11656622EA0090400961000000000000
B0432373211073S11656678EA0090200962000000000000
B0432413211011S11656704EA0090600968000000000000
B0432453210940S11656695EA0091100973000000000000
B0432493210890S11656645EA0091700980000000000000
B0432533210878S11656574EA0091700973000000000000
B0432573210913S11656520EA0091400978000000000000
B0433013210961S11656528EA0092000983000000000000
B0433053210983S11656585EA0092200985000000000000
B0433093210948S11656644EA0093100996000000000000
B0433133210882S11656652EA0094001003000000000000
B0433173210823S11656610EA0094201002000000000000
B0433213210799S11656536EA0093900996000000000000
B0433253210823S11656466EA0093400991000000000000
B0433293210878S11656435EA0093200993000000000000
B0433333210937S11656448EA0093400994000000000000
B0433373210976S11656498EA0093600996000000000000
B0433413210982S11656570EA0093500995000000000000
B0433453210948S11656636EA0093700997000000000000
B0433493210885S11656670EA0093500992000000000000
B0433533210808S11656662EA0092700978000000000000
B0433573210729S11656620EA0091800972000000000000
B0434013210652S11656567EA0091400965000000000000
B0434053210575S11656509EA0090800961000000000000
B0434093210500S11656444EA0090300954000000000000
B0434133210423S11656375EA0089900955000000000000
B0434173210348S11656307EA0089400947000000000000
B0434213210277S11656236EA0089100947000000000000
B0434253210212S11656162EA0089500951000000000000
B0434293210150S11656087EA0090100956000000000000
B0434333210075S11656039EA0090700967000000000000
B0434373210003S11656068EA0091700977000000000000
B0434413209978S11656136EA0092400980000000000000
B0434453210010S11656189EA0092200976000000000000
B0434493210066S11656186EA0092200980000000000000
B0434533210111S11656142EA0092200980000000000000
B0434573210131S11656068EA0092600985000000000000
B0435013210123S11655987EA0093200993000000000000
B0435053210071S11655931EA0093700998000000000000
B0435093210004S11655941EA0093901000000000000000
B0435133209971S11655998EA0093800996000000000000
B0435173209984S11656056EA0093700994000000000000
B0435213210029S11656077EA0093500995000000000000
B0435253210081S11656061EA0093800995000000000000
B0435293210107S11655999EA0094701014000000000000
B0435333210072S11655934EA0095701016000000000000
B0435373210002S11655922EA0095801017000000000000
B0435413209954S11655970EA0095501011000000000000
B0435453209962S11656039EA0094501000000000000000
B0435493210012S11656073EA0094000998000000000000
B0435533210072S11656087EA0093400986000000000000
B0435573210138S11656089EA0092200976000000000000
B0436013210209S11656084EA0091200963000000000000
B0436053210281S11656069EA0090500962000000000000
B0436093210350S11656052EA0091000967000000000000
B0436133210418S11656030EA0090300956000000000000
B0436173210480S11655993EA0090000955000000000000
B0436213210514S11655920EA0090700963000000000000
B0436253210492S11655837EA0091000962000000000000
B0436293210424S11655787EA0090100947000000000000
B0436333210339S11655774EA0088200934000000000000
B0436373210253S11655769EA0087600930000000000000
B0436413210172S11655775EA0087500933000000000000
B0436453210093S11655788EA0087500933000000000000
B0436493210014S11655800EA0087900939000000000000
B0436533209936S11655809EA0088600943000000000000
B0436573209868S11655839EA0089400951000000000000
B0437013209850S11655904EA0089800951000000000000
B0437053209889S11655941EA0089500947000000000000
B0437093209936S11655911EA0089500955000000000000
B0437133209951S11655840EA0090000959000000000000
B0437173209924S11655769EA0090200960000000000000
B0437213209864S11655729EA0090400965000000000000
B0437253209795S11655721EA0090900970000000000000
B0437293209747S11655761EA0091200969000000000000
B0437333209764S11655813EA0091200970000000000000
B0437373209809S11655804EA0091300967000000000000
B0437413209825S11655738EA0090900966000000000000
B0437453209800S11655661EA0091200970000000000000
B0437493209738S11655626EA0092000984000000000000
B0437533209691S11655662EA0092400980000000000000
B0437573209692S11655721EA0092100981000000000000
B0438013209735S11655734EA0092600986000000000000
B0438053209773S11655690EA0092900988000000000000
B0438093209768S11655616EA0093801000000000000000
B0438133209718S11655561EA0094801008000000000000
B0438173209659S11655569EA0095501015000000000000
B0438213209637S11655622EA0095001005000000000000
B0438253209665S11655666EA0094601004000000000000
B0438293209715S11655657EA0094701007000000000000
B0438333209744S11655592EA0095401014000000000000
B0438373209731S11655508EA0096001020000000000000
B0438413209678S11655447EA0096701025000000000000
B0438453209612S11655443EA0097201031000000000000
B0438493209566S11655488EA0097101026000000000000
B0438533209564S11655553EA0096501019000000000000
B0438573209607S11655591EA0096501021000000000000
B0439013209659S11655569EA0097501034000000000000
B0439053209638S11655499EA0098901048000000000000
B0439093209574S11655492EA0099301053000000000000
B0439133209544S11655543EA0099401053000000000000
B0439173209566S11655586EA0099801056000000000000
B0439213209611S11655578EA0099801057000000000000
B0439253209635S11655521EA0100601065000000000000
B0439293209618S11655450EA0101001069000000000000
B0439333209565S11655411EA0101801078000000000000
B0439373209510S11655431EA0102201079000000000000
B0439413209501S11655486EA0102001078000000000000
B0439453209536S11655518EA0102601085000000000000
B0439493209579S11655493EA0103401096000000000000
B0439533209598S11655431EA0103601095000000000000
B0439573209570S11655361EA0103601097000000000000
B0440013209512S11655332EA0104201105000000000000
B0440053209464S11655359EA0104801109000000000000
B0440093209458S11655415EA0104401103000000000000
B0440133209477S11655473EA0104201102000000000000
B0440173209503S11655531EA0104001097000000000000
B0440213209535S11655593EA0103701097000000000000
B0440253209566S11655657EA0103701097000000000000
B0440293209599S11655722EA0103301085000000000000
B0440333209631S11655791EA0102701086000000000000
B0440373209665S11655860EA0103101090000000000000
B0440413209696S11655928EA0103601096000000000000
B0440453209729S11655995EA0103501093000000000000
B0440493209763S11656063EA0103401094000000000000
B0440533209791S11656132EA0103501092000000000000
B0440573209819S11656202EA0103401091000000000000
B0441013209848S11656269EA0102901086000000000000
B0441053209878S11656334EA0102501082000000000000
B0441093209904S11656401EA0102101076000000000000
B0441133209929S11656470EA0101701070000000000000
B0441173209955S11656539EA0100601060000000000000
B0441213209982S11656602EA0099801055000000000000
B0441253210010S11656666EA0099601051000000000000
B0441293210036S11656731EA0099001045000000000000
B0441333210063S11656796EA0098101038000000000000
B0441373210090S11656861EA0097701032000000000000
B0441413210119S11656926EA0097001025000000000000
B0441453210145S11656992EA0096301017000000000000
B0441493210171S11657057EA0095401008000000000000
B0441533210198S11657125EA0094501003000000000000
B0441573210224S11657194EA0094601002000000000000
B0442013210246S11657267EA0093900993000000000000
B0442053210272S11657338EA0092700981000000000000
B0442093210301S11657413EA0091900975000000000000
B0442133210322S11657494EA0091900978000000000000
B0442173210337S11657575EA0092200980000000000000
B0442213210357S11657654EA0092100978000000000000
B0442253210375S11657733EA0091900972000000000000
B0442293210396S11657814EA0090700960000000000000
B0442333210417S11657894EA0089700955000000000000
B0442373210436S11657971EA0089400955000000000000
B0442413210456S11658047EA0089600956000000000000
B0442453210471S11658121EA0090000961000000000000
B0442493210491S11658192EA0090400965000000000000
B0442533210513S11658264EA0090900972000000000000
B0442573210554S11658305EA0092100986000000000000
B0443013210587S11658265EA0094101007000000000000
B0443053210563S11658204EA0095501020000000000000
B0443093210506S11658178EA0096801035000000000000
B0443133210453S11658201EA0098001042000000000000
B0443173210433S11658258EA0098501044000000000000
B0443213210458S11658303EA0098601044000000000000
B0443253210498S11658281EA0098901049000000000000
B0443293210497S11658213EA0099301054000000000000
B0443333210445S11658158EA0100001064000000000000
B0443373210375S11658160EA0100801071000000000000
B0443413210335S11658217EA0101601075000000000000
B0443453210341S11658290EA0100901062000000000000
B0443493210363S11658369EA0098901038000000000000
B0443533210400S11658452EA0097101025000000000000
B0443573210445S11658531EA0096701028000000000000
B0444013210491S11658606EA0097101032000000000000
B0444053210535S11658680EA0096801027000000000000
B0444093210578S11658754EA0096001018000000000000
B0444133210619S11658830EA0095401016000000000000
B0444173210656S11658906EA0096101023000000000000
B0444213210691S11658977EA0095801016000000000000
B0444253210727S11659051EA0095501016000000000000
B0444293210761S11659126EA0095401015000000000000
B0444333210795S11659198EA0095501016000000000000
B0444373210825S11659270EA0095701018000000000000
B0444413210852S11659340EA0095501014000000000000
B0444453210881S11659413EA0094801005000000000000
B0444493210911S11659487EA0094401003000000000000
B0444533210940S11659560EA0094601006000000000000
B0444573210969S11659631EA0094301001000000000000
B0445013210996S11659704EA0093600992000000000000
B0445053211021S11659778EA0093000991000000000000
B0445093211041S11659850EA0093000988000000000000
B0445133211059S11659921EA0092500982000000000000
B0445173211081S11659995EA0091600971000000000000
B0445213211109S11700068EA0090700964000000000000
B0445253211143S11700142EA0090200958000000000000
B0445293211177S11700218EA0089500953000000000000
B0445333211203S11700294EA0089800958000000000000
B0445373211237S11700364EA0090100958000000000000
B0445413211275S11700429EA0090000960000000000000
B0445453211312S11700488EA0090800969000000000000
B0445493211351S11700543EA0091100969000000000000
B0445533211390S11700600EA0091100970000000000000
B0445573211431S11700654EA0091400974000000000000
B0446013211483S11700675EA0092100981000000000000
B0446053211524S11700632EA0092400978000000000000
B0446093211519S11700556EA0091500969000000000000
B0446133211470S11700494EA0090800966000000000000
B0446173211401S11700489EA0091100972000000000000
B0446213211343S11700523EA0091300974000000000000
B0446253211297S11700575EA0091400973000000000000
B0446293211284S11700641EA0091300972000000000000
B0446333211321S11700676EA0091400973000000000000
B0446373211360S11700640EA0091300965000000000000
B0446413211340S11700570EA0090300956000000000000
B0446453211272S11700556EA0089500954000000000000
B0446493211203S11700579EA0088900945000000000000
B0446533211133S11700613EA0088100938000000000000
B0446573211061S11700656EA0087600936000000000000
B0447013210990S11700699EA0087700935000000000000
B0447053210920S11700741EA0088300941000000000000
B0447093210901S11700816EA0088900946000000000000
B0447133210946S11700860EA0089100947000000000000
B0447173211003S11700836EA0088900947000000000000
B0447213211024S11700766EA0089400956000000000000
B0447253210999S11700695EA0089800956000000000000
B0447293210937S11700661EA0089300954000000000000
B0447333210869S11700647EA0089100949000000000000
B0447373210797S11700640EA0088500943000000000000
B0447413210723S11700639EA0088300940000000000000
B0447453210653S11700649EA0088000939000000000000
B0447493210586S11700674EA0087900937000000000000
B0447533210549S11700738EA0088000940000000000000
B0447573210579S11700786EA0089300961000000000000
B0448013210618S11700751EA0090700965000000000000
B0448053210600S11700680EA0090600965000000000000
B0448093210536S11700660EA0091000969000000000000
B0448133210495S11700708EA0091400974000000000000
B0448173210519S11700758EA0092100982000000000000
B0448213210570S11700739EA0092600987000000000000
B0448253210583S11700671EA0093400995000000000000
B0448293210545S11700615EA0094301004000000000000
B0448333210484S11700615EA0094701005000000000000
B0448373210458S11700673EA0094601004000000000000
B0448413210493S11700712EA0095101014000000000000
B0448453210534S11700678EA0095901019000000000000
B0448493210524S11700606EA0096301023000000015000
B0448533210466S11700574EA0096801029000000015000
B0448573210420S11700618EA0097101027000000015000
B0449013210440S11700673EA0097401036000000015000
B0449053210487S11700666EA0098301045000000000000
B0449093210500S11700602EA0098701046000000000000
B0449133210456S11700546EA0098901049000000015000
B0449173210393S11700562EA0098901048000000015000
B0449213210378S11700624EA0099001052000000015000
B0449253210420S11700648EA0099701053000000000000
B0449293210454S11700591EA0099101045000000000000
B0449333210431S11700504EA0098301038000000000000
B0449373210381S11700423EA0097401028000000000000
B0449413210328S11700338EA0096401020000000000000
B0449453210274S11700253EA0095801014000000000000
B0449493210219S11700168EA0095501014000000000000
B0449533210164S11700086EA0095601014000000000000
B0449573210110S11700006EA0095201009000000000000
B0450013210058S11659924EA0094701003000000000000
B0450053210006S11659839EA0094100999000000000000
B0450093209956S11659756EA0093800995000000000000
B0450133209907S11659670EA0093200988000000000000
B0450173209858S11659586EA0092800986000000000000
B0450213209808S11659503EA0092400980000000000000
B0450253209759S11659418EA0091800975000000000000
B0450293209711S11659334EA0091400971000000000000
B0450333209663S11659252EA0090800965000000000000
B0450373209614S11659171EA0090200959000000000000
B0450413209568S11659090EA0089600952000000000000
B0450453209521S11659009EA0088700944000000000000
B0450493209478S11658925EA0087900937000000000000
B0450533209434S11658843EA0087100929000000000000
B0450573209391S11658762EA0086400919000000000000
B0451013209347S11658680EA0085300911000000000000
B0451053209304S11658598EA0084600902000000000000
B0451093209267S11658513EA0083700897000000000000
B0451133209236S11658427EA0083300891000000000000
B0451173209215S11658342EA0082700888000000000000
B0451213209205S11658257EA0082000879000000000000
B0451253209200S11658171EA0081000867000000000000
B0451293209193S11658088EA0080400862000000000000
B0451333209184S11658005EA0079800857000000000000
B0451373209178S11657922EA0079200850000000000000
B0451413209171S11657837EA0078500843000000000000
B0451453209161S11657753EA0078000841000000000000
B0451493209149S11657667EA0078100844000000000000
B0451533209132S11657582EA0079000855000000000000
B0451573209075S11657547EA0080400869000000000000
B0452013209033S11657590EA0081100873000000000000
B0452053209046S11657645EA0081100870000000000000
B0452093209092S11657655EA0080600865000000000000
B0452133209128S11657607EA0080600871000000000000
B0452173209120S11657537EA0081400879000000000000
B0452213209063S11657494EA0082000884000000000000
B0452253209001S11657508EA0082400887000000000000
B0452293208981S11657571EA0082500887000000000000
B0452333209016S11657614EA0082200883000000000000
B0452373209066S11657585EA0082300889000000000000
B0452413209070S11657514EA0083400899000000000000
B0452453209022S11657459EA0084000905000000000000
B0452493208957S11657462EA0084500904000000000000
B0452533208925S11657521EA0084500907000000000000
B0452573208949S11657575EA0084400904000000000000
B0453013209001S11657573EA0084600909000000000000
B0453053209031S11657521EA0085200916000000000000
B0453093209010S11657451EA0085600915000000000000
B0453133208945S11657425EA0085300910000000000000
B0453173208888S11657472EA0085000912000000000000
B0453213208881S11657542EA0085200914000000000000
B0453253208919S11657586EA0085500918000000000000
B0453293208968S11657569EA0086100926000000000000
B0453333208981S11657508EA0087100936000000000000
B0453373208945S11657451EA0087600935000000000000
B0453413208881S11657436EA0087600937000000000000
B0453453208833S11657478EA0087800938000000000000
B0453493208840S11657541EA0087700934000000000000
B0453533208880S11657580EA0087600937000000000000
B0453573208925S11657562EA0088000942000000000000
B0454013208929S11657497EA0088600944000000000000
B0454053208885S11657430EA0088000934000000000000
B0454093208825S11657369EA0087200931000000000000
B0454133208759S11657309EA0087200931000000000000
B0454173208697S11657246EA0087500937000000000000
B0454213208636S11657182EA0087600935000000000000
B0454253208578S11657113EA0087200930000000000000
B0454293208526S11657040EA0086500923000000000000
B0454333208482S11656958EA0086100918000000000000
B0454373208443S11656873EA0085600913000000000000
B0454413208402S11656787EA0085400914000000000000
B0454453208357S11656706EA0085900921000000000000
B0454493208309S11656635EA0086400924000000000000
B0454533208240S11656602EA0086700927000000000000
B0454573208173S11656630EA0086500923000000000000
B0455013208130S11656693EA0085900916000000000000
B0455053208097S11656769EA0084900906000000000000
B0455093208065S11656849EA0084300902000000000000
B0455133208036S11656931EA0084100901000000000000
B0455173208010S11657012EA0083700897000000000000
B0455213207988S11657092EA0083200893000000000000
B0455253207969S11657174EA0082500885000000000000
B0455293207958S11657255EA0082100882000000000000
B0455333207961S11657335EA0081500877000000000000
B0455373207965S11657419EA0081400872000000000000
B0455413207987S11657490EA0081400877000000000000
B0455453208027S11657540EA0081800877000000000000
B0455493208080S11657538EA0081500870000000000000
B0455533208121S11657481EA0080900869000000000000
B0455573208145S11657407EA0081000874000000000000
B0456013208166S11657332EA0081100871000000000000
B0456053208179S11657247EA0081000873000000000000
B0456093208188S11657163EA0080700868000000000000
B0456133208201S11657075EA0080100863000000000000
B0456173208210S11656987EA0079900857000000000000
B0456213208216S11656899EA0078900848000000000000
B0456253208221S11656813EA0078300843000000000000
B0456293208239S11656732EA0077800839000000000000
B0456333208266S11656659EA0077700840000000000000
B0456373208292S11656588EA0078000844000000000000
B0456413208311S11656516EA0078500849000000000000
B0456453208316S11656440EA0078900852000000000000
B0456493208278S11656376EA0079000852000000000000
B0456533208229S11656320EA0078400841000000000000
B0456573208170S11656267EA0077800840000000000000
B0457013208104S11656233EA0078200845000000000000
B0457053208034S11656214EA0078500849000000000000
B0457093207979S11656250EA0079400855000000000000
B0457133207976S11656310EA0079500855000000000000
B0457173208017S11656337EA0079200853000000000000
B0457213208058S11656306EA0079400856000000000000
B0457253208062S11656236EA0079600856000000000000
B0457293208047S11656158EA0079100851000000000000
B0457333208021S11656078EA0078800849000000000000
B0457373207984S11656003EA0078600848000000000000
B0457413207934S11655939EA0078500846000000000000
B0457453207859S11655913EA0078200846000000000000
B0457493207781S11655909EA0078100842000000000000
B0457533207705S11655913EA0078000841000000000000
B0457573207625S11655921EA0077400834000000000000
B0458013207546S11655929EA0076900829000000000000
B0458053207466S11655938EA0076200822000000000000
B0458093207385S11655946EA0075800820000000000000
B0458133207303S11655951EA0075800819000000000000
B0458173207222S11655955EA0075600818000000000000
B0458213207146S11655960EA0075500816000000000000
B0458253207070S11655972EA0075100811000000000000
B0458293206998S11655994EA0074600807000000000000
B0458333206923S11656006EA0074700809000000000000
B0458373206845S11655996EA0074700807000000000000
B0458413206770S11655970EA0074200802000000000000
B0458453206697S11655925EA0073900801000000000000
B0458493206624S11655890EA0074600810000000000000
B0458533206571S11655924EA0076400830000000000000
B0458573206580S11655977EA0077200829000000000000
B0459013206627S11655982EA0076900828000000000000
B0459053206653S11655924EA0077100833000000000000
B0459093206621S11655857EA0077600835000000000000
B0459133206556S11655822EA0077300836000000000000
B0459173206488S11655826EA0077900845000000000000
B0459213206472S11655883EA0079200858000000000000
B0459253206517S11655899EA0079900860000000000000
B0459293206544S11655842EA0080100863000000000000
B0459333206509S11655781EA0080500869000000000000
B0459373206445S11655779EA0081200874000000000000
B0459413206420S11655837EA0082000882000000000000
B0459453206453S11655878EA0082700889000000000000
B0459493206497S11655852EA0083200896000000000000
B0459533206501S11655788EA0084100903000000000000
B0459573206452S11655743EA0084600910000000000000
B0500013206392S11655759EA0085400916000000000000
B0500053206375S11655816EA0086400928000000000000
B0500093206405S11655852EA0086900929000000000000
B0500133206448S11655825EA0087200932000000000000
B0500173206446S11655757EA0087600938000000000000
B0500213206392S11655721EA0088400946000000000000
B0500253206340S11655757EA0088800950000000000000
B0500293206350S11655814EA0089800959000000000000
B0500333206397S11655816EA0090200964000000000000
B0500373206422S11655760EA0090900970000000000000
B0500413206393S11655700EA0091900981000000000000
B0500453206331S11655691EA0092900990000000000000
B0500493206293S11655740EA0093300992000000000000
B0500533206314S11655791EA0093901001000000000000
B0500573206361S11655779EA0094401003000000000000
B0501013206370S11655716EA0094901012000000000000
B0501053206325S11655662EA0095801020000000000000
B0501093206262S11655664EA0097101036000000000000
B0501133206231S11655713EA0098301043000000000000
B0501173206254S11655761EA0098501044000000000000
B0501213206301S11655755EA0098901049000000000000
B0501253206314S11655696EA0099701059000000000000
B0501293206270S11655644EA0100401068000000000000
B0501333206211S11655657EA0101701082000000000000
B0501373206202S11655712EA0102401079000000000000
B0501413206249S11655744EA0101601068000000000000
B0501453206311S11655756EA0100901064000000000000
B0501493206376S11655762EA0100501060000000000000
B0501533206441S11655774EA0100001051000000000000
B0501573206510S11655782EA0098901044000000000000
B0502013206576S11655795EA0098801047000000000000
B0502053206637S11655814EA0098901045000000000000
B0502093206696S11655835EA0098401040000000000000
B0502133206754S11655859EA0098001034000000000000
B0502173206813S11655883EA0097501031000000000000
B0502213206871S11655903EA0097201029000000000000
B0502253206929S11655928EA0097001024000000000000
B0502293206985S11655952EA0096501021000000000000
B0502333207040S11655977EA0096201019000000000000
B0502373207098S11655999EA0096201019000000000000
B0502413207156S11656017EA0096001018000000000000
B0502453207216S11656034EA0095801013000000000000
B0502493207277S11656056EA0095201005000000000000
B0502533207337S11656078EA0094701004000000000000
B0502573207397S11656099EA0093900993000000000000
B0503013207458S11656120EA0093000985000000000000
B0503053207519S11656141EA0092600983000000000000
B0503093207577S11656160EA0092300980000000000000
B0503133207629S11656194EA0091900975000000000000
B0503173207671S11656246EA0091600972000000000000
B0503213207703S11656308EA0090700962000000000000
B0503253207731S11656380EA0089900951000000000000
B0503293207757S11656455EA0089100945000000000000
B0503333207780S11656531EA0088300939000000000000
B0503373207801S11656609EA0087800933000000000000
B0503413207824S11656688EA0087200928000000000000
B0503453207850S11656763EA0086200919000000000000
B0503493207882S11656834EA0085700913000000000000
B0503533207923S11656896EA0084900904000000000000
B0503573207970S11656949EA0084500902000000000000
B0504013208019S11656994EA0084400904000000000000
B0504053208069S11657033EA0084200899000000000000
B0504093208119S11657069EA0083400890000000000000
B0504133208173S11657104EA0082600881000000000000
B0504173208229S11657138EA0081900876000000000000
B0504213208286S11657169EA0081300871000000000000
B0504253208342S11657199EA0081000868000000000000
B0504293208398S11657225EA0080600864000000000000
B0504333208454S11657246EA0079900860000000000000
B0504373208509S11657267EA0079700856000000000000
B0504413208565S11657287EA0079200851000000000000
B0504453208623S11657308EA0078500846000000000000
B0504493208680S11657330EA0078000842000000000000
B0504533208736S11657355EA0077600836000000000000
B0504573208790S11657384EA0076900830000000000000
B0505013208844S11657416EA0076300824000000000000
B0505053208896S11657452EA0075800818000000000000
B0505093208946S11657490EA0074800809000000000000
B0505133208997S11657529EA0074200799000000000000
B0505173209049S11657569EA0073200791000000000000
B0505213209105S11657603EA0072900791000000000000
B0505253209163S11657631EA0072900793000000000000
B0505293209223S11657645EA0073200795000000000000
B0505333209288S11657645EA0073300794000000000000
B0505373209338S11657599EA0074200811000000000000
B0505413209323S11657530EA0075700821000000000000
B0505453209262S11657508EA0075200811000000000000
B0505493209206S11657543EA0074300804000000000000
B0505533209183S11657607EA0074100802000000000000
B0505573209191S11657673EA0074000801000000000000
B0506013209219S11657735EA0073900800000000000000
B0506053209266S11657764EA0074800815000000000000
B0506093209297S11657712EA0076300829000000000000
B0506133209260S11657659EA0076900832000000000000
B0506173209200S11657675EA0076600829000000000000
B0506213209183S11657737EA0076700835000000000000
B0506253209211S11657783EA0077600844000000000000
B0506293209257S11657783EA0078100850000000000000
B0506333209284S11657732EA0078500850000000000000
B0506373209261S11657660EA0078200847000000000000
B0506413209198S11657637EA0078400852000000000000
B0506453209166S11657690EA0078600850000000000000
B0506493209196S11657745EA0079000857000000000000
B0506533209248S11657744EA0080100870000000000000
B0506573209269S11657681EA0080600873000000000000
B0507013209230S11657616EA0080800872000000000000
B0507053209163S11657608EA0081200882000000000000
B0507093209124S11657657EA0082000887000000000000
B0507133209141S11657710EA0082600894000000000000
B0507173209185S11657694EA0083400899000000000000
B0507213209180S11657624EA0083400895000000015000
B0507253209119S11657590EA0083600903000000000000
B0507293209068S11657627EA0084000906000000000000
B0507333209075S11657684EA0084800916000000000000
B0507373209118S11657692EA0085700923000000000000
B0507413209146S11657644EA0085800920000000000000
B0507453209123S11657577EA0085700924000000000000
B0507493209063S11657559EA0086600931000000000000
B0507533209016S11657595EA0086900936000000000000
B0507573209023S11657646EA0087800945000000000000
B0508013209065S11657645EA0088300946000000000000
B0508053209081S11657585EA0088100940000000000000
B0508093209045S11657523EA0088000945000000000000
B0508133208984S11657511EA0088600947000000000000
B0508173208949S11657562EA0088700950000000000000
B0508213208976S11657599EA0089300958000000000000
B0508253209015S11657567EA0089900960000000000000
B0508293208997S11657499EA0090100964000000000000
B0508333208937S11657481EA0090600968000000000000
B0508373208894S11657527EA0090400964000000000000
B0508413208912S11657579EA0090400968000000000000
B0508453208962S11657573EA0090800970000000000000
B0508493208997S11657520EA0090500964000000000000
B0508533208989S11657441EA0090400967000000000000
B0508573208951S11657368EA0090900974000000000000
B0509013208886S11657355EA0091800980000000000000
B0509053208837S11657400EA0091700975000000000000
B0509093208838S11657465EA0091800980000000000000
B0509133208884S11657484EA0092200984000000000000
B0509173208923S11657429EA0092400985000000000000
B0509213208906S11657350EA0093000993000000000000
B0509253208845S11657317EA0093701001000000000000
B0509293208789S11657350EA0094201003000000000000
B0509333208785S11657408EA0094201005000000000000
B0509373208825S11657434EA0094301005000000000000
B0509413208872S11657407EA0094801010000000000000
B0509453208883S11657337EA0095301015000000000000
B0509493208836S11657274EA0095101008000000000000
B0509533208764S11657274EA0094901009000000000000
B0509573208720S11657326EA0095201014000000000000
B0510013208723S11657387EA0095301015000000000000
B0510053208764S11657419EA0095501015000000000000
B0510093208814S11657390EA0095301009000000000000
B0510133208825S11657312EA0094901011000000000000
B0510173208784S11657244EA0095501018000000000000
B0510213208717S11657229EA0095701019000000000000
B0510253208667S11657269EA0095801018000000000000
B0510293208664S11657332EA0095701013000000000000
B0510333208704S11657372EA0094901006000000000000
B0510373208755S11657400EA0094200998000000000000
B0510413208808S11657425EA0093400992000000000000
B0510453208863S11657450EA0092900986000000000000
B0510493208919S11657471EA0092600987000000000000
B0510533208971S11657481EA0093500997000000000000
B0510573209014S11657447EA0094000999000000000000
B0511013209014S11657376EA0093600991000000000000
B0511053208959S11657325EA0092700984000000000000
B0511093208890S11657329EA0092700987000000000000
B0511133208846S11657380EA0092700985000000000000
B0511173208851S11657443EA0092500983000000000000
B0511213208892S11657482EA0091800977000000000000
B0511253208942S11657511EA0090900966000000000000
B0511293208994S11657545EA0089900957000000000000
B0511333209046S11657585EA0089400954000000000000
B0511373209098S11657628EA0089400958000000000000
B0511413209150S11657659EA0090200965000000000000
B0511453209205S11657680EA0090900973000000000000
B0511493209260S11657677EA0091700981000000000000
B0511533209299S11657632EA0092400987000000000000
B0511573209295S11657556EA0092500982000000000000
B0512013209235S11657499EA0091900976000000000000
B0512053209158S11657499EA0091800980000000000000
B0512093209104S11657549EA0092400989000000000000
B0512133209083S11657615EA0092900991000000000000
B0512173209092S11657684EA0093000991000000000000
B0512213209128S11657729EA0093801005000000000000
B0512253209170S11657693EA0094901008000000000000
B0512293209139S11657618EA0094901010000000000000
B0512333209066S11657612EA0095101010000000000000
B0512373209028S11657677EA0095101009000000000000
B0512413209062S11657727EA0095901023000000000000
B0512453209106S11657689EA0096901033000000000000
B0512493209094S11657616EA0097501038000000000000
B0512533209035S11657581EA0097801041000000000000
B0512573208989S11657627EA0097801036000000000000
B0513013209014S11657680EA0097501037000000000000
B0513053209063S11657655EA0098101050000000000000
B0513093209054S11657582EA0099101056000000000000
B0513133208992S11657550EA0099501054000000000000
B0513173208935S11657584EA0099301054000000000000
B0513213208936S11657638EA0099701060000000000000
B0513253208983S11657653EA0099501056000000000000
B0513293209037S11657644EA0099301055000000000000
B0513333209096S11657627EA0099301053000000000000
B0513373209156S11657619EA0099101051000000000000
B0513413209211S11657637EA0099101051000000000000
B0513453209260S11657677EA0099301056000000000000
B0513493209302S11657723EA0099601057000000000000
B0513533209345S11657766EA0099001047000000000000
B0513573209386S11657815EA0098401043000000000000
B0514013209427S11657863EA0097901040000000000000
B0514053209468S11657915EA0097601035000000000000
B0514093209508S11657965EA0097201032000000000000
B0514133209552S11658010EA0096901029000000000000
B0514173209596S11658053EA0096501025000000000000
B0514213209640S11658096EA0096001015000000000000
B0514253209686S11658141EA0095001008000000000000
B0514293209730S11658190EA0094501004000000000000
B0514333209773S11658236EA0093900997000000000000
B0514373209817S11658286EA0093300993000000000000
B0514413209860S11658338EA0092700986000000000000
B0514453209902S11658391EA0092100983000000000000
B0514493209939S11658448EA0091800980000000000000
B0514533209976S11658504EA0091900979000000000000
B0514573210020S11658551EA0091400970000000000000
B0515013210071S11658594EA0090300960000000000000
B0515053210124S11658634EA0089500956000000000000
B0515093210175S11658674EA0089700959000000000000
B0515133210228S11658707EA0089900962000000000000
B0515173210284S11658736EA0090000962000000000000
B0515213210342S11658764EA0090000960000000000000
B0515253210401S11658793EA0089600956000000000000
B0515293210458S11658827EA0088900948000000000000
B0515333210514S11658862EA0088300945000000000000
B0515373210569S11658895EA0088600948000000000000
B0515413210622S11658927EA0088600947000000000000
B0515453210678S11658958EA0088600948000000000000
B0515493210732S11658993EA0088700948000000000000
B0515533210791S11659022EA0089300955000000000000
B0515573210835S11658980EA0090400967000000000000
B0516013210814S11658914EA0090600964000000000000
B0516053210755S11658893EA0089900956000000000000
B0516093210692S11658928EA0089000946000000000000
B0516133210656S11659001EA0088400944000000000000
B0516173210657S11659076EA0088900951000000000000
B0516213210705S11659100EA0089400956000000000000
B0516253210744S11659054EA0089200949000000000000
B0516293210729S11658979EA0088800948000000000000
B0516333210671S11658928EA0088800949000000000000
B0516373210600S11658925EA0089000953000000000000
B0516413210548S11658975EA0089300954000000000000
B0516453210548S11659042EA0089100948000000000000
B0516493210592S11659084EA0088100937000000000000
B0516533210651S11659107EA0087200933000000000000
B0516573210710S11659123EA0087200933000000000000
B0517013210773S11659135EA0087000932000000000000
B0517053210834S11659144EA0086600928000000000000
B0517093210896S11659154EA0086100923000000000000
B0517133210957S11659168EA0085700919000000000000
B0517173211015S11659189EA0085900922000000000000
B0517213211072S11659209EA0086100923000000000000
B0517253211129S11659230EA0086200924000000000000
B0517293211185S11659253EA0086300925000000000000
B0517333211242S11659245EA0086600925000000000000
B0517373211258S11659174EA0086100916000000000000
B0517413211204S11659119EA0085000907000000000000
B0517453211134S11659135EA0084100900000000000000
B0517493211094S11659197EA0083700896000000000000
B0517533211099S11659270EA0083500893000000000000
B0517573211133S11659331EA0083200889000000000000
B0518013211176S11659386EA0082600882000000000000
B0518053211232S11659427EA0081300871000000000000
B0518093211290S11659462EA0080900872000000000000
B0518133211343S11659499EA0081100874000000000000
B0518173211394S11659534EA0081100874000000000000
B0518213211445S11659566EA0081000872000000000000
B0518253211497S11659596EA0081000872000000000000
B0518293211549S11659625EA0080900872000000000000
B0518333211600S11659653EA0080900872000000000000
B0518373211653S11659681EA0080700871000000000000
B0518413211707S11659708EA0080700872000000000000
B0518453211759S11659738EA0081000877000000000000
B0518493211809S11659766EA0081900886000000000000
B0518533211856S11659795EA0082500890000000000000
B0518573211904S11659789EA0083100896000000000000
B0519013211906S11659720EA0083500895000000000000
B0519053211850S11659674EA0083100892000000000000
B0519093211788S11659694EA0083300899000000000000
B0519133211758S11659751EA0083700900000000000000
B0519173211775S11659807EA0083700898000000000000
B0519213211822S11659796EA0084000903000000000000
B0519253211826S11659727EA0084100902000000000000
B0519293211774S11659675EA0083900899000000000000
B0519333211704S11659683EA0083900901000000000000
B0519373211662S11659739EA0084200904000000000000
B0519413211683S11659802EA0083800896000000000000
B0519453211737S11659798EA0083900901000000000000
B0519493211735S11659724EA0084700909000000000000
B0519533211666S11659696EA0085000914000000000000
B0519573211615S11659747EA0085200911000000000000
B0520013211628S11659816EA0085000912000000000000
B0520053211680S11659829EA0085100916000000000000
B0520093211719S11659778EA0086000922000000000000
B0520133211707S11659699EA0086000920000000000000
B0520173211648S11659644EA0085900917000000000000
B0520213211567S11659618EA0085100912000000000000
B0520253211485S11659595EA0085000913000000000000
B0520293211405S11659570EA0085200916000000000000
B0520333211324S11659542EA0085300918000000000000
B0520373211245S11659513EA0085900922000000000000
B0520413211168S11659483EA0086400930000000000000
B0520453211095S11659491EA0087800942000000000000
B0520493211073S11659548EA0088300942000000000000
B0520533211106S11659588EA0087900935000000000000
B0520573211152S11659558EA0087200931000000000000
B0521013211152S11659483EA0087000930000000000000
B0521053211100S11659423EA0086900931000000000000
B0521093211034S11659376EA0086800928000000000000
B0521133210956S11659349EA0086900931000000000000
B0521173210898S11659389EA0087800939000000000000
B0521213210903S11659451EA0087800935000000000000
B0521253210953S11659448EA0087300931000000000000
B0521293210987S11659380EA0086500920000000000000
B0521333210976S11659287EA0086000920000000000000
B0521373210933S11659206EA0086500929000000000000
B0521413210860S11659175EA0087200928000000000000
B0521453210779S11659165EA0085800909000000000000
B0521493210692S11659154EA0084300896000000000000
B0521533210605S11659142EA0083700892000000000000
B0521573210518S11659129EA0082600881000000000000
B0522013210432S11659127EA0081400871000000000000
B0522053210345S11659126EA0080600865000000000000
B0522093210261S11659113EA0080700869000000000000
B0522133210183S11659087EA0080700868000000000000
B0522173210108S11659053EA0080700866000000000000
B0522213210034S11659015EA0080400864000000000000
B0522253209959S11658986EA0081000875000000000000
B0522293209908S11659031EA0082600890000000000000
B0522333209930S11659087EA0082900894000000000000
B0522373209975S11659071EA0084400911000000000000
B0522413209960S11659005EA0085400916000000000000
B0522453209897S11658997EA0086000923000000000000
B0522493209863S11659055EA0086700927000000000000
B0522533209899S11659094EA0087500939000000000000
B0522573209936S11659053EA0088600947000000000000
B0523013209910S11658986EA0089200953000000000000
B0523053209843S11658973EA0089800960000000000000
B0523093209796S11659020EA0090400965000000000000
B0523133209811S11659079EA0090800972000000000000
B0523173209859S11659062EA0091600980000000000000
B0523213209846S11658994EA0092700989000000000000
B0523253209780S11658989EA0093000988000000000000
B0523293209746S11659053EA0093400996000000000000
B0523333209782S11659096EA0094501011000000000000
B0523373209824S11659059EA0096001025000000000000
B0523413209807S11658993EA0096901030000000000000
B0523453209741S11658986EA0097401034000000000000
B0523493209704S11659048EA0097801042000000000000
B0523533209733S11659096EA0099201058000000000000
B0523573209774S11659063EA0100501069000000000000
B0524013209760S11658997EA0101601078000000000000
B0524053209698S11658984EA0102001076000000000000
B0524093209664S11659050EA0102101083000000000000
B0524133209700S11659092EA0103801103000000000000
B0524173209737S11659054EA0104801106000000000000
B0524213209708S11658983EA0105001108000000000000
B0524253209635S11658972EA0105201112000000000000
B0524293209579S11659028EA0105501117000000000000
B0524333209572S11659107EA0106301122000000000000
B0524373209603S11659175EA0106201113000000000000
B0524413209663S11659214EA0104901101000000000000
B0524453209734S11659244EA0104001096000000000000
B0524493209809S11659270EA0103001087000000000000
B0524533209886S11659297EA0102801086000000000000
B0524573209960S11659324EA0102801087000000000000
B0525013210033S11659348EA0103101090000000000000
B0525053210105S11659370EA0102901089000000000000
B0525093210173S11659392EA0102501085000000000000
B0525133210242S11659417EA0102101079000000000000
B0525173210309S11659443EA0101601076000000000000
B0525213210374S11659470EA0101301071000000000000
B0525253210440S11659497EA0101201073000000000000
B0525293210501S11659523EA0101901081000000000000
B0525333210558S11659545EA0102701087000000000000
B0525373210615S11659562EA0102601085000000000000
B0525413210675S11659579EA0102201079000000000000
B0525453210735S11659603EA0101901079000000000000
B0525493210791S11659634EA0102101079000000000000
B0525533210849S11659666EA0102001076000000000000
B0525573210909S11659698EA0102201081000000000000
B0526013210968S11659726EA0102401080000000000000
B0526053211030S11659753EA0101701073000000000000
B0526093211093S11659782EA0101101068000000000000
B0526133211155S11659815EA0100601063000000000000
B0526173211215S11659850EA0100301060000000000000
B0526213211276S11659882EA0100001059000000000000
B0526253211338S11659904EA0100001060000000000000
B0526293211405S11659919EA0100001059000000000000
B0526333211472S11659932EA0100001060000000000000
B0526373211540S11659945EA0100301064000000000000
B0526413211605S11659950EA0100901072000000000000
B0526453211666S11659959EA0102201088000000000000
B0526493211720S11659964EA0103201098000000000000
B0526533211752S11659908EA0104301107000000000000
B0526573211713S11659844EA0104701109000000000000
B0527013211645S11659851EA0104301104000000000000
B0527053211610S11659912EA0104301107000000000000
B0527093211614S11659978EA0104601105000000000000
B0527133211658S11700013EA0104801110000000000000
B0527173211707S11659985EA0105201113000000000000
B0527213211714S11659908EA0105101113000000000000
B0527253211659S11659850EA0105001109000000000000
B0527293211588S11659868EA0104901109000000000000
B0527333211557S11659937EA0104601104000000000000
B0527373211555S11700017EA0103901099000000000000
B0527413211559S11700099EA0103401093000000000000
B0527453211563S11700185EA0102901087000000000000
B0527493211566S11700273EA0102301083000000000000
B0527533211567S11700363EA0102001080000000000000
B0527573211563S11700453EA0102101083000000000000
B0528013211563S11700539EA0102601089000000000000
B0528053211564S11700623EA0102801090000000000000
B0528093211571S11700704EA0102901090000000000000
B0528133211593S11700777EA0102801091000000000000
B0528173211629S11700834EA0103001091000000000000
B0528213211675S11700879EA0102801087000000000000
B0528253211727S11700910EA0102001078000000000000
B0528293211787S11700931EA0101001069000000000000
B0528333211848S11700951EA0100401065000000000000
B0528373211908S11700973EA0100201064000000000000
B0528413211965S11700996EA0100001063000000000000
B0528453212018S11701025EA0100001062000000000000
B0528493212068S11701060EA0099701057000000000000
B0528533212116S11701098EA0099101052000000000000
B0528573212164S11701137EA0098601047000000000000
B0529013212212S11701173EA0098201043000000000000
B0529053212256S11701209EA0098001041000000000000
B0529093212296S11701252EA0097601037000000000000
B0529133212335S11701297EA0097201034000000000000
B0529173212370S11701343EA0097001031000000000000
B0529213212402S11701393EA0096701028000000000000
B0529253212433S11701443EA0096401026000000000000
B0529293212464S11701494EA0096301025000000000000
B0529333212497S11701544EA0096101023000000000000
B0529373212532S11701592EA0096001023000000000000
B0529413212565S11701638EA0095801023000000000000
B0529453212597S11701688EA0096101025000000000000
B0529493212625S11701736EA0096301027000000000000
B0529533212655S11701779EA0096601030000000000000
B0529573212693S11701801EA0096601030000000000000
B0530013212736S11701781EA0096501028000000000000
B0530053212759S11701720EA0096301026000000000000
B0530093212745S11701641EA0095901020000000000000
B0530133212698S11701568EA0095201014000000000000
B0530173212634S11701508EA0094901013000000000000
B0530213212565S11701456EA0094901012000000000000
B0530253212495S11701410EA0094701012000000000000
B0530293212422S11701368EA0094701010000000000000
B0530333212348S11701326EA0094401007000000000000
B0530373212276S11701281EA0094201004000000000000
B0530413212204S11701232EA0094301004000000000000
B0530453212133S11701182EA0094001002000000000000
B0530493212061S11701134EA0093701001000000000000
B0530533211992S11701087EA0093500998000000000000
B0530573211923S11701038EA0093000993000000000000
B0531013211856S11700987EA0092600989000000000000
B0531053211788S11700936EA0092000981000000000000
B0531093211720S11700882EA0091200972000000000000
B0531133211655S11700819EA0090300965000000000000
B0531173211594S11700753EA0089800961000000000000
B0531213211536S11700684EA0089600958000000000000
B0531253211476S11700617EA0089400956000000000000
B0531293211414S11700556EA0089200956000000000000
B0531333211350S11700498EA0088800953000000000000
B0531373211291S11700433EA0088700951000000000000
B0531413211245S11700362EA0088500950000000000000
B0531453211203S11700286EA0088400949000000000000
B0531493211160S11700215EA0088200946000000000000
B0531533211116S11700141EA0087800942000000000000
B0531573211074S11700067EA0087500941000000000000
B0532013211035S11659991EA0088000947000000000000
B0532053210994S11659920EA0088400950000000000000
B0532093210948S11659851EA0088600952000000000000
B0532133210898S11659789EA0088400948000000000000
B0532173210842S11659726EA0087700938000000000000
B0532213210775S11659670EA0086700928000000000000
B0532253210701S11659621EA0085900921000000000000
B0532293210627S11659574EA0086100926000000000000
B0532333210550S11659538EA0086400928000000000000
B0532373210474S11659510EA0086500929000000000000
B0532413210397S11659487EA0086800936000000000000
B0532453210324S11659469EA0087100935000000000000
B0532493210249S11659449EA0086800930000000000000
B0532533210172S11659434EA0086100924000000000000
B0532573210093S11659421EA0085700921000000000000
B0533013210014S11659404EA0085500916000000000000
B0533053209932S11659376EA0084600906000000000000
B0533093209848S11659349EA0083800900000000000000
B0533133209767S11659314EA0083400896000000000000
B0533173209687S11659275EA0083700901000000000000
B0533213209607S11659249EA0084100904000000000000
B0533253209526S11659235EA0084400910000000000000
B0533293209468S11659266EA0085700920000000000000
B0533333209477S11659322EA0085800918000000000000
B0533373209530S11659322EA0085500915000000000000
B0533413209573S11659262EA0085400915000000000000
B0533453209577S11659176EA0086000923000000000000
B0533493209522S11659126EA0086900934000000000000
B0533533209461S11659142EA0087000930000000000000
B0533573209430S11659196EA0087000934000000000000
B0534013209451S11659241EA0087500939000000000000
B0534053209499S11659236EA0087700939000000000000
B0534093209525S11659175EA0088000943000000000000
B0534133209494S11659106EA0088300944000000000000
B0534173209426S11659087EA0088000937000000000000
B0534213209373S11659129EA0087600937000000000000
B0534253209373S11659191EA0087900940000000000000
B0534293209416S11659220EA0088000940000000000000
B0534333209466S11659193EA0088100941000000000000
B0534373209488S11659123EA0088200944000000000000
B0534413209474S11659044EA0088600948000000000000
B0534453209423S11658988EA0088700948000000000000
B0534493209356S11658967EA0088400946000000000000
B0534533209286S11658960EA0088100942000000000000
B0534573209214S11658960EA0088100943000000000000
B0535013209144S11658959EA0088300943000000000000
B0535053209072S11658949EA0088000939000000000000
B0535093209000S11658944EA0087600938000000000000
B0535133208927S11658942EA0087700938000000000000
B0535173208851S11658937EA0087700938000000000000
B0535213208776S11658937EA0087900942000000000000
B0535253208704S11658944EA0088300944000000000000
B0535293208629S11658947EA0088000939000000000000
B0535333208554S11658954EA0087800940000000000000
B0535373208477S11658960EA0088000942000000000000
B0535413208400S11658960EA0088700950000000000000
B0535453208347S11658998EA0089900963000000000000
B0535493208366S11659046EA0090700964000000000000
B0535533208411S11659016EA0091100974000000000000
B0535573208391S11658950EA0092500987000000000000
B0536013208327S11658936EA0092900984000000000000
B0536053208292S11658986EA0093500994000000000000
B0536093208318S11659027EA0094000998000000000000
B0536133208357S11658996EA0094601004000000000000
B0536173208339S11658927EA0095201011000000000000
B0536213208273S11658915EA0095601015000000000000
B0536253208233S11658963EA0096601026000000000000
B0536293208264S11658999EA0096901026000000000000
B0536333208291S11658946EA0097501035000000000000
B0536373208248S11658886EA0098201043000000000000
B0536413208184S11658897EA0098901054000000000000
B0536453208166S11658950EA0099501055000000000000
B0536493208203S11658981EA0099501052000000000000
B0536533208234S11658934EA0099701060000000000000
B0536573208192S11658872EA0100301065000000000000
B0537013208131S11658894EA0100901069000000000000
B0537053208143S11658953EA0101201070000000000000
B0537093208191S11658945EA0101701077000000000000
B0537133208192S11658872EA0102201081000000000000
B0537173208139S11658806EA0102001080000000000000
B0537213208074S11658743EA0101901075000000000000
B0537253208004S11658682EA0100601061000000000000
B0537293207935S11658603EA0098701042000000000000
B0537333207875S11658505EA0098801049000000000000
B0537373207822S11658409EA0100001068000000000000
B0537413207770S11658318EA0100701068000000000000
B0537453207720S11658223EA0100201063000000000000
B0537493207674S11658130EA0100401065000000000000
B0537533207628S11658037EA0099601051000000000000
B0537573207584S11657940EA0098801047000000000000
B0538013207542S11657845EA0099301055000000000000
B0538053207498S11657757EA0099801059000000000000
B0538093207458S11657666EA0099801055000000000000
B0538133207419S11657571EA0099501053000000000000
B0538173207375S11657481EA0099501054000000000000
B0538213207326S11657395EA0099801059000000000000
B0538253207272S11657324EA0100601066000000000000
B0538293207211S11657261EA0100501060000000000000
B0538333207157S11657182EA0100101058000000000000
B0538373207102S11657108EA0100001058000000000000
B0538413207047S11657034EA0100001057000000000000
B0538453206991S11656961EA0100101059000000000000
B0538493206920S11656925EA0100701067000000000000
B0538533206853S11656957EA0100901062000000000000
B0538573206843S11657035EA0100001049000000000000
B0539013206883S11657098EA0098801046000000000000
B0539053206934S11657153EA0098301039000000000000
B0539093206985S11657209EA0098101040000000000000
B0539133207033S11657268EA0098201041000000000000
B0539173207079S11657328EA0098101039000000000000
B0539213207126S11657386EA0098401047000000000000
B0539253207170S11657443EA0099101050000000000000
B0539293207215S11657499EA0098901045000000000000
B0539333207260S11657558EA0098101038000000000000
B0539373207304S11657620EA0097801035000000000000
B0539413207349S11657686EA0097401030000000000000
B0539453207394S11657750EA0097001026000000000000
B0539493207441S11657815EA0095701011000000000000
B0539533207463S11657904EA0093000975000000000000
B0539573207455S11658018EA0089900937000000000000
B0540013207425S11658141EA0086800913000000000000
B0540053207411S11658260EA0087600947000000000000
B0540093207464S11658308EA0091400983000000000000
B0540133207506S11658245EA0093600999000000000000
B0540173207479S11658158EA0094301003000000000000
B0540213207412S11658108EA0094901015000000000000
B0540253207347S11658122EA0096101022000000000000
B0540293207321S11658179EA0096301021000000000000
B0540333207342S11658232EA0096101021000000000000
B0540373207385S11658268EA0095901016000000000000
B0540413207434S11658295EA0095501012000000000000
B0540453207492S11658316EA0094701004000000000000
B0540493207553S11658334EA0094701007000000000000
B0540533207614S11658351EA0094901009000000000000
B0540573207676S11658365EA0094901006000000000000
B0541013207741S11658379EA0094401003000000000000
B0541053207806S11658395EA0094000996000000000000
B0541093207870S11658421EA0093600994000000000000
B0541133207934S11658450EA0093500993000000000000
B0541173207996S11658482EA0092900986000000000000
B0541213208060S11658516EA0092200981000000000000
B0541253208123S11658552EA0092000978000000000000
B0541293208186S11658591EA0091800976000000000000
B0541333208251S11658626EA0091700973000000000000
B0541373208317S11658659EA0091200967000000000000
B0541413208386S11658689EA0090500961000000000000
B0541453208451S11658723EA0089800954000000000000
B0541493208519S11658750EA0089200952000000000000
B0541533208586S11658778EA0089100950000000000000
B0541573208654S11658803EA0088800947000000000000
B0542013208721S11658827EA0088000939000000000000
B0542053208790S11658854EA0087600935000000000000
B0542093208858S11658884EA0087500935000000000000
B0542133208925S11658919EA0087500933000000000000
B0542173208988S11658949EA0088200951000000000000
B0542213209041S11658972EA0089600960000000000000
B0542253209092S11658992EA0090100962000000000000
B0542293209144S11659014EA0089900960000000000000
B0542333209195S11659032EA0089900961000000000000
B0542373209248S11659050EA0090000961000000000000
B0542413209299S11659072EA0090000960000000000000
B0542453209352S11659098EA0089600953000000000000
B0542493209408S11659128EA0088800946000000000000
B0542533209460S11659161EA0088600947000000000000
B0542573209510S11659191EA0088600947000000000000
B0543013209559S11659223EA0088400943000000000000
B0543053209609S11659253EA0087700935000000000000
B0543093209669S11659262EA0086700923000000000000
B0543133209734S11659249EA0085900913000000000000
B0543173209799S11659224EA0085300910000000000000
B0543213209861S11659198EA0085000907000000000000
B0543253209923S11659167EA0084400902000000000000
B0543293209982S11659132EA0083900897000000000000
B0543333210040S11659096EA0083500895000000000000
B0543373210097S11659059EA0083200892000000000000
B0543413210153S11659022EA0082800887000000000000
B0543453210209S11658984EA0082200880000000000000
B0543493210266S11658945EA0081500872000000000000
B0543533210327S11658915EA0080500862000000000000
B0543573210392S11658895EA0079400851000000000000
B0544013210458S11658888EA0078400841000000000000
B0544053210526S11658889EA0077600834000000000000
B0544093210593S11658893EA0077000830000000000000
B0544133210661S11658899EA0076600825000000000000
B0544173210726S11658911EA0076000821000000000000
B0544213210791S11658927EA0075600814000000000000
B0544253210855S11658949EA0074900809000000000000
B0544293210916S11658973EA0074400800000000000000
B0544333210978S11659002EA0073400793000000000000
B0544373211042S11659031EA0073000789000000000000
B0544413211106S11659059EA0072500785000000000000
B0544453211168S11659087EA0072000781000000000000
B0544493211233S11659115EA0071700777000000000000
B0544533211295S11659148EA0071900782000000000000
B0544573211354S11659183EA0072200783000000000000
B0545013211411S11659217EA0072400786000000000000
B0545053211466S11659245EA0073000795000000000000
B0545093211515S11659270EA0073900804000000000000
B0545133211562S11659293EA0074900812000000000000
B0545173211607S11659319EA0075500820000000000000
B0545213211646S11659289EA0076300823000000000000
B0545253211613S11659227EA0076000820000000000000
B0545293211542S11659232EA0075900820000000000000
B0545333211499S11659295EA0075800818000000000000
B0545373211509S11659370EA0075800821000000000000
B0545413211553S11659409EA0076300826000000000000
B0545453211593S11659370EA0076900828000000000000
B0545493211587S11659297EA0076600827000000000000
B0545533211542S11659227EA0076500826000000000000
B0545573211473S11659197EA0076800831000000000000
B0546013211415S11659243EA0077200833000000000000
B0546053211424S11659314EA0077400836000000000000
B0546093211473S11659334EA0078300848000000000000
B0546133211507S11659284EA0079200855000000000000
B0546173211480S11659218EA0079700860000000000000
B0546213211416S11659210EA0080200864000000000000
B0546253211382S11659271EA0080200862000000000000
B0546293211411S11659323EA0080600872000000000000
B0546333211455S11659301EA0081800882000000000000
B0546373211455S11659236EA0082200883000000000000
B0546413211402S11659192EA0082600887000000000000
B0546453211341S11659219EA0082500884000000000000
B0546493211334S11659288EA0082500885000000000000
B0546533211382S11659310EA0083300894000000000000
B0546573211411S11659253EA0083700894000000000000
B0547013211372S11659184EA0083800895000000000000
B0547053211299S11659176EA0083900899000000000000
B0547093211252S11659235EA0084200900000000000000
B0547133211263S11659305EA0084500902000000000000
B0547173211307S11659347EA0084500906000000000000
B0547213211360S11659326EA0085200911000000000000
B0547253211376S11659253EA0085800918000000000000
B0547293211336S11659188EA0086600925000000000000
B0547333211267S11659183EA0087300933000000000000
B0547373211223S11659236EA0087400931000000000000
B0547413211224S11659308EA0087600936000000000000
B0547453211271S11659313EA0088300942000000000000
B0547493211272S11659244EA0088200940000000015000
B0547533211208S11659204EA0087900937000000015000
B0547573211148S11659244EA0088400945000000000000
B0548013211156S11659308EA0088800948000000000000
B0548053211206S11659310EA0089400954000000000000
B0548093211220S11659245EA0089800958000000015000
B0548133211169S11659194EA0090000959000000015000
B0548173211107S11659209EA0090600970000000000000
B0548213211091S11659267EA0091000965000000000000
B0548253211130S11659297EA0090900972000000000000
B0548293211165S11659258EA0091700976000000000000
B0548333211150S11659188EA0092000979000000000000
B0548373211090S11659155EA0092400985000000000000
B0548413211031S11659184EA0092700987000000000000
B0548453211021S11659245EA0093000991000000000000
B0548493211057S11659271EA0093400995000000000000
B0548533211095S11659228EA0093600995000000000000
B0548573211078S11659158EA0094001003000000000000
B0549013211016S11659145EA0094501002000000000000
B0549053210976S11659201EA0094000994000000000000
B0549093210991S11659267EA0093700995000000000000
B0549133211042S11659279EA0094601011000000000000
B0549173211077S11659227EA0096001020000000000000
B0549213211050S11659157EA0096301020000000000000
B0549253210983S11659135EA0096801026000000000000
B0549293210927S11659168EA0097301029000000000000
B0549333210911S11659231EA0097401029000000000000
B0549373210947S11659270EA0097501035000000000000
B0549413210991S11659240EA0098501051000000000000
B0549453210983S11659170EA0099701056000000000000
B0549493210924S11659137EA0099901057000000000000
B0549533210877S11659181EA0099701053000000000000
B0549573210882S11659249EA0099501055000000000000
B0550013210926S11659288EA0100201064000000000000
B0550053210960S11659243EA0101601078000000015000
B0550093210920S11659178EA0102301083000000015000
B0550133210853S11659181EA0102901086000000000000
B0550173210829S11659245EA0103101090000000000000
B0550213210865S11659289EA0103701097000000000000
B0550253210909S11659263EA0104601110000000000000
B0550293210903S11659194EA0105501111000000015000
B0550333210840S11659153EA0105501114000000015000
B0550373210786S11659187EA0106201125000000000000
B0550413210795S11659245EA0106901129000000000000
B0550453210842S11659235EA0107401133000000000000
B0550493210852S11659165EA0107801139000000015000
B0550533210803S11659107EA0108401141000000015000
B0550573210738S11659118EA0108801150000000000000
B0551013210717S11659175EA0109701157000000000000
B0551053210748S11659209EA0110701165000000000000
B0551093210782S11659168EA0110901165000000000000
B0551133210760S11659094EA0110801166000000015000
B0551173210696S11659068EA0111501176000000000000
B0551213210643S11659106EA0112101178000000000000
B0551253210641S11659168EA0112301183000000000000
B0551293210682S11659194EA0113001191000000000000
B0551333210723S11659162EA0113501194000000000000
B0551373210730S11659090EA0113801197000000000000
B0551413210687S11659028EA0114201204000000000000
B0551453210622S11659023EA0115101211000000000000
B0551493210582S11659070EA0115101209000000000000
B0551533210593S11659127EA0115101212000000000000
B0551573210639S11659132EA0115801221000000000000
B0552013210661S11659075EA0116401222000000000000
B0552053210621S11659010EA0116101220000000000000
B0552093210552S11659006EA0116601228000000000000
B0552133210510S11659058EA0116801226000000000000
B0552173210519S11659122EA0116601224000000000000
B0552213210554S11659178EA0116201219000000000000
B0552253210596S11659232EA0116001218000000000000
B0552293210640S11659282EA0116401226000000000000
B0552333210686S11659323EA0117001229000000000000
B0552373210731S11659358EA0117101228000000000000
B0552413210775S11659395EA0116201216000000000000
B0552453210820S11659438EA0115401210000000000000
B0552493210857S11659483EA0115201211000000000000
B0552533210888S11659531EA0115101209000000000000
B0552573210917S11659579EA0114701204000000000000
B0553013210948S11659625EA0114201200000000000000
B0553053210981S11659668EA0113801196000000000000
B0553093211015S11659709EA0113401191000000000000
B0553133211050S11659752EA0112801185000000000000
B0553173211087S11659798EA0112001176000000000000
B0553213211124S11659847EA0111801175000000000000
B0553253211156S11659899EA0111901176000000000000
B0553293211189S11659948EA0111601173000000000000
B0553333211228S11659993EA0111101168000000000000
B0553373211269S11700032EA0111001168000000000000
B0553413211307S11700067EA0111201171000000000000
B0553453211346S11700099EA0111001167000000000000
B0553493211386S11700133EA0110901169000000000000
B0553533211427S11700169EA0111501173000000000000
B0553573211468S11700202EA0111401171000000000000
B0554013211520S11700205EA0111501171000000000000
B0554053211554S11700150EA0111601175000000000000
B0554093211541S11700075EA0111601172000000000000
B0554133211481S11700026EA0111101163000000000000
B0554173211412S11700041EA0110601164000000000000
B0554213211385S11700095EA0111201175000000000000
B0554253211402S11700140EA0112001179000000000000
B0554293211440S11700168EA0111601170000000000000
B0554333211486S11700190EA0110801161000000000000
B0554373211537S11700208EA0110101155000000000000
B0554413211589S11700223EA0109501150000000000000
B0554453211642S11700231EA0109301154000000000000
B0554493211693S11700238EA0109901156000000000000
B0554533211745S11700245EA0109901159000000000000
B0554573211798S11700247EA0110601167000000000000
B0555013211852S11700244EA0111301173000000000000
B0555053211902S11700229EA0111301171000000000000
B0555093211956S11700202EA0111001168000000000000
B0555133212012S11700172EA0111001171000000000000
B0555173212061S11700134EA0111801182000000000000
B0555213212073S11700064EA0113001193000000000000
B0555253212027S11700015EA0113501192000000000000
B0555293211971S11700038EA0113001189000000000000
B0555333211962S11700095EA0113101192000000000000
B0555373212000S11700120EA0113601197000000000000
B0555413212039S11700073EA0114401204000000000000
B0555453212010S11700004EA0114901208000000000000
B0555493211948S11700006EA0114901207000000000000
B0555533211926S11700062EA0115001207000000000000
B0555573211958S11700101EA0115101213000000000000
B0556013212013S11700099EA0116001219000000000000
B0556053212042S11700043EA0116701223000000015000
B0556093211997S11659978EA0116201218000000015000
B0556133211925S11659956EA0116001217000000015000
B0556173211854S11659965EA0116401225000000000000
B0556213211823S11700021EA0116901225000000000000
B0556253211854S11700072EA0116501221000000000000
B0556293211908S11700056EA0117501239000000000000
B0556333211901S11659986EA0119301254000000015000
B0556373211840S11659958EA0120001258000000015000
B0556413211798S11700000EA0120401260000000000000
B0556453211819S11700051EA0120701265000000000000
B0556493211867S11700034EA0121601274000000000000
B0556533211870S11659964EA0122601282000000015000
B0556573211810S11659925EA0122801283000000015000
B0557013211761S11659964EA0123001290000000015000
B0557053211769S11700021EA0123801299000000000000
B0557093211813S11700030EA0124801311000000000000
B0557133211834S11659973EA0125801316000000015000
B0557173211788S11659912EA0125901315000000015000
B0557213211720S11659921EA0126201324000000000000
B0557253211707S11659978EA0127401337000000000000
B0557293211749S11659993EA0128201340000000000000
B0557333211800S11659967EA0127801333000000000000
B0557373211857S11659934EA0126901323000000000000
B0557413211918S11659899EA0126301320000000000000
B0557453211974S11659860EA0127901343000000000000
B0557493212022S11659822EA0128701347000000000000
B0557533212070S11659785EA0129301353000000000000
B0557573212118S11659752EA0129801356000000000000
B0558013212166S11659718EA0130301364000000000000
B0558053212216S11659685EA0130801367000000000000
B0558093212265S11659649EA0131601378000000000000
B0558133212312S11659616EA0132301382000000000000
B0558173212360S11659586EA0132301381000000000000
B0558213212409S11659555EA0131901376000000000000
B0558253212461S11659521EA0131801374000000000000
B0558293212519S11659482EA0131301369000000000000
B0558333212578S11659440EA0132101385000000000000
B0558373212634S11659401EA0133501398000000000000
B0558413212689S11659362EA0134801408000000000000
B0558453212742S11659323EA0135501414000000000000
B0558493212797S11659282EA0136201422000000000000
B0558533212854S11659239EA0137001429000000000000
B0558573212914S11659193EA0138001436000000000000
B0559013212974S11659146EA0138101436000000000000
B0559053213035S11659096EA0137701428000000000000
B0559093213098S11659045EA0137001422000000000000
B0559133213163S11658993EA0136701422000000000000
B0559173213227S11658938EA0137001423000000000000
B0559213213286S11658877EA0137001428000000000000
B0559253213338S11658812EA0137501430000000000000
B0559293213388S11658746EA0137101425000000000000
B0559333213448S11658682EA0136401413000000000000
B0559373213514S11658619EA0135401402000000000000
B0559413213582S11658551EA0134801403000000000000
B0559453213642S11658483EA0135501410000000000000
B0559493213698S11658418EA0135601407000000000000
B0559533213751S11658353EA0135301407000000000000
B0559573213803S11658287EA0134701398000000000000
B0600013213855S11658219EA0133901391000000000000
B0600053213906S11658153EA0133501391000000000000
B0600093213958S11658089EA0133001383000000000000
B0600133214018S11658037EA0132401379000000000000
B0600173214081S11658002EA0132701383000000000000
B0600213214145S11657980EA0132901383000000000000
B0600253214209S11657967EA0132601381000000000000
B0600293214271S11657954EA0132301375000000000000
B0600333214336S11657933EA0131501368000000000000
B0600373214393S11657891EA0131401366000000000000
B0600413214434S11657822EA0131201366000000000000
B0600453214443S11657736EA0130901361000000000000
B0600493214415S11657647EA0130101353000000000000
B0600533214352S11657582EA0129201344000000000000
B0600573214271S11657553EA0128301337000000000000
B0601013214188S11657546EA0127701333000000000000
B0601053214107S11657550EA0127301329000000000000
B0601093214027S11657556EA0126701323000000000000
B0601133213945S11657569EA0126301319000000000000
B0601173213865S11657592EA0126101318000000000000
B0601213213789S11657619EA0125901317000000000000
B0601253213715S11657649EA0125801315000000000000
B0601293213642S11657684EA0125101308000000000000
B0601333213569S11657722EA0124601306000000000000
B0601373213499S11657761EA0124601306000000000000
B0601413213429S11657797EA0124501306000000000000
B0601453213358S11657829EA0124401304000000000000
B0601493213290S11657867EA0123901296000000000000
B0601533213223S11657917EA0123401292000000000000
B0601573213156S11657966EA0123401295000000000000
B0602013213084S11658010EA0123501297000000000000
B0602053213010S11658050EA0124001302000000000000
B0602093212939S11658089EA0124801310000000000000
B0602133212875S11658134EA0125601316000000000000
B0602173212844S11658206EA0125001304000000000000
B0602213212874S11658271EA0124301305000000000000
B0602253212933S11658287EA0125001317000000000000
B0602293212987S11658248EA0126301325000000000000
B0602333213014S11658170EA0126601322000000000000
B0602373213004S11658078EA0126201319000000000000
B0602413212953S11657998EA0126001319000000000000
B0602453212877S11657948EA0126101319000000000000
B0602493212794S11657927EA0126301322000000000000
B0602533212711S11657932EA0126501325000000000000
B0602573212630S11657952EA0126501322000000000000
B0603013212549S11657975EA0126301322000000000000
B0603053212468S11658005EA0126201319000000000000
B0603093212389S11658040EA0125801318000000000000
B0603133212308S11658070EA0126001320000000000000
B0603173212229S11658097EA0125701315000000000000
B0603213212151S11658131EA0125501317000000000000
B0603253212075S11658166EA0125601318000000000000
B0603293212000S11658201EA0125501314000000000000
B0603333211919S11658234EA0125501316000000000000
B0603373211840S11658265EA0125701317000000000000
B0603413211763S11658299EA0125601315000000000000
B0603453211688S11658335EA0125301314000000000000
B0603493211614S11658378EA0125001309000000000000
B0603533211538S11658416EA0125101315000000000000
B0603573211463S11658450EA0125601317000000000000
B0604013211386S11658478EA0125801319000000000000
B0604053211314S11658511EA0125701317000000000000
B0604093211241S11658542EA0125201311000000000000
B0604133211165S11658570EA0124801305000000000000
B0604173211087S11658600EA0124001297000000000000
B0604213211009S11658628EA0123501294000000000000
B0604253210930S11658656EA0123201290000000000000
B0604293210852S11658689EA0123101291000000000000
B0604333210775S11658719EA0123401295000000000000
B0604373210695S11658746EA0123301293000000000000
B0604413210614S11658773EA0123301293000000000000
B0604453210535S11658806EA0123501297000000000000
B0604493210459S11658841EA0124201306000000000000
B0604533210389S11658876EA0124701311000000000000
B0604573210322S11658911EA0125301317000000000000
B0605013210254S11658947EA0125301315000000000000
B0605053210185S11658984EA0125201316000000000000
B0605093210115S11659022EA0125401317000000000000
B0605133210042S11659058EA0125601320000000000000
B0605173209972S11659100EA0126201325000000000000
B0605213209941S11659165EA0126501324000000000000
B0605253209968S11659220EA0125801316000000000000
B0605293210024S11659220EA0125701319000000000000
B0605333210064S11659165EA0126301324000000000000
B0605373210072S11659083EA0126801331000000000000
B0605413210040S11659002EA0127601341000000000000
B0605453209985S11658940EA0128201345000000000000
B0605493209920S11658901EA0129101354000000000000
B0605533209858S11658916EA0129601354000000000000
B0605573209838S11658972EA0129401350000000000000
B0606013209872S11659015EA0128601338000000000000
B0606053209929S11659002EA0127801335000000000000
B0606093209972S11658940EA0128101341000000000000
B0606133209981S11658850EA0128801348000000000000
B0606173209946S11658760EA0129301350000000015000
B0606213209878S11658698EA0129401351000000015000
B0606253209798S11658678EA0129101349000000015000
B0606293209716S11658674EA0128701343000000000000
B0606333209634S11658676EA0128501340000000000000
B0606373209552S11658676EA0127701333000000000000
B0606413209468S11658661EA0127301330000000000000
B0606453209386S11658628EA0127601335000000000000
B0606493209310S11658576EA0128001335000000000000
B0606533209241S11658511EA0128001338000000000000
B0606573209172S11658450EA0128301340000000000000
B0607013209105S11658390EA0128201336000000000000
B0607053209036S11658331EA0127501327000000000000
B0607093208967S11658269EA0126601320000000000000
B0607133208899S11658205EA0126001314000000000000
B0607173208829S11658141EA0125301306000000000000
B0607213208762S11658073EA0124301296000000000000
B0607253208691S11658009EA0123401287000000000000
B0607293208616S11657963EA0122901282000000000000
B0607333208532S11657952EA0122101273000000000000
B0607373208448S11657944EA0121301267000000000000
B0607413208366S11657913EA0120701261000000000000
B0607453208288S11657862EA0119901252000000000000
B0607493208214S11657801EA0119101245000000000000
B0607533208143S11657736EA0118601242000000000000
B0607573208070S11657673EA0118201238000000000000
B0608013207999S11657607EA0117401226000000000000
B0608053207921S11657549EA0116701223000000000000
B0608093207839S11657502EA0116401220000000000000
B0608133207757S11657463EA0116301220000000000000
B0608173207675S11657433EA0116201219000000000000
B0608213207594S11657407EA0115701212000000000000
B0608253207511S11657384EA0114701201000000000000
B0608293207428S11657361EA0113501191000000000000
B0608333207346S11657335EA0113101187000000000000
B0608373207265S11657307EA0112801183000000000000
B0608413207185S11657281EA0112101174000000000000
B0608453207105S11657257EA0111501169000000000000
B0608493207025S11657239EA0110201155000000000000
B0608533206942S11657224EA0109201145000000000000
B0608573206860S11657205EA0108801145000000000000
B0609013206783S11657187EA0108601143000000000000
B0609053206706S11657163EA0107901133000000000000
B0609093206634S11657120EA0107101128000000000000
B0609133206570S11657059EA0107001128000000000000
B0609173206520S11656983EA0106801125000000000000
B0609213206485S11656899EA0106601122000000000000
B0609253206467S11656812EA0106501122000000000000
B0609293206462S11656726EA0106401123000000000000
B0609333206468S11656645EA0106301121000000000000
B0609373206484S11656571EA0106001117000000000000
B0609413206507S11656503EA0105601114000000000000
B0609453206536S11656438EA0105101107000000000000
B0609493206571S11656379EA0104301100000000000000
B0609533206608S11656320EA0103701094000000000000
B0609573206647S11656263EA0103001088000000000000
B0610013206691S11656215EA0102401083000000000000
B0610053206739S11656178EA0102101082000000000000
B0610093206788S11656149EA0102001081000000000000
B0610133206838S11656128EA0101701073000000000000
B0610173206890S11656125EA0100801065000000000000
B0610213206940S11656147EA0100101056000000000000
B0610253206982S11656191EA0099001046000000000000
B0610293207012S11656251EA0098301039000000000000
B0610333207035S11656318EA0097801035000000000000
B0610373207061S11656381EA0097601032000000000000
B0610413207094S11656437EA0096901028000000000000
B0610453207130S11656489EA0096801024000000000000
B0610493207167S11656539EA0096301021000000000000
B0610533207203S11656587EA0096101017000000000000
B0610573207241S11656635EA0095301009000000000000
B0611013207274S11656688EA0094701004000000000000
B0611053207304S11656744EA0094301000000000000000
B0611093207334S11656800EA0093400990000000000000
B0611133207368S11656856EA0092100976000000000000
B0611173207406S11656908EA0090900960000000000000
B0611213207445S11656964EA0089700951000000000000
B0611253207482S11657022EA0088700942000000000000
B0611293207520S11657082EA0088300941000000000000
B0611333207555S11657143EA0088000938000000000000
B0611373207584S11657208EA0087500932000000000000
B0611413207607S11657277EA0087000926000000000000
B0611453207628S11657346EA0086400921000000000000
B0611493207651S11657412EA0086100917000000000000
B0611533207677S11657477EA0085800917000000000000
B0611573207705S11657538EA0085500912000000000000
B0612013207732S11657602EA0084900904000000000000
B0612053207762S11657667EA0084200898000000000000
B0612093207794S11657732EA0083700896000000000000
B0612133207831S11657794EA0083300892000000000000
B0612173207867S11657861EA0083200892000000000000
B0612213207904S11657926EA0083400896000000000000
B0612253207935S11657989EA0083900901000000000000
B0612293207960S11658056EA0084700906000000000000
B0612333207982S11658121EA0084700906000000000000
B0612373208013S11658178EA0085200914000000000000
B0612413208062S11658199EA0086000924000000000000
