ACAM4N6
HFDTE071023
HFFXA050
HFPLTPILOT:JOHN WELSH              
HFGTYGLIDERTYPE:HORNET      
HFGIDGLIDERID:VH-GMY      
HFDTM100GPSDATUM:
HFRFWFIRMWAREVERSION:F2.6
HFRHWHARDWAREVERSION:300 Series Version 2
HFFTYFRTYPE:CAMBRIDGE AERO INSTRUMENTS, 302+
HFGPS:GARMIN,LVS-25,12,18000
HFPRSPRESSALTSENSOR:INTERSEMA, MS5534-AP, 20000
I033638FXA3941ENL4247REX
LCAMSBVER:5FWVER:F26300
C071023043045071023000102
C0000000N00000000WTAKEOFF     
C3207549S11656849EBEVERLEY AF 
C3131816S11804949EHines Hill  
C3220283S11752282ECorrigin    
C3207549S11656849EBEVERLEY AF 
C0000000N00000000WLANDING     
B0435043207727S11657096EA0017500206000000000000
B0435063207727S11657096EA0017500206000000000000
B0435083207727S11657096EA0017500206000000000000
B0435103207727S11657096EA0017600206000000000000
B0435123207727S11657096EA0017500206000000000000
B0435143207727S11657096EA0017500206000000000000
B0435163207727S11657096EA0017400206000000000000
B0435183207727S11657096EA0017500206000000000000
B0435203207727S11657096EA0017500206000000000000
B0435223207727S11657096EA0017500206000000000000
B0435243207727S11657096EA0017500206000000000000
B0435263207727S11657096EA0017400206000000000000
B0435283207727S11657096EA0017400205000000000000
B0435303207727S11657096EA0017400205000000000000
B0435323207726S11657095EA0017500205000000000000
B0435373207707S11657087EA0017500205000000000000
B0435413207676S11657070EA0017500205000000000000
B0435453207635S11657044EA0017600206000000000000
B0435493207581S11657012EA0017700207000000000000
B0435533207521S11656978EA0018600218000000000000
B0435573207463S11656948EA0019600231000000000000
B0436013207407S11656918EA0021300253000000000000
B0436053207352S11656886EA0022400267000000000000
B0436093207297S11656849EA0023600279000000000000
B0436133207239S11656810EA0025600304000000000000
B0436173207183S11656778EA0028000326000000000000
B0436213207131S11656749EA0029800348000000000000
B0436253207089S11656701EA0031200363000000000000
B0436293207074S11656618EA0032700379000000000000
B0436333207107S11656526EA0033800392000000000000
B0436373207178S11656457EA0035100408000000000000
B0436413207269S11656437EA0036500422000000000000
B0436453207350S11656475EA0038200444000000015000
B0436493207403S11656541EA0040400469000000015000
B0436533207432S11656615EA0043000495000000015000
B0436573207445S11656692EA0045600520000000015000
B0437013207445S11656771EA0047700538000000000000
B0437053207460S11656851EA0049400566000000000000
B0437093207523S11656909EA0052300591000000000000
B0437133207611S11656918EA0054400609000000000000
B0437173207692S11656870EA0056400635000000015000
B0437213207732S11656776EA0058200641000000015000
B0437253207713S11656682EA0058800647000000015000
B0437293207659S11656630EA0060000676000000015000
B0437333207603S11656622EA0063400711000000015000
B0437373207547S11656626EA0066000733000000015000
B0437413207502S11656648EA0068400763000000000000
B0437453207473S11656704EA0070500780000000000000
B0437493207484S11656779EA0072200796000000000000
B0437533207553S11656823EA0072900797000000000000
B0437573207636S11656792EA0072500788000000000000
B0438013207681S11656709EA0072000790000000000000
B0438053207689S11656623EA0072700796000000000000
B0438093207655S11656591EA0073900812000000000000
B0438133207649S11656640EA0074800813000000000000
B0438173207706S11656683EA0074900817000000000000
B0438213207783S11656662EA0074900814000000015000
B0438253207819S11656588EA0074900816000000015000
B0438293207798S11656532EA0075000813000000015000
B0438333207759S11656548EA0074300807000000015000
B0438373207758S11656613EA0074000809000000015000
B0438413207810S11656666EA0074600816000000015000
B0438453207885S11656687EA0074900815000000015000
B0438493207966S11656671EA0074900815000000015000
B0438533208014S11656600EA0075200821000000015000
B0438573207997S11656533EA0075800825000000015000
B0439013207973S11656559EA0076400833000000015000
B0439053208015S11656613EA0076800837000000015000
B0439093208096S11656606EA0076700834000000015000
B0439133208147S11656535EA0076700836000000015000
B0439173208121S11656488EA0077400843000000015000
B0439213208092S11656519EA0077700845000000015000
B0439253208109S11656579EA0078200853000000015000
B0439293208168S11656614EA0078800860000000015000
B0439333208240S11656592EA0079300865000000015000
B0439373208274S11656519EA0080000871000000015000
B0439413208249S11656471EA0080200870000000015000
B0439453208223S11656502EA0080400877000000015000
B0439493208257S11656553EA0081300885000000015000
B0439533208330S11656550EA0081700889000000015000
B0439573208373S11656477EA0081500882000000015000
B0440013208351S11656410EA0081300887000000015000
B0440053208312S11656407EA0082400897000000015000
B0440093208295S11656446EA0082900900000000015000
B0440133208318S11656498EA0083100906000000000000
B0440173208385S11656516EA0084000916000000000000
B0440213208452S11656475EA0084600917000000015000
B0440253208464S11656390EA0084200914000000015000
B0440293208428S11656381EA0084800923000000015000
B0440333208446S11656435EA0085300929000000015000
B0440373208522S11656437EA0086000936000000015000
B0440413208572S11656360EA0086700944000000015000
B0440453208552S11656305EA0087500951000000015000
B0440493208532S11656332EA0088200958000000015000
B0440533208573S11656376EA0088700962000000015000
B0440573208651S11656359EA0089300971000000015000
B0441013208702S11656288EA0090000978000000015000
B0441053208685S11656236EA0090800987000000015000
B0441093208664S11656263EA0091800998000000015000
B0441133208704S11656307EA0092801007000000015000
B0441173208782S11656298EA0092300993000000015000
B0441213208820S11656227EA0092901016000000015000
B0441253208794S11656190EA0094601026000000015000
B0441293208782S11656234EA0094901029000000015000
B0441333208845S11656269EA0096101042000000015000
B0441373208912S11656224EA0096601047000000015000
B0441413208911S11656152EA0097201057000000015000
B0441453208870S11656136EA0098501072000000015000
B0441493208850S11656177EA0100001085000000015000
B0441533208893S11656224EA0101201101000000015000
B0441573208970S11656204EA0102601109000000015000
B0442013208997S11656129EA0103201119000000015000
B0442053208961S11656084EA0103701119000000015000
B0442093208925S11656117EA0104301134000000015000
B0442133208961S11656172EA0106401158000000015000
B0442173209035S11656151EA0107901165000000015000
B0442213209048S11656080EA0108701176000000015000
B0442253209013S11656063EA0109201177000000015000
B0442293209006S11656110EA0109901187000000015000
B0442333209059S11656151EA0111201204000000015000
B0442373209136S11656130EA0112101209000000015000
B0442413209153S11656061EA0113301226000000015000
B0442453209123S11656037EA0114401236000000015000
B0442493209105S11656069EA0115101242000000015000
B0442533209126S11656123EA0116501261000000015000
B0442573209188S11656138EA0117801271000000015000
B0443013209243S11656085EA0118101275000000015000
B0443053209236S11656024EA0119001286000000015000
B0443093209202S11656022EA0119901300000000015000
B0443133209205S11656072EA0121701318000000015000
B0443173209267S11656089EA0123201329000000015000
B0443213209326S11656042EA0124201344000000015000
B0443253209334S11655978EA0125701354000000015000
B0443293209301S11655952EA0126401365000000015000
B0443333209283S11655983EA0127801382000000015000
B0443373209312S11656028EA0129201393000000015000
B0443413209380S11656033EA0130001394000000015000
B0443453209435S11655977EA0130601409000000015000
B0443493209432S11655913EA0132001421000000015000
B0443533209400S11655912EA0133101431000000015000
B0443573209414S11655964EA0133801439000000015000
B0444013209482S11655982EA0134201440000000015000
B0444053209538S11655928EA0134801454000000015000
B0444093209538S11655860EA0136101466000000015000
B0444133209504S11655844EA0137201474000000015000
B0444173209494S11655886EA0138101487000000015000
B0444213209534S11655930EA0139301493000000015000
B0444253209605S11655925EA0139301497000000015000
B0444293209652S11655866EA0140401512000000015000
B0444333209639S11655809EA0141201514000000015000
B0444373209604S11655816EA0141801526000000015000
B0444413209618S11655866EA0143101538000000000000
B0444453209686S11655883EA0143401540000000000000
B0444493209733S11655816EA0143801548000000015000
B0444533209717S11655752EA0144801558000000015000
B0444573209683S11655760EA0145801566000000015000
B0445013209700S11655817EA0146401574000000000000
B0445053209767S11655846EA0147401584000000000000
B0445093209833S11655801EA0148001596000000000000
B0445133209858S11655730EA0149301604000000015000
B0445173209832S11655683EA0149801610000000015000
B0445213209798S11655700EA0150401613000000015000
B0445253209807S11655761EA0151101628000000000000
B0445293209867S11655792EA0153001646000000000000
B0445333209930S11655752EA0153801643000000000000
B0445373209941S11655674EA0153701651000000000000
B0445413209912S11655636EA0155001665000000000000
B0445453209886S11655662EA0156001669000000000000
B0445493209917S11655722EA0156501681000000000000
B0445533209990S11655720EA0158001694000000000000
B0445573210034S11655651EA0158401699000000000000
B0446013210025S11655584EA0159401711000000000000
B0446053209991S11655569EA0160201721000000000000
B0446093209981S11655610EA0161401736000000000000
B0446133210036S11655644EA0162701744000000000000
B0446173210105S11655601EA0163401755000000000000
B0446213210118S11655523EA0164001758000000015000
B0446253210084S11655491EA0164901771000000015000
B0446293210062S11655519EA0166201784000000000000
B0446333210088S11655570EA0167001786000000000000
B0446373210159S11655591EA0167401796000000000000
B0446413210224S11655543EA0168201800000000000000
B0446453210231S11655465EA0168301801000000000000
B0446493210192S11655432EA0168501805000000015000
B0446533210146S11655443EA0168101794000000015000
B0446573210094S11655471EA0166301775000000000000
B0447013210037S11655513EA0165101762000000000000
B0447053209976S11655561EA0164401762000000000000
B0447093209912S11655610EA0165101771000000000000
B0447133209850S11655657EA0165501772000000000000
B0447173209787S11655707EA0164901762000000000000
B0447213209721S11655759EA0164001753000000000000
B0447253209653S11655813EA0162901742000000000000
B0447293209585S11655869EA0161801728000000000000
B0447333209513S11655922EA0160101711000000000000
B0447373209440S11655972EA0159101704000000000000
B0447413209366S11656019EA0158401693000000000000
B0447453209291S11656065EA0157101682000000000000
B0447493209217S11656108EA0156401676000000000000
B0447533209141S11656146EA0155901670000000000000
B0447573209068S11656185EA0155701669000000000000
B0448013208998S11656221EA0155501669000000000000
B0448053208935S11656258EA0155701674000000000000
B0448093208877S11656295EA0156001675000000000000
B0448133208819S11656328EA0155601669000000000000
B0448173208760S11656363EA0154801657000000000000
B0448213208699S11656397EA0153701642000000000000
B0448253208636S11656431EA0152301628000000000000
B0448293208571S11656466EA0150801616000000000000
B0448333208506S11656497EA0149601602000000000000
B0448373208439S11656528EA0148801598000000000000
B0448413208377S11656559EA0149001602000000000000
B0448453208314S11656592EA0149201605000000000000
B0448493208255S11656622EA0149501606000000000000
B0448533208196S11656652EA0149001597000000000000
B0448573208136S11656684EA0148101590000000000000
B0449013208078S11656719EA0147801587000000000000
B0449053208021S11656756EA0147901591000000000000
B0449093207965S11656788EA0147801588000000000000
B0449133207906S11656821EA0147201578000000000000
B0449173207843S11656851EA0147201586000000000000
B0449213207780S11656878EA0147801589000000000000
B0449253207718S11656908EA0147901589000000000000
B0449293207655S11656935EA0147601586000000000000
B0449333207588S11656952EA0147701588000000000000
B0449373207523S11656981EA0148401602000000000000
B0449413207462S11657016EA0149701613000000000000
B0449453207402S11657059EA0151401636000000000000
B0449493207419S11657126EA0155501679000000000000
B0449533207488S11657094EA0157401688000000000000
B0449573207481S11657012EA0158801711000000000000
B0450013207436S11656994EA0161501744000000000000
B0450053207423S11657039EA0164401768000000000000
B0450093207477S11657073EA0165901778000000000000
B0450133207545S11657039EA0166601786000000000000
B0450173207547S11656964EA0167601798000000015000
B0450213207499S11656965EA0169201821000000015000
B0450253207512S11657026EA0171301836000000000000
B0450293207584S11657033EA0172301846000000000000
B0450333207632S11656968EA0173501863000000015000
B0450373207610S11656906EA0175901892000000015000
B0450413207573S11656919EA0178101910000000015000
B0450453207593S11656978EA0179001916000000000000
B0450493207661S11656992EA0180501931000000000000
B0450533207709S11656927EA0180301921000000015000
B0450573207676S11656858EA0181401949000000015000
B0451013207627S11656858EA0183401971000000015000
B0451053207586S11656893EA0184701968000000015000
B0451093207553S11656951EA0183501949000000000000
B0451133207523S11657025EA0181101924000000000000
B0451173207490S11657113EA0178601897000000000000
B0451213207454S11657207EA0176301877000000000000
B0451253207415S11657303EA0175101870000000000000
B0451293207375S11657393EA0175001873000000000000
B0451333207334S11657478EA0176001883000000000000
B0451373207294S11657562EA0176201882000000000000
B0451413207255S11657645EA0174901864000000000000
B0451453207217S11657729EA0173901855000000000000
B0451493207176S11657810EA0173301849000000000000
B0451533207133S11657885EA0173201851000000000000
B0451573207090S11657954EA0173701855000000000000
B0452013207043S11658022EA0172801839000000000000
B0452053206992S11658093EA0171301826000000000000
B0452093206938S11658167EA0170101816000000000000
B0452133206882S11658242EA0169301807000000000000
B0452173206826S11658314EA0168501798000000000000
B0452213206773S11658386EA0167701792000000000000
B0452253206723S11658455EA0167601793000000000000
B0452293206678S11658521EA0167701794000000000000
B0452333206635S11658583EA0167701791000000000000
B0452373206589S11658643EA0167101782000000000000
B0452413206543S11658700EA0165901769000000000000
B0452453206493S11658758EA0164401753000000000000
B0452493206442S11658817EA0162901739000000000000
B0452533206392S11658879EA0162001732000000000000
B0452573206345S11658938EA0161801734000000000000
B0453013206302S11658994EA0162101734000000000000
B0453053206258S11659046EA0161901732000000000000
B0453093206214S11659098EA0161801733000000000000
B0453133206169S11659150EA0161401724000000000000
B0453173206124S11659207EA0160401714000000000000
B0453213206078S11659267EA0159401706000000000000
B0453253206033S11659331EA0158601695000000000000
B0453293205984S11659397EA0157001679000000000000
B0453333205932S11659465EA0155701662000000000000
B0453373205878S11659535EA0154201647000000000000
B0453413205826S11659603EA0153401642000000000000
B0453453205781S11659668EA0153201641000000000000
B0453493205739S11659730EA0152701635000000000000
B0453533205698S11659792EA0151301616000000000000
B0453573205656S11659859EA0149901605000000000000
B0454013205614S11659924EA0149201598000000000000
B0454053205577S11659990EA0148701590000000000000
B0454093205538S11700060EA0147701579000000000000
B0454133205500S11700134EA0146901570000000000000
B0454173205462S11700208EA0145801561000000000000
B0454213205419S11700275EA0145101555000000000000
B0454253205375S11700338EA0144401544000000000000
B0454293205341S11700416EA0143501533000000000000
B0454333205317S11700506EA0142301521000000000000
B0454373205297S11700601EA0141601517000000000000
B0454413205282S11700696EA0141301514000000000000
B0454453205266S11700788EA0140601506000000000000
B0454493205248S11700879EA0139901499000000000000
B0454533205227S11700970EA0139101488000000000000
B0454573205200S11701060EA0137701472000000000000
B0455013205175S11701150EA0136801468000000000000
B0455053205146S11701235EA0136601466000000000000
B0455093205109S11701311EA0136501463000000000000
B0455133205064S11701378EA0136201460000000000000
B0455173205019S11701443EA0135601450000000000000
B0455213204972S11701510EA0134301438000000000000
B0455253204925S11701577EA0133101424000000000000
B0455293204876S11701644EA0132001412000000000000
B0455333204824S11701705EA0131001406000000000000
B0455373204771S11701763EA0130401395000000000000
B0455413204728S11701836EA0129301388000000000000
B0455453204693S11701917EA0128801383000000000000
B0455493204665S11702004EA0128501383000000000000
B0455533204635S11702088EA0128601387000000000000
B0455573204600S11702166EA0129601397000000000000
B0456013204556S11702231EA0130301407000000000000
B0456053204516S11702291EA0132101426000000000000
B0456093204565S11702344EA0134701453000000000000
B0456133204629S11702290EA0136001460000000000000
B0456173204629S11702209EA0136501469000000000000
B0456213204590S11702160EA0136901473000000000000
B0456253204548S11702171EA0137901484000000000000
B0456293204550S11702227EA0138801494000000000000
B0456333204606S11702268EA0140001508000000000000
B0456373204676S11702240EA0141501521000000000000
B0456413204707S11702169EA0141801522000000000000
B0456453204686S11702110EA0141901525000000015000
B0456493204647S11702100EA0142401531000000015000
B0456533204628S11702136EA0143201539000000000000
B0456573204655S11702192EA0143601541000000000000
B0457013204713S11702236EA0144001549000000000000
B0457053204793S11702235EA0145101561000000000000
B0457093204855S11702178EA0146401573000000000000
B0457133204864S11702103EA0147401583000000015000
B0457173204830S11702067EA0148001587000000015000
B0457213204797S11702087EA0148501591000000000000
B0457253204798S11702140EA0149401603000000000000
B0457293204862S11702169EA0150301612000000000000
B0457333204927S11702119EA0151101621000000000000
B0457373204936S11702041EA0152001629000000015000
B0457413204903S11702001EA0152601637000000015000
B0457453204873S11702017EA0153501647000000015000
B0457493204884S11702069EA0154201650000000000000
B0457533204937S11702121EA0154101653000000000000
B0457573205014S11702127EA0155201665000000015000
B0458013205059S11702056EA0156301676000000015000
B0458053205042S11701996EA0157201685000000015000
B0458093205006S11702002EA0157701686000000015000
B0458133205010S11702058EA0158201696000000015000
B0458173205064S11702101EA0159201710000000000000
B0458213205141S11702090EA0160301718000000015000
B0458253205193S11702026EA0160701720000000015000
B0458293205197S11701949EA0161201725000000015000
B0458333205163S11701913EA0161501729000000015000
B0458373205120S11701910EA0161401725000000000000
B0458413205074S11701924EA0161301724000000000000
B0458453205025S11701950EA0161401729000000000000
B0458493204976S11701983EA0161801732000000000000
B0458533204925S11702022EA0161701729000000000000
B0458573204871S11702067EA0160701704000000000000
B0459013204814S11702129EA0158001677000000000000
B0459053204769S11702209EA0156101663000000000000
B0459093204734S11702298EA0154301643000000000000
B0459133204699S11702385EA0153001634000000000000
B0459173204667S11702470EA0152101624000000000000
B0459213204632S11702558EA0151001614000000000000
B0459253204594S11702643EA0150201606000000000000
B0459293204552S11702725EA0149601601000000000000
B0459333204511S11702806EA0149301598000000000000
B0459373204468S11702884EA0149001595000000000000
B0459413204425S11702962EA0148701592000000000000
B0459453204385S11703040EA0148401588000000000000
B0459493204340S11703115EA0148301592000000000000
B0459533204295S11703185EA0149501606000000000000
B0459573204247S11703245EA0150001603000000000000
B0500013204196S11703302EA0148901593000000000000
B0500053204140S11703348EA0148101583000000000000
B0500093204088S11703412EA0147101571000000000000
B0500133204047S11703491EA0146101563000000000000
B0500173204008S11703573EA0145601560000000000000
B0500213203971S11703652EA0145501559000000000000
B0500253203935S11703731EA0144501542000000000000
B0500293203900S11703813EA0142701527000000000000
B0500333203863S11703893EA0141601515000000000000
B0500373203828S11703971EA0140501503000000000000
B0500413203793S11704050EA0139001485000000000000
B0500453203758S11704132EA0138101476000000000000
B0500493203722S11704214EA0137301470000000000000
B0500533203683S11704290EA0137401478000000000000
B0500573203632S11704340EA0139301502000000000000
B0501013203573S11704354EA0141101519000000000000
B0501053203511S11704340EA0142101524000000000000
B0501093203451S11704322EA0142001524000000000000
B0501133203389S11704301EA0141801520000000000000
B0501173203322S11704281EA0141301516000000000000
B0501213203255S11704274EA0142301529000000000000
B0501253203264S11704329EA0144701554000000000000
B0501293203334S11704302EA0145601563000000000000
B0501333203342S11704218EA0146701583000000000000
B0501373203302S11704173EA0148701599000000000000
B0501413203272S11704203EA0149501604000000000000
B0501453203294S11704258EA0150501620000000000000
B0501493203355S11704263EA0151701628000000000000
B0501533203397S11704197EA0152401635000000015000
B0501573203368S11704134EA0152601635000000015000
B0502013203324S11704149EA0153001643000000015000
B0502053203337S11704205EA0154401663000000015000
B0502093203395S11704222EA0155801674000000015000
B0502133203454S11704180EA0156701683000000015000
B0502173203473S11704103EA0157401689000000015000
B0502213203445S11704045EA0158101698000000015000
B0502253203399S11704030EA0158701703000000015000
B0502293203363S11704063EA0159301711000000015000
B0502333203384S11704114EA0161101729000000015000
B0502373203451S11704106EA0161801736000000015000
B0502413203489S11704033EA0162601747000000015000
B0502453203473S11703967EA0163801760000000015000
B0502493203430S11703947EA0164601764000000015000
B0502533203398S11703976EA0165301775000000015000
B0502573203407S11704024EA0166401784000000000000
B0503013203458S11704058EA0166601782000000000000
B0503053203530S11704056EA0167101790000000000000
B0503093203593S11704011EA0168401807000000015000
B0503133203615S11703934EA0169601820000000015000
B0503173203590S11703874EA0170501828000000015000
B0503213203546S11703867EA0171401838000000015000
B0503253203527S11703907EA0172601849000000015000
B0503293203553S11703956EA0173401855000000000000
B0503333203621S11703967EA0173901862000000000000
B0503373203684S11703917EA0175101875000000015000
B0503413203689S11703841EA0176101886000000015000
B0503453203645S11703815EA0176601891000000015000
B0503493203624S11703859EA0177601901000000015000
B0503533203668S11703906EA0178401913000000015000
B0503573203740S11703903EA0179601925000000015000
B0504013203793S11703843EA0180901939000000015000
B0504053203798S11703768EA0181901945000000015000
B0504093203761S11703728EA0182501955000000015000
B0504133203724S11703747EA0183501964000000015000
B0504173203731S11703800EA0184601975000000015000
B0504213203784S11703835EA0185501982000000015000
B0504253203855S11703821EA0186401995000000015000
B0504293203909S11703764EA0187902009000000015000
B0504333203926S11703690EA0188502014000000015000
B0504373203905S11703627EA0189202025000000015000
B0504413203865S11703604EA0190102031000000015000
B0504453203831S11703626EA0190802040000000015000
B0504493203835S11703677EA0191902052000000000000
B0504533203883S11703716EA0192702058000000000000
B0504573203956S11703712EA0193402067000000015000
B0505013204015S11703659EA0194302076000000015000
B0505053204036S11703579EA0194902082000000015000
B0505093204015S11703516EA0195602089000000015000
B0505133203970S11703500EA0196002094000000015000
B0505173203943S11703539EA0196602101000000015000
B0505213203971S11703594EA0197702114000000015000
B0505253204045S11703596EA0198502122000000015000
B0505293204102S11703535EA0199502132000000015000
B0505333204104S11703458EA0200702143000000015000
B0505373204065S11703422EA0201502150000000015000
B0505413204028S11703443EA0202102155000000015000
B0505453204031S11703499EA0202602167000000015000
B0505493204086S11703531EA0204002177000000015000
B0505533204158S11703501EA0204702183000000015000
B0505573204200S11703427EA0205602193000000015000
B0506013204192S11703353EA0206502203000000015000
B0506053204152S11703322EA0207202212000000015000
B0506093204115S11703343EA0207802216000000015000
B0506133204115S11703397EA0208602227000000000000
B0506173204166S11703434EA0209802237000000000000
B0506213204236S11703409EA0210702247000000015000
B0506253204273S11703338EA0211602258000000015000
B0506293204256S11703274EA0212302263000000015000
B0506333204216S11703256EA0212702267000000015000
B0506373204186S11703286EA0213202272000000015000
B0506413204180S11703338EA0213702278000000000000
B0506453204216S11703388EA0214002280000000000000
B0506493204273S11703429EA0214102283000000000000
B0506533204344S11703438EA0215302296000000000000
B0506573204407S11703384EA0216402304000000000000
B0507013204431S11703300EA0216702307000000000000
B0507053204418S11703224EA0217302315000000000000
B0507093204381S11703179EA0218202322000000000000
B0507133204342S11703192EA0218502326000000000000
B0507173204348S11703244EA0219102331000000000000
B0507213204404S11703279EA0219302331000000000000
B0507253204481S11703258EA0219702342000000015000
B0507293204543S11703204EA0220802352000000015000
B0507333204561S11703123EA0221402356000000015000
B0507373204528S11703072EA0221602355000000015000
B0507413204481S11703089EA0220702342000000015000
B0507453204448S11703144EA0220302338000000000000
B0507493204421S11703210EA0219402325000000000000
B0507533204395S11703286EA0217802306000000000000
B0507573204369S11703370EA0215702285000000000000
B0508013204340S11703462EA0213602266000000000000
B0508053204309S11703560EA0212902262000000000000
B0508093204278S11703656EA0212002248000000000000
B0508133204244S11703756EA0210802237000000000000
B0508173204210S11703856EA0210202236000000000000
B0508213204182S11703952EA0210802247000000000000
B0508253204161S11704045EA0211502248000000000000
B0508293204139S11704136EA0210702235000000000000
B0508333204117S11704229EA0209302218000000000000
B0508373204092S11704327EA0207402200000000000000
B0508413204066S11704424EA0206102189000000000000
B0508453204040S11704522EA0205302181000000000000
B0508493204014S11704619EA0204502174000000000000
B0508533203987S11704716EA0204002168000000000000
B0508573203961S11704810EA0203502166000000000000
B0509013203939S11704903EA0203802170000000000000
B0509053203918S11704992EA0204002171000000000000
B0509093203901S11705080EA0204402179000000000000
B0509133203885S11705160EA0205002181000000000000
B0509173203867S11705239EA0204102168000000000000
B0509213203844S11705325EA0202802155000000000000
B0509253203822S11705412EA0202102151000000000000
B0509293203800S11705499EA0202002147000000000000
B0509333203777S11705585EA0201402140000000000000
B0509373203757S11705671EA0200902141000000000000
B0509413203741S11705754EA0201402146000000000000
B0509453203728S11705834EA0201802149000000000000
B0509493203705S11705904EA0201602145000000000000
B0509533203673S11705967EA0200802137000000000000
B0509573203637S11706026EA0200202130000000000000
B0510013203602S11706086EA0199602125000000000000
B0510053203568S11706148EA0199402119000000000000
B0510093203534S11706211EA0198202104000000000000
B0510133203498S11706274EA0196602089000000000000
B0510173203462S11706339EA0195202073000000000000
B0510213203426S11706408EA0194402071000000000000
B0510253203394S11706477EA0194002065000000000000
B0510293203361S11706546EA0193602063000000000000
B0510333203326S11706614EA0193302057000000000000
B0510373203289S11706680EA0192802052000000000000
B0510413203248S11706746EA0192902059000000000000
B0510453203211S11706807EA0193902070000000000000
B0510493203172S11706867EA0194702079000000000000
B0510533203124S11706911EA0195802089000000000000
B0510573203072S11706941EA0196202091000000000000
B0511013203017S11706963EA0195602081000000000000
B0511053202958S11706987EA0195002078000000000000
B0511093202899S11707013EA0195202082000000000000
B0511133202841S11707040EA0195602087000000000000
B0511173202787S11707070EA0196702101000000000000
B0511213202736S11707101EA0198102116000000000000
B0511253202687S11707135EA0198902118000000000000
B0511293202635S11707175EA0198602116000000000000
B0511333202581S11707218EA0198702119000000000000
B0511373202531S11707262EA0200002136000000000000
B0511413202484S11707305EA0200902142000000000000
B0511453202437S11707352EA0200902141000000000000
B0511493202389S11707400EA0201202145000000000000
B0511533202340S11707451EA0201502147000000000000
B0511573202290S11707503EA0201502150000000000000
B0512013202240S11707556EA0201902154000000000000
B0512053202191S11707608EA0202602160000000000000
B0512093202143S11707663EA0203002165000000000000
B0512133202094S11707717EA0203802177000000000000
B0512173202045S11707771EA0205502193000000000000
B0512213201998S11707825EA0206302201000000000000
B0512253201950S11707881EA0206502200000000000000
B0512293201898S11707938EA0206102195000000000000
B0512333201846S11708001EA0206202200000000000000
B0512373201795S11708066EA0207302214000000000000
B0512413201747S11708129EA0208502228000000000000
B0512453201705S11708196EA0209902238000000000000
B0512493201720S11708281EA0210502244000000000000
B0512533201800S11708302EA0210902247000000000000
B0512573201860S11708240EA0211402254000000000000
B0513013201887S11708159EA0212102264000000000000
B0513053201892S11708081EA0213402278000000000000
B0513093201850S11708050EA0214302285000000000000
B0513133201829S11708105EA0215502298000000000000
B0513173201876S11708162EA0216602306000000000000
B0513213201948S11708159EA0217002315000000000000
B0513253201993S11708102EA0218002326000000000000
B0513293201983S11708038EA0219102338000000000000
B0513333201943S11708023EA0220202346000000000000
B0513373201908S11708055EA0220602349000000000000
B0513413201909S11708120EA0221202358000000000000
B0513453201955S11708174EA0221302352000000000000
B0513493202030S11708172EA0220802353000000000000
B0513533202084S11708119EA0221502360000000000000
B0513573202064S11708060EA0222002364000000000000
B0514013202013S11708059EA0222002366000000000000
B0514053201959S11708077EA0222102367000000000000
B0514093201903S11708105EA0221602355000000000000
B0514133201848S11708146EA0221002353000000000000
B0514173201795S11708193EA0221102357000000000000
B0514213201743S11708242EA0222102370000000000000
B0514253201692S11708294EA0222502370000000000000
B0514293201642S11708354EA0221802360000000000000
B0514333201588S11708418EA0221402357000000000000
B0514373201536S11708488EA0221202356000000000000
B0514413201488S11708561EA0221502362000000000000
B0514453201440S11708635EA0221702362000000000000
B0514493201393S11708709EA0221302347000000000000
B0514533201345S11708790EA0219602333000000000000
B0514573201298S11708869EA0218702327000000000000
B0515013201257S11708954EA0218002315000000000000
B0515053201216S11709045EA0216202297000000000000
B0515093201174S11709139EA0214302278000000000000
B0515133201129S11709234EA0213002266000000000000
B0515173201084S11709331EA0211602250000000000000
B0515213201042S11709428EA0210902243000000000000
B0515253201001S11709522EA0210102236000000000000
B0515293200956S11709610EA0209202225000000000000
B0515333200911S11709698EA0208102214000000000000
B0515373200865S11709788EA0206702199000000000000
B0515413200819S11709877EA0205802192000000000000
B0515453200769S11709960EA0206802211000000000000
B0515493200715S11710029EA0209002232000000000000
B0515533200657S11710081EA0210502245000000000000
B0515573200598S11710126EA0210602239000000000000
B0516013200534S11710168EA0208902219000000000000
B0516053200469S11710218EA0207302205000000000000
B0516093200407S11710278EA0206202191000000000000
B0516133200353S11710352EA0204702176000000000000
B0516173200308S11710439EA0203202162000000000000
B0516213200264S11710529EA0202102153000000000000
B0516253200221S11710619EA0201102143000000000000
B0516293200178S11710711EA0199902131000000000000
B0516333200137S11710803EA0199502128000000000000
B0516373200098S11710896EA0199202123000000000000
B0516413200058S11710987EA0198202111000000000000
B0516453200019S11711078EA0197102102000000000000
B0516493159979S11711165EA0196402095000000000000
B0516533159940S11711252EA0195302083000000000000
B0516573159901S11711340EA0194402075000000000000
B0517013159863S11711427EA0193902071000000000000
B0517053159825S11711513EA0193502063000000000000
B0517093159789S11711596EA0192402055000000000000
B0517133159751S11711677EA0191902050000000000000
B0517173159712S11711754EA0191402045000000000000
B0517213159673S11711827EA0191202043000000000000
B0517253159636S11711898EA0190602034000000000000
B0517293159597S11711968EA0189502022000000000000
B0517333159554S11712035EA0188702014000000000000
B0517373159513S11712102EA0187402001000000000000
B0517413159473S11712170EA0186501989000000000000
B0517453159433S11712236EA0185401974000000000000
B0517493159391S11712304EA0184001965000000000000
B0517533159350S11712371EA0183201956000000000000
B0517573159309S11712440EA0182001940000000000000
B0518013159268S11712510EA0180701932000000000000
B0518053159227S11712581EA0180101924000000000000
B0518093159186S11712651EA0179101911000000000000
B0518133159144S11712722EA0178401911000000000000
B0518173159103S11712790EA0179201923000000000000
B0518213159053S11712837EA0180301939000000000000
B0518253159000S11712863EA0182001953000000000000
B0518293158948S11712887EA0182601956000000000000
B0518333158893S11712908EA0182701953000000000000
B0518373158835S11712928EA0182401950000000000000
B0518413158776S11712954EA0182201953000000000000
B0518453158719S11712978EA0182401947000000000000
B0518493158661S11713008EA0181701944000000000000
B0518533158601S11713041EA0181901949000000000000
B0518573158540S11713072EA0182001943000000000000
B0519013158477S11713106EA0180701930000000000000
B0519053158415S11713143EA0179901921000000000000
B0519093158354S11713186EA0178401898000000000000
B0519133158303S11713253EA0176701882000000000000
B0519173158262S11713331EA0174801864000000000000
B0519213158220S11713411EA0173301850000000000000
B0519253158177S11713491EA0172101838000000000000
B0519293158134S11713570EA0171401836000000000000
B0519333158091S11713648EA0171201832000000000000
B0519373158047S11713725EA0170201818000000000000
B0519413158002S11713805EA0169001806000000000000
B0519453157956S11713890EA0167701792000000000000
B0519493157911S11713977EA0167201792000000000000
B0519533157869S11714061EA0167701799000000000000
B0519573157820S11714133EA0168401810000000000000
B0520013157762S11714182EA0169801824000000000000
B0520053157706S11714232EA0170101817000000000000
B0520093157651S11714285EA0169401814000000000000
B0520133157592S11714333EA0169501818000000000000
B0520173157536S11714376EA0170201825000000000000
B0520213157482S11714420EA0170201822000000000000
B0520253157426S11714463EA0170401828000000000000
B0520293157370S11714506EA0171201838000000000000
B0520333157323S11714562EA0172701858000000000000
B0520373157361S11714631EA0175401880000000000000
B0520413157435S11714623EA0175801875000000000000
B0520453157469S11714549EA0175001873000000000000
B0520493157457S11714475EA0175701886000000000000
B0520533157418S11714443EA0177301902000000000000
B0520573157402S11714498EA0178801917000000000000
B0521013157454S11714549EA0180001927000000000000
B0521053157524S11714532EA0180901938000000000000
B0521093157556S11714467EA0182201953000000000000
B0521133157536S11714417EA0182901955000000000000
B0521173157496S11714421EA0183101959000000000000
B0521213157478S11714476EA0184501977000000000000
B0521253157515S11714533EA0185601985000000000000
B0521293157584S11714542EA0186001988000000000000
B0521333157635S11714493EA0186701996000000000000
B0521373157631S11714432EA0187001999000000000000
B0521413157596S11714391EA0187302002000000000000
B0521453157550S11714363EA0187702007000000000000
B0521493157497S11714362EA0188202013000000000000
B0521533157472S11714421EA0189202024000000000000
B0521573157515S11714486EA0189902026000000000000
B0522013157596S11714486EA0190002029000000000000
B0522053157653S11714429EA0190602039000000000000
B0522093157690S11714356EA0191302045000000000000
B0522133157691S11714280EA0191602052000000000000
B0522173157664S11714217EA0192402059000000000000
B0522213157614S11714200EA0193002061000000000000
B0522253157566S11714234EA0192702056000000000000
B0522293157513S11714272EA0192502056000000000000
B0522333157452S11714298EA0193302067000000000000
B0522373157392S11714324EA0194102074000000000000
B0522413157332S11714347EA0194902082000000000000
B0522453157274S11714372EA0194902077000000000000
B0522493157214S11714408EA0194002070000000000000
B0522533157155S11714454EA0192802051000000000000
B0522573157101S11714515EA0191402032000000000000
B0523013157046S11714584EA0189502015000000000000
B0523053156991S11714658EA0188101998000000000000
B0523093156937S11714733EA0186201981000000000000
B0523133156884S11714814EA0184201961000000000000
B0523173156829S11714895EA0182601946000000000000
B0523213156776S11714974EA0181401934000000000000
B0523253156724S11715049EA0181101935000000000000
B0523293156674S11715119EA0182901963000000000000
B0523333156624S11715171EA0185601989000000000000
B0523373156568S11715186EA0187602016000000000000
B0523413156538S11715134EA0190202040000000000000
B0523453156564S11715065EA0192002053000000000000
B0523493156626S11715025EA0192802059000000000000
B0523533156699S11715034EA0193402071000000000000
B0523573156744S11715086EA0195002086000000000000
B0524013156748S11715145EA0196102094000000000000
B0524053156717S11715187EA0197002106000000000000
B0524093156673S11715183EA0198502125000000000000
B0524133156648S11715134EA0200202142000000000000
B0524173156663S11715066EA0201602153000000000000
B0524213156709S11715005EA0202202162000000000000
B0524253156780S11714982EA0203702178000000000000
B0524293156847S11715001EA0205302196000000000000
B0524333156894S11715051EA0206602204000000000000
B0524373156908S11715118EA0207502213000000000000
B0524413156891S11715174EA0208802226000000000000
B0524453156850S11715194EA0209702237000000000000
B0524493156812S11715158EA0211102249000000000000
B0524533156813S11715087EA0212102258000000000000
B0524573156867S11715028EA0212902274000000000000
B0525013156941S11715030EA0214202286000000000000
B0525053156990S11715083EA0215502301000000000000
B0525093156999S11715147EA0217002319000000015000
B0525133156976S11715192EA0218202327000000000000
B0525173156938S11715197EA0219102338000000000000
B0525213156908S11715156EA0220102346000000000000
B0525253156921S11715086EA0221202358000000000000
B0525293156981S11715039EA0222502372000000000000
B0525333157053S11715047EA0223102379000000000000
B0525373157107S11715091EA0224002393000000000000
B0525413157134S11715151EA0225302399000000000000
B0525453157133S11715212EA0225702401000000000000
B0525493157107S11715257EA0225802404000000000000
B0525533157066S11715275EA0226102407000000000000
B0525573157021S11715251EA0225902403000000000000
B0526013156986S11715195EA0225602401000000000000
B0526053156946S11715135EA0225402398000000000000
B0526093156889S11715109EA0225202391000000000000
B0526133156830S11715152EA0224702396000000000000
B0526173156780S11715205EA0225402408000000000000
B0526213156725S11715256EA0226402408000000000000
B0526253156672S11715316EA0225202390000000000000
B0526293156618S11715385EA0224002379000000000000
B0526333156565S11715455EA0223002369000000000000
B0526373156517S11715529EA0222502367000000000000
B0526413156473S11715602EA0222902373000000000000
B0526453156431S11715673EA0222902370000000000000
B0526493156388S11715745EA0222102361000000000000
B0526533156344S11715819EA0221402352000000000000
B0526573156297S11715892EA0220402342000000000000
B0527013156250S11715959EA0220202347000000000000
B0527053156204S11716026EA0220502347000000000000
B0527093156156S11716092EA0220002339000000000000
B0527133156106S11716156EA0219902346000000000000
B0527173156054S11716208EA0221102358000000000000
B0527213156003S11716252EA0222002365000000000000
B0527253155953S11716292EA0222102365000000000000
B0527293155898S11716332EA0221202352000000000000
B0527333155841S11716383EA0219802331000000000000
B0527373155789S11716448EA0218002316000000000000
B0527413155741S11716520EA0216902307000000000000
B0527453155698S11716594EA0215902295000000000000
B0527493155658S11716670EA0214602281000000000000
B0527533155616S11716747EA0212902261000000000000
B0527573155573S11716828EA0211502252000000000000
B0528013155532S11716907EA0211502251000000000000
B0528053155491S11716985EA0210702238000000000000
B0528093155451S11717064EA0209402225000000000000
B0528133155411S11717142EA0208102214000000000000
B0528173155372S11717216EA0207302207000000000000
B0528213155333S11717287EA0206602202000000000000
B0528253155299S11717357EA0206502202000000000000
B0528293155264S11717423EA0206102195000000000000
B0528333155227S11717484EA0205202185000000000000
B0528373155187S11717547EA0204102170000000000000
B0528413155147S11717613EA0202602156000000000000
B0528453155110S11717680EA0201902152000000000000
B0528493155075S11717743EA0201702148000000000000
B0528533155041S11717804EA0200902139000000000000
B0528573155013S11717869EA0199902130000000000000
B0529013154979S11717934EA0198402111000000000000
B0529053154941S11718000EA0196902099000000000000
B0529093154901S11718060EA0196602097000000000000
B0529133154863S11718115EA0196502098000000000000
B0529173154824S11718164EA0196102089000000000000
B0529213154784S11718210EA0195102081000000000000
B0529253154742S11718254EA0194902082000000000000
B0529293154703S11718299EA0194902080000000000000
B0529333154667S11718346EA0194202073000000000000
B0529373154632S11718394EA0194702082000000000000
B0529413154601S11718446EA0195702092000000000000
B0529453154564S11718485EA0196602102000000000000
B0529493154521S11718505EA0197302107000000000000
B0529533154477S11718520EA0197702110000000000000
B0529573154432S11718532EA0197902119000000000000
B0530013154398S11718498EA0199102131000000000000
B0530053154399S11718428EA0199802135000000000000
B0530093154436S11718351EA0200602143000000000000
B0530133154489S11718280EA0201802159000000000000
B0530173154566S11718250EA0203402176000000000000
B0530213154641S11718271EA0204502181000000000000
B0530253154697S11718328EA0204802186000000000000
B0530293154728S11718393EA0206102205000000000000
B0530333154746S11718457EA0207202209000000000000
B0530373154749S11718520EA0206702198000000000000
B0530413154727S11718576EA0205702191000000000000
B0530453154685S11718610EA0205302188000000000000
B0530493154635S11718624EA0205102182000000000000
B0530533154583S11718644EA0203802167000000000000
B0530573154528S11718683EA0201902145000000000000
B0531013154476S11718736EA0199802126000000000000
B0531053154430S11718795EA0199202125000000000000
B0531093154394S11718858EA0199002120000000000000
B0531133154356S11718923EA0197802106000000000000
B0531173154315S11718990EA0196502089000000000000
B0531213154268S11719055EA0195002080000000000000
B0531253154220S11719113EA0194602077000000000000
B0531293154173S11719165EA0194502077000000000000
B0531333154125S11719214EA0193802065000000000000
B0531373154078S11719268EA0192302047000000000000
B0531413154033S11719330EA0190702030000000000000
B0531453153991S11719398EA0190002027000000000000
B0531493153949S11719464EA0190002029000000000000
B0531533153908S11719528EA0190502034000000000000
B0531573153865S11719585EA0190202029000000000000
B0532013153822S11719645EA0189202014000000000000
B0532053153779S11719708EA0187501995000000000000
B0532093153734S11719773EA0185701978000000000000
B0532133153688S11719840EA0184001960000000000000
B0532173153643S11719907EA0182201942000000000000
B0532213153596S11719975EA0180501926000000000000
B0532253153550S11720040EA0178801908000000000000
B0532293153502S11720106EA0177701891000000000000
B0532333153454S11720174EA0176101878000000000000
B0532373153410S11720244EA0175001869000000000000
B0532413153364S11720319EA0173601850000000000000
B0532453153316S11720399EA0172101838000000000000
B0532493153267S11720479EA0171201832000000000000
B0532533153220S11720553EA0171301832000000000000
B0532573153169S11720618EA0171201831000000000000
B0533013153116S11720681EA0171101829000000000000
B0533053153065S11720748EA0170801824000000000000
B0533093153012S11720817EA0170501827000000000000
B0533133152947S11720855EA0172201857000000000000
B0533173152880S11720854EA0175001881000000000000
B0533213152850S11720785EA0178001914000000000000
B0533253152874S11720707EA0179601917000000000000
B0533293152941S11720665EA0179201909000000000000
B0533333153010S11720670EA0178801905000000000000
B0533373153078S11720694EA0178401903000000000000
B0533413153133S11720743EA0178101902000000000000
B0533453153162S11720812EA0179101920000000000000
B0533493153128S11720854EA0181701947000000000000
B0533533153080S11720828EA0183001955000000015000
B0533573153071S11720746EA0184101973000000000000
B0534013153124S11720683EA0185501982000000000000
B0534053153194S11720686EA0186101988000000000000
B0534093153240S11720735EA0186701994000000000000
B0534133153251S11720802EA0187702008000000015000
B0534173153225S11720855EA0189002021000000015000
B0534213153171S11720854EA0190302036000000015000
B0534253153138S11720789EA0192302059000000015000
B0534293153156S11720704EA0194102074000000015000
B0534333153219S11720654EA0195402089000000015000
B0534373153288S11720660EA0196602105000000000000
B0534413153331S11720711EA0198402122000000015000
B0534453153328S11720772EA0199802134000000015000
B0534493153285S11720808EA0200802144000000015000
B0534533153229S11720807EA0201802159000000015000
B0534573153192S11720745EA0203702177000000015000
B0535013153205S11720656EA0204902187000000015000
B0535053153260S11720587EA0205802195000000015000
B0535093153336S11720561EA0206802208000000015000
B0535133153407S11720581EA0207602221000000015000
B0535173153453S11720634EA0209102233000000015000
B0535213153457S11720698EA0210702255000000015000
B0535253153424S11720741EA0212702274000000015000
B0535293153372S11720733EA0214202285000000015000
B0535333153336S11720669EA0215102294000000015000
B0535373153342S11720578EA0216002304000000015000
B0535413153393S11720498EA0216802308000000015000
B0535453153475S11720461EA0217302315000000015000
B0535493153550S11720479EA0218102324000000015000
B0535533153595S11720535EA0218802334000000015000
B0535573153598S11720598EA0220202351000000015000
B0536013153556S11720626EA0221802368000000015000
B0536053153507S11720592EA0223302384000000015000
B0536093153502S11720514EA0224502394000000015000
B0536133153545S11720444EA0225302398000000015000
B0536173153618S11720413EA0225602401000000015000
B0536213153693S11720414EA0226002404000000015000
B0536253153752S11720453EA0226302408000000000000
B0536293153799S11720505EA0226702415000000000000
B0536333153823S11720572EA0227302420000000000000
B0536373153819S11720643EA0227802422000000000000
B0536413153793S11720712EA0227002409000000000000
B0536453153753S11720784EA0226202407000000000000
B0536493153704S11720855EA0226502414000000000000
B0536533153652S11720924EA0226302406000000000000
B0536573153598S11720992EA0226002407000000000000
B0537013153543S11721054EA0225902407000000000000
B0537053153487S11721118EA0226202409000000000000
B0537093153431S11721187EA0226002402000000000000
B0537133153375S11721257EA0225302398000000000000
B0537173153319S11721328EA0225202395000000000000
B0537213153262S11721400EA0224802392000000000000
B0537253153205S11721469EA0225402409000000000000
B0537293153146S11721527EA0227302430000000000000
B0537333153089S11721574EA0229502452000000000000
B0537373153034S11721616EA0230502457000000000000
B0537413152978S11721657EA0230702457000000000000
B0537453152920S11721699EA0230702457000000000000
B0537493152860S11721742EA0230302451000000000000
B0537533152799S11721787EA0229602444000000000000
B0537573152739S11721833EA0229302436000000000000
B0538013152679S11721877EA0228202424000000000000
B0538053152620S11721925EA0227102413000000000000
B0538093152562S11721978EA0226302409000000000000
B0538133152509S11722039EA0226102405000000000000
B0538173152460S11722106EA0224902388000000000000
B0538213152412S11722177EA0223402374000000000000
B0538253152362S11722250EA0222502367000000000000
B0538293152311S11722323EA0222002357000000000000
B0538333152261S11722397EA0220902347000000000000
B0538373152209S11722472EA0220002339000000000000
B0538413152158S11722549EA0219002328000000000000
B0538453152107S11722627EA0217702313000000000000
B0538493152058S11722706EA0216502300000000000000
B0538533152010S11722787EA0215602294000000000000
B0538573151964S11722867EA0214702282000000000000
B0539013151918S11722949EA0213802274000000000000
B0539053151875S11723031EA0213402268000000000000
B0539093151834S11723117EA0212402256000000000000
B0539133151793S11723202EA0210902241000000000000
B0539173151751S11723287EA0209802232000000000000
B0539213151710S11723373EA0209102224000000000000
B0539253151668S11723460EA0208002211000000000000
B0539293151624S11723547EA0206602198000000000000
B0539333151580S11723634EA0205702188000000000000
B0539373151533S11723722EA0205202183000000000000
B0539413151487S11723806EA0204802181000000000000
B0539453151440S11723883EA0204802183000000000000
B0539493151394S11723954EA0204202168000000000000
B0539533151348S11724034EA0202002145000000000000
B0539573151304S11724117EA0200702137000000000000
B0540013151258S11724200EA0200202130000000000000
B0540053151213S11724284EA0199502122000000000000
B0540093151167S11724369EA0198102107000000000000
B0540133151119S11724456EA0196602091000000000000
B0540173151073S11724543EA0195402081000000000000
B0540213151024S11724629EA0194602071000000000000
B0540253150976S11724713EA0193502060000000000000
B0540293150926S11724795EA0192502051000000000000
B0540333150875S11724872EA0191602040000000000000
B0540373150824S11724950EA0190502026000000000000
B0540413150772S11725028EA0188902010000000000000
B0540453150722S11725106EA0187501997000000000000
B0540493150671S11725183EA0186201985000000000000
B0540533150619S11725258EA0185101971000000000000
B0540573150568S11725331EA0183501954000000000000
B0541013150514S11725402EA0182401943000000000000
B0541053150458S11725473EA0181201928000000000000
B0541093150404S11725545EA0180101918000000000000
B0541133150356S11725622EA0178901906000000000000
B0541173150312S11725699EA0177601892000000000000
B0541213150270S11725778EA0176201876000000000000
B0541253150228S11725856EA0174701860000000000000
B0541293150189S11725934EA0173201845000000000000
B0541333150152S11726012EA0172101835000000000000
B0541373150118S11726089EA0171001821000000000000
B0541413150082S11726167EA0169201801000000000000
B0541453150048S11726247EA0167401782000000000000
B0541493150010S11726327EA0165601764000000000000
B0541533149973S11726406EA0164001748000000000000
B0541573149935S11726485EA0162601736000000000000
B0542013149896S11726563EA0161301722000000000000
B0542053149854S11726641EA0159501701000000000000
B0542093149809S11726718EA0158001686000000000000
B0542133149762S11726793EA0156701671000000000000
B0542173149717S11726870EA0155001653000000000000
B0542213149671S11726947EA0153601641000000000000
B0542253149628S11727025EA0152801633000000000000
B0542293149589S11727103EA0152301631000000000000
B0542333149552S11727178EA0152101627000000000000
B0542373149510S11727251EA0151101614000000000000
B0542413149472S11727326EA0149701600000000000000
B0542453149433S11727404EA0148401584000000000000
B0542493149396S11727485EA0147001570000000000000
B0542533149367S11727573EA0146201564000000000000
B0542573149349S11727667EA0144701547000000000000
B0543013149332S11727762EA0143401533000000000000
B0543053149316S11727858EA0142101517000000000000
B0543093149297S11727956EA0140101495000000000000
B0543133149277S11728057EA0138101475000000000000
B0543173149258S11728160EA0136501459000000000000
B0543213149233S11728262EA0135401453000000000000
B0543253149201S11728357EA0135701458000000000000
B0543293149158S11728447EA0135701457000000000000
B0543333149108S11728529EA0135601456000000000000
B0543373149051S11728597EA0135201452000000000000
B0543413148987S11728650EA0134601441000000000000
B0543453148926S11728706EA0133101421000000000000
B0543493148870S11728775EA0130901399000000000000
B0543533148822S11728858EA0129101382000000000000
B0543573148778S11728945EA0127901371000000000000
B0544013148736S11729031EA0127201363000000000000
B0544053148699S11729117EA0126601362000000000000
B0544093148668S11729198EA0126901366000000000000
B0544133148642S11729276EA0126801359000000000000
B0544173148616S11729356EA0125701347000000000000
B0544213148591S11729438EA0124601338000000000000
B0544253148567S11729518EA0124901348000000000000
B0544293148535S11729585EA0126001361000000000000
B0544333148493S11729635EA0127201374000000000000
B0544373148445S11729673EA0127701372000000000000
B0544413148397S11729712EA0126801362000000000000
B0544453148344S11729750EA0125901351000000000000
B0544493148285S11729786EA0125301344000000000000
B0544533148229S11729834EA0124101330000000000000
B0544573148177S11729887EA0122601313000000000000
B0545013148127S11729951EA0120801293000000000000
B0545053148090S11730030EA0119801286000000000000
B0545093148066S11730118EA0119101276000000000000
B0545133148047S11730209EA0117701263000000000000
B0545173148029S11730301EA0116701253000000000000
B0545213148015S11730393EA0116001246000000000000
B0545253148002S11730485EA0115301240000000000000
B0545293147995S11730576EA0114701234000000000000
B0545333147992S11730665EA0114401230000000000000
B0545373147993S11730755EA0114401232000000000000
B0545413147981S11730839EA0114701237000000000000
B0545453147945S11730905EA0115301244000000000000
B0545493147893S11730950EA0115801249000000000000
B0545533147832S11730976EA0115801246000000000000
B0545573147771S11730999EA0115701246000000000000
B0546013147708S11731026EA0115501242000000000000
B0546053147644S11731056EA0114101220000000000000
B0546093147577S11731086EA0112301204000000000000
B0546133147512S11731128EA0111401197000000000000
B0546173147456S11731187EA0111201194000000000000
B0546213147400S11731247EA0111801208000000000000
B0546253147387S11731325EA0113501226000000000000
B0546293147456S11731345EA0115201240000000000000
B0546333147503S11731271EA0116101252000000000000
B0546373147492S11731189EA0116901256000000000000
B0546413147438S11731156EA0117201262000000000000
B0546453147410S11731203EA0118501282000000000000
B0546493147449S11731249EA0120401296000000000000
B0546533147513S11731229EA0121101302000000000000
B0546573147543S11731154EA0121601305000000000000
B0547013147517S11731087EA0121901310000000000000
B0547053147469S11731081EA0123001324000000000000
B0547093147461S11731134EA0123601326000000000000
B0547133147517S11731168EA0124101333000000000000
B0547173147573S11731119EA0125001342000000000000
B0547213147565S11731044EA0125101343000000000000
B0547253147514S11731026EA0125401350000000000000
B0547293147494S11731074EA0126001353000000000000
B0547333147537S11731126EA0126101351000000000000
B0547373147612S11731119EA0126301362000000000000
B0547413147638S11731046EA0127801378000000000000
B0547453147603S11730999EA0128201377000000000000
B0547493147561S11731024EA0128601384000000000000
B0547533147569S11731085EA0129401392000000000000
B0547573147629S11731113EA0130401407000000000000
B0548013147685S11731070EA0131701415000000000000
B0548053147689S11730996EA0132201421000000000000
B0548093147648S11730961EA0133101430000000000000
B0548133147609S11730986EA0133801433000000000000
B0548173147608S11731047EA0133901436000000000000
B0548213147667S11731080EA0134601442000000000000
B0548253147719S11731018EA0135201459000000000000
B0548293147699S11730955EA0136801470000000000000
B0548333147657S11730961EA0137601475000000000000
B0548373147654S11731017EA0138101481000000000000
B0548413147699S11731063EA0138901497000000000000
B0548453147761S11731034EA0140701513000000000000
B0548493147778S11730963EA0141801521000000000000
B0548533147746S11730914EA0142601530000000000000
B0548573147703S11730918EA0143401537000000000000
B0549013147682S11730965EA0143901542000000000000
B0549053147702S11731022EA0144801554000000000000
B0549093147761S11731042EA0146201569000000000000
B0549133147812S11730986EA0147101581000000000000
B0549173147803S11730916EA0147901583000000000000
B0549213147759S11730901EA0148401595000000000000
B0549253147741S11730946EA0149101595000000000000
B0549293147768S11731008EA0148801596000000000000
B0549333147824S11731050EA0150301621000000000000
B0549373147881S11731012EA0153401655000000000000
B0549413147885S11730939EA0155101657000000000000
B0549453147838S11730908EA0155201663000000000000
B0549493147807S11730947EA0156501679000000000000
B0549533147817S11731008EA0157801688000000000000
B0549573147868S11731056EA0159101709000000000000
B0550013147932S11731033EA0162001741000000000000
B0550053147956S11730964EA0163701756000000000000
B0550093147930S11730900EA0164701767000000000000
B0550133147884S11730898EA0166201782000000000000
B0550173147872S11730950EA0167601793000000000000
B0550213147916S11730999EA0168701808000000000000
B0550253147986S11730992EA0171001841000000000000
B0550293148029S11730930EA0173601858000000000000
B0550333148018S11730855EA0174901872000000000000
B0550373147973S11730821EA0176201884000000000000
B0550413147933S11730846EA0177401894000000000000
B0550453147941S11730907EA0178401906000000000000
B0550493147997S11730950EA0179601921000000000000
B0550533148067S11730935EA0181301947000000000000
B0550573148106S11730868EA0183401965000000000000
B0551013148093S11730801EA0184801979000000000000
B0551053148054S11730783EA0186001985000000000000
B0551093148023S11730818EA0186401989000000000000
B0551133148038S11730882EA0187001999000000000000
B0551173148103S11730916EA0188602021000000000000
B0551213148172S11730886EA0190802039000000000000
B0551253148192S11730804EA0192602062000000000000
B0551293148163S11730748EA0194902081000000000000
B0551333148123S11730751EA0195802085000000000000
B0551373148111S11730805EA0196102092000000000000
B0551413148150S11730865EA0197102107000000000000
B0551453148223S11730872EA0199002125000000000000
B0551493148271S11730797EA0200002138000000000000
B0551533148249S11730716EA0201802155000000000000
B0551573148198S11730708EA0203502172000000000000
B0552013148190S11730766EA0205202191000000000000
B0552053148235S11730820EA0206602202000000000000
B0552093148309S11730821EA0208202222000000000000
B0552133148361S11730761EA0209602231000000000000
B0552173148367S11730677EA0210802249000000000000
B0552213148330S11730630EA0212202267000000000000
B0552253148297S11730658EA0213602275000000000000
B0552293148313S11730722EA0214402284000000000000
B0552333148376S11730756EA0215602300000000000000
B0552373148448S11730727EA0217302318000000000000
B0552413148479S11730649EA0218802333000000000000
B0552453148453S11730582EA0220302348000000000000
B0552493148408S11730570EA0222002364000000000000
B0552533148396S11730621EA0223302378000000000000
B0552573148445S11730667EA0224502387000000000000
B0553013148518S11730644EA0225902408000000000000
B0553053148548S11730567EA0227302427000000000000
B0553093148523S11730500EA0228602432000000000000
B0553133148474S11730495EA0229202442000000000000
B0553173148453S11730547EA0230602461000000000000
B0553213148486S11730602EA0232502477000000000000
B0553253148557S11730617EA0233502487000000000000
B0553293148621S11730567EA0234902504000000000000
B0553333148636S11730485EA0236802522000000000000
B0553373148605S11730431EA0238302536000000000000
B0553413148564S11730435EA0239602547000000000000
B0553453148548S11730484EA0240702559000000000000
B0553493148575S11730544EA0241902570000000000000
B0553533148640S11730578EA0242702584000000000000
B0553573148712S11730550EA0244302603000000000000
B0554013148744S11730478EA0246302620000000000000
B0554053148729S11730410EA0247602629000000000000
B0554093148686S11730388EA0248802644000000000000
B0554133148661S11730422EA0250202658000000000000
B0554173148682S11730478EA0251402671000000000000
B0554213148742S11730508EA0253002690000000000000
B0554253148809S11730487EA0254302701000000000000
B0554293148847S11730418EA0255602715000000000000
B0554333148837S11730345EA0256902727000000000000
B0554373148796S11730315EA0257702739000000000000
B0554413148766S11730345EA0259102751000000000000
B0554453148781S11730402EA0260302761000000000000
B0554493148842S11730437EA0261302777000000000000
B0554533148913S11730420EA0263002792000000000000
B0554573148960S11730355EA0264302806000000000000
B0555013148963S11730279EA0265702819000000000000
B0555053148931S11730227EA0266702831000000000000
B0555093148890S11730220EA0268102842000000000000
B0555133148864S11730258EA0268602847000000000000
B0555173148883S11730318EA0269202855000000000000
B0555213148951S11730337EA0270402870000000000000
B0555253149011S11730284EA0272002885000000000000
B0555293149015S11730206EA0273102896000000000000
B0555333148976S11730162EA0273902902000000000000
B0555373148937S11730177EA0275002913000000000000
B0555413148933S11730233EA0275302914000000000000
B0555453148968S11730296EA0275702924000000000000
B0555493149037S11730324EA0276902943000000000000
B0555533149107S11730284EA0278602955000000000000
B0555573149130S11730203EA0279802968000000000000
B0556013149100S11730137EA0280902976000000000000
B0556053149048S11730123EA0281802983000000000000
B0556093149012S11730160EA0282302991000000000000
B0556133149012S11730223EA0283703007000000000000
B0556173149048S11730279EA0285603026000000000000
B0556213149112S11730305EA0286603035000000000000
B0556253149189S11730290EA0287103045000000000000
B0556293149253S11730241EA0288503061000000000000
B0556333149263S11730162EA0289603067000000000000
B0556373149224S11730103EA0289903069000000000000
B0556413149167S11730093EA0290603080000000000000
B0556453149129S11730131EA0292103096000000000000
B0556493149121S11730188EA0293603111000000000000
B0556533149159S11730242EA0294903124000000000000
B0556573149232S11730262EA0295603130000000000000
B0557013149308S11730231EA0296303141000000000000
B0557053149360S11730162EA0297603153000000000000
B0557093149373S11730080EA0298803165000000000000
B0557133149354S11730010EA0299903174000000000000
B0557173149308S11729965EA0300303173000000000000
B0557213149254S11729959EA0300303175000000000000
B0557253149207S11729986EA0300703178000000000000
B0557293149180S11730042EA0300903181000000000000
B0557333149172S11730112EA0300903181000000000000
B0557373149165S11730190EA0300403171000000000000
B0557413149150S11730274EA0299203160000000000000
B0557453149126S11730362EA0298303150000000000000
B0557493149095S11730456EA0296703131000000000000
B0557533149056S11730553EA0295203116000000000000
B0557573149016S11730654EA0293803101000000000000
B0558013148973S11730758EA0292603091000000000000
B0558053148931S11730861EA0292303092000000000000
B0558093148889S11730960EA0292203088000000000000
B0558133148847S11731059EA0291903083000000000000
B0558173148807S11731158EA0291203077000000000000
B0558213148768S11731255EA0290703072000000000000
B0558253148725S11731350EA0290203068000000000000
B0558293148684S11731442EA0289603062000000000000
B0558333148643S11731536EA0288803054000000000000
B0558373148601S11731629EA0288103046000000000000
B0558413148562S11731724EA0287203039000000000000
B0558453148523S11731822EA0286803032000000000000
B0558493148482S11731918EA0286203024000000000000
B0558533148443S11732014EA0285203013000000000000
B0558573148405S11732110EA0284003000000000000000
B0559013148367S11732207EA0283002988000000000000
B0559053148327S11732303EA0281202968000000000000
B0559093148288S11732402EA0278802942000000000000
B0559133148249S11732506EA0276602920000000000000
B0559173148211S11732611EA0275202906000000000000
B0559213148176S11732714EA0273802892000000000000
B0559253148138S11732814EA0272302874000000000000
B0559293148098S11732911EA0270502856000000000000
B0559333148055S11733010EA0268502835000000000000
B0559373148010S11733109EA0266802822000000000000
B0559413147963S11733205EA0265902815000000000000
B0559453147916S11733296EA0265302809000000000000
B0559493147871S11733387EA0264602800000000000000
B0559533147825S11733477EA0263702789000000000000
B0559573147780S11733566EA0262702779000000000000
B0600013147735S11733654EA0262302781000000000000
B0600053147690S11733739EA0261902770000000000000
B0600093147646S11733828EA0260302752000000000000
B0600133147604S11733920EA0258702737000000000000
B0600173147560S11734010EA0257302724000000000000
B0600213147516S11734098EA0256302713000000000000
B0600253147474S11734187EA0255402700000000000000
B0600293147433S11734279EA0254202690000000000000
B0600333147394S11734371EA0253402684000000000000
B0600373147353S11734462EA0252802679000000000000
B0600413147316S11734554EA0252502677000000000000
B0600453147270S11734642EA0252102672000000000000
B0600493147213S11734718EA0251802670000000000000
B0600533147153S11734792EA0251902671000000000000
B0600573147092S11734865EA0252102676000000000000
B0601013147028S11734933EA0252402673000000000000
B0601053146961S11734996EA0252302680000000000000
B0601093146897S11735058EA0252802680000000000000
B0601133146832S11735117EA0252202671000000000000
B0601173146770S11735184EA0251402659000000000000
B0601213146711S11735259EA0250102646000000000000
B0601253146659S11735342EA0248902634000000000000
B0601293146612S11735431EA0248002621000000000000
B0601333146572S11735527EA0246902617000000000000
B0601373146530S11735622EA0246702614000000000000
B0601413146485S11735714EA0246102608000000000000
B0601453146439S11735806EA0245702605000000000000
B0601493146396S11735903EA0245502600000000000000
B0601533146350S11735996EA0245302609000000000000
B0601573146281S11736052EA0247802649000000000000
B0602013146221S11736012EA0251902690000000000000
B0602053146230S11735931EA0254802706000000000000
B0602093146292S11735877EA0255002702000000000000
B0602133146373S11735862EA0255502711000000000000
B0602173146441S11735897EA0256102719000000015000
B0602213146472S11735965EA0257402733000000015000
B0602253146468S11736036EA0258502746000000015000
B0602293146420S11736072EA0260102766000000015000
B0602333146382S11736013EA0262202789000000015000
B0602373146415S11735936EA0264202807000000015000
B0602413146486S11735912EA0265902825000000015000
B0602453146546S11735945EA0267902844000000015000
B0602493146571S11736003EA0269602861000000015000
B0602533146550S11736051EA0271402877000000015000
B0602573146500S11736042EA0272802896000000015000
B0603013146486S11735969EA0274002906000000015000
B0603053146541S11735908EA0275202922000000015000
B0603093146608S11735929EA0277002940000000015000
B0603133146621S11735992EA0278702955000000015000
B0603173146573S11736021EA0280102974000000015000
B0603213146530S11735978EA0282403001000000015000
B0603253146539S11735905EA0284603018000000015000
B0603293146602S11735864EA0285103012000000015000
B0603333146677S11735887EA0285603028000000015000
B0603373146707S11735952EA0287903055000000015000
B0603413146684S11736000EA0289703078000000015000
B0603453146637S11735992EA0291803096000000015000
B0603493146607S11735935EA0293203108000000015000
B0603533146615S11735858EA0294403118000000015000
B0603573146663S11735795EA0294803117000000015000
B0604013146740S11735763EA0295203124000000015000
B0604053146824S11735762EA0296003135000000015000
B0604093146896S11735797EA0296803139000000000000
B0604133146931S11735867EA0296403130000000000000
B0604173146923S11735949EA0295003111000000015000
B0604213146888S11736033EA0293903106000000015000
B0604253146841S11736113EA0294203113000000000000
B0604293146784S11736185EA0294903124000000000000
B0604333146724S11736250EA0295803134000000000000
B0604373146662S11736311EA0296003134000000000000
B0604413146598S11736371EA0296803144000000000000
B0604453146537S11736436EA0297303142000000000000
B0604493146476S11736508EA0296903137000000000000
B0604533146415S11736586EA0296803137000000000000
B0604573146355S11736673EA0297303147000000000000
B0605013146299S11736759EA0298403154000000000000
B0605053146239S11736845EA0298003149000000000000
B0605093146177S11736932EA0298103152000000000000
B0605133146116S11737017EA0298403152000000000000
B0605173146055S11737105EA0298203152000000000000
B0605213145995S11737192EA0297703143000000000000
B0605253145935S11737281EA0296703133000000000000
B0605293145876S11737372EA0295403116000000000000
B0605333145818S11737464EA0293403094000000000000
B0605373145761S11737559EA0291203071000000000000
B0605413145702S11737658EA0289303056000000000000
B0605453145645S11737758EA0288903054000000000000
B0605493145589S11737856EA0288803050000000000000
B0605533145533S11737955EA0288303051000000000000
B0605573145481S11738054EA0288503051000000000000
B0606013145431S11738152EA0287903045000000000000
B0606053145380S11738245EA0287403037000000000000
B0606093145329S11738339EA0286903034000000000000
B0606133145278S11738432EA0286503028000000000000
B0606173145230S11738526EA0285703018000000000000
B0606213145180S11738622EA0284803006000000000000
B0606253145132S11738717EA0284203006000000000000
B0606293145083S11738812EA0284103006000000000000
B0606333145039S11738906EA0283903001000000000000
B0606373144992S11738999EA0283402996000000000000
B0606413144947S11739091EA0283102992000000000000
B0606453144901S11739184EA0282202984000000000000
B0606493144853S11739273EA0281802981000000000000
B0606533144804S11739358EA0280902969000000000000
B0606573144752S11739444EA0279902956000000000000
B0607013144700S11739530EA0279402959000000000000
B0607053144649S11739614EA0280402972000000000000
B0607093144601S11739695EA0281202974000000000000
B0607133144554S11739777EA0280602968000000000000
B0607173144508S11739861EA0279902960000000000000
B0607213144459S11739949EA0278802947000000000000
B0607253144413S11740043EA0277202929000000000000
B0607293144365S11740139EA0275602912000000000000
B0607333144311S11740237EA0274402900000000000000
B0607373144257S11740333EA0273902893000000000000
B0607413144201S11740430EA0273102883000000000000
B0607453144146S11740529EA0272302882000000000000
B0607493144093S11740622EA0272702884000000000000
B0607533144042S11740710EA0273202893000000000000
B0607573143995S11740793EA0273702893000000000000
B0608013143949S11740875EA0272902884000000000000
B0608053143902S11740958EA0272002873000000000000
B0608093143854S11741043EA0271002864000000000000
B0608133143807S11741130EA0269802850000000000000
B0608173143757S11741220EA0268902843000000000000
B0608213143709S11741311EA0268002836000000000000
B0608253143660S11741402EA0267402830000000000000
B0608293143608S11741494EA0266502819000000000000
B0608333143556S11741589EA0265402806000000000000
B0608373143501S11741685EA0264102795000000000000
B0608413143447S11741781EA0263502792000000000000
B0608453143392S11741875EA0263202788000000000000
B0608493143341S11741967EA0262602779000000000000
B0608533143289S11742061EA0261302766000000000000
B0608573143240S11742154EA0260502760000000000000
B0609013143189S11742249EA0259602749000000000000
B0609053143136S11742343EA0258802745000000000000
B0609093143078S11742429EA0258402737000000000000
B0609133143019S11742516EA0257502726000000000000
B0609173142962S11742605EA0256302715000000000000
B0609213142907S11742698EA0255402706000000000000
B0609253142853S11742791EA0254702700000000000000
B0609293142801S11742885EA0254702703000000000000
B0609333142754S11742977EA0254402696000000000000
B0609373142707S11743072EA0253602686000000000000
B0609413142660S11743168EA0252702677000000000000
B0609453142613S11743267EA0251202661000000000000
B0609493142564S11743366EA0249902646000000000000
B0609533142515S11743465EA0248802638000000000000
B0609573142465S11743563EA0248002628000000000000
B0610013142416S11743662EA0247102619000000000000
B0610053142369S11743760EA0246302611000000000000
B0610093142322S11743857EA0244802593000000000000
B0610133142275S11743953EA0243502585000000000000
B0610173142231S11744048EA0242802577000000000000
B0610213142188S11744139EA0242002567000000000000
B0610253142143S11744232EA0240602549000000000000
B0610293142099S11744324EA0239002537000000000000
B0610333142056S11744414EA0238402533000000000000
B0610373142013S11744501EA0238502537000000000000
B0610413141969S11744581EA0238902541000000000000
B0610453141922S11744658EA0239802559000000000000
B0610493141866S11744719EA0241602576000000000000
B0610533141805S11744765EA0243002589000000000000
B0610573141742S11744805EA0244102599000000000000
B0611013141681S11744843EA0245102613000000000000
B0611053141625S11744878EA0247102635000000000000
B0611093141615S11744945EA0249602657000000000000
B0611133141674S11744982EA0250902669000000000000
B0611173141737S11744958EA0252402686000000000000
B0611213141771S11744899EA0253902696000000000000
B0611253141763S11744834EA0254602703000000000000
B0611293141723S11744796EA0255102709000000000000
B0611333141671S11744789EA0255802719000000000000
B0611373141629S11744822EA0256902732000000000000
B0611413141638S11744887EA0258102747000000000000
B0611453141698S11744921EA0259102751000000000000
B0611493141763S11744893EA0260002768000000000000
B0611533141789S11744830EA0261202777000000000000
B0611573141774S11744767EA0261802783000000000000
B0612013141732S11744731EA0262402788000000000000
B0612053141679S11744718EA0262802792000000000000
B0612093141622S11744719EA0263502799000000000000
B0612133141563S11744732EA0264002800000000000000
B0612173141505S11744772EA0263402787000000000000
B0612213141451S11744839EA0261902770000000000000
B0612253141398S11744921EA0260102753000000000000
B0612293141347S11745012EA0259102746000000000000
B0612333141297S11745108EA0258602742000000000000
B0612373141247S11745207EA0258702746000000000000
B0612413141202S11745304EA0259402755000000000000
B0612453141157S11745400EA0260102760000000000000
B0612493141111S11745495EA0260902770000000000000
B0612533141064S11745591EA0261102769000000000000
B0612573141017S11745690EA0261502777000000000000
B0613013140972S11745790EA0261602773000000000000
B0613053140929S11745893EA0260802763000000000000
B0613093140887S11745998EA0259802753000000000000
B0613133140845S11746105EA0259002743000000000000
B0613173140801S11746210EA0257402727000000000000
B0613213140758S11746317EA0256102717000000000000
B0613253140715S11746423EA0255202703000000000000
B0613293140673S11746530EA0254402697000000000000
B0613333140634S11746638EA0253802690000000000000
B0613373140595S11746743EA0253502690000000000000
B0613413140556S11746847EA0253002681000000000000
B0613453140514S11746951EA0252002671000000000000
B0613493140472S11747055EA0251202665000000000000
B0613533140433S11747158EA0251002665000000000000
B0613573140394S11747258EA0251002663000000000000
B0614013140354S11747358EA0250702660000000000000
B0614053140311S11747457EA0250602659000000000000
B0614093140268S11747556EA0250302656000000000000
B0614133140224S11747653EA0250002652000000000000
B0614173140180S11747751EA0249302646000000000000
B0614213140136S11747848EA0248602638000000000000
B0614253140089S11747946EA0247802630000000000000
B0614293140041S11748042EA0247302624000000000000
B0614333139991S11748137EA0246702617000000000000
B0614373139941S11748232EA0245702605000000000000
B0614413139887S11748327EA0244502593000000000000
B0614453139834S11748424EA0243202578000000000000
B0614493139781S11748526EA0241902562000000000000
B0614533139726S11748626EA0240402551000000000000
B0614573139674S11748724EA0240302555000000000000
B0615013139617S11748810EA0240302552000000000000
B0615053139561S11748899EA0239602539000000000000
B0615093139509S11748988EA0238402528000000000000
B0615133139456S11749082EA0237102515000000000000
B0615173139404S11749176EA0236102504000000000000
B0615213139353S11749270EA0234802492000000000000
B0615253139305S11749364EA0234002488000000000000
B0615293139261S11749454EA0234002487000000000000
B0615333139219S11749540EA0233502480000000000000
B0615373139178S11749624EA0232902471000000000000
B0615413139136S11749709EA0231902463000000000000
B0615453139094S11749794EA0231202455000000000000
B0615493139053S11749879EA0230802458000000000000
B0615533139010S11749961EA0231902471000000000000
B0615573138964S11750035EA0233202485000000000000
B0616013138907S11750091EA0234702504000000000000
B0616053138847S11750141EA0236902526000000000000
B0616093138825S11750217EA0239302552000000000000
B0616133138877S11750266EA0241602571000000000000
B0616173138941S11750247EA0242702575000000000000
B0616213138968S11750180EA0243202588000000000000
B0616253138951S11750117EA0245202614000000000000
B0616293138905S11750092EA0247302633000000000000
B0616333138858S11750123EA0249002648000000000000
B0616373138849S11750192EA0250202660000000000000
B0616413138890S11750251EA0251702675000000000000
B0616453138957S11750260EA0252602684000000000000
B0616493139012S11750217EA0253302689000000000000
B0616533139038S11750151EA0253802697000000000000
B0616573139024S11750080EA0254902714000000000000
B0617013138971S11750062EA0256702734000000000000
B0617053138937S11750115EA0258402750000000015000
B0617093138971S11750180EA0259702757000000015000
B0617133139041S11750179EA0260402765000000015000
B0617173139071S11750117EA0262002787000000015000
B0617213139041S11750062EA0263402796000000000000
B0617253138985S11750060EA0264502807000000000000
B0617293138945S11750112EA0265802824000000000000
B0617333138958S11750184EA0266702831000000000000
B0617373139018S11750219EA0267202834000000000000
B0617413139081S11750199EA0267802842000000015000
B0617453139111S11750139EA0268802853000000000000
B0617493139092S11750079EA0269802864000000000000
B0617533139045S11750049EA0270902877000000000000
B0617573138994S11750069EA0272102887000000000000
B0618013138963S11750127EA0273202901000000000000
B0618053138989S11750192EA0274502914000000000000
B0618093139053S11750204EA0275202913000000015000
B0618133139097S11750149EA0274602907000000015000
B0618173139066S11750093EA0274402903000000015000
B0618213138998S11750113EA0273802902000000015000
B0618253138925S11750153EA0273802899000000015000
B0618293138850S11750204EA0272502868000000015000
B0618333138776S11750283EA0268902835000000015000
B0618373138708S11750377EA0267002829000000000000
B0618413138643S11750474EA0266302814000000000000
B0618453138582S11750574EA0264402796000000000000
B0618493138524S11750674EA0262902782000000000000
B0618533138466S11750775EA0261302766000000000000
B0618573138411S11750875EA0259902752000000000000
B0619013138355S11750972EA0259002744000000000000
B0619053138299S11751068EA0258302737000000000000
B0619093138243S11751162EA0257302722000000000000
B0619133138187S11751254EA0256202711000000000000
B0619173138134S11751347EA0255402705000000000000
B0619213138087S11751436EA0255302705000000000000
B0619253138043S11751526EA0254402694000000000000
B0619293138000S11751620EA0253302682000000000000
B0619333137957S11751717EA0252102671000000000000
B0619373137914S11751816EA0250802657000000000000
B0619413137872S11751915EA0250202655000000000000
B0619453137833S11752006EA0250502662000000000000
B0619493137794S11752088EA0251202669000000000000
B0619533137753S11752160EA0251902673000000000000
B0619573137711S11752229EA0251502665000000000000
B0620013137672S11752302EA0249702646000000000000
B0620053137632S11752379EA0247502623000000000000
B0620093137590S11752461EA0245002595000000000000
B0620133137546S11752548EA0242502572000000000000
B0620173137502S11752639EA0241102555000000000000
B0620213137455S11752730EA0239702545000000000000
B0620253137408S11752818EA0239302541000000000000
B0620293137365S11752908EA0238702538000000000000
B0620333137326S11752996EA0238802539000000000000
B0620373137289S11753086EA0238202532000000000000
B0620413137248S11753178EA0237202520000000000000
B0620453137207S11753272EA0236202511000000000000
B0620493137165S11753365EA0235702509000000000000
B0620533137124S11753456EA0235502502000000000000
B0620573137079S11753545EA0234502489000000000000
B0621013137035S11753633EA0233902490000000000000
B0621053136999S11753719EA0234702501000000000000
B0621093136962S11753805EA0234702493000000000000
B0621133136925S11753891EA0233602483000000000000
B0621173136886S11753976EA0232702475000000000000
B0621213136844S11754057EA0231902467000000000000
B0621253136797S11754131EA0231102458000000000000
B0621293136750S11754205EA0230102443000000000000
B0621333136705S11754283EA0228902434000000000000
B0621373136659S11754361EA0228302433000000000000
B0621413136619S11754437EA0229202443000000000000
B0621453136579S11754509EA0229302438000000000000
B0621493136537S11754585EA0228202422000000000000
B0621533136496S11754662EA0226902414000000000000
B0621573136444S11754725EA0226102402000000000000
B0622013136389S11754786EA0225402398000000000000
B0622053136337S11754851EA0225302401000000000000
B0622093136292S11754918EA0226002409000000000000
B0622133136237S11754974EA0226002404000000000000
B0622173136169S11755006EA0225602404000000000000
B0622213136099S11755023EA0225402398000000000000
B0622253136029S11755039EA0225102401000000000000
B0622293135959S11755052EA0225202396000000000000
B0622333135890S11755071EA0224802396000000000000
B0622373135818S11755093EA0225402406000000000000
B0622413135755S11755120EA0226902418000000000000
B0622453135762S11755192EA0229002437000000000000
B0622493135837S11755176EA0229402440000000000000
B0622533135863S11755085EA0229902452000000000000
B0622573135837S11755006EA0230702464000000000000
B0623013135783S11755001EA0232402479000000000000
B0623053135773S11755076EA0233002481000000000000
B0623093135821S11755146EA0233702495000000015000
B0623133135898S11755159EA0235102507000000015000
B0623173135926S11755080EA0237002533000000015000
B0623213135882S11755035EA0238402535000000015000
B0623253135851S11755083EA0238402533000000015000
B0623293135879S11755156EA0238502540000000015000
B0623333135939S11755205EA0239602551000000015000
B0623373136012S11755189EA0241302570000000015000
B0623413136055S11755127EA0242102569000000000000
B0623453136039S11755049EA0241602566000000000000
B0623493135991S11754996EA0242002577000000000000
B0623533135938S11754950EA0242502579000000000000
B0623573135877S11754919EA0243202587000000000000
B0624013135814S11754893EA0244102604000000000000
B0624053135753S11754902EA0246502629000000000000
B0624093135761S11754977EA0247802630000000000000
B0624133135835S11754998EA0248502646000000000000
B0624173135899S11754950EA0250102663000000000000
B0624213135896S11754881EA0252202687000000000000
B0624253135844S11754877EA0254202702000000015000
B0624293135820S11754942EA0255502717000000015000
B0624333135861S11755003EA0257402738000000015000
B0624373135924S11754985EA0259202755000000015000
B0624413135939S11754915EA0260102761000000000000
B0624453135903S11754857EA0260602775000000000000
B0624493135852S11754873EA0262502787000000015000
B0624533135861S11754949EA0262802788000000015000
B0624573135916S11755014EA0263202801000000015000
B0625013135987S11755011EA0265902832000000015000
B0625053136017S11754946EA0267802842000000015000
B0625093135978S11754892EA0268202849000000015000
B0625133135917S11754912EA0269802866000000015000
B0625173135866S11754972EA0270002863000000000000
B0625213135818S11755052EA0269302848000000000000
B0625253135769S11755143EA0267602835000000000000
B0625293135716S11755241EA0267002825000000000000
B0625333135665S11755344EA0265602814000000000000
B0625373135618S11755451EA0264302799000000000000
B0625413135571S11755557EA0263202785000000000000
B0625453135526S11755665EA0261602766000000000000
B0625493135483S11755776EA0260202756000000000000
B0625533135441S11755885EA0259502749000000000000
B0625573135401S11755989EA0259002746000000000000
B0626013135363S11756090EA0258302737000000000000
B0626053135326S11756192EA0257602733000000000000
B0626093135291S11756293EA0257502729000000000000
B0626133135253S11756393EA0256802718000000000000
B0626173135214S11756493EA0255902714000000000000
B0626213135179S11756588EA0256602728000000000000
B0626253135146S11756678EA0257202724000000000000
B0626293135114S11756770EA0255502702000000000000
B0626333135079S11756865EA0253502682000000000000
B0626373135040S11756960EA0251902669000000000000
B0626413134999S11757056EA0251102662000000000000
B0626453134958S11757148EA0251202669000000000000
B0626493134921S11757234EA0251702668000000000000
B0626533134884S11757323EA0250702649000000000000
B0626573134845S11757416EA0249302645000000000000
B0627013134804S11757506EA0249002638000000000000
B0627053134764S11757597EA0248002629000000000000
B0627093134724S11757687EA0247602627000000000000
B0627133134680S11757774EA0247202622000000000000
B0627173134635S11757862EA0246902619000000000000
B0627213134591S11757952EA0246602614000000000000
B0627253134547S11758042EA0246302616000000000000
B0627293134505S11758127EA0246802620000000000000
B0627333134464S11758213EA0246302609000000000000
B0627373134422S11758302EA0245102597000000000000
B0627413134383S11758396EA0244002587000000000000
B0627453134345S11758491EA0243002576000000000000
B0627493134306S11758586EA0241802565000000000000
B0627533134267S11758681EA0240802553000000000000
B0627573134227S11758777EA0239502534000000000000
B0628013134186S11758875EA0237502516000000000000
B0628053134144S11758976EA0235402491000000000000
B0628093134101S11759079EA0233302473000000000000
B0628133134059S11759182EA0231902461000000000000
B0628173134020S11759283EA0230302440000000000000
B0628213133984S11759383EA0228602423000000000000
B0628253133948S11759481EA0227002408000000000000
B0628293133913S11759578EA0225402393000000000000
B0628333133879S11759670EA0224902388000000000000
B0628373133846S11759761EA0224002372000000000000
B0628413133810S11759852EA0222402360000000000000
B0628453133771S11759938EA0221502350000000000000
B0628493133729S11800023EA0221802361000000000000
B0628533133688S11800105EA0222202361000000000000
B0628573133645S11800187EA0222202365000000000000
B0629013133604S11800266EA0223102380000000000000
B0629053133567S11800337EA0224102379000000000000
B0629093133525S11800411EA0222802363000000000000
B0629133133484S11800488EA0222002353000000000000
B0629173133442S11800565EA0221102344000000000000
B0629213133400S11800644EA0219902326000000000000
B0629253133361S11800729EA0217902306000000000000
B0629293133324S11800820EA0216002285000000000000
B0629333133285S11800911EA0214402275000000000000
B0629373133244S11801000EA0213402267000000000000
B0629413133208S11801087EA0213202261000000000000
B0629453133170S11801172EA0212102250000000000000
B0629493133135S11801255EA0211102241000000000000
B0629533133101S11801336EA0210202230000000000000
B0629573133068S11801415EA0209002216000000000000
B0630013133035S11801498EA0207902207000000000000
B0630053133005S11801581EA0207102199000000000000
B0630093132974S11801666EA0205902180000000000000
B0630133132939S11801753EA0204102168000000000000
B0630173132905S11801839EA0203002154000000000000
B0630213132870S11801926EA0201802141000000000000
B0630253132839S11802014EA0200702132000000000000
B0630293132809S11802104EA0200002124000000000000
B0630333132780S11802194EA0199102116000000000000
B0630373132752S11802281EA0198302108000000000000
B0630413132722S11802367EA0197402095000000000000
B0630453132693S11802452EA0196302087000000000000
B0630493132665S11802537EA0195602080000000000000
B0630533132639S11802623EA0195202078000000000000
B0630573132614S11802707EA0194402069000000000000
B0631013132587S11802792EA0193502059000000000000
B0631053132558S11802876EA0192502048000000000000
B0631093132531S11802962EA0191202035000000000000
B0631133132506S11803049EA0190402026000000000000
B0631173132481S11803134EA0189702020000000000000
B0631213132457S11803217EA0189302016000000000000
B0631253132432S11803300EA0188302003000000000000
B0631293132406S11803383EA0186901988000000000000
B0631333132381S11803468EA0185701975000000000000
B0631373132356S11803552EA0184301960000000000000
B0631413132332S11803638EA0183101948000000000000
B0631453132304S11803723EA0181901937000000000000
B0631493132273S11803804EA0181201930000000000000
B0631533132239S11803886EA0180301919000000000000
B0631573132204S11803971EA0179401909000000000000
B0632013132168S11804057EA0178501899000000000000
B0632053132134S11804145EA0177801896000000000000
B0632093132102S11804232EA0177301887000000000000
B0632133132070S11804319EA0175901874000000000000
B0632173132037S11804406EA0175301868000000000000
B0632213132002S11804490EA0174901866000000000000
B0632253131969S11804571EA0174401863000000000000
B0632293131939S11804651EA0174201858000000000000
B0632333131911S11804730EA0174001857000000000000
B0632373131885S11804809EA0173901856000000000000
B0632413131859S11804887EA0173501851000000000000
B0632453131833S11804965EA0172801841000000000000
B0632493131803S11805043EA0171801832000000000000
B0632533131764S11805117EA0170901823000000000000
B0632573131721S11805186EA0170201814000000000000
B0633013131675S11805259EA0169201803000000000000
B0633053131635S11805337EA0168501800000000000000
B0633093131599S11805416EA0168601802000000000000
B0633133131561S11805496EA0168701803000000000000
B0633173131521S11805572EA0168701807000000000000
B0633213131459S11805610EA0169601819000000000000
B0633253131398S11805598EA0170001816000000000000
B0633293131361S11805539EA0169001801000000000000
B0633333131367S11805449EA0167201781000000000000
B0633373131411S11805357EA0165501767000000000000
B0633413131470S11805266EA0164701760000000000000
B0633453131540S11805186EA0165501776000000000000
B0633493131627S11805177EA0168101807000000000000
B0633533131673S11805236EA0169801817000000000000
B0633573131656S11805302EA0169701807000000015000
B0634013131599S11805325EA0168801803000000015000
B0634053131532S11805311EA0168901804000000015000
B0634093131476S11805267EA0169001811000000015000
B0634133131457S11805185EA0169101805000000015000
B0634173131475S11805091EA0167901788000000015000
B0634213131519S11804998EA0165901764000000000000
B0634253131587S11804909EA0164101750000000000000
B0634293131665S11804834EA0163501747000000000000
B0634333131751S11804772EA0163101742000000000000
B0634373131839S11804708EA0162201727000000000000
B0634413131927S11804638EA0161001721000000000000
B0634453132015S11804565EA0161301728000000000000
B0634493132051S11804474EA0163201756000000000000
B0634533132002S11804432EA0165301770000000000000
B0634573131968S11804492EA0165501768000000000000
B0635013131994S11804577EA0165701773000000000000
B0635053132054S11804646EA0165901775000000000000
B0635093132134S11804660EA0167201796000000000000
B0635133132197S11804609EA0168501805000000000000
B0635173132215S11804531EA0168901803000000000000
B0635213132187S11804464EA0168401799000000000000
B0635253132134S11804418EA0168001794000000000000
B0635293132073S11804380EA0167301790000000000000
B0635333132013S11804380EA0167901806000000000000
B0635373131998S11804440EA0169801818000000000000
B0635413132030S11804506EA0169901813000000000000
B0635453132096S11804548EA0169301807000000000000
B0635493132178S11804569EA0168501799000000000000
B0635533132267S11804581EA0168001795000000000000
B0635573132360S11804587EA0168001797000000000000
B0636013132457S11804587EA0167901792000000000000
B0636053132555S11804574EA0167701795000000000000
B0636093132627S11804512EA0169001806000000000000
B0636133132606S11804439EA0169501807000000000000
B0636173132557S11804451EA0169101801000000000000
B0636213132553S11804519EA0168901805000000000000
B0636253132589S11804586EA0169501811000000000000
B0636293132653S11804631EA0169701809000000000000
B0636333132732S11804652EA0168801793000000000000
B0636373132823S11804649EA0167101780000000000000
B0636413132918S11804636EA0166101770000000000000
B0636453133018S11804621EA0164701754000000000000
B0636493133120S11804601EA0163801750000000000000
B0636533133220S11804578EA0163301744000000000000
B0636573133321S11804556EA0162401731000000000000
B0637013133425S11804534EA0160801714000000000000
B0637053133529S11804508EA0159201701000000000000
B0637093133632S11804482EA0158001681000000000000
B0637133133736S11804457EA0156101666000000000000
B0637173133837S11804434EA0155401666000000000000
B0637213133937S11804425EA0156401680000000000000
B0637253134017S11804380EA0158401704000000000000
B0637293134004S11804311EA0160901727000000000000
B0637333133961S11804319EA0162801745000000000000
B0637373133953S11804375EA0163901755000000000000
B0637413133998S11804430EA0164501760000000000000
B0637453134074S11804440EA0164501754000000000000
B0637493134139S11804389EA0164201756000000000000
B0637533134158S11804302EA0164901763000000000000
B0637573134119S11804249EA0166001778000000000000
B0638013134080S11804285EA0167101794000000000000
B0638053134104S11804350EA0168201796000000000000
B0638093134179S11804375EA0167901792000000000000
B0638133134256S11804335EA0168301805000000000000
B0638173134287S11804253EA0169701817000000000000
B0638213134254S11804192EA0171001828000000000000
B0638253134208S11804207EA0172001844000000000000
B0638293134215S11804271EA0173401853000000000000
B0638333134274S11804311EA0173801856000000000000
B0638373134353S11804317EA0174201865000000000000
B0638413134413S11804265EA0175701880000000000000
B0638453134409S11804197EA0176701887000000000000
B0638493134362S11804184EA0176901891000000000000
B0638533134345S11804239EA0177601900000000000000
B0638573134387S11804293EA0178401907000000000000
B0639013134459S11804289EA0179401920000000000000
B0639053134503S11804227EA0180301926000000000000
B0639093134494S11804159EA0180901933000000000000
B0639133134449S11804148EA0181601941000000000000
B0639173134427S11804192EA0182801958000000000000
B0639213134447S11804244EA0183901965000000000000
B0639253134505S11804278EA0184101965000000000000
B0639293134579S11804259EA0184801976000000000000
B0639333134611S11804192EA0185701987000000000000
B0639373134582S11804145EA0186701994000000000000
B0639413134540S11804162EA0187201998000000000000
B0639453134531S11804217EA0188002010000000000000
B0639493134568S11804271EA0189002018000000000000
B0639533134635S11804293EA0189902027000000000000
B0639573134700S11804262EA0190902041000000000000
B0640013134728S11804197EA0192002048000000000000
B0640053134708S11804139EA0192502053000000000000
B0640093134667S11804131EA0193202062000000000000
B0640133134642S11804170EA0193902070000000000000
B0640173134655S11804227EA0194702077000000000000
B0640213134711S11804266EA0195002079000000000000
B0640253134784S11804253EA0195602088000000000000
B0640293134823S11804189EA0196802096000000000000
B0640333134803S11804131EA0197102099000000000000
B0640373134759S11804136EA0197702109000000000000
B0640413134752S11804191EA0198802119000000000000
B0640453134798S11804240EA0199302122000000000000
B0640493134873S11804252EA0199302121000000000000
B0640533134951S11804220EA0199402127000000000000
B0640573134976S11804150EA0200602142000000000000
B0641013134938S11804119EA0201502144000000000000
B0641053134893S11804152EA0201502147000000000000
B0641093134888S11804219EA0202402160000000000000
B0641133134940S11804278EA0203102164000000000000
B0641173135020S11804288EA0203602171000000000000
B0641213135106S11804275EA0204002174000000000000
B0641253135194S11804256EA0204702180000000000000
B0641293135284S11804232EA0205202184000000000000
B0641333135376S11804204EA0205102185000000000000
B0641373135471S11804174EA0205302186000000000000
B0641413135567S11804142EA0205502187000000000000
B0641453135661S11804106EA0205602190000000000000
B0641493135755S11804071EA0206402201000000000000
B0641533135804S11803999EA0209202234000000000000
B0641573135759S11803963EA0211702254000000000000
B0642013135722S11804007EA0212902264000000000000
B0642053135720S11804074EA0213602269000000000000
B0642093135760S11804129EA0214102272000000000000
B0642133135830S11804146EA0214102273000000000000
B0642173135907S11804124EA0214402279000000000000
B0642213135983S11804092EA0214702284000000000000
B0642253136064S11804054EA0215202292000000000000
B0642293136145S11804014EA0216002299000000000000
B0642333136229S11803972EA0216402301000000000000
B0642373136315S11803924EA0217002308000000000000
B0642413136402S11803879EA0217802318000000000000
B0642453136490S11803837EA0219002330000000000000
B0642493136581S11803797EA0220002341000000000000
B0642533136674S11803758EA0220702347000000000000
B0642573136766S11803719EA0220902345000000000000
B0643013136860S11803676EA0220302334000000000000
B0643053136955S11803629EA0218602315000000000000
B0643093137051S11803581EA0216502294000000000000
B0643133137153S11803543EA0214802278000000000000
B0643173137256S11803509EA0213502265000000000000
B0643213137360S11803474EA0212202251000000000000
B0643253137465S11803442EA0210702237000000000000
B0643293137573S11803417EA0209902230000000000000
B0643333137677S11803385EA0209802228000000000000
B0643373137779S11803348EA0209502227000000000000
B0643413137878S11803313EA0209902234000000000000
B0643453137976S11803282EA0210002232000000000000
B0643493138075S11803248EA0209702226000000000000
B0643533138171S11803216EA0209402227000000000000
B0643573138265S11803187EA0209102221000000000000
B0644013138357S11803160EA0207802207000000000000
B0644053138450S11803128EA0206602189000000000000
B0644093138542S11803096EA0205102174000000000000
B0644133138635S11803067EA0203402156000000000000
B0644173138730S11803037EA0202402152000000000000
B0644213138820S11803009EA0203002163000000000000
B0644253138907S11802978EA0204002172000000000000
B0644293138996S11802939EA0204202171000000000000
B0644333139087S11802893EA0204802182000000000000
B0644373139172S11802849EA0206402202000000000000
B0644413139219S11802772EA0209102232000000000000
B0644453139189S11802716EA0211302248000000000000
B0644493139155S11802750EA0212002254000000000000
B0644533139180S11802813EA0213102266000000000000
B0644573139248S11802824EA0214402281000000000000
B0645013139301S11802762EA0215202289000000000000
B0645053139300S11802676EA0215902297000000000000
B0645093139254S11802634EA0217102316000000000000
B0645133139222S11802660EA0219102337000000000000
B0645173139236S11802715EA0220202339000000000000
B0645213139297S11802744EA0220802355000000000000
B0645253139361S11802707EA0222702372000000000000
B0645293139375S11802628EA0223802379000000000000
B0645333139335S11802576EA0224202386000000000000
B0645373139295S11802588EA0226102410000000000000
B0645413139295S11802637EA0227102415000000000000
B0645453139345S11802673EA0228002427000000000000
B0645493139412S11802657EA0229002439000000000000
B0645533139448S11802586EA0230102451000000000000
B0645573139428S11802515EA0230702453000000000000
B0646013139379S11802508EA0231102466000000000000
B0646053139370S11802559EA0232302471000000000000
B0646093139422S11802599EA0232502475000000000000
B0646133139492S11802588EA0233702491000000000000
B0646173139535S11802521EA0235102502000000000000
B0646213139532S11802441EA0235502503000000000000
B0646253139495S11802380EA0235702505000000000000
B0646293139448S11802371EA0236702518000000000000
B0646333139431S11802415EA0237102515000000000000
B0646373139486S11802455EA0236702511000000000000
B0646413139566S11802445EA0236702514000000000000
B0646453139651S11802419EA0236202504000000000000
B0646493139743S11802386EA0235002492000000000000
B0646533139842S11802354EA0234302487000000000000
B0646573139945S11802322EA0234102486000000000000
B0647013140050S11802294EA0234102487000000000000
B0647053140154S11802267EA0234802497000000000000
B0647093140258S11802241EA0235502506000000000000
B0647133140361S11802215EA0236302512000000000000
B0647173140461S11802186EA0236302508000000000000
B0647213140563S11802157EA0235902504000000000000
B0647253140666S11802129EA0235202497000000000000
B0647293140770S11802100EA0234502489000000000000
B0647333140875S11802073EA0233602477000000000000
B0647373140982S11802046EA0232302465000000000000
B0647413141089S11802022EA0231502458000000000000
B0647453141195S11801994EA0230402444000000000000
B0647493141302S11801960EA0229702436000000000000
B0647533141402S11801919EA0229502435000000000000
B0647573141498S11801877EA0228602422000000000000
B0648013141596S11801836EA0227102411000000000000
B0648053141694S11801804EA0226202399000000000000
B0648093141792S11801762EA0224602380000000000000
B0648133141885S11801702EA0223002366000000000000
B0648173141978S11801635EA0221602352000000000000
B0648213142075S11801568EA0220702345000000000000
B0648253142175S11801511EA0220602345000000000000
B0648293142273S11801458EA0220302338000000000000
B0648333142370S11801406EA0219302328000000000000
B0648373142468S11801359EA0218602320000000000000
B0648413142568S11801321EA0217602311000000000000
B0648453142668S11801289EA0216602299000000000000
B0648493142772S11801260EA0215502289000000000000
B0648533142875S11801237EA0214902284000000000000
B0648573142977S11801217EA0214602281000000000000
B0649013143076S11801197EA0214102275000000000000
B0649053143176S11801175EA0213402267000000000000
B0649093143279S11801159EA0212902265000000000000
B0649133143382S11801159EA0212902262000000000000
B0649173143483S11801162EA0212502258000000000000
B0649213143583S11801167EA0212002252000000000000
B0649253143683S11801172EA0211002240000000000000
B0649293143786S11801175EA0209802230000000000000
B0649333143887S11801176EA0209402226000000000000
B0649373143989S11801171EA0209402228000000000000
B0649413144089S11801162EA0209502228000000000000
B0649453144188S11801151EA0208702213000000000000
B0649493144289S11801146EA0207602204000000000000
B0649533144391S11801150EA0207002199000000000000
B0649573144491S11801156EA0205502179000000000000
B0650013144592S11801163EA0203902165000000000000
B0650053144693S11801164EA0203102158000000000000
B0650093144794S11801163EA0202202147000000000000
B0650133144894S11801158EA0200802130000000000000
B0650173144998S11801154EA0199002110000000000000
B0650213145102S11801159EA0197402096000000000000
B0650253145204S11801176EA0196302085000000000000
B0650293145307S11801194EA0195402075000000000000
B0650333145408S11801208EA0194802070000000000000
B0650373145511S11801227EA0193602056000000000000
B0650413145614S11801245EA0191802038000000000000
B0650453145718S11801256EA0191102034000000000000
B0650493145819S11801267EA0190602029000000000000
B0650533145921S11801275EA0189602016000000000000
B0650573146021S11801276EA0188402001000000000000
B0651013146123S11801271EA0186801985000000000000
B0651053146224S11801286EA0185601976000000000000
B0651093146320S11801308EA0185001967000000000000
B0651133146415S11801324EA0184001957000000000000
B0651173146511S11801337EA0182901944000000000000
B0651213146606S11801346EA0181901933000000000000
B0651253146702S11801346EA0180601919000000000000
B0651293146798S11801331EA0178901900000000000000
B0651333146898S11801311EA0177001882000000000000
B0651373146997S11801311EA0175801874000000000000
B0651413147095S11801327EA0175401869000000000000
B0651453147191S11801342EA0174501855000000000000
B0651493147291S11801347EA0173101839000000000000
B0651533147390S11801347EA0171801831000000000000
B0651573147488S11801349EA0171301824000000000000
B0652013147585S11801346EA0170201811000000000000
B0652053147681S11801349EA0168901797000000000000
B0652093147776S11801360EA0167501784000000000000
B0652133147869S11801379EA0165901764000000000000
B0652173147958S11801418EA0164201748000000000000
B0652213148038S11801472EA0162801733000000000000
B0652253148114S11801537EA0161201714000000000000
B0652293148185S11801610EA0159701701000000000000
B0652333148257S11801684EA0158601691000000000000
B0652373148330S11801756EA0157401677000000000000
