ACAM4N6
HFDTE181023
HFFXA050
HFPLTPILOT:JOHN WELSH              
HFGTYGLIDERTYPE:HORNET      
HFGIDGLIDERID:VH-GMY      
HFDTM100GPSDATUM:
HFRFWFIRMWAREVERSION:F2.6
HFRHWHARDWAREVERSION:300 Series Version 2
HFFTYFRTYPE:CAMBRIDGE AERO INSTRUMENTS, 302+
HFGPS:GARMIN,LVS-25,12,18000
HFPRSPRESSALTSENSOR:INTERSEMA, MS5534-AP, 20000
I033638FXA3941ENL4247REX
LCAMSBVER:5FWVER:F26300
C181023040137181023000102
C0000000N00000000WTAKEOFF     
C3207549S11656849EBEVERLEY AF 
C3255649S11704982ENarrogin AF 
C3207499S11801415EBabakin     
C3207549S11656849EBEVERLEY AF 
C0000000N00000000WLANDING     
B0404313207375S11656884EA0013500212000000000000
B0404333207375S11656884EA0013500212000000000000
B0404353207375S11656884EA0013500211000000000000
B0404373207375S11656884EA0013500211000000000000
B0404393207375S11656884EA0013500211000000000000
B0404413207375S11656884EA0013400211000000000000
B0404433207375S11656884EA0013500211000000000000
B0404453207375S11656884EA0013500211000000000000
B0404473207375S11656884EA0013500211000000000000
B0404493207375S11656884EA0013400211000000000000
B0404513207375S11656884EA0013500211000000000000
B0404533207375S11656883EA0013500211000000000000
B0404553207375S11656883EA0013500211000000000000
B0404573207376S11656883EA0013400211000000000000
B0404593207378S11656886EA0013500211000000000000
B0405003207381S11656887EA0013500210000000000000
B0405043207401S11656900EA0013500210000000000000
B0405083207436S11656923EA0013600210000000000000
B0405123207482S11656956EA0013800210000000000000
B0405163207542S11656992EA0014000211000000000000
B0405203207610S11657034EA0014300216000000000000
B0405243207676S11657078EA0015200228000000000000
B0405283207739S11657118EA0017200254000000000000
B0405323207800S11657150EA0019200278000000000000
B0405363207858S11657177EA0021200300000000000000
B0405403207917S11657205EA0022900315000000000000
B0405443207982S11657225EA0024000325000000000000
B0405483208047S11657251EA0025100336000000000000
B0405523208109S11657283EA0026800357000000000000
B0405563208169S11657319EA0028800378000000000000
B0406003208220S11657365EA0031000404000000000000
B0406043208252S11657429EA0033800433000000000000
B0406083208265S11657506EA0036700461000000000000
B0406123208251S11657590EA0039200484000000000000
B0406163208218S11657666EA0042200515000000000000
B0406203208170S11657732EA0044400534000000000000
B0406243208106S11657785EA0045800546000000000000
B0406283208035S11657813EA0047700567000000000000
B0406323207958S11657814EA0049300579000000000000
B0406363207882S11657793EA0050000584000000000000
B0406403207809S11657758EA0051000597000000000000
B0406443207748S11657699EA0051500605000000000000
B0406483207710S11657621EA0052300615000000000000
B0406523207688S11657534EA0053200626000000000000
B0406563207684S11657446EA0054400641000000000000
B0407003207701S11657358EA0055900653000000000000
B0407043207723S11657272EA0056900662000000000000
B0407083207753S11657191EA0058200680000000000000
B0407123207783S11657114EA0060200699000000000000
B0407163207817S11657040EA0062300726000000000000
B0407203207862S11656978EA0065400755000000000000
B0407243207917S11656922EA0067800778000000000000
B0407283207961S11656862EA0069800795000000000000
B0407323207945S11656797EA0071400811000000000000
B0407363207889S11656789EA0071800807000000000000
B0407403207859S11656848EA0072200817000000000000
B0407443207889S11656895EA0072900826000000000000
B0407483207932S11656871EA0073800835000000000000
B0407523207921S11656808EA0074100830000000000000
B0407563207859S11656793EA0074000834000000000000
B0408003207818S11656841EA0074300837000000000000
B0408043207833S11656897EA0074900847000000000000
B0408083207880S11656906EA0075700853000000000000
B0408123207915S11656861EA0075800852000000000000
B0408163207905S11656795EA0076000852000000000000
B0408203207852S11656756EA0075800852000000000000
B0408243207787S11656765EA0075600850000000000000
B0408283207752S11656823EA0075700850000000000000
B0408323207757S11656893EA0075800854000000000000
B0408363207806S11656904EA0077500877000000000000
B0408403207815S11656844EA0078700880000000000000
B0408443207761S11656806EA0078500881000000015000
B0408483207722S11656851EA0079600898000000000000
B0408523207749S11656899EA0080900911000000000000
B0408563207796S11656882EA0081900916000000000000
B0409003207794S11656818EA0082100917000000015000
B0409043207736S11656789EA0082300923000000015000
B0409083207689S11656828EA0083700939000000000000
B0409123207693S11656887EA0085200953000000000000
B0409163207736S11656905EA0086200963000000000000
B0409203207759S11656858EA0086900967000000000000
B0409243207723S11656802EA0086700962000000015000
B0409283207659S11656796EA0087400976000000000000
B0409323207625S11656843EA0088700986000000000000
B0409363207645S11656896EA0089100988000000000000
B0409403207688S11656891EA0090001003000000000000
B0409443207692S11656830EA0091201009000000015000
B0409483207646S11656786EA0091601016000000015000
B0409523207596S11656810EA0092201019000000000000
B0409563207597S11656875EA0092301023000000000000
B0410003207638S11656893EA0093401040000000000000
B0410043207671S11656851EA0094101042000000000000
B0410083207649S11656788EA0094901058000000000000
B0410123207597S11656779EA0096201064000000000000
B0410163207562S11656826EA0096001054000000000000
B0410203207580S11656888EA0095501057000000000000
B0410243207624S11656932EA0095701056000000000000
B0410283207676S11656921EA0096001062000000000000
B0410323207685S11656856EA0096201062000000000000
B0410363207644S11656801EA0095601055000000000000
B0410403207573S11656778EA0095701060000000000000
B0410443207523S11656822EA0097201073000000000000
B0410483207541S11656888EA0097501073000000000000
B0410523207601S11656906EA0097701084000000000000
B0410563207633S11656858EA0099101100000000000000
B0411003207596S11656806EA0099901101000000015000
B0411043207536S11656823EA0100201109000000015000
B0411083207510S11656888EA0100901114000000000000
B0411123207536S11656944EA0101901126000000000000
B0411163207584S11656944EA0102601126000000000000
B0411203207609S11656895EA0102701127000000000000
B0411243207586S11656839EA0102801127000000000000
B0411283207532S11656823EA0102801126000000000000
B0411323207486S11656866EA0103001128000000000000
B0411363207486S11656932EA0103401132000000000000
B0411403207528S11656974EA0103601128000000000000
B0411443207580S11656962EA0102901122000000000000
B0411483207611S11656912EA0102601117000000000000
B0411523207622S11656848EA0101901108000000000000
B0411563207636S11656780EA0100601095000000000000
B0412003207663S11656713EA0099201080000000000000
B0412043207706S11656654EA0098301072000000000000
B0412083207758S11656602EA0097301058000000000000
B0412123207819S11656558EA0096301050000000000000
B0412163207885S11656528EA0095401040000000000000
B0412203207953S11656510EA0094601035000000000000
B0412243208019S11656502EA0094301033000000000000
B0412283208086S11656503EA0094301031000000000000
B0412323208151S11656506EA0094101030000000000000
B0412363208214S11656510EA0093501021000000000000
B0412403208281S11656511EA0092801013000000000000
B0412443208347S11656511EA0091801004000000000000
B0412483208413S11656510EA0091401003000000000000
B0412523208477S11656506EA0091200998000000000000
B0412563208541S11656500EA0090400990000000000000
B0413003208604S11656494EA0089400977000000000000
B0413043208672S11656488EA0088100962000000000000
B0413083208741S11656485EA0087200957000000000000
B0413123208807S11656484EA0086900954000000000000
B0413163208871S11656481EA0086600951000000000000
B0413203208935S11656477EA0086100942000000000000
B0413243209001S11656467EA0085000930000000000000
B0413283209071S11656449EA0084100925000000000000
B0413323209140S11656432EA0084600935000000000000
B0413363209205S11656445EA0086200948000000000000
B0413403209266S11656466EA0086600944000000000000
B0413443209328S11656455EA0086500942000000000000
B0413483209371S11656392EA0085700936000000000000
B0413523209382S11656306EA0086200953000000000000
B0413563209344S11656238EA0088400977000000000000
B0414003209287S11656198EA0089200984000000000000
B0414043209230S11656215EA0089900987000000000000
B0414083209226S11656276EA0090200993000000000000
B0414123209267S11656290EA0090900998000000000000
B0414163209288S11656240EA0091601008000000000000
B0414203209253S11656186EA0092301011000000015000
B0414243209191S11656176EA0092501017000000015000
B0414283209135S11656197EA0093601028000000000000
B0414323209123S11656256EA0093901026000000000000
B0414363209162S11656273EA0094501037000000000000
B0414403209172S11656216EA0094701032000000000000
B0414443209117S11656176EA0094701041000000000000
B0414483209072S11656214EA0096501054000000000000
B0414523209089S11656275EA0096301049000000000000
B0414563209127S11656323EA0096501055000000000000
B0415003209171S11656366EA0096501050000000000000
B0415043209223S11656398EA0096201049000000000000
B0415083209279S11656414EA0096301048000000000000
B0415123209336S11656431EA0096301048000000000000
B0415163209397S11656436EA0096501049000000000000
B0415203209447S11656402EA0096701050000000000000
B0415243209448S11656329EA0096801050000000000000
B0415283209421S11656253EA0095901039000000000000
B0415323209370S11656185EA0095701040000000000000
B0415363209296S11656152EA0096201047000000000000
B0415403209217S11656159EA0097101059000000000000
B0415443209183S11656219EA0098901078000000000000
B0415483209221S11656251EA0100001085000000000000
B0415523209254S11656207EA0100401091000000000000
B0415563209237S11656145EA0101501104000000000000
B0416003209180S11656124EA0102501111000000015000
B0416043209135S11656165EA0103201119000000000000
B0416083209145S11656220EA0103701126000000000000
B0416123209189S11656223EA0104201131000000000000
B0416163209211S11656171EA0105101139000000000000
B0416203209184S11656110EA0106001149000000000000
B0416243209120S11656095EA0106401153000000000000
B0416283209071S11656142EA0107301164000000000000
B0416323209080S11656199EA0108301171000000000000
B0416363209128S11656203EA0108801180000000000000
B0416403209154S11656151EA0109701189000000000000
B0416443209131S11656085EA0110401195000000015000
B0416483209066S11656051EA0110601199000000015000
B0416523208994S11656069EA0111601211000000015000
B0416563208955S11656124EA0112501218000000015000
B0417003208963S11656185EA0112901217000000000000
B0417043209010S11656199EA0112801219000000000000
B0417083209039S11656145EA0113201226000000000000
B0417123209009S11656084EA0114601242000000015000
B0417163208946S11656067EA0115501241000000015000
B0417203208889S11656104EA0115301240000000015000
B0417243208870S11656168EA0115401242000000000000
B0417283208894S11656220EA0115201239000000000000
B0417323208937S11656256EA0114801236000000000000
B0417363208987S11656286EA0114801236000000015000
B0417403209041S11656306EA0114801239000000015000
B0417443209085S11656275EA0115701251000000015000
B0417483209094S11656210EA0116701255000000015000
B0417523209055S11656147EA0116401249000000015000
B0417563208983S11656121EA0115901245000000015000
B0418003208898S11656128EA0115301241000000015000
B0418043208814S11656146EA0115201243000000015000
B0418083208730S11656167EA0115101240000000000000
B0418123208649S11656189EA0114601237000000000000
B0418163208568S11656214EA0114801240000000000000
B0418203208490S11656234EA0115001240000000000000
B0418243208411S11656251EA0114401233000000000000
B0418283208327S11656263EA0113101218000000000000
B0418323208242S11656272EA0112501213000000000000
B0418363208156S11656281EA0111901204000000000000
B0418403208066S11656289EA0110701193000000000000
B0418443207976S11656292EA0109901187000000000000
B0418483207887S11656293EA0109301180000000000000
B0418523207797S11656292EA0108401173000000000000
B0418563207707S11656289EA0107701164000000000000
B0419003207615S11656289EA0107001159000000000000
B0419043207525S11656290EA0106401150000000000000
B0419083207434S11656289EA0105701147000000000000
B0419123207345S11656288EA0105101136000000000000
B0419163207255S11656286EA0104201129000000000000
B0419203207169S11656282EA0103901129000000000000
B0419243207087S11656275EA0104001130000000000000
B0419283207008S11656267EA0104601138000000000000
B0419323206931S11656259EA0104601138000000000000
B0419363206858S11656254EA0104601136000000000000
B0419403206783S11656249EA0104301134000000000000
B0419443206710S11656251EA0105201148000000000000
B0419483206667S11656298EA0106601160000000000000
B0419523206688S11656351EA0107001156000000000000
B0419563206740S11656351EA0106301148000000000000
B0420003206766S11656292EA0106001148000000000000
B0420043206752S11656223EA0106301152000000000000
B0420083206702S11656168EA0106301155000000000000
B0420123206635S11656145EA0107001161000000000000
B0420163206595S11656195EA0107901169000000000000
B0420203206635S11656225EA0108601178000000000000
B0420243206663S11656178EA0109901193000000015000
B0420283206635S11656126EA0110601197000000015000
B0420323206580S11656126EA0110701199000000015000
B0420363206550S11656175EA0110901199000000000000
B0420403206557S11656236EA0110801199000000000000
B0420443206596S11656281EA0111001203000000000000
B0420483206649S11656273EA0111201201000000000000
B0420523206675S11656210EA0110801199000000015000
B0420563206649S11656138EA0111001205000000015000
B0421003206592S11656100EA0111901214000000015000
B0421043206532S11656113EA0112701222000000015000
B0421083206505S11656168EA0113101222000000000000
B0421123206524S11656224EA0113301225000000000000
B0421163206574S11656238EA0113601227000000000000
B0421203206618S11656195EA0113501226000000000000
B0421243206623S11656126EA0114001234000000000000
B0421283206580S11656073EA0114601237000000015000
B0421323206517S11656068EA0115101244000000000000
B0421363206466S11656108EA0115401243000000000000
B0421403206459S11656176EA0115301244000000000000
B0421443206498S11656220EA0115701249000000000000
B0421483206549S11656214EA0116201254000000015000
B0421523206570S11656155EA0116501257000000015000
B0421563206548S11656091EA0116901261000000015000
B0422003206496S11656051EA0117101263000000015000
B0422043206437S11656068EA0117401266000000015000
B0422083206397S11656121EA0117301263000000015000
B0422123206370S11656188EA0117401267000000000000
B0422163206350S11656258EA0117601266000000000000
B0422203206368S11656324EA0117001256000000000000
B0422243206427S11656355EA0115601240000000000000
B0422283206494S11656364EA0114201221000000000000
B0422323206570S11656366EA0112501209000000000000
B0422363206645S11656358EA0111501199000000000000
B0422403206725S11656347EA0110101186000000000000
B0422443206803S11656332EA0109501186000000000000
B0422483206879S11656315EA0109301178000000000000
B0422523206960S11656305EA0108201168000000000000
B0422563207038S11656295EA0108101168000000000000
B0423003207112S11656289EA0107901166000000000000
B0423043207186S11656282EA0107201158000000000000
B0423083207261S11656276EA0106201144000000000000
B0423123207337S11656269EA0105101136000000000000
B0423163207412S11656262EA0104501131000000000000
B0423203207484S11656260EA0104101131000000000000
B0423243207553S11656268EA0103901128000000000000
B0423283207620S11656280EA0103501121000000000000
B0423323207688S11656289EA0102601111000000000000
B0423363207754S11656293EA0101801105000000000000
B0423403207820S11656294EA0101501102000000000000
B0423443207884S11656292EA0101301102000000000000
B0423483207948S11656288EA0101101097000000000000
B0423523208013S11656280EA0100101084000000000000
B0423563208078S11656273EA0099001075000000000000
B0424003208144S11656264EA0098801081000000000000
B0424043208205S11656259EA0099901092000000000000
B0424083208268S11656254EA0100201094000000000000
B0424123208333S11656247EA0101301106000000015000
B0424163208398S11656246EA0102201110000000015000
B0424203208465S11656241EA0103301126000000015000
B0424243208533S11656232EA0104401134000000015000
B0424283208587S11656194EA0105401149000000015000
B0424323208573S11656133EA0106701156000000015000
B0424363208509S11656124EA0105901139000000015000
B0424403208456S11656182EA0104901134000000015000
B0424443208439S11656264EA0105001144000000015000
B0424483208459S11656333EA0106201159000000015000
B0424523208513S11656362EA0107201160000000015000
B0424563208577S11656366EA0106601148000000015000
B0425003208649S11656357EA0104601122000000000000
B0425043208727S11656334EA0102101099000000000000
B0425083208803S11656302EA0100201087000000000000
B0425123208875S11656264EA0100101088000000000000
B0425163208944S11656228EA0099901083000000000000
B0425203209009S11656189EA0099401081000000000000
B0425243209068S11656150EA0099401081000000000000
B0425283209126S11656112EA0099501082000000000000
B0425323209183S11656072EA0099301079000000000000
B0425363209243S11656033EA0099601086000000000000
B0425403209302S11655998EA0100601098000000000000
B0425443209361S11655959EA0101401103000000000000
B0425483209417S11655909EA0102401116000000000000
B0425523209465S11655847EA0104201134000000000000
B0425563209470S11655772EA0106401160000000000000
B0426003209432S11655717EA0108301173000000000000
B0426043209369S11655699EA0108201164000000000000
B0426083209302S11655733EA0107301161000000000000
B0426123209267S11655803EA0107701166000000000000
B0426163209256S11655879EA0108101171000000000000
B0426203209293S11655934EA0108401173000000000000
B0426243209357S11655956EA0108301174000000000000
B0426283209421S11655941EA0109001187000000015000
B0426323209435S11655877EA0111401215000000015000
B0426363209406S11655821EA0112901226000000015000
B0426403209348S11655794EA0113701232000000015000
B0426443209283S11655807EA0114401242000000015000
B0426483209234S11655855EA0115601253000000015000
B0426523209215S11655921EA0116001248000000015000
B0426563209244S11655986EA0115501246000000015000
B0427003209304S11656020EA0115601246000000015000
B0427043209370S11656043EA0115701248000000000000
B0427083209432S11656028EA0116601258000000000000
B0427123209481S11655982EA0116201243000000000000
B0427163209548S11655955EA0114701237000000000000
B0427203209621S11655969EA0114501235000000000000
B0427243209692S11656007EA0113801222000000000000
B0427283209765S11656058EA0112001202000000000000
B0427323209838S11656117EA0110001184000000000000
B0427363209912S11656178EA0109201182000000000000
B0427403209984S11656236EA0108901179000000000000
B0427443210053S11656293EA0108301171000000000000
B0427483210121S11656346EA0107701168000000000000
B0427523210188S11656397EA0107701168000000000000
B0427563210249S11656448EA0107301164000000000000
B0428003210310S11656500EA0106701158000000000000
B0428043210368S11656549EA0107001167000000000000
B0428083210428S11656589EA0107601169000000000000
B0428123210487S11656628EA0107901176000000000000
B0428163210545S11656663EA0108601183000000000000
B0428203210606S11656685EA0109901196000000000000
B0428243210643S11656641EA0111201209000000000000
B0428283210612S11656589EA0111901210000000000000
B0428323210548S11656587EA0111301204000000000000
B0428363210492S11656640EA0110901203000000000000
B0428403210456S11656717EA0111701217000000000000
B0428443210467S11656783EA0113401230000000000000
B0428483210510S11656773EA0113401225000000000000
B0428523210518S11656708EA0113401235000000000000
B0428563210465S11656674EA0115201259000000000000
B0429003210418S11656717EA0117001269000000000000
B0429043210423S11656782EA0117501271000000000000
B0429083210465S11656797EA0117901279000000000000
B0429123210482S11656749EA0118701287000000000000
B0429163210440S11656702EA0119401294000000000000
B0429203210376S11656724EA0120201302000000000000
B0429243210359S11656792EA0121401314000000000000
B0429283210391S11656832EA0121601311000000000000
B0429323210432S11656815EA0121701314000000000000
B0429363210448S11656761EA0122001320000000000000
B0429403210419S11656710EA0123201334000000000000
B0429443210359S11656726EA0124001334000000000000
B0429483210342S11656797EA0124001340000000000000
B0429523210381S11656827EA0124301337000000000000
B0429563210409S11656780EA0124101337000000000000
B0430003210378S11656722EA0124701347000000000000
B0430043210315S11656704EA0125401353000000000000
B0430083210253S11656737EA0125901353000000000000
B0430123210233S11656810EA0125501348000000000000
B0430163210257S11656883EA0124601337000000000000
B0430203210298S11656948EA0123501323000000000000
B0430243210355S11657004EA0122601316000000000000
B0430283210422S11657057EA0121201300000000000000
B0430323210495S11657103EA0119701285000000000000
B0430363210570S11657143EA0118501278000000000000
B0430403210643S11657174EA0118701280000000000000
B0430443210717S11657192EA0118101271000000000000
B0430483210792S11657200EA0118301279000000000000
B0430523210864S11657200EA0119501299000000000000
B0430563210931S11657195EA0121501316000000000000
B0431003210996S11657187EA0122901330000000000000
B0431043211060S11657179EA0123401329000000000000
B0431083211122S11657172EA0122701322000000000000
B0431123211186S11657163EA0121701309000000000000
B0431163211254S11657156EA0120301294000000000000
B0431203211323S11657151EA0120001299000000000000
B0431243211392S11657144EA0120101294000000000000
B0431283211460S11657134EA0119701290000000000000
B0431323211529S11657125EA0119001285000000000000
B0431363211594S11657118EA0119301292000000000000
B0431403211657S11657118EA0119601292000000000000
B0431443211718S11657125EA0119601292000000000000
B0431483211779S11657134EA0120101296000000000000
B0431523211839S11657140EA0120701304000000000000
B0431563211897S11657137EA0121301312000000000000
B0432003211927S11657085EA0122601329000000000000
B0432043211892S11657031EA0123501329000000000000
B0432083211828S11657047EA0123301329000000000000
B0432123211789S11657111EA0123501336000000000000
B0432163211787S11657186EA0124601346000000000000
B0432203211824S11657242EA0124901342000000000000
B0432243211887S11657267EA0123801330000000000000
B0432283211960S11657286EA0122601318000000000000
B0432323212036S11657306EA0122001312000000000000
B0432363212114S11657326EA0121901316000000000000
B0432403212192S11657346EA0121401304000000000000
B0432443212273S11657365EA0120101294000000000000
B0432483212351S11657385EA0119801293000000000000
B0432523212426S11657408EA0119701291000000000000
B0432563212498S11657433EA0119301286000000000000
B0433003212568S11657458EA0119201289000000000000
B0433043212634S11657484EA0119501290000000000000
B0433083212701S11657508EA0119101284000000000000
B0433123212768S11657524EA0118901286000000000000
B0433163212832S11657536EA0118701281000000000000
B0433203212898S11657550EA0118401277000000000000
B0433243212965S11657569EA0117901273000000000000
B0433283213030S11657592EA0117101265000000000000
B0433323213096S11657610EA0116601258000000000000
B0433363213165S11657629EA0116001253000000000000
B0433403213235S11657650EA0115601250000000000000
B0433443213309S11657671EA0115601249000000000000
B0433483213386S11657690EA0115301248000000000000
B0433523213462S11657709EA0116201259000000000000
B0433563213539S11657725EA0116101251000000000000
B0434003213618S11657751EA0113801225000000000000
B0434043213700S11657779EA0112101209000000000000
B0434083213781S11657806EA0111001198000000000000
B0434123213860S11657831EA0110601203000000000000
B0434163213933S11657853EA0111701218000000000000
B0434203214003S11657872EA0112901221000000000000
B0434243214073S11657884EA0113301229000000000000
B0434283214144S11657892EA0113401225000000000000
B0434323214218S11657892EA0112701218000000000000
B0434363214292S11657884EA0113301228000000000000
B0434403214361S11657868EA0113901233000000000000
B0434443214431S11657850EA0114201241000000000000
B0434483214497S11657831EA0114901243000000000000
B0434523214564S11657805EA0114501235000000000000
B0434563214631S11657772EA0113301223000000000000
B0435003214703S11657740EA0112101210000000000000
B0435043214778S11657706EA0110901198000000000000
B0435083214855S11657672EA0109801190000000000000
B0435123214930S11657641EA0108901179000000000000
B0435163215007S11657612EA0107901169000000000000
B0435203215081S11657584EA0107701171000000000000
B0435243215154S11657553EA0108101175000000000000
B0435283215221S11657517EA0108801184000000000000
B0435323215285S11657481EA0108701178000000000000
B0435363215350S11657452EA0107801168000000000000
B0435403215416S11657432EA0107101161000000000000
B0435443215484S11657412EA0106801161000000000000
B0435483215553S11657394EA0107301170000000000000
B0435523215617S11657376EA0109201191000000000000
B0435563215661S11657333EA0111601217000000000000
B0436003215633S11657281EA0113801237000000000000
B0436043215579S11657283EA0115301250000000000000
B0436083215545S11657334EA0116401263000000000000
B0436123215563S11657393EA0117101267000000000000
B0436163215618S11657407EA0117601275000000000000
B0436203215653S11657361EA0118801289000000000000
B0436243215644S11657300EA0119301282000000000000
B0436283215593S11657260EA0118701281000000000000
B0436323215532S11657274EA0119701297000000000000
B0436363215489S11657321EA0121101311000000000000
B0436403215506S11657377EA0122301322000000000000
B0436443215555S11657360EA0123301332000000000000
B0436483215548S11657302EA0124601345000000000000
B0436523215496S11657286EA0125101347000000000000
B0436563215453S11657332EA0125601357000000000000
B0437003215459S11657394EA0127001374000000000000
B0437043215502S11657419EA0128101377000000000000
B0437083215542S11657377EA0128201382000000000000
B0437123215528S11657319EA0129001386000000000000
B0437163215470S11657312EA0129001387000000000000
B0437203215419S11657356EA0129301393000000000000
B0437243215397S11657421EA0130101403000000000000
B0437283215423S11657477EA0130701403000000000000
B0437323215475S11657507EA0130501403000000000000
B0437363215536S11657524EA0129701392000000000000
B0437403215606S11657530EA0128301380000000000000
B0437443215679S11657532EA0128401382000000000000
B0437483215750S11657529EA0128101375000000000000
B0437523215825S11657527EA0127601371000000000000
B0437563215899S11657519EA0127001364000000000000
B0438003215971S11657508EA0126801363000000000000
B0438043216042S11657497EA0126701363000000000000
B0438083216108S11657488EA0127101372000000000000
B0438123216174S11657484EA0128201382000000000000
B0438163216239S11657488EA0128601384000000000000
B0438203216306S11657495EA0128201378000000000000
B0438243216376S11657508EA0127301364000000000000
B0438283216449S11657530EA0126001351000000000000
B0438323216521S11657555EA0124801341000000000000
B0438363216590S11657590EA0124601341000000000000
B0438403216658S11657628EA0123801328000000000000
B0438443216728S11657663EA0122401315000000000000
B0438483216801S11657701EA0121301304000000000000
B0438523216875S11657741EA0120201294000000000000
B0438563216948S11657783EA0119701287000000000000
B0439003217023S11657820EA0118701278000000000000
B0439043217101S11657858EA0118101270000000000000
B0439083217178S11657897EA0117301264000000000000
B0439123217255S11657935EA0116701256000000000000
B0439163217329S11657974EA0115701248000000000000
B0439203217401S11658011EA0115601248000000000000
B0439243217473S11658049EA0115301244000000000000
B0439283217544S11658083EA0114601236000000000000
B0439323217617S11658117EA0113901230000000000000
B0439363217691S11658143EA0113601226000000000000
B0439403217765S11658154EA0113401225000000000000
B0439443217836S11658153EA0113801234000000000000
B0439483217901S11658145EA0114301239000000000000
B0439523217964S11658139EA0114801242000000000000
B0439563218025S11658130EA0116101259000000000000
B0440003218083S11658118EA0116801264000000000000
B0440043218141S11658110EA0117101267000000000000
B0440083218202S11658115EA0117601271000000000000
B0440123218262S11658135EA0117401266000000000000
B0440163218321S11658169EA0117601271000000000000
B0440203218380S11658208EA0117601270000000000000
B0440243218441S11658248EA0117901277000000000000
B0440283218499S11658294EA0119001288000000000000
B0440323218555S11658340EA0120101302000000000000
B0440363218608S11658388EA0121601311000000000000
B0440403218665S11658433EA0121401303000000000000
B0440443218726S11658481EA0120701301000000000000
B0440483218785S11658529EA0120901304000000000000
B0440523218842S11658572EA0120901297000000000000
B0440563218907S11658600EA0119601283000000000000
B0441003218978S11658613EA0118201272000000000000
B0441043219051S11658621EA0117701269000000000000
B0441083219125S11658626EA0117101261000000000000
B0441123219199S11658633EA0116501254000000000000
B0441163219276S11658637EA0115301241000000000000
B0441203219355S11658642EA0114101230000000000000
B0441243219433S11658646EA0113201221000000000000
B0441283219510S11658650EA0112301212000000000000
B0441323219588S11658655EA0111401206000000000000
B0441363219663S11658667EA0111801218000000000000
B0441403219738S11658677EA0112301218000000000000
B0441443219813S11658686EA0111501205000000000000
B0441483219888S11658697EA0110501197000000000000
B0441523219964S11658710EA0109701188000000000000
B0441563220037S11658726EA0109901198000000000000
B0442003220104S11658751EA0111401213000000000000
B0442043220173S11658769EA0112401219000000000000
B0442083220243S11658784EA0112601218000000000000
B0442123220316S11658797EA0111301202000000000000
B0442163220391S11658806EA0110401197000000000000
B0442203220466S11658811EA0110101193000000000000
B0442243220538S11658819EA0109701188000000000000
B0442283220611S11658828EA0108901179000000000000
B0442323220684S11658838EA0108801185000000000000
B0442363220753S11658846EA0109501187000000000000
B0442403220823S11658846EA0108801178000000000000
B0442443220891S11658850EA0108501179000000000000
B0442483220957S11658851EA0108001167000000000000
B0442523221026S11658853EA0107301166000000000000
B0442563221090S11658853EA0108101178000000000000
B0443003221153S11658855EA0108601177000000000000
B0443043221218S11658858EA0108001170000000000000
B0443083221286S11658858EA0107601165000000000000
B0443123221357S11658858EA0107001161000000000000
B0443163221431S11658858EA0106601156000000000000
B0443203221503S11658856EA0106601161000000000000
B0443243221572S11658859EA0106901161000000000000
B0443283221639S11658862EA0106501156000000000000
B0443323221708S11658866EA0106101151000000000000
B0443363221779S11658872EA0105201141000000000000
B0443403221851S11658877EA0104601139000000000000
B0443443221923S11658881EA0104701140000000000000
B0443483221993S11658886EA0105001143000000000000
B0443523222059S11658889EA0105101141000000000000
B0443563222126S11658892EA0104501135000000000000
B0444003222192S11658902EA0104001132000000000000
B0444043222250S11658920EA0104601139000000000000
B0444083222309S11658940EA0104501133000000000000
B0444123222371S11658947EA0103601123000000000000
B0444163222436S11658958EA0102801118000000000000
B0444203222499S11658984EA0102701119000000000000
B0444243222560S11659015EA0102501114000000000000
B0444283222620S11659050EA0102001108000000000000
B0444323222682S11659084EA0102301117000000000000
B0444363222743S11659100EA0104001136000000000000
B0444403222761S11659037EA0105601148000000000000
B0444443222703S11659001EA0106201151000000000000
B0444483222631S11659022EA0106101152000000000000
B0444523222612S11659094EA0107201168000000000000
B0444563222660S11659113EA0108701182000000000000
B0445003222674S11659051EA0109901196000000000000
B0445043222627S11658999EA0111201204000000000000
B0445083222560S11659011EA0111601210000000000000
B0445123222538S11659076EA0112501219000000000000
B0445163222569S11659122EA0112801220000000000000
B0445203222624S11659126EA0113001223000000000000
B0445243222660S11659079EA0113501229000000000000
B0445283222630S11659010EA0113701229000000000000
B0445323222556S11658994EA0113901237000000000000
B0445363222490S11659029EA0115401256000000000000
B0445403222481S11659094EA0116801256000000000000
B0445443222521S11659140EA0115701243000000000000
B0445483222574S11659183EA0115501254000000000000
B0445523222630S11659185EA0117501270000000000000
B0445563222631S11659118EA0118801279000000000000
B0446003222572S11659074EA0118601275000000000000
B0446043222496S11659071EA0119001288000000000000
B0446083222456S11659135EA0120001291000000000000
B0446123222469S11659205EA0120501303000000000000
B0446163222512S11659249EA0121201306000000000000
B0446203222566S11659284EA0120401289000000000000
B0446243222629S11659328EA0118501273000000000000
B0446283222695S11659378EA0118201278000000000000
B0446323222760S11659427EA0118701280000000000000
B0446363222822S11659482EA0118201273000000000000
B0446403222885S11659540EA0117601265000000000000
B0446443222949S11659600EA0116501253000000000000
B0446483223012S11659657EA0116501258000000000000
B0446523223073S11659712EA0116901259000000000000
B0446563223133S11659765EA0116301253000000000000
B0447003223193S11659821EA0115601244000000000000
B0447043223254S11659876EA0114501233000000000000
B0447083223316S11659930EA0113201220000000000000
B0447123223380S11659985EA0112101210000000000000
B0447163223444S11700037EA0112001213000000000000
B0447203223506S11700086EA0111901211000000000000
B0447243223567S11700137EA0111601208000000000000
B0447283223628S11700184EA0111901214000000000000
B0447323223692S11700227EA0112101213000000000000
B0447363223756S11700268EA0112301218000000000000
B0447403223814S11700312EA0112801223000000000000
B0447443223869S11700361EA0113401227000000000000
B0447483223921S11700409EA0113701230000000000000
B0447523223976S11700450EA0114401243000000000000
B0447563224029S11700484EA0115001241000000000000
B0448003224089S11700494EA0114601236000000000000
B0448043224150S11700483EA0113501220000000000000
B0448083224215S11700463EA0112501216000000000000
B0448123224277S11700437EA0113401231000000000000
B0448163224338S11700411EA0114001232000000000000
B0448203224402S11700388EA0113601226000000000000
B0448243224468S11700362EA0112701217000000000000
B0448283224537S11700332EA0111801206000000000000
B0448323224607S11700301EA0110801199000000000000
B0448363224676S11700272EA0110701202000000000000
B0448403224743S11700245EA0111201206000000000000
B0448443224810S11700223EA0111001200000000000000
B0448483224879S11700202EA0110701202000000000000
B0448523224948S11700180EA0110801199000000000000
B0448563225017S11700167EA0111201209000000000000
B0449003225084S11700158EA0112101217000000000000
B0449043225149S11700150EA0113201229000000000000
B0449083225213S11700143EA0114301239000000000000
B0449123225273S11700119EA0114301235000000000000
B0449163225335S11700095EA0113701229000000000000
B0449203225398S11700114EA0113201226000000000000
B0449243225454S11700155EA0112401211000000000000
B0449283225506S11700211EA0110901196000000000000
B0449323225554S11700271EA0110201194000000000000
B0449363225602S11700329EA0110101192000000000000
B0449403225651S11700389EA0109901192000000000000
B0449443225699S11700449EA0110701208000000000000
B0449483225753S11700465EA0112601224000000000000
B0449523225747S11700406EA0113301219000000000000
B0449563225675S11700397EA0112201209000000000000
B0450003225603S11700440EA0112201218000000000000
B0450043225598S11700514EA0114201246000000000000
B0450083225641S11700502EA0116301258000000000000
B0450123225632S11700441EA0116901265000000000000
B0450163225572S11700428EA0117701270000000000000
B0450203225528S11700481EA0118301282000000000000
B0450243225532S11700548EA0119501291000000000000
B0450283225573S11700582EA0120001294000000000000
B0450323225611S11700548EA0120301299000000000000
B0450363225597S11700491EA0121201308000000000000
B0450403225542S11700468EA0121801312000000000000
B0450443225490S11700506EA0122601325000000000000
B0450483225489S11700571EA0123301331000000000000
B0450523225533S11700596EA0123601331000000000000
B0450563225565S11700561EA0124501347000000000000
B0451003225556S11700517EA0125601348000000000000
B0451043225502S11700497EA0124701334000000000000
B0451083225448S11700539EA0124701348000000000000
B0451123225438S11700606EA0125701353000000000000
B0451163225465S11700666EA0125701351000000000000
B0451203225516S11700678EA0125601351000000000000
B0451243225558S11700650EA0125401346000000000000
B0451283225575S11700596EA0125101345000000000000
B0451323225539S11700544EA0125401347000000000000
B0451363225478S11700522EA0125401350000000000000
B0451403225417S11700540EA0125901354000000000000
B0451443225394S11700605EA0126301353000000000000
B0451483225426S11700662EA0125601339000000000000
B0451523225480S11700704EA0123801320000000000000
B0451563225547S11700740EA0121401295000000000000
B0452003225624S11700774EA0119101278000000000000
B0452043225701S11700805EA0118501274000000000000
B0452083225776S11700834EA0117801266000000000000
B0452123225854S11700862EA0116801256000000000000
B0452163225931S11700891EA0116101252000000000000
B0452203226007S11700921EA0115601247000000000000
B0452243226082S11700951EA0115201243000000000000
B0452283226154S11700979EA0115101240000000000000
B0452323226226S11701005EA0114901241000000000000
B0452363226295S11701029EA0114801238000000000000
B0452403226364S11701050EA0114301233000000000000
B0452443226433S11701072EA0114001230000000000000
B0452483226500S11701094EA0113701228000000000000
B0452523226568S11701117EA0113201223000000000000
B0452563226633S11701143EA0112701217000000000000
B0453003226698S11701172EA0112001209000000000000
B0453043226763S11701203EA0111401200000000000000
B0453083226829S11701234EA0110601198000000000000
B0453123226893S11701260EA0111101205000000000000
B0453163226953S11701282EA0112301219000000000000
B0453203227007S11701302EA0112801221000000000000
B0453243227062S11701317EA0112801221000000000000
B0453283227118S11701329EA0112701219000000000000
B0453323227174S11701337EA0111801207000000000000
B0453363227233S11701350EA0110401193000000000000
B0453403227293S11701376EA0109901190000000000000
B0453443227352S11701406EA0109701184000000000000
B0453483227414S11701438EA0108601174000000000000
B0453523227476S11701473EA0108501175000000000000
B0453563227541S11701506EA0108001164000000000000
B0454003227605S11701541EA0106901154000000000000
B0454043227670S11701577EA0106001147000000000000
B0454083227735S11701618EA0105501141000000000000
B0454123227800S11701662EA0105001140000000000000
B0454163227864S11701705EA0105401144000000000000
B0454203227928S11701745EA0105801152000000000000
B0454243227989S11701779EA0106901164000000000000
B0454283228047S11701809EA0107701167000000000000
B0454323228102S11701836EA0107601164000000000000
B0454363228158S11701866EA0106201147000000000000
B0454403228216S11701904EA0104901135000000000000
B0454443228277S11701941EA0104101129000000000000
B0454483228340S11701974EA0103801129000000000000
B0454523228398S11702005EA0104501135000000000000
B0454563228458S11702039EA0104701138000000000000
B0455003228515S11702077EA0105101146000000000000
B0455043228570S11702118EA0106001153000000000000
B0455083228623S11702161EA0106401154000000000000
B0455123228674S11702210EA0106301154000000000000
B0455163228722S11702262EA0106401156000000000000
B0455203228770S11702314EA0106701159000000000000
B0455243228817S11702364EA0107001160000000000000
B0455283228866S11702411EA0106401150000000000000
B0455323228918S11702455EA0105901152000000000000
B0455363228974S11702487EA0107001166000000000000
B0455403229033S11702507EA0107901169000000000000
B0455443229079S11702472EA0108501178000000000000
B0455483229079S11702405EA0109201182000000000000
B0455523229033S11702359EA0109401183000000000000
B0455563228966S11702373EA0109501186000000000000
B0456003228914S11702425EA0109301182000000000000
B0456043228875S11702491EA0109601190000000000000
B0456083228901S11702546EA0110701200000000000000
B0456123228938S11702512EA0111301205000000000000
B0456163228914S11702452EA0111601209000000000000
B0456203228853S11702441EA0112201217000000000000
B0456243228810S11702490EA0112501217000000000000
B0456283228828S11702551EA0112801225000000000000
B0456323228874S11702537EA0113701235000000000000
B0456363228871S11702481EA0114501243000000000000
B0456403228817S11702461EA0114601236000000000000
B0456443228769S11702513EA0114401238000000000000
B0456483228771S11702587EA0114401234000000000000
B0456523228814S11702645EA0114101226000000000000
B0456563228883S11702681EA0111901196000000000000
B0457003228969S11702703EA0109801187000000000000
B0457043229055S11702720EA0110101195000000000000
B0457083229137S11702736EA0111401214000000000000
B0457123229216S11702747EA0111401197000000000000
B0457163229303S11702762EA0109501174000000000000
B0457203229391S11702779EA0107601160000000000000
B0457243229475S11702793EA0107301163000000000000
B0457283229556S11702807EA0106501152000000000000
B0457323229636S11702821EA0106101150000000000000
B0457363229712S11702838EA0105601145000000000000
B0457403229784S11702862EA0105601146000000000000
B0457443229853S11702886EA0105301142000000000000
B0457483229922S11702910EA0104701133000000000000
B0457523229991S11702933EA0103701123000000000000
B0457563230061S11702958EA0102701112000000000000
B0458003230135S11702981EA0102201111000000000000
B0458043230205S11702997EA0103701132000000000000
B0458083230266S11703006EA0105701152000000000000
B0458123230326S11703011EA0106201151000000000000
B0458163230388S11703009EA0105901148000000000000
B0458203230451S11702998EA0105601145000000000000
B0458243230500S11702955EA0105901155000000000000
B0458283230504S11702883EA0107301168000000000000
B0458323230472S11702815EA0107501164000000000000
B0458363230407S11702793EA0107001160000000000000
B0458403230344S11702824EA0106501155000000000000
B0458443230296S11702880EA0106101150000000000000
B0458483230257S11702949EA0105701146000000000000
B0458523230245S11703029EA0105301142000000000000
B0458563230268S11703106EA0104801135000000000000
B0459003230313S11703165EA0103801122000000000000
B0459043230377S11703191EA0102401108000000000000
B0459083230451S11703206EA0100501090000000000000
B0459123230528S11703217EA0100001089000000000000
B0459163230603S11703215EA0100701099000000000000
B0459203230648S11703174EA0102601118000000000000
B0459243230603S11703123EA0103701125000000000000
B0459283230531S11703149EA0103701129000000000000
B0459323230490S11703214EA0104501142000000000000
B0459363230518S11703269EA0105401143000000000000
B0459403230559S11703241EA0105301139000000000000
B0459443230533S11703185EA0104901135000000000000
B0459483230464S11703170EA0104601136000000000000
B0459523230399S11703206EA0105001142000000000000
B0459563230377S11703278EA0105601144000000000000
B0500003230411S11703335EA0105201136000000000000
B0500043230469S11703360EA0104201126000000000000
B0500083230528S11703382EA0103501118000000000000
B0500123230590S11703401EA0101801099000000000000
B0500163230658S11703419EA0099901082000000000000
B0500203230726S11703436EA0098501071000000000000
B0500243230793S11703448EA0098101068000000000000
B0500283230858S11703456EA0097701064000000000000
B0500323230921S11703468EA0097001053000000000000
B0500363230985S11703483EA0095901044000000000000
B0500403231048S11703503EA0094901031000000000000
B0500443231109S11703526EA0094501032000000000000
B0500483231170S11703553EA0094501031000000000000
B0500523231233S11703581EA0093901025000000000000
B0500563231298S11703608EA0094001029000000000000
B0501003231361S11703633EA0094701037000000000000
B0501043231421S11703627EA0095901054000000000000
B0501083231431S11703569EA0097901070000000000000
B0501123231379S11703538EA0098501075000000000000
B0501163231326S11703572EA0099301080000000000000
B0501203231326S11703639EA0099801087000000000000
B0501243231371S11703655EA0100701095000000000000
B0501283231400S11703605EA0100801098000000000000
B0501323231373S11703548EA0101501105000000000000
B0501363231314S11703539EA0102301114000000000000
B0501403231269S11703588EA0102701113000000000000
B0501443231272S11703661EA0102601116000000000000
B0501483231319S11703686EA0103101122000000000000
B0501523231358S11703644EA0103301124000000000000
B0501563231353S11703581EA0104001130000000000000
B0502003231304S11703543EA0104501139000000000000
B0502043231259S11703582EA0105801153000000000000
B0502083231271S11703643EA0106401154000000000000
B0502123231321S11703652EA0107101163000000000000
B0502163231337S11703599EA0107601163000000000000
B0502203231296S11703555EA0107401163000000000000
B0502243231235S11703569EA0107901172000000000000
B0502283231200S11703627EA0108801177000000000000
B0502323231228S11703682EA0109301187000000000000
B0502363231265S11703647EA0110101191000000000000
B0502403231235S11703588EA0110701201000000000000
B0502443231175S11703599EA0111901214000000000000
B0502483231148S11703663EA0112501217000000000000
B0502523231179S11703712EA0113101229000000000000
B0502563231220S11703694EA0114401239000000000000
B0503003231227S11703635EA0114701238000000000000
B0503043231183S11703594EA0115201249000000000000
B0503083231131S11703620EA0115901250000000000000
B0503123231128S11703691EA0115501246000000000000
B0503163231176S11703729EA0116101259000000000000
B0503203231224S11703703EA0117301265000000000000
B0503243231220S11703639EA0117601269000000000000
B0503283231170S11703608EA0118101275000000000000
B0503323231114S11703631EA0118801283000000000000
B0503363231076S11703689EA0119101285000000000000
B0503403231080S11703756EA0119501292000000000000
B0503443231123S11703773EA0120201300000000000000
B0503483231150S11703726EA0120401295000000000000
B0503523231122S11703672EA0120401298000000000000
B0503563231059S11703672EA0120901304000000000000
B0504003231019S11703726EA0121301307000000000000
B0504043231038S11703789EA0121401303000000000000
B0504083231092S11703821EA0120301290000000000000
B0504123231158S11703834EA0119101279000000000000
B0504163231231S11703841EA0118201269000000000000
B0504203231308S11703841EA0118401280000000000000
B0504243231382S11703838EA0119501292000000000000
B0504283231456S11703834EA0120601298000000000000
B0504323231532S11703833EA0120601298000000000000
B0504363231609S11703829EA0120501296000000000000
B0504403231688S11703825EA0120001288000000000000
B0504443231770S11703828EA0118701274000000000000
B0504483231852S11703835EA0118101271000000000000
B0504523231930S11703846EA0117801270000000000000
B0504563232004S11703860EA0117701267000000000000
B0505003232075S11703874EA0117201262000000000000
B0505043232143S11703891EA0116301248000000000000
B0505083232214S11703911EA0115301240000000000000
B0505123232284S11703930EA0114801237000000000000
B0505163232353S11703951EA0114601236000000000000
B0505203232420S11703971EA0114201230000000000000
B0505243232489S11703986EA0113401220000000000000
B0505283232559S11703997EA0113001221000000000000
B0505323232630S11704007EA0112401211000000000000
B0505363232700S11704020EA0111501204000000000000
B0505403232769S11704040EA0111401205000000000000
B0505443232839S11704054EA0111901209000000000000
B0505483232908S11704051EA0111701204000000000000
B0505523232981S11704053EA0110401188000000000000
B0505563233055S11704066EA0109201178000000000000
B0506003233130S11704079EA0108301169000000000000
B0506043233204S11704092EA0108601176000000000000
B0506083233274S11704108EA0109501187000000000000
B0506123233339S11704106EA0111101203000000000000
B0506163233351S11704046EA0113201227000000000000
B0506203233291S11704029EA0114001231000000000000
B0506243233255S11704092EA0114801239000000000000
B0506283233282S11704153EA0115101239000000000000
B0506323233334S11704150EA0115201243000000000000
B0506363233349S11704089EA0115601249000000000000
B0506403233321S11704025EA0116101256000000000000
B0506443233258S11704014EA0117101266000000000000
B0506483233221S11704077EA0118301277000000000000
B0506523233248S11704131EA0119101282000000000000
B0506563233289S11704107EA0119301284000000000000
B0507003233268S11704045EA0119301285000000000000
B0507043233204S11704024EA0120301300000000000000
B0507083233156S11704072EA0121501311000000000000
B0507123233172S11704133EA0121701308000000000000
B0507163233224S11704154EA0121201304000000000000
B0507203233282S11704153EA0121301306000000000000
B0507243233346S11704137EA0121001302000000000000
B0507283233414S11704112EA0120901300000000000000
B0507323233485S11704084EA0119701278000000000000
B0507363233562S11704053EA0117801267000000000000
B0507403233637S11704025EA0117101262000000000000
B0507443233713S11703998EA0116701263000000000000
B0507483233785S11703969EA0116801260000000000000
B0507523233858S11703945EA0116701260000000000000
B0507563233927S11703917EA0116401253000000000000
B0508003233997S11703891EA0115501241000000000000
B0508043234067S11703864EA0113901225000000000000
B0508083234139S11703835EA0112301213000000000000
B0508123234208S11703808EA0111601208000000000000
B0508163234275S11703786EA0111001200000000000000
B0508203234344S11703767EA0110401195000000000000
B0508243234411S11703748EA0110501199000000000000
B0508283234477S11703730EA0111201205000000000000
B0508323234535S11703708EA0112101217000000000000
B0508363234585S11703678EA0112601220000000000000
B0508403234628S11703643EA0112601216000000000000
B0508443234665S11703600EA0111601203000000000000
B0508483234704S11703551EA0110701195000000000000
B0508523234743S11703495EA0110401197000000000000
B0508563234782S11703440EA0111201202000000000000
B0509003234815S11703382EA0111501206000000000000
B0509043234820S11703318EA0112301214000000000000
B0509083234786S11703266EA0112101207000000000000
B0509123234724S11703250EA0111301196000000000000
B0509163234662S11703288EA0110101185000000000000
B0509203234630S11703361EA0109001172000000000000
B0509243234625S11703447EA0108201171000000000000
B0509283234626S11703531EA0108501180000000000000
B0509323234636S11703613EA0109501187000000000000
B0509363234677S11703665EA0110001188000000000000
B0509403234720S11703639EA0110101190000000000000
B0509443234708S11703577EA0110301189000000000000
B0509483234647S11703547EA0109801184000000000000
B0509523234572S11703548EA0109201184000000000000
B0509563234494S11703556EA0109901192000000000000
B0510003234420S11703578EA0110401194000000000000
B0510043234379S11703643EA0110801202000000000000
B0510083234390S11703711EA0111001195000000000000
B0510123234434S11703755EA0109601177000000000000
B0510163234493S11703777EA0108001162000000000000
B0510203234558S11703789EA0106201144000000000000
B0510243234625S11703799EA0105201137000000000000
B0510283234694S11703811EA0104001121000000000000
B0510323234767S11703824EA0103301123000000000000
B0510363234838S11703835EA0104101131000000000000
B0510403234903S11703846EA0104901140000000000000
B0510443234967S11703851EA0104401131000000000000
B0510483235035S11703861EA0103001117000000000000
B0510523235101S11703874EA0102401113000000000000
B0510563235167S11703886EA0102201112000000000000
B0511003235232S11703897EA0102101109000000000000
B0511043235296S11703910EA0101801106000000000000
B0511083235358S11703923EA0101301101000000000000
B0511123235421S11703939EA0100701095000000000000
B0511163235484S11703958EA0100101087000000000000
B0511203235547S11703975EA0099101078000000000000
B0511243235612S11703991EA0098201061000000000000
B0511283235679S11704002EA0096701049000000000000
B0511323235748S11704007EA0095901044000000000000
B0511363235816S11704011EA0095401039000000000000
B0511403235881S11704014EA0095501045000000000000
B0511443235942S11704011EA0096801059000000000000
B0511483235994S11703994EA0097901068000000000000
B0511523235981S11703928EA0099001080000000000000
B0511563235917S11703924EA0099701087000000000000
B0512003235893S11703988EA0099901086000000000000
B0512043235928S11704028EA0100101088000000000000
B0512083235978S11704017EA0100001089000000000000
B0512123236011S11703973EA0100401096000000000000
B0512163235985S11703910EA0100801094000000000000
B0512203235926S11703865EA0100501092000000000000
B0512243235865S11703885EA0100801095000000000000
B0512283235859S11703954EA0100701092000000000000
B0512323235900S11703994EA0100301092000000000000
B0512363235954S11704008EA0100401094000000000000
B0512403236003S11703989EA0101001100000000000000
B0512443236010S11703921EA0101401103000000000000
B0512483235967S11703867EA0101901109000000000000
B0512523235902S11703880EA0101901106000000000000
B0512563235869S11703945EA0101801105000000000000
B0513003235885S11704012EA0101401102000000000000
B0513043235928S11704055EA0101601104000000000000
B0513083235982S11704077EA0101101091000000000000
B0513123236043S11704088EA0099501075000000000000
B0513163236107S11704092EA0098401070000000000000
B0513203236168S11704093EA0098601075000000000000
B0513243236229S11704092EA0099001079000000000000
B0513283236293S11704090EA0099801090000000000000
B0513323236352S11704072EA0101501107000000000000
B0513363236359S11704015EA0103301125000000000000
B0513403236305S11703994EA0103601121000000000000
B0513443236253S11704046EA0104301137000000000000
B0513483236263S11704111EA0106701162000000000000
B0513523236311S11704102EA0108401175000000000000
B0513563236318S11704046EA0109701188000000000000
B0514003236272S11704019EA0110301190000000000000
B0514043236220S11704060EA0110701205000000000000
B0514083236222S11704127EA0112401222000000000000
B0514123236270S11704149EA0113901235000000000000
B0514163236306S11704115EA0115301248000000000000
B0514203236296S11704062EA0116201253000000000000
B0514243236241S11704040EA0116001249000000000000
B0514283236188S11704076EA0117201274000000000000
B0514323236192S11704138EA0119401288000000000000
B0514363236241S11704149EA0120301295000000000000
B0514403236254S11704094EA0121101305000000000000
B0514443236209S11704063EA0121501306000000000000
B0514483236150S11704090EA0122501323000000000000
B0514523236121S11704154EA0124101336000000000000
B0514563236149S11704210EA0124801344000000000000
B0515003236201S11704203EA0125601355000000000000
B0515043236211S11704149EA0126901369000000000000
B0515083236168S11704112EA0128401382000000000000
B0515123236114S11704138EA0129201388000000000000
B0515163236105S11704209EA0130101397000000000000
B0515203236144S11704253EA0131101406000000000000
B0515243236192S11704238EA0131401407000000000000
B0515283236214S11704185EA0131401404000000000000
B0515323236184S11704133EA0130601393000000000000
B0515363236115S11704136EA0129701389000000000000
B0515403236043S11704162EA0130301399000000000000
B0515443236015S11704225EA0131901422000000000000
B0515483236049S11704274EA0132801408000000000000
B0515523236119S11704288EA0130601389000000000000
B0515563236197S11704289EA0129701386000000000000
B0516003236276S11704287EA0129201383000000000000
B0516043236355S11704283EA0128501373000000000000
B0516083236435S11704274EA0127201360000000000000
B0516123236519S11704262EA0125901349000000000000
B0516163236599S11704245EA0125901355000000000000
B0516203236665S11704216EA0127301372000000000000
B0516243236721S11704210EA0128501377000000000000
B0516283236778S11704206EA0128601376000000000000
B0516323236791S11704145EA0130001399000000000000
B0516363236731S11704137EA0131801407000000000000
B0516403236723S11704211EA0131801412000000000000
B0516443236770S11704248EA0133001426000000000000
B0516483236808S11704215EA0133801436000000000000
B0516523236799S11704151EA0134301439000000000000
B0516563236744S11704108EA0135201454000000000000
B0517003236682S11704131EA0136501468000000000000
B0517043236653S11704196EA0137901477000000000000
B0517083236679S11704253EA0138601480000000000000
B0517123236735S11704279EA0137701465000000000000
B0517163236803S11704294EA0136501452000000000000
B0517203236879S11704302EA0134801435000000000000
B0517243236961S11704306EA0133801432000000000000
B0517283237042S11704306EA0134001437000000000000
B0517323237120S11704302EA0134701445000000000000
B0517363237194S11704303EA0135201450000000000000
B0517403237267S11704307EA0135701455000000000000
B0517443237342S11704309EA0135401453000000000000
B0517483237419S11704307EA0136201460000000000000
B0517523237493S11704305EA0136601463000000000000
B0517563237567S11704297EA0136301462000000000000
B0518003237641S11704284EA0136201461000000000000
B0518043237715S11704270EA0135901455000000000000
B0518083237791S11704249EA0135401452000000000000
B0518123237865S11704228EA0135801460000000000000
B0518163237938S11704203EA0135701451000000000000
B0518203238013S11704175EA0134701442000000000000
B0518243238091S11704147EA0134301441000000000000
B0518283238169S11704123EA0133801433000000000000
B0518323238251S11704102EA0132201414000000000000
B0518363238334S11704086EA0131401404000000000000
B0518403238417S11704075EA0130301397000000000000
B0518443238499S11704066EA0130201399000000000000
B0518483238577S11704059EA0130101395000000000000
B0518523238654S11704058EA0129401386000000000000
B0518563238732S11704058EA0128601380000000000000
B0519003238806S11704050EA0129101389000000000000
B0519043238874S11704029EA0129901396000000000000
B0519083238942S11704008EA0130101392000000000000
B0519123239013S11703982EA0129301386000000000000
B0519163239085S11703956EA0129301390000000000000
B0519203239158S11703929EA0130201403000000000000
B0519243239197S11703872EA0132801433000000000000
B0519283239145S11703835EA0135101448000000000000
B0519323239092S11703885EA0135801460000000000000
B0519363239087S11703955EA0137801478000000000000
B0519403239136S11703965EA0138901485000000000000
B0519443239144S11703903EA0140001502000000000000
B0519483239096S11703865EA0141501512000000000000
B0519523239037S11703902EA0142001522000000000000
B0519563239036S11703971EA0143401539000000000000
B0520003239087S11703986EA0144401542000000000000
B0520043239105S11703929EA0145401559000000000000
B0520083239046S11703903EA0146801569000000000000
B0520123239009S11703965EA0148001589000000000000
B0520163239033S11704024EA0149901600000000000000
B0520203239087S11704029EA0150701609000000015000
B0520243239122S11703981EA0152001626000000000000
B0520283239104S11703920EA0153401631000000000000
B0520323239044S11703891EA0153701636000000000000
B0520363238987S11703929EA0154601651000000000000
B0520403238997S11703991EA0156201667000000015000
B0520443239045S11703989EA0156801665000000015000
B0520483239046S11703921EA0157201674000000000000
B0520523238997S11703884EA0158601687000000000000
B0520563238942S11703917EA0159201689000000015000
B0521003238946S11703989EA0159401686000000015000
B0521043239004S11704028EA0158601669000000015000
B0521083239085S11704029EA0156701655000000015000
B0521123239175S11704017EA0154801629000000000000
B0521163239267S11703998EA0152701618000000000000
B0521203239360S11703976EA0151701607000000000000
B0521243239448S11703949EA0150601599000000000000
B0521283239533S11703917EA0151201612000000000000
B0521323239613S11703887EA0151501609000000000000
B0521363239693S11703855EA0151201608000000000000
B0521403239765S11703820EA0152101622000000000000
B0521443239833S11703781EA0152601624000000000000
B0521483239904S11703746EA0151401607000000000000
B0521523239990S11703739EA0150501607000000000000
B0521563240079S11703748EA0150801609000000000000
B0522003240164S11703769EA0150301600000000000000
B0522043240249S11703798EA0149701593000000000000
B0522083240332S11703830EA0149201587000000000000
B0522123240414S11703863EA0148501582000000000000
B0522163240495S11703897EA0148401580000000000000
B0522203240571S11703928EA0148201578000000000000
B0522243240648S11703958EA0147701572000000000000
B0522283240726S11703988EA0147201565000000000000
B0522323240803S11704017EA0146601560000000000000
B0522363240878S11704046EA0146001555000000000000
B0522403240954S11704073EA0145601551000000000000
B0522443241030S11704103EA0145101542000000000000
B0522483241108S11704129EA0144101533000000000000
B0522523241186S11704155EA0143401527000000000000
B0522563241263S11704179EA0142901522000000000000
B0523003241340S11704201EA0142401516000000000000
B0523043241416S11704220EA0141601503000000000000
B0523083241493S11704235EA0140401496000000000000
B0523123241568S11704246EA0140301497000000000000
B0523163241643S11704251EA0140101496000000000000
B0523203241714S11704249EA0140701508000000000000
B0523243241782S11704245EA0142401525000000000000
B0523283241847S11704241EA0143001524000000000000
B0523323241910S11704231EA0142601521000000000000
B0523363241977S11704227EA0140801497000000000000
B0523403242051S11704238EA0139501488000000000000
B0523443242127S11704259EA0139501491000000000000
B0523483242202S11704287EA0140001494000000000000
B0523523242277S11704315EA0139701489000000000000
B0523563242355S11704348EA0139701490000000000000
B0524003242433S11704384EA0139501487000000000000
B0524043242510S11704420EA0139001482000000000000
B0524083242588S11704457EA0137801468000000000000
B0524123242666S11704489EA0136901462000000000000
B0524163242741S11704521EA0136201457000000000000
B0524203242816S11704553EA0135501446000000000000
B0524243242892S11704584EA0134201434000000000000
B0524283242963S11704615EA0134301439000000000000
B0524323243031S11704644EA0134701445000000000000
B0524363243095S11704673EA0135001440000000000000
B0524403243162S11704701EA0133701426000000000000
B0524443243231S11704731EA0132501414000000000000
B0524483243300S11704764EA0131701406000000000000
B0524523243370S11704795EA0130801395000000000000
B0524563243439S11704825EA0130001390000000000000
B0525003243508S11704855EA0129401383000000000000
B0525043243577S11704883EA0129801393000000000000
B0525083243642S11704905EA0131501408000000000000
B0525123243704S11704908EA0132401417000000000000
B0525163243756S11704872EA0132701419000000000000
B0525203243804S11704823EA0133001427000000000000
B0525243243802S11704755EA0134401446000000000000
B0525283243742S11704736EA0135701449000000000000
B0525323243699S11704795EA0135501446000000000000
B0525363243710S11704872EA0135301449000000000000
B0525403243747S11704938EA0135301444000000000000
B0525443243804S11704991EA0134801441000000000000
B0525483243871S11705037EA0134201429000000000000
B0525523243944S11705077EA0133501426000000000000
B0525563244022S11705108EA0133101423000000000000
B0526003244102S11705134EA0132201412000000000000
B0526043244178S11705160EA0132101416000000000000
B0526083244249S11705184EA0131801410000000000000
B0526123244322S11705204EA0131001399000000000000
B0526163244399S11705228EA0130101393000000000000
B0526203244474S11705246EA0131201412000000000000
B0526243244519S11705202EA0133101431000000000000
B0526283244492S11705137EA0133901431000000000000
B0526323244423S11705135EA0133701431000000000000
B0526363244354S11705172EA0133801438000000000000
B0526403244308S11705234EA0134801446000000000000
B0526443244315S11705314EA0134801445000000000000
B0526483244367S11705359EA0135201451000000000000
B0526523244430S11705368EA0135001443000000000000
B0526563244501S11705367EA0134001432000000000000
B0527003244578S11705360EA0133001423000000000000
B0527043244655S11705347EA0132501420000000000000
B0527083244731S11705332EA0132501421000000000000
B0527123244807S11705323EA0132201417000000000000
B0527163244882S11705308EA0131701411000000000000
B0527203244960S11705294EA0130101391000000000000
B0527243245041S11705278EA0127901371000000000000
B0527283245124S11705265EA0126901363000000000000
B0527323245206S11705255EA0126901368000000000000
B0527363245284S11705246EA0127501375000000000000
B0527403245359S11705242EA0127301367000000000000
B0527443245436S11705238EA0126301356000000000000
B0527483245514S11705234EA0125301346000000000000
B0527523245593S11705232EA0124601340000000000000
B0527563245673S11705226EA0125201353000000000000
B0528003245743S11705216EA0126701364000000000000
B0528043245769S11705155EA0127701374000000000000
B0528083245719S11705102EA0127301363000000000000
B0528123245643S11705109EA0126801363000000000000
B0528163245588S11705168EA0127301374000000000000
B0528203245569S11705243EA0128101376000000000000
B0528243245591S11705314EA0128401378000000000000
B0528283245647S11705343EA0128501379000000000000
B0528323245705S11705356EA0128101370000000000000
B0528363245767S11705350EA0126601352000000000000
B0528403245832S11705330EA0125301345000000000000
B0528443245899S11705308EA0124901341000000000000
B0528483245966S11705285EA0123801329000000000000
B0528523246037S11705264EA0122801317000000000000
B0528563246109S11705245EA0122001312000000000000
B0529003246182S11705228EA0122101320000000000000
B0529043246251S11705211EA0122801320000000000000
B0529083246320S11705193EA0122301315000000000000
B0529123246390S11705173EA0121301299000000000000
B0529163246460S11705145EA0120701299000000000000
B0529203246499S11705087EA0122001318000000000000
B0529243246505S11705021EA0122901322000000000000
B0529283246482S11704955EA0122301313000000000000
B0529323246450S11704890EA0121901306000000000000
B0529363246408S11704827EA0121801311000000000000
B0529403246354S11704778EA0123001334000000000000
B0529443246293S11704804EA0125301352000000000000
B0529483246311S11704865EA0127001370000000000000
B0529523246350S11704822EA0128201378000000000000
B0529563246307S11704770EA0130401411000000000000
B0530003246255S11704807EA0132301421000000000000
B0530043246278S11704868EA0133201432000000000000
B0530083246328S11704844EA0134601451000000000000
B0530123246311S11704784EA0136601470000000000000
B0530163246251S11704777EA0137801477000000000000
B0530203246212S11704831EA0138301481000000000000
B0530243246243S11704881EA0139301493000000000000
B0530283246284S11704838EA0140501507000000015000
B0530323246250S11704782EA0142301526000000015000
B0530363246187S11704779EA0142901523000000015000
B0530403246139S11704835EA0142701526000000015000
B0530443246168S11704887EA0144301549000000015000
B0530483246204S11704848EA0145701557000000015000
B0530523246164S11704796EA0147001571000000015000
B0530563246102S11704821EA0147201566000000015000
B0531003246061S11704894EA0147201575000000015000
B0531043246055S11704964EA0149701606000000015000
B0531083246099S11704987EA0151701617000000015000
B0531123246126S11704933EA0152801630000000015000
B0531163246090S11704878EA0154101642000000015000
B0531203246021S11704885EA0154301642000000015000
B0531243245987S11704951EA0155201659000000015000
B0531283246012S11705015EA0156401665000000015000
B0531323246074S11705041EA0156401659000000015000
B0531363246151S11705056EA0154901637000000015000
B0531403246237S11705068EA0153201626000000015000
B0531443246325S11705077EA0152101609000000000000
B0531483246416S11705086EA0150801601000000000000
B0531523246507S11705096EA0149601589000000000000
B0531563246596S11705108EA0149401592000000000000
B0532003246680S11705122EA0149901597000000000000
B0532043246762S11705145EA0149901594000000000000
B0532083246843S11705168EA0149001584000000000000
B0532123246926S11705193EA0148501579000000000000
B0532163247008S11705219EA0148901590000000000000
B0532203247088S11705243EA0149001586000000000000
B0532243247171S11705264EA0148001572000000000000
B0532283247255S11705282EA0147401569000000000000
B0532323247335S11705298EA0147101566000000000000
B0532363247416S11705315EA0146701563000000000000
B0532403247496S11705332EA0145701550000000000000
B0532443247578S11705349EA0144501539000000000000
B0532483247660S11705364EA0143901531000000000000
B0532523247742S11705382EA0142801520000000000000
B0532563247824S11705397EA0141901512000000000000
B0533003247907S11705410EA0140901498000000000000
B0533043247993S11705424EA0139401486000000000000
B0533083248079S11705437EA0138601479000000000000
B0533123248163S11705449EA0137701472000000000000
B0533163248245S11705463EA0137601471000000000000
B0533203248326S11705476EA0137101463000000000000
B0533243248406S11705488EA0136201455000000000000
B0533283248487S11705494EA0135601451000000000000
B0533323248566S11705499EA0134801442000000000000
B0533363248647S11705505EA0134101434000000000000
B0533403248729S11705509EA0133401427000000000000
B0533443248811S11705511EA0132401415000000000000
B0533483248891S11705516EA0131501409000000000000
B0533523248969S11705529EA0131501407000000000000
B0533563249046S11705551EA0130301393000000000000
B0534003249125S11705576EA0128801373000000000000
B0534043249210S11705602EA0126101345000000000000
B0534083249297S11705629EA0124301333000000000000
B0534123249385S11705658EA0122901317000000000000
B0534163249474S11705689EA0121801305000000000000
B0534203249562S11705724EA0120301292000000000000
B0534243249651S11705757EA0119201284000000000000
B0534283249739S11705787EA0118701274000000000000
B0534323249826S11705818EA0117801267000000000000
B0534363249911S11705847EA0116701253000000000000
B0534403249999S11705873EA0115501248000000000000
B0534443250082S11705899EA0115401248000000000000
B0534483250164S11705921EA0114901243000000000000
B0534523250245S11705934EA0114301233000000000000
B0534563250324S11705943EA0113501228000000000000
B0535003250402S11705949EA0112801213000000000000
B0535043250483S11705952EA0111101199000000000000
B0535083250562S11705957EA0110301194000000000000
B0535123250641S11705961EA0109701185000000000000
B0535163250719S11705960EA0109801197000000000000
B0535203250789S11705958EA0111401209000000000000
B0535243250858S11705952EA0111301202000000000000
B0535283250932S11705947EA0110401190000000000000
B0535323251009S11705943EA0109301180000000000000
B0535363251087S11705939EA0108601173000000000000
B0535403251166S11705934EA0107501161000000000000
B0535443251250S11705928EA0106401150000000000000
B0535483251334S11705922EA0105301139000000000000
B0535523251417S11705917EA0104301132000000000000
B0535563251497S11705913EA0104501140000000000000
B0536003251569S11705912EA0105601150000000000000
B0536043251642S11705909EA0105801147000000000000
B0536083251715S11705904EA0105801148000000000000
B0536123251785S11705893EA0106201158000000000000
B0536163251850S11705883EA0107301168000000000000
B0536203251913S11705867EA0108301177000000000000
B0536243251954S11705817EA0109501197000000000000
B0536283251919S11705765EA0111701217000000000000
B0536323251866S11705798EA0112901225000000000000
B0536363251870S11705865EA0113701233000000000000
B0536403251919S11705892EA0114701244000000000000
B0536443251957S11705852EA0116301265000000000000
B0536483251939S11705796EA0118301280000000015000
B0536523251883S11705785EA0118901283000000015000
B0536563251841S11705839EA0119201290000000015000
B0537003251858S11705901EA0120301302000000015000
B0537043251905S11705922EA0121501311000000015000
B0537083251937S11705884EA0122401323000000015000
B0537123251920S11705830EA0123501330000000015000
B0537163251864S11705817EA0123601330000000015000
B0537203251814S11705863EA0123801332000000015000
B0537243251789S11705935EA0124301343000000015000
B0537283251823S11705980EA0125601354000000015000
B0537323251853S11705938EA0126101356000000015000
B0537363251809S11705892EA0127001370000000015000
B0537403251753S11705925EA0128301383000000015000
B0537443251747S11705991EA0129301392000000015000
B0537483251789S11706031EA0129601386000000015000
B0537523251853S11706040EA0128001368000000015000
B0537563251926S11706040EA0126801357000000015000
B0538003252000S11706030EA0126101350000000000000
B0538043252076S11706013EA0125001341000000000000
B0538083252153S11705991EA0124501334000000000000
B0538123252225S11705960EA0125101354000000000000
B0538163252284S11705923EA0127101371000000000000
B0538203252308S11705856EA0128001377000000000000
B0538243252322S11705780EA0127801370000000000000
B0538283252360S11705715EA0127901381000000000000
B0538323252410S11705666EA0128401381000000000000
B0538363252470S11705631EA0128801389000000000000
B0538403252534S11705618EA0129901398000000000000
B0538443252600S11705618EA0129801391000000000000
B0538483252672S11705610EA0129301390000000000000
B0538523252747S11705598EA0128901385000000000000
B0538563252821S11705585EA0128401377000000000000
B0539003252899S11705568EA0127201360000000000000
B0539043252976S11705551EA0126601366000000000000
B0539083253047S11705536EA0127301372000000000000
B0539123253116S11705520EA0128301387000000000000
B0539163253183S11705505EA0129901399000000000000
B0539203253249S11705488EA0129801395000000000000
B0539243253318S11705470EA0129701389000000000000
B0539283253388S11705451EA0128801384000000000000
B0539323253460S11705436EA0128801382000000000000
B0539363253531S11705421EA0128001373000000000000
B0539403253605S11705408EA0126901363000000000000
B0539443253679S11705397EA0126401356000000000000
B0539483253756S11705379EA0125501347000000000000
B0539523253834S11705358EA0124601340000000000000
B0539563253912S11705336EA0123701330000000000000
B0540003253991S11705314EA0122501318000000000000
B0540043254072S11705291EA0121301306000000000000
B0540083254154S11705268EA0120201296000000000000
B0540123254234S11705243EA0119301287000000000000
B0540163254314S11705217EA0118801284000000000000
B0540203254393S11705197EA0119001286000000000000
B0540243254472S11705177EA0118801284000000000000
B0540283254546S11705159EA0119001286000000000000
B0540323254618S11705141EA0119501295000000000000
B0540363254689S11705122EA0120201305000000000000
B0540403254760S11705102EA0121101308000000000000
B0540443254834S11705078EA0119801293000000000000
B0540483254909S11705055EA0119001287000000000000
B0540523254983S11705034EA0118701279000000000000
B0540563255059S11705015EA0117501268000000000000
B0541003255134S11704996EA0116501258000000000000
B0541043255208S11704979EA0115501249000000000000
B0541083255281S11704968EA0114601239000000000000
B0541123255352S11704959EA0113701232000000000000
B0541163255425S11704952EA0112801219000000000000
B0541203255498S11704942EA0111801211000000000000
B0541243255571S11704930EA0111901218000000000000
B0541283255641S11704916EA0113001231000000000000
B0541323255707S11704896EA0114601251000000000000
B0541363255749S11704848EA0116401266000000000000
B0541403255724S11704788EA0117801277000000000000
B0541443255659S11704794EA0117701270000000000000
B0541483255621S11704868EA0117401270000000000000
B0541523255642S11704947EA0117801277000000000000
B0541563255699S11704961EA0119801304000000000000
B0542003255723S11704904EA0121801318000000000000
B0542043255681S11704853EA0122701325000000000000
B0542083255620S11704878EA0122701325000000000000
B0542123255599S11704956EA0122801328000000000000
B0542163255632S11705021EA0123601345000000000000
B0542203255690S11705029EA0125501360000000000000
B0542243255723S11704970EA0127001376000000000000
B0542283255689S11704912EA0128201385000000000000
B0542323255625S11704925EA0129101394000000000000
B0542363255605S11704996EA0129101390000000015000
B0542403255642S11705061EA0129701401000000015000
B0542443255702S11705060EA0131701424000000000000
B0542483255715S11705000EA0133201440000000000000
B0542523255675S11704959EA0134401445000000000000
B0542563255616S11704985EA0134401448000000000000
B0543003255603S11705056EA0135101460000000015000
B0543043255641S11705109EA0136601474000000015000
B0543083255699S11705112EA0137401479000000000000
B0543123255742S11705063EA0137901487000000000000
B0543163255733S11704998EA0139301501000000000000
B0543203255677S11704977EA0139801498000000000000
B0543243255625S11705026EA0139201492000000000000
B0543283255607S11705109EA0139301499000000015000
B0543323255623S11705190EA0140601512000000000000
B0543363255675S11705230EA0141701522000000000000
B0543403255725S11705206EA0142601530000000000000
B0543443255719S11705147EA0143201535000000000000
B0543483255660S11705132EA0142701527000000000000
B0543523255595S11705171EA0142401529000000000000
B0543563255542S11705234EA0142401523000000000000
B0544003255495S11705312EA0142601531000000000000
B0544043255480S11705397EA0143901546000000000000
B0544083255494S11705476EA0144101535000000000000
B0544123255489S11705566EA0142401517000000000000
B0544163255454S11705657EA0140701500000000000000
B0544203255395S11705740EA0139401488000000000000
B0544243255334S11705821EA0138101475000000000000
B0544283255270S11705906EA0136701463000000000000
B0544323255212S11705996EA0136201461000000000000
B0544363255159S11706087EA0136701471000000000000
B0544403255113S11706165EA0138801497000000000000
B0544443255074S11706239EA0140201505000000000000
B0544483255033S11706315EA0140401504000000000000
B0544523254994S11706395EA0140001498000000000000
B0544563254952S11706480EA0139501493000000000000
B0545003254910S11706568EA0138901487000000000000
B0545043254871S11706662EA0138101479000000000000
B0545083254834S11706758EA0137801477000000000000
B0545123254800S11706854EA0136901466000000000000
B0545163254769S11706954EA0136001452000000000000
B0545203254737S11707054EA0134901444000000000000
B0545243254705S11707156EA0134101437000000000000
B0545283254663S11707252EA0133301429000000000000
B0545323254609S11707342EA0132401420000000000000
B0545363254542S11707423EA0131401410000000000000
B0545403254470S11707499EA0130601403000000000000
B0545443254396S11707570EA0130301401000000000000
B0545483254321S11707639EA0129801396000000000000
B0545523254249S11707704EA0129601395000000000000
B0545563254180S11707764EA0129501394000000000000
B0546003254111S11707817EA0128901384000000000000
B0546043254038S11707868EA0127201361000000000000
B0546083253967S11707933EA0124801343000000000000
B0546123253900S11708007EA0124001338000000000000
B0546163253837S11708076EA0123901338000000000000
B0546203253774S11708138EA0124001340000000000000
B0546243253710S11708196EA0124801354000000000000
B0546283253665S11708259EA0127001378000000000000
B0546323253681S11708319EA0128901392000000000000
B0546363253729S11708313EA0129801399000000000000
B0546403253727S11708250EA0131001417000000000000
B0546443253669S11708231EA0132601428000000000000
B0546483253626S11708281EA0133501438000000000000
B0546523253635S11708343EA0134301446000000000000
B0546563253678S11708362EA0135401456000000000000
B0547003253709S11708318EA0136301468000000000000
B0547043253682S11708261EA0138201490000000000000
B0547083253621S11708257EA0139901502000000000000
B0547123253584S11708313EA0140601509000000000000
B0547163253600S11708371EA0141201513000000000000
B0547203253649S11708384EA0141801522000000000000
B0547243253677S11708336EA0143101542000000000000
B0547283253647S11708283EA0144801552000000000000
B0547323253582S11708293EA0145601564000000000000
B0547363253556S11708356EA0147201576000000000000
B0547403253588S11708400EA0147901584000000000000
B0547443253630S11708383EA0149201598000000000000
B0547483253627S11708328EA0150101604000000000000
B0547523253570S11708297EA0150701616000000000000
B0547563253517S11708332EA0152201632000000000000
B0548003253522S11708393EA0153001634000000000000
B0548043253567S11708406EA0153501641000000000000
B0548083253591S11708363EA0154801656000000000000
B0548123253560S11708313EA0155701661000000000000
B0548163253495S11708309EA0156301673000000000000
B0548203253440S11708349EA0157501680000000000000
B0548243253422S11708414EA0158201688000000000000
B0548283253426S11708486EA0157901673000000000000
B0548323253401S11708575EA0155801654000000015000
B0548363253348S11708662EA0154301642000000000000
B0548403253283S11708744EA0153301631000000000000
B0548443253214S11708824EA0152301619000000000000
B0548483253144S11708899EA0152501632000000000000
B0548523253075S11708972EA0153701640000000000000
B0548563253007S11709045EA0154201646000000000000
B0549003252946S11709123EA0155001655000000000000
B0549043252895S11709204EA0155001647000000000000
B0549083252846S11709293EA0153501629000000000000
B0549123252799S11709388EA0152501627000000000000
B0549163252758S11709479EA0152201618000000000000
B0549203252713S11709574EA0151101606000000000000
B0549243252672S11709669EA0150401600000000000000
B0549283252630S11709763EA0149801595000000000000
B0549323252586S11709858EA0148901584000000000000
B0549363252540S11709952EA0148201581000000000000
B0549403252496S11710043EA0148901591000000000000
B0549443252452S11710131EA0150101604000000000000
B0549483252408S11710218EA0149601593000000000000
B0549523252358S11710311EA0147901576000000000000
B0549563252309S11710404EA0147001566000000000000
B0550003252258S11710498EA0146401562000000000000
B0550043252209S11710588EA0146001559000000000000
B0550083252158S11710675EA0145801560000000000000
B0550123252108S11710761EA0145701556000000000000
B0550163252058S11710846EA0145501554000000000000
B0550203252013S11710933EA0145101551000000000000
B0550243251970S11711022EA0144401542000000000000
B0550283251923S11711109EA0143801538000000000000
B0550323251876S11711196EA0143301533000000000000
B0550363251831S11711281EA0142901530000000000000
B0550403251780S11711364EA0142301519000000000000
B0550443251727S11711446EA0141601514000000000000
B0550483251675S11711528EA0141101509000000000000
B0550523251621S11711608EA0140401499000000000000
B0550563251569S11711693EA0138801485000000000000
B0551003251519S11711781EA0138001473000000000000
B0551043251468S11711869EA0136601461000000000000
B0551083251421S11711962EA0135801457000000000000
B0551123251380S11712057EA0135101448000000000000
B0551163251338S11712150EA0134301441000000000000
B0551203251300S11712243EA0134001439000000000000
B0551243251261S11712335EA0133701435000000000000
B0551283251218S11712423EA0133501434000000000000
B0551323251174S11712509EA0133401433000000000000
B0551363251130S11712596EA0133001429000000000000
B0551403251083S11712681EA0132801423000000000000
B0551443251036S11712764EA0132601426000000000000
B0551483250990S11712839EA0132801429000000000000
B0551523250936S11712909EA0132601422000000000000
B0551563250876S11712980EA0132001420000000000000
B0552003250815S11713043EA0132901435000000000000
B0552043250757S11713101EA0134401449000000000000
B0552083250700S11713158EA0135401457000000000000
B0552123250685S11713232EA0136501475000000000000
B0552163250726S11713258EA0138101485000000000000
B0552203250756S11713215EA0138101482000000000000
B0552243250733S11713151EA0138101484000000000000
B0552283250670S11713121EA0138401490000000000000
B0552323250596S11713115EA0139301499000000000000
B0552363250540S11713168EA0140501508000000000000
B0552403250553S11713240EA0141601520000000000000
B0552443250594S11713225EA0142501527000000000000
B0552483250580S11713162EA0142901534000000000000
B0552523250523S11713127EA0144301549000000000000
B0552563250451S11713145EA0144901550000000000000
B0553003250410S11713218EA0145401558000000000000
B0553043250431S11713285EA0146401569000000000000
B0553083250483S11713305EA0147301576000000000000
B0553123250525S11713273EA0147801582000000000000
B0553163250523S11713206EA0148501589000000000000
B0553203250494S11713138EA0149301597000000000000
B0553243250431S11713103EA0150001605000000000000
B0553283250359S11713138EA0150201595000000000000
B0553323250310S11713225EA0148701583000000000000
B0553363250267S11713325EA0147301567000000000000
B0553403250223S11713433EA0146001558000000000000
B0553443250177S11713544EA0144601541000000000000
B0553483250130S11713654EA0143401527000000000000
B0553523250083S11713764EA0142401520000000000000
B0553563250039S11713871EA0141901516000000000000
B0554003249995S11713978EA0141301508000000000000
B0554043249948S11714079EA0140401501000000000000
B0554083249901S11714180EA0139601492000000000000
B0554123249859S11714278EA0138901486000000000000
B0554163249813S11714376EA0138101479000000000000
B0554203249766S11714472EA0137801479000000000000
B0554243249718S11714566EA0138101485000000000000
B0554283249671S11714658EA0139001496000000000000
B0554323249625S11714748EA0140301507000000000000
B0554363249580S11714837EA0141001512000000000000
B0554403249536S11714928EA0141001509000000000000
B0554443249491S11715019EA0140401502000000000000
B0554483249441S11715110EA0139501493000000000000
B0554523249391S11715201EA0139401495000000000000
B0554563249339S11715292EA0139701491000000000000
B0555003249289S11715389EA0138701482000000000000
B0555043249246S11715490EA0137901473000000000000
B0555083249210S11715595EA0136901462000000000000
B0555123249176S11715702EA0135701452000000000000
B0555163249145S11715810EA0134901443000000000000
B0555203249119S11715916EA0134501443000000000000
B0555243249101S11716015EA0135601456000000000000
B0555283249092S11716106EA0136301462000000000000
B0555323249086S11716193EA0136701463000000000000
B0555363249089S11716280EA0136601462000000000000
B0555403249102S11716367EA0136301459000000000000
B0555443249137S11716443EA0136401461000000000000
B0555483249196S11716490EA0136601462000000000000
B0555523249259S11716486EA0136901466000000000000
B0555563249316S11716457EA0136601459000000000000
B0556003249342S11716393EA0136201455000000000000
B0556043249297S11716338EA0135901449000000000000
B0556083249225S11716360EA0135401448000000000000
B0556123249166S11716419EA0134801439000000000000
B0556163249123S11716505EA0134201436000000000000
B0556203249086S11716598EA0133801429000000000000
B0556243249040S11716689EA0133201424000000000000
B0556283248986S11716773EA0132901420000000000000
B0556323248926S11716855EA0132101412000000000000
B0556363248863S11716934EA0131801410000000000000
B0556403248800S11717011EA0132001414000000000000
B0556443248741S11717088EA0131401401000000000000
B0556483248679S11717170EA0129501384000000000000
B0556523248612S11717250EA0128001367000000000000
B0556563248552S11717339EA0127601369000000000000
B0557003248495S11717424EA0127501366000000000000
B0557043248438S11717508EA0126801356000000000000
B0557083248380S11717592EA0126001350000000000000
B0557123248315S11717671EA0124901335000000000000
B0557163248247S11717753EA0123101316000000000000
B0557203248179S11717842EA0121501303000000000000
B0557243248115S11717931EA0120301292000000000000
B0557283248048S11718015EA0119201279000000000000
B0557323247984S11718100EA0118501273000000000000
B0557363247923S11718182EA0118501280000000000000
B0557403247863S11718258EA0118801278000000000000
B0557443247798S11718325EA0118601280000000000000
B0557483247736S11718384EA0119601289000000000000
B0557523247675S11718441EA0119301281000000000000
B0557563247615S11718505EA0118201268000000000000
B0558003247560S11718579EA0117501264000000000000
B0558043247529S11718666EA0116601251000000000000
B0558083247496S11718761EA0114501228000000000000
B0558123247446S11718850EA0113301217000000000000
B0558163247383S11718930EA0112101206000000000000
B0558203247320S11719003EA0111201196000000000000
B0558243247256S11719074EA0109501177000000000000
B0558283247188S11719144EA0107901160000000000000
B0558323247118S11719214EA0105801138000000000000
B0558363247047S11719287EA0103401114000000000000
B0558403246973S11719361EA0101801103000000000000
B0558443246897S11719435EA0100901090000000000000
B0558483246823S11719508EA0099801081000000000000
B0558523246749S11719585EA0098801069000000000000
B0558563246675S11719660EA0097601060000000000000
B0559003246599S11719736EA0096801052000000000000
B0559043246525S11719810EA0095901043000000000000
B0559083246451S11719885EA0095101033000000000000
B0559123246384S11719970EA0094201024000000000000
B0559163246313S11720049EA0094101028000000000000
B0559203246246S11720122EA0095301047000000000000
B0559243246185S11720187EA0096801059000000000000
B0559283246122S11720251EA0097701065000000000000
B0559323246070S11720323EA0098601074000000000000
B0559363246091S11720391EA0099501079000000000000
B0559403246141S11720373EA0098301058000000000000
B0559443246135S11720300EA0096501047000000000000
B0559483246087S11720235EA0095901044000000000000
B0559523246018S11720191EA0096101048000000000000
B0559563245944S11720206EA0096801057000000000000
B0600003245891S11720265EA0097001055000000000000
B0600043245852S11720340EA0096401045000000000000
B0600083245813S11720422EA0095401028000000000000
B0600123245777S11720514EA0094001024000000000000
B0600163245743S11720605EA0094701034000000000000
B0600203245770S11720670EA0096001049000000000000
B0600243245817S11720648EA0096601049000000000000
B0600283245799S11720585EA0096901058000000000000
B0600323245728S11720576EA0097901064000000000000
B0600363245675S11720631EA0098601075000000000000
B0600403245669S11720708EA0099501082000000000000
B0600443245714S11720748EA0100301092000000000000
B0600483245753S11720713EA0101001098000000000000
B0600523245734S11720654EA0101801109000000000000
B0600563245674S11720633EA0102401111000000000000
B0601003245608S11720664EA0102501116000000000000
B0601043245576S11720734EA0103401125000000000000
B0601083245614S11720787EA0104301136000000000000
B0601123245663S11720776EA0105401147000000000000
B0601163245665S11720717EA0106501159000000000000
B0601203245614S11720681EA0107401166000000000000
B0601243245548S11720696EA0108301174000000000000
B0601283245519S11720760EA0109601196000000000000
B0601323245552S11720803EA0111501212000000000000
B0601363245597S11720786EA0112501218000000000000
B0601403245596S11720726EA0113601231000000000000
B0601443245539S11720700EA0114401235000000000000
B0601483245479S11720742EA0115101247000000000000
B0601523245488S11720812EA0117101274000000000000
B0601563245543S11720811EA0119001288000000000000
B0602003245550S11720748EA0120801310000000000000
B0602043245502S11720707EA0122201318000000000000
B0602083245437S11720730EA0123101326000000000000
B0602123245406S11720800EA0124001341000000000000
B0602163245428S11720869EA0126101365000000000000
B0602203245480S11720873EA0128701388000000000000
B0602243245497S11720813EA0130101398000000000000
B0602283245452S11720765EA0131001408000000000000
B0602323245390S11720791EA0132101423000000000000
B0602363245372S11720864EA0133701441000000000000
B0602403245409S11720914EA0135901468000000000000
B0602443245450S11720886EA0138401491000000000000
B0602483245444S11720826EA0140101502000000000000
B0602523245390S11720794EA0140801506000000000000
B0602563245331S11720829EA0141401516000000000000
B0603003245316S11720904EA0142901531000000000000
B0603043245353S11720963EA0144401551000000000000
B0603083245402S11720941EA0147001577000000000000
B0603123245402S11720876EA0149201597000000000000
B0603163245358S11720830EA0150501607000000000000
B0603203245296S11720842EA0151101612000000000000
B0603243245267S11720914EA0152001627000000000000
B0603283245298S11720976EA0153501644000000000000
B0603323245354S11720979EA0155401667000000000000
B0603363245379S11720924EA0157901689000000000000
B0603403245351S11720868EA0159401699000000000000
B0603443245293S11720855EA0160201704000000000000
B0603483245242S11720902EA0161301720000000000000
B0603523245233S11720977EA0162701734000000000000
B0603563245271S11721034EA0163801747000000000000
B0604003245328S11721037EA0165401767000000000000
B0604043245355S11720985EA0167901793000000000000
B0604083245333S11720927EA0169601803000000000000
B0604123245275S11720908EA0170501810000000000000
B0604163245219S11720946EA0171001816000000000000
B0604203245192S11721023EA0171701824000000000000
B0604243245207S11721097EA0172801834000000000000
B0604283245254S11721137EA0173401840000000000000
B0604323245312S11721129EA0174601851000000000000
B0604363245345S11721085EA0175901865000000000000
B0604403245325S11721027EA0176301867000000000000
B0604443245264S11721019EA0177101880000000000000
B0604483245231S11721081EA0178201887000000000000
B0604523245262S11721142EA0179201901000000000000
B0604563245314S11721136EA0180401910000000000000
B0605003245325S11721077EA0181301918000000000000
B0605043245285S11721025EA0181801924000000000000
B0605083245220S11721014EA0182401930000000000000
B0605123245155S11721045EA0182701929000000000000
B0605163245098S11721103EA0182501928000000000000
B0605203245041S11721171EA0182801939000000000000
B0605243244986S11721245EA0184101953000000000000
B0605283244933S11721319EA0186101975000000000000
B0605323244878S11721393EA0186901974000000000000
B0605363244817S11721467EA0186601973000000000000
B0605403244753S11721539EA0187501986000000000000
B0605443244691S11721605EA0188401989000000000000
B0605483244621S11721671EA0187501976000000000000
B0605523244548S11721738EA0186701970000000000000
B0605563244474S11721805EA0185801960000000000000
B0606003244400S11721874EA0185101953000000000000
B0606043244327S11721943EA0184601946000000000000
B0606083244256S11722017EA0183601934000000000000
B0606123244185S11722091EA0182801931000000000000
B0606163244120S11722169EA0182401926000000000000
B0606203244054S11722247EA0181901921000000000000
B0606243243989S11722324EA0181301915000000000000
B0606283243923S11722401EA0180901911000000000000
B0606323243856S11722476EA0180601910000000000000
B0606363243790S11722552EA0180501906000000000000
B0606403243724S11722623EA0179901902000000000000
B0606443243658S11722693EA0180101909000000000000
B0606483243595S11722765EA0180501909000000000000
B0606523243529S11722832EA0179901903000000000000
B0606563243457S11722892EA0179801903000000000000
B0607003243387S11722947EA0180501910000000000000
B0607043243320S11722999EA0180901912000000000000
B0607083243251S11723055EA0180501909000000000000
B0607123243184S11723118EA0180501909000000000000
B0607163243117S11723179EA0181701933000000000000
B0607203243054S11723234EA0184601962000000000000
B0607243242993S11723283EA0186101969000000000000
B0607283242927S11723334EA0186001965000000000000
B0607323242857S11723385EA0185901966000000000000
B0607363242790S11723436EA0186801978000000000000
B0607403242725S11723489EA0187401980000000000000
B0607443242653S11723541EA0186701967000000000000
B0607483242573S11723595EA0185201952000000000000
B0607523242490S11723657EA0184401951000000000000
B0607563242408S11723716EA0184901952000000000000
B0608003242326S11723776EA0183701935000000000000
B0608043242241S11723835EA0182401928000000000000
B0608083242159S11723892EA0182101924000000000000
B0608123242078S11723950EA0181401915000000000000
B0608163241999S11724013EA0180201899000000000000
B0608203241918S11724078EA0179001889000000000000
B0608243241836S11724143EA0178201882000000000000
B0608283241754S11724208EA0177901882000000000000
B0608323241676S11724273EA0178501888000000000000
B0608363241596S11724335EA0177701874000000000000
B0608403241511S11724395EA0176801865000000000000
B0608443241425S11724455EA0176001864000000000000
B0608483241341S11724515EA0177401883000000000000
B0608523241260S11724578EA0179001896000000000000
B0608563241182S11724645EA0179201893000000000000
B0609003241107S11724716EA0179001892000000000000
B0609043241033S11724790EA0178801888000000000000
B0609083240957S11724862EA0178401881000000000000
B0609123240882S11724937EA0177301870000000000000
B0609163240805S11725016EA0176201859000000000000
B0609203240729S11725098EA0175501854000000000000
B0609243240653S11725180EA0174901847000000000000
B0609283240579S11725263EA0174101841000000000000
B0609323240506S11725348EA0173501833000000000000
B0609363240436S11725431EA0173201830000000000000
B0609403240369S11725514EA0173101829000000000000
B0609443240302S11725592EA0172901827000000000000
B0609483240241S11725670EA0172801828000000000000
B0609523240181S11725746EA0172801827000000000000
B0609563240122S11725821EA0172501823000000000000
B0610003240060S11725896EA0171801816000000000000
B0610043239997S11725972EA0171201810000000000000
B0610083239933S11726050EA0170601804000000000000
B0610123239868S11726125EA0170101797000000000000
B0610163239803S11726203EA0169301790000000000000
B0610203239738S11726283EA0168501783000000000000
B0610243239674S11726364EA0167901775000000000000
B0610283239609S11726446EA0167201770000000000000
B0610323239543S11726524EA0166701765000000000000
B0610363239479S11726601EA0166301760000000000000
B0610403239414S11726678EA0165701753000000000000
B0610443239351S11726757EA0164901744000000000000
B0610483239288S11726838EA0164401742000000000000
B0610523239227S11726918EA0164001737000000000000
B0610563239166S11727000EA0163501731000000000000
B0611003239104S11727081EA0163001727000000000000
B0611043239040S11727157EA0162601723000000000000
B0611083238976S11727232EA0161901715000000000000
B0611123238913S11727306EA0160901706000000000000
B0611163238848S11727378EA0160201699000000000000
B0611203238781S11727449EA0159801695000000000000
B0611243238711S11727519EA0158901682000000000000
B0611283238638S11727594EA0157501671000000000000
B0611323238567S11727670EA0157101670000000000000
B0611363238497S11727744EA0157101670000000000000
B0611403238429S11727819EA0157001667000000000000
B0611443238360S11727893EA0156401660000000000000
B0611483238290S11727967EA0155701654000000000000
B0611523238218S11728040EA0155401649000000000000
B0611563238148S11728116EA0155001646000000000000
B0612003238083S11728190EA0154801645000000000000
B0612043238018S11728264EA0154701642000000000000
B0612083237951S11728334EA0153901632000000000000
B0612123237879S11728405EA0152701618000000000000
B0612163237805S11728480EA0152101615000000000000
B0612203237733S11728554EA0151801610000000000000
B0612243237663S11728632EA0150901600000000000000
B0612283237594S11728708EA0150601603000000000000
B0612323237527S11728785EA0150701599000000000000
B0612363237467S11728872EA0150101593000000000000
B0612403237418S11728964EA0150401599000000000000
B0612443237395S11729063EA0151101603000000000000
B0612483237399S11729162EA0151101605000000000000
B0612523237414S11729256EA0151801617000000000000
B0612563237437S11729338EA0153501635000000000000
B0613003237471S11729409EA0154501643000000000000
B0613043237524S11729423EA0155401651000000000000
B0613083237551S11729374EA0155001641000000000000
B0613123237515S11729314EA0154201632000000000000
B0613163237444S11729318EA0153801633000000000000
B0613203237386S11729374EA0153901634000000000000
B0613243237341S11729449EA0154101639000000000000
B0613283237303S11729535EA0153701628000000000000
B0613323237267S11729625EA0151601602000000000000
B0613363237221S11729718EA0149801591000000000000
B0613403237172S11729809EA0149101583000000000000
B0613443237124S11729903EA0148101574000000000000
B0613483237069S11729995EA0147101564000000000000
B0613523237013S11730082EA0146901564000000000000
B0613563236957S11730163EA0147401572000000000000
B0614003236904S11730241EA0147801572000000000000
B0614043236848S11730316EA0147401568000000000000
B0614083236792S11730392EA0147301568000000000000
B0614123236738S11730466EA0147101564000000000000
B0614163236684S11730547EA0146601558000000000000
B0614203236634S11730631EA0145701550000000000000
B0614243236586S11730718EA0145101541000000000000
B0614283236537S11730805EA0144401533000000000000
B0614323236488S11730891EA0144001535000000000000
B0614363236441S11730974EA0143901529000000000000
B0614403236393S11731056EA0143101524000000000000
B0614443236346S11731137EA0143301529000000000000
B0614483236302S11731216EA0143801531000000000000
B0614523236258S11731295EA0142901520000000000000
B0614563236209S11731375EA0141601504000000000000
B0615003236157S11731453EA0140401496000000000000
B0615043236107S11731528EA0139901489000000000000
B0615083236050S11731594EA0139501492000000000000
B0615123235997S11731657EA0141001511000000000000
B0615163235951S11731722EA0142301521000000000000
B0615203235910S11731791EA0143001525000000000000
B0615243235898S11731870EA0143601532000000000000
B0615283235920S11731944EA0144201537000000000000
B0615323235976S11731970EA0144601547000000000000
B0615363236014S11731925EA0145901559000000000000
B0615403235994S11731861EA0146001551000000000000
B0615443235932S11731818EA0145501552000000000000
B0615483235859S11731808EA0146801569000000000000
B0615523235834S11731875EA0148401582000000000000
B0615563235886S11731880EA0149101588000000000000
B0616003235900S11731815EA0150601615000000000000
B0616043235864S11731763EA0152601620000000000000
B0616083235799S11731767EA0151801608000000000000
B0616123235754S11731824EA0151601612000000000000
B0616163235730S11731897EA0151901613000000000000
B0616203235751S11731966EA0151701611000000000000
B0616243235811S11731997EA0151201608000000000000
B0616283235880S11732005EA0151401613000000000000
B0616323235912S11731947EA0152901634000000000000
B0616363235855S11731902EA0154201641000000000000
B0616403235803S11731945EA0155201656000000000000
B0616443235804S11732014EA0156201663000000000000
B0616483235845S11732055EA0157001671000000000000
B0616523235877S11732016EA0157801679000000000000
B0616563235854S11731952EA0158401686000000000000
B0617003235795S11731928EA0159101696000000000000
B0617043235737S11731954EA0160001700000000000000
B0617083235709S11732022EA0160401704000000000000
B0617123235739S11732081EA0161301714000000000000
B0617163235786S11732074EA0162401729000000000000
B0617203235798S11732013EA0163301737000000000000
B0617243235760S11731958EA0164301749000000000000
B0617283235698S11731961EA0165401754000000000000
B0617323235655S11732019EA0165701759000000000000
B0617363235660S11732094EA0166501767000000000000
B0617403235705S11732139EA0167801782000000000000
B0617443235756S11732120EA0169101794000000000000
B0617483235768S11732053EA0169701796000000000000
B0617523235731S11731996EA0170701810000000000000
B0617563235673S11731984EA0171401822000000000000
B0618003235618S11732017EA0172301824000000000000
B0618043235572S11732075EA0172701831000000000000
B0618083235529S11732139EA0173501838000000000000
B0618123235527S11732213EA0173801836000000000000
B0618163235573S11732250EA0173701838000000000000
B0618203235617S11732220EA0174401849000000000000
B0618243235642S11732161EA0175001851000000000000
B0618283235624S11732087EA0175201857000000000000
B0618323235564S11732049EA0176101870000000000000
B0618363235492S11732064EA0176801866000000000000
B0618403235418S11732108EA0175701847000000000000
B0618443235340S11732166EA0173901829000000000000
B0618483235260S11732230EA0172201815000000000000
B0618523235184S11732302EA0171201809000000000000
B0618563235118S11732378EA0171001811000000000000
B0619003235057S11732459EA0171301811000000000000
B0619043234989S11732534EA0171401813000000000000
B0619083234914S11732601EA0171301811000000000000
B0619123234836S11732664EA0170801804000000000000
B0619163234758S11732729EA0170101794000000000000
B0619203234677S11732797EA0169401790000000000000
B0619243234598S11732867EA0169001784000000000000
B0619283234519S11732939EA0168101777000000000000
B0619323234442S11733011EA0167501769000000000000
B0619363234372S11733091EA0166401760000000000000
B0619403234296S11733169EA0165201742000000000000
B0619443234217S11733244EA0164001735000000000000
B0619483234138S11733316EA0163301728000000000000
B0619523234057S11733384EA0163101731000000000000
B0619563233980S11733452EA0163501731000000000000
B0620003233902S11733518EA0163001726000000000000
B0620043233824S11733582EA0162801724000000000000
B0620083233746S11733644EA0162501722000000000000
B0620123233674S11733704EA0162501724000000000000
B0620163233606S11733764EA0162801725000000000000
B0620203233541S11733828EA0162501721000000000000
B0620243233482S11733895EA0162201718000000000000
B0620283233427S11733963EA0162501724000000000000
B0620323233376S11734028EA0162501721000000000000
B0620363233323S11734093EA0161501709000000000000
B0620403233264S11734162EA0160401698000000000000
B0620443233203S11734229EA0159801693000000000000
B0620483233142S11734294EA0159301688000000000000
B0620523233077S11734359EA0158601680000000000000
B0620563233012S11734427EA0157701670000000000000
B0621003232943S11734496EA0156701659000000000000
B0621043232874S11734566EA0155601648000000000000
B0621083232805S11734638EA0154901644000000000000
B0621123232738S11734707EA0154401641000000000000
B0621163232667S11734772EA0154101634000000000000
B0621203232601S11734837EA0153701629000000000000
B0621243232536S11734904EA0153001623000000000000
B0621283232470S11734972EA0152701622000000000000
B0621323232400S11735038EA0152201613000000000000
B0621363232327S11735103EA0151501609000000000000
B0621403232254S11735168EA0151401609000000000000
B0621443232180S11735230EA0151401609000000000000
B0621483232108S11735294EA0151201604000000000000
B0621523232036S11735362EA0150501596000000000000
B0621563231963S11735432EA0149801589000000000000
B0622003231889S11735501EA0149101582000000000000
