ACAM4N6
HFDTE061023
HFFXA050
HFPLTPILOT:JOHN WELSH              
HFGTYGLIDERTYPE:HORNET      
HFGIDGLIDERID:VH-GMY      
HFDTM100GPSDATUM:
HFRFWFIRMWAREVERSION:F2.6
HFRHWHARDWAREVERSION:300 Series Version 2
HFFTYFRTYPE:CAMBRIDGE AERO INSTRUMENTS, 302+
HFGPS:GARMIN,LVS-25,12,18000
HFPRSPRESSALTSENSOR:INTERSEMA, MS5534-AP, 20000
I033638FXA3941ENL4247REX
LCAMSBVER:5FWVER:F26300
C061023035233061023000102
C0000000N00000000WTAKEOFF     
C3207549S11656849EBEVERLEY AF 
C3110883S11723215EWyalkatchem 
C3152966S11809465EBruce Rock  
C3207549S11656849EBEVERLEY AF 
C0000000N00000000WLANDING     
B0412133207732S11657098EA0015000205000000000000
B0412153207732S11657098EA0015000205000000000000
B0412173207732S11657098EA0015000205000000000000
B0412193207732S11657098EA0015000205000000000000
B0412213207732S11657098EA0014900205000000000000
B0412233207732S11657098EA0015000205000000000000
B0412253207732S11657098EA0015000205000000000000
B0412273207732S11657098EA0015100205000000000000
B0412293207732S11657098EA0015000205000000000000
B0412313207732S11657098EA0015000205000000000000
B0412333207732S11657098EA0015000205000000000000
B0412353207732S11657098EA0014900205000000000000
B0412373207732S11657098EA0014900205000000000000
B0412393207731S11657098EA0015000205000000000000
B0412413207728S11657095EA0015000205000000000000
B0412443207715S11657090EA0015000205000000000000
B0412483207684S11657074EA0014900205000000000000
B0412523207640S11657049EA0015100206000000000000
B0412563207583S11657013EA0015100207000000000000
B0413003207516S11656974EA0015500211000000000000
B0413043207447S11656939EA0016600224000000000000
B0413083207376S11656906EA0017400229000000000000
B0413123207306S11656875EA0018200246000000000000
B0413163207241S11656826EA0019600266000000000000
B0413203207189S11656750EA0021700286000000000000
B0413243207161S11656653EA0023600307000000000000
B0413283207163S11656550EA0025300324000000000000
B0413323207200S11656454EA0026300335000000000000
B0413363207268S11656381EA0027200338000000000000
B0413403207351S11656337EA0028000357000000000000
B0413443207443S11656329EA0029500368000000000000
B0413483207533S11656346EA0030800385000000000000
B0413523207620S11656373EA0032200394000000000000
B0413563207705S11656414EA0033400409000000000000
B0414003207778S11656477EA0034300415000000000000
B0414043207840S11656554EA0035400427000000000000
B0414083207896S11656631EA0037000446000000000000
B0414123207945S11656701EA0039500475000000000000
B0414163207996S11656769EA0042100500000000000000
B0414203208061S11656828EA0043500515000000000000
B0414243208149S11656858EA0044500523000000000000
B0414283208239S11656832EA0045700538000000000000
B0414323208300S11656749EA0047300558000000000000
B0414363208322S11656644EA0048900573000000000000
B0414403208298S11656544EA0050900592000000000000
B0414443208231S11656483EA0052300603000000000000
B0414483208157S11656464EA0053300612000000000000
B0414523208088S11656480EA0054200627000000000000
B0414563208022S11656511EA0055500638000000000000
B0415003207960S11656554EA0056600648000000000000
B0415043207911S11656624EA0057300655000000000000
B0415083207889S11656717EA0058700674000000000000
B0415123207876S11656812EA0061100699000000000000
B0415163207875S11656910EA0063400721000000000000
B0415203207905S11657003EA0064900735000000000000
B0415243207988S11657042EA0065800744000000000000
B0415283208075S11657005EA0065900739000000000000
B0415323208123S11656910EA0065600734000000000000
B0415363208096S11656817EA0066200750000000000000
B0415403208035S11656767EA0067700776000000000000
B0415443207976S11656786EA0069900788000000000000
B0415483207966S11656862EA0070300789000000000000
B0415523208022S11656914EA0070300785000000000000
B0415563208091S11656899EA0069600777000000000000
B0416003208134S11656835EA0068700770000000000000
B0416043208157S11656760EA0068800772000000000000
B0416083208136S11656697EA0068600767000000000000
B0416123208084S11656687EA0068000762000000000000
B0416163208036S11656726EA0067900765000000000000
B0416203208009S11656789EA0068500775000000000000
B0416243208044S11656853EA0069000768000000000000
B0416283208114S11656858EA0068100759000000000000
B0416323208161S11656801EA0067300754000000000000
B0416363208175S11656722EA0066800750000000000000
B0416403208152S11656656EA0067000756000000000000
B0416443208099S11656652EA0067900766000000000000
B0416483208078S11656710EA0068800775000000000000
B0416523208131S11656758EA0069200775000000000000
B0416563208199S11656727EA0068600770000000000000
B0417003208220S11656648EA0068200760000000000000
B0417043208178S11656584EA0066900749000000000000
B0417083208114S11656585EA0066600750000000000000
B0417123208077S11656646EA0067100759000000000000
B0417163208077S11656726EA0067600754000000000000
B0417203208122S11656788EA0066600744000000000000
B0417243208191S11656788EA0066200744000000000000
B0417283208223S11656726EA0065800732000000000000
B0417323208221S11656645EA0064500724000000000000
B0417363208207S11656565EA0065100734000000000000
B0417403208158S11656518EA0066000745000000000000
B0417443208127S11656562EA0067500760000000000000
B0417483208171S11656610EA0068000760000000000000
B0417523208235S11656580EA0068200765000000000000
B0417563208230S11656506EA0068900771000000000000
B0418003208181S11656488EA0069500781000000000000
B0418043208149S11656533EA0070200787000000000000
B0418083208181S11656592EA0071100792000000000000
B0418123208238S11656575EA0070900790000000000000
B0418163208243S11656505EA0070500787000000000000
B0418203208196S11656467EA0070100781000000000000
B0418243208135S11656466EA0069800784000000000000
B0418283208130S11656526EA0070800790000000000000
B0418323208194S11656546EA0070100777000000000000
B0418363208239S11656484EA0068600760000000000000
B0418403208223S11656394EA0067500757000000000000
B0418443208183S11656315EA0067800761000000000000
B0418483208121S11656301EA0068100763000000000000
B0418523208083S11656349EA0068100758000000000000
B0418563208079S11656418EA0066700739000000000000
B0419003208078S11656494EA0064900723000000000000
B0419043208056S11656568EA0064000720000000000000
B0419083208019S11656635EA0063900718000000000000
B0419123207979S11656701EA0063500714000000000000
B0419163207939S11656767EA0063900721000000000000
B0419203207975S11656828EA0065800741000000000000
B0419243208032S11656793EA0066900751000000000000
B0419283208030S11656726EA0066500740000000000000
B0419323207976S11656697EA0065700736000000000000
B0419363207919S11656718EA0065400734000000000000
B0419403207921S11656787EA0065900741000000000000
B0419443207984S11656805EA0066100732000000000000
B0419483208027S11656743EA0065600739000000000000
B0419523208014S11656675EA0066000742000000000000
B0419563207969S11656640EA0065600735000000000000
B0420003207915S11656654EA0065300731000000000000
B0420043207878S11656705EA0064500723000000000000
B0420083207841S11656766EA0063500712000000000000
B0420123207798S11656828EA0062500701000000000000
B0420163207753S11656895EA0061400691000000000000
B0420203207714S11656969EA0060900692000000000000
B0420243207684S11657051EA0061300694000000000000
B0420283207657S11657133EA0061400695000000000000
B0420323207632S11657217EA0061300691000000000000
B0420363207607S11657302EA0060600683000000000000
B0420403207598S11657391EA0060900692000000000000
B0420443207666S11657426EA0063200721000000000000
B0420483207696S11657358EA0064500727000000000000
B0420523207654S11657328EA0065000735000000000000
B0420563207645S11657384EA0066000740000000000000
B0421003207711S11657402EA0066400743000000000000
B0421043207741S11657334EA0066600749000000000000
B0421083207703S11657298EA0067000752000000000000
B0421123207677S11657342EA0067700763000000000000
B0421163207724S11657386EA0068900776000000000000
B0421203207781S11657347EA0069500778000000000000
B0421243207772S11657281EA0069700781000000000000
B0421283207729S11657285EA0070300786000000000000
B0421323207739S11657343EA0071000797000000000000
B0421363207804S11657343EA0072000805000000000000
B0421403207823S11657276EA0072200805000000000000
B0421443207784S11657243EA0072200808000000000000
B0421483207740S11657267EA0072300808000000000000
B0421523207758S11657326EA0073000818000000000000
B0421563207830S11657316EA0073600820000000000000
B0422003207850S11657241EA0074300832000000000000
B0422043207806S11657224EA0074700826000000000000
B0422083207805S11657283EA0074800838000000000000
B0422123207870S11657308EA0075900847000000000000
B0422163207919S11657247EA0076500852000000000000
B0422203207893S11657192EA0077200858000000000000
B0422243207857S11657216EA0077300857000000000000
B0422283207857S11657280EA0077100855000000000000
B0422323207915S11657324EA0077300860000000000000
B0422363207993S11657299EA0077500863000000000000
B0422403208030S11657229EA0078500877000000000000
B0422443207995S11657183EA0079100877000000000000
B0422483207962S11657226EA0079500884000000000000
B0422523208013S11657277EA0079600881000000000000
B0422563208088S11657244EA0079700884000000000000
B0423003208114S11657165EA0080000888000000000000
B0423043208079S11657109EA0080200892000000000000
B0423083208026S11657112EA0080300889000000000000
B0423123207971S11657142EA0079300877000000000000
B0423163207919S11657191EA0077900860000000000000
B0423203207906S11657272EA0077200861000000000000
B0423243207941S11657351EA0077600867000000000000
B0423283207999S11657416EA0077300858000000000000
B0423323208075S11657450EA0076700853000000000000
B0423363208148S11657413EA0076600852000000000000
B0423403208174S11657332EA0076300849000000000000
B0423443208174S11657246EA0076100851000000000000
B0423483208132S11657185EA0076000848000000000000
B0423523208071S11657155EA0075800845000000000000
B0423563208017S11657178EA0076200857000000000000
B0424003208038S11657241EA0077400866000000000000
B0424043208106S11657256EA0077500864000000000000
B0424083208177S11657229EA0077800869000000000000
B0424123208205S11657159EA0078500875000000000000
B0424163208169S11657116EA0079000878000000000000
B0424203208129S11657138EA0078900872000000000000
B0424243208126S11657203EA0078300868000000000000
B0424283208149S11657274EA0077900863000000000000
B0424323208191S11657345EA0077900868000000000000
B0424363208259S11657361EA0078600865000000000000
B0424403208307S11657304EA0077000844000000000000
B0424443208312S11657216EA0075300836000000000000
B0424483208303S11657125EA0074700834000000000000
B0424523208288S11657035EA0074800836000000000000
B0424563208273S11656945EA0074800830000000000000
B0425003208260S11656851EA0073600818000000000000
B0425043208247S11656753EA0072800810000000000000
B0425083208231S11656659EA0072700813000000000000
B0425123208216S11656570EA0073000815000000000000
B0425163208199S11656480EA0073000815000000000000
B0425203208170S11656394EA0073200820000000000000
B0425243208134S11656318EA0074100831000000000000
B0425283208077S11656306EA0075800855000000000000
B0425323208083S11656368EA0077600862000000000000
B0425363208149S11656368EA0077300855000000000000
B0425403208162S11656290EA0077400867000000000000
B0425443208114S11656259EA0078900881000000000000
B0425483208069S11656295EA0079700885000000000000
B0425523208075S11656360EA0080100887000000000000
B0425563208138S11656373EA0080600890000000000000
B0426003208166S11656308EA0080200887000000000000
B0426043208129S11656262EA0081000898000000000000
B0426083208084S11656294EA0081200896000000000000
B0426123208067S11656364EA0080800893000000000000
B0426163208084S11656433EA0081300903000000000000
B0426203208149S11656438EA0082200909000000000000
B0426243208174S11656371EA0081400894000000000000
B0426283208134S11656319EA0080500891000000000000
B0426323208075S11656327EA0080500888000000000000
B0426363208017S11656359EA0079700879000000000000
B0426403207956S11656406EA0077800859000000000000
B0426443207891S11656462EA0076900857000000000000
B0426483207827S11656515EA0077200862000000000000
B0426523207761S11656566EA0077700867000000000000
B0426563207714S11656632EA0079500889000000000000
B0427003207761S11656691EA0081600903000000000000
B0427043207820S11656652EA0081300895000000000000
B0427083207824S11656565EA0081100900000000000000
B0427123207787S11656496EA0082000913000000000000
B0427163207724S11656480EA0082800919000000000000
B0427203207684S11656527EA0083600929000000000000
B0427243207703S11656596EA0083900924000000000000
B0427283207768S11656631EA0083400920000000000000
B0427323207843S11656611EA0083000912000000000000
B0427363207913S11656561EA0082000909000000000000
B0427403207963S11656492EA0083100923000000000000
B0427443207927S11656437EA0084500935000000000000
B0427483207891S11656483EA0084700933000000000000
B0427523207940S11656533EA0085500951000000000000
B0427563208001S11656501EA0087100964000000000000
B0428003208001S11656431EA0087800969000000000000
B0428043207949S11656420EA0088300974000000000000
B0428083207934S11656476EA0088600976000000000000
B0428123207991S11656514EA0089300990000000000000
B0428163208045S11656472EA0090100996000000000000
B0428203208028S11656411EA0090701003000000000000
B0428243207979S11656422EA0091201003000000000000
B0428283207986S11656485EA0091201001000000000000
B0428323208053S11656503EA0091701015000000000000
B0428363208084S11656438EA0092701016000000000000
B0428403208039S11656397EA0092601014000000000000
B0428443207975S11656405EA0091901004000000000000
B0428483207906S11656435EA0090800996000000000000
B0428523207843S11656489EA0091201009000000000000
B0428563207840S11656571EA0093501041000000000000
B0429003207909S11656596EA0096101064000000000000
B0429043207967S11656541EA0097301068000000000000
B0429083207952S11656467EA0098001077000000000000
B0429123207901S11656485EA0099201089000000000000
B0429163207930S11656550EA0099801093000000000000
B0429203207999S11656524EA0100201098000000000000
B0429243207993S11656454EA0101201110000000000000
B0429283207940S11656451EA0102001122000000000000
B0429323207917S11656506EA0103401137000000000000
B0429363207961S11656553EA0104401141000000000000
B0429403208026S11656518EA0104301139000000000000
B0429443208031S11656440EA0105401154000000000000
B0429483207982S11656422EA0106501167000000000000
B0429523207960S11656479EA0107601177000000000000
B0429563208006S11656527EA0108201184000000000000
B0430003208077S11656501EA0108601186000000000000
B0430043208096S11656425EA0109701205000000000000
B0430083208052S11656390EA0110801211000000000000
B0430123208014S11656432EA0111901228000000000000
B0430163208032S11656496EA0113301238000000000000
B0430203208097S11656516EA0114101246000000000000
B0430243208145S11656461EA0115101257000000000000
B0430283208127S11656398EA0116101264000000000000
B0430323208075S11656396EA0116601271000000000000
B0430363208049S11656453EA0117701284000000000000
B0430403208086S11656510EA0119101300000000000000
B0430443208155S11656533EA0120001309000000000000
B0430483208220S11656496EA0120901319000000000000
B0430523208212S11656428EA0122301330000000000000
B0430563208160S11656432EA0122601333000000000000
B0431003208152S11656498EA0123901351000000000000
B0431043208212S11656529EA0125501368000000000000
B0431083208266S11656480EA0126801379000000000000
B0431123208252S11656418EA0128301394000000000000
B0431163208203S11656425EA0129001400000000000000
B0431203208192S11656490EA0130201415000000000000
B0431243208247S11656529EA0131501427000000000000
B0431283208307S11656489EA0132701439000000000000
B0431323208304S11656422EA0134001454000000000000
B0431363208259S11656411EA0135101465000000000000
B0431403208244S11656471EA0136101475000000000000
B0431443208292S11656522EA0137401491000000000000
B0431483208360S11656503EA0138601501000000000000
B0431523208382S11656435EA0139701518000000000000
B0431563208343S11656401EA0140901527000000000000
B0432003208309S11656449EA0141901542000000000000
B0432043208348S11656503EA0143901559000000000000
B0432083208416S11656484EA0144501562000000000000
B0432123208446S11656411EA0145501579000000000000
B0432163208424S11656350EA0146901588000000000000
B0432203208369S11656347EA0147301592000000000000
B0432243208316S11656381EA0147701597000000000000
B0432283208299S11656451EA0148701606000000000000
B0432323208344S11656511EA0148901604000000000000
B0432363208425S11656510EA0148201595000000000000
B0432403208506S11656471EA0148601606000000000000
B0432443208556S11656402EA0149801631000000000000
B0432483208521S11656353EA0152401652000000000000
B0432523208483S11656392EA0153501658000000000000
B0432563208517S11656457EA0154701676000000000000
B0433003208587S11656451EA0156601694000000000000
B0433043208606S11656385EA0158201702000000000000
B0433083208560S11656358EA0159001713000000000000
B0433123208528S11656401EA0160101725000000000000
B0433163208560S11656464EA0161501735000000000000
B0433203208636S11656475EA0162201747000000000000
B0433243208704S11656431EA0163501759000000000000
B0433283208745S11656359EA0164801770000000000000
B0433323208740S11656286EA0165901783000000000000
B0433363208693S11656260EA0166901791000000000000
B0433403208656S11656307EA0167301804000000000000
B0433443208646S11656376EA0168501815000000000000
B0433483208677S11656442EA0170001830000000000000
B0433523208750S11656450EA0170701832000000000000
B0433563208805S11656390EA0171701847000000000000
B0434003208805S11656319EA0173101855000000000000
B0434043208756S11656281EA0173301859000000000000
B0434083208699S11656294EA0173901865000000000000
B0434123208643S11656332EA0174101865000000000000
B0434163208585S11656383EA0173001854000000000000
B0434203208522S11656440EA0171001828000000000000
B0434243208454S11656502EA0169301807000000000000
B0434283208381S11656565EA0167401791000000000000
B0434323208307S11656626EA0165901777000000000000
B0434363208227S11656678EA0164401761000000000000
B0434403208144S11656721EA0163001748000000000000
B0434443208060S11656756EA0162101741000000000000
B0434483207978S11656784EA0161501735000000000000
B0434523207897S11656809EA0160601725000000000000
B0434563207817S11656832EA0160001717000000000000
B0435003207737S11656847EA0159601718000000000000
B0435043207661S11656851EA0159801716000000000000
B0435083207583S11656857EA0159001706000000000000
B0435123207503S11656869EA0157801693000000000000
B0435163207424S11656886EA0156501680000000000000
B0435203207346S11656909EA0155101667000000000000
B0435243207269S11656942EA0153701651000000000000
B0435283207194S11656981EA0152201637000000000000
B0435323207121S11657023EA0151201624000000000000
B0435363207052S11657070EA0150501622000000000000
B0435403206985S11657118EA0149801614000000000000
B0435443206918S11657165EA0149401609000000000000
B0435483206852S11657212EA0148401595000000000000
B0435523206786S11657260EA0148001598000000000000
B0435563206723S11657304EA0149201611000000000000
B0436003206663S11657347EA0149701613000000000000
B0436043206600S11657386EA0149401608000000000000
B0436083206531S11657420EA0149101610000000000000
B0436123206462S11657450EA0150101626000000000000
B0436163206401S11657480EA0150801621000000000000
B0436203206333S11657514EA0148601585000000000000
B0436243206253S11657549EA0145301554000000000000
B0436283206167S11657584EA0143301540000000000000
B0436323206080S11657618EA0143401547000000000000
B0436363205997S11657649EA0143601546000000000000
B0436403205913S11657677EA0142301529000000000000
B0436443205825S11657697EA0141101514000000000000
B0436483205733S11657701EA0139601500000000000000
B0436523205644S11657709EA0138701495000000000000
B0436563205560S11657722EA0137901482000000000000
B0437003205477S11657738EA0136501468000000000000
B0437043205395S11657758EA0134701446000000000000
B0437083205310S11657774EA0133001432000000000000
B0437123205226S11657779EA0132001424000000000000
B0437163205145S11657771EA0131401419000000000000
B0437203205067S11657758EA0131101415000000000000
B0437243204989S11657748EA0130701410000000000000
B0437283204910S11657741EA0129301395000000000000
B0437323204829S11657742EA0128501384000000000000
B0437363204749S11657758EA0127901379000000000000
B0437403204669S11657783EA0127001372000000000000
B0437443204591S11657806EA0127301380000000000000
B0437483204521S11657831EA0127801382000000000000
B0437523204451S11657858EA0127201369000000000000
B0437563204381S11657891EA0126001363000000000000
B0438003204313S11657924EA0125701359000000000000
B0438043204244S11657954EA0124801345000000000000
B0438083204174S11657985EA0123201324000000000000
B0438123204097S11658014EA0120901300000000000000
B0438163204018S11658036EA0119201288000000000000
B0438203203939S11658058EA0118301277000000000000
B0438243203865S11658097EA0117601271000000000000
B0438283203794S11658145EA0117401273000000000000
B0438323203724S11658193EA0117101268000000000000
B0438363203657S11658243EA0116701260000000000000
B0438403203588S11658296EA0115501249000000000000
B0438443203527S11658356EA0115101250000000000000
B0438483203471S11658416EA0115301261000000000000
B0438523203419S11658470EA0116901279000000000000
B0438563203371S11658525EA0118401291000000000000
B0439003203322S11658581EA0119001292000000000000
B0439043203278S11658646EA0118801288000000000000
B0439083203239S11658720EA0118001279000000000000
B0439123203204S11658797EA0117301269000000000000
B0439163203166S11658873EA0116001254000000000000
B0439203203127S11658951EA0113401224000000000000
B0439243203072S11659020EA0110301193000000000000
B0439283203005S11659079EA0108601176000000000000
B0439323202932S11659119EA0107401165000000000000
B0439363202858S11659153EA0106401155000000000000
B0439403202783S11659183EA0104901132000000000000
B0439443202698S11659202EA0102601110000000000000
B0439483202613S11659214EA0100901095000000000000
B0439523202526S11659219EA0099501081000000000000
B0439563202441S11659224EA0098301069000000000000
B0440003202358S11659232EA0096801052000000000000
B0440043202276S11659245EA0095101034000000000000
B0440083202194S11659256EA0093701023000000000000
B0440123202113S11659269EA0092701014000000000000
B0440163202037S11659287EA0092301006000000000000
B0440203201963S11659315EA0091600998000000000000
B0440243201892S11659352EA0091301006000000000000
B0440283201835S11659389EA0092401014000000000000
B0440323201785S11659431EA0092501009000000000000
B0440363201740S11659480EA0091901005000000000000
B0440403201694S11659530EA0091701002000000000000
B0440443201648S11659581EA0091200998000000000000
B0440483201599S11659631EA0090700990000000000000
B0440523201553S11659687EA0089500975000000000000
B0440563201504S11659744EA0088000960000000000000
B0441003201448S11659796EA0087400959000000000000
B0441043201398S11659854EA0087700963000000000000
B0441083201354S11659916EA0087900966000000000000
B0441123201314S11659976EA0088700979000000000000
B0441163201301S11700042EA0090500996000000000000
B0441203201370S11700059EA0091601000000000000000
B0441243201414S11659989EA0091901011000000000000
B0441283201406S11659917EA0092701019000000000000
B0441323201365S11659880EA0093301023000000000000
B0441363201317S11659889EA0093601026000000000000
B0441403201288S11659941EA0093901031000000000000
B0441443201300S11700010EA0094501038000000000000
B0441483201345S11700067EA0094901040000000000000
B0441523201411S11700106EA0095201042000000000000
B0441563201471S11700060EA0096501059000000000000
B0442003201448S11700006EA0097801071000000000000
B0442043201410S11700036EA0098901082000000000000
B0442083201434S11700099EA0099601087000000000000
B0442123201504S11700124EA0100201101000000000000
B0442163201569S11700091EA0102001121000000000000
B0442203201573S11700024EA0103501133000000015000
B0442243201530S11700016EA0104601140000000015000
B0442283201519S11700078EA0105701155000000000000
B0442323201574S11700129EA0107101172000000000000
B0442363201643S11700102EA0108801190000000000000
B0442403201665S11700034EA0110401207000000015000
B0442443201636S11659990EA0111801221000000015000
B0442483201595S11700006EA0113001234000000000000
B0442523201592S11700067EA0114701248000000000000
B0442563201649S11700110EA0115501259000000000000
B0443003201716S11700076EA0116501268000000000000
B0443043201733S11700002EA0117601286000000000000
B0443083201699S11659960EA0119201301000000015000
B0443123201658S11659985EA0120501315000000000000
B0443163201674S11700052EA0122101330000000000000
B0443203201744S11700075EA0123501344000000000000
B0443243201804S11700026EA0124801356000000000000
B0443283201812S11659956EA0126301376000000000000
B0443323201781S11659917EA0127601381000000000000
B0443363201733S11659925EA0127901386000000000000
B0443403201707S11659977EA0128901402000000000000
B0443443201748S11700034EA0130401417000000000000
B0443483201818S11700020EA0131701427000000000000
B0443523201840S11659952EA0132401432000000015000
B0443563201799S11659916EA0133201447000000015000
B0444003201762S11659954EA0134901460000000000000
B0444043201794S11700019EA0135701469000000000000
B0444083201866S11700028EA0137301490000000000000
B0444123201915S11659980EA0138701499000000000000
B0444163201908S11659915EA0138901502000000015000
B0444203201864S11659887EA0140001517000000015000
B0444243201821S11659912EA0141401526000000000000
B0444283201829S11659980EA0142001533000000000000
B0444323201896S11700011EA0142701545000000000000
B0444363201959S11659969EA0144001556000000000000
B0444403201972S11659898EA0145001565000000000000
B0444443201938S11659855EA0146001577000000000000
B0444483201894S11659870EA0147301585000000000000
B0444523201882S11659932EA0148001593000000000000
B0444563201924S11659990EA0148701601000000000000
B0445003201994S11700007EA0149901615000000000000
B0445043202068S11700000EA0150401616000000000000
B0445083202128S11659948EA0150701619000000000000
B0445123202137S11659872EA0151001628000000000000
B0445163202107S11659813EA0152001635000000000000
B0445203202056S11659792EA0152601640000000000000
B0445243202006S11659818EA0153101647000000000000
B0445283201963S11659863EA0153501650000000000000
B0445323201921S11659917EA0153801654000000000000
B0445363201877S11659977EA0153101639000000000000
B0445403201827S11700045EA0151501626000000000000
B0445443201769S11700106EA0150201612000000000000
B0445483201696S11700154EA0149001597000000000000
B0445523201616S11700195EA0148201591000000000000
B0445563201534S11700240EA0148001592000000000000
B0446003201453S11700289EA0147601581000000000000
B0446043201369S11700345EA0147001582000000000000
B0446083201292S11700403EA0147801593000000000000
B0446123201218S11700458EA0148101586000000000000
B0446163201142S11700515EA0147101579000000000000
B0446203201071S11700574EA0147001576000000000000
B0446243201001S11700637EA0146001566000000000000
B0446283200924S11700691EA0144101545000000000000
B0446323200845S11700743EA0142501530000000000000
B0446363200768S11700804EA0141201519000000000000
B0446403200696S11700873EA0140401510000000000000
B0446443200628S11700946EA0139501501000000000000
B0446483200568S11701024EA0139301501000000000000
B0446523200513S11701103EA0138601492000000000000
B0446563200459S11701177EA0138001485000000000000
B0447003200405S11701248EA0137001475000000000000
B0447043200356S11701323EA0136101464000000000000
B0447083200310S11701397EA0135001455000000000000
B0447123200265S11701472EA0133701438000000000000
B0447163200223S11701551EA0132301420000000000000
B0447203200183S11701633EA0130401399000000000000
B0447243200141S11701718EA0128501385000000000000
B0447283200097S11701801EA0127501372000000000000
B0447323200052S11701882EA0126201360000000000000
B0447363200002S11701956EA0125601356000000000000
B0447403159953S11702027EA0124601343000000000000
B0447443159907S11702105EA0124101342000000000000
B0447483159867S11702182EA0125001354000000000000
B0447523159828S11702252EA0125301354000000000000
B0447563159786S11702322EA0124801348000000000000
B0448003159746S11702395EA0124501346000000000000
B0448043159703S11702465EA0124101343000000000000
B0448083159659S11702535EA0123301331000000000000
B0448123159612S11702606EA0122601325000000000000
B0448163159560S11702672EA0122101322000000000000
B0448203159506S11702740EA0122601331000000000000
B0448243159455S11702807EA0122901328000000000000
B0448283159403S11702876EA0122501329000000000000
B0448323159352S11702944EA0123001333000000000000
B0448363159305S11703010EA0123501341000000000000
B0448403159260S11703075EA0124301349000000000000
B0448443159221S11703137EA0125801365000000000000
B0448483159182S11703202EA0126001356000000000000
B0448523159136S11703271EA0125501357000000000000
B0448563159090S11703336EA0125601354000000000000
B0449003159040S11703401EA0124301335000000000000
B0449043158987S11703466EA0122901328000000000000
B0449083158935S11703526EA0122801329000000000000
B0449123158883S11703583EA0122301314000000000000
B0449163158830S11703646EA0120201297000000000000
B0449203158775S11703708EA0119301291000000000000
B0449243158722S11703765EA0119801306000000000000
B0449283158671S11703817EA0120901314000000000000
B0449323158624S11703867EA0121801321000000000000
B0449363158579S11703919EA0121601315000000000000
B0449403158529S11703973EA0121101312000000000000
B0449443158479S11704029EA0121601322000000000000
B0449483158428S11704084EA0122301317000000000000
B0449523158377S11704146EA0120701300000000000000
B0449563158328S11704211EA0119101283000000000000
B0450003158275S11704275EA0117801269000000000000
B0450043158221S11704340EA0116401256000000000000
B0450083158167S11704405EA0114901240000000000000
B0450123158112S11704471EA0113401221000000000000
B0450163158055S11704541EA0111301200000000000000
B0450203157999S11704613EA0109701186000000000000
B0450243157943S11704684EA0108601175000000000000
B0450283157887S11704753EA0107401160000000000000
B0450323157827S11704818EA0106201152000000000000
B0450363157768S11704881EA0105701146000000000000
B0450403157706S11704931EA0105901158000000000000
B0450443157651S11704976EA0106801161000000000000
B0450483157599S11705022EA0106401157000000000000
B0450523157543S11705061EA0106201153000000000000
B0450563157484S11705093EA0105701149000000000000
B0451003157424S11705122EA0105001140000000000000
B0451043157363S11705160EA0104001128000000000000
B0451083157301S11705202EA0103501127000000000000
B0451123157236S11705234EA0103501129000000000000
B0451163157173S11705262EA0103401124000000000000
B0451203157111S11705291EA0102601111000000000000
B0451243157053S11705332EA0101301100000000000000
B0451283156994S11705375EA0100701102000000000000
B0451323156938S11705420EA0101501110000000000000
B0451363156891S11705471EA0102701130000000000000
B0451403156891S11705536EA0104601141000000000000
B0451443156967S11705549EA0104601133000000000000
B0451483157021S11705484EA0104401138000000000000
B0451523157019S11705407EA0104901146000000000000
B0451563156978S11705360EA0105501147000000000000
B0452003156925S11705347EA0104901138000000000000
B0452043156869S11705360EA0104201133000000000000
B0452083156816S11705385EA0103201120000000000000
B0452123156760S11705418EA0102201112000000000000
B0452163156713S11705467EA0101901111000000000000
B0452203156674S11705525EA0101901113000000000000
B0452243156630S11705580EA0102401116000000000000
B0452283156583S11705627EA0102001112000000000000
B0452323156531S11705672EA0101301097000000000000
B0452363156477S11705722EA0099501077000000000000
B0452403156419S11705779EA0097201051000000000000
B0452443156353S11705824EA0095001030000000000000
B0452483156282S11705854EA0093401019000000000000
B0452523156210S11705869EA0092501007000000000000
B0452563156139S11705870EA0090900989000000000000
B0453003156066S11705867EA0088900970000000000000
B0453043155992S11705862EA0087600958000000000000
B0453083155919S11705853EA0087200957000000000000
B0453123155847S11705847EA0087200957000000000000
B0453163155776S11705837EA0086400945000000000000
B0453203155702S11705830EA0085100933000000000000
B0453243155628S11705818EA0084100924000000000000
B0453283155556S11705805EA0083100910000000000000
B0453323155483S11705789EA0081900902000000000000
B0453363155413S11705775EA0081500895000000000000
B0453403155342S11705771EA0079800877000000000000
B0453443155268S11705772EA0078700862000000000000
B0453483155195S11705774EA0077000848000000000000
B0453523155125S11705780EA0076100836000000000000
B0453563155056S11705797EA0075200834000000000000
B0454003154989S11705810EA0075000828000000000000
B0454043154924S11705822EA0074500829000000000000
B0454083154863S11705836EA0075800844000000000000
B0454123154805S11705848EA0076100843000000000000
B0454163154746S11705867EA0075700835000000000000
B0454203154726S11705928EA0075400831000000000000
B0454243154776S11705982EA0074400819000000000000
B0454283154854S11706004EA0074000824000000000000
B0454323154932S11705995EA0075000840000000000000
B0454363154958S11705919EA0076600844000000000000
B0454403154922S11705866EA0076200838000000000000
B0454443154871S11705878EA0075900835000000000000
B0454483154856S11705940EA0075400835000000000000
B0454523154872S11706010EA0075800842000000000000
B0454563154934S11706023EA0077200858000000000000
B0455003154963S11705958EA0078100858000000000000
B0455043154927S11705902EA0078000859000000000000
B0455083154883S11705925EA0079000873000000000000
B0455123154901S11705980EA0079500874000000000000
B0455163154963S11705988EA0079800880000000000000
B0455203155000S11705927EA0080400887000000000000
B0455243154976S11705865EA0080700889000000000000
B0455283154926S11705867EA0081200894000000000000
B0455323154928S11705926EA0081300891000000000000
B0455363154991S11705947EA0081300897000000000000
B0455403155039S11705897EA0082100902000000000000
B0455443155027S11705824EA0082000899000000000000
B0455483154978S11705772EA0081800899000000000000
B0455523154922S11705778EA0082300904000000000000
B0455563154911S11705841EA0081900890000000000000
B0456003154952S11705904EA0080700881000000000000
B0456043154999S11705965EA0080000878000000000000
B0456083155051S11706019EA0080000878000000000000
B0456123155119S11706025EA0080400883000000000000
B0456163155162S11705965EA0080000872000000000000
B0456203155142S11705893EA0078400853000000000000
B0456243155082S11705867EA0077400852000000000000
B0456283155019S11705856EA0077200851000000000000
B0456323154956S11705852EA0076900847000000000000
B0456363154892S11705854EA0076000834000000000000
B0456403154828S11705869EA0074500820000000000000
B0456443154776S11705908EA0073600811000000000000
B0456483154762S11705979EA0073200805000000000000
B0456523154792S11706048EA0072300795000000000000
B0456563154862S11706078EA0071700792000000000000
B0457003154940S11706078EA0070800783000000000000
B0457043155019S11706062EA0070000770000000000000
B0457083155097S11706032EA0068900757000000000000
B0457123155161S11705975EA0067700746000000000000
B0457163155209S11705896EA0066300731000000000000
B0457203155243S11705806EA0064800717000000000000
B0457243155272S11705711EA0063800708000000000000
B0457283155292S11705614EA0063400706000000000000
B0457323155307S11705515EA0063000704000000000000
B0457363155337S11705420EA0063000705000000000000
B0457403155413S11705392EA0063900719000000000000
B0457443155448S11705446EA0064600719000000015000
B0457483155412S11705476EA0064800728000000015000
B0457523155370S11705434EA0065600730000000015000
B0457563155370S11705355EA0065700734000000015000
B0458003155409S11705288EA0066000735000000000000
B0458043155478S11705262EA0065900731000000015000
B0458083155545S11705288EA0065100724000000015000
B0458123155573S11705347EA0064900724000000015000
B0458163155560S11705401EA0064400718000000015000
B0458203155516S11705434EA0064100715000000015000
B0458243155469S11705468EA0063500709000000015000
B0458283155487S11705527EA0063800712000000000000
B0458323155558S11705520EA0063700708000000000000
B0458363155603S11705451EA0063500707000000000000
B0458403155598S11705371EA0063200700000000000000
B0458443155552S11705314EA0062300691000000000000
B0458483155509S11705250EA0061800689000000000000
B0458523155507S11705165EA0062000700000000000000
B0458563155541S11705089EA0062900708000000000000
B0459003155578S11705017EA0063400710000000000000
B0459043155613S11704939EA0063100706000000000000
B0459083155646S11704855EA0063100709000000000000
B0459123155655S11704765EA0063700715000000000000
B0459163155608S11704732EA0064900726000000000000
B0459203155582S11704782EA0065400730000000000000
B0459243155623S11704831EA0066400744000000000000
B0459283155684S11704813EA0067100748000000000000
B0459323155704S11704736EA0067400752000000000000
B0459363155668S11704686EA0067800752000000000000
B0459403155624S11704714EA0067900759000000000000
B0459443155649S11704773EA0068500765000000000000
B0459483155715S11704769EA0069200770000000000000
B0459523155749S11704696EA0069500772000000000000
B0459563155715S11704644EA0070100780000000000000
B0500003155673S11704671EA0070800788000000000000
B0500043155699S11704729EA0071500791000000000000
B0500083155764S11704718EA0071300789000000000000
B0500123155799S11704643EA0071000787000000000000
B0500163155766S11704591EA0072000799000000015000
B0500203155729S11704628EA0073200813000000000000
B0500243155751S11704686EA0073900817000000000000
B0500283155816S11704692EA0074100822000000000000
B0500323155851S11704626EA0074600826000000000000
B0500363155825S11704567EA0075100829000000015000
B0500403155775S11704575EA0075500837000000000000
B0500443155754S11704631EA0076600849000000000000
B0500483155779S11704687EA0077700860000000000000
B0500523155837S11704705EA0078100860000000000000
B0500563155885S11704653EA0078000860000000000000
B0501003155880S11704582EA0078300865000000000000
B0501043155836S11704562EA0079200871000000000000
B0501083155814S11704614EA0079300873000000000000
B0501123155862S11704662EA0080100882000000000000
B0501163155924S11704638EA0080800893000000000000
B0501203155945S11704570EA0081100893000000000000
B0501243155909S11704524EA0081100895000000015000
B0501283155868S11704557EA0081900903000000000000
B0501323155886S11704619EA0082900914000000000000
B0501363155953S11704623EA0083400917000000000000
B0501403155997S11704565EA0084100925000000000000
B0501443155983S11704500EA0084300924000000015000
B0501483155935S11704498EA0084800935000000000000
B0501523155932S11704558EA0086100948000000000000
B0501563155990S11704586EA0086800951000000000000
B0502003156049S11704550EA0087000956000000000000
B0502043156066S11704480EA0087400960000000000000
B0502083156032S11704432EA0087600962000000000000
B0502123155977S11704424EA0088400972000000000000
B0502163155951S11704478EA0089700984000000000000
B0502203156010S11704510EA0090800996000000000000
B0502243156066S11704462EA0091601006000000000000
B0502283156066S11704391EA0092001004000000015000
B0502323156014S11704371EA0092201016000000015000
B0502363155959S11704385EA0093501030000000000000
B0502403155932S11704439EA0094901047000000000000
B0502443155980S11704478EA0096401054000000000000
B0502483156040S11704436EA0096101049000000000000
B0502523156045S11704358EA0096901066000000000000
B0502563156014S11704297EA0098201077000000015000
B0503003155962S11704288EA0099101085000000000000
B0503043155950S11704341EA0100401101000000000000
B0503083155994S11704378EA0101401106000000000000
B0503123156058S11704362EA0101401107000000000000
B0503163156091S11704290EA0102001117000000000000
B0503203156058S11704232EA0103401134000000015000
B0503243156010S11704242EA0104501136000000000000
B0503283156000S11704303EA0104901148000000000000
B0503323156040S11704353EA0106201157000000000000
B0503363156107S11704349EA0106201154000000000000
B0503403156150S11704281EA0106401164000000000000
B0503443156130S11704211EA0108101180000000000000
B0503483156078S11704202EA0109401190000000000000
B0503523156078S11704262EA0110601205000000000000
B0503563156141S11704270EA0111501214000000000000
B0504003156179S11704205EA0113201234000000000000
B0504043156157S11704142EA0114401247000000015000
B0504083156109S11704132EA0115301252000000000000
B0504123156080S11704176EA0115901260000000000000
B0504163156119S11704220EA0117501279000000000000
B0504203156180S11704190EA0118301285000000000000
B0504243156193S11704116EA0119701306000000015000
B0504283156161S11704064EA0121001311000000015000
B0504323156110S11704064EA0121001310000000000000
B0504363156088S11704112EA0121801324000000000000
B0504403156131S11704150EA0123301338000000000000
B0504443156196S11704118EA0124001346000000000000
B0504483156211S11704040EA0125501362000000015000
B0504523156171S11703990EA0126601370000000015000
B0504563156123S11704002EA0127601380000000000000
B0505003156109S11704053EA0128001378000000000000
B0505043156139S11704105EA0127501375000000000000
B0505083156197S11704144EA0127401377000000000000
B0505123156267S11704158EA0128001387000000000000
B0505163156326S11704108EA0129001399000000000000
B0505203156336S11704032EA0130401412000000015000
B0505243156286S11703999EA0131101415000000015000
B0505283156249S11704042EA0131801427000000000000
B0505323156282S11704098EA0133401444000000000000
B0505363156349S11704099EA0134801454000000000000
B0505403156395S11704040EA0135601466000000015000
B0505443156382S11703968EA0136901478000000015000
B0505483156328S11703947EA0137201478000000015000
B0505523156287S11703985EA0137701491000000000000
B0505563156301S11704042EA0139401509000000000000
B0506003156367S11704055EA0140501517000000000000
B0506043156422S11704003EA0141801533000000000000
B0506083156429S11703932EA0143301548000000015000
B0506123156395S11703880EA0143801545000000015000
B0506163156339S11703872EA0143601551000000015000
B0506203156297S11703904EA0145301570000000000000
B0506243156291S11703955EA0147301589000000000000
B0506283156334S11703991EA0147201575000000000000
B0506323156408S11703993EA0146001575000000000000
B0506363156482S11703973EA0147101588000000000000
B0506403156526S11703911EA0148001599000000000000
B0506443156505S11703845EA0148901603000000000000
B0506483156449S11703826EA0149201604000000000000
B0506523156387S11703832EA0149201610000000000000
B0506563156325S11703843EA0150001617000000000000
B0507003156262S11703858EA0150801623000000000000
B0507043156198S11703873EA0150601619000000000000
B0507083156136S11703889EA0151401632000000000000
B0507123156078S11703908EA0153401653000000000000
B0507163156066S11703967EA0155801679000000000000
B0507203156128S11703994EA0156901682000000000000
B0507243156192S11703945EA0157201692000000000000
B0507283156201S11703865EA0158601712000000000000
B0507323156162S11703817EA0160501727000000000000
B0507363156120S11703832EA0162101744000000000000
B0507403156126S11703886EA0163301748000000000000
B0507443156185S11703920EA0163401752000000000000
B0507483156253S11703891EA0164401768000000000000
B0507523156289S11703824EA0166301788000000000000
B0507563156286S11703756EA0167801800000000000000
B0508003156249S11703726EA0168201799000000000000
B0508043156213S11703755EA0168501811000000000000
B0508083156237S11703813EA0169501817000000000000
B0508123156306S11703820EA0170401834000000000000
B0508163156354S11703768EA0172201851000000000000
B0508203156357S11703703EA0173001848000000000000
B0508243156313S11703672EA0172201842000000000000
B0508283156269S11703695EA0173101862000000000000
B0508323156260S11703751EA0175201882000000000000
B0508363156296S11703800EA0176701893000000000000
B0508403156364S11703807EA0177101897000000000000
B0508443156419S11703761EA0178401914000000000000
B0508483156421S11703696EA0179501919000000000000
B0508523156378S11703663EA0178801909000000015000
B0508563156330S11703679EA0179001925000000000000
B0509003156312S11703729EA0181301951000000000000
B0509043156334S11703782EA0183301961000000000000
B0509083156395S11703813EA0183701962000000000000
B0509123156464S11703793EA0184601985000000000000
B0509163156504S11703737EA0186601997000000000000
B0509203156508S11703672EA0186801989000000000000
B0509243156469S11703633EA0185301973000000000000
B0509283156414S11703638EA0184801976000000000000
B0509323156364S11703665EA0185601987000000000000
B0509363156314S11703704EA0186701997000000000000
B0509403156266S11703747EA0187302003000000000000
B0509443156214S11703795EA0187802009000000000000
B0509483156162S11703848EA0187601994000000000000
B0509523156098S11703910EA0186101986000000000000
B0509563156029S11703971EA0185701981000000000000
B0510003155957S11704032EA0185401980000000000000
B0510043155888S11704090EA0186501995000000000000
B0510083155821S11704146EA0186901995000000000000
B0510123155758S11704203EA0187101998000000000000
B0510163155694S11704257EA0187101995000000000000
B0510203155630S11704314EA0186201982000000000000
B0510243155565S11704370EA0185601983000000000000
B0510283155504S11704420EA0186501991000000000000
B0510323155443S11704471EA0186001978000000000000
B0510363155377S11704524EA0184601965000000000000
B0510403155311S11704576EA0184201964000000000000
B0510443155246S11704625EA0183901959000000000000
B0510483155181S11704669EA0183601958000000000000
B0510523155119S11704717EA0182901950000000000000
B0510563155058S11704768EA0182801950000000000000
B0511003155000S11704814EA0182601947000000000000
B0511043154941S11704862EA0181701934000000000000
B0511083154880S11704913EA0179901912000000000000
B0511123154817S11704969EA0178401902000000000000
B0511163154755S11705025EA0177501892000000000000
B0511203154690S11705077EA0176101876000000000000
B0511243154624S11705124EA0175001868000000000000
B0511283154558S11705169EA0174001857000000000000
B0511323154492S11705216EA0173001845000000000000
B0511363154427S11705265EA0172001838000000000000
B0511403154365S11705312EA0172001835000000000000
B0511443154306S11705362EA0170801819000000000000
B0511483154246S11705414EA0169601810000000000000
B0511523154183S11705462EA0168401796000000000000
B0511563154122S11705509EA0167101781000000000000
B0512003154063S11705557EA0165601767000000000000
B0512043154004S11705603EA0164401757000000000000
B0512083153948S11705657EA0163001739000000000000
B0512123153891S11705714EA0161601728000000000000
B0512163153834S11705771EA0160701714000000000000
B0512203153774S11705827EA0159301702000000000000
B0512243153709S11705878EA0158201691000000000000
B0512283153640S11705925EA0157001675000000000000
B0512323153574S11705975EA0155901669000000000000
B0512363153507S11706025EA0155101660000000000000
B0512403153444S11706074EA0155301665000000000000
B0512443153387S11706123EA0156601683000000000000
B0512483153338S11706169EA0158201704000000000000
B0512523153294S11706214EA0159001703000000000000
B0512563153246S11706260EA0159201706000000000000
B0513003153195S11706303EA0159601710000000000000
B0513043153145S11706342EA0160301723000000000000
B0513083153094S11706378EA0161101727000000000000
B0513123153041S11706413EA0161501732000000000000
B0513163152985S11706448EA0161701732000000000000
B0513203152929S11706485EA0161801734000000000000
B0513243152874S11706525EA0162901751000000000000
B0513283152877S11706594EA0164901769000000000000
B0513323152950S11706604EA0165201760000000000000
B0513363153000S11706534EA0164901773000000000000
B0513403153011S11706452EA0166601791000000000000
B0513443152976S11706396EA0168101803000000000000
B0513483152922S11706394EA0168701806000000000000
B0513523152865S11706417EA0169501820000000000000
B0513563152844S11706474EA0170901829000000000000
B0514003152893S11706521EA0170901818000000000000
B0514043152961S11706491EA0169901815000000000000
B0514083152985S11706416EA0170601833000000000000
B0514123152980S11706341EA0172101846000000000000
B0514163152950S11706277EA0173401859000000000000
B0514203152893S11706263EA0174101861000000000000
B0514243152856S11706305EA0174101859000000000000
B0514283152889S11706361EA0173701850000000000000
B0514323152956S11706357EA0172701842000000000000
B0514363152981S11706278EA0172001838000000015000
B0514403152963S11706192EA0172301852000000000000
B0514443152922S11706130EA0173801864000000000000
B0514483152867S11706123EA0174301860000000000000
B0514523152812S11706156EA0173101842000000000000
B0514563152756S11706207EA0172401847000000000000
B0515003152700S11706260EA0173601861000000000000
B0515043152648S11706315EA0175401877000000000000
B0515083152597S11706373EA0175801879000000000000
B0515123152551S11706437EA0176101881000000000000
B0515163152509S11706507EA0176001878000000000000
B0515203152467S11706582EA0175401872000000000000
B0515243152427S11706660EA0175401873000000000000
B0515283152389S11706736EA0175401875000000000000
B0515323152350S11706811EA0174301853000000000000
B0515363152301S11706889EA0172201835000000000000
B0515403152237S11706954EA0171101825000000000000
B0515443152165S11707006EA0169801812000000000000
B0515483152085S11707048EA0168601802000000000000
B0515523152002S11707084EA0167801794000000000000
B0515563151919S11707117EA0167101786000000000000
B0516003151836S11707147EA0166101775000000000000
B0516043151755S11707178EA0164701760000000000000
B0516083151674S11707214EA0163101741000000000000
B0516123151593S11707251EA0161001723000000000000
B0516163151509S11707288EA0159401710000000000000
B0516203151427S11707325EA0158301697000000000000
B0516243151347S11707360EA0157101680000000000000
B0516283151264S11707394EA0154801654000000000000
B0516323151179S11707422EA0152901634000000000000
B0516363151093S11707451EA0150601614000000000000
B0516403151011S11707481EA0149401605000000000000
B0516443150932S11707509EA0147701582000000000000
B0516483150852S11707539EA0145101556000000000000
B0516523150771S11707568EA0143401543000000000000
B0516563150693S11707598EA0142401528000000000000
B0517003150614S11707630EA0140401505000000000000
B0517043150534S11707663EA0139301503000000000000
B0517083150458S11707694EA0138601491000000000000
B0517123150380S11707725EA0137301477000000000000
B0517163150299S11707750EA0136801476000000000000
B0517203150217S11707768EA0136701475000000000000
B0517243150135S11707785EA0136401473000000000000
B0517283150055S11707804EA0136201466000000000000
B0517323149977S11707838EA0135301460000000000000
B0517363149904S11707880EA0135101457000000000000
B0517403149835S11707927EA0134101444000000000000
B0517443149766S11707979EA0132701430000000000000
B0517483149698S11708032EA0131201414000000000000
B0517523149627S11708083EA0129601398000000000000
B0517563149552S11708123EA0128601390000000000000
B0518003149476S11708158EA0127401377000000000000
B0518043149405S11708201EA0126401364000000000000
B0518083149331S11708240EA0125301355000000000000
B0518123149255S11708274EA0124501346000000000000
B0518163149180S11708305EA0123601340000000000000
B0518203149103S11708333EA0122701326000000000000
B0518243149026S11708354EA0121601315000000000000
B0518283148950S11708374EA0120301300000000000000
B0518323148877S11708401EA0119001289000000000000
B0518363148809S11708440EA0118901290000000000000
B0518403148746S11708480EA0118601286000000000000
B0518443148682S11708522EA0117901278000000000000
B0518483148619S11708567EA0117401274000000000000
B0518523148561S11708617EA0117201275000000000000
B0518563148505S11708668EA0117501276000000000000
B0519003148462S11708720EA0119201310000000000000
B0519043148445S11708778EA0122001326000000000000
B0519083148496S11708824EA0122601324000000000000
B0519123148567S11708799EA0122301326000000000000
B0519163148609S11708729EA0122801333000000000000
B0519203148613S11708651EA0123001333000000000000
B0519243148582S11708587EA0122801331000000000000
B0519283148531S11708547EA0122801329000000000000
B0519323148473S11708536EA0123001335000000000000
B0519363148417S11708560EA0123001335000000000000
B0519403148363S11708595EA0123101336000000000000
B0519443148315S11708638EA0123001333000000000000
B0519483148271S11708692EA0122801332000000000000
B0519523148227S11708751EA0122201324000000000000
B0519563148184S11708811EA0121801320000000000000
B0520003148146S11708873EA0121201314000000000000
B0520043148109S11708937EA0120701309000000000000
B0520083148071S11708999EA0119501295000000000000
B0520123148025S11709061EA0118301280000000000000
B0520163147968S11709113EA0116901267000000000000
B0520203147907S11709158EA0115701255000000000000
B0520243147841S11709194EA0114701248000000000000
B0520283147772S11709225EA0114701249000000000000
B0520323147702S11709249EA0115101250000000000000
B0520363147637S11709281EA0115301259000000000000
B0520403147576S11709315EA0115601257000000000000
B0520443147512S11709353EA0114601246000000000000
B0520483147444S11709393EA0114001238000000000000
B0520523147374S11709432EA0113301236000000000000
B0520563147305S11709468EA0113201234000000000000
B0521003147239S11709506EA0113201230000000000000
B0521043147174S11709549EA0112801225000000000000
B0521083147114S11709600EA0112501228000000000000
B0521123147062S11709649EA0113901246000000000000
B0521163147018S11709698EA0116001266000000000000
B0521203147028S11709766EA0117801281000000000000
B0521243147101S11709761EA0118301287000000000000
B0521283147127S11709691EA0119501299000000000000
B0521323147102S11709632EA0119701299000000000000
B0521363147048S11709611EA0120201311000000000000
B0521403147023S11709663EA0121801328000000000000
B0521443147085S11709704EA0123101337000000000000
B0521483147153S11709663EA0124001354000000000000
B0521523147166S11709591EA0125901375000000000000
B0521563147141S11709537EA0127301384000000000000
B0522003147095S11709516EA0127801383000000000000
B0522043147052S11709548EA0128001392000000000000
B0522083147078S11709606EA0129401405000000000000
B0522123147149S11709602EA0130301415000000000000
B0522163147195S11709545EA0132001435000000000000
B0522203147195S11709477EA0133301443000000000000
B0522243147160S11709431EA0133201437000000000000
B0522283147113S11709446EA0133001442000000000000
B0522323147101S11709507EA0133501447000000000000
B0522363147134S11709571EA0133901450000000000000
B0522403147195S11709619EA0134401459000000000000
B0522443147264S11709658EA0135701474000000000000
B0522483147329S11709626EA0137201484000000000000
B0522523147335S11709555EA0138601502000000000000
B0522563147301S11709515EA0140301517000000000000
B0523003147260S11709526EA0141001526000000000000
B0523043147240S11709576EA0142101538000000000000
B0523083147267S11709639EA0142801543000000000000
B0523123147336S11709667EA0143301550000000000000
B0523163147401S11709631EA0144301562000000000000
B0523203147422S11709562EA0146001581000000000000
B0523243147396S11709509EA0147401592000000000000
B0523283147351S11709505EA0148101598000000000000
B0523323147332S11709562EA0149001607000000000000
B0523363147374S11709623EA0149301606000000000000
B0523403147444S11709650EA0149301614000000000000
B0523443147509S11709620EA0150701630000000000000
B0523483147526S11709558EA0152001638000000000000
B0523523147488S11709527EA0152601646000000000000
B0523563147449S11709563EA0153501657000000000000
B0524003147451S11709630EA0154501663000000000000
B0524043147505S11709679EA0154701663000000000000
B0524083147574S11709662EA0155201672000000000000
B0524123147603S11709601EA0156001680000000000000
B0524163147579S11709552EA0156201681000000000000
B0524203147530S11709542EA0156601689000000000000
B0524243147492S11709589EA0157101688000000000000
B0524283147513S11709669EA0156601682000000000000
B0524323147590S11709698EA0156401682000000000000
B0524363147659S11709656EA0156901693000000000000
B0524403147709S11709593EA0157601696000000000000
B0524443147729S11709519EA0157701698000000000000
B0524483147708S11709461EA0158701708000000000000
B0524523147659S11709440EA0158601704000000000000
B0524563147599S11709440EA0157501684000000000000
B0525003147530S11709451EA0155901674000000000000
B0525043147457S11709467EA0156001682000000000000
B0525083147384S11709488EA0157401697000000000000
B0525123147329S11709536EA0159601727000000000000
B0525163147348S11709609EA0162601752000000000000
B0525203147416S11709618EA0164001759000000000000
B0525243147452S11709555EA0164801771000000000000
B0525283147431S11709497EA0166201787000000000000
B0525323147382S11709483EA0167701801000000000000
B0525363147335S11709510EA0168301801000000000000
B0525403147313S11709576EA0168101802000000000000
B0525443147335S11709646EA0168301801000000000000
B0525483147392S11709692EA0167501791000000000000
B0525523147468S11709715EA0167001793000000000000
B0525563147543S11709711EA0167601802000000000000
B0526003147600S11709662EA0168601811000000000000
B0526043147618S11709592EA0169101814000000000000
B0526083147585S11709539EA0169301819000000000000
B0526123147530S11709519EA0169901828000000000000
B0526163147470S11709514EA0171001841000000000000
B0526203147433S11709566EA0172601855000000000000
B0526243147465S11709633EA0173101848000000000000
B0526283147540S11709640EA0172101842000000000000
B0526323147591S11709583EA0172701858000000000000
B0526363147612S11709510EA0174101870000000000000
B0526403147611S11709438EA0175301884000000000000
B0526443147581S11709393EA0177001901000000000000
B0526483147537S11709411EA0177301894000000000000
B0526523147490S11709455EA0176201887000000000000
B0526563147431S11709501EA0175901883000000000000
B0527003147361S11709540EA0175101871000000000000
B0527043147286S11709579EA0174901867000000000000
B0527083147208S11709615EA0173801852000000000000
B0527123147124S11709645EA0172401839000000000000
B0527163147037S11709675EA0171001825000000000000
B0527203146950S11709711EA0169301801000000000000
B0527243146859S11709748EA0167201783000000000000
B0527283146767S11709786EA0165901772000000000000
B0527323146675S11709819EA0164401756000000000000
B0527363146584S11709854EA0163001744000000000000
B0527403146495S11709888EA0161701728000000000000
B0527443146406S11709917EA0160901720000000000000
B0527483146318S11709943EA0160101713000000000000
B0527523146235S11709974EA0159201702000000000000
B0527563146155S11710010EA0158101693000000000000
B0528003146075S11710053EA0157401688000000000000
B0528043145999S11710098EA0157101687000000000000
B0528083145925S11710147EA0157301692000000000000
B0528123145850S11710194EA0157801697000000000000
B0528163145779S11710238EA0159401717000000000000
B0528203145711S11710265EA0162201751000000000000
B0528243145661S11710228EA0166201792000000000000
B0528283145683S11710157EA0168601814000000000000
B0528323145750S11710135EA0170201833000000000000
B0528363145808S11710172EA0172501857000000000000
B0528403145819S11710231EA0174501876000000015000
B0528443145784S11710267EA0175801891000000015000
B0528483145741S11710241EA0178101918000000015000
B0528523145728S11710179EA0180301935000000015000
B0528563145754S11710112EA0181401945000000015000
B0529003145811S11710073EA0182801960000000015000
B0529043145876S11710072EA0184001973000000015000
B0529083145934S11710107EA0185601988000000000000
B0529123145960S11710165EA0186601999000000015000
B0529163145938S11710216EA0187302001000000015000
B0529203145891S11710207EA0187902016000000015000
B0529243145869S11710142EA0189802037000000015000
B0529283145902S11710068EA0191602060000000000000
B0529323145971S11710043EA0194202084000000015000
B0529363146034S11710073EA0196102099000000015000
B0529403146060S11710135EA0197102107000000015000
B0529443146043S11710192EA0197502106000000015000
B0529483145996S11710212EA0197802116000000015000
B0529523145954S11710169EA0199502138000000015000
B0529563145957S11710092EA0200902155000000015000
B0530003146010S11710033EA0202602172000000015000
B0530043146084S11710033EA0204702194000000015000
B0530083146136S11710085EA0206602206000000015000
B0530123146146S11710151EA0207002205000000015000
B0530163146113S11710198EA0207002211000000015000
B0530203146065S11710212EA0207902222000000015000
B0530243146013S11710211EA0209102235000000000000
B0530283145965S11710189EA0210302244000000000000
B0530323145945S11710122EA0210902250000000000000
B0530363145975S11710048EA0211302257000000000000
B0530403146048S11710033EA0212702275000000000000
B0530443146095S11710082EA0214302289000000015000
B0530483146087S11710143EA0215602303000000015000
B0530523146044S11710170EA0216802315000000015000
B0530563145999S11710151EA0218002327000000015000
B0531003145973S11710094EA0218802331000000015000
B0531043145980S11710020EA0219102331000000000000
B0531083146023S11709951EA0219102333000000000000
B0531123146090S11709905EA0219502336000000000000
B0531163146165S11709884EA0219902343000000000000
B0531203146230S11709917EA0221102357000000000000
B0531243146256S11709982EA0222002362000000000000
B0531283146237S11710047EA0222102366000000000000
B0531323146191S11710091EA0223402384000000000000
B0531363146142S11710127EA0224102387000000000000
B0531403146083S11710160EA0223502380000000000000
B0531443146018S11710191EA0223702383000000000000
B0531483145949S11710218EA0223902383000000000000
B0531523145878S11710244EA0224202391000000000000
B0531563145806S11710267EA0225102391000000000000
B0532003145735S11710291EA0224302389000000000000
B0532043145666S11710315EA0224302386000000000000
B0532083145593S11710332EA0223202371000000000000
B0532123145514S11710343EA0221702356000000000000
B0532163145431S11710354EA0221302358000000000000
B0532203145350S11710363EA0221402354000000000000
B0532243145267S11710363EA0221002349000000000000
B0532283145182S11710371EA0220602346000000000000
B0532323145098S11710384EA0220602348000000000000
B0532363145017S11710402EA0220502345000000000000
B0532403144935S11710421EA0219602331000000000000
B0532443144851S11710439EA0218102316000000000000
B0532483144765S11710455EA0216602303000000000000
B0532523144678S11710469EA0215902298000000000000
B0532563144592S11710481EA0216002301000000000000
B0533003144509S11710490EA0217102314000000000000
B0533043144433S11710499EA0219002339000000000000
B0533083144363S11710512EA0220202345000000000000
B0533123144294S11710523EA0221302356000000000000
B0533163144228S11710542EA0221602359000000000000
B0533203144158S11710563EA0221802359000000000000
B0533243144085S11710585EA0221102352000000000000
B0533283144011S11710608EA0221002351000000000000
B0533323143937S11710633EA0221402357000000000000
B0533363143861S11710657EA0221802360000000000000
B0533403143786S11710683EA0221802360000000000000
B0533443143707S11710709EA0222202370000000000000
B0533483143627S11710736EA0222802370000000000000
B0533523143549S11710763EA0222702368000000000000
B0533563143473S11710792EA0222102361000000000000
B0534003143392S11710819EA0221702357000000000000
B0534043143312S11710844EA0222002363000000000000
B0534083143231S11710870EA0222102358000000000000
B0534123143149S11710900EA0222702372000000000000
B0534163143068S11710931EA0223602380000000000000
B0534203142989S11710962EA0223702375000000000000
B0534243142909S11710996EA0223902387000000000000
B0534283142837S11711030EA0224802393000000000000
B0534323142771S11711061EA0224802389000000000000
B0534363142704S11711088EA0224402389000000000000
B0534403142642S11711110EA0224502387000000000000
B0534443142582S11711130EA0223802379000000000000
B0534483142519S11711151EA0222102357000000000000
B0534523142451S11711179EA0219902332000000000000
B0534563142378S11711212EA0218002317000000000000
B0535003142308S11711239EA0217502313000000000000
B0535043142240S11711260EA0217402310000000000000
B0535083142170S11711271EA0216202295000000000000
B0535123142096S11711275EA0215202287000000000000
B0535163142022S11711271EA0214602278000000000000
B0535203141948S11711262EA0213502266000000000000
B0535243141871S11711252EA0212802262000000000000
B0535283141797S11711240EA0212502263000000000000
B0535323141724S11711230EA0212702265000000000000
B0535363141650S11711221EA0212802258000000000000
B0535403141573S11711214EA0211702251000000000000
B0535443141494S11711210EA0210702236000000000000
B0535483141411S11711206EA0209802233000000000000
B0535523141329S11711203EA0210202240000000000000
B0535563141252S11711200EA0211202253000000000000
B0536003141176S11711200EA0211602252000000000000
B0536043141099S11711201EA0211502249000000000000
B0536083141022S11711201EA0211402252000000000000
B0536123140947S11711203EA0210902240000000000000
B0536163140869S11711200EA0209902229000000000000
B0536203140787S11711195EA0208802219000000000000
B0536243140704S11711190EA0207802207000000000000
B0536283140619S11711188EA0206202186000000000000
B0536323140536S11711183EA0205502194000000000000
B0536363140455S11711178EA0205002172000000000000
B0536403140368S11711173EA0202502145000000000000
B0536443140280S11711171EA0200602130000000000000
B0536483140190S11711167EA0199602123000000000000
B0536523140102S11711161EA0198802115000000000000
B0536563140015S11711154EA0198302115000000000000
B0537003139933S11711149EA0198402113000000000000
B0537043139854S11711147EA0197802100000000000000
B0537083139773S11711145EA0195802077000000000000
B0537123139690S11711144EA0193502057000000000000
B0537163139607S11711141EA0191702036000000000000
B0537203139523S11711135EA0189902020000000000000
B0537243139443S11711127EA0188602009000000000000
B0537283139363S11711125EA0188002005000000000000
B0537323139288S11711123EA0187702002000000000000
B0537363139214S11711118EA0187201995000000000000
B0537403139139S11711109EA0186401985000000000000
B0537443139063S11711099EA0185001972000000000000
B0537483138984S11711088EA0184001966000000000000
B0537523138908S11711079EA0184301972000000000000
B0537563138834S11711080EA0185001974000000000000
B0538003138768S11711109EA0185001974000000000000
B0538043138713S11711157EA0185201978000000000000
B0538083138664S11711210EA0185201977000000000000
B0538123138612S11711265EA0184701972000000000000
B0538163138561S11711323EA0183801958000000000000
B0538203138509S11711387EA0182101942000000000000
B0538243138453S11711450EA0181001931000000000000
B0538283138396S11711515EA0180501927000000000000
B0538323138339S11711581EA0179801914000000000000
B0538363138277S11711648EA0178501908000000000000
B0538403138217S11711713EA0178301906000000000000
B0538443138158S11711781EA0178401911000000000000
B0538483138102S11711846EA0179201919000000000000
B0538523138050S11711910EA0179701922000000000000
B0538563137996S11711972EA0179901924000000000000
B0539003137944S11712033EA0180001927000000000000
B0539043137888S11712088EA0180001927000000000000
B0539083137826S11712135EA0179901927000000000000
B0539123137761S11712175EA0179401915000000000000
B0539163137689S11712209EA0177701895000000000000
B0539203137612S11712237EA0176201882000000000000
B0539243137533S11712258EA0176001887000000000000
B0539283137459S11712278EA0177501905000000000000
B0539323137390S11712298EA0178401912000000000000
B0539363137320S11712322EA0178601915000000000000
B0539403137250S11712348EA0179701928000000000000
B0539443137185S11712378EA0180201927000000000000
B0539483137117S11712412EA0179001908000000000000
B0539523137043S11712445EA0177001885000000000000
B0539563136961S11712479EA0175601883000000000000
B0540003136880S11712509EA0176501896000000000000
B0540043136806S11712538EA0178401919000000000000
B0540083136763S11712594EA0181001946000000000000
B0540123136787S11712668EA0183201963000000000000
B0540163136864S11712681EA0185201991000000000000
B0540203136914S11712620EA0187802016000000000000
B0540243136912S11712548EA0189802033000000000000
B0540283136874S11712509EA0191202044000000000000
B0540323136835S11712522EA0191902050000000000000
B0540363136819S11712578EA0192502058000000000000
B0540403136851S11712635EA0194702087000000000000
B0540443136917S11712643EA0197102107000000000000
B0540483136969S11712590EA0198102121000000000000
B0540523136968S11712519EA0199902139000000000000
B0540563136931S11712486EA0201302149000000000000
B0541003136892S11712509EA0202002154000000000000
B0541043136886S11712570EA0203002170000000000000
B0541083136930S11712623EA0205002192000000000000
B0541123137000S11712623EA0207002211000000000000
B0541163137049S11712573EA0209102234000000000000
B0541203137055S11712505EA0210702252000000000000
B0541243137022S11712464EA0212002262000000000000
B0541283136978S11712471EA0213302278000000000000
B0541323136966S11712525EA0215002292000000000000
B0541363137012S11712577EA0216302309000000000000
B0541403137081S11712571EA0218002328000000000000
B0541443137122S11712514EA0220302350000000000000
B0541483137107S11712452EA0221802361000000000000
B0541523137057S11712441EA0222902375000000000000
B0541563137025S11712486EA0224402397000000000000
B0542003137038S11712545EA0226802424000000000000
B0542043137095S11712578EA0229002438000000000000
B0542083137160S11712549EA0230302459000000000000
B0542123137183S11712483EA0232802481000000000000
B0542163137161S11712425EA0234602498000000000000
B0542203137113S11712415EA0236002511000000000000
B0542243137085S11712460EA0238002534000000000000
B0542283137099S11712519EA0240202557000000000000
B0542323137151S11712560EA0241902571000000000000
B0542363137220S11712549EA0243702591000000000000
B0542403137267S11712497EA0245402615000000000000
B0542443137274S11712431EA0247502635000000000000
B0542483137243S11712386EA0249402654000000000000
B0542523137196S11712386EA0250902666000000000000
B0542563137170S11712435EA0252202681000000000000
B0543003137196S11712499EA0253902698000000000000
B0543043137259S11712518EA0255802719000000000000
B0543083137311S11712475EA0257502732000000000000
B0543123137319S11712404EA0258802746000000000000
B0543163137286S11712361EA0260102762000000000000
B0543203137239S11712365EA0261402774000000000000
B0543243137211S11712413EA0262602787000000000000
B0543283137221S11712478EA0264102803000000000000
B0543323137270S11712519EA0265702822000000000000
B0543363137330S11712517EA0267602837000000000000
B0543403137376S11712467EA0268902849000000000000
B0543443137381S11712400EA0270302863000000000000
B0543483137348S11712356EA0271402873000000000000
B0543523137300S11712354EA0271902879000000000000
B0543563137260S11712396EA0272502886000000000000
B0544003137252S11712462EA0273702899000000000000
B0544043137285S11712519EA0275202917000000000000
B0544083137343S11712538EA0276902932000000000000
B0544123137400S11712505EA0278102942000000000000
B0544163137426S11712439EA0279102954000000000000
B0544203137419S11712373EA0279602955000000000000
B0544243137374S11712334EA0279602955000000000000
B0544283137313S11712322EA0279402951000000000000
B0544323137243S11712331EA0278902948000000000000
B0544363137170S11712356EA0279402948000000000000
B0544403137096S11712392EA0277802924000000000000
B0544443137022S11712443EA0275102901000000000000
B0544483136948S11712499EA0273702888000000000000
B0544523136875S11712555EA0273002882000000000000
B0544563136804S11712612EA0272102875000000000000
B0545003136732S11712672EA0271702868000000000000
B0545043136659S11712734EA0270702855000000000000
B0545083136585S11712800EA0269302843000000000000
B0545123136511S11712863EA0268602841000000000000
B0545163136438S11712921EA0268302835000000000000
B0545203136367S11712980EA0267502829000000000000
B0545243136297S11713033EA0266802819000000000000
B0545283136224S11713085EA0265502807000000000000
B0545323136154S11713140EA0265102798000000000000
B0545363136086S11713197EA0264702792000000000000
B0545403136016S11713250EA0263602776000000000000
B0545443135946S11713309EA0262202766000000000000
B0545483135873S11713367EA0261402756000000000000
B0545523135800S11713424EA0260302746000000000000
B0545563135725S11713480EA0259402736000000000000
B0546003135649S11713535EA0258602732000000000000
B0546043135574S11713589EA0258202726000000000000
B0546083135499S11713643EA0257802719000000000000
B0546123135424S11713697EA0256902706000000000000
B0546163135349S11713749EA0255802701000000000000
B0546203135278S11713803EA0255602698000000000000
B0546243135207S11713855EA0255202692000000000000
B0546283135136S11713908EA0253502670000000000000
B0546323135059S11713966EA0251202646000000000000
B0546363134981S11714026EA0249302629000000000000
B0546403134904S11714085EA0248802626000000000000
B0546443134826S11714139EA0248002613000000000000
B0546483134747S11714187EA0246702602000000000000
B0546523134668S11714233EA0246002599000000000000
B0546563134587S11714276EA0245302587000000000000
B0547003134509S11714316EA0244302583000000000000
B0547043134435S11714355EA0243002562000000000000
B0547083134357S11714395EA0240502534000000000000
B0547123134278S11714438EA0238902521000000000000
B0547163134201S11714480EA0238302520000000000000
B0547203134124S11714521EA0237502510000000000000
B0547243134048S11714566EA0236702499000000000000
B0547283133968S11714612EA0236202499000000000000
B0547323133890S11714658EA0236402501000000000000
B0547363133814S11714705EA0236202497000000000000
B0547403133742S11714750EA0236602504000000000000
B0547443133675S11714797EA0236602505000000000000
B0547483133610S11714844EA0236302499000000000000
B0547523133542S11714896EA0234402476000000000000
B0547563133471S11714950EA0232702459000000000000
B0548003133395S11715006EA0231102443000000000000
B0548043133320S11715062EA0229902423000000000000
B0548083133244S11715122EA0228102414000000000000
B0548123133173S11715179EA0227802408000000000000
B0548163133100S11715240EA0226302390000000000000
B0548203133022S11715300EA0225002378000000000000
B0548243132944S11715360EA0224202369000000000000
B0548283132867S11715417EA0223702368000000000000
B0548323132792S11715470EA0222902354000000000000
B0548363132717S11715521EA0221402338000000000000
B0548403132641S11715572EA0219902326000000000000
B0548443132563S11715619EA0219202320000000000000
B0548483132485S11715663EA0218502313000000000000
B0548523132406S11715707EA0217702298000000000000
B0548563132325S11715756EA0216102286000000000000
B0549003132243S11715806EA0215402277000000000000
B0549043132161S11715855EA0215102276000000000000
B0549083132082S11715910EA0214602273000000000000
B0549123132005S11715967EA0214602275000000000000
B0549163131933S11716028EA0214502269000000000000
B0549203131861S11716093EA0213702259000000000000
B0549243131790S11716156EA0213002255000000000000
B0549283131718S11716218EA0212202245000000000000
B0549323131644S11716276EA0211502242000000000000
B0549363131571S11716332EA0211502243000000000000
B0549403131501S11716391EA0210902235000000000000
B0549443131433S11716455EA0209902220000000000000
B0549483131361S11716518EA0208302205000000000000
B0549523131288S11716582EA0207302200000000000000
B0549563131222S11716643EA0207802206000000000000
B0550003131160S11716700EA0208302218000000000000
B0550043131106S11716755EA0209202222000000000000
B0550083131051S11716808EA0208802217000000000000
B0550123130998S11716867EA0208102208000000000000
B0550163130936S11716923EA0207502201000000000000
B0550203130867S11716972EA0207402205000000000000
B0550243130796S11717012EA0208102214000000000000
B0550283130722S11717041EA0208502215000000000000
B0550323130644S11717062EA0208702219000000000000
B0550363130565S11717079EA0208802216000000000000
B0550403130482S11717094EA0208102205000000000000
B0550443130393S11717103EA0206802189000000000000
B0550483130304S11717114EA0205502181000000000000
B0550523130217S11717124EA0204902173000000000000
B0550563130130S11717137EA0204102163000000000000
B0551003130042S11717153EA0204902180000000000000
B0551043129962S11717170EA0205202176000000000000
B0551083129877S11717186EA0204802176000000000000
B0551123129797S11717203EA0204802174000000000000
B0551163129712S11717220EA0204002159000000000000
B0551203129623S11717236EA0201902144000000000000
B0551243129532S11717253EA0201302143000000000000
B0551283129442S11717274EA0201102142000000000000
B0551323129353S11717294EA0201502151000000000000
B0551363129269S11717316EA0201802146000000000000
B0551403129187S11717342EA0200902136000000000000
B0551443129104S11717368EA0199702123000000000000
B0551483129022S11717397EA0198802118000000000000
B0551523128940S11717423EA0198002106000000000000
B0551563128858S11717449EA0197002096000000000000
B0552003128779S11717478EA0196902102000000000000
B0552043128700S11717504EA0196602091000000000000
B0552083128616S11717530EA0196202087000000000000
B0552123128536S11717554EA0196802105000000000000
B0552163128460S11717582EA0198502116000000000000
B0552203128385S11717610EA0198202107000000000000
B0552243128307S11717638EA0197202097000000000000
B0552283128230S11717666EA0196902097000000000000
B0552323128156S11717692EA0197302101000000000000
B0552363128079S11717714EA0197102103000000000000
B0552403128011S11717736EA0197802108000000000000
B0552443127942S11717758EA0197702101000000000000
B0552483127874S11717796EA0196602092000000000000
B0552523127803S11717830EA0197402108000000000000
B0552563127735S11717859EA0198302111000000000000
B0553003127674S11717895EA0198702119000000000000
B0553043127615S11717934EA0199702130000000000000
B0553083127557S11717974EA0200702143000000000000
B0553123127539S11718041EA0203502177000000000000
B0553163127596S11718083EA0206402204000000000000
B0553203127662S11718059EA0207902213000000000000
B0553243127696S11717992EA0208402218000000000000
B0553283127695S11717920EA0208702221000000000000
B0553323127667S11717859EA0208702218000000000000
B0553363127622S11717812EA0209002225000000000000
B0553403127567S11717777EA0210402242000000000000
B0553443127518S11717799EA0212902270000000000000
B0553483127533S11717865EA0215202292000000000000
B0553523127597S11717888EA0216402310000000000000
B0553563127652S11717838EA0218402330000000000000
B0554003127649S11717762EA0220102345000000000000
B0554043127604S11717726EA0221602362000000000000
B0554083127556S11717751EA0223402378000000000000
B0554123127544S11717818EA0225202398000000000000
B0554163127584S11717879EA0227202422000000000000
B0554203127653S11717887EA0229402444000000000000
B0554243127709S11717836EA0231802468000000000000
B0554283127723S11717762EA0233602483000000000000
B0554323127697S11717701EA0234302493000000000000
B0554363127647S11717688EA0235602506000000000000
B0554403127606S11717729EA0237102522000000000000
B0554443127609S11717799EA0238802541000000000000
B0554483127661S11717852EA0240802560000000000000
B0554523127735S11717853EA0242402578000000000000
B0554563127791S11717803EA0244502601000000000000
B0555003127806S11717730EA0246702619000000000000
B0555043127782S11717669EA0247502622000000000000
B0555083127728S11717654EA0247602627000000000000
B0555123127682S11717692EA0248902647000000000000
B0555163127688S11717762EA0250702661000000000000
B0555203127756S11717803EA0251702673000000000000
B0555243127825S11717768EA0253702695000000000000
B0555283127843S11717692EA0255102703000000000000
B0555323127810S11717634EA0255802711000000000000
B0555363127752S11717617EA0256402715000000000000
B0555413127684S11717671EA0256702722000000000000
B0555453127675S11717756EA0258002741000000000000
B0555493127719S11717822EA0260402773000000000000
B0555533127790S11717827EA0263302796000000000000
B0555573127847S11717774EA0265002809000000000000
B0556013127861S11717696EA0266102818000000000000
B0556053127829S11717638EA0267302831000000000000
B0556093127771S11717627EA0267902834000000000000
B0556133127721S11717673EA0268602844000000000000
B0556173127706S11717748EA0269902861000000000000
B0556213127743S11717818EA0271502875000000000000
B0556253127813S11717840EA0273102896000000000000
B0556293127869S11717794EA0275202916000000000000
B0556333127881S11717717EA0276802929000000000000
B0556373127845S11717662EA0278602949000000000000
B0556413127791S11717658EA0280002958000000000000
B0556453127751S11717709EA0280802965000000000000
B0556493127764S11717786EA0281702978000000000000
B0556533127831S11717818EA0282902990000000000000
B0556573127894S11717775EA0284203009000000000000
B0557013127904S11717700EA0286003024000000000000
B0557053127861S11717649EA0287403033000000000000
B0557093127797S11717641EA0287903039000000000000
B0557133127756S11717696EA0289303057000000000000
B0557173127774S11717769EA0291003074000000000000
B0557213127838S11717797EA0292203084000000000000
B0557253127903S11717765EA0292903092000000000000
B0557293127930S11717692EA0294103109000000000000
B0557333127909S11717625EA0295903129000000000000
B0557373127861S11717589EA0297303136000000000000
B0557413127804S11717610EA0297603140000000000000
B0557453127771S11717671EA0298503152000000000000
B0557493127773S11717747EA0299403157000000000000
B0557533127803S11717821EA0299803162000000000000
B0557573127871S11717853EA0300703172000000000000
B0558013127944S11717820EA0301503178000000000000
B0558053127995S11717747EA0301703178000000000000
B0558093128007S11717654EA0302303194000000000000
B0558133127962S11717596EA0304603220000000000000
B0558173127896S11717592EA0306103221000000000000
B0558213127829S11717627EA0304803203000000000000
B0558253127757S11717680EA0303403186000000000000
B0558293127684S11717745EA0301303165000000000000
B0558333127609S11717820EA0299903155000000000000
B0558373127537S11717896EA0300003162000000000000
B0558413127468S11717974EA0300803170000000000000
B0558453127402S11718051EA0301003171000000000000
B0558493127336S11718126EA0300603165000000000000
B0558533127266S11718202EA0299503152000000000000
B0558573127193S11718271EA0298603142000000000000
B0559013127120S11718341EA0297303128000000000000
B0559053127050S11718412EA0295503108000000000000
B0559093126977S11718480EA0294303100000000000000
B0559133126904S11718538EA0294003098000000000000
B0559173126837S11718597EA0293603094000000000000
B0559213126770S11718658EA0292103077000000000000
B0559253126705S11718723EA0290503061000000000000
B0559293126642S11718789EA0289403051000000000000
B0559333126582S11718856EA0289203055000000000000
B0559373126521S11718921EA0289303052000000000000
B0559413126460S11718982EA0289503060000000000000
B0559453126401S11719042EA0290403067000000000000
B0559493126339S11719096EA0289903055000000000000
B0559533126263S11719142EA0289303056000000000000
B0559573126188S11719179EA0291703087000000000000
B0600013126120S11719209EA0295603128000000000000
B0600053126079S11719263EA0298003142000000000000
B0600093126106S11719330EA0299803164000000000000
B0600133126172S11719337EA0302603195000000000000
B0600173126215S11719281EA0304403217000000000000
B0600213126202S11719213EA0305903222000000000000
B0600253126149S11719192EA0306103225000000000000
B0600293126097S11719227EA0306103224000000000000
B0600333126064S11719294EA0306903233000000000000
B0600373126067S11719368EA0308403256000000000000
B0600413126126S11719399EA0310703280000000000000
B0600453126181S11719359EA0312803296000000000000
B0600493126193S11719283EA0314003311000000000000
B0600533126152S11719231EA0316303336000000000000
B0600573126097S11719239EA0317503346000000000000
B0601013126064S11719295EA0318303354000000000000
B0601053126068S11719368EA0319903379000000000000
B0601093126114S11719420EA0322003394000000000000
B0601133126184S11719417EA0323403407000000000000
B0601173126232S11719355EA0325103429000000000000
B0601213126227S11719281EA0327203449000000000000
B0601253126184S11719237EA0328703461000000000000
B0601293126128S11719239EA0329703469000000000000
B0601333126084S11719282EA0330603481000000000000
B0601373126067S11719352EA0331803498000000000000
B0601413126097S11719420EA0333703515000000000000
B0601453126168S11719438EA0335003526000000000000
B0601493126226S11719386EA0336903551000000000000
B0601533126233S11719311EA0339203573000000000000
B0601573126198S11719255EA0340403576000000000000
B0602013126137S11719251EA0340903586000000000000
B0602053126088S11719294EA0342503603000000000000
B0602093126071S11719361EA0344103620000000000000
B0602133126090S11719430EA0345903635000000000000
B0602173126146S11719476EA0346303636000000000000
B0602213126222S11719476EA0346703647000000000000
B0602253126287S11719433EA0347903661000000000000
B0602293126317S11719356EA0349903686000000000000
B0602333126305S11719285EA0351703697000000000000
B0602373126253S11719248EA0352203695000000000000
B0602413126193S11719276EA0352503704000000000000
B0602453126150S11719335EA0354103718000000000000
B0602493126155S11719413EA0354903722000000000000
B0602533126217S11719471EA0354503718000000000000
B0602573126296S11719508EA0354803727000000000000
B0603013126379S11719521EA0356003741000000000000
B0603053126461S11719504EA0357403755000000000000
B0603093126534S11719464EA0358803765000000000000
B0603133126569S11719389EA0359703778000000000000
B0603173126545S11719318EA0360803787000000000000
B0603213126487S11719282EA0361003786000000000000
B0603253126413S11719277EA0360703780000000000000
B0603293126334S11719285EA0359803771000000000000
B0603333126246S11719302EA0359003763000000000000
B0603373126154S11719324EA0358503756000000000000
B0603413126059S11719346EA0357803748000000000000
B0603453125959S11719364EA0357203739000000000000
B0603493125860S11719380EA0357003730000000000000
B0603533125759S11719399EA0355303712000000000000
B0603573125656S11719424EA0353103689000000000000
B0604013125551S11719450EA0351003668000000000000
B0604053125443S11719474EA0349203653000000000000
B0604093125335S11719500EA0347903639000000000000
B0604133125229S11719532EA0347003629000000000000
B0604173125125S11719563EA0346203624000000000000
B0604213125021S11719595EA0345703617000000000000
B0604253124917S11719625EA0344903609000000000000
B0604293124813S11719654EA0344003598000000000000
B0604333124707S11719680EA0342503583000000000000
B0604373124603S11719705EA0341703575000000000000
B0604413124501S11719728EA0340303562000000000000
B0604453124397S11719751EA0339603556000000000000
B0604493124295S11719772EA0339203551000000000000
B0604533124196S11719797EA0338803548000000000000
B0604573124100S11719822EA0338403546000000000000
B0605013124005S11719844EA0338203542000000000000
B0605053123910S11719864EA0337403535000000000000
B0605093123815S11719885EA0336703527000000000000
B0605133123721S11719906EA0335703515000000000000
B0605173123624S11719927EA0335003509000000000000
B0605213123528S11719948EA0334303503000000000000
B0605253123432S11719968EA0333803500000000000000
B0605293123338S11719991EA0333603498000000000000
B0605333123245S11720011EA0333103491000000000000
B0605373123151S11720032EA0332503485000000000000
B0605413123058S11720053EA0331903478000000000000
B0605453122961S11720070EA0330903465000000000000
B0605493122863S11720084EA0329903456000000000000
B0605533122762S11720101EA0329103449000000000000
B0605573122664S11720119EA0328503440000000000000
B0606013122566S11720143EA0327403431000000000000
B0606053122470S11720167EA0327103430000000000000
B0606093122376S11720189EA0326503421000000000000
B0606133122281S11720213EA0325303407000000000000
B0606173122184S11720239EA0323803392000000000000
B0606213122086S11720265EA0322303377000000000000
B0606253121988S11720290EA0321303364000000000000
B0606293121890S11720316EA0320003353000000000000
B0606333121795S11720339EA0319403348000000000000
B0606373121702S11720361EA0318403335000000000000
B0606413121608S11720386EA0316803318000000000000
B0606453121516S11720414EA0315003300000000000000
B0606493121422S11720443EA0312903277000000000000
B0606533121327S11720470EA0310803255000000000000
B0606573121232S11720496EA0308803234000000000000
B0607013121139S11720522EA0307603228000000000000
B0607053121046S11720544EA0307503229000000000000
B0607093120955S11720563EA0307703231000000000000
B0607133120866S11720578EA0307503226000000000000
B0607173120773S11720590EA0306803222000000000000
B0607213120681S11720596EA0306403217000000000000
B0607253120588S11720599EA0306003211000000000000
B0607293120493S11720602EA0305203201000000000000
B0607333120395S11720605EA0304203190000000000000
B0607373120299S11720612EA0303703191000000000000
B0607413120205S11720617EA0303903188000000000000
B0607453120113S11720621EA0303403184000000000000
B0607493120023S11720630EA0303103182000000000000
B0607533119935S11720641EA0302303169000000000000
B0607573119845S11720650EA0300703155000000000000
B0608013119753S11720659EA0299403141000000000000
B0608053119661S11720667EA0298203127000000000000
B0608093119567S11720670EA0296903113000000000000
B0608133119472S11720674EA0295703104000000000000
B0608173119377S11720680EA0294903094000000000000
B0608213119281S11720681EA0293903082000000000000
B0608253119182S11720683EA0292303065000000000000
B0608293119082S11720690EA0291003052000000000000
B0608333118982S11720700EA0289903044000000000000
B0608373118883S11720707EA0289203037000000000000
B0608413118788S11720706EA0289003039000000000000
B0608453118696S11720700EA0289103037000000000000
B0608493118605S11720695EA0288403029000000000000
B0608533118514S11720690EA0287803027000000000000
B0608573118424S11720681EA0287503023000000000000
B0609013118333S11720665EA0286703009000000000000
B0609053118241S11720652EA0285002986000000000000
B0609093118146S11720648EA0282802970000000000000
B0609133118053S11720657EA0281802960000000000000
B0609173117959S11720669EA0280702949000000000000
B0609213117865S11720680EA0280302946000000000000
B0609253117776S11720691EA0280702957000000000000
B0609293117689S11720700EA0280602947000000000000
B0609333117601S11720712EA0279002927000000000000
B0609373117513S11720729EA0277002909000000000000
B0609413117425S11720750EA0275502893000000000000
B0609453117336S11720773EA0273602872000000000000
B0609493117247S11720798EA0271902856000000000000
B0609533117156S11720823EA0270402843000000000000
B0609573117067S11720847EA0269202831000000000000
B0610013116976S11720871EA0268202821000000000000
B0610053116888S11720891EA0267402809000000000000
B0610093116798S11720915EA0265802795000000000000
B0610133116710S11720938EA0264902788000000000000
B0610173116625S11720962EA0264502785000000000000
B0610213116543S11720985EA0263702772000000000000
B0610253116457S11721010EA0261602749000000000000
B0610293116368S11721033EA0260202736000000000000
B0610333116278S11721055EA0259102729000000000000
B0610373116192S11721079EA0258602726000000000000
B0610413116106S11721101EA0257602711000000000000
B0610453116018S11721123EA0256302696000000000000
B0610493115931S11721146EA0255102683000000000000
B0610533115844S11721170EA0254002673000000000000
B0610573115759S11721193EA0252602658000000000000
B0611013115675S11721218EA0251102644000000000000
B0611053115590S11721241EA0250102633000000000000
B0611093115506S11721262EA0248202610000000000000
B0611133115420S11721283EA0246202592000000000000
B0611173115333S11721301EA0244202566000000000000
B0611213115246S11721320EA0242102548000000000000
B0611253115157S11721340EA0240602535000000000000
B0611293115068S11721358EA0239602524000000000000
B0611333114978S11721366EA0239002524000000000000
B0611373114888S11721365EA0239302529000000000000
B0611413114799S11721365EA0239802534000000000000
B0611453114706S11721365EA0240202538000000000000
B0611493114614S11721366EA0240602540000000000000
B0611533114520S11721365EA0239902529000000000000
B0611573114427S11721361EA0239002522000000000000
B0612013114335S11721354EA0238402515000000000000
B0612053114244S11721345EA0237202499000000000000
B0612093114155S11721332EA0236702503000000000000
B0612133114071S11721317EA0236602498000000000000
B0612173113989S11721301EA0236202495000000000000
B0612213113909S11721288EA0235802493000000000000
B0612253113833S11721278EA0236202495000000000000
B0612293113757S11721263EA0235902495000000000000
B0612333113685S11721245EA0236302498000000000000
B0612373113616S11721232EA0236502499000000000000
B0612413113543S11721222EA0235702486000000000000
B0612453113465S11721223EA0234802478000000000000
B0612493113392S11721255EA0234502478000000000000
B0612533113328S11721306EA0234302475000000000000
B0612573113266S11721363EA0233602469000000000000
B0613013113204S11721419EA0233502471000000000000
B0613053113140S11721476EA0233502473000000000000
B0613093113077S11721532EA0233402466000000000000
B0613133113014S11721591EA0232102449000000000000
B0613173112946S11721652EA0230602434000000000000
B0613213112877S11721712EA0229602424000000000000
B0613253112806S11721770EA0228002405000000000000
B0613293112734S11721831EA0226802397000000000000
B0613333112664S11721891EA0226902404000000000000
B0613373112596S11721947EA0227602406000000000000
B0613413112528S11722003EA0227202401000000000000
B0613453112460S11722058EA0226702394000000000000
B0613493112391S11722115EA0225502375000000000000
B0613533112325S11722176EA0224502388000000000000
B0613573112262S11722236EA0225702395000000000000
B0614013112205S11722294EA0226102397000000000000
B0614053112149S11722351EA0226402400000000000000
B0614093112096S11722410EA0225702388000000000000
B0614133112041S11722463EA0225202387000000000000
B0614173111985S11722516EA0224502375000000000000
B0614213111930S11722571EA0223902373000000000000
B0614253111876S11722624EA0223602369000000000000
B0614293111820S11722678EA0223602371000000000000
B0614333111770S11722737EA0224502384000000000000
B0614373111728S11722796EA0226402412000000000000
B0614413111718S11722858EA0228702431000000000000
B0614453111770S11722893EA0229602431000000000000
B0614493111839S11722860EA0229302435000000000000
B0614533111878S11722786EA0230402448000000000000
B0614573111881S11722705EA0231102456000000000000
B0615013111858S11722632EA0231802462000000000000
B0615053111820S11722574EA0232702473000000000000
B0615093111767S11722553EA0233502476000000000000
B0615133111712S11722566EA0233302474000000000000
B0615173111659S11722600EA0233002473000000000000
B0615213111607S11722646EA0233002476000000000000
B0615253111554S11722700EA0233402477000000000000
B0615293111499S11722757EA0233502477000000000000
B0615333111445S11722819EA0233102473000000000000
B0615373111393S11722887EA0233002477000000000000
B0615413111343S11722952EA0233902485000000000000
B0615453111294S11723018EA0233402475000000000000
B0615493111239S11723088EA0232502459000000000000
B0615533111176S11723159EA0231302453000000000000
B0615573111109S11723225EA0230902450000000000000
B0616013111039S11723287EA0230902452000000000000
B0616053110966S11723335EA0231402458000000000000
B0616093110888S11723361EA0232102463000000000000
B0616133110810S11723365EA0232202466000000000000
B0616173110731S11723358EA0231902460000000000000
B0616213110650S11723345EA0231402455000000000000
B0616253110570S11723328EA0231102453000000000000
B0616293110494S11723335EA0231502462000000000000
B0616333110449S11723391EA0233202482000000000000
B0616373110444S11723464EA0234102476000000000000
B0616413110472S11723549EA0232002449000000000000
B0616453110518S11723638EA0229902430000000000000
B0616493110575S11723729EA0228402417000000000000
B0616533110637S11723818EA0227402408000000000000
B0616573110704S11723906EA0225702390000000000000
B0617013110775S11723996EA0225402381000000000000
B0617053110849S11724083EA0225102380000000000000
B0617093110923S11724170EA0224902378000000000000
B0617133110997S11724256EA0224502372000000000000
B0617173111072S11724342EA0224102370000000000000
B0617213111146S11724427EA0223902364000000000000
B0617253111217S11724516EA0222702352000000000000
B0617293111290S11724607EA0221002330000000000000
B0617333111365S11724702EA0218302301000000000000
B0617373111438S11724802EA0216402286000000000000
B0617413111506S11724901EA0215102267000000000000
B0617453111572S11724999EA0212802243000000000000
B0617493111638S11725101EA0210002212000000000000
B0617533111705S11725204EA0207702199000000000000
B0617573111771S11725300EA0207002194000000000000
B0618013111836S11725393EA0205902175000000000000
B0618053111900S11725491EA0203902160000000000000
B0618093111962S11725588EA0202502144000000000000
B0618133112023S11725687EA0200902123000000000000
B0618173112082S11725787EA0199602113000000000000
B0618213112140S11725883EA0198802108000000000000
B0618253112199S11725981EA0197602092000000000000
B0618293112255S11726073EA0197302097000000000000
B0618333112307S11726160EA0197402096000000000000
B0618373112357S11726246EA0196802087000000000000
B0618413112409S11726335EA0194902064000000000000
B0618453112465S11726423EA0193102050000000000000
B0618493112516S11726511EA0192202039000000000000
B0618533112563S11726600EA0191002027000000000000
B0618573112616S11726683EA0190302023000000000000
B0619013112673S11726762EA0189402007000000000000
B0619053112745S11726831EA0188201998000000000000
B0619093112825S11726887EA0186901982000000000000
B0619133112912S11726940EA0185401970000000000000
B0619173113001S11726987EA0185601979000000000000
B0619213113084S11727024EA0187001994000000000000
B0619253113167S11727053EA0187201994000000000000
B0619293113252S11727085EA0186701983000000000000
B0619333113337S11727124EA0185901975000000000000
B0619373113422S11727172EA0186501992000000000000
B0619413113504S11727209EA0189202019000000000000
B0619453113564S11727157EA0191602045000000000000
B0619493113548S11727079EA0192302054000000000000
B0619533113492S11727053EA0194502085000000000000
B0619573113445S11727079EA0197902115000000000000
B0620013113436S11727138EA0199502134000000000000
B0620053113478S11727190EA0201002144000000000000
B0620093113544S11727187EA0201902154000000000000
B0620133113583S11727125EA0202702162000000000000
B0620173113568S11727056EA0203602172000000000000
B0620213113514S11727039EA0205302197000000000000
B0620253113478S11727079EA0207902218000000000000
B0620293113486S11727142EA0209202226000000000000
B0620333113539S11727181EA0209902235000000000000
B0620373113603S11727161EA0211202250000000000000
B0620413113630S11727096EA0211902250000000000000
B0620453113600S11727034EA0211902255000000000000
B0620493113542S11727037EA0213102277000000000000
B0620533113514S11727094EA0214702282000000000000
B0620573113545S11727159EA0215102286000000000000
B0621013113614S11727199EA0215602295000000000000
B0621053113687S11727183EA0216502303000000000000
B0621093113726S11727105EA0216402299000000000000
B0621133113725S11727017EA0216302298000000000000
B0621173113688S11726939EA0216802308000000000000
B0621213113634S11726914EA0219602340000000000000
B0621253113609S11726964EA0221302352000000000000
B0621293113643S11727022EA0221202340000000000000
B0621333113712S11727063EA0220302342000000000000
B0621373113786S11727103EA0220502343000000000000
B0621413113865S11727144EA0220002334000000000000
B0621453113947S11727190EA0219702335000000000000
B0621493114030S11727235EA0219902339000000000000
B0621533114112S11727282EA0220502345000000000000
B0621573114197S11727329EA0220002334000000000000
B0622013114283S11727380EA0219402334000000000000
B0622053114368S11727432EA0218602320000000000000
B0622093114457S11727490EA0217202304000000000000
B0622133114548S11727550EA0215702285000000000000
B0622173114639S11727611EA0214102271000000000000
B0622213114730S11727672EA0212702259000000000000
B0622253114819S11727732EA0211802250000000000000
B0622293114907S11727793EA0211002243000000000000
B0622333114994S11727854EA0210302235000000000000
B0622373115078S11727917EA0209102222000000000000
B0622413115164S11727980EA0208002211000000000000
B0622453115250S11728045EA0207102198000000000000
B0622493115336S11728110EA0206102191000000000000
B0622533115421S11728171EA0205202182000000000000
B0622573115506S11728230EA0204002168000000000000
B0623013115588S11728288EA0202702155000000000000
B0623053115671S11728343EA0201702146000000000000
B0623093115753S11728398EA0200802137000000000000
B0623133115835S11728452EA0199802128000000000000
B0623173115917S11728507EA0198202109000000000000
B0623213116000S11728568EA0196602090000000000000
B0623253116082S11728630EA0195202081000000000000
B0623293116164S11728694EA0194202069000000000000
B0623333116247S11728759EA0192802056000000000000
B0623373116330S11728823EA0191702047000000000000
B0623413116415S11728885EA0190902037000000000000
B0623453116499S11728945EA0190002031000000000000
B0623493116584S11729002EA0189002019000000000000
B0623533116668S11729065EA0187902006000000000000
B0623573116753S11729127EA0186901997000000000000
B0624013116834S11729188EA0186101991000000000000
B0624053116918S11729248EA0185301980000000000000
B0624093117002S11729304EA0184401971000000000000
B0624133117088S11729357EA0183001955000000000000
B0624173117178S11729410EA0181301938000000000000
B0624213117267S11729460EA0180501934000000000000
B0624253117358S11729503EA0180201930000000000000
B0624293117449S11729542EA0179901926000000000000
B0624333117540S11729577EA0179401922000000000000
B0624373117630S11729609EA0179001918000000000000
B0624413117717S11729640EA0177701897000000000000
B0624453117803S11729674EA0175801881000000000000
B0624493117891S11729702EA0174401866000000000000
B0624533117984S11729729EA0172801853000000000000
B0624573118076S11729764EA0172101847000000000000
B0625013118167S11729803EA0172201848000000000000
B0625053118255S11729847EA0172001844000000000000
B0625093118341S11729894EA0171701848000000000000
B0625133118423S11729938EA0173501875000000000000
B0625173118500S11729950EA0176701910000000000000
B0625213118541S11729890EA0179501929000000000000
B0625253118519S11729824EA0180901946000000000000
B0625293118469S11729813EA0182901968000000000000
B0625333118439S11729859EA0184601981000000000000
B0625373118463S11729920EA0185501987000000000000
B0625413118528S11729945EA0186502003000000000000
B0625453118587S11729902EA0188302021000000000000
B0625493118589S11729828EA0190002040000000000000
B0625533118547S11729789EA0191902062000000000000
B0625573118498S11729803EA0193402078000000000000
B0626013118478S11729855EA0194902090000000000000
B0626053118498S11729916EA0195802099000000000000
B0626093118554S11729950EA0196902110000000000000
B0626133118619S11729925EA0198302124000000000000
B0626173118652S11729858EA0199702140000000000000
B0626213118636S11729791EA0201602160000000000000
B0626253118591S11729769EA0203602180000000000000
B0626293118556S11729804EA0204902188000000000000
B0626333118565S11729867EA0205802198000000000000
B0626373118619S11729906EA0206702213000000000000
B0626413118686S11729891EA0208202229000000000000
B0626453118729S11729830EA0209702242000000000000
B0626493118721S11729760EA0210902254000000000000
B0626533118673S11729730EA0212702278000000000000
B0626573118632S11729759EA0214702293000000000000
B0627013118628S11729819EA0215802302000000000000
B0627053118669S11729872EA0216902315000000000000
B0627093118738S11729882EA0218502332000000000000
B0627133118797S11729839EA0219502346000000000000
B0627173118808S11729765EA0220902362000000000000
B0627213118766S11729717EA0222502379000000000000
B0627253118714S11729725EA0224302396000000000000
B0627293118692S11729778EA0225902413000000000000
B0627333118722S11729835EA0227502424000000000000
B0627373118790S11729843EA0228502435000000000000
B0627413118848S11729791EA0229902450000000000000
B0627453118860S11729715EA0231802471000000000000
B0627493118821S11729663EA0233002488000000000000
B0627533118768S11729664EA0234702506000000000000
B0627573118742S11729716EA0236202520000000000000
B0628013118764S11729776EA0237802535000000000000
B0628053118825S11729798EA0239102546000000000000
B0628093118883S11729755EA0240002555000000000000
B0628133118888S11729676EA0241202574000000000000
B0628173118846S11729631EA0243502596000000000000
B0628213118800S11729655EA0244902606000000000000
B0628253118796S11729717EA0245702619000000000000
B0628293118842S11729765EA0247202632000000000000
B0628333118912S11729757EA0248402643000000000000
B0628373118956S11729694EA0249802663000000000000
B0628413118947S11729621EA0252202687000000000000
B0628453118904S11729583EA0254002702000000000000
B0628493118855S11729598EA0255202710000000000000
B0628533118839S11729655EA0256002719000000000000
B0628573118874S11729711EA0256802733000000000000
B0629013118939S11729716EA0258402747000000000000
B0629053118995S11729663EA0259302754000000000000
B0629093118996S11729582EA0260602776000000000000
B0629133118957S11729535EA0262702794000000000000
B0629173118908S11729538EA0264102804000000000000
B0629213118878S11729585EA0264902811000000000000
B0629253118877S11729646EA0265602823000000000000
B0629293118925S11729690EA0266802831000000000000
B0629333118995S11729672EA0267402836000000000000
B0629373119029S11729594EA0267902842000000000000
B0629413119007S11729521EA0269202860000000000000
B0629453118952S11729513EA0270702872000000000000
