ACAM4N6
HFDTE070422
HFFXA050
HFPLTPILOT:JOHN WELSH              
HFGTYGLIDERTYPE:HORNET      
HFGIDGLIDERID:VH-GMY      
HFDTM100GPSDATUM:
HFRFWFIRMWAREVERSION:F2.6
HFRHWHARDWAREVERSION:300 Series Version 2
HFFTYFRTYPE:CAMBRIDGE AERO INSTRUMENTS, 302+
HFGPS:GARMIN,LVS-25,12,18000
HFPRSPRESSALTSENSOR:INTERSEMA, MS5534-AP, 20000
I033638FXA3941ENL4247REX
LCAMSBVER:5FWVER:F26300
C160222033151160222000102
C0000000N00000000WTAKEOFF     
C3207549S11656849EBEVAIR      
C3301432S11652383EWilliams    
C3230082S11842715EKalgarin    
C3207549S11656849EBEVAIR      
C0000000N00000000WLANDING     
B0443003207727S11657090EA0020100205000000000000
B0443023207727S11657090EA0020100205000000000000
B0443043207727S11657090EA0020100205000000000000
B0443063207727S11657090EA0020100205000000000000
B0443083207727S11657090EA0020000205000000000000
B0443103207727S11657090EA0020000205000000000000
B0443123207727S11657090EA0020000205000000000000
B0443143207727S11657090EA0020000204000000000000
B0443163207727S11657090EA0020100205000000000000
B0443183207727S11657090EA0020100205000000000000
B0443203207727S11657090EA0020100205000000000000
B0443223207727S11657090EA0020100205000000000000
B0443243207727S11657090EA0020100205000000000000
B0443263207727S11657088EA0020100205000000000000
B0443283207723S11657087EA0020100205000000000000
B0443293207719S11657087EA0020100205000000000000
B0443333207696S11657078EA0019900205000000000000
B0443373207657S11657060EA0020000206000000000000
B0443413207607S11657030EA0020200206000000000000
B0443453207546S11656995EA0020200206000000000000
B0443493207479S11656955EA0020400211000000000000
B0443533207411S11656916EA0021800228000000000000
B0443573207342S11656882EA0022800236000000000000
B0444013207278S11656848EA0024300258000000000000
B0444053207216S11656813EA0026400279000000000000
B0444093207154S11656782EA0028300298000000000000
B0444133207087S11656749EA0029000302000000000000
B0444173207020S11656713EA0029600309000000000000
B0444213206951S11656675EA0030500322000000000000
B0444253206883S11656636EA0032300343000000000000
B0444293206818S11656585EA0033900357000000000000
B0444333206773S11656507EA0035400373000000000000
B0444373206747S11656416EA0037100392000000000000
B0444413206738S11656318EA0038800406000000000000
B0444453206749S11656216EA0040100424000000000000
B0444493206780S11656121EA0042200447000000000000
B0444533206830S11656034EA0044000461000000000000
B0444573206900S11655965EA0045100474000000000000
B0445013206981S11655916EA0046700492000000000000
B0445053207065S11655889EA0048900512000000000000
B0445093207151S11655872EA0050600529000000000000
B0445133207237S11655870EA0052300547000000000000
B0445173207319S11655894EA0053900561000000000000
B0445213207395S11655933EA0054700570000000000000
B0445253207464S11655990EA0055600579000000000000
B0445293207519S11656063EA0056200586000000000000
B0445333207555S11656146EA0057000596000000000000
B0445373207579S11656230EA0058000606000000000000
B0445413207589S11656316EA0058900616000000000000
B0445453207584S11656397EA0060200631000000000000
B0445493207566S11656472EA0061700646000000000000
B0445533207538S11656541EA0063100661000000000000
B0445573207507S11656611EA0064200670000000000000
B0446013207472S11656687EA0064800674000000000000
B0446053207430S11656756EA0065800685000000000000
B0446093207381S11656817EA0067200702000000000000
B0446133207330S11656871EA0068500715000000000000
B0446173207280S11656927EA0069500728000000000000
B0446213207230S11656978EA0071000742000000000000
B0446253207180S11657026EA0072200754000000000000
B0446293207128S11657073EA0073400765000000000000
B0446333207072S11657118EA0074000770000000000000
B0446373207012S11657164EA0074600776000000000000
B0446413206953S11657208EA0075500787000000000000
B0446453206894S11657252EA0076600798000000000000
B0446493206836S11657299EA0077900813000000000000
B0446533206780S11657346EA0079500830000000000000
B0446573206723S11657389EA0081100845000000000000
B0447013206693S11657447EA0082400857000000000000
B0447053206723S11657506EA0083800871000000000000
B0447093206784S11657508EA0084600876000000000000
B0447133206838S11657467EA0084600874000000000000
B0447173206857S11657402EA0084600875000000000000
B0447213206842S11657345EA0084600874000000000000
B0447253206805S11657319EA0084400870000000000000
B0447293206777S11657345EA0084400872000000000000
B0447333206816S11657389EA0083600857000000000000
B0447373206887S11657376EA0082500856000000000000
B0447413206934S11657317EA0082800856000000015000
B0447453206920S11657251EA0082600853000000015000
B0447493206871S11657244EA0082400851000000015000
B0447533206855S11657300EA0082400854000000000000
B0447573206890S11657352EA0082800856000000000000
B0448013206953S11657355EA0082800851000000000000
B0448053207004S11657300EA0082300846000000000000
B0448093207011S11657224EA0082000844000000000000
B0448133206975S11657168EA0081700841000000000000
B0448173206923S11657159EA0081500841000000000000
B0448213206888S11657202EA0081600842000000000000
B0448253206901S11657264EA0082000847000000000000
B0448293206956S11657300EA0082100847000000000000
B0448333207022S11657285EA0081900843000000000000
B0448373207077S11657230EA0081600837000000000000
B0448413207105S11657156EA0081000835000000000000
B0448453207089S11657082EA0080900834000000000000
B0448493207044S11657035EA0080800835000000000000
B0448533206991S11657027EA0080900836000000000000
B0448573206964S11657070EA0081600843000000000000
B0449013206992S11657121EA0081800842000000000000
B0449053207056S11657129EA0081300836000000000000
B0449093207115S11657085EA0081000833000000000000
B0449133207120S11657012EA0081100836000000015000
B0449173207078S11656977EA0080800831000000015000
B0449213207037S11657004EA0080500831000000000000
B0449253207040S11657065EA0080500830000000000000
B0449293207092S11657100EA0080300827000000000000
B0449333207160S11657088EA0079700821000000015000
B0449373207222S11657052EA0079200818000000000000
B0449413207255S11656982EA0079000817000000000000
B0449453207239S11656912EA0078900816000000000000
B0449493207195S11656879EA0079100817000000000000
B0449533207148S11656884EA0078900813000000000000
B0449573207104S11656908EA0078600812000000000000
B0450013207064S11656940EA0078400812000000000000
B0450063207020S11656987EA0078800817000000000000
B0450103207035S11657043EA0079300818000000000000
B0450143207104S11657018EA0079000815000000000000
B0450183207113S11656936EA0079400825000000000000
B0450223207068S11656906EA0080300831000000000000
B0450263207030S11656935EA0081000840000000000000
B0450303207042S11656991EA0081900849000000000000
B0450343207103S11657012EA0082900857000000000000
B0450383207137S11656948EA0083500859000000000000
B0450423207098S11656917EA0083500860000000015000
B0450463207082S11656968EA0083700865000000015000
B0450503207130S11657008EA0084700877000000015000
B0450543207196S11656984EA0085100874000000015000
B0450583207224S11656913EA0085200881000000015000
B0451023207199S11656853EA0085500885000000015000
B0451063207154S11656856EA0085900888000000000000
B0451103207146S11656914EA0086200893000000000000
B0451143207200S11656940EA0087700914000000015000
B0451183207245S11656888EA0088300905000000015000
B0451223207222S11656827EA0087500905000000015000
B0451263207178S11656839EA0087800909000000000000
B0451303207183S11656899EA0088500918000000000000
B0451343207245S11656916EA0089500925000000015000
B0451383207294S11656864EA0089900929000000015000
B0451423207287S11656797EA0089800927000000015000
B0451463207243S11656774EA0089800930000000000000
B0451503207212S11656813EA0090100934000000000000
B0451543207245S11656869EA0090600939000000000000
B0451583207313S11656858EA0091000941000000000000
B0452023207343S11656791EA0091400946000000000000
B0452063207316S11656737EA0091400944000000000000
B0452103207269S11656749EA0091700951000000000000
B0452143207269S11656810EA0092400958000000000000
B0452183207325S11656844EA0093200963000000000000
B0452223207388S11656810EA0093700969000000000000
B0452263207403S11656743EA0094100972000000000000
B0452303207365S11656704EA0094100971000000000000
B0452343207321S11656726EA0094000973000000000000
B0452383207320S11656792EA0094500980000000000000
B0452423207373S11656836EA0095300988000000000000
B0452463207434S11656810EA0096401001000000000000
B0452503207441S11656747EA0097001002000000000000
B0452543207402S11656721EA0096901002000000000000
B0452583207365S11656754EA0097001007000000000000
B0453023207380S11656818EA0097601012000000000000
B0453063207445S11656835EA0098301021000000000000
B0453103207488S11656783EA0099501029000000000000
B0453143207476S11656722EA0099901033000000000000
B0453183207434S11656710EA0100201039000000000000
B0453223207411S11656757EA0100701045000000000000
B0453263207441S11656815EA0101701056000000000000
B0453303207501S11656825EA0102801065000000000000
B0453343207540S11656771EA0103001064000000000000
B0453383207520S11656714EA0102801065000000000000
B0453423207475S11656722EA0103201072000000000000
B0453463207473S11656783EA0104201086000000000000
B0453503207531S11656806EA0105701097000000000000
B0453543207571S11656754EA0106201098000000000000
B0453583207557S11656697EA0106501106000000000000
B0454023207516S11656689EA0107501115000000000000
B0454063207494S11656732EA0108601127000000000000
B0454103207525S11656784EA0109801139000000000000
B0454143207586S11656771EA0110601143000000000000
B0454183207601S11656708EA0111001148000000000000
B0454223207563S11656679EA0111401153000000000000
B0454263207534S11656721EA0112201166000000000000
B0454303207567S11656782EA0113201177000000000000
B0454343207632S11656789EA0114901195000000000000
B0454383207674S11656741EA0116001201000000000000
B0454423207668S11656683EA0116501205000000000000
B0454463207631S11656663EA0116901211000000000000
B0454503207602S11656706EA0117701222000000000000
B0454543207623S11656770EA0119201239000000000000
B0454583207684S11656791EA0120601249000000000000
B0455023207735S11656749EA0121001250000000000000
B0455063207737S11656687EA0121101253000000000000
B0455103207702S11656652EA0121501259000000000000
B0455143207657S11656661EA0122201269000000000000
B0455183207638S11656719EA0123001276000000000000
B0455223207683S11656779EA0123801285000000000000
B0455263207754S11656775EA0125101298000000000000
B0455303207796S11656717EA0126001306000000000000
B0455343207781S11656658EA0126601311000000000000
B0455383207736S11656656EA0127501322000000000000
B0455423207713S11656711EA0128101329000000000000
B0455463207749S11656776EA0129001342000000000000
B0455503207820S11656784EA0130301350000000015000
B0455543207866S11656724EA0130701352000000015000
B0455583207853S11656658EA0130901359000000000000
B0456023207810S11656635EA0132001369000000000000
B0456063207770S11656669EA0132901374000000000000
B0456103207770S11656739EA0133701387000000000000
B0456143207823S11656791EA0135401404000000000000
B0456183207893S11656778EA0136501415000000000000
B0456223207923S11656714EA0137201419000000000000
B0456263207896S11656662EA0137401420000000000000
B0456303207845S11656676EA0137901427000000000000
B0456343207831S11656744EA0139001442000000000000
B0456383207872S11656808EA0140201452000000000000
B0456423207943S11656814EA0141301465000000000000
B0456463207993S11656766EA0142101467000000000000
B0456503207991S11656698EA0142001466000000015000
B0456543207944S11656672EA0142401472000000000000
B0456583207911S11656715EA0143601487000000000000
B0457023207943S11656780EA0144301493000000000000
B0457063208009S11656799EA0145301505000000000000
B0457103208058S11656754EA0146201509000000000000
B0457143208053S11656689EA0146001504000000000000
B0457183208008S11656661EA0146001510000000000000
B0457223207962S11656683EA0147201526000000000000
B0457263207961S11656747EA0148401531000000000000
B0457303208014S11656791EA0148101525000000000000
B0457343208084S11656774EA0147701524000000000000
B0457383208121S11656711EA0148101529000000000000
B0457423208100S11656657EA0148101528000000000000
B0457463208051S11656663EA0148201532000000000000
B0457503208030S11656724EA0149001542000000000000
B0457543208065S11656786EA0149501542000000000000
B0457583208135S11656800EA0149101534000000000000
B0458023208195S11656756EA0148801538000000000000
B0458063208217S11656687EA0149401542000000000000
B0458103208200S11656628EA0149401543000000000000
B0458143208156S11656609EA0149901550000000000000
B0458183208123S11656646EA0150801563000000000000
B0458223208145S11656704EA0151601563000000000000
B0458263208214S11656719EA0151101557000000000000
B0458303208275S11656672EA0151501566000000000000
B0458343208291S11656604EA0151901569000000000000
B0458383208260S11656553EA0152101572000000000000
B0458423208212S11656554EA0152301575000000000000
B0458463208192S11656610EA0152701580000000000000
B0458503208217S11656674EA0153301581000000000000
B0458543208281S11656708EA0153201581000000000000
B0458583208347S11656684EA0153901594000000000000
B0459023208383S11656627EA0154801594000000000000
B0459063208374S11656565EA0154501592000000000000
B0459103208333S11656537EA0154201592000000000000
B0459143208291S11656563EA0154101591000000000000
B0459183208287S11656630EA0154301595000000000000
B0459223208331S11656688EA0154401593000000000000
B0459263208400S11656705EA0154601592000000000000
B0459303208459S11656662EA0154401594000000000000
B0459343208477S11656594EA0154901598000000000000
B0459383208454S11656545EA0154801595000000000000
B0459423208405S11656533EA0154001588000000000000
B0459463208351S11656544EA0153601585000000000000
B0459503208298S11656562EA0153501586000000000000
B0459543208248S11656587EA0153101577000000000000
B0459583208197S11656606EA0152401573000000000000
B0500023208147S11656630EA0151801566000000000000
B0500063208097S11656656EA0151101559000000000000
B0500103208045S11656679EA0150501553000000000000
B0500143207993S11656705EA0149901547000000000000
B0500183207943S11656732EA0149501544000000000000
B0500223207889S11656758EA0149201537000000000000
B0500263207835S11656784EA0148601533000000000000
B0500303207780S11656806EA0148401533000000000000
B0500343207728S11656830EA0148901538000000000000
B0500383207680S11656862EA0149201542000000000000
B0500423207636S11656900EA0149001537000000000000
B0500463207586S11656936EA0148501533000000000000
B0500503207537S11656973EA0147701523000000000000
B0500543207485S11657010EA0146901517000000000000
B0500583207433S11657048EA0146901516000000000000
B0501023207382S11657088EA0147001520000000000000
B0501063207334S11657133EA0146901515000000000000
B0501103207284S11657176EA0146501511000000000000
B0501143207229S11657218EA0145701502000000000000
B0501183207173S11657260EA0145301501000000000000
B0501223207121S11657303EA0145201500000000000000
B0501263207072S11657345EA0145201499000000000000
B0501303207024S11657387EA0145201499000000000000
B0501343206977S11657433EA0145101499000000000000
B0501383206927S11657473EA0145001497000000000000
B0501423206875S11657510EA0144801493000000000000
B0501463206822S11657547EA0144201489000000000000
B0501503206767S11657581EA0143801483000000000000
B0501543206713S11657614EA0143401482000000000000
B0501583206661S11657645EA0143401478000000000000
B0502023206605S11657668EA0142701473000000000000
B0502063206548S11657681EA0142201468000000000000
B0502103206488S11657685EA0141901460000000000000
B0502143206427S11657683EA0140801450000000000000
B0502183206367S11657677EA0139701437000000000000
B0502223206305S11657671EA0138501425000000000000
B0502263206241S11657659EA0137901425000000000000
B0502303206179S11657650EA0137901421000000000000
B0502343206115S11657642EA0137501419000000000000
B0502383206051S11657633EA0137401415000000000000
B0502423205989S11657625EA0137001414000000000000
B0502463205928S11657619EA0137401418000000000000
B0502503205868S11657612EA0137801424000000000000
B0502543205812S11657616EA0138701435000000000000
B0502583205766S11657645EA0140001442000000000000
B0503023205782S11657709EA0140801454000000000000
B0503063205851S11657724EA0141801465000000000000
B0503103205907S11657675EA0142801474000000000000
B0503143205909S11657603EA0143301478000000000000
B0503183205873S11657566EA0143701485000000000000
B0503223205833S11657577EA0144401492000000000000
B0503263205822S11657628EA0145001496000000000000
B0503303205851S11657677EA0145001490000000000000
B0503343205921S11657697EA0144301490000000000000
B0503383205989S11657670EA0145401504000000000000
B0503423206017S11657607EA0146501511000000000000
B0503463205993S11657563EA0146501510000000000000
B0503503205959S11657584EA0146601512000000000000
B0503543205971S11657641EA0147401519000000000000
B0503583206030S11657668EA0147801523000000000000
B0504023206093S11657628EA0148101525000000000000
B0504063206107S11657554EA0148201527000000000000
B0504103206078S11657504EA0148401529000000000000
B0504143206037S11657510EA0148501530000000000000
B0504183206026S11657560EA0148901538000000000000
B0504223206072S11657608EA0149501543000000000000
B0504263206142S11657594EA0150101548000000000000
B0504303206173S11657523EA0150201546000000000000
B0504343206147S11657468EA0149801541000000000000
B0504383206104S11657478EA0149301540000000000000
B0504423206097S11657533EA0149801548000000000000
B0504463206142S11657582EA0150501556000000000000
B0504503206212S11657580EA0151301563000000000000
B0504543206253S11657519EA0151701562000000000000
B0504583206234S11657456EA0151601558000000000000
B0505023206192S11657443EA0151301560000000000000
B0505063206169S11657488EA0152001568000000000000
B0505103206192S11657546EA0152201566000000000000
B0505143206255S11657580EA0152201568000000000000
B0505183206322S11657542EA0152801577000000000000
B0505223206341S11657468EA0153101576000000000000
B0505263206314S11657412EA0153101578000000000000
B0505303206266S11657394EA0152701574000000000000
B0505343206212S11657395EA0152401570000000000000
B0505383206154S11657408EA0151801561000000000000
B0505423206093S11657429EA0150701551000000000000
B0505463206030S11657456EA0150201550000000000000
B0505503205971S11657493EA0150801557000000000000
B0505543205913S11657537EA0151001556000000000000
B0505583205860S11657586EA0150501550000000000000
B0506023205805S11657633EA0149901544000000000000
B0506063205748S11657673EA0149401540000000000000
B0506103205687S11657703EA0148701533000000000000
B0506143205622S11657718EA0148401530000000000000
B0506183205556S11657723EA0147801522000000000000
B0506223205488S11657727EA0147001515000000000000
B0506263205419S11657733EA0146501512000000000000
B0506303205353S11657738EA0146301507000000000000
B0506343205284S11657744EA0145601499000000000000
B0506383205217S11657744EA0145501505000000000000
B0506423205158S11657751EA0146401514000000000000
B0506463205103S11657767EA0146701512000000000000
B0506503205050S11657784EA0146501510000000000000
B0506543204999S11657803EA0146101505000000000000
B0506583204949S11657819EA0145301495000000000000
B0507023204895S11657837EA0144401484000000000000
B0507063204840S11657850EA0143301474000000000000
B0507103204780S11657857EA0142701468000000000000
B0507143204720S11657861EA0141801458000000000000
B0507183204658S11657859EA0140801447000000000000
B0507223204595S11657845EA0140101442000000000000
B0507263204535S11657828EA0139801441000000000000
B0507303204479S11657809EA0139801440000000000000
B0507343204426S11657784EA0139501432000000000000
B0507383204374S11657757EA0138201419000000000000
B0507423204323S11657732EA0137401412000000000000
B0507463204271S11657710EA0136601404000000000000
B0507503204219S11657694EA0136201405000000000000
B0507543204169S11657683EA0136501407000000000000
B0507583204118S11657680EA0136601407000000000000
B0508023204067S11657680EA0137001412000000000000
B0508063204017S11657690EA0137301414000000000000
B0508103203966S11657710EA0137101408000000000000
B0508143203930S11657759EA0136501405000000000000
B0508183203931S11657832EA0136301403000000000000
B0508223203975S11657891EA0136101397000000000000
B0508263204049S11657901EA0135201388000000000000
B0508303204115S11657861EA0134301380000000000000
B0508343204152S11657789EA0133201370000000000000
B0508383204161S11657712EA0132201360000000000000
B0508423204148S11657638EA0131901357000000000000
B0508463204121S11657572EA0131901361000000000000
B0508503204087S11657516EA0132401369000000000000
B0508543204047S11657468EA0133501381000000000000
B0508583204002S11657476EA0135101395000000000000
B0509023204027S11657536EA0136301405000000000000
B0509063204099S11657533EA0136901411000000000000
B0509103204128S11657467EA0137701423000000000000
B0509143204099S11657421EA0139501439000000000000
B0509183204061S11657447EA0140701449000000000000
B0509223204080S11657506EA0141801461000000000000
B0509263204140S11657534EA0142301461000000000000
B0509303204206S11657499EA0141801457000000000000
B0509343204235S11657428EA0143001476000000000000
B0509383204223S11657368EA0144701500000000000000
B0509423204183S11657365EA0146501513000000000000
B0509463204178S11657424EA0147201519000000000000
B0509503204227S11657468EA0148101529000000000000
B0509543204290S11657452EA0148801533000000000000
B0509583204321S11657391EA0148901536000000000000
B0510023204309S11657328EA0149801543000000000000
B0510063204273S11657294EA0150601553000000000000
B0510103204244S11657332EA0151501560000000000000
B0510143204277S11657386EA0152201569000000000000
B0510183204343S11657389EA0152801573000000000000
B0510223204383S11657333EA0153601581000000015000
B0510263204375S11657272EA0153901581000000000000
B0510303204329S11657254EA0154001589000000000000
B0510343204294S11657289EA0155401606000000000000
B0510383204305S11657346EA0156501609000000000000
B0510423204359S11657378EA0156201603000000000000
B0510463204424S11657358EA0155701603000000015000
B0510503204451S11657296EA0156301608000000015000
B0510543204418S11657256EA0156101603000000000000
B0510583204365S11657273EA0155801604000000000000
B0511023204351S11657334EA0156501610000000000000
B0511063204394S11657390EA0156001601000000000000
B0511103204465S11657394EA0155501601000000000000
B0511143204533S11657368EA0155801602000000000000
B0511183204582S11657317EA0156401608000000000000
B0511223204587S11657251EA0156601603000000000000
B0511263204547S11657215EA0155901601000000000000
B0511303204496S11657220EA0156101608000000000000
B0511343204469S11657263EA0156801616000000000000
B0511383204502S11657320EA0156801608000000000000
B0511423204574S11657328EA0156501610000000000000
B0511463204634S11657285EA0156901616000000000000
B0511503204665S11657217EA0157401620000000015000
B0511543204663S11657147EA0157501619000000000000
B0511583204628S11657092EA0157001616000000000000
B0512023204573S11657069EA0156901618000000000000
B0512063204518S11657073EA0157201622000000000000
B0512103204465S11657094EA0157401622000000000000
B0512143204416S11657125EA0157001616000000000000
B0512183204360S11657156EA0156001601000000000000
B0512223204300S11657182EA0155001596000000000000
B0512263204239S11657208EA0154801594000000000000
B0512303204180S11657233EA0154701593000000000000
B0512343204123S11657255EA0154501591000000000000
B0512383204067S11657273EA0154501589000000000000
B0512423204009S11657285EA0153501577000000000000
B0512463203948S11657289EA0153001574000000000000
B0512503203883S11657290EA0152501568000000000000
B0512543203818S11657286EA0152101564000000000000
B0512583203753S11657280EA0151501557000000000000
B0513023203685S11657272EA0150401546000000000000
B0513063203618S11657256EA0149801542000000000000
B0513103203554S11657231EA0149601540000000000000
B0513143203493S11657204EA0149301536000000000000
B0513183203430S11657183EA0148701529000000000000
B0513223203365S11657169EA0147901520000000000000
B0513263203299S11657157EA0147201517000000000000
B0513303203234S11657148EA0147101515000000000000
B0513343203172S11657140EA0146801513000000000000
B0513383203111S11657137EA0146801512000000000000
B0513423203048S11657131EA0146601508000000000000
B0513463202988S11657125EA0146301508000000000000
B0513503202929S11657121EA0146301508000000000000
B0513543202870S11657118EA0146301506000000000000
B0513583202812S11657116EA0145701498000000000000
B0514023202749S11657108EA0144901490000000000000
B0514063202685S11657090EA0144201483000000000000
B0514103202619S11657078EA0144001479000000000000
B0514143202550S11657072EA0143501476000000000000
B0514183202483S11657065EA0143501478000000000000
B0514223202420S11657068EA0144101484000000000000
B0514263202366S11657090EA0144001479000000000000
B0514303202308S11657113EA0143101467000000000000
B0514343202249S11657130EA0142701468000000000000
B0514383202193S11657152EA0142901469000000000000
B0514423202139S11657178EA0142501464000000000000
B0514463202086S11657204EA0141801457000000000000
B0514503202037S11657234EA0141601457000000000000
B0514543201990S11657267EA0141101447000000000000
B0514583201939S11657295EA0140101438000000000000
B0515023201882S11657312EA0139301433000000000000
B0515063201822S11657317EA0139501438000000000000
B0515103201769S11657335EA0140901451000000000000
B0515143201768S11657397EA0142401467000000000000
B0515183201825S11657429EA0143401474000000000000
B0515223201894S11657406EA0143101467000000000000
B0515263201939S11657339EA0142701466000000015000
B0515303201944S11657264EA0142901470000000000000
B0515343201908S11657220EA0143301475000000000000
B0515383201863S11657234EA0143801481000000000000
B0515423201861S11657299EA0144701489000000000000
B0515463201922S11657338EA0145401497000000000000
B0515503201994S11657317EA0145401494000000000000
B0515543202039S11657251EA0145501497000000015000
B0515583202045S11657182EA0146101504000000000000
B0516023202026S11657130EA0146801509000000000000
B0516063201991S11657103EA0146301502000000000000
B0516103201947S11657100EA0145501499000000000000
B0516143201900S11657114EA0145301496000000000000
B0516183201853S11657137EA0145301496000000000000
B0516223201807S11657163EA0145401503000000000000
B0516263201765S11657199EA0146401513000000000000
B0516303201769S11657259EA0147801523000000000000
B0516343201835S11657268EA0147901521000000000000
B0516383201873S11657203EA0148101528000000000000
B0516423201857S11657138EA0148701534000000000000
B0516463201811S11657118EA0149101540000000000000
B0516503201778S11657156EA0150001555000000000000
B0516543201779S11657215EA0150701551000000000000
B0516583201826S11657265EA0149901538000000000000
B0517023201895S11657270EA0148801533000000000000
B0517063201950S11657225EA0148701536000000015000
B0517103201969S11657156EA0149001540000000015000
B0517143201948S11657095EA0149301541000000000000
B0517183201907S11657062EA0149901546000000000000
B0517223201866S11657083EA0150801555000000000000
B0517263201874S11657143EA0151401560000000000000
B0517303201931S11657178EA0151501557000000000000
B0517343201998S11657157EA0152101568000000015000
B0517383202037S11657098EA0152901575000000015000
B0517423202035S11657029EA0153201574000000000000
B0517463201999S11656984EA0153201574000000000000
B0517503201951S11656986EA0153301578000000000000
B0517543201922S11657033EA0153701584000000000000
B0517583201947S11657094EA0154201590000000000000
B0518023202011S11657113EA0154501592000000000000
B0518063202072S11657074EA0154701597000000015000
B0518103202091S11657004EA0155601609000000015000
B0518143202071S11656944EA0156301608000000000000
B0518183202024S11656922EA0155901603000000000000
B0518223201972S11656916EA0155601604000000000000
B0518263201917S11656918EA0155901605000000000000
B0518303201861S11656930EA0156001606000000000000
B0518343201807S11656953EA0156301611000000000000
B0518383201755S11656990EA0155401595000000000000
B0518423201697S11657033EA0154101585000000000000
B0518463201635S11657068EA0153501582000000000000
B0518503201574S11657088EA0153501585000000000000
B0518543201513S11657111EA0154101587000000000000
B0518583201454S11657139EA0153701583000000000000
B0519023201396S11657172EA0153901588000000000000
B0519063201339S11657204EA0154101587000000000000
B0519103201280S11657237EA0153201575000000000000
B0519143201220S11657270EA0152301569000000000000
B0519183201159S11657300EA0151601559000000000000
B0519223201098S11657333EA0150501551000000000000
B0519263201034S11657365EA0150101545000000000000
B0519303200968S11657390EA0149201535000000000000
B0519343200898S11657412EA0148101524000000000000
B0519383200828S11657430EA0147301516000000000000
B0519423200758S11657446EA0146601511000000000000
B0519463200689S11657456EA0146501510000000000000
B0519503200621S11657467EA0146201506000000000000
B0519543200555S11657476EA0145601499000000000000
B0519583200490S11657481EA0145301495000000000000
B0520023200423S11657484EA0145001494000000000000
B0520063200360S11657491EA0145101496000000000000
B0520103200300S11657516EA0145201496000000000000
B0520143200241S11657546EA0145001495000000000000
B0520183200182S11657568EA0145901509000000000000
B0520223200126S11657592EA0146101498000000000000
B0520263200070S11657623EA0144001477000000000000
B0520303200006S11657638EA0142201461000000000000
B0520343159937S11657633EA0141301452000000000000
B0520383159868S11657618EA0140401442000000000000
B0520423159801S11657598EA0139701438000000000000
B0520463159736S11657576EA0139401438000000000000
B0520503159675S11657549EA0139501437000000000000
B0520543159615S11657520EA0139301436000000000000
B0520583159556S11657489EA0139401435000000000000
B0521023159495S11657454EA0139301435000000000000
B0521063159434S11657445EA0139901443000000000000
B0521103159374S11657455EA0140501446000000000000
B0521143159316S11657480EA0140501448000000000000
B0521183159264S11657512EA0141001456000000000000
B0521223159216S11657549EA0141901463000000000000
B0521263159172S11657593EA0142301469000000000000
B0521303159146S11657654EA0143201480000000000000
B0521343159194S11657705EA0144801495000000000000
B0521383159257S11657679EA0145501497000000000000
B0521423159277S11657611EA0145301497000000000000
B0521463159251S11657554EA0145801503000000000000
B0521503159204S11657525EA0146801516000000000000
B0521543159173S11657560EA0148301530000000000000
B0521583159201S11657611EA0148901529000000000000
B0522023159272S11657614EA0148601527000000000000
B0522063159316S11657555EA0148401527000000015000
B0522103159303S11657484EA0148801533000000015000
B0522143159257S11657449EA0149401537000000015000
B0522183159209S11657468EA0149901542000000015000
B0522223159208S11657529EA0150901557000000015000
B0522263159264S11657563EA0152201566000000015000
B0522303159326S11657534EA0152401565000000015000
B0522343159346S11657462EA0152801570000000015000
B0522383159316S11657404EA0153101572000000015000
B0522423159261S11657398EA0153001573000000015000
B0522463159224S11657449EA0153201582000000015000
B0522503159239S11657514EA0154701604000000015000
B0522543159299S11657543EA0155901612000000015000
B0522583159361S11657512EA0156701618000000015000
B0523023159381S11657442EA0157301624000000015000
B0523063159356S11657384EA0158001626000000015000
B0523103159305S11657368EA0158201630000000015000
B0523143159269S11657407EA0158301635000000015000
B0523183159285S11657469EA0159101647000000015000
B0523223159346S11657499EA0159801650000000015000
B0523263159408S11657464EA0160001656000000015000
B0523303159425S11657394EA0160501660000000015000
B0523343159389S11657348EA0161201666000000015000
B0523383159342S11657360EA0161801671000000015000
B0523423159326S11657413EA0162401679000000015000
B0523463159357S11657468EA0163301692000000015000
B0523503159422S11657486EA0163501688000000015000
B0523543159484S11657446EA0163201688000000015000
B0523583159500S11657373EA0163401686000000015000
B0524023159469S11657319EA0163601685000000015000
B0524063159421S11657306EA0163701686000000015000
B0524103159387S11657345EA0164001688000000015000
B0524143159404S11657411EA0163701687000000015000
B0524183159474S11657433EA0164101693000000015000
B0524223159530S11657380EA0164801704000000015000
B0524263159539S11657306EA0165901708000000015000
B0524303159504S11657256EA0165501699000000015000
B0524343159455S11657237EA0164601686000000015000
B0524383159399S11657248EA0163401675000000000000
B0524423159346S11657276EA0163101678000000000000
B0524463159294S11657308EA0163301678000000000000
B0524503159243S11657346EA0162701670000000000000
B0524543159195S11657390EA0162201667000000000000
B0524583159148S11657434EA0162201668000000000000
B0525023159099S11657472EA0162301670000000000000
B0525063159045S11657507EA0161701655000000000000
B0525103158990S11657538EA0160401647000000000000
B0525143158932S11657566EA0159701638000000000000
B0525183158876S11657589EA0158901632000000000000
B0525223158821S11657606EA0158701628000000000000
B0525263158765S11657624EA0158401625000000000000
B0525303158709S11657645EA0158201625000000000000
B0525343158650S11657660EA0157901621000000000000
B0525383158590S11657679EA0157601618000000000000
B0525423158531S11657701EA0157001608000000000000
B0525463158471S11657728EA0156101598000000000000
B0525503158410S11657758EA0155201595000000000000
B0525543158349S11657785EA0155301595000000000000
B0525583158289S11657810EA0154801587000000000000
B0526023158229S11657835EA0154001581000000000000
B0526063158171S11657858EA0153701577000000000000
B0526103158112S11657872EA0153501574000000000000
B0526143158054S11657883EA0153001567000000000000
B0526183157994S11657893EA0152101558000000000000
B0526223157930S11657904EA0151201548000000000000
B0526263157864S11657914EA0150101537000000000000
B0526303157796S11657928EA0149101528000000000000
B0526343157729S11657946EA0148301521000000000000
B0526383157662S11657966EA0147901518000000000000
B0526423157599S11657988EA0147701515000000000000
B0526463157535S11658009EA0147201510000000000000
B0526503157472S11658027EA0146801504000000000000
B0526543157409S11658045EA0146101495000000000000
B0526583157348S11658057EA0145501494000000000000
B0527023157287S11658056EA0145301490000000000000
B0527063157224S11658049EA0144701483000000000000
B0527103157163S11658041EA0144101476000000000000
B0527143157101S11658030EA0143101467000000000000
B0527183157036S11658019EA0142301457000000000000
B0527223156971S11658017EA0141801451000000000000
B0527263156904S11658017EA0141401448000000000000
B0527303156842S11658018EA0141301450000000000000
B0527343156781S11658019EA0141201447000000000000
B0527383156716S11658019EA0141101446000000000000
B0527423156653S11658032EA0141301450000000000000
B0527463156598S11658062EA0141501451000000000000
B0527503156549S11658100EA0141201449000000000000
B0527543156503S11658145EA0140901445000000000000
B0527583156455S11658191EA0140601441000000000000
B0528023156405S11658234EA0140201436000000000000
B0528063156354S11658273EA0139501430000000000000
B0528103156305S11658313EA0139501434000000000000
B0528143156254S11658347EA0140401444000000000000
B0528183156208S11658381EA0140901445000000000000
B0528223156159S11658420EA0140601441000000000000
B0528263156110S11658456EA0140201435000000000000
B0528303156055S11658483EA0139801434000000000000
B0528343156000S11658496EA0139801434000000000000
B0528383155942S11658503EA0139901435000000000000
B0528423155883S11658505EA0139701433000000000000
B0528463155823S11658511EA0140001438000000000000
B0528503155766S11658522EA0140201438000000000000
B0528543155708S11658542EA0139601427000000000000
B0528583155651S11658569EA0138701419000000000000
B0529013155608S11658591EA0137801413000000000000
B0529063155537S11658625EA0137401408000000000000
B0529103155478S11658642EA0136701400000000000000
B0529143155418S11658655EA0136201396000000000000
B0529183155359S11658660EA0135901392000000000000
B0529223155298S11658663EA0135401384000000000000
B0529263155236S11658668EA0134901382000000000000
B0529303155173S11658678EA0134601378000000000000
B0529343155106S11658693EA0134201374000000000000
B0529383155041S11658710EA0134101375000000000000
B0529423154975S11658732EA0134101374000000000000
B0529463154909S11658752EA0133701370000000000000
B0529503154843S11658773EA0133501368000000000000
B0529543154778S11658791EA0133201364000000000000
B0529583154713S11658811EA0132701359000000000000
B0530023154649S11658829EA0132701362000000000000
B0530063154585S11658850EA0132801362000000000000
B0530103154521S11658868EA0133001366000000000000
B0530143154460S11658889EA0133501370000000000000
B0530183154403S11658915EA0133801372000000000000
B0530223154347S11658949EA0134001372000000000000
B0530263154293S11658983EA0134701385000000000000
B0530303154265S11659040EA0136301400000000000000
B0530343154306S11659094EA0136901396000000000000
B0530383154381S11659088EA0136001391000000015000
B0530423154440S11659027EA0136201399000000015000
B0530463154450S11658951EA0137601416000000015000
B0530503154416S11658906EA0138901422000000015000
B0530543154373S11658928EA0139501429000000015000
B0530583154390S11658989EA0140201437000000015000
B0531023154451S11659009EA0140801444000000015000
B0531063154505S11658970EA0141201450000000015000
B0531103154514S11658903EA0141501451000000015000
B0531143154482S11658853EA0141801455000000015000
B0531183154433S11658843EA0142001457000000015000
B0531223154395S11658881EA0142701465000000015000
B0531263154407S11658941EA0143301469000000015000
B0531303154462S11658981EA0143701477000000015000
B0531343154527S11658968EA0144201479000000015000
B0531383154563S11658903EA0144201480000000030000
B0531423154547S11658832EA0144401485000000015000
B0531463154497S11658801EA0145101493000000015000
B0531503154451S11658828EA0145901497000000015000
B0531543154451S11658894EA0146101500000000015000
B0531583154508S11658934EA0146601504000000015000
B0532023154576S11658912EA0146701506000000015000
B0532063154605S11658841EA0147201511000000015000
B0532103154579S11658776EA0147501515000000015000
B0532143154527S11658755EA0148001517000000015000
B0532183154482S11658785EA0148201521000000015000
B0532223154476S11658846EA0148901526000000015000
B0532263154515S11658898EA0149301529000000015000
B0532303154580S11658907EA0149201526000000015000
B0532343154636S11658862EA0149201529000000015000
B0532383154646S11658790EA0149401531000000015000
B0532423154614S11658733EA0149401531000000015000
B0532463154562S11658708EA0149101525000000015000
B0532503154503S11658710EA0148401518000000015000
B0532543154441S11658721EA0147701505000000000000
B0532583154378S11658746EA0146201491000000000000
B0533023154315S11658781EA0144901478000000000000
B0533063154251S11658817EA0143901471000000000000
B0533103154185S11658850EA0143001461000000000000
B0533143154116S11658879EA0142301455000000000000
B0533183154044S11658906EA0141501447000000000000
B0533223153973S11658932EA0140701439000000000000
B0533263153900S11658957EA0140401439000000000000
B0533303153829S11658980EA0140401439000000000000
B0533343153757S11659005EA0140701442000000000000
B0533383153687S11659032EA0140201432000000000000
B0533423153615S11659062EA0139301424000000000000
B0533463153543S11659092EA0138901422000000000000
B0533503153470S11659116EA0139101424000000000000
B0533543153401S11659141EA0139001422000000000000
B0533583153331S11659163EA0138501418000000000000
B0534023153259S11659183EA0138401417000000000000
B0534063153189S11659201EA0138301415000000000000
B0534103153120S11659223EA0137801410000000000000
B0534143153052S11659248EA0137501410000000000000
B0534183152982S11659270EA0137701412000000000000
B0534223152913S11659293EA0138301417000000000000
B0534263152844S11659315EA0138701422000000000000
B0534303152779S11659339EA0139501431000000000000
B0534343152718S11659367EA0140601443000000000000
B0534383152664S11659404EA0141801460000000000000
B0534423152657S11659473EA0144101481000000000000
B0534463152722S11659506EA0145301490000000000000
B0534503152794S11659470EA0146001497000000015000
B0534543152820S11659399EA0147101513000000015000
B0534583152795S11659348EA0148501521000000015000
B0535023152748S11659347EA0148901528000000015000
B0535063152735S11659404EA0150401545000000015000
B0535103152766S11659464EA0151901559000000015000
B0535143152831S11659484EA0152901569000000015000
B0535183152894S11659449EA0153701576000000015000
B0535223152919S11659387EA0154501588000000015000
B0535263152899S11659336EA0155001585000000015000
B0535303152854S11659319EA0155001585000000015000
B0535343152816S11659350EA0155701592000000015000
B0535383152841S11659413EA0156301597000000015000
B0535423152915S11659426EA0156401604000000015000
B0535463152971S11659378EA0157301611000000030000
B0535503152981S11659309EA0158001619000000015000
B0535543152950S11659263EA0158501622000000015000
B0535583152900S11659258EA0158501620000000015000
B0536023152850S11659280EA0158601623000000015000
B0536063152796S11659306EA0158701624000000000000
B0536103152744S11659344EA0158201617000000000000
B0536143152688S11659383EA0157901619000000000000
B0536183152629S11659412EA0158101621000000000000
B0536223152568S11659436EA0158201617000000000000
B0536263152505S11659462EA0157201607000000000000
B0536303152441S11659488EA0156901607000000000000
B0536343152382S11659516EA0157101609000000000000
B0536383152326S11659544EA0157601616000000000000
B0536423152276S11659577EA0158301625000000000000
B0536463152231S11659614EA0158501620000000000000
B0536503152181S11659651EA0157801617000000000000
B0536543152128S11659677EA0158001620000000000000
B0536583152072S11659695EA0158401625000000000000
B0537023152016S11659717EA0158501623000000000000
B0537063151959S11659746EA0158301623000000000000
B0537103151903S11659779EA0157901613000000000000
B0537143151842S11659812EA0156801605000000000000
B0537183151778S11659834EA0156701603000000000000
B0537223151716S11659852EA0156201597000000000000
B0537263151652S11659873EA0155401586000000000000
B0537303151589S11659902EA0154001574000000000000
B0537343151521S11659925EA0153201567000000000000
B0537383151455S11659941EA0153001569000000000000
B0537423151392S11659954EA0153401572000000000000
B0537463151334S11659969EA0153501571000000000000
B0537503151278S11659999EA0153001566000000000000
B0537543151223S11700037EA0152901566000000000000
B0537583151170S11700078EA0153301571000000000000
B0538023151119S11700125EA0153501573000000000000
B0538063151069S11700175EA0153201568000000000000
B0538103151018S11700219EA0153701581000000000000
B0538143150971S11700260EA0154801588000000000000
B0538183150926S11700299EA0154401581000000000000
B0538223150878S11700340EA0153701575000000000000
B0538263150826S11700376EA0153401570000000000000
B0538303150771S11700407EA0153501574000000000000
B0538343150719S11700446EA0153101566000000000000
B0538383150668S11700492EA0152401560000000000000
B0538423150615S11700533EA0151601551000000000000
B0538463150559S11700570EA0151101548000000000000
B0538503150508S11700614EA0150901545000000000000
B0538543150462S11700665EA0149901535000000000000
B0538583150415S11700715EA0149301526000000000000
B0539023150372S11700770EA0148501520000000000000
B0539063150325S11700822EA0147701511000000000000
B0539103150269S11700861EA0146901504000000000000
B0539143150205S11700879EA0146501500000000000000
B0539183150143S11700871EA0147001510000000000000
B0539223150088S11700842EA0147801516000000000000
B0539263150046S11700793EA0147801514000000000000
B0539303150013S11700732EA0147701513000000000000
B0539343149997S11700662EA0148001519000000000000
B0539383150000S11700591EA0148701524000000000000
B0539423150020S11700519EA0149101529000000000000
B0539463150059S11700458EA0149201527000000000000
B0539503150113S11700413EA0148801519000000000000
B0539543150178S11700385EA0148301516000000000000
B0539583150243S11700379EA0147801509000000000000
B0540023150308S11700383EA0147401507000000000000
B0540063150374S11700384EA0147401507000000000000
B0540103150443S11700384EA0147401506000000000000
B0540143150512S11700370EA0147401510000000000000
B0540183150562S11700329EA0148301515000000000000
B0540223150567S11700260EA0147801506000000015000
B0540263150572S11700182EA0147301508000000000000
B0540303150611S11700117EA0148401524000000000000
B0540343150670S11700097EA0149501532000000000000
B0540383150731S11700116EA0149201521000000015000
B0540423150771S11700173EA0148401519000000015000
B0540463150776S11700242EA0148301516000000015000
B0540503150746S11700294EA0148201517000000015000
B0540543150697S11700312EA0148101516000000015000
B0540583150645S11700290EA0148001515000000015000
B0541023150616S11700229EA0148401521000000015000
B0541063150615S11700156EA0149101533000000000000
B0541103150645S11700089EA0149901537000000000000
B0541143150683S11700025EA0149401527000000000000
B0541183150719S11659951EA0148501519000000000000
B0541223150754S11659873EA0148501521000000000000
B0541263150789S11659794EA0147901514000000000000
B0541303150819S11659711EA0147201507000000000000
B0541343150844S11659623EA0146601500000000000000
B0541383150871S11659534EA0145601488000000000000
B0541423150902S11659445EA0144901484000000000000
B0541463150933S11659358EA0144601480000000000000
B0541503150965S11659272EA0144101474000000000000
B0541543150997S11659188EA0143401469000000000000
B0541583151032S11659106EA0143301470000000000000
B0542023151067S11659028EA0143401469000000000000
B0542063151101S11658954EA0143301467000000000000
B0542103151135S11658879EA0142901464000000000000
B0542143151166S11658802EA0142701462000000000000
B0542183151197S11658724EA0142601461000000000000
B0542223151230S11658647EA0142401457000000000000
B0542263151260S11658570EA0142001455000000000000
B0542303151286S11658495EA0141701452000000000000
B0542343151313S11658417EA0141101445000000000000
B0542383151338S11658339EA0140401439000000000000
B0542423151361S11658261EA0140101435000000000000
B0542463151385S11658184EA0139801433000000000000
B0542503151407S11658106EA0139701428000000000000
B0542543151427S11658027EA0138401415000000000000
B0542583151448S11657945EA0137401405000000000000
B0543023151474S11657866EA0136901402000000000000
B0543063151504S11657792EA0136701398000000000000
B0543103151539S11657719EA0135801389000000000000
B0543143151578S11657647EA0135501387000000000000
B0543183151617S11657579EA0135501389000000000000
B0543223151659S11657515EA0135501387000000000000
B0543263151699S11657449EA0135101381000000000000
B0543303151736S11657378EA0134101371000000000000
B0543343151769S11657307EA0133201362000000000000
B0543383151806S11657234EA0132401355000000000000
B0543423151850S11657166EA0131901349000000000000
B0543463151907S11657109EA0131301342000000000000
B0543503151964S11657051EA0130601335000000000000
B0543543152018S11656988EA0130401333000000000000
B0543583152068S11656926EA0130401334000000000000
B0544023152123S11656869EA0130401333000000000000
B0544063152171S11656809EA0130301332000000000000
B0544103152213S11656743EA0130201330000000000000
B0544143152248S11656672EA0130001326000000000000
B0544183152271S11656596EA0129501322000000000000
B0544223152280S11656516EA0129201322000000000000
B0544263152282S11656440EA0129701329000000000000
B0544303152269S11656371EA0130101329000000000000
B0544343152223S11656338EA0129601320000000000000
B0544383152172S11656360EA0128801314000000000000
B0544423152131S11656403EA0128301310000000000000
B0544463152087S11656442EA0128201311000000000000
B0544503152045S11656485EA0128301312000000000000
B0544543152001S11656531EA0128401316000000000000
B0544583151970S11656585EA0129301326000000000000
B0545023152005S11656645EA0129801325000000000000
B0545063152080S11656630EA0128901315000000015000
B0545103152110S11656545EA0128401314000000015000
B0545143152076S11656483EA0129101326000000015000
B0545183152024S11656479EA0130201334000000015000
B0545223151975S11656507EA0130501333000000015000
B0545263151963S11656574EA0130101329000000015000
B0545303152020S11656628EA0130001332000000015000
B0545343152098S11656628EA0130501341000000015000
B0545383152146S11656572EA0131401349000000015000
B0545423152118S11656524EA0131801346000000015000
B0545463152068S11656541EA0131301337000000015000
B0545503152049S11656605EA0131101345000000015000
B0545543152085S11656666EA0131801352000000015000
B0545583152154S11656679EA0132401359000000015000
B0546023152197S11656627EA0133001363000000015000
B0546063152176S11656566EA0132801357000000015000
B0546103152133S11656576EA0133001363000000015000
B0546143152129S11656636EA0133501368000000015000
B0546183152179S11656682EA0133701372000000015000
B0546223152243S11656665EA0134001377000000015000
B0546263152274S11656601EA0133901371000000030000
B0546303152256S11656536EA0133501366000000015000
B0546343152209S11656523EA0133501367000000015000
B0546383152178S11656565EA0133801370000000015000
B0546423152155S11656622EA0133501368000000015000
B0546463152127S11656678EA0133401371000000015000
B0546503152094S11656728EA0133401370000000000000
B0546543152066S11656782EA0133001366000000000000
B0546583152066S11656848EA0132701361000000000000
B0547023152113S11656903EA0132201355000000015000
B0547063152184S11656913EA0131401345000000015000
B0547103152257S11656892EA0130601339000000015000
B0547143152318S11656840EA0130101335000000015000
B0547183152360S11656771EA0130301339000000015000
B0547223152374S11656700EA0130601340000000000000
B0547263152349S11656643EA0130601339000000000000
B0547303152304S11656648EA0130701336000000000000
B0547343152293S11656709EA0130101331000000015000
B0547383152327S11656767EA0129901329000000015000
B0547423152393S11656787EA0129301322000000015000
B0547463152466S11656779EA0128601313000000015000
B0547503152542S11656766EA0127801305000000015000
B0547543152618S11656749EA0127001297000000000000
B0547583152696S11656734EA0126101286000000000000
B0548023152776S11656719EA0125101276000000000000
B0548063152856S11656705EA0124301270000000000000
B0548103152937S11656692EA0124001267000000000000
B0548143153015S11656678EA0123901263000000000000
B0548183153093S11656665EA0123301256000000000000
B0548223153172S11656656EA0122701248000000000000
B0548263153251S11656645EA0122101242000000000000
B0548303153329S11656637EA0122201248000000000000
B0548343153407S11656637EA0123201259000000000000
B0548383153470S11656606EA0123801262000000000000
B0548423153479S11656537EA0123201251000000000000
B0548463153433S11656501EA0122301243000000000000
B0548503153384S11656536EA0122101243000000000000
B0548543153359S11656604EA0122301252000000015000
B0548583153375S11656675EA0123501272000000015000
B0549023153442S11656672EA0125001285000000015000
B0549063153468S11656614EA0125901282000000015000
B0549103153436S11656571EA0124901274000000015000
B0549143153385S11656587EA0125101281000000015000
B0549183153379S11656650EA0126201295000000015000
B0549223153427S11656695EA0126801296000000015000
B0549263153497S11656691EA0126801298000000015000
B0549303153535S11656633EA0126601292000000015000
B0549343153517S11656567EA0125401279000000015000
B0549383153462S11656552EA0125801290000000015000
B0549423153433S11656604EA0127301306000000015000
B0549463153455S11656665EA0128301316000000015000
B0549503153515S11656692EA0128401313000000015000
B0549543153578S11656662EA0128201314000000015000
B0549583153600S11656594EA0127901304000000015000
B0550023153575S11656533EA0127101296000000015000
B0550063153520S11656518EA0126901301000000015000
B0550103153475S11656558EA0127601307000000015000
B0550143153466S11656627EA0127701308000000015000
B0550183153504S11656689EA0127301304000000015000
B0550223153572S11656715EA0126801298000000015000
B0550263153652S11656713EA0126301294000000015000
B0550303153730S11656695EA0126001290000000015000
B0550343153809S11656675EA0126101291000000015000
B0550383153887S11656657EA0126501297000000000000
B0550423153961S11656630EA0127201304000000000000
B0550463154031S11656593EA0127201297000000000000
B0550503154105S11656557EA0126801297000000000000
B0550543154176S11656514EA0127401303000000000000
B0550583154238S11656463EA0128301313000000000000
B0551023154290S11656406EA0129301324000000000000
B0551063154294S11656336EA0130301330000000000000
B0551103154251S11656311EA0130601334000000000000
B0551143154217S11656355EA0131001342000000000000
B0551183154237S11656419EA0132401355000000015000
B0551223154298S11656437EA0133501367000000015000
B0551263154350S11656396EA0134201370000000015000
B0551303154354S11656325EA0134401377000000015000
B0551343154315S11656288EA0134601379000000015000
B0551383154268S11656314EA0135001391000000015000
B0551423154260S11656377EA0136601410000000015000
B0551463154299S11656431EA0138001420000000015000
B0551503154367S11656424EA0138501426000000015000
B0551543154411S11656363EA0138801429000000015000
B0551583154410S11656289EA0138901431000000015000
B0552023154367S11656246EA0139201438000000015000
B0552063154321S11656268EA0140301451000000015000
B0552103154337S11656329EA0141801471000000015000
B0552143154398S11656340EA0143401479000000015000
B0552183154445S11656289EA0143601479000000015000
B0552223154449S11656221EA0143701484000000015000
B0552263154415S11656180EA0144301494000000015000
B0552303154372S11656186EA0145401505000000015000
B0552343154356S11656237EA0146001509000000015000
B0552383154390S11656292EA0146901519000000015000
B0552423154454S11656298EA0148201530000000015000
B0552463154501S11656246EA0148501526000000015000
B0552503154501S11656173EA0148201530000000015000
B0552543154463S11656125EA0149001542000000015000
B0552583154416S11656129EA0150001552000000015000
B0553023154394S11656176EA0150901558000000015000
B0553063154415S11656236EA0151701566000000015000
B0553103154475S11656255EA0152401574000000015000
B0553143154531S11656223EA0153101577000000015000
B0553183154550S11656156EA0153101580000000015000
B0553223154520S11656104EA0153501586000000015000
B0553263154473S11656108EA0154001593000000015000
B0553303154472S11656167EA0154801601000000015000
B0553343154527S11656206EA0155401605000000015000
B0553383154592S11656184EA0155701609000000015000
B0553423154624S11656120EA0156501618000000015000
B0553463154615S11656054EA0156901619000000015000
B0553503154571S11656015EA0157001623000000015000
B0553543154519S11656017EA0157201624000000015000
B0553583154489S11656063EA0157401625000000015000
B0554023154506S11656123EA0157001615000000015000
B0554063154562S11656165EA0157001626000000015000
B0554103154624S11656189EA0158301638000000015000
B0554143154676S11656156EA0159101640000000015000
B0554183154679S11656090EA0158401633000000015000
B0554223154638S11656045EA0158001625000000015000
B0554263154594S11655994EA0157201614000000000000
B0554303154551S11655931EA0156301602000000000000
B0554343154507S11655861EA0154801586000000000000
B0554383154464S11655783EA0153301573000000000000
B0554423154428S11655700EA0152801572000000000000
B0554463154399S11655617EA0153201578000000000000
B0554503154371S11655538EA0153401575000000000000
B0554543154341S11655460EA0152801569000000000000
B0554583154310S11655383EA0152501567000000000000
B0555023154276S11655309EA0152201560000000000000
B0555063154243S11655232EA0151501553000000000000
B0555103154208S11655155EA0150701544000000000000
B0555143154173S11655077EA0149801538000000000000
B0555183154142S11654997EA0149601536000000000000
B0555223154116S11654915EA0149501534000000000000
B0555263154090S11654836EA0149101530000000000000
B0555303154063S11654758EA0148901526000000000000
B0555343154037S11654678EA0148401522000000000000
B0555383154011S11654600EA0148001517000000000000
B0555423153986S11654524EA0147701514000000000000
B0555463153964S11654447EA0147501513000000000000
B0555503153943S11654371EA0147201508000000000000
B0555543153925S11654293EA0146501498000000000000
B0555583153907S11654213EA0145301488000000000000
B0556023153887S11654132EA0144501479000000000000
B0556063153868S11654050EA0143701472000000000000
B0556103153851S11653967EA0143201465000000000000
B0556143153835S11653884EA0142501458000000000000
B0556183153817S11653802EA0142201458000000000000
B0556223153800S11653727EA0142601462000000000000
B0556263153782S11653653EA0142201455000000000000
B0556303153762S11653578EA0141301444000000000000
B0556343153740S11653502EA0140401436000000000000
B0556383153715S11653424EA0140301435000000000000
B0556423153691S11653346EA0140601440000000000000
B0556463153654S11653285EA0141201446000000000000
B0556503153602S11653269EA0141001442000000000000
B0556543153546S11653278EA0140301431000000000000
B0556583153489S11653295EA0139301422000000000000
B0557023153431S11653292EA0138601417000000000000
B0557063153380S11653252EA0139201425000000000000
B0557103153346S11653191EA0140501441000000000000
B0557143153364S11653123EA0142101457000000000000
B0557183153426S11653097EA0142801458000000000000
B0557223153481S11653134EA0142901462000000015000
B0557263153484S11653192EA0143201465000000015000
B0557303153445S11653213EA0143901477000000015000
B0557343153409S11653179EA0144901487000000015000
B0557383153413S11653117EA0145701495000000015000
B0557423153457S11653064EA0146301496000000015000
B0557463153520S11653044EA0146501501000000015000
B0557503153576S11653074EA0147201508000000015000
B0557543153597S11653131EA0147301511000000015000
B0557583153580S11653182EA0147201509000000015000
B0558023153536S11653201EA0147201517000000015000
B0558063153493S11653179EA0148001524000000015000
B0558103153481S11653118EA0148701529000000015000
B0558143153522S11653060EA0149501535000000015000
B0558183153588S11653038EA0149401529000000015000
B0558223153649S11653069EA0149601539000000015000
B0558263153678S11653126EA0150601548000000015000
B0558303153675S11653186EA0150801550000000015000
B0558343153645S11653229EA0151101554000000015000
B0558383153600S11653237EA0151701562000000015000
B0558423153562S11653207EA0152401567000000015000
B0558463153553S11653147EA0152801565000000015000
B0558503153558S11653078EA0152401559000000015000
B0558543153557S11653001EA0152501565000000000000
B0558583153546S11652925EA0152301557000000000000
B0559023153532S11652844EA0151601550000000000000
B0559063153513S11652763EA0151301549000000000000
B0559103153487S11652685EA0151501551000000000000
B0559143153457S11652606EA0151801552000000000000
B0559183153429S11652525EA0151501548000000000000
B0559223153406S11652444EA0151001544000000000000
B0559263153384S11652362EA0150001532000000000000
B0559303153363S11652280EA0149401528000000000000
B0559343153344S11652200EA0149401528000000000000
B0559383153322S11652124EA0148901521000000000000
B0559423153296S11652050EA0148401515000000000000
B0559463153272S11651976EA0148101513000000000000
B0559503153251S11651900EA0147701506000000000000
B0559543153227S11651826EA0147201503000000000000
B0559583153202S11651758EA0147001506000000000000
B0600023153176S11651691EA0147101504000000000000
B0600063153150S11651623EA0146601501000000000000
B0600103153123S11651553EA0146301499000000000000
B0600143153099S11651482EA0146501504000000000000
B0600183153071S11651417EA0146801508000000000000
B0600223153025S11651392EA0146701507000000000000
B0600263152984S11651422EA0146301502000000000000
B0600303152976S11651484EA0145901500000000000000
B0600343153006S11651545EA0145701501000000000000
B0600383153058S11651587EA0145601499000000000000
B0600423153127S11651593EA0145101494000000015000
B0600463153195S11651566EA0144601490000000000000
B0600503153262S11651527EA0144001482000000000000
B0600543153332S11651493EA0143701483000000000000
B0600583153402S11651475EA0143901484000000000000
B0601023153474S11651467EA0143801479000000000000
B0601063153546S11651469EA0143001471000000000000
B0601103153619S11651478EA0142101465000000000000
B0601143153691S11651489EA0141901462000000000000
B0601183153764S11651506EA0141201455000000000000
B0601223153835S11651528EA0140201445000000000000
B0601263153907S11651557EA0139201437000000000000
B0601303153977S11651588EA0138701431000000000000
B0601343154046S11651622EA0138401430000000000000
B0601383154111S11651661EA0138301426000000000000
B0601423154174S11651701EA0137801423000000000000
B0601463154239S11651738EA0137601422000000000000
B0601503154302S11651771EA0137301418000000000000
B0601543154365S11651807EA0136801411000000000000
B0601583154429S11651840EA0136201406000000000000
B0602023154493S11651878EA0136001406000000000000
B0602063154560S11651904EA0136401409000000000000
B0602103154629S11651888EA0136201407000000000000
B0602143154697S11651855EA0135801402000000000000
B0602183154761S11651812EA0134801390000000000000
B0602223154830S11651771EA0133401374000000000000
B0602263154905S11651749EA0132501369000000000000
B0602303154979S11651747EA0132401368000000000000
B0602343155053S11651742EA0132401368000000000000
B0602383155122S11651717EA0132401368000000000000
B0602423155183S11651674EA0132001364000000000000
B0602463155236S11651623EA0132201369000000000000
B0602503155255S11651552EA0132201365000000000000
B0602543155226S11651495EA0131801363000000000000
B0602583155175S11651500EA0132201374000000000000
B0603023155165S11651560EA0133001379000000015000
B0603063155209S11651609EA0133001376000000015000
B0603103155275S11651608EA0133201380000000015000
B0603143155317S11651558EA0133701381000000015000
B0603183155314S11651493EA0133201369000000015000
B0603223155268S11651459EA0132401372000000015000
B0603263155213S11651462EA0132901376000000015000
B0603303155174S11651505EA0133501382000000015000
B0603343155190S11651574EA0133701382000000015000
B0603383155251S11651612EA0133701385000000015000
B0603423155316S11651586EA0134301388000000015000
B0603463155335S11651522EA0134501390000000015000
B0603503155296S11651483EA0134501387000000015000
B0603543155252S11651514EA0134401392000000015000
B0603583155248S11651580EA0134701397000000015000
B0604023155286S11651639EA0135201398000000015000
B0604063155347S11651664EA0135001395000000015000
B0604103155416S11651661EA0134601390000000015000
B0604143155489S11651661EA0133901384000000015000
B0604183155561S11651674EA0133801384000000015000
B0604223155632S11651691EA0133801384000000000000
B0604263155703S11651701EA0133601380000000000000
B0604303155777S11651708EA0133201376000000000000
B0604343155853S11651721EA0132901375000000000000
B0604383155928S11651742EA0133001378000000000000
B0604423156005S11651755EA0133201382000000000000
B0604463156083S11651757EA0133601384000000000000
B0604503156161S11651751EA0133801386000000000000
B0604543156239S11651735EA0134001388000000000000
B0604583156309S11651706EA0134501392000000000000
B0605023156351S11651639EA0134301384000000000000
B0605063156323S11651579EA0133301378000000000000
B0605103156275S11651586EA0133001380000000000000
B0605143156263S11651644EA0133001377000000015000
B0605183156302S11651708EA0132801376000000015000
B0605223156365S11651752EA0132601373000000015000
B0605263156440S11651778EA0132201369000000000000
B0605303156517S11651800EA0131601362000000000000
B0605343156596S11651825EA0130301346000000000000
B0605383156674S11651851EA0129601340000000000000
B0605423156750S11651872EA0129201334000000000000
B0605463156825S11651892EA0128301325000000000000
B0605503156899S11651913EA0127301313000000000000
B0605543156972S11651935EA0126401304000000000000
B0605583157045S11651957EA0125901300000000000000
B0606023157116S11651976EA0125501298000000000000
B0606063157188S11651991EA0126101305000000000000
B0606103157258S11651990EA0127101322000000000000
B0606143157294S11651937EA0128801337000000000000
B0606183157263S11651896EA0129901343000000000000
B0606223157223S11651937EA0130201350000000000000
B0606263157242S11652000EA0131001361000000015000
B0606303157303S11652012EA0132301374000000015000
B0606343157348S11651960EA0133201380000000015000
B0606383157337S11651898EA0134301396000000015000
B0606423157292S11651879EA0135601408000000015000
B0606463157257S11651920EA0136101408000000015000
B0606503157268S11651982EA0136301413000000015000
B0606543157320S11652017EA0136701422000000015000
B0606583157381S11652003EA0137901435000000015000
B0607023157410S11651947EA0139401448000000015000
B0607063157389S11651898EA0139901449000000015000
B0607103157344S11651904EA0140001448000000015000
B0607143157324S11651957EA0140601454000000015000
B0607183157357S11652009EA0141501457000000015000
B0607223157418S11652007EA0141701462000000015000
B0607263157454S11651953EA0143401479000000015000
B0607303157449S11651892EA0144201479000000015000
B0607343157409S11651865EA0144401479000000015000
B0607383157365S11651887EA0144601483000000015000
B0607423157350S11651943EA0144801484000000015000
B0607463157384S11651998EA0144501484000000015000
B0607503157444S11652012EA0145001494000000015000
B0607543157498S11651985EA0146401509000000015000
B0607583157519S11651925EA0147401518000000015000
B0608023157491S11651881EA0148301520000000015000
B0608063157443S11651887EA0148201516000000015000
B0608103157407S11651935EA0147901518000000015000
B0608143157410S11651998EA0148301525000000015000
B0608183157448S11652050EA0148301519000000015000
B0608223157509S11652073EA0147101510000000015000
B0608263157573S11652085EA0146901517000000015000
B0608303157636S11652085EA0147701524000000015000
B0608343157701S11652067EA0147901524000000015000
B0608383157747S11652007EA0147301519000000015000
B0608423157757S11651930EA0147201521000000015000
B0608463157731S11651866EA0147101515000000015000
B0608503157683S11651834EA0146501510000000015000
B0608543157628S11651842EA0146401510000000015000
B0608583157582S11651881EA0146501517000000015000
B0609023157557S11651939EA0147401524000000015000
B0609063157570S11652008EA0147701527000000015000
B0609103157615S11652057EA0147701526000000015000
B0609143157675S11652091EA0147501527000000015000
B0609183157743S11652116EA0148101534000000000000
B0609223157812S11652132EA0148701539000000000000
B0609263157883S11652138EA0148801539000000000000
B0609303157956S11652150EA0149001542000000000000
B0609343158029S11652165EA0149501547000000000000
B0609383158103S11652182EA0149901553000000000000
B0609423158177S11652194EA0150401557000000000000
B0609463158254S11652204EA0150401554000000000000
B0609503158330S11652220EA0150501556000000000000
B0609543158407S11652239EA0150201549000000000000
B0609583158486S11652264EA0149301538000000000000
B0610023158567S11652289EA0148701537000000000000
B0610063158646S11652310EA0148901537000000000000
B0610103158726S11652328EA0148601532000000000000
B0610143158806S11652349EA0147801525000000000000
B0610183158884S11652372EA0147401522000000000000
B0610223158960S11652403EA0147701525000000000000
B0610263159032S11652434EA0147401521000000000000
B0610303159108S11652466EA0146701509000000000000
B0610343159185S11652498EA0145301495000000000000
B0610383159261S11652533EA0144401487000000000000
B0610423159337S11652568EA0144101487000000000000
B0610463159412S11652602EA0144701499000000000000
B0610503159486S11652596EA0146801521000000000000
B0610543159532S11652532EA0148601538000000000000
B0610583159523S11652458EA0150001549000000000000
B0611023159477S11652424EA0150501553000000000000
B0611063159426S11652438EA0149901542000000015000
B0611103159391S11652490EA0149301538000000015000
B0611143159391S11652563EA0149301543000000000000
B0611183159428S11652629EA0149801546000000000000
B0611223159491S11652668EA0150101550000000000000
B0611263159562S11652696EA0150501557000000000000
B0611303159632S11652696EA0151801572000000000000
B0611343159669S11652632EA0152901580000000015000
B0611383159645S11652570EA0153701592000000015000
B0611423159594S11652576EA0154901606000000015000
B0611463159598S11652639EA0156501617000000015000
B0611503159659S11652675EA0156501615000000015000
B0611543159729S11652642EA0157401632000000015000
B0611583159755S11652579EA0159801656000000015000
B0612023159734S11652525EA0160901664000000015000
B0612063159688S11652520EA0161401671000000015000
B0612103159659S11652564EA0162401682000000015000
B0612143159673S11652629EA0163301688000000015000
B0612183159728S11652670EA0163701691000000000000
B0612223159797S11652667EA0164301699000000015000
B0612263159853S11652639EA0165701722000000015000
B0612303159887S11652592EA0167001724000000015000
B0612343159881S11652523EA0166901729000000015000
B0612383159848S11652479EA0168601748000000015000
B0612423159806S11652485EA0170001757000000015000
B0612463159789S11652536EA0170601761000000015000
B0612503159809S11652598EA0171201769000000015000
B0612543159853S11652645EA0172101778000000000000
B0612583159913S11652653EA0172501778000000015000
B0613023159968S11652620EA0172001770000000015000
B0613063200001S11652551EA0171801778000000015000
B0613103159997S11652486EA0173401802000000015000
B0613143159967S11652449EA0175001809000000015000
B0613183159923S11652454EA0175101810000000015000
B0613223159893S11652502EA0175501818000000000000
B0613263159898S11652566EA0176301825000000000000
B0613303159940S11652622EA0176801828000000000000
B0613343200004S11652640EA0176901824000000015000
B0613383200065S11652616EA0176301818000000015000
B0613423200105S11652557EA0176001816000000015000
B0613463200108S11652489EA0176701834000000015000
B0613503200071S11652458EA0177901838000000015000
B0613543200024S11652479EA0178201843000000015000
B0613583200007S11652540EA0179101852000000000000
B0614023200036S11652605EA0179301849000000000000
B0614063200102S11652639EA0179101846000000015000
B0614103200174S11652623EA0178701843000000015000
B0614143200223S11652571EA0178801842000000015000
B0614183200239S11652501EA0178401836000000015000
B0614223200214S11652444EA0178501841000000015000
B0614263200170S11652428EA0179601850000000015000
B0614303200131S11652464EA0180201854000000015000
B0614343200128S11652533EA0180401856000000015000
B0614383200169S11652596EA0180401854000000015000
B0614423200238S11652627EA0179801849000000015000
B0614463200309S11652631EA0180201856000000015000
B0614503200371S11652598EA0179701843000000015000
B0614543200408S11652532EA0178101825000000015000
B0614583200401S11652458EA0176801817000000015000
B0615023200364S11652420EA0177201825000000015000
B0615063200318S11652441EA0177601824000000015000
B0615103200305S11652509EA0177801832000000015000
B0615143200344S11652572EA0178501838000000015000
B0615183200412S11652590EA0178201829000000015000
B0615223200475S11652548EA0176701807000000015000
B0615263200498S11652471EA0175001793000000015000
B0615303200477S11652399EA0174101784000000015000
B0615343200422S11652371EA0173801787000000015000
B0615383200364S11652381EA0174201795000000015000
B0615423200312S11652401EA0175301807000000000000
B0615463200280S11652449EA0175701806000000000000
B0615503200305S11652516EA0174701792000000000000
B0615543200358S11652571EA0173801786000000000000
B0615583200422S11652614EA0172201767000000000000
B0616023200495S11652652EA0171001750000000000000
B0616063200569S11652688EA0169401733000000000000
B0616103200646S11652724EA0168101724000000000000
B0616143200722S11652761EA0167801726000000000000
B0616183200799S11652792EA0167801724000000000000
B0616223200878S11652823EA0167201719000000000000
B0616263200956S11652861EA0166801716000000000000
B0616303201034S11652900EA0166801716000000000000
B0616343201112S11652940EA0166501710000000000000
B0616383201192S11652980EA0165701701000000000000
B0616423201275S11653021EA0164801696000000000000
B0616463201358S11653057EA0164701695000000000000
B0616503201440S11653091EA0164901698000000000000
B0616543201518S11653126EA0165101699000000000000
B0616583201592S11653161EA0164901697000000000000
B0617023201665S11653200EA0164401690000000000000
B0617063201738S11653242EA0163401681000000000000
B0617103201812S11653285EA0162801673000000000000
B0617143201887S11653328EA0162201669000000000000
B0617183201960S11653368EA0162101670000000000000
B0617223202032S11653408EA0161801664000000000000
B0617263202104S11653450EA0161201660000000000000
B0617303202181S11653487EA0160801654000000000000
B0617343202255S11653530EA0160501650000000000000
B0617383202328S11653575EA0160101648000000000000
B0617423202402S11653616EA0160801659000000000000
B0617463202474S11653653EA0161201661000000000000
B0617503202544S11653692EA0161101658000000000000
B0617543202614S11653729EA0160701653000000000000
B0617583202684S11653764EA0160101648000000000000
B0618023202752S11653802EA0160001649000000000000
B0618063202821S11653838EA0159901646000000000000
B0618103202890S11653872EA0159001635000000000000
B0618143202966S11653902EA0157801622000000000000
B0618183203043S11653932EA0157401621000000000000
B0618223203116S11653968EA0156701609000000000000
B0618263203190S11654011EA0155401597000000000000
B0618303203263S11654057EA0154301589000000000000
B0618343203334S11654105EA0154201592000000000000
B0618383203402S11654150EA0154601595000000000000
B0618423203465S11654196EA0154001588000000000000
B0618463203534S11654244EA0152701572000000000000
B0618503203605S11654295EA0151401562000000000000
B0618543203673S11654347EA0151201565000000000000
B0618583203738S11654394EA0151901570000000000000
B0619023203801S11654436EA0151501564000000000000
B0619063203865S11654483EA0150801557000000000000
B0619103203930S11654529EA0150501558000000000000
B0619143203995S11654573EA0150501556000000000000
B0619183204058S11654615EA0150201556000000000000
B0619223204122S11654654EA0150201555000000000000
B0619263204188S11654689EA0150501562000000000000
B0619303204256S11654726EA0151001563000000000000
B0619343204323S11654765EA0151501575000000000000
B0619383204391S11654793EA0153301596000000000000
B0619423204453S11654771EA0155201611000000000000
B0619463204472S11654707EA0156301620000000000000
B0619503204444S11654663EA0157101626000000000000
B0619543204401S11654667EA0157501628000000000000
B0619583204373S11654712EA0157701632000000000000
B0620023204370S11654773EA0158301637000000000000
B0620063204392S11654839EA0158901643000000000000
B0620103204444S11654884EA0159701654000000000000
B0620143204512S11654884EA0160501653000000015000
B0620183204563S11654834EA0160001650000000015000
B0620223204555S11654771EA0160701666000000015000
B0620263204511S11654751EA0162101673000000015000
B0620303204469S11654793EA0162801680000000015000
B0620343204470S11654868EA0163501686000000015000
B0620383204520S11654930EA0163801690000000015000
B0620423204594S11654946EA0164001690000000015000
B0620463204652S11654906EA0163901691000000015000
B0620503204661S11654839EA0164001696000000015000
B0620543204628S11654794EA0164601704000000015000
B0620583204577S11654786EA0165301709000000015000
B0621023204544S11654838EA0166401715000000015000
B0621063204577S11654910EA0166501714000000015000
B0621103204651S11654925EA0166401715000000015000
B0621143204712S11654885EA0166501718000000015000
B0621183204730S11654820EA0166901727000000015000
B0621223204707S11654769EA0167701737000000015000
B0621263204661S11654750EA0168301741000000015000
B0621303204607S11654746EA0168401743000000000000
B0621343204548S11654747EA0168401741000000000000
B0621383204489S11654738EA0168601745000000000000
B0621423204429S11654728EA0169301752000000000000
B0621463204369S11654713EA0169601753000000000000
B0621503204308S11654699EA0169101747000000000000
B0621543204244S11654685EA0169201749000000000000
B0621583204182S11654695EA0169301748000000000000
B0622023204139S11654750EA0168901741000000000000
B0622063204140S11654833EA0168201735000000000000
B0622103204191S11654902EA0167601731000000000000
B0622143204261S11654947EA0167301728000000000000
B0622183204335S11654984EA0166901725000000000000
B0622223204412S11655015EA0166801724000000000000
B0622263204491S11655044EA0166601723000000000000
B0622303204570S11655072EA0166601722000000000000
B0622343204648S11655103EA0166201717000000000000
B0622383204725S11655140EA0165501710000000000000
B0622423204801S11655179EA0164801702000000000000
B0622463204877S11655213EA0164001694000000000000
B0622503204957S11655248EA0163001683000000000000
B0622543205032S11655292EA0162201676000000000000
B0622583205103S11655337EA0161501667000000000000
B0623023205176S11655384EA0160701659000000000000
B0623063205248S11655431EA0160001652000000000000
B0623103205324S11655470EA0159801655000000000000
B0623143205402S11655504EA0160201660000000000000
B0623183205479S11655532EA0160501664000000000000
B0623223205553S11655561EA0161001668000000000000
B0623263205629S11655580EA0160801663000000000000
B0623303205708S11655593EA0159901653000000000000
B0623343205790S11655604EA0159101646000000000000
B0623383205873S11655618EA0158601640000000000000
B0623423205954S11655638EA0158001635000000000000
B0623463206033S11655660EA0157501629000000000000
B0623503206112S11655675EA0156801619000000000000
B0623543206195S11655688EA0155701610000000000000
B0623583206276S11655704EA0155301609000000000000
B0624023206357S11655714EA0155101606000000000000
B0624063206440S11655721EA0154601601000000000000
B0624103206523S11655729EA0154401600000000000000
B0624143206605S11655736EA0154301598000000000000
B0624183206687S11655744EA0153901592000000000000
B0624223206767S11655761EA0153701593000000000000
B0624263206844S11655782EA0153501587000000000000
B0624303206922S11655807EA0152401574000000000000
B0624343207000S11655840EA0152001577000000000000
B0624383207066S11655886EA0152401577000000000000
B0624423207128S11655938EA0152001571000000000000
B0624463207187S11655995EA0151601570000000000000
B0624503207242S11656055EA0151701571000000000000
B0624543207291S11656119EA0151401565000000000000
B0624583207334S11656189EA0150401552000000000000
B0625023207369S11656264EA0149401544000000000000
B0625063207401S11656341EA0149001539000000000000
B0625103207432S11656416EA0148301534000000000000
B0625143207459S11656493EA0147701526000000000000
B0625183207481S11656572EA0147401524000000000000
B0625223207498S11656650EA0147201522000000000000
B0625263207515S11656727EA0147001522000000000000
B0625303207533S11656802EA0146901519000000000000
B0625343207554S11656877EA0146501514000000000000
B0625383207577S11656955EA0145601503000000000000
B0625423207603S11657035EA0144701495000000000000
B0625463207631S11657117EA0144101489000000000000
B0625503207658S11657198EA0143401483000000000000
B0625543207685S11657274EA0143001479000000000000
B0625583207711S11657346EA0143001479000000000000
B0626023207735S11657417EA0142701472000000000000
B0626063207759S11657490EA0141701463000000000000
B0626103207781S11657567EA0140901456000000000000
B0626143207800S11657644EA0140401451000000000000
B0626183207818S11657719EA0140001448000000000000
B0626223207836S11657792EA0139801445000000000000
B0626263207856S11657866EA0139401439000000000000
B0626303207879S11657939EA0138701431000000000000
B0626343207901S11658015EA0138101427000000000000
B0626383207917S11658091EA0138101428000000000000
B0626423207931S11658166EA0137701422000000000000
B0626463207949S11658245EA0136901413000000000000
B0626503207970S11658327EA0135801401000000000000
B0626543207992S11658411EA0135101397000000000000
B0626583208013S11658491EA0135001396000000000000
B0627023208036S11658568EA0135001397000000000000
B0627063208064S11658643EA0134801390000000000000
B0627103208091S11658724EA0133501376000000000000
B0627143208113S11658808EA0132601371000000000000
B0627183208134S11658892EA0132201367000000000000
B0627223208151S11658975EA0131501358000000000000
B0627263208168S11659058EA0130401345000000000000
B0627303208184S11659142EA0129301330000000000000
B0627343208203S11659226EA0128801331000000000000
B0627383208218S11659305EA0128601327000000000000
B0627423208236S11659383EA0128101324000000000000
B0627463208256S11659461EA0128401329000000000000
B0627503208273S11659535EA0128701330000000000000
B0627543208277S11659605EA0128301322000000000000
B0627583208282S11659681EA0127201311000000000000
B0628023208291S11659760EA0126001301000000000000
B0628063208307S11659838EA0125901300000000000000
B0628103208326S11659916EA0125501294000000000000
B0628143208350S11659995EA0124601282000000000000
B0628183208374S11700077EA0123501274000000000000
B0628223208402S11700158EA0123301271000000000000
B0628263208430S11700237EA0122601264000000000000
B0628303208459S11700315EA0122101260000000000000
B0628343208489S11700392EA0121601254000000000000
B0628383208530S11700466EA0120801246000000000000
B0628423208582S11700531EA0120601247000000000000
B0628463208641S11700579EA0120801250000000000000
B0628503208704S11700613EA0120701246000000000000
B0628543208771S11700637EA0120201241000000000000
B0628583208837S11700656EA0119801237000000000000
B0629023208901S11700683EA0119001227000000000000
B0629063208950S11700727EA0118001217000000000000
B0629103208992S11700783EA0117601215000000000000
B0629143209027S11700839EA0118401226000000000000
B0629183209062S11700895EA0118901229000000000000
B0629223209100S11700951EA0119101231000000000000
B0629263209146S11700999EA0119601237000000000000
B0629303209205S11701039EA0120001241000000000000
B0629343209269S11701072EA0120601249000000000000
B0629383209340S11701081EA0121701265000000000000
B0629423209404S11701047EA0122801273000000000000
B0629463209430S11700979EA0123601283000000000000
B0629503209409S11700925EA0124201286000000000000
B0629543209365S11700918EA0124001283000000000000
B0629583209332S11700959EA0124301290000000000000
B0630023209326S11701021EA0124801295000000000000
B0630063209340S11701090EA0125201297000000000000
B0630103209360S11701164EA0125501305000000000000
B0630143209383S11701237EA0126701316000000000000
B0630183209408S11701308EA0127001315000000000000
B0630223209435S11701381EA0127201320000000000000
B0630263209462S11701450EA0128301328000000000000
B0630303209483S11701518EA0128301326000000000000
B0630343209501S11701589EA0127701318000000000000
B0630383209518S11701661EA0126601306000000000000
B0630423209534S11701735EA0125101290000000000000
B0630463209547S11701810EA0124101277000000000000
B0630503209553S11701885EA0123001266000000000000
B0630543209560S11701961EA0121701252000000000000
B0630583209568S11702039EA0120001233000000000000
B0631023209569S11702117EA0119101230000000000000
B0631063209569S11702190EA0118801224000000000000
B0631103209572S11702262EA0118101219000000000000
B0631143209577S11702331EA0117901217000000000000
B0631183209590S11702400EA0117701213000000000000
B0631223209608S11702468EA0117201208000000000000
B0631263209625S11702537EA0116301197000000000000
B0631303209633S11702606EA0115701193000000000000
B0631343209643S11702676EA0114701179000000000000
B0631383209660S11702746EA0113701171000000000000
B0631423209677S11702814EA0113201168000000000000
B0631463209695S11702877EA0113901177000000000000
B0631503209716S11702940EA0113701170000000000000
B0631543209737S11703007EA0114001182000000000000
B0631583209757S11703074EA0115301192000000000000
B0632023209774S11703140EA0116001200000000000000
B0632063209781S11703204EA0116701206000000000000
B0632103209785S11703266EA0116401198000000000000
B0632143209777S11703327EA0115501187000000000000
B0632183209754S11703383EA0114601179000000000000
B0632223209754S11703447EA0114201177000000000000
B0632263209795S11703501EA0113801172000000000000
B0632303209861S11703525EA0113901177000000000000
B0632343209921S11703486EA0114501181000000015000
B0632383209926S11703414EA0114601177000000015000
B0632423209878S11703382EA0114001171000000015000
B0632463209825S11703362EA0113301164000000015000
B0632503209770S11703348EA0112901161000000015000
B0632543209717S11703360EA0112401156000000000000
B0632583209665S11703388EA0111601148000000000000
B0633023209613S11703419EA0111901155000000000000
B0633063209564S11703452EA0111901151000000000000
B0633103209517S11703491EA0111101138000000000000
B0633143209470S11703530EA0110001127000000000000
B0633183209426S11703579EA0108901118000000000000
B0633223209386S11703635EA0108201112000000000000
B0633263209347S11703689EA0108401117000000000000
B0633303209301S11703722EA0109901135000000000000
B0633343209254S11703742EA0110901143000000000000
B0633383209210S11703765EA0111001141000000000000
B0633423209172S11703795EA0110701138000000000000
B0633463209182S11703851EA0110701136000000000000
B0633503209243S11703874EA0110101124000000000000
B0633543209314S11703835EA0108901119000000015000
B0633583209383S11703786EA0108801122000000000000
B0634023209421S11703712EA0109901131000000000000
B0634063209386S11703669EA0110301132000000015000
B0634103209349S11703699EA0110201131000000015000
B0634143209367S11703756EA0110101131000000015000
B0634183209432S11703778EA0110301137000000015000
B0634223209501S11703746EA0110701141000000015000
B0634263209535S11703673EA0110901142000000015000
B0634303209507S11703616EA0110601140000000015000
B0634343209469S11703647EA0111501153000000015000
B0634383209499S11703703EA0112501166000000015000
B0634423209565S11703712EA0113401167000000015000
B0634463209626S11703660EA0113101164000000015000
B0634503209642S11703579EA0113301171000000030000
B0634543209614S11703520EA0113701174000000030000
B0634583209566S11703510EA0114401178000000015000
B0635023209551S11703561EA0115301186000000015000
B0635063209599S11703603EA0115801189000000015000
B0635103209668S11703582EA0116401197000000015000
B0635143209709S11703514EA0116501194000000015000
B0635183209704S11703436EA0116501202000000030000
B0635223209664S11703400EA0117601214000000015000
B0635263209625S11703417EA0118701221000000015000
B0635303209621S11703468EA0119301225000000015000
B0635343209666S11703510EA0119501225000000015000
B0635383209735S11703497EA0119401225000000015000
B0635423209795S11703447EA0119701233000000015000
B0635463209804S11703371EA0120401238000000030000
B0635503209764S11703335EA0120901242000000015000
B0635543209724S11703367EA0120601238000000015000
B0635583209734S11703435EA0120401246000000015000
B0636023209789S11703479EA0121201253000000015000
B0636063209864S11703474EA0122001263000000015000
B0636103209926S11703423EA0122901269000000015000
B0636143209946S11703341EA0122601259000000015000
B0636183209913S11703274EA0121801256000000015000
B0636223209859S11703266EA0122301266000000015000
B0636263209828S11703308EA0123101270000000015000
B0636303209839S11703373EA0123201271000000015000
B0636343209900S11703409EA0123501277000000015000
B0636383209978S11703408EA0123901281000000015000
B0636423210055S11703383EA0124401287000000015000
B0636463210116S11703323EA0124501282000000015000
B0636503210131S11703240EA0123901276000000015000
B0636543210097S11703184EA0123401269000000015000
B0636583210045S11703185EA0122801261000000015000
B0637023209995S11703214EA0122001258000000015000
B0637063209946S11703253EA0121901258000000000000
B0637103209903S11703301EA0122501264000000000000
B0637143209890S11703369EA0123001267000000000000
B0637183209934S11703435EA0123501274000000000000
B0637223210010S11703471EA0123901279000000000000
B0637263210094S11703486EA0123901276000000000000
B0637303210184S11703483EA0123301271000000000000
B0637343210272S11703475EA0123101270000000000000
B0637383210359S11703465EA0122801265000000000000
B0637423210449S11703453EA0121701255000000000000
B0637463210537S11703443EA0121401252000000000000
B0637503210625S11703431EA0121401254000000000000
B0637543210709S11703416EA0121701254000000000000
B0637583210792S11703401EA0121101248000000000000
B0638023210877S11703390EA0120501241000000000000
B0638063210960S11703379EA0120301242000000000000
B0638103211041S11703371EA0120201240000000000000
B0638143211120S11703366EA0119701233000000000000
B0638183211199S11703362EA0119101225000000000000
B0638223211280S11703356EA0118201217000000000000
B0638263211362S11703351EA0117701212000000000000
B0638303211444S11703345EA0117701216000000000000
B0638343211523S11703335EA0118601226000000000000
B0638383211597S11703313EA0119301235000000000000
B0638423211666S11703284EA0120401247000000000000
B0638463211709S11703230EA0121501253000000000000
B0638503211687S11703176EA0121201245000000000000
B0638543211640S11703189EA0120701242000000000000
B0638583211624S11703252EA0120801247000000000000
B0639023211648S11703318EA0121801258000000000000
B0639063211701S11703358EA0122401260000000000000
B0639103211771S11703375EA0122301257000000000000
B0639143211850S11703374EA0121801250000000000000
B0639183211932S11703369EA0121001243000000000000
B0639223212018S11703364EA0120401239000000000000
B0639263212105S11703358EA0120001234000000000000
B0639303212192S11703352EA0119801235000000000000
B0639343212278S11703349EA0120101238000000000000
B0639383212363S11703348EA0120101238000000000000
B0639423212447S11703347EA0119901237000000000000
B0639463212529S11703343EA0120001237000000000000
B0639503212611S11703345EA0119601230000000000000
B0639543212694S11703351EA0118801221000000000000
B0639583212780S11703356EA0117901214000000000000
B0640023212864S11703360EA0117601211000000000000
B0640063212949S11703365EA0116801201000000000000
B0640103213036S11703375EA0115701193000000000000
B0640143213122S11703386EA0115401190000000000000
B0640183213205S11703396EA0115201187000000000000
B0640223213287S11703405EA0114601180000000000000
B0640263213368S11703417EA0113901171000000000000
B0640303213448S11703431EA0113101165000000000000
B0640343213527S11703444EA0112601163000000000000
B0640383213607S11703453EA0112301157000000000000
B0640423213685S11703464EA0111501148000000000000
B0640463213763S11703477EA0110801145000000000000
B0640503213838S11703488EA0110801145000000000000
B0640543213914S11703500EA0110401139000000000000
B0640583213988S11703513EA0110201138000000000000
B0641023214064S11703525EA0110101135000000000000
B0641063214142S11703535EA0110101141000000000000
B0641103214214S11703548EA0110801148000000000000
B0641143214281S11703566EA0111201149000000000000
B0641183214341S11703600EA0111801157000000000000
B0641223214410S11703607EA0112701170000000000000
B0641263214452S11703546EA0114901197000000000000
B0641303214427S11703478EA0117601224000000015000
B0641343214371S11703475EA0120201250000000015000
B0641383214336S11703534EA0121701259000000015000
B0641423214354S11703613EA0122301259000000015000
B0641463214421S11703652EA0122401266000000015000
B0641503214487S11703621EA0123801285000000015000
B0641543214515S11703549EA0125401303000000015000
B0641583214487S11703492EA0127401321000000015000
B0642023214436S11703508EA0129301344000000015000
B0642063214427S11703572EA0131301361000000015000
B0642103214471S11703630EA0131401347000000015000
B0642143214552S11703633EA0130301343000000015000
B0642183214613S11703572EA0131301361000000015000
B0642223214625S11703488EA0133701390000000030000
B0642263214586S11703434EA0136001415000000015000
B0642303214535S11703455EA0138401441000000015000
B0642343214538S11703523EA0140501451000000015000
B0642383214595S11703574EA0141501465000000015000
B0642423214664S11703559EA0142801478000000015000
B0642463214692S11703486EA0144401500000000030000
B0642503214669S11703419EA0146701522000000030000
B0642543214619S11703401EA0149101547000000015000
B0642583214588S11703445EA0151501564000000015000
B0643023214604S11703517EA0153001577000000015000
B0643063214661S11703565EA0154501591000000015000
B0643103214735S11703559EA0155001600000000015000
B0643143214781S11703494EA0156901622000000015000
B0643183214775S11703418EA0158701640000000030000
B0643223214736S11703366EA0160301662000000015000
B0643263214690S11703380EA0162701685000000015000
B0643303214684S11703445EA0164501702000000015000
B0643343214738S11703495EA0165801712000000015000
B0643383214805S11703469EA0167201731000000015000
B0643423214827S11703395EA0169201750000000015000
B0643463214796S11703339EA0170801767000000015000
B0643503214743S11703335EA0172701787000000015000
B0643543214716S11703390EA0174101799000000015000
B0643583214734S11703462EA0174401798000000015000
B0644023214798S11703507EA0174701809000000015000
B0644063214869S11703491EA0175901822000000015000
B0644103214917S11703431EA0177301837000000030000
B0644143214907S11703362EA0178801856000000030000
B0644183214861S11703353EA0180901876000000030000
B0644223214847S11703410EA0182401884000000015000
B0644263214905S11703464EA0182901894000000015000
B0644303214980S11703442EA0184401909000000015000
B0644343215011S11703366EA0185001912000000030000
B0644383214985S11703300EA0185001908000000030000
B0644423214929S11703297EA0185801927000000030000
B0644463214898S11703345EA0187501939000000015000
B0644503214902S11703417EA0187201928000000015000
B0644543214944S11703488EA0187001934000000015000
B0644583215009S11703523EA0188301947000000015000
B0645023215072S11703490EA0189501958000000015000
B0645063215093S11703421EA0189701955000000030000
B0645103215059S11703371EA0189601963000000030000
B0645143215009S11703378EA0190801972000000015000
B0645183214981S11703427EA0191701975000000015000
B0645223214989S11703501EA0191301967000000015000
B0645263215045S11703561EA0190301960000000015000
B0645303215121S11703568EA0190001959000000015000
B0645343215178S11703513EA0190001960000000015000
B0645383215189S11703435EA0189801958000000030000
B0645423215159S11703370EA0189501956000000030000
B0645463215104S11703335EA0189701956000000015000
B0645503215041S11703319EA0189201950000000015000
B0645543214973S11703315EA0187901934000000015000
B0645583214902S11703318EA0186801924000000015000
B0646023214831S11703319EA0185701914000000015000
B0646063214764S11703318EA0185901922000000015000
B0646103214699S11703313EA0186601929000000000000
B0646143214632S11703314EA0187101938000000000000
B0646183214567S11703300EA0188901956000000000000
B0646223214541S11703231EA0190101968000000000000
B0646263214586S11703169EA0191501979000000015000
B0646303214660S11703163EA0191901979000000015000
B0646343214723S11703206EA0191401974000000030000
B0646383214764S11703270EA0192301993000000015000
B0646423214756S11703338EA0194202013000000015000
B0646463214707S11703357EA0196202032000000015000
B0646503214664S11703321EA0197602039000000015000
B0646543214658S11703247EA0197902038000000015000
B0646583214703S11703175EA0197802041000000015000
B0647023214779S11703140EA0197802038000000015000
B0647063214863S11703148EA0197202031000000030000
B0647103214933S11703197EA0196402020000000030000
B0647143214965S11703275EA0196102027000000030000
B0647183214956S11703347EA0198002053000000030000
B0647223214911S11703354EA0200402074000000030000
B0647263214899S11703288EA0201702085000000015000
B0647303214964S11703243EA0202702095000000030000
B0647343215022S11703283EA0203702104000000030000
B0647383215012S11703348EA0204702113000000030000
B0647423214960S11703361EA0205102114000000030000
B0647463214924S11703302EA0205502124000000030000
B0647503214955S11703224EA0206302128000000030000
B0647543215030S11703201EA0206502134000000030000
B0647583215102S11703236EA0206602125000000030000
B0648023215136S11703309EA0206002123000000030000
B0648063215126S11703378EA0206502135000000030000
B0648103215093S11703431EA0207102138000000030000
B0648143215041S11703462EA0207202139000000030000
B0648183214983S11703461EA0207702147000000015000
B0648223214931S11703434EA0208702154000000015000
B0648263214882S11703396EA0208502150000000015000
B0648303214834S11703348EA0208102146000000015000
B0648343214781S11703297EA0208002146000000015000
B0648383214726S11703257EA0209102161000000000000
B0648423214671S11703241EA0209902169000000000000
B0648463214619S11703273EA0210402170000000000000
B0648503214569S11703293EA0210502171000000015000
B0648543214536S11703258EA0210502171000000015000
B0648583214551S11703197EA0210002164000000015000
B0649023214590S11703139EA0209202158000000015000
B0649063214621S11703076EA0208702152000000000000
B0649103214608S11703010EA0207102133000000015000
B0649143214565S11702957EA0205502119000000015000
B0649183214510S11702920EA0204502109000000015000
B0649223214456S11702890EA0204202109000000000000
B0649263214406S11702862EA0204102105000000000000
B0649303214358S11702833EA0203502097000000000000
B0649343214310S11702807EA0202702088000000000000
B0649383214261S11702782EA0202102084000000000000
B0649423214215S11702755EA0202102087000000000000
B0649463214174S11702728EA0202102084000000000000
B0649503214131S11702699EA0201402076000000000000
B0649543214085S11702667EA0200602068000000000000
B0649583214040S11702629EA0200202064000000000000
B0650023213994S11702591EA0200002062000000000000
B0650063213950S11702550EA0199902063000000000000
B0650103213908S11702508EA0200202066000000000000
B0650143213864S11702469EA0200602072000000000000
B0650183213819S11702441EA0201102077000000000000
B0650223213771S11702418EA0201302076000000000000
B0650263213720S11702400EA0201302077000000000000
B0650303213668S11702389EA0201402078000000000000
B0650343213615S11702378EA0201302078000000000000
B0650383213563S11702366EA0201302076000000000000
B0650423213509S11702353EA0201102073000000000000
B0650463213456S11702342EA0201002072000000000000
B0650503213404S11702330EA0200802072000000000000
B0650543213353S11702314EA0200602070000000000000
B0650583213303S11702294EA0200602070000000000000
B0651023213253S11702273EA0200602069000000000000
B0651063213204S11702252EA0200202064000000000000
B0651103213150S11702229EA0199402057000000000000
B0651143213097S11702204EA0199202055000000000000
B0651183213044S11702179EA0198902052000000000000
B0651223212992S11702157EA0198802050000000000000
B0651263212942S11702132EA0198602050000000000000
B0651303212898S11702106EA0198302045000000000000
B0651343212853S11702079EA0197702038000000000000
B0651383212806S11702053EA0197002032000000000000
B0651423212758S11702030EA0196502026000000000000
B0651463212710S11702005EA0196102021000000000000
B0651503212664S11701975EA0195602015000000000000
B0651543212619S11701945EA0195202013000000000000
B0651583212575S11701915EA0194902009000000000000
B0652023212528S11701888EA0194201999000000000000
B0652063212478S11701865EA0193301991000000000000
B0652103212428S11701843EA0192901989000000000000
B0652143212378S11701824EA0192701985000000000000
B0652183212326S11701807EA0192201978000000000000
B0652223212277S11701792EA0191801977000000000000
B0652263212231S11701771EA0191501973000000000000
B0652303212186S11701744EA0191001966000000000000
B0652343212139S11701713EA0190301959000000000000
B0652383212091S11701679EA0189701953000000000000
B0652423212045S11701640EA0189001947000000000000
B0652463212001S11701596EA0188301942000000000000
B0652503211957S11701553EA0188101940000000000000
B0652543211914S11701512EA0187801938000000000000
B0652583211870S11701477EA0187901936000000000000
B0653023211823S11701450EA0187401928000000000000
B0653063211774S11701416EA0186001913000000000000
B0653103211728S11701363EA0185301909000000000000
B0653143211685S11701304EA0185001907000000000000
B0653183211641S11701250EA0185201911000000000000
B0653223211597S11701204EA0185501913000000000000
B0653263211551S11701169EA0185401913000000000000
B0653303211506S11701137EA0185201907000000000000
B0653343211459S11701108EA0184701903000000000000
B0653383211410S11701081EA0183801891000000000000
B0653423211358S11701051EA0182601879000000000000
B0653463211306S11701020EA0182001878000000000000
B0653503211256S11700988EA0182301880000000000000
B0653543211204S11700960EA0182001878000000000000
B0653583211152S11700935EA0181901876000000000000
B0654023211098S11700917EA0181501867000000000000
B0654063211041S11700901EA0180501859000000000000
B0654103210979S11700881EA0179701848000000000000
B0654143210917S11700856EA0178801843000000000000
B0654183210857S11700835EA0179001849000000000000
B0654223210801S11700821EA0179601853000000000000
B0654263210747S11700810EA0179501850000000000000
B0654303210692S11700796EA0179001845000000000000
B0654343210635S11700775EA0178501840000000000000
B0654383210578S11700749EA0178301839000000000000
B0654423210526S11700715EA0178501843000000000000
B0654463210480S11700678EA0179001847000000000000
B0654503210437S11700634EA0178801842000000000000
B0654543210393S11700585EA0178301835000000000000
B0654583210344S11700537EA0177601830000000000000
B0655023210294S11700494EA0177701833000000000000
B0655063210245S11700455EA0177801832000000000000
B0655103210197S11700414EA0177301825000000000000
B0655143210147S11700371EA0176801821000000000000
B0655183210095S11700332EA0176301816000000000000
B0655223210046S11700288EA0175701812000000000000
B0655263210002S11700240EA0175701813000000000000
B0655303209962S11700195EA0176201816000000000000
B0655343209920S11700155EA0175801809000000000000
B0655383209871S11700117EA0174601798000000000000
B0655423209819S11700077EA0174301799000000000000
B0655463209774S11700037EA0174701803000000000000
B0655503209733S11659997EA0174601800000000000000
B0655543209692S11659951EA0174001790000000000000
B0655583209648S11659904EA0172701779000000000000
B0656023209600S11659860EA0172001773000000000000
B0656063209552S11659815EA0171701770000000000000
B0656103209507S11659769EA0171301763000000000000
B0656143209458S11659727EA0170601753000000000000
B0656183209409S11659688EA0169601746000000000000
B0656223209356S11659660EA0169601748000000000000
B0656263209300S11659648EA0169101739000000000000
B0656303209240S11659639EA0168101729000000000000
B0656343209180S11659618EA0167501726000000000000
B0656383209128S11659587EA0167501728000000000000
B0656423209079S11659555EA0167301723000000000000
B0656463209031S11659519EA0166401713000000000000
B0656503208981S11659479EA0165901709000000000000
B0656543208936S11659438EA0165701706000000000000
B0656583208893S11659393EA0165401703000000000000
B0657023208849S11659350EA0164701693000000000000
B0657063208806S11659304EA0163601681000000000000
B0657103208763S11659254EA0162101665000000000000
B0657143208711S11659207EA0160701651000000000000
B0657183208659S11659165EA0160201650000000000000
B0657223208608S11659126EA0159901643000000000000
B0657263208556S11659087EA0159301639000000000000
B0657303208508S11659048EA0159101637000000000000
B0657343208457S11659014EA0158501629000000000000
B0657383208403S11658983EA0157501619000000000000
B0657423208351S11658947EA0157201622000000000000
B0657463208305S11658911EA0157701624000000000000
B0657503208261S11658875EA0157501621000000000000
B0657543208220S11658836EA0157101617000000000000
B0657583208177S11658795EA0156701614000000000000
B0658023208134S11658755EA0156401611000000000000
B0658063208086S11658725EA0156001604000000000000
B0658103208036S11658699EA0155401598000000000000
B0658143207988S11658671EA0154901594000000000000
B0658183207943S11658638EA0154501590000000000000
B0658223207896S11658606EA0153601577000000000000
B0658263207844S11658574EA0152601569000000000000
B0658303207796S11658544EA0152301569000000000000
B0658343207754S11658508EA0152401570000000000000
B0658383207714S11658465EA0151901561000000000000
B0658423207676S11658409EA0150801549000000000000
B0658463207645S11658344EA0150301548000000000000
B0658503207614S11658282EA0149601539000000000000
B0658543207580S11658217EA0149501542000000000000
B0658583207534S11658173EA0150601556000000000000
B0659023207485S11658177EA0152001568000000000000
B0659063207458S11658219EA0153001577000000000000
B0659103207469S11658278EA0153701583000000000000
B0659143207519S11658316EA0153901583000000000000
B0659183207585S11658308EA0153901587000000015000
B0659223207636S11658257EA0154401591000000015000
B0659263207644S11658190EA0154401586000000030000
B0659303207607S11658140EA0154101587000000030000
B0659343207559S11658139EA0155001598000000015000
B0659383207533S11658180EA0156001603000000015000
B0659423207545S11658240EA0156101604000000015000
B0659463207590S11658286EA0156601609000000015000
B0659503207655S11658284EA0156901611000000015000
B0659543207706S11658238EA0157001615000000015000
B0659583207714S11658169EA0157201616000000030000
B0700023207680S11658125EA0157301618000000030000
B0700063207633S11658118EA0157601623000000015000
B0700103207597S11658147EA0158201628000000015000
B0700143207584S11658199EA0158401629000000015000
B0700183207601S11658258EA0158301629000000015000
B0700223207653S11658300EA0158301627000000015000
B0700263207723S11658304EA0157901624000000015000
B0700303207796S11658283EA0158001626000000015000
