ACAM4N6
HFDTE241020
HFFXA050
HFPLTPILOT:JOHN WELSH              
HFGTYGLIDERTYPE:HORNET      
HFGIDGLIDERID:VH-GMY      
HFDTM100GPSDATUM:
HFRFWFIRMWAREVERSION:F2.6
HFRHWHARDWAREVERSION:300 Series Version 2
HFFTYFRTYPE:CAMBRIDGE AERO INSTRUMENTS, 302+
HFGPS:GARMIN,LVS-25,12,18000
HFPRSPRESSALTSENSOR:INTERSEMA, MS5534-AP, 20000
I033638FXA3941ENL4247REX
LCAMSBVER:5FWVER:F26300
C241020024249241020000102
C0000000N00000000WTAKEOFF     
C3207547S11656879EBEVAIR      
C3301433S11652382EWilliams    
C3145816S11833499EMuntadgin   
C3207547S11656879EBEVAIR      
C0000000N00000000WLANDING     
B0256353207338S11656857EA0017600202000000000000
B0256373207338S11656857EA0017600202000000000000
B0256393207338S11656857EA0017700202000000000000
B0256413207338S11656857EA0017700202000000000000
B0256433207338S11656857EA0017600202000000000000
B0256453207338S11656857EA0017500202000000000000
B0256473207338S11656857EA0017600202000000000000
B0256493207338S11656857EA0017700202000000000000
B0256513207338S11656857EA0017600202000000000000
B0256533207338S11656857EA0017600202000000000000
B0256553207338S11656857EA0017600202000000000000
B0256573207338S11656857EA0017500202000000000000
B0256593207338S11656857EA0017600202000000000000
B0257013207339S11656858EA0017700202000000000000
B0257033207342S11656860EA0017700202000000000000
B0257063207354S11656870EA0017800202000000000000
B0257103207385S11656895EA0017600202000000000000
B0257143207434S11656926EA0017800202000000000000
B0257183207497S11656964EA0017800203000000000000
B0257223207564S11657009EA0018500212000000000000
B0257263207633S11657056EA0019700224000000000000
B0257303207700S11657100EA0020900241000000000000
B0257343207765S11657138EA0022800267000000000000
B0257383207828S11657177EA0025300283000000000000
B0257423207888S11657218EA0027200290000000015000
B0257463207950S11657260EA0030400309000000015000
B0257503208012S11657296EA0032800331000000015000
B0257543208073S11657335EA0034400340000000015000
B0257583208131S11657380EA0035200346000000030000
B0258023208190S11657426EA0035800352000000030000
B0258063208240S11657482EA0036700362000000030000
B0258103208272S11657549EA0038400387000000030000
B0258143208292S11657619EA0039700396000000030000
B0258183208298S11657690EA0041400406000000030000
B0258223208290S11657767EA0042700424000000030000
B0258263208270S11657841EA0044100442000000030000
B0258303208249S11657917EA0046000462000000030000
B0258343208225S11657991EA0048200486000000015000
B0258383208201S11658066EA0050500518000000015000
B0258423208183S11658138EA0053500534000000030000
B0258463208165S11658205EA0056300547000000030000
B0258503208143S11658273EA0058200563000000030000
B0258543208121S11658343EA0059900580000000030000
B0258583208109S11658418EA0061900596000000030000
B0259023208121S11658487EA0063700625000000030000
B0259063208174S11658512EA0064200639000000015000
B0259103208223S11658465EA0064200644000000015000
B0259143208231S11658388EA0063600642000000015000
B0259183208229S11658308EA0062800640000000015000
B0259223208218S11658230EA0062400642000000015000
B0259263208191S11658158EA0062800651000000015000
B0259303208139S11658131EA0062800650000000015000
B0259343208101S11658161EA0062500649000000015000
B0259383208116S11658216EA0061600638000000015000
B0259423208174S11658234EA0060800638000000015000
B0259463208231S11658191EA0060900642000000015000
B0259503208225S11658118EA0062200658000000015000
B0259543208178S11658114EA0063200665000000015000
B0259583208171S11658166EA0063300669000000015000
B0300023208222S11658190EA0063800675000000015000
B0300063208265S11658138EA0063900678000000015000
B0300103208255S11658066EA0064500688000000015000
B0300143208205S11658045EA0065200688000000015000
B0300183208183S11658095EA0065300696000000015000
B0300223208227S11658128EA0066300709000000000000
B0300263208269S11658079EA0067100711000000015000
B0300303208243S11658017EA0067600719000000015000
B0300343208197S11658031EA0068000721000000015000
B0300383208213S11658084EA0068700734000000000000
B0300423208269S11658075EA0069500735000000000000
B0300463208283S11658004EA0069300733000000015000
B0300503208238S11657961EA0069800740000000015000
B0300543208199S11657995EA0070500749000000015000
B0300583208230S11658044EA0071100754000000000000
B0301023208290S11658024EA0071300755000000000000
B0301063208308S11657954EA0072000764000000000000
B0301103208279S11657897EA0072700768000000000000
B0301143208234S11657902EA0073000772000000000000
B0301183208247S11657958EA0073700780000000000000
B0301223208308S11657948EA0074400786000000000000
B0301263208317S11657876EA0074700789000000015000
B0301303208268S11657850EA0074900790000000015000
B0301343208248S11657904EA0075500802000000000000
B0301383208296S11657935EA0076800813000000000000
B0301423208344S11657892EA0077300813000000000000
B0301463208343S11657819EA0077200815000000000000
B0301503208300S11657772EA0077600820000000000000
B0301543208253S11657789EA0078400830000000000000
B0301583208281S11657837EA0079300841000000000000
B0302023208335S11657810EA0080400845000000000000
B0302063208327S11657740EA0080600851000000015000
B0302103208277S11657742EA0081100854000000015000
B0302143208291S11657802EA0081700859000000000000
B0302183208356S11657789EA0082100864000000000000
B0302223208368S11657715EA0082900875000000015000
B0302263208324S11657684EA0084100886000000015000
B0302303208298S11657727EA0085100899000000000000
B0302343208337S11657767EA0086200906000000000000
B0302383208391S11657733EA0086100902000000000000
B0302423208392S11657662EA0086400911000000015000
B0302463208348S11657641EA0087100913000000015000
B0302503208342S11657696EA0087400922000000015000
B0302543208398S11657706EA0088400927000000000000
B0302583208430S11657644EA0088100925000000015000
B0303023208402S11657586EA0088500932000000015000
B0303063208355S11657597EA0089300941000000015000
B0303103208374S11657645EA0090400951000000000000
B0303143208426S11657616EA0090600948000000000000
B0303183208421S11657546EA0090300943000000015000
B0303223208369S11657514EA0090400951000000015000
B0303263208339S11657556EA0091900969000000000000
B0303303208390S11657581EA0093200977000000000000
B0303343208434S11657520EA0093700983000000000000
B0303383208413S11657447EA0094900997000000015000
B0303423208365S11657445EA0096301011000000015000
B0303463208374S11657497EA0097601026000000000000
B0303503208433S11657490EA0098701033000000000000
B0303543208452S11657413EA0099401041000000015000
B0303583208407S11657368EA0100101053000000015000
B0304023208373S11657406EA0101201062000000000000
B0304063208411S11657452EA0102201076000000000000
B0304103208470S11657423EA0103601090000000000000
B0304143208489S11657345EA0105101101000000000000
B0304183208448S11657287EA0106101111000000015000
B0304223208407S11657311EA0106901121000000000000
B0304263208444S11657351EA0108001131000000000000
B0304303208493S11657298EA0108701138000000015000
B0304343208468S11657229EA0109901153000000015000
B0304383208422S11657235EA0111001157000000000000
B0304423208438S11657287EA0111801171000000000000
B0304463208496S11657272EA0112801179000000000000
B0304503208498S11657195EA0113501181000000015000
B0304543208442S11657185EA0113501182000000000000
B0304583208415S11657241EA0114101193000000000000
B0305023208459S11657282EA0115601209000000000000
B0305063208509S11657237EA0116401212000000000000
B0305103208502S11657161EA0116901222000000015000
B0305143208457S11657129EA0118001231000000015000
B0305183208431S11657168EA0119001240000000000000
B0305223208476S11657202EA0119201240000000000000
B0305263208530S11657152EA0119201245000000000000
B0305303208528S11657078EA0120401261000000000000
B0305343208483S11657044EA0121301264000000015000
B0305383208450S11657077EA0122001275000000000000
B0305423208464S11657127EA0122801279000000000000
B0305463208512S11657155EA0123001280000000000000
B0305503208569S11657125EA0123001280000000000000
B0305543208578S11657056EA0123401287000000015000
B0305583208541S11657004EA0123801289000000015000
B0306023208490S11656970EA0124001292000000000000
B0306063208442S11656986EA0124801303000000000000
B0306103208459S11657034EA0126001310000000000000
B0306143208517S11657003EA0125901304000000000000
B0306183208525S11656919EA0125901313000000015000
B0306223208482S11656866EA0126701320000000015000
B0306263208438S11656896EA0127501330000000000000
B0306303208454S11656951EA0128501340000000000000
B0306343208513S11656949EA0129401349000000000000
B0306383208543S11656882EA0130701362000000000000
B0306423208517S11656818EA0131301366000000015000
B0306463208465S11656780EA0131501366000000000000
B0306503208409S11656739EA0131001359000000000000
B0306543208352S11656688EA0131101365000000000000
B0306583208298S11656637EA0132101378000000000000
B0307023208242S11656591EA0132701378000000000000
B0307063208187S11656542EA0132001367000000000000
B0307103208130S11656496EA0131101362000000000000
B0307143208074S11656448EA0130601356000000000000
B0307183208015S11656402EA0129801349000000000000
B0307223207949S11656357EA0128401330000000000000
B0307263207879S11656312EA0127201320000000000000
B0307303207810S11656271EA0126301314000000000000
B0307343207740S11656232EA0125601306000000000000
B0307383207672S11656193EA0124701298000000000000
B0307423207606S11656155EA0124601297000000000000
B0307463207542S11656137EA0124701299000000000000
B0307503207485S11656152EA0124301291000000000000
B0307543207437S11656191EA0123301281000000000000
B0307583207399S11656241EA0122301272000000000000
B0308023207368S11656298EA0121501263000000000000
B0308063207345S11656363EA0120701256000000000000
B0308103207328S11656431EA0120301253000000000000
B0308143207316S11656498EA0120201250000000000000
B0308183207308S11656567EA0119901248000000000000
B0308223207313S11656633EA0119601245000000000000
B0308263207341S11656692EA0119201241000000000000
B0308303207386S11656740EA0118601234000000000000
B0308343207434S11656784EA0117901228000000000000
B0308383207480S11656832EA0117401221000000000000
B0308423207532S11656875EA0116201207000000000000
B0308463207598S11656905EA0114801195000000000000
B0308503207675S11656914EA0113901187000000000000
B0308543207752S11656910EA0113801186000000000000
B0308583207830S11656906EA0113801188000000000000
B0309023207909S11656904EA0113901188000000000000
B0309063207991S11656903EA0113301177000000000000
B0309103208077S11656900EA0112201171000000000000
B0309143208160S11656897EA0112301172000000000000
B0309183208240S11656874EA0112301171000000000000
B0309223208317S11656828EA0112401174000000000000
B0309263208389S11656775EA0113701188000000015000
B0309303208457S11656726EA0115301202000000015000
B0309343208525S11656680EA0116001204000000000000
B0309383208590S11656628EA0115501195000000000000
B0309423208647S11656565EA0115601201000000000000
B0309463208684S11656487EA0116001208000000000000
B0309503208647S11656429EA0118101234000000015000
B0309543208629S11656467EA0119201237000000000000
B0309583208678S11656489EA0119401241000000000000
B0310023208730S11656444EA0119601241000000000000
B0310063208750S11656367EA0120301256000000015000
B0310103208711S11656318EA0121601264000000015000
B0310143208673S11656346EA0122401273000000015000
B0310183208693S11656401EA0122601269000000030000
B0310223208743S11656450EA0121301260000000015000
B0310263208808S11656493EA0119801245000000015000
B0310303208879S11656536EA0118801240000000015000
B0310343208951S11656579EA0118101232000000000000
B0310383209029S11656619EA0117201218000000000000
B0310423209109S11656659EA0116401212000000000000
B0310463209185S11656700EA0115501196000000000000
B0310503209262S11656745EA0113701182000000000000
B0310543209338S11656795EA0113001179000000000000
B0310583209405S11656847EA0112801175000000000000
B0311023209465S11656899EA0112601175000000000000
B0311063209522S11656949EA0112501171000000000000
B0311103209577S11656999EA0112001170000000015000
B0311143209630S11657044EA0112401177000000015000
B0311183209679S11657087EA0112701179000000015000
B0311223209733S11657127EA0112701178000000015000
B0311263209789S11657165EA0112601178000000015000
B0311303209847S11657198EA0112801179000000015000
B0311343209903S11657234EA0113701186000000015000
B0311383209964S11657252EA0115301203000000015000
B0311423210002S11657190EA0116901216000000030000
B0311463209967S11657143EA0116801213000000045000
B0311503209939S11657189EA0117001221000000030000
B0311543209985S11657234EA0118601243000000030000
B0311583210051S11657205EA0120001255000000060000
B0312023210076S11657125EA0121001263000000060000
B0312063210042S11657068EA0121601271000000090000
B0312103209997S11657083EA0122301279000000060000
B0312143210002S11657143EA0122901285000000060000
B0312183210049S11657181EA0124301293000000075000
B0312223210101S11657107EA0125301303000000090000
B0312263210094S11657022EA0126001314000000135000
B0312303210050S11657010EA0126801321000000225000
B0312343210040S11657062EA0127101321000000120000
B0312383210093S11657101EA0128001332000000165000
B0312423210163S11657075EA0129301338000000150000
B0312463210189S11656997EA0129701344000000150000
B0312503210162S11656934EA0130501350000000150000
B0312543210110S11656931EA0131001360000000120000
B0312583210086S11656986EA0131101365000000045000
B0313023210121S11657038EA0132301378000000075000
B0313063210188S11657020EA0133101387000000090000
B0313103210211S11656943EA0133901394000000150000
B0313143210177S11656884EA0134501402000000225000
B0313183210134S11656890EA0135501410000000060000
B0313223210138S11656945EA0135701414000000225000
B0313263210203S11656977EA0136201420000000165000
B0313303210267S11656934EA0137001426000000180000
B0313343210275S11656851EA0137301432000000165000
B0313383210233S11656806EA0137901439000000165000
B0313423210196S11656835EA0138701445000000180000
B0313463210210S11656899EA0138901452000000165000
B0313503210271S11656917EA0139801460000000090000
B0313543210314S11656849EA0139901458000000075000
B0313583210297S11656774EA0139901456000000090000
B0314023210249S11656762EA0140601455000000090000
B0314063210227S11656815EA0141301459000000075000
B0314103210255S11656870EA0141401461000000045000
B0314143210323S11656887EA0140901455000000045000
B0314183210402S11656884EA0139701446000000060000
B0314223210487S11656884EA0138601439000000075000
B0314263210576S11656896EA0137001422000000030000
B0314303210667S11656910EA0135501410000000030000
B0314343210761S11656930EA0134001394000000015000
B0314383210853S11656948EA0133201386000000030000
B0314423210946S11656966EA0132401378000000030000
B0314463211038S11656981EA0131401371000000015000
B0314503211129S11656995EA0131101367000000015000
B0314543211220S11657009EA0130701360000000000000
B0314583211308S11657025EA0129901348000000000000
B0315023211398S11657043EA0128701340000000000000
B0315063211485S11657061EA0128201334000000000000
B0315103211574S11657082EA0127501327000000000000
B0315143211661S11657101EA0126501318000000000000
B0315183211748S11657117EA0125901311000000000000
B0315223211835S11657127EA0125101302000000000000
B0315263211923S11657137EA0124301294000000000000
B0315303212010S11657147EA0123901291000000000000
B0315343212094S11657156EA0123501288000000000000
B0315383212173S11657164EA0123501288000000000000
B0315423212252S11657170EA0123101279000000000000
B0315463212333S11657178EA0122001270000000000000
B0315503212413S11657186EA0121701268000000000000
B0315543212490S11657194EA0121901272000000000000
B0315583212560S11657200EA0121201259000000000000
B0316023212633S11657211EA0119701246000000000000
B0316063212707S11657221EA0118901236000000000000
B0316103212781S11657226EA0118001227000000000000
B0316143212859S11657220EA0116901214000000000000
B0316183212939S11657209EA0116001210000000000000
B0316223213014S11657191EA0116401216000000000000
B0316263213085S11657166EA0116801218000000000000
B0316303213157S11657134EA0116701216000000000000
B0316343213227S11657098EA0116401214000000000000
B0316383213295S11657055EA0116501216000000000000
B0316423213358S11657007EA0116401215000000000000
B0316463213423S11656961EA0116701216000000000000
B0316503213490S11656921EA0117101224000000000000
B0316543213557S11656888EA0117501223000000000000
B0316583213631S11656865EA0117101219000000000000
B0317023213707S11656841EA0116101206000000000000
B0317063213784S11656826EA0114901195000000000000
B0317103213863S11656818EA0114201187000000000000
B0317143213942S11656813EA0113701179000000000000
B0317183214024S11656808EA0113401184000000000000
B0317223214088S11656762EA0114901203000000000000
B0317263214063S11656695EA0117101223000000015000
B0317303214024S11656722EA0118401238000000015000
B0317343214060S11656761EA0119801252000000030000
B0317383214116S11656718EA0121001266000000015000
B0317423214110S11656641EA0122601278000000015000
B0317463214059S11656627EA0124001289000000030000
B0317503214044S11656672EA0125201300000000015000
B0317543214096S11656700EA0126001308000000015000
B0317583214140S11656640EA0127401326000000015000
B0318023214111S11656575EA0129001341000000015000
B0318063214067S11656594EA0130001351000000015000
B0318103214092S11656644EA0131401366000000015000
B0318143214155S11656624EA0132601375000000015000
B0318183214176S11656541EA0133801390000000015000
B0318223214136S11656480EA0135101410000000015000
B0318263214086S11656483EA0136701419000000015000
B0318303214070S11656531EA0137601428000000015000
B0318343214103S11656574EA0138101425000000015000
B0318383214172S11656575EA0138101436000000015000
B0318423214232S11656533EA0140001459000000015000
B0318463214232S11656458EA0141801471000000015000
B0318503214183S11656442EA0142101470000000015000
B0318543214179S11656496EA0142801482000000015000
B0318583214244S11656500EA0144101498000000015000
B0319023214284S11656431EA0145901514000000015000
B0319063214257S11656363EA0147101523000000015000
B0319103214206S11656367EA0147801530000000015000
B0319143214207S11656422EA0148701543000000015000
B0319183214268S11656444EA0150101555000000015000
B0319223214326S11656389EA0151001569000000015000
B0319263214320S11656307EA0152101574000000015000
B0319303214268S11656273EA0152601577000000015000
B0319343214227S11656305EA0153001582000000000000
B0319383214235S11656360EA0153801594000000000000
B0319423214292S11656373EA0155001603000000000000
B0319463214337S11656306EA0155501604000000015000
B0319503214314S11656221EA0155601608000000015000
B0319543214257S11656207EA0156701619000000015000
B0319583214244S11656256EA0157701628000000015000
B0320023214298S11656279EA0158201635000000015000
B0320063214353S11656225EA0159401647000000015000
B0320103214354S11656141EA0159901647000000015000
B0320143214309S11656093EA0160301657000000015000
B0320183214267S11656115EA0160901659000000015000
B0320223214291S11656168EA0160901654000000000000
B0320263214367S11656173EA0159601643000000000000
B0320303214456S11656156EA0158501636000000000000
B0320343214551S11656133EA0157001611000000000000
B0320383214647S11656102EA0155001600000000000000
B0320413214717S11656076EA0155601611000000000000
B0320463214830S11656032EA0156601616000000000000
B0320503214922S11655998EA0156901621000000000000
B0320543215013S11655965EA0156901619000000000000
B0320583215108S11655937EA0155901609000000000000
B0321023215203S11655912EA0155401603000000000000
B0321063215297S11655889EA0154401590000000000000
B0321103215388S11655866EA0153501584000000000000
B0321143215479S11655850EA0152701575000000000000
B0321183215570S11655833EA0151801566000000000000
B0321223215661S11655812EA0150901560000000000000
B0321263215752S11655792EA0150301555000000000000
B0321303215841S11655786EA0150001551000000000000
B0321343215930S11655794EA0149901548000000000000
B0321383216014S11655808EA0149201542000000000000
B0321423216100S11655826EA0148601535000000000000
B0321463216186S11655847EA0147701527000000000000
B0321503216273S11655866EA0147001521000000000000
B0321543216356S11655885EA0146701517000000000000
B0321583216439S11655902EA0146101510000000000000
B0322023216521S11655918EA0145301503000000000000
B0322063216603S11655931EA0144601496000000000000
B0322103216685S11655944EA0144201492000000000000
B0322143216766S11655954EA0143601485000000000000
B0322183216845S11655961EA0143201484000000000000
B0322223216920S11655972EA0142801477000000000000
B0322263216995S11655987EA0141901467000000000000
B0322303217067S11656013EA0141001458000000000000
B0322343217139S11656038EA0141501470000000000000
B0322383217210S11656045EA0143101485000000000000
B0322423217261S11655977EA0144101498000000000000
B0322463217221S11655907EA0145601516000000015000
B0322503217169S11655928EA0147201529000000015000
B0322543217187S11655978EA0148401537000000015000
B0322583217248S11655965EA0149101543000000015000
B0323023217262S11655882EA0150001560000000015000
B0323063217208S11655850EA0152101585000000015000
B0323103217177S11655891EA0153401588000000015000
B0323143217205S11655938EA0153701587000000015000
B0323183217268S11655941EA0153401578000000015000
B0323223217314S11655873EA0152201571000000015000
B0323263217338S11655778EA0152301582000000015000
B0323303217322S11655691EA0154401611000000015000
B0323343217268S11655697EA0156001612000000015000
B0323383217295S11655756EA0155901617000000015000
B0323423217351S11655714EA0157401637000000015000
B0323463217335S11655632EA0158801649000000015000
B0323503217274S11655626EA0159401648000000030000
B0323543217260S11655692EA0159601648000000015000
B0323583217318S11655705EA0160401660000000015000
B0324023217339S11655631EA0161701674000000030000
B0324063217292S11655584EA0162801680000000015000
B0324103217245S11655618EA0163301685000000015000
B0324143217251S11655683EA0162801681000000015000
B0324183217320S11655729EA0162201678000000015000
B0324223217404S11655748EA0161201658000000015000
B0324263217495S11655755EA0159401643000000015000
B0324303217586S11655759EA0158801641000000015000
B0324343217677S11655761EA0158701642000000000000
B0324383217769S11655768EA0158701635000000000000
B0324423217864S11655775EA0157301621000000000000
B0324463217960S11655783EA0156401616000000000000
B0324503218054S11655791EA0156401617000000000000
B0324543218144S11655799EA0156401617000000000000
B0324583218232S11655808EA0156201615000000000000
B0325023218321S11655817EA0155801610000000000000
B0325063218408S11655829EA0155301606000000000000
B0325103218495S11655840EA0155101605000000000000
B0325143218581S11655855EA0154901602000000000000
B0325183218664S11655870EA0154401597000000000000
B0325223218746S11655889EA0153901593000000000000
B0325263218825S11655909EA0153501588000000000000
B0325303218903S11655937EA0152601576000000000000
B0325343218982S11655969EA0151901570000000000000
B0325383219058S11656003EA0151501566000000000000
B0325423219132S11656037EA0151201564000000000000
B0325463219203S11656071EA0150901560000000000000
B0325503219273S11656104EA0150501557000000000000
B0325543219344S11656134EA0150401556000000000000
B0325583219415S11656163EA0150001550000000000000
B0326023219487S11656191EA0149401545000000000000
B0326063219559S11656219EA0148801537000000000000
B0326103219635S11656245EA0148401537000000000000
B0326143219709S11656267EA0148701541000000000000
B0326183219786S11656290EA0148501535000000000000
B0326223219864S11656315EA0148001530000000000000
B0326263219940S11656341EA0147901532000000000000
B0326303220018S11656366EA0147701528000000000000
B0326343220100S11656389EA0146801520000000000000
B0326383220183S11656412EA0146201513000000000000
B0326423220268S11656436EA0146001512000000000000
B0326463220350S11656463EA0145501505000000000000
B0326503220430S11656493EA0144901500000000000000
B0326543220508S11656522EA0144601496000000000000
B0326583220585S11656552EA0143501483000000000000
B0327023220661S11656585EA0142501474000000000000
B0327063220735S11656620EA0141901469000000000000
B0327103220809S11656652EA0141301463000000000000
B0327143220883S11656682EA0141101460000000000000
B0327183220956S11656714EA0140601453000000000000
B0327223221032S11656747EA0139501440000000000000
B0327263221114S11656779EA0138201430000000000000
B0327303221197S11656806EA0137401424000000000000
B0327343221282S11656832EA0137001424000000000000
B0327383221363S11656860EA0137401430000000000000
B0327423221441S11656890EA0138301440000000000000
B0327463221515S11656918EA0139501451000000000000
B0327503221585S11656944EA0140901464000000000000
B0327543221651S11656973EA0141201460000000000000
B0327583221720S11657005EA0139701442000000000000
B0328023221794S11657038EA0138501432000000000000
B0328063221871S11657065EA0137401420000000000000
B0328103221951S11657092EA0136001407000000000000
B0328143222032S11657117EA0135201404000000000000
B0328183222114S11657140EA0134901398000000000000
B0328223222200S11657161EA0133601384000000000000
B0328263222288S11657176EA0132401374000000000000
B0328303222378S11657189EA0131701368000000000000
B0328343222462S11657208EA0131401367000000000000
B0328383222548S11657225EA0131301363000000000000
B0328423222635S11657238EA0130401350000000000000
B0328463222724S11657251EA0129301343000000000000
B0328503222813S11657259EA0129101339000000000000
B0328543222900S11657280EA0128501335000000000000
B0328583222982S11657304EA0129101343000000000000
B0329023223059S11657326EA0130501358000000000000
B0329063223133S11657348EA0131601364000000000000
B0329103223206S11657368EA0132401373000000000000
B0329143223281S11657384EA0132701377000000000000
B0329183223359S11657395EA0133001382000000000000
B0329223223431S11657407EA0134201392000000000000
B0329263223505S11657416EA0134401387000000000000
B0329303223588S11657425EA0133601378000000000000
B0329343223677S11657428EA0132801372000000000000
B0329383223770S11657432EA0133001374000000000000
B0329423223861S11657439EA0132801371000000000000
B0329463223953S11657452EA0132201361000000000000
B0329503224048S11657465EA0130801350000000000000
B0329543224141S11657477EA0130801356000000000000
B0329583224228S11657490EA0130801352000000000000
B0330023224314S11657506EA0130601353000000000000
B0330063224394S11657516EA0132501368000000000000
B0330103224471S11657520EA0133501375000000000000
B0330143224546S11657512EA0133801380000000015000
B0330183224622S11657490EA0134001383000000015000
B0330223224693S11657460EA0133501376000000015000
B0330263224762S11657429EA0133601376000000015000
B0330303224832S11657389EA0133501376000000015000
B0330343224904S11657339EA0134101383000000015000
B0330383224964S11657274EA0135301398000000015000
B0330423224973S11657192EA0136801411000000015000
B0330463224925S11657176EA0137301421000000015000
B0330503224913S11657234EA0138101429000000015000
B0330543224954S11657293EA0138401430000000015000
B0330583225029S11657303EA0138901437000000030000
B0331023225104S11657277EA0138401443000000030000
B0331063225172S11657204EA0137501445000000030000
B0331103225200S11657087EA0137001439000000030000
B0331143225264S11657025EA0137001439000000030000
B0331183225342S11656987EA0136401428000000015000
B0331223225424S11656961EA0136401428000000030000
B0331263225502S11656939EA0138301432000000030000
B0331303225575S11656914EA0141001440000000030000
B0331343225599S11656873EA0142701454000000030000
B0331383225533S11656854EA0143101461000000045000
B0331423225503S11656901EA0144201474000000060000
B0331463225530S11656939EA0145601501000000045000
B0331503225588S11656918EA0147201517000000045000
B0331543225603S11656843EA0148701520000000045000
B0331583225559S11656769EA0149001533000000030000
B0332023225503S11656775EA0149401542000000045000
B0332063225490S11656834EA0150201556000000045000
B0332103225545S11656858EA0151601567000000060000
B0332143225603S11656808EA0152701575000000060000
B0332183225602S11656721EA0153901581000000105000
B0332223225549S11656667EA0154101587000000210000
B0332263225499S11656691EA0155301611000000105000
B0332303225494S11656740EA0157201617000000075000
B0332343225534S11656770EA0158001623000000075000
B0332383225607S11656748EA0158401629000000075000
B0332423225612S11656661EA0159401644000000045000
B0332463225556S11656636EA0160101650000000030000
B0332503225513S11656669EA0161001663000000030000
B0332543225532S11656719EA0162101672000000060000
B0332583225603S11656724EA0162201673000000045000
B0333023225658S11656661EA0162901684000000045000
B0333063225642S11656574EA0163401684000000030000
B0333103225580S11656553EA0163901695000000030000
B0333143225551S11656594EA0165501706000000030000
B0333183225578S11656640EA0166801712000000030000
B0333223225646S11656649EA0166401708000000075000
B0333263225731S11656611EA0165201700000000045000
B0333303225814S11656562EA0164601691000000045000
B0333343225900S11656505EA0165001690000000030000
B0333383225988S11656450EA0165001686000000030000
B0333423226079S11656399EA0165101685000000030000
B0333463226173S11656351EA0165701686000000030000
B0333503226266S11656301EA0165101686000000045000
B0333543226362S11656246EA0164201685000000045000
B0333583226466S11656197EA0162801676000000045000
B0334023226574S11656152EA0161201661000000045000
B0334063226676S11656107EA0160901660000000045000
B0334103226771S11656064EA0160901662000000045000
B0334143226867S11656021EA0160601664000000060000
B0334183226966S11655977EA0159401665000000060000
B0334223227064S11655930EA0158501665000000075000
B0334263227164S11655887EA0158101665000000075000
B0334303227259S11655847EA0158301665000000075000
B0334343227350S11655803EA0158601663000000075000
B0334383227441S11655753EA0158801664000000075000
B0334423227532S11655700EA0157901659000000075000
B0334463227623S11655645EA0158701656000000075000
B0334503227705S11655601EA0162301668000000045000
B0334543227786S11655558EA0163101673000000030000
B0334583227873S11655519EA0161701656000000030000
B0335023227967S11655483EA0159701638000000015000
B0335063228060S11655448EA0158101627000000015000
B0335103228155S11655413EA0156701619000000015000
B0335143228250S11655378EA0154801611000000015000
B0335183228346S11655344EA0153501601000000030000
B0335223228442S11655313EA0152101587000000015000
B0335263228535S11655280EA0150901579000000015000
B0335303228628S11655248EA0150301570000000015000
B0335343228722S11655211EA0150101571000000015000
B0335383228815S11655175EA0149701573000000015000
B0335423228908S11655144EA0149401565000000015000
B0335463228997S11655114EA0148801551000000015000
B0335503229086S11655088EA0149301556000000015000
B0335543229169S11655053EA0150201563000000015000
B0335583229250S11655015EA0150801569000000015000
B0336023229328S11654980EA0151601569000000015000
B0336053229385S11654953EA0150901556000000015000
B0336103229485S11654907EA0149601548000000015000
B0336143229564S11654877EA0148901537000000015000
B0336183229646S11654846EA0147601525000000015000
B0336223229728S11654804EA0146201518000000015000
B0336263229807S11654759EA0145901511000000015000
B0336303229880S11654707EA0146001506000000030000
B0336343229940S11654642EA0146701504000000030000
B0336383229987S11654569EA0147301508000000030000
B0336423230002S11654483EA0148101519000000030000
B0336463229987S11654397EA0148301524000000015000
B0336503229997S11654312EA0149301537000000015000
B0336543230056S11654279EA0151401555000000060000
B0336583230095S11654314EA0153001577000000120000
B0337023230073S11654352EA0154101581000000210000
B0337063230023S11654338EA0154101589000000045000
B0337103229985S11654280EA0154801597000000060000
B0337143229984S11654201EA0155301601000000045000
B0337183230034S11654140EA0155301603000000030000
B0337223230104S11654117EA0154401586000000030000
B0337263230186S11654128EA0153101577000000015000
B0337303230271S11654150EA0152801573000000030000
B0337343230359S11654180EA0152701573000000030000
B0337383230450S11654208EA0152901573000000030000
B0337423230542S11654230EA0154201575000000030000
B0337463230628S11654253EA0155801583000000030000
B0337503230717S11654274EA0155901583000000030000
B0337543230811S11654291EA0155501583000000030000
B0337583230906S11654308EA0154001568000000015000
B0338023231007S11654322EA0152001554000000015000
B0338063231106S11654340EA0151001551000000015000
B0338103231198S11654364EA0150501544000000000000
B0338143231291S11654388EA0149301530000000000000
B0338183231382S11654410EA0148201524000000000000
B0338223231469S11654433EA0147701522000000000000
B0338263231555S11654453EA0147001512000000000000
B0338303231639S11654472EA0146201509000000000000
B0338343231724S11654487EA0145701505000000015000
B0338383231809S11654496EA0145001499000000015000
B0338423231895S11654503EA0144501494000000015000
B0338463231981S11654505EA0143401489000000030000
B0338503232069S11654499EA0142601483000000030000
B0338543232155S11654486EA0143201492000000015000
B0338583232225S11654439EA0145601507000000030000
B0339023232290S11654387EA0149401513000000030000
B0339063232353S11654336EA0152501520000000030000
B0339103232405S11654287EA0153901527000000030000
B0339143232419S11654274EV0155300000000000000128
B0339183232419S11654274EV0156400000000000000128
B0339223232419S11654274EV0158500000000000000128
B0339263232419S11654274EV0160600000000000000128
B0339303232419S11654274EV0162700000000000000128
B0339343232205S11654352EA0164401559045000045000
B0339383232266S11654304EA0166001560045000105000
B0339423232276S11654217EA0167201565045000210000
B0339463232224S11654175EA0169501580045000105000
B0339503232163S11654184EA0172001592045000015000
B0339543232125S11654215EA0174101611045000000000
B0339583232186S11654265EA0175701638045000225000
B0340023232275S11654252EA0177501683015000135000
B0340063232285S11654176EA0179501720015000060000
B0340103232232S11654150EA0181701756000000030000
B0340143232193S11654202EA0183801786000000000000
B0340183232210S11654267EA0186201814000000225000
B0340223232264S11654282EA0188401843000000225000
B0340263232305S11654228EA0190501868000000210000
B0340303232279S11654167EA0191801883000000225000
B0340343232224S11654188EA0192701899000000210000
B0340383232231S11654251EA0194601914000000225000
B0340423232289S11654256EA0196101932000000195000
B0340463232314S11654184EA0197201958000000180000
B0340503232271S11654139EA0199301981000000165000
B0340543232224S11654174EA0200701994000000150000
B0340583232234S11654236EA0201902010000000165000
B0341023232285S11654265EA0203202021000000165000
B0341063232345S11654239EA0203602026000000165000
B0341103232400S11654176EA0202502021000000135000
B0341143232489S11654160EA0199402016000000060000
B0341183232596S11654154EA0196802009000000030000
B0341223232702S11654152EA0195301996000000015000
B0341263232808S11654156EA0193401976000000015000
B0341303232912S11654161EA0191401958000000015000
B0341343233013S11654165EA0190201949000000015000
B0341383233113S11654173EA0189601939000000015000
B0341423233212S11654179EA0188601932000000000000
B0341463233311S11654183EA0187801922000000000000
B0341503233411S11654183EA0186801915000000000000
B0341543233508S11654176EA0186801923000000000000
B0341583233605S11654169EA0187501932000000000000
B0342023233701S11654161EA0187301928000000015000
B0342063233797S11654152EA0186301923000000015000
B0342103233892S11654147EA0186401925000000015000
B0342143233984S11654144EA0186401923000000015000
B0342183234079S11654141EA0186401926000000015000
B0342223234173S11654134EA0187401933000000015000
B0342263234268S11654130EA0188201942000000015000
B0342303234364S11654124EA0188801946000000015000
B0342343234457S11654118EA0188901951000000015000
B0342383234550S11654117EA0188301955000000030000
B0342423234642S11654115EA0187901957000000030000
B0342463234734S11654114EA0186901958000000045000
B0342503234829S11654113EA0186001959000000045000
B0342543234925S11654102EA0185101958000000060000
B0342583235024S11654092EA0184101958000000060000
B0343023235122S11654082EA0183101957000000060000
B0343063235222S11654070EA0181201955000000075000
B0343103235326S11654059EA0179601953000000075000
B0343143235427S11654054EA0179401951000000090000
B0343183235527S11654052EA0179601950000000090000
B0343223235626S11654048EA0179601946015000090000
B0343263235734S11654033EA0179501937000000090000
B0343303235837S11654026EA0179501933000000090000
B0343343235938S11654023EA0179801928000000075000
B0343383236042S11654019EA0180801911000000060000
B0343423236144S11654017EA0181901902000000030000
B0343463236244S11654015EA0182001900000000045000
B0343503236346S11654013EA0181601890000000030000
B0343543236449S11654007EA0180901884000000045000
B0343583236552S11654002EA0180401873000000030000
B0344023236653S11653997EA0180001862000000030000
B0344063236752S11653994EA0179501850000000015000
B0344103236852S11653992EA0178801840000000015000
B0344143236950S11653991EA0177401823000000015000
B0344183237048S11653989EA0175801809000000015000
B0344223237145S11653991EA0174301795000000015000
B0344263237239S11653992EA0173401785000000015000
B0344303237332S11653988EA0172501776000000015000
B0344343237423S11653983EA0171701767000000015000
B0344383237514S11653976EA0171101760000000015000
B0344423237605S11653972EA0170201748000000015000
B0344463237698S11653967EA0168901734000000015000
B0344503237792S11653958EA0167901727000000015000
B0344543237883S11653948EA0167501724000000015000
B0344583237971S11653936EA0166701720000000015000
B0345023238058S11653923EA0165701716000000015000
B0345063238142S11653911EA0164901709000000015000
B0345103238227S11653900EA0164401702000000030000
B0345143238312S11653888EA0164401692000000015000
B0345183238399S11653881EA0162401666000000015000
B0345223238487S11653876EA0160601657000000015000
B0345263238571S11653868EA0161201672000000015000
B0345303238649S11653861EA0161701665000000015000
B0345343238729S11653859EA0160501650000000015000
B0345383238814S11653857EA0159001637000000000000
B0345423238900S11653854EA0158201631000000000000
B0345463238980S11653845EA0158101637000000000000
B0345503239059S11653832EA0158901642000000000000
B0345543239136S11653801EA0159201645000000000000
B0345583239200S11653742EA0159601649000000000000
B0346023239256S11653673EA0160001655000000000000
B0346063239318S11653610EA0159401641000000000000
B0346103239399S11653573EA0158301633000000000000
B0346143239485S11653552EA0157701627000000000000
B0346183239570S11653542EA0157501623000000000000
B0346223239660S11653532EA0157501631000000000000
B0346263239746S11653523EA0158401637000000000000
B0346303239832S11653517EA0158601634000000000000
B0346343239919S11653513EA0157901626000000000000
B0346383240007S11653510EA0156901613000000000000
B0346423240098S11653504EA0156201607000000000000
B0346463240188S11653498EA0155701603000000000000
B0346503240278S11653494EA0155401601000000000000
B0346543240363S11653490EA0155001595000000000000
B0346583240448S11653487EA0154301584000000000000
B0347023240534S11653484EA0153001571000000000000
B0347063240621S11653478EA0151501552000000000000
B0347103240710S11653471EA0150401549000000000000
B0347143240799S11653463EA0150401547000000000000
B0347183240887S11653451EA0150501549000000000000
B0347223240974S11653432EA0149901540000000000000
B0347263241061S11653416EA0148901528000000000000
B0347303241151S11653411EA0148001523000000000000
B0347343241238S11653407EA0147301514000000000000
B0347383241327S11653402EA0146301504000000000000
B0347423241415S11653398EA0145101491000000000000
B0347463241503S11653396EA0143601474000000000000
B0347503241593S11653396EA0141701456000000000000
B0347543241684S11653393EA0140101439000000000000
B0347583241774S11653385EA0138901431000000000000
B0348023241862S11653374EA0139301443000000000000
B0348063241947S11653363EA0140401451000000000000
B0348103242030S11653355EA0141301464000000000000
B0348143242104S11653329EA0143701488000000000000
B0348183242164S11653268EA0144901500000000000000
B0348223242217S11653200EA0146201512000000000000
B0348263242228S11653114EA0147901532000000000000
B0348303242174S11653074EA0149701549000000000000
B0348343242144S11653121EA0151901575000000000000
B0348383242191S11653151EA0154001592000000000000
B0348423242238S11653094EA0155201605000000000000
B0348463242216S11653019EA0156801624000000015000
B0348503242164S11653029EA0158601644000000015000
B0348543242173S11653090EA0160401662000000015000
B0348583242233S11653094EA0162401682000000015000
B0349023242260S11653022EA0164001695000000015000
B0349063242224S11652966EA0165001710000000015000
B0349103242178S11652986EA0166601729000000015000
B0349143242181S11653045EA0168101741000000015000
B0349183242238S11653061EA0170001764000000015000
B0349223242274S11652997EA0171801777000000015000
B0349263242243S11652931EA0173301795000000015000
B0349303242196S11652944EA0175301814000000015000
B0349343242198S11653005EA0176401821000000015000
B0349383242257S11653023EA0177801839000000015000
B0349423242303S11652964EA0179701856000000015000
B0349463242281S11652889EA0180901866000000015000
B0349503242228S11652892EA0182901889000000015000
B0349543242225S11652951EA0184101900000000015000
B0349583242277S11652975EA0185901920000000015000
B0350023242324S11652927EA0187001931000000015000
B0350063242311S11652852EA0188201942000000015000
B0350103242260S11652839EA0189601962000000015000
B0350143242241S11652888EA0191201971000000015000
B0350183242283S11652936EA0191901977000000000000
B0350223242355S11652948EA0191601964000000000000
B0350263242439S11652947EA0189601937000000000000
B0350303242534S11652938EA0186701911000000000000
B0350343242637S11652927EA0184701896000000000000
B0350383242741S11652915EA0183401882000000000000
B0350423242849S11652904EA0182001870000000000000
B0350463242954S11652899EA0181501870000000015000
B0350503243054S11652901EA0182301882000000015000
B0350543243149S11652901EA0182901883000000000000
B0350583243245S11652901EA0182101867000000000000
B0351023243342S11652902EA0181101864000000000000
B0351063243435S11652906EA0181201865000000000000
B0351103243528S11652914EA0181001859000000000000
B0351143243621S11652921EA0180301852000000000000
B0351183243716S11652926EA0179401837000000000000
B0351223243814S11652931EA0178101827000000000000
B0351263243911S11652936EA0177401819000000000000
B0351303244009S11652941EA0175901804000000000000
B0351343244109S11652945EA0174701789000000000000
B0351383244209S11652947EA0173601781000000000000
B0351423244309S11652952EA0173301783000000000000
B0351463244408S11652957EA0172701771000000000000
B0351503244508S11652960EA0171901766000000000000
B0351543244608S11652960EA0171501761000000000000
B0351583244707S11652961EA0171401762000000000000
B0352023244804S11652960EA0172001771000000000000
B0352063244900S11652951EA0172601782000000000000
B0352103244991S11652939EA0174101792000000000000
B0352143245081S11652930EA0173901784000000000000
B0352183245175S11652919EA0173301782000000000000
B0352223245270S11652913EA0173201778000000000000
B0352263245362S11652905EA0174201798000000000000
B0352303245448S11652901EA0175101797000000000000
B0352343245540S11652896EA0173901785000000000000
B0352383245632S11652897EA0174201791000000000000
B0352423245719S11652906EA0175201796000000000000
B0352463245809S11652919EA0174901790000000000000
B0352503245903S11652939EA0175601805000000000000
B0352543245994S11652961EA0176001802000000000000
B0352583246087S11652988EA0174901788000000000000
B0353023246185S11653017EA0173201770000000000000
B0353063246285S11653047EA0172301766000000000000
B0353103246384S11653077EA0171101753000000000000
B0353143246481S11653104EA0170201745000000000000
B0353183246576S11653127EA0169601741000000000000
B0353223246667S11653152EA0169301739000000000000
B0353263246758S11653174EA0168801727000000000000
B0353303246849S11653196EA0167401713000000000000
B0353343246941S11653218EA0165801700000000000000
B0353383247031S11653240EA0164901691000000000000
B0353423247119S11653263EA0164101684000000000000
B0353463247207S11653285EA0163801682000000000000
B0353503247298S11653304EA0163501682000000000000
B0353543247389S11653324EA0163701686000000000000
B0353583247482S11653342EA0163901686000000000000
B0354023247577S11653355EA0164001689000000000000
B0354063247671S11653367EA0164601697000000000000
B0354103247762S11653373EA0165501709000000000000
B0354143247854S11653381EA0165901703000000000000
B0354183247953S11653385EA0165401701000000000000
B0354223248050S11653387EA0165401701000000000000
B0354263248148S11653389EA0165401696000000000000
B0354303248247S11653389EA0164101685000000000000
B0354343248345S11653390EA0162901673000000000000
B0354383248445S11653396EA0161201652000000015000
B0354423248547S11653406EA0159601643000000015000
B0354463248647S11653416EA0159101637000000015000
B0354503248746S11653426EA0158001625000000000000
B0354543248845S11653439EA0156901616000000000000
B0354583248945S11653455EA0156001602000000000000
B0355023249045S11653472EA0155301598000000000000
B0355063249144S11653480EA0154701591000000000000
B0355103249242S11653487EA0154201587000000000000
B0355143249337S11653499EA0154101584000000000000
B0355183249433S11653510EA0152701567000000000000
B0355223249530S11653521EA0151801564000000000000
B0355263249623S11653537EA0151401559000000000000
B0355303249717S11653552EA0151101560000000000000
B0355343249810S11653569EA0151601566000000000000
B0355383249898S11653576EA0153301587000000000000
B0355423249979S11653575EA0154101586000000000000
B0355463250067S11653577EA0153301577000000000000
B0355503250156S11653584EA0152701571000000000000
B0355543250243S11653589EA0152601571000000000000
B0355583250330S11653598EA0151501556000000000000
B0356023250418S11653610EA0150601552000000000000
B0356063250502S11653623EA0151101564000000000000
B0356103250584S11653636EA0151001550000000000000
B0356143250671S11653646EA0149601540000000000000
B0356183250761S11653658EA0149201540000000000000
B0356223250845S11653660EA0149701547000000000000
B0356263250928S11653662EA0149101533000000000000
B0356303251019S11653663EA0147201510000000000000
B0356343251113S11653664EA0146301508000000000000
B0356383251203S11653671EA0146801518000000000000
B0356423251291S11653680EA0148201534000000000000
B0356463251376S11653677EA0150301558000000000000
B0356503251438S11653621EA0152801583000000000000
B0356543251435S11653534EA0154401594000000000000
B0356583251378S11653506EA0154401587000000015000
B0357023251321S11653538EA0154501596000000015000
B0357063251286S11653590EA0156401619000000000000
B0357103251320S11653640EA0157801629000000000000
B0357143251373S11653593EA0158701641000000000000
B0357183251351S11653519EA0160101655000000015000
B0357223251292S11653520EA0161401667000000015000
B0357263251286S11653585EA0162701683000000015000
B0357303251343S11653608EA0164001694000000015000
B0357343251380S11653541EA0164901703000000015000
B0357383251341S11653478EA0165401712000000015000
B0357423251287S11653502EA0167001736000000015000
B0357463251296S11653562EA0169001748000000015000
B0357503251355S11653571EA0170001756000000015000
B0357543251398S11653511EA0170801767000000015000
B0357583251385S11653437EA0172101783000000000000
B0358023251333S11653411EA0173701797000000015000
B0358063251298S11653454EA0175301813000000015000
B0358103251324S11653506EA0176601825000000015000
B0358143251381S11653494EA0177701836000000015000
B0358183251403S11653422EA0178601843000000000000
B0358223251367S11653360EA0179901859000000015000
B0358263251317S11653377EA0181601877000000015000
B0358303251313S11653437EA0182401883000000015000
B0358343251361S11653469EA0183101892000000015000
B0358383251412S11653433EA0184701903000000015000
B0358423251413S11653357EA0185601911000000015000
B0358463251364S11653322EA0187201923000000030000
B0358503251333S11653367EA0188701934000000075000
B0358543251363S11653424EA0189201937000000045000
B0358583251432S11653451EA0187801923000000045000
B0359023251519S11653472EA0185901905000000030000
B0359063251612S11653486EA0184401896000000030000
B0359103251708S11653499EA0184201900000000015000
B0359143251809S11653506EA0183701891000000015000
B0359183251910S11653504EA0184001898000000015000
B0359223252013S11653498EA0184401898000000015000
B0359263252117S11653489EA0183901887000000015000
B0359303252219S11653478EA0182501874000000015000
B0359343252323S11653468EA0181501862000000000000
B0359383252427S11653456EA0180401853000000000000
B0359423252530S11653447EA0179801847000000000000
B0359463252631S11653442EA0179101839000000000000
B0359503252732S11653438EA0178801838000000000000
B0359543252829S11653433EA0178701833000000000000
B0359583252924S11653426EA0177801824000000000000
B0400023253018S11653417EA0177001819000000000000
B0400063253109S11653409EA0176401809000000000000
B0400103253201S11653408EA0174901794000000000000
B0400143253294S11653409EA0173501781000000000000
B0400183253388S11653411EA0172801775000000000000
B0400223253483S11653408EA0172501772000000000000
B0400263253578S11653394EA0173001787000000000000
B0400303253669S11653378EA0173801791000000000000
B0400343253760S11653367EA0174001788000000000000
B0400383253853S11653355EA0173401782000000000000
B0400423253947S11653342EA0172501771000000000000
B0400463254042S11653329EA0171301757000000000000
B0400503254139S11653317EA0170201747000000000000
B0400543254236S11653308EA0169301739000000000000
B0400583254332S11653294EA0169601743000000000000
B0401023254425S11653281EA0170001751000000000000
B0401063254514S11653270EA0171001762000000000000
B0401103254601S11653253EA0171401763000000000000
B0401143254691S11653235EA0171601765000000000000
B0401183254782S11653220EA0171501760000000000000
B0401223254877S11653203EA0170101744000000000000
B0401263254974S11653188EA0168901737000000000000
B0401303255074S11653177EA0168401730000000000000
B0401343255173S11653166EA0167901727000000000000
B0401383255270S11653157EA0167001714000000000000
B0401423255367S11653148EA0166201709000000000000
B0401463255459S11653142EA0166201712000000000000
B0401503255549S11653136EA0166401712000000000000
B0401543255634S11653134EA0165901706000000000000
B0401583255719S11653135EA0165701706000000000000
B0402023255803S11653139EA0165301699000000000000
B0402063255888S11653143EA0165001697000000000000
B0402103255974S11653146EA0164101685000000000000
B0402143256061S11653147EA0162701672000000000000
B0402183256151S11653148EA0161801664000000000000
B0402223256239S11653151EA0161001655000000000000
B0402263256329S11653153EA0160301649000000000000
B0402303256418S11653155EA0159601637000000000000
B0402343256509S11653156EA0158401627000000000000
B0402383256602S11653160EA0157701623000000000000
B0402423256694S11653164EA0157501623000000000000
B0402463256784S11653162EA0157401620000000000000
B0402503256873S11653161EA0156701607000000000000
B0402543256966S11653165EA0155501598000000000000
B0402583257058S11653169EA0154601588000000000000
B0403023257154S11653169EA0153601576000000000000
B0403063257253S11653166EA0151901561000000000000
B0403103257353S11653164EA0150901548000000000000
B0403143257454S11653160EA0149701535000000000000
B0403183257555S11653159EA0148101518000000000000
B0403223257657S11653157EA0146501501000000000000
B0403263257759S11653166EA0145101490000000000000
B0403303257859S11653186EA0144801493000000000000
B0403343257955S11653207EA0144601486000000000000
B0403383258052S11653230EA0144201484000000000000
B0403423258147S11653255EA0143301471000000000000
B0403463258240S11653283EA0142101463000000000000
B0403503258328S11653313EA0141301455000000000000
B0403543258416S11653342EA0140401446000000000000
B0403583258505S11653365EA0139901443000000000000
B0404023258593S11653385EA0139501439000000000000
B0404063258680S11653396EA0139701450000000000000
B0404103258758S11653400EA0141601469000000000000
B0404143258834S11653393EA0142501470000000000000
B0404183258909S11653352EA0141901465000000000000
B0404223258970S11653282EA0142501477000000000000
B0404263258983S11653191EA0143701486000000000000
B0404303258935S11653143EA0143801483000000000000
B0404343258871S11653147EA0143001474000000000000
B0404383258814S11653182EA0142901481000000000000
B0404423258778S11653237EA0143801486000000000000
B0404463258788S11653303EA0143901485000000000000
B0404503258836S11653351EA0143301480000000015000
B0404543258907S11653357EA0142901479000000015000
B0404583258981S11653343EA0142501472000000015000
B0405023259059S11653328EA0141701466000000000000
B0405063259135S11653309EA0142201476000000000000
B0405103259211S11653283EA0143301487000000000000
B0405143259282S11653239EA0144101495000000000000
B0405183259359S11653212EA0144801503000000000000
B0405223259433S11653209EA0145801512000000000000
B0405263259512S11653213EA0145301499000000000000
B0405303259601S11653222EA0144201492000000000000
B0405343259690S11653226EA0144101489000000000000
B0405383259783S11653214EA0143201480000000000000
B0405423259871S11653179EA0142401473000000000000
B0405463259954S11653125EA0141501462000000000000
B0405503300032S11653066EA0141701474000000000000
B0405543300108S11653009EA0142701479000000000000
B0405583300184S11652952EA0142901482000000000000
B0406023300256S11652887EA0144401503000000000000
B0406063300281S11652797EA0147601540000000000000
B0406103300226S11652770EA0151101572000000000000
B0406143300209S11652826EA0152601579000000000000
B0406183300266S11652843EA0153701597000000015000
B0406223300299S11652774EA0155701616000000015000
B0406263300261S11652710EA0157401630000000030000
B0406303300207S11652727EA0158701647000000015000
B0406343300210S11652785EA0160401668000000015000
B0406383300262S11652796EA0162401685000000015000
B0406423300303S11652736EA0163801699000000030000
B0406463300285S11652665EA0165401723000000030000
B0406503300231S11652650EA0167201733000000015000
B0406543300203S11652700EA0168201746000000015000
B0406583300240S11652739EA0169501756000000015000
B0407023300298S11652710EA0170801772000000015000
B0407063300312S11652635EA0172801793000000030000
B0407103300268S11652588EA0174201800000000030000
B0407143300223S11652622EA0174901813000000015000
B0407183300235S11652676EA0176501826000000015000
B0407223300288S11652671EA0177701837000000015000
B0407263300300S11652598EA0178901848000000015000
B0407303300247S11652564EA0180001858000000015000
B0407343300212S11652610EA0181001870000000015000
B0407383300243S11652657EA0182101878000000015000
B0407423300301S11652637EA0182901887000000015000
B0407463300359S11652593EA0183901896000000030000
B0407503300421S11652550EA0184201896000000015000
B0407543300495S11652516EA0184401900000000015000
B0407583300576S11652493EA0184701899000000015000
B0408023300660S11652470EA0183801882000000015000
B0408063300755S11652451EA0182001862000000015000
B0408103300858S11652445EA0180201847000000015000
B0408143300959S11652445EA0179001836000000000000
B0408183301061S11652447EA0177901826000000000000
B0408223301161S11652455EA0177001816000000000000
B0408263301258S11652472EA0176101810000000000000
B0408303301351S11652493EA0176001806000000000000
B0408343301445S11652497EA0175201794000000000000
B0408383301540S11652485EA0173901780000000000000
B0408423301635S11652459EA0173201778000000000000
B0408463301720S11652418EA0173701788000000000000
B0408503301790S11652362EA0173701784000000000000
B0408543301868S11652327EA0172701772000000015000
B0408583301952S11652325EA0171901763000000015000
B0409023302029S11652359EA0170901754000000015000
B0409063302099S11652411EA0170101747000000015000
B0409103302159S11652479EA0169601738000000000000
B0409143302214S11652555EA0168301725000000000000
B0409183302271S11652633EA0167201718000000000000
B0409223302331S11652711EA0166501709000000000000
B0409263302392S11652787EA0165501702000000000000
B0409303302456S11652857EA0164801694000000000000
B0409343302524S11652925EA0163601680000000000000
B0409383302593S11652993EA0162201668000000000000
B0409423302662S11653062EA0161101658000000000000
B0409463302729S11653133EA0160501652000000000000
B0409503302796S11653200EA0160801664000000000000
B0409543302861S11653265EA0162101675000000000000
B0409583302926S11653324EA0162401674000000000000
B0410023302992S11653382EA0161901667000000000000
B0410063303059S11653442EA0162301675000000000000
B0410103303120S11653506EA0162501674000000000000
B0410143303187S11653567EA0161801668000000000000
B0410183303255S11653627EA0161101659000000000000
B0410223303323S11653689EA0160401650000000000000
B0410263303390S11653755EA0159401641000000000000
B0410303303458S11653820EA0158801637000000000000
B0410343303525S11653884EA0159001642000000000000
B0410383303594S11653945EA0158701634000000000000
B0410423303663S11654005EA0158101630000000000000
B0410463303731S11654067EA0157101617000000000000
B0410503303797S11654128EA0156201608000000000000
B0410543303862S11654188EA0155401598000000000000
B0410583303930S11654247EA0154501592000000000000
B0411023303997S11654305EA0154001588000000000000
B0411063304069S11654360EA0153301580000000000000
B0411103304139S11654414EA0152601573000000000000
B0411143304211S11654469EA0151601561000000000000
B0411183304282S11654527EA0151001560000000000000
B0411223304354S11654583EA0151601568000000000000
B0411263304424S11654634EA0152201575000000000000
B0411303304497S11654685EA0152801580000000000000
B0411343304567S11654730EA0154101598000000000000
B0411383304636S11654769EA0155401607000000000000
B0411423304706S11654810EA0154801594000000000000
B0411463304781S11654855EA0153601584000000000000
B0411503304858S11654906EA0152701575000000000000
B0411543304937S11654958EA0151801563000000000000
B0411583305018S11655010EA0150601554000000000000
B0412023305096S11655060EA0150101548000000000000
B0412063305173S11655111EA0149401542000000000000
B0412103305248S11655163EA0148801534000000000000
B0412143305323S11655216EA0148001530000000000000
B0412183305399S11655267EA0148701537000000000000
B0412223305473S11655314EA0149401550000000000000
B0412263305544S11655357EA0149801544000000000000
B0412303305620S11655401EA0149201543000000000000
B0412343305695S11655447EA0148901536000000000000
B0412383305773S11655493EA0148301531000000000000
B0412423305849S11655539EA0148101529000000000000
B0412463305924S11655588EA0147601523000000000000
B0412503305999S11655639EA0147201521000000000000
B0412543306073S11655690EA0147601525000000000000
B0412583306148S11655740EA0147501522000000000000
B0413023306226S11655787EA0146401509000000000000
B0413063306302S11655834EA0145601504000000000000
B0413103306382S11655877EA0144901493000000000000
B0413143306461S11655918EA0143501479000000000000
B0413183306541S11655956EA0142801478000000000000
B0413223306619S11655991EA0142101466000000000000
B0413263306699S11656025EA0140901453000000000000
B0413303306779S11656056EA0139801441000000000000
B0413343306861S11656086EA0138701429000000000000
B0413383306942S11656119EA0137501418000000000000
B0413423307022S11656155EA0136401407000000000000
B0413463307103S11656189EA0135501400000000000000
B0413503307182S11656221EA0135101399000000000000
B0413543307258S11656253EA0134801393000000000000
B0413583307337S11656281EA0133801379000000000000
B0414023307418S11656307EA0132701372000000000000
B0414063307496S11656332EA0132201365000000000000
B0414103307574S11656360EA0131001353000000000000
B0414143307653S11656393EA0129801340000000000000
B0414183307734S11656425EA0129201335000000000000
B0414223307812S11656457EA0128601328000000000000
B0414263307891S11656483EA0127801322000000000000
B0414303307974S11656507EA0127701324000000000000
B0414343308053S11656523EA0128801335000000000000
B0414383308131S11656522EA0129201340000000000000
B0414423308205S11656509EA0130101350000000000000
B0414463308276S11656479EA0131601369000000000000
B0414503308307S11656403EA0133501383000000000000
B0414543308254S11656359EA0134701394000000015000
B0414583308220S11656406EA0135101400000000015000
B0415023308255S11656458EA0136101410000000015000
B0415063308317S11656442EA0137701426000000015000
B0415103308330S11656359EA0138901435000000015000
B0415143308280S11656311EA0139801445000000015000
B0415183308225S11656338EA0139801449000000015000
B0415223308228S11656398EA0140801464000000015000
B0415263308277S11656432EA0141801477000000015000
B0415303308337S11656396EA0143001488000000030000
B0415343308334S11656318EA0144801510000000030000
B0415383308280S11656311EA0146201517000000015000
B0415423308272S11656367EA0147001529000000015000
B0415463308326S11656380EA0148001533000000015000
B0415503308365S11656306EA0148301540000000030000
B0415543308328S11656234EA0149401557000000015000
B0415583308268S11656246EA0150401560000000015000
B0416023308257S11656311EA0151501578000000015000
B0416063308309S11656342EA0153201589000000015000
B0416103308368S11656289EA0154001598000000030000
B0416143308371S11656199EA0155601615000000030000
B0416183308313S11656154EA0156501616000000015000
B0416223308260S11656193EA0156501621000000015000
B0416263308277S11656258EA0158101644000000015000
B0416303308341S11656253EA0160001660000000030000
B0416343308358S11656175EA0162101686000000030000
B0416383308307S11656145EA0164101698000000015000
B0416423308276S11656194EA0164201699000000015000
B0416463308316S11656245EA0165301712000000015000
B0416503308380S11656227EA0166401725000000030000
B0416543308406S11656151EA0168401748000000030000
B0416583308368S11656093EA0169701759000000030000
B0417023308312S11656112EA0170401765000000015000
B0417063308313S11656172EA0171401777000000015000
B0417103308368S11656190EA0172801790000000015000
B0417143308399S11656119EA0174001799000000030000
B0417183308350S11656061EA0175401817000000030000
B0417223308295S11656093EA0176701827000000015000
B0417263308298S11656160EA0177701835000000015000
B0417303308354S11656194EA0177701831000000015000
B0417343308429S11656211EA0176501817000000015000
B0417383308510S11656228EA0177001829000000015000
B0417423308586S11656247EA0177201825000000015000
B0417463308670S11656268EA0176201811000000015000
B0417503308757S11656292EA0175401809000000015000
B0417543308841S11656314EA0176201823000000000000
B0417583308920S11656327EA0177801835000000000000
B0418023308997S11656337EA0177801828000000000000
B0418063309076S11656355EA0176701817000000000000
B0418103309154S11656380EA0175501806000000000000
B0418143309234S11656412EA0174501791000000000000
B0418183309313S11656446EA0174101785000000000000
B0418223309392S11656483EA0173301775000000000000
B0418263309470S11656524EA0172401767000000000000
B0418303309547S11656568EA0171501757000000000000
B0418343309625S11656611EA0170501748000000000000
B0418383309703S11656652EA0169901744000000000000
B0418423309778S11656691EA0169401740000000000000
B0418463309855S11656727EA0168801732000000000000
B0418503309934S11656765EA0167801722000000000000
B0418543310015S11656801EA0167101714000000000000
B0418583310096S11656838EA0166501710000000000000
B0419023310172S11656875EA0166301710000000000000
B0419063310249S11656913EA0166101708000000000000
B0419103310326S11656953EA0165401698000000000000
B0419143310405S11656992EA0164601691000000000000
B0419183310486S11657030EA0164001684000000000000
B0419223310565S11657064EA0164101690000000000000
B0419263310644S11657094EA0164701695000000000000
B0419303310726S11657121EA0164601691000000000000
B0419343310809S11657151EA0163901682000000000000
B0419383310894S11657185EA0163501680000000000000
B0419423310977S11657216EA0163101677000000000000
B0419463311060S11657244EA0162401667000000000000
B0419503311146S11657274EA0161401658000000000000
B0419543311225S11657308EA0161501663000000000000
B0419583311303S11657341EA0161201658000000000000
B0420023311381S11657374EA0160601650000000000000
B0420063311461S11657406EA0160201645000000000000
B0420103311539S11657436EA0159701643000000000000
B0420143311617S11657464EA0159301638000000000000
B0420183311696S11657489EA0158401625000000000000
B0420223311777S11657516EA0157201611000000000000
B0420263311857S11657549EA0156101603000000000000
B0420303311938S11657582EA0155901603000000000000
B0420343312016S11657614EA0155901602000000000000
B0420383312095S11657645EA0155501595000000000000
B0420423312176S11657676EA0155001596000000000000
B0420463312255S11657706EA0154901593000000000000
B0420503312336S11657735EA0154601590000000000000
B0420543312416S11657759EA0154301586000000000000
B0420583312499S11657779EA0154001584000000000000
B0421023312581S11657798EA0153701581000000000000
B0421063312663S11657820EA0153201572000000000000
B0421103312746S11657842EA0153001573000000000000
B0421143312826S11657819EA0153701583000000000000
B0421183312884S11657757EA0154201588000000000000
B0421223312937S11657690EA0153901579000000000000
B0421263313012S11657660EA0152701567000000000000
B0421303313091S11657677EA0151301555000000015000
B0421343313161S11657723EA0149901541000000000000
B0421383313226S11657785EA0149101529000000000000
B0421423313285S11657855EA0148301525000000000000
B0421463313339S11657928EA0147401514000000000000
B0421503313392S11658004EA0146401506000000000000
B0421543313443S11658080EA0145301494000000000000
B0421583313496S11658157EA0144101484000000000000
B0422023313548S11658232EA0143001471000000000000
B0422063313600S11658308EA0141801459000000000000
B0422103313655S11658382EA0140701449000000000000
B0422143313707S11658457EA0140101444000000000000
B0422183313764S11658528EA0139801440000000000000
B0422223313819S11658593EA0140101451000000000000
B0422263313868S11658654EA0141101462000000000000
B0422303313916S11658712EA0141601464000000000000
B0422343313962S11658776EA0141901468000000000000
B0422383314006S11658840EA0142401475000000000000
B0422423314054S11658899EA0143101479000000000000
B0422463314122S11658914EA0143801487000000000000
B0422503314171S11658846EA0144201491000000015000
B0422543314152S11658762EA0144401491000000015000
B0422583314088S11658728EA0144001488000000015000
B0423023314019S11658733EA0143801484000000015000
B0423063313953S11658763EA0143501482000000015000
B0423103313909S11658823EA0143501479000000000000
B0423143313909S11658906EA0142401467000000015000
B0423183313944S11658988EA0140901453000000015000
B0423223313994S11659066EA0139901440000000000000
B0423263314052S11659139EA0138801429000000000000
B0423303314114S11659210EA0137401415000000000000
B0423343314179S11659280EA0135801397000000000000
B0423383314249S11659350EA0134301383000000000000
B0423423314319S11659417EA0133401378000000000000
B0423463314391S11659479EA0133301378000000000000
B0423503314466S11659527EA0134301391000000000000
B0423543314547S11659548EA0135501407000000000000
B0423583314624S11659555EA0136801416000000000000
B0424023314676S11659495EA0137301421000000015000
B0424063314652S11659421EA0137201412000000015000
B0424103314590S11659418EA0135801400000000015000
B0424143314543S11659467EA0135301399000000015000
B0424183314507S11659530EA0135401407000000000000
B0424223314475S11659597EA0137101427000000000000
B0424263314464S11659669EA0138401432000000000000
B0424303314523S11659688EA0139801455000000015000
B0424343314555S11659612EA0141501464000000015000
B0424383314518S11659545EA0141901469000000015000
B0424423314468S11659564EA0142301471000000015000
B0424463314465S11659626EA0142701479000000015000
B0424503314514S11659657EA0143801501000000015000
B0424543314565S11659617EA0145601513000000030000
B0424583314565S11659535EA0146301517000000030000
B0425023314520S11659492EA0147101524000000015000
B0425063314474S11659516EA0147101518000000015000
B0425103314474S11659583EA0146601517000000015000
B0425143314516S11659646EA0146501518000000015000
B0425183314570S11659700EA0147201524000000015000
B0425223314629S11659756EA0146801515000000015000
B0425263314691S11659817EA0145101495000000015000
B0425303314761S11659882EA0142601469000000000000
B0425343314837S11659948EA0141001451000000000000
B0425383314912S11700012EA0139701440000000000000
B0425423314990S11700075EA0138701430000000000000
B0425463315067S11700133EA0138001421000000000000
B0425503315144S11700188EA0136401406000000000000
B0425543315218S11700241EA0135101394000000000000
B0425583315289S11700293EA0134301387000000000000
B0426023315358S11700345EA0133801384000000000000
B0426063315423S11700397EA0133401378000000000000
B0426103315485S11700454EA0132501367000000000000
B0426143315549S11700513EA0131901363000000000000
B0426183315610S11700570EA0131601362000000000000
B0426223315670S11700626EA0131201353000000000000
B0426263315735S11700683EA0129601338000000000000
B0426303315797S11700743EA0128601328000000000000
B0426343315856S11700808EA0127401316000000000000
B0426383315912S11700873EA0126901309000000000000
B0426423315969S11700935EA0125801299000000000000
B0426463316024S11700996EA0124901289000000000000
B0426503316077S11701060EA0123701278000000000000
B0426543316129S11701125EA0122901272000000000000
B0426583316178S11701190EA0122801274000000000000
B0427023316238S11701238EA0124001292000000000000
B0427063316299S11701276EA0125401301000000000000
B0427103316364S11701278EA0126401313000000000000
B0427143316394S11701206EA0127501325000000015000
B0427183316363S11701133EA0128001324000000015000
B0427223316301S11701122EA0127801327000000015000
B0427263316246S11701157EA0128101329000000015000
B0427303316213S11701213EA0129101343000000015000
B0427343316242S11701271EA0130001346000000015000
B0427383316308S11701250EA0129501338000000015000
B0427423316324S11701161EA0129601348000000030000
B0427463316275S11701104EA0130801364000000015000
B0427503316220S11701116EA0132401380000000015000
B0427543316200S11701168EA0133001383000000015000
B0427583316234S11701211EA0133401385000000015000
B0428023316297S11701224EA0133101377000000015000
B0428063316367S11701226EA0132701375000000015000
B0428103316440S11701213EA0132601374000000015000
B0428143316516S11701203EA0132601373000000015000
B0428183316596S11701198EA0132701374000000015000
B0428223316672S11701182EA0133501381000000015000
B0428263316732S11701121EA0134001385000000015000
B0428303316797S11701061EA0134201390000000015000
B0428343316870S11701038EA0135301402000000015000
B0428383316931S11701069EA0136701417000000015000
B0428423316940S11701134EA0138501437000000030000
B0428463316901S11701173EA0139201436000000015000
B0428503316840S11701164EA0137601418000000015000
B0428543316785S11701107EA0136801417000000015000
B0428583316761S11701022EA0137001425000000015000
B0429023316785S11700938EA0138301437000000015000
B0429063316831S11700868EA0139001440000000015000
B0429103316897S11700835EA0138801439000000015000
B0429143316965S11700832EA0139701448000000030000
B0429183317030S11700817EA0141001460000000030000
B0429223317052S11700743EA0142001475000000030000
B0429263317009S11700687EA0142801479000000030000
B0429303316948S11700688EA0142601478000000030000
B0429343316902S11700730EA0142501485000000015000
B0429383316918S11700783EA0144201508000000030000
B0429423316974S11700767EA0145501514000000030000
B0429463316966S11700692EA0146401528000000030000
B0429503316909S11700662EA0146901528000000030000
B0429543316870S11700702EA0147701544000000030000
B0429583316899S11700748EA0148801547000000030000
B0430023316962S11700764EA0147701529000000030000
B0430063317031S11700790EA0147101534000000030000
B0430103317099S11700823EA0147301524000000015000
B0430143317173S11700862EA0145101502000000015000
B0430183317253S11700907EA0143701491000000015000
B0430223317337S11700948EA0142701483000000015000
B0430263317419S11700987EA0142801489000000015000
B0430303317497S11701026EA0143801500000000015000
B0430343317573S11701063EA0144801511000000015000
B0430383317646S11701099EA0146401524000000015000
B0430423317716S11701133EA0146401512000000015000
B0430463317789S11701169EA0144801498000000015000
B0430503317864S11701206EA0143501485000000015000
B0430543317941S11701241EA0142301472000000015000
B0430583318018S11701276EA0141701467000000015000
B0431023318095S11701308EA0141801476000000000000
B0431063318163S11701345EA0143001488000000000000
B0431103318227S11701389EA0144101501000000000000
B0431143318293S11701402EA0146101524000000000000
B0431183318318S11701332EA0148901550000000015000
B0431223318274S11701284EA0151001575000000015000
B0431263318226S11701312EA0153301595000000015000
B0431303318231S11701371EA0154401599000000015000
B0431343318287S11701390EA0154801606000000015000
B0431383318327S11701333EA0156601627000000030000
B0431423318304S11701264EA0158201644000000030000
B0431463318244S11701258EA0159801662000000030000
B0431503318212S11701317EA0160901670000000015000
B0431543318240S11701377EA0161801680000000015000
B0431583318299S11701368EA0162901693000000030000
B0432023318314S11701299EA0164601713000000030000
B0432063318273S11701251EA0166001725000000030000
B0432103318221S11701274EA0167401740000000030000
B0432143318215S11701339EA0168701749000000030000
B0432183318256S11701385EA0169301755000000030000
B0432223318310S11701365EA0170401765000000030000
B0432263318331S11701298EA0171001772000000045000
B0432303318296S11701232EA0171601776000000030000
B0432343318234S11701216EA0172501794000000030000
B0432383318205S11701272EA0174101809000000030000
B0432423318241S11701319EA0175101812000000030000
B0432463318297S11701295EA0175701824000000030000
B0432503318300S11701221EA0177201838000000030000
B0432543318247S11701181EA0178101845000000030000
B0432583318189S11701212EA0179201859000000030000
B0433023318186S11701281EA0180101862000000030000
B0433063318236S11701324EA0180001863000000030000
B0433103318305S11701321EA0179801859000000030000
B0433143318384S11701326EA0178101838000000015000
B0433183318473S11701339EA0176801820000000015000
B0433223318568S11701355EA0175201806000000015000
B0433263318664S11701372EA0174401802000000015000
B0433303318759S11701391EA0174101796000000015000
B0433343318851S11701410EA0174001798000000015000
B0433383318942S11701428EA0174001796000000015000
B0433423319031S11701450EA0174201802000000015000
B0433463319119S11701473EA0174401802000000015000
B0433503319206S11701498EA0174701801000000015000
B0433543319293S11701520EA0174001789000000015000
B0433583319383S11701544EA0173301781000000015000
B0434023319471S11701568EA0172801777000000000000
B0434063319560S11701594EA0172201770000000000000
B0434103319649S11701619EA0171701764000000000000
B0434143319738S11701645EA0170601754000000000000
B0434183319825S11701668EA0169601743000000000000
B0434223319909S11701697EA0168401731000000000000
B0434263319989S11701733EA0167901729000000000000
B0434303320063S11701771EA0168501740000000000000
B0434343320128S11701811EA0169401750000000000000
B0434383320190S11701844EA0170601760000000000000
B0434423320258S11701854EA0170901756000000015000
B0434463320328S11701866EA0169901746000000000000
B0434503320403S11701875EA0169401742000000000000
B0434543320480S11701885EA0169001738000000000000
B0434583320557S11701893EA0169301742000000000000
B0435023320626S11701862EA0171101768000000000000
B0435063320644S11701785EA0173201788000000015000
B0435103320597S11701735EA0173901789000000015000
B0435143320540S11701762EA0173701791000000015000
B0435183320527S11701833EA0174401806000000015000
B0435223320548S11701898EA0175601813000000015000
B0435263320600S11701931EA0176101817000000015000
B0435303320663S11701918EA0176301818000000015000
B0435343320710S11701857EA0176301819000000030000
B0435383320714S11701770EA0177001827000000030000
B0435423320666S11701719EA0177501836000000030000
B0435463320618S11701749EA0178301843000000030000
B0435503320613S11701814EA0178701846000000030000
B0435543320653S11701867EA0178501840000000030000
B0435583320710S11701909EA0177501831000000015000
B0436023320770S11701958EA0176401817000000015000
B0436063320831S11702017EA0174901801000000015000
B0436103320892S11702083EA0173401787000000015000
B0436143320952S11702155EA0172501779000000015000
B0436183321010S11702227EA0172001775000000015000
B0436223321065S11702301EA0171901777000000015000
B0436263321101S11702379EA0172201780000000015000
B0436303321095S11702460EA0172401781000000015000
B0436343321043S11702516EA0171801770000000015000
B0436383320971S11702547EA0170401755000000015000
B0436423320891S11702573EA0168401732000000015000
B0436463320809S11702595EA0167301727000000015000
B0436503320728S11702611EA0166901725000000015000
B0436543320652S11702630EA0166701722000000015000
B0436583320574S11702652EA0165801713000000015000
B0437023320494S11702676EA0165301710000000015000
B0437063320414S11702702EA0165801717000000015000
B0437103320336S11702728EA0166501723000000000000
B0437143320259S11702762EA0166401723000000000000
B0437183320186S11702802EA0166601721000000000000
B0437223320113S11702846EA0165401703000000000000
B0437263320039S11702893EA0164501697000000000000
B0437303319965S11702941EA0163601687000000000000
B0437343319894S11702996EA0162501677000000000000
B0437383319822S11703054EA0161701669000000000000
B0437423319759S11703126EA0160701655000000000000
B0437463319705S11703209EA0159901651000000000000
B0437503319656S11703293EA0159301643000000000000
B0437543319605S11703377EA0158701637000000000000
B0437583319554S11703458EA0158201635000000000000
B0438023319505S11703538EA0158201636000000000000
B0438063319452S11703614EA0157601626000000000000
B0438103319400S11703692EA0156501616000000000000
B0438143319349S11703772EA0156301618000000000000
B0438183319298S11703854EA0155601602000000000000
B0438223319244S11703933EA0154301599000000000000
B0438263319189S11704007EA0154001593000000000000
B0438303319132S11704081EA0153101584000000000000
B0438343319071S11704153EA0152801588000000000000
B0438383319008S11704222EA0154801611000000000000
B0438423318979S11704297EA0158201645000000000000
B0438463319033S11704329EA0160701671000000015000
B0438503319088S11704277EA0161901680000000015000
B0438543319089S11704193EA0162901692000000030000
B0438583319029S11704163EA0163801696000000030000
B0439023318990S11704219EA0164501713000000030000
B0439063319018S11704279EA0166501727000000030000
B0439103319081S11704274EA0167401730000000030000
B0439143319112S11704198EA0167701739000000045000
B0439183319081S11704127EA0169201759000000030000
B0439223319023S11704105EA0171001773000000030000
B0439263318975S11704142EA0172501787000000030000
B0439303318982S11704205EA0173301792000000015000
B0439343319044S11704223EA0173201789000000030000
B0439383319097S11704168EA0173401794000000030000
B0439423319093S11704082EA0173901803000000030000
B0439463319041S11704029EA0175401824000000030000
B0439503318975S11704032EA0177401839000000030000
B0439543318930S11704088EA0178301837000000015000
B0439583318893S11704162EA0177001818000000015000
B0440023318850S11704242EA0175101799000000015000
B0440063318798S11704320EA0173701787000000015000
B0440103318739S11704392EA0172501774000000015000
B0440143318677S11704461EA0170901760000000015000
B0440183318609S11704526EA0170101752000000000000
B0440223318542S11704587EA0169301746000000000000
B0440263318475S11704648EA0169101743000000000000
B0440303318409S11704706EA0168301732000000000000
B0440343318344S11704766EA0167401728000000000000
B0440383318278S11704829EA0166701718000000000000
B0440423318210S11704891EA0165601708000000000000
B0440463318141S11704955EA0164601698000000000000
B0440503318072S11705017EA0163401684000000000000
B0440543318004S11705082EA0161601664000000000000
B0440583317933S11705148EA0159501643000000000000
B0441023317861S11705217EA0158101627000000000000
B0441063317790S11705285EA0157301624000000000000
B0441103317723S11705351EA0156801619000000000000
B0441143317658S11705419EA0156001611000000000000
B0441183317595S11705485EA0155501605000000000000
B0441223317534S11705553EA0154101590000000000000
B0441263317473S11705620EA0152601576000000000000
B0441303317415S11705689EA0151601566000000000000
B0441343317359S11705756EA0151101564000000000000
B0441383317303S11705822EA0150401547000000000000
B0441423317247S11705891EA0148801537000000000000
B0441463317187S11705961EA0147301516000000000000
B0441503317140S11706042EA0146401516000000000000
B0441543317116S11706125EA0147001525000000000000
B0441583317108S11706207EA0148001537000000000000
B0442023317112S11706278EA0149601554000000000000
B0442063317144S11706331EA0151401572000000000000
B0442103317209S11706339EA0152701585000000000000
B0442143317277S11706318EA0154001595000000000000
B0442183317322S11706253EA0154601599000000015000
B0442223317311S11706174EA0155001602000000015000
B0442263317257S11706140EA0154901599000000015000
B0442303317201S11706162EA0153901584000000015000
B0442343317165S11706227EA0152501576000000015000
B0442383317148S11706298EA0154101607000000015000
B0442423317199S11706318EA0156801628000000015000
B0442463317233S11706250EA0157701636000000030000
B0442503317199S11706175EA0158501643000000030000
B0442543317135S11706162EA0159201652000000030000
B0442583317096S11706203EA0160901669000000015000
B0443023317113S11706255EA0162001675000000015000
B0443063317173S11706252EA0162601679000000015000
B0443103317214S11706185EA0162801683000000030000
B0443143317207S11706096EA0163301692000000030000
B0443183317153S11706039EA0164301704000000030000
B0443223317094S11706039EA0165601715000000015000
B0443263317070S11706087EA0166501722000000015000
B0443303317101S11706129EA0167601728000000015000
B0443343317159S11706104EA0168101727000000015000
B0443383317183S11706019EA0168201733000000030000
B0443423317155S11705932EA0169101744000000030000
B0443463317095S11705880EA0169801752000000015000
B0443503317035S11705891EA0170301753000000015000
B0443543316993S11705941EA0169801750000000015000
B0443583316958S11706004EA0169801753000000015000
B0444023316918S11706066EA0169901753000000015000
B0444063316860S11706116EA0169301742000000015000
B0444103316785S11706156EA0167601727000000015000
B0444143316707S11706195EA0166801717000000000000
B0444183316627S11706238EA0165301701000000000000
B0444223316545S11706287EA0164001686000000000000
B0444263316467S11706341EA0162801677000000000000
B0444303316392S11706395EA0161801666000000000000
B0444343316319S11706452EA0160901659000000000000
B0444383316247S11706507EA0159901648000000000000
B0444423316176S11706563EA0158301629000000000000
B0444463316103S11706621EA0157101618000000000000
B0444503316029S11706681EA0155501601000000000000
B0444543315953S11706740EA0153801587000000000000
B0444583315877S11706801EA0152701571000000000000
B0445023315799S11706862EA0151201558000000000000
B0445063315722S11706926EA0150201549000000000000
B0445103315644S11706987EA0149001536000000000000
B0445143315567S11707048EA0147301519000000000000
B0445183315489S11707110EA0145801504000000000000
B0445223315407S11707169EA0144101487000000000000
B0445263315324S11707225EA0142501471000000000000
B0445303315241S11707280EA0141601461000000000000
B0445343315157S11707334EA0140401446000000000000
B0445383315069S11707387EA0139001438000000000000
B0445423314985S11707440EA0138401429000000000000
B0445463314900S11707494EA0137201420000000000000
B0445503314819S11707546EA0136801418000000000000
B0445543314742S11707600EA0136301412000000000000
B0445583314665S11707654EA0135501405000000000000
B0446023314590S11707711EA0135001395000000000000
B0446063314517S11707773EA0134101390000000000000
B0446103314445S11707832EA0133901390000000000000
B0446143314377S11707889EA0133801383000000000000
B0446183314322S11707962EA0133001377000000000000
B0446223314278S11708042EA0132201372000000000000
B0446263314232S11708118EA0132601381000000000000
B0446303314183S11708184EA0133601392000000000000
B0446343314135S11708246EA0135101407000000000000
B0446383314117S11708313EA0137201435000000000000
B0446423314158S11708346EA0139201446000000000000
B0446463314214S11708300EA0138901432000000015000
B0446503314215S11708207EA0137601424000000030000
B0446543314156S11708162EA0137301428000000030000
B0446583314087S11708149EA0138201437000000015000
B0447023314019S11708164EA0138101423000000015000
B0447063313951S11708210EA0135401394000000015000
B0447103313881S11708270EA0133101372000000015000
B0447143313812S11708337EA0131701358000000015000
B0447183313747S11708413EA0130201350000000015000
B0447223313684S11708487EA0129601344000000000000
B0447263313617S11708558EA0128501327000000000000
B0447303313551S11708627EA0126801311000000000000
B0447343313485S11708694EA0125601303000000000000
B0447383313421S11708760EA0124801294000000000000
B0447423313356S11708821EA0123901285000000000000
B0447463313292S11708886EA0122801273000000000000
B0447503313231S11708955EA0121501262000000000000
B0447543313169S11709024EA0120501251000000000000
B0447583313105S11709091EA0119801244000000000000
B0448023313041S11709158EA0119501242000000000000
B0448063312984S11709228EA0118501228000000000000
B0448103312930S11709301EA0117701229000000000000
B0448143312878S11709362EA0119701259000000000000
B0448183312833S11709414EA0121401266000000000000
B0448223312792S11709470EA0121401262000000000000
B0448263312759S11709537EA0121301263000000000000
B0448303312735S11709606EA0121901271000000000000
B0448343312710S11709672EA0122201269000000000000
B0448383312693S11709743EA0120901256000000000000
B0448423312674S11709818EA0119401237000000000000
B0448463312624S11709886EA0118001223000000000000
B0448503312555S11709935EA0117101219000000000000
B0448543312481S11709974EA0116901214000000000000
B0448583312404S11710004EA0116101207000000000000
B0449023312326S11710029EA0115401197000000000000
B0449063312247S11710049EA0114401190000000000000
B0449103312170S11710069EA0113501180000000000000
B0449143312091S11710088EA0112401167000000000000
B0449183312011S11710107EA0111101155000000000000
B0449223311927S11710124EA0110901153000000000000
B0449263311849S11710144EA0110801152000000000000
B0449303311775S11710169EA0109901140000000000000
B0449343311700S11710192EA0109101131000000000000
B0449383311632S11710230EA0108301125000000000000
B0449423311565S11710272EA0107901122000000000000
B0449463311505S11710322EA0108201129000000000000
B0449503311453S11710377EA0109101138000000000000
B0449543311409S11710436EA0109701142000000000000
B0449583311379S11710501EA0110301150000000000000
B0450023311364S11710569EA0110501148000000000000
B0450063311353S11710641EA0110401151000000000000
B0450103311353S11710718EA0110801153000000000000
B0450143311354S11710794EA0110101139000000000000
B0450183311355S11710878EA0108301118000000000000
B0450223311354S11710967EA0106201096000000000000
B0450263311351S11711060EA0104701086000000000000
B0450303311349S11711149EA0103601074000000000000
B0450343311349S11711240EA0102901065000000000000
B0450383311348S11711330EA0101801052000000000000
B0450423311346S11711421EA0100601043000000000000
B0450463311350S11711511EA0100301046000000000000
B0450503311363S11711595EA0102101072000000000000
B0450543311332S11711650EA0104301093000000000000
B0450583311296S11711594EA0105901106000000000000
B0451023311340S11711529EA0106501113000000000000
B0451063311407S11711529EA0107801137000000000000
B0451103311437S11711586EA0109901154000000015000
B0451143311405S11711633EA0111301166000000015000
B0451183311354S11711612EA0112501180000000000000
B0451223311332S11711548EA0113701187000000000000
B0451263311346S11711472EA0114201191000000000000
B0451303311397S11711422EA0115101211000000000000
B0451343311449S11711438EA0117601230000000000000
B0451383311466S11711491EA0118501236000000015000
B0451423311446S11711547EA0119101236000000000000
B0451463311397S11711570EA0119701247000000000000
B0451503311351S11711533EA0120701254000000000000
B0451543311333S11711459EA0121101256000000000000
B0451583311342S11711374EA0121501260000000000000
B0452023311394S11711327EA0123101294000000000000
B0452063311442S11711349EA0125901311000000015000
B0452103311452S11711404EA0126901318000000015000
B0452143311413S11711444EA0127601330000000015000
B0452183311362S11711433EA0129101343000000000000
B0452223311332S11711370EA0130101351000000000000
B0452263311350S11711296EA0131001367000000000000
B0452303311402S11711258EA0132901384000000000000
B0452343311454S11711278EA0134401400000000000000
B0452383311472S11711330EA0135901413000000000000
B0452423311450S11711381EA0136501417000000000000
B0452463311402S11711405EA0137101425000000000000
B0452503311348S11711378EA0137801434000000000000
B0452543311314S11711310EA0138701440000000000000
B0452583311311S11711226EA0139801453000000000000
B0453023311341S11711151EA0140801459000000000000
B0453063311403S11711112EA0141301471000000000000
B0453103311472S11711109EA0142501480000000000000
B0453143311531S11711141EA0143201489000000000000
B0453183311543S11711201EA0144401502000000000000
B0453223311514S11711256EA0144901500000000000000
B0453263311459S11711266EA0145401514000000000000
B0453303311414S11711216EA0147001526000000000000
B0453343311409S11711134EA0148101535000000000000
B0453383311445S11711063EA0149501554000000000000
B0453423311509S11711037EA0150701562000000000000
B0453463311567S11711061EA0151301567000000000000
B0453503311588S11711118EA0152301579000000000000
B0453543311558S11711170EA0152701580000000000000
B0453583311502S11711182EA0152901589000000000000
B0454023311458S11711125EA0154401603000000000000
B0454063311457S11711040EA0155301611000000000000
B0454103311507S11710987EA0156901630000000000000
B0454143311569S11710996EA0158001634000000000000
B0454183311605S11711047EA0157901633000000015000
B0454223311601S11711115EA0157901634000000015000
B0454263311561S11711166EA0158201638000000000000
B0454303311501S11711169EA0159201648000000000000
B0454343311453S11711114EA0159601653000000000000
B0454383311432S11711030EA0160301658000000000000
B0454423311427S11710936EA0160801663000000000000
B0454463311459S11710852EA0162101684000000000000
B0454503311522S11710837EA0164201705000000000000
B0454543311559S11710879EA0165201704000000015000
B0454583311550S11710941EA0164701704000000015000
B0455023311502S11710979EA0166001724000000015000
B0455063311446S11710965EA0167801738000000015000
B0455103311405S11710904EA0168701744000000015000
B0455143311401S11710818EA0169201747000000000000
B0455183311439S11710742EA0169301748000000000000
B0455223311506S11710718EA0169601755000000000000
B0455263311565S11710746EA0170401762000000015000
B0455303311597S11710803EA0170501760000000015000
B0455343311596S11710871EA0170801767000000015000
B0455383311574S11710937EA0171601773000000000000
B0455423311546S11711004EA0171401770000000000000
B0455463311517S11711074EA0172201783000000000000
B0455503311500S11711144EA0174201802000000000000
B0455543311543S11711187EA0176001828000000000000
B0455583311596S11711147EA0177901837000000000000
B0456023311601S11711066EA0178801849000000000000
B0456063311558S11711021EA0180201862000000000000
B0456103311511S11711047EA0181001868000000000000
B0456143311515S11711104EA0182501882000000000000
B0456183311570S11711115EA0183901889000000000000
B0456223311619S11711062EA0184601896000000015000
B0456263311615S11710983EA0185501912000000015000
B0456303311566S11710950EA0186701922000000000000
B0456343311518S11710974EA0187701933000000000000
B0456383311506S11711030EA0188701941000000000000
B0456423311539S11711078EA0189801959000000000000
B0456463311597S11711083EA0191201967000000015000
B0456503311644S11711026EA0191601970000000015000
B0456543311636S11710946EA0192501983000000015000
B0456583311587S11710910EA0193601996000000000000
B0457023311537S11710928EA0194802006000000000000
B0457063311532S11710987EA0195502011000000000000
B0457103311589S11711013EA0196102019000000000000
B0457143311643S11710971EA0198002043000000015000
B0457183311650S11710898EA0199202047000000015000
B0457223311606S11710846EA0199602056000000015000
B0457263311552S11710854EA0200302064000000000000
B0457303311537S11710914EA0201002071000000000000
B0457343311583S11710959EA0201802080000000000000
B0457383311645S11710936EA0203402098000000015000
B0457423311671S11710863EA0204802107000000015000
B0457463311647S11710792EA0205702116000000015000
B0457503311591S11710764EA0206602123000000000000
B0457543311535S11710785EA0206602121000000000000
B0457583311484S11710836EA0205802113000000000000
B0458023311433S11710897EA0205502109000000000000
B0458063311384S11710965EA0205202101000000000000
B0458103311328S11711036EA0204302094000000000000
B0458143311275S11711110EA0204402098000000000000
B0458183311223S11711183EA0204802103000000000000
B0458223311164S11711249EA0204702100000000000000
B0458263311103S11711313EA0204402097000000000000
B0458303311039S11711370EA0204302096000000000000
B0458343310974S11711426EA0204102095000000000000
B0458383310908S11711479EA0203702087000000000000
B0458423310844S11711530EA0202802079000000000000
B0458463310785S11711580EA0202102074000000000000
B0458503310724S11711629EA0201102062000000000000
B0458543310661S11711677EA0199902051000000000000
B0458583310599S11711726EA0199002045000000000000
B0459023310538S11711773EA0198602040000000000000
B0459063310477S11711823EA0197602027000000000000
B0459103310413S11711873EA0196202013000000000000
B0459143310348S11711929EA0195402004000000000000
B0459183310283S11711985EA0194601997000000000000
B0459223310218S11712040EA0193701989000000000000
B0459263310149S11712093EA0193101985000000000000
B0459303310080S11712144EA0192801981000000000000
B0459343310012S11712197EA0192501978000000000000
B0459383309944S11712246EA0191901972000000000000
B0459423309873S11712292EA0190901959000000000000
B0459463309803S11712341EA0190001948000000000000
B0459503309733S11712392EA0189101941000000000000
B0459543309664S11712445EA0188501935000000000000
B0459583309595S11712495EA0187701928000000000000
B0500023309524S11712540EA0187001920000000000000
B0500063309452S11712586EA0186101911000000000000
B0500103309383S11712635EA0184801897000000000000
B0500143309314S11712686EA0183701888000000000000
B0500183309245S11712739EA0183301883000000000000
B0500223309178S11712794EA0183301887000000000000
B0500263309112S11712850EA0183401886000000000000
B0500303309045S11712902EA0183301885000000000000
B0500343308980S11712954EA0182601877000000000000
B0500383308918S11713006EA0182101872000000000000
B0500423308852S11713058EA0181401864000000000000
B0500463308785S11713108EA0181901875000000000000
B0500503308720S11713156EA0182701884000000000000
B0500543308653S11713202EA0183301890000000000000
B0500583308584S11713247EA0183201877000000000000
B0501023308510S11713297EA0181101853000000000000
B0501063308433S11713346EA0179901848000000000000
B0501103308356S11713393EA0179501845000000000000
B0501143308280S11713439EA0178901838000000000000
B0501183308200S11713485EA0177801825000000000000
B0501223308125S11713537EA0177101821000000000000
B0501263308052S11713589EA0176601817000000000000
B0501303307977S11713637EA0176001808000000000000
B0501343307900S11713686EA0174801795000000000000
B0501383307822S11713734EA0174501798000000000000
B0501423307748S11713778EA0174601797000000000000
B0501463307674S11713819EA0173901790000000000000
B0501503307597S11713862EA0173201781000000000000
B0501543307519S11713905EA0171901765000000000000
B0501583307438S11713951EA0170901757000000000000
B0502023307360S11713999EA0170701759000000000000
B0502063307286S11714050EA0171201765000000000000
B0502103307219S11714099EA0172601788000000000000
B0502143307158S11714147EA0174501807000000000000
B0502183307132S11714213EA0176901833000000000000
B0502223307175S11714260EA0179201856000000000000
B0502263307230S11714226EA0181301874000000000000
B0502303307232S11714146EA0183001890000000000000
B0502343307178S11714105EA0184401904000000000000
B0502383307133S11714141EA0186001919000000000000
B0502423307145S11714203EA0186801921000000000000
B0502463307208S11714225EA0186801926000000000000
B0502503307269S11714185EA0188401950000000015000
B0502543307290S11714103EA0190301961000000015000
B0502583307256S11714027EA0191601978000000015000
B0503023307199S11713994EA0193401993000000000000
B0503063307141S11714011EA0194201999000000000000
B0503103307116S11714069EA0195202010000000000000
B0503143307141S11714126EA0195902012000000000000
B0503183307204S11714152EA0195502008000000000000
B0503223307281S11714154EA0196102018000000000000
B0503263307345S11714112EA0197702046000000000000
B0503303307344S11714034EA0199802054000000015000
B0503343307288S11713996EA0200202059000000000000
B0503383307242S11714035EA0201502078000000000000
B0503423307275S11714086EA0203302095000000000000
B0503463307336S11714070EA0204502105000000015000
B0503503307363S11713996EA0205902119000000015000
B0503543307337S11713921EA0207102129000000015000
B0503583307279S11713886EA0208202137000000000000
B0504023307212S11713892EA0207802125000000000000
B0504063307138S11713934EA0206002105000000000000
B0504103307061S11713986EA0205202102000000000000
B0504143306987S11714044EA0204702094000000000000
B0504183306912S11714103EA0205002108000000000000
B0504223306840S11714161EA0206102112000000000000
B0504263306764S11714222EA0204802095000000000000
B0504303306682S11714281EA0204002086000000000000
B0504343306597S11714336EA0202702074000000000000
B0504383306512S11714386EA0201802065000000000000
B0504423306426S11714433EA0200602054000000000000
B0504463306339S11714479EA0199602045000000000000
B0504503306255S11714525EA0198802038000000000000
B0504543306171S11714572EA0198202034000000000000
B0504583306086S11714616EA0197702029000000000000
B0505023306005S11714663EA0197402025000000000000
B0505063305925S11714713EA0197102022000000000000
B0505103305845S11714759EA0196602016000000000000
B0505143305763S11714804EA0195802006000000000000
B0505183305681S11714853EA0194601993000000000000
B0505223305599S11714905EA0193601987000000000000
B0505263305520S11714961EA0193501986000000000000
B0505303305439S11715013EA0193901993000000000000
B0505343305360S11715060EA0194201996000000000000
B0505383305278S11715104EA0194201995000000000000
B0505423305195S11715144EA0194201994000000000000
B0505463305110S11715187EA0193701987000000000000
B0505503305026S11715227EA0193501990000000000000
B0505543304944S11715265EA0193801989000000000000
B0505583304862S11715301EA0192901978000000000000
B0506023304781S11715342EA0192301974000000000000
B0506063304699S11715381EA0191301960000000000000
B0506103304614S11715417EA0190301951000000000000
B0506143304529S11715457EA0189401943000000000000
B0506183304443S11715490EA0189201942000000000000
B0506223304357S11715519EA0188901941000000000000
B0506263304274S11715551EA0188701936000000000000
B0506303304191S11715587EA0187901926000000000000
B0506343304105S11715621EA0187201922000000000000
B0506383304022S11715656EA0186301910000000000000
B0506423303940S11715695EA0185201900000000000000
B0506463303854S11715732EA0184201891000000000000
B0506503303766S11715763EA0184301897000000000000
B0506543303676S11715792EA0185301912000000000000
B0506583303593S11715820EA0186901926000000000000
B0507023303512S11715853EA0187201926000000000000
B0507063303432S11715884EA0187601929000000000000
B0507103303350S11715922EA0187601928000000000000
B0507143303267S11715959EA0188101936000000000000
B0507183303184S11715994EA0188501938000000000000
B0507223303098S11716028EA0188201934000000000000
B0507263303009S11716062EA0188701946000000000000
B0507303302922S11716088EA0189401946000000000000
B0507343302833S11716117EA0188701931000000000000
B0507383302739S11716148EA0186801910000000000000
B0507423302643S11716172EA0185501901000000000000
B0507463302545S11716191EA0185101902000000000000
B0507503302449S11716206EA0185301901000000000000
B0507543302353S11716228EA0184301888000000000000
B0507583302257S11716247EA0183101875000000000000
B0508023302160S11716258EA0181701861000000000000
B0508063302066S11716271EA0180501850000000000000
B0508103301972S11716284EA0179101835000000000000
B0508143301877S11716297EA0178001828000000000000
B0508183301782S11716315EA0177301817000000000000
B0508223301685S11716334EA0176501814000000000000
B0508263301587S11716353EA0176501813000000000000
B0508303301491S11716375EA0176501815000000000000
B0508343301400S11716397EA0178101844000000000000
B0508383301318S11716413EA0180801866000000000000
B0508423301239S11716436EA0182401883000000000000
B0508463301163S11716473EA0183601890000000000000
B0508503301098S11716523EA0184801910000000000000
B0508543301107S11716590EA0187301931000000000000
B0508583301176S11716575EA0187601921000000000000
B0509023301210S11716484EA0186701913000000000000
B0509063301179S11716391EA0186201913000000000000
B0509103301113S11716340EA0187301933000000000000
B0509143301042S11716331EA0188801944000000000000
B0509183300971S11716354EA0188501930000000000000
B0509223300896S11716392EA0186601908000000000000
B0509263300814S11716440EA0184701888000000000000
B0509303300728S11716492EA0183701883000000000000
B0509343300642S11716544EA0184001889000000000000
B0509383300559S11716600EA0184701902000000000000
B0509423300476S11716655EA0186001914000000000000
B0509463300395S11716709EA0186301914000000000000
B0509503300313S11716763EA0186201911000000000000
B0509543300233S11716815EA0185601901000000000000
B0509583300149S11716865EA0183601878000000000000
B0510023300066S11716921EA0181601858000000000000
B0510063259982S11716984EA0179801843000000000000
B0510103259898S11717049EA0178301828000000000000
B0510143259814S11717115EA0176701813000000000000
B0510183259731S11717179EA0175801802000000000000
B0510223259649S11717241EA0174701792000000000000
B0510263259566S11717303EA0173301773000000000000
B0510303259482S11717367EA0172101766000000000000
B0510343259404S11717431EA0171501763000000000000
B0510383259325S11717489EA0171001760000000000000
B0510423259243S11717541EA0170301750000000000000
B0510463259163S11717596EA0168701731000000000000
B0510503259083S11717653EA0167301718000000000000
B0510543259003S11717705EA0166601709000000000000
B0510583258921S11717758EA0165701706000000000000
B0511023258847S11717813EA0167301735000000000000
B0511063258787S11717865EA0170001755000000000000
B0511103258734S11717921EA0170301752000000000000
B0511143258669S11717978EA0169901750000000000000
B0511183258600S11718033EA0170701762000000000000
B0511223258532S11718086EA0170801753000000000000
B0511263258457S11718134EA0169701741000000000000
B0511303258379S11718180EA0169401740000000000000
B0511343258302S11718229EA0168501728000000000000
B0511383258223S11718277EA0168101731000000000000
B0511423258147S11718327EA0168201729000000000000
B0511463258069S11718375EA0167701728000000000000
B0511503257993S11718423EA0167901726000000000000
B0511543257912S11718471EA0167401722000000000000
B0511583257830S11718515EA0166901718000000000000
B0512023257748S11718559EA0166201707000000000000
B0512063257662S11718603EA0164901697000000000000
B0512103257579S11718648EA0165101706000000000000
B0512143257503S11718688EA0165501695000000000000
B0512183257422S11718731EA0163801675000000000000
B0512223257341S11718774EA0162401667000000000000
B0512263257262S11718818EA0162001666000000000000
B0512303257192S11718867EA0162301673000000000000
B0512343257127S11718922EA0162401670000000000000
B0512383257059S11718978EA0161101654000000000000
B0512423256986S11719034EA0160001640000000000000
B0512463256914S11719095EA0158601629000000000000
B0512503256842S11719161EA0157501616000000000000
B0512543256775S11719233EA0156601610000000000000
B0512583256710S11719308EA0155701597000000000000
B0513023256647S11719385EA0154601593000000000000
B0513063256594S11719459EA0154801592000000000000
B0513103256539S11719530EA0154001578000000000000
B0513143256486S11719603EA0152601564000000000000
B0513183256429S11719677EA0150701539000000000000
B0513223256370S11719750EA0148701525000000000000
B0513263256310S11719823EA0147201508000000000000
B0513303256253S11719902EA0146101503000000000000
B0513343256192S11719975EA0146301511000000000000
B0513383256128S11720031EA0147501523000000000000
B0513423256066S11720087EA0148001524000000000000
B0513463256000S11720141EA0148001529000000000000
B0513503255933S11720189EA0148101524000000000000
B0513543255867S11720243EA0146801505000000000000
B0513583255802S11720304EA0145401490000000000000
B0514023255738S11720370EA0143801477000000000000
B0514063255677S11720440EA0143301481000000000000
