ACAM4N6
HFDTE061220
HFFXA050
HFPLTPILOT:JOHN WELSH              
HFGTYGLIDERTYPE:HORNET      
HFGIDGLIDERID:VH-GMY      
HFDTM100GPSDATUM:
HFRFWFIRMWAREVERSION:F2.6
HFRHWHARDWAREVERSION:300 Series Version 2
HFFTYFRTYPE:CAMBRIDGE AERO INSTRUMENTS, 302+
HFGPS:GARMIN,LVS-25,12,18000
HFPRSPRESSALTSENSOR:INTERSEMA, MS5534-AP, 20000
I033638FXA3941ENL4247REX
LCAMSBVER:5FWVER:F26300
C061220044229061220000102
C0000000N00000000WTAKEOFF     
C3207547S11656879EBeverley Air
C3137397S11712959ECunderdin Ai
C3200816S11723699EQuairading  
C3207547S11656879EBeverley Air
C0000000N00000000WLANDING     
B0452483207337S11656856EA0017000205000000000000
B0452503207337S11656857EA0017000205000000000000
B0452523207337S11656856EA0016900205000000000000
B0452543207337S11656856EA0016900205000000000000
B0452563207337S11656856EA0017000205000000000000
B0452583207337S11656856EA0017000205000000000000
B0453003207337S11656856EA0016900205000000000000
B0453023207337S11656856EA0017000205000000000000
B0453043207337S11656856EA0016900205000000000000
B0453063207337S11656856EA0017000205000000000000
B0453083207337S11656856EA0016900205000000000000
B0453103207337S11656856EA0016900205000000000000
B0453123207337S11656856EA0017000205000000000000
B0453143207337S11656857EA0017000205000000000000
B0453163207338S11656857EA0017000205000000000000
B0453193207345S11656864EA0017100205000000000000
B0453233207367S11656882EA0017000205000000000000
B0453273207406S11656909EA0017300204000000000000
B0453313207456S11656942EA0017100205000000000000
B0453353207519S11656981EA0017100206000000000000
B0453393207585S11657021EA0017300211000000000000
B0453433207650S11657064EA0018400226000000000000
B0453473207711S11657103EA0020300244000000000000
B0453513207768S11657144EA0022000263000000000000
B0453553207827S11657181EA0023800283000000000000
B0453593207885S11657212EA0025500297000000000000
B0454033207944S11657247EA0026600315000000000000
B0454073208002S11657286EA0028400326000000000000
B0454113208058S11657324EA0030000344000000000000
B0454153208112S11657371EA0031400360000000000000
B0454193208158S11657429EA0032600378000000000000
B0454233208190S11657506EA0035200402000000000000
B0454273208195S11657598EA0036300415000000000000
B0454313208173S11657688EA0038700437000000000000
B0454353208129S11657762EA0042100479000000000000
B0454393208065S11657814EA0044500509000000000000
B0454433207982S11657816EA0047100528000000000000
B0454473207900S11657770EA0048500543000000015000
B0454513207850S11657684EA0050600566000000015000
B0454553207845S11657592EA0052600590000000015000
B0454593207872S11657519EA0055600620000000015000
B0455033207917S11657464EA0057800630000000015000
B0455073207932S11657398EA0058400635000000015000
B0455113207895S11657337EA0058500633000000015000
B0455153207830S11657330EA0058400628000000015000
B0455193207784S11657380EA0057900623000000015000
B0455233207775S11657451EA0057400617000000015000
B0455273207791S11657521EA0057000614000000015000
B0455313207828S11657571EA0057500620000000015000
B0455353207865S11657538EA0058100620000000015000
B0455393207832S11657477EA0057300612000000015000
B0455433207765S11657482EA0057000613000000015000
B0455473207720S11657546EA0056900612000000015000
B0455513207713S11657624EA0057000613000000015000
B0455553207753S11657677EA0057000611000000015000
B0455593207787S11657632EA0058000627000000015000
B0456033207726S11657614EA0059300642000000015000
B0456073207703S11657680EA0060500648000000015000
B0456113207746S11657709EA0061100659000000015000
B0456153207752S11657647EA0062500671000000015000
B0456193207687S11657644EA0063300677000000015000
B0456233207674S11657710EA0063900684000000015000
B0456273207720S11657731EA0064500692000000015000
B0456313207739S11657671EA0065700707000000015000
B0456353207681S11657638EA0067100717000000015000
B0456393207640S11657698EA0067700729000000015000
B0456433207668S11657754EA0068800741000000015000
B0456473207703S11657719EA0071100769000000015000
B0456513207655S11657685EA0072800782000000015000
B0456553207612S11657733EA0074200799000000015000
B0456593207632S11657788EA0075600808000000015000
B0457033207683S11657776EA0076600820000000015000
B0457073207683S11657709EA0077900839000000015000
B0457113207624S11657692EA0080300861000000015000
B0457153207586S11657746EA0082000878000000015000
B0457193207610S11657798EA0083700893000000015000
B0457233207659S11657789EA0084100892000000015000
B0457273207676S11657722EA0085200917000000015000
B0457313207623S11657694EA0088300944000000015000
B0457353207584S11657748EA0089500953000000015000
B0457393207619S11657789EA0090800970000000015000
B0457433207650S11657736EA0091600972000000015000
B0457473207594S11657696EA0093601002000000015000
B0457513207545S11657740EA0095401017000000015000
B0457553207564S11657801EA0096801031000000015000
B0457593207620S11657789EA0097501030000000015000
B0458033207623S11657715EA0098201052000000015000
B0458073207564S11657729EA0101301080000000015000
B0458113207571S11657788EA0103001088000000015000
B0458153207625S11657776EA0102901087000000015000
B0458193207622S11657705EA0104301114000000015000
B0458233207562S11657712EA0106901135000000015000
B0458273207557S11657779EA0108301145000000015000
B0458313207616S11657787EA0109001160000000015000
B0458353207637S11657715EA0110901179000000015000
B0458393207586S11657659EA0113101202000000015000
B0458433207521S11657685EA0114801217000000015000
B0458473207518S11657761EA0116301229000000015000
B0458513207572S11657796EA0116801232000000015000
B0458553207633S11657761EA0118001252000000015000
B0458593207654S11657683EA0120001273000000015000
B0459033207607S11657623EA0122801301000000015000
B0459073207544S11657641EA0125201321000000015000
B0459113207529S11657712EA0126401333000000015000
B0459153207577S11657753EA0127501348000000015000
B0459193207622S11657703EA0129301365000000015000
B0459233207581S11657637EA0130801386000000015000
B0459273207523S11657672EA0133501413000000015000
B0459313207537S11657740EA0135401425000000015000
B0459353207596S11657727EA0137101451000000015000
B0459393207594S11657654EA0139301470000000015000
B0459433207531S11657641EA0141201487000000015000
B0459473207516S11657711EA0142801502000000015000
B0459513207566S11657742EA0144701525000000015000
B0459553207607S11657693EA0146501541000000015000
B0459593207570S11657628EA0148401564000000015000
B0500033207506S11657649EA0150201578000000015000
B0500073207502S11657720EA0151601595000000015000
B0500113207549S11657757EA0153501613000000015000
B0500153207596S11657714EA0154701622000000015000
B0500193207568S11657646EA0156601650000000015000
B0500233207508S11657660EA0158901665000000015000
B0500273207506S11657725EA0160101678000000015000
B0500313207554S11657738EA0161301689000000015000
B0500353207564S11657677EA0162101697000000015000
B0500393207508S11657654EA0163601718000000015000
B0500433207466S11657698EA0164901723000000015000
B0500473207479S11657763EA0165001723000000015000
B0500513207533S11657772EA0165901736000000015000
B0500553207559S11657722EA0166801750000000015000
B0500593207532S11657666EA0167901758000000015000
B0501033207476S11657675EA0168901764000000015000
B0501073207462S11657742EA0168601759000000015000
B0501113207505S11657780EA0168601766000000015000
B0501153207549S11657751EA0169201770000000015000
B0501193207571S11657689EA0169401772000000000000
B0501233207558S11657623EA0169901777000000000000
B0501273207507S11657584EA0170301780000000000000
B0501313207445S11657603EA0170401778000000000000
B0501353207424S11657673EA0170501784000000000000
B0501393207456S11657724EA0171101790000000015000
B0501433207506S11657722EA0171901798000000015000
B0501473207515S11657663EA0172401801000000015000
B0501513207462S11657629EA0172801810000000015000
B0501553207406S11657667EA0173401812000000015000
B0501593207402S11657735EA0173501809000000015000
B0502033207445S11657779EA0172901800000000015000
B0502073207505S11657772EA0172101794000000015000
B0502113207550S11657728EA0171301788000000015000
B0502153207563S11657660EA0170801785000000015000
B0502193207585S11657598EA0170701785000000000000
B0502233207625S11657547EA0170401781000000000000
B0502273207677S11657510EA0170101777000000000000
B0502313207735S11657480EA0169801773000000000000
B0502353207793S11657452EA0169401771000000000000
B0502393207850S11657426EA0169001766000000000000
B0502433207906S11657398EA0168601759000000000000
B0502473207962S11657361EA0167701750000000000000
B0502513208015S11657320EA0167101747000000000000
B0502553208065S11657277EA0167401751000000000000
B0502593208112S11657233EA0167501750000000000000
B0503033208151S11657181EA0167401747000000000000
B0503073208148S11657111EA0167501748000000000000
B0503113208100S11657055EA0167101747000000000000
B0503153208034S11657026EA0167201748000000000000
B0503193207963S11657022EA0166901744000000000000
B0503233207892S11657029EA0166601740000000000000
B0503273207817S11657033EA0165801730000000000000
B0503313207737S11657040EA0165001724000000000000
B0503353207655S11657055EA0164401717000000000000
B0503393207575S11657073EA0164201717000000000000
B0503433207495S11657098EA0164101715000000000000
B0503473207415S11657124EA0163801712000000000000
B0503513207336S11657152EA0163801715000000000000
B0503553207256S11657178EA0163701709000000000000
B0503593207177S11657209EA0162901701000000000000
B0504033207102S11657247EA0162401698000000000000
B0504073207026S11657286EA0161501687000000000000
B0504113206951S11657329EA0160101674000000000000
B0504153206874S11657371EA0159701671000000000000
B0504193206795S11657413EA0159301663000000000000
B0504233206715S11657462EA0158601657000000000000
B0504273206628S11657506EA0157801648000000000000
B0504313206539S11657549EA0157001640000000000000
B0504353206445S11657592EA0156001627000000000000
B0504393206349S11657637EA0154401610000000000000
B0504433206250S11657685EA0153301603000000000000
B0504473206156S11657733EA0153001602000000000000
B0504513206064S11657781EA0152701601000000000000
B0504553205978S11657828EA0153301609000000015000
B0504593205898S11657862EA0153901609000000015000
B0505033205815S11657904EA0152401584000000015000
B0505073205729S11657961EA0150501570000000015000
B0505113205647S11658024EA0149901570000000015000
B0505153205568S11658082EA0149801569000000015000
B0505193205486S11658132EA0149801567000000015000
B0505233205404S11658180EA0149101559000000015000
B0505273205321S11658227EA0148201548000000015000
B0505313205237S11658274EA0147001534000000000000
B0505353205153S11658320EA0145601523000000000000
B0505393205070S11658364EA0145301524000000000000
B0505433204989S11658404EA0145001513000000000000
B0505473204905S11658444EA0143501498000000000000
B0505513204820S11658483EA0142201484000000000000
B0505553204733S11658521EA0140401465000000000000
B0505593204643S11658559EA0139001455000000000000
B0506033204556S11658600EA0139001458000000000000
B0506073204476S11658647EA0139101459000000000000
B0506113204394S11658693EA0138701448000000000000
B0506153204308S11658738EA0137601440000000000000
B0506193204222S11658784EA0136701430000000000000
B0506233204136S11658833EA0136001422000000000000
B0506273204052S11658889EA0135101414000000000000
B0506313203963S11658944EA0134301404000000000000
B0506353203867S11658990EA0132701386000000000000
B0506393203770S11659036EA0131301373000000000000
B0506433203676S11659088EA0129801359000000000000
B0506473203581S11659140EA0128901352000000000000
B0506513203494S11659193EA0128901355000000000000
B0506553203411S11659245EA0128601347000000000000
B0506593203328S11659297EA0127701339000000000000
B0507033203244S11659349EA0126701327000000000000
B0507073203161S11659401EA0126001324000000000000
B0507113203079S11659443EA0127601353000000000000
B0507153203018S11659493EA0130301374000000000000
B0507193203005S11659565EA0131801384000000000000
B0507233203043S11659613EA0132101383000000000000
B0507273203099S11659607EA0131801378000000000000
B0507313203134S11659544EA0131201375000000015000
B0507353203131S11659464EA0131401381000000015000
B0507393203107S11659388EA0131901384000000000000
B0507433203066S11659319EA0131801383000000000000
B0507473203008S11659259EA0132201391000000000000
B0507513202944S11659211EA0132701393000000000000
B0507553202873S11659170EA0131801381000000000000
B0507593202787S11659161EA0130101365000000000000
B0508033202697S11659176EA0129301357000000000000
B0508073202606S11659198EA0128701350000000000000
B0508113202514S11659231EA0128601352000000000000
B0508153202422S11659270EA0128001340000000000000
B0508193202331S11659313EA0126701328000000000000
B0508233202241S11659360EA0125601318000000000000
B0508273202155S11659412EA0125101316000000000000
B0508313202081S11659465EA0125301320000000000000
B0508353202012S11659517EA0124901308000000000000
B0508393201941S11659570EA0124001299000000000000
B0508433201866S11659627EA0123201287000000000000
B0508473201791S11659687EA0121501271000000000000
B0508513201712S11659744EA0120301263000000000000
B0508553201630S11659795EA0119901261000000000000
B0508593201545S11659839EA0120101264000000000000
B0509033201470S11659891EA0121101276000000000000
B0509073201439S11659969EA0123001295000000000000
B0509113201424S11700051EA0123001289000000000000
B0509153201383S11700133EA0122401289000000000000
B0509193201333S11700210EA0123101295000000000000
B0509233201359S11700260EA0124301306000000000000
B0509273201388S11700211EA0124101293000000015000
B0509313201336S11700153EA0122401283000000015000
B0509353201257S11700128EA0121301269000000015000
B0509393201174S11700111EA0120501268000000015000
B0509433201086S11700101EA0120501270000000015000
B0509473201003S11700102EA0121401279000000000000
B0509513200929S11700125EA0122101287000000000000
B0509553200858S11700158EA0121401272000000000000
B0509593200777S11700188EA0119001246000000000000
B0510033200686S11700211EA0116901226000000000000
B0510073200596S11700228EA0116201217000000000000
B0510113200503S11700234EA0114501196000000000000
B0510153200405S11700234EA0112501180000000000000
B0510193200306S11700233EA0111101167000000000000
B0510233200205S11700232EA0110101160000000000000
B0510273200106S11700229EA0109401151000000000000
B0510313200009S11700227EA0108401142000000000000
B0510353159913S11700223EA0107001124000000000000
B0510393159814S11700210EA0105601104000000000000
B0510433159711S11700189EA0104201095000000000000
B0510473159608S11700168EA0103901100000000000000
B0510513159507S11700146EA0104201099000000000000
B0510553159408S11700130EA0104301103000000000000
B0510593159317S11700125EA0106201126000000000000
B0511033159233S11700133EA0107201134000000000000
B0511073159152S11700149EA0108101141000000000000
B0511113159083S11700188EA0108801150000000000000
B0511153159070S11700250EA0110201165000000000000
B0511193159108S11700285EA0110701166000000000000
B0511233159165S11700270EA0110601168000000000000
B0511273159211S11700220EA0110901172000000015000
B0511313159227S11700142EA0111001175000000015000
B0511353159229S11700058EA0111301181000000000000
B0511393159220S11659974EA0112201190000000000000
B0511433159169S11659929EA0113301199000000000000
B0511473159117S11659961EA0113201192000000000000
B0511513159126S11700020EA0112801191000000015000
B0511553159174S11700041EA0112801190000000015000
B0511593159233S11700036EA0113101195000000015000
B0512033159261S11659974EA0114001206000000015000
B0512073159220S11659917EA0114501206000000015000
B0512113159160S11659939EA0114401204000000015000
B0512153159156S11700003EA0114401202000000015000
B0512193159209S11700008EA0115001215000000015000
B0512233159243S11659947EA0115501218000000015000
B0512273159229S11659867EA0115601215000000015000
B0512313159170S11659811EA0115101211000000015000
B0512353159096S11659803EA0114601206000000015000
B0512393159018S11659821EA0113701193000000015000
B0512433158938S11659850EA0112601187000000015000
B0512473158854S11659883EA0112101182000000000000
B0512513158770S11659916EA0111701174000000000000
B0512553158680S11659951EA0111001170000000000000
B0512593158601S11700003EA0111201172000000000000
B0513033158525S11700069EA0111801176000000000000
B0513073158501S11700149EA0113201187000000015000
B0513113158502S11700232EA0112701177000000000000
B0513153158479S11700316EA0111601169000000000000
B0513193158424S11700387EA0110501155000000000000
B0513233158351S11700445EA0108201129000000000000
B0513273158260S11700487EA0106101101000000000000
B0513313158161S11700515EA0103701084000000000000
B0513353158064S11700539EA0102801079000000000000
B0513393157966S11700561EA0102101068000000000000
B0513433157866S11700582EA0100301050000000000000
B0513473157766S11700601EA0099101041000000000000
B0513513157666S11700624EA0097901030000000000000
B0513553157565S11700640EA0096901020000000000000
B0513593157463S11700649EA0096101011000000000000
B0514033157365S11700649EA0095201004000000000000
B0514073157268S11700634EA0094600996000000000000
B0514113157176S11700604EA0093800988000000000000
B0514153157088S11700570EA0093200982000000000000
B0514193157002S11700531EA0092100969000000000000
B0514233156915S11700489EA0091200961000000000000
B0514273156828S11700450EA0090400953000000000000
B0514313156741S11700409EA0089300942000000000000
B0514353156653S11700368EA0088500934000000000000
B0514393156566S11700336EA0088100929000000000000
B0514433156477S11700311EA0087200916000000000000
B0514473156390S11700285EA0085800908000000000000
B0514513156305S11700266EA0085900910000000000000
B0514553156223S11700249EA0085900910000000000000
B0514593156141S11700237EA0085700904000000000000
B0515033156059S11700246EA0085100905000000000000
B0515073155990S11700285EA0085300903000000000000
B0515113155933S11700341EA0084900899000000000000
B0515153155889S11700410EA0084800898000000000000
B0515193155862S11700487EA0084900901000000000000
B0515233155892S11700531EA0085800909000000000000
B0515273155924S11700489EA0086000910000000000000
B0515313155894S11700419EA0085900911000000015000
B0515353155823S11700426EA0086500920000000015000
B0515393155799S11700492EA0086700913000000015000
B0515433155836S11700533EA0086200912000000015000
B0515473155881S11700501EA0086000914000000015000
B0515513155883S11700428EA0086800925000000015000
B0515553155820S11700383EA0087200923000000015000
B0515593155754S11700418EA0087800935000000015000
B0516033155747S11700491EA0088200934000000015000
B0516073155793S11700522EA0088400937000000015000
B0516113155829S11700478EA0089200949000000015000
B0516153155788S11700420EA0090400960000000015000
B0516193155723S11700441EA0091000966000000015000
B0516233155712S11700505EA0091300964000000015000
B0516273155755S11700522EA0091000964000000015000
B0516313155788S11700474EA0091500975000000015000
B0516353155750S11700416EA0092800988000000015000
B0516393155680S11700419EA0093600992000000015000
B0516433155645S11700481EA0093800990000000015000
B0516473155673S11700532EA0093800994000000015000
B0516513155721S11700524EA0094401003000000015000
B0516553155716S11700461EA0095401011000000015000
B0516593155645S11700454EA0096101021000000015000
B0517033155625S11700518EA0097301031000000015000
B0517073155669S11700536EA0097501029000000015000
B0517113155689S11700476EA0098301043000000015000
B0517153155646S11700415EA0099101051000000015000
B0517193155574S11700423EA0100201061000000015000
B0517233155534S11700483EA0100401058000000015000
B0517273155556S11700544EA0100101053000000015000
B0517313155611S11700557EA0099601051000000015000
B0517353155667S11700536EA0099801059000000015000
B0517393155663S11700461EA0101601078000000015000
B0517433155594S11700455EA0102901092000000015000
B0517473155572S11700520EA0103701093000000015000
B0517513155608S11700562EA0103901095000000015000
B0517553155660S11700540EA0104101101000000015000
B0517593155664S11700466EA0105801125000000015000
B0518033155603S11700419EA0107001126000000015000
B0518073155539S11700463EA0106801122000000015000
B0518113155554S11700535EA0107301134000000015000
B0518153155610S11700539EA0108301141000000015000
B0518193155654S11700485EA0109201153000000015000
B0518233155597S11700441EA0110901167000000015000
B0518273155574S11700507EA0112001178000000015000
B0518313155632S11700506EA0112901186000000015000
B0518353155632S11700422EA0114501209000000015000
B0518393155565S11700383EA0116001225000000015000
B0518433155507S11700420EA0116901225000000015000
B0518473155516S11700483EA0117101236000000015000
B0518513155564S11700470EA0118501248000000015000
B0518553155563S11700397EA0119701265000000015000
B0518593155498S11700376EA0121201275000000015000
B0519033155451S11700423EA0121601275000000015000
B0519073155467S11700479EA0122101285000000015000
B0519113155511S11700452EA0122801291000000015000
B0519153155502S11700375EA0123501302000000015000
B0519193155442S11700333EA0124501306000000015000
B0519233155389S11700379EA0124301301000000015000
B0519273155403S11700441EA0124501313000000015000
B0519313155450S11700459EA0125801325000000015000
B0519353155487S11700414EA0126501330000000015000
B0519393155486S11700336EA0127201336000000015000
B0519433155425S11700301EA0127701338000000015000
B0519473155378S11700354EA0127501335000000015000
B0519513155399S11700418EA0127801339000000015000
B0519553155456S11700423EA0128301354000000015000
B0519593155482S11700357EA0130001370000000015000
B0520033155437S11700294EA0130701369000000015000
B0520073155369S11700318EA0130501368000000015000
B0520113155352S11700387EA0130701372000000015000
B0520153155382S11700440EA0131301378000000015000
B0520193155437S11700444EA0132401393000000015000
B0520233155476S11700388EA0133501403000000015000
B0520273155450S11700314EA0134401411000000015000
B0520313155379S11700305EA0134301405000000015000
B0520353155344S11700370EA0134101410000000015000
B0520393155379S11700419EA0135501430000000015000
B0520433155430S11700389EA0137101437000000015000
B0520473155429S11700311EA0137801448000000015000
B0520513155373S11700262EA0138401446000000015000
B0520553155304S11700285EA0137801444000000015000
B0520593155259S11700350EA0137601443000000015000
B0521033155209S11700419EA0137101432000000015000
B0521073155148S11700487EA0134901410000000000000
B0521113155078S11700554EA0134301408000000000000
B0521153155006S11700619EA0134301408000000000000
B0521193154940S11700684EA0135701426000000000000
B0521233154887S11700754EA0136501433000000000000
B0521273154830S11700825EA0136701434000000000000
B0521313154771S11700895EA0136801432000000000000
B0521353154707S11700966EA0137201442000000000000
B0521393154650S11701039EA0137901449000000000000
B0521433154606S11701116EA0139001456000000000000
B0521473154611S11701196EA0139101454000000000000
B0521513154619S11701280EA0138001439000000000000
B0521553154607S11701371EA0136401423000000000000
B0521593154576S11701463EA0135301416000000000000
B0522033154538S11701553EA0134801408000000000000
B0522073154490S11701637EA0133901397000000000000
B0522113154432S11701718EA0132201376000000000000
B0522153154364S11701796EA0130701367000000000000
B0522193154290S11701866EA0130001359000000000000
B0522233154216S11701935EA0129601359000000000000
B0522273154139S11702001EA0129101349000000000000
B0522313154060S11702061EA0128401346000000000000
B0522353153985S11702122EA0128601347000000000000
B0522393153912S11702186EA0128001339000000000000
B0522433153840S11702252EA0127501335000000000000
B0522473153766S11702321EA0126501320000000000000
B0522513153692S11702395EA0125101310000000000000
B0522553153617S11702468EA0124001300000000000000
B0522593153543S11702541EA0123601297000000000000
B0523033153475S11702616EA0123301296000000000000
B0523073153419S11702694EA0123301296000000000000
B0523113153362S11702768EA0123401298000000000000
B0523153153302S11702838EA0123601300000000000000
B0523193153241S11702903EA0123801302000000000000
B0523233153184S11702972EA0123801300000000000000
B0523273153121S11703040EA0123501296000000000000
B0523313153059S11703105EA0123701302000000000000
B0523353152997S11703166EA0123201290000000000000
B0523393152929S11703227EA0121401269000000000000
B0523433152860S11703293EA0120401264000000000000
B0523473152792S11703358EA0120201261000000000000
B0523513152729S11703426EA0119701255000000000000
B0523553152664S11703491EA0118801245000000000000
B0523593152599S11703561EA0117401229000000000000
B0524033152530S11703635EA0116001216000000000000
B0524073152456S11703705EA0114901207000000000000
B0524113152379S11703773EA0114301202000000000000
B0524153152304S11703837EA0113701193000000000000
B0524193152230S11703900EA0113101191000000000000
B0524233152162S11703963EA0113201186000000000000
B0524273152098S11704029EA0112201175000000000000
B0524313152036S11704097EA0111401166000000000000
B0524353151976S11704170EA0110401157000000000000
B0524393151920S11704244EA0110501160000000000000
B0524433151885S11704326EA0110401160000000000000
B0524473151868S11704407EA0111201167000000000000
B0524513151894S11704471EA0111401167000000000000
B0524553151940S11704514EA0110701157000000000000
B0524593151994S11704524EA0110101153000000000000
B0525033152042S11704491EA0109801147000000000000
B0525073152066S11704423EA0108901139000000000000
B0525113152050S11704344EA0108401140000000015000
B0525153152019S11704267EA0108401141000000000000
B0525193151985S11704189EA0107901134000000000000
B0525233151946S11704110EA0106901120000000000000
B0525273151884S11704042EA0105501111000000000000
B0525313151810S11703990EA0104601100000000000000
B0525353151730S11703943EA0103601087000000000000
B0525393151642S11703912EA0102701080000000000000
B0525433151550S11703903EA0102301080000000000000
B0525473151499S11703962EA0104401111000000000000
B0525513151541S11703984EA0107301137000000000000
B0525553151551S11703925EA0108901145000000015000
B0525593151491S11703878EA0109401157000000015000
B0526033151447S11703928EA0111501179000000015000
B0526073151482S11703964EA0113201197000000015000
B0526113151505S11703919EA0115201215000000015000
B0526153151464S11703863EA0116301225000000015000
B0526193151398S11703880EA0117501240000000015000
B0526233151399S11703945EA0119201255000000015000
B0526273151447S11703942EA0120501267000000015000
B0526313151442S11703876EA0121401276000000015000
B0526353151378S11703848EA0122401291000000015000
B0526393151360S11703910EA0123701298000000015000
B0526433151411S11703919EA0124801315000000015000
B0526473151412S11703850EA0126301325000000015000
B0526513151346S11703826EA0127101340000000015000
B0526553151326S11703886EA0129001356000000015000
B0526593151373S11703903EA0130301369000000015000
B0527033151395S11703851EA0131501379000000015000
B0527073151357S11703798EA0131901382000000015000
B0527113151292S11703800EA0132901401000000015000
B0527153151274S11703861EA0134501414000000015000
B0527193151321S11703884EA0135501421000000015000
B0527233151342S11703830EA0135901423000000015000
B0527273151290S11703787EA0136501436000000015000
B0527313151243S11703829EA0137901445000000015000
B0527353151271S11703881EA0138601449000000015000
B0527393151317S11703851EA0139101456000000015000
B0527433151320S11703783EA0139201458000000015000
B0527473151273S11703734EA0139601467000000015000
B0527513151209S11703726EA0140301473000000015000
B0527553151140S11703741EA0140701477000000015000
B0527593151099S11703806EA0141501484000000015000
B0528033151131S11703859EA0142401490000000015000
B0528073151171S11703812EA0142501492000000015000
B0528113151130S11703751EA0143201505000000015000
B0528153151069S11703774EA0144501516000000015000
B0528193151073S11703842EA0145101514000000015000
B0528233151128S11703842EA0145101522000000015000
B0528273151153S11703778EA0145501521000000015000
B0528313151119S11703716EA0145601527000000015000
B0528353151052S11703716EA0146001530000000015000
B0528393150996S11703764EA0146701536000000015000
B0528433150943S11703822EA0146801537000000015000
B0528473150884S11703882EA0146801531000000015000
B0528513150815S11703941EA0145601520000000015000
B0528553150742S11704001EA0144401506000000000000
B0528593150664S11704062EA0142901491000000000000
B0529033150588S11704123EA0141801481000000000000
B0529073150511S11704186EA0141101474000000000000
B0529113150438S11704253EA0140401465000000000000
B0529153150363S11704316EA0139601457000000000000
B0529193150283S11704375EA0139001452000000000000
B0529233150208S11704436EA0138901450000000000000
B0529273150131S11704497EA0138701446000000000000
B0529313150059S11704560EA0138201442000000000000
B0529353149986S11704626EA0138401448000000000000
B0529393149910S11704686EA0139201453000000000000
B0529433149835S11704745EA0138701446000000000000
B0529473149761S11704808EA0138401445000000000000
B0529513149688S11704870EA0138601446000000000000
B0529553149614S11704933EA0138201441000000000000
B0529593149540S11704994EA0137801438000000000000
B0530033149464S11705054EA0137501432000000000000
B0530073149389S11705111EA0136701424000000000000
B0530113149314S11705168EA0136101416000000000000
B0530153149241S11705228EA0134801400000000000000
B0530193149165S11705288EA0133001383000000000000
B0530233149086S11705346EA0132101381000000000000
B0530273149004S11705398EA0132901392000000000000
B0530313148926S11705449EA0134401407000000000000
B0530353148894S11705520EA0135601425000000000000
B0530393148937S11705557EA0136701428000000000000
B0530433148978S11705511EA0137101437000000015000
B0530473148983S11705437EA0138001447000000015000
B0530513148941S11705376EA0138401444000000015000
B0530553148868S11705364EA0137801439000000015000
B0530593148798S11705398EA0137301438000000015000
B0531033148733S11705441EA0137301436000000015000
B0531073148670S11705493EA0137101432000000015000
B0531113148608S11705549EA0136201424000000015000
B0531153148548S11705614EA0136001422000000015000
B0531193148487S11705681EA0136001425000000000000
B0531233148428S11705753EA0136001423000000000000
B0531273148369S11705824EA0135701420000000000000
B0531313148310S11705899EA0135801421000000000000
B0531353148250S11705977EA0135201414000000000000
B0531393148187S11706056EA0134501406000000000000
B0531433148118S11706134EA0133501396000000000000
B0531473148049S11706214EA0132701385000000000000
B0531513147976S11706292EA0131901377000000000000
B0531553147902S11706370EA0131601375000000000000
B0531593147830S11706446EA0131201369000000000000
B0532033147763S11706525EA0130001355000000000000
B0532073147691S11706602EA0128601343000000000000
B0532113147607S11706666EA0127201327000000000000
B0532153147511S11706714EA0125401309000000000000
B0532193147412S11706757EA0124801308000000000000
B0532233147317S11706798EA0125501319000000000000
B0532273147247S11706861EA0127301339000000000000
B0532313147192S11706929EA0128101344000000000000
B0532353147127S11706988EA0128401342000000000000
B0532393147053S11707043EA0127501332000000000000
B0532433146976S11707104EA0126401324000000000000
B0532473146896S11707158EA0126801338000000000000
B0532513146812S11707178EA0128701350000000000000
B0532553146724S11707176EA0128101332000000000000
B0532593146641S11707218EA0126101315000000000000
B0533033146558S11707273EA0124401297000000000000
B0533073146476S11707336EA0122701281000000000000
B0533113146387S11707399EA0121801271000000000000
B0533153146300S11707462EA0121701276000000000000
B0533193146214S11707524EA0122001276000000000000
B0533233146130S11707582EA0121601272000000000000
B0533273146045S11707638EA0121201269000000000000
B0533313145961S11707689EA0120801263000000000000
B0533353145874S11707738EA0119501249000000000000
B0533393145785S11707787EA0117801230000000000000
B0533433145694S11707836EA0116701217000000000000
B0533473145602S11707884EA0115401206000000000000
B0533513145509S11707933EA0114101188000000000000
B0533553145411S11707980EA0112201170000000000000
B0533593145311S11708027EA0110901161000000000000
B0534033145211S11708071EA0109801148000000000000
B0534073145109S11708116EA0108601138000000000000
B0534113145008S11708159EA0107501126000000000000
B0534153144905S11708202EA0106701111000000000000
B0534193144803S11708244EA0105701102000000000000
B0534233144701S11708283EA0105001091000000000000
B0534273144602S11708323EA0104001082000000000000
B0534313144506S11708363EA0103101070000000000000
B0534353144409S11708401EA0102101061000000000000
B0534393144313S11708440EA0101201055000000000000
B0534433144218S11708478EA0100601046000000000000
B0534473144121S11708519EA0099501035000000000000
B0534513144028S11708567EA0098601035000000000000
B0534553143933S11708612EA0098601039000000000000
B0534593143838S11708635EA0099301040000000000000
B0535033143746S11708658EA0098901035000000000000
B0535073143659S11708697EA0098401035000000000000
B0535113143585S11708752EA0099101043000000000000
B0535153143538S11708830EA0099901054000000000000
B0535193143536S11708905EA0101601075000000000000
B0535233143579S11708892EA0103601085000000015000
B0535273143553S11708826EA0103801089000000015000
B0535313143481S11708827EA0104401099000000015000
B0535353143460S11708892EA0105801113000000015000
B0535393143509S11708896EA0106801127000000015000
B0535433143505S11708831EA0108001133000000015000
B0535473143432S11708822EA0107901132000000015000
B0535513143413S11708895EA0109201156000000015000
B0535553143458S11708904EA0111301173000000015000
B0535593143445S11708842EA0112401180000000015000
B0536033143375S11708846EA0113101192000000015000
B0536073143365S11708911EA0114801207000000015000
B0536113143413S11708921EA0115201207000000015000
B0536153143419S11708851EA0115701216000000015000
B0536193143356S11708807EA0116501226000000015000
B0536233143283S11708830EA0117501236000000015000
B0536273143273S11708902EA0118801248000000015000
B0536313143321S11708898EA0119701260000000015000
B0536353143327S11708830EA0120701265000000015000
B0536393143262S11708790EA0121601276000000015000
B0536433143206S11708835EA0122601286000000015000
B0536473143235S11708891EA0122901284000000015000
B0536513143284S11708856EA0123601301000000015000
B0536553143266S11708787EA0125801324000000015000
B0536593143198S11708778EA0126701333000000015000
B0537033143174S11708837EA0128001350000000015000
B0537073143215S11708855EA0128901353000000015000
B0537113143230S11708794EA0129901370000000015000
B0537153143174S11708755EA0131301376000000015000
B0537193143123S11708804EA0131701383000000015000
B0537233143148S11708855EA0132901395000000015000
B0537273143192S11708827EA0133501404000000015000
B0537313143172S11708761EA0134801415000000015000
B0537353143102S11708749EA0135601425000000015000
B0537393143061S11708804EA0137001438000000015000
B0537433143083S11708856EA0137601440000000015000
B0537473143131S11708844EA0137901446000000015000
B0537513143148S11708781EA0138701452000000015000
B0537553143106S11708717EA0139001456000000015000
B0537593143033S11708720EA0139501462000000015000
B0538033143010S11708787EA0140501474000000015000
B0538073143053S11708812EA0141201479000000015000
B0538113143084S11708756EA0141701487000000015000
B0538153143049S11708691EA0142701497000000015000
B0538193142976S11708690EA0143101498000000015000
B0538233142929S11708755EA0143601507000000015000
B0538273142942S11708812EA0144801518000000015000
B0538313142989S11708820EA0144901515000000015000
B0538353143027S11708766EA0144901518000000015000
B0538393143010S11708691EA0145501527000000015000
B0538433142948S11708645EA0146101534000000015000
B0538473142875S11708661EA0146701534000000015000
B0538513142840S11708733EA0146301530000000015000
B0538553142868S11708792EA0146401531000000015000
B0538593142923S11708779EA0146201533000000015000
B0539033142959S11708718EA0146401536000000015000
B0539073142958S11708640EA0147201541000000015000
B0539113142906S11708574EA0147001537000000015000
B0539153142828S11708552EA0146201524000000015000
B0539193142749S11708580EA0145101520000000015000
B0539233142677S11708632EA0144601512000000000000
B0539273142604S11708691EA0143101495000000000000
B0539313142529S11708752EA0141901482000000000000
B0539353142454S11708812EA0141401483000000000000
B0539393142379S11708870EA0141501481000000000000
B0539433142305S11708929EA0141101473000000000000
B0539473142227S11708990EA0140401468000000000000
B0539513142145S11709048EA0140301471000000000000
B0539553142066S11709108EA0140601472000000000000
B0539593141989S11709168EA0141101477000000000000
B0540033141911S11709223EA0141201476000000000000
B0540073141833S11709279EA0140501466000000000000
B0540113141753S11709334EA0139001449000000000000
B0540153141671S11709393EA0138001441000000000000
B0540193141590S11709454EA0137101428000000000000
B0540233141511S11709515EA0136201424000000000000
B0540273141429S11709572EA0136201425000000000000
B0540313141350S11709624EA0136201419000000000000
B0540353141272S11709680EA0135201411000000000000
B0540393141196S11709731EA0135101411000000000000
B0540433141121S11709782EA0134801408000000000000
B0540473141048S11709835EA0134501406000000000000
B0540513140973S11709884EA0134601407000000000000
B0540553140897S11709931EA0134001395000000000000
B0540593140817S11709978EA0132701381000000000000
B0541033140740S11710030EA0131301370000000000000
B0541073140666S11710082EA0130701366000000000000
B0541113140597S11710137EA0130801369000000000000
B0541153140539S11710198EA0131501380000000000000
B0541193140481S11710257EA0131601376000000000000
B0541233140419S11710313EA0130501358000000000000
B0541273140346S11710365EA0128901345000000000000
B0541313140268S11710413EA0127701333000000000000
B0541353140189S11710462EA0126501320000000000000
B0541393140110S11710511EA0125201306000000000000
B0541433140028S11710559EA0123701292000000000000
B0541473139942S11710595EA0123101285000000000000
B0541513139854S11710608EA0122601285000000000000
B0541553139770S11710605EA0122401279000000000000
B0541593139686S11710594EA0121101262000000000000
B0542033139600S11710594EA0119301244000000000000
B0542073139514S11710607EA0118001232000000000000
B0542113139427S11710628EA0116001210000000000000
B0542153139339S11710655EA0114301195000000000000
B0542193139266S11710711EA0114801211000000000000
B0542233139206S11710774EA0116701230000000000000
B0542273139192S11710845EA0118001238000000000000
B0542313139243S11710845EA0118701248000000000000
B0542353139261S11710774EA0119101248000000015000
B0542393139232S11710696EA0119101252000000015000
B0542433139191S11710624EA0119801259000000000000
B0542473139128S11710586EA0120501265000000000000
B0542513139062S11710612EA0120301260000000015000
B0542553139007S11710670EA0120101259000000000000
B0542593138957S11710732EA0120201263000000000000
B0543033138908S11710796EA0119901256000000000000
B0543073138856S11710862EA0119001246000000000000
B0543113138799S11710930EA0118801247000000000000
B0543153138752S11711001EA0119801261000000000000
B0543193138776S11711065EA0121001266000000000000
B0543233138833S11711048EA0120501258000000000000
B0543273138859S11710967EA0120401266000000015000
B0543313138845S11710880EA0121901286000000000000
B0543353138784S11710840EA0123701299000000015000
B0543393138726S11710881EA0123701297000000015000
B0543433138742S11710941EA0124201303000000015000
B0543473138791S11710907EA0124301302000000015000
B0543513138768S11710828EA0125101321000000015000
B0543553138699S11710801EA0126501327000000015000
B0543593138638S11710839EA0126501326000000015000
B0544033138629S11710909EA0126801331000000015000
B0544073138668S11710952EA0127001331000000015000
B0544113138721S11710932EA0126901334000000015000
B0544153138762S11710876EA0127301339000000015000
B0544193138772S11710802EA0128501353000000015000
B0544233138717S11710749EA0128901345000000015000
B0544273138639S11710762EA0127801336000000015000
B0544313138576S11710815EA0127501339000000015000
B0544353138521S11710878EA0128001345000000000000
B0544393138472S11710944EA0127601338000000000000
B0544433138424S11711011EA0127501342000000000000
B0544473138382S11711080EA0128501355000000000000
B0544513138342S11711147EA0129101359000000000000
B0544553138301S11711213EA0129501361000000000000
B0544593138260S11711279EA0129801369000000000000
B0545033138216S11711344EA0130901377000000000000
B0545073138177S11711411EA0132101389000000000000
B0545113138193S11711466EA0133501403000000000000
B0545153138244S11711463EA0133601395000000015000
B0545193138287S11711412EA0133501398000000015000
B0545233138287S11711335EA0134001405000000015000
B0545273138235S11711277EA0134201407000000015000
B0545313138158S11711281EA0134401410000000015000
B0545353138087S11711312EA0135001414000000015000
B0545393138036S11711368EA0136101427000000015000
B0545433138044S11711430EA0136801428000000015000
B0545473138099S11711438EA0136001416000000015000
B0545513138141S11711379EA0135401421000000015000
B0545553138138S11711292EA0136301435000000015000
B0545593138073S11711269EA0138201450000000015000
B0546033138065S11711334EA0138801452000000015000
B0546073138115S11711321EA0139401463000000015000
B0546113138108S11711244EA0140601479000000015000
B0546153138041S11711212EA0141801488000000015000
B0546193137989S11711257EA0142501493000000015000
B0546233137988S11711327EA0142701496000000015000
B0546273138035S11711339EA0143601507000000015000
B0546313138030S11711270EA0144501515000000015000
B0546353137957S11711260EA0145301523000000015000
B0546393137923S11711321EA0146001531000000015000
B0546433137962S11711362EA0146401528000000015000
B0546473138005S11711317EA0146101534000000015000
B0546513137989S11711235EA0147101544000000015000
B0546553137928S11711173EA0147401546000000015000
B0546593137846S11711165EA0147601549000000015000
B0547033137796S11711227EA0148201553000000015000
B0547073137771S11711310EA0147501537000000015000
B0547113137748S11711401EA0145901521000000000000
B0547153137720S11711498EA0144401508000000000000
B0547193137692S11711594EA0143701505000000000000
B0547233137658S11711686EA0143501504000000000000
B0547273137623S11711776EA0143301496000000000000
B0547313137589S11711869EA0142301486000000000000
B0547353137562S11711966EA0141501480000000000000
B0547393137538S11712063EA0140901474000000000000
B0547433137514S11712161EA0140401471000000000000
B0547473137490S11712257EA0140101468000000000000
B0547513137463S11712352EA0140301469000000000000
B0547553137429S11712441EA0140401473000000000000
B0547593137394S11712527EA0140401469000000000000
B0548033137359S11712613EA0140101467000000000000
B0548073137326S11712696EA0140101466000000000000
B0548113137307S11712783EA0139601462000000000000
B0548153137293S11712869EA0139001456000000000000
B0548193137278S11712955EA0138401449000000000000
B0548233137277S11713039EA0137601441000000000000
B0548273137298S11713116EA0136601428000000000000
B0548313137345S11713173EA0135801423000000000000
B0548353137404S11713211EA0135801428000000000000
B0548393137467S11713241EA0136001424000000000000
B0548433137534S11713266EA0135001413000000000000
B0548473137605S11713294EA0133701396000000000000
B0548513137676S11713327EA0132101381000000000000
B0548553137751S11713362EA0130501363000000000000
B0548593137829S11713405EA0128801351000000000000
B0549033137907S11713444EA0128201346000000000000
B0549073137983S11713485EA0127701335000000000000
B0549113138056S11713539EA0126301320000000000000
B0549153138128S11713592EA0125201313000000000000
B0549193138204S11713632EA0125801317000000000000
B0549233138278S11713658EA0126101321000000000000
B0549273138351S11713678EA0125701313000000000000
B0549313138422S11713704EA0125001305000000000000
B0549353138492S11713726EA0124301299000000000000
B0549393138560S11713744EA0123501290000000000000
B0549433138632S11713764EA0122301272000000000000
B0549473138706S11713775EA0119701250000000000000
B0549513138781S11713795EA0118101235000000000000
B0549553138856S11713808EA0116701226000000000000
B0549593138933S11713816EA0116001213000000000000
B0550033139012S11713818EA0114901206000000000000
B0550073139085S11713839EA0116001224000000000000
B0550113139146S11713866EA0117801243000000000000
B0550153139206S11713884EA0118301245000000000000
B0550193139271S11713897EA0118101237000000000000
B0550233139336S11713914EA0117501233000000000000
B0550273139400S11713940EA0117201229000000000000
B0550313139465S11713938EA0117201229000000000000
B0550353139529S11713939EA0116701226000000000000
B0550393139588S11713972EA0116401220000000000000
B0550433139642S11714034EA0115501205000000000000
B0550473139696S11714095EA0114601200000000000000
B0550513139759S11714137EA0113801192000000000000
B0550553139822S11714169EA0113301188000000000000
B0550593139891S11714176EA0112501174000000000000
B0551033139958S11714138EA0110901158000000000000
B0551073140017S11714082EA0108801134000000000000
B0551113140073S11714009EA0106801119000000000000
B0551153140128S11713935EA0106001115000000000000
B0551193140180S11713857EA0105301107000000000000
B0551233140228S11713775EA0104501096000000000000
B0551273140270S11713688EA0104001096000000000000
B0551313140312S11713606EA0103901089000000000000
B0551353140367S11713533EA0102801077000000000000
B0551393140420S11713455EA0101801071000000000000
B0551433140472S11713384EA0101601066000000000000
B0551473140523S11713319EA0100801057000000000000
B0551513140579S11713259EA0099701045000000000000
B0551553140640S11713207EA0098001026000000000000
B0551593140699S11713154EA0096901019000000000000
B0552033140752S11713095EA0096301010000000000000
B0552073140793S11713025EA0095601002000000000000
B0552113140783S11712938EA0095701010000000000000
B0552153140713S11712894EA0095701002000000000000
B0552193140632S11712916EA0094600994000000000000
B0552233140563S11712965EA0094500995000000000000
B0552273140502S11713025EA0094500992000000000000
B0552313140450S11713093EA0093400981000000000000
B0552353140403S11713166EA0092100968000000000000
B0552393140361S11713242EA0090600953000000000000
B0552433140322S11713322EA0089800942000000000000
B0552473140280S11713401EA0088700929000000000000
B0552513140240S11713480EA0087600923000000000000
B0552553140202S11713554EA0087400922000000000000
B0552593140168S11713627EA0087000918000000000000
B0553033140137S11713701EA0086700915000000000000
B0553073140110S11713777EA0086600915000000000000
B0553113140090S11713856EA0086100905000000000000
B0553153140075S11713936EA0085000889000000000000
B0553193140052S11714020EA0083300874000000000000
B0553233140017S11714100EA0081700856000000000000
B0553273139968S11714173EA0079900840000000000000
B0553313139911S11714238EA0078700828000000000000
B0553353139844S11714297EA0077500816000000000000
B0553393139769S11714342EA0076500810000000000000
B0553433139688S11714382EA0076300808000000000000
B0553473139612S11714429EA0076500811000000000000
B0553513139577S11714506EA0077200825000000000000
B0553553139614S11714541EA0078800840000000015000
B0553593139631S11714481EA0079700844000000015000
B0554033139574S11714437EA0079500837000000015000
B0554073139514S11714472EA0079200840000000015000
B0554113139516S11714537EA0079500846000000030000
B0554153139565S11714545EA0079400847000000060000
B0554193139609S11714498EA0079700850000000060000
B0554233139599S11714423EA0080300852000000045000
B0554273139535S11714380EA0079700845000000030000
B0554313139465S11714407EA0079400843000000015000
B0554353139425S11714475EA0079400839000000015000
B0554393139405S11714553EA0079500840000000015000
B0554433139439S11714611EA0079600839000000015000
B0554473139500S11714618EA0079700845000000015000
B0554513139519S11714553EA0080800861000000015000
B0554553139462S11714514EA0081700866000000015000
B0554593139408S11714554EA0082000865000000015000
B0555033139413S11714620EA0082000868000000015000
B0555073139464S11714638EA0082500874000000015000
B0555113139478S11714575EA0083500887000000015000
B0555153139419S11714541EA0083800886000000015000
B0555193139370S11714590EA0083500885000000030000
B0555233139384S11714657EA0084300899000000030000
B0555273139434S11714651EA0086000914000000015000
B0555313139415S11714581EA0087000920000000015000
B0555353139353S11714596EA0087500924000000015000
B0555393139358S11714662EA0087400919000000015000
B0555433139415S11714644EA0087900934000000015000
B0555473139414S11714559EA0089400948000000015000
B0555513139349S11714527EA0091000965000000015000
B0555553139304S11714577EA0091500961000000015000
B0555593139327S11714637EA0091500968000000015000
B0556023139369S11714623EA0092300980000000015000
B0556073139349S11714534EA0093400991000000015000
B0556113139297S11714568EA0094500998000000015000
B0556153139330S11714610EA0094600999000000015000
B0556193139376S11714568EA0095301016000000015000
B0556233139357S11714492EA0097001034000000015000
B0556273139288S11714489EA0098501040000000015000
B0556313139271S11714557EA0098801049000000015000
B0556353139315S11714592EA0099801056000000015000
B0556393139358S11714542EA0100801071000000015000
B0556433139296S11714502EA0101901077000000015000
B0556473139266S11714570EA0102601088000000015000
B0556513139317S11714599EA0103901101000000015000
B0556553139348S11714537EA0105301121000000015000
B0556593139296S11714480EA0107001135000000015000
B0557033139235S11714510EA0108401152000000015000
B0557073139237S11714570EA0110001166000000015000
B0557113139285S11714577EA0110901172000000015000
B0557153139304S11714514EA0112601197000000015000
B0557193139254S11714462EA0114301211000000015000
B0557233139196S11714484EA0115901225000000015000
B0557273139189S11714545EA0116601231000000015000
B0557313139237S11714563EA0117401237000000015000
B0557353139259S11714503EA0119001260000000015000
B0557393139213S11714446EA0120301271000000015000
B0557433139152S11714469EA0121501285000000015000
B0557473139159S11714531EA0122701292000000015000
B0557513139207S11714512EA0123701304000000015000
B0557553139181S11714442EA0124801320000000015000
B0557593139123S11714466EA0126501336000000015000
B0558033139140S11714520EA0127001336000000015000
B0558073139189S11714497EA0127601346000000015000
B0558113139184S11714419EA0128301355000000015000
B0558153139124S11714376EA0129801377000000015000
B0558193139074S11714414EA0131901392000000015000
B0558233139084S11714472EA0133101403000000015000
B0558273139132S11714468EA0134201416000000015000
B0558313139145S11714404EA0135701431000000015000
B0558353139103S11714345EA0136501438000000015000
B0558393139037S11714350EA0137901459000000015000
B0558433139006S11714410EA0139301464000000015000
B0558473139048S11714445EA0139801470000000015000
B0558513139075S11714386EA0140901484000000015000
B0558553139029S11714333EA0142101495000000015000
B0558593138971S11714364EA0143301508000000015000
B0559033138962S11714430EA0144201515000000015000
B0559073139007S11714455EA0145001525000000015000
B0559113139035S11714401EA0145901532000000015000
B0559153138996S11714338EA0146301540000000015000
B0559193138936S11714359EA0148001557000000015000
B0559233138924S11714425EA0148601560000000000000
B0559273138966S11714459EA0149201569000000015000
B0559313139003S11714412EA0150001575000000015000
B0559353138977S11714343EA0150501582000000015000
B0559393138915S11714350EA0151601594000000015000
B0559433138897S11714417EA0152101593000000015000
B0559473138942S11714451EA0152501600000000015000
B0559513138985S11714404EA0152801601000000015000
B0559553138966S11714326EA0153201611000000015000
B0559593138903S11714289EA0154401623000000015000
B0600033138862S11714339EA0155501627000000015000
B0600073138897S11714389EA0155501629000000015000
B0600113138942S11714346EA0155901633000000015000
B0600153138928S11714267EA0156101638000000015000
B0600193138866S11714238EA0157601655000000015000
B0600233138815S11714277EA0158801664000000015000
B0600273138801S11714347EA0158401656000000000000
B0600313138838S11714407EA0158001654000000000000
B0600353138894S11714446EA0158101661000000000000
B0600393138953S11714473EA0159301677000000000000
B0600433139011S11714494EA0160601686000000000000
B0600473139068S11714516EA0160801684000000000000
B0600513139128S11714540EA0160101672000000000000
B0600553139192S11714564EA0159001661000000000000
B0600593139258S11714585EA0158301656000000000000
B0601033139327S11714611EA0157401646000000000000
B0601073139397S11714641EA0156901641000000000000
B0601113139467S11714671EA0155901629000000000000
B0601153139539S11714705EA0154701618000000000000
B0601193139612S11714744EA0153701603000000000000
B0601233139681S11714798EA0152001587000000000000
B0601273139750S11714856EA0151701583000000000000
B0601313139817S11714914EA0151001570000000000000
B0601353139887S11714976EA0149201554000000000000
B0601393139963S11715032EA0148301546000000000000
B0601433140041S11715078EA0147401536000000000000
B0601473140121S11715119EA0146501530000000000000
B0601513140202S11715158EA0146501532000000000000
B0601553140280S11715196EA0146301525000000000000
B0601593140361S11715229EA0145401518000000000000
B0602033140440S11715265EA0144401505000000000000
B0602073140520S11715305EA0143101490000000000000
B0602113140598S11715364EA0141701474000000000000
B0602153140676S11715421EA0141101475000000000000
B0602193140754S11715474EA0141301474000000000000
B0602233140834S11715524EA0141701482000000000000
B0602273140913S11715571EA0142401486000000000000
B0602313140995S11715612EA0141401477000000000000
B0602353141077S11715658EA0140901469000000000000
B0602393141159S11715697EA0140401467000000000000
B0602433141239S11715733EA0139901459000000000000
B0602473141317S11715771EA0138901449000000000000
B0602513141397S11715810EA0138001439000000000000
B0602553141477S11715851EA0136901425000000000000
B0602593141563S11715883EA0135401412000000000000
B0603033141648S11715914EA0134301400000000000000
B0603073141735S11715933EA0133201387000000000000
B0603113141826S11715945EA0131201368000000000000
B0603153141910S11715977EA0130301363000000000000
B0603193141995S11716013EA0129601348000000000000
B0603233142079S11716031EA0128801355000000000000
B0603273142156S11716048EA0129601361000000000000
B0603313142229S11716057EA0129701373000000000000
B0603353142296S11716066EA0130301372000000000000
B0603393142365S11716084EA0129801364000000000000
B0603433142438S11716104EA0129001359000000000000
B0603473142513S11716124EA0129201361000000000000
B0603513142586S11716150EA0129301362000000000000
B0603553142656S11716172EA0130001374000000000000
B0603593142721S11716188EA0131001378000000000000
B0604033142788S11716209EA0131001369000000000000
B0604073142855S11716236EA0129601360000000000000
B0604113142924S11716263EA0128901354000000000000
B0604153142996S11716295EA0128301349000000000000
B0604193143070S11716322EA0127901347000000000000
B0604233143140S11716347EA0127801347000000000000
B0604273143211S11716375EA0127701342000000000000
B0604313143284S11716403EA0127401342000000000000
B0604353143352S11716431EA0127701349000000000000
B0604393143417S11716460EA0127501337000000000000
B0604433143484S11716492EA0126701327000000000000
B0604473143553S11716526EA0125701316000000000000
B0604513143622S11716564EA0124501303000000000000
B0604553143692S11716603EA0123501292000000000000
B0604593143763S11716651EA0121901273000000000000
B0605033143838S11716687EA0120701268000000000000
B0605073143913S11716708EA0121101280000000000000
B0605113143985S11716729EA0122601294000000000000
B0605153144053S11716738EA0123301295000000000000
B0605193144116S11716751EA0123101290000000000000
B0605233144183S11716764EA0122101277000000000000
B0605273144251S11716778EA0121001270000000000000
B0605313144323S11716796EA0119701254000000000000
B0605353144393S11716828EA0118501245000000000000
B0605393144462S11716865EA0118001241000000000000
B0605433144526S11716898EA0118301246000000000000
B0605473144586S11716926EA0119401252000000000000
B0605513144647S11716949EA0119801258000000000000
B0605553144687S11716902EA0121701283000000000000
B0605593144632S11716856EA0123501300000000000000
B0606033144584S11716903EA0124601304000000015000
B0606073144602S11716964EA0124201298000000000000
B0606113144657S11716964EA0125001321000000000000
B0606153144657S11716891EA0127501349000000015000
B0606193144589S11716868EA0129501367000000015000
B0606233144552S11716923EA0130601369000000015000
B0606273144587S11716969EA0131001379000000015000
B0606313144638S11716947EA0132301392000000015000
B0606353144638S11716872EA0133801411000000015000
B0606393144575S11716842EA0135901430000000015000
B0606433144537S11716897EA0136901439000000015000
B0606473144569S11716942EA0138701460000000015000
B0606513144614S11716919EA0139901472000000015000
B0606553144613S11716846EA0140901486000000015000
B0606593144554S11716820EA0142701508000000015000
B0607033144508S11716859EA0144301515000000015000
B0607073144519S11716915EA0145201528000000015000
B0607113144569S11716907EA0146201537000000015000
B0607153144578S11716838EA0147201549000000015000
B0607193144523S11716799EA0148401564000000015000
B0607233144476S11716839EA0150301582000000015000
B0607273144485S11716897EA0151901594000000015000
B0607313144536S11716906EA0152801601000000015000
B0607353144569S11716851EA0153701610000000015000
B0607393144544S11716782EA0154301617000000015000
B0607433144480S11716770EA0155701637000000015000
B0607473144448S11716821EA0157201654000000015000
B0607513144479S11716867EA0158701666000000015000
B0607553144530S11716842EA0159401668000000015000
B0607593144527S11716767EA0159501672000000015000
B0608033144472S11716730EA0160501684000000015000
B0608073144424S11716769EA0161601696000000015000
B0608113144415S11716833EA0163401717000000015000
B0608153144449S11716876EA0165001725000000000000
B0608193144501S11716859EA0165001724000000000000
B0608233144514S11716791EA0165401729000000000000
B0608273144469S11716744EA0165001723000000000000
B0608313144407S11716764EA0164701724000000000000
B0608353144385S11716833EA0165101732000000000000
B0608393144411S11716898EA0165901738000000000000
B0608433144459S11716942EA0166401740000000000000
B0608473144515S11716977EA0166001727000000000000
B0608513144576S11717019EA0163601700000000000000
B0608553144638S11717076EA0160901673000000000000
B0608593144705S11717127EA0159401664000000000000
B0609033144777S11717160EA0159101663000000000000
B0609073144848S11717188EA0159101663000000000000
B0609113144918S11717212EA0159101666000000000000
B0609153144991S11717236EA0159101665000000000000
B0609193145065S11717261EA0158701657000000000000
B0609233145141S11717287EA0157801650000000000000
B0609273145212S11717314EA0157701651000000000000
B0609313145284S11717337EA0157501648000000000000
B0609353145355S11717361EA0157001643000000000000
B0609393145428S11717383EA0156701638000000000000
B0609433145501S11717411EA0156301631000000000000
B0609473145576S11717437EA0155101619000000000000
B0609513145649S11717471EA0154401615000000000000
B0609553145719S11717504EA0154301616000000000000
B0609593145787S11717532EA0154301616000000000000
B0610033145852S11717562EA0154001610000000000000
B0610073145919S11717587EA0153201601000000000000
B0610113145988S11717618EA0152101588000000000000
B0610153146057S11717656EA0151101581000000000000
B0610193146130S11717680EA0152101603000000000000
B0610233146187S11717649EA0155901636000000000000
B0610273146143S11717586EA0157301645000000000000
B0610313146091S11717621EA0157701641000000000000
B0610353146108S11717686EA0157001641000000000000
B0610393146162S11717695EA0158801667000000000000
B0610433146148S11717621EA0160201672000000015000
B0610473146092S11717667EA0160901686000000015000
B0610513146139S11717692EA0162701703000000015000
B0610553146143S11717610EA0163801718000000015000
B0610593146074S11717597EA0166201741000000015000
B0611033146055S11717653EA0167001746000000015000
B0611073146101S11717673EA0167601756000000015000
B0611113146142S11717613EA0168301758000000015000
B0611153146112S11717530EA0168501762000000015000
B0611193146039S11717511EA0168201751000000015000
B0611233145987S11717571EA0167301747000000015000
B0611273145979S11717644EA0167801758000000000000
B0611313146032S11717683EA0168101754000000000000
B0611353146101S11717700EA0167401748000000000000
B0611393146174S11717710EA0168101765000000000000
B0611433146244S11717706EA0169301772000000000000
B0611473146313S11717696EA0168601750000000000000
B0611513146390S11717699EA0166301729000000000000
B0611553146471S11717697EA0165201728000000000000
B0611593146550S11717693EA0165301725000000000000
B0612033146630S11717696EA0163601708000000000000
B0612073146711S11717709EA0161901690000000000000
B0612113146790S11717729EA0161401690000000000000
B0612153146866S11717742EA0161601691000000000000
B0612193146939S11717756EA0161201684000000000000
B0612233147010S11717775EA0160201674000000000000
B0612273147082S11717796EA0159201666000000000000
B0612313147152S11717814EA0158701661000000000000
B0612353147222S11717835EA0158501652000000000000
B0612393147291S11717866EA0157601648000000000000
B0612433147356S11717904EA0157401645000000000000
B0612473147421S11717948EA0157001638000000000000
B0612513147486S11717990EA0157001639000000000000
B0612553147552S11718029EA0156401625000000000000
B0612593147624S11718064EA0155301616000000000000
B0613033147694S11718102EA0155301623000000000000
B0613073147760S11718142EA0155601626000000000000
B0613113147825S11718180EA0155401619000000000000
B0613153147891S11718223EA0154401604000000000000
B0613193147962S11718265EA0152901595000000000000
B0613233148025S11718310EA0153501605000000000000
B0613273148083S11718358EA0154201610000000000000
B0613313148144S11718395EA0154201612000000000000
B0613353148210S11718429EA0154501617000000000000
B0613393148272S11718462EA0155101624000000000000
B0613433148328S11718496EA0155401624000000000000
B0613473148385S11718531EA0154501610000000000000
B0613513148448S11718570EA0152901592000000000000
B0613553148518S11718611EA0151401580000000000000
B0613593148590S11718655EA0150301570000000000000
B0614033148661S11718697EA0149301558000000000000
B0614073148731S11718736EA0148701553000000000000
B0614113148799S11718770EA0149101563000000000000
B0614153148861S11718802EA0149501564000000000000
B0614193148924S11718835EA0149101553000000000000
B0614233148985S11718871EA0147401536000000000000
B0614273149046S11718909EA0146401530000000000000
B0614313149103S11718944EA0146901540000000000000
B0614353149159S11718973EA0146901531000000000000
B0614393149220S11719008EA0145801520000000000000
B0614433149285S11719047EA0145301516000000000000
B0614473149349S11719087EA0145401523000000000000
B0614513149407S11719130EA0146301532000000000000
B0614553149462S11719170EA0147301545000000000000
B0614593149520S11719177EA0148701559000000000000
B0615033149580S11719179EA0148401542000000000000
B0615073149644S11719204EA0146801529000000000000
B0615113149711S11719239EA0146001523000000000000
B0615153149784S11719274EA0146001527000000000000
B0615193149856S11719317EA0146401530000000000000
B0615233149926S11719361EA0146801540000000000000
B0615273149996S11719381EA0147901539000000000000
B0615313150072S11719395EA0146501525000000000000
B0615353150144S11719429EA0145501523000000000000
B0615393150215S11719461EA0145301520000000000000
B0615433150289S11719493EA0144401508000000000000
B0615473150365S11719526EA0142701488000000000000
B0615513150447S11719562EA0141201476000000000000
B0615553150525S11719603EA0140901475000000000000
B0615593150593S11719646EA0141301483000000000000
B0616033150655S11719690EA0142001490000000000000
B0616073150719S11719731EA0142501496000000000000
B0616113150783S11719770EA0143101501000000000000
B0616153150848S11719809EA0142701492000000000000
B0616193150913S11719853EA0141301478000000000000
B0616233150978S11719901EA0140801475000000000000
B0616273151045S11719941EA0140701476000000000000
B0616313151114S11719976EA0140901480000000000000
B0616353151182S11720007EA0141001478000000000000
B0616393151251S11720037EA0140701476000000000000
B0616433151321S11720058EA0140901481000000000000
B0616473151390S11720082EA0141401485000000000000
B0616513151459S11720105EA0141701489000000000000
B0616553151526S11720130EA0141901488000000000000
B0616593151593S11720154EA0141401481000000000000
B0617033151660S11720180EA0140501470000000000000
B0617073151729S11720209EA0139301460000000000000
B0617113151797S11720239EA0138901459000000000000
B0617153151863S11720265EA0139101463000000000000
B0617193151928S11720296EA0139001457000000000000
B0617233151992S11720330EA0138301446000000000000
B0617273152058S11720365EA0136801429000000000000
B0617313152132S11720384EA0136101434000000000000
B0617353152204S11720400EA0137101443000000000000
B0617393152274S11720414EA0137301440000000000000
B0617433152345S11720431EA0136501431000000000000
B0617473152418S11720447EA0135501420000000000000
B0617513152492S11720465EA0134501407000000000000
B0617553152569S11720494EA0133101394000000000000
B0617593152647S11720521EA0132001383000000000000
B0618033152724S11720544EA0131301376000000000000
B0618073152802S11720569EA0130901365000000000000
B0618113152880S11720596EA0129701352000000000000
B0618153152958S11720628EA0128801344000000000000
B0618193153034S11720657EA0127701331000000000000
B0618233153111S11720689EA0125901309000000000000
B0618273153189S11720724EA0124601299000000000000
B0618313153264S11720759EA0124101298000000000000
B0618353153338S11720790EA0124001295000000000000
B0618393153410S11720829EA0123301288000000000000
B0618433153478S11720864EA0122601282000000000000
B0618473153548S11720891EA0122001278000000000000
B0618513153621S11720911EA0121501270000000000000
B0618553153696S11720924EA0120701261000000000000
B0618593153775S11720933EA0119301244000000000000
B0619033153856S11720934EA0118101231000000000000
B0619073153940S11720929EA0116401211000000000000
B0619113154026S11720925EA0114701195000000000000
B0619153154113S11720921EA0113801190000000000000
B0619193154200S11720912EA0112501170000000000000
B0619233154290S11720903EA0110601150000000000000
B0619273154381S11720894EA0109101139000000000000
B0619313154471S11720885EA0108401135000000000000
B0619353154558S11720878EA0107801128000000000000
B0619393154645S11720871EA0107301126000000000000
B0619433154729S11720863EA0107501129000000000000
B0619473154811S11720868EA0107801134000000000000
B0619513154884S11720889EA0107401132000000000000
B0619553154954S11720917EA0106601120000000000000
B0619593155027S11720936EA0105101102000000000000
B0620033155103S11720940EA0103701091000000000000
B0620073155179S11720933EA0102701081000000000000
B0620113155255S11720917EA0102101075000000000000
B0620153155327S11720895EA0101901077000000000000
B0620193155396S11720872EA0102301082000000000000
B0620233155464S11720854EA0102601085000000000000
B0620273155532S11720859EA0103001091000000000000
B0620313155598S11720878EA0103601092000000000000
B0620353155667S11720888EA0103601094000000000000
B0620393155737S11720889EA0104901115000000000000
B0620433155799S11720878EA0106901132000000000000
B0620473155799S11720808EA0108201138000000000000
B0620513155733S11720810EA0107801130000000000000
B0620553155730S11720885EA0106801121000000000000
B0620593155771S11720950EA0106901134000000000000
B0621033155825S11720934EA0108801151000000015000
B0621073155805S11720859EA0108901141000000015000
B0621113155732S11720862EA0108401139000000015000
B0621153155710S11720934EA0107901135000000015000
B0621193155724S11721012EA0107901137000000015000
B0621233155755S11721076EA0108501144000000000000
B0621273155805S11721059EA0109601151000000000000
B0621313155811S11720972EA0109201144000000000000
B0621353155756S11720910EA0109601153000000015000
B0621393155693S11720934EA0110101158000000015000
B0621433155686S11720997EA0109801149000000015000
B0621473155717S11721050EA0109001148000000015000
B0621513155750S11721103EA0109401156000000015000
B0621553155785S11721155EA0110101164000000000000
B0621593155825S11721202EA0111101172000000000000
B0622033155872S11721183EA0112301187000000000000
B0622073155836S11721129EA0113801200000000015000
B0622113155781S11721164EA0114901211000000015000
B0622153155802S11721223EA0116001220000000015000
B0622193155851S11721197EA0116901231000000015000
B0622233155825S11721137EA0118401249000000030000
B0622273155763S11721150EA0119501257000000030000
B0622313155746S11721215EA0120501269000000030000
B0622353155786S11721248EA0122201288000000015000
B0622393155828S11721209EA0123101295000000015000
B0622433155818S11721141EA0124401314000000015000
B0622473155759S11721124EA0126001326000000015000
B0622513155723S11721175EA0127201340000000015000
B0622553155751S11721219EA0128301353000000015000
B0622593155795S11721184EA0128801352000000015000
B0623033155776S11721120EA0129901374000000015000
B0623073155719S11721123EA0131401382000000015000
B0623113155698S11721180EA0132501396000000015000
B0623153155736S11721209EA0133801401000000015000
B0623193155775S11721155EA0133301398000000015000
B0623233155756S11721073EA0134001413000000015000
B0623273155698S11721047EA0135101418000000015000
B0623313155654S11721096EA0135201420000000015000
B0623353155668S11721164EA0135501423000000015000
B0623393155716S11721202EA0136601435000000015000
B0623433155740S11721135EA0137601444000000015000
B0623473155690S11721081EA0138701457000000015000
B0623513155654S11721129EA0139801469000000015000
B0623553155694S11721161EA0140901479000000015000
B0623593155729S11721105EA0141501484000000000000
B0624033155694S11721045EA0143001505000000000000
B0624073155643S11721055EA0144301510000000015000
B0624113155647S11721111EA0143801506000000015000
B0624153155701S11721114EA0144001510000000015000
B0624193155725S11721045EA0144701516000000015000
B0624233155699S11720976EA0145201519000000015000
B0624273155642S11720958EA0144601512000000015000
B0624313155591S11720993EA0144401511000000015000
B0624353155571S11721050EA0144901520000000000000
B0624393155587S11721107EA0145401523000000000000
B0624433155625S11721158EA0145101516000000000000
B0624473155673S11721207EA0144201507000000000000
B0624513155727S11721257EA0143601501000000000000
B0624553155784S11721305EA0142801490000000000000
B0624593155849S11721344EA0142001486000000000000
B0625033155916S11721382EA0140701468000000000000
B0625073155988S11721414EA0139001455000000000000
B0625113156062S11721445EA0137701434000000000000
B0625153156137S11721478EA0135801421000000000000
B0625193156209S11721521EA0134801408000000000000
B0625233156279S11721567EA0133001389000000000000
B0625273156353S11721612EA0131801382000000000000
B0625313156426S11721653EA0131901388000000000000
B0625353156496S11721696EA0132101386000000000000
B0625393156565S11721743EA0130801370000000000000
B0625433156638S11721786EA0130101362000000000000
B0625473156711S11721829EA0129301353000000000000
B0625513156787S11721863EA0128501351000000000000
B0625553156863S11721898EA0128501348000000000000
B0625593156936S11721933EA0128301348000000000000
B0626033157004S11721967EA0128301347000000000000
B0626073157073S11722003EA0127701337000000000000
B0626113157144S11722041EA0126901332000000000000
B0626153157211S11722078EA0126401326000000000000
B0626193157277S11722119EA0125701319000000000000
B0626233157345S11722156EA0125001310000000000000
B0626273157415S11722189EA0123901301000000000000
B0626313157485S11722223EA0123101292000000000000
B0626353157553S11722262EA0122601290000000000000
B0626393157621S11722295EA0122401285000000000000
B0626433157690S11722331EA0121101271000000000000
B0626473157757S11722376EA0120601270000000000000
B0626513157818S11722428EA0121301280000000000000
B0626553157877S11722481EA0121901287000000000000
B0626593157934S11722537EA0121901282000000000000
B0627033157992S11722594EA0121401280000000000000
B0627073158051S11722650EA0121701286000000000000
B0627113158108S11722702EA0122901302000000000000
B0627153158164S11722754EA0124201310000000000000
B0627193158221S11722808EA0125001318000000000000
B0627233158278S11722858EA0125301319000000000000
B0627273158336S11722910EA0125501320000000000000
B0627313158394S11722961EA0125001311000000000000
B0627353158453S11723010EA0124301310000000000000
B0627393158514S11723053EA0124801316000000000000
B0627433158579S11723087EA0125501324000000000000
B0627473158641S11723122EA0126601335000000000000
B0627513158705S11723160EA0127201341000000000000
B0627553158770S11723202EA0128101350000000000000
B0627593158837S11723243EA0128101346000000000000
B0628033158908S11723283EA0127201334000000000000
B0628073158980S11723324EA0127001337000000000000
B0628113159051S11723364EA0127001333000000000000
B0628153159125S11723403EA0126601326000000000000
B0628193159199S11723441EA0125501311000000000000
B0628233159276S11723477EA0124201303000000000000
B0628273159348S11723514EA0123401293000000000000
B0628313159421S11723547EA0121901277000000000000
B0628353159497S11723581EA0120801270000000000000
B0628393159565S11723621EA0120701271000000000000
B0628433159630S11723662EA0120801271000000000000
B0628473159699S11723698EA0120801273000000000000
B0628513159763S11723729EA0122101303000000000000
B0628553159818S11723759EA0124601314000000000000
B0628593159875S11723785EA0125101319000000000000
B0629033159932S11723810EA0125701326000000000000
B0629073159989S11723833EA0126101329000000000000
B0629113200046S11723859EA0126201328000000000000
B0629153200108S11723880EA0125801321000000000000
B0629193200171S11723901EA0125101313000000000000
B0629233200238S11723928EA0124501309000000000000
B0629273200304S11723959EA0124301303000000000000
B0629313200375S11723976EA0123501293000000000000
B0629353200451S11723969EA0122801289000000000000
B0629393200524S11723941EA0122301284000000000000
B0629433200592S11723902EA0121401274000000000000
B0629473200657S11723859EA0121001273000000000000
B0629513200719S11723815EA0121001274000000000000
B0629553200776S11723775EA0120801270000000000000
B0629593200833S11723737EA0120301264000000000000
B0630033200888S11723696EA0120001260000000000000
B0630073200940S11723649EA0119701255000000000000
B0630113200982S11723588EA0118801248000000000000
B0630153201012S11723514EA0118301243000000000000
B0630193201032S11723432EA0117701234000000000000
B0630233201034S11723342EA0116801227000000000000
B0630273201010S11723252EA0116001217000000000000
B0630313200964S11723166EA0115001209000000000000
B0630353200915S11723082EA0114201200000000000000
B0630393200862S11722999EA0113501196000000000000
B0630433200804S11722921EA0112901190000000000000
B0630473200745S11722847EA0112401185000000000000
B0630513200678S11722776EA0112001181000000000000
B0630553200609S11722710EA0111301174000000000000
B0630593200537S11722645EA0110601168000000000000
B0631033200464S11722580EA0110301165000000000000
B0631073200390S11722523EA0110001162000000000000
B0631113200312S11722480EA0109601158000000000000
B0631153200239S11722428EA0109001148000000000000
B0631193200175S11722359EA0107701134000000000000
B0631233200119S11722284EA0107001132000000000000
B0631273200044S11722249EA0106801134000000015000
B0631313159962S11722249EA0108001147000000015000
B0631353159937S11722318EA0109601167000000015000
B0631393159987S11722342EA0110501172000000030000
B0631433200005S11722279EA0111601186000000030000
B0631473159970S11722220EA0112901199000000015000
B0631513159913S11722230EA0113801199000000015000
B0631553159903S11722302EA0112701187000000015000
B0631593159952S11722338EA0113301201000000015000
B0632033200004S11722310EA0114501208000000015000
B0632073200017S11722242EA0114801204000000015000
B0632113159972S11722180EA0114601207000000015000
B0632153159913S11722150EA0115101213000000015000
B0632193159859S11722194EA0114901205000000015000
B0632233159854S11722272EA0114701210000000015000
B0632273159901S11722319EA0115301214000000015000
B0632313159958S11722340EA0116101225000000015000
B0632353200001S11722301EA0116701226000000015000
B0632393200017S11722224EA0115001205000000015000
B0632433200026S11722133EA0113201193000000015000
B0632473200031S11722042EA0112301181000000015000
B0632513200036S11721948EA0110701160000000015000
B0632553200043S11721853EA0108901142000000015000
B0632593200046S11721753EA0107401133000000000000
B0633033200050S11721653EA0106801127000000000000
B0633073200050S11721556EA0106301119000000000000
B0633113200045S11721457EA0106001118000000000000
B0633153200018S11721366EA0107301137000000000000
B0633193159978S11721287EA0109001153000000000000
B0633233159907S11721274EA0110201163000000000000
B0633273159909S11721332EA0111001168000000015000
B0633313159954S11721320EA0111401168000000015000
B0633353159966S11721249EA0112101188000000015000
B0633393159922S11721192EA0113901202000000015000
B0633433159861S11721211EA0115001207000000015000
B0633473159859S11721271EA0115101212000000015000
B0633513159903S11721274EA0116101225000000015000
B0633553159919S11721210EA0117401239000000015000
B0633593159870S11721159EA0118201242000000015000
B0634033159803S11721190EA0118201241000000015000
B0634073159789S11721261EA0118701251000000015000
B0634113159832S11721283EA0119901265000000015000
B0634153159866S11721233EA0121101277000000015000
B0634193159846S11721162EA0122101283000000015000
B0634233159779S11721135EA0122501286000000015000
B0634273159723S11721181EA0123001297000000015000
B0634313159728S11721245EA0123901301000000015000
B0634353159779S11721255EA0124201304000000015000
B0634393159822S11721202EA0124401305000000015000
B0634433159824S11721114EA0124501308000000015000
B0634473159773S11721038EA0124701306000000015000
B0634513159690S11721015EA0124601309000000015000
B0634553159614S11721049EA0125301320000000015000
B0634593159560S11721109EA0126101327000000015000
B0635033159572S11721168EA0126701332000000015000
B0635073159621S11721189EA0126301329000000015000
B0635113159676S11721206EA0125901325000000000000
B0635153159734S11721232EA0125501319000000000000
B0635193159793S11721259EA0125001313000000000000
B0635233159854S11721265EA0124501305000000000000
B0635273159915S11721231EA0123601297000000000000
B0635313159961S11721164EA0122301284000000000000
B0635353159993S11721081EA0121301275000000000000
B0635393200020S11720992EA0120001258000000000000
B0635433200050S11720899EA0118801250000000000000
B0635473200076S11720811EA0118801251000000000000
B0635513200100S11720726EA0118501248000000000000
B0635553200117S11720639EA0118701252000000000000
B0635593200134S11720553EA0118801250000000000000
B0636033200150S11720465EA0118101241000000000000
B0636073200167S11720374EA0117101231000000000000
B0636113200183S11720280EA0116201222000000000000
B0636153200201S11720188EA0115401216000000000000
B0636193200221S11720096EA0115201215000000000000
B0636233200239S11720002EA0114601207000000000000
B0636273200258S11719906EA0113901197000000000000
B0636313200279S11719812EA0113201195000000000000
B0636353200299S11719719EA0112801186000000000000
B0636393200317S11719624EA0112301185000000000000
B0636433200330S11719530EA0112701190000000000000
B0636473200322S11719439EA0112801189000000000000
B0636513200283S11719359EA0112401183000000000000
B0636553200239S11719278EA0111401173000000000000
B0636593200195S11719195EA0110401162000000000000
B0637033200160S11719108EA0109501149000000000000
B0637073200148S11719013EA0108401144000000000000
B0637113200156S11718925EA0108301141000000000000
B0637153200176S11718840EA0107701135000000000000
B0637193200205S11718762EA0107501135000000000000
B0637233200238S11718692EA0107801137000000000000
B0637273200279S11718636EA0107201127000000000000
B0637313200322S11718577EA0105901113000000000000
B0637353200364S11718514EA0104801101000000000000
B0637393200403S11718449EA0103901093000000000000
B0637433200442S11718385EA0103001085000000000000
B0637473200479S11718319EA0102301077000000000000
B0637513200514S11718250EA0101501069000000000000
B0637553200550S11718180EA0100901063000000000000
B0637593200587S11718111EA0100101056000000000000
B0638033200625S11718044EA0099101046000000000000
B0638073200661S11717976EA0098401036000000000000
B0638113200695S11717908EA0097601024000000000000
B0638153200725S11717834EA0096101011000000000000
B0638193200752S11717757EA0095401006000000000000
B0638233200777S11717680EA0095001001000000000000
B0638273200804S11717602EA0093900988000000000000
B0638313200832S11717522EA0092400972000000000000
B0638353200860S11717443EA0091200961000000000000
B0638393200886S11717363EA0090400949000000000000
B0638433200912S11717283EA0088900935000000000000
B0638473200942S11717202EA0088000929000000000000
B0638513200976S11717124EA0088300936000000000000
B0638553201025S11717071EA0088500935000000000000
B0638593201088S11717073EA0088600942000000000000
B0639033201102S11717136EA0088900945000000000000
B0639073201057S11717177EA0089500953000000015000
B0639113200995S11717181EA0089500947000000015000
B0639153200929S11717153EA0088700939000000015000
B0639193200863S11717108EA0088300931000000000000
B0639233200789S11717072EA0087700928000000000000
B0639273200726S11717105EA0088000934000000000000
B0639313200713S11717166EA0088000923000000015000
B0639353200748S11717212EA0086100905000000015000
B0639393200810S11717218EA0084100891000000015000
B0639433200871S11717188EA0083500889000000015000
B0639473200920S11717131EA0083800897000000015000
B0639513200964S11717067EA0084400900000000015000
B0639553201020S11717023EA0084300901000000015000
B0639593201081S11717024EA0084600908000000015000
B0640033201092S11717077EA0085900929000000015000
B0640073201033S11717071EA0088400941000000015000
B0640113201016S11717004EA0088500942000000015000
B0640153201054S11716964EA0088800946000000015000
B0640193201093S11716994EA0089200949000000015000
B0640233201072S11717049EA0090100966000000030000
B0640273201008S11717038EA0091700978000000030000
B0640313200981S11716969EA0092300982000000015000
B0640353201012S11716915EA0092800986000000015000
B0640393201064S11716923EA0093400994000000015000
B0640433201079S11716977EA0094101001000000015000
B0640473201040S11717025EA0095901014000000030000
B0640513200973S11717016EA0097401027000000015000
B0640553200936S11716947EA0098201036000000015000
B0640593200958S11716882EA0098901043000000015000
B0641033201007S11716887EA0099301048000000015000
B0641073201020S11716945EA0100001057000000015000
B0641113200977S11716988EA0102201070000000015000
B0641153200916S11716958EA0103501088000000015000
B0641193200902S11716886EA0105101103000000015000
B0641233200941S11716845EA0105601108000000015000
B0641273200977S11716876EA0106001113000000015000
B0641313200954S11716934EA0107101131000000030000
B0641353200891S11716932EA0109101151000000030000
B0641393200862S11716863EA0110101158000000015000
B0641433200895S11716813EA0111001171000000015000
B0641473200937S11716834EA0111601176000000015000
B0641513200934S11716895EA0112401192000000015000
B0641553200881S11716932EA0114501210000000030000
B0641593200816S11716899EA0115601221000000015000
B0642033200795S11716821EA0116701232000000015000
B0642073200834S11716768EA0117601244000000015000
B0642113200882S11716781EA0118701256000000015000
B0642153200908S11716833EA0119701264000000015000
B0642193200877S11716891EA0121301284000000015000
B0642233200808S11716884EA0123001299000000015000
B0642273200784S11716812EA0124401312000000015000
B0642313200823S11716767EA0125501323000000015000
B0642353200865S11716798EA0126801336000000015000
B0642393200859S11716859EA0127901351000000015000
B0642433200815S11716904EA0129601362000000015000
B0642473200747S11716907EA0130801375000000015000
B0642513200696S11716851EA0131901387000000015000
B0642553200691S11716774EA0133301406000000015000
B0642593200732S11716739EA0134901418000000015000
B0643033200768S11716773EA0135701427000000015000
B0643073200755S11716834EA0137101436000000015000
B0643113200695S11716869EA0138501450000000015000
B0643153200626S11716845EA0139801466000000015000
B0643193200585S11716777EA0140601480000000015000
B0643233200587S11716700EA0141801489000000015000
B0643273200634S11716665EA0142601496000000015000
B0643313200681S11716694EA0143301503000000015000
B0643353200696S11716760EA0143601507000000015000
B0643393200663S11716830EA0144301518000000015000
B0643433200592S11716856EA0145801537000000015000
B0643473200522S11716828EA0147601555000000015000
B0643513200482S11716760EA0148701561000000015000
B0643553200481S11716681EA0148701558000000015000
B0643593200522S11716621EA0148601559000000015000
B0644033200579S11716613EA0149101569000000015000
B0644073200621S11716655EA0149601568000000015000
B0644113200650S11716720EA0149301563000000015000
B0644153200696S11716764EA0149601570000000015000
B0644193200743S11716724EA0150201568000000015000
B0644233200768S11716646EA0148801547000000015000
B0644273200791S11716556EA0147201539000000015000
B0644313200815S11716458EA0146601541000000015000
B0644353200824S11716361EA0147801555000000015000
B0644393200821S11716261EA0147501544000000015000
B0644433200817S11716157EA0147301548000000015000
B0644473200815S11716055EA0147801557000000015000
B0644513200800S11715961EA0149901576000000015000
B0644553200733S11715929EA0151301593000000015000
B0644593200676S11715983EA0152201601000000015000
B0645033200698S11716040EA0154201629000000030000
B0645073200747S11716019EA0155601632000000045000
B0645113200748S11715945EA0156201640000000030000
B0645153200689S11715905EA0156601641000000030000
B0645193200621S11715936EA0156501640000000015000
B0645233200587S11716010EA0157301651000000030000
B0645273200598S11716079EA0158001655000000030000
B0645313200650S11716101EA0158001655000000030000
B0645353200696S11716059EA0158601664000000030000
B0645393200706S11715983EA0159301671000000030000
B0645433200693S11715907EA0160501683000000015000
B0645473200647S11715849EA0160601678000000015000
B0645513200616S11715779EA0160101672000000015000
B0645553200612S11715695EA0159501668000000015000
B0645593200626S11715610EA0159701674000000015000
B0646033200635S11715524EA0161501698000000015000
B0646073200585S11715476EA0163701714000000015000
B0646113200531S11715516EA0164001711000000015000
B0646153200547S11715581EA0164001721000000015000
B0646193200595S11715594EA0165701736000000030000
B0646233200635S11715554EA0167401741000000030000
B0646273200637S11715481EA0168201749000000030000
B0646313200574S11715456EA0168701751000000030000
B0646353200527S11715513EA0168501753000000015000
B0646393200552S11715578EA0169401767000000015000
B0646433200611S11715573EA0170901783000000030000
B0646473200648S11715516EA0171601788000000030000
B0646513200670S11715441EA0170501780000000030000
B0646553200693S11715357EA0168401773000000030000
B0646593200720S11715270EA0166901763000000015000
B0647033200746S11715174EA0165301755000000015000
B0647073200777S11715078EA0164801751000000015000
B0647113200807S11714980EA0164701746000000015000
B0647153200837S11714884EA0164201738000000015000
B0647193200865S11714787EA0162901728000000015000
B0647233200895S11714688EA0162401720000000015000
B0647273200924S11714592EA0161801714000000015000
B0647313200954S11714498EA0161801713000000015000
B0647353200985S11714411EA0162201709000000015000
B0647393201019S11714325EA0161401703000000015000
B0647433201057S11714238EA0160301695000000015000
B0647473201093S11714146EA0159301687000000015000
B0647513201129S11714056EA0159001684000000015000
B0647553201167S11713969EA0158301675000000015000
B0647593201202S11713878EA0157401660000000015000
B0648033201233S11713790EA0156801654000000015000
B0648073201265S11713702EA0155901637000000015000
B0648113201296S11713611EA0154101624000000015000
B0648153201319S11713517EA0153301620000000015000
B0648193201343S11713422EA0153201620000000015000
B0648233201361S11713328EA0153901621000000015000
B0648273201380S11713242EA0153901620000000015000
B0648313201401S11713153EA0153301615000000015000
B0648353201421S11713062EA0153001614000000015000
B0648393201443S11712969EA0153501615000000015000
B0648433201461S11712880EA0154301618000000015000
B0648473201478S11712790EA0154801617000000015000
B0648513201497S11712701EA0155001617000000015000
B0648553201522S11712609EA0154301610000000015000
B0648593201551S11712514EA0153701609000000015000
B0649033201580S11712418EA0152701603000000015000
B0649073201608S11712323EA0152101598000000015000
B0649113201632S11712228EA0151901591000000015000
B0649153201660S11712136EA0151401586000000015000
B0649193201690S11712046EA0151101583000000015000
B0649233201721S11711955EA0151001583000000015000
B0649273201749S11711866EA0151501586000000015000
B0649313201775S11711776EA0151801588000000015000
B0649353201799S11711689EA0151901591000000015000
B0649393201817S11711603EA0151701588000000015000
B0649433201835S11711515EA0150301581000000015000
B0649473201856S11711426EA0150201583000000015000
B0649513201882S11711340EA0150301576000000015000
B0649553201917S11711258EA0149601571000000015000
B0649593201954S11711174EA0148801565000000015000
B0650033201989S11711091EA0148301557000000015000
B0650073202024S11711008EA0146801550000000015000
B0650113202059S11710923EA0145001540000000015000
B0650153202095S11710831EA0143701524000000015000
B0650193202130S11710733EA0142501513000000015000
B0650233202164S11710637EA0142701515000000030000
B0650273202193S11710546EA0144301527000000030000
B0650313202221S11710462EA0145301524000000030000
B0650353202245S11710373EA0145101520000000030000
B0650393202266S11710290EA0145401521000000030000
B0650433202286S11710204EA0145101520000000030000
B0650473202311S11710118EA0144301510000000030000
B0650513202336S11710027EA0142501495000000030000
B0650553202362S11709930EA0140901487000000030000
B0650593202390S11709832EA0139801468000000030000
B0651033202418S11709732EA0137701457000000015000
B0651073202444S11709628EA0135801447000000015000
B0651113202474S11709520EA0134601427000000015000
B0651153202505S11709419EA0133501422000000015000
B0651193202528S11709321EA0133701421000000015000
B0651233202553S11709227EA0133401413000000015000
B0651273202580S11709138EA0132901404000000015000
B0651313202611S11709055EA0131801399000000015000
B0651353202637S11708970EA0130901388000000015000
B0651393202663S11708885EA0129601371000000015000
B0651433202693S11708799EA0128201355000000015000
B0651473202728S11708716EA0127001344000000015000
B0651513202761S11708632EA0125301331000000015000
B0651553202799S11708552EA0123401314000000015000
B0651593202836S11708471EA0122901311000000015000
B0652033202871S11708395EA0122901305000000015000
B0652073202908S11708315EA0121801289000000015000
B0652113202945S11708237EA0120701282000000015000
B0652153202990S11708161EA0120001275000000015000
B0652193203038S11708084EA0118701270000000015000
B0652233203087S11708003EA0118001265000000015000
B0652273203144S11707936EA0118501265000000015000
B0652313203203S11707872EA0119301268000000015000
B0652353203259S11707808EA0120401273000000030000
B0652393203265S11707730EA0121801280000000030000
B0652433203192S11707717EA0122101278000000030000
B0652473203157S11707784EA0122701284000000045000
B0652513203165S11707854EA0123901295000000060000
B0652553203215S11707877EA0124501298000000075000
B0652593203252S11707836EA0124801298000000090000
B0653033203224S11707764EA0123601281000000120000
B0653073203148S11707750EA0123001289000000105000
B0653113203074S11707764EA0124601305000000135000
B0653153203034S11707815EA0126101309000000135000
B0653193203073S11707860EA0126601315000000135000
B0653233203124S11707826EA0126501315000000135000
B0653273203099S11707756EA0127101332000000090000
B0653313203033S11707768EA0127701346000000075000
B0653353203029S11707828EA0128901353000000075000
B0653393203077S11707847EA0129101352000000090000
B0653433203109S11707800EA0129701354000000090000
B0653473203091S11707737EA0130201351000000135000
B0653513203039S11707693EA0129901351000000210000
B0653553202981S11707728EA0130501357000000000000
B0653593202969S11707802EA0131201362000000225000
B0654033202994S11707860EA0131501366000000165000
B0654073203046S11707854EA0131501368000000165000
B0654113203047S11707778EA0130901362000000195000
B0654153203026S11707691EA0129601359000000180000
B0654193203022S11707602EA0129101352000000150000
B0654233203052S11707516EA0128201354000000105000
B0654273203092S11707433EA0127401348000000090000
B0654313203150S11707351EA0127301344000000090000
B0654353203191S11707262EA0128701356000000075000
B0654393203131S11707226EA0131201377000000045000
B0654433203098S11707286EA0132201388000000030000
B0654473203127S11707335EA0133201400000000030000
B0654513203174S11707303EA0134301408000000030000
B0654553203163S11707223EA0134801412000000030000
B0654593203090S11707204EA0135201413000000030000
B0655033203049S11707266EA0135401422000000030000
B0655073203070S11707325EA0136701437000000030000
B0655113203117S11707334EA0138201441000000030000
B0655153203148S11707282EA0138901440000000030000
B0655193203121S11707206EA0138401438000000030000
B0655233203048S11707191EA0138701448000000015000
B0655273203012S11707247EA0139501458000000015000
B0655313203040S11707292EA0140101464000000015000
B0655353203091S11707267EA0140601468000000030000
B0655393203109S11707195EA0140801470000000030000
B0655433203085S11707114EA0140701467000000030000
B0655473203072S11707026EA0139701452000000015000
B0655513203091S11706936EA0137601433000000015000
B0655553203125S11706846EA0135501412000000015000
B0655593203166S11706754EA0134001402000000015000
B0656033203213S11706663EA0133801403000000015000
B0656073203257S11706573EA0134301408000000015000
B0656113203302S11706484EA0135101407000000000000
B0656153203346S11706391EA0134201393000000000000
B0656193203391S11706295EA0133401392000000000000
B0656233203433S11706200EA0133801398000000000000
B0656273203475S11706108EA0133501390000000000000
B0656313203519S11706013EA0132501384000000000000
B0656353203563S11705918EA0131801385000000000000
B0656393203607S11705823EA0131801383000000000000
B0656433203653S11705727EA0130601365000000000000
B0656473203702S11705631EA0129301352000000000000
B0656513203749S11705536EA0128801352000000000000
B0656553203796S11705446EA0130401371000000000000
B0656593203844S11705360EA0131201373000000015000
B0657033203896S11705276EA0131401376000000015000
B0657073203954S11705191EA0131901381000000015000
B0657113204009S11705107EA0132401383000000015000
B0657153204063S11705024EA0132001379000000015000
B0657193204118S11704939EA0131401374000000015000
B0657233204169S11704855EA0131301374000000015000
B0657273204213S11704764EA0130901366000000015000
B0657313204257S11704666EA0129601351000000015000
B0657353204303S11704570EA0128301338000000015000
B0657393204351S11704475EA0127201328000000015000
B0657433204396S11704384EA0126401323000000015000
B0657473204440S11704294EA0125901319000000015000
B0657513204483S11704206EA0124801305000000015000
B0657553204528S11704118EA0123601290000000015000
B0657593204570S11704024EA0122001275000000000000
B0658033204617S11703933EA0120701261000000000000
B0658073204667S11703846EA0119601252000000000000
B0658113204717S11703759EA0118701242000000000000
B0658153204767S11703669EA0117501229000000000000
B0658193204816S11703579EA0116501221000000000000
B0658233204863S11703492EA0116501225000000000000
B0658273204908S11703413EA0116401221000000000000
B0658313204957S11703336EA0115601208000000000000
B0658353205005S11703261EA0114001193000000000000
B0658393205050S11703183EA0113101186000000000000
B0658433205092S11703104EA0112401178000000000000
B0658473205133S11703022EA0111901176000000000000
B0658513205176S11702944EA0111601171000000000000
B0658553205226S11702870EA0110501156000000000000
B0658593205276S11702792EA0108401136000000000000
B0659033205323S11702707EA0107301123000000000000
B0659073205367S11702623EA0106301122000000015000
B0659113205410S11702535EA0106201122000000015000
B0659153205452S11702450EA0106101118000000000000
B0659193205493S11702363EA0105601109000000000000
B0659233205535S11702273EA0104201095000000000000
B0659273205574S11702182EA0103301088000000000000
B0659313205614S11702093EA0102601079000000000000
B0659353205656S11702005EA0101701068000000000000
B0659393205698S11701915EA0100601059000000000000
B0659433205737S11701827EA0100401059000000000000
B0659473205772S11701740EA0100401055000000015000
B0659513205809S11701655EA0100301057000000015000
B0659553205852S11701573EA0100501059000000015000
B0659593205893S11701488EA0100401060000000015000
B0700033205935S11701398EA0100201051000000015000
B0700073205978S11701304EA0099101051000000015000
B0700113206017S11701208EA0098301044000000015000
B0700153206055S11701111EA0098401050000000015000
B0700193206086S11701008EA0099101051000000015000
B0700233206124S11700904EA0098501045000000015000
B0700273206162S11700793EA0097001038000000015000
B0700313206199S11700682EA0096901036000000015000
B0700353206236S11700571EA0096601030000000015000
B0700393206272S11700458EA0096001026000000015000
B0700433206306S11700348EA0095501019000000015000
B0700473206340S11700236EA0094301001000000015000
B0700513206376S11700123EA0092400979000000015000
B0700553206415S11700010EA0090200960000000015000
B0700593206455S11659896EA0088400946000000015000
B0701033206501S11659785EA0086800924000000015000
B0701073206550S11659672EA0084700904000000015000
B0701113206602S11659556EA0083000884000000015000
B0701153206656S11659440EA0081700867000000015000
B0701193206705S11659323EA0080300856000000015000
B0701233206751S11659205EA0079800855000000015000
B0701273206796S11659084EA0079600850000000015000
B0701313206840S11658964EA0079000841000000015000
B0701353206884S11658846EA0077900829000000015000
B0701393206925S11658725EA0077600834000000015000
B0701433206957S11658609EA0079100843000000015000
B0701473206987S11658503EA0080100845000000015000
B0701513207016S11658400EA0079800842000000015000
B0701553207047S11658300EA0078800837000000015000
B0701593207079S11658199EA0077200815000000015000
B0702033207115S11658097EA0075800805000000015000
B0702073207151S11657992EA0074100795000000015000
B0702113207191S11657879EA0072300778000000015000
B0702153207233S11657763EA0070300756000000015000
B0702193207276S11657649EA0068500736000000015000
B0702233207319S11657534EA0066800716000000015000
B0702273207355S11657417EA0065300702000000000000
B0702313207385S11657304EA0064600696000000000000
B0702353207415S11657195EA0063800686000000000000
B0702393207445S11657092EA0063000680000000000000
B0702433207479S11656997EA0063000682000000000000
B0702473207515S11656913EA0064000694000000000000
B0702513207549S11656836EA0065000702000000000000
B0702553207577S11656761EA0065200698000000000000
B0702593207606S11656687EA0064400688000000000000
B0703033207649S11656626EA0063200671000000000000
B0703073207709S11656583EA0062100667000000000000
B0703113207767S11656539EA0062100665000000000000
B0703153207827S11656493EA0061600658000000000000
B0703193207887S11656448EA0061000653000000000000
B0703233207949S11656405EA0060600650000000000000
B0703273208018S11656384EA0060400649000000000000
B0703313208084S11656390EA0060600651000000000000
B0703353208143S11656420EA0060600652000000000000
B0703393208188S11656471EA0060800653000000000000
B0703433208225S11656529EA0060600648000000000000
B0703473208251S11656594EA0060100645000000000000
B0703513208274S11656661EA0059500637000000000000
B0703553208290S11656735EA0058700629000000000000
B0703593208296S11656814EA0058000621000000000000
B0704033208290S11656896EA0057100609000000000000
B0704073208275S11656978EA0056100601000000000000
B0704113208265S11657060EA0055500597000000000000
B0704153208249S11657138EA0055100592000000000000
B0704193208229S11657216EA0054400585000000000000
B0704233208207S11657296EA0054000579000000000000
B0704273208192S11657380EA0053400572000000000000
B0704313208190S11657463EA0052700564000000000000
B0704353208191S11657545EA0051600552000000000000
B0704393208191S11657629EA0050600545000000000000
B0704433208190S11657714EA0051000550000000000000
B0704473208197S11657794EA0052500556000000000000
B0704513208251S11657753EA0053600565000000015000
B0704553208212S11657681EA0055200592000000030000
B0704593208149S11657696EA0057300611000000015000
B0705033208136S11657759EA0058400623000000030000
B0705073208175S11657797EA0059500639000000030000
B0705113208217S11657759EA0060600650000000030000
B0705153208190S11657690EA0062300669000000030000
B0705193208119S11657689EA0063300676000000030000
B0705233208090S11657750EA0064500690000000015000
B0705273208129S11657792EA0065900706000000030000
B0705313208173S11657755EA0067600730000000030000
B0705353208151S11657689EA0070000747000000030000
B0705393208086S11657677EA0070800754000000015000
B0705433208048S11657727EA0071400754000000015000
B0705473208083S11657781EA0071100758000000015000
B0705513208135S11657775EA0072600781000000030000
B0705553208114S11657711EA0074600795000000030000
B0705593208053S11657716EA0075600807000000030000
B0706033208058S11657774EA0077000820000000015000
B0706073208108S11657775EA0077900830000000030000
B0706113208112S11657707EA0078800836000000030000
B0706153208054S11657663EA0079000835000000015000
B0706193207989S11657690EA0078900836000000015000
B0706233208004S11657749EA0079400840000000030000
B0706273208035S11657688EA0080200855000000030000
B0706313207973S11657641EA0081700866000000030000
B0706353207940S11657690EA0082600873000000015000
B0706393207993S11657706EA0082500874000000030000
B0706433208014S11657636EA0083600889000000030000
B0706473207962S11657581EA0083600877000000015000
B0706513207892S11657595EA0083200882000000015000
B0706553207869S11657658EA0083900891000000015000
B0706593207911S11657697EA0084100890000000015000
B0707033207969S11657685EA0084500902000000030000
B0707073207988S11657610EA0084800888000000030000
B0707113207939S11657540EA0083100875000000030000
B0707153207861S11657545EA0082300866000000015000
B0707193207809S11657612EA0082100872000000015000
B0707233207774S11657690EA0083300888000000015000
B0707273207792S11657758EA0084800906000000015000
B0707313207845S11657751EA0086100911000000015000
B0707353207844S11657675EA0086600922000000015000
B0707393207779S11657640EA0087900934000000015000
B0707433207728S11657681EA0088300931000000015000
B0707473207755S11657741EA0088000930000000015000
B0707513207817S11657737EA0088900945000000030000
B0707553207857S11657677EA0089600952000000030000
B0707593207846S11657603EA0090200953000000030000
B0708033207787S11657559EA0089000929000000030000
B0708073207710S11657558EA0088100936000000015000
B0708113207640S11657582EA0089200950000000015000
B0708153207602S11657638EA0090900966000000015000
B0708193207642S11657670EA0091100959000000015000
B0708233207676S11657602EA0091000964000000030000
B0708273207627S11657534EA0092300985000000030000
B0708313207557S11657553EA0093600988000000015000
B0708353207549S11657621EA0093500988000000015000
B0708393207602S11657649EA0093900997000000015000
B0708433207651S11657610EA0094901007000000030000
B0708473207635S11657534EA0095901021000000030000
B0708513207567S11657508EA0097101023000000015000
B0708553207518S11657559EA0097401035000000015000
B0708593207532S11657615EA0099101053000000030000
B0709033207580S11657612EA0099801054000000030000
B0709073207606S11657549EA0100601066000000030000
B0709113207585S11657478EA0101501070000000015000
B0709153207525S11657434EA0101101062000000015000
B0709193207458S11657458EA0100801066000000015000
B0709233207433S11657525EA0100901064000000015000
B0709273207445S11657595EA0101301072000000015000
B0709313207492S11657625EA0102101079000000030000
B0709353207547S11657633EA0102301082000000015000
B0709393207603S11657650EA0103001091000000015000
B0709433207657S11657675EA0103501089000000015000
B0709473207715S11657694EA0102601080000000015000
B0709513207770S11657720EA0101201058000000000000
B0709553207827S11657761EA0098701033000000000000
B0709593207885S11657807EA0096501014000000000000
B0710033207941S11657858EA0095401004000000000000
B0710073207995S11657913EA0094600998000000000000
B0710113208047S11657957EA0094600999000000000000
B0710153208099S11657988EA0094300992000000000000
B0710193208149S11658015EA0093300980000000000000
