ACAM4N6
HFDTE170115
HFFXA050
HFPLTPILOT:JOHN WELSH              
HFGTYGLIDERTYPE:HORNET      
HFGIDGLIDERID:VH-GMY      
HFDTM100GPSDATUM:
HFRFWFIRMWAREVERSION:F2.6
HFRHWHARDWAREVERSION:300 Series Version 2
HFFTYFRTYPE:CAMBRIDGE AERO INSTRUMENTS, 302+
HFGPS:GARMIN,LVS-25,12,18000
HFPRSPRESSALTSENSOR:INTERSEMA, MS5534-AP, 20000
I033638FXA3941ENL4247REX
LCAMSBVER:5FWVER:F26300
C170115043339170115000103
C0000000N00000000WTAKEOFF     
C3207547S11656879EBeverley Air
C3137397S11712959ECunderdin Ai
C3256165S11710679ENarrogin Sil
C3255535S11704919ENarrogin Aer
C3207547S11656879EBeverley Air
C0000000N00000000WLANDING     
B0436323207339S11656856EA0023400206000000000000
B0436343207339S11656856EA0023500206000000000000
B0436363207339S11656856EA0023400206000000000000
B0436383207339S11656856EA0023300206000000000000
B0436403207339S11656856EA0023300206000000000000
B0436423207339S11656856EA0023500206000000000000
B0436443207339S11656856EA0023400206000000000000
B0436463207339S11656856EA0023300206000000000000
B0436483207339S11656856EA0023400206000000000000
B0436503207339S11656856EA0023400206000000000000
B0436523207339S11656856EA0023400206000000000000
B0436543207339S11656856EA0023500206000000000000
B0436563207339S11656856EA0023500206000000000000
B0436583207339S11656856EA0023400206000000000000
B0437003207341S11656856EA0023400206000000000000
B0437053207354S11656870EA0023400205000000000000
B0437093207381S11656895EA0023400204000000000000
B0437133207424S11656922EA0023300204000000000000
B0437173207479S11656956EA0023300203000000000000
B0437213207542S11656994EA0023500207000000000000
B0437253207606S11657034EA0024200215000000000000
B0437293207670S11657074EA0025400230000000000000
B0437333207733S11657112EA0027400246000000000000
B0437373207798S11657151EA0028600264000000000000
B0437413207858S11657191EA0031000288000000000000
B0437453207914S11657233EA0033200309000000000000
B0437493207971S11657269EA0033700315000000000000
B0437533208027S11657312EA0034400322000000000000
B0437573208079S11657361EA0035100326000000000000
B0438013208131S11657413EA0035300333000000000000
B0438053208186S11657463EA0036800350000000000000
B0438093208238S11657517EA0037400355000000000000
B0438133208282S11657575EA0037800360000000000000
B0438173208317S11657632EA0038900378000000000000
B0438213208352S11657688EA0040600388000000000000
B0438253208385S11657749EA0041500398000000000000
B0438293208411S11657815EA0041800402000000000000
B0438333208434S11657878EA0043800424000000000000
B0438373208454S11657941EA0044900436000000000000
B0438413208473S11658006EA0045500442000000000000
B0438453208489S11658073EA0046600454000000000000
B0438493208502S11658138EA0047700471000000000000
B0438533208516S11658203EA0049300486000000000000
B0438573208530S11658271EA0050100489000000000000
B0439013208543S11658336EA0050800502000000000000
B0439053208558S11658401EA0051600509000000000000
B0439093208573S11658470EA0052000512000000000000
B0439133208595S11658537EA0052100513000000000000
B0439173208613S11658603EA0053100524000000000000
B0439213208633S11658674EA0053800534000000000000
B0439253208642S11658749EA0055300551000000000000
B0439293208632S11658823EA0057200570000000000000
B0439333208619S11658893EA0059100595000000000000
B0439373208607S11658962EA0061100614000000000000
B0439413208585S11659028EA0063600641000000000000
B0439453208532S11659079EA0065400658000000000000
B0439493208457S11659096EA0067500681000000000000
B0439533208378S11659074EA0069100695000000000000
B0439573208309S11659011EA0070000706000000000000
B0440013208264S11658919EA0071100720000000000000
B0440053208257S11658815EA0071900729000000000000
B0440093208296S11658720EA0072600734000000000000
B0440133208366S11658656EA0072900736000000000000
B0440173208448S11658628EA0073300741000000000000
B0440213208528S11658630EA0074000748000000000000
B0440253208594S11658658EA0075600771000000000000
B0440293208650S11658694EA0077700790000000000000
B0440333208717S11658672EA0078500796000000000000
B0440373208729S11658580EA0079500804000000015000
B0440413208671S11658529EA0079900812000000015000
B0440453208621S11658554EA0080200814000000015000
B0440493208621S11658611EA0080200817000000015000
B0440533208668S11658622EA0081300829000000015000
B0440573208703S11658555EA0082700841000000015000
B0441013208676S11658478EA0083100850000000015000
B0441053208616S11658465EA0083800854000000015000
B0441093208602S11658509EA0084200864000000015000
B0441133208643S11658522EA0085400877000000015000
B0441173208681S11658457EA0086700888000000015000
B0441213208655S11658381EA0087400893000000015000
B0441253208597S11658372EA0087200891000000015000
B0441293208585S11658417EA0088000903000000015000
B0441333208632S11658418EA0089600918000000015000
B0441373208664S11658349EA0090500930000000015000
B0441413208630S11658274EA0091100938000000015000
B0441453208571S11658266EA0091600942000000015000
B0441493208554S11658309EA0092100950000000015000
B0441533208593S11658327EA0093200961000000015000
B0441573208638S11658278EA0094200966000000015000
B0442013208632S11658191EA0094400976000000015000
B0442053208573S11658158EA0094900978000000015000
B0442093208541S11658200EA0094700977000000015000
B0442133208576S11658231EA0095700993000000015000
B0442173208623S11658190EA0097401004000000015000
B0442213208624S11658102EA0097701014000000030000
B0442253208567S11658056EA0097801018000000030000
B0442293208532S11658092EA0097701014000000015000
B0442333208569S11658119EA0098501028000000015000
B0442373208616S11658065EA0100401037000000015000
B0442413208603S11657978EA0100801044000000030000
B0442453208547S11657952EA0101401046000000015000
B0442493208530S11657996EA0101301044000000015000
B0442533208574S11658011EA0102101053000000015000
B0442573208621S11657953EA0103001063000000015000
B0443013208606S11657870EA0103801072000000015000
B0443053208548S11657848EA0104301081000000015000
B0443093208529S11657885EA0104901084000000015000
B0443133208568S11657911EA0105001087000000015000
B0443173208623S11657874EA0105801095000000015000
B0443213208641S11657790EA0106701104000000015000
B0443253208606S11657718EA0107301108000000015000
B0443293208548S11657702EA0107201110000000015000
B0443333208521S11657744EA0107401109000000015000
B0443373208547S11657789EA0107101110000000000000
B0443413208607S11657787EA0108001119000000000000
B0443453208647S11657712EA0109001129000000015000
B0443493208632S11657623EA0109401131000000015000
B0443533208576S11657581EA0110001136000000015000
B0443573208525S11657599EA0109901136000000000000
B0444013208515S11657653EA0109801133000000000000
B0444053208526S11657712EA0110001138000000000000
B0444093208569S11657745EA0110901144000000000000
B0444133208633S11657711EA0110901140000000000000
B0444173208669S11657624EA0110201137000000015000
B0444213208664S11657520EA0110201137000000000000
B0444253208620S11657434EA0110501144000000000000
B0444293208558S11657415EA0111101155000000000000
B0444333208547S11657460EA0111901159000000000000
B0444373208600S11657465EA0112301166000000000000
B0444413208645S11657399EA0113001170000000015000
B0444453208632S11657307EA0113501176000000015000
B0444493208574S11657259EA0113801181000000015000
B0444533208524S11657277EA0114001185000000015000
B0444573208508S11657330EA0114201183000000015000
B0445013208515S11657393EA0113801179000000000000
B0445053208539S11657454EA0114801193000000000000
B0445093208602S11657446EA0116801212000000000000
B0445133208630S11657363EA0118001224000000015000
B0445173208595S11657286EA0117901219000000015000
B0445213208535S11657276EA0117401222000000015000
B0445253208493S11657320EA0117801227000000015000
B0445293208511S11657368EA0119101238000000015000
B0445333208568S11657334EA0120101240000000015000
B0445373208571S11657246EA0120401254000000030000
B0445413208515S11657203EA0121601269000000030000
B0445453208485S11657239EA0123001277000000015000
B0445493208530S11657261EA0123301275000000015000
B0445533208581S11657198EA0123701281000000015000
B0445573208572S11657109EA0125301302000000015000
B0446013208521S11657066EA0126201311000000015000
B0446053208473S11657086EA0126801317000000015000
B0446093208473S11657138EA0127001318000000000000
B0446133208525S11657152EA0127001314000000000000
B0446173208572S11657087EA0126801319000000015000
B0446213208554S11657001EA0126801318000000015000
B0446253208491S11656962EA0127301326000000015000
B0446293208444S11656994EA0128601333000000015000
B0446333208459S11657047EA0128301326000000000000
B0446373208522S11657040EA0127801319000000000000
B0446413208567S11656966EA0127701321000000000000
B0446453208567S11656871EA0128001327000000000000
B0446493208525S11656796EA0128601337000000000000
B0446533208465S11656783EA0129201340000000000000
B0446573208441S11656831EA0129301338000000000000
B0447013208446S11656893EA0128401322000000000000
B0447053208460S11656960EA0127001311000000000000
B0447093208480S11657025EA0126201304000000000000
B0447133208503S11657087EA0125601297000000000000
B0447173208524S11657151EA0125101287000000000000
B0447213208545S11657216EA0123901276000000000000
B0447253208577S11657278EA0123701272000000000000
B0447293208612S11657342EA0123101265000000000000
B0447333208633S11657410EA0122801261000000000000
B0447373208646S11657477EA0122101255000000000000
B0447413208655S11657542EA0121801249000000000000
B0447453208664S11657601EA0121201243000000000000
B0447493208672S11657655EA0120601238000000000000
B0447533208686S11657707EA0119901230000000000000
B0447573208702S11657761EA0119501226000000000000
B0448013208712S11657815EA0119201224000000000000
B0448053208723S11657871EA0119101221000000000000
B0448093208732S11657930EA0118801217000000000000
B0448133208743S11657989EA0118401215000000000000
B0448173208758S11658048EA0118201213000000000000
B0448213208780S11658104EA0118001210000000000000
B0448253208808S11658156EA0117601208000000000000
B0448293208834S11658208EA0117701209000000000000
B0448333208863S11658258EA0117601204000000000000
B0448373208896S11658309EA0117101201000000000000
B0448413208915S11658368EA0117401208000000000000
B0448453208933S11658424EA0117601206000000000000
B0448493208951S11658482EA0117201201000000000000
B0448533208970S11658541EA0116801195000000000000
B0448573208992S11658599EA0116201190000000000000
B0449013209022S11658652EA0115801188000000000000
B0449053209065S11658698EA0115501183000000000000
B0449093209118S11658736EA0114501173000000000000
B0449133209179S11658762EA0113801165000000000000
B0449173209244S11658784EA0113201157000000000000
B0449213209310S11658794EA0112601150000000000000
B0449253209379S11658802EA0112101147000000000000
B0449293209447S11658798EA0112301153000000000000
B0449333209514S11658775EA0112701156000000000000
B0449373209581S11658743EA0113201163000000000000
B0449413209644S11658737EA0114701174000000000000
B0449453209696S11658768EA0115501180000000000000
B0449493209759S11658776EA0116201192000000000000
B0449533209795S11658700EA0117001203000000000000
B0449573209759S11658628EA0117801213000000000000
B0450013209702S11658620EA0118501217000000000000
B0450053209668S11658669EA0118801222000000000000
B0450093209691S11658728EA0120201244000000000000
B0450133209755S11658726EA0121801253000000000000
B0450173209800S11658647EA0122901268000000000000
B0450213209774S11658572EA0124401285000000000000
B0450253209722S11658561EA0125301291000000000000
B0450293209695S11658611EA0125501294000000000000
B0450333209730S11658648EA0127101318000000000000
B0450373209780S11658603EA0129401336000000000000
B0450413209776S11658520EA0129701337000000000000
B0450453209722S11658489EA0130001343000000000000
B0450493209702S11658537EA0130501347000000000000
B0450533209748S11658563EA0131501367000000000000
B0450573209791S11658503EA0133501382000000000000
B0451013209776S11658425EA0134001388000000015000
B0451053209717S11658401EA0134301396000000015000
B0451093209678S11658443EA0135101401000000015000
B0451133209699S11658495EA0135801410000000000000
B0451173209759S11658486EA0136601416000000000000
B0451213209804S11658411EA0137001421000000000000
B0451253209790S11658322EA0138401440000000015000
B0451293209738S11658283EA0139701453000000015000
B0451333209683S11658303EA0139901451000000000000
B0451373209659S11658361EA0139801452000000000000
B0451413209679S11658420EA0140101460000000000000
B0451453209742S11658434EA0141001465000000000000
B0451493209807S11658388EA0141501470000000000000
B0451533209832S11658301EA0142301478000000000000
B0451573209795S11658234EA0143101493000000015000
B0452013209746S11658240EA0143701494000000000000
B0452053209738S11658292EA0143901499000000000000
B0452093209776S11658331EA0144601506000000000000
B0452133209838S11658310EA0145301509000000000000
B0452173209876S11658231EA0145201510000000015000
B0452213209855S11658148EA0145401523000000015000
B0452253209803S11658114EA0146501531000000015000
B0452293209754S11658138EA0146201524000000000000
B0452333209746S11658196EA0146601533000000000000
B0452373209781S11658238EA0147701540000000000000
B0452413209843S11658238EA0147201525000000000000
B0452453209902S11658173EA0146101522000000000000
B0452493209917S11658078EA0146401523000000000000
B0452533209884S11657998EA0146801530000000000000
B0452573209826S11657959EA0147001530000000000000
B0453013209773S11657979EA0147201534000000000000
B0453053209747S11658034EA0147201530000000000000
B0453093209737S11658096EA0147101533000000000000
B0453133209738S11658156EA0147701533000000000000
B0453173209746S11658217EA0147101521000000000000
B0453213209746S11658283EA0146401520000000000000
B0453253209743S11658349EA0146501519000000000000
B0453293209744S11658417EA0145401501000000000000
B0453333209746S11658491EA0144601500000000000000
B0453373209746S11658564EA0145001502000000000000
B0453413209748S11658635EA0145001498000000000000
B0453453209755S11658706EA0144401495000000000000
B0453493209760S11658772EA0144301494000000000000
B0453533209760S11658834EA0144001488000000000000
B0453573209764S11658899EA0143201481000000000000
B0454013209769S11658970EA0141701464000000000000
B0454053209778S11659041EA0140501449000000000000
B0454093209796S11659113EA0139701446000000000000
B0454133209813S11659180EA0139301438000000000000
B0454173209813S11659253EA0138101425000000000000
B0454213209809S11659327EA0137301421000000000000
B0454253209809S11659401EA0136901416000000000000
B0454293209819S11659475EA0136301410000000000000
B0454333209829S11659548EA0136201409000000000000
B0454373209842S11659620EA0136001406000000000000
B0454413209855S11659692EA0135501400000000000000
B0454453209871S11659765EA0135401401000000000000
B0454493209887S11659835EA0135601402000000000000
B0454533209904S11659903EA0135301398000000000000
B0454573209921S11659972EA0135101396000000000000
B0455013209941S11700042EA0134701393000000000000
B0455053209958S11700111EA0134901394000000000000
B0455093209975S11700177EA0134901394000000000000
B0455133209988S11700244EA0134601392000000000000
B0455173209999S11700309EA0134701389000000000000
B0455213210012S11700374EA0134401386000000000000
B0455253210027S11700437EA0134101385000000000000
B0455293210045S11700498EA0134101384000000000000
B0455333210068S11700558EA0133601379000000000000
B0455373210092S11700619EA0133201373000000000000
B0455413210111S11700682EA0132701370000000000000
B0455453210129S11700743EA0132101361000000000000
B0455493210146S11700808EA0131201345000000000000
B0455533210167S11700874EA0129701332000000000000
B0455573210207S11700934EA0128601323000000000000
B0456013210262S11700982EA0127801316000000000000
B0456053210327S11701018EA0127301312000000000000
B0456093210387S11701060EA0126901307000000000000
B0456133210445S11701103EA0126301302000000000000
B0456173210505S11701141EA0126401301000000000000
B0456213210566S11701173EA0126201297000000000000
B0456253210631S11701199EA0125901293000000000000
B0456293210700S11701220EA0125201284000000000000
B0456333210774S11701237EA0124501281000000000000
B0456373210851S11701252EA0123901272000000000000
B0456413210930S11701268EA0123001266000000000000
B0456453211008S11701281EA0122501261000000000000
B0456493211087S11701289EA0122101258000000000000
B0456533211167S11701300EA0121901254000000000000
B0456573211237S11701339EA0121401248000000000000
B0457013211307S11701363EA0121601256000000000000
B0457053211375S11701332EA0122901268000000000000
B0457093211419S11701259EA0123301262000000000000
B0457133211442S11701165EA0121801245000000000000
B0457173211459S11701063EA0120401232000000000000
B0457213211449S11700960EA0119601227000000000000
B0457253211414S11700870EA0119401229000000000000
B0457293211364S11700793EA0119501232000000000000
B0457333211302S11700753EA0120601243000000000000
B0457373211249S11700765EA0120801242000000000000
B0457413211220S11700809EA0120101230000000000000
B0457453211204S11700868EA0118201213000000000000
B0457493211193S11700933EA0116801200000000000000
B0457533211185S11701001EA0115901193000000000000
B0457573211193S11701072EA0115401189000000000000
B0458013211204S11701138EA0114901183000000000000
B0458053211223S11701204EA0114301175000000000000
B0458093211238S11701272EA0113601168000000000000
B0458133211275S11701329EA0113301169000000000000
B0458173211341S11701338EA0113801171000000000000
B0458213211399S11701277EA0113301161000000000000
B0458253211403S11701177EA0111901143000000000000
B0458293211367S11701089EA0110601132000000000000
B0458333211314S11701012EA0109101117000000000000
B0458373211251S11700946EA0108101110000000000000
B0458413211189S11700883EA0108201109000000000000
B0458453211124S11700822EA0107001096000000000000
B0458493211056S11700761EA0106801096000000000000
B0458533210989S11700701EA0107201101000000000000
B0458573210924S11700654EA0107701106000000000000
B0459013210862S11700650EA0107701107000000000000
B0459053210835S11700688EA0107601103000000000000
B0459093210859S11700731EA0106901093000000000000
B0459133210924S11700726EA0106001094000000000000
B0459173210976S11700665EA0107701111000000000000
B0459213210956S11700582EA0108601115000000000000
B0459253210901S11700563EA0108401111000000000000
B0459293210888S11700605EA0108401114000000000000
B0459333210929S11700626EA0109001120000000000000
B0459373210977S11700580EA0110401136000000000000
B0459413210978S11700498EA0110801139000000000000
B0459453210933S11700449EA0110701137000000000000
B0459493210891S11700466EA0110401133000000000000
B0459533210891S11700511EA0109601123000000000000
B0459573210943S11700523EA0109401126000000000000
B0500013211004S11700488EA0110201137000000000000
B0500053211052S11700414EA0111201145000000000000
B0500093211042S11700323EA0111701146000000000000
B0500133210986S11700303EA0111401150000000000000
B0500173210969S11700349EA0111601150000000000000
B0500213211009S11700381EA0112501162000000000000
B0500253211063S11700328EA0114101180000000000000
B0500293211046S11700245EA0115601195000000000000
B0500333210994S11700228EA0116001198000000000000
B0500373210978S11700268EA0116301202000000000000
B0500413211022S11700293EA0116801205000000000000
B0500453211086S11700257EA0116801209000000000000
B0500493211099S11700169EA0118801231000000000000
B0500533211054S11700115EA0119001230000000000000
B0500573211008S11700133EA0118701230000000000000
B0501013211008S11700182EA0119501239000000000000
B0501053211056S11700197EA0120301239000000000000
B0501093211112S11700149EA0119801238000000000000
B0501133211134S11700063EA0120601251000000000000
B0501173211126S11659974EA0121701256000000000000
B0501213211087S11659900EA0120501243000000000000
B0501253211028S11659839EA0119301230000000000000
B0501293210961S11659783EA0118001213000000000000
B0501333210890S11659730EA0116701201000000000000
B0501373210816S11659682EA0116001193000000000000
B0501413210739S11659638EA0115101183000000000000
B0501453210662S11659594EA0113901172000000000000
B0501493210586S11659551EA0113401167000000000000
B0501533210511S11659510EA0112901160000000000000
B0501573210436S11659469EA0111701149000000000000
B0502013210361S11659423EA0111501151000000000000
B0502053210287S11659378EA0112301155000000000000
B0502093210212S11659340EA0112001153000000000000
B0502133210144S11659343EA0112301155000000000000
B0502173210079S11659363EA0111401139000000000000
B0502213210006S11659379EA0110101128000000000000
B0502253209930S11659383EA0109001117000000000000
B0502293209851S11659376EA0108401112000000000000
B0502333209773S11659362EA0108101108000000000000
B0502373209698S11659353EA0108501116000000000000
B0502413209635S11659379EA0109701132000000000000
B0502453209596S11659432EA0110901141000000000000
B0502493209625S11659477EA0112101146000000000000
B0502533209673S11659421EA0113101149000000000000
B0502573209657S11659339EA0113101154000000000000
B0503013209604S11659309EA0113601162000000000000
B0503053209564S11659337EA0113801163000000000000
B0503093209575S11659383EA0114001165000000000000
B0503133209635S11659336EA0115201178000000000000
B0503173209626S11659249EA0116301194000000015000
B0503213209570S11659231EA0117201203000000015000
B0503253209557S11659275EA0117401206000000015000
B0503293209616S11659275EA0118701223000000015000
B0503333209657S11659201EA0119701230000000015000
B0503373209625S11659131EA0120501242000000015000
B0503413209572S11659131EA0121001248000000000000
B0503453209536S11659174EA0120901245000000000000
B0503493209556S11659227EA0121101251000000000000
B0503533209622S11659239EA0121501256000000000000
B0503573209679S11659170EA0122301263000000000000
B0504013209676S11659076EA0123101273000000000000
B0504053209625S11659040EA0123601272000000000000
B0504093209577S11659075EA0123601280000000000000
B0504133209588S11659131EA0125401299000000000000
B0504173209653S11659101EA0126401306000000000000
B0504213209672S11659009EA0126401305000000000000
B0504253209633S11658934EA0127401318000000000000
B0504293209577S11658931EA0127601319000000000000
B0504333209551S11658980EA0127901323000000000000
B0504373209590S11659018EA0128801333000000000000
B0504413209652S11658976EA0129201330000000000000
B0504453209676S11658882EA0128501332000000000000
B0504493209642S11658802EA0129801345000000000000
B0504533209582S11658778EA0130601351000000000000
B0504573209556S11658821EA0131101357000000000000
B0505013209588S11658866EA0131401357000000000000
B0505053209659S11658851EA0130901350000000000000
B0505093209712S11658773EA0130701353000000000000
B0505133209750S11658681EA0131401361000000000000
B0505173209781S11658581EA0131601362000000000000
B0505213209760S11658495EA0133401384000000000000
B0505253209711S11658476EA0134001381000000000000
B0505293209681S11658517EA0132301367000000000000
B0505333209664S11658578EA0132401369000000000000
B0505373209653S11658646EA0132601374000000000000
B0505413209682S11658698EA0133701387000000000000
B0505453209743S11658650EA0134601394000000000000
B0505493209742S11658559EA0134701397000000000000
B0505533209692S11658500EA0135501407000000000000
B0505573209642S11658504EA0136801420000000000000
B0506013209624S11658552EA0136901416000000000000
B0506053209621S11658611EA0136501410000000000000
B0506093209626S11658669EA0135701400000000000000
B0506133209624S11658732EA0134901392000000000000
B0506173209600S11658788EA0134601390000000000000
B0506213209565S11658837EA0134301387000000000000
B0506253209523S11658882EA0134001388000000000000
B0506293209477S11658919EA0134701397000000000000
B0506333209434S11658955EA0135101398000000000000
B0506373209387S11658994EA0134601390000000000000
B0506413209332S11659023EA0134201385000000000000
B0506453209271S11659040EA0133401375000000000000
B0506493209208S11659059EA0132001360000000000000
B0506533209135S11659067EA0130801349000000000000
B0506573209055S11659054EA0130301346000000000000
B0507013208976S11659025EA0129901341000000000000
B0507053208897S11658990EA0129101332000000000000
B0507093208818S11658950EA0128101322000000000000
B0507133208737S11658910EA0127801323000000000000
B0507173208659S11658886EA0129201341000000000000
B0507213208617S11658924EA0131801368000000000000
B0507253208637S11658972EA0132801369000000000000
B0507293208699S11658979EA0132101360000000000000
B0507333208754S11658914EA0132101364000000000000
B0507373208768S11658820EA0131901360000000000000
B0507413208758S11658721EA0132101365000000000000
B0507453208741S11658624EA0132701370000000000000
B0507493208719S11658525EA0131901358000000000000
B0507533208685S11658429EA0130901349000000000000
B0507573208629S11658352EA0130001339000000000000
B0508013208561S11658290EA0129301331000000000000
B0508053208490S11658231EA0128401324000000000000
B0508093208416S11658182EA0128201324000000000000
B0508133208340S11658141EA0127701317000000000000
B0508173208262S11658101EA0126301299000000000000
B0508213208183S11658062EA0124601286000000000000
B0508253208103S11658030EA0123801276000000000000
B0508293208023S11658005EA0123201270000000000000
B0508333207941S11657985EA0122601264000000000000
B0508373207859S11657963EA0121901259000000000000
B0508413207779S11657944EA0121401250000000000000
B0508453207697S11657926EA0120001237000000000000
B0508493207614S11657907EA0119501236000000000000
B0508533207534S11657887EA0119501234000000000000
B0508573207458S11657861EA0119501232000000000000
B0509013207380S11657832EA0118901226000000000000
B0509053207303S11657803EA0118901228000000000000
B0509093207228S11657775EA0118801222000000000000
B0509133207150S11657741EA0117301204000000000000
B0509173207072S11657705EA0116301196000000000000
B0509213206994S11657664EA0115401187000000000000
B0509253206914S11657627EA0114401175000000000000
B0509293206834S11657592EA0113101163000000000000
B0509333206752S11657556EA0113001163000000000000
B0509373206670S11657524EA0112901163000000000000
B0509413206591S11657490EA0113201169000000000000
B0509453206517S11657475EA0114201177000000000000
B0509493206462S11657503EA0114801181000000000000
B0509533206414S11657545EA0113301159000000000000
B0509573206350S11657577EA0111301145000000000000
B0510013206280S11657594EA0111001144000000000000
B0510053206208S11657599EA0111001141000000000000
B0510093206136S11657589EA0110701137000000000000
B0510133206062S11657569EA0110301133000000000000
B0510173205989S11657553EA0109401121000000000000
B0510213205913S11657550EA0108801120000000000000
B0510253205842S11657560EA0109301122000000000000
B0510293205799S11657606EA0110601136000000000000
B0510333205787S11657666EA0110601129000000000000
B0510373205789S11657732EA0109501119000000000000
B0510413205799S11657800EA0108801110000000000000
B0510453205812S11657868EA0108101106000000000000
B0510493205834S11657935EA0107601104000000000000
B0510533205855S11657998EA0107701101000000000000
B0510573205887S11658058EA0107601100000000000000
B0511013205926S11658119EA0107101094000000000000
B0511053205959S11658186EA0106201084000000000000
B0511093205991S11658257EA0105101075000000000000
B0511133206028S11658325EA0105701084000000000000
B0511173206056S11658388EA0107001100000000000000
B0511213206081S11658451EA0107001094000000000000
B0511253206108S11658518EA0106001085000000000000
B0511293206142S11658583EA0106201091000000000000
B0511333206207S11658596EA0107201100000000000000
B0511373206242S11658512EA0107601101000000000000
B0511413206202S11658434EA0107201091000000000000
B0511453206137S11658421EA0106401086000000000000
B0511493206082S11658446EA0106501091000000000000
B0511533206054S11658502EA0107301098000000000000
B0511573206052S11658570EA0107501099000000000000
B0512013206085S11658624EA0109001117000000000000
B0512053206137S11658565EA0110101126000000000000
B0512093206117S11658472EA0109701121000000000000
B0512133206054S11658437EA0109601128000000000000
B0512173206034S11658487EA0111901149000000000000
B0512213206090S11658494EA0113301167000000000000
B0512253206120S11658412EA0113501165000000000000
B0512293206077S11658342EA0113501173000000000000
B0512333206021S11658351EA0114501181000000000000
B0512373206016S11658409EA0115301193000000000000
B0512413206071S11658430EA0117301213000000000000
B0512453206120S11658368EA0117401201000000000000
B0512493206104S11658271EA0116401203000000000000
B0512533206041S11658235EA0117601217000000000000
B0512573205991S11658266EA0118601226000000000000
B0513013205995S11658325EA0119101228000000000000
B0513053206059S11658339EA0119201232000000000000
B0513093206108S11658264EA0119801235000000000000
B0513133206078S11658177EA0120201242000000000000
B0513173206017S11658154EA0121301255000000000000
B0513213205978S11658190EA0122001261000000000000
B0513253205998S11658243EA0122401263000000000000
B0513293206064S11658252EA0122301262000000000000
B0513333206108S11658182EA0123601282000000000000
B0513373206078S11658104EA0124301286000000000000
B0513413206021S11658083EA0124701293000000000000
B0513453206010S11658130EA0125801302000000000000
B0513493206060S11658153EA0125801299000000000000
B0513533206115S11658095EA0126401307000000000000
B0513573206098S11658008EA0126501306000000000000
B0514013206038S11657969EA0127101314000000000000
B0514053206013S11658011EA0127801323000000000000
B0514093206016S11658074EA0126901310000000000000
B0514133206026S11658143EA0126701310000000000000
B0514173206043S11658210EA0126601305000000000000
B0514213206059S11658281EA0126101296000000000000
B0514253206085S11658351EA0124701285000000000000
B0514293206129S11658411EA0124001277000000000000
B0514333206194S11658455EA0122901264000000000000
B0514373206270S11658486EA0122201257000000000000
B0514413206349S11658511EA0121501255000000000000
B0514453206423S11658541EA0121401252000000000000
B0514493206481S11658589EA0121601254000000000000
B0514533206533S11658639EA0121701254000000000000
B0514573206589S11658687EA0121301248000000000000
B0515013206636S11658745EA0121601253000000000000
B0515053206669S11658807EA0121901252000000000000
B0515093206706S11658869EA0121801256000000000000
B0515133206738S11658933EA0123001269000000000000
B0515173206777S11658985EA0124101282000000000000
B0515213206838S11658949EA0126501304000000000000
B0515253206823S11658860EA0127701317000000000000
B0515293206769S11658854EA0128401325000000000000
B0515333206769S11658902EA0129301332000000000000
B0515373206826S11658890EA0130801349000000000000
B0515413206849S11658807EA0131401353000000000000
B0515453206803S11658749EA0131701359000000000000
B0515493206762S11658781EA0132101362000000000000
B0515533206782S11658832EA0133301376000000000000
B0515573206838S11658842EA0134301386000000000000
B0516013206892S11658789EA0134601386000000000000
B0516053206897S11658698EA0134801396000000000000
B0516093206848S11658642EA0135601400000000000000
B0516133206796S11658661EA0135801404000000000000
B0516173206788S11658720EA0136801417000000000000
B0516213206826S11658762EA0138001428000000000000
B0516253206888S11658752EA0138201425000000000000
B0516293206931S11658678EA0137401414000000000000
B0516333206942S11658580EA0137201421000000000000
B0516373206900S11658513EA0138601437000000000000
B0516413206851S11658533EA0139101438000000000000
B0516453206860S11658589EA0139901451000000000000
B0516493206920S11658576EA0141401461000000000000
B0516533206947S11658495EA0141601465000000000000
B0516573206907S11658434EA0142601477000000000000
B0517013206862S11658455EA0143001478000000000000
B0517053206882S11658507EA0143501489000000000000
B0517093206942S11658504EA0144401494000000000000
B0517133206983S11658434EA0144401492000000000000
B0517173206962S11658356EA0144901506000000000000
B0517213206908S11658355EA0145501501000000000000
B0517253206897S11658413EA0145201505000000000000
B0517293206946S11658446EA0146501517000000000000
B0517333207005S11658413EA0146901517000000000000
B0517373207037S11658334EA0146401511000000000000
B0517413207033S11658239EA0146501516000000000000
B0517453206987S11658179EA0147201524000000000000
B0517493206942S11658203EA0147401522000000000000
B0517533206944S11658264EA0146801518000000000000
B0517573206990S11658307EA0147301525000000000000
B0518013207057S11658288EA0147401523000000000000
B0518053207112S11658218EA0146501511000000000000
B0518093207159S11658125EA0145401500000000000000
B0518133207206S11658028EA0145101500000000000000
B0518173207252S11657931EA0145201500000000000000
B0518213207298S11657836EA0145101498000000000000
B0518253207341S11657741EA0144701492000000000000
B0518293207380S11657641EA0143801482000000000000
B0518333207424S11657542EA0143001475000000000000
B0518373207481S11657452EA0142501470000000000000
B0518413207550S11657377EA0142301468000000000000
B0518453207627S11657316EA0141801463000000000000
B0518493207707S11657270EA0141701461000000000000
B0518533207791S11657241EA0141001453000000000000
B0518573207876S11657218EA0140401452000000000000
B0519013207960S11657202EA0140601454000000000000
B0519053208040S11657189EA0140501452000000000000
B0519093208117S11657178EA0140101449000000000000
B0519133208196S11657165EA0139601440000000000000
B0519173208277S11657147EA0138701434000000000000
B0519213208357S11657125EA0138201429000000000000
B0519253208439S11657107EA0137801424000000000000
B0519293208520S11657088EA0137201417000000000000
B0519333208599S11657070EA0136601412000000000000
B0519373208678S11657053EA0136201409000000000000
B0519413208759S11657033EA0135501399000000000000
B0519453208840S11657005EA0135201398000000000000
B0519493208916S11656960EA0135601402000000000000
B0519533208981S11656895EA0136301416000000000000
B0519573208993S11656806EA0138201433000000000000
B0520013208954S11656735EA0138201421000000000000
B0520053208892S11656730EA0136601406000000000000
B0520093208833S11656763EA0135501397000000000000
B0520133208781S11656809EA0135801404000000000000
B0520173208792S11656865EA0137001416000000000000
B0520213208854S11656852EA0137001412000000000000
B0520253208896S11656773EA0136701411000000000000
B0520293208873S11656685EA0137601419000000000000
B0520333208815S11656661EA0138001426000000000000
B0520373208777S11656704EA0137901421000000000000
B0520413208780S11656770EA0136801411000000000000
B0520453208831S11656817EA0136401408000000000000
B0520493208903S11656810EA0136901417000000000000
B0520533208964S11656760EA0137601420000000000000
B0520573209006S11656685EA0137801421000000000000
B0521013209015S11656604EA0138301429000000000000
B0521053208983S11656531EA0138401431000000000000
B0521093208927S11656494EA0138701432000000000000
B0521133208875S11656514EA0139301434000000000000
B0521173208860S11656568EA0139001437000000000000
B0521213208902S11656609EA0139301438000000000000
B0521253208972S11656593EA0138601429000000000000
B0521293209031S11656524EA0138001427000000000000
B0521333209067S11656435EA0139101441000000000000
B0521373209046S11656354EA0140201446000000000000
B0521413208992S11656333EA0139801442000000000000
B0521453208945S11656359EA0139601439000000000000
B0521493208914S11656406EA0139101438000000000000
B0521533208899S11656462EA0139301440000000000000
B0521573208920S11656519EA0139501441000000000000
B0522013208968S11656571EA0138701426000000000000
B0522053209007S11656637EA0137401413000000000000
B0522093209028S11656713EA0136201403000000000000
B0522133209033S11656791EA0135501398000000000000
B0522173209029S11656867EA0135001391000000000000
B0522213209020S11656945EA0134501385000000000000
B0522253209006S11657026EA0133601375000000000000
B0522293208993S11657111EA0133201374000000000000
B0522333208981S11657191EA0132601366000000000000
B0522373208967S11657270EA0132001359000000000000
B0522413208963S11657350EA0132101359000000000000
B0522453208967S11657430EA0132001361000000000000
B0522493208974S11657507EA0132101359000000000000
B0522533208979S11657585EA0131201348000000000000
B0522573208985S11657663EA0131101353000000000000
B0523013208996S11657736EA0132301364000000000000
B0523053209048S11657776EA0133801379000000000000
B0523093209109S11657733EA0134401383000000000000
B0523133209115S11657645EA0133401374000000000000
B0523173209065S11657586EA0132401366000000000000
B0523213209003S11657581EA0132701372000000000000
B0523253208962S11657614EA0133001375000000000000
B0523293208944S11657670EA0132601364000000000000
B0523333208945S11657740EA0131501354000000000000
B0523373208948S11657815EA0130601345000000000000
B0523413208959S11657892EA0130201346000000000000
B0523453208972S11657963EA0130001337000000000000
B0523493208983S11658037EA0129201329000000000000
B0523533209001S11658109EA0129201339000000000000
B0523573209022S11658178EA0129501337000000000000
B0524013209037S11658248EA0129701339000000000000
B0524053209049S11658318EA0130201344000000000000
B0524093209065S11658385EA0130601346000000000000
B0524133209123S11658403EA0131201351000000000000
B0524173209163S11658322EA0131701358000000000000
B0524213209135S11658238EA0131401353000000000000
B0524253209074S11658205EA0131301356000000000000
B0524293209026S11658223EA0132101368000000000000
B0524333209032S11658273EA0133201371000000000000
B0524373209088S11658288EA0133001373000000000000
B0524413209133S11658226EA0133601378000000000000
B0524453209124S11658140EA0133201371000000000000
B0524493209070S11658088EA0132701368000000000000
B0524533209026S11658109EA0133501379000000000000
B0524573209067S11658141EA0134001381000000000000
B0525013209130S11658096EA0133801380000000000000
B0525053209135S11658009EA0134401385000000000000
B0525093209089S11657965EA0134201385000000000000
B0525133209046S11657988EA0134201385000000000000
B0525173209027S11658039EA0134501388000000000000
B0525213209027S11658095EA0135001397000000000000
B0525253209075S11658113EA0135501396000000000000
B0525293209119S11658048EA0134801387000000000000
B0525333209102S11657959EA0134101383000000000000
B0525373209046S11657904EA0133901383000000000000
B0525413208984S11657884EA0134401387000000000000
B0525453208933S11657911EA0134301389000000000000
B0525493208914S11657970EA0134901395000000000000
B0525533208953S11658002EA0135401400000000000000
B0525573209003S11657940EA0136001406000000000000
B0526013209000S11657848EA0136201408000000000000
B0526053208951S11657793EA0136501410000000000000
B0526093208907S11657819EA0136101405000000000000
B0526133208907S11657875EA0136501411000000000000
B0526173208966S11657874EA0137301420000000000000
B0526213209007S11657800EA0137601421000000000000
B0526253208994S11657709EA0137401420000000000000
B0526293208940S11657660EA0137501422000000000000
B0526333208886S11657673EA0138201429000000000000
B0526373208862S11657723EA0138501431000000000000
B0526413208857S11657785EA0138001424000000000000
B0526453208847S11657855EA0136501405000000000000
B0526493208833S11657931EA0134801389000000000000
B0526533208815S11658010EA0133601371000000000000
B0526573208790S11658091EA0132001358000000000000
B0527013208763S11658173EA0130701344000000000000
B0527053208737S11658256EA0129901342000000000000
B0527093208712S11658335EA0129901344000000000000
B0527133208688S11658412EA0130101344000000000000
B0527173208662S11658485EA0129801339000000000000
B0527213208636S11658560EA0129101332000000000000
B0527253208607S11658633EA0128501325000000000000
B0527293208578S11658704EA0128401324000000000000
B0527333208551S11658777EA0128501323000000000000
B0527373208517S11658845EA0129401342000000000000
B0527413208485S11658907EA0130901352000000000000
B0527453208455S11658973EA0130801345000000000000
B0527493208433S11659046EA0130401343000000000000
B0527533208420S11659116EA0131001352000000000000
B0527573208409S11659180EA0132401367000000000000
B0528013208400S11659240EA0133301376000000000000
B0528053208404S11659298EA0134601388000000000000
B0528093208456S11659310EA0135601399000000000000
B0528133208490S11659235EA0136101402000000000000
B0528173208454S11659154EA0136101402000000000000
B0528213208399S11659159EA0136501409000000000000
B0528253208415S11659207EA0137601425000000000000
B0528293208472S11659181EA0139001436000000000000
B0528333208490S11659100EA0139401437000000000000
B0528373208452S11659028EA0139801442000000000000
B0528413208399S11659028EA0140101444000000000000
B0528453208395S11659080EA0140501452000000000000
B0528493208454S11659072EA0141601463000000000000
B0528533208476S11658990EA0142101466000000000000
B0528573208433S11658924EA0142101466000000000000
B0529013208373S11658925EA0142901475000000000000
B0529053208347S11658973EA0144601498000000000000
B0529093208392S11658993EA0146801519000000000000
B0529133208433S11658919EA0147401522000000000000
B0529173208391S11658854EA0148201535000000000000
B0529213208343S11658873EA0149901552000000000000
B0529253208350S11658927EA0151301569000000000000
B0529293208408S11658924EA0153301593000000000000
B0529333208444S11658850EA0155001603000000000000
B0529373208405S11658780EA0154901602000000000000
B0529413208350S11658795EA0155701614000000000000
B0529453208347S11658854EA0157301631000000000000
B0529493208402S11658863EA0158701642000000000000
B0529533208444S11658790EA0159501653000000000000
B0529573208420S11658706EA0159801652000000000000
B0530013208356S11658697EA0160101663000000000000
B0530053208329S11658752EA0161501676000000000000
B0530093208368S11658794EA0162501684000000000000
B0530133208429S11658749EA0163201690000000000000
B0530173208439S11658652EA0163401689000000000000
B0530213208386S11658590EA0163401695000000000000
B0530263208330S11658637EA0164801709000000000000
B0530303208340S11658703EA0165001709000000000000
B0530343208396S11658720EA0166001724000000000000
B0530383208439S11658654EA0166801727000000000000
B0530423208421S11658565EA0167401738000000000000
B0530463208364S11658534EA0168401747000000000000
B0530503208325S11658577EA0168601744000000000000
B0530543208326S11658643EA0167901739000000000000
B0530583208374S11658680EA0168001739000000000000
B0531023208433S11658643EA0167601733000000000000
B0531063208451S11658550EA0166901730000000000000
B0531103208447S11658443EA0166701728000000000000
B0531143208426S11658339EA0166901734000000000000
B0531183208373S11658270EA0168001747000000000000
B0531223208326S11658299EA0169301760000000000000
B0531263208365S11658335EA0170301768000000000000
B0531303208422S11658284EA0170501766000000000000
B0531343208417S11658193EA0170501770000000000000
B0531383208360S11658139EA0170901773000000000000
B0531423208299S11658145EA0171601783000000000000
B0531463208281S11658197EA0172001783000000000000
B0531503208322S11658243EA0171401778000000000000
B0531543208389S11658229EA0172601796000000000000
B0531583208411S11658154EA0174201808000000000000
B0532023208376S11658089EA0173701801000000000000
B0532063208318S11658088EA0173201798000000000000
B0532103208318S11658140EA0173501799000000000000
B0532143208377S11658147EA0173401803000000000000
B0532183208430S11658092EA0174001807000000000000
B0532223208447S11658002EA0173801803000000000000
B0532263208431S11657904EA0173001794000000000000
B0532303208404S11657803EA0172901794000000000000
B0532343208373S11657706EA0172101785000000000000
B0532383208338S11657607EA0171701782000000000000
B0532423208300S11657512EA0171801788000000000000
B0532463208261S11657424EA0173001800000000000000
B0532503208208S11657372EA0175201823000000000000
B0532543208160S11657400EA0177001837000000000000
B0532583208169S11657467EA0177101838000000000000
B0533023208227S11657498EA0177301841000000000000
B0533063208291S11657476EA0177501842000000000000
B0533103208334S11657410EA0177401839000000000000
B0533143208334S11657329EA0177501843000000000000
B0533183208287S11657289EA0177901846000000000000
B0533223208234S11657313EA0177501843000000000000
B0533263208223S11657386EA0177501841000000000000
B0533303208273S11657447EA0177201842000000000000
B0533343208344S11657441EA0178301856000000000000
B0533383208363S11657363EA0179101861000000000000
B0533423208318S11657299EA0178701853000000000000
B0533463208252S11657257EA0177801845000000000000
B0533503208177S11657224EA0177201839000000000000
B0533543208096S11657189EA0176101824000000000000
B0533583208014S11657143EA0174701813000000000000
B0534023207927S11657098EA0173201799000000000000
B0534063207837S11657060EA0171801786000000000000
B0534103207742S11657029EA0170801775000000000000
B0534143207650S11657004EA0170501774000000000000
B0534183207562S11656987EA0170701774000000000000
B0534223207479S11656984EA0170201766000000000000
B0534263207401S11657008EA0169001755000000000000
B0534303207324S11657040EA0168101744000000000000
B0534343207248S11657078EA0167201736000000000000
B0534383207173S11657116EA0166501728000000000000
B0534423207098S11657155EA0166601734000000000000
B0534463207024S11657195EA0165701713000000000000
B0534503206949S11657239EA0164101705000000000000
B0534543206877S11657285EA0164101707000000000000
B0534583206808S11657329EA0164101705000000000000
B0535023206739S11657372EA0163901703000000000000
B0535063206667S11657412EA0163301694000000000000
B0535113206575S11657464EA0161801678000000000000
B0535153206500S11657508EA0160801667000000000000
B0535193206424S11657553EA0159801658000000000000
B0535233206349S11657595EA0159301652000000000000
B0535273206272S11657637EA0158501645000000000000
B0535313206199S11657676EA0158701654000000000000
B0535353206132S11657712EA0158101634000000000000
B0535393206059S11657748EA0156001616000000000000
B0535433205990S11657789EA0155701615000000000000
B0535473205922S11657831EA0155301607000000000000
B0535513205851S11657871EA0154801606000000000000
B0535553205789S11657926EA0154901604000000000000
B0535593205734S11657984EA0155301610000000000000
B0536033205685S11658045EA0154401595000000000000
B0536073205631S11658106EA0152801579000000000000
B0536113205577S11658170EA0151801572000000000000
B0536153205535S11658243EA0151801570000000000000
B0536193205495S11658318EA0150701559000000000000
B0536233205452S11658395EA0150301553000000000000
B0536273205408S11658472EA0149001535000000000000
B0536313205347S11658546EA0147001520000000000000
B0536353205275S11658606EA0146301521000000000000
B0536393205201S11658652EA0146901523000000000000
B0536433205136S11658710EA0147201528000000000000
B0536473205074S11658767EA0147001523000000000000
B0536513205015S11658823EA0147701535000000000000
B0536553204958S11658875EA0148401536000000000000
B0536593204898S11658925EA0148701539000000000000
B0537033204841S11658977EA0149201547000000000000
B0537073204784S11659031EA0148501530000000000000
B0537113204719S11659087EA0147301526000000000000
B0537153204656S11659141EA0146701518000000000000
B0537193204590S11659194EA0145901506000000000000
B0537233204525S11659254EA0144601492000000000000
B0537273204465S11659323EA0143801489000000000000
B0537313204416S11659397EA0143401480000000000000
B0537353204368S11659474EA0142501473000000000000
B0537393204313S11659543EA0142401467000000000000
B0537433204256S11659609EA0141101453000000000000
B0537473204188S11659664EA0139401431000000000000
B0537513204101S11659685EA0138401430000000000000
B0537553204014S11659691EA0138301426000000000000
B0537593203928S11659695EA0137601415000000000000
B0538033203839S11659699EA0136101403000000000000
B0538073203750S11659703EA0135401399000000000000
B0538113203664S11659708EA0135301397000000000000
B0538153203586S11659730EA0135501399000000000000
B0538193203524S11659776EA0135101393000000000000
B0538233203469S11659831EA0134501386000000000000
B0538273203410S11659885EA0133301371000000000000
B0538313203345S11659934EA0132301364000000000000
B0538353203273S11659973EA0131801354000000000000
B0538393203194S11700002EA0130201341000000000000
B0538433203113S11700023EA0129301331000000000000
B0538473203033S11700036EA0128301318000000000000
B0538513202951S11700043EA0127501313000000000000
B0538553202869S11700051EA0127001305000000000000
B0538593202786S11700062EA0126101300000000000000
B0539033202704S11700073EA0126001297000000000000
B0539073202622S11700088EA0126101298000000000000
B0539113202561S11700127EA0127801322000000000000
B0539153202565S11700188EA0130101343000000000000
B0539193202631S11700167EA0130801349000000000000
B0539233202637S11700077EA0131901365000000000000
B0539273202587S11700034EA0132701369000000000000
B0539313202544S11700068EA0132701368000000000000
B0539353202587S11700106EA0134301390000000000000
B0539393202637S11700056EA0136001405000000000000
B0539433202630S11659974EA0135301395000000000000
B0539473202570S11659939EA0135101400000000000000
B0539513202514S11659958EA0135901400000000000000
B0539553202474S11700010EA0135101391000000000000
B0539593202435S11700072EA0134101381000000000000
B0540033202392S11700140EA0132801369000000000000
B0540073202349S11700211EA0132701373000000000000
B0540113202315S11700289EA0132701372000000000000
B0540153202282S11700368EA0132701370000000000000
B0540193202254S11700450EA0132001363000000000000
B0540233202224S11700533EA0131301356000000000000
B0540273202194S11700611EA0131301357000000000000
B0540313202164S11700688EA0130201344000000000000
B0540353202126S11700762EA0129401333000000000000
B0540393202087S11700838EA0128101321000000000000
B0540433202047S11700910EA0128301324000000000000
B0540473202002S11700981EA0127501310000000000000
B0540513201943S11701046EA0124901281000000000000
B0540553201861S11701090EA0123501271000000000000
B0540593201775S11701122EA0122601260000000000000
B0541033201688S11701147EA0121701250000000000000
B0541073201604S11701165EA0121001246000000000000
B0541113201523S11701181EA0121001241000000000000
B0541153201445S11701198EA0119701227000000000000
B0541193201367S11701217EA0118501217000000000000
B0541233201291S11701237EA0118301216000000000000
B0541273201216S11701258EA0118401217000000000000
B0541313201144S11701280EA0117601203000000000000
B0541353201070S11701302EA0116401191000000000000
B0541393200992S11701323EA0114901177000000000000
B0541433200915S11701346EA0114101169000000000000
B0541473200841S11701369EA0113501162000000000000
B0541513200765S11701390EA0112601154000000000000
B0541553200690S11701411EA0112301148000000000000
B0541593200615S11701433EA0111401139000000000000
B0542033200537S11701454EA0110901134000000000000
B0542073200459S11701472EA0110101123000000000000
B0542113200381S11701488EA0109401122000000000000
B0542153200308S11701512EA0109801124000000000000
B0542193200261S11701566EA0109901129000000000000
B0542233200235S11701631EA0109401117000000000000
B0542273200201S11701697EA0107701096000000000000
B0542313200147S11701753EA0105401074000000000000
B0542353200076S11701792EA0103201053000000000000
B0542393159997S11701817EA0101401036000000000000
B0542433159916S11701833EA0100301018000000000000
B0542473159832S11701846EA0098200998000000000000
B0542513159746S11701858EA0096800986000000000000
B0542553159662S11701867EA0095700969000000000000
B0542593159577S11701872EA0094400964000000000000
B0543033159495S11701878EA0093900954000000000000
B0543073159411S11701884EA0092700944000000000000
B0543113159328S11701892EA0091600930000000000000
B0543153159242S11701896EA0090600919000000000000
B0543193159157S11701897EA0090200920000000000000
B0543233159078S11701906EA0090500920000000000000
B0543273159003S11701924EA0090800927000000000000
B0543313158951S11701971EA0092100943000000000000
B0543353158979S11702012EA0094400962000000000000
B0543393159027S11701950EA0095300966000000000000
B0543433158991S11701875EA0096200980000000000000
B0543473158943S11701882EA0097100984000000000000
B0543513158945S11701927EA0096800981000000000000
B0543553159001S11701940EA0096700981000000000000
B0543593159044S11701865EA0096900988000000000000
B0544033159012S11701783EA0098000997000000000000
B0544073158952S11701774EA0098200994000000000000
B0544113158958S11701826EA0098300997000000000000
B0544153159021S11701815EA0099901018000000000000
B0544193159053S11701739EA0100701024000000000000
B0544233159023S11701662EA0101501035000000000000
B0544273158973S11701666EA0102401039000000000000
B0544313158977S11701715EA0102301039000000000000
B0544353159038S11701715EA0102601048000000000000
B0544393159048S11701629EA0103901060000000000000
B0544433158991S11701601EA0104701069000000000000
B0544473158970S11701645EA0105401077000000000000
B0544513159022S11701657EA0106301088000000000000
B0544553159060S11701586EA0107201097000000000000
B0544593159031S11701508EA0108401112000000000000
B0545033158978S11701495EA0109301113000000000000
B0545073158960S11701545EA0108901111000000000000
B0545113159006S11701575EA0108901114000000000000
B0545153159040S11701498EA0110001126000000000000
B0545193158993S11701434EA0110901134000000000000
B0545233158949S11701460EA0111901150000000000000
B0545273158967S11701506EA0113201161000000000000
B0545313159027S11701489EA0113401157000000000000
B0545353159048S11701404EA0113901170000000000000
B0545393159005S11701343EA0114801176000000000000
B0545433158961S11701368EA0115601185000000000000
B0545473158980S11701419EA0115901187000000000000
B0545513159040S11701398EA0116101192000000000000
B0545553159043S11701315EA0117401206000000000000
B0545593158987S11701276EA0117301203000000000000
B0546033158939S11701307EA0117601210000000000000
B0546073158957S11701356EA0118101213000000000000
B0546113159023S11701339EA0118501215000000000000
B0546153159053S11701248EA0118301217000000000000
B0546193159055S11701143EA0118701223000000000000
B0546233159010S11701070EA0120001240000000000000
B0546273158956S11701081EA0120901239000000000000
B0546313158953S11701144EA0119701224000000000000
B0546353158969S11701220EA0118501217000000000000
B0546393159004S11701282EA0119401229000000000000
B0546433159071S11701280EA0120101233000000000000
B0546473159136S11701213EA0119701224000000000000
B0546513159195S11701124EA0119001222000000000000
B0546553159190S11701033EA0120901253000000000000
B0546593159142S11701052EA0122601272000000000000
B0547033159178S11701095EA0124201286000000000000
B0547073159238S11701053EA0124901291000000000000
B0547113159247S11700965EA0125401292000000000000
B0547153159199S11700896EA0124701286000000000000
B0547193159129S11700890EA0124701288000000000000
B0547233159108S11700946EA0125601304000000000000
B0547273159168S11700956EA0127101312000000000000
B0547313159218S11700884EA0126801307000000000000
B0547353159194S11700795EA0127001318000000000000
B0547393159127S11700767EA0128101325000000000000
B0547433159082S11700809EA0128801333000000000000
B0547473159109S11700861EA0130301348000000000000
B0547513159174S11700864EA0130601348000000000000
B0547553159213S11700790EA0131101357000000000000
B0547593159181S11700717EA0132001364000000000000
B0548033159113S11700702EA0131001351000000000000
B0548073159039S11700722EA0129901340000000000000
B0548113158969S11700758EA0129001328000000000000
B0548153158893S11700801EA0126301299000000000000
B0548193158806S11700843EA0124401279000000000000
B0548233158717S11700882EA0122901262000000000000
B0548273158624S11700920EA0121101245000000000000
B0548313158533S11700959EA0120101238000000000000
B0548353158445S11700996EA0120001237000000000000
B0548393158360S11701031EA0119501231000000000000
B0548433158276S11701066EA0118801223000000000000
B0548473158193S11701100EA0118201216000000000000
B0548513158112S11701135EA0117601210000000000000
B0548553158031S11701169EA0117001201000000000000
B0548593157953S11701202EA0116801200000000000000
B0549033157875S11701230EA0115801187000000000000
B0549073157794S11701256EA0114801177000000000000
B0549113157713S11701282EA0114001168000000000000
B0549153157632S11701311EA0113101159000000000000
B0549193157554S11701338EA0112901161000000000000
B0549233157479S11701367EA0112801157000000000000
B0549273157407S11701394EA0112501153000000000000
B0549313157337S11701423EA0112101147000000000000
B0549353157268S11701453EA0111401141000000000000
B0549393157199S11701485EA0110801139000000000000
B0549433157129S11701512EA0111101143000000000000
B0549473157063S11701537EA0112101152000000000000
B0549513157001S11701566EA0112201146000000000000
B0549553156932S11701590EA0110801134000000000000
B0549593156858S11701618EA0110001124000000000000
B0550033156785S11701645EA0109101118000000000000
B0550073156713S11701674EA0109101117000000000000
B0550113156644S11701700EA0108801113000000000000
B0550153156578S11701727EA0108401108000000000000
B0550193156513S11701754EA0107801100000000000000
B0550233156452S11701791EA0107901104000000000000
B0550273156388S11701826EA0108601113000000000000
B0550313156334S11701869EA0109801126000000000000
B0550353156352S11701921EA0110501130000000000000
B0550393156419S11701879EA0109901122000000000000
B0550433156426S11701783EA0109401118000000000000
B0550473156374S11701711EA0109601125000000000000
B0550513156304S11701676EA0110201127000000000000
B0550553156232S11701680EA0110001125000000000000
B0550593156169S11701714EA0109501119000000000000
B0551033156106S11701755EA0109601126000000000000
B0551073156045S11701798EA0110101127000000000000
B0551113155984S11701845EA0109001114000000000000
B0551153155924S11701898EA0109301119000000000000
B0551193155931S11701958EA0111301139000000000000
B0551233155997S11701944EA0110601125000000000000
B0551273156065S11701872EA0109201121000000000000
B0551313156104S11701783EA0110501142000000000000
B0551353156062S11701719EA0112701151000000000000
B0551393155998S11701719EA0111401131000000000000
B0551433155935S11701746EA0109801120000000000000
B0551473155873S11701788EA0108401104000000000000
B0551513155811S11701839EA0107201092000000000000
B0551553155746S11701887EA0105101069000000000000
B0551593155668S11701918EA0103901057000000000000
B0552033155585S11701919EA0103701059000000000000
B0552073155504S11701902EA0103401051000000000000
B0552113155425S11701885EA0103601064000000000000
B0552153155361S11701913EA0105601085000000000000
B0552193155387S11701969EA0107301094000000000000
B0552233155452S11701937EA0106701083000000000000
B0552273155465S11701846EA0105001069000000000000
B0552313155422S11701765EA0104601071000000000000
B0552353155357S11701736EA0105201080000000000000
B0552393155294S11701752EA0106501089000000000000
B0552433155283S11701810EA0108201108000000000000
B0552473155343S11701810EA0109501120000000000000
B0552513155389S11701742EA0109501118000000000000
B0552553155361S11701667EA0110101130000000000000
B0552593155314S11701688EA0112201151000000000000
B0553033155337S11701737EA0113801168000000000000
B0553073155398S11701720EA0114601171000000000000
B0553113155420S11701638EA0113901169000000000000
B0553153155373S11701577EA0114501176000000000000
B0553193155311S11701584EA0114101167000000000000
B0553233155283S11701646EA0114901181000000000000
B0553273155340S11701681EA0116701197000000000000
B0553313155402S11701627EA0116201187000000000000
B0553353155391S11701534EA0116201200000000000000
B0553393155330S11701485EA0117001200000000000000
B0553433155262S11701503EA0116801205000000000000
B0553473155266S11701563EA0118501224000000000000
B0553513155338S11701560EA0118601210000000000000
B0553553155386S11701476EA0117101206000000000000
B0553593155372S11701378EA0117801216000000000000
B0554033155308S11701347EA0119001229000000000000
B0554073155286S11701399EA0120701244000000000000
B0554113155331S11701442EA0121101239000000000000
B0554153155398S11701407EA0120801246000000000000
B0554193155409S11701321EA0121901254000000000000
B0554233155369S11701256EA0121701244000000000000
B0554273155304S11701254EA0120701239000000000000
B0554313155244S11701293EA0120001231000000000000
B0554353155184S11701343EA0120101234000000000000
B0554393155152S11701410EA0120901244000000000000
B0554433155213S11701437EA0121901249000000000000
B0554473155273S11701376EA0120901240000000000000
B0554513155270S11701282EA0120601240000000000000
B0554553155212S11701225EA0120401233000000000000
B0554593155136S11701224EA0119701229000000000000
B0555033155074S11701260EA0119801228000000000000
B0555073155083S11701319EA0120701240000000000000
B0555113155145S11701325EA0120901236000000000000
B0555153155208S11701267EA0119101214000000000000
B0555193155274S11701191EA0117701209000000000000
B0555233155342S11701107EA0117201202000000000000
B0555273155364S11701000EA0117601213000000000000
B0555313155316S11700922EA0119001225000000000000
B0555353155251S11700936EA0120201237000000000000
B0555393155274S11700990EA0121601250000000000000
B0555433155321S11700929EA0123401273000000015000
B0555473155283S11700868EA0125101286000000015000
B0555513155238S11700895EA0125701291000000000000
B0555553155260S11700948EA0126301298000000000000
B0555593155322S11700917EA0127701314000000000000
B0556033155318S11700832EA0128901327000000000000
B0556073155262S11700804EA0129801335000000000000
B0556113155238S11700851EA0130301338000000000000
B0556153155290S11700878EA0130901351000000000000
B0556193155338S11700814EA0132201366000000000000
B0556233155317S11700734EA0133201373000000000000
B0556273155259S11700710EA0133701376000000000000
B0556313155218S11700752EA0133201366000000000000
B0556353155243S11700813EA0133001372000000000000
B0556393155309S11700831EA0134501387000000000000
B0556433155353S11700769EA0135401397000000000000
B0556473155321S11700700EA0135901400000000000000
B0556513155261S11700704EA0136001404000000000000
B0556553155264S11700757EA0137801423000000000000
B0556593155320S11700751EA0139301434000000000000
B0557033155351S11700675EA0139601441000000000000
B0557073155318S11700606EA0140401449000000000000
B0557113155268S11700615EA0140901451000000000000
B0557153155275S11700667EA0141501459000000000000
B0557193155335S11700653EA0142401473000000000000
B0557233155348S11700571EA0143901490000000000000
B0557273155300S11700527EA0145401499000000000000
B0557313155253S11700548EA0145501497000000000000
B0557353155257S11700608EA0145501495000000000000
B0557393155316S11700611EA0146001507000000000000
B0557433155350S11700532EA0146201507000000000000
B0557473155329S11700441EA0146701518000000000000
B0557513155268S11700418EA0147001514000000000000
B0557553155216S11700462EA0145701497000000000000
B0557593155166S11700523EA0143501472000000000000
B0558033155116S11700597EA0141401455000000000000
B0558073155078S11700676EA0140101440000000000000
B0558113155031S11700753EA0139101432000000000000
B0558153154975S11700819EA0138201423000000000000
B0558193154913S11700881EA0137601416000000000000
B0558233154846S11700938EA0136901406000000000000
B0558273154780S11700995EA0136601400000000000000
B0558313154714S11701052EA0135301388000000000000
B0558353154654S11701116EA0134501384000000000000
B0558393154596S11701177EA0134401383000000000000
B0558433154537S11701233EA0134501382000000000000
B0558473154477S11701289EA0133601374000000000000
B0558513154415S11701346EA0133201364000000000000
B0558553154352S11701407EA0132201353000000000000
B0558593154297S11701475EA0131401349000000000000
B0559033154250S11701551EA0130901345000000000000
B0559073154198S11701623EA0130601344000000000000
B0559113154143S11701689EA0130301336000000000000
B0559153154086S11701754EA0129101325000000000000
B0559193154030S11701824EA0128001312000000000000
B0559233153969S11701888EA0127901314000000000000
B0559273153909S11701949EA0128001312000000000000
B0559313153849S11702013EA0127101300000000000000
B0559353153797S11702080EA0126101291000000000000
B0559393153743S11702144EA0125201282000000000000
B0559433153686S11702201EA0124301271000000000000
B0559473153626S11702256EA0123401262000000000000
B0559513153561S11702303EA0123301263000000000000
B0559553153496S11702346EA0123101256000000000000
B0559593153432S11702392EA0122201246000000000000
B0600033153367S11702441EA0120901231000000000000
B0600073153298S11702481EA0120301234000000000000
B0600113153244S11702530EA0121401246000000000000
B0600153153208S11702587EA0121801244000000000000
B0600193153190S11702650EA0120701232000000000000
B0600233153167S11702715EA0119601222000000000000
B0600273153132S11702775EA0119001217000000000000
B0600313153101S11702838EA0118701215000000000000
B0600353153071S11702897EA0119501229000000000000
B0600393153041S11702953EA0120301228000000000000
B0600433153012S11703009EA0119701221000000000000
B0600473152978S11703067EA0119001213000000000000
B0600513152943S11703133EA0118701214000000000000
B0600553152908S11703198EA0119301223000000000000
B0600593152883S11703258EA0121601247000000000000
B0601033152926S11703291EA0122101241000000000000
B0601073152980S11703230EA0120701231000000000000
B0601113152972S11703136EA0119701222000000000000
B0601153152919S11703065EA0119801226000000000000
B0601193152856S11703070EA0120901237000000000000
B0601233152829S11703128EA0121201234000000000000
B0601273152863S11703183EA0120201224000000000000
B0601313152928S11703143EA0119801224000000000000
B0601353152928S11703055EA0120001223000000000000
B0601393152881S11702979EA0119501220000000000000
B0601433152815S11702937EA0120101230000000000000
B0601473152770S11702979EA0121001236000000000000
B0601513152763S11703052EA0119601216000000000000
B0601553152746S11703130EA0117501199000000000000
B0601593152729S11703208EA0116201182000000000000
B0602033152691S11703284EA0114301163000000000000
B0602073152633S11703344EA0114101170000000000000
B0602113152571S11703399EA0114001162000000000000
B0602153152513S11703458EA0113101152000000000000
B0602193152458S11703522EA0112901153000000000000
B0602233152404S11703583EA0112701149000000000000
B0602273152354S11703648EA0112201142000000000000
B0602313152305S11703713EA0111401137000000000000
B0602353152258S11703776EA0112301148000000000000
B0602393152211S11703838EA0112601148000000000000
B0602433152167S11703903EA0113001155000000000000
B0602473152183S11703963EA0114801174000000000000
B0602513152239S11703919EA0116001185000000000000
B0602553152233S11703826EA0115601178000000000000
B0602593152170S11703800EA0115601179000000000000
B0603033152153S11703856EA0115501177000000000000
B0603073152211S11703869EA0116701195000000000000
B0603113152256S11703809EA0117201201000000000000
B0603153152236S11703728EA0116901198000000000000
B0603193152175S11703696EA0116801197000000000000
B0603233152119S11703721EA0116701198000000000000
B0603273152136S11703773EA0117501208000000000000
B0603313152193S11703733EA0118301215000000000000
B0603353152188S11703642EA0118901220000000000000
B0603393152123S11703614EA0118601217000000000000
B0603433152110S11703673EA0120001232000000000000
B0603473152167S11703679EA0121601247000000000000
B0603513152205S11703608EA0122301259000000000000
B0603553152185S11703525EA0123501270000000000000
B0603593152129S11703500EA0123501265000000000000
B0604033152102S11703547EA0124101272000000000000
B0604073152141S11703581EA0125001283000000000000
B0604113152193S11703542EA0125601286000000000000
B0604153152197S11703458EA0125501286000000000000
B0604193152148S11703399EA0125301284000000000000
B0604233152098S11703423EA0125601288000000000000
B0604273152097S11703482EA0126101296000000000000
B0604313152157S11703478EA0127501306000000000000
B0604353152178S11703395EA0127901313000000000000
B0604393152129S11703327EA0128101311000000000000
B0604433152063S11703338EA0127601308000000000000
B0604473152075S11703397EA0128401319000000000000
B0604513152139S11703370EA0130401345000000000000
B0604553152155S11703287EA0131601355000000000000
B0604593152115S11703213EA0132501363000000000000
B0605033152055S11703201EA0133301371000000000000
B0605073152050S11703248EA0135201393000000000000
B0605113152102S11703252EA0136701409000000000000
B0605153152140S11703185EA0137301416000000000000
B0605193152116S11703105EA0138001422000000000000
B0605233152059S11703083EA0138601430000000000000
B0605273152040S11703126EA0140401448000000000000
B0605313152083S11703158EA0141401458000000000000
B0605353152137S11703119EA0143001478000000000000
B0605393152139S11703036EA0143901482000000000000
B0605433152087S11702987EA0144101485000000000000
B0605473152036S11703007EA0145001496000000000000
B0605513152024S11703062EA0146201504000000000000
B0605553152068S11703105EA0146301508000000000000
B0605593152132S11703075EA0148501532000000000000
B0606033152137S11702992EA0149301541000000000000
B0606073152080S11702945EA0149001538000000000000
B0606113152028S11702975EA0149801552000000000000
B0606153152048S11703027EA0151501570000000000000
B0606193152107S11703023EA0152501580000000000000
B0606233152144S11702949EA0153701592000000000000
B0606273152118S11702866EA0154401597000000000000
B0606313152055S11702828EA0155201605000000000000
B0606353152001S11702853EA0155801610000000000000
B0606393151999S11702912EA0156201614000000000000
B0606433152027S11702974EA0155601603000000000000
B0606473152053S11703046EA0154901598000000000000
B0606513152070S11703128EA0154001590000000000000
B0606553152079S11703215EA0152301562000000000000
B0606593152062S11703312EA0150201548000000000000
B0607033152024S11703403EA0150401558000000000000
B0607073151984S11703487EA0152501584000000000000
B0607113151945S11703566EA0153901586000000000000
B0607153151902S11703647EA0152901573000000000000
B0607193151853S11703729EA0151801565000000000000
B0607233151806S11703809EA0151501559000000000000
B0607273151762S11703893EA0149501536000000000000
B0607313151720S11703977EA0148501533000000000000
B0607353151678S11704056EA0148601531000000000000
B0607393151638S11704132EA0148401531000000000000
B0607433151595S11704207EA0147401511000000000000
B0607473151538S11704283EA0144401479000000000000
B0607513151465S11704352EA0142601467000000000000
B0607553151387S11704410EA0142201464000000000000
B0607593151309S11704465EA0141901459000000000000
B0608033151231S11704519EA0141201452000000000000
B0608073151154S11704574EA0140301445000000000000
B0608113151080S11704626EA0140101441000000000000
B0608153151011S11704675EA0139901439000000000000
B0608193150944S11704723EA0139401434000000000000
B0608233150880S11704775EA0139501434000000000000
B0608273150828S11704836EA0139001427000000000000
B0608313150777S11704898EA0138301419000000000000
B0608353150735S11704964EA0137301407000000000000
B0608393150680S11705025EA0135201381000000000000
B0608433150615S11705082EA0134101372000000000000
B0608473150550S11705134EA0134201382000000000000
B0608513150498S11705190EA0135301391000000000000
B0608553150463S11705258EA0136101400000000000000
B0608593150433S11705324EA0137101407000000000000
B0609033150406S11705389EA0137501414000000000000
B0609073150377S11705450EA0137901417000000000000
B0609113150345S11705510EA0138401422000000000000
B0609153150312S11705566EA0139401432000000000000
B0609193150282S11705622EA0139901436000000000000
B0609233150254S11705679EA0139901431000000000000
B0609273150224S11705743EA0138701419000000000000
B0609313150192S11705811EA0138701429000000000000
B0609353150216S11705865EA0141601461000000000000
B0609393150269S11705813EA0143201469000000000000
B0609433150251S11705722EA0142801463000000000000
B0609473150190S11705672EA0143601481000000000000
B0609513150144S11705693EA0145601498000000000000
B0609553150173S11705728EA0146401503000000000000
B0609593150230S11705679EA0146301504000000000000
B0610033150224S11705584EA0146701510000000000000
B0610073150169S11705531EA0147701521000000000000
B0610113150121S11705553EA0148401525000000000000
B0610153150087S11705602EA0147501512000000000000
B0610193150051S11705662EA0146001499000000000000
B0610233150012S11705724EA0145501494000000000000
B0610273149971S11705789EA0145301492000000000000
B0610313149935S11705858EA0145501496000000000000
B0610353149899S11705925EA0146001504000000000000
B0610393149867S11705990EA0147001514000000000000
B0610433149836S11706053EA0146501500000000000000
B0610473149804S11706125EA0144501481000000000000
B0610513149766S11706200EA0142501459000000000000
B0610553149724S11706279EA0141601452000000000000
B0610593149675S11706352EA0141801456000000000000
B0611033149627S11706422EA0141501449000000000000
B0611073149576S11706490EA0140101432000000000000
B0611113149507S11706545EA0138001410000000000000
B0611153149433S11706589EA0136901403000000000000
B0611193149360S11706630EA0137301414000000000000
B0611233149303S11706685EA0139501440000000000000
B0611273149271S11706745EA0142801474000000000000
B0611313149318S11706763EA0145801499000000000000
B0611353149342S11706681EA0145901500000000000000
B0611393149288S11706632EA0147301519000000000000
B0611433149263S11706669EA0149401539000000000000
B0611473149308S11706693EA0150601549000000000000
B0611513149359S11706637EA0150901553000000000000
B0611553149333S11706560EA0152101570000000000000
B0611593149284S11706569EA0154001587000000000000
B0612033149306S11706612EA0155101600000000000000
B0612073149366S11706593EA0155801607000000000000
B0612113149383S11706511EA0156101609000000000000
B0612153149328S11706471EA0157101630000000000000
B0612193149305S11706507EA0159301648000000000000
B0612233149353S11706524EA0160201651000000000000
B0612273149398S11706459EA0160501660000000000000
B0612313149368S11706389EA0162001676000000000000
B0612353149314S11706387EA0163101681000000000000
B0612393149314S11706437EA0163401688000000000000
B0612433149373S11706437EA0165101705000000000000
B0612473149414S11706365EA0165601711000000000000
B0612513149385S11706290EA0166601720000000000000
B0612553149325S11706278EA0166801724000000000000
B0612593149297S11706324EA0168001738000000000000
B0613033149328S11706370EA0169301751000000000000
B0613073149390S11706351EA0170901771000000000000
B0613113149407S11706272EA0171801775000000000000
B0613153149358S11706213EA0171501773000000000000
B0613193149298S11706221EA0172001782000000000000
B0613233149284S11706278EA0173401795000000000000
B0613273149329S11706320EA0174401806000000000000
B0613313149396S11706290EA0175701822000000000000
B0613353149396S11706209EA0177401838000000000000
B0613393149342S11706173EA0177901838000000000000
B0613433149298S11706208EA0178401844000000000000
B0613473149318S11706266EA0179701860000000000000
B0613513149384S11706261EA0181101879000000000000
B0613553149411S11706186EA0182801893000000000000
B0613593149376S11706122EA0183101897000000000000
B0614033149318S11706120EA0183501900000000000000
B0614073149299S11706178EA0184201910000000000000
B0614113149349S11706222EA0185401922000000000000
B0614153149416S11706214EA0186601936000000000000
B0614193149454S11706147EA0187501945000000000000
B0614233149427S11706078EA0188401956000000000000
B0614273149372S11706065EA0189301963000000000000
B0614313149344S11706114EA0190301973000000000000
B0614353149367S11706175EA0191701985000000000000
B0614393149429S11706190EA0191801987000000000000
B0614433149483S11706130EA0191601988000000000000
B0614473149484S11706043EA0192301999000000000000
B0614513149433S11706004EA0193802015000000000000
B0614553149398S11706042EA0195402031000000000000
B0614593149428S11706097EA0196602044000000000000
B0615033149493S11706087EA0198102057000000000000
B0615073149511S11706012EA0198802065000000000000
B0615113149470S11705956EA0199002066000000000000
B0615153149415S11705970EA0199602074000000000000
B0615193149390S11706038EA0200502083000000000000
B0615233149432S11706088EA0202002102000000000000
B0615273149484S11706051EA0203502113000000000000
B0615313149479S11705975EA0203902116000000000000
B0615353149428S11705954EA0204802132000000000000
B0615393149429S11706025EA0206402144000000000000
B0615433149492S11706030EA0207602159000000000000
B0615473149518S11705964EA0209002172000000000000
B0615513149485S11705910EA0209802185000000000000
B0615553149436S11705918EA0210902190000000000000
B0615593149397S11705973EA0209802172000000000000
B0616033149364S11706056EA0207602147000000000000
B0616073149314S11706142EA0203502100000000000000
B0616113149240S11706224EA0201102083000000000000
B0616153149160S11706298EA0200002069000000000000
B0616193149074S11706365EA0198202053000000000000
B0616233148989S11706433EA0197602052000000000000
B0616273148904S11706500EA0197602040000000000000
B0616313148816S11706564EA0196202031000000000000
B0616353148730S11706630EA0196302037000000000000
B0616393148644S11706689EA0196602037000000000000
B0616433148561S11706744EA0196902042000000000000
B0616473148479S11706794EA0197102040000000000000
B0616513148401S11706848EA0196002026000000000000
B0616553148318S11706907EA0193802004000000000000
B0616593148232S11706966EA0193202000000000000000
B0617033148144S11707014EA0193001996000000000000
B0617073148055S11707059EA0192001987000000000000
B0617113147968S11707102EA0191501982000000000000
B0617153147881S11707145EA0190701973000000000000
B0617193147793S11707187EA0189601958000000000000
B0617233147703S11707226EA0188601951000000000000
B0617273147615S11707266EA0188701942000000000000
B0617313147526S11707305EA0187401929000000000000
B0617353147434S11707342EA0185701909000000000000
B0617393147339S11707381EA0184401896000000000000
B0617433147243S11707421EA0183201882000000000000
B0617473147145S11707461EA0181901871000000000000
B0617513147049S11707500EA0180901863000000000000
B0617553146953S11707539EA0180301858000000000000
B0617593146862S11707576EA0180701863000000000000
B0618033146775S11707615EA0179901852000000000000
B0618073146685S11707659EA0178501836000000000000
B0618113146597S11707706EA0177301822000000000000
B0618153146508S11707755EA0176301817000000000000
B0618193146422S11707803EA0175301803000000000000
B0618233146334S11707846EA0174201795000000000000
B0618273146247S11707886EA0173501784000000000000
B0618313146157S11707920EA0172401771000000000000
B0618353146068S11707954EA0170801754000000000000
B0618393145973S11707986EA0169501746000000000000
B0618433145883S11708014EA0170801762000000000000
B0618473145796S11708041EA0171501767000000000000
B0618513145711S11708068EA0171501760000000000000
B0618553145624S11708098EA0169301733000000000000
B0618593145541S11708133EA0167801729000000000000
B0619033145460S11708168EA0168101728000000000000
B0619073145381S11708205EA0166401704000000000000
B0619113145294S11708242EA0164201681000000000000
B0619153145203S11708268EA0164101688000000000000
B0619193145120S11708298EA0164801691000000000000
B0619233145042S11708341EA0163801680000000000000
B0619273144961S11708384EA0162401665000000000000
B0619313144879S11708422EA0162601675000000000000
B0619353144813S11708456EA0165401702000000000000
B0619393144756S11708493EA0164201683000000000000
B0619433144690S11708535EA0162801670000000000000
B0619473144625S11708584EA0163501680000000000000
B0619513144570S11708640EA0163701682000000000000
B0619553144517S11708699EA0163401674000000000000
B0619593144457S11708756EA0162501671000000000000
B0620033144393S11708803EA0162701673000000000000
B0620073144329S11708850EA0162201657000000000000
B0620113144259S11708898EA0160501643000000000000
B0620153144183S11708942EA0159301626000000000000
B0620193144107S11708996EA0157801619000000000000
B0620233144037S11709050EA0157701618000000000000
B0620273143965S11709102EA0156701602000000000000
B0620313143894S11709154EA0156101603000000000000
B0620353143826S11709207EA0155901595000000000000
B0620393143759S11709260EA0155001591000000000000
B0620433143690S11709307EA0155101589000000000000
B0620473143618S11709353EA0154601580000000000000
B0620513143542S11709398EA0153201568000000000000
B0620553143466S11709445EA0152301558000000000000
B0620593143390S11709493EA0151301547000000000000
B0621033143313S11709541EA0150701543000000000000
B0621073143237S11709587EA0150001534000000000000
B0621113143159S11709631EA0149001524000000000000
B0621153143080S11709675EA0147701506000000000000
B0621193143001S11709727EA0146701496000000000000
B0621233142927S11709788EA0145201477000000000000
B0621273142841S11709843EA0142801451000000000000
B0621313142750S11709887EA0141901460000000000000
B0621353142669S11709926EA0143301468000000000000
B0621393142593S11709966EA0142601452000000000000
B0621433142513S11710003EA0141301445000000000000
B0621473142437S11710040EA0140901439000000000000
B0621513142359S11710078EA0140701441000000000000
B0621553142281S11710107EA0140601441000000000000
B0621593142205S11710134EA0140201431000000000000
B0622033142130S11710166EA0138401413000000000000
B0622073142049S11710202EA0137001396000000000000
B0622113141963S11710235EA0135701385000000000000
B0622153141883S11710278EA0135001375000000000000
B0622193141800S11710322EA0134401375000000000000
B0622233141723S11710365EA0135501391000000000000
B0622273141649S11710406EA0136301401000000000000
B0622313141592S11710456EA0138701423000000000000
B0622353141545S11710514EA0139701432000000000000
B0622393141501S11710576EA0139801433000000000000
B0622433141459S11710640EA0140701451000000000000
B0622473141420S11710696EA0142501465000000000000
B0622513141382S11710757EA0142801466000000000000
B0622553141341S11710822EA0142401455000000000000
B0622593141311S11710900EA0141501451000000000000
B0623033141277S11710972EA0142601473000000000000
B0623073141246S11711037EA0144101480000000000000
B0623113141207S11711099EA0143201456000000000000
B0623153141143S11711157EA0139401412000000000000
B0623193141056S11711208EA0135901381000000000000
B0623233140964S11711251EA0133801364000000000000
B0623273140871S11711291EA0133201361000000000000
B0623313140784S11711326EA0133801371000000000000
B0623353140700S11711364EA0133001356000000000000
B0623393140610S11711398EA0132701358000000000000
B0623433140523S11711430EA0133201359000000000000
B0623473140439S11711466EA0134101382000000000000
B0623513140364S11711503EA0135901394000000000000
B0623553140293S11711544EA0135801390000000000000
B0623593140223S11711589EA0136101400000000000000
B0624033140156S11711634EA0138401422000000000000
B0624073140091S11711677EA0138201409000000000000
B0624113140017S11711725EA0136101387000000000000
B0624153139935S11711772EA0135001379000000000000
B0624193139851S11711815EA0134301371000000000000
B0624233139764S11711854EA0133301359000000000000
B0624273139677S11711892EA0132501355000000000000
B0624313139591S11711928EA0132201348000000000000
B0624353139505S11711963EA0131301339000000000000
B0624393139421S11711994EA0130901335000000000000
B0624433139339S11712023EA0130501330000000000000
B0624473139258S11712053EA0129501317000000000000
B0624513139178S11712083EA0128201303000000000000
B0624553139097S11712110EA0127201295000000000000
B0624593139019S11712139EA0127301299000000000000
B0625033138942S11712171EA0127501299000000000000
B0625073138869S11712217EA0126501289000000000000
B0625113138798S11712266EA0125801280000000000000
B0625153138726S11712313EA0125001271000000000000
B0625193138651S11712356EA0123501257000000000000
B0625233138573S11712396EA0123001251000000000000
B0625273138495S11712434EA0123001250000000000000
B0625313138418S11712467EA0122301240000000000000
B0625353138339S11712501EA0121001227000000000000
B0625393138262S11712536EA0119801218000000000000
B0625433138188S11712569EA0119701217000000000000
B0625473138118S11712600EA0119701217000000000000
B0625513138049S11712630EA0119101208000000000000
B0625553137980S11712661EA0118201202000000000000
B0625593137914S11712691EA0117801192000000000000
B0626033137842S11712714EA0117101193000000000000
B0626073137772S11712733EA0118301205000000000000
B0626113137705S11712755EA0118401200000000000000
B0626153137637S11712781EA0117701190000000000000
B0626193137569S11712816EA0116401172000000000000
B0626233137501S11712859EA0114601163000000000000
B0626273137438S11712904EA0115601175000000000000
B0626313137380S11712951EA0116201184000000000000
B0626353137332S11713000EA0118101209000000000000
B0626393137294S11713050EA0119801222000000000000
B0626433137308S11713104EA0121701245000000000000
B0626473137371S11713085EA0122601256000000000000
B0626513137390S11712990EA0122501258000000000000
B0626553137341S11712913EA0122601261000000000000
B0626593137283S11712913EA0124001283000000000000
B0627033137289S11712955EA0125701294000000000000
B0627073137348S11712937EA0126001302000000000000
B0627113137359S11712848EA0126401302000000000000
B0627153137309S11712777EA0126101300000000000000
B0627193137254S11712774EA0127201310000000000000
B0627233137283S11712812EA0127501313000000000000
B0627273137351S11712769EA0128101320000000000000
B0627313137391S11712681EA0128801329000000000000
B0627353137361S11712599EA0129901340000000000000
B0627393137315S11712609EA0131301352000000000000
B0627433137338S11712646EA0132401364000000000000
B0627473137399S11712612EA0132801368000000000000
B0627513137417S11712519EA0132701367000000000000
B0627553137372S11712452EA0132901373000000000000
B0627593137321S11712454EA0133501374000000000000
B0628033137308S11712503EA0133101367000000000000
B0628073137363S11712540EA0132401364000000000000
B0628113137445S11712549EA0132701371000000000000
B0628153137530S11712536EA0134301391000000000000
B0628193137576S11712454EA0137301424000000000000
B0628233137540S11712383EA0138201430000000000000
B0628273137497S11712410EA0138301427000000000000
B0628313137514S11712469EA0138801435000000000000
B0628353137577S11712487EA0140201451000000000000
B0628393137637S11712431EA0140901454000000000000
B0628433137629S11712330EA0140401452000000000000
B0628473137571S11712272EA0141901470000000000000
B0628513137523S11712292EA0143201478000000000000
B0628553137527S11712349EA0143301479000000000000
B0628593137589S11712360EA0144501496000000000000
B0629033137657S11712306EA0144801492000000000000
B0629073137733S11712256EA0144301493000000000000
B0629113137814S11712220EA0144401492000000000000
B0629153137898S11712189EA0143601473000000000000
B0629193137992S11712171EA0140701443000000000000
B0629233138092S11712171EA0138401424000000000000
B0629273138195S11712183EA0136901409000000000000
B0629313138297S11712204EA0135201394000000000000
B0629353138400S11712227EA0135301398000000000000
B0629393138500S11712248EA0134401381000000000000
B0629433138599S11712274EA0133501373000000000000
B0629473138694S11712301EA0133201373000000000000
B0629513138782S11712324EA0134301395000000000000
B0629553138862S11712336EA0135801397000000000000
B0629593138942S11712350EA0134201377000000000000
B0630033139027S11712373EA0134101379000000000000
B0630073139111S11712400EA0133801376000000000000
B0630113139194S11712427EA0133201372000000000000
B0630153139279S11712448EA0132601363000000000000
B0630193139362S11712470EA0132301364000000000000
B0630233139444S11712490EA0132001358000000000000
B0630273139525S11712514EA0131401350000000000000
B0630313139607S11712543EA0130401340000000000000
B0630353139687S11712570EA0130701350000000000000
B0630393139765S11712596EA0131601355000000000000
B0630433139844S11712617EA0131201346000000000000
B0630473139929S11712635EA0130001334000000000000
B0630513140020S11712651EA0128601317000000000000
B0630553140112S11712672EA0127201307000000000000
B0630593140203S11712699EA0126701302000000000000
B0631033140292S11712734EA0125801294000000000000
B0631073140377S11712774EA0125201284000000000000
B0631113140463S11712813EA0124101272000000000000
B0631153140552S11712854EA0122701255000000000000
B0631193140639S11712896EA0121501247000000000000
B0631233140723S11712937EA0121001240000000000000
B0631273140806S11712974EA0120401232000000000000
B0631313140891S11713008EA0119901228000000000000
B0631353140977S11713038EA0120201233000000000000
B0631393141051S11713082EA0121801250000000000000
B0631433141096S11713146EA0123201271000000000000
B0631473141098S11713211EA0125801300000000000000
B0631513141051S11713233EA0128001319000000000000
B0631553141008S11713185EA0130001341000000000000
B0631593141011S11713107EA0131801356000000000000
B0632033141052S11713050EA0133001370000000000000
B0632073141111S11713029EA0134101381000000000000
B0632113141167S11713045EA0134801389000000000000
B0632153141196S11713093EA0136001405000000000000
B0632193141181S11713140EA0137901422000000000000
B0632233141135S11713150EA0139001433000000000000
B0632273141086S11713111EA0139901446000000000000
B0632313141064S11713037EA0141301467000000000000
B0632353141091S11712964EA0142801478000000000000
B0632393141150S11712929EA0144001491000000000000
B0632433141208S11712939EA0144801498000000000000
B0632473141247S11712986EA0145601507000000000000
B0632513141245S11713042EA0147101524000000000000
B0632553141206S11713073EA0148401536000000000000
B0632593141152S11713063EA0149301547000000000000
B0633033141111S11713011EA0150901566000000000000
B0633073141111S11712932EA0152401581000000000000
B0633113141160S11712877EA0153601593000000000000
B0633153141220S11712882EA0154701604000000000000
B0633193141255S11712932EA0155401609000000000000
B0633233141246S11712989EA0156401622000000000000
B0633273141202S11713011EA0157801636000000000000
B0633313141154S11712986EA0159101655000000000000
B0633353141130S11712917EA0161301676000000000000
B0633393141156S11712844EA0162301685000000000000
B0633433141219S11712825EA0163201697000000000000
B0633473141265S11712864EA0164401707000000000000
B0633513141268S11712922EA0165001714000000000000
B0633553141233S11712961EA0165601722000000000000
B0633593141181S11712950EA0167401743000000000000
B0634033141142S11712895EA0168201746000000000000
B0634073141137S11712811EA0168601755000000000000
B0634113141170S11712737EA0170401773000000000000
B0634153141232S11712703EA0171201780000000000000
B0634193141294S11712717EA0171801785000000000000
B0634233141333S11712770EA0172001788000000000000
B0634273141343S11712839EA0172101786000000000000
B0634313141321S11712907EA0171701788000000000000
B0634353141271S11712947EA0173001804000000000000
B0634393141217S11712913EA0175201829000000000000
B0634433141196S11712839EA0177401850000000000000
B0634473141213S11712761EA0178401856000000000000
B0634513141261S11712704EA0179001862000000000000
B0634553141330S11712694EA0179301864000000000000
B0634593141389S11712731EA0179701869000000000000
B0635033141419S11712796EA0179701867000000000000
B0635073141411S11712869EA0180001874000000000000
B0635113141375S11712925EA0180801882000000000000
B0635153141312S11712920EA0181801892000000000000
B0635193141269S11712856EA0182301902000000000000
B0635233141267S11712770EA0183001909000000000000
B0635273141294S11712685EA0183501915000000000000
B0635313141350S11712623EA0184401925000000000000
B0635353141412S11712642EA0186001946000000000000
B0635393141430S11712698EA0187501955000000000000
B0635433141408S11712751EA0187701959000000000000
B0635473141359S11712770EA0188301964000000000000
B0635513141311S11712735EA0189001971000000000000
B0635553141285S11712665EA0189501976000000000000
B0635593141294S11712582EA0189701978000000000000
B0636033141342S11712517EA0190101985000000000000
B0636073141410S11712491EA0190901989000000000000
B0636113141477S11712509EA0191201992000000000000
B0636153141546S11712544EA0191201988000000000000
B0636193141624S11712575EA0190501977000000000000
B0636233141713S11712599EA0189101963000000000000
B0636273141807S11712618EA0188501960000000000000
B0636313141906S11712629EA0188401962000000000000
B0636353142005S11712635EA0188601964000000000000
B0636393142101S11712640EA0188501959000000000000
B0636433142200S11712647EA0187601948000000000000
B0636473142301S11712653EA0186301939000000000000
B0636513142403S11712660EA0185201926000000000000
B0636553142504S11712668EA0184201916000000000000
B0636593142607S11712677EA0182901902000000000000
B0637033142708S11712687EA0181901893000000000000
B0637073142810S11712696EA0181801897000000000000
B0637113142905S11712705EA0182501907000000000000
B0637153142996S11712712EA0183201911000000000000
B0637193143087S11712717EA0183401912000000000000
B0637233143180S11712722EA0182501896000000000000
B0637273143280S11712731EA0181401889000000000000
B0637313143379S11712742EA0181401891000000000000
B0637353143478S11712751EA0181501888000000000000
B0637393143575S11712761EA0181001883000000000000
B0637433143670S11712770EA0180701880000000000000
B0637473143765S11712778EA0180201869000000000000
B0637513143861S11712787EA0179201860000000000000
B0637553143958S11712795EA0178501855000000000000
B0637593144056S11712802EA0177901847000000000000
B0638033144155S11712809EA0177101841000000000000
B0638073144253S11712818EA0176701837000000000000
B0638113144348S11712826EA0176101830000000000000
B0638153144444S11712838EA0175001816000000000000
B0638193144541S11712854EA0174301808000000000000
B0638233144638S11712867EA0173801804000000000000
B0638273144735S11712882EA0173201794000000000000
B0638313144834S11712898EA0172201785000000000000
B0638353144935S11712909EA0171301773000000000000
B0638393145038S11712915EA0170101765000000000000
B0638433145141S11712916EA0169601756000000000000
B0638473145245S11712921EA0168601750000000000000
B0638513145345S11712926EA0168701748000000000000
B0638553145446S11712930EA0168301747000000000000
B0638593145542S11712933EA0168901746000000000000
B0639033145639S11712937EA0167901736000000000000
B0639073145737S11712941EA0166801722000000000000
B0639113145836S11712946EA0165601710000000000000
B0639153145936S11712951EA0164601700000000000000
B0639193146039S11712950EA0163601691000000000000
B0639233146143S11712947EA0163601691000000000000
B0639273146246S11712941EA0163901694000000000000
B0639313146348S11712934EA0163301690000000000000
B0639353146448S11712928EA0163101691000000000000
B0639393146545S11712920EA0163301692000000000000
B0639433146641S11712911EA0162701679000000000000
B0639473146737S11712904EA0161701675000000000000
B0639513146832S11712899EA0161301667000000000000
B0639553146928S11712894EA0160501655000000000000
B0639593147026S11712887EA0159301644000000000000
B0640033147123S11712883EA0158001630000000000000
B0640073147222S11712882EA0157801639000000000000
B0640113147318S11712880EA0159801658000000000000
B0640153147410S11712861EA0161001673000000000000
B0640193147469S11712783EA0163401695000000000000
B0640233147456S11712698EA0164501699000000000000
B0640273147397S11712681EA0164101695000000000000
B0640313147364S11712740EA0164001695000000000000
B0640353147344S11712818EA0164201702000000000000
B0640393147355S11712887EA0166001723000000000000
B0640433147420S11712893EA0167901755000000015000
B0640473147461S11712820EA0169801774000000015000
B0640513147433S11712753EA0170401777000000015000
B0640553147383S11712763EA0170801782000000015000
B0640593147381S11712821EA0171501786000000015000
B0641033147433S11712861EA0172301798000000015000
B0641073147501S11712835EA0172701794000000015000
B0641113147534S11712748EA0171901790000000015000
B0641153147524S11712653EA0172001789000000015000
B0641193147472S11712600EA0171901796000000000000
B0641233147417S11712621EA0172901797000000000000
B0641273147397S11712686EA0172701801000000000000
B0641313147409S11712761EA0173201809000000000000
B0641353147429S11712838EA0173601805000000000000
B0641393147464S11712912EA0173401804000000000000
B0641433147531S11712951EA0172601796000000000000
B0641473147620S11712969EA0171001776000000000000
B0641513147716S11712981EA0169901765000000000000
B0641553147815S11712986EA0169901770000000000000
B0641593147908S11712989EA0170601774000000000000
B0642033148003S11712989EA0170301766000000000000
B0642073148101S11712985EA0169401761000000000000
B0642113148198S11712978EA0169301755000000000000
B0642153148300S11712971EA0168001741000000000000
B0642193148400S11712958EA0166901730000000000000
B0642233148502S11712945EA0165701713000000000000
B0642273148605S11712932EA0164101699000000000000
B0642313148709S11712920EA0163001686000000000000
B0642353148812S11712908EA0162001673000000000000
B0642393148915S11712898EA0161101665000000000000
B0642433149015S11712891EA0160801661000000000000
B0642473149113S11712890EA0159801651000000000000
B0642513149211S11712885EA0159001648000000000000
B0642553149303S11712876EA0159201646000000000000
B0642593149393S11712865EA0158701641000000000000
B0643033149479S11712854EA0158501640000000000000
B0643073149565S11712846EA0157601629000000000000
B0643113149649S11712838EA0157101622000000000000
B0643153149734S11712833EA0156501611000000000000
B0643193149823S11712826EA0155001598000000000000
B0643233149916S11712825EA0154001587000000000000
B0643273150009S11712828EA0153001576000000000000
B0643313150103S11712831EA0152101564000000000000
B0643353150198S11712838EA0151101558000000000000
B0643393150293S11712848EA0151101560000000000000
B0643433150382S11712855EA0152701578000000000000
B0643473150464S11712868EA0154101589000000000000
B0643513150527S11712912EA0155401608000000000000
B0643553150564S11712972EA0157001623000000000000
B0643593150580S11713037EA0158101631000000000000
B0644033150572S11713098EA0158301630000000000000
B0644073150559S11713159EA0157601617000000000000
B0644113150581S11713229EA0156801616000000000000
B0644153150634S11713284EA0156901616000000000000
B0644193150712S11713290EA0156301605000000000000
B0644233150802S11713279EA0154001582000000000000
B0644273150896S11713266EA0152401569000000000000
B0644313150992S11713253EA0151601557000000000000
B0644353151087S11713238EA0150901557000000000000
B0644393151180S11713228EA0150801551000000000000
B0644433151274S11713227EA0149801541000000000000
B0644473151369S11713224EA0148801531000000000000
B0644513151463S11713220EA0148401530000000000000
B0644553151555S11713215EA0148901534000000000000
B0644593151635S11713232EA0149901547000000000000
B0645033151699S11713272EA0150601549000000000000
B0645073151773S11713298EA0149801531000000000000
B0645113151859S11713310EA0147401511000000000000
B0645153151949S11713312EA0146301500000000000000
B0645193152038S11713311EA0145101490000000000000
B0645233152127S11713306EA0144501485000000000000
B0645273152213S11713299EA0143801475000000000000
B0645313152302S11713290EA0143001470000000000000
B0645353152389S11713281EA0143301470000000000000
B0645393152475S11713272EA0143201472000000000000
B0645433152558S11713263EA0143101467000000000000
B0645473152642S11713258EA0142101454000000000000
B0645513152729S11713257EA0140701441000000000000
B0645553152817S11713251EA0138801420000000000000
B0645593152908S11713242EA0137101402000000000000
B0646033152999S11713233EA0136801404000000000000
B0646073153085S11713237EA0137201408000000000000
B0646113153163S11713219EA0138801430000000000000
B0646153153234S11713194EA0139501431000000000000
B0646193153309S11713173EA0138901421000000000000
B0646233153388S11713145EA0138401425000000000000
B0646273153461S11713102EA0139101430000000000000
B0646313153518S11713034EA0140001440000000000000
B0646353153572S11712959EA0139101419000000000000
B0646393153645S11712896EA0136701400000000000000
B0646433153730S11712852EA0135401388000000000000
B0646473153819S11712817EA0134301374000000000000
B0646513153912S11712794EA0134501383000000000000
B0646553153985S11712820EA0136701409000000000000
B0646593154022S11712882EA0138301420000000000000
B0647033154033S11712955EA0138401420000000000000
B0647073154037S11713032EA0138501423000000000000
B0647113154053S11713104EA0139801435000000000000
B0647153154117S11713116EA0139801435000000015000
B0647193154167S11713042EA0138801425000000015000
B0647233154178S11712939EA0138001426000000000000
B0647273154170S11712838EA0138701441000000000000
B0647313154124S11712833EA0140701460000000000000
B0647353154128S11712893EA0141701465000000000000
B0647393154194S11712902EA0142101484000000015000
B0647433154219S11712817EA0143601506000000015000
B0647473154176S11712779EA0145801522000000015000
B0647513154141S11712812EA0146601520000000015000
B0647553154157S11712877EA0146401521000000000000
B0647593154226S11712899EA0148001544000000015000
B0648033154285S11712841EA0148301548000000015000
B0648073154278S11712752EA0149601558000000015000
B0648113154228S11712740EA0150801568000000000000
B0648153154221S11712799EA0151701576000000000000
B0648193154274S11712847EA0152001575000000000000
B0648233154349S11712820EA0151801576000000015000
B0648273154375S11712735EA0152001571000000000000
B0648313154343S11712660EA0151401566000000000000
B0648353154282S11712621EA0151701579000000000000
B0648393154242S11712657EA0154301605000000000000
B0648433154276S11712707EA0156301623000000000000
B0648473154341S11712685EA0157001634000000015000
B0648513154367S11712605EA0156801630000000015000
B0648553154329S11712548EA0157801647000000015000
B0648593154285S11712564EA0159601661000000000000
B0649033154298S11712617EA0160901675000000000000
B0649073154358S11712631EA0160901683000000000000
B0649113154408S11712570EA0161101685000000000000
B0649153154401S11712486EA0161101684000000000000
B0649193154351S11712432EA0162201695000000000000
B0649233154319S11712470EA0163501704000000000000
B0649273154337S11712536EA0163401699000000000000
B0649313154368S11712609EA0162901690000000000000
B0649353154412S11712681EA0161301671000000000000
B0649393154495S11712712EA0160301666000000000000
B0649433154589S11712716EA0159901652000000000000
B0649473154688S11712709EA0158401643000000000000
B0649513154785S11712695EA0158501639000000000000
B0649553154887S11712675EA0157401625000000000000
B0649593154989S11712651EA0156101609000000000000
B0650033155095S11712625EA0154001585000000000000
B0650073155200S11712596EA0152101568000000000000
B0650113155308S11712570EA0150201545000000000000
B0650153155418S11712552EA0149201536000000000000
B0650193155526S11712535EA0148201522000000000000
B0650233155637S11712543EA0146401501000000000000
B0650273155742S11712564EA0145701495000000000000
B0650313155849S11712579EA0144801482000000000000
B0650353155955S11712587EA0143701470000000000000
B0650393156062S11712592EA0142801463000000000000
B0650433156166S11712594EA0142201456000000000000
B0650473156270S11712588EA0141201447000000000000
B0650513156374S11712581EA0140701443000000000000
B0650553156475S11712570EA0140401440000000000000
B0650593156577S11712560EA0140101436000000000000
B0651033156677S11712551EA0140001434000000000000
B0651073156776S11712540EA0139401431000000000000
B0651113156873S11712530EA0139401430000000000000
B0651153156971S11712517EA0139501434000000000000
B0651193157064S11712500EA0141401459000000000000
B0651233157141S11712461EA0144801497000000000000
B0651273157142S11712393EA0147701523000000000000
B0651313157095S11712402EA0148101522000000000000
B0651353157103S11712466EA0149301541000000000000
B0651393157168S11712478EA0151301571000000000000
B0651433157216S11712415EA0152701585000000000000
B0651473157201S11712343EA0154001600000000000000
B0651513157153S11712347EA0156101621000000000000
B0651553157149S11712404EA0157201636000000000000
B0651593157203S11712441EA0158401652000000000000
B0652033157268S11712408EA0160101672000000000000
B0652073157279S11712330EA0161801692000000000000
B0652113157236S11712302EA0163501705000000000000
B0652153157214S11712353EA0165101718000000000000
B0652193157254S11712409EA0166001730000000015000
B0652233157324S11712392EA0168201757000000015000
B0652273157359S11712321EA0170001771000000015000
B0652313157333S11712257EA0171301788000000015000
B0652353157292S11712276EA0173301805000000000000
B0652393157301S11712336EA0174401813000000000000
B0652433157363S11712367EA0175601830000000000000
B0652473157427S11712331EA0177601850000000015000
B0652513157450S11712256EA0178501857000000000000
B0652553157426S11712187EA0179201866000000000000
B0652593157384S11712201EA0180601889000000000000
B0653033157400S11712259EA0182801902000000000000
B0653073157470S11712276EA0183401914000000015000
B0653113157522S11712213EA0184601928000000015000
B0653153157501S11712146EA0185501940000000015000
B0653193157462S11712172EA0186901952000000015000
B0653233157495S11712227EA0188901974000000015000
B0653273157567S11712209EA0190001989000000015000
B0653313157599S11712133EA0191402004000000015000
B0653353157573S11712064EA0191501994000000015000
B0653393157511S11712048EA0190101979000000015000
B0653433157457S11712081EA0190901996000000000000
B0653473157475S11712140EA0194202031000000030000
B0653513157545S11712146EA0194502036000000045000
B0653553157596S11712075EA0194802041000000030000
B0653593157583S11711994EA0195502044000000015000
B0654033157530S11711958EA0195402037000000015000
