ACAM4N6
HFDTE271214
HFFXA050
HFPLTPILOT:JOHN WELSH              
HFGTYGLIDERTYPE:HORNET      
HFGIDGLIDERID:VH-GMY      
HFDTM100GPSDATUM:
HFRFWFIRMWAREVERSION:F2.6
HFRHWHARDWAREVERSION:300 Series Version 2
HFFTYFRTYPE:CAMBRIDGE AERO INSTRUMENTS, 302+
HFGPS:GARMIN,LVS-25,12,18000
HFPRSPRESSALTSENSOR:INTERSEMA, MS5534-AP, 20000
I033638FXA3941ENL4247REX
LCAMSBVER:5FWVER:F26300
C271214035322271214000102
C0000000N00000000WTAKEOFF     
C3207549S11656849EBEVAIR      
C3042666S11646399EKONDUT      
C3123133S11829099EBURRCPPN    
C3207549S11656849EBEVAIR      
C0000000N00000000WLANDING     
B0405203207739S11657094EA0018600200000000000000
B0405223207739S11657094EA0018500200000000000000
B0405243207739S11657094EA0018500200000000000000
B0405263207739S11657094EA0018600200000000000000
B0405283207739S11657094EA0018600200000000000000
B0405303207739S11657094EA0018500200000000000000
B0405323207739S11657094EA0018500200000000000000
B0405343207739S11657094EA0018500200000000000000
B0405363207739S11657094EA0018500200000000000000
B0405383207739S11657094EA0018700200000000000000
B0405403207739S11657094EA0018600200000000000000
B0405423207739S11657094EA0018500200000000000000
B0405443207739S11657094EA0018500200000000000000
B0405463207739S11657094EA0018500200000000000000
B0405483207739S11657094EA0018400200000000000000
B0405533207719S11657087EA0018300200000000000000
B0405573207684S11657072EA0018400201000000000000
B0406013207636S11657043EA0018700202000000000000
B0406053207573S11657007EA0018500202000000000000
B0406093207506S11656966EA0018700204000000000000
B0406133207432S11656925EA0019000211000000000000
B0406173207358S11656883EA0020400229000000000000
B0406213207282S11656844EA0022300243000000000000
B0406253207202S11656808EA0023000252000000000000
B0406293207118S11656774EA0024300272000000000000
B0406333207047S11656723EA0027700304000000000000
B0406373206985S11656661EA0028800317000000000000
B0406413206926S11656593EA0029900331000000000000
B0406453206871S11656519EA0031400346000000000000
B0406493206819S11656441EA0033000363000000000000
B0406533206760S11656366EA0034400378000000000000
B0406573206684S11656316EA0036000396000000000000
B0407013206600S11656294EA0037800421000000000000
B0407053206517S11656295EA0041800455000000000000
B0407093206435S11656321EA0043400476000000000000
B0407133206368S11656377EA0045900500000000000000
B0407173206319S11656454EA0048500529000000000000
B0407213206280S11656537EA0051300558000000000000
B0407253206244S11656624EA0054000590000000000000
B0407293206206S11656713EA0056800624000000000000
B0407333206162S11656796EA0059900656000000000000
B0407373206114S11656879EA0062800684000000000000
B0407413206071S11656961EA0065600712000000000000
B0407453206051S11657051EA0067300732000000000000
B0407493206062S11657134EA0069400751000000000000
B0407533206099S11657212EA0070400758000000000000
B0407573206158S11657269EA0071700775000000000000
B0408013206232S11657287EA0073000790000000000000
B0408053206302S11657267EA0074800813000000000000
B0408093206338S11657207EA0076200820000000000000
B0408133206311S11657139EA0076200819000000000000
B0408173206247S11657125EA0076500822000000000000
B0408213206192S11657163EA0076700828000000000000
B0408253206194S11657228EA0077600833000000000000
B0408293206244S11657244EA0077300829000000000000
B0408333206277S11657191EA0077300830000000000000
B0408373206258S11657122EA0077100830000000000000
B0408413206201S11657074EA0077200830000000000000
B0408453206138S11657078EA0078300844000000000000
B0408493206120S11657135EA0078800845000000000000
B0408533206153S11657177EA0078700843000000000000
B0408573206206S11657168EA0078300840000000000000
B0409013206254S11657127EA0077900834000000000000
B0409053206297S11657074EA0077900841000000000000
B0409093206333S11657010EA0077900829000000000000
B0409133206370S11656936EA0076700823000000000000
B0409173206401S11656858EA0076100815000000000000
B0409213206410S11656774EA0076000817000000000000
B0409253206379S11656702EA0076900827000000000000
B0409293206322S11656659EA0077100828000000000000
B0409333206253S11656658EA0077400832000000000000
B0409373206199S11656706EA0078700848000000000000
B0409413206221S11656767EA0080600869000000000000
B0409453206271S11656753EA0081000863000000000000
B0409493206267S11656683EA0080900875000000000000
B0409533206211S11656654EA0082800895000000000000
B0409573206159S11656689EA0084100903000000000000
B0410013206145S11656757EA0084800912000000000000
B0410053206182S11656805EA0086200927000000000000
B0410093206232S11656787EA0087100931000000000000
B0410133206233S11656726EA0087100934000000000000
B0410173206181S11656691EA0088300949000000000000
B0410213206129S11656726EA0089800962000000000000
B0410253206124S11656795EA0090500974000000000000
B0410293206169S11656831EA0092300993000000000000
B0410333206216S11656805EA0093701007000000000000
B0410373206225S11656748EA0094901014000000000000
B0410413206188S11656700EA0094701016000000000000
B0410453206127S11656698EA0096001031000000000000
B0410493206082S11656749EA0096901039000000000000
B0410533206080S11656821EA0098101050000000000000
B0410573206119S11656866EA0099501066000000000000
B0411013206169S11656848EA0101701091000000000000
B0411053206188S11656788EA0102701102000000000000
B0411093206160S11656730EA0103701113000000000000
B0411133206104S11656709EA0104501120000000000000
B0411173206047S11656744EA0104901125000000000000
B0411213206041S11656814EA0106301142000000000000
B0411253206080S11656849EA0107701153000000000000
B0411293206123S11656819EA0108601161000000000000
B0411333206111S11656756EA0108801165000000000000
B0411373206049S11656731EA0109701179000000000000
B0411413205990S11656766EA0110901190000000000000
B0411453205971S11656838EA0112101207000000000000
B0411493205998S11656895EA0113901223000000000000
B0411533206051S11656906EA0115801244000000000000
B0411573206090S11656864EA0117901264000000000000
B0412013206073S11656804EA0119601281000000000000
B0412053206019S11656782EA0120501289000000000000
B0412093205965S11656817EA0121401297000000000000
B0412133205951S11656886EA0122801313000000000000
B0412173205984S11656931EA0124601330000000000000
B0412213206030S11656916EA0126201346000000000000
B0412253206041S11656854EA0127301363000000000000
B0412293205995S11656814EA0128901376000000000000
B0412333205934S11656836EA0129501382000000000000
B0412373205908S11656904EA0130801399000000000000
B0412413205935S11656962EA0131901405000000000000
B0412453205986S11656956EA0132701414000000000000
B0412493205994S11656890EA0134101433000000000000
B0412533205946S11656848EA0136301456000000000000
B0412573205898S11656883EA0137501464000000000000
B0413013205911S11656947EA0138501472000000000000
B0413053205964S11656962EA0139001480000000000000
B0413093205995S11656905EA0140301496000000000000
B0413133205961S11656851EA0142801523000000000000
B0413173205908S11656873EA0144601535000000000000
B0413213205913S11656936EA0145101540000000000000
B0413253205969S11656943EA0146201556000000000000
B0413293206010S11656892EA0148001576000000000000
B0413333205977S11656838EA0150101593000000000000
B0413373205916S11656860EA0150201595000000000000
B0413413205904S11656932EA0151301611000000000000
B0413453205946S11656975EA0153001627000000000000
B0413493205995S11656949EA0154101639000000000000
B0413533205993S11656879EA0155301650000000000000
B0413573205928S11656862EA0156601668000000000000
B0414013205889S11656921EA0158901689000000000000
B0414053205907S11656983EA0160501705000000000000
B0414093205956S11656992EA0161701714000000000000
B0414133205978S11656932EA0162101718000000000000
B0414173205943S11656865EA0162901730000000000000
B0414213205876S11656853EA0164401744000000000000
B0414253205825S11656904EA0165301757000000000000
B0414293205833S11656973EA0166901771000000000000
B0414333205878S11656997EA0168501787000000000000
B0414373205912S11656957EA0169601798000000000000
B0414413205887S11656900EA0170501809000000000000
B0414453205821S11656893EA0171301819000000000000
B0414493205773S11656948EA0172601830000000000000
B0414533205769S11657025EA0172601824000000000000
B0414573205815S11657074EA0172001818000000000000
B0415013205878S11657077EA0172001819000000000000
B0415053205950S11657068EA0171601815000000000000
B0415093206026S11657053EA0171801821000000000000
B0415133206103S11657033EA0171301811000000000000
B0415173206181S11657013EA0170501810000000000000
B0415213206255S11656994EA0170801804000000000000
B0415253206335S11656973EA0170201810000000000000
B0415293206409S11656948EA0172601838000000000000
B0415333206481S11656926EA0174201846000000000000
B0415373206553S11656897EA0173801836000000000000
B0415413206628S11656865EA0172701826000000000000
B0415453206705S11656832EA0172001824000000000000
B0415493206780S11656799EA0171701817000000000000
B0415533206856S11656767EA0170801809000000000000
B0415573206933S11656737EA0170001798000000000000
B0416013207012S11656706EA0168901784000000000000
B0416053207092S11656678EA0168101777000000000000
B0416093207173S11656653EA0167501772000000000000
B0416133207254S11656632EA0166901762000000000000
B0416173207333S11656615EA0165501750000000000000
B0416213207414S11656609EA0163901735000000000000
B0416253207497S11656604EA0162401719000000000000
B0416293207583S11656601EA0160701698000000000000
B0416333207674S11656611EA0158501678000000000000
B0416373207761S11656630EA0157701672000000000000
B0416413207845S11656646EA0157101661000000000000
B0416453207930S11656662EA0155901649000000000000
B0416493208009S11656682EA0155301645000000000000
B0416533208084S11656705EA0154501631000000000000
B0416573208161S11656731EA0151901602000000000000
B0417013208244S11656762EA0148901572000000000000
B0417053208335S11656793EA0146301547000000000000
B0417093208426S11656774EA0145601540000000000000
B0417133208429S11656683EA0145801532000000015000
B0417173208347S11656661EA0144501512000000015000
B0417213208262S11656687EA0142001489000000015000
B0417253208177S11656726EA0140101472000000000000
B0417293208091S11656756EA0138401453000000000000
B0417333208000S11656779EA0135701426000000000000
B0417373207904S11656799EA0133601410000000000000
B0417413207807S11656818EA0132401399000000000000
B0417453207714S11656835EA0130701381000000000000
B0417493207618S11656840EA0129501371000000000000
B0417533207525S11656840EA0128901365000000000000
B0417573207437S11656839EA0128301362000000000000
B0418013207351S11656836EA0128201359000000000000
B0418053207268S11656836EA0128001357000000000000
B0418093207189S11656831EA0128101360000000000000
B0418133207111S11656823EA0127801353000000000000
B0418173207031S11656815EA0127101346000000000000
B0418213206952S11656808EA0126301338000000000000
B0418253206873S11656801EA0125201325000000000000
B0418293206792S11656793EA0124001315000000000000
B0418333206710S11656791EA0123401303000000000000
B0418373206623S11656796EA0121601287000000000000
B0418413206540S11656808EA0122401301000000000000
B0418453206461S11656822EA0123701317000000000000
B0418493206388S11656836EA0125101329000000000000
B0418533206322S11656851EA0127001348000000000000
B0418573206267S11656886EA0128701365000000000000
B0419013206272S11656940EA0130701389000000000000
B0419053206322S11656929EA0132301402000000000000
B0419093206329S11656860EA0133301419000000000000
B0419133206281S11656825EA0135101435000000000000
B0419173206236S11656861EA0136001441000000000000
B0419213206255S11656912EA0137201461000000000000
B0419253206305S11656896EA0139001477000000000000
B0419293206310S11656826EA0140201494000000000000
B0419333206263S11656788EA0142801522000000000000
B0419373206214S11656812EA0144001528000000000000
B0419413206210S11656867EA0144901538000000000000
B0419453206259S11656869EA0145701549000000000000
B0419493206289S11656804EA0147001566000000000000
B0419533206260S11656739EA0149301590000000000000
B0419573206206S11656745EA0150801602000000000000
B0420013206195S11656805EA0152001615000000000000
B0420053206240S11656822EA0154001637000000000000
B0420093206272S11656765EA0154801645000000000000
B0420133206246S11656697EA0156701668000000000000
B0420173206190S11656695EA0158201679000000000000
B0420213206166S11656749EA0158701688000000000000
B0420253206195S11656795EA0159901699000000000000
B0420293206238S11656758EA0161201711000000000000
B0420333206220S11656688EA0162401730000000000000
B0420373206163S11656674EA0164001742000000000000
B0420413206127S11656727EA0164301742000000000000
B0420453206141S11656792EA0165501761000000000000
B0420493206189S11656819EA0167501782000000000000
B0420533206228S11656778EA0170101806000000000000
B0420573206211S11656708EA0171101818000000000000
B0421013206151S11656698EA0173401843000000000000
B0421053206128S11656754EA0175401862000000000000
B0421093206164S11656788EA0176901877000000000000
B0421133206202S11656743EA0178301893000000000000
B0421173206177S11656674EA0180101912000000000000
B0421213206117S11656671EA0182201932000000000000
B0421253206093S11656728EA0182801937000000000000
B0421293206129S11656774EA0183901954000000000000
B0421333206177S11656747EA0186001980000000000000
B0421373206173S11656679EA0188201999000000000000
B0421413206117S11656645EA0189302009000000000000
B0421453206068S11656682EA0190402017000000000000
B0421493206067S11656748EA0191102023000000000000
B0421533206111S11656788EA0192802045000000000000
B0421573206156S11656760EA0195202071000000000000
B0422013206146S11656687EA0196802085000000000000
B0422053206082S11656650EA0197602094000000000000
B0422093206024S11656691EA0198402102000000000000
B0422133206026S11656760EA0199802115000000000000
B0422173206080S11656788EA0200802132000000000000
B0422213206119S11656743EA0203302158000000000000
B0422253206078S11656683EA0204802166000000000000
B0422293206013S11656708EA0205302175000000000000
B0422333205999S11656778EA0206502187000000000000
B0422373206047S11656819EA0207902202000000000000
B0422413206103S11656795EA0210002228000000000000
B0422453206111S11656727EA0212602253000000000000
B0422493206058S11656689EA0214302268000000000000
B0422533206006S11656724EA0215002271000000000000
B0422573206012S11656796EA0215102276000000000000
B0423013206065S11656845EA0216602293000000000000
B0423053206123S11656826EA0219602324000000000000
B0423093206116S11656756EA0221302338000000015000
B0423133206052S11656734EA0222002355000000000000
B0423173206024S11656795EA0224302380000000015000
B0423213206069S11656827EA0226102391000000015000
B0423253206110S11656775EA0227102405000000000000
B0423293206081S11656706EA0229202428000000015000
B0423333206023S11656693EA0231202445000000000000
B0423373205987S11656740EA0232402448000000000000
B0423413206020S11656792EA0231502431000000000000
B0423453206095S11656792EA0231102440000000000000
B0423493206117S11656727EA0234602478000000000000
B0423533206064S11656692EA0236502496000000000000
B0423573206020S11656735EA0237802504000000000000
B0424013206036S11656799EA0238102507000000000000
B0424053206098S11656804EA0239002520000000000000
B0424093206130S11656743EA0241502549000000000000
B0424133206101S11656680EA0243702569000000000000
B0424173206043S11656683EA0245302582000000000000
B0424213206029S11656747EA0245402582000000000000
B0424253206077S11656784EA0245802590000000000000
B0424293206116S11656737EA0247502614000000000000
B0424333206084S11656680EA0248802620000000000000
B0424373206011S11656669EA0247502595000000000000
B0424413205920S11656671EA0245102576000000000000
B0424453205824S11656684EA0244502580000000000000
B0424493205730S11656709EA0245602584000000000000
B0424533205635S11656737EA0244802567000000000000
B0424573205536S11656774EA0243002550000000000000
B0425013205436S11656813EA0241502530000000000000
B0425053205330S11656845EA0239702514000000000000
B0425093205222S11656877EA0238702504000000000000
B0425133205113S11656908EA0238302505000000000000
B0425173205009S11656943EA0237902496000000000000
B0425213204903S11656978EA0236402482000000000000
B0425253204794S11657005EA0234802466000000000000
B0425293204685S11657027EA0234402461000000000000
B0425333204577S11657048EA0233602451000000000000
B0425373204470S11657066EA0232802445000000000000
B0425413204364S11657082EA0232402442000000000000
B0425453204258S11657095EA0231702433000000000000
B0425493204153S11657105EA0230802425000000000000
B0425533204048S11657114EA0229902416000000000000
B0425573203943S11657122EA0228702404000000000000
B0426013203837S11657133EA0228202398000000000000
B0426053203737S11657147EA0228202398000000000000
B0426093203637S11657161EA0227502386000000000000
B0426133203534S11657177EA0225602364000000000000
B0426173203433S11657194EA0223702351000000000000
B0426213203332S11657213EA0222702341000000000000
B0426253203230S11657229EA0221502328000000000000
B0426293203130S11657243EA0220102311000000000000
B0426333203030S11657256EA0219402306000000000000
B0426373202934S11657270EA0219102304000000000000
B0426413202840S11657290EA0219602314000000000000
B0426453202754S11657320EA0220202315000000000000
B0426493202671S11657352EA0219802310000000000000
B0426533202591S11657382EA0220802324000000000000
B0426573202511S11657412EA0221202321000000000000
B0427013202431S11657443EA0221702331000000000000
B0427053202357S11657477EA0222502334000000000000
B0427093202279S11657512EA0220602315000000000000
B0427133202194S11657546EA0218802287000000000000
B0427173202104S11657580EA0216802279000000000000
B0427213202012S11657610EA0215802263000000000000
B0427253201916S11657636EA0213302241000000000000
B0427293201821S11657662EA0212302232000000000000
B0427333201727S11657685EA0211302221000000000000
B0427373201636S11657709EA0210302207000000000000
B0427413201543S11657729EA0207802181000000000000
B0427453201449S11657749EA0206102166000000000000
B0427493201357S11657770EA0204902152000000000000
B0427533201263S11657789EA0203502130000000000000
B0427573201164S11657807EA0200802102000000000000
B0428013201063S11657823EA0198702084000000000000
B0428053200963S11657841EA0197802083000000000000
B0428093200865S11657855EA0197902082000000000000
B0428133200769S11657868EA0198002085000000000000
B0428173200678S11657879EA0199002095000000000000
B0428213200591S11657888EA0199302097000000000000
B0428253200504S11657894EA0199402095000000000000
B0428293200420S11657900EA0199202097000000000000
B0428333200339S11657905EA0198802087000000000000
B0428373200252S11657915EA0197002060000000000000
B0428413200161S11657924EA0195302056000000000000
B0428453200074S11657936EA0195002049000000000000
B0428493159988S11657958EA0193602034000000000000
B0428533159897S11657975EA0192202019000000000000
B0428573159803S11657988EA0190802006000000000000
B0429013159712S11658001EA0190902017000000000000
B0429053159623S11658011EA0191202009000000000000
B0429093159526S11658018EA0189901998000000000000
B0429133159429S11658021EA0189401999000000000000
B0429173159334S11658023EA0190102009000000000000
B0429213159246S11658027EA0192502046000000000000
B0429253159195S11658066EA0197702100000000000000
B0429293159213S11658117EA0201302127000000000000
B0429333159265S11658112EA0202602140000000000000
B0429373159290S11658047EA0203902156000000000000
B0429413159264S11657983EA0205602174000000000000
B0429453159209S11657967EA0206602180000000000000
B0429493159168S11658013EA0207102188000000000000
B0429533159169S11658083EA0208202197000000000000
B0429573159216S11658121EA0209702215000000000000
B0430013159260S11658073EA0211402233000000000000
B0430053159239S11658006EA0213602254000000000000
B0430093159185S11658006EA0215002268000000000000
B0430133159170S11658066EA0215902279000000000000
B0430173159212S11658102EA0217402299000000000000
B0430213159256S11658062EA0218802312000000000000
B0430253159248S11657991EA0219902321000000000000
B0430293159190S11657966EA0220902333000000000000
B0430333159147S11658014EA0222602350000000000000
B0430373159168S11658073EA0224102367000000000000
B0430413159221S11658063EA0226102387000000000000
B0430453159237S11657997EA0227102398000000000000
B0430493159196S11657949EA0229202419000000000000
B0430533159147S11657971EA0230602428000000000000
B0430573159146S11658035EA0231102434000000000000
B0431013159196S11658058EA0232602456000000000000
B0431053159235S11658009EA0234602471000000000000
B0431093159213S11657946EA0235702487000000000000
B0431133159160S11657943EA0237402501000000000000
B0431173159136S11658000EA0238002503000000000000
B0431213159175S11658047EA0239002519000000000000
B0431253159221S11658009EA0240602532000000000000
B0431293159196S11657945EA0241202539000000000000
B0431333159130S11657926EA0239702515000000000000
B0431373159043S11657930EA0237402494000000000000
B0431413158944S11657941EA0236302485000000000000
B0431453158840S11657953EA0235002472000000000000
B0431493158732S11657959EA0233902461000000000000
B0431533158624S11657966EA0233102453000000000000
B0431573158516S11657972EA0232002436000000000000
B0432013158408S11657982EA0230402421000000000000
B0432053158299S11657989EA0229102409000000000000
B0432093158191S11657995EA0228302403000000000000
B0432133158085S11657995EA0227402394000000000000
B0432173157978S11657992EA0226802385000000000000
B0432213157873S11657991EA0225602373000000000000
B0432253157768S11657985EA0224602360000000000000
B0432293157662S11657978EA0223102342000000000000
B0432333157556S11657969EA0221702331000000000000
B0432373157450S11657959EA0220602318000000000000
B0432413157346S11657949EA0219202305000000000000
B0432453157245S11657939EA0218302298000000000000
B0432493157145S11657932EA0218402299000000000000
B0432533157047S11657928EA0218502297000000000000
B0432573156950S11657926EA0219002307000000000000
B0433013156858S11657936EA0220102325000000000000
B0433053156773S11657954EA0221602329000000000000
B0433093156685S11657972EA0220402311000000000000
B0433133156590S11657985EA0219602305000000000000
B0433173156495S11657993EA0219902316000000000000
B0433213156405S11658008EA0221302336000000000000
B0433253156325S11658027EA0222602336000000000000
B0433293156239S11658049EA0221002318000000000000
B0433333156152S11658078EA0220302314000000000000
B0433373156058S11658089EA0218702296000000000000
B0433413155962S11658091EA0217602288000000000000
B0433453155867S11658089EA0216902275000000000000
B0433493155768S11658087EA0215102253000000000000
B0433533155665S11658083EA0213202237000000000000
B0433573155563S11658076EA0211202220000000000000
B0434013155463S11658071EA0210702215000000000000
B0434053155364S11658065EA0209502199000000000000
B0434093155262S11658058EA0208102186000000000000
B0434133155161S11658052EA0207402180000000000000
B0434173155061S11658041EA0206902172000000000000
B0434213154960S11658023EA0206102167000000000000
B0434253154861S11658002EA0206002170000000000000
B0434293154765S11657978EA0206302170000000000000
B0434333154667S11657952EA0206202173000000000000
B0434373154570S11657923EA0206902179000000000000
B0434413154472S11657898EA0207702188000000000000
B0434453154380S11657875EA0210102221000000000000
B0434493154294S11657853EA0211702232000000000000
B0434533154208S11657836EA0212202229000000000000
B0434573154120S11657822EA0210902209000000000000
B0435013154025S11657807EA0208602188000000000000
B0435053153929S11657792EA0207102175000000000000
B0435093153834S11657779EA0205802158000000000000
B0435133153738S11657767EA0204502153000000000000
B0435173153643S11657754EA0203902141000000000000
B0435213153548S11657741EA0202602126000000000000
B0435253153452S11657731EA0201402115000000000000
B0435293153355S11657719EA0200202106000000000000
B0435333153260S11657707EA0199902105000000000000
B0435373153171S11657698EA0199702104000000000000
B0435413153085S11657692EA0199502096000000000000
B0435453152998S11657686EA0198202080000000000000
B0435493152909S11657679EA0197002071000000000000
B0435533152822S11657670EA0195802051000000000000
B0435573152734S11657659EA0193702035000000000000
B0436013152646S11657647EA0192802027000000000000
B0436053152558S11657634EA0191402006000000000000
B0436093152467S11657621EA0189501995000000000000
B0436133152380S11657611EA0188901981000000000000
B0436173152295S11657602EA0187701976000000000000
B0436213152214S11657595EA0188101979000000000000
B0436253152135S11657588EA0187601967000000000000
B0436293152048S11657581EA0185701949000000000000
B0436333151955S11657573EA0184501943000000000000
B0436373151867S11657571EA0185701969000000000000
B0436413151812S11657611EA0190702021000000000000
B0436453151825S11657671EA0193402035000000000000
B0436493151886S11657668EA0193102032000000000000
B0436533151910S11657602EA0194202051000000000000
B0436573151875S11657549EA0195402055000000000000
B0437013151814S11657545EA0195802065000000000000
B0437053151790S11657603EA0197302076000000000000
B0437093151838S11657649EA0197502084000000000000
B0437133151907S11657642EA0198602096000000000000
B0437173151963S11657602EA0199802111000000000000
B0437213151979S11657534EA0200502111000000000000
B0437253151936S11657480EA0200202114000000000000
B0437293151868S11657464EA0200702115000000000000
B0437333151797S11657463EA0201602135000000000000
B0437373151746S11657502EA0204702166000000000000
B0437413151781S11657551EA0206402174000000000000
B0437453151838S11657514EA0207302190000000000000
B0437493151846S11657439EA0208202200000000000000
B0437533151801S11657390EA0209402216000000000000
B0437573151752S11657423EA0211502235000000000000
B0438013151771S11657485EA0213502257000000000000
B0438053151833S11657480EA0215202274000000000000
B0438093151846S11657411EA0216802292000000000000
B0438133151797S11657380EA0218302306000000000000
B0438173151764S11657429EA0220202326000000000000
B0438213151801S11657478EA0222502349000000000000
B0438253151855S11657452EA0223902359000000000000
B0438293151854S11657381EA0224902371000000000000
B0438333151802S11657347EA0226502391000000000000
B0438373151760S11657387EA0228502411000000000000
B0438413151788S11657441EA0230002424000000000000
B0438453151846S11657413EA0230902430000000000000
B0438493151842S11657341EA0231902447000000000000
B0438533151786S11657321EA0233702469000000000000
B0438573151762S11657376EA0236002489000000000000
B0439013151811S11657408EA0237502500000000000000
B0439053151854S11657354EA0238602513000000000000
B0439093151820S11657291EA0240102532000000000000
B0439133151765S11657311EA0242002552000000000000
B0439173151780S11657371EA0244102568000000000000
B0439213151841S11657364EA0245002578000000000000
B0439253151847S11657291EA0246102587000000000000
B0439293151788S11657276EA0247402604000000000000
B0439333151778S11657339EA0249002618000000000000
B0439373151838S11657328EA0249402620000000000000
B0439413151807S11657250EA0247602599000000000000
B0439453151710S11657218EA0244702587000000000000
B0439493151602S11657204EA0244202574000000000000
B0439533151483S11657203EA0242702561000000000000
B0439573151365S11657205EA0242902560000000000000
B0440013151248S11657215EA0243202562000000000000
B0440053151135S11657230EA0243302556000000000000
B0440093151022S11657244EA0241502535000000000000
B0440133150906S11657248EA0240502528000000000000
B0440173150794S11657254EA0240702538000000000000
B0440213150689S11657260EA0241602537000000000000
B0440253150585S11657268EA0240302518000000000000
B0440293150481S11657272EA0239602517000000000000
B0440333150378S11657265EA0238902504000000000000
B0440373150276S11657264EA0237602498000000000000
B0440413150177S11657267EA0237302491000000000000
B0440453150078S11657269EA0236902485000000000000
B0440493149978S11657267EA0235502469000000000000
B0440533149875S11657264EA0234802461000000000000
B0440573149773S11657257EA0233902449000000000000
B0441013149669S11657248EA0233002450000000000000
B0441053149567S11657246EA0234402473000000000000
B0441093149472S11657251EA0236902494000000000000
B0441133149381S11657260EA0237502489000000000000
B0441173149290S11657274EA0236902486000000000000
B0441213149203S11657291EA0236102475000000000000
B0441253149112S11657306EA0234602456000000000000
B0441293149019S11657322EA0232902442000000000000
B0441333148929S11657352EA0233302448000000000000
B0441373148840S11657382EA0233002433000000000000
B0441413148739S11657397EA0230702418000000000000
B0441453148640S11657400EA0231202438000000000000
B0441493148552S11657408EA0231802425000000000000
B0441533148457S11657415EA0229202399000000000000
B0441573148358S11657420EA0228402401000000000000
B0442013148265S11657419EA0228002395000000000000
B0442053148177S11657417EA0228102401000000000000
B0442093148096S11657420EA0228102393000000000000
B0442133148012S11657424EA0226402366000000000000
B0442173147921S11657412EA0223102341000000000000
B0442213147833S11657400EA0223002342000000000000
B0442253147748S11657394EA0222902334000000000000
B0442293147660S11657387EA0221102318000000000000
B0442333147572S11657382EA0220302316000000000000
B0442373147485S11657380EA0220302312000000000000
B0442413147399S11657377EA0219402304000000000000
B0442453147310S11657374EA0218602289000000000000
B0442493147218S11657371EA0216602272000000000000
B0442533147124S11657367EA0214502244000000000000
B0442573147026S11657360EA0212202226000000000000
B0443013146928S11657354EA0211102221000000000000
B0443053146835S11657348EA0212002235000000000000
B0443093146747S11657354EA0213602256000000000000
B0443133146675S11657367EA0217302298000000000000
B0443173146610S11657385EA0219402304000000000000
B0443213146539S11657411EA0218902296000000000000
B0443253146461S11657429EA0219102308000000000000
B0443293146387S11657446EA0220502323000000000000
B0443333146317S11657465EA0221602324000000000000
B0443373146238S11657495EA0221702331000000000000
B0443413146157S11657525EA0222802347000000000000
B0443453146083S11657556EA0224502362000000000000
B0443493146012S11657589EA0224302344000000000000
B0443533145923S11657608EA0221202305000000000000
B0443573145821S11657601EA0217702272000000000000
B0444013145714S11657568EA0214802251000000000000
B0444053145614S11657530EA0213902251000000000000
B0444093145519S11657495EA0213402242000000000000
B0444133145427S11657464EA0212702234000000000000
B0444173145333S11657436EA0211802226000000000000
B0444213145241S11657408EA0211302219000000000000
B0444253145150S11657384EA0210002208000000000000
B0444293145057S11657356EA0208802194000000000000
B0444333144961S11657328EA0207402178000000000000
B0444373144868S11657304EA0206502176000000000000
B0444413144779S11657285EA0206602173000000000000
B0444453144691S11657280EA0206202167000000000000
B0444493144601S11657280EA0205402158000000000000
B0444533144513S11657277EA0205302163000000000000
B0444573144428S11657270EA0206002167000000000000
B0445013144345S11657273EA0205102162000000000000
B0445053144266S11657282EA0204902153000000000000
B0445093144183S11657282EA0203002122000000000000
B0445133144092S11657269EA0199802088000000000000
B0445173143997S11657254EA0197302068000000000000
B0445213143903S11657231EA0196202059000000000000
B0445253143812S11657207EA0195302048000000000000
B0445293143722S11657177EA0193902030000000000000
B0445333143625S11657146EA0191802012000000000000
B0445373143533S11657112EA0192402035000000000000
B0445413143452S11657083EA0195202061000000000000
B0445453143373S11657066EA0195802062000000000000
B0445493143295S11657072EA0197102083000000000000
B0445533143224S11657098EA0199702108000000000000
B0445573143198S11657161EA0202402135000000000000
B0446013143245S11657202EA0203302141000000000000
B0446053143293S11657152EA0205102164000000000000
B0446093143276S11657081EA0206602174000000000000
B0446133143217S11657069EA0207402182000000000000
B0446173143201S11657133EA0208802198000000000000
B0446213143249S11657168EA0209802210000000000000
B0446253143309S11657130EA0210602215000000000000
B0446293143317S11657046EA0211502230000000000000
B0446333143262S11657003EA0213802255000000000000
B0446373143221S11657042EA0215402267000000000000
B0446413143243S11657101EA0216202277000000000000
B0446453143306S11657121EA0217002288000000000000
B0446493143362S11657078EA0218502308000000000000
B0446533143347S11657005EA0219902317000000000000
B0446573143283S11657018EA0220702326000000000000
B0447013143293S11657086EA0222502351000000000000
B0447053143357S11657083EA0225102375000000000000
B0447093143380S11657018EA0226702388000000000000
B0447133143335S11656969EA0227302390000000000000
B0447173143274S11657000EA0228002406000000000000
B0447213143279S11657068EA0230502429000000000000
B0447253143343S11657069EA0231602441000000000000
B0447293143365S11656995EA0233202458000000000000
B0447333143317S11656945EA0234802474000000000000
B0447373143261S11656969EA0236502492000000000000
B0447413143257S11657031EA0238202505000000000000
B0447453143304S11657075EA0238702507000000000000
B0447493143370S11657069EA0239202525000000000000
B0447533143401S11657012EA0241702545000000000000
B0447573143379S11656952EA0241702534000000000000
B0448013143310S11656930EA0240602533000000000000
B0448053143245S11656958EA0242302551000000000000
B0448093143221S11657027EA0243502562000000000000
B0448133143260S11657090EA0243802562000000000000
B0448173143330S11657055EA0243002547000000000000
B0448213143297S11656964EA0240402518000000000000
B0448253143204S11656917EA0238802508000000000000
B0448293143100S11656888EA0239502522000000000000
B0448333143000S11656869EA0239902517000000000000
B0448373142897S11656854EA0239502515000000000000
B0448413142793S11656840EA0239002506000000000000
B0448453142689S11656831EA0238202501000000000000
B0448493142587S11656822EA0238302501000000000000
B0448533142482S11656813EA0235602472000000000000
B0448573142376S11656802EA0234202459000000000000
B0449013142274S11656793EA0233602457000000000000
B0449053142173S11656784EA0233302453000000000000
B0449093142074S11656774EA0233602456000000000000
B0449133141978S11656770EA0234202460000000000000
B0449173141882S11656765EA0233902461000000000000
B0449213141793S11656760EA0235002472000000000000
B0449253141707S11656761EA0235102467000000000000
B0449293141614S11656761EA0233302449000000000000
B0449333141515S11656757EA0231902437000000000000
B0449373141420S11656749EA0231702435000000000000
B0449413141323S11656743EA0230202413000000000000
B0449453141221S11656741EA0228302394000000000000
B0449493141121S11656739EA0227402387000000000000
B0449533141024S11656735EA0226602379000000000000
B0449573140929S11656731EA0226402374000000000000
B0450013140834S11656724EA0224802361000000000000
B0450053140740S11656718EA0224502360000000000000
B0450093140650S11656709EA0224702365000000000000
B0450133140565S11656698EA0224602361000000000000
B0450173140478S11656687EA0223502347000000000000
B0450213140389S11656675EA0223102344000000000000
B0450253140301S11656665EA0222402333000000000000
B0450293140212S11656654EA0221102318000000000000
B0450333140120S11656641EA0219402303000000000000
B0450373140026S11656628EA0218302294000000000000
B0450413139933S11656615EA0217402288000000000000
B0450453139841S11656605EA0217002283000000000000
B0450493139748S11656593EA0216202271000000000000
B0450533139655S11656580EA0215202258000000000000
B0450573139564S11656565EA0214102246000000000000
B0451013139473S11656549EA0212802231000000000000
B0451053139382S11656533EA0210902216000000000000
B0451093139291S11656519EA0210202209000000000000
B0451133139204S11656509EA0209802209000000000000
B0451173139119S11656498EA0209002195000000000000
B0451213139029S11656488EA0207002175000000000000
B0451253138937S11656468EA0206202170000000000000
B0451293138850S11656438EA0206202171000000000000
B0451333138764S11656403EA0205602160000000000000
B0451373138676S11656367EA0204102151000000000000
B0451413138590S11656332EA0204102150000000000000
B0451453138505S11656298EA0204002145000000000000
B0451493138418S11656266EA0203002136000000000000
B0451533138330S11656230EA0202702137000000000000
B0451573138243S11656195EA0202802142000000000000
B0452013138164S11656164EA0204102159000000000000
B0452053138091S11656134EA0205502163000000000000
B0452093138017S11656102EA0205202157000000000000
B0452133137940S11656067EA0204702154000000000000
B0452173137865S11656033EA0204802160000000000000
B0452213137796S11656002EA0205902171000000000000
B0452253137727S11655973EA0205502162000000000000
B0452293137654S11655946EA0204902153000000000000
B0452333137579S11655924EA0204802154000000000000
B0452373137499S11655902EA0203802143000000000000
B0452413137419S11655869EA0203302143000000000000
B0452453137337S11655842EA0203602147000000000000
B0452493137254S11655825EA0203702144000000000000
B0452533137172S11655807EA0203002133000000000000
B0452573137088S11655785EA0201802120000000000000
B0453013137007S11655759EA0200302101000000000000
B0453053136927S11655718EA0199102088000000000000
B0453093136847S11655677EA0197302070000000000000
B0453133136760S11655652EA0196202071000000000000
B0453173136682S11655642EA0197002076000000000000
B0453213136606S11655640EA0196702071000000000000
B0453253136531S11655642EA0195702052000000000000
B0453293136446S11655644EA0193402031000000000000
B0453333136359S11655647EA0192802029000000000000
B0453373136280S11655636EA0194202049000000000000
B0453413136216S11655592EA0195602058000000000000
B0453453136147S11655562EA0195302054000000000000
B0453493136080S11655549EA0195602064000000000000
B0453533136013S11655547EA0196002060000000000000
B0453573135944S11655545EA0196202069000000000000
B0454013135878S11655545EA0196702069000000000000
B0454053135808S11655548EA0196702070000000000000
B0454093135735S11655547EA0196902076000000000000
B0454133135665S11655551EA0197302078000000000000
B0454173135596S11655564EA0197302075000000000000
B0454213135525S11655577EA0196802071000000000000
B0454253135449S11655583EA0196602066000000000000
B0454293135370S11655582EA0194802051000000000000
B0454333135287S11655583EA0193702036000000000000
B0454373135201S11655590EA0192902033000000000000
B0454413135116S11655591EA0191802010000000000000
B0454453135024S11655566EA0188701990000000000000
B0454493134933S11655538EA0187701975000000000000
B0454533134842S11655509EA0186001955000000000000
B0454573134752S11655480EA0184301939000000000000
B0455013134665S11655463EA0184601948000000000000
B0455053134583S11655465EA0184101934000000000000
B0455093134499S11655465EA0182401914000000000000
B0455133134408S11655449EA0178801874000000000000
B0455173134312S11655419EA0175801851000000000000
B0455213134215S11655392EA0174601838000000000000
B0455253134122S11655367EA0173401825000000000000
B0455293134027S11655344EA0171301804000000000000
B0455333133933S11655323EA0169701793000000000000
B0455373133845S11655313EA0170001801000000000000
B0455413133768S11655324EA0171701813000000000000
B0455453133697S11655341EA0172501818000000000000
B0455493133625S11655363EA0172501823000000000000
B0455533133563S11655398EA0174201845000000000000
B0455573133549S11655460EA0176201861000000000000
B0456013133615S11655474EA0177601877000000000000
B0456053133654S11655405EA0178601890000000000000
B0456093133624S11655341EA0180001905000000000000
B0456133133567S11655335EA0180801908000000000000
B0456173133524S11655379EA0181201916000000000000
B0456213133547S11655439EA0182801931000000000000
B0456253133616S11655444EA0184201946000000000000
B0456293133676S11655397EA0185201958000000000000
B0456333133682S11655318EA0186201967000000000000
B0456373133632S11655275EA0186901972000000000000
B0456413133568S11655288EA0187001974000000000000
B0456453133508S11655319EA0187501981000000000000
B0456493133450S11655359EA0187001963000000000000
B0456533133369S11655378EA0183901932000000000000
B0456573133274S11655366EA0181701915000000000000
B0457013133182S11655348EA0181301915000000000000
B0457053133088S11655332EA0180201900000000000000
B0457093132992S11655306EA0179401896000000000000
B0457133132900S11655280EA0179901905000000000000
B0457173132808S11655263EA0179801897000000000000
B0457213132711S11655242EA0178601885000000000000
B0457253132614S11655220EA0177501872000000000000
B0457293132514S11655194EA0176101860000000000000
B0457333132415S11655166EA0175601853000000000000
B0457373132316S11655136EA0173801834000000000000
B0457413132217S11655107EA0172701827000000000000
B0457453132121S11655081EA0171901808000000000000
B0457493132022S11655054EA0169101780000000000000
B0457533131922S11655029EA0167201767000000000000
B0457573131822S11655007EA0166101757000000000000
B0458013131722S11654984EA0165101742000000000000
B0458053131625S11654959EA0163601730000000000000
B0458093131527S11654933EA0162701722000000000000
B0458133131431S11654910EA0162201714000000000000
B0458173131333S11654885EA0162101717000000000000
B0458213131240S11654859EA0162401718000000000000
B0458253131147S11654832EA0162801730000000000000
B0458293131063S11654826EA0165501757000000000000
B0458333130988S11654843EA0167401772000000000000
B0458373130915S11654868EA0168001770000000000000
B0458413130841S11654888EA0168101773000000000000
B0458453130768S11654915EA0167801765000000000000
B0458493130685S11654928EA0166301747000000000000
B0458533130594S11654921EA0165601749000000000000
B0458573130509S11654923EA0167901778000000000000
B0459013130466S11654969EA0171901819000000000000
B0459053130507S11654995EA0174901846000000000000
B0459093130534S11654938EA0176801866000000000000
B0459133130496S11654877EA0177801874000000000000
B0459173130439S11654886EA0178801893000000000000
B0459213130443S11654938EA0180601913000000000000
B0459253130491S11654929EA0182401928000000000000
B0459293130495S11654856EA0183801939000000000000
B0459333130438S11654817EA0184701952000000000000
B0459373130401S11654862EA0186301965000000000000
B0459413130435S11654894EA0187501977000000000000
B0459453130470S11654841EA0188701991000000000000
B0459493130439S11654771EA0190202008000000000000
B0459533130378S11654765EA0191702022000000000000
B0459573130357S11654817EA0192502028000000000000
B0500013130403S11654834EA0192502026000000000000
B0500053130439S11654772EA0193502043000000000000
B0500093130416S11654699EA0195702063000000000000
B0500133130353S11654687EA0196602072000000000000
B0500173130328S11654739EA0197202080000000000000
B0500213130371S11654764EA0197902086000000000000
B0500253130418S11654719EA0198202093000000000000
B0500293130434S11654642EA0199702111000000000000
B0500333130391S11654581EA0200302112000000000000
B0500373130319S11654576EA0200002106000000000000
B0500413130247S11654599EA0199502104000000000000
B0500453130180S11654641EA0199702107000000000000
B0500493130104S11654672EA0198902090000000000000
B0500533130010S11654676EA0197302081000000000000
B0500573129915S11654673EA0197302086000000000000
B0501013129821S11654672EA0197902089000000000000
B0501053129729S11654670EA0197902087000000000000
B0501093129636S11654668EA0197702088000000000000
B0501133129546S11654663EA0198402099000000000000
B0501173129461S11654655EA0199302103000000000000
B0501213129373S11654647EA0198402091000000000000
B0501253129283S11654641EA0197802088000000000000
B0501293129194S11654633EA0197302079000000000000
B0501333129101S11654622EA0195602053000000000000
B0501373129004S11654603EA0192402025000000000000
B0501413128906S11654582EA0191302016000000000000
B0501453128810S11654559EA0190302003000000000000
B0501493128718S11654540EA0189902011000000000000
B0501533128628S11654537EA0190802016000000000000
B0501573128541S11654538EA0191002013000000000000
B0502013128451S11654540EA0189602000000000000000
B0502053128360S11654540EA0188701991000000000000
B0502093128269S11654540EA0188601993000000000000
B0502133128182S11654547EA0189001994000000000000
B0502173128091S11654546EA0187801972000000000000
B0502213127998S11654524EA0185801956000000000000
B0502253127905S11654494EA0184901950000000000000
B0502293127818S11654460EA0184801955000000000000
B0502333127736S11654429EA0186001964000000000000
B0502373127656S11654397EA0185801958000000000000
B0502413127572S11654368EA0185201957000000000000
B0502453127492S11654340EA0186301965000000000000
B0502493127409S11654312EA0185701953000000000000
B0502533127327S11654279EA0186901981000000000000
B0502573127249S11654253EA0188701995000000000000
B0503013127177S11654234EA0189502002000000000000
B0503053127103S11654214EA0188801977000000000000
B0503093127016S11654180EA0185601953000000000000
B0503133126926S11654140EA0185001948000000000000
B0503173126841S11654098EA0183901939000000000000
B0503213126753S11654059EA0183501935000000000000
B0503253126670S11654020EA0184201946000000000000
B0503293126584S11653983EA0183401930000000000000
B0503333126493S11653941EA0182001917000000000000
B0503373126402S11653902EA0181201911000000000000
B0503413126311S11653866EA0181101910000000000000
B0503453126220S11653828EA0179901893000000000000
B0503493126128S11653790EA0178101878000000000000
B0503533126035S11653753EA0177201868000000000000
B0503573125941S11653716EA0175301852000000000000
B0504013125849S11653684EA0174001838000000000000
B0504053125758S11653654EA0173001830000000000000
B0504093125671S11653625EA0172901823000000000000
B0504133125586S11653597EA0171701810000000000000
B0504173125502S11653567EA0169801786000000000000
B0504213125413S11653536EA0167501766000000000000
B0504253125326S11653504EA0165901748000000000000
B0504293125240S11653477EA0164401732000000000000
B0504333125156S11653450EA0162401711000000000000
B0504373125076S11653415EA0161401704000000000000
B0504413124996S11653380EA0160501698000000000000
B0504453124918S11653348EA0161201711000000000000
B0504493124846S11653338EA0163301738000000000000
B0504533124781S11653346EA0165701756000000000000
B0504573124722S11653357EA0167301772000000000000
B0505013124670S11653382EA0169401796000000000000
B0505053124662S11653434EA0170901799000000000000
B0505093124719S11653454EA0169301786000000000000
B0505133124759S11653391EA0169701797000000000000
B0505173124749S11653313EA0170601804000000000000
B0505213124711S11653244EA0171301814000000000000
B0505253124660S11653192EA0173201839000000000000
B0505293124610S11653204EA0176201872000000000000
B0505333124616S11653269EA0177801884000000000000
B0505373124673S11653276EA0179301904000000000000
B0505413124692S11653214EA0181301927000000000000
B0505453124658S11653166EA0183401947000000000000
B0505493124606S11653179EA0184801963000000000000
B0505533124603S11653242EA0186601982000000000000
B0505573124655S11653259EA0188301997000000000000
B0506013124681S11653201EA0189802013000000000000
B0506053124645S11653155EA0191402032000000000000
B0506093124595S11653181EA0193302051000000000000
B0506133124594S11653243EA0195002068000000000000
B0506173124645S11653265EA0196502081000000000000
B0506213124683S11653217EA0198002096000000000000
B0506253124659S11653159EA0199502112000000000000
B0506293124605S11653164EA0200902128000000000000
B0506333124588S11653226EA0202402141000000000000
B0506373124633S11653266EA0203102149000000000000
B0506413124683S11653234EA0204502165000000000000
B0506453124683S11653168EA0206002180000000000000
B0506493124637S11653134EA0207002189000000000000
B0506533124589S11653165EA0208202206000000000000
B0506573124603S11653225EA0210102220000000000000
B0507013124660S11653225EA0210602225000000000000
B0507053124680S11653161EA0211602239000000000000
B0507093124645S11653109EA0212902248000000000000
B0507133124589S11653113EA0213802258000000000000
B0507173124567S11653172EA0214802268000000000000
B0507213124602S11653221EA0215302271000000000000
B0507253124666S11653214EA0215302270000000000000
B0507293124709S11653161EA0216102281000000000000
B0507333124685S11653092EA0216002273000000000000
B0507373124616S11653049EA0213802250000000000000
B0507413124533S11653018EA0213002250000000000000
B0507453124442S11652992EA0212102231000000000000
B0507493124339S11652970EA0209902214000000000000
B0507533124231S11652949EA0209402209000000000000
B0507573124124S11652928EA0208402203000000000000
B0508013124018S11652910EA0208802201000000000000
B0508053123917S11652895EA0208702207000000000000
B0508093123817S11652880EA0207902189000000000000
B0508133123714S11652866EA0205402164000000000000
B0508173123609S11652853EA0203602150000000000000
B0508213123502S11652841EA0203202146000000000000
B0508253123397S11652826EA0202802141000000000000
B0508293123294S11652808EA0202402132000000000000
B0508333123191S11652789EA0200902122000000000000
B0508373123093S11652771EA0200502116000000000000
B0508413123000S11652753EA0200702120000000000000
B0508453122908S11652733EA0199202099000000000000
B0508493122814S11652715EA0198102088000000000000
B0508533122721S11652694EA0196802080000000000000
B0508573122631S11652675EA0197902093000000000000
B0509013122548S11652655EA0199302105000000000000
B0509053122467S11652632EA0199102099000000000000
B0509093122382S11652606EA0198402095000000000000
B0509133122294S11652583EA0197202077000000000000
B0509173122205S11652562EA0196202065000000000000
B0509213122112S11652542EA0194402051000000000000
B0509253122021S11652522EA0194002045000000000000
B0509293121928S11652501EA0193302041000000000000
B0509333121837S11652479EA0193402038000000000000
B0509373121743S11652458EA0192502032000000000000
B0509413121656S11652440EA0193102040000000000000
B0509453121574S11652419EA0194202051000000000000
B0509493121498S11652401EA0195002056000000000000
B0509533121423S11652395EA0195602068000000000000
B0509573121353S11652402EA0198402096000000000000
B0510013121327S11652457EA0199302099000000000000
B0510053121384S11652472EA0198802097000000000000
B0510093121420S11652402EA0200002118000000000000
B0510133121405S11652327EA0202802146000000000000
B0510173121348S11652304EA0204802157000000000000
B0510213121313S11652358EA0204902159000000000000
B0510253121349S11652406EA0205202166000000000000
B0510293121403S11652380EA0206802186000000000000
B0510333121407S11652308EA0208902205000000000000
B0510373121360S11652263EA0210102214000000000000
B0510413121291S11652265EA0210802224000000000000
B0510453121271S11652320EA0212402242000000000000
B0510493121319S11652342EA0212702241000000000000
B0510533121352S11652282EA0213502261000000000000
B0510573121329S11652215EA0215702282000000000000
B0511013121265S11652203EA0216702286000000000000
B0511053121245S11652264EA0217202287000000000000
B0511093121293S11652306EA0217802301000000000000
B0511133121342S11652269EA0219502321000000000000
B0511173121319S11652197EA0220602328000000000000
B0511213121247S11652169EA0220602323000000000000
B0511253121161S11652168EA0220802334000000000000
B0511293121101S11652215EA0222402346000000000000
B0511333121119S11652280EA0222802347000000000000
B0511373121180S11652288EA0222702346000000000000
B0511413121245S11652264EA0223302355000000000000
B0511453121282S11652200EA0224502367000000000000
B0511493121240S11652126EA0225002368000000000000
B0511533121161S11652095EA0225202379000000000000
B0511573121078S11652076EA0225202369000000000000
B0512013120985S11652054EA0222202337000000000000
B0512053120884S11652028EA0220302315000000000000
B0512093120780S11652000EA0218402303000000000000
B0512133120677S11651977EA0217402291000000000000
B0512173120576S11651957EA0216402284000000000000
B0512213120476S11651940EA0216002277000000000000
B0512253120374S11651924EA0214802263000000000000
B0512293120270S11651908EA0213302251000000000000
B0512333120168S11651892EA0212202239000000000000
B0512373120066S11651878EA0211202231000000000000
B0512413119967S11651865EA0210602224000000000000
B0512453119870S11651855EA0209902216000000000000
B0512493119774S11651843EA0209002206000000000000
B0512533119680S11651833EA0208502201000000000000
B0512573119588S11651818EA0207202187000000000000
B0513013119497S11651804EA0206102175000000000000
B0513053119408S11651787EA0205402168000000000000
B0513093119323S11651770EA0204502161000000000000
B0513133119239S11651755EA0203902153000000000000
B0513173119158S11651740EA0203602144000000000000
B0513213119074S11651723EA0201202113000000000000
B0513253118985S11651704EA0199002099000000000000
B0513293118900S11651693EA0199102105000000000000
B0513333118818S11651690EA0198302090000000000000
B0513373118730S11651687EA0195902064000000000000
B0513413118638S11651682EA0194702057000000000000
B0513453118552S11651678EA0195002061000000000000
B0513493118467S11651675EA0193602038000000000000
B0513533118375S11651665EA0192402023000000000000
B0513573118281S11651649EA0191402022000000000000
B0514013118192S11651644EA0192602045000000000000
B0514053118116S11651641EA0195502072000000000000
B0514093118041S11651645EA0197102082000000000000
B0514133117968S11651654EA0198602101000000000000
B0514173117899S11651666EA0200402116000000000000
B0514213117829S11651682EA0201502125000000000000
B0514253117761S11651701EA0202002125000000000000
B0514293117689S11651726EA0201002116000000000000
B0514333117612S11651749EA0200802108000000000000
B0514373117523S11651753EA0198602076000000000000
B0514413117426S11651734EA0196502066000000000000
B0514453117327S11651709EA0195902066000000000000
B0514493117230S11651686EA0195502057000000000000
B0514533117131S11651662EA0194402051000000000000
B0514573117033S11651638EA0194202048000000000000
B0515013116940S11651612EA0194502053000000000000
B0515053116847S11651582EA0194002046000000000000
B0515093116755S11651550EA0193002036000000000000
B0515133116667S11651523EA0193102040000000000000
B0515173116580S11651497EA0192802032000000000000
B0515213116491S11651469EA0191902020000000000000
B0515253116402S11651450EA0191602026000000000000
B0515293116316S11651437EA0192802037000000000000
B0515333116231S11651420EA0193502046000000000000
B0515373116149S11651398EA0194702053000000000000
B0515413116064S11651379EA0194402043000000000000
B0515453115975S11651359EA0192402016000000000000
B0515493115880S11651339EA0190001999000000000000
B0515533115787S11651323EA0188901986000000000000
B0515573115692S11651306EA0187001969000000000000
B0516013115594S11651303EA0185901962000000000000
B0516053115501S11651305EA0185201954000000000000
B0516093115408S11651303EA0184401943000000000000
B0516133115317S11651297EA0183101927000000000000
B0516173115226S11651283EA0181101904000000000000
B0516213115133S11651259EA0179401895000000000000
B0516253115043S11651235EA0179201891000000000000
B0516293114953S11651211EA0178801885000000000000
B0516333114864S11651185EA0177801875000000000000
B0516373114775S11651163EA0177601877000000000000
B0516413114687S11651141EA0177301873000000000000
B0516453114604S11651136EA0178301891000000000000
B0516493114527S11651141EA0179701900000000000000
B0516533114453S11651154EA0180201907000000000000
B0516573114384S11651176EA0180901908000000000000
B0517013114312S11651203EA0180401903000000000000
B0517053114246S11651244EA0180601909000000000000
B0517093114188S11651287EA0181201914000000000000
B0517133114116S11651318EA0179801882000000000000
B0517173114021S11651310EA0176601855000000000000
B0517213113924S11651279EA0175701859000000000000
B0517253113829S11651242EA0175901859000000000000
B0517293113735S11651203EA0175901860000000000000
B0517333113642S11651164EA0176201861000000000000
B0517373113548S11651132EA0177601882000000000000
B0517413113495S11651179EA0182901940000000000000
B0517453113531S11651218EA0186401968000000000000
B0517493113569S11651173EA0187901977000000000000
B0517533113535S11651106EA0188201987000000000000
B0517573113474S11651120EA0190702017000000000000
B0518013113479S11651184EA0193402047000000000000
B0518053113529S11651188EA0195702067000000000000
B0518093113551S11651127EA0197402084000000000000
B0518133113516S11651060EA0198302094000000000000
B0518173113454S11651069EA0200802131000000000000
B0518213113454S11651131EA0203702158000000000000
B0518253113505S11651140EA0205602176000000000000
B0518293113529S11651079EA0207702195000000000000
B0518333113486S11651019EA0208602206000000000000
B0518373113426S11651037EA0211502241000000000000
B0518413113421S11651102EA0213502262000000000000
B0518453113471S11651132EA0215502284000000000000
B0518493113516S11651089EA0218002310000000000000
B0518533113509S11651014EA0219902323000000000000
B0518573113451S11650976EA0221102342000000000000
B0519013113399S11651020EA0224002372000000000000
B0519053113413S11651084EA0226402394000000000000
B0519093113469S11651084EA0228502417000000000000
B0519133113480S11651012EA0230902438000000000000
B0519173113432S11650958EA0232202450000000000000
B0519213113367S11650980EA0234402473000000000000
B0519253113358S11651050EA0236102491000000000000
B0519293113413S11651081EA0237202505000000000000
B0519333113451S11651021EA0239202528000000000000
B0519373113415S11650950EA0241302545000000000000
B0519413113347S11650960EA0243002567000000000000
B0519453113340S11651032EA0245102582000000000000
B0519493113400S11651046EA0246202595000000000000
B0519533113438S11650981EA0248402626000000000000
B0519573113415S11650904EA0250702641000000000000
B0520013113348S11650880EA0252002658000000000000
B0520053113304S11650938EA0253702674000000000000
B0520093113335S11650995EA0254702682000000000000
B0520133113396S11650969EA0256002697000000000000
B0520173113397S11650890EA0258302724000000000000
B0520213113334S11650859EA0259602738000000000000
B0520253113282S11650911EA0260902752000000000000
B0520293113308S11650975EA0262402763000000000000
B0520333113369S11650959EA0263002773000000000000
B0520373113380S11650881EA0265102798000000000000
B0520413113328S11650826EA0266802807000000000000
B0520453113267S11650861EA0267802821000000000000
B0520493113274S11650933EA0269202833000000000000
B0520533113335S11650943EA0269302832000000000000
B0520573113360S11650868EA0271402861000000000000
B0521013113319S11650803EA0273202874000000000000
B0521053113253S11650813EA0274302884000000000000
B0521093113239S11650884EA0275602897000000000000
B0521133113292S11650907EA0276002899000000000000
B0521173113326S11650841EA0277502921000000000000
B0521213113304S11650765EA0279102933000000000000
B0521253113235S11650722EA0277402912000000000000
B0521293113141S11650700EA0275802895000000000000
B0521333113037S11650679EA0273902869000000000000
B0521373112927S11650664EA0272602862000000000000
B0521413112816S11650651EA0273002864000000000000
B0521453112707S11650637EA0273002863000000000000
B0521493112600S11650618EA0272802862000000000000
B0521533112494S11650598EA0272602855000000000000
B0521573112386S11650575EA0271502846000000000000
B0522013112279S11650552EA0270802837000000000000
B0522053112174S11650530EA0269702826000000000000
B0522093112070S11650509EA0269202821000000000000
B0522133111969S11650491EA0268802818000000000000
B0522173111868S11650468EA0267502796000000000000
B0522213111768S11650443EA0266102791000000000000
B0522253111673S11650421EA0266702801000000000000
B0522293111584S11650400EA0267602805000000000000
B0522333111494S11650375EA0266202787000000000000
B0522373111402S11650349EA0265002779000000000000
B0522413111309S11650326EA0264902776000000000000
B0522453111218S11650306EA0264402770000000000000
B0522493111126S11650287EA0263802761000000000000
B0522533111035S11650269EA0263202757000000000000
B0522573110945S11650253EA0262902756000000000000
B0523013110858S11650241EA0263302759000000000000
B0523053110770S11650224EA0261702738000000000000
B0523093110676S11650204EA0260202727000000000000
B0523133110583S11650180EA0260002732000000000000
B0523173110496S11650162EA0261102741000000000000
B0523213110410S11650143EA0260002728000000000000
B0523253110321S11650119EA0259202715000000000000
B0523293110233S11650097EA0257902701000000000000
B0523333110142S11650074EA0256702690000000000000
B0523373110054S11650052EA0256502691000000000000
B0523413109968S11650029EA0256202687000000000000
B0523453109881S11650009EA0255502677000000000000
B0523493109791S11649985EA0253902660000000000000
B0523533109697S11649962EA0252902655000000000000
B0523573109608S11649941EA0253102659000000000000
B0524013109519S11649919EA0252802653000000000000
B0524053109431S11649894EA0252602651000000000000
B0524093109346S11649871EA0252902651000000000000
B0524133109263S11649849EA0252202642000000000000
B0524173109176S11649828EA0250302621000000000000
B0524213109085S11649803EA0248402601000000000000
B0524253108989S11649776EA0246602584000000000000
B0524293108891S11649747EA0245402576000000000000
B0524333108797S11649717EA0244902569000000000000
B0524373108704S11649689EA0244402561000000000000
B0524413108611S11649662EA0243402550000000000000
B0524453108516S11649633EA0242102533000000000000
B0524493108418S11649603EA0240002512000000000000
B0524533108319S11649572EA0238402498000000000000
B0524573108221S11649542EA0237202486000000000000
B0525013108123S11649512EA0236402482000000000000
B0525053108030S11649478EA0236002470000000000000
B0525093107935S11649439EA0234802468000000000000
B0525133107845S11649405EA0235702470000000000000
B0525173107754S11649373EA0234002449000000000000
B0525213107662S11649342EA0232902442000000000000
B0525253107573S11649312EA0232402437000000000000
B0525293107486S11649283EA0232202435000000000000
B0525333107400S11649262EA0232702446000000000000
B0525373107318S11649244EA0233002449000000000000
B0525413107238S11649229EA0232802435000000000000
B0525453107149S11649205EA0229902413000000000000
B0525493107057S11649174EA0228402401000000000000
B0525533106965S11649139EA0226802379000000000000
B0525573106870S11649100EA0224402356000000000000
B0526013106775S11649064EA0223102346000000000000
B0526053106680S11649027EA0222202331000000000000
B0526093106584S11648991EA0221002325000000000000
B0526133106490S11648957EA0221402332000000000000
B0526173106401S11648923EA0220802317000000000000
B0526213106307S11648902EA0219502307000000000000
B0526253106219S11648889EA0218702296000000000000
B0526293106124S11648872EA0216102265000000000000
B0526333106025S11648852EA0213902244000000000000
B0526373105926S11648814EA0211802220000000000000
B0526413105831S11648761EA0209802203000000000000
B0526453105736S11648703EA0208702199000000000000
B0526493105643S11648654EA0208802204000000000000
B0526533105552S11648607EA0209802211000000000000
B0526573105461S11648566EA0209602203000000000000
B0527013105366S11648524EA0208002180000000000000
B0527053105270S11648482EA0206902176000000000000
B0527093105175S11648447EA0206902174000000000000
B0527133105080S11648414EA0205802158000000000000
B0527173104984S11648384EA0204502147000000000000
B0527213104889S11648352EA0203902139000000000000
B0527253104791S11648321EA0202802132000000000000
B0527293104695S11648293EA0202402127000000000000
B0527333104596S11648264EA0201202114000000000000
B0527373104496S11648243EA0200702109000000000000
B0527413104399S11648225EA0200002101000000000000
B0527453104301S11648207EA0199202093000000000000
B0527493104208S11648177EA0199402104000000000000
B0527533104131S11648138EA0201802129000000000000
B0527573104055S11648139EA0202902134000000000000
B0528013103981S11648163EA0203302138000000000000
B0528053103925S11648219EA0204502157000000000000
B0528093103912S11648294EA0206002163000000000000
B0528133103962S11648337EA0205102149000000000000
B0528173103988S11648269EA0203202133000000000000
B0528213103964S11648190EA0202702134000000000000
B0528253103910S11648130EA0201902118000000000000
B0528293103834S11648082EA0200802115000000000000
B0528333103754S11648048EA0201202122000000000000
B0528373103669S11648042EA0202102142000000000000
B0528413103594S11648051EA0204802167000000000000
B0528453103525S11648070EA0207102192000000000000
B0528493103502S11648128EA0209802208000000000000
B0528533103561S11648137EA0209102196000000000000
B0528573103589S11648061EA0209502218000000000000
B0529013103554S11648004EA0212202241000000000000
B0529053103503S11648020EA0213102238000000000000
B0529093103474S11648087EA0212402237000000000000
B0529133103450S11648161EA0213602251000000000000
B0529173103428S11648233EA0215002268000000000000
B0529213103454S11648297EA0216502276000000000000
B0529253103507S11648289EA0215802261000000000000
B0529293103508S11648215EA0213902245000000000000
B0529333103465S11648143EA0213802252000000000000
B0529373103403S11648092EA0214302261000000000000
B0529413103337S11648056EA0216102276000000000000
B0529453103268S11648025EA0214702251000000000000
B0529493103179S11647994EA0212302240000000000000
B0529533103087S11647968EA0213602266000000000000
B0529573103001S11647961EA0216402293000000000000
B0530013102922S11647964EA0218802314000000000000
B0530053102844S11647972EA0219702309000000000000
B0530093102758S11647968EA0218302288000000000000
B0530133102661S11647947EA0215902270000000000000
B0530173102555S11647923EA0214902267000000000000
B0530213102455S11647904EA0216602290000000000000
B0530253102362S11647884EA0217602289000000000000
B0530293102263S11647865EA0216002270000000000000
B0530333102159S11647849EA0214602259000000000000
B0530373102053S11647835EA0213902243000000000000
B0530413101946S11647831EA0211802229000000000000
B0530453101840S11647834EA0210902220000000000000
B0530493101739S11647838EA0211102219000000000000
B0530533101639S11647839EA0210302222000000000000
B0530573101548S11647844EA0212302237000000000000
B0531013101454S11647849EA0211302217000000000000
B0531053101357S11647853EA0209302197000000000000
B0531093101255S11647861EA0207202175000000000000
B0531133101153S11647868EA0205302153000000000000
B0531173101050S11647873EA0202802133000000000000
B0531213100947S11647879EA0201302120000000000000
B0531253100847S11647884EA0201002114000000000000
B0531293100752S11647887EA0200402110000000000000
B0531333100659S11647888EA0199602096000000000000
B0531373100564S11647886EA0198002081000000000000
B0531413100469S11647883EA0196702071000000000000
B0531453100373S11647879EA0195502054000000000000
B0531493100275S11647878EA0194202042000000000000
B0531533100176S11647875EA0193102033000000000000
B0531573100076S11647873EA0192402025000000000000
B0532013059976S11647868EA0191902017000000000000
B0532053059876S11647858EA0190902005000000000000
B0532093059781S11647845EA0191502037000000000000
B0532133059706S11647835EA0195902074000000000000
B0532173059641S11647832EA0198402091000000000000
B0532213059581S11647851EA0199202095000000000000
B0532253059530S11647890EA0199402097000000000000
B0532293059490S11647940EA0199702105000000000000
B0532333059457S11647992EA0200802115000000000000
B0532373059425S11648042EA0200502102000000000000
B0532413059351S11648069EA0197202065000000000000
B0532453059251S11648064EA0195102053000000000000
B0532493059148S11648048EA0194302044000000000000
B0532533059044S11648030EA0193702039000000000000
B0532573058940S11648014EA0193002031000000000000
B0533013058837S11648000EA0192402025000000000000
B0533053058740S11647985EA0192902034000000000000
B0533093058644S11647966EA0192702027000000000000
B0533133058546S11647952EA0192002024000000000000
B0533173058451S11647939EA0192602032000000000000
B0533213058359S11647931EA0192802026000000000000
B0533253058263S11647922EA0191102005000000000000
B0533293058164S11647914EA0189702000000000000000
B0533333058069S11647910EA0189702007000000000000
B0533373057988S11647922EA0191402022000000000000
B0533413057910S11647930EA0191302009000000000000
B0533453057827S11647929EA0189401988000000000000
B0533493057739S11647920EA0188401978000000000000
B0533533057650S11647905EA0186501958000000000000
B0533573057558S11647887EA0184401939000000000000
B0534013057467S11647870EA0184301945000000000000
B0534053057384S11647862EA0187101982000000000000
B0534093057318S11647875EA0190302004000000000000
B0534133057275S11647930EA0189901993000000000000
B0534173057210S11647975EA0188801983000000000000
B0534213057128S11647979EA0189201991000000000000
B0534253057052S11647953EA0190102002000000000000
B0534293056982S11647914EA0189901992000000000000
B0534333056903S11647875EA0187601967000000000000
B0534373056812S11647839EA0186201960000000000000
B0534413056720S11647806EA0185401953000000000000
B0534453056623S11647774EA0184401941000000000000
B0534493056525S11647749EA0182901928000000000000
B0534533056423S11647730EA0181601913000000000000
B0534573056320S11647717EA0179401890000000000000
B0535013056216S11647706EA0178101876000000000000
B0535053056115S11647696EA0177501866000000000000
B0535093056016S11647689EA0176801865000000000000
B0535133055924S11647684EA0177001866000000000000
B0535173055837S11647680EA0176801861000000000000
B0535213055748S11647679EA0176201850000000000000
B0535253055660S11647675EA0175301847000000000000
B0535293055577S11647674EA0175701851000000000000
B0535333055495S11647674EA0174301830000000000000
B0535373055409S11647671EA0172501813000000000000
B0535413055321S11647669EA0170301792000000000000
B0535453055230S11647667EA0168901773000000000000
B0535493055140S11647669EA0167401759000000000000
B0535533055052S11647671EA0166701756000000000000
B0535573054968S11647673EA0166601754000000000000
B0536013054885S11647673EA0165901744000000000000
B0536053054798S11647670EA0165001734000000000000
B0536093054708S11647667EA0164101727000000000000
B0536133054615S11647665EA0163401719000000000000
B0536173054521S11647660EA0164001734000000000000
B0536213054433S11647653EA0165101740000000000000
B0536253054343S11647650EA0165601747000000000000
B0536293054256S11647653EA0166301756000000000000
B0536333054173S11647666EA0167201761000000000000
B0536373054088S11647684EA0167401763000000000000
B0536413054004S11647695EA0168501779000000000000
B0536453053923S11647705EA0168601774000000000000
B0536493053843S11647717EA0167901765000000000000
B0536533053758S11647725EA0166601747000000000000
B0536573053670S11647722EA0165101739000000000000
B0537013053579S11647719EA0164201723000000000000
B0537053053485S11647714EA0162001700000000000000
B0537093053392S11647708EA0160701692000000000000
B0537133053302S11647702EA0160101684000000000000
B0537173053208S11647696EA0158501666000000000000
B0537213053112S11647691EA0157801663000000000000
B0537253053017S11647683EA0156601643000000000000
B0537293052918S11647679EA0154401622000000000000
B0537333052820S11647675EA0153101609000000000000
B0537373052719S11647673EA0150901581000000000000
B0537413052619S11647671EA0149501574000000000000
B0537453052521S11647667EA0149101571000000000000
B0537493052423S11647661EA0148901571000000000000
B0537533052329S11647657EA0148901565000000000000
B0537573052235S11647650EA0147601547000000000000
B0538013052138S11647639EA0146201537000000000000
B0538053052042S11647626EA0145001519000000000000
B0538093051945S11647613EA0142801501000000000000
B0538133051845S11647600EA0141301482000000000000
B0538173051747S11647584EA0140401479000000000000
B0538213051655S11647571EA0140501480000000000000
B0538253051566S11647561EA0140101474000000000000
B0538293051478S11647553EA0139201465000000000000
B0538333051392S11647550EA0139701484000000000000
B0538373051340S11647593EA0143501528000000000000
B0538413051383S11647628EA0145301541000000000000
B0538453051422S11647574EA0146701556000000000000
B0538493051403S11647507EA0147501562000000000000
B0538533051343S11647496EA0148701579000000000000
B0538573051335S11647557EA0150401595000000000000
B0539013051392S11647557EA0151801610000000000000
B0539053051408S11647488EA0153001619000000000000
B0539093051362S11647437EA0153601627000000000000
B0539133051305S11647450EA0155201646000000000000
B0539173051319S11647513EA0156901663000000000000
B0539213051377S11647497EA0158901684000000000000
B0539253051380S11647428EA0160201694000000000000
B0539293051331S11647393EA0161101706000000000000
B0539333051295S11647436EA0162501717000000000000
B0539373051349S11647462EA0162801723000000000000
B0539413051382S11647397EA0164901748000000000000
B0539453051340S11647349EA0166201768000000015000
B0539493051322S11647400EA0168201790000000015000
B0539533051383S11647400EA0169401801000000015000
B0539573051403S11647325EA0170501805000000000000
B0540013051354S11647273EA0170601813000000015000
B0540053051315S11647314EA0173001836000000000000
B0540093051364S11647355EA0174001845000000000000
B0540133051406S11647299EA0175401854000000000000
B0540173051367S11647242EA0175601855000000000000
B0540213051305S11647263EA0176101863000000000000
B0540253051274S11647323EA0177401884000000000000
B0540293051326S11647358EA0179601906000000000000
B0540333051354S11647290EA0181501923000000000000
B0540373051305S11647245EA0182501933000000000000
B0540413051253S11647279EA0183301938000000000000
B0540453051270S11647345EA0183401939000000000000
B0540493051339S11647328EA0184001952000000000000
B0540533051343S11647241EA0185801966000000000000
B0540573051284S11647223EA0187101978000000000000
B0541013051260S11647279EA0188001987000000000000
B0541053051305S11647325EA0188401988000000000000
B0541093051370S11647297EA0189602004000000000000
B0541133051383S11647215EA0190502010000000000000
B0541173051339S11647153EA0191302016000000000000
B0541213051282S11647160EA0191902024000000000000
B0541253051248S11647214EA0192602033000000000000
B0541293051247S11647281EA0193602042000000000000
B0541333051304S11647311EA0194002048000000000000
B0541373051360S11647264EA0194902056000000000000
B0541413051330S11647193EA0195502060000000000000
B0541453051269S11647205EA0195802069000000000000
B0541493051218S11647247EA0197002080000000000000
B0541533051174S11647299EA0197802087000000000000
B0541573051130S11647357EA0196802062000000000000
B0542013051049S11647400EA0192802026000000000000
B0542053050949S11647424EA0190902015000000000000
B0542093050844S11647440EA0190002002000000000000
B0542133050736S11647452EA0189001993000000000000
B0542173050629S11647462EA0188501989000000000000
B0542213050520S11647471EA0187501981000000000000
B0542253050415S11647485EA0187401977000000000000
B0542293050309S11647497EA0186801968000000000000
B0542333050204S11647506EA0185801958000000000000
B0542373050101S11647511EA0185201950000000000000
B0542413049999S11647515EA0183801931000000000000
B0542453049897S11647519EA0182201916000000000000
B0542493049796S11647519EA0181001907000000000000
B0542533049700S11647518EA0180101896000000000000
B0542573049601S11647511EA0179001882000000000000
B0543013049507S11647500EA0179601896000000000000
B0543053049419S11647492EA0179701892000000000000
B0543093049330S11647493EA0179001880000000000000
B0543133049242S11647493EA0178101875000000000000
B0543173049157S11647487EA0178101879000000000000
B0543213049078S11647478EA0178501878000000000000
B0543253049000S11647481EA0178801885000000000000
B0543293048927S11647502EA0179601890000000000000
B0543333048861S11647536EA0179401882000000000000
B0543373048791S11647574EA0177801864000000000000
B0543413048708S11647601EA0175401837000000000000
B0543453048617S11647619EA0174701841000000000000
B0543493048530S11647645EA0174701835000000000000
B0543533048442S11647678EA0173801819000000000000
B0543573048349S11647708EA0171101786000000000000
B0544013048242S11647717EA0169201775000000000000
B0544053048137S11647712EA0168501767000000000000
B0544093048034S11647704EA0168301779000000000000
B0544133047943S11647696EA0171001809000000000000
B0544173047863S11647705EA0172001817000000000000
B0544213047791S11647738EA0173301830000000000000
B0544253047729S11647779EA0173601826000000000000
B0544293047664S11647823EA0172501805000000000000
B0544333047583S11647847EA0170001780000000000000
B0544373047491S11647852EA0167801760000000000000
B0544413047397S11647844EA0166701751000000000000
B0544453047305S11647831EA0165901745000000000000
B0544493047214S11647813EA0164701734000000000000
B0544533047124S11647795EA0163801722000000000000
B0544573047036S11647775EA0162701713000000000000
B0545013046949S11647754EA0162101703000000000000
B0545053046863S11647730EA0160801692000000000000
B0545093046777S11647705EA0159901683000000000000
B0545133046693S11647682EA0158901672000000000000
B0545173046608S11647658EA0157601654000000000000
B0545213046524S11647636EA0156301644000000000000
B0545253046437S11647617EA0156001643000000000000
B0545293046352S11647595EA0155601638000000000000
B0545333046268S11647574EA0155701645000000000000
B0545373046186S11647567EA0156501651000000000000
B0545413046109S11647576EA0157101658000000000000
B0545453046039S11647601EA0158001667000000000000
B0545493045970S11647631EA0158101662000000000000
B0545533045898S11647661EA0157901663000000000000
B0545573045832S11647700EA0158401670000000000000
B0546013045785S11647756EA0160301694000000000000
B0546053045813S11647803EA0161101698000000000000
B0546093045850S11647758EA0161401704000000000000
B0546133045835S11647686EA0162501714000000000000
B0546173045772S11647656EA0163401725000000000000
B0546213045736S11647702EA0165301746000000000000
B0546253045770S11647735EA0165801751000000000000
B0546293045803S11647687EA0167001765000000000000
B0546333045766S11647623EA0168001773000000000000
B0546373045693S11647622EA0168401778000000000000
B0546413045672S11647686EA0170001798000000000000
B0546453045719S11647700EA0172001819000000000000
B0546493045732S11647637EA0173701837000000000000
B0546533045683S11647579EA0174401841000000000000
B0546573045614S11647600EA0174601850000000000000
B0547013045607S11647665EA0176401870000000000000
B0547053045653S11647686EA0177901883000000000000
B0547093045685S11647634EA0179301899000000000000
B0547133045667S11647556EA0180501907000000000000
B0547173045608S11647502EA0181001911000000000000
B0547213045536S11647501EA0181401914000000000000
B0547253045469S11647540EA0181501919000000000000
B0547293045423S11647595EA0182901934000000000000
B0547333045436S11647657EA0184001947000000000000
B0547373045486S11647679EA0185201957000000000000
B0547413045521S11647627EA0185801964000000000000
B0547453045495S11647548EA0186501972000000000000
B0547493045434S11647502EA0187601984000000000000
B0547533045372S11647523EA0188201988000000000000
B0547573045359S11647589EA0188701997000000000000
B0548013045403S11647611EA0190402015000000000000
B0548053045436S11647553EA0191602024000000000000
B0548093045404S11647478EA0192202030000000000000
B0548133045335S11647445EA0192502027000000000000
B0548173045256S11647422EA0192002025000000000000
B0548213045176S11647392EA0191902022000000000000
B0548253045090S11647353EA0190302006000000000000
B0548293044999S11647314EA0190002007000000000000
B0548333044908S11647272EA0189601999000000000000
B0548373044812S11647233EA0188201983000000000000
B0548413044713S11647190EA0186501964000000000000
B0548453044611S11647145EA0185101955000000000000
B0548493044510S11647099EA0184301951000000000000
B0548533044410S11647059EA0184301951000000000000
B0548573044312S11647023EA0184601950000000000000
B0549013044217S11646987EA0185001959000000000000
B0549053044126S11646954EA0186301975000000000000
B0549093044043S11646928EA0188602003000000000000
B0549133043969S11646907EA0190502010000000000000
B0549173043895S11646887EA0190102000000000000000
B0549213043820S11646860EA0189001987000000000000
B0549253043739S11646826EA0187701973000000000000
B0549293043658S11646786EA0187201975000000000000
B0549333043580S11646743EA0188101986000000000000
B0549373043505S11646704EA0188401988000000000000
B0549413043430S11646672EA0188501989000000000000
B0549453043354S11646644EA0188801990000000000000
B0549493043278S11646623EA0188701987000000000000
B0549533043200S11646600EA0187501971000000000000
B0549573043119S11646574EA0186301959000000000000
B0550013043036S11646544EA0184701943000000000000
B0550053042955S11646516EA0183901937000000000000
B0550093042876S11646491EA0183501931000000000000
B0550133042799S11646462EA0182301916000000000000
B0550173042721S11646427EA0181001907000000000000
B0550213042646S11646392EA0180501899000000000000
B0550253042572S11646357EA0179701888000000000000
B0550293042499S11646334EA0179101887000000000000
B0550333042439S11646365EA0178801881000000000000
B0550373042438S11646434EA0177901874000000000000
B0550413042475S11646487EA0177001865000000000000
B0550453042524S11646538EA0176101856000000000000
B0550493042574S11646587EA0174801839000000000000
B0550533042625S11646647EA0173201823000000000000
B0550573042672S11646717EA0171601802000000000000
B0551013042713S11646796EA0169601781000000000000
B0551053042765S11646869EA0167701765000000000000
B0551093042837S11646920EA0166401755000000000000
B0551133042911S11646961EA0165801747000000000000
B0551173042986S11647003EA0164401730000000000000
B0551213043060S11647050EA0163101716000000000000
B0551253043132S11647104EA0161201695000000000000
B0551293043203S11647164EA0159801679000000000000
B0551333043272S11647221EA0158801673000000000000
B0551373043341S11647277EA0157801657000000000000
B0551413043405S11647345EA0155801631000000000000
B0551453043467S11647422EA0153001609000000000000
B0551493043528S11647501EA0151601595000000000000
B0551533043586S11647582EA0150201584000000000000
B0551573043636S11647657EA0149801579000000000000
B0552013043684S11647730EA0148901563000000000000
B0552053043744S11647792EA0147201540000000000000
B0552093043809S11647849EA0145601530000000000000
B0552133043873S11647905EA0144701518000000000000
B0552173043935S11647959EA0143801514000000000000
B0552213043996S11648005EA0143701513000000000000
B0552253044055S11648048EA0143801510000000000000
B0552293044102S11648104EA0143501506000000000000
B0552333044138S11648169EA0142701499000000000000
B0552373044181S11648229EA0142401497000000000000
B0552413044230S11648281EA0142101494000000000000
B0552453044279S11648328EA0142101492000000000000
B0552493044324S11648377EA0141801488000000000000
B0552533044360S11648430EA0142101493000000000000
B0552573044390S11648489EA0142001490000000000000
B0553013044416S11648550EA0141501483000000000000
B0553053044440S11648616EA0140401474000000000000
B0553093044470S11648687EA0139501465000000000000
B0553133044498S11648761EA0138701451000000000000
B0553173044520S11648845EA0137601451000000000000
B0553213044541S11648921EA0138901469000000000000
B0553253044562S11648984EA0140901487000000000000
B0553293044594S11649036EA0142101491000000000000
B0553333044652S11649028EA0142101496000000000000
B0553373044658S11648957EA0143201511000000000000
B0553413044605S11648918EA0144901530000000000000
B0553453044554S11648949EA0146201540000000000000
B0553493044559S11649013EA0146801545000000000000
B0553533044615S11649032EA0146901545000000000000
B0553573044667S11648987EA0147401556000000000000
B0554013044672S11648913EA0148901576000000000000
B0554053044613S11648880EA0149801583000000000000
B0554093044567S11648934EA0150801598000000000000
B0554133044600S11648984EA0152601612000000000000
B0554173044650S11648954EA0153901631000000000000
B0554213044645S11648885EA0156101649000000000000
B0554253044591S11648854EA0157101656000000000000
B0554293044541S11648895EA0158001668000000000000
B0554333044553S11648954EA0159401684000000000000
B0554373044609S11648952EA0160101688000000000000
B0554413044622S11648880EA0160901702000000000000
B0554453044568S11648848EA0162501717000000000000
B0554493044524S11648897EA0163401726000000000000
B0554533044549S11648956EA0165001743000000000000
B0554573044602S11648947EA0166601757000000000000
B0555013044614S11648879EA0167401765000000000000
B0555053044568S11648832EA0168101778000000000000
B0555093044516S11648866EA0169101786000000000000
B0555133044523S11648931EA0169901797000000000000
B0555173044578S11648944EA0171301810000000000000
B0555213044609S11648889EA0172501821000000000000
B0555253044575S11648830EA0173101831000000000000
B0555293044518S11648839EA0174501844000000000000
B0555333044489S11648898EA0175301851000000000000
B0555373044506S11648960EA0176301859000000000000
B0555413044557S11648989EA0176201854000000000000
B0555453044622S11648983EA0176101857000000000000
B0555493044679S11648939EA0176501864000000000000
B0555533044714S11648870EA0177601880000000000000
B0555573044698S11648794EA0178601886000000000000
B0556013044632S11648775EA0179301901000000000000
B0556053044594S11648830EA0181001917000000000000
B0556093044624S11648876EA0183001936000000000000
B0556133044670S11648849EA0184201946000000000000
B0556173044663S11648783EA0185001953000000000000
B0556213044610S11648753EA0186001965000000000000
B0556253044568S11648787EA0187201974000000000000
B0556293044574S11648846EA0188201985000000000000
B0556333044622S11648863EA0189301996000000000000
B0556373044654S11648811EA0190102003000000000000
B0556413044624S11648750EA0190702010000000000000
B0556453044563S11648753EA0191302015000000000000
B0556493044533S11648814EA0191702020000000000000
B0556533044553S11648882EA0192302025000000000000
B0556573044609S11648913EA0193202035000000000000
B0557013044669S11648896EA0194202046000000000000
B0557053044689S11648828EA0195202057000000000000
B0557093044653S11648771EA0195602061000000000000
B0557133044591S11648775EA0196202067000000000000
B0557173044550S11648826EA0196902076000000000000
B0557213044542S11648895EA0197602079000000000000
B0557253044558S11648967EA0197002064000000000000
B0557293044585S11649048EA0194602038000000000000
B0557333044618S11649138EA0192402021000000000000
B0557373044658S11649223EA0191402017000000000000
B0557413044705S11649300EA0191902022000000000000
B0557453044752S11649370EA0192902034000000000000
B0557493044795S11649434EA0193402028000000000000
B0557533044843S11649499EA0191802007000000000000
B0557573044892S11649577EA0190302000000000000000
B0558013044934S11649652EA0192602025000000000000
B0558053044975S11649715EA0193802031000000000000
B0558093045018S11649775EA0193202014000000000000
B0558133045068S11649840EA0191301990000000000000
B0558173045122S11649918EA0188601966000000000000
B0558213045179S11649998EA0187601973000000000000
B0558253045229S11650068EA0189301982000000000000
B0558293045276S11650137EA0188701968000000000000
B0558333045328S11650214EA0185701934000000000000
B0558373045381S11650297EA0183601918000000000000
B0558413045423S11650391EA0182201902000000000000
B0558453045447S11650495EA0180701891000000000000
B0558493045465S11650600EA0179701889000000000000
B0558533045484S11650698EA0180301893000000000000
B0558573045504S11650794EA0179201879000000000000
B0559013045533S11650886EA0178601877000000000000
B0559053045569S11650972EA0179101883000000000000
B0559093045610S11651053EA0180101893000000000000
B0559133045657S11651123EA0182301923000000000000
B0559173045712S11651125EA0186101964000000000000
B0559213045719S11651049EA0188301985000000000000
B0559253045663S11651010EA0188901992000000000000
B0559293045618S11651050EA0190002003000000000000
B0559333045638S11651098EA0191202014000000000000
B0559373045692S11651081EA0191502014000000000000
B0559413045711S11651001EA0191802022000000000000
B0559453045672S11650933EA0193102041000000000000
B0559493045610S11650933EA0194202050000000000000
B0559533045582S11650994EA0195202064000000000000
B0559573045605S11651049EA0196902078000000000000
B0600013045658S11651041EA0197402079000000000000
B0600053045672S11650962EA0198002093000000015000
B0600093045625S11650908EA0199602107000000000000
B0600133045567S11650928EA0200002109000000000000
B0600173045545S11650990EA0200802116000000000000
B0600213045550S11651060EA0201402123000000000000
B0600253045592S11651107EA0202002120000000000000
B0600293045633S11651168EA0199802096000000000000
B0600333045671S11651248EA0199602103000000000000
B0600373045712S11651323EA0200502110000000000000
B0600413045755S11651396EA0200902108000000000000
B0600453045797S11651475EA0200002098000000000000
B0600493045837S11651558EA0199502095000000000000
B0600533045878S11651645EA0198702083000000000000
B0600573045917S11651734EA0197702074000000000000
B0601013045958S11651821EA0197202073000000000000
B0601053046000S11651903EA0197002069000000000000
B0601093046043S11651985EA0196002055000000000000
B0601133046087S11652070EA0194002034000000000000
B0601173046121S11652167EA0192302012000000000000
B0601213046145S11652269EA0190802001000000000000
B0601253046160S11652372EA0189801996000000000000
B0601293046169S11652470EA0189701994000000000000
B0601333046178S11652563EA0189401989000000000000
B0601373046187S11652653EA0189301990000000000000
B0601413046197S11652740EA0188301973000000000000
B0601453046209S11652828EA0186501957000000000000
B0601493046219S11652919EA0185501949000000000000
B0601533046230S11653005EA0185701954000000000000
B0601573046252S11653084EA0186001956000000000000
B0602013046286S11653156EA0186501965000000015000
B0602053046317S11653218EA0189301991000000015000
B0602093046347S11653274EA0191102002000000015000
B0602133046383S11653324EA0192102013000000015000
B0602173046433S11653326EA0193102019000000015000
B0602213046439S11653255EA0194102037000000015000
B0602253046383S11653209EA0195702055000000015000
B0602293046326S11653227EA0196102059000000015000
B0602333046299S11653291EA0196202063000000000000
B0602373046317S11653348EA0198002084000000000000
B0602413046364S11653333EA0199202091000000000000
B0602453046357S11653261EA0199402101000000015000
B0602493046288S11653238EA0200102110000000015000
B0602533046238S11653291EA0200602120000000000000
B0602573046238S11653360EA0202302137000000000000
B0603013046283S11653394EA0203802148000000000000
B0603053046334S11653360EA0204602155000000000000
B0603093046338S11653281EA0205402165000000000000
B0603133046281S11653234EA0206502177000000000000
B0603173046226S11653273EA0207602186000000000000
B0603213046223S11653339EA0208702201000000000000
B0603253046270S11653369EA0209602207000000000000
B0603293046321S11653333EA0210302219000000000000
B0603333046321S11653260EA0211702232000000000000
B0603373046266S11653218EA0212802245000000000000
B0603413046209S11653250EA0213202244000000000000
B0603453046196S11653320EA0213702252000000000000
B0603493046234S11653367EA0214802264000000000000
B0603533046288S11653347EA0215902275000000000000
B0603573046295S11653277EA0217602295000000000000
B0604013046244S11653234EA0219002307000000000000
B0604053046187S11653255EA0219502316000000000000
B0604093046174S11653315EA0220702327000000000000
B0604133046213S11653348EA0221802334000000000000
B0604173046256S11653312EA0222402341000000000000
B0604213046240S11653240EA0223002349000000000000
B0604253046179S11653226EA0224002364000000000000
B0604293046144S11653274EA0225302375000000000000
B0604333046154S11653333EA0226002381000000000000
B0604373046203S11653354EA0226702388000000000000
B0604413046242S11653311EA0227702397000000000000
B0604453046223S11653244EA0228402408000000000000
B0604493046165S11653224EA0229402419000000000000
B0604533046118S11653260EA0230102425000000000000
B0604573046110S11653322EA0230802429000000000000
B0605013046134S11653380EA0230902429000000000000
B0605053046169S11653439EA0230802427000000000000
B0605093046208S11653503EA0229502406000000000000
B0605133046249S11653584EA0226702376000000000000
B0605173046290S11653679EA0224502354000000000000
B0605213046327S11653780EA0223202339000000000000
B0605253046364S11653884EA0222002322000000000000
B0605293046395S11653989EA0219802303000000000000
B0605333046426S11654097EA0217902283000000000000
B0605373046455S11654206EA0216402269000000000000
B0605413046481S11654317EA0214602247000000000000
B0605453046505S11654429EA0212402226000000000000
B0605493046535S11654538EA0210502208000000000000
B0605533046568S11654647EA0209402196000000000000
B0605573046599S11654752EA0208502189000000000000
B0606013046635S11654854EA0207902179000000000000
B0606053046672S11654954EA0206902168000000000000
B0606093046711S11655053EA0206402170000000000000
B0606133046750S11655146EA0207302178000000000000
B0606173046790S11655235EA0206902166000000000000
B0606213046827S11655330EA0205202149000000000000
B0606253046860S11655431EA0204202139000000000000
B0606293046894S11655530EA0203102122000000000000
B0606333046931S11655634EA0201402112000000000000
B0606373046958S11655740EA0200702102000000000000
B0606413046984S11655855EA0198502083000000000000
B0606453047015S11655963EA0198602082000000000000
B0606493047042S11656073EA0196702060000000000000
B0606533047066S11656189EA0194902045000000000000
B0606573047088S11656308EA0192802023000000000000
B0607013047113S11656428EA0191302009000000000000
B0607053047135S11656549EA0190301998000000000000
B0607093047159S11656669EA0189101985000000000000
B0607133047187S11656788EA0187801975000000000000
B0607173047215S11656904EA0186901968000000000000
B0607213047244S11657017EA0186501964000000000000
B0607253047271S11657129EA0185801956000000000000
B0607293047298S11657237EA0185401954000000000000
B0607333047324S11657338EA0185701952000000000000
B0607373047345S11657442EA0184601942000000000000
B0607413047367S11657545EA0184601945000000000000
B0607453047393S11657642EA0184701943000000000000
B0607493047422S11657737EA0184101935000000000000
B0607533047456S11657833EA0183201922000000000000
B0607573047490S11657930EA0182201915000000000000
B0608013047521S11658028EA0181801911000000000000
B0608053047552S11658123EA0182401921000000000000
B0608093047583S11658212EA0182901921000000000000
B0608133047614S11658300EA0182801921000000000000
B0608173047647S11658385EA0183501931000000000000
B0608213047679S11658464EA0184501936000000000000
B0608253047707S11658544EA0184501935000000000000
B0608293047737S11658624EA0184301928000000000000
B0608333047764S11658706EA0183001911000000000000
B0608373047792S11658790EA0181301897000000000000
B0608413047817S11658877EA0180201885000000000000
B0608453047850S11658962EA0179201875000000000000
B0608493047880S11659048EA0177901862000000000000
B0608533047906S11659135EA0177001852000000000000
B0608573047934S11659219EA0177001864000000000000
B0609013047961S11659287EA0180101890000000000000
B0609053047991S11659341EA0181801908000000000000
B0609093048023S11659388EA0183301916000000000000
B0609133048060S11659434EA0183001902000000000000
B0609173048110S11659482EA0181201889000000000000
B0609213048168S11659521EA0181001888000000000000
B0609253048225S11659556EA0181001889000000000000
B0609293048288S11659571EA0181101886000000000000
B0609333048353S11659594EA0180401878000000000000
B0609373048409S11659631EA0180801883000000000000
B0609413048454S11659678EA0181001886000000000000
B0609453048493S11659727EA0180901882000000000000
B0609493048536S11659781EA0180301875000000000000
B0609533048582S11659838EA0179301867000000000000
B0609573048632S11659898EA0179401871000000000000
B0610013048678S11659958EA0180501878000000000000
B0610053048723S11700020EA0180501881000000000000
B0610093048769S11700077EA0181101890000000000000
B0610133048813S11700134EA0181301886000000000000
B0610173048862S11700194EA0181501893000000000000
B0610213048917S11700233EA0184101923000000000000
B0610253048964S11700192EA0187501954000000000000
B0610293048952S11700116EA0189601980000000015000
B0610333048892S11700082EA0191101997000000015000
B0610373048835S11700110EA0192102012000000000000
B0610413048821S11700169EA0194202035000000000000
B0610453048851S11700215EA0195902049000000000000
B0610493048904S11700202EA0196802061000000000000
B0610533048931S11700134EA0198402084000000000000
B0610573048900S11700068EA0200802106000000000000
B0611013048840S11700062EA0202502125000000000000
B0611053048806S11700110EA0204502147000000000000
B0611093048830S11700156EA0206302164000000000000
B0611133048883S11700147EA0207802179000000000000
B0611173048908S11700080EA0209502200000000000000
B0611213048874S11700016EA0211502219000000000000
B0611253048812S11700004EA0212402236000000000000
B0611293048780S11700052EA0214502254000000000000
B0611333048810S11700099EA0215602265000000000000
B0611373048868S11700081EA0217102286000000000000
B0611413048879S11700008EA0219502307000000000000
B0611453048830S11659954EA0221102320000000000000
B0611493048767S11659971EA0222302336000000000000
B0611533048747S11700032EA0223402348000000000000
B0611573048784S11700075EA0224802362000000000000
B0612013048838S11700042EA0226902383000000000000
B0612053048836S11659965EA0228402404000000000000
B0612093048779S11659930EA0230002419000000000000
B0612133048735S11659967EA0231602437000000000000
B0612173048749S11700017EA0232902445000000000000
B0612213048804S11700017EA0233802458000000000000
B0612253048836S11659952EA0235602477000000000000
B0612293048803S11659883EA0237202494000000000000
B0612333048739S11659876EA0238602510000000000000
B0612373048699S11659920EA0239802521000000000000
B0612413048712S11659976EA0240602526000000000000
B0612453048766S11659981EA0241902543000000000000
B0612493048800S11659920EA0243602563000000000000
B0612533048774S11659848EA0244902573000000000000
B0612573048710S11659825EA0245902584000000000000
B0613013048660S11659860EA0246902593000000000000
B0613053048663S11659916EA0247902603000000000000
B0613093048713S11659925EA0249102615000000000000
B0613133048745S11659869EA0250702634000000000000
B0613173048715S11659807EA0252202653000000000000
B0613213048653S11659791EA0252402655000000000000
B0613253048613S11659830EA0253402665000000000000
B0613293048608S11659889EA0252302643000000000000
B0613333048632S11659967EA0249502618000000000000
B0613373048674S11700049EA0249602625000000000000
B0613413048721S11700132EA0249902623000000000000
B0613453048769S11700216EA0249102610000000000000
B0613493048821S11700301EA0248002602000000000000
B0613533048873S11700383EA0248602613000000000000
B0613573048925S11700458EA0250602635000000000000
B0614013048978S11700527EA0251802644000000000000
B0614053049031S11700595EA0252702651000000000000
B0614093049083S11700658EA0252302642000000000000
B0614133049141S11700718EA0252402644000000000000
B0614173049195S11700780EA0252502644000000000000
B0614213049254S11700842EA0252402638000000000000
B0614253049313S11700904EA0251002620000000000000
B0614293049371S11700973EA0249402607000000000000
B0614333049423S11701050EA0248502597000000000000
B0614373049472S11701128EA0248302598000000000000
B0614413049521S11701204EA0248002594000000000000
B0614453049573S11701280EA0246802578000000000000
B0614493049627S11701359EA0244602556000000000000
B0614533049679S11701443EA0243402545000000000000
B0614573049733S11701520EA0243602546000000000000
B0615013049781S11701599EA0243202540000000000000
B0615053049827S11701677EA0243002541000000000000
B0615093049872S11701745EA0245202576000000000000
B0615133049924S11701767EA0249102614000000000000
B0615173049958S11701713EA0251702633000000000000
B0615213049931S11701635EA0251802634000000015000
B0615253049858S11701606EA0251402638000000000000
B0615293049801S11701641EA0253002658000000000000
B0615333049785S11701705EA0254402667000000000000
B0615373049806S11701763EA0254802668000000000000
B0615413049841S11701822EA0253902654000000000000
B0615453049883S11701891EA0251702631000000000000
B0615493049931S11701967EA0250602627000000000000
B0615533049982S11702044EA0250802632000000000000
B0615573050034S11702121EA0250702629000000000000
B0616013050084S11702199EA0250602630000000000000
B0616053050138S11702274EA0251502639000000000000
B0616093050194S11702346EA0252002643000000000000
B0616133050248S11702416EA0251802637000000000000
B0616173050304S11702486EA0251402631000000000000
B0616213050359S11702558EA0251002633000000000000
B0616253050407S11702624EA0253502661000000000000
B0616293050452S11702682EA0255102671000000000000
B0616333050499S11702741EA0255002665000000000000
B0616373050550S11702808EA0253602651000000000000
B0616413050604S11702880EA0252102634000000000000
B0616453050654S11702961EA0250702622000000000000
B0616493050703S11703044EA0249802613000000000000
B0616533050758S11703120EA0248702599000000000000
B0616573050814S11703202EA0246702574000000000000
B0617013050866S11703295EA0245102568000000000000
B0617053050916S11703380EA0245602569000000000000
B0617093050967S11703462EA0245402565000000000000
B0617133051020S11703538EA0245102565000000000000
B0617173051071S11703612EA0245402566000000000000
B0617213051119S11703682EA0245502563000000000000
B0617253051167S11703756EA0244402547000000000000
B0617293051210S11703842EA0242902536000000000000
B0617333051250S11703933EA0242002527000000000000
B0617373051289S11704024EA0240302510000000000000
B0617413051332S11704119EA0239102500000000000000
B0617453051373S11704211EA0239002500000000000000
B0617493051413S11704303EA0238602499000000000000
B0617533051453S11704394EA0238302495000000000000
B0617573051494S11704487EA0237802489000000000000
B0618013051536S11704579EA0236802476000000000000
B0618053051579S11704671EA0235802466000000000000
B0618093051621S11704766EA0234602458000000000000
B0618133051663S11704856EA0234602459000000000000
B0618173051708S11704939EA0234602452000000000000
B0618213051754S11705026EA0233702446000000000000
B0618253051794S11705113EA0234102451000000000000
B0618293051838S11705193EA0234102449000000000000
B0618333051880S11705272EA0234302455000000000000
B0618373051920S11705343EA0235802472000000000000
B0618413051958S11705410EA0236702473000000000000
B0618453051995S11705476EA0236902474000000000000
B0618493052030S11705545EA0236402468000000000000
B0618533052068S11705615EA0235202453000000000000
B0618573052107S11705687EA0233202432000000000000
B0619013052153S11705761EA0232502427000000000000
B0619053052198S11705831EA0232402426000000000000
B0619093052242S11705902EA0231402413000000000000
B0619133052285S11705978EA0229902392000000000000
B0619173052335S11706056EA0228002383000000000000
B0619213052384S11706127EA0229302398000000000000
B0619253052430S11706187EA0231702433000000000000
B0619293052472S11706230EA0234602458000000000000
B0619333052519S11706268EA0235402453000000000000
B0619373052563S11706326EA0234002437000000000000
B0619413052608S11706393EA0233002428000000000000
B0619453052653S11706468EA0231302411000000000000
B0619493052703S11706549EA0230702414000000000000
B0619533052748S11706619EA0232602438000000000000
B0619573052788S11706684EA0233502436000000000000
B0620013052827S11706754EA0232202415000000000000
B0620053052874S11706833EA0229602391000000000000
B0620093052922S11706918EA0228902395000000000000
B0620133052968S11706996EA0229902411000000000000
B0620173053013S11707070EA0230602406000000000000
B0620213053059S11707149EA0228702387000000000000
B0620253053107S11707230EA0228002381000000000000
B0620293053156S11707309EA0227102370000000000000
B0620333053211S11707388EA0225102344000000000000
B0620373053264S11707481EA0222402315000000000000
B0620413053297S11707591EA0220402303000000000000
B0620453053310S11707703EA0219902302000000000000
B0620493053317S11707815EA0219602297000000000000
B0620533053325S11707925EA0218702291000000000000
B0620573053332S11708034EA0218302285000000000000
B0621013053349S11708138EA0218102289000000000000
B0621053053382S11708232EA0218202284000000000000
B0621093053418S11708326EA0217202277000000000000
B0621133053453S11708419EA0216902272000000000000
B0621173053498S11708508EA0216102265000000000000
B0621213053545S11708593EA0215802261000000000000
B0621253053597S11708677EA0215002244000000000000
B0621293053658S11708756EA0213202230000000000000
B0621333053731S11708824EA0212302225000000000000
B0621373053801S11708895EA0211902215000000000000
B0621413053867S11708974EA0210702198000000000000
B0621453053928S11709060EA0209202191000000000000
B0621493053988S11709138EA0209302197000000000000
B0621533054051S11709204EA0209802199000000000000
B0621573054113S11709262EA0209602189000000000000
B0622013054174S11709324EA0208202171000000000000
B0622053054231S11709406EA0206202151000000000000
B0622093054276S11709501EA0204502137000000000000
B0622133054316S11709598EA0203302130000000000000
B0622173054356S11709692EA0203302130000000000000
B0622213054395S11709782EA0203502132000000000000
B0622253054429S11709875EA0203302131000000000000
B0622293054459S11709970EA0202902126000000000000
B0622333054491S11710066EA0202002114000000000000
B0622373054521S11710164EA0201302111000000000000
B0622413054545S11710261EA0201002109000000000000
B0622453054569S11710356EA0200702100000000000000
B0622493054594S11710455EA0198802084000000000000
B0622533054621S11710555EA0197302069000000000000
