ACAM4N6
HFDTE190118
HFFXA050
HFPLTPILOT:JOHN WELSH              
HFGTYGLIDERTYPE:HORNET      
HFGIDGLIDERID:VH-GMY      
HFDTM100GPSDATUM:
HFRFWFIRMWAREVERSION:F2.6
HFRHWHARDWAREVERSION:300 Series Version 2
HFFTYFRTYPE:CAMBRIDGE AERO INSTRUMENTS, 302+
HFGPS:GARMIN,LVS-25,12,18000
HFPRSPRESSALTSENSOR:INTERSEMA, MS5534-AP, 20000
I033638FXA3941ENL4247REX
LCAMSBVER:5FWVER:F26300
C190118040002190118000102
C0000000N00000000WTAKEOFF     
C3207549S11656849EBEVAIR      
C3111283S11701799EDOWERIN     
C3106849S11755332EKUNUNPPN    
C3207549S11656849EBEVAIR      
C0000000N00000000WLANDING     
B0402133207336S11656856EA0019300207000000000000
B0402153207336S11656856EA0019200207000000000000
B0402173207336S11656856EA0019200207000000000000
B0402193207336S11656856EA0019200207000000000000
B0402213207336S11656856EA0019200207000000000000
B0402233207336S11656856EA0019100207000000000000
B0402253207336S11656856EA0019300207000000000000
B0402273207336S11656856EA0019300207000000000000
B0402293207336S11656856EA0019200207000000000000
B0402313207336S11656856EA0019300207000000000000
B0402333207336S11656856EA0019300207000000000000
B0402353207336S11656856EA0019300207000000000000
B0402373207336S11656856EA0019300207000000000000
B0402393207336S11656856EA0019300207000000000000
B0402413207337S11656857EA0019300207000000000000
B0402443207343S11656862EA0019200207000000000000
B0402483207365S11656882EA0019300207000000000000
B0402523207403S11656909EA0019300206000000000000
B0402563207453S11656940EA0019500208000000000000
B0403003207506S11656974EA0020200218000000000000
B0403043207558S11657005EA0021800236000000000000
B0403083207610S11657039EA0022900253000000000000
B0403123207658S11657075EA0024700271000000000000
B0403163207707S11657118EA0025900280000000000000
B0403203207758S11657161EA0026800292000000000000
B0403243207807S11657204EA0028100306000000000000
B0403283207849S11657247EA0029800334000000000000
B0403323207887S11657290EA0032700357000000000000
B0403363207923S11657341EA0034100367000000000000
B0403403207957S11657394EA0034800381000000000000
B0403443207986S11657449EA0036700405000000000000
B0403483208015S11657503EA0039000427000000000000
B0403523208048S11657559EA0040400438000000000000
B0403563208070S11657618EA0042300462000000000000
B0404003208073S11657684EA0044300477000000000000
B0404043208060S11657751EA0045500486000000000000
B0404083208036S11657819EA0046400498000000000000
B0404123208001S11657878EA0048000515000000000000
B0404163207961S11657933EA0049500531000000000000
B0404203207919S11657992EA0050600540000000000000
B0404243207876S11658050EA0051800557000000000000
B0404283207830S11658109EA0053500569000000000000
B0404323207783S11658166EA0054400581000000000000
B0404363207736S11658225EA0055700596000000000000
B0404403207692S11658282EA0057100606000000000000
B0404443207648S11658338EA0058900627000000000000
B0404483207602S11658392EA0060300644000000000000
B0404523207559S11658447EA0062000663000000000000
B0404563207516S11658502EA0063900683000000000000
B0405003207462S11658550EA0065800703000000000000
B0405043207386S11658569EA0068300733000000000000
B0405083207303S11658555EA0071400760000000000000
B0405123207224S11658531EA0073200774000000000000
B0405163207174S11658556EA0074500786000000000000
B0405203207181S11658587EA0074700783000000000000
B0405243207225S11658578EA0073800774000000000000
B0405283207272S11658525EA0073600774000000000000
B0405323207290S11658443EA0074300785000000000000
B0405363207246S11658374EA0075600800000000000000
B0405403207185S11658372EA0076300800000000000000
B0405443207167S11658412EA0076000799000000000000
B0405483207199S11658434EA0075800796000000000000
B0405523207246S11658398EA0075500794000000000000
B0405563207268S11658318EA0076000805000000000000
B0406003207226S11658253EA0077600816000000000000
B0406043207176S11658281EA0077400811000000000000
B0406083207199S11658320EA0077600824000000000000
B0406093207246S11658296EA0078600829000000000000
B0406133207258S11658216EA0079800843000000000000
B0406173207209S11658154EA0081100851000000000000
B0406213207150S11658158EA0081500850000000000000
B0406253207128S11658206EA0082100860000000000000
B0406293207150S11658238EA0083000866000000000000
B0406333207193S11658213EA0082800862000000000000
B0406373207216S11658136EA0083400871000000000000
B0406413207200S11658049EA0084600887000000000000
B0406453207144S11658004EA0085900894000000000000
B0406493207094S11658023EA0086200896000000000000
B0406533207089S11658071EA0086400899000000000000
B0406573207125S11658095EA0087100906000000000000
B0407013207172S11658061EA0087600911000000000000
B0407053207183S11657979EA0088900925000000000000
B0407093207142S11657906EA0089700928000000000000
B0407133207077S11657883EA0090100933000000000000
B0407173207030S11657910EA0090600942000000000000
B0407213207026S11657956EA0091300944000000000000
B0407253207061S11657976EA0092000953000000000000
B0407293207103S11657930EA0092700962000000000000
B0407333207095S11657844EA0093900974000000000000
B0407373207039S11657789EA0094900980000000000000
B0407413206977S11657796EA0095700990000000000000
B0407453206947S11657839EA0096200991000000000000
B0407493206956S11657885EA0095900990000000000000
B0407533206998S11657894EA0096400994000000000000
B0407573207040S11657845EA0096901002000000000000
B0408013207050S11657759EA0097701016000000000000
B0408053207012S11657684EA0099401029000000000000
B0408093206949S11657653EA0100001033000000000000
B0408133206900S11657679EA0100601039000000000000
B0408173206894S11657727EA0100801039000000000000
B0408213206927S11657750EA0100701039000000000000
B0408253206974S11657715EA0101001044000000000000
B0408293206995S11657633EA0101601052000000000000
B0408333206969S11657543EA0102901064000000000000
B0408373206905S11657497EA0104101072000000000000
B0408413206847S11657515EA0104401075000000000000
B0408453206830S11657560EA0104701080000000000000
B0408493206855S11657590EA0104701079000000000000
B0408533206900S11657575EA0104901082000000000000
B0408573206923S11657499EA0105201085000000000000
B0409013206891S11657419EA0106001093000000000000
B0409053206825S11657395EA0107201104000000000000
B0409093206778S11657426EA0107501106000000000000
B0409133206775S11657475EA0107401104000000000000
B0409173206809S11657495EA0107501106000000000000
B0409213206853S11657463EA0107801111000000000000
B0409253206868S11657384EA0108201113000000000000
B0409293206832S11657302EA0108401118000000000000
B0409333206767S11657261EA0109401128000000000000
B0409373206712S11657281EA0110101135000000000000
B0409413206701S11657326EA0110601137000000000000
B0409453206734S11657346EA0110601137000000000000
B0409493206774S11657307EA0110801139000000000000
B0409533206780S11657222EA0110701142000000000000
B0409573206736S11657144EA0111201142000000000000
B0410013206663S11657114EA0111601150000000000000
B0410053206601S11657134EA0112401157000000000000
B0410093206575S11657178EA0113301164000000000000
B0410133206583S11657217EA0113401162000000000000
B0410173206619S11657225EA0113201161000000000000
B0410213206658S11657183EA0112701155000000000000
B0410253206667S11657099EA0111801148000000000000
B0410293206626S11657020EA0112001153000000000000
B0410333206557S11656983EA0113101162000000000000
B0410373206496S11657005EA0113501165000000000000
B0410413206476S11657055EA0113501167000000000000
B0410453206487S11657101EA0113501162000000000000
B0410493206507S11657143EA0112701155000000000000
B0410533206537S11657179EA0111801146000000000000
B0410573206565S11657216EA0111601146000000000000
B0411013206585S11657257EA0111501146000000000000
B0411053206610S11657300EA0111301142000000000000
B0411093206637S11657345EA0111301144000000000000
B0411133206670S11657386EA0111401145000000000000
B0411173206701S11657430EA0111401143000000000000
B0411213206734S11657475EA0111401146000000000000
B0411253206782S11657478EA0112301157000000000000
B0411293206817S11657415EA0112501151000000000000
B0411333206804S11657322EA0111601140000000000000
B0411373206741S11657274EA0110901138000000000000
B0411413206684S11657299EA0111301143000000000000
B0411453206669S11657351EA0111001139000000000000
B0411493206689S11657395EA0110801138000000000000
B0411533206715S11657437EA0110901139000000000000
B0411573206744S11657480EA0111201142000000000000
B0412013206777S11657514EA0112201153000000000000
B0412053206821S11657486EA0112801159000000000000
B0412093206818S11657408EA0113501168000000000000
B0412133206764S11657367EA0114101172000000000000
B0412173206713S11657390EA0114401175000000000000
B0412213206712S11657441EA0114901180000000000000
B0412253206756S11657454EA0114801175000000000000
B0412293206795S11657393EA0115101184000000000000
B0412333206774S11657315EA0116101195000000000000
B0412373206714S11657296EA0116901200000000000000
B0412413206682S11657339EA0117001201000000000000
B0412453206699S11657381EA0116701195000000000000
B0412493206747S11657369EA0116601197000000000000
B0412533206770S11657298EA0117101202000000000000
B0412573206735S11657229EA0117601208000000000000
B0413013206676S11657225EA0118001211000000000000
B0413053206652S11657268EA0118501214000000000000
B0413093206676S11657306EA0118301214000000000000
B0413133206722S11657291EA0118401214000000000000
B0413173206740S11657220EA0118301214000000000000
B0413213206696S11657164EA0119001224000000000000
B0413253206640S11657172EA0119301223000000000000
B0413293206623S11657220EA0119201224000000000000
B0413333206640S11657268EA0118701213000000000000
B0413373206665S11657317EA0118001208000000000000
B0413413206692S11657367EA0117601202000000000000
B0413453206717S11657420EA0116601193000000000000
B0413493206738S11657475EA0115901192000000000000
B0413533206757S11657528EA0115501190000000000000
B0413573206779S11657580EA0115201188000000000000
B0414013206806S11657632EA0114601182000000000000
B0414053206840S11657679EA0114001178000000000000
B0414093206874S11657725EA0113801177000000000000
B0414133206903S11657774EA0113601174000000000000
B0414173206922S11657827EA0113201173000000000000
B0414213206943S11657880EA0112901168000000000000
B0414253206969S11657932EA0112201159000000000000
B0414293207008S11657976EA0111201150000000000000
B0414333207063S11658002EA0110401141000000000000
B0414373207125S11658009EA0109001128000000000000
B0414413207190S11658004EA0108101122000000000000
B0414453207252S11657987EA0108001123000000000000
B0414493207310S11657965EA0107701119000000000000
B0414533207364S11657935EA0107301113000000000000
B0414573207417S11657902EA0107001112000000000000
B0415013207472S11657866EA0106101099000000000000
B0415053207540S11657822EA0103801074000000000000
B0415093207611S11657767EA0103101074000000000000
B0415133207675S11657706EA0104101087000000000000
B0415173207724S11657634EA0106401111000000000000
B0415213207731S11657549EA0107701129000000000000
B0415253207675S11657512EA0109301140000000000000
B0415293207646S11657553EA0110401149000000000000
B0415333207688S11657575EA0110601151000000000000
B0415373207740S11657532EA0111201155000000000000
B0415413207755S11657443EA0111001155000000000000
B0415453207724S11657361EA0111801164000000000000
B0415493207666S11657338EA0113201177000000000000
B0415533207633S11657374EA0113901186000000000000
B0415573207655S11657412EA0114901193000000000000
B0416013207705S11657390EA0115501199000000000000
B0416053207715S11657312EA0116401207000000000000
B0416093207670S11657264EA0116701207000000000000
B0416133207619S11657281EA0116701211000000000000
B0416173207602S11657329EA0117201214000000000000
B0416213207624S11657376EA0117101214000000000000
B0416253207672S11657398EA0117401220000000000000
B0416293207735S11657381EA0118101223000000000000
B0416333207780S11657317EA0117301215000000000000
B0416373207778S11657230EA0116401206000000000000
B0416413207752S11657148EA0115601199000000000000
B0416453207700S11657103EA0115801204000000000000
B0416493207649S11657114EA0116001206000000000000
B0416533207615S11657160EA0115501200000000000000
B0416573207581S11657218EA0114001178000000000000
B0417013207567S11657290EA0114101192000000000000
B0417053207603S11657320EA0115701200000000000000
B0417093207662S11657311EA0114801186000000000000
B0417133207722S11657317EA0113601176000000000000
B0417173207776S11657343EA0112301165000000000000
B0417213207818S11657384EA0111501156000000000000
B0417253207849S11657434EA0110801149000000000000
B0417293207867S11657491EA0110101140000000000000
B0417333207882S11657549EA0109701138000000000000
B0417373207897S11657603EA0109301133000000000000
B0417413207915S11657654EA0108901131000000000000
B0417453207935S11657701EA0108501125000000000000
B0417493207963S11657748EA0107701115000000000000
B0417533207991S11657800EA0106701105000000000000
B0417573208004S11657858EA0105901102000000000000
B0418013208012S11657914EA0106501111000000000000
B0418053208027S11657962EA0107501119000000000000
B0418093208047S11658006EA0107601119000000000000
B0418133208062S11658053EA0107501118000000000000
B0418173208073S11658105EA0107901123000000000000
B0418213208084S11658156EA0108001121000000000000
B0418253208096S11658206EA0107601116000000000000
B0418293208113S11658257EA0107301113000000000000
B0418333208130S11658310EA0107701118000000000000
B0418373208177S11658317EA0108201123000000000000
B0418413208212S11658252EA0108101120000000000000
B0418453208194S11658171EA0108001124000000000000
B0418493208138S11658127EA0108601128000000000000
B0418533208080S11658131EA0108701127000000000000
B0418573208052S11658175EA0109001129000000000000
B0419013208061S11658225EA0108501124000000000000
B0419053208105S11658243EA0108401125000000000000
B0419093208157S11658206EA0108401121000000000000
B0419133208179S11658126EA0107801118000000000000
B0419173208145S11658053EA0108101122000000000000
B0419213208086S11658034EA0108501127000000000000
B0419253208036S11658061EA0108601125000000000000
B0419293208015S11658113EA0108301121000000000000
B0419333208019S11658165EA0107701116000000000000
B0419373208032S11658216EA0107201110000000000000
B0419413208052S11658266EA0106601103000000000000
B0419453208079S11658312EA0106301101000000000000
B0419493208109S11658359EA0105401086000000000000
B0419533208136S11658409EA0103901072000000000000
B0419573208171S11658457EA0102901063000000000000
B0420013208212S11658500EA0101701051000000000000
B0420053208239S11658559EA0100501043000000000000
B0420093208257S11658620EA0100201041000000000000
B0420133208277S11658674EA0100801047000000000000
B0420173208305S11658720EA0100801045000000000000
B0420213208338S11658760EA0099701032000000000000
B0420253208365S11658808EA0098701024000000000000
B0420293208391S11658856EA0098101020000000000000
B0420333208417S11658902EA0098001016000000000000
B0420373208457S11658932EA0097301010000000000000
B0420413208507S11658940EA0096601004000000000000
B0420453208560S11658934EA0096301000000000000000
B0420493208616S11658923EA0095600990000000000000
B0420533208673S11658901EA0094600982000000000000
B0420573208734S11658879EA0093400970000000000000
B0421013208799S11658847EA0092800968000000000000
B0421053208863S11658836EA0093700983000000000000
B0421093208903S11658869EA0095200996000000000000
B0421133208894S11658928EA0095600995000000000000
B0421173208897S11658986EA0096501006000000000000
B0421213208940S11659005EA0097501015000000000000
B0421253208983S11658957EA0098301023000000000000
B0421293208972S11658875EA0098801027000000000000
B0421333208912S11658825EA0098601022000000000000
B0421373208850S11658842EA0098601025000000000000
B0421413208831S11658898EA0099201028000000000000
B0421453208857S11658942EA0098901026000000000000
B0421493208907S11658946EA0098301016000000000000
B0421533208955S11658895EA0097101002000000000000
B0421573208975S11658810EA0096200997000000000000
B0422013208964S11658719EA0097001011000000000000
B0422053208924S11658648EA0097901017000000000000
B0422093208866S11658642EA0097901016000000000000
B0422133208840S11658685EA0097601014000000000000
B0422173208866S11658723EA0098201023000000000000
B0422213208911S11658694EA0099401034000000000000
B0422253208923S11658620EA0099501031000000000000
B0422293208884S11658550EA0098701024000000000000
B0422333208819S11658529EA0098201019000000000000
B0422373208771S11658565EA0098001017000000000000
B0422413208758S11658622EA0098301021000000000000
B0422453208781S11658671EA0098501022000000000000
B0422493208832S11658674EA0097901014000000000000
B0422533208875S11658615EA0097301005000000000000
B0422573208873S11658524EA0096701005000000000000
B0423013208831S11658442EA0097101006000000000000
B0423053208763S11658409EA0097101009000000000000
B0423093208706S11658434EA0097401012000000000000
B0423133208698S11658487EA0098201019000000000000
B0423173208738S11658512EA0098001014000000000000
B0423213208797S11658490EA0097101006000000000000
B0423253208854S11658453EA0097001007000000000000
B0423293208909S11658405EA0096901005000000000000
B0423333208954S11658339EA0096701004000000000000
B0423373208990S11658264EA0096200998000000000000
B0423413208998S11658173EA0096000998000000000000
B0423453208989S11658078EA0095500992000000000000
B0423493208971S11657984EA0094900983000000000000
B0423533208944S11657892EA0094100976000000000000
B0423573208894S11657816EA0093100967000000000000
B0424013208840S11657749EA0092400962000000000000
B0424053208789S11657677EA0092000956000000000000
B0424093208729S11657614EA0091400948000000000000
B0424133208665S11657555EA0090700946000000000000
B0424173208607S11657488EA0091000951000000000000
B0424213208554S11657417EA0090800946000000000000
B0424253208508S11657341EA0090200940000000000000
B0424293208469S11657260EA0089800937000000000000
B0424333208429S11657183EA0089900939000000000000
B0424373208391S11657108EA0089900940000000000000
B0424413208353S11657033EA0089900938000000000000
B0424453208314S11656960EA0089600932000000000000
B0424493208277S11656880EA0088800925000000000000
B0424533208238S11656799EA0088200921000000000000
B0424573208192S11656722EA0088100921000000000000
B0425013208139S11656661EA0088000916000000000000
B0425053208073S11656637EA0087100906000000000000
B0425093208005S11656648EA0086200899000000000000
B0425133207943S11656674EA0086100898000000000000
B0425173207883S11656702EA0086200898000000000000
B0425213207866S11656753EA0086900907000000000000
B0425253207901S11656779EA0087200905000000000000
B0425293207947S11656744EA0086600901000000000000
B0425333207948S11656658EA0086400899000000000000
B0425373207906S11656578EA0086200896000000000000
B0425413207843S11656522EA0085900892000000000000
B0425453207771S11656505EA0085800895000000000000
B0425493207710S11656526EA0085800891000000000000
B0425533207663S11656568EA0085000881000000000000
B0425573207633S11656624EA0084500881000000000000
B0426013207629S11656687EA0084700881000000000000
B0426053207641S11656744EA0084500879000000000000
B0426093207666S11656789EA0084700883000000000000
B0426133207697S11656826EA0084900884000000000000
B0426173207731S11656864EA0084200873000000000000
B0426213207759S11656908EA0082900858000000000000
B0426253207774S11656966EA0081500845000000000000
B0426293207771S11657031EA0080600836000000000000
B0426333207761S11657095EA0080500842000000000000
B0426373207767S11657152EA0081400849000000000000
B0426413207789S11657198EA0081900857000000000000
B0426453207815S11657241EA0082200851000000000000
B0426493207841S11657287EA0081000842000000000000
B0426533207866S11657335EA0080400836000000000000
B0426573207891S11657385EA0080000835000000000000
B0427013207913S11657436EA0079500828000000000000
B0427053207919S11657493EA0078500816000000000000
B0427093207904S11657558EA0077800806000000000000
B0427133207874S11657618EA0077200804000000000000
B0427173207835S11657673EA0076600792000000000000
B0427213207793S11657732EA0075400781000000000000
B0427253207749S11657788EA0074200771000000000000
B0427293207706S11657845EA0073100758000000000000
B0427333207664S11657901EA0072100752000000000000
B0427373207624S11657956EA0071300743000000000000
B0427413207586S11658010EA0070600738000000000000
B0427453207549S11658061EA0070200731000000000000
B0427493207508S11658110EA0069300721000000000000
B0427533207467S11658158EA0068300709000000000000
B0427573207421S11658205EA0067300700000000000000
B0428013207373S11658248EA0066500694000000000000
B0428053207323S11658284EA0065700685000000000000
B0428093207269S11658320EA0064800674000000000000
B0428133207213S11658351EA0064000670000000000000
B0428173207161S11658387EA0064300675000000000000
B0428213207112S11658426EA0064400676000000000000
B0428253207089S11658476EA0065500691000000000000
B0428293207117S11658500EA0066800704000000000000
B0428333207156S11658453EA0067300702000000000000
B0428373207151S11658370EA0066700696000000000000
B0428413207105S11658296EA0066100689000000000000
B0428453207038S11658271EA0065500686000000000000
B0428493206988S11658304EA0066300694000000000000
B0428533206973S11658355EA0067200702000000000000
B0428573206990S11658396EA0067900711000000000000
B0429013207031S11658377EA0068400713000000000000
B0429053207024S11658299EA0068300713000000000000
B0429093206965S11658281EA0068100713000000000000
B0429133206942S11658325EA0068900723000000000000
B0429173206966S11658356EA0069800727000000000000
B0429213207011S11658344EA0069900728000000000000
B0429253207040S11658279EA0069800726000000000000
B0429293207027S11658197EA0070000730000000000000
B0429333206977S11658149EA0070700738000000000000
B0429373206923S11658153EA0071000738000000000000
B0429413206896S11658195EA0071100741000000000000
B0429453206910S11658236EA0071500747000000000000
B0429493206952S11658219EA0072000750000000000000
B0429533206970S11658147EA0071900748000000000000
B0429573206938S11658074EA0072000751000000000000
B0430013206882S11658070EA0072700758000000000000
B0430053206861S11658112EA0073100762000000000000
B0430093206888S11658134EA0073600766000000000000
B0430133206927S11658096EA0073400762000000000000
B0430173206940S11658014EA0072800757000000000000
B0430213206910S11657937EA0073300765000000000000
B0430253206853S11657937EA0074500772000000000000
B0430293206849S11657982EA0074800778000000000000
B0430333206892S11657976EA0075400784000000000000
B0430373206918S11657909EA0075800787000000000000
B0430413206890S11657836EA0076100790000000000000
B0430453206826S11657826EA0076400794000000000000
B0430493206801S11657872EA0076900800000000000000
B0430533206838S11657894EA0077500806000000000000
B0430573206879S11657845EA0078200811000000000000
B0431013206869S11657764EA0078700816000000000000
B0431053206812S11657731EA0079300823000000000000
B0431093206769S11657758EA0080000831000000000000
B0431133206780S11657796EA0080300833000000000000
B0431173206823S11657781EA0080500836000000000000
B0431213206844S11657710EA0080700838000000000000
B0431253206810S11657644EA0080900838000000000000
B0431293206747S11657637EA0081000840000000000000
B0431333206705S11657675EA0081400843000000000000
B0431373206717S11657720EA0081400842000000000000
B0431413206756S11657740EA0081400840000000000000
B0431453206804S11657716EA0080800836000000000000
B0431493206849S11657657EA0080600835000000000000
B0431533206869S11657572EA0080900837000000000000
B0431573206839S11657494EA0080400830000000000000
B0432013206799S11657417EA0079900828000000000000
B0432053206741S11657368EA0081000841000000000000
B0432093206705S11657398EA0082900864000000000000
B0432133206730S11657423EA0084100873000000000000
B0432173206774S11657381EA0084800883000000000000
B0432213206779S11657298EA0085800890000000000000
B0432253206726S11657243EA0086100898000000000000
B0432293206675S11657255EA0087800917000000000000
B0432333206674S11657293EA0089600930000000000000
B0432373206714S11657293EA0090300936000000000000
B0432413206740S11657226EA0090800942000000000000
B0432453206702S11657152EA0091100945000000000000
B0432493206643S11657152EA0092400961000000000000
B0432533206624S11657195EA0094100977000000000000
B0432573206650S11657224EA0095300989000000000000
B0433013206697S11657204EA0096601003000000000000
B0433053206727S11657134EA0097901013000000000000
B0433093206710S11657052EA0098001011000000000000
B0433133206649S11657014EA0098401020000000000000
B0433173206605S11657042EA0099301034000000000000
B0433213206622S11657077EA0100901046000000000000
B0433253206669S11657044EA0101801055000000000000
B0433293206669S11656957EA0102301061000000000000
B0433333206613S11656900EA0103201071000000000000
B0433373206559S11656919EA0104301079000000000000
B0433413206566S11656968EA0104801083000000000000
B0433453206615S11656957EA0106201099000000000000
B0433493206632S11656879EA0107301108000000000000
B0433533206589S11656812EA0108201118000000000000
B0433573206530S11656808EA0109201127000000000000
B0434013206502S11656847EA0109901135000000000000
B0434053206519S11656882EA0110901144000000000000
B0434093206565S11656866EA0112101156000000000000
B0434133206588S11656792EA0112901169000000000000
B0434173206549S11656726EA0114001177000000000000
B0434213206492S11656727EA0114601183000000000000
B0434253206471S11656771EA0115701194000000000000
B0434293206500S11656797EA0116501201000000000000
B0434333206548S11656779EA0116801202000000000000
B0434373206579S11656714EA0117101209000000000000
B0434413206556S11656640EA0118201218000000000000
B0434453206498S11656607EA0118301219000000000000
B0434493206454S11656636EA0119201229000000000000
B0434533206459S11656679EA0119801236000000000000
B0434573206505S11656683EA0119901234000000000000
B0435013206543S11656628EA0119201229000000000000
B0435053206528S11656545EA0119401235000000000000
B0435093206475S11656496EA0120101242000000000000
B0435133206424S11656514EA0121101251000000000000
B0435173206426S11656562EA0121401251000000000000
B0435213206471S11656567EA0121001245000000000000
B0435253206502S11656502EA0120501242000000000000
B0435293206488S11656418EA0121001250000000000000
B0435333206431S11656383EA0122201263000000000000
B0435373206389S11656410EA0122801267000000000000
B0435413206396S11656449EA0123301271000000000000
B0435453206439S11656448EA0122701261000000000000
B0435493206471S11656385EA0121601251000000000000
B0435533206461S11656293EA0121501257000000000000
B0435573206410S11656233EA0122801268000000000000
B0436013206363S11656251EA0123301269000000000000
B0436053206370S11656292EA0123501275000000000000
B0436093206413S11656282EA0124401280000000000000
B0436133206433S11656208EA0124601282000000000000
B0436173206393S11656132EA0124501282000000000000
B0436213206331S11656117EA0124801284000000000000
B0436253206297S11656158EA0124701283000000000000
B0436293206310S11656202EA0125301292000000000000
B0436333206353S11656210EA0125401290000000000000
B0436373206401S11656172EA0124801284000000000000
B0436413206418S11656087EA0124801291000000000000
B0436453206384S11656007EA0125401296000000000000
B0436493206322S11655983EA0125701294000000000000
B0436533206280S11656013EA0125401291000000000000
B0436573206279S11656063EA0125301295000000000000
B0437013206307S11656086EA0126201301000000000000
B0437053206350S11656091EA0125101289000000000000
B0437093206394S11656107EA0124101282000000000000
B0437133206435S11656132EA0123401278000000000000
B0437173206468S11656169EA0123301277000000000000
B0437213206494S11656215EA0123301275000000000000
B0437253206515S11656267EA0122501265000000000000
B0437293206536S11656323EA0122001261000000000000
B0437333206553S11656379EA0121701255000000000000
B0437373206571S11656437EA0121401255000000000000
B0437413206585S11656496EA0121201253000000000000
B0437453206600S11656555EA0120901250000000000000
B0437493206618S11656615EA0120801248000000000000
B0437533206637S11656672EA0120701248000000000000
B0437573206657S11656731EA0120601246000000000000
B0438013206680S11656787EA0120001240000000000000
B0438053206701S11656847EA0119301230000000000000
B0438093206732S11656901EA0118601227000000000000
B0438133206758S11656956EA0118501224000000000000
B0438173206777S11657014EA0118201222000000000000
B0438213206796S11657072EA0117901216000000000000
B0438253206821S11657125EA0117501214000000000000
B0438293206843S11657176EA0117301211000000000000
B0438333206858S11657225EA0116901205000000000000
B0438373206862S11657280EA0116301202000000000000
B0438413206864S11657332EA0116201202000000000000
B0438453206874S11657378EA0116301203000000000000
B0438493206892S11657425EA0116601207000000000000
B0438533206909S11657471EA0116701204000000000000
B0438573206925S11657521EA0116101198000000000000
B0439013206940S11657575EA0115401192000000000000
B0439053206951S11657632EA0115301187000000000000
B0439093206964S11657689EA0114901184000000000000
B0439133206974S11657746EA0114501180000000000000
B0439173206983S11657805EA0114001177000000000000
B0439213206999S11657862EA0113601173000000000000
B0439253207014S11657919EA0113501172000000000000
B0439293207027S11657975EA0113101169000000000000
B0439333207040S11658030EA0112801165000000000000
B0439373207053S11658083EA0112501162000000000000
B0439413207059S11658139EA0112001154000000000000
B0439453207063S11658196EA0111501152000000000000
B0439493207073S11658249EA0111201149000000000000
B0439533207077S11658304EA0111101149000000000000
B0439573207077S11658357EA0111201151000000000000
B0440013207077S11658408EA0111401152000000000000
B0440053207074S11658457EA0111301152000000000000
B0440093207069S11658508EA0110601141000000000000
B0440133207076S11658560EA0109801133000000000000
B0440173207085S11658612EA0109201130000000000000
B0440213207090S11658663EA0109001127000000000000
B0440253207107S11658708EA0108401118000000000000
B0440293207141S11658746EA0106901101000000000000
B0440333207187S11658777EA0106101100000000000000
B0440373207232S11658803EA0106501105000000000000
B0440413207263S11658846EA0106201100000000000000
B0440453207282S11658897EA0105601088000000000000
B0440493207299S11658953EA0104001076000000000000
B0440533207326S11659002EA0103501076000000000000
B0440573207346S11659051EA0104401084000000000000
B0441013207351S11659102EA0105301094000000000000
B0441053207356S11659150EA0105701095000000000000
B0441093207362S11659200EA0105201087000000000000
B0441133207373S11659250EA0104101074000000000000
B0441173207382S11659304EA0103301070000000000000
B0441213207390S11659358EA0102901064000000000000
B0441253207398S11659412EA0102401059000000000000
B0441293207414S11659460EA0101601051000000000000
B0441333207441S11659499EA0101301045000000000000
B0441373207479S11659526EA0101401051000000000000
B0441413207525S11659526EA0102201062000000000000
B0441453207570S11659477EA0102801065000000000000
B0441493207581S11659391EA0102501062000000000000
B0441533207568S11659297EA0102101055000000000000
B0441573207520S11659223EA0101601052000000000000
B0442013207454S11659178EA0101001045000000000000
B0442053207388S11659159EA0100301037000000000000
B0442093207330S11659174EA0099801029000000000000
B0442133207304S11659215EA0099201022000000000000
B0442173207316S11659258EA0098001011000000000000
B0442213207352S11659288EA0097301006000000000000
B0442253207399S11659305EA0097401009000000000000
B0442293207453S11659304EA0097701013000000000000
B0442333207507S11659288EA0097901016000000000000
B0442373207562S11659259EA0097901018000000000000
B0442413207616S11659227EA0097301012000000000000
B0442453207674S11659214EA0097001008000000000000
B0442493207724S11659224EA0096801008000000000000
B0442533207770S11659245EA0096801010000000000000
B0442573207791S11659287EA0097701021000000000000
B0443013207753S11659321EA0099001029000000000000
B0443053207690S11659293EA0098901024000000000000
B0443093207677S11659211EA0099501034000000000000
B0443133207723S11659165EA0100101037000000000000
B0443173207771S11659175EA0100601042000000000000
B0443213207792S11659217EA0101601054000000000000
B0443253207765S11659257EA0102101055000000000000
B0443293207705S11659256EA0101801048000000000000
B0443333207655S11659197EA0101001042000000000000
B0443373207649S11659109EA0100801042000000000000
B0443413207668S11659029EA0101401050000000000000
B0443453207719S11658990EA0101901053000000000000
B0443493207771S11658997EA0102501059000000000000
B0443533207814S11659025EA0102701060000000000000
B0443573207846S11659066EA0102701059000000000000
B0444013207871S11659113EA0102101050000000000000
B0444053207885S11659166EA0101201041000000000000
B0444093207888S11659224EA0101201043000000000000
B0444133207888S11659282EA0101401043000000000000
B0444173207889S11659337EA0101201041000000000000
B0444213207892S11659392EA0100701039000000000000
B0444253207889S11659445EA0101001039000000000000
B0444293207891S11659501EA0100401030000000000000
B0444333207898S11659556EA0099501020000000000000
B0444373207921S11659604EA0098501012000000000000
B0444413207956S11659643EA0097901005000000000000
B0444453207999S11659670EA0096800995000000000000
B0444493208048S11659692EA0095600984000000000000
B0444533208103S11659703EA0095100978000000000000
B0444573208156S11659712EA0094300969000000000000
B0445013208210S11659720EA0092900955000000000000
B0445053208270S11659718EA0091900948000000000000
B0445093208333S11659711EA0090900939000000000000
B0445133208392S11659703EA0090700942000000000000
B0445173208450S11659695EA0091300948000000000000
B0445213208504S11659681EA0090800943000000000000
B0445253208560S11659666EA0089900933000000000000
B0445293208619S11659644EA0089100924000000000000
B0445333208678S11659617EA0088800924000000000000
B0445373208738S11659601EA0088900923000000000000
B0445413208789S11659623EA0088800919000000000000
B0445453208815S11659672EA0088000914000000000000
B0445493208824S11659726EA0088500919000000000000
B0445533208832S11659779EA0088400917000000000000
B0445573208842S11659833EA0087600907000000000000
B0446013208845S11659890EA0087200905000000000000
B0446053208842S11659947EA0087500907000000000000
B0446093208842S11700004EA0087100900000000000000
B0446133208842S11700063EA0086600893000000000000
B0446173208845S11700120EA0086300890000000000000
B0446213208853S11700176EA0085900886000000000000
B0446253208866S11700232EA0085600885000000000000
B0446293208873S11700288EA0085900887000000000000
B0446333208879S11700340EA0086200890000000000000
B0446373208890S11700388EA0087200901000000000000
B0446413208933S11700396EA0088000908000000000000
B0446453208979S11700338EA0088000907000000000000
B0446493208985S11700249EA0087800905000000000000
B0446533208949S11700172EA0087200897000000000000
B0446573208890S11700136EA0086500890000000000000
B0447013208842S11700147EA0086100888000000000000
B0447053208821S11700190EA0086000889000000000000
B0447093208820S11700240EA0087000899000000000000
B0447133208863S11700240EA0088300910000000000000
B0447173208886S11700166EA0088300908000000000000
B0447213208859S11700085EA0087700901000000000000
B0447253208799S11700054EA0087400901000000000000
B0447293208747S11700065EA0087700908000000000000
B0447333208715S11700104EA0088300916000000000000
B0447373208729S11700143EA0089400921000000000000
B0447413208780S11700119EA0090100929000000000000
B0447453208798S11700034EA0090700935000000000000
B0447493208766S11659950EA0091000937000000000000
B0447533208707S11659912EA0091800950000000000000
B0447573208662S11659930EA0092500954000000000000
B0448013208655S11659976EA0092600954000000000000
B0448053208688S11700015EA0092700953000000000000
B0448093208743S11700025EA0093100959000000000000
B0448133208803S11659998EA0093700966000000000000
B0448173208849S11659932EA0094000970000000000000
B0448213208863S11659843EA0094000967000000000000
B0448253208845S11659753EA0093200959000000000000
B0448293208807S11659675EA0092700955000000000000
B0448333208754S11659622EA0092100950000000000000
B0448373208697S11659603EA0092200952000000000000
B0448413208645S11659613EA0092400955000000000000
B0448453208615S11659644EA0093400966000000000000
B0448493208613S11659685EA0094700983000000000000
B0448533208645S11659714EA0095600989000000000000
B0448573208697S11659703EA0096100995000000000000
B0449013208728S11659634EA0096901001000000000000
B0449053208710S11659548EA0096700998000000000000
B0449093208655S11659503EA0096600997000000000000
B0449133208608S11659514EA0096300994000000000000
B0449173208599S11659556EA0096700999000000000000
B0449213208624S11659584EA0097501008000000000000
B0449253208669S11659582EA0097701006000000000000
B0449293208717S11659538EA0097801011000000000000
B0449333208745S11659458EA0097801008000000000000
B0449373208736S11659366EA0097501005000000000000
B0449413208699S11659289EA0097301004000000000000
B0449453208643S11659254EA0097000999000000000000
B0449493208600S11659272EA0096400992000000000000
B0449533208593S11659319EA0095700988000000000000
B0449573208604S11659369EA0096200995000000000000
B0450013208642S11659395EA0097001002000000000000
B0450053208695S11659357EA0097901009000000000000
B0450093208708S11659272EA0097401002000000000000
B0450133208676S11659189EA0096500993000000000000
B0450173208617S11659150EA0096400994000000000000
B0450213208569S11659165EA0096600995000000000000
B0450253208565S11659210EA0097100999000000000000
B0450293208610S11659231EA0096800996000000000000
B0450333208669S11659191EA0097201000000000000000
B0450373208693S11659102EA0097200998000000000000
B0450413208667S11659014EA0096300989000000000000
B0450453208610S11658967EA0095500984000000000000
B0450493208552S11658976EA0095400983000000000000
B0450533208526S11659022EA0095600985000000000000
B0450573208530S11659074EA0095400983000000000000
B0451013208545S11659127EA0094900977000000000000
B0451053208560S11659179EA0094800976000000000000
B0451093208577S11659228EA0094900979000000000000
B0451133208597S11659272EA0095000979000000000000
B0451173208617S11659315EA0094900978000000000000
B0451213208637S11659358EA0094700975000000000000
B0451253208650S11659404EA0094500972000000000000
B0451293208669S11659447EA0093900965000000000000
B0451333208698S11659484EA0093400960000000000000
B0451373208738S11659508EA0093000954000000000000
B0451413208788S11659512EA0092400946000000000000
B0451453208841S11659478EA0091200933000000000000
B0451493208872S11659401EA0090100925000000000000
B0451533208864S11659309EA0089000913000000000000
B0451573208816S11659233EA0087900903000000000000
B0452013208754S11659176EA0086700891000000000000
B0452053208686S11659127EA0085700878000000000000
B0452093208616S11659077EA0084500870000000000000
B0452133208546S11659033EA0084200867000000000000
B0452173208480S11658988EA0084300870000000000000
B0452213208417S11658942EA0085200880000000000000
B0452253208352S11658914EA0085500882000000000000
B0452293208305S11658940EA0085900889000000000000
B0452333208290S11658990EA0085700887000000000000
B0452373208291S11659048EA0085200878000000000000
B0452413208322S11659087EA0085400881000000000000
B0452453208374S11659070EA0085500883000000000000
B0452493208408S11659002EA0085600882000000000000
B0452533208404S11658914EA0085300881000000000000
B0452573208374S11658827EA0085000876000000000000
B0453013208320S11658777EA0086100890000000000000
B0453053208287S11658810EA0087600907000000000000
B0453093208311S11658842EA0088000908000000000000
B0453133208361S11658811EA0087500900000000000000
B0453173208374S11658726EA0086700896000000000000
B0453213208343S11658646EA0087100901000000000000
B0453253208286S11658608EA0086800896000000000000
B0453293208233S11658630EA0086100887000000000000
B0453333208217S11658687EA0085500883000000000000
B0453373208220S11658751EA0085400882000000000000
B0453413208244S11658808EA0085300884000000000000
B0453453208298S11658811EA0086800901000000000000
B0453493208333S11658749EA0087700907000000000000
B0453533208311S11658674EA0088000913000000000000
B0453573208253S11658654EA0088200909000000000000
B0454013208221S11658695EA0087200901000000000000
B0454053208246S11658739EA0087800908000000000000
B0454093208296S11658729EA0088100911000000000000
B0454133208330S11658661EA0087400903000000000000
B0454173208308S11658580EA0087700910000000000000
B0454213208252S11658556EA0088500916000000000000
B0454253208222S11658595EA0088200910000000000000
B0454293208248S11658630EA0088600914000000000000
B0454333208299S11658603EA0088000905000000000000
B0454373208311S11658517EA0087000898000000000000
B0454413208273S11658435EA0086900902000000000000
B0454453208213S11658398EA0087600906000000000000
B0454493208178S11658435EA0088000910000000000000
B0454533208195S11658485EA0087600903000000000000
B0454573208242S11658515EA0087800906000000000000
B0455013208296S11658490EA0087800904000000000000
B0455053208322S11658412EA0087400899000000000000
B0455093208309S11658323EA0086800891000000000000
B0455133208286S11658234EA0085900884000000000000
B0455173208259S11658144EA0085400881000000000000
B0455213208233S11658056EA0084800871000000000000
B0455253208213S11657966EA0083300854000000000000
B0455293208196S11657872EA0081600836000000000000
B0455333208190S11657776EA0080300825000000000000
B0455373208184S11657677EA0078500808000000000000
B0455413208175S11657580EA0077200794000000000000
B0455453208168S11657480EA0076500785000000000000
B0455493208157S11657380EA0075600776000000000000
B0455533208144S11657285EA0075400778000000000000
B0455573208132S11657194EA0075600780000000000000
B0456013208123S11657107EA0075100774000000000000
B0456053208114S11657016EA0073800759000000000000
B0456093208117S11656922EA0072900753000000000000
B0456133208123S11656832EA0072100742000000000000
B0456173208117S11656735EA0070600728000000000000
B0456213208080S11656645EA0070100724000000000000
B0456253208025S11656576EA0069500717000000000000
B0456293207960S11656526EA0068500705000000000000
B0456333207891S11656493EA0067600701000000000000
B0456373207819S11656468EA0067100693000000000000
B0456413207752S11656467EA0067700703000000000000
B0456453207707S11656503EA0069000717000000000000
B0456493207710S11656549EA0070200725000000000000
B0456533207761S11656524EA0070300727000000000000
B0456573207762S11656442EA0071400740000000000000
B0457013207707S11656393EA0071800744000000000000
B0457053207648S11656412EA0072500751000000000000
B0457093207642S11656464EA0073700770000000000000
B0457133207687S11656474EA0075700787000000000000
B0457173207727S11656422EA0076900799000000000000
B0457213207718S11656346EA0077600806000000000000
B0457253207663S11656307EA0077900806000000000000
B0457293207605S11656320EA0078700817000000000000
B0457333207585S11656368EA0079900829000000000000
B0457373207619S11656386EA0081700848000000000000
B0457413207653S11656331EA0083000857000000000000
B0457453207624S11656259EA0083900868000000000000
B0457493207566S11656249EA0084800878000000000000
B0457533207544S11656295EA0085800888000000000000
B0457573207577S11656321EA0087500906000000000000
B0458013207616S11656272EA0089000918000000000000
B0458053207597S11656195EA0090000932000000000000
B0458093207538S11656173EA0090900941000000000000
B0458133207510S11656219EA0091600953000000000000
B0458173207534S11656254EA0093600971000000000000
B0458213207580S11656232EA0095300988000000000000
B0458253207603S11656164EA0096600999000000000000
B0458293207576S11656093EA0097701010000000000000
B0458333207518S11656082EA0098901023000000000000
B0458373207488S11656125EA0099701030000000000000
B0458413207511S11656163EA0101301046000000000000
B0458453207555S11656134EA0102801063000000000000
B0458493207564S11656059EA0103501070000000000000
B0458533207518S11656003EA0104201079000000000000
B0458573207472S11656030EA0105001089000000000000
B0459013207488S11656076EA0106001100000000000000
B0459053207538S11656063EA0107501117000000000000
B0459093207571S11655999EA0108901129000000000000
B0459133207562S11655924EA0110101142000000000000
B0459173207520S11655869EA0111001148000000000000
B0459213207466S11655861EA0111401152000000000000
B0459253207429S11655899EA0112001158000000000000
B0459293207432S11655951EA0112901168000000000000
B0459333207469S11655978EA0113701174000000000000
B0459373207523S11655951EA0114801187000000000000
B0459413207538S11655879EA0115701195000000000000
B0459453207501S11655817EA0115901197000000000000
B0459493207447S11655814EA0116701209000000000000
B0459533207428S11655859EA0117801220000000000000
B0459573207456S11655895EA0118501223000000000000
B0500013207510S11655881EA0119201231000000000000
B0500053207537S11655811EA0119401231000000000000
B0500093207511S11655738EA0119701236000000000000
B0500133207455S11655709EA0120201240000000000000
B0500173207419S11655740EA0121001250000000000000
B0500213207434S11655782EA0121601253000000000000
B0500253207485S11655778EA0122001256000000000000
B0500293207527S11655722EA0122401263000000000000
B0500333207525S11655645EA0122701263000000000000
B0500373207484S11655588EA0122401260000000000000
B0500413207430S11655583EA0122901268000000000000
B0500453207408S11655622EA0123501272000000000000
B0500493207433S11655656EA0123701276000000000000
B0500533207484S11655651EA0124001276000000000000
B0500573207528S11655595EA0123701275000000000000
B0501013207537S11655515EA0123701273000000000000
B0501053207510S11655445EA0123301269000000000000
B0501093207460S11655421EA0123001267000000000000
B0501133207427S11655444EA0123101270000000000000
B0501173207419S11655484EA0123201268000000000000
B0501213207434S11655531EA0122701264000000000000
B0501253207454S11655584EA0122501258000000000000
B0501293207472S11655643EA0121701251000000000000
B0501333207484S11655703EA0121501249000000000000
B0501373207486S11655764EA0121101245000000000000
B0501413207482S11655826EA0120801239000000000000
B0501453207477S11655886EA0120701240000000000000
B0501493207475S11655942EA0120401233000000000000
B0501533207475S11655998EA0119201220000000000000
B0501573207469S11656056EA0117801208000000000000
B0502013207466S11656116EA0117001201000000000000
B0502053207455S11656176EA0116701195000000000000
B0502093207451S11656234EA0116101193000000000000
B0502133207453S11656293EA0115501185000000000000
B0502173207454S11656353EA0114901176000000000000
B0502213207459S11656418EA0113701161000000000000
B0502253207476S11656481EA0113901174000000000000
B0502293207494S11656537EA0115001184000000000000
B0502333207514S11656589EA0115301184000000000000
B0502373207540S11656641EA0114801179000000000000
B0502413207570S11656691EA0114401176000000000000
B0502453207602S11656736EA0114201176000000000000
B0502493207644S11656774EA0114001173000000000000
B0502533207696S11656805EA0113001161000000000000
B0502573207745S11656845EA0112301157000000000000
B0503013207785S11656893EA0112301158000000000000
B0503053207818S11656947EA0112201154000000000000
B0503093207849S11657000EA0111701151000000000000
B0503133207875S11657057EA0111001142000000000000
B0503173207898S11657116EA0110301139000000000000
B0503213207921S11657172EA0110201137000000000000
B0503253207940S11657228EA0109901135000000000000
B0503293207963S11657277EA0110101138000000000000
B0503333207999S11657308EA0111001145000000000000
B0503373208048S11657287EA0111301146000000000000
B0503413208083S11657215EA0111101145000000000000
B0503453208099S11657125EA0111001142000000000000
B0503493208080S11657034EA0110201135000000000000
B0503533208036S11656953EA0109501128000000000000
B0503573207989S11656871EA0108501119000000000000
B0504013207945S11656784EA0107801112000000000000
B0504053207910S11656692EA0107301104000000000000
B0504093207880S11656596EA0106301097000000000000
B0504133207849S11656501EA0106001094000000000000
B0504173207810S11656410EA0105401087000000000000
B0504213207755S11656331EA0105001085000000000000
B0504253207689S11656272EA0105001085000000000000
B0504293207620S11656237EA0105001084000000000000
B0504333207549S11656223EA0104501075000000000000
B0504373207476S11656215EA0103701068000000000000
B0504413207404S11656214EA0103701073000000000000
B0504453207342S11656221EA0104401076000000000000
B0504493207302S11656259EA0104501078000000000000
B0504533207285S11656311EA0104101072000000000000
B0504573207280S11656368EA0103601065000000000000
B0505013207282S11656429EA0103201061000000000000
B0505053207294S11656489EA0102801056000000000000
B0505093207312S11656550EA0102301055000000000000
B0505133207326S11656609EA0103201061000000000000
B0505173207343S11656663EA0102901056000000000000
B0505213207358S11656717EA0102501051000000000000
B0505253207372S11656770EA0101801046000000000000
B0505293207384S11656823EA0101001037000000000000
B0505333207382S11656882EA0099901023000000000000
B0505373207364S11656948EA0098301008000000000000
B0505413207339S11657016EA0097401001000000000000
B0505453207311S11657078EA0097201003000000000000
B0505493207284S11657138EA0097301004000000000000
B0505533207252S11657194EA0097100997000000000000
B0505573207225S11657250EA0096901003000000000000
B0506013207204S11657304EA0096901000000000000000
B0506053207183S11657356EA0096700999000000000000
B0506093207163S11657407EA0096500994000000000000
B0506133207148S11657460EA0095600984000000000000
B0506173207131S11657515EA0094700978000000000000
B0506213207126S11657572EA0094600977000000000000
B0506253207128S11657625EA0094700976000000000000
B0506293207129S11657680EA0094200968000000000000
B0506333207130S11657738EA0093400959000000000000
B0506373207131S11657797EA0093400960000000000000
B0506413207131S11657853EA0093800965000000000000
B0506453207138S11657907EA0093500962000000000000
B0506493207155S11657956EA0094000964000000000000
B0506533207191S11657987EA0092700952000000000000
B0506573207222S11658030EA0091700943000000000000
B0507013207232S11658083EA0091400937000000000000
B0507053207219S11658139EA0090600931000000000000
B0507093207200S11658196EA0090600932000000000000
B0507133207193S11658255EA0090700932000000000000
B0507173207198S11658312EA0089600916000000000000
B0507213207221S11658364EA0088200902000000000000
B0507253207256S11658411EA0086800889000000000000
B0507293207299S11658447EA0085600878000000000000
B0507333207350S11658476EA0084100863000000000000
B0507373207406S11658500EA0083000849000000000000
B0507413207462S11658521EA0081700838000000000000
B0507453207519S11658541EA0080300823000000000000
B0507493207576S11658559EA0079400817000000000000
B0507533207632S11658574EA0078900812000000000000
B0507573207688S11658590EA0078200807000000000000
B0508013207742S11658607EA0077900803000000000000
B0508053207797S11658621EA0077700803000000000000
B0508093207853S11658633EA0077400796000000000000
B0508133207911S11658638EA0076400786000000000000
B0508173207975S11658634EA0075700778000000000000
B0508213208039S11658632EA0074900770000000000000
B0508253208104S11658629EA0074000761000000000000
B0508293208169S11658626EA0073800763000000000000
B0508333208227S11658617EA0074800774000000000000
B0508373208281S11658619EA0074700772000000000000
B0508413208322S11658643EA0075400778000000000000
B0508453208366S11658637EA0076400797000000000000
B0508493208386S11658568EA0077600805000000000000
B0508533208356S11658494EA0077500801000000000000
B0508573208295S11658466EA0076800793000000000000
B0509013208246S11658491EA0076800798000000000000
B0509053208231S11658534EA0076900795000000000000
B0509093208240S11658578EA0076500790000000000000
B0509133208269S11658613EA0076100786000000000000
B0509173208314S11658621EA0075600777000000000000
B0509213208365S11658596EA0074500769000000000000
B0509253208416S11658559EA0073800761000000000000
B0509293208468S11658521EA0073400759000000000000
B0509333208521S11658500EA0073400760000000000000
B0509373208561S11658520EA0073300758000000000000
B0509413208590S11658554EA0072800752000000000000
B0509453208610S11658593EA0072700752000000000000
B0509493208613S11658638EA0072500749000000000000
B0509533208606S11658685EA0072600748000000000000
B0509573208587S11658736EA0072200743000000000000
B0510013208574S11658789EA0072300747000000000000
B0510053208600S11658808EA0073200756000000000000
B0510093208621S11658738EA0072500745000000000000
B0510133208567S11658665EA0072600758000000000000
B0510173208498S11658663EA0074200771000000000000
B0510213208470S11658704EA0075100777000000000000
B0510253208496S11658729EA0075300773000000000000
B0510293208539S11658698EA0075200774000000000000
B0510333208554S11658621EA0075400777000000000000
B0510373208521S11658543EA0075700783000000000000
B0510413208455S11658513EA0076000783000000000000
B0510453208407S11658544EA0076500790000000000000
B0510493208413S11658589EA0077000791000000000000
B0510533208452S11658594EA0076800790000000000000
B0510573208493S11658547EA0076800790000000000000
B0511013208503S11658464EA0076900791000000000000
B0511053208480S11658381EA0077100796000000000000
B0511093208416S11658336EA0077000794000000000000
B0511133208359S11658355EA0076900793000000000000
B0511173208331S11658405EA0076900793000000000000
B0511213208326S11658461EA0076600785000000000000
B0511253208333S11658517EA0076200783000000000000
B0511293208344S11658568EA0076400783000000000000
B0511333208372S11658606EA0076000777000000000000
B0511373208411S11658626EA0075300771000000000000
B0511413208459S11658607EA0075000766000000000000
B0511453208487S11658539EA0073900755000000000000
B0511493208477S11658451EA0073000744000000000000
B0511533208444S11658360EA0072400745000000000000
B0511573208398S11658281EA0073200754000000000000
B0512013208331S11658284EA0073400754000000000000
B0512053208330S11658326EA0073600755000000000000
B0512093208374S11658308EA0073400755000000000000
B0512133208399S11658234EA0073800762000000000000
B0512173208382S11658144EA0074100762000000000000
B0512213208317S11658083EA0074200763000000000000
B0512253208248S11658093EA0074100763000000000000
B0512293208235S11658141EA0074600774000000000000
B0512333208270S11658147EA0075400782000000000000
B0512373208299S11658088EA0076200793000000000000
B0512413208262S11658010EA0077100801000000000000
B0512453208190S11657988EA0076700794000000000000
B0512493208147S11658030EA0077200802000000000000
B0512533208161S11658067EA0077600807000000000000
B0512573208203S11658057EA0078300813000000000000
B0513013208230S11657992EA0079200822000000000000
B0513053208209S11657907EA0080100830000000000000
B0513093208148S11657859EA0080100831000000000000
B0513133208087S11657874EA0080000829000000000000
B0513173208067S11657924EA0079900824000000000000
B0513213208101S11657941EA0080000830000000000000
B0513253208142S11657891EA0080800841000000000000
B0513293208132S11657805EA0081900849000000000000
B0513333208078S11657742EA0082200853000000000000
B0513373208014S11657745EA0082300854000000000000
B0513413207989S11657790EA0082800855000000000000
B0513453208018S11657816EA0082800861000000000000
B0513493208057S11657788EA0084000872000000000000
B0513533208065S11657714EA0084600875000000000000
B0513573208021S11657644EA0084400874000000000000
B0514013207954S11657634EA0084800878000000000000
B0514053207926S11657679EA0085000879000000000000
B0514093207949S11657714EA0085200884000000000000
B0514133207991S11657684EA0086200893000000000000
B0514173208005S11657605EA0086800900000000000000
B0514213207970S11657520EA0086800900000000000000
B0514253207901S11657490EA0087200906000000000000
B0514293207846S11657521EA0087500906000000000000
B0514333207839S11657580EA0087500906000000000000
B0514373207878S11657602EA0088100912000000000000
B0514413207923S11657556EA0088700919000000000000
B0514453207926S11657468EA0089300930000000000000
B0514493207865S11657416EA0089800934000000000000
B0514533207811S11657446EA0090100937000000000000
B0514573207814S11657498EA0090300938000000000000
B0515013207858S11657494EA0091400952000000000000
B0515053207882S11657426EA0092500962000000000000
B0515093207863S11657338EA0092500957000000000000
B0515133207806S11657272EA0092500961000000000000
B0515173207737S11657257EA0093100966000000000000
B0515213207684S11657289EA0093400974000000000000
B0515253207672S11657342EA0094500981000000000000
B0515293207706S11657372EA0094500978000000000000
B0515333207754S11657346EA0095000985000000000000
B0515373207767S11657269EA0095700996000000000000
B0515413207727S11657195EA0096200995000000000000
B0515453207662S11657178EA0096301002000000000000
B0515493207620S11657218EA0096901006000000000000
B0515533207623S11657268EA0097301007000000000000
B0515573207666S11657269EA0097701011000000000000
B0516013207702S11657212EA0097801016000000000000
B0516053207692S11657126EA0098701026000000000000
B0516093207635S11657070EA0099001026000000000000
B0516133207573S11657085EA0099301031000000000000
B0516173207566S11657137EA0100101041000000000000
B0516213207599S11657156EA0100201040000000000000
B0516253207646S11657122EA0100301046000000000000
B0516293207663S11657048EA0101501055000000000000
B0516333207638S11656965EA0101801054000000000000
B0516373207581S11656903EA0101301047000000000000
B0516413207510S11656896EA0100801044000000000000
B0516453207463S11656938EA0100501040000000000000
B0516493207463S11656995EA0100701046000000000000
B0516533207497S11657026EA0101101049000000000000
B0516573207547S11657018EA0101201048000000000000
B0517013207603S11656999EA0101201050000000000000
B0517053207657S11656981EA0101601056000000000000
B0517093207710S11656964EA0101701054000000000000
B0517133207765S11656942EA0101401052000000000000
B0517173207820S11656919EA0100701045000000000000
B0517213207880S11656901EA0100301042000000000000
B0517253207936S11656886EA0100501048000000000000
B0517293207991S11656871EA0100801051000000000000
B0517333208048S11656864EA0100601047000000000000
B0517373208105S11656854EA0100801048000000000000
B0517413208147S11656802EA0101501060000000000000
B0517453208151S11656721EA0101801061000000000000
B0517493208136S11656633EA0101701060000000000000
B0517533208082S11656567EA0102001065000000000000
B0517573208004S11656545EA0101801063000000000000
B0518013207923S11656550EA0101901066000000000000
B0518053207844S11656562EA0101901065000000000000
B0518093207771S11656583EA0102701073000000000000
B0518133207705S11656610EA0102701071000000000000
B0518173207658S11656658EA0102201062000000000000
B0518213207646S11656719EA0101701059000000000000
B0518253207670S11656765EA0101801058000000000000
B0518293207720S11656770EA0101601055000000000000
B0518333207770S11656726EA0101401054000000000000
B0518373207805S11656658EA0101001046000000000000
B0518413207836S11656583EA0100001038000000000000
B0518453207870S11656505EA0099501033000000000000
B0518493207901S11656428EA0100801049000000000000
B0518533207921S11656351EA0102501064000000000000
B0518573207884S11656280EA0103201071000000000000
B0519013207820S11656276EA0103201070000000000000
B0519053207784S11656321EA0102701068000000000000
B0519093207785S11656373EA0102901068000000000000
B0519133207819S11656410EA0102401065000000000000
B0519173207867S11656423EA0102901072000000000000
B0519213207910S11656385EA0103301073000000000000
B0519253207927S11656311EA0103601077000000000000
B0519293207923S11656228EA0103801079000000000000
B0519333207870S11656165EA0104001080000000000000
B0519373207796S11656145EA0104901092000000000000
B0519413207750S11656185EA0106001105000000000000
B0519453207778S11656220EA0106401108000000000000
B0519493207820S11656181EA0107501121000000000000
B0519533207811S11656098EA0108101127000000000000
B0519573207755S11656035EA0108801133000000000000
B0520013207684S11656034EA0109301140000000000000
B0520053207646S11656085EA0110301152000000000000
B0520093207666S11656130EA0111001157000000000000
B0520133207714S11656129EA0111501162000000000000
B0520173207745S11656069EA0112901177000000000000
B0520213207722S11655991EA0113501180000000000000
B0520253207657S11655947EA0113701183000000000000
B0520293207597S11655972EA0114201191000000000000
B0520333207589S11656025EA0115101199000000000000
B0520373207618S11656059EA0115501201000000000000
B0520413207662S11656047EA0116301207000000000000
B0520453207687S11655985EA0116501205000000000000
B0520493207661S11655907EA0116301207000000000000
B0520533207599S11655860EA0117101216000000000000
B0520573207533S11655863EA0117801221000000000000
B0521013207489S11655905EA0118301224000000000000
B0521053207475S11655963EA0118301224000000000000
B0521093207466S11656022EA0118101223000000000000
B0521133207459S11656084EA0117501215000000000000
B0521173207453S11656147EA0116801208000000000000
B0521213207447S11656207EA0116601204000000000000
B0521253207458S11656264EA0115601192000000000000
B0521293207482S11656318EA0114601183000000000000
B0521333207514S11656368EA0114001176000000000000
B0521373207554S11656416EA0113101166000000000000
B0521413207598S11656462EA0112501162000000000000
B0521453207645S11656505EA0112301159000000000000
B0521493207690S11656549EA0111701154000000000000
B0521533207739S11656588EA0111601154000000000000
B0521573207787S11656623EA0111701155000000000000
B0522013207837S11656654EA0112301162000000000000
B0522053207887S11656683EA0112501162000000000000
B0522093207937S11656708EA0111901152000000000000
B0522133207984S11656740EA0110901142000000000000
B0522173208018S11656783EA0110401140000000000000
B0522213208043S11656831EA0110401140000000000000
B0522253208067S11656878EA0110301137000000000000
B0522293208092S11656927EA0110001135000000000000
B0522333208119S11656975EA0109701130000000000000
B0522373208148S11657023EA0109101123000000000000
B0522413208173S11657075EA0108401117000000000000
B0522453208194S11657133EA0107701109000000000000
B0522493208220S11657187EA0107001103000000000000
B0522533208242S11657244EA0106801101000000000000
B0522573208261S11657300EA0106501098000000000000
B0523013208282S11657355EA0106001091000000000000
B0523053208299S11657415EA0105201085000000000000
B0523093208317S11657473EA0105201082000000000000
B0523133208334S11657532EA0104501072000000000000
B0523173208355S11657590EA0103001058000000000000
B0523213208376S11657651EA0102101050000000000000
B0523253208394S11657711EA0101301043000000000000
B0523293208412S11657770EA0100801037000000000000
B0523333208430S11657824EA0100201029000000000000
B0523373208451S11657878EA0099901030000000000000
B0523413208467S11657932EA0099601026000000000000
B0523453208477S11657991EA0099401028000000000000
B0523493208489S11658041EA0100201036000000000000
B0523533208498S11658092EA0100601038000000000000
B0523573208506S11658145EA0100901039000000000000
B0524013208515S11658200EA0100701038000000000000
B0524053208526S11658257EA0100401035000000000000
B0524093208548S11658308EA0101201044000000000000
B0524133208598S11658300EA0102701062000000000000
B0524173208630S11658229EA0103701073000000000000
B0524213208611S11658139EA0104501083000000000000
B0524253208552S11658092EA0105201092000000000000
B0524293208493S11658102EA0105801092000000000000
B0524333208460S11658149EA0105401088000000000000
B0524373208455S11658206EA0105501093000000000000
B0524413208478S11658244EA0106101096000000000000
B0524453208524S11658235EA0106301100000000000000
B0524493208561S11658178EA0106901110000000000000
B0524533208567S11658097EA0108401124000000000000
B0524573208524S11658028EA0108901125000000000000
B0525013208457S11658017EA0109101130000000000000
B0525053208412S11658053EA0109701137000000000000
B0525093208400S11658105EA0109701132000000000000
B0525133208408S11658158EA0109301129000000000000
B0525173208438S11658195EA0109401130000000000000
B0525213208485S11658199EA0109101126000000000000
B0525253208532S11658153EA0109201128000000000000
B0525293208561S11658080EA0109701135000000000000
B0525333208528S11658002EA0111001151000000000000
B0525373208463S11657991EA0111701154000000000000
B0525413208428S11658035EA0111901158000000000000
B0525453208456S11658060EA0112801166000000000000
B0525493208494S11658018EA0113201169000000000000
B0525533208476S11657940EA0113801178000000000000
B0525573208411S11657918EA0114201180000000000000
B0526013208373S11657959EA0114101181000000000000
B0526053208395S11657987EA0114701187000000000000
B0526093208434S11657949EA0114801187000000000000
B0526133208428S11657872EA0115601199000000000000
B0526173208374S11657826EA0116301199000000000000
B0526213208314S11657840EA0115901198000000000000
B0526253208299S11657887EA0116301202000000000000
B0526293208327S11657906EA0116701203000000000000
B0526333208366S11657879EA0117101210000000000000
B0526373208387S11657818EA0117801216000000000000
B0526413208369S11657741EA0117901215000000000000
B0526453208313S11657692EA0117401211000000000000
B0526493208249S11657699EA0117701217000000000000
B0526533208216S11657744EA0118101218000000000000
B0526573208222S11657788EA0117901215000000000000
B0527013208257S11657805EA0117801215000000000000
B0527053208299S11657777EA0117801214000000000000
B0527093208317S11657710EA0118101217000000000000
B0527133208294S11657632EA0118001215000000000000
B0527173208240S11657576EA0118101216000000000000
B0527213208175S11657576EA0118901225000000000000
B0527253208139S11657619EA0118901224000000000000
B0527293208149S11657662EA0118601219000000000000
B0527333208191S11657649EA0118501221000000000000
B0527373208207S11657581EA0118301219000000000000
B0527413208177S11657504EA0118201217000000000000
B0527453208122S11657439EA0118101215000000000000
B0527493208064S11657378EA0117901217000000000000
B0527533208002S11657319EA0117601210000000000000
B0527573207936S11657265EA0116801202000000000000
B0528013207865S11657220EA0116301197000000000000
B0528053207793S11657169EA0115801187000000000000
B0528093207724S11657116EA0115701191000000000000
B0528133207659S11657066EA0116001193000000000000
B0528173207596S11657022EA0116701201000000000000
B0528213207538S11656981EA0117001200000000000000
B0528253207481S11656935EA0116301191000000000000
B0528293207419S11656892EA0115201180000000000000
B0528333207350S11656858EA0114101173000000000000
B0528373207277S11656830EA0113401167000000000000
B0528413207203S11656806EA0113101164000000000000
B0528453207129S11656788EA0113701175000000000000
B0528493207060S11656791EA0114801182000000000000
B0528533207016S11656826EA0115201186000000000000
B0528573206982S11656867EA0114301174000000000000
B0529013206920S11656897EA0112701154000000000000
B0529053206838S11656906EA0111301142000000000000
B0529093206752S11656903EA0110701139000000000000
B0529133206666S11656895EA0110201133000000000000
B0529173206579S11656887EA0109601123000000000000
B0529213206491S11656878EA0109001120000000000000
B0529253206401S11656870EA0108601114000000000000
B0529293206312S11656865EA0108101113000000000000
B0529333206227S11656862EA0107901110000000000000
B0529373206142S11656866EA0107001100000000000000
B0529413206055S11656873EA0106301095000000000000
B0529453205971S11656879EA0106201094000000000000
B0529493205890S11656884EA0106501098000000000000
B0529533205813S11656888EA0106601095000000000000
B0529573205735S11656890EA0106101091000000000000
B0530013205659S11656891EA0105701087000000000000
B0530053205581S11656897EA0105001077000000000000
B0530093205503S11656908EA0103801065000000000000
B0530133205422S11656916EA0103001058000000000000
B0530173205343S11656921EA0102401054000000000000
B0530213205265S11656921EA0102201051000000000000
B0530253205187S11656917EA0102301051000000000000
B0530293205114S11656918EA0101601042000000000000
B0530333205041S11656927EA0100801034000000000000
B0530373204968S11656943EA0100001025000000000000
B0530413204893S11656949EA0099101016000000000000
B0530453204814S11656948EA0097901006000000000000
B0530493204734S11656944EA0097201000000000000000
B0530533204658S11656943EA0096800995000000000000
B0530573204580S11656944EA0096300988000000000000
B0531013204508S11656961EA0097000997000000000000
B0531053204491S11657009EA0098601017000000000000
B0531093204528S11657025EA0100101032000000000000
B0531133204569S11656978EA0100601037000000000000
B0531173204585S11656892EA0100301037000000000000
B0531213204548S11656814EA0100901040000000000000
B0531253204489S11656801EA0100901038000000000000
B0531293204460S11656841EA0100701039000000000000
B0531333204478S11656884EA0100701043000000000000
B0531373204496S11656929EA0100401037000000000000
B0531413204494S11656981EA0100501041000000000000
B0531453204483S11657029EA0100701043000000000000
B0531493204468S11657078EA0101001046000000000000
B0531533204465S11657124EA0101601051000000000000
B0531573204508S11657114EA0101901051000000000000
B0532013204529S11657031EA0101001041000000000000
B0532053204499S11656938EA0100201032000000000000
B0532093204437S11656875EA0100201033000000000000
B0532133204368S11656875EA0100401036000000000000
B0532173204321S11656913EA0100701039000000000000
B0532213204304S11656966EA0100001026000000000000
B0532253204301S11657027EA0099401023000000000000
B0532293204312S11657081EA0099501024000000000000
B0532333204323S11657134EA0099701025000000000000
B0532373204339S11657189EA0099601026000000000000
B0532413204360S11657239EA0099401023000000000000
B0532453204385S11657290EA0099501024000000000000
B0532493204404S11657342EA0099501022000000000000
B0532533204414S11657398EA0099001015000000000000
B0532573204429S11657455EA0098101005000000000000
B0533013204442S11657516EA0096900991000000000000
B0533053204464S11657575EA0095900988000000000000
B0533093204489S11657634EA0096100987000000000000
B0533133204509S11657698EA0095900986000000000000
B0533173204531S11657764EA0095800981000000000000
B0533213204554S11657827EA0095300980000000000000
B0533253204576S11657883EA0095200977000000000000
B0533293204602S11657937EA0094600967000000000000
B0533333204635S11657989EA0093800959000000000000
B0533373204682S11658034EA0092800949000000000000
B0533413204739S11658063EA0091600942000000000000
B0533453204802S11658078EA0091300939000000000000
B0533493204868S11658088EA0090200924000000000000
B0533533204936S11658093EA0088800913000000000000
B0533573205005S11658099EA0088100907000000000000
B0534013205074S11658084EA0087800906000000000000
B0534053205139S11658044EA0087400899000000000000
B0534093205200S11657998EA0087200901000000000000
B0534133205257S11657956EA0087600904000000000000
B0534173205311S11657915EA0087200897000000000000
B0534213205366S11657872EA0087200899000000000000
B0534253205418S11657828EA0087700906000000000000
B0534293205443S11657755EA0088500915000000000000
B0534333205413S11657675EA0088500911000000000000
B0534373205345S11657632EA0088100908000000000000
B0534413205270S11657627EA0088300912000000000000
B0534453205223S11657668EA0089100922000000000000
B0534493205231S11657720EA0089700922000000000000
B0534533205279S11657736EA0089300918000000000000
B0534573205322S11657680EA0089100916000000000000
B0535013205302S11657593EA0089100919000000000000
B0535053205240S11657559EA0089900930000000000000
B0535093205187S11657585EA0090700934000000000000
B0535133205166S11657640EA0090700931000000000000
B0535173205174S11657694EA0090600934000000000000
B0535213205213S11657719EA0090300926000000000000
B0535253205269S11657715EA0089300916000000000000
B0535293205327S11657703EA0088200905000000000000
B0535333205388S11657686EA0087500900000000000000
B0535373205449S11657654EA0087600903000000000000
B0535413205508S11657614EA0088100907000000000000
B0535453205565S11657575EA0087800904000000000000
B0535493205622S11657533EA0087200902000000000000
B0535533205681S11657491EA0087000898000000000000
B0535573205742S11657451EA0086400890000000000000
B0536013205802S11657415EA0086100889000000000000
B0536053205861S11657382EA0085400876000000000000
B0536093205925S11657346EA0084300871000000000000
B0536133205990S11657317EA0084200869000000000000
B0536173206051S11657286EA0083300863000000000000
B0536213206112S11657254EA0082300851000000000000
B0536253206175S11657226EA0081200840000000000000
B0536293206238S11657205EA0080200832000000000000
B0536333206303S11657189EA0079700826000000000000
B0536373206366S11657173EA0078900814000000000000
B0536413206429S11657152EA0077600804000000000000
B0536453206492S11657127EA0076700793000000000000
B0536493206557S11657100EA0075000773000000000000
B0536533206623S11657072EA0073300757000000000000
B0536573206692S11657043EA0072200749000000000000
B0537013206758S11657012EA0071500743000000000000
B0537053206823S11656983EA0070900737000000000000
B0537093206888S11656951EA0070300728000000000000
B0537133206952S11656913EA0069100715000000000000
B0537173207020S11656874EA0067900701000000000000
B0537213207087S11656836EA0066600690000000000000
B0537253207157S11656809EA0066500695000000000000
B0537293207216S11656769EA0068900722000000000000
B0537333207211S11656691EA0071000743000000000000
B0537373207151S11656670EA0072200753000000000000
B0537413207128S11656713EA0073600767000000000000
B0537453207160S11656728EA0075200781000000000000
B0537493207198S11656678EA0075500781000000000000
B0537533207185S11656598EA0075700784000000000000
B0537573207128S11656562EA0076600800000000000000
B0538013207086S11656589EA0077900811000000000000
B0538053207111S11656618EA0079300826000000000000
B0538093207151S11656576EA0080000826000000000000
B0538133207137S11656496EA0080000830000000000000
B0538173207074S11656479EA0080900842000000000000
B0538213207034S11656515EA0082400856000000000000
B0538253207039S11656563EA0083200861000000000000
B0538293207081S11656578EA0084300877000000000000
B0538333207130S11656542EA0085300882000000000000
B0538373207147S11656467EA0085400883000000000000
B0538413207111S11656396EA0085000880000000000000
B0538453207047S11656372EA0085500889000000000000
B0538493206996S11656398EA0086800898000000000000
B0538533206969S11656446EA0087200902000000000000
B0538573206991S11656487EA0087600906000000000000
B0539013207046S11656483EA0087300903000000000000
B0539053207092S11656427EA0087300904000000000000
B0539093207083S11656337EA0087400904000000000000
B0539133207024S11656281EA0087400905000000000000
B0539173206964S11656288EA0088000912000000000000
B0539213206949S11656336EA0088700919000000000000
B0539253206956S11656389EA0088700920000000000000
B0539293206968S11656442EA0089100925000000000000
B0539333206986S11656494EA0089400925000000000000
B0539373207025S11656527EA0089100920000000000000
B0539413207079S11656498EA0088700916000000000000
B0539453207109S11656419EA0088100909000000000000
B0539493207113S11656324EA0087600902000000000000
B0539533207104S11656223EA0086600891000000000000
B0539573207090S11656126EA0086400889000000000000
B0540013207070S11656034EA0086000884000000000000
B0540053207030S11655950EA0085700883000000000000
B0540093206970S11655889EA0085700884000000000000
B0540133206899S11655855EA0086400893000000000000
B0540173206835S11655859EA0087400903000000000000
B0540213206816S11655900EA0087700902000000000000
B0540253206817S11655950EA0087100899000000000000
B0540293206826S11656002EA0087100897000000000000
B0540333206844S11656052EA0087000897000000000000
B0540373206868S11656104EA0086700893000000000000
B0540413206896S11656159EA0086000882000000000000
B0540453206931S11656208EA0084900871000000000000
B0540493206968S11656255EA0084200868000000000000
B0540533207000S11656302EA0084000863000000000000
B0540573207020S11656355EA0083300855000000000000
B0541013207025S11656416EA0081900839000000000000
B0541053207021S11656485EA0080600828000000000000
B0541093207025S11656549EA0080200826000000000000
B0541133207044S11656601EA0080300829000000000000
B0541173207073S11656641EA0080400829000000000000
B0541213207107S11656672EA0080300826000000000000
B0541253207146S11656702EA0079800822000000000000
B0541293207187S11656731EA0079300816000000000000
B0541333207230S11656761EA0078800813000000000000
B0541373207273S11656789EA0078700810000000000000
B0541413207319S11656812EA0078600809000000000000
B0541453207367S11656826EA0078500809000000000000
B0541493207414S11656844EA0079100816000000000000
B0541533207456S11656867EA0079700822000000000000
B0541573207502S11656890EA0079900823000000000000
B0542013207551S11656909EA0080000826000000000000
B0542053207605S11656912EA0080900838000000000000
B0542093207638S11656851EA0082200849000000000000
B0542133207609S11656776EA0082500853000000000000
B0542173207542S11656745EA0082600853000000000000
B0542213207485S11656767EA0083000855000000000000
B0542253207472S11656817EA0083800865000000000000
B0542293207506S11656839EA0084800873000000000000
B0542333207553S11656802EA0085300877000000000000
B0542373207549S11656721EA0086000889000000000000
B0542413207495S11656666EA0086700890000000000000
B0542453207434S11656676EA0086600890000000000000
B0542493207402S11656724EA0086800890000000000000
B0542533207415S11656778EA0087100900000000000000
B0542573207458S11656799EA0088000908000000000000
B0543013207506S11656762EA0088500911000000000000
B0543053207527S11656685EA0088800916000000000000
B0543093207505S11656601EA0090000930000000000000
B0543133207445S11656568EA0091300941000000000000
B0543173207395S11656597EA0091800943000000000000
B0543213207386S11656649EA0091900944000000000000
B0543253207423S11656682EA0092500952000000000000
B0543293207473S11656662EA0093100957000000000000
B0543333207511S11656601EA0092800953000000000000
B0543373207519S11656514EA0093500965000000000000
B0543413207466S11656472EA0095100981000000000000
B0543453207427S11656509EA0096000987000000000000
B0543493207438S11656557EA0097000998000000000000
B0543533207486S11656548EA0097501002000000000000
B0543573207524S11656485EA0097501001000000000000
B0544013207508S11656402EA0098501016000000000000
B0544053207449S11656373EA0100001028000000000000
B0544093207410S11656411EA0101401044000000000000
B0544133207421S11656457EA0103101059000000000000
B0544173207466S11656470EA0103201056000000000000
B0544213207518S11656437EA0102801053000000000000
B0544253207547S11656364EA0102301051000000000000
B0544293207547S11656273EA0102301051000000000000
B0544333207521S11656186EA0102501054000000000000
B0544373207462S11656128EA0103701071000000000000
B0544413207408S11656147EA0105501086000000000000
B0544453207417S11656194EA0106001086000000000000
B0544493207473S11656190EA0106301094000000000000
B0544533207525S11656137EA0107001097000000000000
B0544573207559S11656059EA0107001097000000000000
B0545013207544S11655970EA0107901110000000000000
B0545053207492S11655904EA0108801117000000000000
B0545093207428S11655894EA0109201117000000000000
B0545133207386S11655934EA0108301109000000000000
B0545173207382S11655991EA0108001108000000000000
B0545213207391S11656051EA0108901117000000000000
B0545253207415S11656098EA0110401142000000000000
B0545293207459S11656081EA0112101151000000000000
B0545333207476S11656008EA0111201136000000000000
B0545373207442S11655929EA0110101128000000000000
B0545413207372S11655887EA0110201132000000000000
B0545453207311S11655911EA0111401145000000000000
B0545493207297S11655972EA0112101150000000000000
B0545533207330S11656020EA0113101164000000000000
B0545573207384S11656013EA0114801182000000000000
B0546013207417S11655955EA0114901178000000000000
B0546053207401S11655870EA0113701162000000000000
B0546093207341S11655805EA0113301162000000000000
B0546133207272S11655799EA0114301180000000000000
B0546173207226S11655837EA0115901191000000000000
B0546213207215S11655891EA0116201189000000000000
B0546253207247S11655935EA0116201191000000000000
B0546293207304S11655922EA0116701197000000000000
B0546333207328S11655850EA0117101201000000000000
B0546373207299S11655772EA0117501206000000000000
B0546413207237S11655731EA0118301215000000000000
B0546453207180S11655752EA0119301223000000000000
B0546493207176S11655811EA0119301224000000000000
B0546533207225S11655834EA0119701229000000000000
B0546573207280S11655803EA0120201230000000000000
B0547013207306S11655725EA0119901226000000000000
B0547053207284S11655640EA0119801228000000000000
B0547093207222S11655599EA0120101236000000000000
B0547133207169S11655627EA0121301246000000000000
B0547173207161S11655688EA0121601245000000000000
B0547213207172S11655753EA0121301242000000000000
B0547253207193S11655816EA0121301246000000000000
B0547293207215S11655869EA0121401243000000000000
B0547333207238S11655922EA0120301230000000000000
B0547373207264S11655977EA0119701227000000000000
B0547413207293S11656029EA0119501222000000000000
B0547453207324S11656081EA0119001220000000000000
B0547493207352S11656132EA0119001217000000000000
B0547533207381S11656182EA0118301210000000000000
B0547573207407S11656233EA0117801203000000000000
B0548013207430S11656289EA0116801193000000000000
B0548053207460S11656344EA0116001185000000000000
B0548093207494S11656394EA0115301180000000000000
B0548133207521S11656445EA0115201178000000000000
B0548173207541S11656500EA0114401170000000000000
B0548213207566S11656553EA0113701161000000000000
B0548253207588S11656606EA0113501160000000000000
B0548293207598S11656662EA0113101150000000000000
B0548333207598S11656727EA0111901139000000000000
B0548373207601S11656795EA0110801132000000000000
B0548413207610S11656864EA0109901121000000000000
B0548453207623S11656935EA0108801111000000000000
B0548493207637S11657007EA0108701114000000000000
B0548533207655S11657069EA0109201118000000000000
B0548573207675S11657129EA0108901114000000000000
B0549013207697S11657186EA0108801115000000000000
B0549053207727S11657239EA0108701116000000000000
B0549093207754S11657294EA0109001117000000000000
B0549133207776S11657350EA0109201122000000000000
B0549173207798S11657400EA0109501121000000000000
B0549213207817S11657454EA0108701113000000000000
B0549253207836S11657508EA0107701102000000000000
B0549293207859S11657567EA0106301088000000000000
B0549333207879S11657632EA0105801086000000000000
B0549373207900S11657686EA0106301092000000000000
B0549413207923S11657732EA0106301093000000000000
B0549453207945S11657775EA0106001083000000000000
B0549493207974S11657814EA0105601084000000000000
B0549533208004S11657845EA0105801087000000000000
B0549573208031S11657878EA0106201088000000000000
B0550013208058S11657913EA0105601081000000000000
B0550053208097S11657949EA0104601072000000000000
B0550093208139S11657983EA0105701088000000000000
B0550133208188S11657982EA0106601094000000000000
B0550173208217S11657909EA0106401095000000000000
B0550213208179S11657832EA0106901102000000000000
B0550253208113S11657806EA0107001103000000000000
B0550293208053S11657826EA0107201104000000000000
B0550333208021S11657875EA0107701111000000000000
B0550373208032S11657922EA0108901125000000000000
B0550413208077S11657919EA0110401140000000000000
B0550453208104S11657858EA0110901143000000000000
B0550493208080S11657780EA0111201148000000000000
B0550533208023S11657744EA0112501160000000000000
B0550573207975S11657767EA0112201154000000000000
B0551013207975S11657815EA0112301160000000000000
B0551053208012S11657837EA0113001170000000000000
B0551093208053S11657810EA0114201179000000000000
B0551133208075S11657746EA0114401179000000000000
B0551173208064S11657670EA0114501179000000000000
B0551213208019S11657608EA0114401181000000000000
B0551253207960S11657575EA0114801181000000000000
B0551293207900S11657573EA0114701180000000000000
B0551333207850S11657599EA0114601181000000000000
B0551373207822S11657645EA0115201189000000000000
B0551413207815S11657696EA0116001196000000000000
B0551453207852S11657722EA0116601205000000000000
B0551493207896S11657676EA0117501216000000000000
B0551533207891S11657594EA0118501225000000000000
B0551573207837S11657536EA0118801226000000000000
B0552013207770S11657529EA0119301233000000000000
B0552053207726S11657566EA0120201240000000000000
B0552093207722S11657623EA0119901234000000000000
B0552133207763S11657658EA0120601245000000000000
B0552173207811S11657633EA0122601270000000000000
B0552213207828S11657564EA0123901280000000000000
B0552253207800S11657491EA0124301283000000000000
B0552293207740S11657446EA0124801285000000000000
B0552333207676S11657454EA0125501295000000000000
B0552373207641S11657498EA0126101298000000000000
B0552413207651S11657546EA0126101298000000000000
B0552453207696S11657559EA0126401302000000000000
B0552493207745S11657527EA0126801303000000000000
B0552533207775S11657459EA0127201308000000000000
B0552573207759S11657374EA0127401310000000000000
B0553013207702S11657315EA0127501311000000000000
B0553053207632S11657313EA0127501310000000000000
B0553093207597S11657364EA0128801325000000000000
B0553133207606S11657412EA0129601335000000000000
B0553173207648S11657420EA0130001336000000000000
B0553213207688S11657374EA0130001336000000000000
B0553253207685S11657294EA0130101339000000000000
B0553293207636S11657233EA0130601341000000000000
B0553333207570S11657225EA0130301337000000000000
B0553373207533S11657276EA0130301339000000000000
B0553413207544S11657326EA0130901343000000000000
B0553453207589S11657341EA0130901342000000000000
B0553493207636S11657307EA0131201348000000000000
B0553533207646S11657234EA0131501350000000000000
B0553573207605S11657169EA0131701352000000000000
B0554013207540S11657143EA0131401349000000000000
B0554053207475S11657153EA0131201344000000000000
B0554093207430S11657202EA0130801342000000000000
B0554133207415S11657260EA0130501340000000000000
B0554173207419S11657319EA0129701331000000000000
B0554213207433S11657374EA0128301313000000000000
B0554253207459S11657425EA0127501307000000000000
B0554293207494S11657462EA0127101300000000000000
B0554333207540S11657482EA0126301293000000000000
B0554373207588S11657498EA0125501282000000000000
B0554413207642S11657510EA0124201274000000000000
B0554453207696S11657516EA0124201272000000000000
B0554493207749S11657520EA0123801269000000000000
B0554533207804S11657521EA0123301264000000000000
B0554573207856S11657530EA0122401255000000000000
B0555013207895S11657566EA0122001251000000000000
B0555053207904S11657619EA0121801249000000000000
B0555093207882S11657670EA0121801252000000000000
B0555133207840S11657710EA0121801248000000000000
B0555173207791S11657744EA0121401245000000000000
B0555213207742S11657774EA0121201242000000000000
B0555253207693S11657805EA0120901238000000000000
B0555293207648S11657840EA0120801236000000000000
B0555333207606S11657878EA0120701237000000000000
B0555373207576S11657920EA0120901238000000000000
B0555413207563S11657967EA0120901237000000000000
B0555453207567S11658015EA0120501230000000000000
B0555493207583S11658061EA0119801227000000000000
B0555533207602S11658101EA0119801227000000000000
B0555573207615S11658145EA0119801223000000000000
B0556013207631S11658193EA0119601225000000000000
B0556053207651S11658238EA0120401232000000000000
B0556093207674S11658278EA0120601234000000000000
B0556133207700S11658316EA0120501230000000000000
B0556173207727S11658356EA0119501221000000000000
B0556213207750S11658401EA0119201217000000000000
B0556253207761S11658452EA0118801217000000000000
B0556293207758S11658503EA0119101221000000000000
B0556333207753S11658554EA0119401225000000000000
B0556373207753S11658602EA0119801228000000000000
B0556413207754S11658652EA0119901228000000000000
B0556453207754S11658703EA0119801229000000000000
B0556493207757S11658752EA0120001231000000000000
B0556533207766S11658802EA0119801228000000000000
B0556573207785S11658847EA0119501221000000000000
B0557013207807S11658893EA0119001219000000000000
B0557053207824S11658937EA0118601214000000000000
B0557093207844S11658979EA0118401210000000000000
B0557133207861S11659020EA0117901206000000000000
B0557173207875S11659063EA0117801206000000000000
B0557213207879S11659111EA0118001209000000000000
B0557253207883S11659159EA0118401213000000000000
B0557293207889S11659207EA0119001221000000000000
B0557333207915S11659239EA0119301220000000000000
B0557373207962S11659218EA0118201205000000000000
B0557413207986S11659145EA0117701206000000000000
B0557453207967S11659059EA0117701207000000000000
B0557493207910S11658998EA0117601207000000000000
B0557533207840S11658981EA0117501208000000000000
B0557573207783S11659009EA0117501209000000000000
B0558013207755S11659063EA0117501209000000000000
B0558053207754S11659122EA0117501210000000000000
B0558093207761S11659181EA0116801199000000000000
B0558133207761S11659244EA0115701191000000000000
B0558173207758S11659304EA0115401187000000000000
B0558213207767S11659360EA0114801181000000000000
B0558253207774S11659419EA0114001166000000000000
B0558293207766S11659484EA0112801157000000000000
B0558333207744S11659548EA0112301151000000000000
B0558373207709S11659608EA0111901149000000000000
B0558413207662S11659657EA0111701148000000000000
B0558453207609S11659694EA0111501146000000000000
B0558493207551S11659724EA0111001139000000000000
B0558533207493S11659755EA0110201128000000000000
B0558573207430S11659785EA0109101115000000000000
B0559013207367S11659813EA0107701105000000000000
B0559053207303S11659843EA0107001098000000000000
B0559093207239S11659872EA0106501093000000000000
B0559133207173S11659891EA0106101090000000000000
B0559173207103S11659903EA0105201078000000000000
B0559213207030S11659912EA0104401071000000000000
B0559253206957S11659921EA0103701063000000000000
B0559293206882S11659930EA0103201060000000000000
B0559333206808S11659941EA0103201060000000000000
B0559373206736S11659952EA0102801054000000000000
B0559413206663S11659964EA0102301049000000000000
B0559453206593S11659977EA0101601043000000000000
B0559493206522S11659991EA0101001036000000000000
B0559533206452S11700010EA0100501032000000000000
B0559573206383S11700028EA0100301031000000000000
B0600013206315S11700047EA0100101029000000000000
B0600053206249S11700067EA0099701024000000000000
B0600093206184S11700088EA0099301017000000000000
B0600133206117S11700108EA0098701013000000000000
B0600173206052S11700132EA0098801014000000000000
B0600213206000S11700166EA0098801013000000000000
B0600253205977S11700215EA0098501009000000000000
B0600293205980S11700266EA0097901004000000000000
B0600333206000S11700309EA0097701001000000000000
B0600373206032S11700346EA0097200991000000000000
B0600413206063S11700385EA0096300984000000000000
B0600453206103S11700414EA0096000983000000000000
B0600493206154S11700424EA0095600980000000000000
B0600533206210S11700420EA0095100972000000000000
B0600573206268S11700407EA0094900972000000000000
B0601013206325S11700389EA0094400967000000000000
B0601053206384S11700367EA0093700959000000000000
B0601093206445S11700338EA0093000952000000000000
B0601133206505S11700305EA0092100943000000000000
B0601173206563S11700263EA0091600936000000000000
B0601213206621S11700216EA0091200935000000000000
B0601253206674S11700166EA0091700943000000000000
B0601293206710S11700095EA0092700951000000000000
B0601333206723S11700013EA0093100955000000000000
B0601373206721S11659925EA0093100954000000000000
B0601413206712S11659831EA0092500948000000000000
B0601453206696S11659739EA0091900941000000000000
B0601493206678S11659644EA0090500927000000000000
B0601533206670S11659544EA0089500913000000000000
B0601573206670S11659444EA0088700909000000000000
B0602013206670S11659345EA0088600909000000000000
B0602053206667S11659244EA0088900913000000000000
B0602093206653S11659144EA0089100913000000000000
B0602133206637S11659042EA0088200901000000000000
B0602173206621S11658938EA0087100890000000000000
B0602213206610S11658836EA0087000889000000000000
B0602253206606S11658736EA0087000892000000000000
B0602293206615S11658641EA0086700889000000000000
B0602333206643S11658552EA0085900883000000000000
B0602373206684S11658472EA0084800869000000000000
B0602413206740S11658403EA0084400872000000000000
B0602453206797S11658351EA0085500882000000000000
B0602493206852S11658301EA0085800884000000000000
B0602533206901S11658247EA0086500890000000000000
B0602573206908S11658169EA0085600877000000000000
B0603013206853S11658110EA0084500866000000000000
B0603053206783S11658101EA0083400860000000000000
B0603093206715S11658121EA0083800863000000000000
B0603133206663S11658157EA0084100867000000000000
B0603173206653S11658209EA0085000879000000000000
B0603213206665S11658253EA0085600884000000000000
B0603253206701S11658274EA0085900886000000000000
B0603293206751S11658245EA0085200874000000000000
B0603333206779S11658169EA0084400866000000000000
B0603373206775S11658075EA0083800862000000000000
B0603413206766S11657976EA0083900863000000000000
B0603453206753S11657880EA0083700858000000000000
B0603493206721S11657789EA0084000859000000000000
B0603533206656S11657731EA0084100864000000000000
B0603573206608S11657750EA0085700883000000000000
B0604013206632S11657776EA0086600888000000000000
B0604053206678S11657729EA0086500885000000000000
B0604093206674S11657638EA0087300895000000000000
B0604133206621S11657581EA0088300904000000000000
B0604173206570S11657597EA0088800911000000000000
B0604213206569S11657641EA0089400917000000000000
B0604253206613S11657645EA0089700919000000000000
B0604293206648S11657580EA0089900922000000000000
B0604333206631S11657491EA0090600930000000000000
B0604373206576S11657439EA0091200937000000000000
B0604413206520S11657447EA0090800931000000000000
B0604453206513S11657493EA0090900936000000000000
B0604493206558S11657485EA0092100946000000000000
B0604533206572S11657406EA0092100945000000000000
B0604573206519S11657348EA0092300949000000000000
B0605013206465S11657361EA0092000945000000000000
B0605053206462S11657408EA0092400957000000000000
B0605093206504S11657411EA0093400962000000000000
B0605133206543S11657355EA0093600966000000000000
B0605173206539S11657272EA0094400972000000000000
B0605213206491S11657208EA0093800964000000000000
B0605253206429S11657207EA0093500963000000000000
B0605293206402S11657251EA0093400964000000000000
B0605333206406S11657302EA0093800967000000000000
B0605373206420S11657351EA0093600964000000000000
B0605413206446S11657393EA0093900971000000000000
B0605453206475S11657426EA0095000982000000000000
B0605493206520S11657412EA0095700984000000000000
B0605533206533S11657335EA0095100974000000000000
B0605573206491S11657255EA0094300971000000000000
B0606013206419S11657211EA0094200971000000000000
B0606053206345S11657185EA0094300971000000000000
B0606093206272S11657173EA0093900966000000000000
B0606133206198S11657169EA0093800964000000000000
B0606173206124S11657168EA0093800965000000000000
B0606213206054S11657166EA0093900962000000000000
B0606253205986S11657170EA0093300955000000000000
B0606293205919S11657183EA0092400945000000000000
B0606333205854S11657203EA0091700940000000000000
B0606373205796S11657238EA0091400939000000000000
B0606413205750S11657281EA0091700942000000000000
B0606453205709S11657330EA0091000933000000000000
B0606493205687S11657386EA0089900921000000000000
B0606533205708S11657436EA0088800910000000000000
B0606573205756S11657458EA0087900896000000000000
B0607013205817S11657443EA0086600886000000000000
B0607053205881S11657411EA0085700876000000000000
B0607093205945S11657374EA0084600865000000000000
B0607133206008S11657335EA0083800857000000000000
B0607173206072S11657300EA0083100851000000000000
B0607213206138S11657265EA0082100840000000000000
B0607253206206S11657231EA0081100830000000000000
B0607293206272S11657198EA0080600823000000000000
B0607333206337S11657165EA0079800814000000000000
B0607373206402S11657131EA0079000807000000000000
B0607413206466S11657100EA0078700805000000000000
B0607453206528S11657065EA0078400802000000000000
B0607493206591S11657027EA0077900797000000000000
B0607533206648S11656984EA0077500793000000000000
B0607573206704S11656939EA0077300792000000000000
B0608013206757S11656891EA0076900787000000000000
B0608053206809S11656843EA0076500782000000000000
B0608093206862S11656800EA0075900777000000000000
B0608133206918S11656765EA0075500771000000000000
B0608173206973S11656734EA0074900766000000000000
B0608213207026S11656704EA0074400759000000000000
B0608253207082S11656675EA0073400748000000000000
B0608293207139S11656650EA0072000734000000000000
B0608333207198S11656631EA0070600716000000000000
B0608373207255S11656622EA0069300707000000000000
B0608413207310S11656617EA0069600713000000000000
B0608453207359S11656605EA0069800716000000000000
B0608493207410S11656592EA0069600712000000000000
B0608533207460S11656581EA0068900702000000000000
B0608573207508S11656580EA0068000692000000000000
B0609013207558S11656584EA0067100683000000000000
B0609053207611S11656589EA0066500679000000000000
B0609093207668S11656583EA0066100674000000000000
B0609133207728S11656568EA0066000676000000000000
B0609173207788S11656554EA0066600684000000000000
B0609213207845S11656565EA0066800683000000000000
B0609253207875S11656607EA0066900688000000000000
B0609293207846S11656649EA0067500690000000000000
B0609333207784S11656645EA0067500687000000000000
B0609373207727S11656596EA0066800680000000000000
B0609413207696S11656514EA0066100676000000000000
B0609453207674S11656422EA0066200679000000000000
B0609493207622S11656372EA0067900698000000000000
B0609533207575S11656388EA0068000696000000000000
B0609573207568S11656440EA0067300688000000000000
B0610013207602S11656475EA0066700683000000000000
B0610053207653S11656479EA0066100676000000000000
B0610093207706S11656451EA0065500669000000000000
B0610133207745S11656386EA0065300668000000000000
B0610173207768S11656302EA0065300669000000000000
B0610213207783S11656212EA0065300666000000000000
B0610253207772S11656124EA0064700661000000000000
B0610293207723S11656069EA0064000650000000000000
B0610333207666S11656076EA0062500638000000000000
B0610373207635S11656125EA0062400645000000000000
B0610413207623S11656182EA0064000660000000000000
B0610453207674S11656186EA0064600667000000000000
B0610493207693S11656108EA0065300672000000000000
B0610533207645S11656051EA0066000684000000000000
B0610573207594S11656069EA0067000697000000000000
B0611013207594S11656121EA0068200705000000000000
B0611053207637S11656142EA0068600708000000000000
B0611093207687S11656106EA0068600705000000000000
B0611133207692S11656021EA0068600708000000000000
B0611173207644S11655972EA0069600721000000000000
B0611213207601S11655993EA0070900733000000000000
B0611253207618S11656033EA0071100735000000000000
B0611293207670S11656019EA0071600740000000000000
B0611333207701S11655951EA0071700739000000000000
B0611373207672S11655879EA0072200746000000000000
B0611413207618S11655873EA0072800754000000000000
B0611453207598S11655917EA0073700761000000000000
B0611493207640S11655934EA0074000764000000000000
B0611533207676S11655872EA0073900763000000000000
B0611573207654S11655792EA0074400768000000000000
B0612013207598S11655768EA0074900774000000000000
B0612053207581S11655811EA0075400780000000000000
B0612093207624S11655824EA0077000798000000000000
B0612133207664S11655769EA0077500797000000000000
B0612173207651S11655687EA0077800805000000000000
B0612213207601S11655669EA0078800815000000000000
B0612253207588S11655712EA0079100816000000000000
B0612293207635S11655723EA0080000829000000000000
B0612333207674S11655666EA0081000834000000000000
B0612373207664S11655584EA0081100833000000000000
B0612413207614S11655549EA0081600841000000000000
B0612453207588S11655586EA0082400851000000000000
B0612493207623S11655613EA0083300857000000000000
B0612533207672S11655570EA0084100865000000000000
B0612573207672S11655489EA0084200864000000000000
B0613013207624S11655439EA0084200868000000000000
B0613053207575S11655450EA0085200880000000000000
B0613093207571S11655497EA0085900884000000000000
B0613133207619S11655505EA0086300893000000000000
B0613173207657S11655441EA0087200900000000000000
B0613213207645S11655357EA0087500902000000000000
B0613253207589S11655315EA0088100907000000000000
B0613293207550S11655343EA0088700918000000000000
B0613333207564S11655388EA0089400922000000000000
B0613373207618S11655379EA0090000930000000000000
B0613413207649S11655307EA0090700935000000000000
B0613453207633S11655223EA0090800938000000000000
B0613493207581S11655162EA0091300942000000000000
B0613533207524S11655167EA0091600944000000000000
B0613573207518S11655219EA0091800950000000000000
B0614013207568S11655237EA0092300956000000000000
B0614053207625S11655196EA0093000963000000000000
B0614093207646S11655110EA0093400965000000000000
B0614133207614S11655028EA0093400964000000000000
B0614173207550S11654975EA0092900958000000000000
B0614213207479S11654954EA0093300964000000000000
B0614253207428S11654986EA0092900961000000000000
B0614293207411S11655044EA0092300958000000000000
B0614333207412S11655106EA0092500960000000000000
B0614373207424S11655170EA0092900964000000000000
B0614413207451S11655220EA0093900969000000000000
B0614453207505S11655200EA0094000966000000000000
B0614493207506S11655111EA0093800969000000000000
B0614533207463S11655031EA0094200975000000000000
B0614573207395S11654999EA0095000981000000000000
B0615013207337S11655021EA0095300984000000000000
B0615053207303S11655075EA0095800991000000000000
B0615093207298S11655137EA0095900988000000000000
B0615133207298S11655201EA0094800975000000000000
B0615173207300S11655267EA0093200957000000000000
B0615213207304S11655333EA0091800935000000000000
B0615253207308S11655404EA0090200921000000000000
B0615293207312S11655475EA0088600902000000000000
B0615333207320S11655549EA0087100890000000000000
B0615373207332S11655622EA0086100878000000000000
B0615413207350S11655691EA0085000869000000000000
B0615453207380S11655756EA0083700857000000000000
B0615493207410S11655821EA0082800847000000000000
B0615533207440S11655882EA0082400846000000000000
B0615573207469S11655939EA0082100839000000000000
B0616013207498S11655994EA0081400836000000000000
B0616053207518S11656051EA0081700840000000000000
B0616093207520S11656108EA0081600840000000000000
B0616133207519S11656164EA0081300835000000000000
B0616173207523S11656216EA0080700828000000000000
B0616213207534S11656266EA0079800818000000000000
B0616253207550S11656315EA0078900810000000000000
B0616293207563S11656367EA0078000800000000000000
B0616333207585S11656418EA0077200790000000000000
B0616373207609S11656466EA0076700785000000000000
B0616413207637S11656507EA0076300783000000000000
B0616453207672S11656542EA0075600774000000000000
B0616493207710S11656576EA0074800764000000000000
B0616533207741S11656615EA0073500748000000000000
B0616573207774S11656658EA0071800729000000000000
B0617013207810S11656701EA0070500719000000000000
B0617053207858S11656730EA0070500719000000000000
B0617093207914S11656732EA0070200716000000000000
B0617133207970S11656698EA0069300706000000000000
B0617173208026S11656646EA0067900688000000000000
B0617213208091S11656623EA0066100672000000000000
B0617253208153S11656645EA0065000667000000000000
B0617293208203S11656688EA0065700678000000000000
B0617333208246S11656734EA0067600696000000000000
B0617373208295S11656736EA0069500719000000000000
B0617413208316S11656671EA0071500737000000000000
B0617453208275S11656607EA0072500749000000000000
B0617493208225S11656617EA0073800763000000000000
B0617533208221S11656659EA0074600769000000000000
B0617573208261S11656665EA0075100773000000000000
B0618013208283S11656594EA0076000784000000000000
B0618053208243S11656527EA0076900799000000000000
B0618093208184S11656519EA0078000807000000000000
B0618133208153S11656561EA0078300807000000000000
B0618173208173S11656601EA0078500808000000000000
B0618213208222S11656587EA0078700815000000000000
B0618253208262S11656531EA0079500821000000000000
B0618293208248S11656455EA0081000838000000000000
B0618333208195S11656453EA0082300851000000000000
B0618373208187S11656497EA0082600852000000000000
B0618413208229S11656506EA0082800853000000000000
B0618453208266S11656450EA0083100857000000000000
B0618493208252S11656366EA0084700875000000000000
B0618533208200S11656314EA0085900889000000000000
B0618573208147S11656321EA0086900902000000000000
B0619013208132S11656367EA0088100910000000000000
B0619053208168S11656392EA0088100903000000000000
B0619093208216S11656350EA0088000908000000000000
B0619133208229S11656268EA0089500926000000000000
B0619173208194S11656195EA0090200931000000000000
B0619213208136S11656181EA0091200944000000000000
B0619253208136S11656224EA0092600957000000000000
B0619293208184S11656186EA0093200963000000000000
B0619333208188S11656099EA0093900968000000000000
B0619373208136S11656033EA0093900968000000000000
B0619413208069S11656032EA0095100984000000000000
