ACAM4N6
HFDTE290923
HFFXA050
HFPLTPILOT:JOHN WELSH              
HFGTYGLIDERTYPE:HORNET      
HFGIDGLIDERID:VH-GMY      
HFDTM100GPSDATUM:
HFRFWFIRMWAREVERSION:F2.6
HFRHWHARDWAREVERSION:300 Series Version 2
HFFTYFRTYPE:CAMBRIDGE AERO INSTRUMENTS, 302+
HFGPS:GARMIN,LVS-25,12,18000
HFPRSPRESSALTSENSOR:INTERSEMA, MS5534-AP, 20000
I033638FXA3941ENL4247REX
LCAMSBVER:5FWVER:F26300
C120323035839120323000102
C0000000N00000000WTAKEOFF     
C3207549S11656849EBEVERLEY AF 
C3152966S11809465EBruce Rock  
C3110883S11723215EWyalkatchem 
C3207549S11656849EBEVERLEY AF 
C0000000N00000000WLANDING     
B0543053207719S11657090EA0021100222000000000000
B0543073207719S11657090EA0021000222000000000000
B0543093207719S11657090EA0021100222000004000000
B0543113207719S11657090EA0021000222000004000000
B0543133207718S11657090EA0021100222000004000000
B0543153207718S11657090EA0021000222000004000000
B0543173207718S11657090EA0021000222000000000000
B0543193207718S11657091EA0020900222000000000000
B0543213207718S11657091EA0020900222000000000000
B0543233207718S11657091EA0020900222000000000000
B0543253207718S11657091EA0021000222000000000000
B0543273207718S11657091EA0020900222000000000000
B0543293207718S11657091EA0020900222000000000000
B0543313207718S11657091EA0020900222000000000000
B0543333207715S11657090EA0021000222000000000000
B0543363207705S11657085EA0021000222000004000000
B0543403207676S11657069EA0020900222000004000000
B0543443207635S11657046EA0020900223000000000000
B0543483207580S11657017EA0021200224000004000000
B0543523207516S11656981EA0021200225000004000000
B0543563207447S11656944EA0021500229000004000000
B0544003207376S11656912EA0022400239000000000000
B0544043207311S11656880EA0023800260000000000000
B0544083207251S11656854EA0025900283000000000000
B0544123207195S11656827EA0028200305000000000000
B0544163207142S11656792EA0029700317000000000000
B0544203207092S11656745EA0030700328000004000000
B0544243207060S11656684EA0031800341000004000000
B0544283207047S11656614EA0033400361000000000000
B0544323207044S11656541EA0035600381000004000000
B0544363207051S11656467EA0037100396000004000000
B0544403207065S11656390EA0037900402000000000000
B0544443207091S11656312EA0039300419000000000000
B0544483207129S11656238EA0040800433000000000000
B0544523207178S11656169EA0042200453000000000000
B0544563207229S11656106EA0044300478000000000000
B0545003207282S11656045EA0046700505000000000000
B0545043207351S11656002EA0049400530000000000000
B0545083207436S11655987EA0051600552000000000000
B0545123207528S11656012EA0053400564000000000000
B0545163207611S11656078EA0054600573000000000000
B0545203207672S11656175EA0055400586000000000000
B0545243207706S11656284EA0056600601000000000000
B0545283207706S11656394EA0057600615000000000000
B0545323207676S11656492EA0058700626000000000000
B0545363207620S11656561EA0059500630000000000000
B0545403207553S11656593EA0060300641000004000000
B0545443207485S11656609EA0061300651000004000000
B0545483207417S11656604EA0062000660000004000000
B0545523207362S11656571EA0063300673000004000000
B0545563207315S11656529EA0064700689000004000000
B0546003207269S11656485EA0065800698000004000000
B0546043207232S11656428EA0067500717000004000000
B0546083207215S11656360EA0069300742000004000000
B0546123207208S11656286EA0071300761000000000000
B0546163207206S11656214EA0073400785000000000000
B0546203207181S11656164EA0075600803000000000000
B0546243207134S11656190EA0076700807000004000000
B0546283207125S11656273EA0077000812000004000000
B0546323207167S11656349EA0077600816000004000000
B0546363207237S11656375EA0078000817000004000000
B0546403207298S11656345EA0078200818000004000000
B0546443207317S11656293EA0079100832000004000000
B0546483207282S11656284EA0080300833000004000000
B0546523207254S11656346EA0079800828000004000000
B0546563207278S11656429EA0080200839000004000000
B0547003207343S11656480EA0081000843000004000000
B0547043207412S11656471EA0081500847000004000000
B0547083207450S11656423EA0081800845000004000000
B0547123207441S11656371EA0081400844000000000000
B0547163207399S11656366EA0082000852000000000000
B0547203207368S11656422EA0082400849000000000000
B0547243207381S11656507EA0082000846000000000000
B0547283207434S11656579EA0082200851000000000000
B0547323207507S11656596EA0082600854000000000000
B0547363207536S11656550EA0083400863000000000000
B0547403207505S11656533EA0083500860000004000000
B0547443207469S11656584EA0083600862000000000000
B0547483207486S11656665EA0084200873000000000000
B0547523207546S11656706EA0084800875000004000000
B0547563207609S11656689EA0084500869000000000000
B0548003207655S11656644EA0083900860000004000000
B0548043207694S11656584EA0083000850000004000000
B0548083207700S11656518EA0082500846000004000000
B0548123207658S11656483EA0082200840000004000000
B0548163207598S11656507EA0081200831000004000000
B0548203207545S11656559EA0080800830000000000000
B0548243207515S11656644EA0080900832000004000000
B0548283207502S11656737EA0081500844000000000000
B0548323207554S11656805EA0083500866000004000000
B0548363207618S11656793EA0083900864000004000000
B0548403207633S11656743EA0083900867000004000000
B0548443207596S11656734EA0084100864000000000000
B0548483207559S11656792EA0083800865000000000000
B0548523207573S11656878EA0084700879000000000000
B0548563207637S11656919EA0084900868000000000000
B0549003207703S11656893EA0084400871000000000000
B0549043207732S11656844EA0085200879000000000000
B0549083207716S11656805EA0085500879000000000000
B0549123207674S11656800EA0085000873000000000000
B0549163207628S11656839EA0084800874000000000000
B0549203207592S11656906EA0085100880000000000000
B0549243207609S11656987EA0085900881000000000000
B0549283207681S11657014EA0085000868000000000000
B0549323207737S11656970EA0084100867000000000000
B0549363207735S11656912EA0084600876000004000000
B0549403207694S11656893EA0085500886000004000000
B0549443207655S11656934EA0086400893000004000000
B0549483207664S11657010EA0087500904000004000000
B0549523207723S11657051EA0087800900000000000000
B0549563207787S11657035EA0087300899000000000000
B0550003207820S11656982EA0087600906000004000000
B0550043207810S11656936EA0088400912000004000000
B0550083207768S11656936EA0088600914000004000000
B0550123207737S11657003EA0088200904000000000000
B0550163207762S11657095EA0088000910000000000000
B0550203207836S11657133EA0088900918000000000000
B0550243207889S11657092EA0090000930000000000000
B0550283207874S11657051EA0090600931000000000000
B0550323207828S11657078EA0091000938000000000000
B0550363207804S11657150EA0091500945000000000000
B0550403207820S11657230EA0092300955000000000000
B0550443207883S11657267EA0092600950000000000000
B0550483207939S11657233EA0091200938000000000000
B0550523207956S11657169EA0091000936000000000000
B0550563207939S11657116EA0091100944000004000000
B0551003207893S11657133EA0091800944000004000000
B0551043207883S11657215EA0091700948000004000000
B0551083207932S11657286EA0092500960000004000000
B0551123208001S11657296EA0093300963000000000000
B0551163208048S11657256EA0093000959000004000000
B0551203208060S11657202EA0093100962000000000000
B0551243208047S11657160EA0093500967000004000000
B0551283208015S11657138EA0093700966000000000000
B0551323207975S11657150EA0093600962000004000000
B0551363207936S11657191EA0092500951000000000000
B0551403207904S11657251EA0091900945000000000000
B0551443207879S11657321EA0091700946000000000000
B0551483207856S11657390EA0091900950000004000000
B0551523207837S11657464EA0092100950000004000000
B0551563207867S11657542EA0092300953000000000000
B0552003207932S11657582EA0092300951000000000000
B0552043207999S11657572EA0092000949000004000000
B0552083208023S11657524EA0092000951000004000000
B0552123207997S11657491EA0091800945000004000000
B0552163207954S11657517EA0091500942000004000000
B0552203207937S11657597EA0091100941000004000000
B0552243207971S11657677EA0091200941000004000000
B0552283208040S11657716EA0091400948000004000000
B0552323208110S11657715EA0091900952000004000000
B0552363208145S11657675EA0093100965000000000000
B0552403208138S11657632EA0093200959000000000000
B0552443208099S11657625EA0092500951000004000000
B0552483208070S11657686EA0092000948000000000000
B0552523208083S11657771EA0091700947000000000000
B0552563208118S11657855EA0091900951000000000000
B0553003208179S11657906EA0092700958000000000000
B0553043208240S11657891EA0092300944000000000000
B0553083208256S11657829EA0091000933000000000000
B0553123208251S11657764EA0090100930000004000000
B0553163208238S11657699EA0089500918000000000000
B0553203208221S11657629EA0088400911000004000000
B0553243208204S11657562EA0087900904000004000000
B0553283208183S11657494EA0086900894000000000000
B0553323208155S11657432EA0085900885000000000000
B0553363208132S11657367EA0085200877000000000000
B0553403208121S11657298EA0084200868000000000000
B0553443208105S11657230EA0082700852000000000000
B0553483208086S11657165EA0081900839000000000000
B0553523208066S11657099EA0080300824000000000000
B0553563208060S11657026EA0079400817000000000000
B0554003208047S11656956EA0078500803000000000000
B0554043208019S11656890EA0077800801000000000000
B0554083207987S11656827EA0077500803000000000000
B0554123207965S11656758EA0078100808000000000000
B0554163207949S11656691EA0078100809000004000000
B0554203207935S11656624EA0078700815000004000000
B0554243207918S11656562EA0079300826000004000000
B0554283207871S11656566EA0080900840000004000000
B0554323207863S11656652EA0081400836000004000000
B0554363207918S11656724EA0080900831000004000000
B0554403207991S11656740EA0080800835000004000000
B0554443208045S11656710EA0081100841000004000000
B0554483208083S11656665EA0081700846000004000000
B0554523208106S11656611EA0082100851000004000000
B0554563208103S11656561EA0082900859000004000000
B0555003208069S11656568EA0084200871000004000000
B0555043208064S11656644EA0084000862000004000000
B0555083208118S11656711EA0083900865000004000000
B0555123208183S11656696EA0084300870000004000000
B0555163208192S11656646EA0084900879000004000000
B0555203208160S11656639EA0085900883000004000000
B0555243208125S11656684EA0085500876000004000000
B0555283208127S11656766EA0085200878000004000000
B0555323208181S11656832EA0085500883000004000000
B0555363208244S11656834EA0086400894000004000000
B0555403208256S11656789EA0087200899000004000000
B0555443208221S11656791EA0087500903000004000000
B0555483208207S11656860EA0087700904000004000000
B0555523208252S11656927EA0088100913000004000000
B0555563208311S11656919EA0088900918000004000000
B0556003208317S11656873EA0089300924000004000000
B0556043208282S11656874EA0090300933000004000000
B0556083208264S11656939EA0089600921000000000000
B0556123208305S11657018EA0089500928000000000000
B0556163208372S11657035EA0090600941000000000000
B0556203208408S11656994EA0091000937000000000000
B0556243208387S11656961EA0091200946000000000000
B0556283208351S11656988EA0092000949000000000000
B0556323208334S11657057EA0092100950000000000000
B0556363208350S11657142EA0092200956000000000000
B0556403208411S11657186EA0093600970000000000000
B0556443208459S11657156EA0094200969000000000000
B0556483208451S11657103EA0093800973000000000000
B0556523208411S11657113EA0095200985000000000000
B0556563208402S11657189EA0095600986000000000000
B0557003208456S11657250EA0096000994000000000000
B0557043208521S11657242EA0096600997000000000000
B0557083208534S11657189EA0096901001000000000000
B0557123208496S11657179EA0097501006000000000000
B0557163208461S11657226EA0097801007000004000000
B0557203208460S11657306EA0097701007000004000000
B0557243208486S11657390EA0098001018000000000000
B0557283208548S11657420EA0100001034000000000000
B0557323208587S11657385EA0100301032000000000000
B0557363208571S11657348EA0100401038000000000000
B0557403208530S11657369EA0101401047000000000000
B0557443208517S11657441EA0101801051000000000000
B0557483208555S11657511EA0102801064000000000000
B0557523208619S11657519EA0104101074000000000000
B0557563208647S11657477EA0104601079000004000000
B0558003208629S11657443EA0104901084000000000000
B0558043208590S11657459EA0105601091000000000000
B0558083208572S11657523EA0106001098000000000000
B0558123208598S11657598EA0106901105000000000000
B0558163208660S11657636EA0107601118000004000000
B0558203208715S11657618EA0108801123000004000000
B0558243208725S11657571EA0109001127000000000000
B0558283208694S11657559EA0109901134000004000000
B0558323208667S11657612EA0109901133000004000000
B0558363208684S11657692EA0110501141000004000000
B0558403208746S11657740EA0111101147000004000000
B0558443208808S11657728EA0111601153000004000000
B0558483208828S11657683EA0112001158000004000000
B0558523208801S11657659EA0112501160000004000000
B0558563208764S11657698EA0112501160000004000000
B0559003208776S11657779EA0112901169000004000000
B0559043208837S11657824EA0113701177000004000000
B0559083208898S11657810EA0114601185000004000000
B0559123208909S11657764EA0115101189000000000000
B0559163208873S11657755EA0115201188000000000000
B0559203208854S11657819EA0115201189000000000000
B0559243208894S11657894EA0115501196000000000000
B0559283208961S11657927EA0116401205000000000000
B0559323209011S11657896EA0116701205000000000000
B0559363209009S11657849EA0116701206000000000000
B0559403208971S11657840EA0116901208000000000000
B0559443208933S11657881EA0117101208000000000000
B0559483208919S11657954EA0116901205000000000000
B0559523208918S11658041EA0116701210000000000000
B0559563208968S11658102EA0118101224000000000000
B0600003209027S11658079EA0119101233000000000000
B0600043209019S11658037EA0120001240000000000000
B0600083208976S11658063EA0120401242000000000000
B0600123208970S11658141EA0121401260000000000000
B0600163209019S11658201EA0122901269000000000000
B0600203209085S11658208EA0123201272000000000000
B0600243209123S11658166EA0123601278000004000000
B0600283209111S11658128EA0124101281000000000000
B0600323209071S11658148EA0124001278000000000000
B0600363209058S11658227EA0123701281000000000000
B0600403209079S11658310EA0124501293000000000000
B0600443209143S11658340EA0125601298000000000000
B0600483209178S11658301EA0125901302000000000000
B0600523209149S11658284EA0126501310000000000000
B0600563209120S11658343EA0127001310000000000000
B0601003209152S11658421EA0127401319000000000000
B0601043209214S11658442EA0128301326000000000000
B0601083209252S11658405EA0128301322000000000000
B0601123209237S11658368EA0128401328000000000000
B0601163209197S11658385EA0129501340000000000000
B0601203209178S11658450EA0130201346000000000000
B0601243209202S11658526EA0130601346000004000000
B0601283209265S11658568EA0130001339000004000000
B0601323209325S11658548EA0129701342000004000000
B0601363209334S11658503EA0130101346000004000000
B0601403209299S11658487EA0130301344000000000000
B0601443209261S11658531EA0130701352000000000000
B0601483209273S11658616EA0131301359000000000000
B0601523209325S11658668EA0131901363000000000000
B0601563209387S11658668EA0131101350000000000000
B0602003209417S11658622EA0130801353000004000000
B0602043209409S11658578EA0131001354000000000000
B0602083209391S11658534EA0130101343000004000000
B0602123209367S11658483EA0128901330000000000000
B0602163209338S11658427EA0128401323000000000000
B0602203209308S11658364EA0127101305000000000000
B0602243209274S11658297EA0125301290000004000000
B0602283209241S11658226EA0123901279000000000000
B0602323209208S11658156EA0123001267000000000000
B0602363209165S11658088EA0121901254000000000000
B0602403209114S11658023EA0121001248000004000000
B0602443209059S11657959EA0119701236000000000000
B0602483209002S11657893EA0118701226000000000000
B0602523208949S11657827EA0118701232000004000000
B0602563208896S11657764EA0118801219000004000000
B0603003208834S11657697EA0116301198000000000000
B0603043208771S11657625EA0114601185000000000000
B0603083208701S11657563EA0115101197000000000000
B0603123208625S11657542EA0117901234000000000000
B0603163208572S11657590EA0121601268000000000000
B0603203208593S11657671EA0123101268000000000000
B0603243208664S11657680EA0122401266000000000000
B0603283208698S11657634EA0123301279000000000000
B0603323208698S11657585EA0123901284000000000000
B0603363208676S11657545EA0125001295000000000000
B0603403208629S11657554EA0125801305000004000000
B0603443208599S11657616EA0127001318000004000000
B0603483208606S11657696EA0127501316000004000000
B0603523208655S11657751EA0127301312000004000000
B0603563208712S11657738EA0126301301000000000000
B0604003208741S11657689EA0126001304000004000000
B0604043208755S11657636EA0126301307000000000000
B0604083208754S11657579EA0126301309000004000000
B0604123208740S11657528EA0127501325000004000000
B0604163208708S11657498EA0129201342000000000000
B0604203208662S11657507EA0130001344000004000000
B0604243208629S11657566EA0130001348000004000000
B0604283208636S11657645EA0130301342000004000000
B0604323208662S11657727EA0129601340000004000000
B0604363208697S11657809EA0130001348000000000000
B0604403208758S11657850EA0130901356000004000000
B0604443208805S11657829EA0131401357000000000000
B0604483208798S11657789EA0131301356000000000000
B0604523208747S11657809EA0131501361000000000000
B0604563208734S11657889EA0132001364000000000000
B0605003208784S11657954EA0132001368000000000000
B0605043208844S11657952EA0132601372000000000000
B0605083208863S11657910EA0133101377000000000000
B0605123208834S11657881EA0133601382000000000000
B0605163208785S11657902EA0134201391000000000000
B0605203208764S11657970EA0135301398000000000000
B0605243208797S11658041EA0135001392000000000000
B0605283208855S11658074EA0135301399000000000000
B0605323208905S11658061EA0135501401000000000000
B0605363208920S11658021EA0135801403000000000000
B0605403208893S11657995EA0136501413000000000000
B0605443208850S11658026EA0136901414000004000000
B0605483208842S11658106EA0136901417000004000000
B0605523208879S11658171EA0137501422000004000000
B0605563208936S11658184EA0137301411000004000000
B0606003208970S11658141EA0136501415000004000000
B0606043208974S11658092EA0137101420000004000000
B0606083208941S11658066EA0137501420000004000000
B0606123208893S11658104EA0137401421000004000000
B0606163208879S11658188EA0137401420000004000000
B0606203208885S11658282EA0136801414000004000000
B0606243208912S11658370EA0136501412000000000000
B0606283208974S11658429EA0136501410000000000000
B0606323209045S11658435EA0136101405000000000000
B0606363209091S11658394EA0136001406000000000000
B0606403209098S11658339EA0136201410000000000000
B0606443209088S11658288EA0136301413000000000000
B0606483209071S11658236EA0136501410000004000000
B0606523209049S11658183EA0136201407000000000000
B0606563209023S11658125EA0134201379000000000000
B0607003208992S11658060EA0131801358000000000000
B0607043208959S11657989EA0130601350000004000000
B0607083208929S11657918EA0130001344000000000000
B0607123208899S11657849EA0129301334000004000000
B0607163208870S11657779EA0128001319000000000000
B0607203208840S11657706EA0127201311000000000000
B0607243208811S11657634EA0127001316000004000000
B0607283208781S11657567EA0127501321000004000000
B0607323208758S11657499EA0127201312000004000000
B0607363208728S11657430EA0125801296000004000000
B0607403208699S11657359EA0124901290000004000000
B0607443208669S11657290EA0124601289000004000000
B0607483208639S11657224EA0124501288000004000000
B0607523208610S11657157EA0124401285000000000000
B0607563208581S11657088EA0124101283000000000000
B0608003208551S11657022EA0124301288000004000000
B0608043208522S11656964EA0124701291000000000000
B0608083208493S11656905EA0124401284000004000000
B0608123208460S11656845EA0124101283000004000000
B0608163208430S11656784EA0124001283000004000000
B0608203208400S11656722EA0124001283000004000000
B0608243208372S11656657EA0124601295000004000000
B0608283208326S11656620EA0126601321000004000000
B0608323208290S11656670EA0129401345000004000000
B0608363208313S11656743EA0130601350000004000000
B0608403208376S11656763EA0131501364000004000000
B0608443208415S11656728EA0133001378000000000000
B0608483208400S11656688EA0134301391000000000000
B0608523208361S11656714EA0135101391000000000000
B0608563208363S11656797EA0134801393000000000000
B0609003208420S11656847EA0136101413000000000000
B0609043208472S11656827EA0138101431000000000000
B0609083208476S11656779EA0139101439000004000000
B0609123208438S11656774EA0140101449000004000000
B0609163208421S11656839EA0140701451000004000000
B0609203208465S11656909EA0140201447000000000000
B0609243208533S11656916EA0141201471000000000000
B0609283208578S11656882EA0143201486000000000000
B0609323208590S11656831EA0144301495000000000000
B0609363208564S11656800EA0144901495000004000000
B0609403208520S11656835EA0144601491000004000000
B0609443208508S11656914EA0144601492000000000000
B0609483208530S11657000EA0144201486000000000000
B0609523208590S11657069EA0144401498000000000000
B0609563208660S11657078EA0146301519000000000000
B0610003208682S11657026EA0147701529000000000000
B0610043208645S11657001EA0148601540000000000000
B0610083208604S11657047EA0149701549000000000000
B0610123208606S11657126EA0150201554000000000000
B0610163208662S11657186EA0150601559000000000000
B0610203208729S11657185EA0151401570000000000000
B0610243208758S11657134EA0152001574000000000000
B0610283208736S11657091EA0152901584000000000000
B0610323208693S11657108EA0153901592000004000000
B0610363208680S11657178EA0154001589000004000000
B0610403208714S11657251EA0154101592000004000000
B0610443208780S11657285EA0154001593000000000000
B0610483208845S11657265EA0154601600000000000000
B0610523208872S11657213EA0155301605000000000000
B0610563208857S11657166EA0155601608000000000000
B0611003208807S11657164EA0156001609000000000000
B0611043208753S11657187EA0155201594000000000000
B0611083208695S11657181EA0153301578000000015000
B0611123208663S11657133EA0152801583000000015000
B0611163208655S11657072EA0153301586000004000000
B0611203208672S11657007EA0153501586000004000000
B0611243208708S11656943EA0153401586000004000000
B0611283208760S11656884EA0153401586000004000000
B0611323208815S11656825EA0153001582000000000000
B0611363208866S11656765EA0153001581000004000000
B0611403208893S11656700EA0153101582000004000000
B0611443208875S11656656EA0153701590000000000000
B0611483208837S11656648EA0154101591000000000000
B0611523208798S11656679EA0154101589000000000000
B0611563208763S11656731EA0153801589000000000000
B0612003208733S11656791EA0153801590000000000000
B0612043208699S11656843EA0153701588000000000000
B0612083208662S11656890EA0153501586000004000000
B0612123208621S11656936EA0153201583000000000000
B0612163208577S11656965EA0153201584000000000000
B0612203208537S11656957EA0153301585000000000000
B0612243208512S11656922EA0153301585000004000000
B0612283208509S11656869EA0153401584000000000000
B0612323208533S11656810EA0153101581000000000000
B0612363208577S11656752EA0152601576000000000000
B0612403208629S11656695EA0152601576000000000000
B0612443208675S11656635EA0152501575000000000000
B0612483208710S11656571EA0152501576000000000000
B0612523208707S11656519EA0152801579000000000000
B0612563208673S11656503EA0152801574000000000000
B0613003208634S11656528EA0152401571000000000000
B0613043208600S11656579EA0151801569000000000000
B0613083208569S11656633EA0151501567000000000000
B0613123208537S11656685EA0151401565000000000000
B0613163208502S11656741EA0151101562000004000000
B0613203208468S11656797EA0151201566000004000000
B0613243208435S11656847EA0151701570000004000000
B0613283208396S11656877EA0151801570000004000000
B0613323208356S11656884EA0151801569000004000000
B0613363208318S11656875EA0151601568000004000000
B0613403208286S11656851EA0151501566000004000000
B0613443208259S11656815EA0151401565000004000000
B0613483208230S11656778EA0150501550000004000000
B0613523208204S11656732EA0150001554000004000000
B0613563208199S11656678EA0150201555000004000000
B0614003208191S11656622EA0150301552000004000000
B0614043208174S11656568EA0150001550000004000000
B0614083208149S11656516EA0149601543000004000000
B0614123208119S11656463EA0148801535000004000000
B0614163208083S11656412EA0148201533000004000000
B0614203208041S11656366EA0148501536000000000000
B0614243208000S11656321EA0148901544000004000000
B0614283207961S11656282EA0149401545000000000000
B0614323207911S11656281EA0149701548000000000000
B0614363207867S11656312EA0150201554000000000000
B0614403207835S11656368EA0150501558000000000000
B0614443207798S11656414EA0150801562000000000000
B0614483207758S11656419EA0151101563000004000000
B0614523207728S11656390EA0151201564000004000000
B0614563207716S11656344EA0151201564000000000000
B0615003207723S11656286EA0151001561000000000000
B0615043207750S11656225EA0150701558000004000000
B0615083207794S11656165EA0150601558000004000000
B0615123207846S11656111EA0150701559000004000000
B0615163207904S11656061EA0150901560000000000000
B0615203207958S11656009EA0150601554000004000000
B0615243207989S11655950EA0150301555000004000000
B0615283207978S11655905EA0150701558000004000000
B0615323207943S11655898EA0150801557000000000000
B0615363207904S11655905EA0150301552000000000000
B0615403207862S11655929EA0149901549000004000000
B0615443207826S11655973EA0150101549000004000000
B0615483207793S11656026EA0149801544000004000000
B0615523207754S11656074EA0149301540000004000000
B0615563207715S11656121EA0149101540000000000000
B0616003207676S11656167EA0149001540000000000000
B0616043207636S11656211EA0148601534000004000000
B0616083207592S11656240EA0148001530000004000000
B0616123207549S11656241EA0148101532000000000000
B0616163207518S11656216EA0147901527000004000000
B0616203207499S11656169EA0147401520000000000000
B0616243207488S11656115EA0146501507000000000000
B0616283207475S11656055EA0145301496000000000000
B0616323207462S11655991EA0144101482000000000000
B0616363207450S11655922EA0143301480000000000000
B0616403207440S11655853EA0143001474000000000000
B0616443207430S11655783EA0142701472000004000000
B0616483207421S11655714EA0142501473000000000000
B0616523207414S11655645EA0142801476000000000000
B0616563207410S11655580EA0143201480000004000000
B0617003207403S11655518EA0143201479000004000000
B0617043207395S11655454EA0142901474000004000000
B0617083207385S11655391EA0142601470000004000000
B0617123207373S11655323EA0142001465000000000000
B0617163207360S11655255EA0141601462000000000000
B0617203207345S11655188EA0141201458000000000000
B0617243207329S11655120EA0140701453000000000000
B0617283207315S11655051EA0140401451000000000000
B0617323207302S11654985EA0140301448000004000000
B0617363207289S11654916EA0140001447000004000000
B0617403207277S11654846EA0139601440000004000000
B0617443207264S11654774EA0139001434000004000000
B0617483207250S11654703EA0138401430000004000000
B0617523207238S11654630EA0138301428000000000000
B0617563207228S11654560EA0138101426000000000000
B0618003207217S11654490EA0137301416000000000000
B0618043207207S11654418EA0136501410000000000000
B0618083207199S11654345EA0135801400000000000000
B0618123207193S11654273EA0135001394000000000000
B0618163207185S11654204EA0134501388000004000000
B0618203207180S11654135EA0133501372000004000000
B0618243207170S11654066EA0132001357000000000000
B0618283207137S11654015EA0130901350000000000000
B0618323207091S11653976EA0130201345000000000000
B0618363207044S11653942EA0129901341000000000000
B0618403206994S11653919EA0129401333000000000000
B0618443206936S11653906EA0128001313000004000000
B0618483206879S11653885EA0126201298000004000000
B0618523206840S11653844EA0125301292000004000000
B0618563206822S11653789EA0124401280000000000000
B0619003206818S11653725EA0122901263000004000000
B0619043206819S11653654EA0121001244000004000000
B0619083206823S11653575EA0119401228000004000000
B0619123206822S11653494EA0118201217000004000000
B0619163206819S11653413EA0117401205000004000000
B0619203206826S11653333EA0116701206000000000000
B0619243206840S11653257EA0117301216000000000000
B0619283206842S11653187EA0118301222000000000000
B0619323206814S11653130EA0118801225000000000000
B0619363206773S11653088EA0119001228000004000000
B0619403206728S11653049EA0118701224000004000000
B0619443206679S11653013EA0118101218000004000000
B0619483206630S11652975EA0117801215000004000000
B0619523206584S11652932EA0117601214000004000000
B0619563206540S11652889EA0117501215000004000000
B0620003206498S11652848EA0118501227000000000000
B0620043206448S11652874EA0119701232000000000000
B0620083206454S11652962EA0119401230000004000000
B0620123206509S11653025EA0118701220000000000000
B0620163206579S11653031EA0118001217000004000000
B0620203206635S11652999EA0118001220000004000000
B0620243206670S11652949EA0118501226000004000000
B0620283206669S11652893EA0119201232000000000000
B0620323206654S11652836EA0119601235000000000000
B0620363206628S11652787EA0120301248000000000000
B0620403206585S11652817EA0121401249000000000000
B0620443206618S11652897EA0121301257000000000000
B0620483206684S11652896EA0122901276000000000000
B0620523206701S11652844EA0124001282000000000000
B0620563206665S11652824EA0124701288000000000000
B0621003206632S11652878EA0125501301000004000000
B0621043206641S11652953EA0126701310000004000000
B0621083206692S11653006EA0127201314000004000000
B0621123206751S11652996EA0127901327000000000000
B0621163206767S11652949EA0128601328000000000000
B0621203206740S11652918EA0128701331000000000000
B0621243206700S11652932EA0129101337000000000000
B0621283206683S11652997EA0130001341000000000000
B2359463207720S11657090EV0131500000000000000128
B2359503207720S11657090EV0132000000000000000128
B2359543207720S11657090EV0132300000000000000128
B2359583207720S11657090EV0132500000000004000128
B0621543206777S11653151EA0132401387015004135000
B0621583206843S11653173EA0133401398000000135000
B0622023206894S11653140EA0134301405000000075000
B0622063206897S11653087EA0134701407000000045000
B0622103206862S11653060EA0134501401000004030000
B0622143206817S11653084EA0134201400000000015000
B0622183206806S11653156EA0134101399000000015000
B0622223206840S11653229EA0134201402000000015000
B0622263206907S11653268EA0134401409000000015000
B0622303206969S11653261EA0135401422000004015000
B0622343206986S11653212EA0136001417000004015000
B0622383206955S11653164EA0135301410000004000000
B0622423206899S11653161EA0134801409000004000000
B0622463206856S11653212EA0135401416000000000000
B0622503206845S11653290EA0135901422000000000000
B0622543206882S11653361EA0136701432000000000000
B0622583206948S11653385EA0137501442000000000000
B0623023206992S11653351EA0138901452000000000000
B0623063206994S11653296EA0138301441000004000000
B0623103206959S11653259EA0137501435000000000000
B0623143206908S11653273EA0137201434000000000000
B0623183206878S11653341EA0137201434000004000000
B0623223206900S11653428EA0137001434000004000000
B0623263206953S11653498EA0137301439000004000000
B0623303207022S11653524EA0138301449000004000000
B0623343207078S11653493EA0138701450000000000000
B0623383207082S11653434EA0139401458000000000000
B0623423207035S11653408EA0139301452000000000000
B0623463206983S11653439EA0139501457000000000000
B0623503206964S11653517EA0139701454000000000000
B0623543206969S11653608EA0139401450000000000000
B0623583206994S11653695EA0139601457000000000000
B0624023207056S11653737EA0140301461000000000000
B0624063207113S11653715EA0140601464000000000000
B0624103207134S11653659EA0141001466000000000000
B0624143207118S11653606EA0141101466000000000000
B0624183207070S11653595EA0141401468000000000000
B0624223207024S11653643EA0141201461000000000000
B0624263207024S11653729EA0141101463000000000000
B0624303207068S11653799EA0141301465000004000000
B0624343207134S11653822EA0141701469000004000000
B0624383207183S11653788EA0142001471000000000000
B0624423207190S11653731EA0142101468000004000000
B0624463207165S11653679EA0141401459000004000000
B0624503207129S11653627EA0140101443000004000000
B0624543207086S11653573EA0138901432000004000000
B0624583207042S11653519EA0137701420000000000000
B0625023206999S11653460EA0136701412000000000000
B0625063206959S11653400EA0136701413000000000000
B0625103206923S11653344EA0137001414000004000000
B0625143206891S11653287EA0136701409000004000000
B0625183206860S11653229EA0136201406000004000000
B0625223206831S11653168EA0135701402000004000000
B0625263206808S11653117EA0136101406000004000000
B0625303206783S11653069EA0135401395000004000000
B0625343206758S11653019EA0134701389000004000000
B0625383206732S11652970EA0134901396000004000000
B0625423206709S11652917EA0135601404000004000000
B0625463206684S11652862EA0136501411000000000000
B0625503206661S11652804EA0136401408000000000000
B0625543206631S11652748EA0136301407000000000000
B0625583206598S11652692EA0135401391000000000000
B0626023206563S11652629EA0133801375000000000000
B0626063206530S11652562EA0132101353000004000000
B0626103206497S11652488EA0131001353000004000000
B0626143206471S11652415EA0133001380000004000000
B0626183206436S11652371EA0135301395000004000000
B0626223206398S11652416EA0135701397000004000000
B0626263206428S11652494EA0135501396000000000000
B0626303206500S11652527EA0135301398000000000000
B0626343206571S11652507EA0136301412000000000000
B0626383206600S11652458EA0138101430000000000000
B0626423206570S11652440EA0138901433000000000000
B0626463206545S11652496EA0139601443000000000000
B0626503206578S11652564EA0140101445000004000000
B0626543206648S11652585EA0140201447000000000000
B0626583206708S11652559EA0140901456000000000000
B0627023206713S11652510EA0141601461000004000000
B0627063206675S11652523EA0142101466000004000000
B0627103206683S11652601EA0142401467000004000000
B0627143206749S11652644EA0142601475000004000000
B0627183206813S11652622EA0143401480000004000000
B0627223206847S11652568EA0143601480000000000000
B0627263206831S11652518EA0143501480000000000000
B0627303206787S11652506EA0143501479000000000000
B0627343206744S11652545EA0143401481000004000000
B0627383206727S11652618EA0143601479000000000000
B0627423206747S11652705EA0143201475000000000000
B0627463206779S11652792EA0143001474000004000000
B0627503206819S11652882EA0143101474000000000000
B0627543206891S11652936EA0143601484000000000000
B0627583206956S11652912EA0144901497000004000000
B0628023206990S11652857EA0145601501000000000000
B0628063206985S11652809EA0146001504000004000000
B0628103206948S11652817EA0145901502000004000000
B0628143206939S11652888EA0145501495000000000000
B0628183206990S11652964EA0145101492000000000000
B0628223207068S11652993EA0145501505000004000000
B0628263207139S11652979EA0146801519000000000000
B0628303207191S11652941EA0147501521000004000000
B0628343207208S11652883EA0147501520000004000000
B0628383207185S11652841EA0147501519000004000000
B0628423207142S11652849EA0146901511000004000000
B0628463207115S11652909EA0146301505000004000000
B0628503207138S11652995EA0145701499000004000000
B0628543207208S11653047EA0145701504000004000000
B0628583207284S11653042EA0145901504000004000000
B0629023207334S11652992EA0145801502000004000000
B0629063207349S11652928EA0145801500000000000000
B0629103207343S11652867EA0145301494000000000000
B0629143207325S11652809EA0144601488000000000000
B0629183207304S11652748EA0143501475000000000000
B0629223207281S11652684EA0142501466000004000000
B0629263207254S11652622EA0141801457000004000000
B0629303207221S11652563EA0140801448000004000000
B0629343207181S11652515EA0140001438000004000000
B0629383207135S11652476EA0139001432000004000000
B0629423207094S11652429EA0138101419000000000000
B0629463207053S11652373EA0136801407000000000000
B0629503207013S11652315EA0136301404000000000000
B0629543206973S11652256EA0135701397000004000000
B0629583206931S11652194EA0135301392000000000000
B0630023206895S11652130EA0134801383000004000000
B0630063206860S11652068EA0134201381000000000000
B0630103206821S11652007EA0132801358000004000000
B0630143206778S11651943EA0130901348000000000000
B0630183206736S11651881EA0130201339000000000000
B0630223206699S11651818EA0129601334000000000000
B0630263206661S11651755EA0129201330000000000000
B0630303206622S11651692EA0128301324000000000000
B0630343206580S11651630EA0128101320000000000000
B0630383206539S11651570EA0127601314000000000000
B0630423206497S11651510EA0127201308000004000000
B0630463206455S11651450EA0126601303000000000000
B0630503206416S11651393EA0126601303000004000000
B0630543206374S11651340EA0126201302000004000000
B0630583206333S11651288EA0126301300000004000000
B0631023206286S11651240EA0126301303000000000000
B0631063206240S11651198EA0126801310000000000000
B0631103206192S11651160EA0126701305000000000000
B0631143206143S11651119EA0126401302000000000000
B0631183206112S11651059EA0126601309000000000000
B0631223206080S11651007EA0128001330000004000000
B0631263206036S11650986EA0129701345000004000000
B0631303206003S11651045EA0130401338000004000000
B0631343206034S11651129EA0129301329000000000000
B0631383206111S11651171EA0129101336000000000000
B0631423206193S11651188EA0129801342000004000000
B0631463206273S11651188EA0130501348000004000000
B0631503206323S11651145EA0131101354000004000000
B0631543206314S11651094EA0131201352000000000000
B0631583206262S11651077EA0131001350000004000000
B0632023206215S11651120EA0131601365000000000000
B0632063206206S11651206EA0133101380000000000000
B0632103206236S11651292EA0134601389000004000000
B0632143206303S11651319EA0135201395000004000000
B0632183206346S11651279EA0135401393000004000000
B0632223206340S11651229EA0135501395000004000000
B0632263206305S11651201EA0135401393000004000000
B0632303206255S11651202EA0135301393000000000000
B0632343206216S11651250EA0135101393000000000000
B0632383206223S11651326EA0135401394000000000000
B0632423206277S11651389EA0134901384000000000000
B0632463206351S11651441EA0134301388000000000000
B0632503206426S11651465EA0135301399000000000000
B0632543206459S11651418EA0135401389000000000000
B0632583206419S11651387EA0135101394000000000000
B0633023206377S11651436EA0136201409000000000000
B0633063206398S11651521EA0136801409000000000000
B0633103206455S11651593EA0136501406000000000000
B0633143206524S11651652EA0136301403000000000000
B0633183206600S11651656EA0136401405000000000000
B0633223206643S11651617EA0136201401000000000000
B0633263206632S11651570EA0135401391000000000000
B0633303206589S11651553EA0134901390000000000000
B0633343206537S11651557EA0134601387000000000000
B0633383206483S11651584EA0134601388000000000000
B0633423206437S11651635EA0135101397000000000000
B0633463206409S11651712EA0135501394000004000000
B0633503206402S11651808EA0134901391000000000000
B0633543206420S11651908EA0135401400000004000000
B0633583206450S11652004EA0136001404000000000000
B0634023206492S11652090EA0135901400000004000000
B0634063206563S11652133EA0135701402000004000000
B0634103206630S11652124EA0136001403000000000000
B0634143206671S11652081EA0135401394000000000000
B0634183206674S11652028EA0134801388000000000000
B0634223206645S11651989EA0134401386000000000000
B0634263206605S11651961EA0134201382000000000000
B0634303206558S11651939EA0133501373000000000000
B0634343206507S11651917EA0132701369000004000000
B0634383206461S11651888EA0132801370000000000000
B0634423206418S11651852EA0132901370000000000000
B0634463206374S11651816EA0132601368000000000000
B0634503206328S11651771EA0132701370000004000000
B0634543206284S11651727EA0133301378000004000000
B0634583206237S11651682EA0133301374000004000000
B0635023206182S11651682EA0133901384000004000000
B0635063206153S11651751EA0134401385000004000000
B0635103206176S11651838EA0134101382000004000000
B0635143206238S11651890EA0134301388000004000000
B0635183206307S11651931EA0134301385000004000000
B0635223206379S11651970EA0134301387000000000000
B0635263206452S11651991EA0134801398000000000000
B0635303206496S11651955EA0136001408000004000000
B0635343206470S11651927EA0136901411000004000000
B0635383206436S11651977EA0137201420000000000000
B0635423206457S11652052EA0138301426000000000000
B0635463206524S11652065EA0138001423000004000000
B0635503206553S11652013EA0138901441000004000000
B0635543206524S11651992EA0140501447000004000000
B0635583206493S11652044EA0140401452000004000000
B0636023206507S11652120EA0141501460000000000000
B0636063206570S11652161EA0141301455000004000000
B0636103206635S11652141EA0141601463000004000000
B0636143206665S11652089EA0142501470000004000000
B0636183206648S11652046EA0143301478000004000000
B0636223206604S11652052EA0143301471000004000000
B0636263206569S11652111EA0143101477000004000000
B0636303206575S11652193EA0143501477000004000000
B0636343206615S11652275EA0143201476000004000000
B0636383206686S11652325EA0143901488000004000000
B0636423206745S11652301EA0145401502000000000000
B0636463206740S11652254EA0145901506000004000000
B0636503206699S11652260EA0146901517000000000000
B0636543206680S11652325EA0147601521000000000000
B0636583206719S11652395EA0148301533000000000000
B0637023206786S11652392EA0149101537000004000000
B0637063206792S11652341EA0149701545000004000000
B0637103206754S11652349EA0150901560000004000000
B0637143206740S11652410EA0151701564000004000000
B0637183206770S11652484EA0151401559000004000000
B0637223206834S11652529EA0151501566000004000000
B0637263206900S11652527EA0152001569000004000000
B0637303206933S11652483EA0152701579000004000000
B0637343206934S11652438EA0153601585000004000000
B0637383206916S11652397EA0153101574000004000000
B0637423206886S11652350EA0152501573000004000000
B0637463206845S11652330EA0152601571000004000000
B0637503206808S11652366EA0152201568000004000000
B0637543206796S11652440EA0151801563000000000000
B0637583206800S11652523EA0151401556000000000000
B0638023206808S11652611EA0150701550000000000000
B0638063206821S11652702EA0150201544000000000000
B0638103206843S11652796EA0149901542000004000000
B0638143206871S11652891EA0149501541000004000000
B0638183206896S11652987EA0149601541000004000000
B0638223206914S11653083EA0149101535000004000000
B0638263206929S11653185EA0148901537000004000000
B0638303206939S11653285EA0149601545000004000000
B0638343206936S11653376EA0150101548000004000000
B0638383206921S11653452EA0150501551000004000000
B0638423206901S11653525EA0150001542000004000000
B0638463206869S11653582EA0148701529000004000000
B0638503206825S11653606EA0147701521000004000000
B0638543206784S11653595EA0147101513000004000000
B0638583206752S11653562EA0145501494000000000000
B0639023206722S11653512EA0143801477000004000000
B0639063206696S11653451EA0142601461000000000000
B0639103206670S11653386EA0141601452000000000000
B0639143206644S11653317EA0140401442000000000000
B0639183206617S11653248EA0139901442000000000000
B0639223206592S11653181EA0140101444000004000000
B0639263206571S11653112EA0139901441000004000000
B0639303206552S11653039EA0139501435000004000000
B0639343206528S11652967EA0139001431000004000000
B0639383206504S11652893EA0138601427000004000000
B0639423206478S11652819EA0138401425000004000000
B0639463206452S11652745EA0138101422000004000000
B0639503206422S11652675EA0138401428000004000000
B0639543206385S11652613EA0138601427000004000000
B0639583206344S11652557EA0138101422000000000000
B0640023206302S11652499EA0137401414000004000000
B0640063206259S11652438EA0136201400000000000000
B0640103206216S11652375EA0135501395000004000000
B0640143206171S11652317EA0135701402000000000000
B0640183206124S11652264EA0136001400000004000000
B0640223206080S11652210EA0135601394000000000000
B0640263206039S11652150EA0135101389000004000000
B0640303205999S11652094EA0134801387000004000000
B0640343205961S11652037EA0134401383000000000000
B0640383205925S11651982EA0133501371000004000000
B0640423205883S11651930EA0132101358000004000000
B0640463205841S11651878EA0131101348000004000000
B0640503205805S11651816EA0130401335000004000000
B0640543205766S11651753EA0128901321000000000000
B0640583205721S11651693EA0127701310000000000000
B0641023205673S11651632EA0127301309000000000000
B0641063205623S11651571EA0127101309000004000000
B0641103205570S11651515EA0127901322000004000000
B0641143205516S11651469EA0129601340000004000000
B0641183205461S11651491EA0132701374000000000000
B0641223205488S11651565EA0134501384000000000000
B0641263205549S11651554EA0135201393000004000000
B0641303205548S11651501EA0135701397000000000000
B0641343205496S11651498EA0136301408000004000000
B0641383205471S11651565EA0137301422000000000000
B0641423205512S11651631EA0138301431000004000000
B0641463205570S11651623EA0139301444000004000000
B0641503205583S11651578EA0140401449000004000000
B0641543205547S11651557EA0140701450000000000000
B0641583205505S11651599EA0140801454000004000000
B0642023205505S11651677EA0141501463000004000000
B0642063205552S11651730EA0142501474000004000000
B0642103205608S11651722EA0143201478000004000000
B0642143205634S11651678EA0143701482000004000000
B0642183205620S11651635EA0143901485000004000000
B0642223205578S11651627EA0144101486000004000000
B0642263205542S11651667EA0143801479000004000000
B0642303205535S11651742EA0142801468000000000000
B0642343205548S11651827EA0142401472000004000000
B0642383205586S11651900EA0143501488000004000000
B0642423205643S11651901EA0144901498000000000000
B0642463205649S11651856EA0145601503000000000000
B0642503205608S11651849EA0146001505000004000000
B0642543205575S11651908EA0146201509000004000000
B0642583205597S11651985EA0147201522000004000000
B0643023205653S11652021EA0147901527000004000000
B0643063205705S11651999EA0148401534000004000000
B0643103205717S11651952EA0149001539000000000000
B0643143205687S11651920EA0149001535000000000000
B0643183205636S11651924EA0148501528000004000000
B0643223205591S11651974EA0148001529000004000000
B0643263205581S11652059EA0148901540000000000000
B0643303205597S11652145EA0149901552000000000000
B0643343205656S11652186EA0151001562000000000000
B0643383205704S11652158EA0151701565000004000000
B0643423205699S11652111EA0152401575000004000000
B0643463205655S11652111EA0153901593000004000000
B0643503205629S11652174EA0155401607000004000000
B0643543205661S11652249EA0156101611000000000000
B0643583205726S11652269EA0156601619000004000000
B0644023205772S11652237EA0157301624000000000000
B0644063205777S11652186EA0158101631000000000000
B0644103205744S11652154EA0158401632000000000000
B0644143205692S11652163EA0159001644000000000000
B0644183205661S11652221EA0159901653000000000000
B0644223205669S11652301EA0160001649000000000000
B0644263205716S11652369EA0159801648000000000000
B0644303205785S11652394EA0159801649000004000000
B0644343205843S11652368EA0160101657000004000000
B0644383205863S11652316EA0161201667000004000000
B0644423205834S11652280EA0161501666000004000000
B0644463205783S11652291EA0161801671000004000000
B0644503205756S11652358EA0162101671000004000000
B0644543205778S11652444EA0161701668000000000000
B0644583205842S11652498EA0161601669000004000000
B0645023205911S11652494EA0162301680000004000000
B0645063205913S11652442EA0163001682000000000000
B0645103205868S11652451EA0163701690000004000000
B0645143205861S11652531EA0164001689000000015000
B0645183205921S11652592EA0163601687000000015000
B0645223205991S11652587EA0164001700000000015000
B0645263206026S11652538EA0164901700000004000000
B0645303206016S11652488EA0164201687000000000000
B0645343205985S11652440EA0162701671000000000000
B0645383205945S11652389EA0161201655000004000000
B0645423205895S11652333EA0158801627000000000000
B0645463205841S11652275EA0157001609000004000000
B0645503205783S11652215EA0155401596000004000000
B0645543205724S11652163EA0154601592000004000000
B0645583205664S11652119EA0154801597000004000000
B0646023205608S11652081EA0154901592000004000000
B0646063205551S11652044EA0153701581000004000000
B0646103205495S11652005EA0153201577000004000000
B0646143205439S11651965EA0152501570000000000000
B0646183205382S11651922EA0151701560000000000000
B0646223205322S11651875EA0150701551000000000000
B0646263205261S11651831EA0149501539000000000000
B0646303205200S11651788EA0148901531000000000000
B0646343205137S11651747EA0148001522000000000000
B0646383205075S11651704EA0147701525000000000000
B0646423205015S11651670EA0148101527000000000000
B0646463204959S11651636EA0148801537000000000000
B0646503204914S11651604EA0149901546000000000000
B0646543204866S11651570EA0149001532000004000000
B0646583204810S11651534EA0147401514000000000000
B0647023204746S11651489EA0145801500000000000000
B0647063204681S11651445EA0145501500000004000000
B0647103204615S11651402EA0144701486000004000000
B0647143204548S11651361EA0144401487000004000000
B0647183204486S11651320EA0143901478000004000000
B0647223204424S11651276EA0143301475000004000000
B0647263204364S11651235EA0142701467000004000000
B0647303204301S11651197EA0141801459000004000000
B0647343204240S11651159EA0141401456000004000000
B0647383204183S11651120EA0140801446000000000000
B0647423204122S11651080EA0139501428000004000000
B0647463204058S11651040EA0138201422000000000000
B0647503203996S11651001EA0137901417000000000000
B0647543203933S11650963EA0137501418000000000000
B0647583203870S11650926EA0137001410000000000000
B0648023203803S11650889EA0136001398000000000000
B0648063203738S11650851EA0135401391000000000000
B0648103203673S11650812EA0134801388000004000000
B0648143203608S11650774EA0134801391000000000000
B0648183203545S11650737EA0134801389000004000000
B0648223203482S11650698EA0134401385000004000000
B0648263203421S11650664EA0134201382000004000000
B0648303203363S11650629EA0133701376000000000000
B0648343203307S11650596EA0133001371000004000000
B0648383203254S11650569EA0132801368000000000000
B0648423203199S11650543EA0132501367000004000000
B0648463203144S11650517EA0132601365000004000000
B0648503203094S11650486EA0132601369000004000000
B0648543203044S11650456EA0132701365000000000000
B0648583202988S11650442EA0132401361000000000000
B0649023202926S11650452EA0131801356000000000000
B0649063202861S11650481EA0131401351000000000000
B0649103202797S11650520EA0130801345000000000000
B0649143202737S11650568EA0130501346000000000000
B0649183202683S11650621EA0130901351000000000000
B0649223202631S11650678EA0131701361000004000000
B0649263202584S11650737EA0132401368000000000000
B0649303202528S11650764EA0132601369000000000000
B0649343202479S11650746EA0133001376000000000000
B0649383202451S11650698EA0133401376000000000000
B0649423202445S11650638EA0133501377000004000000
B0649463202455S11650579EA0133901382000004000000
B0649503202492S11650529EA0133701376000004000000
B0649543202552S11650503EA0133301375000004000000
B0649583202624S11650514EA0133201371000004000000
B0650023202684S11650578EA0132501364000000015000
B0650063202721S11650666EA0131301350000000015000
B0650103202741S11650761EA0130501344000000000000
B0650143202752S11650852EA0130801352000004000000
B0650183202762S11650943EA0131301352000004000000
B0650223202769S11651034EA0131301351000004000000
B0650263202770S11651125EA0131401355000004000000
B0650303202769S11651214EA0131901360000004000000
B0650343202776S11651303EA0132501365000000000000
B0650383202831S11651355EA0133201372000000000000
B0650423202891S11651340EA0133201367000000000000
B0650463202916S11651285EA0132901367000000000000
B0650503202900S11651236EA0132901367000000000000
B0650543202858S11651206EA0132201352000000000000
B0650583202800S11651186EA0130801339000000000000
B0651023202734S11651170EA0129701328000000000000
B0651063202659S11651158EA0129101331000000000000
B0651103202585S11651145EA0129901344000000000000
B0651143202515S11651136EA0130601348000004000000
B0651183202442S11651129EA0130101336000004000000
B0651223202368S11651120EA0128801324000004000000
B0651263202292S11651112EA0128301322000004000000
B0651303202215S11651106EA0127801312000004000000
B0651343202137S11651097EA0126901307000004000000
B0651383202059S11651088EA0126201297000004000000
B0651423201980S11651080EA0125501291000004000000
B0651463201903S11651075EA0125501290000004000000
B0651503201825S11651072EA0124501276000004000000
B0651543201744S11651068EA0123401271000004000000
B0651583201665S11651064EA0123501274000000000000
B0652023201586S11651060EA0123601276000000000000
B0652063201508S11651060EA0122901263000000000000
B0652103201427S11651056EA0121401249000000000000
B0652143201345S11651046EA0120501240000000000000
B0652183201267S11651034EA0120401241000000000000
B0652223201192S11651017EA0120001231000000000000
B0652263201114S11651002EA0118401215000000000000
B0652303201033S11650989EA0117301206000000000000
B0652343200954S11650972EA0116301193000004000000
B0652383200873S11650955EA0115101186000004000000
B0652423200797S11650933EA0114501178000004000000
B0652463200719S11650916EA0114001173000004000000
B0652503200641S11650900EA0112501154000004000000
B0652543200563S11650887EA0111901153000004000000
B0652583200487S11650876EA0111301145000004000000
B0653023200407S11650868EA0110101127000004000000
B0653063200326S11650861EA0109101125000004000000
B0653103200249S11650854EA0109001124000000000000
B0653143200176S11650845EA0109001126000004000000
B0653183200110S11650837EA0109301129000000000000
B0653223200046S11650830EA0109701134000000000000
B0653263159988S11650815EA0109801133000000000000
B0653303159931S11650794EA0109501128000000000000
B0653343159871S11650776EA0108801121000000000000
B0653383159807S11650763EA0109301133000000000000
B0653423159764S11650828EA0111601161000000000000
B0653463159807S11650895EA0113301170000000000000
B0653503159866S11650890EA0113701172000000000000
B0653543159881S11650843EA0114101180000000000000
B0653583159849S11650812EA0114701181000000000000
B0654023159793S11650817EA0114301175000000000000
B0654063159740S11650868EA0113901176000000000000
B0654103159711S11650950EA0114901192000000000000
B0654143159718S11651040EA0115801197000000000000
B0654183159759S11651118EA0115901199000000000000
B0654223159820S11651171EA0116501206000000000000
B0654263159874S11651159EA0117201218000000000000
B0654303159862S11651119EA0118601227000000000000
B0654343159809S11651133EA0119201235000000000000
B0654383159773S11651202EA0120101248000000000000
B0654423159780S11651289EA0120901248000000000000
B0654463159827S11651359EA0120701245000000000000
B0654503159893S11651383EA0120501247000000015000
B0654543159945S11651357EA0120601244000000015000
B0654583159959S11651306EA0120401243000000000000
B0655023159931S11651262EA0120301242000000000000
B0655063159883S11651225EA0120501245000000000000
B0655103159822S11651212EA0120601251000000000000
B0655143159792S11651283EA0122401272000004000000
B0655183159832S11651352EA0123001267000004000000
B0655223159900S11651352EA0122501267000004000000
B0655263159933S11651300EA0123201278000004000000
B0655303159905S11651254EA0123901278000004000000
B0655343159848S11651271EA0123801279000000000000
B0655383159818S11651350EA0124101286000000000000
B0655423159842S11651437EA0125101297000000000000
B0655463159902S11651485EA0125701296000000000000
B0655503159968S11651479EA0125801303000000000000
B0655543200002S11651430EA0126901318000000000000
B0655583159983S11651380EA0128001322000000000000
B0656023159929S11651378EA0128001318000004000000
B0656063159884S11651437EA0127701319000004000000
B0656103159883S11651524EA0128201328000000000000
B0656143159931S11651591EA0128401325000000000000
B0656183200001S11651619EA0128801334000000000000
B0656223200066S11651600EA0129501340000000000000
B0656263200110S11651547EA0129801339000004000000
B0656303200115S11651480EA0129601336000000000000
B0656343200082S11651424EA0129001326000000000000
B0656383200022S11651404EA0128201321000004000000
B0656423159962S11651433EA0128101322000000000000
B0656463159926S11651502EA0127601310000004000000
B0656503159928S11651591EA0126401305000000000000
B0656543159965S11651666EA0127001315000000000000
B0656583200024S11651714EA0127501316000000000000
B0657023200092S11651740EA0127301312000000000000
B0657063200160S11651760EA0127001311000004000000
B0657103200230S11651773EA0127001312000000000000
B0657143200292S11651758EA0127901327000004000000
B0657183200295S11651713EA0129101328000000000000
B0657223200245S11651705EA0128501321000000000000
B0657263200200S11651753EA0128501328000004000000
B0657303200178S11651825EA0129001329000000000000
B0657343200186S11651908EA0128801323000004000000
B0657383200218S11651987EA0128301323000004000000
B0657423200266S11652056EA0128801332000000000000
B0657463200318S11652117EA0129601339000004000000
B0657503200373S11652174EA0130001342000000000000
B0657543200435S11652191EA0130201345000004000000
B0657583200481S11652163EA0130101339000004000000
B0658023200492S11652113EA0129401330000000000000
B0658063200469S11652069EA0128901329000000000000
B0658103200422S11652054EA0129101334000000000000
B0658143200370S11652072EA0129601340000000000000
B0658183200327S11652121EA0130501349000000000000
B0658223200314S11652199EA0130801350000000000000
B0658263200340S11652281EA0131001352000000000000
B0658303200399S11652337EA0131101353000000000000
B0658343200465S11652347EA0131301354000000000000
B0658383200507S11652311EA0131401355000000000000
B0658423200507S11652260EA0131001347000000000000
B0658463200475S11652219EA0130401343000000000000
B0658503200423S11652212EA0130301347000000000000
B0658543200375S11652250EA0130801350000000000000
B0658583200349S11652327EA0130401342000000000000
B0659023200357S11652416EA0130201344000000000000
B0659063200397S11652492EA0130501346000000000000
B0659103200457S11652549EA0130301344000004000000
B0659143200527S11652581EA0130101344000004000000
B0659183200596S11652592EA0130301346000000000000
B0659223200657S11652583EA0130301344000000000000
B0659263200716S11652564EA0130001340000000000000
B0659303200780S11652546EA0128901324000000000000
B0659343200854S11652536EA0128001318000000000000
B0659383200933S11652528EA0126801304000000000000
B0659423201015S11652518EA0125201286000004000000
B0659463201103S11652506EA0123301269000000000000
B0659503201194S11652498EA0123101272000004000000
B0659543201283S11652492EA0123401273000004000000
B0659583201367S11652486EA0123301271000000000000
B0700023201453S11652486EA0123001267000000000000
B0700063201540S11652497EA0122701263000000000000
B0700103201630S11652518EA0122001256000000000000
B0700143201720S11652545EA0121801257000000000000
B0700183201808S11652570EA0121301248000000000000
B0700223201899S11652594EA0120201231000000000000
B0700263201994S11652619EA0118801220000000000000
B0700303202086S11652645EA0118601224000000000000
B0700343202175S11652670EA0119001226000000000000
B0700383202260S11652685EA0118801222000000000000
B0700423202347S11652700EA0118101216000000000000
B0700463202435S11652724EA0117901216000004000000
B0700503202519S11652750EA0117901216000000000000
B0700543202605S11652776EA0117101205000000000000
B0700583202695S11652796EA0116001193000004000000
B0701023202784S11652828EA0115501194000004000000
B0701063202865S11652883EA0116201202000000000000
B0701103202935S11652947EA0116801208000004000000
B0701143203004S11653014EA0116501201000000000000
B0701183203069S11653083EA0116201200000000000000
B0701223203133S11653151EA0115901196000000000000
B0701263203195S11653225EA0115701196000004000000
B0701303203256S11653295EA0116001200000000000000
B0701343203321S11653360EA0115701190000004000000
B0701383203386S11653430EA0114401179000004000000
B0701423203438S11653515EA0113401168000000000000
B0701463203473S11653608EA0113101169000000000000
B0701503203506S11653701EA0113201169000000000000
B0701543203533S11653794EA0113201173000000000000
B0701583203558S11653883EA0113901178000000000000
B0702023203555S11653971EA0113701171000000000000
B0702063203542S11654061EA0113201168000000000000
B0702103203576S11654147EA0113801178000000000000
B0702143203646S11654178EA0114301180000000000000
B0702183203683S11654139EA0114601183000000000000
B0702223203647S11654113EA0114701179000004000000
B0702263203598S11654160EA0114101178000000000000
B0702303203606S11654248EA0115101194000004000000
B0702343203662S11654305EA0116001199000004000000
B0702383203725S11654301EA0116201199000004000000
B0702423203745S11654261EA0116601204000004000000
B0702463203722S11654230EA0116301193000004000000
B0702503203668S11654236EA0114901181000004000000
B0702543203623S11654296EA0114501180000004000000
B0702583203629S11654386EA0115501203000004000000
B0703023203680S11654451EA0117101210000004000000
B0703063203744S11654505EA0117401212000000000000
B0703103203810S11654525EA0118101218000004000000
B0703143203844S11654488EA0118001213000004000000
B0703183203819S11654457EA0117501208000004000000
B0703223203764S11654472EA0116601197000004000000
B0703263203716S11654535EA0115601189000004000000
B0703303203693S11654626EA0115801199000004000000
B0703343203684S11654720EA0117201215000004000000
B0703383203729S11654790EA0118201214000000000000
B0703423203796S11654803EA0117101204000000000000
B0703463203836S11654765EA0116701203000000000000
B0703503203840S11654715EA0116501198000000000000
B0703543203813S11654673EA0115901192000000000000
B0703583203758S11654665EA0115401188000000000000
B0704023203711S11654729EA0115801201000000000000
B0704063203706S11654819EA0117501219000000000000
B0704103203751S11654880EA0119401232000000000000
B0704143203807S11654875EA0119301226000000000000
B0704183203827S11654833EA0119101228000000000000
B0704223203805S11654802EA0119001224000000000000
B0704263203755S11654823EA0119201231000000000000
B0704303203741S11654901EA0120001239000004000000
B0704343203785S11654967EA0120701246000000000000
B0704383203848S11654969EA0121101248000000000000
B0704423203872S11654927EA0121001244000000000000
B0704463203846S11654891EA0120701246000000000000
B0704503203797S11654898EA0121101252000000000000
B0704543203755S11654953EA0121901258000000000000
B0704583203758S11655040EA0122401264000000000000
B0705023203805S11655111EA0123001266000000000000
B0705063203874S11655166EA0122401262000000000000
B0705103203946S11655216EA0122301260000000000000
B0705143204024S11655268EA0121201248000000000000
B0705183204108S11655319EA0120301238000004000000
B0705223204192S11655369EA0119601233000004000000
B0705263204273S11655423EA0119301229000004000000
B0705303204352S11655480EA0118701220000004000000
B0705343204433S11655532EA0117901218000004000000
B0705383204511S11655580EA0118201221000004000000
B0705423204585S11655623EA0118301220000000000000
B0705463204660S11655666EA0117901216000000000000
B0705503204736S11655710EA0117701213000000000000
B0705543204810S11655756EA0117801215000000000000
B0705583204884S11655795EA0118201219000000000000
B0706023204955S11655833EA0117301198000004000000
B0706063205027S11655864EA0116301196000000000000
B0706103205097S11655895EA0114501169000000000000
B0706143205172S11655929EA0112501154000000000000
B0706183205248S11655963EA0111301144000000000000
B0706223205324S11655990EA0110601136000000000000
B0706263205405S11656015EA0109801128000004000000
B0706303205486S11656041EA0109701130000000000000
B0706343205568S11656067EA0109401126000004000000
B0706383205652S11656095EA0109201127000004000000
B0706423205735S11656116EA0109901132000000000000
B0706463205800S11656089EA0110101135000004000000
B0706503205828S11656033EA0110001130000004000000
B0706543205813S11655982EA0109801130000004000000
B0706583205765S11655967EA0109901132000004000000
B0707023205712S11656000EA0109901131000004000000
B0707063205683S11656080EA0109701129000000000000
B0707103205700S11656176EA0109001120000000000000
B0707143205751S11656262EA0108501118000000000000
B0707183205815S11656331EA0108501119000000000000
B0707223205882S11656389EA0108701122000004000000
B0707263205950S11656445EA0108701119000004000000
B0707303206020S11656498EA0108001112000004000000
B0707343206091S11656552EA0107201103000000000000
B0707383206167S11656604EA0106401095000000000000
B0707423206244S11656650EA0106101094000004000000
B0707463206324S11656691EA0105601087000004000000
B0707503206406S11656735EA0104901081000004000000
B0707543206488S11656782EA0104701079000004000000
B0707583206569S11656827EA0104501079000000000000
B0708023206649S11656870EA0104601079000000000000
B0708063206728S11656912EA0104201073000004000000
B0708103206810S11656949EA0103601065000004000000
B0708143206894S11656984EA0102901059000004000000
B0708183206977S11657018EA0102001051000000000000
B0708223207060S11657046EA0101801050000000000000
B0708263207141S11657066EA0101501047000000000000
B0708303207219S11657082EA0101301043000000000000
B0708343207298S11657092EA0100501034000000000000
B0708383207377S11657101EA0100001030000004000000
B0708423207458S11657113EA0099901029000000000000
B0708463207536S11657117EA0100101035000000000000
B0708503207601S11657104EA0101001044000000000000
B0708543207641S11657064EA0101501047000000000000
B0708583207655S11657013EA0101401045000000000000
B0709023207646S11656962EA0101301041000000000000
B0709063207610S11656932EA0100901037000000000000
B0709103207558S11656947EA0100601036000000000000
B0709143207503S11656973EA0099801022000000000000
B0709183207443S11656996EA0098801014000000000000
B0709223207381S11657018EA0098201010000000000000
B0709263207320S11657043EA0097801005000000000000
B0709303207256S11657068EA0097401003000000000000
B0709343207191S11657091EA0097200999000000000000
B0709383207129S11657114EA0097000998000000000000
B0709423207069S11657138EA0096700994000000000000
B0709463207011S11657156EA0096300991000000000000
B0709503206955S11657166EA0096300991000000000000
B0709543206899S11657176EA0095800982000000000000
B0709583206836S11657190EA0094800973000004000000
B0710023206771S11657203EA0094000964000004000000
B0710063206706S11657212EA0093600963000004000000
B0710103206645S11657221EA0093100957000000000000
B0710143206587S11657216EA0092800951000004000000
B0710183206532S11657202EA0092000945000000000000
B0710223206478S11657183EA0091600940000000000000
B0710263206422S11657168EA0091300939000000000000
B0710303206370S11657147EA0091600944000000000000
B0710343206320S11657129EA0091800943000000000000
B0710383206266S11657127EA0091800944000000000000
B0710423206210S11657163EA0091700941000000000000
B0710463206167S11657230EA0091400938000000000000
B0710503206150S11657320EA0091100934000000000000
B0710543206149S11657411EA0090900936000000000000
B0710583206153S11657503EA0090700931000000000000
B0711023206153S11657598EA0089900923000000000000
B0711063206132S11657686EA0089200917000000000000
B0711103206089S11657749EA0089000919000004000000
B0711143206036S11657768EA0089200919000000000000
B0711183205989S11657757EA0089400923000004000000
B0711223205952S11657724EA0089700925000004000000
B0711263205924S11657681EA0089800926000004000000
B0711303205891S11657636EA0089800924000004000000
B0711343205841S11657658EA0091000948000000000000
B0711383205851S11657735EA0092800960000000000000
B0711423205915S11657771EA0093300961000004000000
B0711463205964S11657744EA0093800969000000000000
B0711503205959S11657706EA0094600974000000000000
B0711543205920S11657725EA0095100979000000000000
B0711583205902S11657801EA0095000979000000000000
B0712023205917S11657885EA0095300984000000000000
B0712063205980S11657927EA0095000974000000000000
B0712103206042S11657906EA0094700974000000000000
B0712143206063S11657853EA0094700973000000000000
B0712183206049S11657801EA0094200969000000000000
B0712223206023S11657753EA0093600958000000000000
B0712263205991S11657701EA0092100944000000000000
B0712303205961S11657641EA0091300936000000000000
B0712343205933S11657577EA0090400931000000000000
B0712383205907S11657514EA0090400933000004000000
B0712423205896S11657445EA0090200928000000000000
B0712463205903S11657373EA0089700924000000000000
B0712503205926S11657304EA0089600926000000000000
B0712543205961S11657239EA0090200934000000000000
B0712583205997S11657178EA0090900935000000000000
B0713023205999S11657117EA0091300943000004000000
B0713063205960S11657095EA0092100949000004000000
B0713103205921S11657142EA0092100943000000000000
B0713143205945S11657225EA0091200933000004000000
B0713183206019S11657274EA0090000921000004000000
B0713223206103S11657283EA0089500923000004000000
B0713263206134S11657241EA0091300943000004000000
B0713303206102S11657231EA0091700942000004000000
B0713343206069S11657289EA0091600939000000000000
B0713383206077S11657374EA0091600941000000000000
B0713423206129S11657442EA0091800944000004000000
B0713463206199S11657482EA0091600942000004000000
B0713503206266S11657478EA0091600939000004000000
B0713543206309S11657438EA0091000933000004000000
B0713583206333S11657382EA0090200923000004000000
B0714023206353S11657317EA0089100914000004000000
B0714063206367S11657246EA0088200903000004000000
B0714103206380S11657169EA0087000893000004000000
B0714143206400S11657090EA0086400889000004000000
B0714183206418S11657012EA0086100887000004000000
B0714223206432S11656938EA0085800882000000000000
B0714263206448S11656861EA0085100873000000000000
B0714303206463S11656787EA0084900876000000000000
B0714343206478S11656718EA0085100875000000000000
B0714383206489S11656648EA0084400864000000000000
B0714423206501S11656572EA0083400858000000000000
B0714463206510S11656496EA0083000850000000000000
B0714503206519S11656418EA0082200847000000000000
B0714543206523S11656342EA0082000844000000000000
B0714583206522S11656272EA0082600848000000000000
B0715023206519S11656202EA0082400847000000000000
B0715063206515S11656134EA0082200846000000000000
B0715103206506S11656069EA0081900841000000000000
B0715143206504S11656003EA0081300832000004000000
B0715183206501S11655935EA0080600830000004000000
B0715223206497S11655872EA0080400827000000000000
B0715263206492S11655807EA0079800820000000000000
B0715303206487S11655740EA0079200812000000000000
B0715343206467S11655677EA0078300804000000000000
B0715383206481S11655616EA0078200806000004000000
B0715423206544S11655588EA0077200790000000000000
B0715463206624S11655595EA0076000775000004000000
B0715503206708S11655623EA0075000771000000000000
B0715543206787S11655671EA0074800769000004000000
B0715583206861S11655733EA0074300763000000000000
B0716023206934S11655800EA0073900760000004000000
B0716063207003S11655872EA0073400754000004000000
B0716103207069S11655942EA0073000750000004000000
B0716143207135S11656011EA0073100751000004000000
B0716183207199S11656077EA0072500744000000000000
B0716223207264S11656142EA0071800736000000000000
B0716263207328S11656208EA0071300730000000000000
B0716303207389S11656277EA0070900728000000000000
B0716343207446S11656349EA0070500722000004000000
B0716383207505S11656422EA0069700714000000000000
B0716423207563S11656496EA0068900707000000000000
B0716463207619S11656576EA0068900708000000000000
B0716503207657S11656670EA0069600719000000000000
B0716543207664S11656771EA0070400724000000000000
B0716583207636S11656861EA0070500727000000000000
B0717023207585S11656916EA0071000732000000000000
B0717063207529S11656939EA0071100730000004000000
B0717103207476S11656936EA0070700725000000000000
B0717143207427S11656914EA0069900714000004000000
B0717183207380S11656882EA0068800704000000000000
B0717223207338S11656840EA0068300700000000000000
B0717263207302S11656789EA0067600692000004000000
B0717303207265S11656734EA0067200689000004000000
B0717343207225S11656680EA0066900686000004000000
B0717383207168S11656663EA0068000706000004000000
B0717423207124S11656723EA0069900718000004000000
B0717463207137S11656813EA0069800715000004000000
B0717503207191S11656860EA0070200724000004000000
B0717543207233S11656840EA0070900724000000000000
B0717583207220S11656800EA0070700724000004000000
B0718023207167S11656804EA0071000728000000000000
B0718063207126S11656869EA0071200730000000000000
B0718103207122S11656958EA0071100729000000000000
B0718143207142S11657043EA0071400734000000000000
B0718183207195S11657082EA0071600735000000000000
B0718223207239S11657065EA0071700733000000000000
B0718263207237S11657025EA0071600735000000000000
B0718303207187S11657020EA0071800737000000000000
B0718343207138S11657070EA0072100740000000000000
B0718383207126S11657157EA0072300741000000000000
B0718423207148S11657243EA0072200739000000000000
B0718463207209S11657280EA0071800734000000000000
B0718503207254S11657247EA0071900740000000000000
B0718543207239S11657203EA0072500744000000000000
B0718583207186S11657200EA0072900749000000000000
B0719023207138S11657256EA0073400754000000000000
B0719063207128S11657346EA0073400754000004000000
B0719103207165S11657423EA0073600758000004000000
B0719143207225S11657439EA0073700754000004000000
B0719183207251S11657398EA0073800757000000000000
B0719223207219S11657363EA0074100761000000000000
B0719263207163S11657393EA0074700769000000000000
B0719303207137S11657473EA0074900769000000000000
B0719343207161S11657560EA0074500766000000000000
B0719383207217S11657619EA0074200763000004000000
B0719423207285S11657640EA0074500768000000000000
B0719463207345S11657625EA0075200776000000000000
B0719503207364S11657577EA0076000785000000000000
B0719543207326S11657545EA0076400783000000000000
B0719583207267S11657566EA0076700789000000000000
B0720023207222S11657627EA0077100792000000000000
B0720063207206S11657714EA0077100791000000000000
B0720103207208S11657807EA0076900792000000000000
B0720143207247S11657879EA0077800805000000000000
B0720183207304S11657902EA0078800810000000000000
B0720223207333S11657871EA0079400819000000000000
B0720263207297S11657846EA0080000821000000000000
B0720303207250S11657900EA0080300828000000000000
B0720343207263S11657984EA0081000832000000000000
B0720383207321S11658013EA0081200839000000000000
B0720423207341S11657972EA0082200850000004000000
B0720463207298S11657950EA0083100855000000000000
B0720503207245S11657993EA0083800864000000000000
B0720543207234S11658078EA0084300867000000000000
B0720583207278S11658143EA0084900879000004000000
B0721023207330S11658151EA0085700883000004000000
B0721063207343S11658108EA0086000887000004000000
B0721103207297S11658092EA0086700895000004000000
B0721143207246S11658143EA0087400898000004000000
B0721183207238S11658230EA0088100913000000000000
B0721223207276S11658294EA0089100916000000000000
B0721263207332S11658296EA0088800917000000000000
B0721303207351S11658255EA0089600926000000000000
B0721343207311S11658236EA0090500933000004000000
B0721383207267S11658294EA0091000935000000000000
B0721423207272S11658383EA0091200939000000000000
B0721463207324S11658440EA0092000951000004000000
B0721503207375S11658434EA0093000959000004000000
B0721543207386S11658390EA0093600963000004000000
B0721583207346S11658369EA0094200969000000000000
B0722023207297S11658417EA0094600971000000000000
B0722063207287S11658505EA0094600977000000000000
B0722103207325S11658574EA0095800990000000000000
B0722143207378S11658602EA0096600996000000000000
B0722183207416S11658577EA0096900998000000000000
B0722223207411S11658533EA0097201001000000000000
B0722263207363S11658515EA0097701008000004000000
B0722303207312S11658559EA0098501016000004000000
B0722343207298S11658646EA0098501010000004000000
B0722383207336S11658721EA0098801020000000000000
B0722423207391S11658745EA0099601025000000000000
B0722463207428S11658713EA0099701025000000000000
B0722503207437S11658661EA0099601024000000000000
B0722543207394S11658639EA0100501035000000000000
B0722583207343S11658686EA0101201040000000000000
B0723023207323S11658771EA0101501045000000000000
B0723063207345S11658854EA0101701045000000000000
B0723103207401S11658895EA0102101054000000000000
B0723143207447S11658880EA0102901060000000000000
B0723183207451S11658834EA0103501063000000000000
B0723223207407S11658811EA0103201058000000000000
B0723263207349S11658849EA0103401064000000000000
B0723303207325S11658933EA0103901071000000000000
B0723343207342S11659020EA0104201070000000000000
B0723383207394S11659077EA0104301079000000000000
B0723423207442S11659067EA0105501091000000000000
B0723463207434S11659029EA0106301095000000000000
B0723503207384S11659029EA0106501094000000000000
B0723543207339S11659087EA0106601098000000000000
B0723583207337S11659174EA0106701096000004000000
B0724023207378S11659245EA0106501095000004000000
B0724063207437S11659275EA0106901105000000000000
B0724103207488S11659267EA0108101117000000000000
B0724143207492S11659232EA0108601113000004000000
B0724183207441S11659233EA0108101113000004000000
B0724223207408S11659302EA0108601120000004000000
B0724263207437S11659383EA0109001124000004000000
B0724303207497S11659396EA0109601132000004000000
B0724343207521S11659357EA0110301137000000000000
B0724383207503S11659319EA0110701138000000000000
B0724423207455S11659313EA0110601141000000000000
B0724463207404S11659352EA0110701137000000000000
B0724503207367S11659426EA0110101131000000000000
B0724543207359S11659518EA0109601125000004000000
B0724583207381S11659608EA0109101121000004000000
B0725023207429S11659672EA0109001121000004000000
B0725063207489S11659698EA0108901118000004000000
B0725103207536S11659675EA0109001126000004000000
B0725143207555S11659633EA0109601127000000000000
B0725183207562S11659583EA0108901116000000000000
B0725223207551S11659525EA0107501101000000000000
B0725263207538S11659456EA0106501093000004000000
B0725303207524S11659383EA0105501080000004000000
B0725343207514S11659302EA0103901063000000000000
B0725383207499S11659219EA0102901056000004000000
B0725423207485S11659132EA0101501038000004000000
B0725463207473S11659040EA0099701023000004000000
B0725503207463S11658949EA0098701012000000000000
B0725543207449S11658858EA0097901005000000000000
B0725583207437S11658768EA0097200997000000000000
B0726023207430S11658677EA0096600990000000000000
B0726063207424S11658587EA0095900984000000000000
B0726103207417S11658496EA0095500980000000000000
B0726143207408S11658407EA0095100978000000000000
B0726183207399S11658322EA0095100979000004000000
B0726223207393S11658238EA0094900975000004000000
B0726263207385S11658154EA0094400970000004000000
B0726303207368S11658075EA0094400973000004000000
B0726343207345S11658002EA0094500970000004000000
B0726383207323S11657930EA0094100969000000000000
B0726423207302S11657861EA0094400972000000000000
B0726463207282S11657796EA0094300970000000000000
B0726503207269S11657728EA0093600961000000000000
B0726543207260S11657655EA0092600952000000000000
B0726583207254S11657582EA0092100946000000000000
B0727023207247S11657510EA0091300938000000000000
B0727063207247S11657434EA0090700930000004000000
B0727103207247S11657355EA0089900921000004000000
B0727143207239S11657277EA0089100914000004000000
B0727183207234S11657199EA0088400911000004000000
B0727223207241S11657124EA0088700913000004000000
B0727263207258S11657053EA0088900917000004000000
B0727303207273S11656986EA0089000914000004000000
B0727343207281S11656916EA0088200903000004000000
B0727383207287S11656843EA0087100895000004000000
B0727423207303S11656771EA0086800895000004000000
B0727463207336S11656708EA0086900895000000000000
B0727503207381S11656654EA0086500889000000000000
B0727543207436S11656606EA0086200887000000000000
B0727583207493S11656563EA0086200887000000000000
B0728023207546S11656519EA0086100887000000000000
B0728063207597S11656472EA0086200888000000000000
B0728103207649S11656428EA0086100887000000000000
B0728143207697S11656381EA0086300890000004000000
B0728183207724S11656328EA0086800895000004000000
B0728223207732S11656273EA0087000894000004000000
B0728263207728S11656217EA0086100884000004000000
B0728303207718S11656158EA0085200874000004000000
B0728343207719S11656093EA0084900874000004000000
B0728383207720S11656032EA0084800871000004000000
B0728423207719S11655968EA0084300862000004000000
B0728463207737S11655903EA0083500857000000000000
B0728503207776S11655847EA0083400855000000000000
B0728543207805S11655788EA0082700844000000000000
B0728583207817S11655721EA0081200832000000000000
B0729023207814S11655652EA0080800830000000000000
B0729063207804S11655586EA0080700827000000000000
B0729103207789S11655521EA0080100821000000000000
B0729143207763S11655458EA0079200813000000000000
B0729183207735S11655398EA0078400805000000000000
B0729223207707S11655337EA0077800800000000000000
B0729263207683S11655278EA0077500796000000000000
B0729303207662S11655219EA0077300793000000000000
B0729343207635S11655164EA0076500784000000000000
B0729383207605S11655110EA0076000781000000000000
B0729423207575S11655057EA0075400775000000000000
B0729463207544S11655006EA0074700767000004000000
B0729503207511S11654955EA0074000761000000000000
B0729543207477S11654904EA0073700756000000000000
B0729583207442S11654852EA0073100752000000000000
B0730023207419S11654798EA0073200755000000000000
B0730063207395S11654748EA0073700760000000000000
B0730103207354S11654721EA0074100765000000000000
B0730143207304S11654759EA0074600767000000000000
B0730183207290S11654843EA0074300760000000000000
B0730223207321S11654928EA0073200750000000000000
B0730263207376S11654995EA0072300740000004000000
B0730303207441S11655047EA0071700735000000000000
B0730343207511S11655083EA0071200727000000000000
B0730383207584S11655085EA0070300717000000000000
B0730423207649S11655062EA0069200708000000000000
B0730463207697S11655016EA0068800706000000000000
B0730503207727S11654960EA0068800705000004000000
B0730543207740S11654901EA0068500702000004000000
B0730583207731S11654842EA0067500691000004000000
B0731023207713S11654781EA0066200679000000000000
B0731063207688S11654719EA0065300668000000000000
B0731103207649S11654661EA0064600657000000000000
B0731143207599S11654609EA0063000640000000000000
B0731183207540S11654566EA0062000637000004000000
B0731223207475S11654557EA0062600645000004000000
B0731263207421S11654608EA0063300649000000000000
B0731303207406S11654703EA0062800641000000000000
B0731343207428S11654806EA0061800632000000000000
B0731383207473S11654898EA0061400631000000000000
B0731423207531S11654972EA0061100628000000000000
B0731463207593S11655036EA0060400620000000000000
B0731503207658S11655097EA0059900613000000000000
B0731543207726S11655153EA0059400609000000000000
B0731583207793S11655205EA0059000605000000000000
B0732023207840S11655283EA0058800604000000000000
B0732063207845S11655374EA0058500598000000000000
B0732103207806S11655448EA0057400586000000000000
B0732143207742S11655484EA0056200576000000000000
B0732183207679S11655492EA0055700571000000000000
B0732223207619S11655486EA0054800561000000000000
B0732263207566S11655462EA0054000552000000000000
B0732303207542S11655415EA0053300546000000000000
B0732343207570S11655370EA0052700539000000000000
B0732383207635S11655369EA0051700527000000000000
B0732423207694S11655440EA0050600517000004000000
B0732463207707S11655549EA0049800509000000000000
B0732503207681S11655651EA0049100502000004000000
B0732543207629S11655729EA0048500495000000000000
B0732583207567S11655786EA0048000492000000000000
B0733023207507S11655843EA0048300499000000000000
B0733063207450S11655902EA0048700500000000000000
B0733103207389S11655956EA0048000488000000000000
B0733143207325S11656006EA0047300486000000000000
B0733183207265S11656064EA0047600490000000000000
B0733223207207S11656123EA0047300482000000000000
B0733263207146S11656178EA0046500474000004000000
B0733303207083S11656240EA0045600465000004000000
B0733343207027S11656311EA0044800457000004000000
B0733383206981S11656396EA0044400456000004000000
B0733423206936S11656476EA0044600457000004000000
B0733463206894S11656559EA0044700463000000000000
B0733503206851S11656636EA0045200464000000000000
B0733543206809S11656713EA0044900459000004000000
B0733583206771S11656797EA0044700460000000000000
B0734023206740S11656887EA0044700458000000000000
B0734063206727S11656987EA0044100450000000000000
B0734103206734S11657092EA0043400443000000000000
B0734143206758S11657192EA0042900437000000000000
B0734183206801S11657283EA0042100428000004000000
B0734223206856S11657364EA0041100416000000000000
B0734263206926S11657424EA0040100408000000000000
B0734303206999S11657472EA0039500404000000000000
B0734343207073S11657514EA0039100400000004000000
B0734383207151S11657541EA0038600395000004000000
B0734423207224S11657542EA0037800386000004000000
B0734463207286S11657523EA0036600372000004000000
B0734503207338S11657485EA0035200359000004000000
B0734543207378S11657438EA0034100343000000000000
B0734583207408S11657384EA0032500328000004000000
B0735023207429S11657329EA0031100312000004000000
B0735063207446S11657274EA0029700300000000000000
B0735103207463S11657220EA0028200280000004000000
B0735143207480S11657161EA0026100259000000000000
B0735183207493S11657101EA0024200242000000000000
B0735223207507S11657039EA0022600227000000000000
B0735263207525S11656979EA0021200213000000000000
B0735303207542S11656923EA0020300206000000000000
B0735343207555S11656880EA0020100204000000000000
B0735383207566S11656845EA0020000203000000000000
B0735423207571S11656819EA0020000204000004000000
B0735463207571S11656802EA0020100203000004000000
B0735503207570S11656795EA0020100203000000000000
B0735543207568S11656793EA0020200203000000000000
B0735583207568S11656793EA0020100203000000000000
B0736023207568S11656793EA0020100203000000000000
B0736063207568S11656795EA0020200204000000000000
B0736103207568S11656795EA0020200204000004000000
B0736143207568S11656795EA0020100204000004000000
G00030000000B93E3600000000000000000000000000000000000000000000000
G8BC17BB850EE24F939A15A6739491C695E74D4E900000000726FEEF43C90088D
G2FAA05537C3F6E68B326E636646C6B9479F0BF00000000000000000084CC8317
