ACAM4N6
HFDTE131213
HFFXA050
HFPLTPILOT:JOHN WELSH              
HFGTYGLIDERTYPE:HORNET      
HFGIDGLIDERID:VH-GMY      
HFDTM100GPSDATUM:
HFRFWFIRMWAREVERSION:F2.6
HFRHWHARDWAREVERSION:300 Series Version 2
HFFTYFRTYPE:CAMBRIDGE AERO INSTRUMENTS, 302+
HFGPS:GARMIN,LVS-25,12,18000
HFPRSPRESSALTSENSOR:INTERSEMA, MS5534-AP, 20000
I033638FXA3941ENL4247REX
LCAMSBVER:5FWVER:F26300
C131213023539131213000103
C0000000N00000000WTAKEOFF     
C3207547S11656879EBEVAIR      
C3006799S11637549EWubin       
C3123133S11829099EBurracoppin 
C3256166S11710665ENarrogin Sil
C3207547S11656879EBEVAIR      
C0000000N00000000WLANDING     
B0244003207732S11657099EA0019700219000004000000
B0244023207732S11657099EA0019800219000004000000
B0244043207732S11657099EA0019800219000004000000
B0244063207732S11657099EA0019800219000004000000
B0244083207732S11657099EA0019700219000000000000
B0244103207732S11657099EA0019700219000004000000
B0244123207732S11657099EA0019600219000004000000
B0244143207732S11657099EA0019800219000000000000
B0244163207732S11657099EA0019800219000000000000
B0244183207732S11657099EA0019800219000000000000
B0244203207732S11657099EA0019700219000000000000
B0244223207732S11657099EA0019700219000000000000
B0244243207732S11657099EA0019800219000000000000
B0244263207732S11657099EA0019700219000000000000
B0244283207731S11657098EA0019700218000000000000
B0244313207722S11657094EA0019600218000004000000
B0244353207697S11657081EA0019500216000000000000
B0244393207658S11657059EA0019500216000000000000
B0244433207607S11657029EA0019500216000000000000
B0244473207549S11656992EA0019500215000004000000
B0244513207485S11656953EA0019700217000000000000
B0244553207419S11656914EA0020200227000000000000
B0244593207351S11656878EA0021400236000004000000
B0245033207280S11656838EA0021900244000004000000
B0245073207208S11656793EA0022700252000000000000
B0245113207141S11656735EA0024000266000000000000
B0245153207095S11656652EA0025100281000000000000
B0245193207077S11656555EA0026100298000000000000
B0245233207083S11656459EA0028000319000000000000
B0245273207117S11656370EA0030100340000000000000
B0245313207178S11656298EA0031900355000000000000
B0245353207252S11656249EA0033600378000000000000
B0245393207334S11656230EA0035700397000004000000
B0245433207419S11656243EA0036700401000004000000
B0245473207494S11656281EA0037500414000000000000
B0245513207554S11656344EA0038800424000004000000
B0245553207598S11656420EA0039400433000004000000
B0245593207629S11656502EA0040400442000000000000
B0246033207655S11656583EA0041500452000000000000
B0246073207681S11656661EA0042600467000000000000
B0246113207703S11656745EA0043400472000000000000
B0246153207722S11656828EA0044100479000000000000
B0246193207740S11656914EA0044800484000000000000
B0246233207757S11657000EA0045400489000000000000
B0246273207774S11657083EA0046700507000000000000
B0246313207783S11657169EA0048600524000000000000
B0246353207757S11657254EA0050600545000000000000
B0246393207689S11657304EA0051700557000004000000
B0246433207606S11657298EA0052900578000004000000
B0246473207534S11657243EA0055500605000000000000
B0246513207495S11657150EA0058200634000000000000
B0246553207501S11657046EA0060300649000000000000
B0246593207554S11656960EA0061300659000000000000
B0247033207637S11656923EA0062100668000000000000
B0247073207718S11656952EA0062800673000000000000
B0247113207776S11657022EA0063300682000000000000
B0247153207807S11657105EA0064700698000000000000
B0247193207814S11657194EA0066900719000000000000
B0247233207785S11657274EA0068900740000000000000
B0247273207731S11657333EA0070000751000004000000
B0247313207689S11657400EA0070500756000004000000
B0247353207718S11657468EA0071700764000000000000
B0247393207787S11657459EA0072500779000000000000
B0247433207820S11657394EA0073900787000000000000
B0247473207798S11657322EA0073900783000004000000
B0247513207736S11657299EA0073100775000004000000
B0247553207674S11657324EA0073000776000000000000
B0247593207653S11657394EA0073300777000000000000
B0248033207680S11657463EA0072700769000004000000
B0248073207745S11657481EA0072100763000000000000
B0248113207802S11657437EA0071800763000000000000
B0248153207819S11657355EA0071800766000000000000
B0248193207798S11657270EA0072000767000004000000
B0248233207745S11657224EA0072800776000004000000
B0248273207689S11657244EA0073600780000004000000
B0248313207688S11657307EA0074200786000004000000
B0248353207748S11657321EA0074100788000000000000
B0248393207783S11657259EA0074500793000000000000
B0248433207758S11657191EA0075000793000000000000
B0248473207700S11657172EA0074800791000004000000
B0248513207657S11657215EA0075600801000000000000
B0248553207679S11657273EA0076800813000004000000
B0248593207740S11657265EA0077000815000004000000
B0249033207755S11657194EA0077100819000004000000
B0249073207709S11657146EA0077600820000004000000
B0249113207657S11657173EA0077600825000004000000
B0249153207654S11657238EA0079300845000000000000
B0249193207701S11657278EA0080100847000004000000
B0249233207758S11657254EA0080700858000004000000
B0249273207768S11657186EA0081400862000004000000
B0249313207729S11657134EA0081300857000004000000
B0249353207672S11657147EA0081400864000004000000
B0249393207649S11657207EA0082800879000004000000
B0249433207681S11657264EA0083700887000004000000
B0249473207744S11657268EA0083500885000004000000
B0249513207781S11657208EA0084200893000004000000
B0249553207762S11657139EA0084600893000004000000
B0249593207703S11657114EA0084400894000004000000
B0250033207657S11657151EA0085500909000004000000
B0250073207677S11657209EA0086800919000004000000
B0250113207746S11657225EA0086500916000004000000
B0250153207804S11657176EA0086700924000004000000
B0250193207805S11657096EA0087300930000000000000
B0250233207753S11657048EA0087400927000004000000
B0250273207690S11657062EA0087900936000000000000
B0250313207666S11657122EA0089700955000000000000
B0250353207694S11657181EA0090400960000000000000
B0250393207759S11657194EA0090400964000000000000
B0250433207806S11657143EA0091600978000000000000
B0250473207797S11657074EA0091900975000000000000
B0250513207744S11657036EA0091400971000004000000
B0250553207687S11657059EA0091900979000004000000
B0250593207671S11657126EA0091900973000004000000
B0251033207718S11657178EA0091700972000004000000
B0251073207784S11657157EA0091500972000000000000
B0251113207818S11657085EA0091500973000000000000
B0251153207815S11657000EA0091600973000000000000
B0251193207770S11656942EA0091500976000000000000
B0251233207710S11656945EA0092200983000000000000
B0251273207684S11657008EA0092800986000004000000
B0251313207710S11657074EA0092800984000004000000
B0251353207772S11657101EA0092200973000004000000
B0251393207837S11657065EA0092100985000004000000
B0251433207861S11656999EA0093901000000004000000
B0251473207844S11656935EA0093800992000004000000
B0251513207797S11656891EA0093000987000000000000
B0251553207740S11656879EA0093300991000000000000
B0251593207707S11656929EA0093700994000004000000
B0252033207727S11656990EA0093600989000004000000
B0252073207787S11657020EA0092400974000000000000
B0252113207850S11656987EA0091500969000004000000
B0252153207866S11656909EA0091300971000000000000
B0252193207854S11656828EA0091400974000000000000
B0252233207817S11656763EA0091800976000000000000
B0252273207761S11656728EA0092000978000000000000
B0252313207719S11656767EA0092200981000000000000
B0252353207732S11656832EA0092200979000004000000
B0252393207788S11656874EA0091500974000004000000
B0252433207861S11656897EA0090700964000004000000
B0252473207937S11656886EA0090400965000004000000
B0252513208006S11656844EA0090800972000000000000
B0252553208034S11656765EA0091100972000000000000
B0252593208018S11656679EA0091000973000000000000
B0253033207974S11656619EA0092100984000000000000
B0253073207921S11656626EA0092600985000000000000
B0253113207901S11656685EA0092200980000000000000
B0253153207937S11656741EA0092100980000000000000
B0253193208006S11656741EA0092200987000000000000
B0253233208057S11656685EA0093300999000000000000
B0253273208058S11656607EA0094101001000000000000
B0253313208013S11656554EA0093900998000004000000
B0253353207954S11656565EA0093600997000004000000
B0253393207945S11656620EA0094601008000004000000
B0253433207992S11656658EA0094201000000000000000
B0253473208062S11656654EA0094101005000004000000
B0253513208112S11656605EA0095301020000000000000
B0253553208090S11656537EA0096301024000000000000
B0253593208036S11656529EA0095901022000000000000
B0254033208017S11656584EA0096201025000000000000
B0254073208060S11656624EA0096901034000004000000
B0254113208122S11656604EA0097201034000004000000
B0254153208143S11656531EA0097701044000004000000
B0254193208110S11656467EA0098301045000004000000
B0254233208056S11656457EA0098401047000004000000
B0254273208023S11656494EA0098401044000004000000
B0254313208035S11656550EA0097501032000004000000
B0254353208096S11656576EA0096001022000004000000
B0254393208169S11656566EA0096201028000004000000
B0254433208204S11656501EA0097601047000004000000
B0254473208174S11656436EA0098301046000000000000
B0254513208118S11656438EA0097901040000000000000
B0254553208103S11656498EA0097701044000000000000
B0254593208138S11656554EA0098101046000000000000
B0255033208204S11656567EA0098301050000000000000
B0255073208257S11656526EA0099801067000004000000
B0255113208278S11656454EA0100601068000004000000
B0255153208256S11656380EA0100001063000000000000
B0255193208204S11656338EA0099901062000004000000
B0255233208149S11656337EA0100001063000004000000
B0255273208112S11656373EA0099901060000004000000
B0255313208112S11656433EA0098901046000004000000
B0255353208153S11656480EA0098101043000004000000
B0255393208220S11656494EA0097601038000000000000
B0255433208285S11656472EA0097701044000004000000
B0255473208317S11656403EA0098301049000004000000
B0255513208295S11656325EA0098001044000004000000
B0255553208239S11656292EA0097701042000000000000
B0255593208179S11656305EA0097301036000000000000
B0256033208129S11656344EA0096701030000000000000
B0256073208080S11656389EA0096701034000000000000
B0256113208034S11656436EA0097301039000004000000
B0256153207996S11656489EA0097801045000004000000
B0256193207989S11656550EA0098901056000004000000
B0256233208031S11656592EA0099501056000004000000
B0256273208099S11656588EA0098601049000004000000
B0256313208148S11656524EA0098701055000004000000
B0256353208147S11656444EA0099701064000004000000
B0256393208101S11656403EA0099501058000004000000
B0256433208049S11656431EA0097901043000000000000
B0256473208018S11656490EA0098001049000004000000
B0256513208005S11656555EA0099001058000000000000
B0256553208028S11656617EA0098901051000000000000
B0256593208091S11656639EA0098701050000000000000
B0257033208152S11656601EA0099101055000000000000
B0257073208201S11656536EA0098701050000000000000
B0257113208222S11656451EA0098201048000004000000
B0257153208197S11656375EA0099101058000004000000
B0257193208136S11656363EA0098501048000004000000
B0257233208099S11656420EA0097901045000004000000
B0257273208127S11656481EA0098501056000004000000
B0257313208190S11656496EA0098901053000000000000
B0257353208239S11656441EA0098501049000000000000
B0257393208221S11656362EA0098501054000000000000
B0257433208166S11656319EA0098901049000000000000
B0257473208103S11656325EA0097701038000000000000
B0257513208056S11656377EA0096901034000004000000
B0257553208035S11656448EA0096801033000004000000
B0257593208036S11656526EA0096601032000004000000
B0258033208052S11656602EA0096001021000000000000
B0258073208096S11656667EA0096001022000000000000
B0258113208161S11656692EA0096901032000000000000
B0258153208233S11656684EA0096901032000004000000
B0258193208295S11656641EA0097901045000000000000
B0258233208287S11656567EA0098201038000004000000
B0258273208226S11656557EA0096701025000004000000
B0258313208184S11656614EA0097301038000004000000
B0258353208196S11656685EA0098501049000004000000
B0258393208255S11656719EA0099101052000004000000
B0258433208320S11656691EA0099201053000000000000
B0258473208333S11656619EA0100201066000000000000
B0258513208286S11656588EA0100401065000004000000
B0258553208252S11656639EA0100801072000000000000
B0258593208301S11656689EA0101001073000000000000
B0259033208365S11656653EA0101701082000004000000
B0259073208370S11656581EA0102601089000004000000
B0259113208320S11656548EA0102201081000000000000
B0259153208269S11656588EA0102001087000000000000
B0259193208274S11656662EA0103001096000004000000
B0259233208334S11656701EA0103401100000004000000
B0259273208407S11656689EA0103701104000000000000
B0259313208437S11656626EA0104601114000004000000
B0259353208402S11656572EA0104501108000004000000
B0259393208339S11656572EA0103301097000004000000
B0259433208273S11656604EA0103001100000004000000
B0259473208209S11656641EA0103201099000000000000
B0259513208145S11656685EA0102001085000004000000
B0259553208078S11656731EA0101301075000000000000
B0259593208008S11656774EA0101101081000000000000
B0300033207943S11656812EA0101801084000000000000
B0300073207876S11656849EA0101001069000000000000
B0300113207805S11656890EA0099501055000004000000
B0300153207731S11656921EA0098801053000000000000
B0300193207657S11656944EA0098201045000004000000
B0300233207579S11656969EA0097101032000004000000
B0300273207499S11656990EA0096201024000004000000
B0300313207417S11657010EA0095701016000000000000
B0300353207337S11657030EA0095301011000000000000
B0300393207255S11657047EA0094301003000000000000
B0300433207174S11657061EA0093901001000000000000
B0300473207099S11657081EA0094301010000004000000
B0300513207030S11657105EA0094701004000004000000
B0300553206961S11657138EA0093300990000000000000
B0300593206894S11657176EA0092300981000004000000
B0301033206829S11657222EA0091200971000004000000
B0301073206765S11657272EA0091200978000004000000
B0301113206710S11657317EA0093200995000004000000
B0301153206666S11657368EA0093801001000004000000
B0301193206621S11657421EA0093600996000004000000
B0301233206571S11657473EA0093200990000000000000
B0301273206519S11657525EA0093100997000000000000
B0301313206466S11657564EA0094501010000004000000
B0301353206413S11657601EA0094601005000004000000
B0301393206358S11657641EA0093600993000004000000
B0301433206293S11657670EA0092300980000004000000
B0301473206221S11657684EA0091300969000000000000
B0301513206146S11657685EA0090600965000000000000
B0301553206072S11657680EA0090700964000004000000
B0301593205998S11657684EA0089900954000004000000
B0302033205921S11657696EA0088900943000004000000
B0302073205843S11657711EA0088200937000000000000
B0302113205770S11657745EA0088000937000004000000
B0302153205703S11657784EA0087000927000004000000
B0302193205631S11657814EA0086300918000000000000
B0302233205558S11657833EA0085900915000000000000
B0302273205482S11657848EA0084700899000004000000
B0302313205401S11657841EA0083800892000004000000
B0302353205322S11657824EA0084300902000004000000
B0302393205249S11657831EA0084900909000004000000
B0302433205180S11657855EA0085400909000004000000
B0302473205113S11657889EA0085300911000004000000
B0302513205070S11657946EA0087000925000004000000
B0302553205102S11658013EA0087000922000000000000
B0302593205174S11658008EA0086900923000000000000
B0303033205213S11657943EA0086800919000000000000
B0303073205194S11657865EA0085900911000000000000
B0303113205157S11657790EA0085100904000000000000
B0303153205101S11657738EA0085600913000000000000
B0303193205048S11657761EA0087800935000000000000
B0303233205077S11657815EA0088500940000000000000
B0303273205142S11657792EA0088700944000004000000
B0303313205155S11657712EA0089300951000000000000
B0303353205107S11657675EA0090400965000000000000
B0303393205077S11657731EA0091200968000000000000
B0303433205124S11657774EA0091600977000004000000
B0303473205183S11657738EA0092800990000004000000
B0303513205191S11657660EA0093500994000000000000
B0303553205144S11657614EA0094101004000000000000
B0303593205096S11657642EA0094501002000004000000
B0304033205096S11657710EA0094300999000000000000
B0304073205153S11657735EA0094701006000004000000
B0304113205204S11657683EA0094801010000000000000
B0304153205189S11657606EA0095501015000000000000
B0304193205132S11657603EA0096101021000004000000
B0304233205124S11657670EA0096501026000004000000
B0304273205176S11657707EA0097101032000000000000
B0304313205235S11657675EA0097401036000000000000
B0304353205235S11657595EA0097801042000000000000
B0304393205180S11657571EA0098801051000000000000
B0304433205154S11657628EA0099001052000000000000
B0304473205194S11657680EA0099301054000004000000
B0304513205259S11657663EA0099601062000004000000
B0304553205284S11657594EA0100401071000000000000
B0304593205257S11657527EA0101001074000004000000
B0305033205200S11657506EA0101001073000004000000
B0305073205158S11657553EA0101001073000004000000
B0305113205181S11657619EA0101001074000004000000
B0305153205244S11657637EA0101101074000004000000
B0305193205295S11657586EA0100801075000004000000
B0305233205309S11657506EA0101201079000004000000
B0305273205287S11657430EA0101501078000004000000
B0305313205226S11657411EA0100901072000004000000
B0305353205181S11657456EA0100701072000004000000
B0305393205191S11657527EA0100701072000004000000
B0305433205250S11657559EA0100501070000004000000
B0305473205315S11657524EA0100101066000004000000
B0305513205337S11657441EA0100101068000004000000
B0305553205328S11657354EA0100101067000004000000
B0305593205284S11657294EA0100101065000004000000
B0306033205220S11657290EA0099401055000004000000
B0306073205158S11657316EA0098101042000004000000
B0306113205093S11657346EA0096501028000004000000
B0306153205022S11657376EA0095201015000004000000
B0306193204949S11657408EA0094001005000000000000
B0306233204875S11657439EA0093600997000000000000
B0306273204799S11657469EA0092300987000000000000
B0306313204728S11657499EA0092800993000000000000
B0306353204665S11657542EA0093601002000000000000
B0306393204609S11657595EA0093400990000000000000
B0306433204548S11657647EA0092000980000000000000
B0306473204485S11657694EA0091500978000000000000
B0306513204427S11657748EA0091300975000000000000
B0306553204375S11657809EA0090600963000000000000
B0306593204312S11657861EA0089200951000004000000
B0307033204243S11657897EA0089300955000000000000
B0307073204180S11657935EA0089800958000000000000
B0307113204123S11657978EA0089800958000000000000
B0307153204071S11658026EA0089500950000000000000
B0307193204013S11658070EA0088200935000000000000
B0307233203945S11658100EA0087600936000000000000
B0307273203883S11658135EA0087800935000000000000
B0307313203827S11658180EA0087400929000000000000
B0307353203767S11658222EA0086600922000000000000
B0307393203697S11658249EA0085000899000000000000
B0307433203614S11658255EA0083600894000000000000
B0307473203530S11658249EA0083500889000000000000
B0307513203447S11658240EA0082500876000000000000
B0307553203363S11658227EA0081900872000004000000
B0307593203280S11658217EA0081500868000004000000
B0308033203199S11658217EA0081500871000004000000
B0308073203124S11658240EA0082100879000004000000
B0308113203059S11658281EA0083700891000004000000
B0308153203060S11658353EA0085200907000004000000
B0308193203118S11658372EA0085400905000004000000
B0308233203159S11658313EA0084700898000000000000
B0308273203150S11658234EA0084600900000000000000
B0308313203100S11658179EA0085600910000000000000
B0308353203044S11658200EA0086300914000000000000
B0308393203043S11658273EA0085900909000000000000
B0308433203096S11658310EA0085300904000000000000
B0308473203157S11658273EA0084100891000000000000
B0308513203194S11658193EA0083500893000000000000
B0308553203195S11658106EA0084900908000000000000
B0308593203138S11658087EA0086000915000000000000
B0309033203117S11658144EA0086500919000004000000
B0309073203172S11658178EA0086000913000000000000
B0309113203204S11658106EA0086200921000000000000
B0309153203151S11658063EA0087600936000000000000
B0309193203103S11658102EA0088600942000000000000
B0309233203114S11658169EA0089000947000000000000
B0309273203174S11658192EA0089000945000000000000
B0309313203224S11658135EA0088800947000000000000
B0309353203207S11658057EA0089500954000004000000
B0309393203152S11658006EA0089800959000000000000
B0309433203092S11658023EA0090400961000000000000
B0309473203079S11658092EA0090800965000004000000
B0309513203130S11658132EA0090700968000000000000
B0309553203189S11658096EA0091300971000000000000
B0309593203190S11658019EA0091800979000000000000
B0310033203138S11657979EA0092100977000000000000
B0310073203083S11658010EA0091900980000000000000
B0310113203092S11658075EA0092300981000004000000
B0310153203153S11658093EA0091600974000000000000
B0310193203226S11658075EA0091600977000000000000
B0310233203281S11658015EA0092300986000004000000
B0310273203268S11657939EA0093300998000004000000
B0310313203209S11657937EA0094001000000004000000
B0310353203189S11658002EA0094001000000004000000
B0310393203231S11658053EA0094201004000004000000
B0310433203299S11658035EA0094501007000004000000
B0310473203325S11657957EA0094701013000004000000
B0310513203283S11657900EA0096301027000000000000
B0310553203230S11657917EA0096801025000000000000
B0310593203222S11657982EA0096201022000000000000
B0311033203272S11658023EA0096401025000000000000
B0311073203332S11657984EA0096601024000000000000
B0311113203341S11657897EA0096301027000000000000
B0311153203299S11657831EA0097601040000000000000
B0311193203239S11657831EA0097601032000000000000
B0311233203208S11657888EA0096601023000000000000
B0311273203246S11657945EA0096001022000000000000
B0311313203317S11657940EA0095601017000000000000
B0311353203387S11657894EA0094801012000000000000
B0311393203452S11657836EA0095501020000004000000
B0311433203468S11657754EA0095901020000000000000
B0311473203417S11657710EA0095401014000004000000
B0311513203360S11657737EA0094501001000004000000
B0311553203300S11657787EA0092900988000004000000
B0311593203242S11657842EA0092400986000000000000
B0312033203189S11657901EA0092500986000000000000
B0312073203137S11657959EA0091600974000000000000
B0312113203081S11658017EA0091100967000000000000
B0312153203018S11658073EA0089700952000000000000
B0312193202944S11658115EA0088900952000000000000
B0312233202884S11658174EA0089000951000000000000
B0312273202821S11658231EA0088600949000004000000
B0312313202754S11658286EA0088700949000004000000
B0312353202689S11658342EA0088200945000004000000
B0312393202632S11658399EA0088800949000004000000
B0312433202580S11658461EA0088500944000004000000
B0312473202524S11658520EA0088600948000000000000
B0312513202470S11658572EA0088900948000004000000
B0312553202418S11658630EA0088000934000004000000
B0312593202366S11658693EA0086400919000000000000
B0313033202298S11658730EA0085800919000004000000
B0313073202228S11658743EA0085900914000004000000
B0313113202156S11658738EA0085000904000000000000
B0313153202085S11658720EA0084100893000000000000
B0313193202012S11658694EA0082700876000000000000
B0313233201938S11658655EA0081000859000000000000
B0313273201865S11658609EA0080300855000000000000
B0313313201795S11658572EA0080500858000000000000
B0313353201726S11658538EA0080200851000000000000
B0313393201656S11658504EA0079800844000000000000
B0313433201584S11658466EA0078600831000004000000
B0313473201512S11658427EA0077800826000004000000
B0313513201437S11658387EA0078200832000000000000
B0313553201366S11658387EA0079700848000000000000
B0313593201359S11658456EA0081300861000000000000
B0314033201424S11658474EA0080300846000000000000
B0314073201480S11658412EA0079300841000004000000
B0314113201493S11658325EA0079400844000004000000
B0314153201461S11658255EA0080200856000004000000
B0314193201411S11658286EA0080600852000004000000
B0314233201440S11658348EA0081100867000004000000
B0314273201497S11658338EA0083000881000004000000
B0314313201518S11658271EA0082900878000004000000
B0314353201482S11658221EA0083300888000004000000
B0314393201435S11658247EA0083800888000004000000
B0314433201440S11658313EA0083700892000004000000
B0314473201495S11658334EA0085200908000004000000
B0314513201538S11658286EA0085000897000004000000
B0314553201522S11658216EA0084400901000000000000
B0314593201471S11658206EA0085500907000004000000
B0315033201443S11658261EA0085300904000004000000
B0315073201467S11658322EA0085800914000000000000
B0315113201523S11658336EA0086300914000000000000
B0315153201562S11658281EA0085500907000000000000
B0315193201544S11658214EA0085400907000000000000
B0315233201491S11658200EA0085300906000000000000
B0315273201435S11658231EA0084600899000000000000
B0315313201391S11658284EA0084400899000000000000
B0315353201413S11658353EA0085000910000004000000
B0315393201474S11658392EA0085300906000004000000
B0315433201544S11658369EA0084800902000000000000
B0315473201569S11658295EA0084800903000000000000
B0315513201540S11658226EA0084500896000000000000
B0315553201480S11658213EA0084000892000000000000
B0315593201419S11658240EA0082700882000004000000
B0316033201365S11658286EA0083500891000000000000
B0316073201372S11658349EA0085900914000004000000
B0316113201432S11658361EA0085100901000000000000
B0316153201483S11658301EA0083900890000004000000
B0316193201499S11658214EA0083500893000004000000
B0316233201475S11658141EA0084200896000004000000
B0316273201421S11658125EA0084300893000004000000
B0316313201376S11658167EA0083200883000004000000
B0316353201332S11658223EA0083200889000004000000
B0316393201292S11658278EA0083900893000004000000
B0316433201309S11658342EA0084400900000004000000
B0316473201375S11658344EA0085200907000000000000
B0316513201430S11658290EA0084800901000000000000
B0316553201437S11658206EA0084300898000004000000
B0316593201395S11658157EA0084600899000000000000
B0317033201335S11658162EA0083900893000000000000
B0317073201284S11658204EA0083800894000000000000
B0317113201297S11658268EA0085000909000000000000
B0317153201359S11658286EA0085600909000000000000
B0317193201417S11658235EA0085500909000000000000
B0317233201428S11658153EA0085300904000000000000
B0317273201389S11658087EA0085200907000000000000
B0317313201333S11658079EA0086500920000000000000
B0317353201314S11658130EA0086700919000000000000
B0317393201361S11658174EA0086500920000000000000
B0317433201427S11658151EA0086800921000000000000
B0317473201454S11658074EA0086500920000000000000
B0317513201423S11658002EA0086600920000000000000
B0317553201366S11657988EA0086900928000000000000
B0317593201339S11658031EA0088200940000000000000
B0318033201370S11658078EA0088300935000000000000
B0318073201434S11658075EA0088100937000000000000
B0318113201482S11658017EA0088400939000004000000
B0318153201482S11657937EA0088300940000004000000
B0318193201432S11657894EA0088600941000004000000
B0318233201385S11657920EA0088900944000000000000
B0318273201395S11657978EA0089900955000004000000
B0318313201452S11657992EA0090000953000004000000
B0318353201505S11657941EA0090000955000004000000
B0318393201515S11657866EA0090400960000004000000
B0318433201479S11657811EA0090400955000000000000
B0318473201426S11657802EA0089600945000000000000
B0318513201376S11657833EA0087900928000000000000
B0318553201328S11657887EA0086400917000000000000
B0318593201283S11657946EA0085600909000000000000
B0319033201241S11658008EA0086100916000000000000
B0319073201198S11658065EA0086200913000000000000
B0319113201151S11658126EA0084800901000004000000
B0319153201107S11658187EA0084800905000000000000
B0319193201066S11658245EA0085100900000000000000
B0319233201027S11658308EA0084100892000000000000
B0319273200990S11658369EA0084400897000000000000
B0319313200955S11658429EA0084500894000004000000
B0319353200924S11658495EA0084300893000004000000
B0319393200886S11658557EA0083500885000004000000
B0319433200849S11658617EA0083000880000000000000
B0319473200808S11658673EA0082200871000000000000
B0319513200771S11658734EA0081200856000004000000
B0319553200726S11658793EA0079700842000004000000
B0319593200663S11658816EA0079400844000004000000
B0320033200600S11658806EA0079700844000000000000
B0320073200543S11658773EA0079100837000004000000
B0320113200485S11658733EA0078100825000004000000
B0320153200423S11658697EA0076800813000004000000
B0320193200358S11658660EA0075700801000004000000
B0320233200293S11658628EA0074900791000000000000
B0320273200227S11658596EA0073900781000000000000
B0320313200160S11658570EA0073100769000000000000
B0320353200088S11658550EA0071600753000000000000
B0320393200015S11658529EA0070900752000000000000
B0320433159944S11658512EA0071500761000000000000
B0320473159879S11658520EA0072400769000000000000
B0320513159818S11658544EA0072700772000000000000
B0320553159759S11658573EA0073800782000000000000
B0320593159753S11658634EA0075600798000000000000
B0321033159811S11658639EA0075600795000000000000
B0321073159838S11658568EA0075200795000000000000
B0321113159802S11658513EA0075800800000000000000
B0321153159744S11658520EA0075800799000000000000
B0321193159721S11658580EA0075800803000000000000
B0321233159766S11658632EA0076700816000000000000
B0321273159825S11658612EA0077900825000000000000
B0321313159833S11658542EA0078000822000000000000
B0321353159780S11658520EA0077600819000000000000
B0321393159751S11658573EA0078300827000000000000
B0321433159785S11658628EA0079100836000000000000
B0321473159844S11658621EA0080100846000000000000
B0321513159875S11658559EA0079900841000004000000
B0321553159842S11658502EA0079700843000000000000
B0321593159785S11658496EA0079800843000000000000
B0322033159757S11658547EA0080000845000000000000
B0322073159796S11658596EA0080700854000000000000
B0322113159853S11658568EA0081100856000000000000
B0322153159867S11658494EA0080900853000000000000
B0322193159822S11658451EA0081200860000000000000
B0322233159780S11658483EA0081900866000000000000
B0322273159796S11658543EA0082000867000004000000
B0322313159855S11658552EA0082500873000000000000
B0322353159898S11658499EA0082500870000000000000
B0322393159892S11658422EA0082100870000000000000
B0322433159849S11658370EA0082300872000000000000
B0322473159788S11658368EA0081800863000000000000
B0322513159724S11658390EA0080900855000000000000
B0322553159685S11658447EA0081100858000000000000
B0322593159716S11658508EA0081200854000000000000
B0323033159789S11658492EA0080400855000000000000
B0323073159855S11658444EA0080600859000000000000
B0323113159922S11658396EA0081000864000000000000
B0323153159978S11658339EA0082200873000000000000
B0323193159974S11658265EA0082600874000000000000
B0323233159919S11658248EA0081800864000000000000
B0323273159859S11658281EA0080400853000000000000
B0323313159799S11658327EA0079600845000000000000
B0323353159745S11658379EA0079200842000000000000
B0323393159690S11658431EA0079000838000000000000
B0323433159629S11658472EA0078600834000000000000
B0323473159571S11658503EA0079500847000000000000
B0323513159520S11658535EA0080200847000000000000
B0323553159472S11658573EA0079300834000000000000
B0323593159424S11658617EA0077900822000000000000
B0324033159372S11658656EA0077000814000000000000
B0324073159322S11658699EA0076200804000000000000
B0324113159279S11658754EA0074900790000000000000
B0324153159226S11658799EA0072800767000000000000
B0324193159165S11658833EA0071600757000000000000
B0324233159104S11658860EA0071000749000000000000
B0324273159042S11658881EA0070000736000000000000
B0324313158978S11658899EA0069300731000000000000
B0324353158917S11658923EA0068600720000000000000
B0324393158856S11658950EA0068900729000000000000
B0324433158800S11658975EA0069700734000000000000
B0324473158746S11659005EA0069600731000004000000
B0324513158719S11659064EA0069700736000004000000
B0324553158765S11659106EA0070600747000004000000
B0324593158822S11659072EA0071200756000004000000
B0325033158821S11659003EA0072100767000000000000
B0325073158771S11658984EA0072700768000000000000
B0325113158741S11659035EA0072700770000000000000
B0325153158770S11659093EA0072900773000004000000
B0325193158832S11659098EA0073700783000004000000
B0325233158874S11659044EA0074500791000000000000
B0325273158858S11658972EA0075000795000000000000
B0325313158804S11658954EA0075700802000004000000
B0325353158774S11659006EA0075900806000004000000
B0325393158805S11659061EA0076200811000004000000
B0325433158867S11659050EA0077200821000004000000
B0325473158893S11658979EA0077600828000004000000
B0325513158862S11658919EA0078800839000000000000
B0325553158811S11658927EA0079500844000000000000
B0325593158798S11658986EA0079300842000000000000
B0326033158840S11659036EA0079800852000000000000
B0326073158899S11659025EA0081000861000000000000
B0326113158934S11658963EA0081800870000000000000
B0326153158910S11658905EA0082700879000000000000
B0326193158857S11658902EA0082600874000004000000
B0326233158831S11658959EA0082500878000004000000
B0326273158862S11659011EA0083500890000000000000
B0326313158923S11659007EA0084100894000000000000
B0326353158964S11658949EA0084400900000000000000
B0326393158947S11658881EA0085600914000004000000
B0326433158896S11658868EA0086100915000004000000
B0326473158858S11658912EA0086100916000000000000
B0326513158865S11658976EA0086900924000000000000
B0326553158915S11659006EA0087700932000000000000
B0326593158973S11658977EA0087900936000000000000
B0327033158987S11658906EA0088500946000000000000
B0327073158943S11658872EA0089500950000004000000
B0327113158899S11658907EA0089500952000000000000
B0327153158902S11658968EA0090300960000004000000
B0327193158954S11659001EA0090300958000004000000
B0327233159019S11658977EA0090400963000004000000
B0327273159056S11658912EA0090700965000004000000
B0327313159036S11658842EA0091100969000000000000
B0327353158983S11658846EA0092000976000004000000
B0327393158965S11658908EA0092200979000004000000
B0327433159006S11658957EA0092200980000004000000
B0327473159071S11658940EA0092300982000000000000
B0327513159103S11658868EA0092500984000004000000
B0327553159079S11658794EA0092300984000000000000
B0327593159023S11658764EA0093200992000004000000
B0328033158970S11658782EA0093600993000004000000
B0328073158943S11658842EA0093600993000000000000
B0328113158967S11658905EA0093500994000004000000
B0328153159030S11658921EA0093901001000004000000
B0328193159088S11658880EA0094001006000004000000
B0328233159104S11658806EA0094701010000000000000
B0328273159061S11658756EA0094601008000000000000
B0328313159006S11658773EA0094601010000000000000
B0328353158990S11658837EA0095101015000000000000
B0328393159026S11658892EA0095501017000000000000
B0328433159090S11658893EA0095801019000000000000
B0328473159139S11658840EA0095501018000000000000
B0328513159172S11658763EA0095501015000000000000
B0328553159170S11658681EA0095901020000000000000
B0328593159125S11658634EA0095801016000000000000
B0329033159073S11658660EA0095101007000004000000
B0329073159042S11658725EA0093800998000000000000
B0329113159001S11658789EA0093200994000004000000
B0329153158956S11658843EA0093300996000004000000
B0329193158909S11658897EA0093400997000004000000
B0329233158879S11658958EA0095001013000004000000
B0329273158918S11659011EA0096201021000004000000
B0329313158979S11658983EA0096801030000004000000
B0329353158990S11658908EA0097101030000004000000
B0329393158944S11658858EA0096501024000000000000
B0329433158883S11658862EA0096601026000000000000
B0329473158848S11658916EA0095601012000000000000
B0329513158809S11658977EA0094401001000000000000
B0329553158756S11659024EA0093200989000000000000
B0329593158697S11659059EA0092700984000000000000
B0330033158636S11659089EA0092000972000000000000
B0330073158572S11659124EA0090600959000000000000
B0330113158503S11659150EA0089200943000000000000
B0330153158429S11659161EA0087800932000004000000
B0330193158353S11659157EA0087200924000004000000
B0330233158276S11659144EA0086400916000000000000
B0330273158200S11659123EA0085600907000000000000
B0330313158126S11659101EA0085000897000000000000
B0330353158051S11659079EA0083700880000000000000
B0330393157973S11659053EA0082000865000000000000
B0330433157895S11659027EA0081300863000004000000
B0330473157820S11658998EA0081200859000004000000
B0330513157745S11658989EA0081400866000004000000
B0330553157678S11659005EA0082200870000004000000
B0330593157615S11659029EA0082500873000004000000
B0331033157554S11659054EA0083300881000004000000
B0331073157530S11659110EA0084900898000004000000
B0331113157573S11659153EA0085700903000000000000
B0331153157636S11659127EA0085300900000000000000
B0331193157667S11659049EA0084600896000004000000
B0331233157648S11658977EA0084700900000000000000
B0331273157596S11658957EA0084700896000000000000
B0331313157539S11658971EA0083100875000000000000
B0331353157472S11658983EA0081000854000000000000
B0331393157402S11658979EA0079700841000000000000
B0331433157331S11658962EA0078700830000000000000
B0331473157257S11658941EA0077100812000004000000
B0331513157181S11658920EA0075400797000004000000
B0331553157106S11658899EA0074900793000000000000
B0331593157034S11658876EA0074600785000000000000
B0332033156963S11658851EA0073500770000004000000
B0332073156891S11658823EA0072300761000000000000
B0332113156820S11658795EA0071700754000000000000
B0332153156747S11658769EA0070600742000000000000
B0332193156672S11658742EA0069600735000000000000
B0332233156598S11658717EA0069500736000000000000
B0332273156526S11658715EA0069900738000000000000
B0332313156455S11658724EA0069700739000004000000
B0332353156388S11658737EA0070200740000004000000
B0332393156322S11658756EA0069400727000000000000
B0332433156250S11658780EA0068800725000000000000
B0332473156180S11658812EA0068600721000000000000
B0332513156109S11658845EA0067500708000000000000
B0332553156033S11658869EA0066500698000004000000
B0332593155958S11658885EA0066200697000004000000
B0333033155886S11658886EA0066100694000004000000
B0333073155818S11658873EA0065800687000000000000
B0333113155747S11658854EA0064900679000000000000
B0333153155677S11658842EA0064500675000000000000
B0333193155608S11658825EA0063500664000000000000
B0333233155539S11658810EA0063200669000004000000
B0333273155487S11658850EA0066400705000004000000
B0333313155506S11658918EA0068500720000004000000
B0333353155571S11658924EA0069500733000000000000
B0333393155610S11658868EA0070000737000000000000
B0333433155587S11658810EA0070000739000000000000
B0333473155541S11658827EA0071600758000004000000
B0333513155551S11658894EA0072600766000004000000
B0333553155616S11658914EA0073200772000004000000
B0333593155659S11658858EA0073600775000004000000
B0334033155639S11658799EA0073700780000004000000
B0334073155593S11658808EA0075000794000004000000
B0334113155584S11658876EA0075500798000004000000
B0334153155632S11658923EA0076700812000004000000
B0334193155691S11658895EA0077100812000004000000
B0334233155704S11658827EA0076900807000004000000
B0334273155667S11658778EA0076900815000004000000
B0334313155615S11658788EA0078100826000004000000
B0334353155607S11658858EA0079000835000004000000
B0334393155660S11658901EA0079900846000000000000
B0334433155720S11658872EA0080600855000000000000
B0334473155734S11658804EA0080800855000000000000
B0334513155690S11658765EA0081200863000000000000
B0334553155643S11658793EA0082800884000000000000
B0334593155642S11658860EA0083600881000004000000
B0335033155699S11658906EA0083200889000004000000
B0335073155759S11658879EA0084800904000004000000
B0335113155771S11658812EA0084800900000004000000
B0335153155727S11658772EA0085000909000004000000
B0335193155673S11658791EA0086200922000004000000
B0335233155655S11658858EA0086800923000004000000
B0335273155693S11658919EA0087200929000004000000
B0335313155756S11658910EA0087500928000004000000
B0335353155792S11658846EA0087400926000004000000
B0335393155776S11658776EA0087400926000004000000
B0335433155725S11658777EA0088600940000004000000
B0335473155715S11658851EA0088900940000000000000
B0335513155767S11658901EA0089500950000000000000
B0335553155823S11658863EA0091300969000004000000
B0335593155827S11658795EA0091600970000000000000
B0336033155777S11658764EA0091400971000000000000
B0336073155727S11658802EA0091800977000000000000
B0336113155714S11658873EA0092700985000000000000
B0336153155758S11658933EA0092500982000000000000
B0336193155825S11658937EA0093400997000000000000
B0336233155868S11658885EA0094100997000004000000
B0336273155867S11658814EA0093900997000004000000
B0336313155823S11658778EA0094401003000004000000
B0336353155777S11658812EA0095101008000000000000
B0336393155777S11658888EA0094901009000000000000
B0336433155831S11658933EA0096101022000004000000
B0336473155892S11658910EA0096701029000004000000
B0336513155915S11658843EA0096901025000004000000
B0336553155885S11658788EA0096401024000000000000
B0336593155833S11658798EA0096901030000000000000
B0337033155831S11658872EA0097001030000000000000
B0337073155889S11658920EA0097401040000000000000
B0337113155957S11658903EA0098301048000000000000
B0337153155987S11658837EA0098501045000000000000
B0337193155964S11658768EA0098401047000000000000
B0337233155914S11658763EA0099501058000000000000
B0337273155889S11658823EA0099901059000000000000
B0337313155927S11658882EA0100001061000000000000
B0337353155993S11658869EA0100401070000000000000
B0337393156023S11658802EA0100801071000000000000
B0337433155997S11658742EA0101001078000000000000
B0337473155946S11658752EA0101801084000000000000
B0337513155935S11658819EA0102001084000000000000
B0337553155979S11658873EA0102001086000004000000
B0337593156045S11658867EA0102701092000004000000
B0338033156084S11658810EA0102801089000000000000
B0338073156074S11658739EA0102501088000000000000
B0338113156022S11658713EA0103101097000000000000
B0338153155981S11658755EA0104101110000000000000
B0338193155988S11658823EA0104901111000000000000
B0338233156044S11658860EA0104501108000000000000
B0338273156105S11658828EA0104701109000000000000
B0338313156124S11658756EA0104701108000000000000
B0338353156100S11658690EA0104801110000004000000
B0338393156050S11658655EA0105001111000000000000
B0338433155992S11658674EA0104801114000004000000
B0338473155944S11658733EA0103901098000004000000
B0338513155880S11658790EA0101401076000004000000
B0338553155801S11658828EA0100001062000004000000
B0338593155716S11658849EA0099701060000004000000
B0339033155630S11658860EA0099401053000004000000
B0339073155542S11658859EA0098101039000004000000
B0339113155454S11658851EA0097601041000004000000
B0339153155366S11658843EA0097501032000000000000
B0339193155279S11658832EA0096301019000000000000
B0339233155194S11658817EA0095701015000004000000
B0339273155109S11658803EA0095201008000004000000
B0339313155028S11658784EA0095301010000000000000
B0339353154953S11658759EA0095301008000004000000
B0339393154882S11658730EA0095001003000004000000
B0339433154813S11658697EA0094300993000000000000
B0339473154744S11658658EA0093600986000000000000
B0339513154677S11658615EA0092400973000000000000
B0339553154611S11658568EA0091100960000000000000
B0339593154546S11658520EA0090200950000004000000
B0340033154484S11658470EA0089300940000000000000
B0340073154423S11658417EA0087900925000000000000
B0340113154360S11658361EA0087000917000000000000
B0340153154297S11658317EA0086900916000000000000
B0340193154234S11658278EA0086600911000000000000
B0340233154169S11658240EA0085700902000000000000
B0340273154105S11658203EA0084800892000000000000
B0340313154042S11658167EA0084000884000000000000
B0340353153977S11658131EA0083200876000004000000
B0340393153913S11658093EA0082100864000000000000
B0340433153849S11658048EA0081000850000004000000
B0340473153786S11658002EA0080600847000000000000
B0340513153722S11657956EA0080000845000000000000
B0340553153658S11657919EA0080900858000000000000
B0340593153597S11657936EA0082500871000000000000
B0341033153552S11657992EA0082800874000000000000
B0341073153565S11658067EA0083900888000000000000
B0341113153632S11658091EA0084100883000000000000
B0341153153699S11658053EA0083000873000000000000
B0341193153738S11657980EA0082000865000000000000
B0341233153765S11657901EA0082200868000000000000
B0341273153760S11657822EA0082000863000000000000
B0341313153715S11657768EA0081800863000000000000
B0341353153654S11657750EA0080900848000000000000
B0341393153587S11657737EA0079600841000000000000
B0341433153522S11657718EA0079800846000004000000
B0341473153459S11657693EA0079900843000004000000
B0341513153397S11657664EA0080100849000000000000
B0341553153335S11657662EA0081500865000000000000
B0341593153316S11657723EA0082800876000000000000
B0342033153363S11657772EA0082500870000000000000
B0342073153435S11657751EA0081900866000000000000
B0342113153462S11657676EA0082000869000000000000
B0342153153433S11657612EA0083100885000000000000
B0342193153393S11657647EA0084000890000000000000
B0342233153433S11657706EA0084300897000004000000
B0342273153498S11657692EA0085300908000004000000
B0342313153527S11657628EA0086200915000004000000
B0342353153505S11657571EA0086900922000004000000
B0342393153454S11657575EA0087200928000000000000
B0342433153444S11657637EA0088700941000000000000
B0342473153496S11657673EA0088900940000004000000
B0342513153554S11657634EA0088800945000004000000
B0342553153557S11657571EA0090100957000004000000
B0342593153513S11657543EA0090300955000004000000
B0343033153466S11657577EA0090600963000000000000
B0343073153479S11657641EA0091800971000004000000
B0343113153543S11657659EA0091600969000004000000
B0343153153588S11657608EA0092500981000000000000
B0343193153570S11657549EA0093500992000000000000
B0343233153518S11657556EA0093600992000000000000
B0343273153504S11657621EA0094101003000000000000
B0343313153553S11657667EA0095501014000004000000
B0343353153618S11657645EA0095401013000000000000
B0343393153640S11657577EA0096501032000000000000
B0343433153608S11657532EA0097701040000000000000
B0343473153558S11657555EA0098301048000000000000
B0343513153569S11657619EA0099901065000000000000
B0343553153628S11657638EA0100201064000004000000
B0343593153675S11657584EA0100501074000000000000
B0344033153660S11657524EA0102201090000004000000
B0344073153608S11657523EA0102901097000004000000
B0344113153589S11657584EA0103901107000004000000
B0344153153637S11657628EA0104901116000004000000
B0344193153699S11657601EA0105101116000000000000
B0344233153709S11657534EA0106401131000000000000
B0344273153669S11657499EA0107301139000004000000
B0344313153627S11657533EA0107801147000004000000
B0344353153648S11657597EA0108401154000004000000
B0344393153712S11657618EA0109001158000004000000
B0344433153762S11657568EA0109401165000004000000
B0344473153764S11657498EA0110401178000004000000
B0344513153722S11657465EA0111201183000004000000
B0344553153684S11657507EA0111601187000004000000
B0344593153709S11657572EA0112501201000000000000
B0345033153771S11657588EA0113501209000000000000
B0345073153823S11657542EA0114001211000000000000
B0345113153826S11657469EA0114401216000004000000
B0345153153780S11657432EA0114801221000000000000
B0345193153732S11657462EA0115501233000000000000
B0345233153728S11657529EA0116801241000000000000
B0345273153777S11657582EA0117001244000000000000
B0345313153845S11657580EA0117801261000000000000
B0345353153887S11657525EA0119201270000004000000
B0345393153881S11657458EA0119801276000000000000
B0345433153836S11657430EA0120401283000004000000
B0345473153792S11657460EA0121201290000004000000
B0345513153782S11657528EA0121601291000000000000
B0345553153819S11657592EA0121901296000000000000
B0345593153886S11657606EA0122301302000000000000
B0346033153943S11657566EA0123001310000000000000
B0346073153960S11657503EA0124001319000000000000
B0346113153923S11657460EA0124201319000000000000
B0346153153884S11657499EA0124501323000000000000
B0346193153901S11657571EA0125301335000000000000
B0346233153962S11657603EA0126501343000000000000
B0346273154018S11657563EA0127001348000000000000
B0346313154020S11657493EA0127401354000000000000
B0346353153977S11657455EA0127901357000004000000
B0346393153929S11657480EA0128801368000000000000
B0346433153921S11657543EA0129601376000004000000
B0346473153962S11657601EA0130101381000004000000
B0346513154029S11657610EA0130101381000000000000
B0346553154077S11657560EA0130701390000004000000
B0346593154078S11657494EA0131301394000004000000
B0347033154042S11657452EA0131801399000004000000
B0347073153992S11657459EA0131801399000004000000
B0347113153957S11657514EA0131801400000004000000
B0347153153974S11657584EA0132501409000004000000
B0347193154031S11657618EA0132501407000004000000
B0347233154099S11657586EA0131601400000004000000
B0347273154144S11657521EA0132001409000004000000
B0347313154155S11657449EA0132801419000004000000
B0347353154118S11657406EA0133701424000004000000
B0347393154073S11657434EA0134001429000004000000
B0347433154076S11657507EA0134601438000004000000
B0347473154129S11657556EA0134801439000004000000
B0347513154199S11657549EA0135301444000000000000
B0347553154242S11657494EA0136301454000004000000
B0347593154245S11657425EA0137001456000004000000
B0348033154209S11657376EA0137301461000000000000
B0348073154159S11657387EA0137601463000000000000
B0348113154146S11657455EA0137901475000000000000
B0348153154202S11657490EA0139201483000000000000
B0348193154258S11657451EA0139001480000004000000
B0348233154267S11657380EA0139101484000000000000
B0348273154234S11657326EA0139701492000000000000
B0348313154181S11657316EA0140801503000000000000
B0348353154148S11657369EA0141601510000004000000
B0348393154180S11657429EA0142601520000004000000
B0348433154251S11657433EA0143201527000004000000
B0348473154303S11657381EA0143701532000004000000
B0348513154302S11657308EA0144301539000004000000
B0348553154256S11657267EA0144701542000004000000
B0348593154199S11657280EA0145301551000004000000
B0349033154173S11657341EA0146601561000004000000
B0349073154203S11657406EA0147001567000000000000
B0349113154271S11657424EA0148001579000000000000
B0349153154328S11657380EA0148901585000000000000
B0349193154333S11657306EA0149501593000000000000
B0349233154293S11657264EA0150801606000000000000
B0349273154247S11657287EA0151601615000000000000
B0349313154243S11657352EA0152401622000000000000
B0349353154294S11657398EA0152501621000000000000
B0349393154363S11657377EA0152301620000004000000
B0349433154403S11657311EA0152701625000004000000
B0349473154407S11657234EA0153301631000004000000
B0349513154377S11657170EA0153901635000004000000
B0349553154321S11657150EA0153201627000004000000
B0349593154259S11657168EA0152201616000004000000
B0350033154195S11657200EA0152101620000004000000
B0350073154133S11657238EA0152501625000004000000
B0350113154082S11657285EA0154301644000004000000
B0350153154095S11657355EA0156101658000000000000
B0350193154156S11657380EA0155901652000000000000
B0350233154221S11657341EA0156301665000000000000
B0350273154216S11657273EA0158201683000000000000
B0350313154164S11657269EA0159401697000000000000
B0350353154141S11657333EA0160001703000000000000
B0350393154172S11657400EA0160101702000000000000
B0350433154245S11657411EA0160201708000000000000
B0350473154303S11657358EA0161501719000000000000
B0350513154313S11657280EA0163501741000000000000
B0350553154273S11657234EA0165201756000000000000
B0350593154226S11657267EA0165601763000000000000
B0351033154217S11657343EA0166001773000000000000
B0351073154272S11657394EA0167701794000000000000
B0351113154338S11657372EA0169301810000000000000
B0351153154360S11657296EA0170601822000000000000
B0351193154323S11657239EA0172101835000004000000
B0351233154269S11657251EA0172901845000004000000
B0351273154239S11657317EA0173301853000000000000
B0351313154255S11657394EA0174601862000004000000
B0351353154310S11657450EA0174101860000000000000
B0351393154384S11657459EA0175501876000000000000
B0351433154420S11657402EA0177301894000000000000
B0351473154397S11657345EA0178701909000000000000
B0351513154346S11657339EA0179701919000000000000
B0351553154320S11657404EA0180401929000000000000
B0351593154352S11657471EA0181801943000000000000
B0352033154417S11657480EA0182901951000000000000
B0352073154464S11657428EA0183201950000000000000
B0352113154451S11657360EA0184001963000000000000
B0352153154398S11657338EA0185201973000000000000
B0352193154350S11657380EA0186401987000000000000
B0352233154349S11657455EA0187501995000000000000
B0352273154398S11657511EA0187801996000000000000
B0352313154466S11657516EA0187801997000004000000
B0352353154518S11657468EA0188102001000000000000
B0352393154531S11657397EA0188602006000000000000
B0352433154502S11657337EA0189402015000000000000
B0352473154447S11657307EA0190002022000000000000
B0352513154388S11657324EA0191302033000000000000
B0352553154388S11657397EA0193002052000000000000
B0352593154449S11657430EA0193402050000000000000
B0353033154512S11657390EA0193502057000004000000
B0353073154518S11657315EA0195302076000004000000
B0353113154472S11657270EA0196702088000000000000
B0353153154415S11657290EA0197602097000004000000
B0353193154395S11657356EA0198802112000004000000
B0353233154432S11657416EA0199502116000004000000
B0353273154502S11657432EA0199302115000004000000
B0353313154562S11657390EA0200302131000004000000
B0353353154575S11657320EA0202102145000004000000
B0353393154546S11657263EA0202802147000004000000
B0353433154488S11657248EA0202902153000000000000
B0353473154445S11657295EA0204202169000000000000
B0353513154451S11657367EA0205502180000000000000
B0353553154503S11657411EA0205902184000000000000
B0353593154572S11657403EA0206202188000000000000
B0354033154618S11657347EA0207602202000000000000
B0354073154614S11657280EA0208402209000000000000
B0354113154570S11657234EA0208402208000004000000
B0354153154510S11657238EA0208602214000004000000
B0354193154469S11657293EA0209502224000000000000
B0354233154473S11657365EA0210202231000000000000
B0354273154521S11657417EA0210402233000000000000
B0354313154592S11657421EA0210702237000000000000
B0354353154648S11657377EA0212102250000000000000
B0354393154667S11657309EA0213002256000000000000
B0354433154638S11657247EA0212702254000000000000
B0354473154583S11657213EA0212402251000000000000
B0354513154514S11657205EA0211402236000000000000
B0354553154432S11657198EA0209902227000000000000
B0354593154349S11657195EA0209002209000000000000
B0355033154258S11657195EA0206402185000000000000
B0355073154160S11657194EA0204602172000000000000
B0355113154063S11657194EA0203402158000000000000
B0355153153960S11657198EA0201802141000000000000
B0355193153856S11657205EA0200702135000000000000
B0355233153754S11657216EA0200602131000000000000
B0355273153654S11657230EA0199702122000000000000
B0355313153557S11657244EA0199902128000000000000
B0355353153466S11657260EA0200402130000000000000
B0355393153375S11657276EA0199502112000000000000
B0355433153281S11657291EA0197902100000000000000
B0355473153189S11657306EA0197802102000004000000
B0355513153097S11657319EA0197802102000004000000
B0355553153008S11657333EA0199302130000004000000
B0355593152925S11657345EA0202402159000004000000
B0356033152850S11657363EA0204802177000000000000
B0356073152774S11657382EA0205102175000004000000
B0356113152695S11657412EA0204702171000004000000
B0356153152614S11657449EA0203202152000004000000
B0356193152521S11657480EA0200802132000004000000
B0356233152422S11657503EA0199802120000004000000
B0356273152323S11657521EA0199202118000000000000
B0356313152226S11657538EA0199502123000004000000
B0356353152131S11657560EA0200102131000004000000
B0356393152042S11657584EA0200802137000000000000
B0356433151955S11657607EA0199702116000004000000
B0356473151863S11657627EA0196702085000000000000
B0356513151764S11657644EA0194402065000000000000
B0356553151664S11657659EA0192602047000004000000
B0356593151564S11657673EA0191102027000004000000
B0357033151461S11657689EA0189302015000004000000
B0357073151364S11657701EA0189502021000000000000
B0357113151271S11657712EA0190002025000000000000
B0357153151180S11657720EA0190202023000000000000
B0357193151092S11657725EA0191602044000000000000
B0357233151022S11657758EA0196102090000004000000
B0357273151013S11657824EA0200202124000000000000
B0357313151056S11657872EA0200302116000004000000
B0357353151127S11657863EA0198502100000004000000
B0357393151183S11657806EA0198102093000000000000
B0357433151190S11657722EA0196802087000000000000
B0357473151158S11657641EA0197402096000000000000
B0357513151115S11657572EA0198602107000004000000
B0357553151060S11657566EA0201102135000004000000
B0357593151045S11657631EA0201602137000004000000
B0358033151101S11657688EA0200702132000004000000
B0358073151179S11657675EA0201402146000000000000
B0358113151234S11657614EA0202902157000000000000
B0358153151249S11657534EA0203902164000000000000
B0358193151229S11657459EA0203602154000000000000
B0358233151167S11657417EA0201002125000000000000
B0358273151082S11657410EA0198202103000004000000
B0358313150988S11657410EA0196802091000000000000
B0358353150889S11657413EA0195302075000000000000
B0358393150788S11657420EA0194402065000000000000
B0358433150683S11657430EA0193102051000000000000
B0358473150576S11657441EA0192002041000000000000
B0358513150471S11657456EA0191702041000000000000
B0358553150368S11657473EA0190402022000000000000
B0358593150264S11657489EA0189202010000000000000
B0359033150160S11657503EA0188302000000000000000
B0359073150059S11657515EA0188001998000000000000
B0359113149957S11657528EA0187601994000000000000
B0359153149857S11657541EA0187101988000000000000
B0359193149758S11657558EA0186101977000000000000
B0359233149659S11657576EA0185201966000004000000
B0359273149557S11657592EA0183501950000004000000
B0359313149455S11657602EA0183301951000000000000
B0359353149357S11657607EA0183401949000004000000
B0359393149262S11657612EA0182901944000000000000
B0359433149168S11657620EA0182401936000000000000
B0359473149074S11657628EA0182001943000000000000
B0359513148993S11657640EA0185101970000000000000
B0359553148913S11657655EA0185201961000000000000
B0359593148826S11657680EA0182401928000000000000
B0400033148731S11657705EA0180101916000000000000
B0400073148640S11657731EA0180301921000004000000
B0400113148552S11657753EA0181001926000004000000
B0400153148469S11657767EA0182201938000004000000
B0400193148389S11657780EA0182801942000004000000
B0400233148309S11657793EA0182501933000004000000
B0400273148224S11657802EA0180901916000000000000
B0400313148137S11657807EA0179701909000004000000
B0400353148053S11657811EA0178901897000004000000
B0400393147964S11657816EA0177101873000004000000
B0400433147872S11657824EA0174501848000000000000
B0400473147778S11657841EA0173501841000000000000
B0400513147686S11657870EA0171901820000000000000
B0400553147591S11657915EA0169301802000000000000
B0400593147494S11657959EA0168501794000000000000
B0401033147404S11658010EA0168901801000000000000
B0401073147318S11658062EA0168001783000000000000
B0401113147225S11658110EA0165901759000000000000
B0401153147128S11658148EA0165901776000000000000
B0401193147046S11658179EA0169401812000000000000
B0401233146972S11658210EA0171201816000000000000
B0401273146901S11658249EA0170401804000000000000
B0401313146825S11658295EA0168301780000000000000
B0401353146742S11658336EA0165801756000000000000
B0401393146658S11658377EA0163601735000000000000
B0401433146572S11658414EA0162501723000000000000
B0401473146491S11658452EA0162401724000000000000
B0401513146413S11658487EA0160301696000000000000
B0401553146326S11658529EA0157201665000004000000
B0401593146235S11658570EA0154601641000000000000
B0402033146142S11658608EA0153401625000004000000
B0402073146048S11658626EA0152501618000000000000
B0402113145961S11658635EA0152401619000004000000
B0402153145880S11658646EA0152001604000000000000
B0402193145796S11658658EA0149301569000004000000
B0402233145705S11658668EA0145901533000004000000
B0402273145605S11658684EA0142001491000004000000
B0402313145496S11658712EA0138601467000004015000
B0402353145392S11658736EA0138501480000004000000
B0402393145297S11658739EA0139901492000004000000
B0402433145212S11658739EA0141401506000004000000
B0402473145135S11658743EA0142401507000000000000
B0402513145057S11658751EA0141201487000000000000
B0402553144973S11658772EA0138401454000000000000
B0402593144878S11658804EA0134301419000000000000
B0403033144777S11658837EA0131901400000000000000
B0403073144674S11658871EA0130301381000000000000
B0403113144570S11658907EA0128001356000000000000
B0403153144465S11658945EA0126101338000000000000
B0403193144358S11658981EA0124501323000000000000
B0403233144251S11659016EA0122901303000004000000
B0403273144145S11659050EA0121001288000004000000
B0403313144041S11659080EA0120201278000004000000
B0403353143939S11659110EA0118701254000004000000
B0403393143835S11659142EA0115701225000000000000
B0403433143733S11659181EA0114001222000000015000
B0403473143643S11659217EA0117001263000004000000
B0403513143566S11659244EA0120301290000004000000
B0403553143500S11659266EA0123401322000000000000
B0403593143440S11659287EA0125801343000004000000
B0404033143393S11659327EA0128801367000004000000
B0404073143395S11659392EA0130201384000004000000
B0404113143444S11659431EA0131601402000004000000
B0404153143499S11659406EA0133101414000004000000
B0404193143517S11659337EA0133501415000004000000
B0404233143483S11659280EA0134201426000000000000
B0404273143429S11659271EA0135501440000004000000
B0404313143390S11659314EA0136901454000000000000
B0404353143393S11659382EA0138201468000000000000
B0404393143440S11659425EA0139501481000000000000
B0404433143504S11659408EA0140601498000000000000
B0404473143535S11659347EA0142001507000000000000
B0404513143525S11659278EA0142701516000000000000
B0404553143481S11659235EA0143801529000000000000
B0404593143427S11659245EA0144801540000004000000
B0405033143392S11659300EA0146201558000004000000
B0405073143401S11659363EA0148001571000000000000
B0405113143455S11659408EA0148501581000004000000
B0405153143521S11659415EA0150501602000004000000
B0405193143581S11659393EA0152301618000000000000
B0405233143624S11659340EA0153201625000000000000
B0405273143640S11659269EA0153801634000000000000
B0405313143629S11659201EA0155401658000000000000
B0405353143596S11659159EA0157601677000000000000
B0405393143551S11659153EA0158501682000000000000
B0405433143503S11659181EA0159101693000000000000
B0405473143478S11659237EA0160901711000004000000
B0405513143491S11659302EA0162201725000000000000
B0405553143535S11659352EA0164101745000004000000
B0405593143596S11659374EA0165601761000004000000
B0406033143660S11659360EA0167001773000004000000
B0406073143711S11659317EA0167501775000004000000
B0406113143739S11659246EA0167401775000004000000
B0406153143747S11659168EA0167801784000000000000
B0406193143731S11659101EA0169301802000004000000
B0406233143692S11659062EA0170301806000004000000
B0406273143639S11659055EA0170301808000000000000
B0406313143594S11659092EA0171501822000000000000
B0406353143569S11659153EA0172101828000000000000
B0406393143577S11659226EA0173601845000000000000
B0406433143617S11659282EA0175601867000000000000
B0406473143682S11659302EA0176401873000000000000
B0406513143750S11659282EA0177001884000000000000
B0406553143795S11659230EA0178401890000000000000
B0406593143808S11659157EA0178501893000000000000
B0407033143786S11659090EA0179301903000000000000
B0407073143743S11659050EA0180501913000000000000
B0407113143692S11659050EA0181101922000000000000
B0407153143650S11659092EA0181801928000000000000
B0407193143638S11659163EA0182401934000000000000
B0407233143673S11659227EA0183801952000000000000
B0407273143738S11659239EA0185101966000000000000
B0407313143794S11659192EA0185701973000004000000
B0407353143811S11659113EA0186701982000004000000
B0407393143781S11659051EA0187401990000000000000
B0407433143726S11659045EA0188201999000000000000
B0407473143685S11659094EA0189402012000000000000
B0407513143681S11659167EA0190302017000000000000
B0407553143726S11659227EA0190602027000000000000
B0407593143799S11659243EA0191802037000000000000
B0408033143871S11659215EA0192502042000000000000
B0408073143924S11659157EA0192102030000004000000
B0408113143939S11659074EA0191702035000004000000
B0408153143917S11658999EA0192702046000004000000
B0408193143872S11658953EA0193502051000004000000
B0408233143816S11658927EA0193702050000004000000
B0408273143752S11658924EA0193002042000004000000
B0408313143683S11658953EA0192502045000000000000
B0408353143620S11658996EA0194602067000004000000
B0408393143595S11659066EA0196402081000000000000
B0408433143646S11659118EA0197502098000000000000
B0408473143702S11659083EA0199902125000004000000
B0408513143700S11659016EA0201602140000004000000
B0408553143646S11658997EA0202602154000000000000
B0408593143601S11659049EA0203602157000000000000
B0409033143614S11659129EA0203802167000004000000
B0409073143674S11659163EA0206002195000004000000
B0409113143724S11659123EA0207902207000004000000
B0409153143728S11659049EA0208602216000000000000
B0409193143682S11659001EA0210302238000004000000
B0409233143625S11659014EA0211802247000004000000
B0409273143592S11659079EA0212002250000004000000
B0409313143614S11659152EA0213702276000004000000
B0409353143670S11659181EA0215302287000004000000
B0409393143730S11659145EA0215902294000004000000
B0409433143737S11659070EA0217202305000000000000
B0409473143683S11659033EA0218002315000004000000
B0409513143629S11659066EA0218902327000004000000
B0409553143616S11659135EA0220202342000004000000
B0409593143655S11659189EA0221502353000000000000
B0410033143724S11659185EA0222202364000000000000
B0410073143768S11659128EA0224602391000000000000
B0410113143763S11659061EA0226602400000000000000
B0410153143707S11659029EA0226202401000004000000
B0410193143650S11659063EA0227302416000004000000
B0410233143631S11659132EA0228502426000004000000
B0410273143668S11659197EA0229102432000004000000
B0410313143735S11659207EA0230702452000000000000
B0410353143780S11659154EA0232402477000000000000
B0410393143777S11659083EA0235002493000000000000
B0410433143726S11659041EA0234802485000000000000
B0410473143663S11659064EA0235202504000000000000
B0410513143635S11659129EA0237102518000004000000
B0410553143660S11659205EA0237902526000004000000
B0410593143725S11659237EA0239402543000000000000
B0411033143787S11659197EA0240102550000000000000
B0411073143794S11659113EA0241802574000004000000
B0411113143746S11659067EA0244102592000000000000
B0411153143685S11659098EA0244202591000000000000
B0411193143678S11659187EA0244202593000004000000
B0411233143739S11659246EA0245402610000000000000
B0411273143809S11659236EA0248302642000000000000
B0411313143843S11659175EA0250802661000000000000
B0411353143832S11659102EA0251902670000000000000
B0411393143780S11659063EA0253702692000000000000
B0411433143725S11659079EA0255102705000000000000
B0411473143699S11659142EA0255902713000000000000
B0411513143712S11659218EA0257102729000000000000
B0411553143764S11659265EA0258502741000000000000
B0411593143830S11659263EA0259802756000004000000
B0412033143869S11659209EA0261102769000004000000
B0412073143859S11659135EA0262302782000000000000
B0412113143809S11659090EA0263602791000000000000
B0412153143738S11659080EA0262002773000004000000
B0412193143653S11659080EA0260802766000004000000
B0412233143561S11659079EA0259702753000000000000
B0412273143466S11659084EA0260102761000000000000
B0412313143377S11659092EA0260302759000000000000
B0412353143286S11659098EA0259002740000000000000
B0412393143192S11659100EA0257602726000000000000
B0412433143106S11659100EA0257602728000000000000
B0412473143029S11659103EA0257902727000000000000
B0412513142957S11659115EA0257102709000000000000
B0412553142876S11659126EA0254202684000000000000
B0412593142792S11659139EA0252602672000000000000
B0413033142711S11659148EA0251602658000000000000
B0413073142628S11659154EA0249402632000000000000
B0413113142537S11659159EA0246202604000000000000
B0413153142443S11659165EA0244502591000000000000
B0413193142353S11659170EA0244502593000000000000
B0413233142268S11659170EA0245102602000000000000
B0413273142190S11659166EA0245202595000000000000
B0413313142108S11659159EA0243702572000000000000
B0413353142019S11659153EA0241502560000000000000
B0413393141931S11659141EA0242002564000000000000
B0413433141844S11659131EA0241302550000000000000
B0413473141757S11659129EA0239902537000000000000
B0413513141675S11659132EA0239302533000004000000
B0413553141594S11659139EA0238702524000004000000
B0413593141508S11659144EA0236402501000004000000
B0414033141417S11659146EA0234702488000004000000
B0414073141321S11659137EA0234402487000000000000
B0414113141225S11659116EA0235002496000004000000
B0414153141131S11659090EA0236102510000000000000
B0414193141040S11659070EA0235602486000004000000
B0414233140944S11659055EA0233402470000004000000
B0414273140845S11659042EA0231302446000004000000
B0414313140747S11659023EA0229702433000004000000
B0414353140654S11658997EA0229402433000000000000
B0414393140563S11658973EA0229102423000004000000
B0414433140467S11658957EA0226702400000004000000
B0414473140368S11658938EA0225302388000004000000
B0414513140268S11658916EA0223602373000000000000
B0414553140171S11658889EA0223102361000000000000
B0414593140072S11658859EA0221302343000000000000
B0415033139974S11658827EA0219302315000000000000
B0415073139872S11658789EA0215502279000000000000
B0415113139766S11658747EA0212802255000000000000
B0415153139661S11658706EA0211402245000000000000
B0415193139560S11658664EA0210302229000000000000
B0415233139456S11658621EA0208002205000004000000
B0415273139352S11658578EA0205702185000004000000
B0415313139249S11658544EA0205102181000004000000
B0415353139150S11658511EA0205202180000000000000
B0415393139053S11658490EA0204802177000004000000
B0415433138957S11658474EA0204202166000004000000
B0415473138860S11658459EA0203702168000000000000
B0415513138768S11658447EA0203502155000004000000
B0415553138673S11658435EA0201102126000000000000
B0415593138576S11658424EA0199002109000004000000
B0416033138481S11658409EA0198202109000000000000
B0416073138394S11658405EA0199102116000000000000
B0416113138307S11658398EA0197902089000000000000
B0416153138213S11658381EA0194702061000000000000
B0416193138119S11658377EA0193702056000000000000
B0416233138026S11658382EA0192502040000000000000
B0416273137930S11658377EA0191002023000000000000
B0416313137833S11658361EA0189502008000000000000
B0416353137740S11658333EA0188402003000000000000
B0416393137649S11658296EA0187701991000004000000
B0416433137563S11658242EA0185901970000000000000
B0416473137480S11658170EA0183701944000000000000
B0416513137397S11658089EA0181101913000000000000
B0416553137326S11657984EA0178401893000000000000
B0416593137268S11657870EA0176801875000004000000
B0417033137217S11657750EA0174701856000000000000
B0417073137168S11657628EA0173201843000000000000
B0417113137120S11657510EA0172901842000004000000
B0417153137073S11657394EA0172301837000004000000
B0417193137018S11657287EA0171001821000004000000
B0417233136947S11657194EA0169701800000004000000
B0417273136864S11657116EA0167001780000004000000
B0417313136769S11657055EA0166401778000004000000
B0417353136670S11657029EA0168001796000004000000
B0417393136574S11657017EA0168701797000004000000
B0417433136479S11657016EA0168101781000000000000
B0417473136383S11657010EA0165901756000000000000
B0417513136284S11657005EA0163601737000000000000
B0417553136189S11656994EA0162901733000004000000
B0417593136099S11656978EA0162701726000004000000
B0418033136008S11656970EA0160901705000004000000
B0418073135912S11656956EA0157801670000004000000
B0418113135814S11656923EA0155801648000004000000
B0418153135714S11656893EA0153801628000004000000
B0418193135608S11656886EA0151901611000004000000
B0418233135502S11656886EA0151201607000000000000
B0418273135396S11656893EA0150101593000004000000
B0418313135287S11656893EA0148801584000004000000
B0418353135180S11656882EA0148801581000004000000
B0418393135076S11656865EA0148201577000004000000
B0418433134976S11656849EA0148801585000004000000
B0418473134889S11656847EA0150801602000004000000
B0418513134806S11656852EA0150201592000000000000
B0418553134720S11656857EA0149301585000004000000
B0418593134638S11656857EA0150101600000004000000
B0419033134563S11656870EA0150701598000004000000
B0419073134487S11656890EA0151101611000004000000
B0419113134422S11656906EA0153601630000004000000
B0419153134362S11656930EA0153201616000000000000
B0419193134299S11656961EA0151301596000004000000
B0419233134238S11657014EA0149301578000000000000
B0419273134170S11657072EA0146901553000000000000
B0419313134093S11657118EA0145401538000004000000
B0419353134015S11657161EA0144401526000004000000
B0419393133941S11657216EA0142801506000000000000
B0419433133855S11657254EA0140001480000000000000
B0419473133760S11657251EA0139101479000000000000
B0419513133673S11657220EA0139101476000000000000
B0419553133597S11657165EA0138401466000000000000
B0419593133523S11657099EA0137001449000000000000
B0420033133448S11657026EA0135501437000000000000
B0420073133374S11656952EA0134701430000004000000
B0420113133300S11656879EA0134301426000004000000
B0420153133227S11656806EA0134001420000000000000
B0420193133153S11656735EA0133001409000000000000
B0420233133078S11656662EA0131801396000000000000
B0420273133003S11656587EA0130501382000000000000
B0420313132927S11656514EA0129501368000000000000
B0420353132845S11656458EA0128001354000000000000
B0420393132757S11656414EA0126901343000000000000
B0420433132674S11656390EA0128901370000000000000
B0420473132618S11656429EA0132301400000004000000
B0420513132623S11656498EA0133501410000000000000
B0420553132683S11656549EA0133201403000000000000
B0420593132758S11656575EA0132601401000004000000
B0421033132835S11656557EA0132101392000004000000
B0421073132892S11656494EA0130801380000004000000
B0421113132930S11656412EA0129701364000004000000
B0421153132941S11656315EA0127601346000000000000
B0421193132914S11656215EA0125701328000004000000
B0421233132862S11656128EA0124501317000004000000
B0421273132793S11656054EA0123501309000004000000
B0421313132711S11656004EA0123501312000004000000
B0421353132626S11655985EA0124801331000004000000
B0421393132548S11655987EA0128401367000004000000
B0421433132515S11656048EA0131201390000004000000
B0421473132554S11656106EA0132201406000004000000
B0421513132611S11656098EA0133601417000004000000
B0421553132641S11656037EA0134501425000000000000
B0421593132626S11655968EA0135601440000004000000
B0422033132575S11655941EA0137401460000004000000
B0422073132529S11655978EA0139301479000004000000
B0422113132529S11656045EA0140901494000004000000
B0422153132579S11656085EA0142301511000000000000
B0422193132632S11656065EA0144401532000000000000
B0422233132653S11656006EA0145101536000000000000
B0422273132627S11655942EA0145501549000000000000
B0422313132572S11655928EA0147201569000000000000
B0422353132537S11655980EA0149001585000000000000
B0422393132562S11656048EA0150001595000000000000
B0422433132627S11656058EA0151301612000000000000
B0422473132666S11656002EA0153401632000004000000
B0422513132657S11655934EA0154801644000004000000
B0422553132605S11655899EA0156101659000000000000
B0422593132551S11655929EA0157701678000004000000
B0423033132544S11655999EA0159401695000004000000
B0423073132592S11656052EA0160501705000004000000
B0423113132659S11656048EA0161601722000004000000
B0423153132696S11655993EA0163301736000000000000
B0423193132685S11655925EA0164101745000000000000
B0423233132636S11655891EA0165901766000004000000
B0423273132588S11655925EA0167201776000004000000
B0423313132585S11656000EA0167701782000004000000
B0423353132642S11656051EA0168901797000004000000
B0423393132709S11656039EA0170801816000004000000
B0423433132746S11655981EA0171801819000004000000
B0423473132740S11655908EA0171801822000000000000
B0423513132696S11655859EA0172501836000000000000
B0423553132635S11655846EA0174101854000000000000
B0423593132598S11655902EA0175701868000004000000
B0424033132632S11655974EA0177001882000004000000
B0424073132702S11655986EA0178401893000000000000
B0424113132740S11655920EA0179601909000000000000
B0424153132715S11655855EA0181301928000000000000
B0424193132659S11655840EA0182701939000004000000
B0424233132613S11655892EA0183201945000000000000
B0424263132610S11655955EA0184601967000000000000
B0424313132672S11656021EA0186201979000000000000
B0424353132737S11656006EA0187401992000000000000
B0424393132769S11655941EA0188201998000000000000
B0424433132749S11655870EA0188802005000000000000
B0424473132692S11655840EA0190402019000000000000
B0424513132633S11655864EA0192302044000000000000
B0424553132601S11655929EA0194302065000000000000
B0424593132615S11656004EA0195902075000000000000
B0425033132672S11656051EA0195302071000000000000
B0425073132745S11656037EA0195902079000000000000
B0425113132800S11655981EA0196502084000000000000
B0425153132813S11655903EA0196702090000000000000
B0425193132782S11655834EA0197502103000000000000
B0425233132724S11655805EA0199802126000000000000
B0425273132671S11655835EA0202002147000004000000
B0425313132661S11655909EA0203402159000004000000
B0425353132709S11655970EA0204502168000000000000
B0425393132780S11655972EA0205202176000000000000
B0425433132830S11655918EA0205402178000000000000
B0425473132834S11655840EA0205802187000004000000
B0425513132796S11655786EA0207302204000000000000
B0425553132736S11655772EA0208102209000004000000
B0425593132678S11655805EA0208902220000000000000
B0426033132642S11655877EA0210502235000000000000
B0426073132644S11655961EA0211802250000004000000
B0426113132697S11656015EA0212902256000004000000
B0426153132765S11655991EA0212302250000004000000
B0426193132787S11655921EA0213202263000004000000
B0426233132754S11655872EA0214402278000004000000
B0426273132698S11655857EA0215202286000004000000
B0426313132642S11655892EA0216702307000004000000
B0426353132631S11655970EA0218202315000004000000
B0426393132679S11656033EA0218902327000004000000
B0426433132744S11656028EA0219702326000004000000
B0426473132783S11655965EA0219102326000004000000
B0426513132770S11655899EA0220602346000004000000
B0426553132723S11655874EA0222402359000000000000
B0426593132668S11655900EA0222502356000000000000
B0427033132629S11655972EA0223202372000004000000
B0427073132654S11656051EA0224902383000004000000
B0427113132722S11656064EA0225502388000000000000
B0427153132763S11656007EA0225202385000004000000
B0427193132763S11655930EA0225102389000004000000
B0427233132728S11655876EA0226202400000004000000
B0427273132666S11655866EA0225702385000000000000
B0427313132589S11655872EA0222602349000000000000
B0427353132497S11655877EA0219602326000004000000
B0427393132394S11655881EA0217102297000004000000
B0427433132285S11655882EA0215202286000004000000
B0427473132174S11655889EA0214902291000004000000
B0427513132073S11655912EA0216702315000004000000
B0427553131986S11655935EA0220602362000004000000
B0427593131917S11655957EA0225202397000004000000
B0428033131853S11655980EA0226902406000004000000
B0428073131790S11656002EA0227002406000000000000
B0428113131721S11656025EA0227802415000004000000
B0428153131674S11656078EA0229802437000004000000
B0428193131693S11656146EA0230802445000004000000
B0428233131762S11656152EA0231902461000000000000
B0428273131804S11656093EA0233702483000004000000
B0428313131784S11656024EA0235102494000004000000
B0428353131727S11656002EA0236402507000000000000
B0428393131679S11656047EA0237502513000004000000
B0428433131664S11656130EA0236902504000004000000
B0428473131703S11656203EA0237202520000000000000
B0428513131769S11656219EA0240002548000004000000
B0428553131805S11656163EA0242202568000000000000
B0428593131781S11656098EA0243202579000000000000
B0429033131718S11656080EA0244202589000000000000
B0429073131666S11656130EA0245002594000000000000
B0429113131673S11656208EA0244902594000000000000
B0429153131738S11656246EA0246102610000000000000
B0429193131799S11656215EA0248402641000000000000
B0429233131821S11656147EA0250902662000000000000
B0429273131795S11656081EA0252602680000000000000
B0429313131732S11656071EA0254002692000000000000
B0429353131688S11656128EA0255002703000004000000
B0429393131704S11656202EA0256102714000004000000
B0429433131766S11656228EA0257102727000004000000
B0429473131813S11656184EA0259702755000004000000
B0429513131804S11656116EA0261402768000004000000
B0429553131747S11656081EA0262502780000004000000
B0429593131686S11656111EA0263502796000004000000
B0430033131661S11656186EA0264902808000004000000
B0430073131690S11656258EA0265902818000004000000
B0430113131757S11656264EA0267202835000004000000
B0430153131799S11656207EA0269602861000000000000
B0430193131779S11656143EA0272102884000000000000
B0430233131723S11656123EA0273702897000000000000
B0430273131667S11656159EA0275002911000004000000
B0430313131662S11656233EA0276602932000000000000
B0430353131705S11656286EA0277902942000004000000
B0430393131771S11656276EA0278802961000000000000
B0430433131804S11656212EA0281402985000000000000
B0430473131781S11656149EA0283403007000000000000
B0430513131722S11656125EA0285303025000000000000
B0430553131662S11656156EA0287003041000000000000
B0430593131644S11656227EA0288603058000000000000
B0431033131686S11656282EA0290903082000004000000
B0431073131748S11656277EA0292603097000004000000
B0431113131782S11656211EA0293603107000000000000
B0431153131755S11656138EA0295803133000004000000
B0431193131692S11656113EA0298603160000004000000
B0431233131634S11656142EA0299603168000004000000
B0431273131614S11656214EA0300003178000004000000
B0431313131654S11656268EA0302103202000000000000
B0431353131719S11656262EA0303703214000000000000
B0431393131762S11656194EA0304903230000000000000
B0431433131747S11656115EA0307703262000000000000
B0431473131692S11656063EA0309503271000000000000
B0431513131621S11656069EA0309603270000004000000
B0431553131580S11656136EA0309303269000004000000
B0431593131589S11656220EA0309203269000004000000
B0432033131634S11656294EA0310103282000004000000
B0432073131704S11656327EA0313303317000000000000
B0432113131755S11656275EA0315803347000000000000
B0432153131748S11656195EA0317203356000004000000
B0432193131686S11656155EA0318203368000004000000
B0432233131621S11656194EA0319503380000000000000
B0432273131609S11656272EA0321203402000000000000
B0432313131658S11656321EA0323703427000000000000
B0432353131721S11656301EA0326003449000000000000
B0432393131745S11656228EA0327203459000004000000
B0432433131712S11656155EA0328203471000004000000
B0432473131641S11656133EA0329603485000004000000
B0432513131578S11656168EA0330203488000000000000
B0432553131558S11656247EA0330303495000004000000
B0432593131588S11656320EA0332003515000000000000
B0433033131654S11656342EA0334103534000000000000
B0433073131712S11656299EA0335903555000000000000
B0433113131725S11656220EA0337403566000000000000
B0433153131686S11656150EA0338103572000000000000
B0433193131614S11656130EA0339003581000000000000
B0433233131563S11656181EA0339603585000004000000
B0433273131579S11656255EA0341103605000004000000
B0433313131640S11656284EA0343103623000004000000
B0433353131699S11656247EA0345203646000004000000
B0433393131712S11656173EA0346703658000004000000
B0433433131675S11656103EA0346703658000004000000
B0433473131605S11656069EA0346603656000004000000
B0433513131535S11656093EA0346603656000000000000
B0433553131502S11656163EA0347003663000000000000
B0433593131509S11656243EA0347003660000000000000
B0434033131570S11656284EA0346703658000000000000
B0434073131634S11656240EA0347103666000000000000
B0434113131645S11656149EA0348303681000000000000
B0434153131606S11656068EA0348503674000000000000
B0434193131532S11656016EA0344903632000000000000
B0434233131431S11655996EA0341303597000000000000
B0434273131318S11655985EA0338403566000000000000
B0434313131201S11655973EA0335803536000000000000
B0434353131079S11655963EA0333703517000000000000
B0434393130958S11655955EA0333503515000000000000
B0434433130842S11655956EA0333703515000000000000
B0434473130725S11655960EA0331703481000000000000
B0434513130605S11655980EA0329803474000000000000
B0434553130490S11656006EA0329203471000000000000
B0434593130380S11656035EA0329403473000000000000
B0435033130271S11656058EA0328703467000000000000
B0435073130162S11656077EA0328003458000000000000
B0435113130053S11656093EA0326603440000004000000
B0435153129938S11656107EA0323703412000004000000
B0435193129823S11656119EA0322303399000004000000
B0435233129711S11656132EA0322003399000000000000
B0435273129604S11656138EA0322203399000000000000
B0435313129500S11656139EA0321803394000000000000
B0435353129398S11656137EA0321203384000000000000
B0435393129292S11656132EA0319903372000000000000
B0435433129184S11656128EA0318603358000004000000
B0435473129079S11656119EA0318203360000000000000
B0435513128982S11656099EA0319403372000000000000
B0435553128892S11656077EA0319603371000004000000
B0435593128804S11656058EA0318903357000004000000
B0436033128713S11656037EA0317003342000004000000
B0436073128620S11656013EA0315903332000000000000
B0436113128533S11655976EA0315203322000004000000
B0436153128445S11655934EA0313703302000004000000
B0436193128351S11655896EA0311903288000000000000
B0436233128254S11655874EA0310903281000000000000
B0436273128159S11655855EA0310503274000004000000
B0436313128065S11655835EA0308803257000000000000
B0436353127962S11655818EA0307103234000000000000
B0436393127857S11655800EA0305703225000000000000
B0436433127752S11655781EA0305103221000000000000
B0436473127650S11655760EA0305303225000000000000
B0436513127554S11655742EA0305903233000000000000
B0436553127466S11655722EA0306603236000000000000
B0436593127377S11655700EA0305303218000000000000
B0437033127286S11655673EA0303503201000000000000
B0437073127192S11655647EA0302303185000004000000
B0437113127095S11655621EA0300703173000004000000
B0437153126998S11655596EA0300503175000004000000
B0437193126906S11655571EA0300503173000000000000
B0437233126815S11655545EA0299803162000004000000
B0437273126717S11655522EA0299003159000004000000
B0437313126618S11655500EA0301303174000000000000
B0437353126525S11655486EA0304103205000004000000
B0437393126439S11655484EA0306903234000004000000
B0437433126373S11655523EA0309003253000004000000
B0437473126344S11655596EA0310003267000004000000
B0437513126358S11655674EA0310103276000004000000
B0437553126408S11655731EA0311103288000004000000
B0437593126471S11655739EA0312603305000004000000
B0438033126521S11655695EA0314503323000004000000
B0438073126525S11655627EA0316003337000000000000
B0438113126480S11655574EA0316703344000004000000
B0438153126413S11655564EA0317503352000004000000
B0438193126358S11655606EA0318303364000000000000
B0438233126347S11655681EA0319403374000004000000
B0438273126388S11655738EA0320103380000004000000
B0438313126456S11655738EA0320303384000004000000
B0438353126499S11655675EA0321303399000004000000
B0438393126495S11655595EA0322703411000004000000
B0438433126444S11655539EA0323603421000004000000
B0438473126373S11655534EA0324103424000004000000
B0438513126311S11655580EA0324103425000000000000
B0438553126287S11655657EA0324903431000004000000
B0438593126305S11655733EA0325203432000004000000
B0439033126369S11655759EA0324403428000004000000
B0439073126438S11655727EA0324903433000004000000
B0439113126482S11655661EA0325203436000004000000
B0439153126483S11655570EA0325503441000004000000
B0439193126441S11655492EA0326003449000004000000
B0439233126374S11655439EA0326003442000000000000
B0439273126295S11655404EA0324603420000000000000
B0439313126205S11655367EA0322003386000004000000
B0439353126106S11655331EA0318803354000004000000
B0439393125999S11655296EA0315703326000004000000
B0439433125889S11655259EA0313403301000004000000
B0439473125771S11655227EA0311603291000004000000
B0439513125654S11655197EA0310903282000004000000
B0439553125535S11655168EA0309203264000000000000
B0439593125413S11655140EA0307403244000004000000
B0440033125288S11655112EA0305803225000004000000
B0440073125167S11655088EA0305303223000004000000
B0440113125048S11655064EA0304303211000000000000
B0440153124930S11655042EA0303903212000004000000
B0440193124816S11655025EA0303503204000004000000
B0440233124702S11655010EA0302203191000004000000
B0440273124589S11654993EA0301203182000004000000
B0440313124477S11654975EA0300403173000004000000
B0440353124364S11654956EA0299103158000004000000
B0440393124250S11654937EA0298203146000004000000
B0440433124137S11654916EA0297203139000004000000
B0440473124025S11654895EA0296703132000000000000
B0440513123916S11654873EA0295703123000000000000
B0440553123808S11654849EA0295003114000000000000
B0440593123701S11654820EA0294103107000000000000
B0441033123597S11654793EA0293903106000000000000
B0441073123497S11654765EA0294203110000000000000
B0441113123401S11654742EA0294203106000000000000
B0441153123301S11654720EA0293303093000000000000
B0441193123198S11654700EA0292303087000004000000
B0441233123098S11654683EA0292203086000004000000
B0441273123002S11654665EA0291903078000004000000
B0441313122900S11654646EA0290303061000004000000
B0441353122798S11654625EA0289203052000004000000
B0441393122695S11654602EA0289003055000004000000
B0441433122597S11654579EA0289203054000004000000
B0441473122500S11654555EA0287703036000000000000
B0441513122400S11654530EA0286403017000000000000
B0441553122296S11654505EA0284403000000000000000
B0441593122193S11654483EA0283202989000000000000
B0442033122090S11654453EA0281902971000004000000
B0442073121989S11654417EA0279902954000000000000
B0442113121886S11654382EA0278702945000000000000
B0442153121784S11654355EA0277202926000000000000
B0442193121680S11654326EA0275602912000000000000
B0442233121578S11654295EA0275302908000000000000
B0442273121477S11654261EA0274602897000000000000
B0442313121378S11654234EA0274502906000000000000
B0442353121282S11654205EA0274002890000000000000
B0442393121184S11654171EA0273202888000000000000
B0442433121089S11654134EA0272902881000004000000
B0442473120989S11654096EA0271602868000000000000
B0442513120892S11654059EA0272102879000004000000
B0442553120801S11654027EA0273402895000000000000
B0442593120716S11654007EA0276102916000000000000
B0443033120636S11654002EA0276302923000000000000
B0443073120560S11654007EA0278102949000004000000
B0443113120524S11654059EA0281502979000004000000
B0443153120555S11654113EA0283502997000000000000
B0443193120621S11654096EA0285303021000004000000
B0443233120654S11654023EA0287203039000004000000
B0443273120628S11653954EA0288703054000004000000
B0443313120572S11653936EA0289503055000004000000
B0443353120526S11653980EA0289303058000000000000
B0443393120528S11654048EA0291103080000000000000
B0443433120580S11654083EA0292203089000004000000
B0443473120640S11654039EA0293503106000004000000
B0443513120640S11653955EA0295803132000004000000
B0443553120588S11653909EA0297203140000004000000
B0443593120526S11653919EA0297603145000000000000
B0444033120495S11653976EA0298203152000000000000
B0444073120517S11654045EA0298703159000000000000
B0444113120580S11654072EA0299903170000000000000
B0444153120640S11654032EA0301003186000000000000
B0444193120677S11653957EA0302403197000004000000
B0444233120662S11653876EA0304003218000000000000
B0444273120601S11653858EA0306003234000004000000
B0444313120562S11653905EA0306803239000004000000
B0444353120584S11653972EA0306703240000000000000
B0444393120646S11654010EA0307203248000000000000
B0444433120715S11653998EA0308503272000000000000
B0444473120750S11653933EA0310703288000000000000
B0444513120734S11653857EA0311203288000000000000
B0444553120673S11653806EA0310803285000000000000
B0444593120595S11653802EA0311503296000000000000
B0445033120551S11653854EA0313703316000000000000
B0445073120568S11653919EA0314403319000000000000
B0445113120628S11653945EA0314603325000004000000
B0445153120689S11653905EA0315203331000004000000
B0445193120720S11653822EA0315903339000004000000
B0445233120702S11653734EA0317203355000000000000
B0445273120638S11653706EA0318603363000004000000
B0445313120567S11653725EA0318403363000004000000
B0445353120494S11653758EA0317803354000004000000
B0445393120406S11653779EA0314303318000004000000
B0445433120300S11653773EA0311303294000004000000
B0445473120194S11653750EA0310303276000004000000
B0445513120086S11653720EA0308303254000004000000
B0445553119978S11653688EA0307503244000004000000
B0445593119873S11653651EA0306603234000004000000
B0446033119771S11653611EA0305203218000004000000
B0446073119668S11653572EA0304103205000004000000
B0446113119563S11653536EA0302403189000004000000
B0446153119455S11653498EA0300803174000004000000
B0446193119347S11653459EA0299203154000004000000
B0446233119238S11653417EA0298703156000004000000
B0446273119132S11653387EA0299503161000004000000
B0446313119025S11653361EA0298603144000004000000
B0446353118916S11653334EA0296203122000004000000
B0446393118809S11653311EA0295903128000004000000
B0446433118709S11653290EA0296003123000004000000
B0446473118608S11653264EA0294903109000004000000
B0446513118506S11653229EA0292903090000004000000
B0446553118404S11653195EA0291903081000000000000
B0446593118302S11653161EA0290603060000000000000
B0447033118199S11653122EA0288703048000004000000
B0447073118099S11653086EA0288403045000000000000
B0447113118001S11653051EA0287403026000000000000
B0447153117897S11653014EA0284903005000004000000
B0447193117793S11652980EA0283802998000004000000
B0447233117691S11652944EA0283202988000004000000
B0447273117591S11652906EA0281502970000004000000
B0447313117490S11652867EA0280202958000000000000
B0447353117386S11652828EA0278202935000000000000
B0447393117282S11652788EA0276702912000000000000
B0447433117179S11652750EA0274702900000000000000
B0447473117078S11652717EA0274602903000000000000
B0447513116983S11652683EA0274502895000000000000
B0447553116888S11652646EA0272602869000000000000
B0447593116790S11652609EA0270402851000000000000
B0448033116693S11652572EA0269602847000000000000
B0448073116595S11652535EA0269102840000000000000
B0448113116498S11652496EA0267502822000000000000
B0448153116398S11652455EA0265802799000000000000
B0448193116294S11652420EA0264702799000000015000
B0448233116191S11652384EA0265002801000000000000
B0448273116090S11652349EA0265702810000000000000
B0448313115995S11652317EA0267502831000004000000
B0448353115908S11652294EA0269802852000004000000
B0448393115823S11652272EA0270502856000000000000
B0448433115742S11652260EA0272702886000000000000
B0448473115667S11652255EA0275402910000000000000
B0448513115603S11652284EA0277302932000000000000
B0448553115558S11652345EA0278602945000000000000
B0448593115506S11652398EA0280602964000000000000
B0449033115454S11652369EA0283002997000004000000
B0449073115471S11652302EA0284903012000000000000
B0449113115538S11652285EA0285903031000000000000
B0449153115586S11652337EA0288503056000000000000
B0449193115583S11652414EA0290403075000000000000
B0449233115533S11652454EA0292303091000004000000
B0449273115476S11652437EA0293503099000000000000
B0449313115437S11652376EA0294203107000000000000
B0449353115428S11652301EA0295903127000000000000
B0449393115462S11652234EA0297503143000000000000
B0449433115529S11652207EA0298703158000000000000
B0449473115597S11652230EA0300903181000004000000
B0449513115637S11652293EA0303003209000000000000
B0449553115637S11652369EA0304803221000004000000
B0449593115598S11652434EA0305703236000004000000
B0450033115537S11652450EA0307603251000004000000
B0450073115481S11652411EA0308203251000004000000
B0450113115458S11652334EA0309003266000004000000
B0450153115468S11652256EA0311003290000004000000
B0450193115519S11652206EA0312703302000004000000
B0450233115589S11652223EA0313003308000000000000
B0450273115627S11652298EA0314903335000004000000
B0450313115619S11652377EA0317603361000004000000
B0450353115572S11652428EA0319203373000004000000
B0450393115512S11652420EA0319803377000004000000
B0450433115476S11652358EA0319803377000000000000
B0450473115492S11652278EA0321203394000004000000
B0450513115559S11652245EA0322503410000004000000
B0450553115627S11652273EA0324003423000000000000
B0450593115668S11652349EA0325603443000000000000
B0451033115672S11652433EA0328103472000000000000
B0451073115632S11652486EA0330503491000000000000
B0451113115573S11652484EA0330803488000004000000
B0451153115532S11652423EA0330403484000004000000
B0451193115502S11652342EA0329703481000000000000
B0451233115456S11652268EA0329303477000004000000
B0451273115391S11652203EA0328903476000004000000
B0451313115313S11652148EA0330203495000004000000
B0451343115255S11652111EA0332203517000004000000
B0451393115160S11652055EA0333103522000004000000
B0451433115081S11652012EA0334003536000004000000
B0451473115001S11651972EA0334603532000004000000
B0451513114913S11651930EA0332903515000004000000
B0451553114819S11651886EA0331703505000000000000
B0451593114722S11651844EA0331003501000004000000
B0452033114630S11651810EA0333103528000004000000
B0452073114543S11651788EA0333903532000004000000
B0452113114455S11651762EA0334003528000000000000
B0452153114363S11651735EA0331303496000004000000
B0452193114262S11651706EA0329803485000004000000
B0452233114160S11651678EA0329503487000004000000
B0452273114063S11651645EA0329103475000000000000
B0452313113964S11651608EA0327703458000000000000
B0452353113864S11651570EA0325103428000000000000
B0452393113760S11651530EA0322403401000004000000
B0452433113652S11651492EA0319203370000004000000
B0452473113543S11651454EA0318003367000004000000
B0452513113439S11651418EA0318303368000004000000
B0452553113341S11651381EA0318203369000004000000
B0452593113246S11651345EA0317803358000000000000
B0453033113152S11651303EA0316703342000000000000
B0453073113055S11651261EA0315303329000000000000
B0453113112957S11651220EA0313903317000000000000
B0453153112856S11651180EA0312703302000004000000
B0453193112756S11651138EA0311003287000000000000
B0453233112655S11651098EA0309903276000000000000
B0453273112552S11651056EA0308903266000000000000
B0453313112448S11651017EA0307603253000000000000
B0453353112344S11650978EA0306403239000004000000
B0453393112240S11650942EA0305903239000000000000
B0453433112140S11650906EA0305503231000004000000
B0453473112040S11650872EA0304503220000000000000
B0453513111940S11650834EA0303503211000004000000
B0453553111840S11650796EA0302803201000004000000
B0453593111738S11650760EA0302903193000000000000
B0454033111637S11650722EA0301903182000000000000
B0454073111533S11650686EA0301103174000000000000
B0454113111433S11650651EA0300903179000000000000
B0454153111335S11650617EA0301503180000004000000
B0454193111239S11650585EA0301503179000004000000
B0454233111144S11650551EA0301203178000004000000
B0454273111055S11650522EA0302303193000004000000
B0454313110969S11650503EA0303203199000004000000
B0454353110882S11650484EA0302003178000004000000
B0454393110789S11650458EA0299603158000000000000
B0454433110695S11650430EA0298403146000004000000
B0454473110601S11650395EA0297403133000004000000
B0454513110506S11650365EA0297003131000000000000
B0454553110414S11650334EA0297103136000004000000
B0454593110325S11650304EA0298503168000004000000
B0455033110255S11650284EA0303803222000004000000
B0455073110194S11650274EA0306903237000004000000
B0455113110129S11650273EA0306903231000004000000
B0455153110052S11650275EA0303903185000004000000
B0455193109957S11650266EA0299803150000004000000
B0455233109853S11650252EA0297803139000000000000
B0455273109751S11650234EA0296803130000004000000
B0455313109648S11650211EA0297303141000000000000
B0455353109552S11650195EA0298503162000004000000
B0455393109469S11650183EA0301403188000004000000
B0455433109391S11650175EA0302703194000004000000
B0455473109311S11650169EA0302903198000000000000
B0455513109235S11650163EA0303403200000004000000
B0455553109154S11650161EA0302703183000004000000
B0455593109067S11650150EA0300803163000000000000
B0456033108973S11650136EA0298303135000004000000
B0456073108876S11650117EA0295703110000004000000
B0456113108780S11650092EA0293103080000000000000
B0456153108677S11650072EA0289903052000000000000
B0456193108576S11650045EA0288403038000000000000
B0456233108475S11650015EA0287503031000000000000
B0456273108375S11649984EA0286803018000000000000
B0456313108270S11649951EA0284703003000004000000
B0456353108167S11649919EA0284603004000004000000
B0456393108069S11649902EA0286403034000004000000
B0456433107980S11649893EA0289503064000004000000
B0456473107903S11649890EA0292003085000004000000
B0456513107828S11649896EA0292403082000000000000
B0456553107746S11649905EA0291603071000000000000
B0456593107667S11649919EA0292003086000004000000
B0457033107594S11649941EA0292803089000004000000
B0457073107520S11649963EA0292903095000000000000
B0457113107450S11649977EA0294803119000000000000
B0457153107387S11649996EA0297003141000004000000
B0457193107326S11650019EA0298203149000004000000
B0457233107266S11650053EA0299103163000004000000
B0457273107243S11650122EA0300603173000004000000
B0457313107287S11650187EA0300503166000004000000
B0457353107368S11650178EA0299603165000004000000
B0457393107429S11650113EA0300303168000004000000
B0457433107438S11650022EA0300303169000000000000
B0457473107402S11649941EA0300603177000004000000
B0457513107343S11649881EA0301303184000000000000
B0457553107279S11649837EA0301703189000004000000
B0457593107208S11649801EA0301303179000000000000
B0458033107126S11649766EA0300303171000000000000
B0458073107035S11649733EA0299503168000000000000
B0458113106945S11649708EA0300603178000000000000
B0458153106853S11649685EA0300603179000004000000
B0458193106762S11649667EA0302203203000000000000
B0458233106675S11649647EA0302803192000000000000
B0458273106581S11649630EA0299503153000000000000
B0458313106480S11649613EA0296303125000000000000
B0458353106376S11649591EA0294203107000000000000
B0458393106275S11649569EA0292203088000000000000
B0458433106171S11649551EA0291403083000000000000
B0458473106068S11649530EA0290703074000000000000
B0458513105966S11649506EA0289403059000004000000
B0458553105862S11649474EA0288503045000004000000
B0458593105758S11649443EA0287403040000000000000
B0459033105658S11649416EA0288203056000004000000
B0459073105561S11649408EA0290703080000004000000
B0459113105475S11649413EA0293203105000000000000
B0459153105396S11649424EA0295503122000000000000
B0459193105318S11649447EA0296103126000004000000
B0459233105246S11649481EA0297403142000000000000
B0459273105180S11649520EA0298703151000000000000
B0459313105114S11649560EA0297703134000000000000
B0459353105034S11649591EA0295003109000004000000
B0459393104942S11649607EA0293603099000004000000
B0459433104850S11649615EA0293403103000000000000
B0459473104759S11649620EA0293403097000004000000
B0459513104665S11649620EA0292403089000004000000
B0459553104570S11649613EA0291803082000004000000
B0459593104475S11649599EA0290703067000000000000
B0500033104377S11649572EA0288103040000000000000
B0500073104280S11649532EA0286903035000000000000
B0500113104185S11649485EA0285003009000000000000
B0500153104088S11649433EA0283202991000000000000
B0500193103989S11649379EA0282502991000000000000
B0500233103896S11649335EA0283703005000000000000
B0500273103805S11649292EA0284203004000000000000
B0500313103715S11649252EA0284503015000000000000
B0500353103632S11649217EA0286103024000004000000
B0500393103548S11649179EA0285103009000000000000
B0500433103463S11649138EA0284003001000004000000
B0500473103378S11649097EA0284703013000004000000
B0500513103298S11649057EA0284503003000004000000
B0500553103214S11649010EA0282502982000004000000
B0500593103129S11648954EA0282102983000004000000
B0501033103045S11648902EA0282602989000000000000
B0501073102966S11648853EA0284003001000000000000
B0501113102889S11648801EA0283202986000000000000
B0501153102810S11648742EA0281602972000000000000
B0501193102729S11648684EA0281302977000000000000
B0501233102649S11648629EA0281402969000000000000
B0501273102567S11648572EA0280402963000000000000
