ACAM4N6
HFDTE210315
HFFXA050
HFPLTPILOT:JOHN WELSH              
HFGTYGLIDERTYPE:HORNET      
HFGIDGLIDERID:VH-GMY      
HFDTM100GPSDATUM:
HFRFWFIRMWAREVERSION:F2.6
HFRHWHARDWAREVERSION:300 Series Version 2
HFFTYFRTYPE:CAMBRIDGE AERO INSTRUMENTS, 302+
HFGPS:GARMIN,LVS-25,12,18000
HFPRSPRESSALTSENSOR:INTERSEMA, MS5534-AP, 20000
I033638FXA3941ENL4247REX
LCAMSBVER:5FWVER:F26300
C210315033103210315000103
C0000000N00000000WTAKEOFF     
C3207547S11656819EBeverley Air
C3137397S11712959ECunderdin Ai
C3256165S11710679ENarrogin Sil
C3255535S11704919ENarrogin Aer
C3207547S11656819EBeverley Air
C0000000N00000000WLANDING     
B0711533255788S11704983EA0033400329000000000000
B0711553255788S11704983EA0033400329000000000000
B0711573255788S11704983EA0033500329000000000000
B0711593255788S11704983EA0033500329000000000000
B0712013255788S11704983EA0033400329000000000000
B0712033255788S11704983EA0033500329000000000000
B0712053255788S11704983EA0033600329000000000000
B0712073255788S11704983EA0033500329000000000000
B0712093255788S11704983EA0033500329000000000000
B0712113255788S11704983EA0033600329000000000000
B0712133255788S11704983EA0033600329000000000000
B0712153255788S11704983EA0033400329000000000000
B0712173255788S11704983EA0033300329000000000000
B0712193255789S11704983EA0033300329000000000000
B0712213255790S11704983EA0033300329000000000000
B0712233255797S11704985EA0033300329000000000000
B0712273255818S11704989EA0033500329000000000000
B0712313255852S11704995EA0033300331000000000000
B0712353255894S11705003EA0033400331000000000000
B0712393255945S11705012EA0033700334000000000000
B0712433255997S11705017EA0034100340000000000000
B0712473256048S11705022EA0035200352000000000000
B0712513256089S11705029EA0037200376000000000000
B0712553256127S11705035EA0038800391000000000000
B0712593256166S11705041EA0039900403000000000000
B0713033256205S11705046EA0040900413000000000000
B0713073256247S11705052EA0042000423000000000000
B0713113256288S11705061EA0042800430000000000000
B0713153256330S11705074EA0043700443000000000000
B0713193256373S11705099EA0044500452000000000000
B0713233256408S11705145EA0045300460000000000000
B0713273256439S11705199EA0046100474000000000000
B0713313256460S11705268EA0047300483000000000000
B0713353256463S11705349EA0048000491000000000000
B0713393256452S11705433EA0049200503000000000000
B0713433256434S11705523EA0049900507000000000000
B0713473256409S11705615EA0050000511000000000000
B0713513256377S11705705EA0051000523000000000000
B0713553256335S11705792EA0052300536000000000000
B0713593256279S11705871EA0053500547000000000000
B0714033256209S11705941EA0054500553000000000000
B0714073256125S11705986EA0055300566000000000000
B0714113256035S11706014EA0056400579000000000000
B0714153255946S11706042EA0057200585000000000000
B0714193255861S11706069EA0058100596000000000000
B0714233255776S11706095EA0059100604000000000000
B0714273255692S11706116EA0060100614000000000000
B0714313255608S11706139EA0061000621000000000000
B0714353255528S11706161EA0061900632000000000000
B0714393255450S11706179EA0063100642000000000000
B0714433255371S11706198EA0064000652000000000000
B0714473255293S11706211EA0065000660000000000000
B0714513255213S11706224EA0065900670000000000000
B0714553255133S11706237EA0066800677000000000000
B0714593255053S11706251EA0067400683000000000000
B0715033254973S11706269EA0067800689000000000000
B0715073254893S11706291EA0068600696000000000000
B0715113254813S11706311EA0069100703000000000000
B0715153254735S11706328EA0070300715000000000000
B0715193254656S11706338EA0071100722000000000000
B0715233254576S11706342EA0071800728000000000000
B0715273254497S11706342EA0072300734000000000000
B0715313254419S11706335EA0073200744000000000000
B0715353254342S11706329EA0074200755000000000000
B0715393254266S11706324EA0075400768000000000000
B0715433254189S11706318EA0076200777000000000000
B0715473254113S11706316EA0077200790000000000000
B0715513254039S11706312EA0078600802000000000000
B0715553253967S11706302EA0079300810000000000000
B0715593253894S11706285EA0080200817000000000000
B0716033253821S11706273EA0081000824000000000000
B0716073253746S11706260EA0081400829000000000000
B0716113253669S11706250EA0081900836000000000000
B0716153253593S11706239EA0082900846000000000000
B0716193253519S11706230EA0083700855000000000000
B0716233253447S11706220EA0084700865000000000000
B0716273253371S11706207EA0085600872000000000000
B0716313253297S11706190EA0086300885000000000000
B0716353253224S11706177EA0087900900000000000000
B0716393253148S11706168EA0089000912000000000000
B0716433253071S11706155EA0090200922000000000000
B0716473252998S11706134EA0091200935000000000000
B0716513252924S11706118EA0092600947000000000000
B0716553252849S11706100EA0093300954000000000000
B0716593252771S11706084EA0094300965000000000000
B0717033252694S11706064EA0095300974000000000000
B0717073252617S11706043EA0096300986000000000000
B0717113252538S11706021EA0097200993000000000000
B0717153252461S11705999EA0097900999000000000000
B0717193252386S11705974EA0098401008000000000000
B0717233252312S11705954EA0099301019000000000000
B0717273252238S11705938EA0100601028000000000000
B0717313252163S11705919EA0101201035000000000000
B0717353252088S11705901EA0102101044000000000000
B0717393252013S11705883EA0102701049000000000000
B0717433251937S11705860EA0103301059000000000000
B0717473251862S11705834EA0104201065000000000000
B0717513251785S11705809EA0104801072000000000000
B0717553251712S11705784EA0105601081000000000000
B0717593251642S11705758EA0106901090000000000000
B0718033251572S11705732EA0107801104000000000000
B0718073251503S11705713EA0109201116000000000000
B0718113251433S11705694EA0109501121000000000000
B0718153251361S11705676EA0110501128000000000000
B0718193251290S11705657EA0110901134000000000000
B0718233251220S11705633EA0111601141000000000000
B0718273251149S11705611EA0112301148000000000000
B0718313251078S11705590EA0113501161000000000000
B0718353251006S11705571EA0114401169000000000000
B0718393250938S11705550EA0115201176000000000000
B0718433250869S11705529EA0115501181000000000000
B0718473250801S11705506EA0116001183000000000000
B0718513250732S11705488EA0116901195000000000000
B0718553250663S11705468EA0117701202000000000000
B0718593250593S11705444EA0118101205000000000000
B0719033250525S11705416EA0118601213000000000000
B0719073250457S11705394EA0119801224000000000000
B0719113250385S11705373EA0120401230000000000000
B0719153250311S11705356EA0120801235000000000000
B0719193250238S11705345EA0122001249000000000000
B0719233250164S11705336EA0123001259000000000000
B0719273250091S11705345EA0123001257000000000000
B0719313250016S11705366EA0122601250000000000000
B0719353249940S11705385EA0122001244000000000000
B0719393249862S11705403EA0121201238000000000000
B0719433249784S11705421EA0121101236000000000000
B0719473249706S11705441EA0120901234000000000000
B0719513249626S11705467EA0120201227000000000000
B0719553249549S11705511EA0119701223000000000000
B0719593249472S11705559EA0119201213000000000000
B0720033249385S11705594EA0118001206000000000000
B0720073249296S11705618EA0117601203000000000000
B0720113249206S11705637EA0117701204000000000000
B0720153249120S11705657EA0118301211000000000000
B0720193249033S11705679EA0117901205000000000000
B0720233248945S11705700EA0117801203000000000000
B0720273248856S11705722EA0117701204000000000000
B0720313248768S11705741EA0117601200000000000000
B0720353248679S11705761EA0117501197000000000000
B0720393248591S11705780EA0117601199000000000000
B0720433248503S11705796EA0117701200000000000000
B0720473248414S11705796EA0117701198000000000000
B0720513248339S11705763EA0117801199000000000000
B0720553248278S11705711EA0117501196000000000000
B0720593248215S11705661EA0117301194000000000000
B0721033248141S11705627EA0117201194000000000000
B0721073248059S11705611EA0116601184000000000000
B0721113247971S11705611EA0115901176000000000000
B0721153247880S11705620EA0114601163000000000000
B0721193247786S11705635EA0113701156000000000000
B0721233247693S11705652EA0113401152000000000000
B0721273247598S11705668EA0112801145000000000000
B0721313247503S11705683EA0112201138000000000000
B0721353247405S11705700EA0111401134000000000000
B0721393247308S11705720EA0111301130000000000000
B0721433247210S11705744EA0110801124000000000000
B0721473247112S11705746EA0110201120000000000000
B0721513247018S11705741EA0110401130000000000000
B0721553246927S11705745EA0111401135000000000000
B0721593246837S11705754EA0111401136000000000000
B0722033246750S11705737EA0111501132000000000000
B0722073246701S11705681EA0111701142000000000000
B0722113246706S11705637EA0112601151000000000000
B0722153246737S11705646EA0112501147000000000000
B0722193246758S11705706EA0112001138000000000000
B0722233246741S11705797EA0111001128000000000000
B0722273246687S11705887EA0110501127000000000000
B0722313246609S11705944EA0110801131000000000000
B0722353246542S11705921EA0111801143000000000000
B0722393246550S11705883EA0111601136000000000000
B0722433246583S11705917EA0111101133000000000000
B0722473246573S11705995EA0111101134000000000000
B0722513246527S11706068EA0111001130000000000000
B0722553246458S11706125EA0110201124000000000000
B0722593246377S11706170EA0110001120000000000000
B0723033246300S11706222EA0110401125000000000000
B0723073246286S11706307EA0111001136000000000000
B0723113246328S11706329EA0110901134000000000000
B0723153246339S11706285EA0111601146000000000000
B0723193246286S11706253EA0112601151000000000000
B0723233246213S11706289EA0112401150000000000000
B0723273246187S11706367EA0112801154000000000000
B0723313246216S11706420EA0112601148000000000000
B0723353246252S11706406EA0111801140000000000000
B0723393246265S11706355EA0111601147000000000000
B0723433246224S11706309EA0112501157000000000000
B0723473246151S11706335EA0113301163000000000000
B0723513246128S11706415EA0113201158000000000000
B0723553246165S11706456EA0112801155000000000000
B0723593246186S11706417EA0112801157000000000000
B0724033246144S11706369EA0113201162000000000000
B0724073246068S11706370EA0113301159000000000000
B0724113246007S11706437EA0113301162000000000000
B0724153245999S11706520EA0113301163000000000000
B0724193246037S11706551EA0113201159000000000000
B0724233246059S11706516EA0112801158000000000000
B0724273246033S11706458EA0112701155000000000000
B0724313245964S11706422EA0112501152000000000000
B0724353245878S11706439EA0111901147000000000000
B0724393245817S11706516EA0112101155000000000000
B0724433245806S11706599EA0112801158000000000000
B0724473245838S11706641EA0112001148000000000000
B0724513245865S11706616EA0111301141000000000000
B0724553245844S11706558EA0111001143000000000000
B0724593245784S11706515EA0110901137000000000000
B0725033245704S11706498EA0109601123000000000000
B0725073245613S11706515EA0107701103000000000000
B0725113245517S11706541EA0106001087000000000000
B0725153245419S11706572EA0104601075000000000000
B0725193245322S11706610EA0103901067000000000000
B0725233245229S11706653EA0103601066000000000000
B0725273245140S11706698EA0103101058000000000000
B0725313245047S11706745EA0102101045000000000000
B0725353244956S11706798EA0100901034000000000000
B0725393244864S11706857EA0100301030000000000000
B0725433244776S11706918EA0100701037000000000000
B0725473244691S11706979EA0101401042000000000000
B0725513244610S11707043EA0102101050000000000000
B0725553244577S11707131EA0103701067000000000000
B0725593244605S11707188EA0103901064000000000000
B0726033244640S11707178EA0103601064000000000000
B0726073244638S11707128EA0104101072000000000000
B0726113244571S11707105EA0104401072000000000000
B0726153244501S11707163EA0104601080000000000000
B0726193244488S11707247EA0105701086000000000000
B0726233244521S11707287EA0105301079000000000000
B0726273244551S11707265EA0104901076000000000000
B0726313244556S11707219EA0105001081000000000000
B0726353244506S11707184EA0106101093000000000000
B0726393244432S11707173EA0106401093000000000000
B0726433244357S11707161EA0105901086000000000000
B0726473244275S11707147EA0105101080000000000000
B0726513244202S11707187EA0106001089000000000000
B0726553244204S11707265EA0105601081000000000000
B0726593244250S11707314EA0104701078000000000000
B0727033244300S11707326EA0105001082000000000000
B0727073244340S11707305EA0104901081000000000000
B0727113244378S11707279EA0105001082000000000000
B0727153244404S11707241EA0105501089000000000000
B0727193244373S11707199EA0106801101000000000000
B0727233244302S11707208EA0107201098000000000000
B0727273244241S11707271EA0106901097000000000000
B0727313244241S11707352EA0107201102000000000000
B0727353244280S11707373EA0107101101000000000000
B0727393244280S11707330EA0107401108000000000000
B0727433244224S11707306EA0108001109000000000000
B0727473244158S11707348EA0107901111000000000000
B0727513244142S11707431EA0108201116000000000000
B0727553244176S11707481EA0108401117000000000000
B0727593244202S11707461EA0108601120000000000000
B0728033244184S11707421EA0109001124000000000000
B0728073244128S11707400EA0108901119000000000000
B0728113244054S11707420EA0108601116000000000000
B0728153243983S11707470EA0108301118000000000000
B0728193243931S11707542EA0109201128000000000000
B0728233243938S11707616EA0109801129000000000000
B0728273243977S11707633EA0109801131000000000000
B0728313243984S11707592EA0110401139000000000000
B0728353243946S11707553EA0111001147000000000000
B0728393243879S11707585EA0110901139000000000000
B0728433243862S11707670EA0111201150000000000000
B0728473243894S11707721EA0111801153000000000000
B0728513243929S11707711EA0112401161000000000000
B0728553243925S11707669EA0112901165000000000000
B0728593243877S11707637EA0112901163000000000000
B0729033243806S11707656EA0112601162000000000000
B0729073243772S11707733EA0113501175000000000000
B0729113243797S11707793EA0113901173000000000000
B0729153243833S11707787EA0113801177000000000000
B0729193243828S11707741EA0113901174000000000000
B0729233243768S11707711EA0113801173000000000000
B0729273243699S11707750EA0114601184000000000000
B0729313243682S11707828EA0115601193000000000000
B0729353243715S11707872EA0115301186000000000000
B0729393243738S11707852EA0115401192000000000000
B0729433243712S11707808EA0115301189000000000000
B0729473243646S11707785EA0114601183000000000000
B0729513243564S11707790EA0114101176000000000000
B0729553243474S11707797EA0113001163000000000000
B0729593243378S11707799EA0111901151000000000000
B0730033243283S11707799EA0111901154000000000000
B0730073243187S11707802EA0111801148000000000000
B0730113243091S11707804EA0110701137000000000000
B0730153242993S11707807EA0110401136000000000000
B0730193242900S11707811EA0111001139000000000000
B0730233242806S11707816EA0110301131000000000000
B0730273242714S11707824EA0110301133000000000000
B0730313242623S11707833EA0110101128000000000000
B0730353242530S11707845EA0109301120000000000000
B0730393242439S11707856EA0109001120000000000000
B0730433242352S11707863EA0109501125000000000000
B0730473242268S11707867EA0109701124000000000000
B0730513242183S11707868EA0109701127000000000000
B0730553242101S11707862EA0110001124000000000000
B0730593242021S11707852EA0109201121000000000000
B0731033241942S11707833EA0108901112000000000000
B0731073241871S11707790EA0108701113000000000000
B0731113241830S11707724EA0108901119000000000000
B0731153241789S11707661EA0109501124000000000000
B0731193241713S11707660EA0110001127000000000000
B0731233241665S11707733EA0109601116000000000000
B0731273241684S11707803EA0108401109000000000000
B0731313241730S11707829EA0107601102000000000000
B0731353241776S11707824EA0107101100000000000000
B0731393241800S11707777EA0107101100000000000000
B0731433241802S11707712EA0106401092000000000000
B0731473241801S11707641EA0105501084000000000000
B0731513241792S11707565EA0104301069000000000000
B0731553241786S11707486EA0103501062000000000000
B0731593241779S11707410EA0103201059000000000000
B0732033241775S11707336EA0102701054000000000000
B0732073241771S11707264EA0101801042000000000000
B0732113241773S11707193EA0101001032000000000000
B0732153241778S11707124EA0099701020000000000000
B0732193241769S11707050EA0098701010000000000000
B0732233241726S11706981EA0097901003000000000000
B0732273241663S11706926EA0097200998000000000000
B0732313241594S11706883EA0097401001000000000000
B0732353241526S11706846EA0096700991000000000000
B0732393241455S11706806EA0095500979000000000000
B0732433241385S11706772EA0095000973000000000000
B0732473241320S11706732EA0094700968000000000000
B0732513241273S11706679EA0094000960000000000000
B0732553241220S11706627EA0093000951000000000000
B0732593241154S11706590EA0092100942000000000000
B0733033241078S11706569EA0091500938000000000000
B0733073240999S11706564EA0091400934000000000000
B0733113240920S11706565EA0091100931000000000000
B0733153240843S11706571EA0091300936000000000000
B0733193240769S11706576EA0091300935000000000000
B0733233240695S11706578EA0091200932000000000000
B0733273240622S11706564EA0090800924000000000000
B0733313240553S11706534EA0090000916000000000000
B0733353240501S11706485EA0089900919000000000000
B0733393240509S11706438EA0090400925000000000000
B0733433240545S11706464EA0090800932000000000000
B0733473240531S11706536EA0091800942000000000000
B0733513240463S11706578EA0091800937000000000000
B0733553240404S11706551EA0091300936000000000000
B0733593240402S11706502EA0091400936000000000000
B0734033240439S11706507EA0091200935000000000000
B0734073240436S11706577EA0091700939000000000000
B0734113240372S11706621EA0092300945000000000000
B0734153240311S11706595EA0091400931000000000000
B0734193240322S11706541EA0090100925000000000000
B0734233240362S11706558EA0091000934000000000000
B0734273240359S11706632EA0091700940000000000000
B0734313240318S11706702EA0092500947000000000000
B0734353240281S11706776EA0092000941000000000000
B0734393240292S11706845EA0091700938000000000000
B0734433240335S11706854EA0091300936000000000000
B0734473240333S11706806EA0092100946000000000000
B0734513240266S11706816EA0093100957000000000000
B0734553240246S11706892EA0094400974000000000000
B0734593240279S11706916EA0094800969000000000000
B0735033240296S11706875EA0094300975000000000000
B0735073240241S11706859EA0095500984000000000000
B0735113240205S11706939EA0095900987000000000000
B0735153240242S11706980EA0097301002000000000000
B0735193240261S11706940EA0097701004000000000000
B0735233240214S11706905EA0098301012000000000000
B0735273240148S11706939EA0098901019000000000000
B0735313240136S11707020EA0100001034000000000000
B0735353240179S11707039EA0100701035000000000000
B0735393240183S11706991EA0101601046000000000000
B0735433240131S11706962EA0101801044000000000000
B0735473240060S11707006EA0101801051000000000000
B0735513240046S11707091EA0103501071000000000000
B0735553240088S11707113EA0104901080000000000000
B0735593240093S11707071EA0105801090000000000000
B0736033240044S11707040EA0105501081000000000000
B0736073239972S11707080EA0104901082000000000000
B0736113239967S11707166EA0106301102000000000000
B0736153240007S11707192EA0108501123000000000000
B0736193240031S11707160EA0109101120000000000000
B0736233239998S11707113EA0108401114000000000000
B0736273239924S11707121EA0107601104000000000000
B0736313239863S11707196EA0107701115000000000000
B0736353239851S11707283EA0109801137000000000000
B0736393239884S11707335EA0110601139000000000000
B0736433239932S11707332EA0109901130000000000000
B0736473239954S11707286EA0109601128000000000000
B0736513239921S11707228EA0109501129000000000000
B0736553239849S11707205EA0109201124000000000000
B0736593239782S11707258EA0109701131000000000000
B0737033239754S11707348EA0109601133000000000000
B0737073239761S11707434EA0110701147000000000000
B0737113239802S11707462EA0111601149000000000000
B0737153239830S11707433EA0111201143000000000000
B0737193239817S11707379EA0110901143000000000000
B0737233239781S11707323EA0110001133000000000000
B0737273239741S11707261EA0108401115000000000000
B0737313239695S11707200EA0108501121000000000000
B0737353239635S11707157EA0109901134000000000000
B0737393239563S11707174EA0111601148000000000000
B0737433239524S11707252EA0112301154000000000000
B0737473239542S11707322EA0113101167000000000000
B0737513239578S11707332EA0114301180000000000000
B0737553239583S11707296EA0115301187000000000000
B0737593239537S11707260EA0115301187000000000000
B0738033239464S11707271EA0115601193000000000000
B0738073239416S11707339EA0117201211000000000000
B0738113239414S11707413EA0118301220000000000000
B0738153239449S11707448EA0118901226000000000000
B0738193239475S11707429EA0119501232000000000000
B0738233239457S11707384EA0119301226000000000000
B0738273239395S11707368EA0119201233000000000000
B0738313239332S11707408EA0120501244000000000000
B0738353239305S11707485EA0121101248000000000000
B0738393239327S11707546EA0121901258000000000000
B0738433239364S11707553EA0122901268000000000000
B0738473239378S11707520EA0122801262000000000000
B0738513239347S11707472EA0122101258000000000000
B0738553239284S11707448EA0122701270000000000000
B0738593239217S11707473EA0123801274000000000000
B0739033239174S11707544EA0123801277000000000000
B0739073239189S11707616EA0124601285000000000000
B0739113239230S11707629EA0125401295000000000000
B0739153239248S11707594EA0126401305000000000000
B0739193239219S11707552EA0127001307000000000000
B0739233239153S11707551EA0127101308000000000000
B0739273239105S11707612EA0127801317000000000000
B0739313239110S11707683EA0128101322000000000000
B0739353239148S11707715EA0128601326000000000000
B0739393239178S11707693EA0128801324000000000000
B0739433239169S11707639EA0128201322000000000000
B0739473239130S11707587EA0128701333000000000000
B0739513239062S11707590EA0130601353000000000000
B0739553239022S11707657EA0131201352000000000000
B0739593239043S11707720EA0131501360000000000000
B0740033239083S11707720EA0132201366000000000000
B0740073239092S11707677EA0133601381000000000000
B0740113239049S11707633EA0134401385000000000000
B0740153238978S11707651EA0135701401000000000000
B0740193238945S11707721EA0136601412000000000000
B0740233238966S11707778EA0137201413000000000000
B0740273239004S11707784EA0137701422000000000000
B0740313239011S11707742EA0138701434000000000000
B0740353238976S11707699EA0139601437000000000000
B0740393238905S11707698EA0140901459000000000000
B0740433238849S11707752EA0142801472000000000000
B0740473238841S11707829EA0143101475000000000000
B0740513238872S11707869EA0143801481000000000000
B0740553238906S11707859EA0144101485000000000000
B0740593238914S11707813EA0145101497000000000000
B0741033238877S11707769EA0146601513000000000000
B0741073238812S11707769EA0147201519000000000000
B0741113238763S11707830EA0147801525000000000000
B0741153238771S11707904EA0148201529000000000000
B0741193238812S11707929EA0148501531000000000000
B0741233238841S11707894EA0149201545000000000000
B0741273238838S11707837EA0150501550000000000000
B0741313238799S11707774EA0149201533000000000000
B0741353238731S11707720EA0147401520000000000000
B0741393238650S11707673EA0146701507000000000000
B0741433238567S11707628EA0144901484000000000000
B0741473238478S11707582EA0143101469000000000000
B0741513238391S11707538EA0142701468000000000000
B0741553238305S11707496EA0143201475000000000000
B0741593238225S11707456EA0143501475000000000000
B0742033238144S11707418EA0143401473000000000000
B0742073238065S11707381EA0143101472000000000000
B0742113237987S11707345EA0143201473000000000000
B0742153237910S11707310EA0143201470000000000000
B0742193237836S11707274EA0142701466000000000000
B0742233237770S11707226EA0142301459000000000000
B0742273237710S11707167EA0141101449000000000000
B0742313237650S11707108EA0141301452000000000000
B0742353237590S11707049EA0141101450000000000000
B0742393237531S11706993EA0141601459000000000000
B0742433237475S11706941EA0142401461000000000000
B0742473237410S11706897EA0141401449000000000000
B0742513237333S11706858EA0140501442000000000000
B0742553237252S11706827EA0140301441000000000000
B0742593237167S11706802EA0139701435000000000000
B0743033237082S11706779EA0139501433000000000000
B0743073236998S11706755EA0139401432000000000000
B0743113236914S11706733EA0139301430000000000000
B0743153236833S11706710EA0139501434000000000000
B0743193236755S11706692EA0139801438000000000000
B0743233236675S11706672EA0139701431000000000000
B0743273236596S11706649EA0138901424000000000000
B0743313236515S11706625EA0138501420000000000000
B0743353236435S11706602EA0138201419000000000000
B0743393236355S11706578EA0138101414000000000000
B0743433236275S11706552EA0137201409000000000000
B0743473236194S11706528EA0137201408000000000000
B0743513236114S11706503EA0137001406000000000000
B0743553236034S11706481EA0136701404000000000000
B0743593235955S11706458EA0136401398000000000000
B0744033235877S11706432EA0135901393000000000000
B0744073235800S11706402EA0135401387000000000000
B0744113235722S11706372EA0134701382000000000000
B0744153235644S11706342EA0134301377000000000000
B0744193235569S11706309EA0133801372000000000000
B0744233235495S11706272EA0133401369000000000000
B0744273235422S11706231EA0132701362000000000000
B0744313235349S11706187EA0132001353000000000000
B0744353235275S11706144EA0131501349000000000000
B0744393235204S11706100EA0131301346000000000000
B0744433235132S11706057EA0130901342000000000000
B0744473235061S11706019EA0130601338000000000000
B0744513234989S11705983EA0130401338000000000000
B0744553234922S11705951EA0130901340000000000000
B0744593234853S11705923EA0130301335000000000000
B0745033234781S11705892EA0129601329000000000000
B0745073234708S11705862EA0129301326000000000000
B0745113234636S11705834EA0129301326000000000000
B0745153234564S11705804EA0129201325000000000000
B0745193234491S11705771EA0128901321000000000000
B0745233234420S11705743EA0129101327000000000000
B0745273234351S11705714EA0129401326000000000000
B0745313234282S11705685EA0129101322000000000000
B0745353234212S11705657EA0128601318000000000000
B0745393234140S11705631EA0128301316000000000000
B0745433234070S11705605EA0128101314000000000000
B0745473233997S11705581EA0128001312000000000000
B0745513233927S11705559EA0127901310000000000000
B0745553233857S11705538EA0127701307000000000000
B0745593233787S11705519EA0127301302000000000000
B0746033233716S11705498EA0126701295000000000000
B0746073233645S11705477EA0126101287000000000000
B0746113233571S11705455EA0125401282000000000000
B0746153233498S11705432EA0125301283000000000000
B0746193233427S11705410EA0125201281000000000000
B0746233233355S11705386EA0125001275000000000000
B0746273233284S11705363EA0124101267000000000000
B0746313233209S11705341EA0123601263000000000000
B0746353233138S11705315EA0123201257000000000000
B0746393233065S11705286EA0122601253000000000000
B0746433232992S11705258EA0122201249000000000000
B0746473232914S11705233EA0122101245000000000000
B0746513232838S11705206EA0121201237000000000000
B0746553232767S11705164EA0120301228000000000000
B0746593232706S11705112EA0119701222000000000000
B0747033232652S11705055EA0119301219000000000000
B0747073232601S11704998EA0119001216000000000000
B0747113232553S11704937EA0118101203000000000000
B0747153232507S11704872EA0117101198000000000000
B0747193232462S11704809EA0117101197000000000000
B0747233232410S11704752EA0116901196000000000000
B0747273232340S11704722EA0117401203000000000000
B0747313232262S11704703EA0117101197000000000000
B0747353232189S11704673EA0116401190000000000000
B0747393232116S11704639EA0115801180000000000000
B0747433232042S11704602EA0114701174000000000000
B0747473231969S11704570EA0114501168000000000000
B0747513231895S11704532EA0113701162000000000000
B0747553231837S11704482EA0114101173000000000000
B0747593231839S11704440EA0117101202000000000000
B0748033231865S11704476EA0118101207000000000000
B0748073231851S11704563EA0116801195000000000000
B0748113231786S11704636EA0116801199000000000000
B0748153231707S11704658EA0117201205000000000000
B0748193231646S11704631EA0118001210000000000000
B0748233231634S11704586EA0118101210000000000000
B0748273231665S11704583EA0118001212000000000000
B0748313231682S11704653EA0118701222000000000000
B0748353231643S11704736EA0119501229000000000000
B0748393231570S11704774EA0120101231000000000000
B0748433231512S11704745EA0120101231000000000000
B0748473231514S11704701EA0119301225000000000000
B0748513231549S11704722EA0120401240000000000000
B0748553231553S11704797EA0121701250000000000000
B0748593231514S11704881EA0121401245000000000000
B0749033231439S11704921EA0121101243000000000000
B0749073231379S11704891EA0121601252000000000000
B0749113231375S11704846EA0121901252000000000000
B0749153231412S11704851EA0121901255000000000000
B0749193231428S11704918EA0123001265000000000000
B0749233231396S11705002EA0123101262000000000000
B0749273231322S11705046EA0122601259000000000000
B0749313231252S11705029EA0122601263000000000000
B0749353231222S11704979EA0123001264000000000000
B0749393231243S11704951EA0123301268000000000000
B0749433231276S11704982EA0124001272000000000000
B0749473231284S11705060EA0124301275000000000000
B0749513231256S11705146EA0124101274000000000000
B0749553231192S11705216EA0123601268000000000000
B0749593231109S11705241EA0123501268000000000000
B0750033231041S11705212EA0123501270000000000000
B0750073231012S11705156EA0123601266000000000000
B0750113231005S11705096EA0122801260000000000000
B0750153231007S11705043EA0122801260000000000000
B0750193230986S11704987EA0122901259000000000000
B0750233230934S11704938EA0121601243000000000000
B0750273230868S11704891EA0120401234000000000000
B0750313230797S11704848EA0120001231000000000000
B0750353230723S11704810EA0120001232000000000000
B0750393230650S11704779EA0120201231000000000000
B0750433230576S11704752EA0119901225000000000000
B0750473230500S11704727EA0119401220000000000000
B0750513230422S11704709EA0119101219000000000000
B0750553230349S11704692EA0119201217000000000000
B0750593230278S11704679EA0119701224000000000000
B0751033230212S11704664EA0120101224000000000000
B0751073230147S11704644EA0119601218000000000000
B0751113230076S11704623EA0118701211000000000000
B0751153230004S11704599EA0118101204000000000000
B0751193229927S11704574EA0117901205000000000000
B0751233229849S11704556EA0118401210000000000000
B0751273229770S11704539EA0117801200000000000000
B0751313229688S11704519EA0117201197000000000000
B0751353229606S11704501EA0117001194000000000000
B0751393229527S11704480EA0116801195000000000000
B0751433229449S11704459EA0116901195000000000000
B0751473229373S11704439EA0116601190000000000000
B0751513229298S11704417EA0116201186000000000000
B0751553229224S11704393EA0115801181000000000000
B0751593229148S11704367EA0115101176000000000000
B0752033229075S11704341EA0115301178000000000000
B0752073229003S11704318EA0114901174000000000000
B0752113228930S11704292EA0114401167000000000000
B0752153228856S11704262EA0113801164000000000000
B0752193228783S11704231EA0113901165000000000000
B0752233228710S11704202EA0114001166000000000000
B0752273228639S11704176EA0113901164000000000000
B0752313228570S11704147EA0113301155000000000000
B0752353228505S11704107EA0112301145000000000000
B0752393228446S11704062EA0111701141000000000000
B0752433228392S11704014EA0111201133000000000000
B0752473228336S11703964EA0110701134000000000000
B0752513228280S11703919EA0111401143000000000000
B0752553228225S11703874EA0112001143000000000000
B0752593228169S11703830EA0111301138000000000000
B0753033228117S11703783EA0111301140000000000000
B0753073228067S11703739EA0111601142000000000000
B0753113227996S11703717EA0112001146000000000000
B0753153227928S11703761EA0112501150000000000000
B0753193227915S11703838EA0112401150000000000000
B0753233227944S11703868EA0112301146000000000000
B0753273227957S11703838EA0111801146000000000000
B0753313227916S11703796EA0112201147000000000000
B0753353227842S11703817EA0112301147000000000000
B0753393227800S11703893EA0112001145000000000000
B0753433227812S11703954EA0111901143000000000000
B0753473227842S11703951EA0110901132000000000000
B0753513227865S11703920EA0110301131000000000000
B0753553227891S11703890EA0110601136000000000000
B0753593227917S11703859EA0110601135000000000000
B0754033227944S11703826EA0109701122000000000000
B0754073227944S11703774EA0109201115000000000000
B0754113227912S11703716EA0108101102000000000000
B0754153227857S11703664EA0107001094000000000000
B0754193227788S11703624EA0106601092000000000000
B0754233227714S11703591EA0106201088000000000000
B0754273227639S11703561EA0105801084000000000000
B0754313227564S11703531EA0105401079000000000000
B0754353227487S11703503EA0104801071000000000000
B0754393227409S11703475EA0103901065000000000000
B0754433227332S11703449EA0103701061000000000000
B0754473227257S11703421EA0103401054000000000000
B0754513227183S11703390EA0102401042000000000000
B0754553227103S11703357EA0101201031000000000000
B0754593227025S11703330EA0100701027000000000000
B0755033226946S11703305EA0100601028000000000000
B0755073226868S11703280EA0100401025000000000000
B0755113226798S11703245EA0100101021000000000000
B0755153226729S11703210EA0099801020000000000000
B0755193226656S11703180EA0099501017000000000000
B0755233226582S11703152EA0099501018000000000000
B0755273226507S11703126EA0099501018000000000000
B0755313226431S11703101EA0099601017000000000000
B0755353226357S11703075EA0099101011000000000000
B0755393226283S11703048EA0098301003000000000000
B0755433226208S11703019EA0097400992000000000000
B0755473226132S11702990EA0096500986000000000000
B0755513226058S11702966EA0096800989000000000000
B0755553225983S11702941EA0096100982000000000000
B0755593225907S11702918EA0095800978000000000000
B0756033225831S11702893EA0095500977000000000000
B0756073225755S11702868EA0095500976000000000000
B0756113225681S11702845EA0095300974000000000000
B0756153225607S11702821EA0095000972000000000000
B0756193225534S11702798EA0094600964000000000000
B0756233225460S11702772EA0093800958000000000000
B0756273225385S11702745EA0093500955000000000000
B0756313225309S11702717EA0093500956000000000000
B0756353225233S11702691EA0093300951000000000000
B0756393225156S11702664EA0092700948000000000000
B0756433225082S11702638EA0092700948000000000000
B0756473225012S11702615EA0092700946000000000000
B0756513224941S11702590EA0092200940000000000000
B0756553224871S11702564EA0091500935000000000000
B0756593224801S11702535EA0091200930000000000000
B0757033224732S11702506EA0090700925000000000000
B0757073224663S11702472EA0090300920000000000000
B0757113224596S11702433EA0089600916000000000000
B0757153224531S11702394EA0089500914000000000000
B0757193224466S11702357EA0089200913000000000000
B0757233224405S11702320EA0089100910000000000000
B0757273224346S11702281EA0088700905000000000000
B0757313224286S11702243EA0087900896000000000000
B0757353224223S11702207EA0087000887000000000000
B0757393224159S11702170EA0086200878000000000000
B0757433224094S11702135EA0085600872000000000000
B0757473224028S11702103EA0085100865000000000000
B0757513223960S11702073EA0084700862000000000000
B0757553223890S11702048EA0084100855000000000000
B0757593223820S11702026EA0083300848000000000000
B0758033223751S11702004EA0082800841000000000000
B0758073223682S11701980EA0082200836000000000000
B0758113223612S11701956EA0082700844000000000000
B0758153223550S11701923EA0082800842000000000000
B0758193223493S11701884EA0082600840000000000000
B0758233223453S11701835EA0082900843000000000000
B0758273223470S11701814EA0083600854000000000000
B0758313223485S11701871EA0083900854000000000000
B0758353223444S11701957EA0083600858000000000000
B0758393223368S11701987EA0083900861000000000000
B0758433223323S11701950EA0084100863000000000000
B0758473223339S11701937EA0084400867000000000000
B0758513223357S11702002EA0083100850000000000000
B0758553223327S11702100EA0082600854000000000000
B0758593223258S11702165EA0083200861000000000000
B0759033223189S11702156EA0083900865000000000000
B0759073223179S11702117EA0083900862000000000000
B0759113223211S11702130EA0083400858000000000000
B0759153223222S11702207EA0083500861000000000000
B0759193223173S11702285EA0084000865000000000000
B0759233223098S11702324EA0084100865000000000000
B0759273223041S11702299EA0084200867000000000000
B0759313223045S11702266EA0083900861000000000000
B0759353223080S11702292EA0083500859000000000000
B0759393223077S11702376EA0084100866000000000000
B0759433223020S11702450EA0084800872000000000000
B0759473222947S11702461EA0085100875000000000000
B0759513222919S11702425EA0085200873000000000000
B0759553222947S11702415EA0084400862000000000000
B0759593222975S11702473EA0084300871000000000000
B0800033222962S11702560EA0085300878000000000000
B0800073222912S11702641EA0085600880000000000000
B0800113222839S11702665EA0086100887000000000000
B0800153222787S11702642EA0086900896000000000000
B0800193222783S11702612EA0086800890000000000000
B0800233222816S11702620EA0086200886000000000000
B0800273222837S11702686EA0086800896000000000000
B0800313222803S11702769EA0087100895000000000000
B0800353222730S11702806EA0087100898000000000000
B0800393222674S11702776EA0087600903000000000000
B0800433222677S11702741EA0087800903000000000000
B0800473222711S11702747EA0087800905000000000000
B0800513222734S11702808EA0088400911000000000000
B0800553222718S11702894EA0088700911000000000000
B0800593222669S11702972EA0088900914000000000000
B0801033222595S11703020EA0089100916000000000000
B0801073222533S11703007EA0090100928000000000000
B0801113222512S11702967EA0090500931000000000000
B0801153222534S11702951EA0090500932000000000000
B0801193222564S11702988EA0090800936000000000000
B0801233222570S11703063EA0090700934000000000000
B0801273222531S11703149EA0091000936000000000000
B0801313222458S11703197EA0091300938000000000000
B0801353222397S11703178EA0091900948000000000000
B0801393222393S11703140EA0092200947000000000000
B0801433222429S11703157EA0092100948000000000000
B0801473222443S11703232EA0092400952000000000000
B0801513222410S11703319EA0093100959000000000000
B0801553222340S11703366EA0093700961000000000000
B0801593222283S11703339EA0093600962000000000000
B0802033222276S11703291EA0093800964000000000000
B0802073222308S11703289EA0094400974000000000000
B0802113222330S11703349EA0095000974000000000000
B0802153222308S11703439EA0095000975000000000000
B0802193222250S11703514EA0095300977000000000000
B0802233222178S11703518EA0095100981000000000000
B0802273222152S11703477EA0096100991000000000000
B0802313222172S11703453EA0096700994000000000000
B0802353222205S11703483EA0097201000000000000000
B0802393222210S11703561EA0097100997000000000000
B0802433222165S11703643EA0097101000000000000000
B0802473222091S11703672EA0097301000000000000000
B0802513222037S11703639EA0097301003000000000000
B0802553222037S11703592EA0097601005000000000000
B0802593222076S11703587EA0098101011000000000000
B0803033222102S11703648EA0098901017000000000000
B0803073222087S11703738EA0099201018000000000000
B0803113222032S11703811EA0099501021000000000000
B0803153221961S11703829EA0099801027000000000000
B0803193221918S11703799EA0100301032000000000000
B0803233221923S11703767EA0100501032000000000000
B0803273221959S11703780EA0100601035000000000000
B0803313221975S11703850EA0100901037000000000000
B0803353221942S11703934EA0100801033000000000000
B0803393221883S11704008EA0100601031000000000000
B0803433221808S11704062EA0100401030000000000000
B0803473221745S11704050EA0100901037000000000000
B0803513221742S11704014EA0101101037000000000000
B0803553221779S11704024EA0101601047000000000000
B0803593221797S11704093EA0103001059000000000000
B0804033221775S11704181EA0103401059000000000000
B0804073221712S11704244EA0103201057000000000000
B0804113221639S11704255EA0102901055000000000000
B0804153221589S11704219EA0102701055000000000000
B0804193221584S11704175EA0103301063000000000000
B0804233221612S11704159EA0103801068000000000000
B0804273221645S11704205EA0105101081000000000000
B0804313221637S11704289EA0105801084000000000000
B0804353221582S11704368EA0106101091000000000000
B0804393221511S11704394EA0106701096000000000000
B0804433221463S11704367EA0107001097000000000000
B0804473221464S11704331EA0106901100000000000000
B0804513221495S11704332EA0107501106000000000000
B0804553221526S11704383EA0108001108000000000000
B0804593221532S11704467EA0108301110000000000000
B0805033221487S11704553EA0108801115000000000000
B0805073221417S11704600EA0108701113000000000000
B0805113221347S11704595EA0108401110000000000000
B0805153221299S11704553EA0108201110000000000000
B0805193221283S11704502EA0108401114000000000000
B0805233221300S11704463EA0108301109000000000000
B0805273221339S11704476EA0108701117000000000000
B0805313221378S11704517EA0109201119000000000000
B0805353221420S11704561EA0108701113000000000000
B0805393221460S11704619EA0108501110000000000000
B0805433221483S11704704EA0108101109000000000000
B0805473221477S11704801EA0108401109000000000000
B0805513221442S11704898EA0108101105000000000000
B0805553221386S11704985EA0107801103000000000000
B0805593221307S11705035EA0107601100000000000000
B0806033221225S11705039EA0107001093000000000000
B0806073221151S11705012EA0105801083000000000000
B0806113221083S11704968EA0104901076000000000000
B0806153221017S11704922EA0105001081000000000000
B0806193220956S11704875EA0106001093000000000000
B0806233220937S11704826EA0106901099000000000000
B0806273220970S11704838EA0107901110000000000000
B0806313220962S11704920EA0107201098000000000000
B0806353220895S11704990EA0106501095000000000000
B0806393220810S11705028EA0106401094000000000000
B0806433220723S11705043EA0106301097000000000000
B0806473220649S11705021EA0107001103000000000000
B0806513220637S11704979EA0107701108000000000000
B0806553220664S11705016EA0106401087000000000000
B0806593220620S11705116EA0103701076000000000000
B0807033220534S11705177EA0105101085000000000000
B0807073220445S11705206EA0104801076000000000000
B0807113220354S11705202EA0103801066000000000000
B0807153220267S11705178EA0102601053000000000000
B0807193220186S11705142EA0101801041000000000000
B0807233220109S11705100EA0100801036000000000000
B0807273220039S11705061EA0100801033000000000000
B0807313219970S11705017EA0099601021000000000000
B0807353219901S11704974EA0098901015000000000000
B0807393219835S11704931EA0098501008000000000000
B0807433219769S11704885EA0097500999000000000000
B0807473219702S11704838EA0097000995000000000000
B0807513219636S11704794EA0097000994000000000000
B0807553219571S11704747EA0096100980000000000000
B0807593219506S11704700EA0095900983000000000000
B0808033219442S11704654EA0096100984000000000000
B0808073219377S11704610EA0096300990000000000000
B0808113219314S11704570EA0097301001000000000000
B0808153219275S11704519EA0098901016000000000000
B0808193219296S11704496EA0100901040000000000000
B0808233219327S11704547EA0102801065000000000000
B0808273219314S11704630EA0104601075000000000000
B0808313219257S11704695EA0104401070000000000000
B0808353219181S11704700EA0104301071000000000000
B0808393219132S11704662EA0104701082000000000000
B0808433219127S11704618EA0105201083000000000000
B0808473219159S11704601EA0105501086000000000000
B0808513219198S11704649EA0106601103000000000000
B0808553219202S11704734EA0107901109000000000000
B0808593219166S11704822EA0108501117000000000000
B0809033219101S11704878EA0109101124000000000000
B0809073219037S11704870EA0109601131000000000000
B0809113219019S11704835EA0110401138000000000000
B0809153219045S11704827EA0110801142000000000000
B0809193219078S11704872EA0111701150000000000000
B0809233219084S11704959EA0112301155000000000000
B0809273219043S11705048EA0113001166000000000000
B0809313218972S11705103EA0113801171000000000000
B0809353218898S11705104EA0114101179000000000000
B0809393218854S11705067EA0115001189000000000000
B0809433218854S11705029EA0115701190000000000000
B0809473218887S11705018EA0115701195000000000000
B0809513218924S11705057EA0116701203000000000000
B0809553218941S11705137EA0117201207000000000000
B0809593218919S11705233EA0117701211000000000000
B0810033218864S11705317EA0118101216000000000000
B0810073218791S11705341EA0118601220000000000000
B0810113218747S11705308EA0118901226000000000000
B0810153218763S11705285EA0119401232000000000000
B0810193218803S11705317EA0119701235000000000000
B0810233218822S11705399EA0120401243000000000000
B0810273218798S11705497EA0121301250000000000000
B0810313218737S11705564EA0122001255000000000000
B0810353218664S11705583EA0121801251000000000000
B0810393218601S11705557EA0121701254000000000000
B0810433218564S11705512EA0122101261000000000000
B0810473218579S11705486EA0123301273000000000000
B0810513218610S11705528EA0124301282000000000000
B0810553218613S11705618EA0124601283000000000000
B0810593218574S11705709EA0124401276000000000000
B0811033218501S11705767EA0124101278000000000000
B0811073218423S11705774EA0124301282000000000000
B0811113218371S11705737EA0124801291000000000000
B0811153218375S11705701EA0126301306000000000000
B0811193218415S11705713EA0126801308000000000000
B0811233218445S11705787EA0127201312000000000000
B0811273218439S11705888EA0127001306000000000000
B0811313218386S11705982EA0126801307000000000000
B0811353218305S11706031EA0127601314000000000000
B0811393218227S11706031EA0127701316000000000000
B0811433218170S11705992EA0128001317000000000000
B0811473218116S11705943EA0128001314000000000000
B0811513218057S11705887EA0127601315000000000000
B0811553217998S11705828EA0128001317000000000000
B0811593217940S11705767EA0127101302000000000000
B0812033217881S11705701EA0125801291000000000000
B0812073217823S11705633EA0125101286000000000000
B0812113217765S11705571EA0125301287000000000000
B0812153217713S11705511EA0124901280000000000000
B0812193217660S11705449EA0124001274000000000000
B0812233217607S11705385EA0123301270000000000000
B0812273217555S11705324EA0123301267000000000000
B0812313217503S11705263EA0122801262000000000000
B0812353217453S11705207EA0123101265000000000000
B0812393217404S11705151EA0122401255000000000000
B0812433217357S11705095EA0122001250000000000000
B0812473217310S11705039EA0121201245000000000000
B0812513217262S11704983EA0120901240000000000000
B0812553217216S11704929EA0120301236000000000000
B0812593217166S11704875EA0120001233000000000000
B0813033217117S11704822EA0119301226000000000000
B0813073217066S11704769EA0119201225000000000000
B0813113217018S11704721EA0119201225000000000000
B0813153216974S11704675EA0118801216000000000000
B0813193216927S11704625EA0117101196000000000000
B0813233216880S11704569EA0116301197000000000000
B0813273216831S11704514EA0116001193000000000000
B0813313216785S11704458EA0115601186000000000000
B0813353216748S11704397EA0114601177000000000000
B0813393216710S11704337EA0114201176000000000000
B0813433216672S11704280EA0113901171000000000000
B0813473216627S11704224EA0113001161000000000000
B0813513216576S11704172EA0112101152000000000000
B0813553216520S11704123EA0111901154000000000000
B0813593216465S11704077EA0111901148000000000000
B0814033216408S11704033EA0111601150000000000000
B0814073216352S11703990EA0112401158000000000000
B0814113216296S11703950EA0112601158000000000000
B0814153216242S11703903EA0112701162000000000000
B0814193216198S11703851EA0113201165000000000000
B0814233216157S11703798EA0113101162000000000000
B0814273216113S11703746EA0112201153000000000000
B0814313216060S11703696EA0111101143000000000000
B0814353216003S11703652EA0110901141000000000000
B0814393215943S11703611EA0110701140000000000000
B0814433215883S11703570EA0110701137000000000000
B0814473215821S11703531EA0109901127000000000000
B0814513215754S11703488EA0108701112000000000000
B0814553215685S11703442EA0107001097000000000000
B0814593215613S11703393EA0106001087000000000000
B0815033215541S11703348EA0105801090000000000000
B0815073215476S11703306EA0106001091000000000000
B0815113215411S11703263EA0105701085000000000000
B0815153215346S11703223EA0105101083000000000000
B0815193215281S11703185EA0105201081000000000000
B0815233215216S11703146EA0104101071000000000000
B0815273215150S11703106EA0103501065000000000000
B0815313215081S11703067EA0103001059000000000000
B0815353215013S11703029EA0102801056000000000000
B0815393214948S11702992EA0102101044000000000000
B0815433214883S11702950EA0100901035000000000000
B0815473214817S11702910EA0100401030000000000000
B0815513214752S11702871EA0099901025000000000000
B0815553214687S11702831EA0099301020000000000000
B0815593214623S11702792EA0098901016000000000000
B0816033214560S11702753EA0098401011000000000000
B0816073214499S11702714EA0098301013000000000000
B0816113214444S11702673EA0099501026000000000000
B0816153214402S11702632EA0100601040000000000000
B0816193214398S11702587EA0102301055000000000000
B0816233214435S11702600EA0104101072000000000000
B0816273214448S11702671EA0104101068000000000000
B0816313214415S11702755EA0103901068000000000000
B0816353214354S11702805EA0104401078000000000000
B0816393214294S11702805EA0105501087000000000000
B0816433214255S11702772EA0106001092000000000000
B0816473214254S11702733EA0106601099000000000000
B0816513214283S11702717EA0107401108000000000000
B0816553214319S11702747EA0107701106000000000000
B0816593214339S11702823EA0106701094000000000000
B0817033214315S11702915EA0106301093000000000000
B0817073214249S11702976EA0106201092000000000000
B0817113214175S11702984EA0106801101000000000000
B0817153214118S11702955EA0107401109000000000000
B0817193214102S11702910EA0108101118000000000000
B0817233214136S11702914EA0109301129000000000000
B0817273214155S11702985EA0109601127000000000000
B0817313214122S11703078EA0109301127000000000000
B0817353214047S11703126EA0110101139000000000000
B0817393213979S11703119EA0110801142000000000000
B0817433213917S11703083EA0109701128000000000000
B0817473213858S11703033EA0108401114000000000000
B0817513213797S11702977EA0107101104000000000000
B0817553213738S11702919EA0106701101000000000000
B0817593213682S11702863EA0106601097000000000000
B0818033213625S11702806EA0105601086000000000000
B0818073213565S11702745EA0104501072000000000000
B0818113213505S11702680EA0103501067000000000000
B0818153213447S11702619EA0103301064000000000000
B0818193213390S11702556EA0102801056000000000000
B0818233213330S11702494EA0102001050000000000000
B0818273213269S11702430EA0101401044000000000000
B0818313213208S11702369EA0101301043000000000000
B0818353213148S11702308EA0101001041000000000000
B0818393213087S11702249EA0100701036000000000000
B0818433213028S11702191EA0100101030000000000000
B0818473212968S11702132EA0099601024000000000000
B0818513212911S11702074EA0098901016000000000000
B0818553212854S11702015EA0098301012000000000000
B0818593212798S11701956EA0098101011000000000000
B0819033212742S11701897EA0098101008000000000000
B0819073212686S11701837EA0097601003000000000000
B0819113212630S11701778EA0097000996000000000000
B0819153212575S11701716EA0096300990000000000000
B0819193212519S11701655EA0095800986000000000000
B0819233212460S11701598EA0095200976000000000000
B0819273212402S11701540EA0094400969000000000000
B0819313212342S11701482EA0093500959000000000000
B0819353212282S11701428EA0093300961000000000000
B0819393212227S11701376EA0093500960000000000000
B0819433212172S11701326EA0093300957000000000000
B0819473212117S11701278EA0092900954000000000000
B0819513212061S11701232EA0092500949000000000000
B0819553212003S11701183EA0092200949000000000000
B0819593211941S11701135EA0092300953000000000000
B0820033211884S11701087EA0093400965000000000000
B0820073211826S11701040EA0093400964000000000000
B0820113211766S11700991EA0093300960000000000000
B0820153211705S11700942EA0092600954000000000000
B0820193211645S11700894EA0092300949000000000000
B0820233211588S11700845EA0091500943000000000000
B0820273211531S11700800EA0091100938000000000000
B0820313211473S11700752EA0090400928000000000000
B0820353211415S11700702EA0089600923000000000000
B0820393211354S11700653EA0089200919000000000000
B0820433211293S11700604EA0089000917000000000000
B0820473211233S11700553EA0089100916000000000000
B0820513211172S11700501EA0089100921000000000000
B0820553211116S11700449EA0090100928000000000000
B0820593211060S11700397EA0090400928000000000000
B0821033211004S11700345EA0090200927000000000000
B0821073210950S11700294EA0090200927000000000000
B0821113210895S11700242EA0089600922000000000000
B0821153210838S11700189EA0089400917000000000000
B0821193210781S11700136EA0089300916000000000000
B0821233210723S11700082EA0088300906000000000000
B0821273210665S11700029EA0087500898000000000000
B0821313210606S11659977EA0086800889000000000000
B0821353210549S11659924EA0085900881000000000000
B0821393210495S11659874EA0085500877000000000000
B0821433210443S11659826EA0085200873000000000000
B0821473210392S11659778EA0084800870000000000000
B0821513210340S11659730EA0084500865000000000000
B0821553210288S11659681EA0083800858000000000000
B0821593210236S11659629EA0083000847000000000000
B0822033210181S11659575EA0081600836000000000000
B0822073210127S11659521EA0080800828000000000000
B0822113210072S11659464EA0080200824000000000000
B0822153210017S11659406EA0079700821000000000000
B0822193209964S11659350EA0079900826000000000000
B0822233209912S11659297EA0080500831000000000000
B0822273209860S11659245EA0080200824000000000000
B0822313209809S11659189EA0079400815000000000000
B0822353209759S11659132EA0078800809000000000000
B0822393209707S11659076EA0078300807000000000000
B0822433209657S11659023EA0078300805000000000000
B0822473209604S11658973EA0078300807000000000000
B0822513209549S11658927EA0078200804000000000000
B0822553209495S11658880EA0077900802000000000000
B0822593209442S11658834EA0077800800000000000000
B0823033209388S11658788EA0078000802000000000000
B0823073209336S11658738EA0077900803000000000000
B0823113209287S11658689EA0077800801000000000000
B0823153209239S11658641EA0077900801000000000000
B0823193209191S11658594EA0077900798000000000000
B0823233209141S11658544EA0077000790000000000000
B0823273209091S11658494EA0076000782000000000000
B0823313209040S11658442EA0075600778000000000000
B0823353208988S11658390EA0075000771000000000000
B0823393208938S11658336EA0074400763000000000000
B0823433208890S11658279EA0073800755000000000000
B0823473208842S11658221EA0072700745000000000000
B0823513208795S11658158EA0072200738000000000000
B0823553208751S11658095EA0071500736000000000000
B0823593208710S11658032EA0072200743000000000000
B0824033208673S11657971EA0072400742000000000000
B0824073208637S11657910EA0071900738000000000000
B0824113208603S11657852EA0071500734000000000000
B0824153208569S11657793EA0071100729000000000000
B0824193208534S11657735EA0070600723000000000000
B0824233208496S11657677EA0070100718000000000000
B0824273208461S11657621EA0070000719000000000000
B0824313208425S11657568EA0070000718000000000000
B0824353208389S11657515EA0069500712000000000000
B0824393208352S11657459EA0068700704000000000000
B0824433208320S11657403EA0068400701000000000000
B0824473208291S11657347EA0067600695000000000000
B0824513208265S11657291EA0067200691000000000000
B0824553208243S11657237EA0067200689000000000000
B0824593208218S11657186EA0066700685000000000000
B0825033208194S11657134EA0066500683000000000000
B0825073208170S11657082EA0066300680000000000000
B0825113208148S11657029EA0065800675000000000000
B0825153208123S11656977EA0065400671000000000000
B0825193208095S11656927EA0065500669000000000000
B0825233208060S11656880EA0065200664000000000000
B0825273208018S11656836EA0064100657000000000000
B0825313207973S11656791EA0063300645000000000000
B0825353207927S11656741EA0062300634000000000000
B0825393207883S11656688EA0061000623000000000000
B0825433207841S11656632EA0060000614000000000000
B0825473207814S11656570EA0059500609000000000000
B0825513207801S11656514EA0060500621000000000000
B0825553207754S11656487EA0061500630000000000000
B0825593207690S11656515EA0061200622000000000000
B0826033207646S11656593EA0060700618000000000000
B0826073207646S11656675EA0060200612000000000000
B0826113207679S11656728EA0059500606000000000000
B0826153207722S11656739EA0058400594000000000000
B0826193207765S11656722EA0056800580000000000000
B0826233207801S11656684EA0055500568000000000000
B0826273207824S11656630EA0054200554000000000000
B0826313207832S11656565EA0053400547000000000000
B0826353207822S11656500EA0052300539000000000000
B0826393207797S11656440EA0051700528000000000000
B0826433207757S11656385EA0050400513000000000000
B0826473207710S11656332EA0049200505000000000000
B0826513207663S11656280EA0048900501000000000000
B0826553207618S11656228EA0048200494000000000000
B0826593207566S11656182EA0047800491000000000000
B0827033207501S11656155EA0047600488000000000000
B0827073207427S11656147EA0046900479000000000000
B0827113207349S11656150EA0046300474000000000000
B0827153207269S11656175EA0046100469000000000000
B0827193207193S11656221EA0045400462000000000000
B0827233207121S11656284EA0044800458000000000000
B0827273207059S11656359EA0044500457000000000000
B0827313207001S11656438EA0044300452000000000000
B0827353206948S11656524EA0043500447000000000000
B0827393206900S11656611EA0043300444000000000000
B0827433206860S11656704EA0042900439000000000000
B0827473206838S11656802EA0042800439000000000000
B0827513206834S11656903EA0043100444000000000000
B0827553206849S11656992EA0042400434000000000000
B0827593206882S11657068EA0041100420000000000000
B0828033206926S11657126EA0039800404000000000000
B0828073206981S11657168EA0039000397000000000000
B0828113207037S11657205EA0038400391000000000000
B0828153207095S11657243EA0037600382000000000000
B0828193207155S11657280EA0036700374000000000000
B0828233207217S11657316EA0035700363000000000000
B0828273207277S11657341EA0034100349000000000000
B0828313207330S11657343EA0033100337000000000000
B0828353207373S11657325EA0031300317000000000000
B0828393207406S11657293EA0029500298000000000000
B0828433207430S11657250EA0028100283000000000000
B0828473207451S11657203EA0026500263000000000000
B0828513207471S11657151EA0024600245000000000000
B0828553207490S11657094EA0023000231000000000000
B0828593207508S11657038EA0021700219000000000000
B0829033207525S11656986EA0020900210000000000000
B0829073207541S11656939EA0020300206000000000000
B0829113207551S11656903EA0020300204000000000000
B0829153207559S11656874EA0020200205000000000000
B0829193207559S11656853EA0020300205000000000000
B0829233207559S11656838EA0020400205000000000000
B0829273207559S11656828EA0020500205000000000000
B0829313207558S11656825EA0020500206000000000000
B0829353207558S11656825EA0020500206000000000000
B0829393207558S11656825EA0020600206000000000000
B0829433207558S11656825EA0020400206000000000000
B0829473207558S11656825EA0020300206000000000000
B0829513207558S11656825EA0020400206000000000000
G0003000000424D6E2C0000000000000000000000000000000000000000000000
G0EE6E9B575C309A08541B8D830BFE2486A74B9AB00000000605FEB2BE593FDBD
G09BF2A94BB23651174F1DFAA5E05F4E8F3C583010000000000000000252D8F7A
