ACAM4N6
HFDTE040115
HFFXA050
HFPLTPILOT:JOHN WELSH              
HFGTYGLIDERTYPE:HORNET      
HFGIDGLIDERID:VH-GMY      
HFDTM100GPSDATUM:
HFRFWFIRMWAREVERSION:F2.6
HFRHWHARDWAREVERSION:300 Series Version 2
HFFTYFRTYPE:CAMBRIDGE AERO INSTRUMENTS, 302+
HFGPS:GARMIN,LVS-25,12,18000
HFPRSPRESSALTSENSOR:INTERSEMA, MS5534-AP, 20000
I033638FXA3941ENL4247REX
LCAMSBVER:5FWVER:F26300
C040115034822040115000103
C0000000N00000000WTAKEOFF     
C3207547S11656879EBeverley Air
C3111283S11701799EDOWERIN     
C3203749S11824239ENarembeen   
C3256165S11710679ENarrogin Sil
C3207547S11656879EBeverley Air
C0000000N00000000WLANDING     
B0400263207337S11656860EA0021800208000000000000
B0400283207337S11656860EA0021900208000000000000
B0400303207337S11656860EA0021800208000000000000
B0400323207337S11656860EA0021800208000000000000
B0400343207337S11656860EA0021800208000000000000
B0400363207337S11656860EA0021900208000000000000
B0400383207337S11656860EA0021800208000000000000
B0400403207337S11656860EA0021800208000000000000
B0400423207337S11656860EA0021800208000000000000
B0400443207337S11656860EA0021900208000000000000
B0400463207337S11656860EA0021900208000000000000
B0400483207337S11656860EA0021800208000000000000
B0400503207337S11656860EA0021900208000000000000
B0400523207338S11656861EA0021900209000000000000
B0400543207338S11656861EA0021800209000000000000
B0400573207345S11656866EA0021700209000000000000
B0401013207367S11656884EA0021700208000000000000
B0401053207404S11656910EA0021700208000000000000
B0401093207454S11656940EA0021700208000000000000
B0401133207515S11656977EA0021700208000000000000
B0401173207579S11657020EA0021900212000000000000
B0401213207642S11657066EA0022400221000000000000
B0401253207703S11657112EA0024200241000000000000
B0401293207767S11657157EA0025700253000000000000
B0401333207828S11657207EA0027000274000000000000
B0401373207891S11657250EA0028700291000000000000
B0401413207956S11657286EA0029800301000000000000
B0401453208018S11657324EA0030900313000000000000
B0401493208083S11657359EA0032000326000000000000
B0401533208144S11657398EA0034100353000000000000
B0401573208192S11657456EA0036000366000000000000
B0402013208229S11657527EA0036800379000000000000
B0402053208251S11657605EA0038100391000000000000
B0402093208262S11657689EA0039500402000000000000
B0402133208268S11657777EA0040900421000000000000
B0402173208269S11657862EA0043100445000000000000
B0402213208269S11657948EA0044700460000000000000
B0402253208262S11658034EA0046900488000000000000
B0402293208242S11658112EA0049300512000000000000
B0402333208188S11658173EA0051100528000000000000
B0402373208113S11658205EA0052000535000000000000
B0402413208028S11658196EA0052700544000000000000
B0402453207957S11658143EA0053700560000000000000
B0402493207909S11658058EA0055100575000000000000
B0402533207889S11657958EA0057000599000000000000
B0402573207901S11657858EA0059300620000000000000
B0403013207943S11657774EA0061300637000000000000
B0403053207999S11657710EA0063100655000000000000
B0403093208062S11657679EA0065300677000000000000
B0403133208132S11657681EA0066700689000000000000
B0403173208195S11657715EA0067500697000000000000
B0403213208244S11657771EA0068300706000000000000
B0403253208272S11657841EA0070300732000000000000
B0403293208278S11657922EA0072300749000000000000
B0403333208257S11658004EA0073500763000000000000
B0403373208238S11658078EA0074700774000000000000
B0403413208266S11658127EA0075800785000000000000
B0403453208309S11658100EA0076300791000000000000
B0403493208309S11658026EA0075800781000000000000
B0403533208268S11657950EA0074700779000000000000
B0403573208205S11657943EA0075800792000000000000
B0404013208183S11657993EA0076500790000000000000
B0404053208212S11658035EA0075700783000000000000
B0404093208264S11658019EA0075100779000000000000
B0404133208301S11657965EA0074600774000000000000
B0404173208292S11657885EA0074200771000000000000
B0404213208239S11657827EA0073700765000000000000
B0404253208171S11657796EA0073000758000000000000
B0404293208099S11657800EA0072400749000000000000
B0404333208035S11657835EA0071800742000000000000
B0404373207980S11657885EA0071300735000000000000
B0404413207947S11657953EA0070700728000000000000
B0404453207927S11658026EA0069800718000000000000
B0404493207921S11658104EA0068900707000000000000
B0404533207924S11658183EA0068000699000000000000
B0404573207945S11658260EA0067400692000000000000
B0405013207980S11658329EA0066100678000000000000
B0405053208026S11658388EA0065500671000000000000
B0405093208075S11658442EA0064900664000000000000
B0405133208130S11658486EA0064200657000000000000
B0405173208188S11658524EA0063200645000000000000
B0405213208251S11658552EA0062000631000000000000
B0405253208313S11658590EA0060300616000000000000
B0405293208373S11658641EA0059500608000000000000
B0405333208431S11658686EA0059200607000000000000
B0405373208493S11658720EA0059100604000000000000
B0405413208560S11658724EA0058900601000000000000
B0405453208628S11658708EA0058000591000000000000
B0405493208691S11658669EA0057300587000000000000
B0405533208751S11658629EA0056700576000000000000
B0405573208812S11658590EA0055300564000000000000
B0406013208870S11658537EA0054700559000000000000
B0406053208902S11658459EA0055200565000000000000
B0406093208883S11658374EA0056300579000000000000
B0406133208819S11658372EA0057300587000000000000
B0406173208820S11658425EA0058200595000000000000
B0406213208866S11658431EA0058400598000000000000
B0406253208901S11658378EA0058700602000000000000
B0406293208866S11658312EA0059100605000000000000
B0406333208811S11658336EA0058700597000000000000
B0406373208812S11658398EA0059000605000000000000
B0406413208859S11658416EA0059300605000000000000
B0406453208897S11658357EA0059400613000000000000
B0406493208880S11658279EA0060100614000000000000
B0406533208815S11658248EA0059800608000000000000
B0406573208756S11658287EA0059700612000000000000
B0407013208769S11658335EA0061100628000000000000
B0407053208806S11658299EA0061800626000000000000
B0407093208793S11658223EA0061100622000000000000
B0407133208729S11658197EA0061000621000000000000
B0407173208693S11658245EA0061800628000000000000
B0407213208715S11658292EA0061900628000000000000
B0407253208766S11658282EA0062100632000000000000
B0407293208792S11658221EA0063100643000000000000
B0407333208768S11658149EA0063200642000000000000
B0407373208708S11658114EA0062200631000000000000
B0407413208649S11658140EA0061800631000000000000
B0407453208624S11658200EA0062400636000000000000
B0407493208654S11658248EA0062500637000000000000
B0407533208702S11658222EA0063000647000000000000
B0407573208712S11658152EA0063700653000000000000
B0408013208664S11658092EA0063400651000000000000
B0408053208612S11658117EA0063500653000000000000
B0408093208634S11658160EA0064700664000000000000
B0408133208677S11658131EA0065400669000000000000
B0408173208672S11658056EA0065700669000000000000
B0408213208616S11658005EA0065200664000000000000
B0408253208551S11658018EA0064900665000000000000
B0408293208520S11658073EA0065200668000000000000
B0408333208524S11658138EA0065700671000000000000
B0408373208561S11658179EA0065700670000000000000
B0408413208616S11658171EA0065800670000000000000
B0408453208654S11658114EA0065800674000000000000
B0408493208639S11658039EA0066800686000000000000
B0408533208578S11658027EA0067300689000000000000
B0408573208548S11658078EA0067500690000000000000
B0409013208578S11658115EA0067800693000000000000
B0409053208626S11658086EA0067900699000000000000
B0409093208608S11658015EA0069100715000000000000
B0409133208551S11658013EA0070000719000000000000
B0409173208539S11658063EA0070000716000000000000
B0409213208580S11658089EA0069900714000000000000
B0409253208619S11658045EA0070500726000000000000
B0409293208587S11657983EA0071500736000000000000
B0409333208528S11657989EA0071900737000000000000
B0409373208507S11658047EA0072200741000000000000
B0409413208537S11658091EA0072500741000000000000
B0409453208589S11658080EA0072600746000000000000
B0409493208628S11658031EA0073000750000000000000
B0409533208624S11657954EA0073100750000000000000
B0409573208572S11657902EA0072500738000000000000
B0410013208512S11657923EA0071800739000000000000
B0410053208486S11657987EA0072500743000000000000
B0410093208500S11658048EA0072600745000000000000
B0410133208551S11658061EA0072800749000000000000
B0410173208587S11658008EA0073000747000000000000
B0410213208581S11657924EA0072600744000000000000
B0410253208534S11657855EA0072200739000000000000
B0410293208460S11657823EA0071200729000000000000
B0410333208381S11657816EA0071500734000000000000
B0410373208327S11657862EA0072600752000000000000
B0410413208339S11657917EA0074000757000000000000
B0410453208392S11657927EA0072900745000000000000
B0410493208429S11657868EA0072800746000000000000
B0410533208415S11657783EA0073000750000000000000
B0410573208369S11657718EA0073600762000000000000
B0411013208314S11657738EA0074600767000000000000
B0411053208322S11657793EA0075200778000000000000
B0411093208373S11657784EA0076400790000000000000
B0411133208381S11657709EA0077400801000000000000
B0411173208322S11657671EA0078000806000000000000
B0411213208281S11657712EA0078600813000000000000
B0411253208295S11657766EA0079800828000000000000
B0411293208342S11657776EA0081000836000000000000
B0411333208386S11657729EA0081600842000000000000
B0411373208377S11657653EA0082200850000000000000
B0411413208321S11657607EA0081800840000000000000
B0411453208256S11657631EA0081400840000000000000
B0411493208235S11657694EA0081900852000000000000
B0411533208265S11657738EA0083700868000000000000
B0411573208314S11657709EA0084900877000000000000
B0412013208312S11657632EA0085600890000000000000
B0412053208257S11657593EA0086900899000000000000
B0412093208209S11657621EA0087500906000000000000
B0412133208213S11657673EA0088900922000000000000
B0412173208259S11657683EA0090100930000000000000
B0412213208291S11657631EA0090700937000000000000
B0412253208264S11657559EA0091100943000000000000
B0412293208204S11657551EA0092000950000000000000
B0412333208186S11657601EA0092600961000000000000
B0412373208225S11657619EA0093900972000000000000
B0412413208261S11657568EA0094400974000000000000
B0412453208244S11657493EA0094900981000000000000
B0412493208187S11657471EA0095400985000000000000
B0412533208148S11657512EA0095200987000000000000
B0412573208160S11657564EA0096801005000000000000
B0413013208208S11657563EA0097801014000000000000
B0413053208235S11657499EA0098201015000000000000
B0413093208207S11657424EA0098201020000000000000
B0413133208145S11657404EA0098901023000000000000
B0413173208099S11657439EA0099501029000000000000
B0413213208100S11657498EA0099901037000000000000
B0413253208145S11657517EA0101201056000000000000
B0413293208188S11657480EA0102701059000000000000
B0413333208190S11657400EA0101601050000000000000
B0413373208145S11657333EA0101201049000000000000
B0413413208080S11657296EA0101301049000000000000
B0413453208013S11657307EA0101301053000000000000
B0413493207982S11657361EA0102501063000000000000
B0413533208013S11657406EA0103101071000000000000
B0413573208066S11657386EA0104001081000000000000
B0414013208091S11657313EA0105001093000000000000
B0414053208065S11657234EA0106201105000000000000
B0414093208005S11657211EA0107101112000000000000
B0414133207962S11657248EA0107201112000000000000
B0414173207969S11657306EA0107501116000000000000
B0414213208015S11657334EA0108201122000000000000
B0414253208066S11657299EA0109501139000000000000
B0414293208070S11657221EA0110701148000000000000
B0414333208021S11657166EA0111001152000000000000
B0414373207961S11657176EA0111701160000000000000
B0414413207939S11657229EA0112401168000000000000
B0414453207971S11657268EA0112901171000000000000
B0414493208025S11657247EA0113601182000000000000
B0414533208035S11657170EA0115301198000000000000
B0414573207993S11657108EA0115501196000000000000
B0415013207934S11657117EA0116001207000000000000
B0415053207911S11657170EA0116901213000000000000
B0415093207943S11657215EA0117001214000000000000
B0415133207999S11657204EA0117601223000000000000
B0415173208027S11657135EA0119201239000000000000
B0415213208006S11657056EA0119301239000000000000
B0415253207947S11657026EA0119301241000000000000
B0415293207905S11657066EA0119901249000000000000
B0415333207910S11657125EA0120101248000000000000
B0415373207958S11657159EA0120301253000000000000
B0415413208010S11657126EA0121601267000000000000
B0415453208002S11657049EA0122901277000000000000
B0415493207945S11657022EA0123001278000000000000
B0415533207913S11657070EA0122901276000000000000
B0415573207932S11657129EA0122801277000000000000
B0416013207989S11657143EA0124001291000000000000
B0416053208036S11657099EA0125901309000000000000
B0416093208038S11657025EA0126801316000000000000
B0416133207993S11656974EA0126701316000000000000
B0416173207937S11656977EA0126601316000000000000
B0416213207905S11657025EA0126701316000000000000
B0416253207917S11657085EA0126601317000000000000
B0416293207965S11657112EA0127701333000000000000
B0416333208015S11657083EA0129401345000000000000
B0416373208027S11657012EA0130201351000000000000
B0416413207991S11656947EA0130101350000000000000
B0416453207934S11656940EA0130601358000000000000
B0416493207904S11656986EA0130801358000000000000
B0416533207917S11657042EA0130601356000000000000
B0416573207969S11657070EA0130901362000000000000
B0417013208023S11657042EA0132201372000000000000
B0417053208053S11656973EA0132201371000000000000
B0417093208026S11656901EA0131901364000000000000
B0417133207960S11656869EA0131201361000000000000
B0417173207888S11656849EA0130801359000000000000
B0417213207815S11656844EA0130301353000000000000
B0417253207739S11656845EA0129701346000000000000
B0417293207658S11656848EA0128801334000000000000
B0417333207575S11656853EA0127601325000000000000
B0417373207492S11656860EA0126901318000000000000
B0417413207407S11656865EA0126501316000000000000
B0417453207323S11656871EA0127301324000000000000
B0417493207242S11656875EA0127501323000000000000
B0417533207159S11656880EA0127501323000000000000
B0417573207076S11656882EA0127101317000000000000
B0418013206992S11656883EA0126301311000000000000
B0418053206908S11656883EA0125901307000000000000
B0418093206827S11656883EA0126301313000000000000
B0418133206752S11656883EA0126601319000000000000
B0418173206682S11656883EA0127301326000000000000
B0418213206617S11656884EA0127701327000000000000
B0418253206553S11656890EA0127801326000000000000
B0418293206489S11656893EA0127501323000000000000
B0418333206426S11656900EA0127301319000000000000
B0418373206363S11656909EA0126801312000000000000
B0418413206299S11656919EA0126101305000000000000
B0418453206236S11656930EA0125601298000000000000
B0418493206171S11656940EA0124601291000000000000
B0418533206106S11656951EA0123401278000000000000
B0418573206036S11656958EA0122301265000000000000
B0419013205964S11656965EA0121601258000000000000
B0419053205890S11656970EA0121201256000000000000
B0419093205817S11656974EA0121301259000000000000
B0419133205750S11656991EA0121401262000000000000
B0419173205698S11657034EA0122001265000000000000
B0419213205656S11657083EA0122301271000000000000
B0419253205621S11657134EA0122901276000000000000
B0419293205586S11657186EA0123201276000000000000
B0419333205557S11657243EA0122801272000000000000
B0419373205514S11657295EA0122301262000000000000
B0419413205452S11657328EA0120901249000000000000
B0419453205378S11657339EA0119701236000000000000
B0419493205301S11657335EA0118601230000000000000
B0419533205223S11657322EA0118401228000000000000
B0419573205144S11657306EA0117701221000000000000
B0420013205067S11657291EA0117101215000000000000
B0420053204989S11657277EA0116401206000000000000
B0420093204911S11657265EA0115901198000000000000
B0420133204833S11657254EA0114901189000000000000
B0420173204754S11657243EA0114601190000000000000
B0420213204677S11657231EA0114301184000000000000
B0420253204600S11657216EA0113901179000000000000
B0420293204525S11657198EA0113501175000000000000
B0420333204450S11657179EA0113001171000000000000
B0420373204373S11657160EA0112601167000000000000
B0420413204296S11657139EA0112201164000000000000
B0420453204219S11657118EA0112101164000000000000
B0420493204144S11657100EA0111801160000000000000
B0420533204069S11657082EA0111001148000000000000
B0420573203993S11657064EA0109901138000000000000
B0421013203915S11657046EA0109201130000000000000
B0421053203837S11657027EA0108501126000000000000
B0421093203761S11657016EA0109201134000000000000
B0421133203693S11657035EA0109701138000000000000
B0421173203645S11657086EA0109501133000000000000
B0421213203597S11657144EA0109301132000000000000
B0421253203530S11657174EA0109301136000000000000
B0421293203473S11657134EA0109501133000000000000
B0421333203473S11657042EA0108401118000000000000
B0421373203480S11656945EA0107101114000000000000
B0421413203469S11656853EA0107801120000000000000
B0421453203437S11656767EA0107701121000000000000
B0421493203377S11656709EA0108701131000000000000
B0421533203303S11656709EA0108701128000000000000
B0421573203239S11656749EA0109101136000000000000
B0422013203230S11656809EA0110101147000000000000
B0422053203280S11656810EA0109701136000000000000
B0422093203294S11656735EA0109501143000000000000
B0422133203260S11656662EA0110501152000000000000
B0422173203195S11656637EA0110501146000000000000
B0422213203120S11656653EA0109601140000000000000
B0422253203044S11656675EA0109201130000000000000
B0422293202961S11656689EA0108101121000000000000
B0422333202874S11656683EA0107401114000000000000
B0422373202791S11656659EA0107001111000000000000
B0422413202711S11656623EA0106801108000000000000
B0422453202632S11656585EA0106301103000000000000
B0422493202550S11656557EA0106901112000000000000
B0422533202498S11656596EA0109301136000000000000
B0422573202524S11656641EA0109401135000000000000
B0423013202579S11656619EA0109301138000000000000
B0423053202604S11656549EA0109901144000000000000
B0423093202580S11656472EA0110201147000000000000
B0423133202519S11656436EA0111001159000000000000
B0423173202461S11656463EA0111601164000000000000
B0423213202445S11656526EA0112001164000000000000
B0423253202481S11656568EA0111701161000000000000
B0423293202535S11656541EA0111901165000000000000
B0423333202562S11656474EA0112501170000000000000
B0423373202532S11656401EA0112901173000000000000
B0423413202475S11656416EA0113201175000000000000
B0423453202480S11656477EA0113301182000000000000
B0423493202527S11656497EA0114101191000000000000
B0423533202566S11656455EA0114401190000000000000
B0423573202572S11656379EA0113901180000000000000
B0424013202541S11656303EA0112901172000000000000
B0424053202480S11656251EA0112101164000000000000
B0424093202407S11656217EA0112001170000000000000
B0424133202331S11656193EA0112301166000000000000
B0424173202253S11656172EA0111701160000000000000
B0424213202172S11656156EA0110901151000000000000
B0424253202090S11656138EA0110101143000000000000
B0424293202007S11656115EA0109601136000000000000
B0424333201925S11656093EA0108801129000000000000
B0424373201844S11656071EA0108101121000000000000
B0424413201765S11656051EA0107501117000000000000
B0424453201690S11656033EA0107201110000000000000
B0424493201613S11656017EA0106301101000000000000
B0424533201540S11656002EA0105801097000000000000
B0424573201471S11655987EA0105401091000000000000
B0425013201401S11655981EA0104401081000000000000
B0425053201331S11655985EA0103701069000000000000
B0425093201261S11655993EA0102601060000000000000
B0425133201190S11656003EA0101401040000000000000
B0425173201122S11656020EA0099601023000000000000
B0425213201053S11656041EA0098301013000000000000
B0425253200985S11656065EA0097501004000000000000
B0425293200923S11656104EA0096100988000000000000
B0425333200859S11656147EA0095000982000000000000
B0425373200802S11656194EA0094900979000000000000
B0425413200739S11656236EA0094700978000000000000
B0425453200681S11656275EA0094500974000000000000
B0425493200625S11656324EA0093400958000000000000
B0425533200563S11656370EA0092400947000000000000
B0425573200495S11656406EA0091800942000000000000
B0426013200425S11656431EA0091200934000000000000
B0426053200352S11656449EA0090200927000000000000
B0426093200279S11656463EA0090000921000000000000
B0426133200209S11656477EA0088900912000000000000
B0426173200140S11656493EA0089000915000000000000
B0426213200078S11656528EA0088900914000000000000
B0426253200043S11656589EA0089600930000000000000
B0426293200079S11656623EA0091400947000000000000
B0426333200114S11656570EA0092000948000000000000
B0426373200084S11656503EA0092500960000000000000
B0426413200023S11656505EA0093300963000000000000
B0426453200007S11656561EA0093700974000000000000
B0426493200048S11656583EA0094900986000000000000
B0426533200085S11656539EA0095300984000000000000
B0426573200069S11656468EA0095200990000000000000
B0427013200009S11656459EA0096100995000000000000
B0427053159980S11656514EA0096201002000000000000
B0427093200005S11656557EA0097401014000000000000
B0427133200048S11656535EA0097401014000000000000
B0427173200053S11656459EA0096201005000000000000
B0427213200018S11656384EA0096201009000000000000
B0427253159959S11656336EA0096001001000000000000
B0427293159897S11656363EA0095100991000000000000
B0427333159888S11656433EA0095100994000000000000
B0427373159894S11656507EA0094900989000000000000
B0427413159909S11656581EA0093600971000000000000
B0427453159902S11656663EA0092500967000000000000
B0427493159905S11656747EA0092100958000000000000
B0427533159928S11656825EA0091800960000000000000
B0427573159954S11656895EA0092600966000000000000
B0428013159991S11656956EA0092900964000000000000
B0428053200049S11656951EA0093600972000000000000
B0428093200035S11656871EA0094400987000000000000
B0428133159976S11656865EA0095700995000000000000
B0428173159950S11656922EA0095800995000000000000
B0428213159993S11656949EA0097001011000000000000
B0428253200024S11656892EA0098401020000000000000
B0428293159994S11656830EA0098101014000000000000
B0428333159936S11656836EA0097701012000000000000
B0428373159910S11656895EA0097601010000000000000
B0428413159950S11656929EA0098001020000000000000
B0428453159993S11656874EA0099801037000000000000
B0428493159988S11656795EA0099801033000000000000
B0428533159933S11656740EA0099701034000000000000
B0428573159870S11656752EA0100001037000000000000
B0429013159855S11656810EA0100401042000000000000
B0429053159905S11656832EA0101301051000000000000
B0429093159937S11656771EA0101801054000000000000
B0429133159905S11656705EA0102101058000000000000
B0429173159841S11656698EA0101801053000000000000
B0429213159806S11656749EA0101401052000000000000
B0429253159824S11656806EA0102201061000000000000
B0429293159876S11656806EA0103801077000000000000
B0429333159892S11656735EA0105101090000000000000
B0429373159849S11656684EA0105501094000000000000
B0429413159792S11656698EA0104901087000000000000
B0429453159770S11656757EA0104801090000000000000
B0429493159802S11656804EA0105401101000000000000
B0429533159857S11656788EA0107101117000000000000
B0429573159871S11656713EA0108401130000000000000
B0430013159831S11656653EA0109501141000000000000
B0430053159771S11656656EA0110001145000000000000
B0430093159747S11656709EA0110401149000000000000
B0430133159777S11656752EA0111501161000000000000
B0430173159828S11656734EA0112501174000000000000
B0430213159845S11656658EA0113501180000000000000
B0430253159806S11656589EA0113901188000000000000
B0430293159742S11656584EA0114301189000000000000
B0430333159715S11656640EA0114601197000000000000
B0430373159747S11656679EA0115801209000000000000
B0430413159797S11656653EA0116901222000000000000
B0430453159805S11656578EA0118101230000000000000
B0430493159757S11656520EA0118501234000000000000
B0430533159701S11656536EA0119001242000000000000
B0430573159698S11656588EA0119601249000000000000
B0431013159744S11656600EA0120501257000000000000
B0431053159781S11656549EA0121601268000000000000
B0431093159771S11656471EA0121901270000000000000
B0431133159720S11656425EA0122601279000000000000
B0431173159667S11656428EA0123001274000000000000
B0431213159634S11656476EA0122001267000000000000
B0431253159633S11656540EA0121901267000000000000
B0431293159663S11656598EA0121001256000000000000
B0431333159725S11656607EA0120401254000000000000
B0431373159775S11656548EA0121301268000000000000
B0431413159772S11656457EA0122401277000000000000
B0431453159721S11656392EA0122901282000000000000
B0431493159655S11656393EA0123001283000000000000
B0431533159630S11656454EA0123301286000000000000
B0431573159668S11656500EA0123601283000000000000
B0432013159732S11656479EA0123101285000000000000
B0432053159767S11656406EA0124301298000000000000
B0432093159736S11656332EA0125301306000000000000
B0432133159680S11656338EA0125601307000000000000
B0432173159680S11656393EA0126001317000000000000
B0432213159727S11656393EA0127201324000000000000
B0432253159754S11656327EA0127301326000000000000
B0432293159727S11656255EA0127801331000000000000
B0432333159669S11656229EA0127801329000000000000
B0432373159623S11656266EA0127801329000000000000
B0432413159627S11656324EA0128301338000000000000
B0432453159677S11656338EA0129101345000000000000
B0432493159721S11656290EA0129301350000000000000
B0432533159719S11656215EA0130201358000000000000
B0432573159672S11656164EA0130001354000000000000
B0433013159615S11656177EA0130201360000000000000
B0433053159599S11656232EA0130701366000000000000
B0433093159632S11656275EA0131501371000000000000
B0433133159686S11656260EA0131201364000000000000
B0433173159712S11656186EA0131001366000000000000
B0433213159699S11656103EA0131001365000000000000
B0433253159641S11656055EA0130401360000000000000
B0433293159569S11656043EA0130101351000000000000
B0433333159493S11656041EA0128601334000000000000
B0433373159409S11656041EA0126701315000000000000
B0433413159324S11656043EA0125801310000000000000
B0433453159238S11656046EA0125801309000000000000
B0433493159153S11656048EA0125401305000000000000
B0433533159066S11656050EA0124601295000000000000
B0433573158979S11656050EA0123401283000000000000
B0434013158891S11656058EA0122101271000000000000
B0434053158805S11656074EA0121601265000000000000
B0434093158724S11656100EA0121001258000000000000
B0434133158646S11656130EA0120601254000000000000
B0434173158571S11656159EA0120401253000000000000
B0434213158498S11656190EA0120101244000000000000
B0434253158425S11656220EA0118301225000000000000
B0434293158349S11656250EA0117001214000000000000
B0434333158273S11656277EA0116601213000000000000
B0434373158198S11656302EA0116101206000000000000
B0434413158124S11656327EA0115101193000000000000
B0434453158052S11656355EA0114401181000000000000
B0434493157983S11656386EA0113601176000000000000
B0434533157914S11656419EA0113001168000000000000
B0434573157847S11656451EA0112401162000000000000
B0435013157777S11656483EA0110901144000000000000
B0435053157697S11656516EA0109501132000000000000
B0435093157618S11656550EA0108801125000000000000
B0435133157537S11656580EA0108401123000000000000
B0435173157458S11656607EA0108301118000000000000
B0435213157381S11656633EA0107701113000000000000
B0435253157303S11656656EA0107201109000000000000
B0435293157227S11656679EA0106701099000000000000
B0435333157149S11656702EA0105601087000000000000
B0435373157072S11656724EA0105401093000000000000
B0435413157001S11656752EA0106001095000000000000
B0435453156943S11656800EA0106701104000000000000
B0435493156903S11656858EA0108201122000000000000
B0435533156842S11656880EA0109301138000000000000
B0435573156812S11656812EA0111401163000000000000
B0436013156843S11656765EA0113601184000000000000
B0436053156882S11656787EA0114801194000000000000
B0436093156872S11656844EA0116201213000000000000
B0436133156819S11656867EA0117501225000000000000
B0436173156768S11656821EA0118601238000000000000
B0436213156768S11656748EA0120701260000000000000
B0436253156806S11656711EA0122401273000000000000
B0436293156847S11656737EA0123101285000000000000
B0436333156843S11656796EA0125401309000000000000
B0436373156789S11656813EA0126701318000000000000
B0436413156743S11656750EA0127101326000000000000
B0436453156748S11656671EA0128801351000000000000
B0436493156789S11656622EA0130801367000000000000
B0436533156842S11656615EA0131901377000000000000
B0436573156868S11656662EA0133401396000000000000
B0437013156834S11656711EA0134701405000000000000
B0437053156769S11656700EA0135401414000000000000
B0437093156741S11656626EA0136701432000000000000
B0437133156772S11656565EA0138601448000000000000
B0437173156820S11656572EA0139601459000000000000
B0437213156828S11656628EA0141201474000000000000
B0437253156777S11656662EA0142301486000000000000
B0437293156721S11656618EA0143701502000000000000
B0437333156720S11656539EA0145301516000000000000
B0437373156769S11656500EA0145201512000000000000
B0437413156811S11656535EA0146301531000000000000
B0437453156791S11656589EA0148001544000000000000
B0437493156729S11656596EA0148901555000000000000
B0437533156681S11656535EA0149801568000000000000
B0437573156691S11656451EA0150401568000000000000
B0438013156752S11656414EA0150201568000000000000
B0438053156815S11656433EA0150801575000000000000
B0438093156851S11656489EA0151501585000000000000
B0438133156838S11656559EA0152601596000000000000
B0438173156780S11656583EA0154001609000000000000
B0438213156724S11656539EA0154801622000000000000
B0438253156717S11656464EA0157701656000000000000
B0438293156761S11656435EA0159601666000000000000
B0438333156803S11656463EA0160201674000000000000
B0438373156813S11656522EA0161001682000000000000
B0438413156781S11656578EA0161001681000000000000
B0438453156718S11656588EA0161501688000000000000
B0438493156668S11656536EA0162201705000000000000
B0438533156678S11656466EA0165001734000000000000
B0438573156728S11656446EA0166801741000000000000
B0439013156769S11656489EA0166801747000000000000
B0439053156768S11656554EA0167501753000000000000
B0439093156724S11656601EA0168601763000000000000
B0439133156661S11656600EA0169701776000000000000
B0439173156612S11656553EA0171301790000000000000
B0439213156613S11656483EA0172701808000000000000
B0439253156656S11656445EA0174401826000000000000
B0439293156703S11656467EA0175301832000000000000
B0439333156709S11656531EA0175901841000000000000
B0439373156665S11656579EA0177001855000000000000
B0439413156604S11656574EA0178401867000000000000
B0439453156573S11656516EA0179101870000000000000
B0439493156590S11656449EA0179001867000000000000
B0439533156642S11656412EA0179501879000000000000
B0439573156689S11656437EA0180901892000000000000
B0440013156704S11656497EA0181901900000000000000
B0440053156689S11656563EA0182501903000000000000
B0440093156648S11656618EA0181901894000000000000
B0440133156592S11656648EA0181001879000000000000
B0440173156526S11656659EA0179501869000000000000
B0440213156458S11656665EA0178501855000000000000
B0440253156386S11656669EA0177001841000000000000
B0440293156309S11656671EA0175701826000000000000
B0440333156231S11656671EA0174701820000000000000
B0440373156153S11656670EA0174201809000000000000
B0440413156075S11656671EA0172601797000000000000
B0440453155997S11656674EA0171801787000000000000
B0440493155920S11656675EA0171401783000000000000
B0440533155844S11656675EA0170601774000000000000
B0440573155764S11656675EA0169701763000000000000
B0441013155684S11656674EA0169101763000000000000
B0441053155603S11656672EA0168901760000000000000
B0441093155524S11656671EA0168301750000000000000
B0441133155444S11656674EA0167001739000000000000
B0441173155364S11656680EA0165801718000000000000
B0441213155278S11656685EA0164001707000000000000
B0441253155195S11656687EA0164101713000000000000
B0441293155114S11656691EA0165001723000000000000
B0441333155035S11656691EA0165601727000000000000
B0441373154958S11656692EA0166401732000000000000
B0441413154879S11656695EA0166101727000000000000
B0441453154797S11656700EA0165201719000000000000
B0441493154715S11656704EA0164701715000000000000
B0441533154635S11656708EA0164301712000000000000
B0441573154558S11656715EA0164501715000000000000
B0442013154480S11656719EA0164101707000000000000
B0442053154398S11656718EA0162701688000000000000
B0442093154312S11656718EA0160901674000000000000
B0442133154225S11656722EA0160001664000000000000
B0442173154135S11656724EA0158701651000000000000
B0442213154046S11656724EA0157301638000000000000
B0442253153955S11656722EA0156401628000000000000
B0442293153865S11656721EA0155401619000000000000
B0442333153777S11656718EA0154801614000000000000
B0442373153689S11656713EA0154401610000000000000
B0442413153605S11656704EA0154101613000000000000
B0442453153526S11656693EA0155601627000000000000
B0442493153449S11656679EA0156301629000000000000
B0442533153372S11656662EA0156101628000000000000
B0442573153297S11656649EA0156601632000000000000
B0443013153223S11656646EA0157401644000000000000
B0443053153173S11656689EA0159401665000000000000
B0443093153176S11656754EA0160001664000000000000
B0443133153234S11656786EA0159101656000000000000
B0443173153305S11656766EA0158801655000000000000
B0443213153350S11656698EA0158701650000000000000
B0443253153349S11656611EA0158301644000000000000
B0443293153311S11656536EA0157201640000000000000
B0443333153259S11656476EA0158101653000000000000
B0443373153205S11656481EA0160001672000000000000
B0443413153218S11656539EA0161501684000000000000
B0443453153277S11656533EA0162401691000000000000
B0443493153306S11656462EA0162401691000000000000
B0443533153273S11656392EA0162801700000000000000
B0443573153216S11656386EA0164501715000000000000
B0444013153192S11656440EA0165301725000000000000
B0444053153219S11656494EA0166201735000000000000
B0444093153276S11656488EA0167001745000000000000
B0444133153307S11656425EA0167501748000000000000
B0444173153281S11656359EA0167801754000000000000
B0444213153227S11656360EA0169001765000000000000
B0444253153206S11656418EA0169501769000000000000
B0444293153245S11656466EA0170001776000000000000
B0444333153299S11656446EA0170801783000000000000
B0444373153312S11656376EA0170801782000000000000
B0444413153280S11656315EA0171001789000000000000
B0444453153227S11656321EA0171801795000000000000
B0444493153203S11656385EA0171401791000000000000
B0444533153231S11656448EA0172101803000000000000
B0444573153288S11656454EA0172701799000000000000
B0445013153314S11656385EA0170901770000000000000
B0445053153264S11656314EA0168901764000000000000
B0445093153192S11656282EA0169401773000000000000
B0445133153117S11656272EA0169901778000000000000
B0445173153041S11656268EA0169801770000000000000
B0445213152959S11656264EA0167801748000000000000
B0445253152870S11656259EA0165901731000000000000
B0445293152781S11656259EA0165101725000000000000
B0445333152691S11656262EA0164901724000000000000
B0445373152607S11656263EA0165501738000000000000
B0445413152529S11656260EA0166801748000000000000
B0445453152452S11656256EA0167701754000000000000
B0445493152374S11656254EA0167501749000000000000
B0445533152293S11656254EA0167801756000000000000
B0445573152213S11656256EA0168001755000000000000
B0446013152129S11656262EA0167701747000000000000
B0446053152044S11656273EA0166501733000000000000
B0446093151953S11656288EA0165601728000000000000
B0446133151862S11656297EA0165901732000000000000
B0446173151777S11656312EA0167501754000000000000
B0446213151700S11656336EA0168401755000000000000
B0446253151619S11656358EA0167301740000000000000
B0446293151529S11656375EA0166701742000000000000
B0446333151440S11656390EA0167801759000000000000
B0446373151357S11656411EA0168801759000000000000
B0446413151266S11656435EA0167801751000000000000
B0446453151177S11656461EA0169201773000000000000
B0446493151140S11656526EA0173501824000000000000
B0446533151191S11656557EA0177201852000000000000
B0446573151234S11656509EA0178301856000000000000
B0447013151217S11656433EA0178801865000000000000
B0447053151157S11656403EA0180101879000000000000
B0447093151114S11656446EA0181901901000000000000
B0447133151123S11656507EA0182401901000000000000
B0447173151179S11656537EA0181601889000000000000
B0447213151235S11656488EA0181901911000000000000
B0447253151247S11656412EA0184701938000000000000
B0447293151214S11656354EA0186901951000000000000
B0447333151153S11656333EA0187201951000000000000
B0447373151099S11656371EA0187301957000000000000
B0447413151105S11656440EA0187701953000000000000
B0447453151173S11656450EA0185901942000000000000
B0447493151223S11656389EA0187301969000000000000
B0447533151232S11656312EA0190401995000000000000
B0447573151208S11656246EA0191802002000000000000
B0448013151151S11656219EA0192502012000000000000
B0448053151114S11656262EA0193002012000000000000
B0448093151140S11656320EA0192102004000000000000
B0448133151195S11656305EA0193302022000000000000
B0448173151219S11656240EA0194202030000000000000
B0448213151210S11656163EA0194302031000000000000
B0448253151154S11656134EA0195402046000000000000
B0448293151126S11656194EA0195702047000000000000
B0448333151169S11656232EA0196402059000000000000
B0448373151216S11656194EA0196902062000000000000
B0448413151212S11656117EA0196802059000000000000
B0448453151156S11656073EA0197602073000000000000
B0448493151093S11656087EA0198402077000000000000
B0448533151062S11656152EA0198302075000000000000
B0448573151091S11656214EA0198202072000000000000
B0449013151151S11656212EA0198202071000000000000
B0449053151179S11656146EA0198402076000000000000
B0449093151171S11656064EA0198702077000000000000
B0449133151136S11655993EA0198802082000000000000
B0449173151070S11655961EA0198802074000000000000
B0449213150988S11655963EA0197402061000000000000
B0449253150896S11655974EA0195202035000000000000
B0449293150798S11655990EA0193002017000000000000
B0449333150696S11656008EA0190801991000000000000
B0449373150594S11656026EA0189601981000000000000
B0449413150494S11656042EA0188301966000000000000
B0449453150397S11656059EA0187601964000000000000
B0449493150304S11656077EA0188301967000000000000
B0449533150216S11656095EA0187601952000000000000
B0449573150126S11656115EA0186001940000000000000
B0450013150038S11656134EA0185301939000000000000
B0450053149955S11656154EA0185801944000000000000
B0450093149875S11656175EA0186301945000000000000
B0450133149797S11656197EA0186101941000000000000
B0450173149722S11656219EA0185901942000000000000
B0450213149645S11656238EA0185901940000000000000
B0450253149567S11656260EA0185901938000000000000
B0450293149488S11656282EA0185201931000000000000
B0450333149403S11656303EA0184501923000000000000
B0450373149318S11656321EA0183501907000000000000
B0450413149230S11656340EA0182001895000000000000
B0450453149147S11656359EA0181501890000000000000
B0450493149064S11656379EA0180401878000000000000
B0450533148980S11656402EA0179601870000000000000
B0450573148898S11656423EA0178201855000000000000
B0451013148814S11656437EA0176801833000000000000
B0451053148731S11656451EA0175301823000000000000
B0451093148655S11656479EA0175101827000000000000
B0451133148597S11656527EA0176401844000000000000
B0451173148561S11656584EA0178001856000000000000
B0451213148530S11656643EA0178601864000000000000
B0451253148502S11656700EA0179201866000000000000
B0451293148469S11656760EA0177301841000000000000
B0451333148409S11656813EA0173801805000000000000
B0451373148335S11656860EA0172001791000000000000
B0451413148258S11656903EA0171301788000000000000
B0451453148185S11656948EA0171501789000000000000
B0451493148115S11656992EA0171601790000000000000
B0451533148037S11657026EA0171301779000000000000
B0451573147951S11657056EA0170101774000000000000
B0452013147878S11657098EA0171701795000000000000
B0452053147829S11657156EA0173001810000000000000
B0452093147784S11657218EA0173601806000000000000
B0452133147738S11657289EA0171501781000000000000
B0452173147683S11657368EA0169101761000000000000
B0452213147612S11657436EA0167501751000000000000
B0452253147538S11657497EA0166901734000000000000
B0452293147461S11657547EA0165701723000000000000
B0452333147381S11657588EA0164401711000000000000
B0452373147300S11657623EA0163701705000000000000
B0452413147218S11657651EA0163701705000000000000
B0452453147137S11657675EA0163501703000000000000
B0452493147056S11657689EA0162701696000000000000
B0452533146981S11657697EA0162701696000000000000
B0452573146911S11657703EA0161701676000000000000
B0453013146835S11657711EA0159601658000000000000
B0453053146758S11657720EA0159301658000000000000
B0453093146686S11657735EA0159801662000000000000
B0453133146620S11657751EA0159801658000000000000
B0453173146551S11657767EA0159201650000000000000
B0453213146481S11657781EA0158401645000000000000
B0453253146407S11657793EA0157901638000000000000
B0453293146328S11657806EA0157201634000000000000
B0453333146253S11657831EA0158101651000000000000
B0453373146203S11657878EA0159701665000000000000
B0453413146160S11657928EA0159801663000000000000
B0453453146120S11657984EA0159601660000000000000
B0453493146081S11658043EA0158501644000000000000
B0453533146042S11658114EA0156601621000000000000
B0453573145978S11658174EA0155001614000000000000
B0454013145904S11658218EA0155601626000000000000
B0454053145834S11658262EA0157201647000000000000
B0454093145780S11658316EA0158901663000000000000
B0454133145732S11658373EA0160601680000000000000
B0454173145728S11658437EA0162701705000000000000
B0454213145782S11658452EA0165001724000000000000
B0454253145817S11658392EA0166001733000000000000
B0454293145792S11658329EA0167101747000000000000
B0454333145736S11658330EA0168101757000000000000
B0454373145714S11658387EA0169301774000000000000
B0454413145748S11658431EA0170801792000000000000
B0454453145800S11658401EA0172101802000000000000
B0454493145804S11658327EA0173301816000000000000
B0454533145758S11658290EA0174801832000000000000
B0454573145714S11658321EA0175801838000000000000
B0455013145723S11658382EA0176701851000000000000
B0455053145776S11658385EA0178401870000000000000
B0455093145801S11658322EA0180001882000000000000
B0455133145767S11658262EA0181101896000000000000
B0455173145713S11658261EA0182401907000000000000
B0455213145680S11658308EA0183701920000000000000
B0455253145693S11658365EA0184401928000000000000
B0455293145744S11658392EA0185001933000000000000
B0455333145805S11658375EA0185601944000000000000
B0455373145834S11658313EA0186801957000000000000
B0455413145795S11658262EA0187701964000000000000
B0455453145741S11658283EA0189001979000000000000
B0455493145740S11658346EA0190401991000000000000
B0455533145791S11658381EA0191001997000000000000
B0455573145853S11658351EA0191702004000000000000
B0456013145867S11658275EA0192902020000000000000
B0456053145831S11658223EA0194802037000000000000
B0456093145779S11658227EA0195602047000000000000
B0456133145757S11658284EA0196502056000000000000
B0456173145784S11658344EA0197502063000000000000
B0456213145848S11658362EA0197802067000000000000
B0456253145906S11658320EA0198002070000000000000
B0456293145923S11658242EA0198802076000000000000
B0456333145902S11658165EA0199202080000000000000
B0456373145852S11658117EA0199902089000000000000
B0456413145787S11658097EA0199602085000000000000
B0456453145717S11658100EA0199602089000000000000
B0456493145642S11658112EA0199502083000000000000
B0456533145558S11658125EA0198602076000000000000
B0456573145471S11658141EA0199502089000000000000
B0457013145407S11658191EA0200902104000000000000
B0457053145412S11658260EA0201402096000000000000
B0457093145475S11658243EA0199002068000000000000
B0457133145488S11658152EA0197902064000000000000
B0457173145431S11658089EA0197502061000000000000
B0457213145350S11658071EA0195602035000000000000
B0457253145259S11658073EA0192502007000000000000
B0457293145169S11658082EA0191902006000000000000
B0457333145083S11658089EA0192002007000000000000
B0457373145002S11658096EA0193502023000000000000
B0457413144925S11658101EA0193602022000000000000
B0457453144848S11658108EA0193002012000000000000
B0457493144771S11658114EA0192302009000000000000
B0457533144696S11658122EA0192002002000000000000
B0457573144619S11658128EA0190401984000000000000
B0458013144537S11658132EA0189101970000000000000
B0458053144454S11658136EA0188001961000000000000
B0458093144367S11658138EA0187101949000000000000
B0458133144277S11658140EA0186601947000000000000
B0458173144189S11658144EA0186201942000000000000
B0458213144101S11658148EA0185401934000000000000
B0458253144011S11658151EA0185101931000000000000
B0458293143924S11658156EA0184601927000000000000
B0458333143838S11658158EA0184201925000000000000
B0458373143752S11658160EA0184001921000000000000
B0458413143669S11658164EA0183701916000000000000
B0458453143587S11658167EA0183501914000000000000
B0458493143507S11658171EA0183301913000000000000
B0458533143431S11658173EA0183001905000000000000
B0458573143352S11658173EA0181701893000000000000
B0459013143270S11658175EA0181001885000000000000
B0459053143187S11658177EA0180301877000000000000
B0459093143102S11658173EA0179701874000000000000
B0459133143018S11658169EA0179401869000000000000
B0459173142936S11658164EA0178901867000000000000
B0459213142859S11658161EA0179801882000000000000
B0459253142790S11658157EA0181501897000000000000
B0459283142741S11658158EA0182901911000000000000
B0459333142671S11658183EA0184201921000000000000
B0459373142637S11658234EA0184201915000000000000
B0459413142606S11658291EA0183501909000000000000
B0459453142569S11658349EA0183001907000000000000
B0459493142511S11658390EA0183401914000000000000
B0459533142442S11658404EA0184701928000000000000
B0459573142377S11658416EA0185601938000000000000
B0500013142337S11658464EA0186101936000000000000
B0500053142353S11658522EA0185601929000000000000
B0500093142411S11658525EA0185001927000000000000
B0500133142447S11658461EA0184901926000000000000
B0500173142435S11658373EA0184901931000000000000
B0500213142392S11658299EA0185601939000000000000
B0500253142333S11658245EA0185601935000000000000
B0500293142264S11658210EA0186001938000000000000
B0500333142195S11658187EA0186501951000000000000
B0500373142130S11658170EA0187701960000000000000
B0500413142066S11658160EA0187201942000000000000
B0500453141989S11658152EA0184301915000000000000
B0500493141908S11658145EA0182701902000000000000
B0500533141820S11658141EA0181201889000000000000
B0500573141732S11658140EA0180001875000000000000
B0501013141644S11658138EA0179001867000000000000
B0501053141557S11658134EA0177701855000000000000
B0501093141471S11658127EA0176501838000000000000
B0501133141381S11658115EA0174801823000000000000
B0501173141290S11658101EA0174101820000000000000
B0501213141203S11658086EA0174701831000000000000
B0501253141124S11658073EA0177201862000000000000
B0501293141053S11658071EA0179801883000000000000
B0501333140992S11658088EA0181501898000000000000
B0501373141004S11658144EA0182701909000000000000
B0501413141068S11658145EA0183001909000000000000
B0501453141130S11658102EA0182901911000000000000
B0501493141146S11658026EA0184301932000000000000
B0501533141098S11658000EA0186001950000000000000
B0501573141073S11658044EA0185601944000000000000
B0502013141117S11658078EA0185601947000000000000
B0502053141167S11658032EA0186201952000000000000
B0502093141159S11657950EA0187401966000000000000
B0502133141105S11657924EA0189201983000000000000
B0502173141076S11657962EA0190101988000000000000
B0502213141109S11658005EA0189401980000000000000
B0502253141173S11657984EA0189001977000000000000
B0502293141198S11657904EA0189701996000000000000
B0502333141172S11657826EA0192102017000000000000
B0502373141117S11657788EA0193902036000000000000
B0502413141073S11657814EA0195602046000000000000
B0502453141087S11657868EA0195802049000000000000
B0502493141146S11657870EA0196502057000000000000
B0502533141183S11657802EA0197202065000000000000
B0502573141163S11657727EA0199202089000000000000
B0503013141112S11657714EA0201102103000000000000
B0503053141095S11657762EA0201502105000000000000
B0503093141131S11657810EA0201702109000000000000
B0503133141193S11657789EA0202102114000000000000
B0503173141200S11657707EA0203102129000000000000
B0503213141156S11657649EA0204402142000000000000
B0503253141099S11657651EA0205502152000000000000
B0503293141090S11657710EA0206602160000000000000
B0503333141139S11657744EA0207002165000000000000
B0503373141196S11657698EA0207602172000000000000
B0503413141206S11657614EA0208302180000000000000
B0503453141165S11657546EA0208902187000000000000
B0503493141103S11657533EA0210402203000000000000
B0503533141077S11657580EA0212002220000000000000
B0503573141107S11657632EA0212302218000000000000
B0504013141172S11657636EA0212402223000000000000
B0504053141215S11657567EA0212902229000000000000
B0504093141207S11657478EA0213702240000000000000
B0504133141154S11657432EA0214602247000000000000
B0504173141105S11657465EA0215002251000000000000
B0504213141122S11657530EA0216202270000000000000
B0504253141181S11657556EA0217902282000000000000
B0504293141239S11657519EA0217902278000000000000
B0504333141255S11657430EA0218102282000000000000
B0504373141226S11657347EA0218602286000000000000
B0504413141165S11657308EA0219002294000000000000
B0504453141102S11657312EA0218802287000000000000
B0504493141026S11657322EA0217902274000000000000
B0504533140939S11657330EA0215602244000000000000
B0504573140843S11657341EA0213502234000000000000
B0505013140748S11657354EA0213202235000000000000
B0505053140657S11657367EA0213902244000000000000
B0505093140569S11657381EA0213602231000000000000
B0505133140479S11657397EA0212102212000000000000
B0505173140388S11657419EA0210002192000000000000
B0505213140296S11657441EA0208602181000000000000
B0505253140205S11657462EA0208302181000000000000
B0505293140116S11657482EA0208502179000000000000
B0505333140030S11657501EA0207802170000000000000
B0505373139945S11657517EA0207302166000000000000
B0505413139859S11657537EA0206602159000000000000
B0505453139773S11657553EA0206602166000000000000
B0505493139690S11657562EA0207402168000000000000
B0505533139605S11657575EA0207402173000000000000
B0505573139526S11657589EA0207402161000000000000
B0506013139441S11657606EA0205202134000000000000
B0506053139356S11657621EA0204702132000000000000
B0506093139271S11657629EA0204302133000000000000
B0506133139189S11657633EA0204702133000000000000
B0506173139109S11657638EA0203902121000000000000
B0506213139023S11657641EA0202402111000000000000
B0506253138934S11657642EA0201902107000000000000
B0506293138846S11657647EA0201802105000000000000
B0506333138758S11657655EA0201802107000000000000
B0506373138669S11657660EA0201502102000000000000
B0506413138580S11657668EA0200002086000000000000
B0506453138492S11657690EA0199902092000000000000
B0506493138418S11657718EA0201502109000000000000
B0506533138348S11657749EA0201602101000000000000
B0506573138270S11657776EA0200102081000000000000
B0507013138187S11657802EA0198302063000000000000
B0507053138102S11657831EA0196402041000000000000
B0507093138015S11657861EA0194602025000000000000
B0507133137932S11657891EA0193502014000000000000
B0507173137849S11657919EA0192402005000000000000
B0507213137772S11657956EA0192902015000000000000
B0507253137710S11658008EA0194202031000000000000
B0507293137655S11658062EA0196102049000000000000
B0507333137603S11658118EA0196602050000000000000
B0507373137549S11658179EA0195102027000000000000
B0507413137486S11658248EA0193102012000000000000
B0507453137415S11658317EA0191501989000000000000
B0507493137335S11658375EA0190301986000000000000
B0507533137256S11658424EA0190501989000000000000
B0507573137178S11658464EA0190401985000000000000
B0508013137098S11658503EA0189601977000000000000
B0508053137016S11658542EA0189301971000000000000
B0508093136932S11658576EA0188701969000000000000
B0508133136851S11658608EA0188401965000000000000
B0508173136769S11658635EA0188001958000000000000
B0508213136684S11658661EA0186801947000000000000
B0508253136598S11658685EA0186301941000000000000
B0508293136513S11658708EA0185701935000000000000
B0508333136424S11658733EA0185301931000000000000
B0508373136337S11658758EA0185001930000000000000
B0508413136249S11658786EA0184601922000000000000
B0508453136163S11658819EA0184001919000000000000
B0508493136076S11658850EA0183401908000000000000
B0508533135989S11658885EA0182101896000000000000
B0508573135902S11658918EA0181401890000000000000
B0509013135817S11658946EA0181001890000000000000
B0509053135734S11658973EA0181201892000000000000
B0509093135652S11658999EA0180801881000000000000
B0509133135566S11659029EA0179401869000000000000
B0509173135484S11659061EA0179101865000000000000
B0509213135402S11659090EA0178201856000000000000
B0509253135319S11659120EA0177701849000000000000
B0509293135237S11659153EA0176501832000000000000
B0509333135158S11659191EA0175701827000000000000
B0509373135080S11659230EA0174901815000000000000
B0509413135001S11659270EA0174001814000000000000
B0509453134928S11659313EA0174701819000000000000
B0509493134868S11659373EA0175401833000000000000
B0509533134838S11659445EA0177101848000000000000
B0509573134811S11659519EA0177401844000000000000
B0510013134785S11659599EA0177401849000000000000
B0510053134759S11659678EA0178701871000000000000
B0510093134791S11659743EA0181701897000000000000
B0510133134856S11659712EA0182901905000000000000
B0510173134873S11659639EA0183401910000000000000
B0510213134842S11659578EA0183301907000000000000
B0510253134781S11659556EA0183201910000000000000
B0510293134738S11659595EA0184601928000000000000
B0510333134777S11659638EA0185901937000000000000
B0510373134841S11659605EA0185801938000000000000
B0510413134859S11659531EA0187501955000000000000
B0510453134825S11659474EA0188001961000000000000
B0510493134768S11659486EA0188301966000000000000
B0510533134760S11659548EA0189001972000000000000
B0510573134817S11659575EA0189201971000000000000
B0511013134869S11659519EA0188601963000000000000
B0511053134875S11659431EA0188501970000000000000
B0511093134834S11659362EA0189401975000000000000
B0511133134760S11659348EA0188101960000000000000
B0511173134686S11659378EA0187101953000000000000
B0511213134620S11659435EA0186401945000000000000
B0511253134557S11659506EA0185001932000000000000
B0511293134496S11659587EA0182001901000000000000
B0511333134433S11659668EA0181101898000000000000
B0511373134369S11659744EA0179901876000000000000
B0511413134290S11659808EA0178101856000000000000
B0511453134200S11659857EA0176401839000000000000
B0511493134106S11659898EA0175201827000000000000
B0511533134011S11659929EA0175201828000000000000
B0511573133916S11659954EA0174901824000000000000
B0512013133819S11659971EA0175301834000000000000
B0512053133720S11659981EA0174501815000000000000
B0512093133619S11659991EA0173001808000000000000
B0512133133521S11700000EA0172601799000000000000
B0512173133424S11700012EA0171701793000000000000
B0512213133328S11700024EA0171601793000000000000
B0512253133243S11700032EA0173801819000000000000
B0512293133166S11700051EA0174301808000000000000
B0512333133087S11700078EA0172601790000000000000
B0512373133004S11700108EA0172301794000000000000
B0512413132927S11700146EA0172901799000000000000
B0512453132856S11700186EA0174201816000000000000
B0512493132788S11700220EA0175501833000000000000
B0512533132728S11700192EA0177901864000000000000
B0512573132727S11700121EA0179801871000000000000
B0513013132787S11700082EA0178901863000000000000
B0513053132853S11700101EA0179501873000000000000
B0513093132895S11700158EA0180901884000000000000
B0513133132893S11700231EA0181401886000000000000
B0513173132845S11700275EA0181801895000000000000
B0513213132784S11700273EA0182501896000000000000
B0513253132717S11700258EA0180201866000000000000
B0513293132633S11700257EA0177701852000000000000
B0513333132551S11700276EA0177201843000000000000
B0513373132468S11700306EA0175301821000000000000
B0513413132385S11700332EA0174101811000000000000
B0513453132302S11700353EA0173301803000000000000
B0513493132219S11700371EA0171901790000000000000
B0513533132134S11700388EA0171301785000000000000
B0513573132048S11700402EA0170601772000000000000
B0514013131960S11700413EA0169601765000000000000
B0514053131874S11700435EA0169101760000000000000
B0514093131791S11700463EA0167701743000000000000
B0514133131703S11700485EA0166201729000000000000
B0514173131610S11700504EA0165301719000000000000
B0514213131518S11700515EA0164701719000000000000
B0514253131424S11700522EA0165001724000000000000
B0514293131340S11700543EA0166701745000000000000
B0514333131267S11700569EA0168101755000000000000
B0514373131203S11700606EA0168301748000000000000
B0514413131136S11700645EA0167301739000000000000
B0514453131068S11700682EA0167101742000000000000
B0514493131004S11700721EA0167401744000000000000
B0514533130946S11700758EA0167801749000000000000
B0514573130891S11700792EA0168001749000000000000
B0515013130838S11700827EA0167601744000000000000
B0515053130783S11700869EA0166201727000000000000
B0515093130725S11700917EA0164101706000000000000
B0515133130653S11700956EA0162701691000000000000
B0515173130575S11700981EA0161801680000000000000
B0515213130492S11700996EA0160201664000000000000
B0515253130408S11701008EA0160301670000000000000
B0515293130327S11701018EA0159901658000000000000
B0515333130243S11701027EA0158501647000000000000
B0515373130159S11701034EA0157901644000000000000
B0515413130084S11701057EA0158001644000000000000
B0515453130016S11701098EA0157501635000000000000
B0515493129949S11701142EA0157701643000000000000
B0515533129884S11701189EA0158001649000000000000
B0515573129833S11701237EA0160301679000000000000
B0516013129838S11701299EA0162201689000000000000
B0516053129906S11701304EA0163001695000000000000
B0516093129949S11701239EA0163001693000000000000
B0516133129937S11701154EA0162201686000000000000
B0516173129886S11701096EA0162001687000000000000
B0516213129823S11701086EA0162901699000000000000
B0516253129764S11701109EA0163101697000000000000
B0516293129706S11701146EA0161801680000000000000
B0516333129651S11701200EA0160701672000000000000
B0516373129602S11701261EA0160701675000000000000
B0516413129558S11701323EA0161001679000000000000
B0516453129515S11701380EA0161601683000000000000
B0516493129472S11701438EA0161401680000000000000
B0516533129431S11701507EA0161401681000000000000
B0516573129394S11701573EA0162601700000000000000
B0517013129400S11701638EA0164001708000000000000
B0517053129459S11701635EA0163401694000000000000
B0517093129476S11701550EA0163001699000000000000
B0517133129442S11701476EA0163901707000000000000
B0517173129381S11701447EA0164401711000000000000
B0517213129321S11701464EA0163901699000000000000
B0517253129273S11701514EA0162201681000000000000
B0517293129222S11701573EA0160401659000000000000
B0517333129157S11701629EA0157901633000000000000
B0517373129075S11701668EA0156101616000000000000
B0517413128984S11701688EA0154401604000000000000
B0517453128893S11701697EA0153501595000000000000
B0517493128804S11701701EA0152701589000000000000
B0517533128715S11701701EA0152101582000000000000
B0517573128627S11701698EA0151301573000000000000
B0518013128541S11701693EA0151001569000000000000
B0518053128456S11701688EA0150801569000000000000
B0518093128375S11701685EA0150401560000000000000
B0518133128294S11701687EA0149701554000000000000
B0518173128213S11701688EA0148701544000000000000
B0518213128133S11701690EA0148701545000000000000
B0518253128051S11701696EA0148701547000000000000
B0518293127970S11701706EA0148801547000000000000
B0518333127897S11701740EA0149001550000000000000
B0518373127835S11701793EA0149601558000000000000
B0518413127795S11701863EA0150801574000000000000
B0518453127767S11701935EA0152201586000000000000
B0518493127779S11702005EA0153301594000000000000
B0518533127842S11702014EA0154001602000000000000
B0518573127878S11701954EA0155001613000000000000
B0519013127843S11701898EA0155701618000000000000
B0519053127792S11701928EA0156601631000000000000
B0519093127806S11701987EA0158101645000000000000
B0519133127862S11701991EA0159001651000000000000
B0519173127884S11701930EA0159901662000000000000
B0519213127844S11701885EA0160801673000000000000
B0519253127796S11701908EA0161601682000000000000
B0519293127797S11701969EA0162501692000000000000
B0519333127851S11701988EA0162901692000000000000
B0519373127890S11701937EA0163501705000000000000
B0519413127871S11701878EA0164901716000000000000
B0519453127817S11701863EA0164901714000000000000
B0519493127786S11701917EA0165401724000000000000
B0519533127825S11701958EA0166001726000000000000
B0519573127879S11701928EA0165901729000000000000
B0520013127918S11701867EA0166501733000000000000
B0520053127913S11701792EA0166601734000000000000
B0520093127849S11701775EA0167301744000000000000
B0520133127799S11701819EA0167701752000000000000
B0520173127809S11701885EA0168701757000000000000
B0520213127868S11701914EA0168501754000000000000
B0520253127926S11701876EA0169001762000000000000
B0520293127944S11701801EA0169501768000000000000
B0520333127918S11701729EA0170301774000000000000
B0520373127860S11701687EA0170501778000000000000
B0520413127792S11701676EA0171301787000000000000
B0520453127740S11701714EA0172001792000000000000
B0520493127722S11701781EA0171101775000000000000
B0520533127687S11701854EA0169901767000000000000
B0520573127632S11701922EA0167801741000000000000
B0521013127543S11701967EA0166201732000000000000
B0521053127444S11701989EA0166401742000000000000
B0521093127344S11702002EA0167701758000000000000
B0521133127246S11702015EA0168701766000000000000
B0521173127153S11702028EA0170201779000000000000
B0521213127060S11702040EA0170501773000000000000
B0521253126967S11702044EA0169301766000000000000
B0521293126876S11702047EA0168401752000000000000
B0521333126783S11702048EA0167101737000000000000
B0521373126688S11702047EA0165301719000000000000
B0521413126591S11702041EA0164001706000000000000
B0521453126495S11702039EA0162901698000000000000
B0521493126400S11702035EA0162501694000000000000
B0521533126305S11702030EA0162201692000000000000
B0521573126210S11702026EA0162101695000000000000
B0522013126118S11702022EA0162701702000000000000
B0522053126029S11702021EA0164001722000000000000
B0522093125966S11702062EA0167801765000000000000
B0522133125979S11702117EA0171101786000000000000
B0522173126028S11702100EA0171401786000000000000
B0522213126036S11702026EA0172601804000000000000
B0522253125990S11701975EA0175301833000000000000
B0522293125945S11702010EA0176101829000000000000
B0522333125968S11702065EA0176201840000000000000
B0522373126019S11702044EA0177901855000000000000
B0522413126022S11701970EA0179601875000000000000
B0522453125975S11701917EA0181501892000000000000
B0522493125915S11701935EA0182001894000000000000
B0522533125901S11702000EA0181401886000000000000
B0522573125954S11702009EA0181901896000000000000
B0523013125977S11701934EA0182801903000000000000
B0523053125967S11701846EA0184001921000000000000
B0523093125907S11701818EA0185401933000000000000
B0523133125875S11701874EA0185401921000000000000
B0523173125914S11701932EA0183801911000000000000
B0523213125985S11701923EA0184301924000000000000
B0523253126027S11701859EA0186301951000000000000
B0523293125975S11701823EA0188401977000000000000
B0523333125949S11701882EA0189701995000000000000
B0523373125994S11701913EA0191902013000000000000
B0523413126042S11701865EA0192802018000000000000
B0523453126031S11701783EA0193402025000000000000
B0523493125963S11701753EA0194202034000000000000
B0523533125916S11701805EA0195102041000000000000
B0523573125940S11701871EA0195602047000000000000
B0524013126005S11701867EA0197602071000000000000
B0524053126038S11701804EA0199502093000000000000
B0524093126022S11701729EA0201102103000000000000
B0524133125963S11701694EA0201802111000000000000
B0524173125911S11701729EA0202402114000000000000
B0524213125925S11701796EA0201902111000000000000
B0524253125990S11701789EA0203302129000000000000
B0524293126024S11701723EA0205102151000000000000
B0524333125992S11701666EA0206902164000000000000
B0524373125933S11701679EA0206702159000000000000
B0524413125911S11701746EA0206102156000000000000
B0524453125959S11701801EA0206602160000000000000
B0524493126027S11701791EA0207702173000000000000
B0524533126050S11701711EA0209002186000000000000
B0524573126001S11701671EA0210702211000000000000
B0525013125954S11701711EA0211802220000000000000
B0525053125964S11701776EA0212702231000000000000
B0525093126023S11701779EA0213402237000000000000
B0525133126045S11701705EA0214102241000000015000
B0525173126001S11701648EA0214802255000000015000
B0525213125940S11701650EA0216602268000000015000
B0525253125925S11701711EA0217302271000000000000
B0525293125977S11701737EA0218002283000000000000
B0525333126023S11701688EA0219102291000000000000
B0525373126018S11701615EA0219702300000000000000
B0525413125971S11701570EA0220702313000000000000
B0525453125915S11701581EA0221602317000000000000
B0525493125894S11701641EA0221302310000000000000
B0525533125938S11701681EA0221402317000000000000
B0525573125990S11701648EA0222502327000000000000
B0526013125998S11701576EA0222702329000000000000
B0526053125951S11701527EA0223002332000000000000
B0526093125886S11701507EA0222202316000000000000
B0526133125804S11701497EA0218702278000000000000
B0526173125710S11701493EA0215802253000000000000
B0526213125608S11701490EA0213802236000000000000
B0526253125504S11701489EA0213402235000000000000
B0526293125404S11701489EA0213202232000000000000
B0526333125308S11701489EA0213002232000000000000
B0526373125217S11701499EA0213202230000000000000
B0526413125131S11701514EA0212802224000000000000
B0526453125047S11701527EA0212302222000000000000
B0526493124963S11701537EA0212002218000000000000
B0526533124884S11701549EA0211702211000000000000
B0526573124806S11701563EA0210702199000000000000
B0527013124725S11701576EA0209302183000000000000
B0527053124644S11701586EA0208102171000000000000
B0527093124560S11701593EA0206902158000000000000
B0527133124475S11701596EA0205502145000000000000
B0527173124390S11701594EA0204902139000000000000
B0527213124306S11701593EA0204102124000000000000
B0527253124217S11701593EA0202302105000000000000
B0527293124125S11701590EA0200702093000000000000
B0527333124033S11701588EA0199902087000000000000
B0527373123942S11701588EA0200202096000000000000
B0527413123862S11701614EA0202502120000000000000
B0527453123797S11701650EA0204902144000000000000
B0527493123739S11701690EA0207502168000000000000
B0527533123706S11701748EA0209102180000000000000
B0527573123747S11701788EA0208702167000000000000
B0528013123793S11701729EA0207402158000000000000
B0528053123776S11701644EA0207202157000000000000
B0528093123723S11701579EA0207802169000000000000
B0528133123653S11701559EA0209002183000000000000
B0528173123632S11701615EA0210502197000000000000
B0528213123684S11701637EA0211302202000000000000
B0528253123739S11701592EA0211902212000000000000
B0528293123737S11701512EA0213202226000000000000
B0528333123675S11701488EA0214402239000000000000
B0528373123643S11701542EA0215702253000000000000
B0528413123675S11701590EA0217002263000000000000
B0528453123734S11701566EA0217402267000000000000
B0528493123744S11701486EA0218702286000000000000
B0528533123700S11701425EA0220102302000000000000
B0528573123640S11701432EA0221102311000000000000
B0529013123594S11701484EA0221002300000000000000
B0529053123528S11701531EA0217802255000000000000
B0529093123432S11701559EA0214002226000000000000
B0529133123329S11701577EA0212402223000000000000
B0529173123230S11701589EA0212702221000000000000
B0529213123132S11701597EA0212102213000000000000
B0529253123034S11701603EA0211502208000000000000
B0529293122939S11701606EA0211002203000000000000
B0529333122846S11701609EA0210002188000000000000
B0529373122751S11701610EA0208602174000000000000
B0529413122656S11701612EA0207702163000000000000
B0529453122561S11701616EA0206702154000000000000
B0529493122469S11701622EA0206102152000000000000
B0529533122378S11701627EA0206102154000000000000
B0529573122292S11701635EA0206702159000000000000
B0530013122207S11701641EA0206602158000000000000
B0530053122122S11701650EA0206102152000000000000
B0530093122036S11701659EA0206202154000000000000
B0530133121954S11701667EA0206602160000000000000
B0530173121875S11701675EA0206702155000000000000
B0530213121795S11701685EA0205902147000000000000
B0530253121717S11701700EA0205602145000000000000
B0530293121639S11701707EA0204702129000000000000
B0530333121560S11701714EA0203902124000000000000
B0530373121491S11701735EA0204902139000000000000
B0530413121435S11701766EA0205902144000000000000
B0530453121378S11701796EA0205602141000000000000
B0530493121321S11701828EA0205402137000000000000
B0530533121261S11701861EA0204702130000000000000
B0530573121201S11701895EA0205202142000000000000
B0531013121141S11701927EA0206402150000000000000
B0531053121078S11701953EA0205902139000000000000
B0531093121004S11701965EA0204502126000000000000
B0531133120923S11701967EA0203402117000000000000
B0531173120838S11701966EA0202802109000000000000
B0531213120753S11701963EA0201702101000000000000
B0531253120666S11701958EA0201402101000000000000
B0531293120580S11701954EA0201302095000000000000
B0531333120493S11701952EA0200402087000000000000
B0531373120402S11701949EA0199402078000000000000
B0531413120308S11701950EA0198602067000000000000
B0531453120213S11701950EA0197802061000000000000
B0531493120120S11701950EA0197302056000000000000
B0531533120027S11701949EA0196402045000000000000
B0531573119934S11701947EA0195202035000000000000
B0532013119839S11701943EA0194202025000000000000
B0532053119744S11701939EA0193702019000000000000
B0532093119649S11701931EA0193002010000000000000
B0532133119555S11701923EA0192502004000000000000
B0532173119460S11701917EA0191301989000000000000
B0532213119368S11701910EA0190301984000000000000
B0532253119277S11701902EA0189801977000000000000
B0532293119187S11701895EA0189401975000000000000
B0532333119098S11701887EA0189501976000000000000
B0532373119011S11701884EA0189201974000000000000
B0532413118925S11701883EA0189401972000000000000
B0532453118838S11701880EA0188501961000000000000
B0532493118749S11701879EA0188101958000000000000
B0532533118660S11701880EA0187101943000000000000
B0532573118569S11701883EA0185601928000000000000
B0533013118478S11701888EA0184901925000000000000
B0533053118388S11701895EA0184801924000000000000
B0533093118301S11701902EA0185101925000000000000
B0533133118214S11701909EA0184401916000000000000
B0533173118128S11701921EA0184501922000000000000
B0533213118056S11701953EA0185301930000000000000
B0533253117995S11701999EA0185701935000000000000
B0533293117956S11702057EA0186701946000000000000
B0533333117939S11702122EA0187801957000000000000
B0533373117933S11702184EA0188901962000000000000
B0533413117924S11702251EA0188701957000000000000
B0533453117923S11702318EA0188801961000000000000
B0533493117915S11702390EA0189501969000000000000
B0533533117895S11702456EA0190501984000000000000
B0533573117872S11702513EA0192201999000000000000
B0534013117845S11702568EA0192501998000000000000
B0534053117812S11702633EA0191501992000000000000
B0534093117776S11702698EA0191501990000000000000
B0534133117733S11702764EA0189501959000000000000
B0534173117652S11702803EA0185001916000000000000
B0534213117555S11702807EA0182901902000000000000
B0534253117457S11702798EA0182101892000000000000
B0534293117360S11702780EA0181001880000000000000
B0534333117263S11702759EA0180401879000000000000
B0534373117171S11702738EA0179801866000000000000
B0534413117078S11702723EA0178101847000000000000
B0534453116984S11702703EA0176301828000000000000
B0534493116889S11702682EA0175001819000000000000
B0534533116797S11702663EA0174501812000000000000
B0534573116704S11702643EA0173801805000000000000
B0535013116612S11702626EA0173001790000000000000
B0535053116519S11702607EA0171001770000000000000
B0535093116425S11702584EA0169701763000000000000
B0535133116333S11702563EA0169101755000000000000
B0535173116243S11702548EA0168801756000000000000
B0535213116166S11702564EA0170501774000000000000
B0535253116108S11702603EA0170801770000000000000
B0535293116047S11702642EA0169301752000000000000
B0535333115976S11702673EA0167701738000000000000
B0535373115901S11702694EA0166601725000000000000
B0535413115822S11702694EA0165801716000000000000
B0535453115739S11702678EA0164901709000000000000
B0535493115657S11702654EA0164201699000000000000
B0535533115572S11702625EA0162601682000000000000
B0535573115488S11702587EA0161301672000000000000
B0536013115402S11702548EA0161101671000000000000
B0536053115319S11702509EA0160701669000000000000
B0536093115233S11702476EA0160601668000000000000
B0536133115144S11702442EA0160601669000000000000
B0536173115056S11702411EA0160701666000000000000
B0536213114964S11702379EA0160201662000000000000
B0536253114871S11702363EA0160401664000000000000
B0536293114780S11702353EA0160201669000000000000
B0536333114704S11702378EA0161601682000000000000
B0536373114645S11702435EA0161801680000000000000
B0536413114591S11702498EA0160901666000000000000
B0536453114522S11702548EA0157701628000000000000
B0536493114433S11702567EA0155001604000000000000
B0536533114342S11702565EA0153901595000000000000
B0536573114253S11702571EA0153001581000000000000
B0537013114162S11702574EA0152301577000000000000
B0537053114077S11702573EA0153501594000000000000
B0537093114007S11702599EA0153701588000000000000
B0537133113938S11702633EA0152701577000000000000
B0537173113861S11702649EA0151501563000000000000
B0537213113778S11702638EA0150201552000000000000
B0537253113699S11702606EA0149301542000000000000
B0537293113623S11702568EA0149501550000000000000
B0537333113553S11702546EA0151401570000000000000
B0537373113493S11702561EA0152501581000000000000
B0537413113440S11702591EA0153501592000000000000
B0537453113389S11702624EA0153901593000000000000
B0537493113339S11702658EA0153501589000000000000
B0537533113310S11702716EA0154301603000000000000
B0537573113344S11702766EA0155401612000000000000
B0538013113405S11702745EA0156201619000000000000
B0538053113445S11702678EA0156301618000000000000
B0538093113470S11702597EA0156201618000000000000
B0538133113493S11702513EA0156101612000000000000
B0538173113487S11702426EA0156101616000000000000
B0538213113445S11702361EA0156201616000000000000
B0538253113391S11702363EA0155601610000000000000
B0538293113387S11702428EA0154601598000000000000
B0538333113413S11702498EA0154001591000000000000
B0538373113443S11702569EA0153501589000000000000
B0538413113453S11702642EA0154001598000000000000
B0538453113441S11702706EA0154601598000000000000
B0538493113401S11702755EA0153601582000000000000
B0538533113328S11702763EA0151701560000000000000
B0538573113246S11702725EA0149801544000000000000
B0539013113167S11702671EA0148901540000000000000
B0539053113090S11702611EA0148801541000000000000
B0539093113015S11702554EA0150001558000000000000
B0539133112944S11702519EA0152801588000000000000
B0539173112918S11702571EA0155401612000000000000
B0539213112966S11702593EA0156401624000000000000
B0539253113007S11702537EA0157701634000000000000
B0539293112992S11702465EA0158601648000000000000
B0539333112938S11702456EA0160001660000000000000
B0539373112918S11702512EA0160701667000000000000
B0539413112963S11702543EA0161501680000000000000
B0539453113005S11702489EA0163401693000000015000
B0539493112980S11702420EA0164201707000000015000
B0539533112925S11702413EA0165501719000000015000
B0539573112893S11702465EA0166101731000000000000
B0540013112914S11702517EA0168401755000000000000
B0540053112964S11702513EA0170101766000000000000
B0540093112997S11702450EA0170401766000000000000
B0540133112979S11702374EA0170901776000000000000
B0540173112924S11702350EA0172401791000000000000
B0540213112886S11702396EA0173401806000000000000
B0540253112911S11702450EA0175101825000000000000
B0540293112966S11702435EA0176601836000000000000
B0540333112980S11702357EA0177001838000000000000
B0540373112934S11702296EA0177901854000000000000
B0540413112876S11702300EA0179801875000000000000
B0540453112853S11702356EA0181701894000000000000
B0540493112888S11702399EA0183901917000000000000
B0540533112940S11702378EA0185601930000000000000
B0540573112957S11702303EA0185801930000000000000
B0541013112915S11702240EA0186601950000000000000
B0541053112858S11702242EA0188501968000000000000
B0541093112829S11702296EA0189501978000000000000
B0541133112862S11702344EA0191101998000000000000
B0541173112916S11702314EA0193002013000000000000
B0541213112916S11702236EA0193802018000000000000
B0541253112863S11702187EA0194902034000000000000
B0541293112806S11702208EA0196302050000000000000
B0541333112802S11702272EA0198402071000000000000
B0541373112856S11702294EA0199902087000000000000
B0541413112901S11702239EA0201802109000000000000
B0541453112884S11702165EA0202602125000000015000
B0541493112823S11702147EA0203302133000000015000
B0541533112791S11702204EA0204802151000000015000
B0541573112827S11702251EA0206702171000000015000
B0542013112885S11702231EA0208502186000000015000
B0542053112908S11702158EA0209302190000000015000
B0542093112868S11702092EA0209902197000000015000
B0542133112806S11702092EA0211002213000000015000
B0542173112785S11702151EA0212702230000000000000
B0542213112832S11702186EA0214402249000000000000
B0542253112884S11702145EA0216502270000000000000
B0542293112882S11702071EA0217502285000000015000
B0542333112830S11702031EA0218202292000000015000
B0542373112777S11702052EA0219402308000000015000
B0542413112760S11702110EA0220802318000000000000
B0542453112799S11702158EA0221802327000000000000
B0542493112864S11702148EA0223202343000000000000
B0542533112892S11702077EA0224802365000000015000
B0542573112860S11702014EA0226202374000000015000
B0543013112802S11702008EA0226502376000000015000
B0543053112769S11702067EA0227602393000000000000
B0543093112794S11702131EA0229002410000000000000
B0543133112856S11702140EA0230702427000000000000
B0543173112892S11702075EA0232602440000000000000
B0543213112859S11702008EA0233202446000000000000
B0543253112798S11702008EA0234202459000000000000
B0543293112781S11702067EA0236102478000000000000
B0543333112824S11702113EA0237102486000000000000
B0543373112888S11702092EA0238402504000000000000
B0543413112912S11702018EA0239902520000000000000
B0543453112881S11701950EA0240502529000000015000
B0543493112819S11701936EA0240802533000000000000
B0543533112778S11701988EA0242602554000000000000
B0543573112803S11702048EA0243902560000000000000
B0544013112869S11702051EA0244102569000000000000
B0544053112915S11701991EA0245702583000000000000
B0544093112907S11701915EA0246502585000000000000
B0544133112850S11701883EA0246502588000000000000
B0544173112803S11701928EA0247402603000000000000
B0544213112810S11701996EA0249002613000000000000
B0544253112867S11702027EA0249202616000000000000
B0544293112932S11701996EA0250402630000000000000
B0544333112958S11701923EA0252002643000000000000
B0544373112927S11701861EA0252002643000000000000
B0544413112866S11701846EA0252302649000000000000
B0544453112821S11701887EA0253502666000000000000
B0544493112840S11701947EA0254302665000000000000
B0544533112905S11701957EA0254002662000000000000
B0544573112953S11701893EA0254602670000000000000
B0545013112949S11701811EA0255102671000000000000
B0545053112897S11701757EA0254202663000000000000
B0545093112823S11701740EA0253902666000000000000
B0545133112745S11701740EA0254002664000000000000
B0545173112663S11701741EA0252602649000000000000
B0545213112576S11701741EA0251202629000000000000
B0545253112479S11701741EA0248602601000000000000
B0545293112378S11701741EA0246602584000000000000
B0545333112274S11701744EA0245402570000000000000
B0545373112171S11701748EA0245402577000000000000
B0545413112076S11701752EA0246202579000000000000
B0545453111980S11701757EA0245102568000000000000
B0545493111887S11701762EA0245102573000000000000
B0545533111801S11701766EA0246002577000000000000
B0545573111716S11701762EA0246102577000000000000
B0546013111634S11701752EA0245802570000000000000
B0546053111550S11701736EA0244702558000000000000
B0546093111465S11701715EA0244402559000000000000
B0546133111385S11701693EA0244802563000000000000
B0546173111307S11701672EA0244502552000000000000
B0546213111226S11701651EA0243302542000000000000
B0546253111147S11701633EA0243002536000000000000
B0546293111068S11701620EA0242302531000000000000
B0546333110992S11701638EA0242102533000000000000
B0546373110934S11701692EA0243202546000000000000
B0546413110912S11701768EA0245402567000000000000
B0546453110916S11701845EA0246002568000000000000
B0546493110931S11701923EA0245702560000000000000
B0546533110962S11702002EA0244902553000000000000
B0546573111001S11702084EA0244502553000000000000
B0547013111046S11702158EA0244802554000000000000
B0547053111095S11702230EA0243802539000000000000
B0547093111151S11702305EA0242302524000000000000
B0547133111208S11702381EA0241002512000000000000
B0547173111265S11702461EA0239702498000000000000
B0547213111324S11702543EA0238602490000000000000
B0547253111380S11702629EA0238202487000000000000
B0547293111433S11702714EA0237902480000000000000
B0547333111490S11702794EA0237202477000000000000
B0547373111547S11702872EA0237202476000000000000
B0547413111605S11702949EA0237102472000000000000
B0547453111658S11703028EA0236402464000000000000
B0547493111714S11703109EA0235302452000000000000
B0547533111768S11703191EA0235102447000000000000
B0547573111823S11703271EA0235002444000000000000
B0548013111878S11703349EA0234302435000000000000
B0548053111933S11703427EA0233402425000000000000
B0548093111991S11703505EA0232902423000000000000
B0548133112048S11703581EA0232902426000000000000
B0548173112100S11703656EA0232402417000000000000
B0548213112156S11703735EA0231602407000000000000
B0548253112212S11703820EA0230302394000000000000
B0548293112269S11703906EA0229002380000000000000
B0548333112329S11703993EA0228002374000000000000
B0548373112387S11704079EA0227402364000000000000
B0548413112446S11704163EA0227002362000000000000
B0548453112502S11704246EA0226902359000000000000
B0548493112560S11704328EA0225802347000000000000
B0548533112619S11704410EA0225002345000000000000
B0548573112674S11704484EA0225902351000000000000
B0549013112729S11704560EA0225202339000000000000
B0549053112788S11704639EA0223702329000000000000
B0549093112847S11704716EA0223302323000000000000
B0549133112906S11704795EA0222202307000000000000
B0549173112959S11704874EA0221602315000000000000
B0549213113009S11704948EA0223202325000000000000
B0549253113059S11705026EA0222902316000000000000
B0549293113110S11705112EA0222002309000000000000
B0549333113158S11705202EA0221302297000000000000
B0549373113207S11705297EA0219402274000000000000
B0549413113259S11705398EA0217302256000000000000
B0549453113310S11705496EA0216702249000000000000
B0549493113360S11705593EA0215302237000000000000
B0549533113408S11705688EA0214802234000000000000
B0549573113458S11705783EA0214202221000000000000
B0550013113508S11705878EA0212902210000000000000
B0550053113557S11705973EA0211702196000000000000
B0550093113608S11706068EA0210802192000000000000
B0550133113640S11706157EA0212002211000000000000
B0550173113659S11706244EA0213002214000000000000
B0550213113688S11706330EA0212602208000000000000
B0550253113727S11706415EA0211902200000000000000
B0550293113774S11706497EA0211002188000000000000
B0550333113824S11706582EA0209602172000000000000
B0550373113876S11706669EA0208502164000000000000
B0550413113929S11706758EA0207602155000000000000
B0550453113989S11706844EA0206902147000000000000
B0550493114051S11706932EA0205802133000000000000
B0550533114111S11707024EA0204402117000000000000
B0550573114168S11707121EA0203402108000000000000
B0551013114225S11707218EA0202002091000000000000
B0551053114277S11707318EA0201002089000000000000
B0551093114327S11707418EA0200802085000000000000
B0551133114374S11707514EA0200702087000000000000
B0551173114406S11707612EA0200502082000000000000
B0551213114437S11707707EA0199802072000000000000
B0551253114472S11707800EA0198602058000000000000
B0551293114514S11707894EA0197302044000000000000
B0551333114561S11707984EA0196402037000000000000
B0551373114608S11708071EA0195702032000000000000
B0551413114652S11708153EA0195602030000000000000
B0551453114700S11708233EA0194402015000000000000
B0551493114751S11708318EA0192202002000000000000
B0551533114799S11708401EA0191802003000000000000
B0551573114842S11708478EA0192402006000000000000
B0552013114882S11708554EA0191701995000000000000
B0552053114927S11708632EA0189901975000000000000
B0552093114975S11708712EA0188801964000000000000
B0552133115022S11708794EA0187701954000000000000
B0552173115066S11708878EA0186701940000000000000
B0552213115109S11708965EA0185401928000000000000
B0552253115152S11709051EA0185201931000000000000
B0552293115195S11709132EA0184901918000000000000
B0552333115239S11709219EA0183101906000000000000
B0552373115281S11709307EA0182601905000000000000
B0552413115320S11709397EA0182401900000000000000
B0552453115359S11709488EA0181801895000000000000
B0552493115401S11709576EA0181101887000000000000
B0552533115438S11709669EA0180501883000000000000
B0552573115471S11709763EA0180601886000000000000
B0553013115489S11709858EA0183401924000000000000
B0553053115447S11709917EA0187301961000000000000
B0553093115391S11709886EA0190001980000000000000
B0553133115386S11709806EA0190101971000000000000
B0553173115438S11709744EA0189901980000000000000
B0553213115506S11709711EA0192002005000000000000
B0553253115528S11709633EA0194702029000000000000
B0553293115475S11709584EA0195602032000000000000
B0553333115411S11709611EA0194802024000000000000
B0553373115381S11709687EA0194902027000000000000
B0553413115410S11709749EA0196502045000000000000
B0553453115462S11709709EA0198102059000000000000
B0553493115445S11709626EA0199302076000000000000
B0553533115381S11709598EA0201302104000000000000
B0553573115337S11709636EA0203102114000000000000
B0554013115356S11709689EA0203402120000000000000
B0554053115411S11709669EA0204502128000000000000
B0554093115417S11709587EA0204802134000000000000
B0554133115367S11709516EA0205502146000000000000
B0554173115297S11709496EA0206902162000000000000
B0554213115267S11709546EA0207602161000000000000
B0554253115298S11709610EA0206602145000000000000
B0554293115330S11709691EA0204502127000000000000
B0554333115360S11709784EA0204502136000000000000
B0554373115378S11709879EA0204902139000000000000
B0554413115398S11709975EA0205602148000000000000
B0554453115420S11710066EA0207202163000000000000
B0554493115438S11710160EA0207302160000000000000
B0554533115458S11710255EA0206602155000000000000
B0554573115477S11710350EA0205802143000000000000
B0555013115499S11710451EA0202402103000000000000
B0555053115523S11710560EA0200602087000000000000
B0555093115550S11710666EA0200102089000000000000
B0555133115575S11710767EA0200002080000000000000
B0555173115598S11710872EA0198202061000000000000
B0555213115622S11710978EA0196702046000000000000
B0555253115650S11711084EA0194802026000000000000
B0555293115683S11711190EA0194002023000000000000
B0555333115713S11711290EA0193902019000000000000
B0555373115746S11711388EA0193402010000000000000
B0555413115781S11711487EA0192201995000000000000
B0555453115823S11711587EA0190301974000000000000
B0555493115865S11711690EA0188601960000000000000
B0555533115904S11711793EA0187401949000000000000
B0555573115944S11711892EA0186801940000000000000
B0556013115980S11711992EA0185901931000000000000
B0556053116010S11712093EA0185001923000000000000
B0556093116043S11712196EA0184201914000000000000
B0556133116077S11712300EA0183601908000000000000
B0556173116113S11712404EA0183201906000000000000
B0556213116151S11712504EA0182601897000000000000
B0556253116190S11712603EA0181501891000000000000
B0556293116230S11712694EA0181101884000000000000
B0556333116268S11712783EA0180501876000000000000
B0556373116303S11712874EA0179401863000000000000
B0556413116330S11712964EA0180301881000000000000
B0556453116339S11713049EA0183401908000000000000
B0556493116324S11713121EA0185201924000000000000
B0556533116287S11713179EA0186101937000000000000
B0556573116239S11713223EA0187701955000000000000
B0557013116194S11713266EA0188901962000000000000
B0557053116184S11713327EA0188701956000000000000
B0557093116213S11713396EA0186901931000000000000
B0557133116244S11713478EA0185201923000000000000
B0557173116282S11713558EA0185101922000000000000
B0557213116318S11713639EA0186401941000000000000
B0557253116322S11713719EA0188801964000000000000
B0557293116292S11713783EA0189701970000000000000
B0557333116255S11713843EA0188901954000000000000
B0557373116233S11713923EA0185801922000000000000
B0557413116240S11714021EA0183401903000000000000
B0557453116266S11714118EA0182201889000000000000
B0557493116296S11714216EA0181201885000000000000
B0557533116335S11714310EA0181201884000000000000
B0557573116377S11714401EA0181501892000000000000
B0558013116421S11714484EA0182101894000000000000
B0558053116460S11714563EA0183101904000000000000
B0558093116489S11714642EA0182901902000000000000
B0558133116517S11714722EA0182601899000000000000
B0558173116547S11714800EA0182101891000000000000
B0558213116578S11714883EA0181901893000000000000
B0558253116604S11714969EA0181501885000000000000
B0558293116626S11715060EA0180201872000000000000
B0558333116650S11715152EA0178401853000000000000
B0558373116677S11715249EA0176201822000000000000
B0558413116707S11715355EA0173801806000000000000
B0558453116738S11715457EA0172401789000000000000
B0558493116769S11715559EA0172001787000000000000
B0558533116801S11715656EA0171601782000000000000
B0558573116833S11715751EA0170501769000000000000
B0559013116871S11715846EA0169701762000000000000
B0559053116911S11715937EA0169401757000000000000
B0559093116948S11716024EA0169101753000000000000
B0559133116980S11716114EA0168101739000000000000
B0559173117007S11716210EA0165901718000000000000
B0559213117037S11716309EA0164401704000000000000
B0559253117071S11716406EA0163501697000000000000
B0559293117102S11716504EA0162501684000000000000
B0559333117135S11716601EA0161201663000000000000
B0559373117170S11716703EA0158601638000000000000
B0559413117208S11716802EA0157301631000000000000
B0559453117241S11716898EA0157001629000000000000
B0559493117282S11716978EA0158601652000000000000
B0559533117345S11717006EA0161801681000000000000
B0559573117409S11717002EA0163501693000000000000
B0600013117466S11716962EA0163801693000000000000
B0600053117525S11716915EA0163501688000000000000
B0600093117585S11716864EA0162601678000000000000
B0600133117657S11716843EA0161201664000000000000
B0600173117722S11716881EA0160701665000000000000
B0600213117773S11716941EA0161401676000000000000
B0600253117819S11717002EA0162501685000000000000
B0600293117865S11717062EA0163001690000000000000
B0600333117911S11717123EA0163501692000000000000
B0600373117952S11717190EA0163501688000000000000
B0600413117988S11717266EA0162301674000000000000
B0600453118014S11717352EA0160401654000000000000
B0600493118032S11717445EA0159301648000000000000
B0600533118050S11717536EA0160101665000000000000
B0600573118079S11717610EA0162201685000000000000
B0601013118137S11717643EA0164401707000000000000
B0601053118202S11717656EA0165101706000000000000
B0601093118259S11717699EA0164601703000000000000
B0601133118280S11717766EA0165901725000000000000
B0601173118250S11717816EA0167901743000000000000
B0601213118196S11717801EA0169601761000000000000
B0601253118167S11717731EA0170501762000000000000
B0601293118192S11717648EA0170401764000000000000
B0601333118254S11717606EA0171101774000000000000
B0601373118311S11717626EA0172201786000000000000
B0601413118319S11717684EA0172501786000000000000
B0601453118274S11717726EA0173301797000000000000
B0601493118224S11717688EA0175801825000000000000
B0601533118222S11717613EA0176601828000000000000
B0601573118268S11717553EA0176301825000000000000
B0602013118333S11717545EA0176301827000000000000
B0602053118381S11717588EA0176501830000000000000
B0602093118420S11717647EA0176701831000000000000
B0602133118454S11717717EA0175901816000000000000
B0602173118483S11717799EA0172801783000000000000
B0602213118509S11717891EA0170301762000000000000
B0602253118531S11717987EA0169001751000000000000
B0602293118553S11718085EA0167801738000000000000
B0602333118571S11718185EA0167401738000000000000
B0602373118588S11718285EA0167301738000000000000
B0602413118608S11718386EA0168001746000000000000
B0602453118623S11718488EA0166901726000000000000
B0602493118640S11718593EA0165701721000000000000
B0602533118658S11718694EA0166301734000000000000
B0602573118677S11718793EA0166101720000000000000
B0603013118697S11718896EA0165201719000000000000
B0603053118719S11718991EA0167101746000000000000
B0603093118738S11719071EA0169301762000000000000
B0603133118752S11719149EA0170101766000000000000
B0603173118753S11719229EA0171301780000000000000
B0603213118745S11719305EA0172901798000000000000
B0603253118770S11719354EA0174601813000000000000
B0603293118821S11719324EA0175001816000000000000
B0603333118825S11719243EA0175001815000000000000
B0603373118771S11719191EA0174901812000000000000
B0603413118708S11719208EA0174901815000000000000
B0603453118653S11719251EA0175001815000000000000
B0603493118599S11719302EA0173901800000000000000
B0603533118557S11719372EA0172801791000000000000
B0603573118548S11719459EA0172101787000000000000
B0604013118557S11719549EA0171001774000000000000
B0604053118574S11719642EA0170101767000000000000
B0604093118595S11719738EA0169001745000000000000
B0604133118623S11719838EA0166101716000000000000
B0604173118657S11719940EA0164101702000000000000
B0604213118697S11720039EA0162901686000000000000
B0604253118743S11720137EA0161301670000000000000
B0604293118787S11720236EA0159801656000000000000
B0604333118836S11720332EA0158201640000000000000
B0604373118888S11720426EA0156901629000000000000
B0604413118940S11720520EA0155501612000000000000
B0604453118991S11720615EA0154501604000000000000
B0604493119037S11720709EA0154201599000000000000
B0604533119082S11720800EA0153201588000000000000
B0604573119128S11720889EA0152401576000000000000
B0605013119176S11720975EA0151301567000000000000
B0605053119223S11721058EA0150601560000000000000
B0605093119271S11721140EA0149901554000000000000
B0605133119314S11721222EA0151001566000000000000
B0605173119338S11721307EA0152101577000000000000
B0605213119347S11721396EA0152201575000000000000
B0605253119356S11721483EA0151501563000000000000
B0605293119366S11721575EA0149701544000000000000
B0605333119384S11721670EA0147801528000000000000
B0605373119414S11721760EA0146901517000000000000
B0605413119455S11721847EA0145101499000000000000
B0605453119507S11721929EA0144001487000000000000
B0605493119562S11722011EA0142801476000000000000
B0605533119620S11722091EA0141901467000000000000
B0605573119680S11722172EA0141101456000000000000
B0606013119740S11722250EA0140401453000000000000
B0606053119798S11722321EA0140401453000000000000
B0606093119856S11722392EA0139801445000000000000
B0606133119910S11722463EA0139001434000000000000
B0606173119966S11722532EA0137801423000000000000
B0606213120019S11722600EA0137301422000000000000
B0606253120073S11722662EA0137301417000000000000
B0606293120127S11722726EA0136201399000000000000
B0606333120183S11722791EA0134901390000000000000
B0606373120238S11722856EA0134301383000000000000
B0606413120292S11722923EA0132801359000000000000
B0606453120352S11722995EA0129801331000000000000
B0606493120417S11723065EA0127801311000000000000
B0606533120482S11723131EA0125601287000000000000
B0606573120552S11723199EA0122901258000000000000
B0607013120621S11723269EA0121201234000000000000
B0607053120685S11723346EA0120901245000000000000
B0607093120734S11723430EA0121701250000000000000
B0607133120760S11723523EA0123001267000000000000
B0607173120764S11723614EA0124101277000000000000
B0607213120770S11723705EA0124301273000000000000
B0607253120783S11723794EA0123101257000000000000
B0607293120796S11723881EA0122101250000000000000
B0607333120815S11723966EA0121001235000000000000
B0607373120848S11724048EA0119201215000000000000
B0607413120881S11724130EA0117901202000000000000
B0607453120927S11724205EA0115901180000000000000
B0607493120988S11724269EA0114901171000000000000
B0607533121059S11724318EA0113601160000000000000
B0607573121134S11724359EA0113001157000000000000
B0608013121206S11724395EA0113301161000000000000
B0608053121280S11724417EA0114201171000000000000
B0608093121355S11724409EA0115301182000000000000
B0608133121399S11724342EA0116201189000000000000
B0608173121377S11724260EA0118301212000000000000
B0608213121318S11724260EA0120001232000000000000
B0608253121295S11724310EA0121301239000000000000
B0608293121321S11724356EA0121401240000000000000
B0608333121377S11724348EA0120901231000000000000
B0608373121418S11724284EA0120701234000000000000
B0608413121418S11724205EA0121401242000000000000
B0608453121360S11724162EA0122601260000000000000
B0608493121323S11724208EA0124301276000000000000
B0608533121356S11724255EA0124901282000000000000
B0608573121417S11724252EA0125501287000000000000
B0609013121466S11724197EA0125101279000000000000
B0609053121475S11724110EA0124601278000000000000
B0609093121443S11724024EA0124201275000000000000
B0609133121386S11723956EA0124701285000000000000
B0609173121319S11723939EA0126401303000000000000
B0609213121305S11723991EA0127901313000000000000
B0609253121351S11724022EA0127401304000000000000
B0609293121420S11724001EA0127301310000000000000
B0609333121485S11723958EA0128201319000000000000
B0609373121486S11723876EA0129101324000000000000
B0609413121427S11723835EA0128601313000000000000
B0609453121366S11723863EA0127501309000000000000
B0609493121313S11723914EA0127301309000000000000
B0609533121265S11723970EA0126901305000000000000
B0609573121223S11724034EA0127001308000000000000
B0610013121188S11724104EA0126801304000000000000
B0610053121150S11724174EA0126901307000000000000
B0610093121110S11724245EA0127001306000000000000
B0610133121071S11724321EA0126001294000000000000
B0610173121033S11724400EA0125201290000000000000
B0610213121000S11724478EA0125801295000000000000
B0610253120968S11724554EA0126301300000000000000
B0610293120940S11724630EA0126601303000000000000
B0610333120911S11724706EA0126501303000000000000
B0610373120883S11724780EA0126501301000000000000
B0610413120854S11724854EA0126701308000000000000
B0610453120827S11724923EA0128101321000000000000
B0610493120797S11724990EA0128801325000000000000
B0610533120764S11725063EA0128901327000000000000
B0610573120733S11725137EA0129601338000000000000
B0611013120728S11725213EA0130601346000000000000
B0611053120784S11725215EA0130901347000000000000
B0611093120796S11725136EA0131201354000000000000
B0611133120749S11725071EA0132001369000000000000
B0611173120688S11725083EA0133701385000000000000
B0611213120689S11725141EA0134901392000000000000
B0611253120740S11725150EA0135101391000000000000
B0611293120763S11725085EA0135101394000000000000
B0611333120723S11725023EA0135901405000000000000
B0611373120656S11725027EA0136701411000000000000
B0611413120634S11725088EA0137801428000000000000
B0611453120677S11725124EA0139001432000000000000
B0611493120728S11725087EA0139001434000000000000
B0611533120724S11725009EA0139801445000000000000
B0611573120664S11724966EA0140301447000000000000
B0612013120604S11724996EA0140801458000000000000
B0612053120625S11725046EA0143001479000000000000
B0612093120673S11725015EA0144201491000000000000
B0612133120656S11724946EA0144701495000000000000
B0612173120598S11724933EA0145001500000000000000
B0612213120562S11724983EA0145701509000000000000
B0612253120578S11725040EA0146301517000000000000
B0612293120632S11725048EA0147601530000000000000
B0612333120664S11724990EA0148301532000000000000
B0612373120625S11724928EA0148401535000000000000
B0612413120563S11724919EA0149601551000000000000
B0612453120511S11724954EA0150101549000000000000
B0612493120493S11725018EA0149301541000000000000
B0612533120520S11725087EA0148201533000000000000
B0612573120567S11725152EA0148201531000000000000
B0613013120623S11725215EA0148201538000000000000
B0613053120682S11725279EA0148501539000000000000
B0613093120742S11725345EA0149501551000000000000
B0613133120771S11725428EA0150601562000000000000
B0613173120777S11725517EA0152301584000000000000
B0613213120803S11725594EA0154301603000000000000
B0613253120870S11725577EA0157001615000000000000
B0613293120875S11725499EA0159101636000000000000
B0613333120820S11725460EA0161101660000000000000
B0613373120766S11725488EA0163001676000000000000
B0613413120763S11725555EA0164301696000000000000
B0613453120810S11725588EA0165901710000000000000
B0613493120862S11725552EA0166801723000000000000
B0613533120863S11725479EA0168501742000000000000
B0613573120809S11725452EA0170301764000000000000
B0614013120770S11725500EA0172101781000000000000
B0614053120794S11725556EA0173301793000000000000
B0614093120851S11725544EA0174201804000000000000
B0614133120862S11725474EA0175901823000000000000
B0614173120811S11725430EA0177401842000000000000
B0614213120754S11725453EA0179401860000000000000
B0614253120738S11725517EA0180601871000000000000
B0614293120775S11725564EA0181301877000000000000
B0614333120838S11725556EA0181301881000000000000
B0614373120872S11725491EA0182801903000000000000
B0614413120841S11725428EA0185401928000000000000
B0614453120784S11725430EA0187201944000000000000
B0614493120759S11725486EA0188401954000000000000
B0614533120790S11725534EA0189501966000000000000
B0614573120841S11725518EA0190701978000000000000
B0615013120849S11725453EA0192101994000000000000
B0615053120802S11725412EA0193902013000000000000
B0615093120753S11725439EA0195202024000000000000
B0615133120742S11725499EA0195602031000000000000
B0615173120777S11725539EA0196302038000000000000
B0615213120831S11725530EA0196802045000000000000
B0615253120851S11725467EA0197902058000000000000
B0615293120816S11725413EA0199502076000000000000
B0615333120760S11725426EA0200702085000000000000
B0615373120742S11725486EA0201402091000000000000
B0615413120780S11725527EA0201802094000000000000
B0615453120831S11725500EA0202502104000000000000
B0615493120832S11725434EA0203502117000000000000
B0615533120779S11725396EA0204602126000000000000
B0615573120727S11725426EA0205402135000000000000
B0616013120721S11725487EA0205802138000000000000
B0616053120764S11725525EA0205902140000000000000
B0616093120823S11725512EA0206302146000000000000
B0616133120864S11725456EA0207102156000000000000
B0616173120849S11725384EA0208502170000000000000
B0616213120789S11725393EA0209802181000000000000
B0616253120780S11725461EA0210302191000000000000
B0616293120832S11725487EA0211202199000000000000
B0616333120877S11725443EA0211802209000000000000
B0616373120871S11725367EA0213002224000000000000
B0616413120814S11725323EA0214202236000000000000
B0616453120754S11725354EA0215702251000000000000
B0616493120737S11725426EA0216602256000000000000
B0616533120776S11725480EA0216802259000000000000
B0616573120832S11725458EA0217802272000000000000
B0617013120851S11725388EA0218802280000000000000
B0617053120827S11725314EA0219502289000000000000
B0617093120760S11725296EA0220502301000000000000
B0617133120706S11725341EA0221402313000000000000
B0617173120688S11725413EA0222002314000000000000
B0617213120711S11725488EA0220902297000000000000
B0617253120763S11725561EA0218902277000000000000
B0617293120831S11725634EA0217002256000000000000
B0617333120905S11725712EA0214602235000000000000
B0617373120981S11725790EA0213002222000000000000
B0617413121059S11725867EA0212202213000000000000
B0617453121139S11725945EA0211302204000000000000
B0617493121213S11726024EA0211002198000000000000
B0617533121286S11726104EA0210302190000000000000
