ACAM4N6
HFDTE180118
HFFXA050
HFPLTPILOT:JOHN WELSH              
HFGTYGLIDERTYPE:HORNET      
HFGIDGLIDERID:VH-GMY      
HFDTM100GPSDATUM:
HFRFWFIRMWAREVERSION:F2.6
HFRHWHARDWAREVERSION:300 Series Version 2
HFFTYFRTYPE:CAMBRIDGE AERO INSTRUMENTS, 302+
HFGPS:GARMIN,LVS-25,12,18000
HFPRSPRESSALTSENSOR:INTERSEMA, MS5534-AP, 20000
I033638FXA3941ENL4247REX
LCAMSBVER:5FWVER:F26300
C060118050331060118000102
C0000000N00000000WTAKEOFF     
C3207549S11656849EBEVAIR      
C3137399S11712982ECunderdin AF
C3200816S11723699EQUAIRDNG    
C3207549S11656849EBEVAIR      
C0000000N00000000WLANDING     
B0633033207338S11656857EA0021700218000000000000
B0633053207338S11656857EA0021800218000000000000
B0633073207338S11656857EA0021700218000000000000
B0633093207338S11656857EA0021800218000000000000
B0633113207338S11656857EA0021900218000000000000
B0633133207338S11656857EA0021900218000000000000
B0633153207338S11656857EA0021800218000000000000
B0633173207338S11656857EA0021700218000000000000
B0633193207338S11656857EA0021700218000000000000
B0633213207338S11656857EA0021700218000000000000
B0633233207339S11656858EA0021700218000000000000
B0633253207341S11656858EA0021700218000000000000
B0633273207341S11656860EA0021700218000000000000
B0633293207342S11656860EA0021800218000000000000
B0633313207346S11656862EA0021900218000000000000
B0633343207355S11656870EA0021900218000000000000
B0633383207381S11656891EA0021700218000000000000
B0633423207420S11656918EA0021700217000000000000
B0633463207471S11656951EA0021900218000000000000
B0633503207528S11656986EA0022400223000000000000
B0633543207588S11657021EA0022700226000000000000
B0633583207645S11657061EA0023600240000000000000
B0634023207696S11657111EA0025400257000000000000
B0634063207741S11657169EA0026800271000000000000
B0634103207783S11657229EA0028300291000000000000
B0634143207823S11657291EA0029600309000000000000
B0634183207867S11657348EA0032000335000000000000
B0634223207910S11657404EA0034800365000000000000
B0634263207954S11657462EA0036700373000000000000
B0634303207974S11657537EA0037100381000000000000
B0634343207960S11657611EA0038300396000000000000
B0634383207917S11657677EA0039300405000000000000
B0634423207848S11657718EA0040800417000000000000
B0634463207763S11657720EA0041800429000000000000
B0634503207680S11657681EA0042700436000000000000
B0634543207615S11657607EA0043000436000000000000
B0634583207572S11657515EA0043300443000000000000
B0635023207558S11657417EA0044500459000000000000
B0635063207570S11657324EA0046500480000000000000
B0635103207594S11657233EA0047700493000000000000
B0635143207624S11657143EA0049800520000000000000
B0635183207657S11657056EA0051900536000000000000
B0635223207707S11656986EA0053000544000000000000
B0635263207770S11656945EA0054100561000000000000
B0635303207833S11656944EA0055700573000000000000
B0635343207887S11656981EA0056200572000000000000
B0635383207924S11657040EA0056500581000000000000
B0635423207944S11657109EA0058300598000000000000
B0635463207984S11657147EA0058600599000000000000
B0635503208028S11657101EA0058700599000000000000
B0635543208012S11657025EA0058600596000000000000
B0635583207947S11656990EA0057600586000000000000
B0636023207883S11657014EA0057000580000000000000
B0636063207852S11657075EA0056500574000000000000
B0636103207867S11657134EA0055900570000000000000
B0636143207910S11657169EA0055900566000000000000
B0636183207965S11657165EA0054600554000000000000
B0636223208008S11657109EA0053900547000000000000
B0636263208032S11657029EA0053900551000000000000
B0636303208008S11656955EA0055000561000000000000
B0636343207953S11656955EA0055100557000000000000
B0636383207947S11657007EA0054700555000000000000
B0636423207993S11657022EA0054800557000000000000
B0636463208038S11656973EA0054800555000000000000
B0636503208047S11656887EA0054800555000000000000
B0636543208008S11656815EA0055100561000000000000
B0636583207945S11656815EA0055300559000000000000
B0637023207928S11656871EA0054500549000000000000
B0637063207979S11656883EA0054500552000000000000
B0637103208008S11656815EA0054700553000000000000
B0637143207974S11656739EA0054600551000000000000
B0637183207906S11656713EA0054300546000000000000
B0637223207859S11656756EA0054100547000000000000
B0637263207875S11656809EA0053700540000000000000
B0637303207930S11656795EA0053700542000000000000
B0637343207950S11656719EA0053200536000000000000
B0637383207917S11656637EA0053000535000000000000
B0637423207853S11656597EA0052700534000000000000
B0637463207797S11656626EA0052600531000000000000
B0637503207800S11656682EA0052200527000000000000
B0637543207852S11656687EA0051500520000000000000
B0637583207887S11656624EA0051400520000000000000
B0638023207861S11656548EA0051900524000000000000
B0638063207798S11656520EA0051600519000000000000
B0638103207754S11656557EA0051000514000000000000
B0638143207767S11656611EA0050100506000000000000
B0638183207809S11656648EA0049000493000000000000
B0638223207857S11656683EA0048100481000000000000
B0638263207910S11656706EA0048500492000000000000
B0638303207944S11656654EA0049400498000000000000
B0638343207910S11656584EA0049100492000000000000
B0638383207850S11656587EA0048500486000000000000
B0638393207830S11656643EA0047900480000000000000
B0638433207848S11656696EA0047900481000000000000
B0638473207892S11656721EA0048600489000000000000
B0638513207932S11656675EA0049400494000000000000
B0638553207897S11656609EA0049600495000000000000
B0638593207843S11656626EA0048900486000000000000
B0639033207858S11656679EA0048800486000000000000
B0639073207910S11656678EA0049700497000000000000
B0639113207924S11656607EA0050600507000000000000
B0639153207876S11656550EA0050600504000000000000
B0639193207818S11656567EA0050400502000000000000
B0639233207824S11656623EA0050200502000000000000
B0639273207875S11656644EA0050400509000000000000
B0639313207904S11656583EA0051700520000000000000
B0639353207854S11656531EA0052100523000000000000
B0639393207805S11656563EA0051900518000000000000
B0639433207820S11656618EA0052100524000000000000
B0639473207872S11656610EA0053000532000000000000
B0639513207879S11656536EA0053800541000000000000
B0639553207823S11656485EA0054100540000000000000
B0639593207768S11656513EA0053700535000000000000
B0640033207784S11656572EA0053600537000000000000
B0640073207837S11656562EA0055200554000000000000
B0640113207837S11656490EA0056400567000000000000
B0640153207775S11656464EA0056600567000000000000
B0640193207745S11656519EA0056600566000000000000
B0640233207787S11656557EA0057100571000000000000
B0640273207831S11656505EA0057800580000000000000
B0640313207804S11656432EA0058500588000000000000
B0640353207739S11656433EA0058600589000000000000
B0640393207727S11656493EA0059300598000000000000
B0640433207776S11656514EA0059500596000000000000
B0640473207814S11656453EA0060000605000000000000
B0640513207774S11656392EA0061000618000000000000
B0640553207718S11656416EA0061300619000000000000
B0640593207731S11656472EA0061300619000000000000
B0641033207788S11656467EA0061500618000000000000
B0641073207819S11656396EA0061300617000000000000
B0641113207793S11656311EA0061800624000000000000
B0641153207729S11656306EA0063200639000000000000
B0641193207719S11656364EA0064000647000000000000
B0641233207768S11656371EA0064900654000000000000
B0641273207787S11656302EA0065400662000000000000
B0641313207737S11656253EA0066300666000000000000
B0641353207684S11656284EA0066700672000000000000
B0641393207700S11656338EA0067300680000000000000
B0641433207752S11656325EA0067600678000000000000
B0641473207767S11656246EA0067600679000000000000
B0641513207722S11656177EA0068600690000000000000
B0641553207661S11656189EA0069100696000000000000
B0641593207662S11656246EA0070000709000000000000
B0642033207715S11656236EA0070800713000000000000
B0642073207723S11656162EA0071500725000000000000
B0642113207671S11656116EA0072600732000000000000
B0642153207619S11656147EA0072800732000000000000
B0642193207638S11656203EA0073400742000000000000
B0642233207694S11656193EA0073900743000000000000
B0642273207713S11656113EA0074000745000000000000
B0642313207663S11656056EA0075000757000000000000
B0642353207614S11656090EA0075800763000000000000
B0642393207638S11656139EA0076200767000000000000
B0642433207696S11656111EA0076200764000000000000
B0642473207696S11656021EA0076400772000000000000
B0642513207633S11655986EA0077900790000000000000
B0642553207589S11656025EA0078500793000000000000
B0642593207602S11656081EA0078800796000000000000
B0643033207657S11656071EA0079600806000000000000
B0643073207681S11656000EA0080500814000000000000
B0643113207648S11655925EA0081200821000000000000
B0643153207586S11655913EA0082000831000000000000
B0643193207555S11655957EA0082800841000000000000
B0643233207576S11656002EA0083500845000000000000
B0643273207629S11655989EA0083800849000000000000
B0643313207658S11655921EA0084300851000000000000
B0643353207641S11655839EA0083700846000000000000
B0643393207584S11655785EA0083800849000000000000
B0643433207528S11655801EA0084100852000000000000
B0643473207521S11655863EA0083500842000000000000
B0643513207553S11655921EA0083100843000000000000
B0643553207610S11655937EA0083900851000000000000
B0643593207648S11655878EA0084300858000000000000
B0644033207632S11655794EA0084800855000000000000
B0644073207581S11655727EA0084300853000000000000
B0644113207514S11655722EA0084000850000000000000
B0644153207468S11655768EA0084100855000000000000
B0644193207475S11655822EA0084900864000000000000
B0644233207524S11655798EA0085900871000000000000
B0644273207528S11655721EA0086200871000000000000
B0644313207480S11655660EA0085700866000000000000
B0644353207416S11655666EA0085400864000000000000
B0644393207391S11655726EA0085100862000000000000
B0644433207397S11655799EA0084600851000000000000
B0644473207417S11655870EA0084400852000000030000
B0644513207442S11655930EA0084200851000000015000
B0644553207467S11655983EA0084900858000000000000
B0644593207502S11656029EA0084600854000000000000
B0645033207538S11656076EA0084400854000000000000
B0645073207577S11656111EA0085400866000000000000
B0645113207616S11656077EA0086300870000000000000
B0645153207588S11655996EA0085800863000000000000
B0645193207514S11655970EA0085400863000000000000
B0645233207454S11656006EA0085400863000000000000
B0645273207434S11656067EA0085200855000000000000
B0645313207430S11656137EA0083700843000000000000
B0645353207436S11656206EA0083600844000000000000
B0645393207443S11656271EA0084300854000000000000
B0645433207460S11656328EA0084800855000000000000
B0645473207481S11656380EA0085200864000000000000
B0645513207503S11656423EA0085400861000000000000
B0645553207540S11656451EA0085000856000000000000
B0645593207583S11656463EA0084600856000000000000
B0646033207628S11656471EA0084400852000000000000
B0646073207676S11656479EA0083800847000000000000
B0646113207728S11656481EA0083000837000000000000
B0646153207783S11656471EA0082400830000000000000
B0646193207837S11656453EA0081500821000000000000
B0646233207893S11656429EA0079900805000000000000
B0646273207949S11656398EA0078200786000000000000
B0646313208012S11656360EA0076400771000000000000
B0646353208071S11656323EA0075600767000000000000
B0646393208129S11656282EA0075500763000000000000
B0646433208186S11656243EA0074800757000000000000
B0646473208244S11656220EA0075100766000000000000
B0646513208294S11656214EA0077100790000000000000
B0646553208307S11656154EA0079100805000000000000
B0646593208246S11656110EA0078900799000000000000
B0647033208191S11656152EA0079300807000000000000
B0647073208207S11656197EA0079900812000000000000
B0647113208248S11656159EA0080600819000000000000
B0647153208233S11656077EA0081700832000000000000
B0647193208168S11656043EA0082900840000000000000
B0647233208125S11656082EA0083400846000000000000
B0647273208138S11656124EA0084000851000000000000
B0647313208184S11656116EA0084000852000000000000
B0647353208207S11656041EA0084700863000000000000
B0647393208165S11655965EA0085900876000000000000
B0647433208095S11655951EA0086900887000000000000
B0647473208049S11655990EA0087900895000000000000
B0647513208058S11656037EA0088300898000000000000
B0647553208104S11656039EA0089300908000000000000
B0647593208131S11655978EA0090400920000000000000
B0648033208093S11655907EA0091200926000000000000
B0648073208025S11655891EA0091800935000000000000
B0648113207983S11655933EA0092600941000000000000
B0648153207993S11655980EA0093300950000000000000
B0648193208039S11655986EA0094000955000000000000
B0648233208077S11655933EA0094300959000000000000
B0648273208069S11655844EA0094700965000000000000
B0648313208009S11655785EA0095300971000000000000
B0648353207939S11655790EA0096300982000000000000
B0648393207902S11655837EA0097400993000000000000
B0648433207908S11655882EA0098901007000000000000
B0648473207939S11655900EA0098701002000000000000
B0648513207982S11655878EA0098500999000000000000
B0648553208005S11655813EA0098701002000000000000
B0648593207989S11655734EA0098901005000000000000
B0649033207930S11655684EA0099201009000000000000
B0649073207866S11655697EA0099901016000000000000
B0649113207852S11655748EA0100501024000000000000
B0649153207887S11655773EA0101201031000000000000
B0649193207932S11655751EA0102001038000000000000
B0649233207953S11655682EA0102701043000000000000
B0649273207928S11655603EA0103201051000000000000
B0649313207867S11655560EA0103701055000000000000
B0649353207809S11655578EA0104101060000000000000
B0649393207780S11655623EA0104501067000000000000
B0649433207792S11655666EA0104801070000000000000
B0649473207832S11655686EA0104801068000000000000
B0649513207879S11655661EA0104801067000000000000
B0649553207919S11655596EA0104201059000000000000
B0649593207954S11655515EA0104301062000000000000
B0650033207987S11655434EA0104101061000000000000
B0650073208014S11655348EA0104301067000000000000
B0650113208041S11655268EA0105401077000000000000
B0650153208070S11655192EA0105101068000000000000
B0650193208099S11655112EA0104301064000000000000
B0650233208134S11655038EA0104201060000000000000
B0650273208175S11654972EA0103901057000000000000
B0650313208214S11654906EA0103701054000000000000
B0650353208248S11654833EA0103101049000000000000
B0650393208285S11654765EA0102501041000000000000
B0650433208334S11654713EA0102101033000000000000
B0650473208395S11654691EA0101001019000000000000
B0650513208459S11654704EA0099301000000000000000
B0650553208515S11654747EA0098501003000000000000
B0650593208556S11654798EA0099301011000000000000
B0651033208589S11654849EA0099301006000000000000
B0651073208617S11654906EA0098701001000000000000
B0651113208646S11654966EA0097900994000000000000
B0651153208673S11655025EA0097400987000000000000
B0651193208698S11655088EA0097000986000000000000
B0651233208723S11655149EA0096700982000000000000
B0651273208746S11655211EA0096100973000000000000
B0651313208767S11655275EA0095900975000000000000
B0651353208789S11655332EA0096200981000000000000
B0651393208806S11655393EA0095900976000000000000
B0651433208820S11655452EA0095600972000000000000
B0651473208832S11655509EA0095400971000000000000
B0651513208846S11655566EA0095000966000000000000
B0651553208854S11655627EA0094000954000000000000
B0651593208860S11655688EA0093200942000000000000
B0652033208866S11655755EA0092000927000000000000
B0652073208871S11655825EA0090700916000000000000
B0652113208879S11655895EA0090000909000000000000
B0652153208889S11655964EA0089200902000000000000
B0652193208899S11656032EA0088700898000000000000
B0652233208909S11656100EA0088200891000000000000
B0652273208920S11656165EA0088100895000000000000
B0652313208935S11656229EA0088600898000000000000
B0652353208948S11656292EA0088400892000000000000
B0652393208961S11656354EA0087800886000000000000
B0652433208972S11656418EA0086600871000000000000
B0652473208983S11656487EA0085100857000000000000
B0652513208993S11656554EA0084300849000000000000
B0652553209001S11656614EA0084800863000000000000
B0652593209009S11656666EA0085500866000000000000
B0653033209015S11656717EA0085800872000000000000
B0653073209019S11656766EA0086600879000000000000
B0653113209026S11656814EA0086600879000000000000
B0653153209032S11656867EA0086000867000000000000
B0653193209040S11656930EA0085100861000000000000
B0653233209045S11656997EA0085200865000000000000
B0653273209050S11657065EA0086100874000000000000
B0653313209057S11657129EA0087000883000000000000
B0653353209091S11657163EA0087900891000000000000
B0653393209122S11657121EA0088200895000000000000
B0653433209098S11657049EA0087900892000000000000
B0653473209036S11657014EA0087800893000000000000
B0653513208975S11657031EA0088400902000000000000
B0653553208940S11657075EA0089000908000000000000
B0653593208929S11657130EA0089000906000000000000
B0654033208936S11657185EA0088900905000000000000
B0654073208946S11657243EA0089200908000000000000
B0654113208957S11657303EA0089000904000000000000
B0654153208967S11657364EA0088400898000000000000
B0654193208989S11657416EA0087700888000000000000
B0654233209036S11657433EA0086800880000000000000
B0654273209076S11657382EA0085900872000000000000
B0654313209061S11657299EA0085200867000000000000
B0654353209013S11657222EA0085100867000000000000
B0654393208955S11657151EA0085000865000000000000
B0654433208888S11657098EA0085200870000000000000
B0654473208816S11657103EA0085900875000000000000
B0654513208772S11657151EA0085700871000000000000
B0654553208762S11657211EA0084600858000000000000
B0654593208777S11657269EA0083000840000000000000
B0655033208807S11657329EA0082000833000000000000
B0655073208849S11657372EA0082600841000000000000
B0655113208890S11657407EA0082900845000000000000
B0655153208935S11657437EA0082900846000000000000
B0655193208981S11657460EA0083400854000000000000
B0655233209032S11657467EA0084100859000000000000
B0655273209084S11657469EA0084300862000000000000
B0655313209137S11657464EA0084500862000000000000
B0655353209195S11657455EA0084500860000000000000
B0655393209253S11657454EA0084300858000000000000
B0655433209306S11657472EA0084000858000000000000
B0655473209353S11657504EA0084000856000000000000
B0655513209395S11657546EA0083900855000000000000
B0655553209431S11657597EA0083200845000000000000
B0655593209465S11657653EA0082800846000000000000
B0656033209496S11657710EA0082700844000000000000
B0656073209525S11657764EA0082800845000000000000
B0656113209553S11657816EA0082200839000000000000
B0656153209583S11657870EA0081600830000000000000
B0656193209614S11657923EA0081000821000000000000
B0656233209648S11657976EA0080300814000000000000
B0656273209679S11658030EA0079400807000000000000
B0656313209712S11658082EA0078500797000000000000
B0656353209746S11658131EA0077600786000000000000
B0656393209794S11658164EA0076600776000000000000
B0656433209851S11658165EA0075600764000000000000
B0656473209912S11658147EA0074100751000000000000
B0656513209973S11658121EA0073100742000000000000
B0656553210033S11658092EA0072500736000000000000
B0656593210095S11658058EA0071400722000000000000
B0657033210158S11658017EA0070000712000000000000
B0657073210220S11657976EA0069500709000000000000
B0657113210280S11657935EA0069600710000000000000
B0657153210337S11657891EA0069100705000000000000
B0657193210396S11657850EA0068700699000000000000
B0657233210453S11657811EA0068300694000000000000
B0657273210511S11657776EA0067800687000000000000
B0657313210574S11657767EA0067400689000000000000
B0657353210632S11657770EA0067800690000000000000
B0657393210687S11657781EA0067400681000000000000
B0657433210735S11657815EA0066500675000000000000
B0657473210769S11657866EA0066200673000000000000
B0657513210786S11657926EA0065600662000000000000
B0657553210770S11658002EA0063600640000000000000
B0657593210712S11658056EA0063800648000000000000
B0658033210638S11658063EA0064900659000000000000
B0658073210562S11658063EA0065300661000000000000
B0658113210502S11658092EA0065500661000000000000
B0658153210472S11658149EA0065200656000000000000
B0658193210452S11658214EA0064400649000000000000
B0658233210446S11658283EA0064600650000000000000
B0658273210484S11658305EA0066100670000000000000
B0658313210509S11658251EA0067100674000000000000
B0658353210478S11658178EA0066800670000000000000
B0658393210413S11658157EA0066400668000000000000
B0658433210363S11658195EA0066300666000000000000
B0658473210348S11658252EA0065900662000000000000
B0658513210358S11658312EA0065500653000000000000
B0658553210376S11658373EA0063900629000000000000
B0658593210367S11658450EA0061600612000000000000
B0659033210322S11658518EA0060700602000000000000
B0659073210253S11658572EA0059100584000000000000
B0659113210170S11658607EA0057400570000000000000
B0659153210080S11658629EA0056200559000000000000
B0659193209989S11658642EA0055000551000000000000
B0659233209897S11658643EA0054400543000000000000
B0659273209802S11658638EA0053600533000000000000
B0659313209707S11658630EA0052500520000000000000
B0659353209612S11658619EA0051300508000000000000
B0659393209517S11658608EA0050300502000000000000
B0659433209427S11658598EA0050500508000000000000
B0659473209344S11658587EA0050500503000000000000
B0659513209260S11658580EA0049800493000000000000
B0659553209172S11658568EA0048600479000000000000
B0659593209092S11658580EA0050400505000000000000
B0700033209088S11658633EA0052800529000000000000
B0700073209130S11658615EA0054000541000000000000
B0700113209128S11658539EA0054900549000000000000
B0700153209078S11658483EA0055300554000000000000
B0700193209023S11658502EA0056200567000000000000
B0700233209027S11658547EA0057400577000000000000
B0700273209074S11658534EA0058400586000000000000
B0700313209087S11658461EA0059300594000000000000
B0700353209046S11658392EA0059300593000000000000
B0700393208977S11658382EA0059800599000000000000
B0700433208941S11658433EA0060800610000000000000
B0700473208980S11658447EA0062500629000000000000
B0700513209001S11658382EA0063600638000000000000
B0700553208961S11658317EA0063800638000000000000
B0700593208894S11658330EA0064200647000000000000
B0701033208889S11658388EA0065900667000000000000
B0701073208933S11658392EA0067300682000000000000
B0701113208961S11658333EA0068300690000000000000
B0701153208937S11658253EA0068600692000000000000
B0701193208870S11658222EA0068700699000000000000
B0701233208816S11658258EA0070200718000000000000
B0701273208815S11658310EA0071800734000000000000
B0701313208855S11658310EA0073500749000000000000
B0701353208886S11658258EA0074100750000000000000
B0701393208875S11658178EA0073900748000000000000
B0701433208816S11658119EA0074100751000000000000
B0701473208754S11658134EA0075600769000000000000
B0701513208762S11658180EA0076900781000000000000
B0701553208802S11658161EA0078200793000000000000
B0701593208812S11658087EA0078100790000000000000
B0702033208771S11658009EA0078100793000000000000
B0702073208701S11657995EA0079000809000000000000
B0702113208663S11658043EA0080400822000000000000
B0702153208686S11658084EA0081400831000000000000
B0702193208730S11658065EA0082500841000000000000
B0702233208729S11657987EA0083100846000000000000
B0702273208669S11657935EA0083500855000000000000
B0702313208615S11657966EA0084700866000000000000
B0702353208619S11658022EA0085200870000000000000
B0702393208665S11658021EA0085800872000000000000
B0702433208689S11657952EA0086600883000000000000
B0702473208655S11657874EA0086700882000000000000
B0702513208585S11657857EA0087300892000000000000
B0702553208550S11657905EA0088300899000000000000
B0702593208574S11657948EA0088600901000000000000
B0703033208623S11657923EA0089300910000000000000
B0703073208625S11657840EA0089600913000000000000
B0703113208565S11657775EA0090100921000000000000
B0703153208495S11657779EA0091000934000000000000
B0703193208464S11657829EA0092000944000000000000
B0703233208487S11657872EA0092700947000000000000
B0703273208533S11657846EA0093300955000000000000
B0703313208532S11657764EA0094000962000000000000
B0703353208472S11657703EA0094000962000000000000
B0703393208405S11657715EA0095000976000000000000
B0703433208390S11657764EA0096200988000000000000
B0703473208426S11657785EA0096200984000000000000
B0703513208461S11657731EA0096900990000000000000
B0703553208438S11657649EA0097200995000000000000
B0703593208372S11657606EA0097500998000000000000
B0704033208314S11657632EA0098001004000000000000
B0704073208305S11657689EA0098501010000000000000
B0704113208346S11657715EA0098901009000000000000
B0704153208389S11657668EA0099101013000000000000
B0704193208381S11657582EA0100001022000000000000
B0704233208325S11657514EA0099901017000000000000
B0704273208249S11657504EA0099901020000000000000
B0704313208200S11657550EA0100501028000000000000
B0704353208199S11657606EA0101401037000000000000
B0704393208235S11657636EA0102001042000000000000
B0704433208281S11657615EA0102101042000000000000
B0704473208304S11657549EA0102901049000000000000
B0704513208286S11657463EA0102801047000000000000
B0704553208230S11657391EA0102801047000000000000
B0704593208155S11657382EA0102701049000000000000
B0705033208106S11657430EA0103201053000000000000
B0705073208095S11657490EA0103501058000000000000
B0705113208106S11657546EA0104201066000000000000
B0705153208132S11657595EA0104401066000000000000
B0705193208168S11657638EA0104401066000000000000
B0705233208207S11657679EA0104401062000000000000
B0705273208244S11657727EA0104101058000000000000
B0705313208279S11657777EA0103401053000000000000
B0705353208313S11657822EA0103901062000000000000
B0705393208348S11657865EA0104501068000000000000
B0705433208385S11657905EA0103901057000000000000
B0705473208421S11657954EA0103301054000000000000
B0705513208463S11658005EA0102401043000000000000
B0705553208508S11658058EA0100801025000000000000
B0705593208538S11658132EA0099701016000000000000
B0706033208555S11658212EA0099501018000000000000
B0706073208560S11658290EA0099701020000000000000
B0706113208556S11658368EA0100101021000000000000
B0706153208551S11658447EA0100601031000000000000
B0706193208547S11658522EA0100501021000000000000
B0706233208541S11658602EA0098701002000000000000
B0706273208532S11658684EA0097700993000000000000
B0706313208521S11658764EA0097000983000000000000
B0706353208507S11658843EA0096100973000000000000
B0706393208490S11658918EA0096500987000000000000
B0706433208489S11658983EA0098401005000000000000
B0706473208516S11659024EA0099501014000000000000
B0706513208555S11659055EA0099601014000000000000
B0706553208602S11659080EA0099901021000000000000
B0706593208647S11659102EA0100701026000000000000
B0707033208697S11659124EA0100601024000000000000
B0707073208747S11659148EA0101201033000000000000
B0707113208797S11659135EA0103301054000000000000
B0707153208792S11659059EA0103601053000000000000
B0707193208724S11659023EA0103601057000000000000
B0707233208664S11659059EA0104001063000000000000
B0707273208658S11659119EA0104901074000000000000
B0707313208693S11659153EA0106201088000000000000
B0707353208733S11659116EA0107401101000000000000
B0707393208727S11659040EA0108301107000000000000
B0707433208664S11658996EA0109001112000000000000
B0707473208602S11659022EA0109601119000000000000
B0707513208582S11659079EA0110501126000000000000
B0707553208612S11659119EA0111001132000000000000
B0707593208659S11659094EA0111801139000000000000
B0708033208669S11659018EA0112701159000000000000
B0708073208624S11658958EA0114801176000000000000
B0708113208559S11658960EA0115901184000000000000
B0708153208525S11659014EA0116601195000000000000
B0708193208546S11659057EA0117601202000000000000
B0708233208587S11659023EA0118001208000000000000
B0708273208581S11658945EA0119101221000000000000
B0708313208521S11658901EA0120901241000000000000
B0708353208457S11658910EA0122201247000000000000
B0708393208428S11658963EA0122001244000000000000
B0708433208447S11659015EA0122001247000000000000
B0708473208491S11659037EA0122601256000000000000
B0708513208542S11659029EA0122901256000000000000
B0708553208597S11659023EA0122901256000000000000
B0708593208655S11659015EA0123201259000000000000
B0709033208710S11659012EA0123401256000000000000
B0709073208767S11659016EA0122901254000000000000
B0709113208824S11659024EA0123001257000000000000
B0709153208881S11659033EA0123101256000000000000
B0709193208938S11659046EA0122801255000000000000
B0709233208994S11659057EA0123101258000000000000
B0709273209052S11659072EA0122701249000000000000
B0709313209110S11659098EA0122001245000000000000
B0709353209169S11659120EA0122101247000000000000
B0709393209226S11659146EA0122101251000000000000
B0709433209280S11659176EA0123101262000000000000
B0709473209331S11659200EA0124401277000000000000
B0709513209379S11659219EA0126001294000000000000
B0709553209426S11659245EA0127001302000000000000
B0709593209457S11659297EA0128501317000000000000
B0710033209434S11659350EA0130801343000000000000
B0710073209374S11659365EA0131301341000000000000
B0710113209308S11659332EA0131601347000000000000
B0710153209265S11659265EA0132801365000000000000
B0710193209244S11659184EA0134401381000000000000
B0710233209258S11659111EA0136201399000000000000
B0710273209301S11659075EA0137201405000000000000
B0710313209351S11659085EA0137401407000000000000
B0710353209392S11659120EA0138301418000000000000
B0710393209390S11659178EA0139401428000000000000
B0710433209338S11659215EA0140701441000000000000
B0710473209278S11659178EA0142101456000000000000
B0710513209276S11659100EA0144001478000000000000
B0710553209322S11659087EA0146101498000000000000
B0710593209332S11659135EA0147501510000000000000
B0711033209287S11659171EA0149001524000000000000
B0711073209224S11659152EA0150001534000000000000
B0711113209185S11659081EA0151101553000000000000
B0711153209197S11659010EA0153201572000000000000
B0711193209245S11658992EA0154101577000000000000
B0711233209286S11659029EA0155101589000000000000
B0711273209296S11659092EA0156201600000000000000
B0711313209274S11659157EA0157101606000000000000
B0711353209222S11659206EA0156801599000000000000
B0711393209146S11659224EA0155601586000000000000
B0711433209062S11659224EA0154501577000000000000
B0711473208974S11659215EA0154101573000000000000
B0711513208888S11659200EA0154301579000000000000
B0711553208802S11659179EA0154201576000000000000
B0711593208720S11659155EA0154301578000000000000
B0712033208638S11659139EA0153801572000000000000
B0712073208558S11659122EA0153601571000000000000
B0712113208480S11659111EA0153501566000000000000
B0712153208402S11659094EA0152401560000000000000
B0712193208324S11659061EA0151601551000000000000
B0712233208249S11659014EA0151001544000000000000
B0712273208175S11658958EA0150901547000000000000
B0712313208105S11658901EA0151201551000000000000
B0712353208038S11658843EA0151301549000000000000
B0712393207970S11658782EA0150701541000000000000
B0712433207901S11658721EA0150001536000000000000
B0712473207833S11658663EA0149301527000000000000
B0712513207765S11658603EA0149001523000000000000
B0712553207698S11658548EA0149701532000000000000
B0712593207633S11658503EA0150001535000000000000
B0713033207566S11658461EA0149601525000000000000
B0713073207494S11658414EA0148101511000000000000
B0713113207423S11658366EA0147001501000000000000
B0713153207345S11658323EA0146901503000000000000
B0713193207268S11658290EA0147501510000000000000
B0713233207194S11658252EA0148201518000000000000
B0713273207121S11658216EA0148101516000000000000
B0713313207048S11658175EA0148401520000000000000
B0713353206975S11658139EA0148401517000000000000
B0713393206901S11658101EA0147301502000000000000
B0713433206832S11658044EA0146201498000000000000
B0713473206782S11657969EA0146201499000000000000
B0713513206740S11657891EA0146501505000000000000
B0713553206693S11657820EA0147001505000000000000
B0713593206639S11657753EA0146501503000000000000
B0714033206582S11657688EA0146501501000000000000
B0714073206517S11657636EA0146301496000000000000
B0714113206440S11657634EA0145701489000000000000
B0714153206392S11657689EA0145401486000000000000
B0714193206394S11657754EA0144801479000000000000
B0714233206427S11657807EA0144001474000000000000
B0714273206476S11657845EA0144401481000000000000
B0714313206526S11657874EA0145401491000000000000
B0714353206575S11657900EA0146201496000000000000
B0714393206627S11657907EA0145701490000000000000
B0714433206684S11657901EA0145301489000000000000
B0714473206741S11657896EA0144701476000000000000
B0714513206801S11657892EA0144101475000000000000
B0714553206857S11657880EA0144401480000000000000
B0714593206909S11657858EA0145401488000000000000
B0715033206944S11657807EA0145901492000000000000
B0715073206974S11657749EA0145401486000000000000
B0715113207021S11657712EA0144801478000000000000
B0715153207081S11657702EA0144001470000000000000
B0715193207138S11657696EA0144501480000000000000
B0715233207194S11657692EA0145101482000000000000
B0715273207252S11657693EA0145101484000000000000
B0715313207310S11657697EA0146001497000000000000
B0715353207365S11657694EA0146901502000000000000
B0715393207421S11657692EA0146801500000000000000
B0715433207480S11657693EA0147201505000000000000
B0715473207537S11657698EA0147701509000000000000
B0715513207596S11657705EA0147601508000000000000
B0715553207655S11657712EA0147801509000000000000
B0715593207714S11657724EA0148201519000000000000
B0716033207767S11657732EA0149401529000000000000
B0716073207824S11657740EA0149601530000000000000
B0716113207884S11657749EA0149301523000000000000
B0716153207948S11657759EA0148201515000000000000
B0716193208010S11657767EA0148101519000000000000
B0716233208067S11657777EA0148701524000000000000
B0716273208125S11657788EA0148801525000000000000
B0716313208186S11657792EA0148801524000000000000
B0716353208244S11657798EA0148301518000000000000
B0716393208307S11657810EA0147101506000000000000
B0716433208368S11657822EA0146801506000000000000
B0716473208428S11657829EA0147101511000000000000
B0716513208485S11657841EA0147501517000000000000
B0716553208541S11657852EA0147701516000000000000
B0716593208597S11657855EA0148201522000000000000
B0717033208651S11657859EA0148701528000000000000
B0717073208704S11657853EA0148701526000000000000
B0717113208759S11657850EA0147901511000000000000
B0717153208815S11657852EA0147301510000000000000
B0717193208870S11657858EA0147201509000000000000
B0717233208922S11657868EA0147101506000000000000
B0717273208974S11657881EA0147201508000000000000
B0717313209026S11657893EA0146801501000000000000
B0717353209079S11657911EA0145701489000000000000
B0717393209135S11657936EA0144901480000000000000
B0717433209187S11657966EA0144701483000000000000
B0717473209232S11658002EA0144701482000000000000
B0717513209278S11658037EA0144701485000000000000
B0717553209323S11658076EA0144101475000000000000
B0717593209366S11658119EA0143601471000000000000
B0718033209409S11658167EA0142801462000000000000
B0718073209449S11658217EA0143001469000000000000
B0718113209487S11658265EA0143601474000000000000
B0718153209523S11658310EA0144101482000000000000
B0718193209560S11658353EA0144201480000000000000
B0718233209601S11658394EA0143701473000000000000
B0718273209640S11658439EA0143701480000000000000
B0718313209673S11658485EA0144901488000000000000
B0718353209700S11658534EA0144201478000000000000
B0718393209733S11658586EA0143301470000000000000
B0718433209765S11658633EA0143601475000000000000
B0718473209800S11658680EA0143601474000000000000
B0718513209837S11658726EA0143501470000000000000
B0718553209871S11658777EA0143301468000000000000
B0718593209907S11658827EA0143601474000000000000
B0719033209943S11658869EA0144001479000000000000
B0719073209980S11658914EA0143701470000000000000
B0719113210016S11658962EA0142801462000000000000
B0719153210056S11659007EA0142301460000000000000
B0719193210095S11659050EA0142101457000000000000
B0719233210133S11659093EA0142501462000000000000
B0719273210175S11659127EA0143401473000000000000
B0719313210219S11659153EA0144801487000000000000
B0719353210266S11659175EA0145301494000000000000
B0719393210318S11659171EA0146101504000000000000
B0719433210350S11659114EA0146901511000000000000
B0719473210331S11659041EA0147701520000000000000
B0719513210263S11659005EA0148201524000000000000
B0719553210202S11659023EA0148901534000000000000
B0719593210177S11659072EA0149901543000000000000
B0720033210207S11659110EA0150401544000000000000
B0720073210254S11659092EA0151001551000000000000
B0720113210272S11659025EA0151101551000000000000
B0720153210241S11658953EA0151801559000000000000
B0720193210176S11658921EA0151901557000000000000
B0720233210118S11658953EA0152101567000000000000
B0720273210111S11659007EA0153501582000000000000
B0720313210153S11659027EA0154601588000000000000
B0720353210192S11658983EA0155001594000000000000
B0720393210185S11658911EA0155701600000000000000
B0720433210134S11658855EA0156101606000000000000
B0720473210069S11658847EA0156601609000000000000
B0720513210034S11658894EA0157101618000000000000
B0720553210059S11658936EA0157801620000000000000
B0720593210108S11658918EA0158201627000000000000
B0721033210120S11658850EA0159201638000000000000
B0721073210088S11658781EA0159501638000000000000
B0721113210024S11658739EA0159301638000000000000
B0721153209964S11658765EA0160001649000000000000
B0721193209962S11658821EA0160801654000000000000
B0721233210011S11658827EA0160801651000000000000
B0721273210058S11658768EA0160401648000000000000
B0721313210098S11658694EA0160201650000000000000
B0721353210129S11658611EA0159301636000000000000
B0721393210163S11658520EA0157301614000000000000
B0721433210194S11658429EA0157101611000000000000
B0721473210224S11658340EA0156701607000000000000
B0721513210254S11658253EA0156601605000000000000
B0721553210287S11658170EA0156801610000000000000
B0721593210314S11658088EA0157101612000000000000
B0722033210335S11658001EA0156701605000000000000
B0722073210358S11657913EA0156901611000000000000
B0722113210385S11657835EA0158001624000000000000
B0722153210410S11657758EA0158601625000000000000
B0722193210422S11657673EA0158901627000000000000
B0722233210396S11657588EA0158901628000000000000
B0722273210375S11657501EA0158401620000000000000
B0722313210398S11657430EA0157501611000000000000
B0722353210449S11657410EA0156101591000000000000
B0722393210492S11657441EA0154301574000000000000
B0722433210510S11657498EA0153401566000000000000
B0722473210506S11657562EA0153301569000000000000
B0722513210500S11657625EA0153701573000000000000
B0722553210497S11657690EA0153801574000000000000
B0722593210500S11657751EA0153601566000000000000
B0723033210497S11657816EA0151701550000000000000
B0723073210474S11657887EA0150901541000000000000
B0723113210435S11657953EA0150101534000000000000
B0723153210387S11658010EA0150101536000000000000
B0723193210339S11658066EA0150001534000000000000
B0723233210294S11658126EA0149701532000000000000
B0723273210253S11658184EA0150001535000000000000
B0723313210214S11658240EA0150001535000000000000
B0723353210167S11658294EA0150201542000000000000
B0723393210121S11658342EA0151601557000000000000
B0723433210077S11658388EA0152701566000000000000
B0723473210030S11658435EA0153401573000000000000
B0723513209981S11658482EA0154201581000000000000
B0723553209946S11658537EA0154701583000000000000
B0723593209958S11658598EA0154701583000000000000
B0724033210008S11658611EA0154801583000000000000
B0724073210054S11658569EA0154001576000000000000
B0724113210056S11658492EA0152701564000000000000
B0724153210003S11658426EA0151701549000000000000
B0724193209926S11658387EA0150801547000000000000
B0724233209850S11658360EA0151101554000000000000
B0724273209778S11658326EA0151401555000000000000
B0724313209709S11658282EA0151501555000000000000
B0724353209644S11658236EA0151701557000000000000
B0724393209581S11658184EA0152101562000000000000
B0724433209522S11658119EA0152201560000000000000
B0724473209469S11658047EA0152301561000000000000
B0724513209416S11657972EA0152701567000000000000
B0724553209358S11657904EA0152901567000000000000
B0724593209295S11657844EA0153001566000000000000
B0725033209222S11657828EA0153201569000000000000
B0725073209165S11657866EA0153201565000000000000
B0725113209140S11657931EA0152501559000000000000
B0725153209135S11658002EA0152101553000000000000
B0725193209141S11658075EA0151801554000000000000
B0725233209171S11658132EA0152501560000000000000
B0725273209222S11658128EA0153801578000000000000
B0725313209241S11658066EA0154801585000000000000
B0725353209210S11657995EA0154301580000000000000
B0725393209144S11657976EA0154901588000000000000
B0725433209102S11658023EA0155401594000000000000
B0725473209114S11658078EA0155601592000000000000
B0725513209161S11658071EA0155701596000000000000
B0725553209169S11658002EA0156101600000000000000
B0725593209118S11657946EA0156101605000000000000
B0726033209055S11657956EA0156601605000000000000
B0726073209023S11658013EA0156401607000000000000
B0726113209040S11658071EA0156301603000000000000
B0726153209091S11658084EA0156401607000000000000
B0726193209128S11658034EA0157401619000000000000
B0726233209111S11657954EA0158301626000000000000
B0726273209050S11657914EA0159401640000000000000
B0726313208993S11657937EA0159101630000000000000
B0726353208975S11657998EA0158301623000000000000
B0726393209000S11658054EA0157601620000000000000
B0726433209048S11658070EA0158301631000000000000
B0726473209067S11658010EA0159401643000000000000
B0726513209026S11657945EA0159701640000000000000
B0726553208955S11657944EA0159401639000000000000
B0726593208915S11657996EA0159501636000000000000
B0727033208925S11658060EA0158901634000000000000
B0727073208964S11658100EA0159701643000000000000
B0727113209005S11658067EA0160101648000000000000
B0727153208996S11657993EA0160401651000000000000
B0727193208936S11657945EA0160901661000000000000
B0727233208868S11657956EA0161801665000000000000
B0727273208828S11658013EA0161701661000000000000
B0727313208829S11658080EA0161301659000000000000
B0727353208847S11658149EA0160101638000000000000
B0727393208877S11658217EA0159901645000000015000
B0727433208910S11658266EA0160401646000000000000
B0727473208949S11658300EA0160701651000000000000
B0727513208993S11658320EA0160801648000000000000
B0727553209041S11658321EA0160001639000000000000
B0727593209089S11658299EA0158601622000000000000
B0728033209143S11658277EA0157001605000000000000
B0728073209196S11658290EA0155601597000000000000
B0728113209223S11658339EA0155701598000000000000
B0728153209214S11658404EA0155601595000000000000
B0728193209178S11658466EA0155401592000000000000
B0728233209132S11658521EA0155001588000000000000
B0728273209071S11658567EA0154301579000000000000
B0728313209000S11658598EA0153701575000000000000
B0728353208923S11658611EA0153701575000000000000
B0728393208847S11658620EA0153301570000000000000
B0728433208772S11658624EA0153001569000000000000
B0728473208699S11658629EA0153001569000000000000
B0728513208626S11658632EA0152901567000000000000
B0728553208554S11658629EA0152601562000000000000
B0728593208478S11658635EA0152101555000000000000
B0729033208407S11658659EA0151201545000000000000
B0729073208340S11658698EA0150801544000000000000
B0729113208277S11658736EA0150601538000000000000
B0729153208213S11658775EA0149701528000000000000
B0729193208148S11658817EA0148801517000000000000
B0729233208084S11658864EA0147701506000000000000
B0729273208023S11658918EA0146701500000000000000
B0729313207958S11658963EA0146601501000000000000
B0729353207887S11658989EA0146901506000000000000
B0729393207815S11659005EA0147001503000000000000
B0729433207740S11659018EA0146401495000000000000
B0729473207663S11659031EA0145801491000000000000
B0729513207588S11659045EA0145401489000000000000
B0729553207514S11659059EA0145301488000000000000
B0729593207438S11659067EA0145301484000000000000
B0730033207356S11659057EA0144401476000000000000
B0730073207277S11659041EA0144101474000000000000
B0730113207198S11659023EA0143701469000000000000
B0730153207117S11659002EA0143201462000000000000
B0730193207035S11658988EA0142801460000000000000
B0730233206956S11658977EA0142801461000000000000
B0730273206877S11658972EA0142401455000000000000
B0730313206795S11658966EA0141601445000000000000
B0730353206710S11658947EA0140801436000000000000
B0730393206623S11658927EA0140001428000000000000
B0730433206535S11658908EA0139201421000000000000
B0730473206446S11658888EA0139001422000000000000
B0730513206364S11658860EA0139301425000000000000
B0730553206289S11658833EA0139301425000000000000
B0730593206214S11658807EA0138701416000000000000
B0731033206137S11658769EA0137601405000000000000
B0731073206069S11658710EA0137101400000000000000
B0731113206025S11658629EA0137001400000000000000
B0731153206000S11658547EA0137501409000000000000
B0731193205981S11658465EA0139401429000000000000
B0731233205928S11658414EA0141301452000000000000
B0731273205869S11658442EA0143001467000000000000
B0731313205857S11658498EA0144001476000000000000
B0731353205886S11658530EA0144601482000000000000
B0731393205924S11658504EA0145301491000000000000
B0731433205928S11658437EA0146501508000000000000
B0731473205872S11658388EA0148401525000000000000
B0731513205808S11658409EA0149801539000000000000
B0731553205792S11658468EA0150901548000000000000
B0731593205822S11658495EA0151501554000000000000
B0732033205861S11658473EA0151801555000000000000
B0732073205874S11658411EA0151801556000000000000
B0732113205826S11658353EA0152801575000000000000
B0732153205763S11658369EA0154701592000000000000
B0732193205747S11658426EA0156001602000000000000
B0732233205778S11658444EA0156601606000000000000
B0732273205804S11658400EA0156501603000000000000
B0732313205783S11658329EA0156801613000000000000
B0732353205718S11658294EA0158601633000000000000
B0732393205656S11658323EA0159901644000000000000
B0732433205633S11658386EA0161001654000000000000
B0732473205659S11658422EA0161801662000000000000
B0732513205692S11658403EA0162001662000000000000
B0732553205704S11658339EA0161501657000000000000
B0732593205678S11658261EA0162101669000000000000
B0733033205620S11658208EA0163701684000000000000
B0733073205557S11658231EA0165601705000000000000
B0733113205552S11658287EA0166901715000000000000
B0733153205590S11658299EA0167801725000000000000
B0733193205617S11658249EA0168201724000000000000
B0733233205605S11658169EA0168501736000000000000
B0733273205549S11658109EA0170001751000000000000
B0733313205486S11658132EA0171301762000000000000
B0733353205479S11658199EA0171801767000000000000
B0733393205523S11658208EA0173301786000000000000
B0733433205545S11658144EA0175501806000000000000
B0733473205512S11658063EA0176201813000000000000
B0733513205435S11658027EA0176501817000000000000
B0733553205375S11658073EA0178201833000000000000
B0733593205378S11658145EA0178101824000000000000
B0734033205430S11658162EA0178501838000000000000
B0734073205435S11658086EA0180601854000000000000
B0734113205360S11658048EA0180601844000000000000
B0734153205322S11658125EA0180101840000000000000
B0734193205353S11658203EA0179701843000000000000
B0734233205399S11658266EA0180301849000000000000
B0734273205440S11658312EA0181701866000000000000
B0734313205480S11658331EA0182201870000000000000
B0734353205516S11658301EA0182101867000000000000
B0734393205531S11658235EA0181301857000000000000
B0734433205540S11658166EA0181401861000000000000
B0734473205547S11658097EA0181401859000000000000
B0734513205560S11658030EA0181201856000000000000
B0734553205574S11657965EA0181001855000000000000
B0734593205586S11657898EA0180401843000000000000
B0735033205596S11657827EA0179201834000000000000
B0735073205601S11657753EA0178001816000000000000
B0735113205601S11657675EA0176301800000000000000
B0735153205592S11657595EA0175901799000000000000
B0735193205565S11657521EA0175701799000000000000
B0735233205527S11657452EA0176101805000000000000
B0735273205490S11657384EA0176001797000000000000
B0735313205440S11657319EA0174901787000000000000
B0735353205388S11657257EA0173901777000000000000
B0735393205336S11657195EA0172901768000000000000
B0735433205283S11657134EA0172101758000000000000
B0735473205215S11657116EA0171001746000000000000
B0735513205152S11657144EA0170201737000000000000
B0735553205100S11657191EA0169701737000000000000
B0735593205067S11657250EA0169501733000000000000
B0736033205046S11657312EA0169301734000000000000
B0736073205041S11657372EA0170001743000000000000
B0736113205042S11657428EA0170401743000000000000
B0736153205051S11657484EA0170301741000000000000
B0736193205066S11657538EA0169701733000000000000
B0736233205084S11657597EA0168801726000000000000
B0736273205090S11657659EA0169301737000000000000
B0736313205081S11657720EA0170701749000000000000
B0736353205053S11657779EA0170801749000000000000
B0736393205003S11657826EA0171201756000000000000
B0736433204932S11657833EA0171701757000000000000
B0736473204864S11657789EA0171901762000000000000
B0736513204829S11657718EA0172501765000000000000
B0736553204833S11657645EA0172401762000000000000
B0736593204868S11657593EA0171901756000000000000
B0737033204918S11657579EA0171801759000000000000
B0737073204957S11657607EA0172001760000000000000
B0737113204968S11657666EA0171801756000000000000
B0737153204960S11657731EA0171701757000000000000
B0737193204931S11657794EA0172201764000000000000
B0737233204895S11657853EA0173401777000000000000
B0737273204864S11657909EA0174101780000000000000
B0737313204829S11657967EA0173001763000000000000
B0737353204773S11658019EA0171601754000000000000
B0737393204704S11658044EA0171501755000000000000
B0737433204633S11658045EA0171101748000000000000
B0737473204561S11658026EA0169301726000000000000
B0737513204487S11657992EA0167301708000000000000
B0737553204421S11657936EA0166601701000000000000
B0737593204365S11657871EA0166201701000000000000
B0738033204321S11657798EA0165601689000000000000
B0738073204283S11657718EA0164601684000000000000
B0738113204235S11657645EA0164201680000000000000
B0738153204180S11657576EA0163301668000000000000
B0738193204127S11657502EA0162201656000000000000
B0738233204083S11657424EA0161401649000000000000
B0738273204044S11657343EA0160701640000000000000
B0738313204006S11657264EA0160001634000000000000
B0738353203972S11657182EA0159101623000000000000
B0738393203944S11657100EA0158201617000000000000
B0738433203919S11657020EA0158001612000000000000
B0738473203900S11656940EA0157701615000000000000
B0738513203879S11656862EA0158701626000000000000
B0738553203861S11656786EA0160101641000000000000
B0738593203811S11656728EA0161101649000000000000
B0739033203745S11656737EA0161501651000000000000
B0739073203724S11656799EA0162001660000000000000
B0739113203757S11656834EA0163001675000000000000
B0739153203802S11656815EA0164301689000000000000
B0739193203819S11656750EA0165601700000000000000
B0739233203788S11656676EA0166201705000000000000
B0739273203719S11656641EA0167101713000000000000
B0739313203659S11656675EA0167201710000000000000
B0739353203658S11656734EA0167801719000000000000
B0739393203698S11656739EA0168601731000000000000
B0739433203727S11656687EA0169201734000000000000
B0739473203712S11656606EA0169301738000000000000
B0739513203654S11656544EA0169901745000000000000
B0739553203576S11656524EA0170101743000000000000
B0739593203497S11656531EA0170101747000000000000
B0740033203416S11656544EA0171001756000000000000
B0740073203338S11656555EA0171101753000000000000
B0740113203261S11656561EA0170601747000000000000
B0740153203187S11656565EA0170001741000000000000
B0740193203113S11656563EA0169301733000000000000
B0740233203040S11656565EA0168901730000000000000
B0740273202969S11656572EA0169101734000000000000
B0740313202899S11656585EA0169501737000000000000
B0740353202830S11656593EA0170101745000000000000
B0740393202761S11656605EA0170801752000000000000
B0740433202693S11656620EA0171601759000000000000
B0740473202624S11656643EA0172001765000000000000
B0740513202555S11656663EA0172701772000000000000
B0740553202487S11656676EA0173301776000000000000
B0740593202412S11656675EA0172801767000000000000
B0741033202334S11656661EA0172001759000000000000
B0741073202260S11656643EA0171401754000000000000
B0741113202188S11656626EA0170801749000000000000
B0741153202116S11656611EA0171401761000000000000
B0741193202048S11656601EA0172601769000000000000
B0741233201978S11656587EA0172601764000000000000
B0741273201904S11656570EA0171601753000000000000
B0741313201826S11656562EA0170901751000000000000
B0741353201751S11656557EA0171201753000000000000
B0741393201677S11656554EA0170801749000000000000
B0741433201597S11656553EA0169901738000000000000
B0741473201518S11656540EA0169901741000000000000
B0741513201443S11656526EA0170101740000000000000
B0741553201367S11656515EA0169601736000000000000
B0741593201291S11656506EA0169201732000000000000
B0742033201211S11656496EA0168601724000000000000
B0742073201131S11656483EA0168201723000000000000
B0742113201053S11656471EA0168401725000000000000
B0742153200977S11656466EA0168401724000000000000
B0742193200903S11656464EA0168201718000000000000
B0742233200832S11656461EA0167201710000000000000
B0742273200756S11656449EA0166401699000000000000
B0742313200680S11656433EA0166001702000000000000
B0742353200607S11656416EA0166501704000000000000
B0742393200533S11656401EA0166101697000000000000
B0742433200456S11656393EA0165601696000000000000
B0742473200379S11656386EA0166001701000000000000
B0742513200306S11656377EA0166801708000000000000
B0742553200234S11656366EA0166601701000000000000
B0742593200160S11656359EA0165501691000000000000
B0743033200083S11656355EA0164401681000000000000
B0743073200009S11656355EA0163901679000000000000
B0743113159935S11656358EA0163801678000000000000
B0743153159861S11656357EA0163701674000000000000
B0743193159788S11656355EA0163001667000000000000
B0743233159712S11656353EA0162301661000000000000
B0743273159638S11656351EA0161701655000000000000
B0743313159563S11656353EA0161201649000000000000
B0743353159487S11656353EA0160601643000000000000
B0743393159412S11656340EA0160501641000000000000
B0743433159337S11656331EA0159901638000000000000
B0743473159265S11656328EA0160101640000000000000
B0743513159196S11656327EA0160001636000000000000
B0743553159122S11656328EA0159501627000000000000
B0743593159047S11656332EA0158901627000000000000
B0744033158975S11656342EA0158801622000000000000
B0744073158904S11656354EA0158201612000000000000
B0744113158831S11656362EA0157401609000000000000
B0744153158762S11656372EA0157701613000000000000
B0744193158689S11656385EA0157501608000000000000
B0744233158613S11656394EA0157701614000000000000
B0744273158540S11656406EA0158301618000000000000
B0744313158466S11656415EA0157701608000000000000
B0744353158389S11656428EA0156601598000000000000
B0744393158312S11656437EA0155901594000000000000
B0744433158234S11656438EA0155501591000000000000
B0744473158156S11656435EA0155801593000000000000
B0744513158081S11656433EA0155801593000000000000
B0744553158008S11656436EA0155701590000000000000
B0744593157938S11656446EA0155301586000000000000
B0745033157866S11656461EA0154801584000000000000
B0745073157797S11656477EA0155201589000000000000
B0745113157729S11656493EA0156001601000000000000
B0745153157669S11656511EA0157301613000000000000
B0745193157644S11656557EA0158601623000000000000
B0745233157675S11656580EA0158801623000000000000
B0745273157714S11656545EA0158801622000000000000
B0745313157716S11656467EA0158901625000000000000
B0745353157662S11656406EA0159401630000000000000
B0745393157592S11656399EA0159401631000000000000
B0745433157532S11656427EA0160101642000000000000
B0745473157480S11656464EA0161801661000000000000
B0745513157475S11656514EA0163201670000000000000
B0745553157515S11656509EA0163601674000000000000
B0745593157530S11656444EA0164001679000000000000
B0746033157491S11656372EA0164101684000000000000
B0746073157424S11656354EA0165501700000000000000
B0746113157376S11656389EA0166401706000000000000
B0746153157372S11656445EA0167301715000000000000
B0746193157410S11656470EA0167801721000000000000
B0746233157450S11656433EA0168201724000000000000
B0746273157454S11656357EA0168501726000000000000
B0746313157410S11656286EA0169001735000000000000
B0746353157339S11656269EA0169901743000000000000
B0746393157279S11656303EA0170801757000000000000
B0746433157259S11656360EA0172001766000000000000
B0746473157287S11656398EA0172801776000000000000
B0746513157328S11656379EA0173301775000000000000
B0746553157345S11656307EA0173001772000000000000
B0746593157314S11656228EA0173301778000000000000
B0747033157248S11656186EA0174801797000000000000
B0747073157180S11656195EA0176301810000000000000
B0747113157132S11656240EA0177001812000000000000
B0747153157115S11656302EA0176801810000000000000
B0747193157121S11656364EA0177101816000000000000
B0747233157134S11656420EA0177401816000000000000
B0747273157153S11656472EA0177001811000000000000
B0747313157173S11656522EA0176801810000000000000
B0747353157201S11656566EA0176301801000000000000
B0747393157233S11656610EA0174901786000000000000
B0747433157272S11656650EA0173601774000000000000
B0747473157318S11656689EA0172301761000000000000
B0747513157370S11656724EA0171201748000000000000
B0747553157427S11656745EA0170801747000000000000
B0747593157485S11656760EA0170101741000000000000
B0748033157545S11656771EA0170201746000000000000
B0748073157602S11656779EA0170001744000000000000
B0748113157660S11656789EA0169501736000000000000
B0748153157718S11656812EA0168801728000000000000
B0748193157778S11656832EA0168501728000000000000
B0748233157836S11656845EA0168601735000000000000
B0748273157892S11656852EA0169001737000000000000
B0748313157947S11656854EA0169101740000000000000
B0748353158000S11656854EA0169201738000000000000
B0748393158052S11656853EA0168801732000000000000
B0748433158106S11656857EA0168201727000000000000
B0748473158160S11656861EA0167701723000000000000
B0748513158216S11656857EA0167401720000000000000
B0748553158271S11656852EA0167301718000000000000
B0748593158327S11656845EA0166901714000000000000
B0749033158381S11656844EA0166201707000000000000
B0749073158436S11656853EA0165901702000000000000
B0749113158489S11656864EA0165601699000000000000
B0749153158542S11656874EA0165101695000000000000
B0749193158597S11656883EA0164401686000000000000
B0749233158653S11656895EA0163601679000000000000
B0749273158709S11656906EA0163001672000000000000
B0749313158763S11656921EA0162301665000000000000
B0749353158818S11656934EA0162001663000000000000
B0749393158874S11656940EA0161001649000000000000
B0749433158932S11656944EA0160801649000000000000
B0749473158991S11656942EA0160601645000000000000
B0749513159048S11656936EA0160001639000000000000
B0749553159108S11656932EA0159301633000000000000
B0749593159165S11656932EA0159001629000000000000
B0750033159222S11656936EA0158201620000000000000
B0750073159282S11656943EA0157001610000000000000
B0750113159343S11656947EA0156401605000000000000
B0750153159403S11656949EA0156201605000000000000
B0750193159460S11656949EA0156101602000000000000
B0750233159515S11656953EA0155601595000000000000
B0750273159568S11656961EA0155001589000000000000
B0750313159621S11656969EA0154001580000000000000
B0750353159677S11656977EA0153101570000000000000
B0750393159733S11656984EA0152501564000000000000
B0750433159789S11656992EA0152001557000000000000
B0750473159846S11656996EA0151501552000000000000
B0750513159905S11657000EA0151001547000000000000
B0750553159962S11657004EA0150501544000000000000
B0750593200020S11657009EA0150201540000000000000
B0751033200079S11657013EA0149701536000000000000
B0751073200139S11657018EA0149401532000000000000
B0751113200197S11657023EA0149101531000000000000
B0751153200254S11657031EA0149101531000000000000
B0751193200309S11657042EA0149001530000000000000
B0751233200361S11657051EA0148901528000000000000
B0751273200417S11657060EA0148301519000000000000
B0751313200473S11657070EA0147601514000000000000
B0751353200527S11657083EA0147301510000000000000
B0751393200581S11657098EA0146801505000000000000
B0751433200631S11657116EA0146301499000000000000
B0751473200683S11657137EA0145801493000000000000
B0751513200733S11657161EA0145401491000000000000
B0751553200777S11657191EA0145301488000000000000
B0751593200820S11657222EA0145001484000000000000
B0752033200867S11657247EA0144201476000000000000
B0752073200917S11657270EA0143501467000000000000
B0752113200967S11657293EA0142501458000000000000
B0752153201016S11657317EA0141801449000000000000
B0752193201063S11657345EA0140801438000000000000
B0752233201110S11657374EA0139701431000000000000
B0752273201155S11657400EA0139301426000000000000
B0752313201198S11657429EA0139101423000000000000
B0752353201240S11657456EA0139101426000000000000
B0752393201279S11657477EA0139401430000000000000
B0752433201320S11657489EA0139701433000000000000
B0752473201365S11657495EA0140001439000000000000
B0752513201409S11657501EA0141101446000000000000
B0752553201454S11657494EA0141501452000000000000
B0752593201504S11657477EA0141801456000000000000
B0753033201552S11657452EA0142401463000000000000
B0753073201600S11657420EA0143601475000000000000
B0753113201626S11657352EA0144801488000000000000
B0753153201592S11657274EA0145801497000000000000
B0753193201523S11657244EA0146201500000000000000
B0753233201462S11657267EA0145701493000000000000
B0753273201439S11657321EA0145401490000000000000
B0753313201457S11657369EA0145501494000000000000
B0753353201500S11657390EA0146301501000000000000
B0753393201549S11657376EA0146801507000000000000
B0753433201575S11657311EA0148101526000000000000
B0753473201549S11657233EA0149901542000000000000
B0753513201486S11657196EA0151101555000000000000
B0753553201431S11657213EA0152101564000000000000
B0753593201414S11657252EA0152901570000000000000
B0754033201436S11657281EA0152901567000000000000
B0754073201479S11657276EA0152701568000000000000
B0754113201518S11657230EA0153301580000000000000
B0754153201531S11657152EA0154301587000000000000
B0754193201501S11657074EA0155401597000000000000
B0754233201443S11657029EA0155901602000000000000
B0754273201376S11657027EA0156101602000000000000
B0754313201328S11657062EA0157001611000000000000
B0754353201315S11657105EA0157201612000000000000
B0754393201336S11657142EA0156801604000000000000
B0754433201379S11657163EA0156501602000000000000
B0754473201426S11657166EA0157301618000000000000
B0754513201474S11657164EA0158301623000000000000
B0754553201522S11657153EA0158201622000000000000
B0754593201575S11657142EA0158301622000000000000
B0755033201627S11657127EA0158601625000000000000
B0755073201678S11657113EA0158301621000000000000
B0755113201730S11657101EA0157801615000000000000
B0755153201781S11657090EA0156901605000000000000
B0755193201833S11657078EA0156001595000000000000
B0755233201885S11657066EA0155101584000000000000
B0755273201939S11657059EA0154301579000000000000
B0755313201994S11657051EA0154001579000000000000
B0755353202048S11657039EA0154201580000000000000
B0755393202104S11657029EA0154301579000000000000
B0755433202158S11657030EA0154901590000000000000
B0755473202208S11657027EA0156501607000000000000
B0755513202255S11657014EA0158101622000000000000
B0755553202306S11656995EA0158601625000000000000
B0755593202362S11656975EA0158901632000000000000
B0756033202418S11656966EA0159701641000000000000
B0756073202474S11656962EA0160801653000000000000
B0756113202528S11656953EA0161301655000000000000
B0756153202585S11656939EA0161101650000000000000
B0756193202644S11656914EA0160801646000000000000
B0756233202704S11656893EA0160301643000000000000
B0756273202765S11656875EA0160101633000000000000
B0756313202825S11656851EA0159201629000000000000
B0756353202882S11656819EA0159301631000000000000
B0756393202938S11656792EA0159301630000000000000
B0756433202992S11656760EA0159401632000000000000
B0756473203048S11656731EA0159701637000000000000
B0756513203100S11656701EA0160701648000000000000
B0756553203148S11656674EA0161801659000000000000
B0756593203195S11656649EA0161901661000000000000
B0757033203244S11656632EA0162201664000000000000
B0757073203295S11656622EA0162301662000000000000
B0757113203351S11656602EA0161501650000000000000
B0757153203411S11656583EA0160601640000000000000
B0757193203471S11656557EA0160101639000000000000
B0757233203527S11656522EA0160501645000000000000
B0757273203579S11656490EA0160801646000000000000
B0757313203629S11656458EA0160801643000000000000
B0757353203680S11656416EA0159501628000000000000
B0757393203736S11656368EA0158701624000000000000
B0757433203789S11656323EA0159101630000000000000
B0757473203837S11656281EA0159101626000000000000
B0757513203892S11656243EA0158201608000000000000
B0757553203953S11656204EA0156701599000000000000
B0757593204013S11656165EA0156501599000000000000
B0758033204070S11656132EA0156001594000000000000
B0758073204127S11656098EA0155201585000000000000
B0758113204183S11656059EA0154701578000000000000
B0758153204238S11656016EA0153901570000000000000
B0758193204294S11655973EA0153501567000000000000
B0758233204348S11655934EA0152801559000000000000
B0758273204401S11655896EA0152001552000000000000
B0758313204457S11655863EA0151001541000000000000
B0758353204513S11655829EA0150501538000000000000
B0758393204568S11655798EA0150301536000000000000
B0758433204624S11655769EA0149901530000000000000
B0758473204680S11655743EA0149201524000000000000
B0758513204734S11655721EA0149101526000000000000
B0758553204784S11655697EA0149201529000000000000
B0758593204832S11655675EA0149101524000000000000
B0759033204882S11655651EA0148801524000000000000
B0759073204928S11655623EA0149201531000000000000
B0759113204972S11655601EA0149901536000000000000
B0759153205018S11655586EA0150501545000000000000
B0759193205061S11655556EA0151801560000000000000
B0759233205076S11655492EA0153501578000000000000
B0759273205048S11655426EA0155001589000000000000
B0759313204984S11655393EA0156101599000000000000
B0759353204918S11655406EA0157001608000000000000
B0759393204879S11655452EA0158101619000000000000
B0759433204875S11655502EA0159001624000000000000
B0759473204901S11655532EA0159801633000000000000
B0759513204940S11655523EA0160501644000000000000
B0759553204960S11655471EA0161401655000000000000
B0759593204934S11655402EA0162501667000000000000
B0800033204869S11655370EA0163801679000000000000
B0800073204803S11655385EA0164701688000000000000
B0800113204764S11655436EA0165301692000000000000
B0800153204762S11655491EA0165801695000000000000
B0800193204793S11655523EA0165101687000000000000
B0800233204840S11655528EA0164601681000000000000
B0800273204893S11655523EA0164201684000000000000
B0800313204946S11655515EA0164401683000000000000
B0800353205002S11655504EA0164501688000000000000
B0800393205057S11655491EA0165101693000000000000
B0800433205113S11655486EA0165901701000000000000
B0800473205168S11655483EA0166301704000000000000
B0800513205226S11655482EA0166401703000000000000
B0800553205287S11655483EA0165701694000000000000
B0800593205348S11655480EA0165301688000000000000
B0801033205408S11655478EA0164701680000000000000
B0801073205466S11655478EA0163901675000000000000
B0801113205522S11655480EA0163701672000000000000
B0801153205577S11655489EA0162901659000000000000
B0801193205635S11655497EA0161801651000000000000
B0801233205691S11655508EA0161501648000000000000
B0801273205746S11655515EA0161301650000000000000
B0801313205799S11655521EA0161401648000000000000
B0801353205854S11655525EA0160801640000000000000
B0801393205909S11655532EA0160201634000000000000
B0801433205969S11655538EA0159301625000000000000
B0801473206030S11655541EA0158401614000000000000
B0801513206093S11655551EA0157201603000000000000
B0801553206153S11655557EA0157301607000000000000
B0801593206210S11655564EA0157001603000000000000
B0802033206266S11655580EA0155901590000000000000
B0802073206316S11655626EA0154601577000000000000
B0802113206350S11655696EA0154001572000000000000
B0802153206376S11655770EA0153801572000000000000
B0802193206397S11655844EA0154001573000000000000
B0802233206416S11655917EA0153801572000000000000
B0802273206431S11655990EA0154101574000000000000
B0802313206444S11656061EA0153701569000000000000
B0802353206459S11656133EA0153101562000000000000
B0802393206476S11656204EA0152401555000000000000
B0802433206496S11656275EA0151601548000000000000
B0802473206515S11656345EA0151101541000000000000
B0802513206532S11656415EA0150801542000000000000
B0802553206546S11656480EA0150901542000000000000
B0802593206559S11656544EA0150401533000000000000
B0803033206575S11656610EA0149201518000000000000
B0803073206596S11656679EA0148001509000000000000
B0803113206614S11656747EA0147601506000000000000
B0803153206634S11656808EA0147501506000000000000
B0803193206653S11656866EA0147701512000000000000
B0803233206674S11656918EA0148501521000000000000
B0803273206695S11656969EA0148801517000000000000
B0803313206712S11657025EA0148201513000000000000
B0803353206731S11657082EA0147701507000000000000
B0803393206752S11657139EA0147801512000000000000
B0803433206773S11657194EA0148401516000000000000
B0803473206795S11657247EA0148501517000000000000
B0803513206830S11657287EA0149301525000000000000
B0803553206879S11657276EA0150401538000000000000
B0803593206901S11657211EA0150701539000000000000
B0804033206884S11657130EA0150601538000000000000
B0804073206835S11657066EA0150401533000000000000
B0804113206767S11657048EA0150401537000000000000
B0804153206708S11657070EA0150701541000000000000
B0804193206666S11657114EA0151101544000000000000
B0804233206639S11657169EA0151301547000000000000
B0804273206613S11657220EA0151701550000000000000
B0804313206587S11657281EA0150701539000000000000
B0804353206563S11657350EA0150301537000000000000
B0804393206539S11657404EA0151201555000000000000
B0804433206513S11657450EA0152501558000000000000
B0804473206487S11657499EA0152001549000000000000
B0804513206463S11657558EA0151101544000000000000
B0804553206446S11657618EA0151401543000000000000
B0804593206429S11657675EA0151901550000000000000
B0805033206413S11657727EA0152001550000000000000
B0805073206393S11657777EA0151401543000000000000
B0805113206357S11657828EA0150901537000000000000
B0805153206328S11657885EA0150601535000000000000
B0805193206315S11657949EA0150101534000000000000
B0805233206319S11658009EA0149801527000000000000
B0805273206338S11658063EA0148901516000000000000
B0805313206379S11658102EA0147701506000000000000
B0805353206431S11658118EA0147701512000000000000
B0805393206481S11658117EA0148201515000000000000
B0805433206533S11658113EA0148101513000000000000
B0805473206585S11658106EA0148201515000000000000
B0805513206637S11658100EA0147901511000000000000
B0805553206693S11658091EA0147401502000000000000
B0805593206751S11658083EA0146701498000000000000
B0806033206808S11658082EA0146301490000000000000
B0806073206866S11658078EA0145201479000000000000
B0806113206925S11658071EA0144501471000000000000
B0806153206983S11658065EA0143401462000000000000
B0806193207040S11658054EA0142401452000000000000
B0806233207098S11658039EA0141101438000000000000
B0806273207156S11658031EA0140401430000000000000
B0806313207212S11658026EA0140101428000000000000
B0806353207267S11658014EA0139801423000000000000
B0806393207323S11658004EA0138901413000000000000
B0806433207381S11657997EA0138201410000000000000
B0806473207437S11657993EA0137901407000000000000
B0806513207490S11657992EA0137601402000000000000
B0806553207547S11657991EA0136701393000000000000
B0806593207609S11657985EA0136101386000000000000
B0807033207671S11657976EA0135501381000000000000
B0807073207733S11657966EA0135301378000000000000
B0807113207794S11657956EA0135101377000000000000
B0807153207857S11657940EA0134801376000000000000
B0807193207918S11657920EA0134801374000000000000
B0807233207979S11657902EA0134501373000000000000
B0807273208040S11657888EA0134801377000000000000
B0807313208100S11657874EA0135401383000000000000
B0807353208158S11657854EA0135701388000000000000
B0807393208213S11657827EA0136401395000000000000
B0807433208256S11657775EA0137301403000000000000
B0807473208273S11657698EA0138701421000000000000
B0807513208257S11657619EA0140401437000000000000
B0807553208208S11657564EA0141701450000000000000
B0807593208147S11657576EA0142801459000000000000
B0808033208126S11657627EA0143701468000000000000
B0808073208151S11657663EA0144201471000000000000
B0808113208200S11657658EA0145001482000000000000
B0808153208236S11657603EA0145901492000000000000
B0808193208234S11657521EA0145801486000000000000
B0808233208191S11657446EA0146401501000000000000
B0808273208123S11657432EA0147801515000000000000
B0808313208079S11657471EA0149101526000000000000
B0808353208084S11657520EA0149701530000000000000
B0808393208134S11657525EA0150301540000000000000
B0808433208166S11657463EA0151501553000000000000
B0808473208149S11657382EA0152301558000000000000
B0808513208087S11657345EA0153101568000000000000
B0808553208036S11657377EA0153901580000000000000
B0808593208032S11657425EA0155401592000000000000
B0809033208073S11657434EA0155901595000000000000
B0809073208108S11657377EA0156301601000000000000
B0809113208096S11657296EA0156901605000000000000
B0809153208041S11657242EA0157501615000000000000
B0809193207976S11657243EA0158401622000000000000
B0809233207943S11657289EA0159501635000000000000
B0809273207957S11657330EA0160301642000000000000
B0809313208000S11657342EA0160701645000000000000
B0809353208041S11657298EA0161301652000000000000
B0809393208036S11657218EA0161401651000000000000
B0809433207980S11657160EA0161601655000000000000
B0809473207914S11657170EA0161901656000000000000
B0809513207879S11657226EA0162301663000000000000
B0809553207883S11657283EA0163101669000000000000
B0809593207921S11657321EA0163401672000000000000
B0810033207974S11657324EA0163801678000000000000
B0810073208028S11657304EA0164201680000000000000
B0810113208086S11657274EA0163701675000000000000
B0810153208142S11657235EA0163101666000000000000
B0810193208199S11657186EA0162401659000000000000
B0810233208255S11657139EA0161701652000000000000
B0810273208309S11657098EA0161201646000000000000
B0810313208364S11657060EA0160401638000000000000
B0810353208422S11657027EA0159701631000000000000
B0810393208482S11656999EA0159001624000000000000
B0810433208545S11656977EA0158201614000000000000
B0810473208610S11656975EA0157101600000000000000
B0810513208678S11656987EA0156201594000000000000
B0810553208743S11657001EA0156501603000000000000
B0810593208799S11657021EA0157801617000000000000
B0811033208850S11657046EA0158701624000000000000
B0811073208898S11657078EA0158901624000000000000
B0811113208942S11657117EA0158001612000000000000
B0811153208984S11657164EA0157001602000000000000
B0811193209019S11657217EA0156201594000000000000
B0811233209054S11657274EA0155601586000000000000
B0811273209089S11657337EA0154801581000000000000
B0811313209123S11657398EA0154301574000000000000
B0811353209156S11657462EA0153701570000000000000
B0811393209185S11657524EA0153701570000000000000
B0811433209218S11657580EA0153001561000000000000
B0811473209257S11657632EA0152001552000000000000
B0811513209297S11657679EA0151101545000000000000
B0811553209334S11657728EA0151001543000000000000
B0811593209358S11657781EA0150901541000000000000
B0812033209379S11657839EA0150201527000000000000
B0812073209401S11657898EA0148901516000000000000
B0812113209426S11657958EA0148301514000000000000
B0812153209451S11658014EA0148201512000000000000
B0812193209477S11658067EA0147701506000000000000
B0812233209504S11658125EA0146801497000000000000
B0812273209531S11658183EA0146501496000000000000
B0812313209559S11658238EA0146401494000000000000
B0812353209582S11658292EA0146101490000000000000
B0812393209605S11658347EA0145701484000000000000
B0812433209630S11658403EA0144901477000000000000
B0812473209652S11658461EA0144601476000000000000
B0812513209687S11658507EA0144801479000000000000
B0812553209726S11658548EA0144401473000000000000
B0812593209767S11658593EA0143901470000000000000
B0813033209809S11658630EA0144501478000000000000
B0813073209851S11658664EA0144801477000000000000
B0813113209891S11658698EA0144301472000000000000
B0813153209936S11658728EA0143701466000000000000
B0813193209977S11658765EA0143601467000000000000
B0813233210024S11658803EA0143801469000000000000
B0813273210072S11658840EA0144501482000000000000
B0813313210118S11658879EA0145701492000000000000
B0813353210160S11658923EA0146201495000000000000
B0813393210202S11658971EA0146001491000000000000
B0813433210248S11659010EA0146001493000000000000
B0813473210301S11659036EA0146001491000000000000
B0813513210357S11659055EA0146001491000000000000
B0813553210411S11659075EA0146401500000000000000
B0813593210467S11659090EA0147501511000000000000
B0814033210523S11659103EA0149201533000000000000
B0814073210580S11659105EA0150601542000000000000
B0814113210640S11659110EA0150801546000000000000
B0814153210699S11659124EA0151501554000000000000
B0814193210756S11659142EA0151901558000000000000
B0814233210814S11659161EA0153001572000000000000
B0814273210873S11659170EA0154901588000000000000
B0814313210918S11659120EA0156201604000000000000
B0814353210904S11659035EA0157201607000000000000
B0814393210840S11658977EA0157101610000000000000
B0814433210764S11658955EA0157901616000000000000
B0814473210695S11658964EA0158401623000000000000
B0814513210641S11659003EA0159101630000000000000
B0814553210615S11659063EA0159401634000000000000
B0814593210628S11659122EA0160601650000000000000
B0815033210675S11659131EA0162501670000000000000
B0815073210687S11659058EA0163901680000000000000
B0815113210630S11659002EA0164801691000000000000
B0815153210569S11659027EA0166301706000000000000
B0815193210554S11659088EA0167501718000000000000
B0815233210591S11659129EA0168501728000000000000
B0815273210644S11659098EA0170001744000000000000
B0815313210649S11659010EA0171001754000000000000
B0815353210596S11658933EA0172201767000000000000
B0815393210519S11658915EA0173501785000000000000
B0815433210458S11658950EA0175101800000000000000
B0815473210444S11659012EA0176501808000000000000
B0815513210480S11659059EA0177101818000000000000
B0815553210536S11659040EA0178601831000000000000
B0815593210547S11658955EA0179601842000000000000
B0816033210492S11658876EA0179301831000000000000
B0816073210400S11658884EA0178001818000000000000
B0816113210335S11658966EA0177001810000000000000
B0816153210297S11659067EA0176901814000000000000
B0816193210281S11659171EA0177301817000000000000
B0816233210285S11659267EA0178401831000000000000
B0816273210301S11659354EA0179401845000000000000
B0816313210318S11659434EA0180701852000000000000
B0816353210339S11659510EA0180801849000000000000
B0816393210363S11659588EA0180401843000000000000
B0816433210392S11659660EA0180201843000000000000
B0816473210420S11659726EA0179501830000000000000
B0816513210449S11659790EA0178801829000000000000
B0816553210479S11659847EA0178901830000000000000
B0816593210509S11659906EA0178801830000000000000
B0817033210537S11659963EA0179301837000000000000
B0817073210570S11700012EA0179801839000000000000
B0817113210608S11700055EA0179801839000000000000
B0817153210653S11700088EA0179201828000000000000
B0817193210709S11700114EA0177501809000000000000
B0817233210770S11700137EA0176301800000000000000
B0817273210834S11700155EA0175501792000000000000
B0817313210900S11700166EA0174301780000000000000
B0817353210969S11700172EA0173701775000000000000
B0817393211035S11700162EA0173701776000000000000
B0817433211095S11700123EA0173901781000000000000
B0817473211148S11700075EA0174201782000000000000
B0817513211198S11700023EA0174001780000000000000
B0817553211245S11659963EA0173801778000000000000
B0817593211289S11659902EA0173601775000000000000
B0818033211329S11659838EA0173801776000000000000
B0818073211368S11659774EA0173301772000000000000
B0818113211405S11659708EA0172901768000000000000
B0818153211440S11659639EA0172901767000000000000
B0818193211472S11659573EA0172901767000000000000
B0818233211503S11659509EA0172801764000000000000
B0818273211538S11659447EA0172001753000000000000
B0818313211584S11659391EA0170801742000000000000
B0818353211636S11659349EA0170101735000000000000
B0818393211693S11659324EA0169201725000000000000
B0818433211752S11659311EA0168801724000000000000
B0818473211808S11659292EA0168401718000000000000
B0818513211863S11659267EA0167801710000000000000
B0818553211921S11659243EA0166901701000000000000
B0818593211978S11659217EA0166301698000000000000
B0819033212031S11659189EA0166501703000000000000
B0819073212077S11659153EA0166301698000000000000
B0819113212127S11659114EA0165301687000000000000
B0819153212182S11659070EA0164001675000000000000
B0819193212240S11659028EA0164001673000000000000
B0819233212296S11658990EA0164701685000000000000
B0819273212350S11658962EA0165501691000000000000
B0819313212407S11658941EA0165901698000000000000
B0819353212465S11658916EA0166801707000000000000
B0819393212500S11658853EA0168501730000000000000
B0819433212495S11658769EA0169701731000000000000
B0819473212445S11658691EA0169301726000000000000
B0819513212369S11658647EA0169901734000000000000
B0819553212295S11658648EA0170001735000000000000
B0819593212247S11658693EA0169601729000000000000
B0820033212246S11658756EA0168901727000000000000
B0820073212287S11658797EA0169301733000000000000
B0820113212343S11658814EA0170101744000000000000
B0820153212402S11658817EA0171101754000000000000
B0820193212464S11658815EA0172101763000000000000
B0820233212530S11658803EA0172601764000000000000
B0820273212597S11658788EA0172501764000000000000
B0820313212664S11658772EA0172001760000000000000
B0820353212728S11658755EA0172201763000000000000
B0820393212789S11658737EA0171601751000000000000
B0820433212853S11658716EA0170801746000000000000
B0820473212913S11658717EA0170901751000000000000
B0820513212959S11658745EA0171701758000000000000
B0820553212996S11658785EA0171801757000000000000
B0820593213023S11658832EA0171601756000000000000
B0821033213048S11658879EA0171301751000000000000
B0821073213070S11658929EA0170601744000000000000
B0821113213093S11658981EA0169701736000000000000
B0821153213114S11659036EA0168701725000000000000
B0821193213127S11659100EA0167901715000000000000
B0821233213135S11659166EA0167401710000000000000
B0821273213141S11659231EA0166801705000000000000
B0821313213156S11659291EA0166601701000000000000
B0821353213183S11659344EA0165701690000000000000
B0821393213223S11659388EA0164801682000000000000
B0821433213270S11659421EA0164201677000000000000
B0821473213321S11659439EA0163801674000000000000
B0821513213377S11659427EA0163301664000000000000
B0821553213430S11659379EA0162201654000000000000
B0821593213470S11659308EA0161101643000000000000
B0822033213504S11659224EA0160301641000000000000
B0822073213534S11659142EA0160101639000000000000
B0822113213563S11659061EA0160101639000000000000
B0822153213586S11658980EA0160101637000000000000
B0822193213608S11658902EA0159801634000000000000
B0822233213630S11658825EA0159301629000000000000
B0822273213656S11658746EA0158701618000000000000
B0822313213689S11658665EA0157701610000000000000
B0822353213722S11658587EA0157401609000000000000
B0822393213754S11658512EA0157101604000000000000
B0822433213786S11658439EA0156301597000000000000
B0822473213821S11658370EA0156201597000000000000
B0822513213854S11658301EA0156001595000000000000
B0822553213885S11658231EA0155501587000000000000
B0822593213919S11658162EA0154701577000000000000
B0823033213959S11658095EA0153701569000000000000
B0823073214006S11658034EA0153401567000000000000
B0823113214049S11657971EA0153501572000000000000
B0823153214088S11657910EA0153401566000000000000
B0823193214127S11657846EA0152801561000000000000
B0823233214171S11657788EA0152701562000000000000
B0823273214222S11657741EA0152501557000000000000
B0823313214278S11657702EA0152001552000000000000
B0823353214335S11657666EA0151601547000000000000
B0823393214393S11657629EA0151201544000000000000
B0823433214453S11657598EA0150701536000000000000
B0823473214517S11657577EA0149901526000000000000
B0823513214580S11657554EA0148901516000000000000
B0823553214643S11657529EA0148201510000000000000
B0823593214700S11657499EA0148201514000000000000
B0824033214751S11657469EA0148901520000000000000
B0824073214800S11657446EA0148901516000000000000
B0824113214852S11657426EA0148101508000000000000
B0824153214904S11657393EA0147701506000000000000
B0824193214952S11657356EA0147301499000000000000
B0824233215006S11657324EA0146401490000000000000
B0824273215061S11657290EA0146101490000000000000
B0824313215108S11657242EA0146501495000000000000
B0824353215152S11657190EA0147601509000000000000
B0824393215188S11657129EA0148701522000000000000
B0824433215182S11657051EA0149301525000000000000
B0824473215128S11656992EA0149501527000000000000
B0824513215059S11656991EA0150101532000000000000
B0824553215007S11657038EA0150101531000000000000
B0824593214989S11657103EA0149801528000000000000
B0825033215009S11657166EA0149601528000000000000
B0825073215061S11657196EA0150001532000000000000
B0825113215120S11657176EA0150201537000000000000
B0825153215154S11657105EA0150201538000000000000
B0825193215150S11657018EA0150301541000000000000
B0825233215112S11656944EA0150901547000000000000
B0825273215050S11656908EA0151401550000000000000
B0825313214987S11656926EA0151401552000000000000
B0825353214957S11656981EA0152001560000000000000
B0825393214969S11657036EA0152201559000000000000
B0825433215011S11657072EA0152701566000000000000
B0825473215061S11657079EA0153401572000000000000
B0825513215113S11657064EA0153401569000000000000
B0825553215163S11657035EA0152801567000000000000
B0825593215211S11657001EA0152501559000000000000
B0826033215256S11656956EA0151601552000000000000
B0826073215297S11656896EA0151501550000000000000
B0826113215331S11656827EA0151601552000000000000
B0826153215363S11656757EA0152401562000000000000
B0826193215397S11656688EA0153301574000000000000
B0826233215429S11656620EA0153901578000000000000
B0826273215459S11656549EA0154201579000000000000
B0826313215493S11656476EA0154501585000000000000
B0826353215531S11656411EA0155101587000000000000
B0826393215572S11656353EA0154601583000000000000
B0826433215615S11656297EA0154401577000000000000
B0826473215659S11656238EA0154401583000000000000
B0826513215695S11656180EA0155501594000000000000
B0826553215727S11656123EA0156401601000000000000
B0826593215760S11656067EA0156701604000000000000
B0827033215804S11656024EA0157401610000000000000
B0827073215853S11655991EA0157901617000000000000
B0827113215904S11655961EA0158501621000000000000
B0827153215931S11655898EA0159401631000000000000
B0827193215899S11655824EA0160201640000000000000
B0827233215836S11655790EA0159801628000000000000
B0827273215773S11655812EA0158701620000000000000
B0827313215743S11655869EA0158001613000000000000
B0827353215739S11655937EA0157801616000000000000
B0827393215756S11655998EA0158901627000000000000
B0827433215801S11656030EA0159301631000000000000
B0827473215858S11656035EA0159901636000000000000
B0827513215917S11656025EA0160501643000000000000
B0827553215966S11655970EA0161101651000000000000
B0827593215969S11655885EA0162301665000000000000
B0828033215918S11655825EA0163401672000000000000
B0828073215851S11655825EA0163901678000000000000
B0828113215812S11655873EA0164501685000000000000
B0828153215817S11655933EA0164801690000000000000
B0828193215858S11655969EA0165301695000000000000
B0828233215916S11655964EA0165601698000000000000
B0828273215971S11655924EA0165701695000000000000
B0828313216004S11655847EA0165101689000000000000
B0828353215990S11655760EA0165601699000000000000
B0828393215932S11655704EA0165701698000000000000
B0828433215861S11655697EA0165601697000000000000
B0828473215795S11655727EA0165501698000000000000
B0828513215741S11655778EA0165901705000000000000
B0828553215697S11655837EA0166701712000000000000
B0828593215663S11655902EA0167301717000000000000
B0829033215643S11655970EA0167601722000000000000
B0829073215636S11656038EA0169101738000000000000
B0829113215669S11656085EA0171001759000000000000
B0829153215724S11656068EA0172401772000000000000
B0829193215747S11655991EA0173801789000000000000
B0829233215708S11655924EA0174601794000000000000
B0829273215644S11655922EA0175101803000000000000
B0829313215604S11655967EA0176301817000000000000
B0829353215607S11656019EA0178301841000000000000
B0829393215645S11656046EA0179901850000000000000
B0829433215698S11656069EA0179601845000000000000
B0829473215760S11656093EA0179601847000000000000
B0829513215822S11656117EA0179101833000000000000
B0829553215888S11656142EA0177501818000000000000
B0829593215956S11656160EA0176801809000000000000
B0830033216027S11656176EA0175601800000000000000
B0830073216099S11656188EA0175001792000000000000
B0830113216172S11656198EA0174401784000000000000
B0830153216242S11656203EA0174301784000000000000
B0830193216311S11656204EA0173701774000000000000
B0830233216382S11656207EA0172801764000000000000
B0830273216452S11656214EA0172401764000000000000
B0830313216520S11656215EA0172501766000000000000
B0830353216585S11656211EA0172501763000000000000
B0830393216650S11656208EA0172001757000000000000
B0830433216714S11656210EA0171801757000000000000
B0830473216775S11656216EA0171601753000000000000
B0830513216836S11656228EA0170901747000000000000
B0830553216897S11656241EA0170801746000000000000
B0830593216954S11656262EA0170701744000000000000
B0831033217010S11656286EA0170401739000000000000
B0831073217065S11656306EA0170101737000000000000
B0831113217118S11656325EA0169501729000000000000
B0831153217175S11656345EA0168501719000000000000
B0831193217235S11656359EA0167401711000000000000
B0831233217295S11656367EA0167101708000000000000
B0831273217356S11656370EA0166401699000000000000
B0831313217417S11656375EA0166101696000000000000
B0831353217479S11656380EA0165601689000000000000
B0831393217542S11656389EA0165201689000000000000
B0831433217602S11656398EA0165001685000000000000
B0831473217660S11656409EA0165101689000000000000
B0831513217719S11656419EA0165101686000000000000
B0831553217777S11656436EA0164701680000000000000
B0831593217833S11656459EA0164101674000000000000
B0832033217889S11656489EA0163101662000000000000
B0832073217945S11656523EA0162201654000000000000
B0832113217997S11656562EA0161901652000000000000
B0832153218044S11656609EA0161701647000000000000
B0832193218090S11656659EA0161101643000000000000
B0832233218135S11656705EA0160701640000000000000
B0832273218179S11656749EA0160101633000000000000
B0832313218228S11656787EA0159301623000000000000
B0832353218284S11656812EA0158001611000000000000
B0832393218343S11656835EA0156301594000000000000
B0832433218396S11656875EA0155301582000000000000
B0832473218443S11656923EA0154701577000000000000
B0832513218483S11656971EA0154001570000000000000
B0832553218522S11657020EA0153401564000000000000
B0832593218557S11657070EA0152901561000000000000
B0833033218587S11657121EA0153001562000000000000
B0833073218622S11657164EA0153101563000000000000
B0833113218668S11657176EA0153201566000000000000
B0833153218716S11657166EA0152701560000000000000
B0833193218765S11657155EA0152301551000000000000
B0833233218813S11657125EA0151801552000000000000
B0833273218860S11657086EA0151701549000000000000
B0833313218907S11657039EA0151301542000000000000
B0833353218948S11656982EA0150801537000000000000
B0833393218989S11656917EA0150401538000000000000
B0833433219028S11656848EA0150401535000000000000
B0833473219065S11656779EA0150501535000000000000
B0833513219102S11656713EA0150601539000000000000
B0833553219137S11656646EA0150901543000000000000
B0833593219167S11656579EA0151501551000000000000
B0834033219184S11656506EA0152201557000000000000
B0834073219192S11656431EA0152501561000000000000
B0834113219202S11656357EA0153201567000000000000
B0834153219195S11656281EA0154001575000000000000
B0834193219141S11656232EA0154001570000000000000
B0834233219068S11656219EA0152601554000000000000
B0834273218987S11656203EA0151801543000000000000
B0834313218904S11656182EA0150401527000000000000
B0834353218818S11656165EA0149901530000000000000
B0834393218735S11656163EA0150501538000000000000
B0834433218652S11656172EA0150201531000000000000
B0834473218568S11656175EA0149901532000000000000
B0834513218483S11656172EA0149901528000000000000
B0834553218399S11656165EA0149501526000000000000
B0834593218313S11656163EA0148901518000000000000
B0835033218226S11656162EA0148101509000000000000
B0835073218137S11656162EA0147201501000000000000
B0835113218050S11656162EA0146801497000000000000
B0835153217963S11656160EA0146501494000000000000
B0835193217876S11656155EA0145901488000000000000
B0835233217788S11656147EA0145401482000000000000
B0835273217699S11656138EA0144301472000000000000
B0835313217612S11656128EA0143701463000000000000
B0835353217525S11656119EA0142901454000000000000
B0835393217438S11656111EA0142101451000000000000
B0835433217353S11656100EA0142001449000000000000
B0835473217271S11656087EA0141501440000000000000
B0835513217188S11656073EA0140601434000000000000
B0835553217104S11656060EA0140101428000000000000
B0835593217022S11656048EA0139901428000000000000
B0836033216940S11656038EA0139701426000000000000
B0836073216859S11656028EA0139801429000000000000
B0836113216783S11656026EA0140001431000000000000
B0836153216707S11656025EA0139701424000000000000
B0836193216628S11656025EA0139001419000000000000
B0836233216549S11656022EA0138701416000000000000
B0836273216472S11656019EA0138601418000000000000
B0836313216397S11656011EA0138601415000000000000
B0836353216321S11656002EA0138001406000000000000
B0836393216244S11655986EA0136901397000000000000
B0836433216165S11655965EA0135801385000000000000
B0836473216082S11655946EA0134801375000000000000
B0836513215999S11655929EA0134201371000000000000
B0836553215917S11655912EA0134001369000000000000
B0836593215836S11655891EA0133701365000000000000
B0837033215757S11655868EA0133301360000000000000
B0837073215676S11655844EA0132801355000000000000
B0837113215598S11655816EA0132301349000000000000
B0837153215520S11655786EA0131601342000000000000
B0837193215442S11655753EA0130901334000000000000
B0837233215364S11655725EA0130101325000000000000
B0837273215281S11655704EA0129401317000000000000
B0837313215199S11655688EA0128701312000000000000
B0837353215117S11655678EA0128301307000000000000
B0837393215035S11655675EA0127501299000000000000
B0837433214951S11655679EA0126801291000000000000
B0837473214866S11655686EA0126501292000000000000
B0837513214785S11655695EA0126801295000000000000
B0837553214712S11655718EA0127701305000000000000
B0837593214669S11655769EA0128801318000000000000
B0838033214678S11655820EA0129101314000000000000
B0838073214725S11655818EA0128301308000000000000
B0838113214759S11655755EA0128001308000000000000
B0838153214748S11655671EA0128201308000000000000
B0838193214712S11655591EA0127901305000000000000
B0838233214664S11655517EA0128001308000000000000
B0838273214609S11655445EA0128701315000000000000
B0838313214551S11655380EA0129401321000000000000
B0838353214480S11655333EA0129401316000000000000
B0838393214408S11655289EA0128201299000000000000
B0838433214330S11655253EA0127001288000000000000
B0838473214248S11655240EA0125901276000000000000
B0838513214166S11655255EA0125101270000000000000
B0838553214092S11655284EA0124601265000000000000
B0838593214020S11655313EA0124501267000000000000
B0839033213951S11655340EA0124001260000000000000
B0839073213881S11655369EA0123201251000000000000
B0839113213813S11655398EA0122301241000000000000
B0839153213746S11655431EA0121901240000000000000
B0839193213678S11655466EA0121101227000000000000
B0839233213604S11655500EA0120001217000000000000
B0839273213526S11655530EA0119401214000000000000
B0839313213449S11655561EA0118701207000000000000
B0839353213373S11655590EA0117801199000000000000
B0839393213295S11655617EA0117601194000000000000
B0839433213217S11655648EA0116901189000000000000
B0839473213139S11655679EA0116501185000000000000
B0839513213063S11655712EA0116301182000000000000
B0839553212988S11655744EA0116401186000000000000
B0839593212915S11655777EA0116901192000000000000
B0840033212846S11655811EA0117101193000000000000
B0840073212780S11655848EA0116901191000000000000
B0840113212712S11655887EA0116601184000000000000
B0840153212643S11655926EA0115701176000000000000
B0840193212576S11655967EA0115201173000000000000
B0840233212507S11656004EA0114801166000000000000
B0840273212437S11656042EA0114101160000000000000
B0840313212367S11656080EA0113301154000000000000
B0840353212296S11656115EA0113101149000000000000
B0840393212224S11656147EA0112301142000000000000
B0840433212149S11656177EA0111601135000000000000
B0840473212074S11656204EA0111001128000000000000
B0840513211997S11656232EA0110601123000000000000
B0840553211922S11656258EA0110201122000000000000
B0840593211848S11656286EA0110201120000000000000
B0841033211776S11656314EA0110001120000000000000
B0841073211707S11656344EA0109901119000000000000
B0841113211636S11656370EA0109401112000000000000
B0841153211564S11656396EA0108601103000000000000
B0841193211490S11656422EA0107901096000000000000
B0841233211415S11656446EA0107601093000000000000
B0841273211340S11656472EA0107401090000000000000
B0841313211265S11656498EA0106701083000000000000
B0841353211193S11656523EA0106201076000000000000
B0841393211119S11656546EA0105401068000000000000
B0841433211043S11656567EA0104901063000000000000
B0841473210966S11656584EA0104501060000000000000
B0841513210891S11656601EA0104401060000000000000
B0841553210817S11656619EA0104301059000000000000
B0841593210745S11656640EA0104101055000000000000
B0842033210671S11656662EA0103301048000000000000
B0842073210596S11656679EA0103101048000000000000
B0842113210522S11656697EA0103201047000000000000
B0842153210448S11656722EA0103201050000000000000
B0842193210393S11656766EA0104601071000000000000
B0842233210396S11656822EA0106801091000000000000
B0842273210435S11656841EA0107401091000000000000
B0842313210476S11656800EA0107201090000000000000
B0842353210474S11656723EA0107001085000000000000
B0842393210427S11656658EA0106501083000000000000
B0842433210366S11656611EA0106901089000000000000
B0842473210298S11656600EA0107501095000000000000
B0842513210267S11656650EA0107701096000000000000
B0842553210300S11656680EA0109001114000000000000
B0842593210336S11656639EA0110401126000000000000
B0843033210332S11656565EA0111201137000000000000
B0843073210289S11656505EA0112001144000000000000
B0843113210225S11656483EA0112401145000000000000
B0843153210176S11656516EA0113001154000000000000
B0843193210180S11656570EA0113301154000000000000
B0843233210225S11656578EA0113601162000000000000
B0843273210262S11656522EA0114501173000000000000
B0843313210255S11656442EA0115501181000000000000
B0843353210206S11656381EA0115801183000000000000
B0843393210137S11656370EA0116401189000000000000
B0843433210085S11656410EA0116901195000000000000
B0843473210076S11656468EA0117401203000000000000
B0843513210107S11656503EA0117801210000000000000
B0843553210147S11656474EA0118701217000000000000
B0843593210140S11656401EA0119101222000000000000
B0844033210081S11656355EA0119401223000000000000
B0844073210015S11656375EA0119601226000000000000
B0844113209988S11656433EA0120201233000000000000
B0844153210006S11656483EA0120801238000000000000
B0844193210049S11656484EA0121101238000000000000
B0844233210077S11656424EA0120701234000000000000
B0844273210060S11656342EA0120901239000000000000
B0844313210010S11656271EA0121401244000000000000
B0844353209946S11656207EA0121601249000000000000
B0844393209882S11656149EA0122501257000000000000
B0844433209819S11656091EA0122901259000000000000
B0844473209750S11656034EA0122901260000000000000
B0844513209681S11655982EA0123301262000000000000
B0844553209612S11655930EA0123601265000000000000
B0844593209564S11655857EA0124801279000000000000
B0845033209569S11655778EA0126401296000000000000
B0845073209609S11655744EA0127501304000000000000
B0845113209644S11655766EA0128401314000000000000
B0845153209642S11655813EA0129701329000000000000
B0845193209600S11655850EA0130601334000000000000
B0845233209536S11655851EA0131101339000000000000
B0845273209477S11655805EA0131701346000000000000
B0845313209455S11655727EA0132401353000000000000
B0845353209483S11655668EA0132901359000000000000
B0845393209527S11655665EA0133801370000000000000
B0845433209546S11655704EA0135001384000000000000
B0845473209526S11655752EA0136201393000000000000
B0845513209475S11655781EA0136401391000000000000
B0845553209409S11655775EA0136201387000000000000
B0845593209340S11655740EA0135801384000000000000
B0846033209270S11655696EA0135301378000000000000
B0846073209198S11655652EA0135001374000000000000
B0846113209123S11655630EA0134301367000000000000
B0846153209046S11655632EA0133701358000000000000
B0846193208972S11655655EA0132601346000000000000
B0846233208901S11655682EA0131801340000000000000
B0846273208831S11655712EA0131401338000000000000
B0846313208760S11655740EA0130801329000000000000
B0846353208689S11655773EA0129701318000000000000
B0846393208616S11655807EA0128801311000000000000
B0846433208542S11655843EA0127901302000000000000
B0846473208469S11655879EA0127501298000000000000
B0846513208398S11655912EA0127001292000000000000
B0846553208324S11655938EA0126501285000000000000
B0846593208249S11655967EA0125501276000000000000
B0847033208177S11655998EA0124901269000000000000
B0847073208103S11656030EA0124001263000000000000
B0847113208026S11656060EA0123601258000000000000
B0847153207949S11656086EA0123101252000000000000
B0847193207874S11656120EA0122001240000000000000
B0847233207800S11656159EA0121401235000000000000
B0847273207724S11656194EA0121001234000000000000
B0847313207653S11656229EA0121301237000000000000
B0847353207581S11656263EA0121501238000000000000
B0847393207511S11656297EA0121601239000000000000
B0847433207442S11656331EA0121201234000000000000
B0847473207371S11656362EA0120501227000000000000
B0847513207295S11656392EA0119901220000000000000
B0847553207221S11656423EA0119101214000000000000
B0847593207146S11656458EA0118801208000000000000
B0848033207074S11656497EA0118301200000000000000
B0848073207009S11656544EA0117301189000000000000
B0848113206949S11656597EA0116401180000000000000
B0848153206892S11656654EA0116201181000000000000
B0848193206838S11656710EA0116501184000000000000
B0848233206788S11656763EA0116901187000000000000
B0848273206757S11656821EA0117501193000000000000
B0848313206745S11656882EA0116901187000000000000
B0848353206718S11656942EA0116701184000000000000
B0848393206676S11656991EA0116501183000000000000
B0848433206628S11657035EA0116601185000000000000
B0848473206574S11657073EA0117001185000000000000
B0848513206517S11657109EA0117801198000000000000
B0848553206488S11657160EA0118801207000000000000
B0848593206510S11657199EA0119101209000000000000
B0849033206557S11657183EA0119401213000000000000
B0849073206578S11657114EA0120101222000000000000
B0849113206550S11657040EA0120301222000000000000
B0849153206494S11656992EA0120301222000000000000
B0849193206428S11656975EA0120401225000000000000
B0849233206363S11656987EA0120901229000000000000
B0849273206331S11657035EA0121101228000000000000
B0849313206353S11657072EA0121301235000000000000
B0849353206396S11657062EA0121301234000000000000
B0849393206429S11657009EA0122001244000000000000
B0849433206420S11656932EA0122201244000000000000
B0849473206368S11656871EA0122201246000000000000
B0849513206302S11656831EA0122701251000000000000
B0849553206229S11656800EA0122501246000000000000
B0849593206153S11656773EA0121901235000000000000
B0850033206072S11656744EA0120601225000000000000
B0850073205989S11656724EA0120301224000000000000
B0850113205911S11656728EA0120101222000000000000
B0850153205846S11656758EA0119601217000000000000
B0850193205792S11656805EA0118701204000000000000
B0850233205752S11656862EA0117801199000000000000
B0850273205716S11656923EA0116901188000000000000
B0850313205683S11656986EA0116501186000000000000
