ACAM4N6
HFDTE271213
HFFXA050
HFPLTPILOT:JOHN WELSH              
HFGTYGLIDERTYPE:HORNET      
HFGIDGLIDERID:VH-GMY      
HFDTM100GPSDATUM:
HFRFWFIRMWAREVERSION:F2.6
HFRHWHARDWAREVERSION:300 Series Version 2
HFFTYFRTYPE:CAMBRIDGE AERO INSTRUMENTS, 302+
HFGPS:GARMIN,LVS-25,12,18000
HFPRSPRESSALTSENSOR:INTERSEMA, MS5534-AP, 20000
I033638FXA3941ENL4247REX
LCAMSBVER:5FWVER:F26300
C221213042827221213000102
C0000000N00000000WTAKEOFF     
C3207549S11656849EBEVAIR      
C3320516S11644815EDARKAN      
C3256999S11752999EHarrismithAF
C3207549S11656849EBEVAIR      
C0000000N00000000WLANDING     
B0420203207337S11656861EA0022400223000000000000
B0420223207337S11656861EA0022500223000000000000
B0420243207337S11656861EA0022500223000000000000
B0420263207337S11656861EA0022400223000000000000
B0420283207337S11656861EA0022400223000000000000
B0420303207337S11656861EA0022400223000000000000
B0420323207337S11656861EA0022400223000000000000
B0420343207337S11656861EA0022400223000000000000
B0420363207337S11656861EA0022400223000000000000
B0420383207337S11656861EA0022400223000000000000
B0420403207338S11656862EA0022400222000000000000
B0420423207339S11656862EA0022500222000000000000
B0420443207341S11656862EA0022400222000000000000
B0420463207343S11656864EA0022400221000000000000
B0420483207346S11656865EA0022500221000000000000
B0420493207349S11656867EA0022500221000000000000
B0420533207371S11656883EA0022300220000000000000
B0420573207408S11656909EA0022100220000000000000
B0421013207460S11656942EA0022100219000000000000
B0421053207519S11656983EA0022100220000000000000
B0421093207579S11657034EA0022200225000000000000
B0421133207640S11657090EA0023200237000000000000
B0421173207700S11657151EA0024800255000000000000
B0421213207755S11657217EA0026800277000000000000
B0421253207807S11657283EA0028400298000000000000
B0421293207863S11657348EA0030100318000000000000
B0421333207922S11657406EA0032800347000000000000
B0421373207982S11657462EA0034200360000000000000
B0421413208038S11657516EA0036200384000000000000
B0421453208092S11657568EA0038600408000000000000
B0421493208145S11657623EA0041900437000000000000
B0421533208194S11657684EA0044200469000000000000
B0421573208225S11657764EA0047100500000000000000
B0422013208222S11657855EA0050400534000000000000
B0422053208191S11657946EA0053200557000000000000
B0422093208132S11658024EA0055100575000000000000
B0422133208062S11658087EA0057600601000000000000
B0422173207984S11658134EA0060200620000000000000
B0422213207900S11658167EA0061200634000000000000
B0422253207817S11658201EA0062900652000000000000
B0422293207735S11658240EA0064800670000000000000
B0422333207651S11658282EA0066500688000000000000
B0422373207568S11658318EA0068500712000000000000
B0422413207494S11658360EA0071000735000000000000
B0422453207451S11658430EA0071600737000000000000
B0422493207471S11658504EA0071300730000000000000
B0422533207527S11658520EA0070300718000000000000
B0422573207579S11658490EA0069300709000000000000
B0423013207607S11658426EA0069000709000000000000
B0423053207611S11658348EA0068200701000000000000
B0423093207606S11658265EA0067600694000000000000
B0423133207596S11658182EA0067700699000000000000
B0423173207562S11658106EA0068500709000000000000
B0423213207492S11658093EA0070100732000000000000
B0423253207450S11658158EA0071000728000000000000
B0423293207475S11658223EA0070600730000000000000
B0423333207519S11658213EA0071200739000000000000
B0423373207516S11658151EA0072000747000000000000
B0423413207460S11658104EA0072000751000000000000
B0423453207393S11658126EA0073200767000000000000
B0423493207384S11658195EA0074600772000000000000
B0423533207427S11658227EA0074300769000000000000
B0423573207473S11658204EA0074200769000000000000
B0424013207501S11658147EA0074000768000000000000
B0424053207492S11658074EA0074400773000000000000
B0424093207446S11658011EA0074500772000000000000
B0424133207385S11658022EA0075800793000000000000
B0424173207382S11658084EA0077500804000000000000
B0424213207424S11658109EA0077600807000000000000
B0424253207459S11658071EA0077700808000000000000
B0424293207459S11658009EA0078200816000000000000
B0424333207424S11657954EA0079200827000000000000
B0424373207368S11657930EA0080400838000000000000
B0424413207307S11657945EA0081700847000000000000
B0424453207260S11657998EA0082100855000000000000
B0424493207237S11658073EA0082600860000000000000
B0424533207243S11658149EA0083100866000000000000
B0424573207281S11658205EA0084200880000000000000
B0425013207334S11658226EA0085200889000000000000
B0425053207381S11658200EA0085700893000000000000
B0425093207395S11658140EA0086400904000000000000
B0425133207367S11658079EA0087100907000000000000
B0425173207306S11658050EA0087800913000000000000
B0425213207239S11658074EA0088300922000000000000
B0425253207202S11658138EA0089700935000000000000
B0425293207199S11658212EA0091000947000000000000
B0425333207230S11658270EA0091700953000000000000
B0425373207282S11658294EA0091900954000000000000
B0425413207333S11658277EA0092000954000000000000
B0425453207362S11658223EA0092400961000000000000
B0425493207354S11658156EA0093200969000000000000
B0425533207307S11658104EA0094400981000000000000
B0425573207237S11658089EA0094900987000000000000
B0426013207170S11658125EA0095800998000000000000
B0426053207130S11658191EA0097101011000000000000
B0426093207121S11658268EA0098301024000000000000
B0426133207143S11658338EA0099201033000000000000
B0426173207190S11658381EA0099601034000000000000
B0426213207243S11658378EA0099801036000000000000
B0426253207276S11658331EA0100201042000000000000
B0426293207274S11658261EA0101001050000000000000
B0426333207234S11658199EA0101801059000000000000
B0426373207168S11658169EA0102601066000000000000
B0426413207096S11658188EA0103201072000000000000
B0426453207047S11658252EA0104101084000000000000
B0426493207037S11658335EA0105101095000000000000
B0426533207065S11658407EA0106101099000000000000
B0426573207120S11658448EA0106101099000000000000
B0427013207178S11658446EA0106501105000000000000
B0427053207224S11658405EA0107101109000000000000
B0427093207241S11658330EA0107201115000000000000
B0427133207215S11658249EA0108701135000000000000
B0427173207154S11658197EA0110301148000000000000
B0427213207074S11658187EA0111101158000000000000
B0427253207000S11658225EA0112301169000000000000
B0427293206953S11658296EA0114001183000000000000
B0427333206942S11658379EA0115101196000000000000
B0427373206964S11658457EA0116001204000000000000
B0427413207012S11658503EA0116801210000000000000
B0427453207069S11658505EA0117301215000000000000
B0427493207115S11658466EA0117801220000000000000
B0427533207131S11658396EA0119101234000000000000
B0427573207108S11658321EA0120001246000000000000
B0428013207051S11658269EA0120901253000000000000
B0428053206974S11658256EA0121601260000000000000
B0428093206899S11658284EA0122601274000000000000
B0428133206843S11658348EA0124001281000000015000
B0428173206818S11658435EA0124901290000000015000
B0428213206826S11658525EA0125701297000000015000
B0428253206866S11658596EA0126201302000000000000
B0428293206923S11658632EA0126801308000000015000
B0428333206985S11658625EA0127301313000000015000
B0428373207030S11658578EA0127701319000000000000
B0428413207048S11658503EA0128301331000000000000
B0428453207024S11658424EA0130301356000000000000
B0428493206966S11658369EA0132501370000000015000
B0428533206888S11658347EA0132401367000000015000
B0428573206806S11658373EA0132401372000000015000
B0429013206732S11658431EA0133501381000000015000
B0429053206675S11658509EA0134301392000000015000
B0429093206648S11658603EA0136001407000000015000
B0429133206652S11658694EA0136801409000000015000
B0429173206687S11658775EA0136501407000000015000
B0429213206743S11658828EA0136201403000000000000
B0429253206809S11658850EA0136401405000000000000
B0429293206871S11658845EA0136801411000000000000
B0429333206926S11658816EA0137401418000000000000
B0429373206974S11658769EA0138101431000000000000
B0429413207017S11658716EA0139601445000000000000
B0429453207057S11658661EA0140701455000000000000
B0429493207094S11658603EA0141101457000000000000
B0429533207128S11658542EA0141501460000000000000
B0429573207159S11658482EA0141801461000000000000
B0430013207191S11658422EA0142101463000000000000
B0430053207226S11658364EA0142101465000000000000
B0430093207267S11658309EA0142401468000000000000
B0430133207308S11658257EA0142301467000000000000
B0430173207352S11658209EA0141901456000000000000
B0430213207401S11658165EA0140601444000000000000
B0430253207450S11658121EA0139801437000000000000
B0430293207505S11658078EA0139301435000000000000
B0430333207564S11658036EA0138601427000000000000
B0430373207628S11657998EA0138101422000000000000
B0430443207744S11657936EA0136701406000000000000
B0430483207815S11657906EA0136101400000000000000
B0430523207892S11657880EA0135301391000000000000
B0430563207971S11657854EA0134201381000000000000
B0431003208052S11657827EA0133901375000000000000
B0431043208138S11657815EA0132901368000000000000
B0431083208222S11657809EA0133001373000000000000
B0431123208305S11657803EA0133801380000000000000
B0431163208381S11657811EA0136601414000000000000
B0431203208441S11657788EA0140001443000000000000
B0431243208446S11657724EA0142201463000000000000
B0431283208391S11657684EA0143301473000000000000
B0431323208321S11657715EA0144401484000000000000
B0431363208287S11657789EA0144901491000000000000
B0431403208312S11657863EA0145501496000000000000
B0431443208368S11657896EA0146801513000000000000
B0431483208418S11657879EA0148801533000000000000
B0431523208446S11657832EA0149801537000000000000
B0431563208438S11657767EA0150001541000000000000
B0432003208385S11657725EA0151101557000000000000
B0432043208316S11657735EA0152301567000000000000
B0432083208264S11657792EA0153801585000000015000
B0432123208252S11657867EA0155001594000000015000
B0432163208283S11657930EA0155801601000000015000
B0432203208335S11657961EA0156901613000000015000
B0432243208389S11657956EA0157501622000000000000
B0432283208428S11657918EA0158201626000000000000
B0432323208430S11657857EA0158501631000000000000
B0432363208385S11657810EA0159101637000000000000
B0432403208312S11657810EA0159801648000000000000
B0432443208249S11657855EA0161501666000000015000
B0432483208220S11657933EA0162101668000000015000
B0432523208239S11658013EA0162301671000000015000
B0432563208291S11658044EA0163701686000000015000
B0433003208339S11658028EA0164501690000000015000
B0433043208366S11657979EA0164101687000000015000
B0433083208357S11657915EA0163801684000000015000
B0433123208314S11657857EA0163501682000000015000
B0433163208249S11657818EA0163401686000000015000
B0433203208178S11657827EA0164201695000000015000
B0433243208123S11657885EA0165201700000000015000
B0433283208101S11657970EA0165201699000000015000
B0433323208122S11658052EA0165301702000000015000
B0433363208171S11658102EA0165701705000000000000
B0433403208230S11658115EA0166001706000000000000
B0433443208282S11658088EA0165701700000000000000
B0433483208314S11658032EA0165101695000000000000
B0433523208312S11657966EA0165201701000000000000
B0433563208273S11657906EA0165001698000000000000
B0434003208204S11657881EA0164601693000000000000
B0434043208121S11657881EA0164201692000000000000
B0434083208038S11657891EA0166001712000000000000
B0434123207957S11657902EA0166701715000000000000
B0434163207875S11657915EA0167201720000000000000
B0434203207793S11657918EA0167401720000000000000
B0434243207711S11657905EA0167701723000000000000
B0434283207631S11657885EA0167501716000000000000
B0434323207549S11657859EA0166001698000000000000
B0434363207463S11657827EA0164201683000000000000
B0434403207373S11657790EA0163101677000000000000
B0434443207284S11657753EA0162301668000000000000
B0434483207194S11657715EA0161201657000000000000
B0434523207103S11657675EA0160501648000000000000
B0434563207017S11657628EA0159901643000000000000
B0435003206938S11657576EA0159601637000000000000
B0435043206858S11657520EA0158301625000000000000
B0435083206780S11657462EA0156801613000000000000
B0435123206704S11657402EA0156201602000000000000
B0435163206627S11657341EA0154701586000000000000
B0435203206549S11657276EA0153001571000000000000
B0435243206471S11657212EA0151901562000000000000
B0435283206394S11657148EA0151301554000000000000
B0435323206316S11657087EA0150201542000000000000
B0435363206240S11657026EA0149101532000000000000
B0435403206163S11656962EA0148201524000000000000
B0435443206088S11656903EA0147501518000000000000
B0435483206012S11656840EA0147101513000000000000
B0435523205938S11656776EA0146701508000000000000
B0435563205864S11656715EA0146301505000000000000
B0436003205790S11656653EA0146201507000000000000
B0436043205720S11656589EA0147001512000000000000
B0436083205651S11656523EA0146401501000000000000
B0436123205582S11656453EA0145301494000000000000
B0436163205513S11656384EA0144901490000000000000
B0436203205445S11656316EA0144801491000000000000
B0436243205375S11656250EA0144201484000000000000
B0436283205302S11656185EA0143001470000000000000
B0436323205227S11656119EA0141801453000000000000
B0436363205149S11656052EA0140401441000000000000
B0436403205076S11655990EA0141801472000000000000
B0436443205011S11655942EA0144801497000000000000
B0436483204953S11655896EA0146701512000000000000
B0436523204898S11655847EA0148301524000000000000
B0436563204840S11655799EA0148601525000000000000
B0437003204780S11655755EA0149901545000000000000
B0437043204721S11655717EA0152001558000000000000
B0437083204658S11655682EA0151201545000000000000
B0437123204583S11655639EA0148901521000000000000
B0437163204502S11655593EA0147501514000000000000
B0437203204422S11655545EA0147501515000000000000
B0437243204344S11655497EA0147401512000000000000
B0437283204268S11655444EA0146601500000000000000
B0437323204191S11655389EA0145501495000000000000
B0437363204114S11655336EA0145701496000000000000
B0437403204037S11655285EA0145301486000000000000
B0437443203959S11655232EA0144501483000000000000
B0437483203883S11655175EA0144201484000000000000
B0437523203807S11655125EA0145501501000000000000
B0437563203736S11655081EA0147301518000000000000
B0438003203668S11655041EA0148901527000000000000
B0438043203602S11654998EA0148301511000000000000
B0438083203533S11654949EA0146201494000000000000
B0438123203462S11654893EA0145101490000000000000
B0438163203399S11654834EA0145101485000000000000
B0438203203338S11654776EA0144301476000000000000
B0438243203278S11654716EA0144501483000000000000
B0438283203215S11654656EA0144901486000000000000
B0438323203148S11654598EA0145101489000000000000
B0438363203082S11654544EA0146501504000000000000
B0438403203020S11654499EA0148101515000000000000
B0438443202956S11654449EA0148201512000000000000
B0438483202890S11654399EA0147601505000000000000
B0438523202822S11654347EA0146601495000000000000
B0438563202754S11654292EA0145901491000000000000
B0439003202691S11654240EA0146201497000000000000
B0439043202633S11654192EA0146901500000000000000
B0439083202572S11654145EA0146501496000000000000
B0439123202506S11654096EA0146401490000000000000
B0439163202440S11654043EA0145501484000000000000
B0439203202373S11653991EA0144901473000000000000
B0439243202305S11653936EA0143101455000000000000
B0439283202234S11653877EA0141801449000000000000
B0439323202165S11653818EA0141501444000000000000
B0439363202098S11653759EA0140701439000000000000
B0439403202029S11653703EA0140701437000000000000
B0439443201963S11653649EA0140301434000000000000
B0439483201896S11653597EA0140501436000000000000
B0439523201833S11653546EA0140301432000000000000
B0439563201770S11653494EA0139501422000000000000
B0440003201707S11653438EA0138901419000000000000
B0440043201645S11653382EA0138601416000000000000
B0440083201583S11653325EA0138401416000000000000
B0440123201518S11653266EA0138401413000000000000
B0440163201453S11653204EA0137801407000000000000
B0440203201389S11653136EA0137301403000000000000
B0440243201323S11653069EA0136601397000000000000
B0440283201254S11653003EA0136701404000000000000
B0440323201187S11652938EA0137401408000000000000
B0440363201123S11652871EA0137901411000000000000
B0440403201060S11652802EA0136801399000000000000
B0440443200999S11652735EA0137001409000000000000
B0440483200942S11652681EA0139101435000000000000
B0440523200888S11652633EA0140201433000000000000
B0440563200826S11652587EA0139001421000000000000
B0441003200755S11652542EA0138401414000000000000
B0441043200681S11652502EA0138101422000000000000
B0441083200608S11652470EA0140001440000000000000
B0441123200537S11652476EA0141701454000000000000
B0441163200487S11652537EA0141801445000000000000
B0441203200503S11652610EA0141001435000000000000
B0441243200557S11652619EA0140201424000000000000
B0441283200577S11652561EA0139701425000000000000
B0441323200553S11652488EA0139701427000000000000
B0441363200517S11652414EA0139901430000000000000
B0441403200473S11652346EA0140401436000000000000
B0441443200408S11652302EA0141201448000000000000
B0441483200330S11652284EA0141101441000000000000
B0441523200252S11652249EA0140401437000000000000
B0441563200184S11652193EA0140001433000000000000
B0442003200134S11652122EA0140101442000000000000
B0442043200097S11652055EA0141701456000000000000
B0442083200066S11651990EA0142401458000000000000
B0442123200036S11651921EA0142601462000000000000
B0442163200004S11651853EA0142701461000000000000
B0442203159970S11651783EA0142801461000000000000
B0442243159935S11651712EA0142101449000000000000
B0442283159894S11651636EA0140401434000000000000
B0442323159850S11651558EA0139301424000000000000
B0442363159805S11651480EA0138701421000000000000
B0442403159759S11651404EA0138901424000000000000
B0442443159712S11651327EA0137901409000000000000
B0442483159660S11651245EA0136801406000000000000
B0442523159608S11651170EA0138101422000000000000
B0442563159554S11651098EA0138701428000000000000
B0443003159499S11651028EA0139301432000000000000
B0443043159443S11650958EA0138801422000000000000
B0443083159383S11650882EA0137501409000000000000
B0443123159320S11650803EA0135301385000000000000
B0443163159255S11650722EA0133401373000000000000
B0443203159188S11650642EA0132701366000000000000
B0443243159120S11650564EA0132201362000000000000
B0443283159053S11650486EA0131901359000000000000
B0443323158988S11650412EA0131601355000000000000
B0443363158923S11650340EA0131501354000000000000
B0443403158858S11650274EA0131101346000000000000
B0443443158791S11650210EA0130001334000000000000
B0443483158722S11650146EA0128801319000000000000
B0443523158650S11650083EA0127001304000000000000
B0443563158579S11650016EA0126301300000000000000
B0444003158510S11649951EA0125901296000000000000
B0444043158444S11649886EA0125301291000000000000
B0444083158377S11649823EA0125001287000000000000
B0444123158310S11649759EA0124501278000000000000
B0444163158242S11649695EA0123701273000000000000
B0444203158174S11649633EA0123201267000000000000
B0444243158108S11649574EA0123001267000000000000
B0444283158044S11649515EA0122901263000000000000
B0444323157979S11649456EA0121801248000000000000
B0444363157912S11649394EA0120501238000000000000
B0444403157846S11649331EA0120601241000000000000
B0444443157783S11649273EA0121001246000000000000
B0444483157727S11649216EA0121601250000000000000
B0444523157674S11649160EA0121501242000000000000
B0444563157614S11649105EA0120401230000000000000
B0445003157541S11649056EA0119401224000000000000
B0445043157462S11649015EA0119701235000000000000
B0445083157387S11648982EA0121001245000000000000
B0445123157310S11648963EA0122001251000000000000
B0445163157240S11648999EA0122101252000000000000
B0445203157210S11649078EA0122101246000000000000
B0445243157227S11649156EA0121401244000000000000
B0445283157276S11649203EA0122301257000000000000
B0445323157332S11649216EA0123701272000000000000
B0445363157375S11649190EA0125201287000000000000
B0445403157389S11649136EA0126701302000000000000
B0445443157374S11649077EA0127501307000000000000
B0445483157329S11649025EA0127001299000000000000
B0445523157263S11648996EA0126301295000000000000
B0445563157188S11648991EA0125801286000000000000
B0446003157105S11648992EA0124101268000000000000
B0446043157016S11648984EA0122801261000000000000
B0446083156929S11648971EA0122301257000000000000
B0446123156845S11648956EA0122101256000000000000
B0446163156763S11648937EA0122001253000000000000
B0446203156681S11648921EA0121301242000000000000
B0446243156598S11648902EA0119801227000000000000
B0446283156513S11648884EA0118101207000000000000
B0446323156427S11648861EA0117101204000000000000
B0446363156344S11648845EA0117401208000000000000
B0446403156262S11648836EA0118901230000000000000
B0446443156189S11648841EA0121701255000000000000
B0446483156145S11648897EA0123601272000000000000
B0446523156161S11648957EA0124701277000000000000
B0446563156210S11648970EA0124601274000000000000
B0447003156249S11648928EA0124801276000000000000
B0447043156247S11648866EA0125101281000000000000
B0447083156193S11648826EA0125501290000000000000
B0447123156123S11648814EA0126501298000000000000
B0447163156061S11648850EA0127501310000000000000
B0447203156053S11648923EA0128301320000000000000
B0447243156094S11648961EA0128701322000000000000
B0447283156140S11648934EA0129101327000000000000
B0447323156144S11648869EA0129401331000000000000
B0447363156096S11648823EA0130101340000000000000
B0447403156035S11648840EA0131501355000000000000
B0447443156005S11648905EA0132001357000000000000
B0447483156026S11648970EA0132801369000000000000
B0447523156072S11648987EA0133801376000000000000
B0447563156110S11648949EA0134101380000000000000
B0448003156098S11648883EA0134301384000000000000
B0448043156040S11648854EA0135401402000000000000
B0448083155987S11648896EA0136501408000000000000
B0448123155977S11648970EA0137001415000000000000
B0448163156014S11649019EA0137701423000000000000
B0448203156062S11649010EA0138601432000000000000
B0448243156080S11648953EA0139501440000000000000
B0448283156066S11648879EA0139101433000000000000
B0448323156041S11648793EA0138701433000000000000
B0448363156013S11648703EA0138401433000000000000
B0448403155980S11648616EA0138601429000000000000
B0448443155944S11648527EA0137601418000000000000
B0448483155903S11648438EA0137001414000000000000
B0448523155863S11648352EA0136501407000000000000
B0448563155821S11648269EA0136701412000000000000
B0449003155785S11648183EA0137401417000000000000
B0449043155767S11648098EA0138801433000000000000
B0449083155750S11648016EA0139501436000000000000
B0449123155733S11647935EA0139601434000000000000
B0449163155720S11647852EA0139801439000000000000
B0449203155675S11647790EA0141201461000000000000
B0449243155610S11647803EA0142301464000000000000
B0449283155585S11647871EA0141501453000000000000
B0449323155621S11647916EA0140401446000000000000
B0449363155678S11647925EA0140201445000000000000
B0449403155740S11647925EA0140001441000000000000
B0449443155798S11647905EA0140001448000000000000
B0449483155851S11647870EA0141901470000000000000
B0449523155889S11647832EA0144501491000000000000
B0449563155879S11647770EA0145001494000000000000
B0450003155811S11647745EA0144801490000000000000
B0450043155756S11647793EA0144701495000000000000
B0450083155755S11647865EA0145701505000000000000
B0450123155798S11647897EA0146801520000000000000
B0450163155841S11647869EA0148001528000000000000
B0450203155847S11647803EA0148801535000000000000
B0450243155802S11647744EA0149301540000000000000
B0450283155733S11647740EA0149501540000000000000
B0450323155684S11647791EA0149201536000000000000
B0450363155680S11647861EA0149601539000000000000
B0450403155725S11647894EA0149801543000000000000
B0450443155780S11647879EA0150001547000000000000
B0450483155803S11647817EA0150801556000000000000
B0450523155768S11647756EA0151701567000000000000
B0450563155701S11647747EA0152401568000000000000
B0451003155647S11647796EA0151801560000000000000
B0451043155649S11647868EA0151501562000000000000
B0451083155695S11647901EA0152301569000000000000
B0451123155746S11647874EA0152601571000000000000
B0451163155759S11647800EA0151801562000000000000
B0451203155734S11647712EA0150801550000000000000
B0451243155691S11647619EA0148801529000000000000
B0451283155645S11647526EA0147401521000000000000
B0451323155595S11647433EA0146701512000000000000
B0451363155546S11647344EA0146201511000000000000
B0451403155496S11647259EA0146301511000000000000
B0451443155448S11647177EA0146001505000000000000
B0451483155400S11647094EA0144701489000000000000
B0451523155353S11647011EA0144101489000000000000
B0451563155314S11646934EA0144801498000000000000
B0452003155281S11646859EA0146001505000000000000
B0452043155248S11646782EA0146301513000000000000
B0452083155200S11646727EA0149001542000000000000
B0452123155136S11646750EA0151801563000000000000
B0452163155113S11646824EA0152201561000000000000
B0452203155143S11646886EA0152201564000000000000
B0452243155191S11646885EA0152901575000000000000
B0452283155213S11646841EA0154001583000000000000
B0452323155194S11646782EA0154301589000000000000
B0452363155147S11646727EA0154501589000000000000
B0452403155084S11646677EA0153901584000000000000
B0452443155014S11646631EA0154101585000000000000
B0452483154940S11646587EA0153201568000000000000
B0452523154854S11646544EA0151201551000000000000
B0452563154766S11646504EA0151001557000000000000
B0453003154680S11646470EA0151701560000000000000
B0453043154588S11646445EA0151101553000000000000
B0453083154493S11646428EA0150901554000000000000
B0453123154397S11646412EA0150301544000000000000
B0453163154300S11646395EA0149501540000000000000
B0453203154208S11646374EA0149501541000000000000
B0453243154125S11646352EA0150801552000000000000
B0453283154048S11646326EA0151001553000000000000
B0453323153977S11646288EA0150801548000000000000
B0453363153909S11646241EA0150101545000000000000
B0453403153847S11646193EA0150501548000000000000
B0453443153803S11646132EA0150501544000000000000
B0453483153808S11646067EA0150701548000000000000
B0453523153853S11646032EA0149701533000000000000
B0453563153923S11646037EA0147201510000000000000
B0454003153999S11646070EA0145801500000000000000
B0454043154073S11646109EA0145601497000000000000
B0454083154147S11646148EA0145201495000000000000
B0454123154220S11646187EA0145101489000000000000
B0454163154295S11646227EA0143001472000000000000
B0454203154369S11646269EA0142201466000000000000
B0454243154441S11646311EA0141601460000000000000
B0454283154514S11646353EA0141001455000000000000
B0454323154584S11646396EA0140601450000000000000
B0454363154654S11646440EA0140201446000000000000
B0454403154724S11646483EA0139701437000000000000
B0454443154796S11646523EA0139001430000000000000
B0454483154867S11646561EA0138001422000000000000
B0454523154940S11646597EA0137401418000000000000
B0454563155015S11646625EA0137001415000000000000
B0455003155090S11646647EA0137301417000000000000
B0455043155162S11646662EA0136901410000000000000
B0455083155238S11646675EA0136001401000000000000
B0455123155312S11646690EA0135401396000000000000
B0455163155387S11646705EA0135101393000000000000
B0455203155460S11646716EA0135101396000000000000
B0455243155529S11646724EA0135301391000000000000
B0455283155603S11646729EA0134101382000000000000
B0455323155678S11646737EA0133501376000000000000
B0455363155753S11646742EA0132801371000000000000
B0455403155827S11646742EA0132101362000000000000
B0455443155902S11646739EA0131701358000000000000
B0455483155975S11646721EA0131801364000000000000
B0455523156042S11646698EA0132701371000000000000
B0455563156106S11646670EA0133101376000000000000
B0456003156166S11646647EA0133901382000000000000
B0456043156227S11646633EA0134401392000000000000
B0456083156283S11646623EA0136001409000000000000
B0456123156293S11646574EA0138601433000000000000
B0456163156239S11646534EA0138001418000000000000
B0456203156158S11646556EA0136701409000000000000
B0456243156111S11646629EA0137001418000000000000
B0456283156101S11646707EA0138701434000000000000
B0456323156122S11646770EA0139801444000000000000
B0456363156171S11646794EA0140301446000000000000
B0456403156214S11646761EA0140201451000000000000
B0456443156196S11646700EA0141801470000000000000
B0456483156132S11646674EA0142601470000000000000
B0456523156058S11646690EA0142401470000000000000
B0456563156020S11646755EA0143001482000000000000
B0457003156046S11646812EA0143801489000000000000
B0457043156094S11646813EA0144901496000000000000
B0457083156097S11646757EA0144701493000000000000
B0457123156033S11646718EA0145201508000000015000
B0457163155968S11646750EA0146201515000000000000
B0457203155951S11646822EA0146601519000000000000
B0457243155990S11646878EA0146301511000000000000
B0457283156055S11646913EA0144701495000000000000
B0457323156131S11646939EA0144601499000000000000
B0457363156205S11646961EA0144401491000000000000
B0457403156283S11646980EA0143201476000000000000
B0457443156365S11646997EA0141701463000000000000
B0457483156447S11647013EA0141001460000000000000
B0457523156527S11647030EA0140601452000000000000
B0457563156609S11647047EA0140001451000000000000
B0458003156687S11647065EA0139901446000000000000
B0458043156767S11647081EA0138801435000000000000
B0458083156845S11647099EA0138201430000000000000
B0458123156923S11647117EA0137901424000000000000
B0458163156999S11647136EA0136701410000000000000
B0458203157075S11647151EA0135901402000000000000
B0458243157150S11647168EA0135401399000000000000
B0458283157225S11647182EA0134801393000000000000
B0458323157300S11647197EA0134001380000000000000
B0458363157374S11647211EA0132801369000000000000
B0458403157449S11647225EA0131701358000000000000
B0458443157523S11647244EA0131001350000000000000
B0458483157597S11647263EA0130301340000000000000
B0458523157671S11647290EA0129801338000000000000
B0458563157743S11647320EA0129401334000000000000
B0459003157814S11647351EA0129001330000000000000
B0459043157885S11647381EA0129401338000000000000
B0459083157950S11647402EA0130501348000000000000
B0459123158007S11647393EA0131401352000000000000
B0459163158064S11647371EA0130901347000000000000
B0459203158122S11647350EA0130301339000000000000
B0459243158186S11647338EA0129301327000000000000
B0459283158256S11647336EA0127901315000000000000
B0459323158330S11647348EA0127201313000000000000
B0459363158406S11647374EA0127401313000000000000
B0459403158477S11647423EA0127301316000000000000
B0459443158544S11647457EA0128501329000000000000
B0459483158610S11647461EA0128601326000000000000
B0459523158676S11647466EA0128401329000000000000
B0459563158743S11647471EA0128601323000000000000
B0500003158810S11647476EA0127801319000000000000
B0500043158880S11647487EA0127101309000000000000
B0500083158951S11647502EA0126301302000000000000
B0500123159022S11647520EA0125501293000000000000
B0500163159090S11647539EA0125201294000000000000
B0500203159153S11647550EA0125001284000000000000
B0500243159220S11647562EA0123801271000000000000
B0500283159290S11647576EA0122101253000000000000
B0500323159361S11647596EA0121301250000000000000
B0500363159424S11647611EA0122601265000000000000
B0500403159478S11647623EA0123701272000000000000
B0500443159533S11647630EA0124001271000000000000
B0500483159590S11647634EA0124301275000000000000
B0500523159649S11647632EA0124901286000000000000
B0500563159668S11647578EA0126501309000000000000
B0501003159616S11647544EA0128301323000000000000
B0501043159559S11647585EA0129101327000000000000
B0501083159562S11647661EA0129601338000000000000
B0501123159610S11647699EA0131401353000000000000
B0501163159659S11647683EA0132301361000000000000
B0501203159672S11647627EA0132701365000000000000
B0501243159627S11647583EA0133701380000000000000
B0501283159567S11647608EA0135701401000000000000
B0501323159542S11647673EA0137401417000000000000
B0501363159563S11647738EA0138101424000000000000
B0501403159611S11647765EA0138801434000000000000
B0501443159653S11647740EA0139501438000000000000
B0501483159671S11647682EA0139501433000000000000
B0501523159650S11647619EA0138801431000000000000
B0501563159588S11647601EA0139301442000000000000
B0502003159521S11647626EA0141201462000000000000
B0502043159511S11647695EA0143101481000000000000
B0502083159559S11647718EA0143901484000000000000
B0502123159591S11647675EA0144801499000000000000
B0502163159565S11647628EA0146501515000000000000
B0502203159511S11647634EA0147401523000000000000
B0502243159476S11647691EA0148001531000000000000
B0502283159489S11647760EA0148701534000000000000
B0502323159539S11647797EA0148901538000000000000
B0502363159589S11647782EA0149701543000000000000
B0502403159606S11647727EA0148901532000000000000
B0502443159568S11647679EA0148301534000000000000
B0502483159504S11647684EA0149201545000000000000
B0502523159446S11647725EA0150401556000000000000
B0502563159412S11647791EA0151401567000000000000
B0503003159446S11647842EA0152001566000000000000
B0503043159499S11647817EA0151501563000000000000
B0503083159495S11647757EA0152501577000000000000
B0503123159443S11647741EA0153601587000000000000
B0503163159391S11647786EA0153601586000000000000
B0503203159370S11647866EA0152701570000000000000
B0503243159396S11647953EA0151101558000000000000
B0503283159450S11648031EA0149401542000000000000
B0503323159517S11648104EA0147701528000000000000
B0503363159588S11648176EA0146801519000000000000
B0503403159660S11648247EA0144801496000000000000
B0503443159736S11648320EA0143401487000000000000
B0503483159811S11648393EA0143001484000000000000
B0503523159883S11648468EA0142601478000000000000
B0503563159953S11648545EA0141801468000000000000
B0504003200020S11648622EA0141401466000000000000
B0504043200083S11648700EA0140901459000000000000
B0504083200143S11648775EA0140801458000000000000
B0504123200202S11648849EA0140701457000000000000
B0504163200254S11648919EA0142901487000000000000
B0504203200297S11648980EA0145301504000000000000
B0504243200343S11649040EA0145301500000000000000
B0504283200396S11649101EA0143001471000000000000
B0504323200465S11649162EA0140701453000000000000
B0504363200539S11649214EA0140601459000000000000
B0504403200611S11649255EA0142501479000000000000
B0504443200678S11649290EA0144101495000000000000
B0504483200747S11649322EA0145401507000000000000
B0504523200815S11649353EA0145701502000000000000
B0504563200886S11649387EA0143701478000000000000
B0505003200964S11649422EA0141901463000000000000
B0505043201042S11649455EA0140301444000000000000
B0505083201122S11649489EA0138901432000000000000
B0505123201200S11649521EA0137801422000000000000
B0505163201276S11649547EA0137701421000000000000
B0505203201349S11649571EA0137301416000000000000
B0505243201422S11649595EA0136901412000000000000
B0505283201493S11649621EA0136801410000000000000
B0505323201564S11649645EA0136701413000000000000
B0505363201631S11649660EA0137301417000000000000
B0505403201697S11649678EA0138101427000000000000
B0505443201764S11649703EA0140201451000000000000
B0505483201811S11649677EA0143601485000000000000
B0505523201786S11649616EA0144201499000000000000
B0505563201713S11649595EA0144301506000000000000
B0506003201651S11649632EA0145701514000000000000
B0506043201625S11649706EA0145701513000000000000
B0506083201648S11649772EA0146901533000000000000
B0506123201692S11649769EA0148701550000000000000
B0506163201684S11649710EA0151001575000000000000
B0506203201625S11649675EA0152301580000000000000
B0506243201556S11649711EA0152501585000000000000
B0506283201530S11649786EA0154001601000000000000
B0506323201557S11649847EA0154701604000000000000
B0506363201606S11649846EA0154801606000000000000
B0506403201610S11649784EA0156401627000000000000
B0506443201553S11649738EA0158501645000000000000
B0506483201478S11649750EA0159501653000000000000
B0506523201435S11649819EA0160501664000000000000
B0506563201450S11649888EA0160901667000000000000
B0507003201496S11649898EA0161501670000000000000
B0507043201510S11649846EA0161401671000000000000
B0507083201471S11649782EA0161601676000000000000
B0507123201410S11649741EA0162201682000000000000
B0507163201341S11649766EA0162601683000000000000
B0507203201318S11649844EA0162001676000000000000
B0507243201345S11649925EA0160001651000000000000
B0507283201393S11650005EA0157901638000000000000
B0507323201445S11650088EA0156701622000000000000
B0507363201497S11650170EA0155001609000000000000
B0507403201551S11650245EA0155301612000000000000
B0507443201603S11650319EA0154501599000000000000
B0507483201658S11650391EA0154001597000000000000
B0507523201718S11650451EA0153801598000000000000
B0507563201775S11650505EA0153901598000000000000
B0508003201831S11650559EA0154001597000000000000
B0508043201887S11650613EA0153501592000000000000
B0508083201943S11650668EA0153301589000000000000
B0508123202000S11650722EA0153001588000000000000
B0508163202059S11650778EA0153101588000000000000
B0508203202117S11650842EA0152701579000000000000
B0508243202177S11650908EA0151401562000000000000
B0508283202241S11650978EA0150101555000000000000
B0508323202305S11651047EA0149901550000000000000
B0508363202367S11651119EA0149401546000000000000
B0508403202429S11651193EA0148801540000000000000
B0508443202490S11651267EA0147901529000000000000
B0508483202553S11651342EA0147401524000000000000
B0508523202614S11651418EA0147001521000000000000
B0508563202671S11651495EA0146701516000000000000
B0509003202726S11651574EA0145801506000000000000
B0509043202780S11651654EA0144801499000000000000
B0509083202832S11651734EA0144401497000000000000
B0509123202880S11651812EA0144301492000000000000
B0509163202926S11651891EA0143601483000000000000
B0509203202970S11651972EA0142901477000000000000
B0509243203014S11652052EA0142201471000000000000
B0509283203059S11652132EA0141401462000000000000
B0509323203104S11652210EA0140601449000000000000
B0509363203152S11652288EA0139401438000000000000
B0509403203199S11652368EA0138501431000000000000
B0509443203246S11652446EA0137901428000000000000
B0509483203293S11652522EA0137601426000000000000
B0509523203338S11652592EA0138901439000000000000
B0509563203382S11652662EA0139901447000000000000
B0510003203432S11652718EA0142401476000000000000
B0510043203476S11652706EA0146701521000000000000
B0510083203467S11652653EA0147801524000000000000
B0510123203406S11652618EA0146101507000000000000
B0510163203333S11652645EA0145801509000000000000
B0510203203287S11652713EA0147501531000000000000
B0510243203302S11652772EA0149201543000000000000
B0510283203346S11652765EA0150201555000000000000
B0510323203345S11652704EA0151601573000000000000
B0510363203282S11652667EA0152801579000000000000
B0510403203211S11652707EA0153101586000000000000
B0510443203194S11652785EA0154401599000000000000
B0510483203228S11652836EA0155401606000000000000
B0510523203274S11652818EA0156601622000000000000
B0510563203281S11652759EA0158601644000000000000
B0511003203239S11652707EA0160101655000000000000
B0511043203166S11652692EA0159501643000000000000
B0511083203088S11652730EA0159201648000000000000
B0511123203042S11652796EA0160901665000000000000
B0511163203051S11652865EA0160501653000000000000
B0511203203092S11652936EA0157201623000000000000
B0511243203143S11653014EA0156701625000000000000
B0511283203196S11653091EA0156901628000000000000
B0511323203252S11653165EA0157301631000000000000
B0511363203315S11653239EA0156701618000000000000
B0511403203382S11653312EA0155701615000000000000
B0511443203443S11653374EA0157401637000000000000
B0511483203498S11653429EA0158501637000000000000
B0511523203555S11653482EA0157701630000000000000
B0511563203616S11653533EA0157501629000000000000
B0512003203679S11653577EA0158001635000000000000
B0512043203738S11653617EA0159301652000000000000
B0512083203794S11653651EA0161101670000000000000
B0512123203846S11653684EA0162701689000000000000
B0512163203897S11653711EA0164601706000000000000
B0512203203945S11653703EA0165601710000000000000
B0512243203946S11653640EA0165101704000000000000
B0512283203888S11653591EA0165301712000000000000
B0512323203815S11653588EA0166301720000000000000
B0512363203744S11653623EA0167101727000000000000
B0512403203697S11653688EA0168801749000000000000
B0512443203699S11653755EA0170501760000000000000
B0512483203745S11653783EA0169901756000000000000
B0512523203777S11653744EA0171701782000000000000
B0512563203749S11653694EA0173601793000000000000
B0513003203680S11653690EA0173801798000000000000
B0513043203628S11653751EA0174601808000000000000
B0513083203625S11653837EA0174101799000000000000
B0513123203657S11653927EA0172201778000000000000
B0513163203705S11654022EA0170301764000000000000
B0513203203761S11654118EA0169701761000000000000
B0513243203818S11654215EA0169201753000000000000
B0513283203878S11654316EA0167501735000000000000
B0513323203936S11654418EA0166301729000000000000
B0513363203991S11654518EA0166001720000000000000
B0513403204045S11654617EA0165101717000000000000
B0513443204097S11654712EA0165501719000000000000
B0513483204148S11654804EA0165301717000000000000
B0513523204206S11654886EA0164501710000000000000
B0513563204279S11654945EA0164001702000000000000
B0514003204356S11654990EA0163201693000000000000
B0514043204435S11655033EA0162501685000000000000
B0514083204515S11655068EA0161801677000000000000
B0514123204591S11655096EA0161301673000000000000
B0514163204668S11655116EA0160801666000000000000
B0514203204743S11655133EA0160501663000000000000
B0514243204817S11655146EA0160301660000000000000
B0514283204893S11655161EA0159601651000000000000
B0514323204968S11655177EA0158801640000000000000
B0514363205045S11655192EA0157801632000000000000
B0514403205120S11655209EA0157301623000000000000
B0514443205194S11655224EA0158201638000000000000
B0514483205261S11655235EA0159801655000000000000
B0514523205323S11655244EA0161101667000000000000
B0514563205383S11655254EA0162001675000000000000
B0515003205441S11655268EA0163901695000000000000
B0515043205491S11655262EA0165901721000000000000
B0515083205503S11655207EA0167501730000000000000
B0515123205449S11655168EA0167101724000000000000
B0515163205371S11655202EA0166201713000000000000
B0515203205326S11655285EA0166501727000000000000
B0515243205315S11655375EA0168101740000000000000
B0515283205330S11655457EA0169601758000000000000
B0515323205366S11655521EA0171301772000000000000
B0515363205408S11655510EA0172401783000000000000
B0515403205386S11655454EA0173301794000000000000
B0515443205315S11655445EA0174201803000000000000
B0515483205261S11655506EA0175601820000000000000
B0515523205256S11655593EA0176901829000000000000
B0515563205287S11655664EA0177101832000000000000
B0516003205337S11655684EA0177501840000000000000
B0516043205370S11655653EA0178701847000000000000
B0516083205354S11655603EA0178601845000000000000
B0516123205287S11655593EA0177901842000000000000
B0516163205214S11655640EA0178001849000000000000
B0516203205179S11655721EA0179601862000000000000
B0516243205204S11655795EA0179601857000000000000
B0516283205258S11655847EA0177701833000000000000
B0516323205328S11655892EA0175001806000000000000
B0516363205404S11655935EA0172801786000000000000
B0516403205479S11655982EA0171201773000000000000
B0516443205552S11656026EA0171401777000000000000
B0516483205618S11656069EA0171401774000000000000
B0516523205686S11656112EA0170501762000000000000
B0516563205757S11656154EA0169001748000000000000
B0517003205833S11656197EA0168101736000000000000
B0517043205908S11656236EA0167501736000000000000
B0517083205982S11656271EA0167501735000000000000
B0517123206054S11656306EA0167701735000000000000
B0517163206124S11656340EA0167401728000000000000
B0517203206193S11656372EA0166601723000000000000
B0517243206259S11656402EA0167001727000000000000
B0517283206322S11656431EA0166801720000000000000
B0517323206388S11656455EA0165801712000000000000
B0517363206454S11656472EA0165501707000000000000
B0517403206523S11656481EA0164701697000000000000
B0517443206593S11656489EA0163901694000000000000
B0517483206660S11656494EA0164201695000000000000
B0517523206725S11656503EA0163801691000000000000
B0517563206791S11656516EA0163001682000000000000
B0518003206860S11656537EA0162201674000000000000
B0518043206927S11656562EA0161701670000000000000
B0518083206995S11656587EA0160801660000000000000
B0518123207065S11656597EA0160201652000000000000
B0518163207134S11656588EA0159501642000000000000
B0518203207203S11656570EA0158301629000000000000
B0518243207265S11656536EA0157801628000000000000
B0518283207324S11656496EA0158001633000000000000
B0518323207386S11656472EA0159701651000000000000
B0518363207443S11656500EA0161201663000000000000
B0518403207482S11656566EA0161401664000000000000
B0518443207507S11656650EA0160401651000000000000
B0518483207536S11656747EA0158201630000000000000
B0518523207579S11656841EA0156601609000000000000
B0518563207631S11656934EA0154801596000000000000
B0519003207687S11657021EA0153301581000000000000
B0519043207748S11657105EA0151701570000000000000
B0519083207811S11657185EA0151501571000000000000
B0519123207875S11657260EA0151301568000000000000
B0519163207939S11657338EA0150801562000000000000
B0519203208001S11657416EA0150601559000000000000
B0519243208062S11657495EA0150201553000000000000
B0519283208123S11657572EA0149501547000000000000
B0519323208186S11657651EA0148401533000000000000
B0519363208248S11657733EA0147201523000000000000
B0519403208309S11657815EA0146501516000000000000
B0519443208366S11657896EA0145901509000000000000
B0519483208421S11657975EA0145501507000000000000
B0519523208476S11658050EA0144701497000000000000
B0519563208528S11658125EA0144301493000000000000
B0520003208581S11658197EA0144401498000000000000
B0520043208637S11658266EA0144801504000000000000
B0520083208691S11658335EA0145701513000000000000
B0520123208745S11658401EA0147101528000000000000
B0520163208798S11658463EA0148901544000000000000
B0520203208846S11658522EA0149901550000000000000
B0520243208894S11658583EA0149201542000000000000
B0520283208944S11658654EA0147801527000000000000
B0520323208990S11658736EA0147101523000000000000
B0520363209035S11658820EA0147101519000000000000
B0520403209078S11658910EA0146001506000000000000
B0520443209120S11659006EA0145201503000000000000
B0520483209162S11659102EA0145301504000000000000
B0520523209202S11659197EA0145101498000000000000
B0520563209244S11659295EA0144301494000000000000
B0521003209286S11659389EA0143801485000000000000
B0521043209327S11659487EA0142901476000000000000
B0521083209366S11659583EA0142301470000000000000
B0521123209405S11659678EA0141601461000000000000
B0521163209445S11659773EA0140901458000000000000
B0521203209483S11659867EA0140601453000000000000
B0521243209518S11659963EA0139501439000000000000
B0521283209553S11700063EA0138301430000000000000
B0521323209587S11700162EA0137901426000000000000
B0521363209613S11700259EA0137701425000000000000
B0521403209635S11700354EA0137901427000000000000
B0521443209653S11700445EA0137901420000000000000
B0521483209673S11700533EA0136801410000000000000
B0521523209689S11700622EA0135901399000000000000
B0521563209705S11700713EA0133701372000000000000
B0522003209728S11700810EA0131301353000000000000
B0522043209748S11700909EA0131201362000000000000
B0522083209767S11700995EA0134401395000000000000
B0522123209780S11701073EA0136101406000000000000
B0522163209795S11701150EA0137101417000000000000
B0522203209832S11701200EA0138201430000000000000
B0522243209869S11701181EA0139801446000000000000
B0522283209850S11701122EA0140601453000000000000
B0522323209785S11701108EA0141601468000000000000
B0522363209733S11701161EA0142601471000000000000
B0522403209733S11701237EA0142801476000000000000
B0522443209774S11701271EA0143601482000000000000
B0522483209819S11701247EA0143901487000000000000
B0522523209824S11701189EA0145101501000000000000
B0522563209767S11701157EA0145601505000000000000
B0523003209694S11701191EA0145401504000000000000
B0523043209625S11701248EA0145401506000000000000
B0523083209578S11701324EA0145601508000000000000
B0523123209566S11701414EA0146401520000000000000
B0523163209590S11701488EA0147501528000000000000
B0523203209629S11701564EA0145201498000000000000
B0523243209673S11701658EA0142701478000000000000
B0523283209717S11701755EA0141701471000000000000
B0523323209763S11701857EA0140801458000000000000
B0523363209806S11701961EA0139701449000000000000
B0523403209847S11702064EA0139401441000000000000
B0523443209887S11702170EA0138001424000000000000
B0523483209928S11702277EA0136701417000000000000
B0523523209967S11702383EA0136701418000000000000
B0523563210002S11702489EA0136901418000000000000
B0524003210038S11702593EA0136301411000000000000
B0524043210077S11702689EA0136201410000000000000
B0524083210118S11702788EA0135001397000000000000
B0524123210160S11702888EA0134501391000000000000
B0524163210203S11702988EA0133701378000000000000
B0524203210249S11703089EA0132401367000000000000
B0524243210294S11703191EA0131301356000000000000
B0524283210339S11703292EA0130101346000000000000
B0524323210384S11703392EA0129301334000000000000
B0524363210431S11703492EA0128001324000000000000
B0524403210479S11703592EA0127401316000000000000
B0524443210527S11703690EA0126401304000000000000
B0524483210576S11703780EA0126801320000000000000
B0524523210623S11703860EA0128601333000000000000
B0524563210666S11703936EA0129301329000000000000
B0525003210712S11704019EA0128301324000000000000
B0525043210758S11704099EA0128701325000000000000
B0525083210804S11704184EA0128101324000000000000
B0525123210846S11704263EA0130101343000000000000
B0525163210886S11704337EA0131001345000000000000
B0525203210918S11704426EA0129801334000000000000
B0525243210940S11704524EA0131101359000000000000
B0525283210931S11704617EA0135001397000000000000
B0525323210883S11704670EA0138401429000000000000
B0525363210827S11704657EA0139501436000000000000
B0525403210820S11704599EA0140701456000000000000
B0525443210861S11704592EA0142401468000000000000
B0525483210877S11704658EA0143001475000000000000
B0525523210834S11704714EA0144601493000000000000
B0525563210774S11704729EA0146501512000000000000
B0526003210729S11704697EA0147401524000000000000
B0526043210717S11704638EA0147701525000000000000
B0526083210749S11704593EA0148701543000000000000
B0526123210795S11704617EA0150401557000000000000
B0526163210790S11704688EA0151801572000000000000
B0526203210732S11704717EA0152901578000000000000
B0526243210684S11704675EA0153301586000000000000
B0526283210687S11704619EA0154701601000000000000
B0526323210731S11704602EA0156501621000000000000
B0526363210779S11704628EA0157701632000000000000
B0526403210804S11704697EA0158901644000000000000
B0526443210778S11704769EA0160201662000000000000
B0526483210719S11704781EA0161301667000000000000
B0526523210679S11704727EA0161201668000000000000
B0526563210678S11704658EA0161901680000000000000
B0527003210709S11704601EA0163301691000000000000
B0527043210757S11704569EA0162901677000000000000
B0527083210825S11704593EA0160001642000000000000
B0527123210899S11704660EA0157101618000000000000
B0527163210979S11704732EA0153901591000000000000
B0527203211061S11704809EA0152901585000000000000
B0527243211142S11704886EA0151401569000000000000
B0527283211219S11704961EA0150801567000000000000
B0527323211291S11705037EA0150601564000000000000
B0527363211362S11705108EA0149701552000000000000
B0527403211433S11705176EA0149001546000000000000
B0527443211502S11705238EA0149001552000000000000
B0527483211564S11705297EA0148801537000000000000
B0527523211633S11705355EA0146701516000000000000
B0527563211702S11705415EA0144801497000000000000
B0528003211776S11705473EA0143301483000000000000
B0528043211852S11705528EA0142101472000000000000
B0528083211928S11705584EA0140901461000000000000
B0528123212004S11705640EA0140401457000000000000
B0528163212075S11705694EA0140601459000000000000
B0528203212140S11705748EA0141801473000000000000
B0528243212201S11705798EA0143001483000000000000
B0528283212257S11705843EA0145201508000000000000
B0528323212308S11705883EA0146601514000000000000
B0528363212363S11705923EA0146801518000000000000
B0528403212415S11705962EA0148601542000000000000
B0528443212460S11705954EA0150601560000000000000
B0528483212447S11705896EA0151301566000000000000
B0528523212374S11705889EA0150701563000000000000
B0528563212315S11705953EA0151701574000000000000
B0529003212281S11706036EA0152301580000000000000
B0529043212281S11706122EA0154401604000000000000
B0529083212325S11706155EA0157001625000000000000
B0529123212361S11706121EA0156701619000000000000
B0529163212360S11706055EA0156401618000000000000
B0529203212299S11706023EA0156601619000000000000
B0529243212246S11706083EA0156401622000000000000
B0529283212242S11706175EA0156701626000000000000
B0529323212259S11706274EA0155901609000000000000
B0529363212283S11706378EA0154001597000000000000
B0529403212312S11706485EA0154001603000000000000
B0529443212339S11706590EA0153101584000000000000
B0529483212370S11706705EA0150501564000000000000
B0529523212404S11706812EA0151601584000000000000
B0529563212435S11706913EA0153601601000000000000
B0530003212464S11707011EA0154701606000000000000
B0530043212494S11707114EA0155001613000000000000
B0530083212521S11707212EA0156701626000000000000
B0530123212550S11707308EA0156701622000000000000
B0530163212576S11707410EA0156301622000000000000
B0530203212602S11707517EA0155701607000000000000
B0530243212629S11707634EA0154001601000000000000
B0530283212655S11707748EA0155101609000000000000
B0530323212680S11707864EA0154401591000000000000
B0530363212705S11707990EA0151801565000000000000
B0530403212729S11708118EA0150701566000000000000
B0530443212753S11708241EA0150201556000000000000
B0530483212773S11708361EA0149401550000000000000
B0530523212797S11708479EA0148001531000000000000
B0530563212823S11708601EA0146501520000000000000
B0531003212850S11708718EA0146801522000000000000
B0531043212875S11708833EA0146501518000000000000
B0531083212898S11708942EA0146801534000000000000
B0531123212919S11709039EA0149301553000000000000
B0531163212937S11709133EA0150801568000000000000
B0531203212955S11709221EA0151801571000000000000
B0531243212976S11709312EA0150901559000000000000
B0531283213002S11709414EA0149001537000000000000
B0531323213030S11709516EA0149201544000000000000
B0531363213056S11709619EA0148701536000000000000
B0531403213084S11709723EA0147901530000000000000
B0531443213119S11709830EA0147001521000000000000
B0531483213158S11709929EA0147201527000000000000
B0531523213197S11710025EA0146601514000000000000
B0531563213241S11710117EA0145601501000000000000
B0532003213295S11710208EA0143601482000000000000
B0532043213358S11710290EA0142201472000000000000
B0532083213429S11710361EA0141901470000000000000
B0532123213499S11710425EA0141301462000000000000
B0532163213572S11710489EA0139801446000000000000
B0532203213646S11710551EA0138401431000000000000
B0532243213720S11710610EA0137601422000000000000
B0532283213794S11710666EA0137301422000000000000
B0532323213864S11710719EA0137501421000000000000
B0532363213934S11710770EA0137601423000000000000
B0532403214005S11710816EA0137901422000000000000
B0532443214080S11710863EA0137401420000000000000
B0532483214153S11710911EA0138201427000000000000
B0532523214228S11710957EA0137201412000000000000
B0532563214306S11711008EA0135101395000000000000
B0533003214383S11711060EA0134401385000000000000
B0533043214457S11711113EA0133401379000000000000
B0533083214532S11711167EA0132901371000000000000
B0533123214608S11711223EA0132001362000000000000
B0533163214683S11711278EA0131401359000000000000
B0533203214755S11711335EA0131501362000000000000
B0533243214824S11711391EA0131401354000000000000
B0533283214892S11711446EA0130301346000000000000
B0533323214961S11711502EA0130101343000000000000
B0533363215029S11711556EA0129601338000000000000
B0533403215094S11711609EA0129501333000000000000
B0533443215159S11711663EA0128501320000000000000
B0533483215224S11711717EA0127201306000000000000
B0533523215289S11711768EA0127101312000000000000
B0533563215350S11711811EA0128201318000000000000
B0534003215411S11711851EA0128701326000000000000
B0534043215470S11711886EA0129701332000000000000
B0534083215527S11711925EA0129101322000000000000
B0534123215583S11711967EA0129201326000000000000
B0534163215636S11712009EA0129101322000000000000
B0534203215689S11712055EA0128801320000000000000
B0534243215743S11712107EA0128301314000000000000
B0534283215796S11712161EA0128301319000000000000
B0534323215848S11712211EA0129401331000000000000
B0534363215899S11712266EA0130701339000000000000
B0534403215952S11712308EA0131101347000000000000
B0534443215977S11712266EA0132701362000000000000
B0534483215929S11712213EA0133301368000000000000
B0534523215848S11712217EA0134001379000000000000
B0534563215787S11712271EA0135401392000000000000
B0535003215789S11712353EA0135701392000000000000
B0535043215838S11712383EA0136501402000000000000
B0535083215858S11712343EA0137301408000000000000
B0535123215818S11712289EA0137001407000000000000
B0535163215745S11712258EA0137201411000000000000
B0535203215663S11712267EA0137801421000000000000
B0535243215598S11712326EA0138401425000000000000
B0535283215575S11712413EA0138701424000000000000
B0535323215602S11712493EA0137901416000000000000
B0535363215645S11712562EA0138301426000000000000
B0535403215693S11712631EA0138201417000000000000
B0535443215756S11712699EA0135901401000000000000
B0535483215823S11712764EA0135501398000000000000
B0535523215893S11712825EA0134501384000000000000
B0535563215966S11712889EA0133001375000000000000
B0536003216036S11712951EA0132001359000000000000
B0536043216109S11713013EA0130201333000000000000
B0536083216185S11713075EA0128201315000000000000
B0536123216260S11713132EA0127001306000000000000
B0536163216333S11713186EA0126301302000000000000
B0536203216402S11713238EA0126301300000000000000
B0536243216469S11713290EA0125601288000000000000
B0536283216538S11713345EA0124101275000000000000
B0536323216610S11713401EA0123401270000000000000
B0536363216683S11713455EA0123301269000000000000
B0536403216754S11713510EA0123201269000000000000
B0536443216826S11713565EA0123501275000000000000
B0536483216894S11713618EA0124901290000000000000
B0536523216961S11713662EA0126501304000000000000
B0536563217022S11713666EA0128301320000000000000
B0537003217079S11713658EA0129201329000000000000
B0537043217132S11713654EA0130101337000000000000
B0537083217187S11713649EA0129101318000000000000
B0537123217253S11713665EA0126401293000000000000
B0537163217327S11713706EA0125301284000000000000
B0537203217398S11713760EA0125001283000000000000
B0537243217464S11713817EA0124601280000000000000
B0537283217525S11713881EA0124601285000000000000
B0537323217581S11713946EA0126201306000000000000
B0537363217638S11713979EA0128601324000000000000
B0537403217695S11713981EA0128901324000000000000
B0537443217756S11713992EA0128801322000000000000
B0537483217817S11714025EA0128601318000000000000
B0537523217876S11714076EA0129001329000000000000
B0537563217932S11714118EA0130801352000000000000
B0538003217975S11714096EA0133101374000000000000
B0538043217940S11714048EA0135001389000000000000
B0538083217867S11714064EA0135501391000000000000
B0538123217817S11714138EA0135601397000000000000
B0538163217816S11714220EA0137201416000000000000
B0538203217849S11714268EA0138601424000000000000
B0538243217888S11714255EA0139001425000000000000
B0538283217875S11714194EA0138901431000000000000
B0538323217808S11714165EA0140101446000000000000
B0538363217734S11714191EA0141501460000000000000
B0538403217682S11714260EA0142301466000000000000
B0538443217682S11714342EA0143101473000000000000
B0538483217712S11714411EA0141301449000000000000
B0538523217764S11714484EA0138901426000000000000
B0538563217823S11714562EA0138201428000000000000
B0539003217882S11714641EA0138101427000000000000
B0539043217942S11714719EA0138201425000000000000
B0539083218003S11714802EA0136401406000000000000
B0539123218063S11714887EA0135601399000000000000
B0539163218122S11714973EA0134101381000000000000
B0539203218183S11715056EA0132701368000000000000
B0539243218244S11715136EA0131601355000000000000
B0539283218304S11715218EA0131201355000000000000
B0539323218354S11715292EA0132201364000000000000
B0539363218405S11715365EA0131301345000000000000
B0539403218460S11715439EA0130601345000000000000
B0539443218512S11715509EA0131101353000000000000
B0539483218560S11715578EA0131801355000000000000
B0539523218607S11715649EA0132001359000000000000
B0539563218651S11715719EA0133301374000000000000
B0540003218699S11715771EA0135501395000000000000
B0540043218750S11715771EA0137501411000000000000
B0540083218760S11715711EA0138301421000000000000
B0540123218709S11715668EA0139501439000000000000
B0540163218644S11715699EA0141301455000000000000
B0540203218625S11715776EA0142801472000000000000
B0540243218659S11715823EA0144301487000000000000
B0540283218700S11715805EA0145101491000000000000
B0540323218701S11715741EA0145501499000000000000
B0540363218647S11715702EA0147001519000000000000
B0540403218581S11715734EA0148701533000000000000
B0540443218565S11715811EA0150001554000000000000
B0540483218603S11715838EA0152201570000000000000
B0540523218635S11715802EA0152901572000000000000
B0540563218614S11715738EA0153201588000000000000
B0541003218545S11715729EA0155801612000000000000
B0541043218500S11715793EA0157301625000000000000
B0541083218519S11715858EA0159001642000000000000
B0541123218564S11715854EA0160501656000000000000
B0541163218569S11715799EA0161201669000000000000
B0541203218519S11715758EA0163601696000000000000
B0541243218454S11715777EA0164701701000000000000
B0541283218426S11715850EA0165701715000000000000
B0541323218458S11715899EA0167501734000000000000
B0541363218496S11715875EA0168701746000000000000
B0541403218473S11715815EA0170501766000000000000
B0541443218401S11715805EA0171801777000000000000
B0541483218352S11715866EA0172501791000000000000
B0541523218363S11715935EA0174101806000000000000
B0541563218409S11715945EA0175701819000000000000
B0542003218427S11715892EA0176601832000000000000
B0542043218382S11715841EA0178901857000000000000
B0542083218315S11715859EA0179701861000000000000
B0542123218284S11715929EA0180501872000000000000
B0542163218297S11716003EA0181001871000000000000
B0542203218323S11716088EA0178601841000000000000
B0542243218365S11716189EA0175701820000000000000
B0542283218409S11716292EA0175401821000000000000
B0542323218454S11716397EA0174501811000000000000
B0542363218501S11716504EA0173501798000000000000
B0542403218552S11716609EA0171801775000000000000
B0542443218603S11716716EA0170501771000000000000
B0542483218648S11716820EA0170801778000000000000
B0542523218692S11716919EA0171501783000000000000
B0542563218733S11717014EA0171601779000000000000
B0543003218777S11717107EA0170801768000000000000
B0543043218821S11717202EA0169701759000000000000
B0543083218865S11717298EA0168901750000000000000
B0543123218907S11717391EA0168501747000000000000
B0543163218950S11717483EA0168101741000000000000
B0543203218990S11717573EA0167901739000000000000
B0543243219025S11717657EA0168501749000000000000
B0543283219058S11717735EA0169301750000000000000
B0543323219088S11717814EA0168601741000000000000
B0543363219117S11717898EA0168101738000000000000
B0543403219149S11717981EA0167701734000000000000
B0543443219184S11718067EA0166701721000000000000
B0543483219220S11718156EA0165701718000000000000
B0543523219253S11718246EA0165601712000000000000
B0543563219286S11718337EA0164201698000000000000
B0544003219322S11718432EA0162901682000000000000
B0544043219355S11718527EA0161601673000000000000
B0544083219393S11718619EA0161201665000000000000
B0544123219432S11718711EA0160201656000000000000
B0544163219472S11718804EA0159801655000000000000
B0544203219511S11718891EA0161701662000000000000
B0544243219549S11718974EA0160801660000000000000
B0544283219585S11719057EA0160101652000000000000
B0544323219626S11719140EA0159001641000000000000
B0544363219667S11719220EA0158601637000000000000
B0544403219710S11719296EA0157201615000000000000
B0544443219758S11719376EA0154901598000000000000
B0544483219801S11719451EA0154801601000000000000
B0544523219840S11719525EA0154801594000000000000
B0544563219879S11719603EA0153801586000000000000
B0545003219918S11719679EA0154401595000000000000
B0545043219952S11719749EA0155701613000000000000
B0545083219985S11719811EA0157401628000000000000
B0545123220017S11719875EA0158401635000000000000
B0545163220052S11719937EA0158701634000000000000
B0545203220092S11719998EA0157301613000000000000
B0545243220146S11720067EA0153801578000000000000
B0545283220211S11720141EA0151101563000000000000
B0545323220274S11720213EA0150801559000000000000
B0545363220341S11720282EA0149901549000000000000
B0545403220406S11720348EA0149601549000000000000
B0545443220469S11720413EA0149501546000000000000
B0545483220532S11720478EA0148601536000000000000
B0545523220597S11720543EA0147101522000000000000
B0545563220663S11720605EA0146501515000000000000
B0546003220727S11720668EA0145901510000000000000
B0546043220791S11720729EA0144901499000000000000
B0546083220854S11720794EA0143801488000000000000
B0546123220918S11720858EA0142701476000000000000
B0546163220979S11720919EA0141901468000000000000
B0546203221041S11720977EA0141201462000000000000
B0546243221106S11721031EA0140301453000000000000
B0546283221169S11721081EA0140701462000000000000
B0546323221225S11721127EA0141301464000000000000
B0546363221281S11721172EA0141301464000000000000
B0546403221337S11721215EA0141701467000000000000
B0546443221391S11721261EA0141801469000000000000
B0546483221446S11721304EA0141901468000000000000
B0546523221502S11721345EA0142701481000000000000
B0546563221535S11721415EA0144401503000000000000
B0547003221495S11721487EA0147301533000000000000
B0547043221429S11721484EA0148901544000000000000
B0547083221409S11721427EA0149301550000000000000
B0547123221450S11721421EA0150901568000000000000
B0547163221459S11721493EA0152501584000000000000
B0547203221404S11721554EA0154201598000000000000
B0547243221337S11721543EA0155401610000000000000
B0547283221317S11721479EA0156401625000000000000
B0547323221351S11721452EA0158901649000000000000
B0547363221382S11721495EA0159901662000000000000
B0547403221376S11721571EA0161101672000000000000
B0547443221317S11721631EA0161901683000000000000
B0547483221244S11721625EA0162601685000000000000
B0547523221199S11721564EA0163201695000000000000
B0547563221205S11721505EA0165001717000000000000
B0548003221246S11721488EA0166401721000000000000
B0548043221287S11721530EA0166401728000000000000
B0548083221291S11721610EA0168301748000000000000
B0548123221264S11721690EA0169701761000000000000
B0548163221209S11721746EA0170601771000000000000
B0548203221147S11721727EA0171601782000000000000
B0548243221125S11721670EA0171701779000000000000
B0548283221148S11721618EA0172001782000000000000
B0548323221194S11721583EA0172301791000000000000
B0548363221244S11721569EA0173801807000000000000
B0548403221290S11721603EA0175601826000000000000
B0548443221311S11721670EA0177001832000000000000
B0548483221331S11721753EA0174901806000000000000
B0548523221372S11721851EA0172401785000000000000
B0548563221421S11721956EA0170901775000000000000
B0549003221474S11722064EA0170501772000000000000
B0549043221529S11722172EA0170201770000000000000
B0549083221582S11722279EA0169901765000000000000
B0549123221633S11722385EA0169301756000000000000
B0549163221685S11722492EA0168201741000000000000
B0549203221734S11722597EA0167001732000000000000
B0549243221785S11722698EA0166201726000000000000
B0549283221833S11722799EA0165501715000000000000
B0549323221880S11722899EA0164001699000000000000
B0549363221931S11723000EA0162501683000000000000
B0549403221983S11723099EA0161501677000000000000
B0549443222035S11723195EA0160901668000000000000
B0549483222087S11723287EA0160201660000000000000
B0549523222135S11723377EA0159601649000000000000
B0549563222184S11723469EA0158401630000000000000
B0550003222234S11723556EA0157701629000000000000
B0550043222282S11723644EA0157301623000000000000
B0550083222328S11723732EA0156801618000000000000
B0550123222375S11723823EA0156001609000000000000
B0550163222418S11723905EA0157601638000000000000
B0550203222451S11723970EA0160801662000000000000
B0550243222482S11724030EA0160401649000000000000
B0550283222521S11724101EA0158701635000000000000
B0550323222566S11724178EA0159601654000000000000
B0550363222605S11724245EA0161201664000000000000
B0550403222650S11724316EA0160901663000000000000
B0550443222695S11724385EA0161801682000000000000
B0550483222741S11724434EA0164401705000000000000
B0550523222786S11724418EA0166501723000000000000
B0550563222768S11724356EA0167001720000000000000
B0551003222695S11724344EA0167301731000000000000
B0551043222642S11724404EA0168201739000000000000
B0551083222630S11724495EA0167901734000000000000
B0551123222646S11724591EA0167801735000000000000
B0551163222673S11724685EA0167501730000000000000
B0551203222722S11724764EA0167201734000000000000
B0551243222785S11724819EA0169301759000000000000
B0551283222846S11724855EA0171601778000000000000
B0551323222903S11724860EA0173501797000000000000
B0551363222910S11724807EA0175301808000000000000
B0551403222845S11724789EA0174301797000000000000
B0551443222789S11724860EA0174501808000000000000
B0551483222765S11724951EA0176201825000000000000
B0551523222772S11725040EA0176601823000000000000
B0551563222820S11725111EA0173801781000000000000
B0552003222898S11725175EA0169601752000000000000
B0552043222981S11725239EA0168701753000000000000
B0552083223062S11725300EA0169301758000000000000
B0552123223138S11725362EA0169601758000000000000
B0552163223218S11725423EA0168401740000000000000
B0552203223302S11725482EA0166901727000000000000
B0552243223385S11725540EA0165601717000000000000
B0552283223469S11725596EA0165001707000000000000
B0552323223552S11725653EA0163901699000000000000
B0552363223635S11725707EA0163301692000000000000
B0552403223718S11725760EA0162801682000000000000
B0552443223800S11725812EA0161801674000000000000
B0552483223883S11725861EA0160701658000000000000
B0552523223968S11725911EA0159601650000000000000
B0552563224050S11725964EA0158401635000000000000
B0553003224129S11726024EA0156901622000000000000
B0553043224208S11726089EA0155801611000000000000
B0553083224282S11726154EA0155801611000000000000
B0553123224356S11726220EA0155401602000000000000
B0553163224431S11726289EA0154201597000000000000
B0553203224501S11726355EA0154701606000000000000
B0553243224564S11726416EA0155601605000000000000
B0553283224628S11726483EA0153901586000000000000
B0553323224694S11726550EA0152701576000000000000
B0553363224763S11726614EA0152001574000000000000
B0553403224831S11726676EA0152201573000000000000
B0553443224900S11726736EA0151501564000000000000
B0553483224966S11726797EA0152301576000000000000
B0553523225031S11726856EA0152001566000000000000
B0553563225101S11726914EA0151601568000000000000
B0554003225168S11726970EA0152201582000000000000
B0554043225222S11727018EA0155201609000000000000
B0554083225276S11727057EA0157201626000000000000
B0554123225316S11727033EA0159601654000000000000
B0554163225296S11726983EA0161501666000000000000
B0554203225233S11726974EA0161201663000000000000
B0554243225178S11727033EA0161601672000000000000
B0554283225162S11727112EA0162801684000000000000
B0554323225192S11727173EA0162901684000000000000
B0554363225247S11727202EA0163901697000000000000
B0554403225274S11727165EA0166601726000000000000
B0554443225235S11727124EA0168101740000000000000
B0554483225169S11727144EA0169401755000000000000
B0554523225139S11727215EA0170401768000000000000
B0554563225161S11727284EA0171201770000000000000
B0555003225214S11727321EA0171001772000000000000
B0555043225261S11727298EA0172801796000000000000
B0555083225233S11727246EA0174701807000000000000
B0555123225161S11727265EA0175701823000000000000
B0555163225129S11727342EA0177501841000000000000
B0555203225161S11727410EA0178801849000000000000
B0555243225216S11727419EA0179501860000000000000
B0555283225233S11727367EA0181301878000000000000
B0555323225191S11727325EA0182601889000000000000
B0555363225123S11727336EA0182801892000000000000
B0555403225075S11727410EA0183101904000000000000
B0555443225083S11727495EA0184701915000000000000
B0555483225133S11727553EA0184501902000000000000
B0555523225201S11727612EA0181301870000000000000
B0555563225279S11727687EA0178201838000000000000
B0556003225360S11727771EA0175301819000000000000
B0556043225434S11727857EA0173901802000000000000
B0556083225515S11727934EA0172001794000000000000
B0556123225591S11727997EA0173301806000000000000
B0556163225666S11728057EA0174501816000000000000
B0556203225736S11728112EA0174701808000000000000
B0556243225809S11728168EA0174301810000000000000
B0556283225876S11728210EA0177101840000000000000
B0556323225936S11728247EA0179301856000000000000
B0556363225993S11728281EA0178801847000000000000
B0556403226057S11728322EA0177201824000000000000
B0556443226123S11728385EA0175401814000000000000
B0556483226188S11728450EA0175901832000000000000
B0556523226247S11728512EA0177601834000000000000
B0556563226305S11728587EA0175701810000000000000
B0557003226369S11728677EA0174801821000000000000
B0557043226426S11728758EA0179001869000000000000
B0557083226478S11728831EA0180601860000000000000
B0557123226537S11728914EA0176601818000000000000
B0557163226598S11729007EA0174301803000000000000
B0557203226660S11729100EA0173101793000000000000
B0557243226721S11729193EA0172101781000000000000
B0557283226784S11729288EA0171001770000000000000
B0557323226846S11729383EA0170101763000000000000
B0557363226908S11729478EA0169401754000000000000
B0557403226968S11729569EA0169301758000000000000
B0557443227024S11729660EA0169301748000000000000
B0557483227081S11729752EA0167401727000000000000
B0557523227141S11729846EA0166101721000000000000
B0557563227198S11729937EA0165801716000000000000
B0558003227254S11730027EA0165401712000000000000
B0558043227310S11730116EA0164601701000000000000
B0558083227365S11730209EA0163401691000000000000
B0558123227418S11730301EA0163001685000000000000
B0558163227463S11730397EA0162201674000000000000
B0558203227502S11730498EA0160801660000000000000
B0558243227538S11730602EA0160001652000000000000
B0558283227565S11730705EA0159101640000000000000
B0558323227591S11730809EA0158101633000000000000
B0558363227618S11730901EA0158701640000000000000
B0558403227639S11730991EA0159201642000000000000
B0558443227653S11731083EA0158501634000000000000
B0558483227670S11731177EA0158001628000000000000
B0558523227687S11731273EA0157601624000000000000
B0558563227697S11731367EA0158701641000000000000
B0559003227701S11731451EA0160201653000000000000
B0559043227718S11731525EA0161301664000000000000
B0559083227765S11731558EA0161601663000000000000
B0559123227822S11731550EA0160901656000000000000
B0559163227881S11731525EA0160301650000000000000
B0559203227941S11731489EA0159601645000000000000
B0559243227998S11731447EA0160201654000000000000
B0559283228051S11731407EA0161701670000000000000
B0559323228103S11731375EA0163301687000000000000
B0559363228151S11731340EA0164201695000000000000
B0559403228194S11731297EA0165001699000000000000
B0559443228195S11731232EA0165201703000000000000
B0559483228130S11731224EA0165601708000000000000
B0559523228090S11731297EA0165701716000000000000
B0559563228102S11731376EA0166001717000000000000
B0600003228145S11731437EA0166001717000000000000
B0600043228193S11731489EA0166601723000000000000
B0600083228250S11731533EA0165201703000000000000
B0600123228320S11731596EA0161001661000000000000
B0600163228399S11731665EA0158901649000000000000
B0600203228479S11731726EA0158501643000000000000
B0600243228559S11731784EA0157101621000000000000
B0600283228643S11731840EA0155201605000000000000
B0600323228726S11731896EA0153901592000000000000
B0600363228810S11731948EA0152801584000000000000
B0600403228895S11731996EA0152301578000000000000
B0600443228981S11732043EA0151501571000000000000
B0600483229062S11732090EA0151701576000000000000
B0600523229142S11732131EA0152101575000000000000
B0600563229221S11732174EA0151601563000000000000
B0601003229304S11732218EA0149801546000000000000
B0601043229389S11732265EA0148801542000000000000
B0601083229472S11732309EA0148701542000000000000
B0601123229553S11732354EA0148501539000000000000
B0601163229631S11732394EA0149801556000000000000
B0601203229706S11732417EA0151001567000000000000
B0601243229777S11732424EA0151501566000000000000
B0601283229854S11732434EA0149801540000000000000
B0601323229937S11732454EA0147601518000000000000
B0601363230024S11732482EA0145601503000000000000
B0601403230108S11732512EA0144801497000000000000
B0601443230188S11732542EA0144201491000000000000
B0601483230268S11732571EA0144001490000000000000
B0601523230347S11732602EA0142401466000000000000
B0601563230431S11732637EA0140101445000000000000
B0602003230515S11732673EA0138901436000000000000
B0602043230596S11732710EA0138301425000000000000
B0602083230678S11732749EA0136901409000000000000
B0602123230762S11732789EA0135401398000000000000
B0602163230840S11732825EA0135401403000000000000
B0602203230914S11732855EA0135401392000000000000
B0602243230992S11732888EA0133801379000000000000
B0602283231071S11732924EA0133001371000000000000
B0602323231149S11732962EA0132001363000000000000
B0602363231228S11732997EA0131201353000000000000
B0602403231309S11733033EA0130101340000000000000
B0602443231391S11733071EA0129201330000000000000
B0602483231471S11733113EA0127801314000000000000
B0602523231552S11733156EA0127101310000000000000
B0602563231626S11733199EA0127301318000000000000
B0603003231695S11733241EA0128101319000000000000
B0603043231768S11733282EA0126601301000000000000
B0603083231846S11733323EA0125101287000000000000
B0603123231925S11733364EA0124101278000000000000
B0603163232003S11733407EA0123001267000000000000
B0603203232081S11733448EA0121601252000000000000
B0603243232158S11733491EA0120901244000000000000
B0603283232233S11733535EA0120201240000000000000
B0603323232307S11733578EA0119701232000000000000
B0603363232380S11733625EA0118601223000000000000
B0603403232454S11733670EA0118201216000000000000
B0603443232527S11733716EA0117801218000000000000
B0603483232593S11733756EA0118701228000000000000
B0603523232653S11733789EA0119501232000000000000
B0603563232714S11733813EA0119601227000000000000
B0604003232777S11733836EA0118701220000000000000
B0604043232839S11733863EA0117501199000000000000
B0604083232905S11733895EA0115201172000000000000
B0604123232977S11733932EA0113101164000000000000
B0604163233047S11733960EA0113901179000000000000
B0604203233112S11733968EA0116701215000000000000
B0604243233108S11733923EA0120601257000000000000
B0604283233044S11733932EA0122801271000000000000
B0604323233012S11734006EA0123601279000000000000
B0604363233033S11734072EA0125201299000000000000
B0604403233074S11734067EA0126301304000000000000
B0604443233074S11734010EA0126501312000000000000
B0604483233011S11734001EA0129201343000000000000
B0604523232962S11734064EA0130501351000000000000
B0604563232975S11734135EA0131401360000000000000
B0605003233021S11734132EA0131801360000000000000
B0605043233022S11734073EA0132101370000000000000
B0605083232961S11734042EA0134501396000000000000
B0605123232894S11734081EA0136401413000000000000
B0605163232864S11734163EA0137801428000000000000
B0605203232887S11734235EA0139201442000000000000
B0605243232936S11734248EA0139801446000000000000
B0605283232966S11734203EA0139901446000000000000
B0605323232965S11734135EA0140601461000000000000
B0605363232925S11734077EA0142701487000000000000
B0605403232858S11734106EA0145101511000000000000
B0605443232851S11734181EA0147301527000000000000
B0605483232888S11734231EA0147501526000000000000
B0605523232939S11734228EA0148701545000000000000
B0605563232948S11734168EA0150101555000000000000
B0606003232888S11734137EA0151001564000000000000
B0606043232838S11734200EA0152201578000000000000
B0606083232857S11734274EA0152701582000000000000
B0606123232909S11734272EA0154501604000000000000
B0606163232909S11734213EA0155301606000000000000
B0606203232849S11734168EA0155501610000000000000
B0606243232774S11734188EA0157101629000000000000
B0606283232748S11734275EA0158501639000000000000
B0606323232791S11734322EA0159601654000000000000
B0606363232814S11734276EA0161901678000000000000
B0606403232779S11734216EA0162301680000000000000
B0606443232700S11734219EA0163201701000000000000
B0606483232666S11734297EA0165301717000000000000
B0606523232700S11734353EA0166001716000000000000
B0606563232753S11734340EA0166401724000000000000
B0607003232752S11734275EA0167801742000000000000
B0607043232687S11734249EA0169001752000000000000
B0607083232624S11734309EA0170101764000000000000
B0607123232624S11734392EA0171401779000000000000
B0607163232666S11734430EA0172701790000000000000
B0607203232702S11734400EA0174001803000000000000
B0607243232675S11734341EA0173401789000000000000
B0607283232592S11734346EA0172501794000000000000
B0607323232537S11734423EA0174801810000000000000
B0607363232550S11734506EA0174401803000000000000
B0607403232613S11734553EA0173401798000000000000
B0607443232686S11734580EA0173001797000000000000
B0607483232762S11734605EA0173001792000000000000
B0607523232842S11734627EA0171601781000000000000
B0607563232925S11734647EA0169701752000000000000
B0608003233011S11734666EA0168401756000000000000
B0608043233092S11734686EA0169001753000000000000
B0608083233176S11734704EA0167701738000000000000
B0608123233263S11734712EA0166301721000000000000
B0608163233351S11734720EA0165501722000000000000
B0608203233437S11734729EA0166201731000000000000
B0608243233519S11734739EA0166901734000000000000
B0608283233599S11734751EA0166901732000000000000
B0608323233681S11734759EA0166801730000000000000
B0608363233762S11734772EA0166801733000000000000
B0608403233839S11734783EA0168101751000000000000
B0608443233913S11734792EA0168901746000000000000
B0608483233991S11734801EA0167901738000000000000
B0608523234073S11734811EA0167201730000000000000
B0608563234155S11734821EA0166501726000000000000
B0609003234234S11734835EA0165901717000000000000
B0609043234320S11734870EA0162801686000000000000
B0609083234407S11734934EA0161701684000000000000
B0609123234483S11735015EA0162601696000000000000
B0609163234552S11735104EA0163401700000000000000
B0609203234613S11735201EA0163301693000000000000
B0609243234671S11735302EA0162501684000000000000
B0609283234727S11735402EA0162101685000000000000
B0609323234777S11735498EA0163501697000000000000
B0609363234823S11735592EA0164601710000000000000
B0609403234867S11735676EA0167001732000000000000
B0609443234909S11735757EA0166901723000000000000
B0609483234951S11735841EA0165101702000000000000
B0609523234996S11735932EA0162701679000000000000
B0609563235045S11736026EA0161901675000000000000
B0610003235097S11736118EA0160901660000000000000
B0610043235150S11736211EA0159801650000000000000
B0610083235204S11736299EA0159601647000000000000
B0610123235254S11736391EA0158301629000000000000
B0610163235304S11736488EA0156601613000000000000
B0610203235349S11736585EA0155001598000000000000
B0610243235392S11736684EA0153601583000000000000
B0610283235435S11736783EA0152001565000000000000
B0610323235477S11736883EA0150501556000000000000
B0610363235516S11736980EA0150201552000000000000
B0610403235551S11737076EA0149501540000000000000
B0610443235586S11737174EA0148401533000000000000
B0610483235618S11737269EA0148201532000000000000
B0610523235647S11737357EA0148301529000000000000
B0610563235663S11737450EA0147701521000000000000
B0611003235647S11737541EA0147401518000000000000
B0611043235604S11737621EA0146601508000000000000
B0611083235540S11737689EA0145001490000000000000
B0611123235461S11737742EA0143601469000000000000
B0611163235370S11737778EA0141401452000000000000
B0611203235278S11737821EA0139701437000000000000
B0611243235187S11737872EA0138301424000000000000
B0611283235100S11737929EA0137101412000000000000
B0611323235015S11737986EA0136301402000000000000
B0611363234931S11738046EA0135601397000000000000
B0611403234849S11738107EA0135401394000000000000
B0611443234768S11738170EA0135301395000000000000
B0611483234688S11738232EA0135901405000000000000
B0611523234610S11738289EA0136701412000000000000
B0611563234533S11738344EA0137701420000000000000
B0612003234457S11738400EA0137101406000000000000
B0612043234378S11738464EA0135601392000000000000
B0612083234299S11738531EA0134601384000000000000
B0612123234222S11738600EA0134201383000000000000
B0612163234147S11738666EA0133701378000000000000
B0612203234074S11738729EA0133301371000000000000
B0612243234002S11738790EA0132501361000000000000
B0612283233928S11738852EA0131501349000000000000
B0612323233850S11738913EA0130501341000000000000
B0612363233772S11738972EA0130401343000000000000
B0612403233696S11739029EA0130501344000000000000
B0612443233619S11739076EA0130901347000000000000
B0612483233540S11739082EA0131101347000000000000
B0612523233467S11739067EA0130601340000000000000
B0612563233393S11739049EA0130201340000000000000
B0613003233320S11739034EA0130501340000000000000
B0613043233243S11739045EA0130901347000000000000
B0613083233182S11739107EA0131801363000000000000
B0613123233193S11739179EA0134501392000000000000
B0613163233237S11739173EA0136501410000000000000
B0613203233226S11739114EA0137801422000000000000
B0613243233160S11739097EA0139201437000000000000
B0613283233116S11739160EA0140601456000000000000
B0613323233137S11739220EA0142801475000000000000
B0613363233182S11739216EA0143901485000000000000
B0613403233191S11739159EA0145501505000000000000
B0613443233142S11739120EA0147101519000000000000
B0613483233076S11739155EA0147301520000000000000
B0613523233057S11739237EA0148201539000000000000
B0613563233094S11739286EA0150401563000000000000
B0614003233133S11739260EA0152301577000000000000
B0614043233116S11739198EA0153301590000000000000
B0614083233050S11739189EA0155201611000000000000
B0614123233001S11739249EA0156401620000000000000
B0614163233013S11739320EA0157701642000000000000
B0614203233059S11739338EA0160301666000000000000
B0614243233090S11739299EA0161701675000000000000
B0614283233072S11739236EA0162001680000000000000
B0614323233005S11739212EA0162801693000000000000
B0614363232947S11739264EA0164401704000000000000
B0614403232947S11739340EA0165101718000000000000
B0614443232994S11739363EA0167401741000000000000
B0614483233026S11739323EA0169401758000000000000
B0614523233007S11739260EA0170201764000000000000
B0614563232943S11739254EA0171601785000000000000
B0615003232895S11739315EA0172101786000000000000
B0615043232909S11739383EA0173601808000000000000
B0615083232952S11739384EA0175501824000000000000
B0615123232966S11739331EA0176401831000000000000
B0615163232933S11739276EA0177301840000000000000
B0615203232868S11739262EA0177901842000000000000
B0615243232797S11739298EA0177701839000000000000
B0615283232762S11739371EA0177901846000000000000
B0615323232784S11739437EA0178801859000000000000
B0615363232825S11739493EA0180101873000000000000
B0615403232874S11739507EA0182201895000000000000
B0615443232907S11739465EA0183501904000000000000
B0615483232894S11739400EA0184201911000000000000
B0615523232839S11739355EA0183901904000000000000
B0615563232762S11739315EA0181801878000000000000
B0616003232676S11739268EA0179801863000000000000
B0616043232585S11739218EA0178101846000000000000
B0616083232492S11739164EA0176601828000000000000
B0616123232398S11739108EA0175101815000000000000
B0616163232307S11739055EA0174701816000000000000
B0616203232219S11739004EA0174501807000000000000
B0616243232130S11738952EA0173301796000000000000
B0616283232043S11738902EA0173001794000000000000
B0616323231959S11738852EA0173301795000000000000
B0616363231876S11738802EA0172801794000000000000
B0616403231795S11738753EA0173801804000000000000
B0616443231717S11738707EA0174501808000000000000
B0616483231639S11738661EA0174301802000000000000
B0616523231557S11738616EA0173301797000000000000
B0616563231478S11738571EA0173301794000000000000
B0617003231399S11738526EA0172101771000000000000
B0617043231310S11738478EA0169901756000000000000
B0617083231220S11738427EA0169601765000000000000
B0617123231144S11738391EA0173601813000000000000
B0617163231077S11738363EA0175801819000000000000
B0617203231006S11738330EA0174701805000000000000
B0617243230928S11738296EA0173901802000000000000
B0617283230850S11738262EA0174301805000000000000
B0617323230769S11738227EA0172501778000000000000
B0617363230681S11738183EA0171201767000000000000
B0617403230589S11738137EA0170401760000000000000
B0617443230499S11738090EA0171101783000000000000
B0617483230418S11738046EA0174001802000000000000
B0617523230339S11738003EA0174501798000000000000
B0617563230255S11737960EA0172801778000000000000
B0618003230165S11737910EA0170801762000000000000
B0618043230074S11737859EA0169701751000000000000
B0618083229982S11737807EA0168301736000000000000
B0618123229891S11737758EA0167501732000000000000
B0618163229800S11737711EA0167101726000000000000
B0618203229709S11737669EA0166401723000000000000
B0618243229623S11737635EA0167701743000000000000
B0618283229545S11737606EA0169301742000000000000
B0618323229463S11737574EA0166901718000000000000
B0618363229378S11737535EA0165901716000000000000
B0618403229294S11737496EA0165401707000000000000
B0618443229211S11737457EA0164201694000000000000
B0618483229126S11737416EA0163501690000000000000
B0618523229042S11737378EA0163701691000000000000
B0618563228957S11737338EA0162101667000000000000
B0619003228865S11737288EA0161201667000000000000
B0619043228780S11737244EA0162301682000000000000
B0619083228698S11737205EA0162801685000000000000
B0619123228624S11737170EA0164901719000000000000
B0619163228563S11737138EA0168101742000000000000
B0619203228500S11737106EA0168501740000000000000
B0619243228436S11737066EA0169001751000000000000
B0619283228414S11736996EA0170201759000000000000
B0619323228425S11736927EA0170801759000000000000
B0619363228397S11736857EA0168401729000000000000
B0619403228315S11736806EA0164401698000000000000
B0619443228220S11736761EA0162501685000000000000
B0619483228121S11736716EA0161201671000000000000
B0619523228026S11736671EA0161201672000000000000
B0619563227930S11736627EA0160301656000000000000
B0620003227835S11736580EA0160701665000000000000
B0620043227744S11736540EA0161101674000000000000
B0620083227660S11736502EA0162301681000000000000
B0620123227575S11736467EA0162501675000000000000
B0620163227489S11736428EA0161701671000000000000
B0620203227401S11736391EA0162001677000000000000
B0620243227318S11736356EA0163101686000000000000
B0620283227235S11736320EA0162201672000000000000
B0620323227150S11736283EA0161501665000000000000
B0620363227066S11736246EA0160501655000000000000
B0620403226982S11736211EA0160101651000000000000
B0620443226898S11736178EA0159501640000000000000
B0620483226810S11736139EA0158001622000000000000
B0620523226719S11736098EA0156801616000000000000
B0620563226629S11736056EA0156201604000000000000
B0621003226535S11736013EA0154301588000000000000
B0621043226440S11735969EA0152901577000000000000
B0621083226345S11735927EA0152501574000000000000
B0621123226252S11735886EA0151201558000000000000
B0621163226157S11735840EA0150101547000000000000
B0621203226067S11735789EA0149201541000000000000
B0621243225979S11735736EA0148601535000000000000
B0621283225893S11735682EA0148201531000000000000
B0621323225810S11735623EA0148201534000000000000
B0621363225728S11735568EA0149001545000000000000
B0621403225650S11735515EA0149601549000000000000
B0621443225573S11735462EA0150101550000000000000
B0621483225500S11735409EA0149901544000000000000
B0621523225424S11735353EA0148301525000000000000
B0621563225344S11735293EA0146701517000000000000
B0622003225273S11735240EA0148001539000000000000
B0622043225207S11735189EA0148801532000000000000
B0622083225131S11735138EA0146201504000000000000
B0622123225045S11735094EA0144001482000000000000
B0622163224957S11735050EA0142001466000000000000
B0622203224867S11735009EA0141001455000000000000
B0622243224779S11734969EA0140101446000000000000
B0622283224692S11734930EA0139501439000000000000
B0622323224609S11734887EA0139001433000000000000
B0622363224524S11734847EA0138301426000000000000
B0622403224440S11734807EA0137901422000000000000
B0622443224355S11734768EA0137301409000000000000
B0622483224265S11734726EA0135201387000000000000
B0622523224174S11734682EA0133201369000000000000
B0622563224083S11734638EA0131901354000000000000
B0623003223991S11734590EA0129901337000000000000
B0623043223900S11734539EA0129801339000000000000
B0623083223813S11734499EA0131501362000000000000
B0623123223731S11734462EA0132801365000000000000
B0623163223643S11734428EA0131901360000000000000
B0623203223550S11734397EA0132301371000000000000
B0623243223470S11734376EA0135101414000000000000
B0623283223398S11734384EA0139101441000000000000
B0623323223363S11734456EA0140501449000000000000
B0623363223394S11734515EA0141401463000000000000
B0623403223431S11734492EA0143601493000000000000
B0623443223415S11734440EA0146101513000000000000
B0623483223353S11734423EA0147401522000000000000
B0623523223296S11734478EA0147701526000000000000
B0623563223298S11734564EA0148701540000000000000
B0624003223344S11734595EA0150701561000000000000
B0624043223355S11734549EA0152801583000000000000
B0624083223305S11734515EA0155001604000000000000
B0624123223240S11734552EA0156401619000000000000
B0624163223224S11734636EA0157701628000000000000
B0624203223264S11734691EA0158001639000000000000
B0624243223314S11734684EA0159901659000000000000
B0624283223320S11734631EA0161101669000000000000
B0624323223272S11734582EA0161801678000000000000
B0624363223203S11734580EA0163601703000000000000
B0624403223162S11734648EA0165501715000000000000
B0624443223186S11734721EA0166501727000000000000
B0624483223235S11734726EA0168301744000000000000
B0624523223246S11734678EA0169701757000000000000
B0624563223201S11734634EA0170701768000000000000
B0625003223132S11734647EA0172001782000000000000
B0625043223082S11734718EA0172901789000000000000
B0625083223080S11734811EA0173501797000000000000
B0625123223123S11734865EA0174701806000000000000
B0625163223170S11734843EA0174801807000000000000
B0625203223184S11734782EA0175301820000000000000
B0625243223140S11734734EA0176601831000000000000
B0625283223071S11734764EA0177601845000000000000
B0625323223054S11734851EA0178701855000000000000
B0625363223099S11734902EA0179901865000000000000
B0625403223142S11734872EA0181101881000000000000
B0625443223129S11734816EA0182101886000000000000
B0625483223066S11734790EA0182101885000000000000
B0625523222986S11734833EA0181201872000000000000
B0625563222891S11734865EA0181001880000000000000
B0626003222798S11734865EA0182101889000000000000
B0626043222703S11734851EA0181101864000000000000
B0626083222596S11734814EA0178401849000000015000
B0626123222499S11734772EA0179801878000000015000
B0626163222419S11734739EA0183701915000000000000
B0626203222345S11734708EA0186001930000000000000
B0626243222273S11734675EA0187901956000000000000
B0626283222197S11734675EA0190801981000000000000
B0626323222156S11734749EA0193002001000000000000
B0626363222180S11734822EA0193702001000000000000
B0626403222239S11734838EA0193902011000000000000
B0626443222270S11734788EA0196302040000000000000
B0626483222243S11734730EA0198402055000000000000
B0626523222172S11734723EA0199502070000000000000
B0626563222137S11734798EA0201702093000000000000
B0627003222169S11734863EA0202802101000000000000
B0627043222222S11734865EA0204302119000000000000
B0627083222232S11734809EA0205302132000000000000
B0627123222176S11734775EA0206802148000000000000
B0627163222114S11734821EA0208402165000000000000
B0627203222096S11734909EA0209902176000000000000
B0627243222135S11734972EA0211102190000000000000
B0627283222184S11734961EA0212302204000000000000
B0627323222202S11734907EA0213402213000000000000
B0627363222169S11734844EA0213902218000000000000
B0627403222096S11734827EA0214602228000000000000
B0627443222042S11734891EA0216302247000000000000
B0627483222057S11734973EA0217802261000000000000
B0627523222111S11734991EA0218702273000000000000
B0627563222137S11734944EA0219702282000000000000
B0628003222107S11734882EA0220102280000000000000
B0628043222039S11734838EA0218702262000000000000
B0628083221945S11734799EA0216002237000000000000
B0628123221841S11734751EA0213802212000000000000
B0628163221730S11734688EA0210602181000000000000
B0628203221617S11734621EA0208102164000000000000
B0628243221503S11734557EA0207402159000000000000
B0628283221391S11734496EA0206902152000000000000
B0628323221279S11734440EA0206102144000000000000
B0628363221170S11734387EA0205802140000000000000
B0628403221061S11734336EA0204902128000000000000
B0628443220954S11734288EA0205002135000000000000
B0628483220850S11734242EA0204602125000000000000
B0628523220745S11734202EA0204302127000000000000
B0628563220648S11734162EA0204602123000000000000
B0629003220550S11734120EA0204802126000000000000
B0629043220454S11734081EA0204402120000000000000
B0629083220355S11734041EA0203302102000000000000
B0629123220251S11733999EA0201102084000000000000
B0629163220148S11733959EA0200002074000000000000
B0629203220046S11733919EA0199402064000000000000
B0629243219942S11733880EA0198302053000000000000
B0629283219839S11733845EA0197702052000000000000
B0629323219739S11733810EA0197602047000000000000
B0629363219637S11733773EA0196602036000000000000
B0629403219533S11733737EA0195502024000000000000
B0629443219429S11733700EA0194302016000000000000
B0629483219327S11733668EA0194402020000000000000
B0629523219228S11733642EA0195002026000000000000
B0629563219132S11733613EA0195202023000000000000
B0630003219038S11733578EA0194902021000000000000
B0630043218948S11733537EA0194702016000000000000
B0630083218856S11733494EA0193802008000000000000
B0630123218768S11733446EA0193802011000000000000
B0630163218686S11733388EA0193202001000000000000
B0630203218613S11733321EA0192001989000000000000
B0630243218547S11733241EA0191001980000000000000
B0630283218486S11733157EA0190101970000000000000
B0630323218426S11733071EA0189001960000000000000
B0630363218370S11732981EA0187901950000000000000
B0630403218315S11732892EA0187301942000000000000
B0630443218261S11732803EA0186201933000000000000
B0630483218207S11732714EA0185501925000000000000
B0630523218153S11732625EA0184801920000000000000
B0630563218098S11732539EA0184601915000000000000
B0631003218040S11732455EA0183801905000000000000
B0631043217984S11732368EA0182801895000000000000
B0631083217925S11732278EA0181701885000000000000
B0631123217866S11732191EA0182001895000000000000
B0631163217806S11732112EA0183501908000000000000
B0631203217745S11732034EA0183401901000000000000
B0631243217682S11731953EA0183001903000000000000
B0631283217620S11731876EA0183901911000000000000
B0631323217559S11731804EA0184501914000000000000
B0631363217499S11731730EA0183801906000000000000
B0631403217438S11731652EA0183601907000000000000
B0631443217383S11731571EA0184101913000000000000
B0631483217336S11731494EA0185801932000000000000
B0631523217299S11731420EA0186701937000000000000
B0631563217266S11731346EA0186601931000000000000
B0632003217219S11731268EA0183801895000000000000
B0632043217151S11731184EA0180101864000000000000
B0632083217067S11731103EA0177801844000000000000
B0632123216979S11731030EA0176301832000000000000
B0632163216891S11730961EA0175501824000000000000
B0632203216802S11730896EA0174501810000000000000
B0632243216712S11730833EA0173501807000000000000
B0632283216629S11730773EA0174701826000000000000
B0632323216550S11730717EA0177101847000000000000
B0632363216475S11730667EA0179001867000000000000
B0632403216403S11730621EA0179801863000000000000
B0632443216329S11730573EA0178601852000000000000
B0632483216251S11730521EA0177701843000000000000
B0632523216173S11730469EA0177101842000000000000
B0632563216096S11730420EA0177401840000000000000
B0633003216018S11730371EA0175901821000000000000
B0633043215934S11730316EA0174001804000000000000
B0633083215848S11730259EA0173801810000000000000
B0633123215762S11730206EA0174701818000000000000
B0633163215676S11730155EA0175501826000000000000
B0633203215593S11730107EA0177001849000000000000
B0633243215516S11730067EA0179401867000000000000
B0633283215442S11730028EA0179601861000000000000
B0633323215366S11729989EA0178701854000000000000
B0633363215285S11729945EA0176801829000000000000
B0633403215201S11729893EA0174701810000000000000
B0633443215111S11729839EA0173301801000000000000
B0633483215019S11729787EA0172501794000000000000
B0633523214930S11729738EA0174701826000000000000
B0633563214851S11729692EA0177901856000000000000
B0634003214774S11729653EA0180701885000000000000
B0634043214697S11729629EA0182201893000000000000
B0634083214616S11729599EA0180401859000000000000
B0634123214523S11729549EA0176301827000000000000
B0634163214428S11729496EA0174701817000000000000
B0634203214333S11729442EA0173701808000000000000
B0634243214244S11729387EA0173101800000000000000
B0634283214157S11729331EA0172401793000000000000
B0634323214072S11729275EA0171901791000000000000
B0634363213992S11729221EA0172001788000000000000
B0634403213912S11729163EA0171301779000000000000
B0634443213830S11729106EA0170101763000000000000
B0634483213746S11729049EA0168501750000000000000
B0634523213660S11728993EA0167101735000000000000
B0634563213573S11728944EA0166601735000000000000
B0635003213490S11728897EA0166501729000000000000
B0635043213407S11728853EA0165601719000000000000
B0635083213321S11728810EA0164701711000000000000
B0635123213234S11728772EA0164401709000000000000
B0635163213149S11728736EA0164401706000000000000
B0635203213067S11728698EA0163801702000000000000
B0635243212991S11728654EA0164001709000000000000
B0635283212919S11728610EA0165201719000000000000
B0635323212851S11728563EA0165401715000000000000
B0635363212788S11728507EA0165001711000000000000
B0635403212721S11728444EA0164401706000000000000
B0635443212649S11728386EA0165101722000000000000
B0635483212582S11728335EA0168301757000000000000
B0635523212520S11728294EA0170501773000000000000
B0635563212447S11728275EA0172001787000000000000
B0636003212383S11728333EA0171901777000000000000
B0636043212389S11728421EA0171701783000000000000
B0636083212432S11728455EA0173401802000000000000
B0636123212465S11728430EA0175001816000000000000
B0636163212478S11728379EA0175401819000000000000
B0636203212477S11728316EA0176501832000000000000
B0636243212458S11728255EA0178201849000000000000
B0636283212403S11728210EA0178501845000000000000
B0636323212335S11728165EA0176601826000000000000
B0636363212257S11728118EA0176401841000000000000
B0636403212182S11728075EA0177601842000000000000
B0636443212101S11728035EA0177001834000000000000
B0636483212019S11728000EA0177201840000000000000
B0636523211936S11727970EA0178301853000000000000
B0636563211854S11727945EA0179801868000000000000
B0637003211778S11727924EA0182101894000000000000
B0637043211704S11727931EA0184301910000000000000
B0637083211662S11727996EA0185201918000000000000
B0637123211691S11728053EA0185701926000000000000
B0637163211739S11728049EA0186501939000000000000
B0637203211741S11727991EA0188401957000000000000
B0637243211693S11727943EA0190001974000000000000
B0637283211619S11727949EA0191301980000000000000
B0637323211568S11728013EA0192001989000000000000
B0637363211572S11728084EA0193302003000000000000
B0637403211614S11728122EA0193802004000000000000
B0637443211667S11728140EA0194302011000000000000
B0637483211720S11728136EA0196002031000000000000
B0637523211746S11728090EA0197502046000000000000
