ACAM4N6
HFDTE231021
HFFXA050
HFPLTPILOT:John.Welsh              
HFGTYGLIDERTYPE:HORNET      
HFGIDGLIDERID:VH-GMY      
HFDTM100GPSDATUM:
HFRFWFIRMWAREVERSION:F2.6
HFRHWHARDWAREVERSION:300 Series Version 2
HFFTYFRTYPE:CAMBRIDGE AERO INSTRUMENTS, 302+
HFGPS:GARMIN,LVS-25,12,18000
HFPRSPRESSALTSENSOR:INTERSEMA, MS5534-AP, 20000
I033638FXA3941ENL4247REX
LCAMSBVER:5FWVER:F26300
C231021020954231021000102
C0000000N00000000WTAKEOFF     
C3207550S11656850EBeverley Air
C3301433S11652383EWilliams    
C3258717S11746534ETincurrin   
C3207550S11656850EBeverley Air
C0000000N00000000WLANDING     
B0253013207339S11656856EA0012400203000000000000
B0253033207339S11656856EA0012400203000000000000
B0253053207339S11656856EA0012400203000000000000
B0253073207339S11656856EA0012400203000004000000
B0253093207339S11656856EA0012500203000004000000
B0253113207339S11656856EA0012400203000004000000
B0253133207339S11656856EA0012400203000004000000
B0253153207339S11656856EA0012500203000004000000
B0253173207339S11656856EA0012500203000004000000
B0253193207339S11656856EA0012300203000000000000
B0253213207339S11656856EA0012400203000004000000
B0253233207339S11656856EA0012400203000004000000
B0253253207339S11656856EA0012500203000004000000
B0253273207339S11656856EA0012500203000000000000
B0253293207341S11656857EA0012400203000000000000
B0253303207343S11656860EA0012500203000000000000
B0253343207364S11656878EA0012400202000000000000
B0253383207399S11656905EA0012600201000004000000
B0253423207450S11656938EA0012800201000004000000
B0253463207512S11656977EA0013100205000000000000
B0253503207577S11657020EA0014200219000000000000
B0253543207645S11657068EA0015000224000004000000
B0253583207713S11657114EA0015900236000004000000
B0254023207779S11657161EA0017000262000004000000
B0254063207845S11657208EA0019300280000004000000
B0254103207909S11657248EA0022000315000004000000
B0254143207970S11657285EA0025100345000000015000
B0254183208027S11657322EA0027800368000004015000
B0254223208084S11657361EA0029800391000004000000
B0254263208142S11657397EA0032200419000004000000
B0254303208201S11657426EA0034800445000004000000
B0254343208265S11657460EA0036700458000000000000
B0254383208325S11657497EA0038200476000000000000
B0254423208386S11657534EA0039400484000000000000
B0254463208442S11657585EA0040000491000000000000
B0254503208481S11657650EA0041500508000000000000
B0254543208504S11657725EA0043300524000000000000
B0254583208521S11657802EA0044700537000000000000
B0255023208530S11657883EA0046200555000000000000
B0255063208533S11657963EA0048000574000000000000
B0255103208520S11658040EA0050200596000000000000
B0255143208494S11658110EA0052900622000000000000
B0255183208468S11658183EA0055600650000004000000
B0255223208444S11658257EA0057700669000004000000
B0255263208428S11658334EA0059500689000004000000
B0255303208409S11658414EA0060600697000004000000
B0255343208390S11658491EA0061900715000004000000
B0255383208372S11658567EA0063600740000004000000
B0255423208356S11658642EA0065600754000004000000
B0255463208353S11658719EA0067200773000004000000
B0255503208377S11658789EA0069700801000000000000
B0255543208422S11658849EA0072300821000004000000
B0255583208483S11658872EA0073700823000000000000
B0256023208541S11658829EA0073000812000004000000
B0256063208563S11658750EA0071700798000004015000
B0256103208551S11658668EA0070000781000004015000
B0256143208520S11658591EA0068300766000004000000
B0256183208477S11658524EA0067300759000004000000
B0256223208425S11658468EA0067000759000000000000
B0256263208372S11658422EA0067300762000000000000
B0256303208317S11658386EA0067400760000000000000
B0256343208257S11658366EA0066500749000000000000
B0256383208192S11658349EA0065500742000000000000
B0256423208125S11658330EA0065100736000000000000
B0256463208054S11658308EA0063800724000000000000
B0256503207983S11658286EA0063300722000004000000
B0256543207915S11658268EA0063800727000004000000
B0256583207859S11658288EA0064300733000004000000
B0257023207819S11658330EA0064800738000004000000
B0257063207835S11658382EA0065800749000004000000
B0257103207892S11658365EA0066700758000004000000
B0257143207908S11658288EA0067800768000000000000
B0257183207865S11658243EA0068500773000004015000
B0257223207826S11658265EA0069200780000004015000
B0257263207839S11658312EA0069600781000004015000
B0257303207893S11658313EA0069900790000004015000
B0257343207935S11658256EA0071200805000000015000
B0257383207922S11658183EA0072200809000004015000
B0257423207871S11658161EA0072400811000004015000
B0257463207846S11658203EA0072500813000000015000
B0257503207880S11658243EA0073300821000000015000
B0257543207934S11658225EA0075100841000004015000
B0257583207962S11658162EA0076600852000000015000
B0258023207952S11658088EA0076900855000000015000
B0258063207906S11658052EA0077100859000004015000
B0258103207866S11658073EA0077500865000000015000
B0258143207867S11658122EA0077800868000004015000
B0258183207914S11658147EA0078300876000000015000
B0258223207965S11658106EA0079700890000000015000
B0258263207974S11658028EA0080600895000000015000
B0258303207937S11657970EA0081100902000000015000
B0258343207889S11657975EA0081900907000000015000
B0258383207883S11658026EA0082100912000000015000
B0258423207924S11658060EA0083100927000000015000
B0258463207980S11658034EA0084400935000000015000
B0258503208012S11657959EA0084400931000000015000
B0258543207996S11657875EA0084500936000000015000
B0258583207941S11657835EA0085000943000004015000
B0259023207898S11657867EA0085600946000004015000
B0259063207910S11657923EA0086100952000004015000
B0259103207965S11657928EA0087900969000000015000
B0259143208001S11657867EA0088400965000000015000
B0259183207982S11657790EA0088300972000004015000
B0259223207931S11657762EA0089100980000004015000
B0259263207889S11657789EA0089100978000004015000
B0259303207885S11657845EA0088900979000004015000
B0259343207922S11657888EA0089500987000000015000
B0259383207979S11657888EA0090800999000000015000
B0259423208019S11657833EA0091601003000000015000
B0259463208012S11657758EA0091501002000000015000
B0259503207963S11657720EA0091801006000000015000
B0259543207918S11657738EA0092001009000000015000
B0259583207895S11657784EA0092701017000004015000
B0300023207918S11657831EA0093501026000000015000
B0300063207973S11657832EA0094001027000004015000
B0300103208015S11657774EA0094101028000004015000
B0300143208002S11657694EA0094101029000000015000
B0300183207950S11657658EA0094401035000004015000
B0300223207900S11657675EA0095201042000000015000
B0300263207885S11657727EA0095501047000004015000
B0300303207923S11657772EA0095401045000004015000
B0300343207987S11657758EA0095401051000004015000
B0300383208023S11657688EA0096101056000000015000
B0300423208008S11657608EA0096401058000000015000
B0300463207950S11657575EA0096501060000000015000
B0300503207902S11657603EA0096701061000004015000
B0300543207898S11657668EA0096501060000000015000
B0300583207947S11657714EA0096501063000000030000
B0301023208014S11657701EA0097301074000000030000
B0301063208047S11657627EA0098001079000004015000
B0301103208017S11657547EA0098101080000004015000
B0301143207958S11657525EA0098601088000004030000
B0301183207923S11657564EA0099401091000004015000
B0301223207940S11657618EA0099601091000004015000
B0301263208000S11657633EA0099401092000004015000
B0301303208049S11657581EA0099901099000004015000
B0301343208048S11657499EA0100401102000004015000
B0301383208005S11657438EA0100701102000004015000
B0301423207949S11657438EA0101101107000004015000
B0301463207926S11657488EA0101301105000004015000
B0301503207947S11657546EA0100501100000004015000
B0301543208006S11657560EA0100401102000004015000
B0301583208065S11657516EA0100301100000000015000
B0302023208108S11657446EA0100501102000000015000
B0302063208100S11657361EA0101101105000000015000
B0302103208049S11657315EA0101301112000000015000
B0302143208010S11657343EA0102101116000000015000
B0302183208022S11657398EA0102001116000004015000
B0302223208077S11657410EA0102101118000004015000
B0302263208123S11657356EA0102401118000004015000
B0302303208123S11657272EA0102101116000004015000
B0302343208080S11657209EA0102101116000000015000
B0302383208023S11657205EA0101901110000004015000
B0302423207988S11657251EA0101301107000000015000
B0302463207970S11657309EA0101001103000004000000
B0302503207991S11657365EA0100501100000004000000
B0302543208048S11657380EA0100501101000000000000
B0302583208103S11657337EA0100601105000000015000
B0303023208116S11657260EA0101001105000000015000
B0303063208075S11657205EA0100801103000000015000
B0303103208030S11657224EA0100601098000000015000
B0303143208031S11657278EA0100101095000000015000
B0303183208080S11657306EA0099701092000004015000
B0303223208140S11657273EA0099701098000000015000
B0303263208181S11657204EA0100201100000000015000
B0303303208181S11657122EA0100401104000000015000
B0303343208140S11657062EA0100301097000000015000
B0303383208083S11657052EA0099701092000000015000
B0303423208045S11657090EA0099301087000000015000
B0303463208019S11657142EA0098201071000000000000
B0303503207993S11657202EA0096901058000000000000
B0303543207973S11657269EA0095801049000000000000
B0303583207973S11657343EA0095301048000000000000
B0304023207982S11657417EA0095801059000000000000
B0304063207989S11657491EA0096901066000000000000
B0304103208035S11657537EA0097101063000000000000
B0304143208091S11657489EA0096501055000000000000
B0304183208084S11657402EA0096101054000000000000
B0304223208048S11657328EA0096401062000000000000
B0304263207996S11657272EA0097301072000004000000
B0304303207940S11657287EA0098301083000000000000
B0304343207958S11657341EA0099401089000000000000
B0304383208008S11657312EA0099701093000000015000
B0304423207993S11657243EA0100401102000000015000
B0304463207936S11657247EA0101001106000000015000
B0304503207923S11657309EA0102001119000000015000
B0304543207965S11657342EA0102301116000000015000
B0304583208009S11657298EA0102201120000000015000
B0305023207993S11657228EA0103101130000004015000
B0305063207936S11657226EA0103901136000000015000
B0305103207928S11657287EA0105101147000000015000
B0305143207974S11657307EA0105901152000000015000
B0305183208008S11657254EA0105901153000000015000
B0305223207980S11657190EA0106601166000000015000
B0305263207924S11657191EA0107901178000000015000
B0305303207911S11657247EA0108801183000004015000
B0305343207958S11657274EA0108801180000004015000
B0305383208000S11657225EA0108701183000004015000
B0305423207991S11657151EA0109501197000004015000
B0305463207936S11657118EA0110401201000004015000
B0305503207896S11657164EA0111101207000004015000
B0305543207923S11657220EA0111301208000004015000
B0305583207979S11657202EA0111201205000000015000
B0306023207993S11657125EA0111301210000000015000
B0306063207947S11657073EA0112501224000004015000
B0306103207892S11657094EA0113301231000004015000
B0306143207885S11657159EA0113801229000004015000
B0306183207934S11657196EA0113201225000004015000
B0306223207987S11657165EA0113301228000004015000
B0306263207995S11657094EA0114001238000004015000
B0306303207949S11657052EA0114901244000000015000
B0306343207921S11657103EA0115501251000000015000
B0306383207960S11657148EA0116201255000000015000
B0306423208010S11657112EA0116501260000000015000
B0306463208008S11657039EA0116701261000000015000
B0306503207953S11657005EA0117301271000000015000
B0306543207909S11657043EA0118201277000000015000
B0306583207926S11657104EA0118501279000000015000
B0307023207984S11657112EA0118401281000004015000
B0307063208025S11657053EA0118701284000000015000
B0307103208012S11656981EA0119101291000000015000
B0307143207960S11656948EA0120001298000004015000
B0307183207921S11656990EA0120401300000004015000
B0307223207940S11657051EA0120601303000000015000
B0307263207997S11657052EA0121201309000000015000
B0307303208023S11656986EA0121401310000000015000
B0307343207997S11656918EA0121501310000004015000
B0307383207939S11656903EA0121701317000000015000
B0307423207896S11656944EA0122301317000000015000
B0307463207904S11657005EA0122001310000000015000
B0307503207960S11657023EA0121501311000004015000
B0307543208005S11656977EA0122001317000004015000
B0307583208010S11656905EA0122201320000004015000
B0308023207974S11656852EA0122501320000004015000
B0308063207923S11656875EA0122501322000004015000
B0308103207922S11656940EA0122201316000000015000
B0308143207975S11656971EA0121801314000004015000
B0308183208025S11656932EA0122201321000000015000
B0308223208028S11656862EA0122601325000000015000
B0308263207988S11656810EA0122901324000004015000
B0308303207930S11656808EA0122801326000000015000
B0308343207889S11656854EA0122701319000000015000
B0308383207901S11656919EA0121801311000000015000
B0308423207962S11656932EA0121001302000000015000
B0308463208004S11656870EA0120801302000000015000
B0308503207993S11656792EA0120601302000000015000
B0308543207962S11656723EA0120601303000000000000
B0308583207908S11656683EA0120601303000000000000
B0309023207856S11656717EA0121001310000004000000
B0309063207883S11656775EA0121301305000004015000
B0309103207944S11656775EA0120401295000004015000
B0309143207979S11656715EA0119801294000004015000
B0309183207952S11656652EA0119501292000004015000
B0309223207893S11656632EA0119501292000004015000
B0309263207833S11656649EA0120101298000004015000
B0309303207771S11656676EA0120201298000004015000
B0309343207707S11656701EA0120901308000004000000
B0309383207683S11656757EA0122101320000004000000
B0309423207729S11656795EA0122801320000004015000
B0309463207788S11656750EA0122001310000004015000
B0309503207788S11656662EA0121701319000004015000
B0309543207748S11656597EA0122801329000004015000
B0309583207692S11656565EA0123601333000000000000
B0310023207659S11656602EA0124201339000004000000
B0310063207696S11656641EA0123801331000004000000
B0310103207759S11656604EA0123301332000004015000
B0310143207781S11656519EA0124301346000000015000
B0310183207742S11656463EA0126101364000004015000
B0310223207697S11656479EA0127301369000004015000
B0310263207702S11656532EA0127701372000000015000
B0310303207757S11656541EA0128201381000004015000
B0310343207793S11656476EA0128901392000000015000
B0310383207766S11656410EA0129901400000000030000
B0310423207710S11656406EA0130301397000000015000
B0310463207685S11656463EA0130101399000000015000
B0310503207718S11656519EA0130301402000000015000
B0310543207780S11656509EA0131201415000000015000
B0310583207810S11656437EA0133101435000000030000
B0311023207784S11656370EA0134301437000000030000
B0311063207724S11656364EA0134101437000000030000
B0311103207696S11656416EA0135001450000000015000
B0311143207722S11656464EA0135701454000000015000
B0311183207779S11656458EA0136001454000004015000
B0311223207815S11656389EA0136501466000004030000
B0311263207784S11656321EA0137901480000004030000
B0311303207728S11656331EA0138801482000000015000
B0311343207716S11656393EA0139201489000000015000
B0311383207762S11656428EA0139601492000004015000
B0311423207817S11656394EA0139901497000004030000
B0311463207823S11656316EA0140901512000004030000
B0311503207771S11656286EA0141901517000004030000
B0311543207742S11656340EA0142701524000004015000
B0311583207788S11656373EA0142901522000004030000
B0312023207833S11656321EA0143001529000004030000
B0312063207817S11656245EA0144001541000004030000
B0312103207761S11656214EA0145101548000004030000
B0312143207702S11656227EA0145201547000000030000
B0312183207645S11656253EA0144501540000000015000
B0312223207590S11656292EA0143901532000000015000
B0312263207538S11656342EA0143201527000000015000
B0312303207494S11656402EA0143001526000000015000
B0312343207471S11656471EA0143001527000000000000
B0312383207475S11656546EA0142301516000000000000
B0312423207490S11656626EA0141801518000000000000
B0312463207512S11656704EA0142301524000000000000
B0312503207542S11656778EA0142101519000000000000
B0312543207577S11656851EA0142001522000000000000
B0312583207622S11656917EA0141701516000000000000
B0313023207689S11656958EA0141201510000004015000
B0313063207771S11656969EA0140101496000004015000
B0313103207857S11656962EA0138201480000004015000
B0313143207945S11656948EA0137601472000004000000
B0313183208034S11656930EA0136901464000004000000
B0313223208123S11656912EA0136101456000004000000
B0313263208212S11656896EA0135701452000004000000
B0313303208300S11656883EA0134901445000004000000
B0313343208389S11656874EA0134401437000004000000
B0313383208477S11656864EA0133501428000004000000
B0313423208568S11656853EA0132501419000004000000
B0313463208659S11656844EA0131701411000004000000
B0313503208749S11656834EA0131101404000004000000
B0313543208837S11656821EA0130501399000004000000
B0313583208925S11656808EA0130001394000000000000
B0314023209013S11656800EA0129301386000000000000
B0314063209100S11656796EA0128801383000000000000
B0314103209185S11656793EA0128501380000000000000
B0314143209269S11656793EA0128201377000000000000
B0314183209351S11656793EA0127801372000000000000
B0314223209432S11656791EA0127201365000000000000
B0314263209514S11656788EA0126401357000000000000
B0314303209596S11656786EA0125401348000000000000
B0314343209678S11656787EA0124401337000000000000
B0314383209760S11656788EA0123801328000004000000
B0314423209842S11656792EA0123001324000000000000
B0314463209923S11656797EA0122601319000004000000
B0314503210003S11656801EA0123401336000000000000
B0314543210075S11656799EA0125401351000004000000
B0314583210144S11656795EA0125701346000000000000
B0315023210219S11656792EA0124101331000000000000
B0315063210300S11656787EA0122901318000000000000
B0315103210381S11656783EA0122001312000000000000
B0315143210466S11656784EA0121301302000000000000
B0315183210549S11656789EA0120301294000000000000
B0315223210631S11656800EA0119401283000000000000
B0315263210714S11656812EA0118901286000000000000
B0315303210794S11656805EA0120201298000004000000
B0315343210866S11656769EA0120001286000000000000
B0315383210944S11656748EA0118401274000000000000
B0315423211028S11656739EA0117201259000000000000
B0315463211112S11656739EA0116201252000000000000
B0315503211195S11656740EA0116201256000000000000
B0315543211277S11656737EA0116401256000000000000
B0315583211358S11656734EA0116101253000000000000
B0316023211441S11656737EA0115701248000004000000
B0316063211523S11656747EA0115001241000004000000
B0316103211603S11656765EA0114901244000004000000
B0316143211683S11656780EA0115601252000004000000
B0316183211756S11656756EA0116601260000004000000
B0316223211787S11656679EA0116901260000000015000
B0316263211749S11656615EA0116901261000000030000
B0316303211689S11656631EA0116501256000004015000
B0316343211663S11656693EA0116601265000004015000
B0316383211642S11656757EA0117101270000004015000
B0316423211640S11656825EA0117301270000004015000
B0316463211684S11656875EA0117101267000004015000
B0316503211752S11656866EA0116701262000004030000
B0316543211795S11656799EA0115701252000004030000
B0316583211813S11656714EA0114801247000000030000
B0317023211819S11656628EA0114301241000000015000
B0317063211800S11656548EA0114101239000000015000
B0317103211748S11656490EA0113701235000000015000
B0317143211680S11656464EA0113501234000004015000
B0317183211620S11656481EA0114101246000004015000
B0317223211609S11656539EA0115101250000000015000
B0317263211650S11656585EA0114601249000004015000
B0317303211706S11656615EA0114601249000004015000
B0317343211765S11656641EA0114401244000004015000
B0317383211830S11656659EA0113601235000004015000
B0317423211899S11656679EA0112501222000004015000
B0317463211970S11656704EA0111301206000004015000
B0317503212044S11656727EA0110001197000004015000
B0317543212116S11656757EA0109201192000004015000
B0317583212185S11656793EA0108701185000004015000
B0318023212253S11656834EA0108001177000004015000
B0318063212322S11656874EA0107101169000004015000
B0318103212395S11656909EA0106401161000004015000
B0318143212472S11656942EA0105301150000000015000
B0318183212550S11656970EA0104201140000000015000
B0318223212630S11656997EA0103501129000000015000
B0318263212711S11657023EA0102401121000000015000
B0318303212792S11657042EA0101901117000000015000
B0318343212871S11657051EA0101501112000000015000
B0318383212950S11657060EA0100801104000000000000
B0318423213027S11657069EA0100001098000000000000
B0318463213104S11657074EA0099501092000000000000
B0318503213182S11657077EA0099101091000000000000
B0318543213257S11657075EA0099201094000000000000
B0318583213330S11657066EA0099701098000000015000
B0319023213399S11657074EA0100001098000000015000
B0319063213453S11657121EA0099501094000000015000
B0319103213486S11657186EA0099301094000000015000
B0319143213499S11657259EA0098901086000000015000
B0319183213514S11657334EA0098401082000000015000
B0319223213542S11657406EA0099301096000000015000
B0319263213594S11657439EA0100701105000004015000
B0319303213631S11657386EA0101101108000000030000
B0319343213604S11657325EA0101201107000000030000
B0319383213548S11657320EA0100701104000000030000
B0319423213513S11657373EA0100901114000000030000
B0319463213550S11657420EA0102301127000000030000
B0319503213600S11657381EA0102701123000000045000
B0319543213589S11657308EA0102201122000000060000
B0319583213538S11657303EA0103301140000000045000
B0320023213533S11657358EA0104601150000000045000
B0320063213586S11657376EA0105001147000004045000
B0320103213626S11657317EA0104701144000004045000
B0320143213609S11657246EA0104901153000000045000
B0320183213559S11657221EA0105301153000004045000
B0320223213520S11657269EA0105501158000004030000
B0320263213544S11657324EA0106801173000004045000
B0320303213599S11657296EA0107801177000004045000
B0320343213594S11657228EA0108101184000004060000
B0320383213543S11657222EA0109301200000004045000
B0320423213531S11657277EA0110201205000004045000
B0320463213578S11657311EA0110801212000000045000
B0320503213635S11657277EA0110801206000000045000
B0320543213638S11657204EA0110801214000000060000
B0320583213586S11657195EA0111501219000000045000
B0321023213577S11657254EA0112401233000004045000
B0321063213628S11657283EA0113101230000004045000
B0321103213677S11657234EA0112801226000004045000
B0321143213647S11657172EA0112801229000004045000
B0321183213595S11657192EA0113501248000000045000
B0321223213592S11657252EA0115301260000000030000
B0321263213635S11657290EA0115701258000004030000
B0321303213693S11657273EA0115201255000000045000
B0321343213724S11657211EA0115001257000000045000
B0321383213733S11657140EA0115301257000000045000
B0321423213698S11657085EA0115001254000000045000
B0321463213643S11657075EA0115301258000000030000
B0321503213625S11657131EA0116301271000000030000
B0321543213678S11657157EA0117101274000000030000
B0321583213733S11657108EA0116801270000000045000
B0322023213738S11657031EA0117101279000000060000
B0322063213702S11656982EA0117601280000000060000
B0322103213651S11656990EA0117501280000000045000
B0322143213613S11657033EA0117001275000000030000
B0322183213605S11657095EA0117401287000000030000
B0322223213655S11657126EA0118301288000000030000
B0322263213708S11657079EA0117401272000004045000
B0322303213694S11657007EA0117301283000004045000
B0322343213638S11656996EA0118301287000004045000
B0322383213605S11657049EA0118401291000000030000
B0322423213639S11657107EA0118901294000000030000
B0322463213704S11657098EA0118701284000004045000
B0322503213735S11657022EA0117601276000000045000
B0322543213711S11656947EA0117701285000000045000
B0322583213660S11656899EA0118001281000000045000
B0323023213599S11656918EA0117301273000000045000
B0323063213555S11656983EA0116701268000000030000
B0323103213516S11657051EA0116701273000004030000
B0323143213479S11657120EA0117201278000000015000
B0323183213442S11657187EA0117501283000004015000
B0323223213436S11657260EA0118801296000000015000
B0323263213500S11657276EA0119901303000004015000
B0323303213534S11657205EA0119901298000004030000
B0323343213495S11657144EA0119601299000000045000
B0323383213435S11657151EA0119801302000004045000
B0323423213426S11657216EA0120501317000000045000
B0323463213485S11657242EA0122001327000000045000
B0323503213537S11657196EA0122501330000004060000
B0323543213524S11657130EA0122901334000004075000
B0323583213474S11657124EA0123101338000000045000
B0324023213455S11657178EA0123601342000000030000
B0324063213501S11657220EA0124501347000000030000
B0324103213561S11657189EA0124301341000000045000
B0324143213565S11657114EA0124501351000000045000
B0324183213517S11657095EA0125301353000000045000
B0324223213487S11657147EA0125101355000000030000
B0324263213470S11657212EA0125501357000000030000
B0324303213501S11657276EA0124601343000000030000
B0324343213573S11657296EA0123301331000000030000
B0324383213651S11657290EA0122001320000000030000
B0324423213730S11657272EA0120301303000000015000
B0324463213810S11657250EA0119101292000000015000
B0324503213891S11657233EA0118101281000000015000
B0324543213975S11657224EA0117401276000004015000
B0324583214057S11657217EA0116701269000004015000
B0325023214140S11657213EA0116101265000004015000
B0325063214222S11657209EA0116001266000004015000
B0325103214301S11657204EA0116601275000004015000
B0325143214363S11657244EA0117901293000000015000
B0325183214365S11657311EA0119801312000004030000
B0325223214318S11657332EA0121101319000004030000
B0325263214274S11657295EA0121601320000004015000
B0325303214255S11657229EA0121601319000004015000
B0325343214267S11657157EA0121501319000000015000
B0325383214301S11657092EA0122101327000000015000
B0325423214352S11657051EA0122701338000004015000
B0325463214405S11657066EA0123901349000000015000
B0325503214411S11657124EA0124801352000000030000
B0325543214367S11657147EA0126001358000000030000
B0325583214327S11657101EA0127501376000000015000
B0326023214335S11657031EA0129101389000000030000
B0326063214383S11656995EA0130301404000000030000
B0326103214434S11657010EA0131101410000000045000
B0326143214457S11657062EA0131501417000004030000
B0326183214435S11657109EA0131401415000000030000
B0326223214382S11657112EA0131701419000000030000
B0326263214353S11657049EA0132701437000000030000
B0326303214382S11656990EA0134601458000000030000
B0326343214432S11656995EA0136101463000004045000
B0326383214447S11657047EA0136201462000004030000
B0326423214411S11657079EA0137201469000004030000
B0326463214363S11657052EA0137801475000000030000
B0326503214349S11656983EA0138201477000000030000
B0326543214389S11656926EA0138701490000000030000
B0326583214441S11656938EA0140201504000004045000
B0327023214454S11656990EA0140601507000004030000
B0327063214417S11657021EA0141301513000004030000
B0327103214366S11656996EA0142201521000004030000
B0327143214344S11656932EA0143101533000000030000
B0327183214357S11656864EA0144001542000000030000
B0327223214406S11656836EA0145001556000000030000
B0327263214449S11656867EA0145901558000004030000
B0327303214448S11656921EA0146701563000000030000
B0327343214413S11656951EA0147601573000004030000
B0327383214363S11656944EA0148001575000004015000
B0327423214318S11656906EA0148401583000000015000
B0327463214302S11656841EA0148601581000004015000
B0327503214330S11656775EA0148601586000004015000
B0327543214382S11656735EA0148801587000004015000
B0327583214445S11656708EA0148701586000004015000
B0328023214514S11656693EA0148901590000004015000
B0328063214584S11656683EA0149201591000000015000
B0328103214656S11656675EA0149001588000004015000
B0328143214729S11656667EA0148801586000004015000
B0328183214805S11656659EA0147901575000004015000
B0328223214886S11656653EA0146801567000000015000
B0328263214968S11656646EA0146201560000000015000
B0328303215052S11656639EA0145201546000000015000
B0328343215138S11656631EA0144301541000004015000
B0328383215223S11656624EA0144101540000000015000
B0328423215307S11656619EA0143401533000000015000
B0328463215393S11656613EA0142501523000000015000
B0328503215480S11656609EA0141601517000000015000
B0328543215566S11656604EA0141101511000000000000
B0328583215652S11656598EA0140501506000000000000
B0329023215737S11656591EA0139701497000000000000
B0329063215825S11656574EA0138901486000000000000
B0329103215912S11656545EA0137901476000000000000
B0329143215997S11656511EA0137101470000000000000
B0329183216083S11656481EA0136601467000000000000
B0329223216169S11656458EA0136401466000000000000
B0329263216252S11656441EA0136101462000000000000
B0329303216334S11656431EA0136101463000004000000
B0329343216416S11656422EA0136401464000004000000
B0329383216497S11656415EA0136101461000000000000
B0329423216576S11656412EA0135801459000000000000
B0329463216654S11656411EA0135601455000000000000
B0329503216731S11656410EA0135301454000004000000
B0329543216807S11656406EA0135001448000004000000
B0329583216884S11656396EA0134301442000000000000
B0330023216962S11656384EA0133801439000000000000
B0330063217039S11656371EA0133001431000000000000
B0330103217118S11656358EA0132601427000000000000
B0330143217196S11656347EA0132401425000000000000
B0330183217274S11656338EA0131901418000000000000
B0330223217355S11656328EA0131001409000000000000
B0330263217438S11656318EA0130001398000000000000
B0330303217521S11656310EA0129301392000000000000
B0330343217604S11656301EA0128301382000000000000
B0330383217689S11656290EA0127501375000000000000
B0330423217771S11656280EA0126801367000000000000
B0330463217854S11656269EA0126001354000000000000
B0330503217938S11656260EA0124901346000004000000
B0330543218020S11656255EA0124201338000000000000
B0330583218102S11656249EA0123101327000000000000
B0331023218184S11656243EA0122001316000000000000
B0331063218266S11656236EA0121001310000000000000
B0331103218347S11656227EA0120201300000000000000
B0331143218428S11656221EA0118901286000000000000
B0331183218512S11656219EA0118101280000000000000
B0331223218594S11656219EA0117101268000004000000
B0331263218677S11656228EA0116101253000000000000
B0331303218760S11656249EA0114801242000004000000
B0331343218843S11656273EA0113501227000000000000
B0331383218926S11656301EA0111901209000000000000
B0331423219010S11656328EA0110601200000004000000
B0331463219090S11656359EA0109701189000000000000
B0331503219168S11656393EA0108901186000000000000
B0331543219245S11656427EA0108601182000000000000
B0331583219324S11656462EA0107901173000000000000
B0332023219403S11656498EA0107101163000000000000
B0332063219485S11656533EA0105901150000000000000
B0332103219569S11656570EA0104501135000000000000
B0332143219652S11656609EA0103101123000000000000
B0332183219735S11656648EA0102101110000000000000
B0332223219817S11656688EA0100701098000000000000
B0332263219899S11656726EA0099601089000000000000
B0332303219981S11656761EA0098901084000000000000
B0332343220060S11656795EA0098401078000004000000
B0332383220137S11656827EA0097801071000004000000
B0332423220215S11656857EA0097001060000004000000
B0332463220293S11656888EA0095501045000004000000
B0332503220371S11656917EA0094201032000004000000
B0332543220449S11656944EA0093501031000004000000
B0332583220525S11656966EA0093601032000004000000
B0333023220602S11656987EA0093901038000000000000
B0333063220676S11657008EA0094701047000004000000
B0333103220744S11657035EA0095501052000000000000
B0333143220807S11657064EA0096101061000000000000
B0333183220875S11657083EA0097301074000000000000
B0333223220935S11657053EA0098501084000000000000
B0333263220931S11656978EA0098901082000004000000
B0333303220876S11656962EA0099501096000004000000
B0333343220857S11657021EA0100601103000004015000
B0333383220900S11657073EA0101301113000000015000
B0333423220965S11657057EA0102501122000000015000
B0333463220995S11656987EA0102601116000004015000
B0333503220960S11656929EA0102501120000004015000
B0333543220923S11656962EA0103201132000000015000
B0333583220945S11657022EA0104201140000000015000
B0334023221001S11657046EA0104501142000000030000
B0334063221066S11657040EA0104101135000000015000
B0334103221139S11657034EA0103201122000000015000
B0334143221213S11657005EA0102301116000004015000
B0334183221259S11656934EA0102201118000000015000
B0334223221260S11656853EA0102101114000000015000
B0334263221209S11656819EA0101401104000000015000
B0334303221155S11656836EA0099901089000000015000
B0334343221097S11656861EA0098001068000004015000
B0334383221048S11656908EA0096501056000000000000
B0334423221012S11656971EA0096301063000000000000
B0334463220979S11657035EA0097401077000000000000
B0334503220948S11657098EA0098201079000000000000
B0334543220956S11657166EA0098201078000000000000
B0334583221012S11657199EA0097901074000004015000
B0335023221071S11657168EA0097401066000004015000
B0335063221126S11657116EA0095501042000004015000
B0335103221187S11657053EA0093001020000004000000
B0335143221249S11656990EA0091201001000004000000
B0335183221318S11656926EA0089700983000004000000
B0335223221387S11656858EA0088100969000004000000
B0335263221460S11656795EA0087000964000004000000
B0335303221534S11656736EA0087000968000004000000
B0335343221611S11656695EA0088000975000004000000
B0335383221678S11656641EA0087900969000004000000
B0335423221745S11656585EA0087500968000004000000
B0335463221810S11656537EA0088000976000004000000
B0335503221875S11656489EA0088900984000004000000
B0335543221912S11656418EA0089000985000004000000
B0335583221880S11656350EA0089200983000004000000
B0336023221824S11656350EA0088900978000004000000
B0336063221768S11656375EA0088000971000004000000
B0336103221719S11656410EA0087400967000000000000
B0336143221711S11656470EA0088200979000000000000
B0336183221743S11656518EA0088300977000000000000
B0336223221805S11656532EA0088000975000000015000
B0336263221875S11656510EA0088200982000000015000
B0336303221920S11656451EA0089400994000004015000
B0336343221897S11656385EA0090200991000000015000
B0336383221840S11656385EA0089800989000000015000
B0336423221807S11656435EA0090100995000000015000
B0336463221829S11656490EA0090801001000000015000
B0336503221892S11656484EA0091301006000004015000
B0336543221899S11656409EA0091701009000000015000
B0336583221849S11656377EA0092101018000004015000
B0337023221812S11656415EA0092901025000004015000
B0337063221831S11656471EA0093501028000004015000
B0337103221885S11656493EA0093801028000000015000
B0337143221938S11656445EA0093601024000000030000
B0337183221938S11656364EA0093501026000000015000
B0337223221892S11656320EA0094101036000000015000
B0337263221857S11656357EA0094901043000000015000
B0337303221894S11656399EA0095601053000004015000
B0337343221948S11656367EA0096801058000004030000
B0337383221950S11656295EA0097001060000004015000
B0337423221903S11656267EA0097501069000000015000
B0337463221876S11656305EA0098201078000004015000
B0337503221911S11656344EA0098601079000004015000
B0337543221968S11656319EA0098901081000004030000
B0337583221984S11656246EA0098901081000000015000
B0338023221945S11656193EA0099301088000004015000
B0338063221896S11656201EA0100001095000000015000
B0338103221894S11656256EA0100401097000004015000
B0338143221948S11656289EA0100401096000000015000
B0338183222007S11656250EA0100701098000000030000
B0338223222010S11656172EA0100701098000000015000
B0338263221959S11656137EA0101001102000004015000
B0338303221910S11656159EA0101401110000000015000
B0338343221909S11656214EA0102301117000000015000
B0338383221962S11656234EA0102601115000000015000
B0338423222014S11656185EA0102701119000004030000
B0338463222010S11656110EA0103301127000004015000
B0338503221964S11656069EA0103901134000004015000
B0338543221920S11656090EA0104201136000004015000
B0338583221924S11656149EA0104201133000000015000
B0339023221980S11656177EA0104001133000000015000
B0339063222037S11656134EA0104501141000000030000
B0339103222040S11656058EA0104901142000000015000
B0339143221992S11656020EA0105101149000000015000
B0339183221940S11656028EA0105601150000000015000
B0339223221892S11656058EA0105601150000004015000
B0339263221884S11656120EA0106401162000004015000
B0339303221940S11656137EA0107201164000004015000
B0339343221989S11656084EA0106401154000004015000
B0339383221990S11656002EA0106001158000004015000
B0339423221962S11655934EA0106701164000004015000
B0339463221910S11655913EA0107301165000000015000
B0339503221870S11655960EA0107201165000000015000
B0339543221901S11656015EA0107801176000004015000
B0339583221961S11655989EA0109301191000000015000
B0340023221966S11655918EA0110201199000004015000
B0340063221916S11655899EA0110901204000004015000
B0340103221888S11655947EA0111001206000004015000
B0340143221927S11655994EA0111601212000000015000
B0340183221988S11655967EA0112301217000004015000
B0340223221997S11655890EA0112301216000004015000
B0340263221948S11655859EA0113301232000004015000
B0340303221916S11655902EA0114001233000004015000
B0340343221953S11655946EA0114801244000000015000
B0340383222003S11655909EA0115701247000000030000
B0340423221988S11655839EA0115701254000004015000
B0340463221935S11655834EA0116801262000000015000
B0340503221923S11655890EA0116901266000004015000
B0340543221976S11655916EA0118201281000004015000
B0340583222027S11655873EA0119301287000004030000
B0341023222035S11655798EA0119501292000000015000
B0341063221989S11655757EA0120401303000000015000
B0341103221946S11655790EA0121201305000000015000
B0341143221959S11655847EA0121501311000000015000
B0341183222018S11655855EA0122001313000000015000
B0341223222057S11655794EA0122401314000000030000
B0341263222032S11655726EA0123001328000000015000
B0341303221980S11655739EA0124201340000004015000
B0341343221981S11655799EA0124801342000004015000
B0341383222037S11655814EA0125601353000004015000
B0341423222078S11655759EA0126301359000004015000
B0341463222055S11655694EA0127001367000004015000
B0341503222002S11655695EA0127601375000004015000
B0341543221987S11655751EA0128201382000004015000
B0341583222027S11655792EA0129201389000004015000
B0342023222087S11655781EA0129801387000000015000
B0342063222131S11655720EA0129301381000000030000
B0342103222135S11655636EA0128701381000000015000
B0342143222088S11655574EA0129201390000000015000
B0342183222027S11655578EA0130401406000004015000
B0342223222024S11655634EA0132101421000004015000
B0342263222078S11655644EA0133101429000000015000
B0342303222115S11655587EA0134101439000000030000
B0342343222094S11655519EA0134801446000000015000
B0342383222040S11655509EA0135601453000000015000
B0342423222019S11655564EA0135801453000000015000
B0342463222063S11655606EA0136001460000000015000
B0342503222127S11655590EA0137001472000000015000
B0342543222163S11655518EA0137701475000004015000
B0342583222133S11655444EA0138001480000004015000
B0343023222072S11655424EA0138601489000004015000
B0343063222033S11655471EA0139501499000004015000
B0343103222054S11655531EA0140201502000004015000
B0343143222120S11655541EA0140701509000004015000
B0343183222169S11655480EA0142001524000004015000
B0343223222162S11655404EA0143201530000000015000
B0343263222110S11655363EA0143301534000004015000
B0343303222059S11655389EA0144301552000004015000
B0343343222066S11655441EA0145801560000000015000
B0343383222122S11655449EA0146101559000004015000
B0343423222167S11655391EA0146301566000004015000
B0343463222159S11655314EA0147401576000004015000
B0343503222107S11655283EA0148101582000004015000
B0343543222072S11655322EA0148601587000000015000
B0343583222094S11655372EA0149201591000004015000
B0344023222152S11655363EA0149601595000004015000
B0344063222180S11655297EA0150301602000004015000
B0344103222153S11655231EA0150801609000004015000
B0344143222100S11655224EA0151501614000004015000
B0344183222078S11655276EA0151501611000004015000
B0344223222118S11655319EA0151401612000004015000
B0344263222176S11655293EA0151601614000004015000
B0344303222201S11655219EA0152101622000000015000
B0344343222161S11655158EA0152701626000000015000
B0344383222106S11655170EA0153501636000000015000
B0344423222100S11655228EA0153701633000000015000
B0344463222150S11655262EA0153501634000004015000
B0344503222213S11655231EA0153601636000000015000
B0344543222232S11655153EA0154601650000000015000
B0344583222198S11655088EA0155401653000000015000
B0345023222140S11655084EA0155501655000000015000
B0345063222104S11655129EA0155701659000000015000
B0345103222132S11655184EA0156001660000000015000
B0345143222195S11655190EA0156001661000000015000
B0345183222261S11655170EA0156201667000000015000
B0345223222312S11655120EA0157101670000000015000
B0345263222317S11655038EA0156501664000000015000
B0345303222328S11654951EA0156101658000004015000
B0345343222371S11654871EA0154701645000000000000
B0345383222438S11654810EA0153501633000000000000
B0345423222518S11654774EA0152201622000000000000
B0345463222605S11654759EA0151601616000000000000
B0345503222690S11654748EA0151201613000000000000
B0345543222774S11654741EA0150801611000000000000
B0345583222855S11654737EA0150601608000004000000
B0346023222938S11654730EA0149901598000004000000
B0346063223024S11654724EA0148901588000004000000
B0346103223110S11654712EA0148001581000004000000
B0346143223196S11654696EA0147301574000004000000
B0346183223281S11654682EA0146401562000000000000
B0346223223367S11654669EA0145501558000004000000
B0346263223452S11654655EA0145301555000000000000
B0346303223535S11654642EA0145201557000004000000
B0346343223615S11654631EA0145001550000004000000
B0346383223696S11654621EA0144001541000004000000
B0346423223775S11654612EA0142901529000004000000
B0346463223857S11654598EA0141401515000004000000
B0346503223940S11654585EA0140701506000004000000
B0346543224025S11654572EA0139601494000004000000
B0346583224109S11654556EA0138501488000004000000
B0347023224193S11654538EA0138601494000000000000
B0347063224272S11654517EA0139301499000000000000
B0347103224354S11654507EA0139901509000000000000
B0347143224428S11654492EA0142101531000000000000
B0347183224463S11654421EA0143501538000000000000
B0347223224423S11654365EA0143801538000000000000
B0347263224373S11654395EA0143501539000000000000
B0347303224380S11654457EA0144201546000000015000
B0347343224429S11654496EA0144901553000000015000
B0347383224494S11654504EA0145201555000000015000
B0347423224561S11654495EA0145201553000000015000
B0347463224632S11654481EA0144301536000000015000
B0347503224709S11654457EA0142501523000004000000
B0347543224787S11654430EA0141501516000004000000
B0347583224869S11654409EA0141001513000004000000
B0348023224949S11654392EA0140601508000004000000
B0348063225026S11654370EA0141301521000004000000
B0348103225066S11654306EA0143801549000004000000
B0348143225047S11654240EA0145801563000004015000
B0348183224997S11654245EA0146901573000004015000
B0348223224993S11654300EA0148001582000004015000
B0348263225040S11654322EA0148401583000004015000
B0348303225088S11654278EA0148701593000004015000
B0348343225090S11654205EA0149901603000004015000
B0348383225044S11654160EA0150601607000004015000
B0348423224992S11654180EA0151501623000004015000
B0348463224993S11654235EA0153301636000004015000
B0348503225042S11654258EA0153901637000004015000
B0348543225087S11654218EA0154701646000004015000
B0348583225084S11654147EA0155401650000000015000
B0349023225030S11654117EA0155801656000000015000
B0349063224997S11654163EA0156901672000000015000
B0349103225031S11654210EA0157801675000000015000
B0349143225090S11654197EA0158401687000000015000
B0349183225114S11654134EA0159501701000000015000
B0349223225088S11654070EA0160201701000000015000
B0349263225029S11654062EA0160201704000004015000
B0349303225005S11654118EA0161001716000004015000
B0349343225053S11654152EA0162001724000000015000
B0349383225101S11654106EA0163001736000000015000
B0349423225100S11654035EA0164201745000000015000
B0349463225053S11653988EA0164701750000004015000
B0349503225000S11654001EA0165801763000000015000
B0349543224999S11654056EA0166801769000004015000
B0349583225048S11654076EA0167301772000000015000
B0350023225092S11654036EA0168201786000000015000
B0350063225097S11653971EA0169001788000000015000
B0350103225055S11653920EA0168801782000000015000
B0350143224992S11653928EA0168601791000000015000
B0350183224958S11653979EA0169901807000000015000
B0350223224969S11654032EA0170801808000004015000
B0350263225021S11654050EA0170001798000004015000
B0350303225088S11654024EA0168501788000004015000
B0350343225159S11653987EA0168301788000004015000
B0350383225233S11653945EA0167501778000000000000
B0350423225311S11653900EA0166701772000000000000
B0350463225391S11653853EA0166101765000000000000
B0350503225477S11653806EA0165701762000000000000
B0350543225562S11653755EA0165701762000004000000
B0350583225646S11653703EA0165201748000004000000
B0351023225733S11653649EA0163701735000004000000
B0351063225822S11653595EA0162501725000000000000
B0351103225910S11653545EA0162501733000004000000
B0351143225994S11653494EA0163001736000004000000
B0351183226079S11653443EA0162901733000000000000
B0351223226165S11653393EA0162101722000000000000
B0351263226252S11653343EA0161201714000000000000
B0351303226338S11653292EA0160901713000000000000
B0351343226422S11653242EA0160601708000000000000
B0351383226508S11653192EA0159901698000000000000
B0351423226590S11653143EA0159801707000000000000
B0351463226668S11653095EA0160701710000000000000
B0351503226746S11653048EA0159801694000000000000
B0351543226826S11653003EA0158401683000000000000
B0351583226911S11652956EA0157101670000000000000
B0352023226995S11652906EA0156201662000000000000
B0352063227081S11652856EA0155301652000000000000
B0352103227167S11652806EA0153901639000004000000
B0352143227254S11652754EA0153301632000004000000
B0352183227341S11652701EA0152601623000004000000
B0352223227430S11652645EA0151701617000004000000
B0352263227517S11652588EA0151201609000000000000
B0352303227601S11652522EA0149901596000000000000
B0352343227686S11652457EA0149201594000000000000
B0352383227770S11652393EA0148901589000000000000
B0352423227852S11652328EA0148301582000000000000
B0352463227930S11652259EA0147201572000000000000
B0352503228008S11652190EA0146901570000000000000
B0352543228082S11652119EA0146601566000000000000
B0352583228154S11652048EA0146201564000000000000
B0353023228221S11651978EA0146001563000000000000
B0353063228288S11651911EA0145801560000000000000
B0353103228355S11651843EA0145301554000000000000
B0353143228424S11651777EA0144701547000000000000
B0353183228494S11651710EA0144001540000004000000
B0353223228563S11651647EA0143301531000000000000
B0353263228639S11651589EA0142101519000004000000
B0353303228718S11651539EA0141001508000004000000
B0353343228799S11651491EA0139901497000000000000
B0353383228874S11651431EA0139301495000000000000
B0353423228942S11651367EA0138801489000000000000
B0353463229000S11651300EA0138601487000000000000
B0353503229053S11651225EA0137701475000004000000
B0353543229098S11651138EA0136201463000000000000
B0353583229140S11651047EA0136801482000000000000
B0354023229182S11650973EA0140501516000000000000
B0354063229174S11650902EA0142101526000004000000
B0354103229117S11650902EA0142501528000000000000
B0354143229103S11650962EA0143301546000000000000
B0354183229138S11651006EA0145301563000004000000
B0354223229192S11651004EA0146801577000000015000
B0354263229234S11650955EA0148001588000000015000
B0354303229225S11650885EA0148901591000000015000
B0354343229176S11650851EA0149601603000004015000
B0354383229126S11650871EA0150301606000004015000
B0354423229117S11650925EA0150501609000004015000
B0354463229161S11650960EA0151501621000004015000
B0354503229217S11650941EA0152801633000004015000
B0354543229242S11650876EA0154001651000000015000
B0354583229213S11650819EA0155101652000000015000
B0355023229160S11650830EA0155201653000004015000
B0355063229148S11650890EA0155501661000004015000
B0355103229190S11650933EA0156401668000004015000
B0355143229248S11650919EA0157501682000004015000
B0355183229265S11650852EA0159101697000004015000
B0355223229222S11650809EA0159901704000004015000
B0355263229176S11650832EA0160601712000004015000
B0355303229166S11650890EA0161701717000004015000
B0355343229198S11650941EA0162101720000004015000
B0355383229254S11650954EA0162701729000000015000
B0355423229298S11650917EA0163601736000000015000
B0355463229300S11650848EA0163901742000004015000
B0355503229254S11650809EA0165001754000004015000
B0355543229218S11650855EA0165501754000004015000
B0355583229256S11650903EA0166101768000004015000
B0356023229309S11650880EA0167101772000004015000
B0356063229312S11650808EA0167201772000004015000
B0356103229254S11650783EA0167901784000004015000
B0356143229212S11650832EA0168801792000004015000
B0356183229220S11650900EA0169301797000004015000
B0356223229269S11650937EA0169801801000004015000
B0356263229333S11650932EA0169601793000000015000
B0356303229404S11650919EA0168101776000000015000
B0356343229490S11650907EA0166801769000000015000
B0356383229581S11650899EA0165901758000000015000
B0356423229679S11650897EA0165101753000000000000
B0356463229779S11650895EA0165101753000000000000
B0356503229878S11650897EA0164001740000000000000
B0356543229978S11650899EA0163001730000000000000
B0356583230076S11650910EA0162001721000000000000
B0357023230175S11650923EA0160901711000000000000
B0357063230274S11650938EA0160201699000000000000
B0357103230373S11650956EA0158901691000000000000
B0357143230469S11650973EA0158701691000000000000
B0357183230561S11650991EA0158801691000000000000
B0357223230652S11651012EA0158101680000000000000
B0357263230742S11651037EA0157101669000000000000
B0357303230829S11651062EA0156101659000000000000
B0357343230919S11651072EA0155301652000000000000
B0357383231006S11651071EA0155101652000000000000
B0357423231090S11651079EA0154501644000004000000
B0357463231172S11651097EA0154201644000000000000
B0357503231250S11651120EA0154301644000000000000
B0357543231331S11651144EA0153801640000000000000
B0357583231413S11651167EA0153801641000000000000
B0358023231496S11651192EA0153801639000000000000
B0358063231583S11651219EA0153001627000000000000
B0358103231677S11651244EA0151701616000000000000
B0358143231770S11651266EA0151101611000000000000
B0358183231860S11651288EA0151801625000000000000
B0358223231947S11651310EA0153001632000000000000
B0358263232033S11651328EA0153101633000000000000
B0358303232121S11651344EA0152701624000000000000
B0358343232211S11651362EA0151801619000000000000
B0358383232302S11651380EA0150501602000004000000
B0358423232396S11651402EA0149101590000000000000
B0358463232489S11651427EA0148101581000000000000
B0358503232587S11651452EA0147301571000000000000
B0358543232684S11651475EA0146401562000000000000
B0358583232782S11651502EA0145601555000000000000
B0359023232878S11651531EA0144901545000000000000
B0359063232974S11651560EA0143601535000000000000
B0359103233068S11651586EA0142901528000000000000
B0359143233163S11651613EA0142201522000000000000
B0359183233255S11651636EA0142001520000000000000
B0359223233346S11651656EA0141901519000000000000
B0359263233434S11651674EA0141501514000000000000
B0359303233523S11651691EA0140601503000000000000
B0359343233614S11651706EA0139501494000000000000
B0359383233703S11651723EA0138701485000000000000
B0359423233791S11651742EA0138301484000000000000
B0359463233875S11651761EA0138301484000000000000
B0359503233957S11651782EA0138101479000000000000
B0359543234040S11651801EA0137301469000000000000
B0359583234126S11651821EA0136501462000000000000
B0400023234212S11651839EA0136401465000000000000
B0400063234298S11651855EA0136201459000004000000
B0400103234385S11651870EA0135301450000004000000
B0400143234473S11651885EA0135501454000004000000
B0400183234558S11651899EA0135201447000004000000
B0400223234639S11651914EA0134701446000004000000
B0400263234721S11651929EA0133401431000004000000
B0400303234807S11651943EA0131701405000000000000
B0400343234896S11651961EA0129801393000000000000
B0400383234983S11651982EA0128501374000000000000
B0400423235074S11652005EA0126501354000000000000
B0400463235166S11652029EA0125001347000004000000
B0400503235254S11652055EA0124801349000004000000
B0400543235336S11652078EA0126001367000004000000
B0400583235409S11652102EA0127801382000004000000
B0401023235481S11652122EA0128601389000004000000
B0401063235549S11652147EA0130001404000004000000
B0401103235620S11652172EA0131101412000004000000
B0401143235694S11652152EA0131701416000004000000
B0401183235715S11652077EA0132201421000000000000
B0401223235668S11652038EA0132101413000004000000
B0401263235618S11652076EA0131101407000004000000
B0401303235604S11652148EA0131401415000004000000
B0401343235618S11652221EA0132601428000004000000
B0401383235673S11652271EA0132801422000000000000
B0401423235748S11652282EA0131801410000000000000
B0401463235832S11652284EA0129501383000000000000
B0401503235920S11652293EA0127301363000000000000
B0401543236012S11652308EA0126201352000000000000
B0401583236105S11652333EA0125101342000004000000
B0402023236196S11652362EA0124301338000000000000
B0402063236284S11652393EA0124001331000000000000
B0402103236375S11652423EA0122601315000000000000
B0402143236467S11652455EA0120601298000000000000
B0402183236558S11652493EA0119801292000000000000
B0402223236644S11652535EA0119601292000004000000
B0402263236727S11652575EA0119601289000000000000
B0402303236807S11652619EA0119101284000000000000
B0402343236885S11652666EA0118301273000000000000
B0402383236965S11652710EA0117701269000000000000
B0402423237042S11652753EA0117801273000000000000
B0402463237115S11652798EA0118001274000004000000
B0402503237182S11652852EA0117801272000000000000
B0402543237249S11652909EA0117701268000000000000
B0402583237323S11652958EA0117401272000000000000
B0403023237393S11652997EA0118601287000000000000
B0403063237463S11653014EA0119801294000000000000
B0403103237519S11652962EA0120101296000004000000
B0403143237549S11652880EA0120401302000004000000
B0403183237544S11652800EA0121101307000004000000
B0403223237488S11652771EA0121201305000004000000
B0403263237438S11652813EA0120701299000004000000
B0403303237437S11652888EA0120301297000004000000
B0403343237485S11652952EA0120001287000004000000
B0403383237562S11652978EA0119001283000000015000
B0403423237641S11652960EA0119301293000004015000
B0403463237681S11652887EA0120601306000004015000
B0403503237653S11652817EA0121301305000004015000
B0403543237589S11652808EA0121001306000004015000
B0403583237554S11652862EA0121601312000004015000
B0404023237568S11652932EA0121501306000000000000
B0404063237629S11652977EA0121101303000000015000
B0404103237704S11653005EA0120201291000004015000
B0404143237770S11653057EA0119701291000000015000
B0404183237834S11653116EA0119301283000004015000
B0404223237906S11653165EA0118601274000000000000
B0404263237986S11653205EA0117401257000004000000
B0404303238068S11653242EA0115801242000004000000
B0404343238153S11653273EA0114501235000004000000
B0404383238238S11653299EA0114101232000000000000
B0404423238320S11653322EA0114201233000000000000
B0404463238398S11653350EA0114401240000000000000
B0404503238472S11653373EA0115501251000004000000
B0404543238545S11653376EA0116601260000000000000
B0404583238580S11653304EA0117401268000000000000
B0405023238530S11653253EA0118201277000000000000
B0405063238484S11653289EA0118701283000000000000
B0405103238493S11653351EA0119001282000000000000
B0405143238546S11653381EA0119101285000000015000
B0405183238607S11653348EA0119901295000000015000
B0405223238642S11653276EA0120701301000000015000
B0405263238625S11653199EA0121101303000000015000
B0405303238563S11653182EA0121101304000000015000
B0405343238533S11653239EA0121301308000004015000
B0405383238568S11653291EA0121401306000000015000
B0405423238633S11653291EA0121501310000000015000
B0405463238699S11653279EA0121601312000000000000
B0405503238763S11653240EA0122001315000004000000
B0405543238814S11653172EA0122301321000000000000
B0405583238855S11653092EA0122801325000000000000
B0406023238854S11653008EA0124001341000000000000
B0406063238796S11652993EA0125501350000004000000
B0406103238779S11653053EA0125201342000004000000
B0406143238835S11653088EA0124901348000004000000
B0406183238896S11653060EA0126201357000004000000
B0406223238942S11653001EA0127101368000004000000
B0406263238968S11652930EA0128901388000004000000
B0406303238936S11652870EA0130101396000004000000
B0406343238883S11652889EA0130801404000004000000
B0406383238885S11652954EA0131601412000004000000
B0406423238940S11652977EA0132801428000004000000
B0406463238985S11652925EA0134301443000004000000
B0406503238974S11652853EA0136101458000004015000
B0406543238920S11652839EA0137201468000000000000
B0406583238894S11652891EA0137701472000000000000
B0407023238929S11652945EA0138301481000000000000
B0407063238992S11652939EA0139801498000000000000
B0407103239036S11652883EA0141201511000000015000
B0407143239035S11652809EA0142401529000000015000
B0407183238988S11652778EA0144001538000000000000
B0407223238949S11652814EA0144701543000000000000
B0407263238959S11652875EA0145501550000000000000
B0407303239013S11652899EA0146701563000000000000
B0407343239070S11652862EA0148001575000000000000
B0407383239089S11652788EA0149201589000000015000
B0407423239058S11652730EA0151001607000000015000
B0407463239006S11652727EA0151701613000000000000
B0407503238979S11652776EA0152001617000000000000
B0407543238998S11652837EA0152801628000000000000
B0407583239057S11652854EA0154401644000000000000
B0408023239110S11652809EA0155401648000004015000
B0408063239110S11652728EA0155801655000004015000
B0408103239062S11652688EA0157301675000004000000
B0408143239019S11652713EA0158401680000000000000
B0408183239023S11652774EA0158301679000000000000
B0408223239083S11652797EA0159401695000000000000
B0408273239144S11652730EA0160601708000000015000
B0408313239130S11652650EA0161601716000000015000
B0408353239075S11652631EA0162501723000004000000
B0408393239043S11652679EA0162901726000000000000
B0408433239069S11652733EA0163701739000000000000
B0408473239131S11652727EA0165201752000000000000
B0408513239169S11652661EA0166201760000000015000
B0408553239147S11652587EA0166901766000000015000
B0408593239093S11652571EA0167501776000000015000
B0409033239059S11652614EA0167901773000000000000
B0409073239063S11652678EA0167901778000000000000
B0409113239113S11652710EA0169401794000000000000
B0409153239167S11652670EA0170201796000000015000
B0409193239170S11652590EA0170201797000000015000
B0409233239117S11652559EA0171001809000004015000
B0409273239070S11652592EA0171601813000004000000
B0409313239065S11652654EA0172301821000004000000
B0409353239104S11652700EA0172901824000004000000
B0409393239167S11652706EA0172101803000004000000
B0409433239245S11652706EA0169501778000004000000
B0409473239334S11652704EA0167401763000004000000
B0409513239429S11652706EA0166601762000004000000
B0409553239526S11652711EA0166701761000004000000
B0409593239625S11652718EA0166001752000004000000
B0410033239724S11652726EA0165301747000004000000
B0410073239821S11652735EA0164801744000004000000
B0410113239917S11652744EA0164501742000000000000
B0410153240010S11652756EA0164201740000000000000
B0410193240099S11652770EA0164001737000000000000
B0410233240188S11652788EA0162901725000000000000
B0410273240275S11652809EA0162801731000000000000
B0410313240358S11652831EA0163501734000004000000
B0410353240441S11652858EA0163201729000000000000
B0410393240525S11652888EA0162601725000004000000
B0410433240605S11652923EA0162501723000000000000
B0410473240682S11652962EA0162401721000000000000
B0410513240757S11653000EA0162401723000000000000
B0410553240831S11653030EA0162401721000004000000
B0410593240907S11653060EA0161301707000000000000
B0411033240985S11653088EA0161401716000004000000
B0411073241065S11653092EA0162301719000004000000
B0411113241146S11653088EA0162201718000004000000
B0411153241229S11653088EA0161901714000000000000
B0411193241314S11653094EA0161701714000000000000
B0411233241397S11653104EA0161501709000004000000
B0411273241483S11653113EA0160201695000000000000
B0411313241572S11653122EA0158901684000000000000
B0411353241663S11653134EA0158101676000000000000
B0411393241754S11653148EA0157701671000000000000
B0411433241847S11653160EA0157301669000000000000
B0411473241940S11653172EA0156901666000000000000
B0411513242031S11653182EA0156901665000000000000
B0411553242121S11653192EA0155901652000000000000
B0411593242212S11653203EA0154801643000000000000
B0412033242299S11653212EA0154701645000000000000
B0412073242385S11653216EA0154401639000000000000
B0412113242472S11653216EA0153601629000000000000
B0412153242559S11653211EA0152701621000000000000
B0412193242645S11653199EA0151801613000000000000
B0412233242725S11653177EA0151201606000000000000
B0412273242803S11653148EA0150401597000000000000
B0412313242878S11653118EA0149701592000000000000
B0412353242952S11653088EA0148801584000000000000
B0412393243028S11653066EA0148301577000000000000
B0412433243105S11653049EA0147801575000004000000
B0412473243182S11653038EA0147701573000004000000
B0412513243257S11653025EA0147801577000004000000
B0412553243330S11653022EA0148001576000004000000
B0412593243403S11653027EA0147801578000004000000
B0413033243470S11653034EA0149001593000004000000
B0413073243534S11653044EA0149901597000004000000
B0413113243599S11653049EA0150101599000004000000
B0413153243658S11653009EA0150301599000000000000
B0413193243663S11652931EA0150401600000000000000
B0413233243637S11652854EA0149801591000000000000
B0413273243619S11652767EA0149001587000004000000
B0413313243611S11652678EA0148401578000000000000
B0413353243611S11652587EA0147901574000000000000
B0413393243604S11652498EA0148101584000000000000
B0413433243589S11652416EA0149101590000000000000
B0413473243572S11652336EA0149601596000000000000
B0413513243555S11652254EA0150501607000000000000
B0413553243535S11652172EA0151401612000004000000
B0413593243492S11652111EA0151901616000004000000
B0414033243434S11652121EA0152501620000000000000
B0414073243431S11652181EA0152701625000004000000
B0414113243489S11652195EA0153201628000000000000
B0414153243533S11652130EA0153301629000000000000
B0414193243509S11652051EA0153601632000000000000
B0414233243447S11652037EA0154101640000000000000
B0414273243405S11652085EA0154201635000000000000
B0414313243425S11652151EA0154401645000000000000
B0414353243485S11652171EA0156001662000000000000
B0414393243537S11652132EA0157301671000000000000
B0414433243530S11652055EA0157701673000000000000
B0414473243477S11652018EA0158001676000000000000
B0414513243434S11652057EA0158401682000000000000
B0414553243447S11652113EA0159201691000000000000
B0414593243503S11652130EA0159601691000000000000
B0415033243559S11652085EA0159901699000000000000
B0415073243563S11652008EA0160701702000000000000
B0415113243516S11651953EA0160601700000004000000
B0415153243450S11651946EA0160201695000004000000
B0415193243399S11651989EA0160101697000004000000
B0415233243388S11652060EA0160301699000004000000
B0415273243416S11652124EA0161201713000004000000
B0415313243474S11652113EA0162701727000004000000
B0415353243481S11652041EA0164001738000004000000
B0415393243429S11652011EA0164901745000000000000
B0415433243392S11652051EA0165801754000000000000
B0415473243416S11652098EA0166201759000004000000
B0415513243469S11652099EA0166701765000004000000
B0415553243505S11652046EA0167501774000000000000
B0415593243487S11651979EA0168301777000000000000
B0416033243430S11651974EA0168501781000004000000
B0416073243408S11652026EA0169501795000004000000
B0416113243438S11652065EA0170601803000004000000
B0416153243489S11652050EA0170901802000004000000
B0416193243507S11651982EA0171301807000004000000
B0416233243464S11651929EA0171601811000004000000
B0416273243407S11651933EA0172101818000004000000
B0416313243379S11651982EA0172501824000004000000
B0416353243403S11652031EA0172801818000000000000
B0416393243456S11652059EA0171401798000004000000
B0416433243528S11652080EA0169501784000000000000
B0416473243607S11652099EA0168901783000004000000
B0416513243689S11652120EA0168901778000000000000
B0416553243776S11652141EA0167801769000000000000
B0416593243869S11652161EA0166601758000000000000
B0417033243964S11652182EA0165801751000000000000
B0417073244057S11652206EA0165401748000000000000
B0417113244146S11652232EA0165001745000000000000
B0417153244236S11652258EA0164301738000000000000
B0417193244330S11652282EA0163301724000000000000
B0417233244423S11652306EA0162301716000000000000
B0417273244516S11652325EA0162401725000000000000
B0417313244604S11652343EA0163301732000000000000
B0417353244690S11652364EA0163501730000000000000
B0417393244774S11652384EA0163401732000000000000
B0417433244855S11652403EA0163301729000000000000
B0417473244937S11652424EA0162301718000000000000
B0417513245021S11652445EA0161001703000000000000
B0417553245107S11652466EA0160401701000000000000
B0417593245190S11652485EA0160501703000004000000
B0418033245271S11652503EA0160301699000004000000
B0418073245351S11652516EA0159601691000004000000
B0418113245432S11652532EA0159401692000004000000
B0418153245510S11652548EA0159101686000004000000
B0418193245591S11652564EA0157601668000000000000
B0418233245676S11652581EA0156101655000000000000
B0418273245762S11652601EA0155401649000000000000
B0418313245848S11652622EA0155001645000004000000
B0418353245934S11652644EA0154601641000000000000
B0418393246017S11652667EA0154301639000000000000
B0418433246099S11652689EA0153701633000000000000
B0418473246182S11652711EA0152801622000000000000
B0418513246265S11652736EA0152901627000000000000
B0418553246346S11652761EA0153101628000004000000
B0418593246428S11652785EA0152801625000000000000
B0419033246508S11652818EA0152701623000004000000
B0419073246589S11652853EA0152401620000004000000
B0419113246670S11652889EA0152301618000000000000
B0419153246752S11652923EA0151801613000004000000
B0419193246835S11652960EA0151101607000004000000
B0419233246917S11652997EA0150601600000000000000
B0419273246997S11653035EA0149901597000000000000
B0419313247074S11653069EA0150001596000004000000
B0419353247148S11653104EA0149201582000004000000
B0419393247225S11653139EA0147801570000000000000
B0419433247300S11653172EA0147301567000004000000
B0419473247373S11653203EA0147101569000004000000
B0419513247442S11653231EA0147201567000004000000
B0419553247509S11653259EA0146901566000000000000
B0419593247578S11653283EA0146801564000000000000
B0420033247647S11653307EA0147001566000000000000
B0420073247721S11653320EA0147101568000000000000
B0420113247795S11653320EA0148001580000000000000
B0420153247840S11653255EA0149001583000000000000
B0420193247799S11653194EA0148801583000004000000
B0420233247750S11653218EA0149601592000000000000
B0420273247734S11653285EA0149701592000000000000
B0420313247727S11653356EA0149701595000000000000
B0420353247721S11653428EA0150101598000000000000
B0420393247719S11653500EA0150001593000004000000
B0420433247733S11653576EA0149701594000004000000
B0420473247740S11653651EA0150201598000004000000
B0420513247733S11653725EA0150401602000000000000
B0420553247719S11653799EA0150501598000000000000
B0420593247702S11653876EA0151201614000000000000
B0421033247737S11653929EA0153701637000000000000
B0421073247788S11653881EA0154801643000004000000
B0421113247766S11653811EA0155401650000004000000
B0421153247712S11653824EA0156501664000004000000
B0421193247715S11653881EA0158001680000000000000
B0421233247767S11653897EA0158701682000004000000
B0421273247806S11653836EA0158801684000004015000
B0421313247782S11653763EA0159201691000004015000
B0421353247727S11653740EA0159901697000004000000
B0421393247681S11653780EA0160201699000004000000
B0421433247685S11653844EA0160301698000004000000
B0421473247740S11653883EA0159901686000000000000
B0421513247816S11653898EA0158501676000000000000
B0421553247902S11653915EA0158001678000004000000
B0421593247987S11653932EA0159601707000004000000
B0422033248055S11653906EA0163001740000000000000
B0422073248071S11653836EA0165101753000004000000
B0422113248028S11653801EA0166601769000004000000
B0422153247989S11653833EA0167901778000004000000
B0422193247998S11653896EA0168601785000004000000
B0422233248055S11653918EA0169701798000004000000
B0422273248110S11653881EA0170301797000004000000
B0422313248120S11653810EA0170301800000000015000
B0422353248079S11653770EA0171001812000004000000
B0422393248032S11653788EA0172501826000004000000
B0422433248028S11653849EA0172701824000004000000
B0422473248088S11653872EA0173101831000004000000
B0422513248140S11653823EA0173601836000004000000
B0422553248136S11653749EA0174101843000004015000
B0422593248085S11653732EA0175301856000000000000
B0423033248059S11653783EA0176301861000000000000
B0423073248100S11653844EA0175801846000000000000
B0423113248176S11653884EA0174101826000004000000
B0423153248269S11653916EA0172001809000004000000
B0423193248364S11653942EA0171201809000004000000
B0423233248457S11653966EA0170901802000004000000
B0423273248553S11653988EA0169601787000000000000
B0423313248652S11654011EA0168101772000000000000
B0423353248754S11654035EA0166801761000000000000
B0423393248852S11654058EA0165101743000000000000
B0423433248952S11654080EA0163801729000000000000
B0423473249049S11654098EA0164001744000000000000
B0423513249141S11654114EA0164801744000000000000
B0423553249232S11654130EA0164501738000000000000
B0423593249326S11654144EA0163201722000000000000
B0424033249420S11654156EA0162301721000000000000
B0424073249517S11654165EA0162001715000004000000
B0424113249613S11654174EA0161401711000004000000
B0424153249713S11654182EA0161001706000004000000
B0424193249813S11654189EA0161201711000000000000
B0424233249911S11654200EA0161501715000000000000
B0424273250005S11654215EA0162001722000004000000
B0424313250099S11654232EA0163701738000004000000
B0424353250190S11654252EA0164101737000000000000
B0424393250285S11654271EA0162701719000000000000
B0424433250386S11654291EA0161401708000004000000
B0424473250486S11654313EA0160901705000004000000
B0424513250588S11654336EA0160201699000004000000
B0424553250687S11654358EA0159401685000000000000
B0424593250789S11654381EA0158001668000000000000
B0425033250891S11654405EA0157001665000004000000
B0425073250988S11654430EA0156701661000004000000
B0425113251086S11654452EA0156101651000000000000
B0425153251183S11654472EA0154501633000000000000
B0425193251283S11654487EA0152301614000000000000
B0425233251386S11654503EA0151101605000004000000
B0425273251486S11654516EA0150601601000000000000
B0425313251585S11654530EA0149901593000000000000
B0425353251681S11654543EA0149101585000000000000
B0425393251775S11654553EA0148801582000004000000
B0425433251866S11654563EA0148101576000000000000
B0425473251955S11654569EA0148001578000004000000
B0425513252040S11654574EA0149001595000004000000
B0425553252118S11654576EA0151101613000004000000
B0425593252192S11654581EA0151501611000000000000
B0426033252270S11654587EA0149901591000000000000
B0426073252357S11654594EA0148001573000000000000
B0426113252448S11654600EA0146801557000000000000
B0426153252542S11654607EA0145201544000000000000
B0426193252635S11654612EA0143901532000000000000
B0426233252730S11654616EA0142501517000004000000
B0426273252826S11654617EA0141501510000004000000
B0426313252920S11654617EA0140901502000004000000
B0426353253012S11654616EA0140001493000004000000
B0426393253105S11654616EA0138901481000000000000
B0426433253196S11654617EA0138001475000004000000
B0426473253287S11654620EA0137101463000000000000
B0426513253378S11654620EA0135701449000000000000
B0426553253469S11654616EA0134601439000004000000
B0426593253554S11654617EA0134601446000004000000
B0427033253632S11654620EA0135301452000000000000
B0427073253705S11654631EA0135401451000004000000
B0427113253781S11654639EA0135101447000004000000
B0427153253853S11654646EA0135101449000004000000
B0427193253926S11654652EA0135401452000004000000
B0427233254000S11654656EA0135601454000000000000
B0427273254076S11654652EA0136301461000004000000
B0427313254110S11654585EA0137401470000004000000
B0427353254063S11654546EA0137601467000004000000
B0427393254019S11654590EA0137401468000004000000
B0427433253998S11654659EA0137101464000004000000
B0427473253977S11654733EA0137601473000000000000
B0427513253956S11654806EA0138501479000000000000
B0427553253938S11654881EA0137901469000004000000
B0427593253907S11654958EA0138401483000004000000
B0428033253874S11655023EA0140301508000000000000
B0428073253861S11655085EA0142601531000000000000
B0428113253916S11655096EA0144801545000000000000
B0428153253935S11655019EA0145301550000000000000
B0428193253881S11654981EA0146301561000000000000
B0428233253829S11655011EA0147301574000004000000
B0428273253824S11655071EA0149201590000000000000
B0428313253873S11655105EA0149401585000000000000
B0428353253934S11655080EA0149601594000000000000
B0428393253957S11655010EA0151301617000000015000
B0428433253937S11654943EA0153101626000004015000
B0428473253882S11654923EA0153201626000004000000
B0428513253837S11654959EA0153701635000004000000
B0428553253833S11655016EA0155001646000004000000
B0428593253872S11655058EA0155201643000004000000
B0429033253935S11655045EA0154501637000000000000
B0429073253954S11654969EA0155001655000000015000
B0429113253904S11654929EA0157101672000000015000
B0429153253864S11654968EA0158101674000004000000
B0429193253886S11655021EA0158601684000000000000
B0429233253943S11655021EA0158901684000000000000
B0429273253990S11654967EA0159701701000000015000
B0429313253982S11654894EA0161501714000000015000
B0429353253926S11654876EA0162001717000000015000
B0429393253899S11654934EA0162201716000000015000
B0429433253938S11654988EA0162501725000000000000
B0429473254002S11654984EA0163601736000000000000
B0429513254032S11654917EA0165701761000000015000
B0429553253998S11654859EA0167101772000000015000
B0429593253943S11654864EA0168001775000000015000
B0430033253911S11654914EA0168301780000004015000
B0430073253928S11654972EA0168801785000004000000
B0430113253987S11654980EA0169301788000004015000
B0430153254019S11654910EA0169601795000004015000
B0430193253980S11654855EA0171401816000004015000
B0430233253929S11654868EA0172401816000004015000
B0430273253920S11654928EA0172401819000004015000
B0430313253963S11654969EA0172801822000004015000
B0430353254028S11654958EA0172701820000004015000
B0430393254102S11654929EA0171701808000004000000
B0430433254186S11654897EA0170901804000004000000
B0430473254276S11654862EA0170201796000004000000
B0430513254368S11654825EA0169501793000004000000
B0430553254462S11654795EA0169501792000000000000
B0430593254555S11654769EA0169601795000000000000
B0431033254649S11654743EA0169301786000000000000
B0431073254744S11654713EA0167801771000000000000
B0431113254840S11654683EA0166301757000000000000
B0431153254939S11654652EA0164701741000000000000
B0431193255038S11654618EA0163001723000004000000
B0431233255138S11654583EA0162201720000004000000
B0431273255235S11654551EA0162201721000004000000
B0431313255330S11654520EA0161801712000004000000
B0431353255425S11654490EA0160901705000004000000
B0431393255519S11654461EA0160101696000004000000
B0431433255612S11654438EA0159001684000004000000
B0431473255703S11654414EA0159001691000000000000
B0431513255792S11654387EA0158701683000000000000
B0431553255879S11654357EA0157701669000000000000
B0431593255970S11654323EA0156301655000000000000
B0432033256062S11654290EA0156101665000004000000
B0432073256149S11654261EA0157901689000004000000
B0432113256225S11654236EA0160501711000000000000
B0432153256299S11654213EA0161301711000000000000
B0432193256377S11654192EA0161301714000000000000
B0432233256455S11654173EA0161701716000004000000
B0432273256533S11654150EA0162001721000004000000
B0432313256611S11654121EA0162401724000000000000
B0432353256681S11654069EA0161901705000000000000
B0432393256760S11654015EA0159501679000000000000
B0432433256851S11653972EA0157901673000000000000
B0432473256945S11653941EA0157401667000000000000
B0432513257040S11653919EA0157101668000000000000
B0432553257137S11653903EA0157001664000004000000
B0432593257233S11653897EA0157201671000000000000
B0433033257322S11653892EA0158201682000004000000
B0433073257406S11653890EA0158001673000004000000
B0433113257497S11653894EA0157001663000004000000
B0433153257588S11653901EA0156601662000004000000
B0433193257679S11653906EA0156501662000000000000
B0433233257770S11653911EA0156601662000000000000
B0433273257859S11653913EA0156601662000000000000
B0433313257946S11653907EA0156301656000004000000
B0433353258034S11653900EA0155201646000000000000
B0433393258127S11653893EA0154401637000000000000
B0433433258219S11653893EA0153301626000000000000
B0433473258312S11653906EA0152101615000004000000
B0433513258405S11653927EA0151801613000000000000
B0433553258493S11653954EA0151501611000000000000
B0433593258578S11653987EA0151401605000000000000
B0434033258658S11654026EA0150501597000000000000
B0434073258730S11654076EA0149801592000000000000
B0434113258795S11654131EA0149501588000000000000
B0434153258857S11654182EA0149201587000004000000
B0434193258917S11654227EA0149701593000004000000
B0434233258977S11654266EA0149601590000000000000
B0434273259037S11654303EA0149801594000000000000
B0434313259100S11654332EA0149401583000004000000
B0434353259167S11654358EA0148701578000004000000
B0434393259237S11654379EA0147801570000004000000
B0434433259310S11654397EA0147101562000000000000
B0434473259386S11654407EA0146201553000000000000
B0434513259466S11654413EA0146001557000000000000
B0434553259545S11654408EA0146801566000000000000
B0434593259616S11654381EA0148301581000000000000
B0435033259657S11654312EA0149801591000000000000
B0435073259627S11654241EA0149901587000000000000
B0435113259568S11654240EA0150001594000004000000
B0435153259531S11654282EA0150501597000004000000
B0435193259505S11654338EA0150201593000004000000
B0435233259497S11654403EA0150101593000000000000
B0435273259524S11654464EA0150101595000000000000
B0435313259571S11654511EA0150401597000000000000
B0435353259636S11654521EA0150901605000000000000
B0435393259700S11654491EA0151101604000000000000
B0435433259757S11654438EA0150501593000004000000
B0435473259815S11654377EA0149301581000004000000
B0435513259878S11654312EA0148001568000004000000
B0435553259945S11654252EA0146801559000004000000
B0435593300015S11654193EA0146001547000004000000
B0436033300086S11654135EA0144901537000004000000
B0436073300157S11654078EA0143401519000000000000
B0436113300229S11654015EA0142201512000000000000
B0436153300299S11653955EA0141501506000000000000
B0436193300373S11653903EA0140701495000000000000
B0436233300446S11653848EA0139401482000000000000
B0436273300519S11653788EA0138701478000000000000
B0436313300585S11653728EA0138901481000000000000
B0436353300650S11653668EA0138901482000000000000
B0436393300712S11653604EA0139001482000004000000
B0436433300769S11653534EA0139001484000004000000
B0436473300829S11653472EA0139801493000004000000
B0436513300889S11653417EA0140101494000000000000
B0436553300950S11653369EA0140001491000004000000
B0436593301013S11653316EA0139001480000004000000
B0437033301076S11653263EA0138101472000004000000
B0437073301145S11653214EA0137901473000004000000
B0437113301214S11653170EA0138101471000004000000
B0437153301276S11653113EA0137401466000000000000
B0437193301326S11653039EA0137701473000000000000
B0437233301364S11652960EA0138301479000000000000
B0437273301393S11652878EA0139601491000000000000
B0437313301412S11652796EA0139801487000000000000
B0437353301416S11652707EA0138201468000000000000
B0437393301432S11652616EA0137201462000000000000
B0437433301460S11652529EA0137201465000000000000
B0437473301481S11652442EA0137601467000000000000
B0437513301483S11652358EA0138101477000004000000
B0437553301481S11652278EA0139101485000000000000
B0437593301469S11652206EA0139601486000000000000
B0438033301438S11652141EA0139101480000000000000
B0438073301375S11652115EA0139301489000000000000
B0438113301321S11652145EA0141001504000000000000
B0438153301327S11652202EA0141701505000000000000
B0438193301388S11652200EA0141401502000004000000
B0438233301426S11652137EA0141501505000000015000
B0438273301406S11652060EA0142401526000000015000
B0438313301358S11652039EA0144701547000000015000
B0438353301328S11652080EA0145401543000000015000
B0438393301351S11652134EA0145001540000004015000
B0438433301409S11652139EA0145701553000004015000
B0438473301453S11652093EA0146301557000000015000
B0438513301442S11652020EA0147201568000000015000
B0438553301384S11652004EA0148701583000004015000
B0438593301356S11652057EA0149301587000004015000
B0439033301396S11652102EA0149501588000004015000
B0439073301455S11652073EA0149801591000004015000
B0439113301470S11651994EA0150501604000004015000
B0439153301425S11651953EA0152101621000000015000
B0439193301392S11651995EA0153601635000000015000
B0439233301423S11652031EA0154701641000000015000
B0439273301471S11651995EA0155001645000000015000
B0439313301461S11651922EA0155701656000000015000
B0439353301409S11651901EA0157101672000000015000
B0439393301379S11651938EA0158601681000004015000
B0439433301396S11651989EA0158501669000004015000
B0439473301440S11652022EA0158501674000000015000
B0439513301492S11652026EA0158801679000000015000
B0439553301543S11652000EA0158601673000000015000
B0439593301562S11651929EA0158401677000000015000
B0440033301539S11651859EA0159201685000000015000
B0440073301490S11651827EA0159701692000004015000
B0440113301438S11651846EA0160101693000004015000
B0440153301422S11651903EA0160501703000004015000
B0440193301442S11651963EA0161001701000000015000
B0440233301442S11652035EA0160001684000000015000
B0440273301421S11652116EA0157701660000000015000
B0440313301391S11652202EA0156101650000000000000
B0440353301354S11652290EA0154901638000004000000
B0440393301317S11652379EA0153901626000004000000
B0440433301278S11652466EA0152701617000000000000
B0440473301241S11652554EA0151701607000000000000
B0440513301208S11652640EA0151101602000000000000
B0440553301178S11652728EA0150501594000000000000
B0440593301150S11652815EA0149801590000000000000
B0441033301123S11652901EA0149501585000000000000
B0441073301098S11652987EA0148901579000000000000
B0441113301071S11653073EA0148201572000000000000
B0441153301041S11653157EA0148001573000000000000
B0441193301011S11653238EA0148101574000000000000
B0441233300976S11653311EA0148301574000000000000
B0441273300938S11653381EA0148101572000000000000
B0441313300898S11653447EA0148101574000004000000
B0441353300855S11653508EA0148801586000004000000
B0441393300812S11653567EA0149601595000004000000
B0441433300768S11653624EA0150401601000004000000
B0441473300721S11653680EA0150801602000000000000
B0441513300678S11653741EA0150401595000004000000
B0441553300634S11653806EA0148901579000000000000
B0441593300591S11653876EA0148001566000000000000
B0442033300547S11653950EA0146701556000004000000
B0442073300503S11654027EA0145901549000004000000
B0442113300460S11654104EA0145001539000004000000
B0442153300420S11654183EA0143701526000004000000
B0442193300379S11654261EA0142701518000004000000
B0442233300342S11654340EA0142201514000000000000
B0442273300308S11654420EA0142001513000000000000
B0442313300278S11654492EA0142901526000000000000
B0442353300253S11654559EA0143601532000000000000
B0442393300230S11654625EA0143601529000000000000
B0442433300208S11654694EA0143301526000000000000
B0442473300186S11654763EA0142401511000000000000
B0442513300165S11654836EA0140501493000000000000
B0442553300143S11654914EA0138701474000000000000
B0442593300117S11654995EA0137001460000004000000
B0443033300091S11655079EA0136801460000000000000
B0443073300061S11655158EA0136901464000004000000
B0443113300032S11655231EA0138101482000004000000
B0443153300000S11655292EA0139901497000000000000
B0443193259973S11655350EA0141001504000004000000
B0443233259947S11655414EA0140901498000000000000
B0443273259921S11655483EA0139901490000004000000
B0443313259889S11655548EA0139801490000004000000
B0443353259858S11655614EA0139501485000004000000
B0443393259831S11655687EA0139801494000004000000
B0443433259809S11655761EA0140301498000004000000
B0443473259789S11655834EA0140501497000000000000
B0443513259768S11655909EA0139601482000004000000
B0443553259740S11655985EA0139001487000004000000
B0443593259711S11656055EA0140801510000004000000
B0444033259728S11656117EA0142801526000000000000
B0444073259789S11656106EA0144401539000000000000
B0444113259811S11656038EA0145201545000000000000
B0444153259775S11655986EA0145301546000000015000
B0444193259720S11655993EA0145801554000004000000
B0444233259700S11656051EA0146801567000004015000
B0444273259749S11656094EA0148501582000000015000
B0444313259802S11656056EA0149801592000004015000
B0444353259804S11655986EA0150501599000004015000
B0444393259761S11655947EA0151501611000004015000
B0444433259715S11655969EA0152401619000004015000
B0444473259718S11656030EA0153901638000004015000
B0444513259770S11656061EA0155701654000000015000
B0444553259822S11656030EA0156801665000000015000
B0444593259831S11655965EA0157401665000000015000
B0445033259794S11655917EA0157501669000000015000
B0445073259744S11655920EA0158601684000004015000
B0445113259716S11655968EA0160101698000004015000
B0445153259742S11656022EA0161401710000004015000
B0445193259806S11656024EA0162301723000004015000
B0445233259850S11655969EA0163701737000004015000
B0445273259845S11655904EA0164401741000004015000
B0445313259801S11655873EA0164901749000004015000
B0445353259755S11655898EA0166001760000004015000
B0445393259749S11655957EA0167101775000004015000
B0445433259791S11656006EA0168701786000004015000
B0445473259857S11656003EA0169201789000000015000
B0445513259901S11655941EA0170001799000000015000
B0445553259887S11655872EA0170501802000000015000
B0445593259837S11655846EA0171001809000004015000
B0446033259791S11655878EA0171701818000004015000
B0446073259793S11655944EA0172801833000004015000
B0446113259845S11655981EA0174501847000004015000
B0446153259904S11655956EA0175301851000000015000
B0446193259930S11655887EA0175501854000004015000
B0446233259911S11655827EA0176201860000000015000
B0446273259866S11655804EA0176801868000004015000
B0446313259824S11655834EA0177501870000000015000
B0446353259820S11655900EA0178001882000000015000
B0446393259866S11655943EA0179901899000000015000
B0446433259922S11655930EA0180601899000000015000
B0446473259961S11655874EA0180501900000000015000
B0446513259962S11655804EA0180501897000000015000
B0446553259924S11655757EA0180401902000000015000
B0446593259870S11655753EA0180701905000000015000
B0447033259832S11655799EA0181201912000000015000
B0447073259850S11655861EA0182401928000000015000
B0447113259910S11655879EA0183401931000000015000
B0447153259954S11655829EA0183601934000000015000
B0447193259943S11655760EA0183901937000004015000
B0447233259895S11655727EA0183801932000004015000
B0447273259840S11655757EA0182901921000004015000
B0447313259809S11655829EA0183101935000000015000
B0447353259796S11655907EA0184201946000000000000
B0447393259788S11655991EA0184701945000004000000
B0447433259779S11656077EA0185301949000004000000
B0447473259774S11656168EA0184101928000004000000
B0447513259770S11656269EA0182901922000004000000
B0447553259765S11656368EA0182701922000000000000
B0447593259762S11656463EA0182601920000000000000
B0448033259765S11656557EA0182401919000000000000
B0448073259761S11656649EA0181401905000000000000
B0448113259749S11656745EA0180501899000000000000
B0448153259733S11656831EA0181101912000004000000
B0448193259719S11656908EA0181901911000000000000
B0448233259705S11656987EA0180801896000000000000
B0448273259692S11657072EA0179701887000004000000
B0448313259677S11657157EA0178801881000004000000
B0448353259666S11657246EA0178401880000004000000
B0448393259655S11657333EA0178401877000004000000
B0448433259644S11657421EA0177501868000004000000
B0448473259636S11657512EA0177001861000004000000
B0448513259629S11657606EA0176401857000004000000
B0448553259623S11657699EA0175901850000004000000
B0448593259616S11657796EA0175101842000004000000
B0449033259612S11657892EA0174701842000004000000
B0449073259607S11657985EA0174701842000004000000
B0449113259602S11658076EA0174701842000004000000
B0449153259598S11658166EA0174501840000004000000
B0449193259596S11658253EA0174101835000004000000
B0449233259592S11658339EA0173801830000004000000
B0449273259588S11658425EA0173301825000004000000
B0449313259585S11658509EA0173001824000000000000
B0449353259586S11658594EA0172701821000000000000
B0449393259586S11658677EA0172201813000000000000
B0449433259588S11658764EA0171801810000000000000
B0449473259589S11658849EA0171801812000004000000
B0449513259589S11658934EA0171401808000000000000
B0449553259585S11659020EA0171201804000000000000
B0449593259577S11659107EA0170801799000000000000
B0450033259568S11659192EA0170301796000000000000
B0450073259558S11659274EA0169901791000000000000
B0450113259547S11659356EA0169301785000000000000
B0450153259537S11659436EA0168501775000000000000
B0450193259527S11659521EA0167601769000004000000
B0450233259515S11659605EA0167401766000004000000
B0450273259503S11659690EA0167001763000004000000
B0450313259493S11659770EA0166901764000004000000
B0450353259484S11659847EA0166901764000000000000
B0450393259473S11659921EA0166801759000004000000
B0450433259462S11659999EA0165801748000004000000
B0450473259453S11700082EA0164701736000004000000
B0450513259446S11700168EA0163701728000000000000
B0450553259441S11700253EA0163001723000000000000
B0450593259438S11700337EA0162601719000000000000
B0451033259436S11700418EA0162401718000000000000
B0451073259433S11700494EA0162201718000000000000
B0451113259434S11700570EA0161701708000000000000
B0451153259437S11700645EA0161001700000000000000
B0451193259442S11700725EA0160201694000000000000
B0451233259450S11700804EA0159901693000000000000
B0451273259458S11700884EA0159601688000000000000
B0451313259468S11700962EA0158901678000000000000
B0451353259479S11701042EA0157901666000000000000
B0451393259485S11701128EA0156701655000004000000
B0451433259489S11701216EA0155701645000004000000
B0451473259492S11701308EA0155001642000004000000
B0451513259495S11701398EA0155201646000004000000
B0451553259502S11701486EA0155201642000000000000
B0451593259508S11701576EA0154201630000004000000
B0452033259514S11701668EA0153401625000000000000
B0452073259516S11701762EA0153101623000004000000
B0452113259519S11701856EA0153201625000004000000
B0452153259520S11701947EA0153701634000000000000
B0452193259523S11702034EA0154401639000004000000
B0452233259527S11702123EA0154901644000004000000
B0452273259528S11702212EA0154901639000004000000
B0452313259529S11702301EA0154901645000000000000
B0452353259528S11702385EA0155301647000000000000
B0452393259524S11702467EA0155001637000004000000
B0452433259518S11702554EA0153601624000000000000
B0452473259505S11702643EA0152501612000000000000
B0452513259492S11702736EA0151601606000000000000
B0452553259477S11702824EA0152001615000004000000
B0452593259463S11702909EA0152101613000004000000
B0453033259451S11702993EA0151801608000000000000
B0453073259447S11703080EA0151401603000000000000
B0453113259446S11703170EA0150201588000000000000
B0453153259436S11703265EA0148901577000004000000
B0453193259417S11703357EA0148801582000000000000
B0453233259394S11703443EA0148901578000000000000
B0453273259367S11703533EA0148201573000000000000
B0453313259339S11703621EA0148001570000004000000
B0453353259307S11703707EA0147301559000004000000
B0453393259274S11703794EA0145601541000000000000
B0453433259243S11703884EA0144301532000004000000
B0453473259215S11703971EA0143401522000004000000
B0453513259190S11704059EA0142601515000004000000
B0453553259170S11704147EA0143001525000004000000
B0453593259157S11704232EA0144101537000000000000
B0454033259147S11704313EA0145501552000000000000
B0454073259143S11704389EA0146201552000000000000
B0454113259139S11704469EA0145301542000004000000
B0454153259133S11704552EA0144601540000004000000
B0454193259126S11704630EA0146101563000000000000
B0454233259155S11704687EA0148501581000004000000
B0454273259213S11704674EA0149601590000004000000
B0454313259230S11704604EA0150301598000000000000
B0454353259191S11704554EA0150801601000000000000
B0454393259137S11704558EA0150801600000000000000
B0454433259096S11704606EA0151201605000000000000
B0454473259099S11704674EA0150801599000000000000
B0454513259159S11704709EA0151001606000000000000
B0454553259228S11704683EA0151901620000004015000
B0454593259251S11704608EA0153101625000000015000
B0455033259213S11704548EA0153401627000000015000
B0455073259155S11704545EA0153701631000004015000
B0455113259108S11704587EA0154301634000004015000
B0455153259077S11704648EA0153301616000004000000
B0455193259063S11704729EA0151601601000004000000
B0455233259051S11704816EA0150501594000004000000
B0455273259038S11704901EA0151501614000000000000
B0455313259018S11704982EA0153601635000000000000
B0455353258990S11705052EA0155001640000004000000
B0455393258961S11705121EA0155601652000000000000
B0455433258991S11705185EA0156401651000000000000
B0455473259056S11705182EA0155501638000000000000
B0455513259091S11705119EA0154601635000000015000
B0455553259074S11705043EA0154401636000000015000
B0455593259043S11704976EA0154701641000000000000
B0456033258994S11704931EA0155401650000000000000
B0456073258930S11704935EA0156101654000000000000
B0456113258903S11704995EA0157801679000000000000
B0456153258953S11705031EA0159001679000000015000
B0456193259009S11704989EA0158601677000000015000
B0456233259012S11704912EA0158701685000004015000
B0456273258966S11704869EA0160301704000004015000
B0456313258910S11704891EA0161001700000000015000
B0456353258874S11704957EA0160601700000004015000
B0456393258862S11705041EA0160201689000004000000
B0456433258864S11705132EA0158401666000004000000
B0456473258871S11705230EA0156501651000000000000
B0456513258886S11705329EA0155101637000004000000
B0456553258903S11705429EA0154401635000004000000
B0456593258920S11705527EA0153801625000000000000
B0457033258939S11705624EA0152801617000000000000
B0457073258960S11705720EA0152301613000004000000
B0457113258983S11705814EA0151601605000004000000
B0457153259005S11705909EA0150901596000004000000
B0457193259025S11706001EA0150801601000000000000
B0457233259048S11706090EA0150701595000004000000
B0457273259068S11706179EA0149701585000000000000
B0457313259082S11706270EA0148901579000000000000
B0457353259096S11706359EA0148501575000004000000
B0457393259107S11706447EA0148201571000004000000
B0457433259109S11706538EA0147701566000004000000
B0457473259102S11706629EA0148101575000004000000
B0457513259085S11706715EA0149201588000000000000
B0457553259056S11706793EA0149801592000004000000
B0457593259022S11706867EA0150601602000004000000
B0458033258990S11706937EA0152501624000004000000
B0458073259014S11706996EA0154801644000004000000
B0458113259077S11706981EA0155901649000000000000
B0458153259104S11706909EA0155801648000000015000
B0458193259076S11706844EA0155601647000004015000
B0458233259021S11706811EA0156201659000004015000
B0458273258977S11706845EA0157801675000000015000
B0458313259001S11706900EA0159401689000000015000
B0458353259061S11706877EA0160201694000000015000
B0458393259074S11706802EA0160401695000000015000
B0458433259026S11706760EA0161001706000000015000
B0458473258983S11706798EA0162401726000004015000
B0458513259000S11706858EA0164001739000004015000
B0458553259063S11706861EA0165101746000000015000
B0458593259100S11706797EA0165601748000000015000
B0459033259074S11706733EA0166201762000000015000
B0459073259025S11706729EA0168101781000000015000
B0459113258998S11706776EA0169601790000004015000
B0459153259027S11706828EA0170301794000004015000
B0459193259092S11706822EA0170801803000004015000
B0459233259130S11706758EA0171601807000004015000
B0459273259105S11706693EA0171901813000004015000
B0459313259051S11706692EA0172501820000004015000
B0459353259030S11706747EA0173701837000000015000
B0459393259066S11706796EA0175101849000004015000
B0459433259129S11706789EA0175901854000004015000
B0459473259174S11706732EA0176501861000004015000
B0459513259169S11706662EA0177301868000004015000
B0459553259125S11706627EA0177501867000000015000
B0459593259077S11706649EA0177501867000000015000
B0500033259063S11706714EA0178301878000000015000
B0500073259099S11706767EA0179201890000000015000
B0500113259164S11706757EA0179701890000000015000
B0500153259198S11706690EA0180401900000000015000
B0500193259174S11706627EA0181001902000000015000
B0500233259121S11706615EA0181101902000000015000
B0500273259086S11706662EA0181501911000000015000
B0500313259099S11706720EA0182801925000000015000
B0500353259155S11706745EA0182901918000000015000
B0500393259213S11706702EA0182201917000004015000
B0500433259225S11706627EA0182901926000004015000
B0500473259200S11706560EA0183301926000004015000
B0500513259151S11706526EA0182801918000000015000
B0500553259098S11706554EA0182201913000000000000
B0500593259061S11706620EA0181601911000000000000
B0501033259031S11706697EA0182201918000000000000
B0501073259001S11706775EA0182201915000000000000
B0501113258964S11706850EA0182101917000000000000
B0501153258920S11706916EA0182301916000004000000
B0501193258870S11706979EA0181901909000004000000
B0501233258825S11707044EA0181501908000004000000
B0501273258782S11707115EA0181401908000000000000
B0501313258743S11707193EA0181301905000000000000
B0501353258702S11707273EA0181301906000004000000
B0501393258660S11707352EA0180501895000000000000
B0501433258613S11707431EA0179701889000000000000
B0501473258566S11707517EA0178601877000000000000
B0501513258526S11707605EA0178001873000000000000
B0501553258488S11707694EA0177601865000000000000
B0501593258454S11707785EA0176901862000000000000
B0502033258426S11707875EA0177001865000000000000
B0502073258402S11707967EA0177101865000000000000
B0502113258383S11708060EA0176801861000000000000
B0502153258367S11708155EA0176301855000000000000
B0502193258354S11708252EA0175601847000000000000
B0502233258348S11708349EA0175401841000004000000
B0502273258341S11708448EA0175001836000004000000
B0502313258337S11708545EA0174701836000000000000
B0502353258331S11708639EA0174701834000000000000
B0502393258323S11708734EA0174201828000000000000
B0502433258315S11708829EA0173501820000000000000
B0502473258307S11708926EA0172601812000004000000
B0502513258301S11709024EA0172001806000000000000
B0502553258294S11709119EA0171901808000004000000
B0502593258288S11709208EA0172101809000004000000
B0503033258279S11709295EA0172101810000004000000
B0503073258267S11709379EA0172101810000004000000
B0503113258258S11709462EA0171601803000004000000
B0503153258246S11709546EA0171001795000000000000
B0503193258234S11709631EA0169901785000004000000
B0503233258227S11709721EA0168801773000004000000
B0503273258221S11709810EA0167501759000000000000
B0503313258215S11709901EA0166401751000004000000
B0503353258207S11709994EA0165901743000000000000
B0503393258199S11710086EA0165201737000000000000
B0503433258195S11710178EA0164801736000000000000
B0503473258194S11710270EA0164701734000000000000
B0503513258192S11710359EA0164701738000000000000
B0503553258179S11710441EA0165101742000000000000
B0503593258164S11710520EA0165101741000000000000
B0504033258151S11710598EA0165501744000004000000
B0504073258138S11710675EA0165401743000000000000
B0504113258128S11710751EA0165201739000000000000
B0504153258120S11710831EA0164401730000004000000
B0504193258111S11710913EA0163501719000000000000
B0504233258101S11710995EA0162501710000000000000
B0504273258090S11711075EA0161601700000000000000
B0504313258081S11711158EA0160801692000000000000
B0504353258073S11711242EA0160101686000000000000
B0504393258064S11711325EA0159301675000000000000
B0504433258055S11711409EA0158101664000000000000
B0504473258046S11711495EA0157501656000000000000
B0504513258038S11711581EA0156401646000000000000
B0504553258030S11711667EA0155001630000004000000
B0504593258024S11711755EA0153501614000000000000
B0505033258019S11711846EA0152501606000000000000
B0505073258015S11711934EA0152001605000000000000
B0505113258011S11712020EA0152001604000000000000
B0505153258010S11712106EA0151501597000004000000
B0505193258011S11712192EA0150801589000004000000
B0505233258011S11712278EA0150001582000004000000
B0505273258010S11712365EA0149001570000004000000
B0505313258007S11712451EA0147801558000004000000
B0505353258004S11712535EA0147201555000000000000
B0505393258003S11712617EA0146701549000000000000
B0505433258003S11712700EA0145801538000000000000
B0505473258003S11712786EA0144601527000000000000
B0505513258000S11712872EA0143801521000000000000
B0505553257994S11712956EA0143001512000000000000
B0505593257991S11713039EA0142601509000000000000
B0506033257989S11713124EA0142401506000004000000
B0506073257986S11713210EA0141901499000000000000
B0506113257985S11713297EA0141401498000000000000
B0506153257980S11713385EA0141001492000000000000
B0506193257972S11713476EA0141301501000000000000
B0506233257958S11713559EA0141601506000000000000
B0506273257933S11713634EA0142401517000004000000
B0506313257903S11713700EA0143201522000004000000
B0506353257891S11713771EA0143701533000000000000
B0506393257942S11713804EA0145601554000000000000
B0506433257981S11713748EA0146401552000000015000
B0506473257960S11713678EA0145901552000000015000
B0506513257909S11713649EA0146401557000000015000
B0506553257852S11713657EA0146201552000000015000
B0506593257796S11713683EA0145901546000000000000
B0507033257747S11713732EA0145701548000000000000
B0507073257703S11713791EA0146701562000000000000
B0507113257662S11713852EA0147401565000000000000
B0507153257621S11713914EA0147501562000000000000
B0507193257575S11713977EA0147001553000000000000
B0507233257519S11714029EA0145701542000000000000
B0507273257469S11714083EA0145001536000004000000
B0507313257428S11714147EA0145001540000000000000
B0507353257396S11714217EA0145101538000004000000
B0507393257365S11714291EA0145001542000000000000
B0507433257336S11714365EA0146201556000000000000
B0507473257334S11714438EA0148401577000000000000
B0507513257391S11714460EA0149601584000000000000
B0507553257436S11714398EA0149601587000000015000
B0507593257421S11714323EA0150001593000000015000
B0508033257369S11714287EA0150901608000000015000
B0508073257332S11714326EA0152301618000004015000
B0508113257367S11714375EA0153001622000004015000
B0508153257430S11714351EA0153101621000004030000
B0508193257458S11714276EA0153401631000004030000
B0508233257431S11714209EA0154701644000004015000
B0508273257378S11714193EA0155501652000004015000
B0508313257337S11714235EA0156301658000004015000
B0508353257349S11714297EA0157201666000004015000
B0508393257412S11714315EA0157801673000004015000
B0508433257465S11714263EA0158201675000004030000
B0508473257461S11714185EA0158701686000000015000
B0508513257412S11714146EA0159801693000004015000
B0508553257365S11714176EA0160501700000004015000
B0508593257371S11714239EA0161001705000004015000
B0509033257432S11714265EA0161201707000004015000
B0509073257500S11714242EA0161901713000004030000
B0509113257525S11714168EA0162801726000004030000
B0509153257488S11714112EA0163401728000000015000
B0509193257432S11714118EA0163501732000004015000
B0509233257401S11714172EA0164701744000004015000
B0509273257425S11714228EA0165401749000004015000
B0509313257487S11714246EA0165801754000004015000
B0509353257544S11714203EA0166101755000004015000
B0509393257548S11714120EA0166201762000004015000
B0509433257513S11714057EA0167201771000004015000
B0509473257457S11714034EA0167501771000004015000
B0509513257399S11714050EA0168001777000004015000
B0509553257367S11714103EA0168601788000000015000
B0509593257386S11714165EA0169601795000000015000
B0510033257448S11714172EA0170101795000000015000
B0510073257496S11714108EA0170101797000004030000
B0510113257486S11714027EA0170401801000000015000
B0510153257430S11713991EA0170501801000000015000
B0510193257371S11714013EA0170601802000004015000
B0510233257337S11714074EA0171001804000004015000
B0510273257331S11714155EA0170901806000000015000
B0510313257335S11714239EA0171601814000004015000
