ACAM4N6
HFDTE191023
HFFXA050
HFPLTPILOT:JOHN WELSH              
HFGTYGLIDERTYPE:HORNET      
HFGIDGLIDERID:VH-GMY      
HFDTM100GPSDATUM:
HFRFWFIRMWAREVERSION:F2.6
HFRHWHARDWAREVERSION:300 Series Version 2
HFFTYFRTYPE:CAMBRIDGE AERO INSTRUMENTS, 302+
HFGPS:GARMIN,LVS-25,12,18000
HFPRSPRESSALTSENSOR:INTERSEMA, MS5534-AP, 20000
I033638FXA3941ENL4247REX
LCAMSBVER:5FWVER:F26300
C191023040008191023000102
C0000000N00000000WTAKEOFF     
C3207549S11656849EBEVERLEY AF 
C3249216S11710632ECuballing   
C3240449S11809265EKulin       
C3207549S11656849EBEVERLEY AF 
C0000000N00000000WLANDING     
B0403473207373S11656883EA0014100195000000000000
B0403493207373S11656883EA0014100195000000000000
B0403513207373S11656883EA0014100195000000000000
B0403533207373S11656883EA0014100195000000000000
B0403553207373S11656883EA0014100195000000000000
B0403573207373S11656883EA0014100195000000000000
B0403593207373S11656883EA0014000195000000000000
B0404013207373S11656883EA0014100195000000000000
B0404033207373S11656883EA0014000195000000000000
B0404053207373S11656883EA0014100194000000000000
B0404073207373S11656883EA0014000194000000000000
B0404093207373S11656883EA0014100194000000000000
B0404113207373S11656883EA0014000194000000000000
B0404133207373S11656883EA0013900194000000000000
B0404153207376S11656886EA0014000194000000000000
B0404183207388S11656893EA0014000194000000000000
B0404223207417S11656914EA0014200194000000000000
B0404263207462S11656943EA0014400195000000000000
B0404303207519S11656978EA0014500195000000000000
B0404343207585S11657021EA0014700199000000000000
B0404383207653S11657070EA0014700204000000000000
B0404423207723S11657122EA0015400213000000000000
B0404463207791S11657176EA0016700235000000000000
B0404503207854S11657225EA0019900264000000000000
B0404543207913S11657270EA0022100285000000000000
B0404583207963S11657319EA0023800309000000000000
B0405023208005S11657372EA0026600330000000000000
B0405063208049S11657430EA0027400336000000000000
B0405103208099S11657489EA0028000344000000000000
B0405143208155S11657545EA0029800365000000000000
B0405183208208S11657597EA0032600392000000000000
B0405223208260S11657651EA0034800416000000000000
B0405263208309S11657707EA0036700433000000000000
B0405303208364S11657759EA0038000446000000000000
B0405343208415S11657811EA0039500460000000000000
B0405383208463S11657863EA0040800473000000000000
B0405423208513S11657911EA0042100487000000000000
B0405463208564S11657957EA0043900509000000000000
B0405503208613S11658009EA0046400535000000000000
B0405543208649S11658070EA0048300560000000000000
B0405583208671S11658144EA0049900565000000000000
B0406023208682S11658222EA0050500574000000000000
B0406063208688S11658297EA0051300583000000000000
B0406103208682S11658372EA0052600600000000000000
B0406143208656S11658439EA0054700624000000000000
B0406183208620S11658499EA0057200650000000000000
B0406223208577S11658554EA0059500675000000000000
B0406263208526S11658602EA0061600694000000000000
B0406303208472S11658642EA0063600714000000000000
B0406343208416S11658685EA0065000726000000000000
B0406383208357S11658726EA0065900735000000000000
B0406423208287S11658755EA0066400738000000000000
B0406463208213S11658767EA0067200747000000000000
B0406503208139S11658768EA0068100759000000000000
B0406543208066S11658759EA0069500772000000000000
B0406583207999S11658733EA0070600791000000000000
B0407023207939S11658694EA0072700811000000000000
B0407063207879S11658658EA0073900818000000000000
B0407103207827S11658673EA0074700831000000000000
B0407143207820S11658726EA0075700832000000000000
B0407183207867S11658762EA0075100825000000000000
B0407223207927S11658734EA0074400817000000000000
B0407263207980S11658684EA0073200804000000000000
B0407303208043S11658650EA0072600800000000000000
B0407343208112S11658643EA0071900791000000000000
B0407383208171S11658669EA0071300786000000000000
B0407423208217S11658719EA0070700775000000000000
B0407463208244S11658790EA0069400766000000000000
B0407503208255S11658867EA0068800759000000000000
B0407543208257S11658945EA0067900750000000000000
B0407583208255S11659024EA0066500733000000000000
B0408023208248S11659106EA0065100720000000000000
B0408063208243S11659189EA0063900707000000000000
B0408103208238S11659272EA0062800696000000000000
B0408143208229S11659356EA0061500684000000000000
B0408183208218S11659439EA0060600671000000000000
B0408223208205S11659521EA0059400660000000000000
B0408263208190S11659603EA0058500651000000000000
B0408303208174S11659685EA0057600642000000000000
B0408343208160S11659768EA0056800636000000000000
B0408383208145S11659850EA0056300632000000000000
B0408423208134S11659932EA0055700623000000000000
B0408463208122S11700011EA0054600613000000000000
B0408503208109S11700090EA0054200608000000000000
B0408543208096S11700167EA0053900607000000000000
B0408583208084S11700241EA0054000610000000000000
B0409023208070S11700314EA0054900624000000000000
B0409063208109S11700351EA0057100644000000000000
B0409103208142S11700298EA0058500656000000000000
B0409143208109S11700238EA0059500667000000000000
B0409183208054S11700244EA0060500678000000000000
B0409223208045S11700296EA0061900693000000000000
B0409263208086S11700320EA0062600698000000000000
B0409303208126S11700283EA0063600712000000000000
B0409343208114S11700218EA0064500719000000000000
B0409383208058S11700197EA0064800721000000000000
B0409423208032S11700246EA0065600735000000000000
B0409463208066S11700288EA0066400735000000000000
B0409503208119S11700258EA0066400742000000000000
B0409543208127S11700180EA0067500756000000015000
B0409583208084S11700120EA0068700765000000015000
B0410023208030S11700129EA0069600776000000015000
B0410063208017S11700181EA0071000794000000000000
B0410103208049S11700219EA0072400802000000000000
B0410143208101S11700202EA0073200813000000000000
B0410183208121S11700137EA0074500826000000015000
B0410223208090S11700075EA0075500836000000015000
B0410263208034S11700069EA0075900838000000015000
B0410303208006S11700119EA0076700854000000000000
B0410343208038S11700160EA0078200863000000000000
B0410383208088S11700143EA0079300878000000000000
B0410423208103S11700077EA0080500885000000015000
B0410463208067S11700012EA0080800888000000015000
B0410503208008S11659997EA0081200892000000015000
B0410543207965S11700036EA0081800897000000015000
B0410583207957S11700098EA0082500908000000000000
B0411023207995S11700142EA0083600918000000000000
B0411063208052S11700132EA0084400929000000000000
B0411103208073S11700069EA0085800949000000015000
B0411143208039S11700015EA0087300956000000015000
B0411183207984S11700016EA0088200968000000015000
B0411223207970S11700071EA0089200973000000000000
B0411263208012S11700108EA0089500978000000000000
B0411303208067S11700089EA0090400988000000015000
B0411343208092S11700021EA0091500997000000015000
B0411383208065S11659951EA0092201004000000015000
B0411423208002S11659930EA0092501008000000015000
B0411463207958S11659969EA0093601023000000015000
B0411503207969S11700025EA0094501031000000000000
B0411543208015S11700051EA0095001035000000000000
B0411583208069S11700028EA0095801050000000000000
B0412023208092S11659965EA0097401064000000000000
B0412063208077S11659896EA0098101063000000015000
B0412103208021S11659860EA0097801061000000015000
B0412143207966S11659880EA0098301070000000015000
B0412183207958S11659935EA0099001076000000000000
B0412223208001S11659968EA0099201077000000000000
B0412263208053S11659938EA0099701086000000000000
B0412303208064S11659867EA0101001098000000015000
B0412343208028S11659805EA0101401094000000015000
B0412383207965S11659783EA0100701088000000015000
B0412423207913S11659813EA0101101101000000015000
B0412463207914S11659867EA0102701116000000015000
B0412503207954S11659898EA0103401116000000000000
B0412543208008S11659874EA0103501119000000015000
B0412583208025S11659807EA0103901125000000015000
B0413023207993S11659740EA0104101123000000015000
B0413063207934S11659713EA0103801120000000015000
B0413103207879S11659737EA0103901123000000015000
B0413143207859S11659794EA0104501130000000000000
B0413183207892S11659842EA0104701133000000000000
B0413223207949S11659830EA0104901133000000015000
B0413263207983S11659769EA0105101137000000015000
B0413303207986S11659692EA0105401138000000000000
B0413343207966S11659616EA0105301138000000000000
B0413383207914S11659568EA0104801130000000000000
B0413423207853S11659577EA0104201126000000000000
B0413463207794S11659610EA0103701121000000000000
B0413503207757S11659668EA0104301133000000000000
B0413543207741S11659735EA0105601142000000000000
B0413583207771S11659789EA0106501157000000000000
B0414023207820S11659759EA0108101174000000000000
B0414063207817S11659692EA0109301181000000000000
B0414103207771S11659661EA0109901186000000015000
B0414143207727S11659690EA0110301190000000000000
B0414183207726S11659750EA0111101200000000000000
B0414223207771S11659782EA0111901209000000000000
B0414263207818S11659744EA0113001214000000015000
B0414303207813S11659672EA0113101217000000015000
B0414343207761S11659631EA0113701225000000015000
B0414383207710S11659655EA0115001239000000015000
B0414423207703S11659714EA0115701245000000000000
B0414463207749S11659757EA0115901248000000000000
B0414503207806S11659738EA0116701259000000015000
B0414543207822S11659669EA0117401261000000015000
B0414583207780S11659609EA0117501256000000015000
B0415023207710S11659575EA0116301247000000015000
B0415063207632S11659553EA0115601238000000000000
B0415103207546S11659542EA0115101241000000000000
B0415143207459S11659532EA0115501245000000000000
B0415183207369S11659521EA0115701249000000000000
B0415223207274S11659512EA0116201253000000000000
B0415263207178S11659504EA0115901246000000000000
B0415303207081S11659497EA0115901248000000000000
B0415343206983S11659495EA0115501242000000000000
B0415383206887S11659488EA0114901236000000000000
B0415423206793S11659477EA0114601238000000000000
B0415463206709S11659464EA0115601249000000000000
B0415503206634S11659448EA0116301254000000000000
B0415543206561S11659436EA0116201252000000000000
B0415583206491S11659427EA0116101250000000000000
B0416023206423S11659421EA0115701245000000000000
B0416063206351S11659417EA0115501249000000000000
B0416103206285S11659414EA0116801260000000000000
B0416143206219S11659415EA0116801255000000000000
B0416183206153S11659441EA0116501252000000000000
B0416223206137S11659513EA0117901273000000000000
B0416263206197S11659521EA0119601285000000000000
B0416303206211S11659451EA0120301291000000000000
B0416343206164S11659405EA0120201289000000000000
B0416383206101S11659404EA0120501293000000000000
B0416423206050S11659443EA0120901303000000000000
B0416463206047S11659510EA0121601304000000000000
B0416503206089S11659564EA0121601304000000000000
B0416543206154S11659570EA0122101311000000000000
B0416583206206S11659517EA0122501314000000015000
B0417023206190S11659447EA0123101319000000015000
B0417063206129S11659440EA0122901316000000015000
B0417103206091S11659491EA0123801331000000015000
B0417143206116S11659549EA0124501334000000015000
B0417183206175S11659558EA0125201344000000015000
B0417223206232S11659525EA0125501342000000015000
B0417263206275S11659467EA0125701343000000000000
B0417303206259S11659400EA0126101348000000015000
B0417343206206S11659376EA0126001341000000015000
B0417383206145S11659393EA0125401341000000015000
B0417423206086S11659426EA0125801349000000000000
B0417463206032S11659465EA0126001346000000000000
B0417503206007S11659530EA0125701342000000000000
B0417543206033S11659590EA0125801342000000000000
B0417583206094S11659599EA0124501319000000000000
B0418023206156S11659544EA0122701314000000000000
B0418063206215S11659480EA0123401326000000000000
B0418103206266S11659422EA0124801339000000000000
B0418143206292S11659353EA0125401340000000000000
B0418183206275S11659278EA0125101336000000000000
B0418223206223S11659235EA0124901332000000000000
B0418263206166S11659257EA0124901339000000000000
B0418303206125S11659310EA0125701351000000000000
B0418343206103S11659375EA0126701358000000000000
B0418383206090S11659445EA0126701356000000000000
B0418423206091S11659517EA0126801357000000000000
B0418463206127S11659571EA0127101360000000000000
B0418503206182S11659579EA0126901359000000000000
B0418543206242S11659548EA0126301348000000000000
B0418583206298S11659492EA0125301336000000000000
B0419023206349S11659419EA0124401328000000000000
B0419063206392S11659336EA0124001326000000000000
B0419103206432S11659248EA0123901328000000000000
B0419143206470S11659157EA0125101347000000000000
B0419183206453S11659084EA0127901376000000000000
B0419223206413S11659106EA0129701387000000000000
B0419263206445S11659154EA0130301394000000000000
B0419303206507S11659136EA0131301404000000000000
B0419343206519S11659064EA0132501420000000015000
B0419383206475S11659038EA0134001433000000015000
B0419423206445S11659077EA0134601435000000015000
B0419463206471S11659136EA0134901439000000015000
B0419503206536S11659146EA0135901454000000015000
B0419543206578S11659093EA0137301472000000015000
B0419583206561S11659032EA0138801479000000015000
B0420023206514S11659022EA0139601492000000015000
B0420063206485S11659059EA0140501495000000015000
B0420103206509S11659115EA0141001506000000015000
B0420143206566S11659116EA0142201514000000015000
B0420183206601S11659055EA0142801522000000015000
B0420223206579S11658994EA0143501525000000015000
B0420263206532S11658998EA0144101537000000015000
B0420303206526S11659051EA0145001543000000015000
B0420343206572S11659092EA0145501550000000015000
B0420383206635S11659067EA0146101554000000015000
B0420423206657S11658994EA0146801563000000015000
B0420463206627S11658936EA0147301565000000015000
B0420503206580S11658938EA0147301564000000015000
B0420543206553S11658990EA0147201561000000015000
B0420583206552S11659057EA0147401569000000000000
B0421023206606S11659084EA0148401576000000015000
B0421063206652S11659028EA0148501573000000015000
B0421103206657S11658945EA0147601562000000000000
B0421143206645S11658859EA0146501551000000000000
B0421183206624S11658769EA0145501542000000000000
B0421223206601S11658681EA0144501532000000000000
B0421263206579S11658590EA0143601525000000000000
B0421303206557S11658502EA0143201522000000000000
B0421343206535S11658417EA0142801517000000000000
B0421383206510S11658336EA0142201511000000000000
B0421423206489S11658262EA0141601504000000000000
B0421463206470S11658188EA0140401490000000000000
B0421503206445S11658115EA0139501484000000000000
B0421543206419S11658043EA0138401469000000000000
B0421583206383S11657975EA0137901468000000000000
B0422023206338S11657914EA0137601463000000000000
B0422063206275S11657881EA0137101461000000000000
B0422103206212S11657904EA0137001461000000000000
B0422143206166S11657957EA0136401449000000000000
B0422183206137S11658026EA0136001448000000000000
B0422223206156S11658093EA0136101448000000000000
B0422263206220S11658117EA0134801430000000000000
B0422303206286S11658088EA0133101414000000000000
B0422343206344S11658034EA0131501401000000000000
B0422383206388S11657963EA0131501405000000000000
B0422423206403S11657887EA0132101412000000000000
B0422463206389S11657813EA0132101411000000000000
B0422503206354S11657748EA0131801405000000000000
B0422543206310S11657685EA0131301402000000000000
B0422583206262S11657623EA0130801394000000000000
B0423023206210S11657558EA0129801385000000000000
B0423063206156S11657491EA0129601384000000000000
B0423103206103S11657426EA0129101376000000000000
B0423143206049S11657365EA0128401370000000000000
B0423183205995S11657307EA0127901368000000000000
B0423223205943S11657248EA0127601364000000000000
B0423263205891S11657192EA0127001359000000000000
B0423303205838S11657137EA0127001362000000000000
B0423343205785S11657085EA0127901374000000000000
B0423383205725S11657094EA0129701395000000000000
B0423423205714S11657159EA0130601391000000000000
B0423463205766S11657189EA0130501396000000000000
B0423503205821S11657155EA0130501395000000000000
B0423543205855S11657091EA0130601400000000000000
B0423583205870S11657022EA0131201403000000000000
B0424023205841S11656965EA0130901396000000000000
B0424063205786S11656944EA0129701383000000000000
B0424103205721S11656938EA0128301367000000000000
B0424143205649S11656927EA0127301358000000000000
B0424183205573S11656913EA0127001359000000000000
B0424223205497S11656903EA0127101363000000000000
B0424263205421S11656891EA0127401368000000000000
B0424303205345S11656880EA0127601366000000000000
B0424343205269S11656873EA0127401365000000000000
B0424383205191S11656869EA0126601352000000000000
B0424423205113S11656869EA0126001354000000000000
B0424463205038S11656871EA0126301356000000000000
B0424503204966S11656874EA0126601359000000000000
B0424543204890S11656880EA0126201349000000000000
B0424583204812S11656886EA0125301342000000000000
B0425023204736S11656887EA0124401334000000000000
B0425063204659S11656880EA0123801328000000000000
B0425103204582S11656873EA0123201322000000000000
B0425143204507S11656869EA0122901319000000000000
B0425183204433S11656860EA0123001322000000000000
B0425223204360S11656854EA0123101323000000000000
B0425263204287S11656849EA0122901317000000000000
B0425303204214S11656840EA0122401315000000000000
B0425343204141S11656835EA0122301314000000000000
B0425383204069S11656835EA0122301317000000000000
B0425423204001S11656845EA0123601331000000000000
B0425463203976S11656906EA0124801340000000000000
B0425503204024S11656939EA0125801351000000000000
B0425543204071S11656901EA0126001349000000000000
B0425583204066S11656832EA0126001356000000000000
B0426023204023S11656788EA0127401369000000000000
B0426063203966S11656775EA0127901374000000000000
B0426103203914S11656809EA0128301374000000000000
B0426143203920S11656875EA0128701382000000000000
B0426183203975S11656893EA0129001379000000000000
B0426223204019S11656839EA0128801380000000000000
B0426263204039S11656760EA0128601377000000000000
B0426303204019S11656688EA0129701395000000000000
B0426343203962S11656695EA0130701400000000000000
B0426383203949S11656762EA0130601396000000000000
B0426423204002S11656804EA0130601400000000000000
B0426463204070S11656819EA0130401397000000000000
B0426503204145S11656831EA0129601387000000000000
B0426543204227S11656844EA0128801374000000000000
B0426583204313S11656864EA0127801365000000000000
B0427023204399S11656886EA0127101360000000000000
B0427063204483S11656905EA0126801356000000000000
B0427103204564S11656926EA0126501355000000000000
B0427143204646S11656942EA0125901346000000000000
B0427183204729S11656960EA0125001337000000000000
B0427223204814S11656979EA0124301331000000000000
B0427263204898S11656994EA0123601326000000000000
B0427303204981S11657004EA0123201320000000000000
B0427343205064S11657013EA0122601314000000000000
B0427383205146S11657020EA0122301313000000000000
B0427423205226S11657025EA0122401314000000000000
B0427463205305S11657031EA0122401316000000000000
B0427503205384S11657038EA0122401314000000000000
B0427543205462S11657043EA0121501299000000000000
B0427583205543S11657048EA0121201301000000000000
B0428023205622S11657051EA0121501304000000000000
B0428063205701S11657051EA0121601308000000000000
B0428103205777S11657038EA0122801326000000000000
B0428143205808S11656971EA0125001345000000000000
B0428183205766S11656922EA0125401338000000000000
B0428223205717S11656955EA0124801336000000000000
B0428263205721S11657018EA0124601333000000000000
B0428303205772S11657062EA0124601338000000000000
B0428343205831S11657091EA0124701336000000000000
B0428383205902S11657104EA0124601336000000000000
B0428423205974S11657105EA0124401334000000000000
B0428463206051S11657103EA0124701339000000000000
B0428503206125S11657098EA0124901338000000000000
B0428543206202S11657092EA0124201332000000000000
B0428583206277S11657092EA0123901327000000000000
B0429023206350S11657094EA0123401326000000000000
B0429063206423S11657096EA0123201319000000000000
B0429103206493S11657098EA0122601314000000000000
B0429143206562S11657105EA0121501300000000000000
B0429183206634S11657129EA0120201289000000000000
B0429223206699S11657170EA0119501285000000000000
B0429263206760S11657217EA0118401265000000000000
B0429303206821S11657274EA0117401260000000000000
B0429343206877S11657335EA0117401261000000000000
B0429383206929S11657397EA0117501263000000000000
B0429423206975S11657458EA0117601260000000000000
B0429463207022S11657521EA0116801255000000000000
B0429503207069S11657582EA0117201261000000000000
B0429543207113S11657642EA0117501265000000000000
B0429583207156S11657701EA0117901268000000000000
B0430023207199S11657759EA0118101269000000000000
B0430063207243S11657815EA0118101271000000000000
B0430103207289S11657870EA0118501276000000000000
B0430143207346S11657906EA0119301287000000000000
B0430183207393S11657859EA0121101310000000000000
B0430223207354S11657809EA0122801325000000000000
B0430263207304S11657842EA0123401329000000000000
B0430303207317S11657905EA0124401339000000000000
B0430343207376S11657909EA0125801358000000000000
B0430383207403S11657849EA0127301368000000000000
B0430423207364S11657793EA0128501384000000000000
B0430463207307S11657800EA0129801393000000000000
B0430503207286S11657857EA0130301399000000000000
B0430543207324S11657901EA0131101408000000000000
B0430583207378S11657883EA0132101415000000000000
B0431023207378S11657813EA0132601424000000000000
B0431063207320S11657785EA0133401428000000000000
B0431103207268S11657816EA0134301441000000000000
B0431143207269S11657875EA0135301445000000000000
B0431183207313S11657901EA0135901455000000000000
B0431223207358S11657868EA0137001463000000000000
B0431263207345S11657801EA0137101463000000000000
B0431303207287S11657783EA0137501470000000000000
B0431343207247S11657824EA0138301480000000000000
B0431383207247S11657885EA0138901482000000000000
B0431423207293S11657922EA0139201487000000000000
B0431463207345S11657900EA0140601502000000000000
B0431503207332S11657832EA0141001506000000000000
B0431543207271S11657809EA0141401509000000000000
B0431583207228S11657862EA0141601506000000000000
B0432023207259S11657924EA0141701510000000000000
B0432063207320S11657957EA0141101499000000000000
B0432103207390S11657978EA0140601500000000000000
B0432143207456S11657998EA0141501513000000000000
B0432183207523S11658004EA0143001525000000000000
B0432223207545S11657939EA0144401543000000000000
B0432263207495S11657901EA0144801540000000000000
B0432303207453S11657956EA0144901544000000000000
B0432343207476S11658026EA0145701552000000000000
B0432383207537S11658049EA0146501561000000000000
B0432423207597S11658017EA0147001565000000000000
B0432463207610S11657940EA0147601574000000000000
B0432503207562S11657894EA0148701591000000000000
B0432543207514S11657927EA0150001597000000000000
B0432583207518S11657995EA0150201599000000000000
B0433023207570S11658024EA0150901607000000000000
B0433063207619S11657984EA0151401611000000000000
B0433103207623S11657909EA0152301623000000000000
B0433143207573S11657878EA0153301631000000000000
B0433183207536S11657928EA0152801616000000000000
B0433223207560S11658006EA0152301621000000000000
B0433263207618S11658015EA0154501648000000000000
B0433303207637S11657957EA0156001657000000000000
B0433343207594S11657907EA0156401662000000000000
B0433383207532S11657920EA0157001666000000000000
B0433423207503S11657991EA0157201670000000000000
B0433463207532S11658057EA0157801678000000000000
B0433503207589S11658084EA0158601680000000000000
B0433543207637S11658052EA0158901685000000000000
B0433583207640S11657978EA0159001689000000000000
B0434023207603S11657910EA0159201691000000000000
B0434063207554S11657848EA0159101686000000000000
B0434103207498S11657787EA0158601685000000000000
B0434143207440S11657725EA0158901689000000000000
B0434183207382S11657668EA0159301694000000000000
B0434223207324S11657614EA0159801697000000000000
B0434263207263S11657564EA0160001704000000000000
B0434303207200S11657519EA0160601710000000000000
B0434343207139S11657475EA0161101710000000000000
B0434383207092S11657410EA0160801708000000000000
B0434423207050S11657335EA0160901708000000000000
B0434463206991S11657295EA0161501715000000000000
B0434503206953S11657348EA0161701708000000000000
B0434543207009S11657387EA0159601683000000000000
B0434583207082S11657348EA0158201673000000000000
B0435023207148S11657287EA0157201666000000000000
B0435063207216S11657226EA0157001665000000000000
B0435103207281S11657159EA0157101667000000000000
B0435143207328S11657075EA0157701675000000000000
B0435183207350S11656984EA0158701683000000000000
B0435223207351S11656895EA0158501681000000000000
B0435263207345S11656808EA0158301678000000000000
B0435303207350S11656719EA0157401667000000000000
B0435343207389S11656635EA0156401654000000000000
B0435383207460S11656575EA0155101642000000000000
B0435423207549S11656542EA0153901629000000000000
B0435463207645S11656542EA0153001622000000000000
B0435503207741S11656566EA0152201614000000000000
B0435543207833S11656607EA0151601608000000000000
B0435583207923S11656656EA0151101606000000000000
B0436023208009S11656708EA0150801603000000000000
B0436063208090S11656761EA0150501597000000000000
B0436103208170S11656818EA0149501583000000000000
B0436143208251S11656880EA0148001566000000000000
B0436183208331S11656943EA0147001562000000000000
B0436223208409S11657003EA0146801560000000000000
B0436263208485S11657059EA0146801560000000000000
B0436303208559S11657116EA0146301553000000000000
B0436343208634S11657166EA0146201559000000000000
B0436383208707S11657217EA0146601559000000000000
B0436423208782S11657265EA0146901564000000000000
B0436463208857S11657315EA0145901545000000000000
B0436503208935S11657367EA0144201530000000000000
B0436543209014S11657417EA0143701523000000000000
B0436583209096S11657464EA0142501515000000000000
B0437023209176S11657508EA0142401516000000000000
B0437063209256S11657556EA0142301517000000000000
B0437103209330S11657610EA0142201515000000000000
B0437143209400S11657660EA0142201514000000000000
B0437183209474S11657712EA0140701494000000000000
B0437223209553S11657764EA0139501485000000000000
B0437263209637S11657818EA0138501473000000000000
B0437303209717S11657868EA0138101476000000000000
B0437343209798S11657919EA0137601463000000000000
B0437383209878S11657974EA0136401454000000000000
B0437423209956S11658022EA0136001452000000000000
B0437463210032S11658070EA0135501446000000000000
B0437503210106S11658125EA0134501432000000000000
B0437543210184S11658177EA0134501439000000000000
B0437583210261S11658223EA0135101444000000000000
B0438023210339S11658268EA0134501430000000000000
B0438063210419S11658310EA0133101423000000000000
B0438103210496S11658349EA0133001420000000000000
B0438143210570S11658386EA0131901407000000000000
B0438183210645S11658422EA0130501392000000000000
B0438223210723S11658457EA0129501385000000000000
B0438263210803S11658479EA0129401388000000000000
B0438303210881S11658489EA0129601389000000000000
B0438343210959S11658498EA0129301384000000000000
B0438383211037S11658507EA0130101402000000000000
B0438423211109S11658511EA0131801413000000000000
B0438463211163S11658461EA0132901426000000000000
B0438503211150S11658391EA0133101413000000000000
B0438543211090S11658399EA0131401400000000000000
B0438583211060S11658461EA0130901401000000000000
B0439023211046S11658534EA0130701398000000000000
B0439063211041S11658615EA0130201393000000000000
B0439103211041S11658698EA0129801391000000000000
B0439143211048S11658778EA0129401382000000000000
B0439183211087S11658851EA0127901367000000000000
B0439223211155S11658905EA0126701346000000000000
B0439263211233S11658949EA0124601328000000000000
B0439303211315S11658985EA0123401323000000000000
B0439343211397S11659016EA0123101319000000000000
B0439383211480S11659046EA0122401310000000000000
B0439423211564S11659077EA0121301300000000000000
B0439463211650S11659110EA0120701295000000000000
B0439503211735S11659142EA0120201291000000000000
B0439543211819S11659176EA0119701287000000000000
B0439583211902S11659209EA0120001290000000000000
B0440023211986S11659243EA0120001287000000000000
B0440063212069S11659278EA0119501281000000000000
B0440103212152S11659313EA0118801275000000000000
B0440143212235S11659349EA0117801266000000000000
B0440183212320S11659383EA0116701255000000000000
B0440223212404S11659419EA0115901242000000000000
B0440263212491S11659456EA0115301241000000000000
B0440303212580S11659490EA0114901233000000000000
B0440343212669S11659523EA0113401212000000000000
B0440383212759S11659562EA0111201190000000000000
B0440423212850S11659603EA0109501177000000000000
B0440463212937S11659643EA0109201182000000000000
B0440503213020S11659683EA0109501182000000000000
B0440543213102S11659724EA0108701171000000000000
B0440583213188S11659763EA0107501160000000000000
B0441023213275S11659803EA0106401147000000000000
B0441063213364S11659842EA0105401134000000000000
B0441103213451S11659882EA0104301128000000000000
B0441143213535S11659921EA0103701120000000000000
B0441183213618S11659959EA0102901112000000000000
B0441223213700S11659997EA0102001105000000000000
B0441263213778S11700032EA0102701119000000000000
B0441303213850S11700055EA0104401138000000000000
B0441343213917S11700072EA0105501144000000000000
B0441383213985S11700089EA0105601143000000000000
B0441423214051S11700115EA0105501140000000000000
B0441463214122S11700129EA0105201134000000000000
B0441503214189S11700108EA0104801132000000000000
B0441543214240S11700049EA0104501135000000000000
B0441583214266S11659972EA0105301144000000000000
B0442023214240S11659898EA0106101148000000000000
B0442063214176S11659882EA0106201147000000000000
B0442103214120S11659919EA0106001146000000000000
B0442143214129S11659989EA0105501138000000000000
B0442183214187S11659999EA0105201137000000000000
B0442223214248S11659964EA0104401126000000000000
B0442263214318S11659947EA0103901127000000000000
B0442303214385S11659965EA0104801134000000000000
B0442343214452S11659984EA0104701130000000000000
B0442383214522S11700000EA0103901119000000000000
B0442423214595S11700024EA0102401101000000000000
B0442463214670S11700063EA0101501095000000000000
B0442503214752S11700076EA0102301113000000000000
B0442543214830S11700064EA0103801128000000000000
B0442583214866S11659994EA0105401139000000000000
B0443023214818S11659943EA0105701141000000000000
B0443063214765S11659978EA0105601138000000000000
B0443103214777S11700054EA0105101138000000000000
B0443143214825S11700111EA0106001152000000000000
B0443183214877S11700082EA0107701161000000000000
B0443223214837S11700032EA0107601161000000000000
B0443263214800S11700085EA0108201171000000000000
B0443303214843S11700132EA0109301182000000000000
B0443343214879S11700073EA0110601197000000000000
B0443383214834S11700026EA0111601208000000000000
B0443423214788S11700058EA0113101226000000000000
B0443463214800S11700115EA0114801242000000000000
B0443503214855S11700108EA0116501260000000000000
B0443543214868S11700043EA0117601265000000000000
B0443583214821S11700000EA0117701270000000000000
B0444023214773S11700029EA0118801288000000000000
B0444063214766S11700090EA0120701306000000000000
B0444103214813S11700114EA0122801330000000000000
B0444143214843S11700060EA0124601341000000000000
B0444183214808S11700006EA0125001341000000000000
B0444223214751S11700019EA0125601354000000000000
B0444263214746S11700082EA0126701363000000000000
B0444303214799S11700091EA0128501387000000000000
B0444343214813S11700023EA0130501404000000000000
B0444383214762S11659984EA0131901418000000000000
B0444423214723S11700029EA0133201428000000000000
B0444463214751S11700082EA0134501445000000000000
B0444503214800S11700059EA0136501466000000000000
B0444543214785S11659997EA0137701474000000015000
B0444583214730S11659984EA0139001488000000000000
B0445023214699S11700037EA0140101497000000000000
B0445063214730S11700090EA0141101509000000000000
B0445103214779S11700068EA0143101530000000000000
B0445143214773S11700004EA0144701545000000000000
B0445183214721S11659989EA0145601550000000000000
B0445223214679S11700038EA0146001555000000000000
B0445263214686S11700106EA0147401584000000000000
B0445303214734S11700125EA0149601596000000000000
B0445343214766S11700073EA0150501600000000000000
B0445383214731S11700017EA0151001613000000000000
B0445423214671S11700038EA0152801636000000000000
B0445463214655S11700104EA0155401659000000000000
B0445503214692S11700153EA0156901666000000000000
B0445543214743S11700128EA0157801675000000000000
B0445583214730S11700062EA0158901686000000000000
B0446023214669S11700064EA0159101681000000000000
B0446063214647S11700142EA0159501692000000000000
B0446103214688S11700203EA0160801708000000000000
B0446143214749S11700210EA0161501711000000000000
B0446183214790S11700155EA0162201722000000000000
B0446223214777S11700084EA0163301733000000000000
B0446263214726S11700043EA0164301744000000000000
B0446303214668S11700072EA0165301749000000000000
B0446343214661S11700150EA0165901750000000000000
B0446383214717S11700205EA0165101741000000000000
B0446423214792S11700240EA0164001729000000000000
B0446463214877S11700271EA0162601713000000000000
B0446503214967S11700297EA0161401706000000000000
B0446543215059S11700318EA0161101704000000000000
B0446583215151S11700342EA0160801701000000000000
B0447023215246S11700375EA0160401694000000000000
B0447063215341S11700409EA0160001689000000000000
B0447103215435S11700441EA0159801691000000000000
B0447143215524S11700474EA0159901693000000000000
B0447183215614S11700506EA0159901693000000000000
B0447223215704S11700540EA0159701689000000000000
B0447263215792S11700579EA0159301685000000000000
B0447303215878S11700624EA0158601676000000000000
B0447343215961S11700675EA0157401665000000000000
B0447383216044S11700727EA0156901659000000000000
B0447423216125S11700784EA0156301652000000000000
B0447463216203S11700842EA0155701650000000000000
B0447503216278S11700899EA0155301647000000000000
B0447543216352S11700957EA0155301645000000000000
B0447583216424S11701018EA0154901641000000000000
B0448023216494S11701079EA0154601638000000000000
B0448063216564S11701139EA0154201633000000000000
B0448103216636S11701198EA0153701628000000000000
B0448143216706S11701254EA0153101623000000000000
B0448183216775S11701312EA0152901622000000000000
B0448223216844S11701369EA0152901621000000000000
B0448263216910S11701424EA0152701622000000000000
B0448303216974S11701473EA0152601618000000000000
B0448343217036S11701525EA0151701606000000000000
B0448383217100S11701585EA0151201603000000000000
B0448423217169S11701620EA0152701622000000000000
B0448463217229S11701598EA0154801646000000000000
B0448503217225S11701533EA0156301654000000000000
B0448543217164S11701507EA0156001650000000000000
B0448583217117S11701564EA0156201658000000000000
B0449023217122S11701641EA0157101669000000000000
B0449063217153S11701709EA0157401662000000000000
B0449103217204S11701771EA0156201651000000000000
B0449143217265S11701828EA0155701651000000000000
B0449183217333S11701876EA0155701649000000000000
B0449223217409S11701911EA0154101627000000000000
B0449263217499S11701936EA0152201614000000000000
B0449303217590S11701958EA0152101616000000000000
B0449343217678S11701978EA0152101613000000000000
B0449383217771S11702000EA0151501603000000000000
B0449423217864S11702022EA0151001606000000000000
B0449463217953S11702040EA0151801612000000000000
B0449503218046S11702064EA0151101600000000000000
B0449543218140S11702087EA0150601599000000000000
B0449583218232S11702113EA0151101609000000000000
B0450023218324S11702138EA0151701610000000000000
B0450063218417S11702164EA0150801599000000000000
B0450103218510S11702190EA0149901588000000000000
B0450143218604S11702220EA0148701577000000000000
B0450183218696S11702253EA0148001567000000000000
B0450223218790S11702286EA0146301553000000000000
B0450263218882S11702317EA0145901551000000000000
B0450303218972S11702344EA0146201555000000000000
B0450343219060S11702372EA0145901545000000000000
B0450383219153S11702402EA0144301530000000000000
B0450423219245S11702433EA0143201521000000000000
B0450463219337S11702463EA0142901518000000000000
B0450503219427S11702489EA0142501515000000000000
B0450543219518S11702513EA0141801507000000000000
B0450583219610S11702538EA0140501489000000000000
B0451023219706S11702564EA0138701470000000000000
B0451063219800S11702593EA0137801469000000000000
B0451103219890S11702624EA0137801468000000000000
B0451143219978S11702652EA0137501463000000000000
B0451183220064S11702678EA0137001460000000000000
B0451223220152S11702707EA0136001444000000000000
B0451263220242S11702736EA0134701436000000000000
B0451303220328S11702759EA0135001442000000000000
B0451343220412S11702779EA0134901437000000000000
B0451383220494S11702793EA0134801439000000000000
B0451423220570S11702810EA0135801454000000000000
B0451463220641S11702825EA0137001464000000000000
B0451503220711S11702840EA0137501466000000000000
B0451543220781S11702838EA0137701467000000000000
B0451583220852S11702818EA0137301462000000000000
B0452023220924S11702794EA0136801456000000000000
B0452063221001S11702785EA0136201447000000000000
B0452103221079S11702792EA0135301440000000000000
B0452143221157S11702802EA0135201443000000000000
B0452183221234S11702810EA0134801432000000000000
B0452223221313S11702834EA0133101417000000000000
B0452263221392S11702876EA0131801403000000000000
B0452303221467S11702932EA0130601393000000000000
B0452343221537S11702992EA0130001387000000000000
B0452383221608S11703053EA0129201379000000000000
B0452423221678S11703114EA0128801373000000000000
B0452463221750S11703176EA0128201370000000000000
B0452503221821S11703237EA0127801364000000000000
B0452543221893S11703301EA0127101354000000000000
B0452583221964S11703369EA0126401352000000000000
B0453023222035S11703434EA0126301350000000000000
B0453063222105S11703500EA0126101347000000000000
B0453103222175S11703561EA0126601357000000000000
B0453143222244S11703617EA0126801353000000000000
B0453183222314S11703672EA0125801343000000000000
B0453223222383S11703729EA0124901336000000000000
B0453263222452S11703782EA0124501328000000000000
B0453303222523S11703834EA0123701325000000000000
B0453343222592S11703889EA0123101315000000000000
B0453383222661S11703947EA0122201307000000000000
B0453423222728S11704003EA0122401316000000000000
B0453463222787S11704056EA0123501326000000000000
B0453503222847S11704107EA0123501322000000000000
B0453543222910S11704160EA0123001316000000000000
B0453583222975S11704211EA0122601314000000000000
B0454023223037S11704264EA0122301308000000000000
B0454063223106S11704307EA0122301310000000000000
B0454103223179S11704336EA0122301309000000000000
B0454143223255S11704311EA0122401308000000000000
B0454183223332S11704267EA0121801300000000000000
B0454223223400S11704205EA0121401298000000000000
B0454263223458S11704129EA0120301285000000000000
B0454303223530S11704060EA0118901271000000000000
B0454343223614S11704011EA0118201266000000000000
B0454383223701S11703973EA0117901263000000000000
B0454423223794S11703947EA0116901251000000000000
B0454463223888S11703938EA0116001244000000000000
B0454503223979S11703947EA0115501238000000000000
B0454543224067S11703971EA0114901234000000000000
B0454583224148S11704004EA0114401226000000000000
B0455023224228S11704041EA0113701221000000000000
B0455063224303S11704077EA0113601219000000000000
B0455103224377S11704115EA0113201214000000000000
B0455143224447S11704160EA0112801214000000000000
B0455183224514S11704209EA0113001215000000000000
B0455223224577S11704254EA0113401219000000000000
B0455263224646S11704259EA0113801221000000000000
B0455303224649S11704181EA0114101223000000000000
B0455343224584S11704173EA0113801220000000000000
B0455383224524S11704212EA0113301214000000000000
B0455423224483S11704277EA0112901214000000000000
B0455463224483S11704354EA0113001215000000000000
B0455503224518S11704419EA0113201220000000000000
B0455543224562S11704480EA0113601221000000000000
B0455583224613S11704536EA0112801211000000000000
B0456023224668S11704591EA0111401197000000000000
B0456063224728S11704641EA0110101185000000000000
B0456103224791S11704692EA0108801168000000000000
B0456143224854S11704747EA0107701155000000000000
B0456183224917S11704800EA0107001155000000000000
B0456223224975S11704851EA0107901163000000000000
B0456263225039S11704888EA0108201166000000000000
B0456303225105S11704901EA0109201180000000000000
B0456343225151S11704853EA0110401191000000000000
B0456383225131S11704787EA0111001193000000000000
B0456423225071S11704783EA0110901193000000000000
B0456463225026S11704839EA0111101197000000000000
B0456503225009S11704914EA0111501200000000000000
B0456543225027S11704986EA0111901204000000000000
B0456583225083S11705007EA0111401189000000000000
B0457023225129S11704961EA0110201184000000000000
B0457063225130S11704886EA0109901184000000000000
B0457103225113S11704809EA0110401193000000000000
B0457143225058S11704783EA0112001207000000000000
B0457183225022S11704838EA0112301207000000000000
B0457223225034S11704907EA0112401210000000000000
B0457263225058S11704974EA0112101201000000000000
B0457303225082S11705050EA0111001187000000000000
B0457343225114S11705126EA0109501172000000000000
B0457383225148S11705210EA0108701171000000000000
B0457423225182S11705290EA0109101176000000000000
B0457463225218S11705368EA0109701182000000000000
B0457503225256S11705441EA0110201190000000000000
B0457543225290S11705515EA0111501201000000000000
B0457583225328S11705587EA0112101208000000000000
B0458023225385S11705624EA0113001215000000000000
B0458063225441S11705583EA0113001212000000000000
B0458103225434S11705502EA0113201215000000000000
B0458143225378S11705459EA0113201217000000000000
B0458183225316S11705475EA0113501222000000000000
B0458223225279S11705531EA0114301228000000000000
B0458263225282S11705601EA0114601230000000000000
B0458303225304S11705670EA0113901220000000000000
B0458343225337S11705743EA0112701208000000000000
B0458383225382S11705806EA0111801199000000000000
B0458423225451S11705840EA0111301197000000000000
B0458463225526S11705854EA0111301200000000000000
B0458503225603S11705863EA0112401215000000000000
B0458543225671S11705832EA0113901225000000000000
B0458583225667S11705763EA0115101241000000000000
B0459023225615S11705761EA0116101246000000000000
B0459063225607S11705824EA0116801255000000000000
B0459103225663S11705853EA0117601261000000000000
B0459143225715S11705802EA0117801261000000000000
B0459183225705S11705727EA0118201268000000000000
B0459223225649S11705704EA0118801274000000000000
B0459263225617S11705757EA0120001288000000000000
B0459303225673S11705792EA0120901297000000000000
B0459343225721S11705739EA0122001311000000000000
B0459383225697S11705676EA0122901318000000000000
B0459423225641S11705684EA0123701329000000000000
B0459463225629S11705749EA0124801340000000000000
B0459503225681S11705796EA0126101352000000000000
B0459543225741S11705770EA0127601369000000000000
B0459583225755S11705704EA0128901380000000000000
B0500023225723S11705657EA0130001389000000000000
B0500063225673S11705661EA0130701398000000000000
B0500103225656S11705718EA0132001414000000000000
B0500143225701S11705761EA0133401424000000000000
B0500183225754S11705727EA0134101433000000000000
B0500223225749S11705661EA0134701438000000000000
B0500263225699S11705644EA0135901452000000000000
B0500303225666S11705687EA0137201466000000000000
B0500343225692S11705746EA0138401478000000000000
B0500383225751S11705759EA0139701489000000000000
B0500423225803S11705719EA0140001489000000000000
B0500463225811S11705648EA0140401495000000000000
B0500503225781S11705587EA0140301490000000000000
B0500543225724S11705562EA0140401495000000000000
B0500583225667S11705577EA0141401512000000000000
B0501023225663S11705639EA0143301535000000000000
B0501063225720S11705658EA0145101544000000000000
B0501103225767S11705605EA0145801552000000000000
B0501143225751S11705535EA0146801564000000000000
B0501183225699S11705512EA0148001575000000000000
B0501223225662S11705553EA0149101586000000000000
B0501263225684S11705611EA0150401601000000000000
B0501303225745S11705624EA0151501609000000000000
B0501343225801S11705575EA0152101615000000000000
B0501383225809S11705498EA0152901626000000000000
B0501423225773S11705441EA0153601627000000000000
B0501463225720S11705437EA0152901615000000000000
B0501503225676S11705486EA0152401614000000000000
B0501543225660S11705559EA0152801626000000000000
B0501583225680S11705629EA0154301643000000000000
B0502023225740S11705645EA0155901654000000000000
B0502063225788S11705596EA0156101654000000000000
B0502103225789S11705522EA0156901665000000000000
B0502143225749S11705481EA0157701671000000000000
B0502183225702S11705509EA0158001673000000000000
B0502223225711S11705579EA0158001664000000000000
B0502263225784S11705629EA0156601654000000000000
B0502303225872S11705665EA0156101650000000000000
B0502343225965S11705698EA0155001636000000000000
B0502383226063S11705731EA0152901612000000000000
B0502423226161S11705766EA0151601606000000000000
B0502463226254S11705802EA0151201604000000000000
B0502503226344S11705840EA0151101602000000000000
B0502543226433S11705875EA0151301607000000000000
B0502583226520S11705908EA0151401603000000000000
B0503023226607S11705940EA0150201586000000000000
B0503063226696S11705973EA0148701572000000000000
B0503103226786S11706000EA0148101571000000000000
B0503143226876S11706025EA0147801568000000000000
B0503183226963S11706051EA0147401564000000000000
B0503223227046S11706078EA0147101559000000000000
B0503263227127S11706105EA0146301553000000000000
B0503303227206S11706134EA0145601545000000000000
B0503343227284S11706168EA0145101536000000000000
B0503383227359S11706205EA0144001524000000000000
B0503423227434S11706247EA0142501507000000000000
B0503463227510S11706290EA0141501501000000000000
B0503503227586S11706334EA0140301488000000000000
B0503543227661S11706380EA0139901490000000000000
B0503583227730S11706424EA0140801500000000000000
B0504023227796S11706463EA0141701508000000000000
B0504063227860S11706494EA0142501522000000000000
B0504103227922S11706523EA0143901532000000000000
B0504143227985S11706534EA0145101545000000000000
B0504183228026S11706490EA0146301557000000000000
B0504223228004S11706430EA0146601553000000000000
B0504263227946S11706443EA0147001567000000000000
B0504303227926S11706512EA0148601583000000000000
B0504343227972S11706565EA0149801592000000000000
B0504383228025S11706533EA0150601598000000000000
B0504423228017S11706460EA0150401597000000000000
B0504463227960S11706447EA0151501612000000000000
B0504503227937S11706511EA0152801621000000000000
B0504543227968S11706582EA0153301628000000000000
B0504583228029S11706608EA0154001638000000000000
B0505023228093S11706582EA0155301654000000000000
B0505063228139S11706533EA0157501678000000000000
B0505103228123S11706474EA0159401686000000000000
B0505143228067S11706469EA0158901682000000000000
B0505183228024S11706519EA0159501693000000000000
B0505223227995S11706580EA0160301698000000000000
B0505263227989S11706651EA0160901704000000000000
B0505303228022S11706716EA0161601709000000000000
B0505343228081S11706766EA0161401703000000000000
B0505383228154S11706807EA0161001697000000000000
B0505423228233S11706845EA0160301692000000000000
B0505463228318S11706881EA0159301680000000000000
B0505503228409S11706915EA0158201666000000000000
B0505543228503S11706950EA0156001643000000000000
B0505583228598S11706996EA0154401630000000000000
B0506023228691S11707048EA0153301621000000000000
B0506063228776S11707101EA0152901620000000000000
B0506103228860S11707154EA0152701618000000000000
B0506143228936S11707208EA0153601631000000000000
B0506183229009S11707257EA0155001646000000000000
B0506223229078S11707301EA0156801662000000000000
B0506263229148S11707336EA0157601669000000000000
B0506303229224S11707373EA0157301663000000000000
B0506343229304S11707407EA0157401668000000000000
B0506383229386S11707439EA0157401662000000000000
B0506423229472S11707475EA0155701636000000000000
B0506463229560S11707513EA0154001625000000000000
B0506503229649S11707552EA0153001615000000000000
B0506543229736S11707591EA0151801606000000000000
B0506583229822S11707630EA0151101599000000000000
B0507023229905S11707667EA0150701596000000000000
B0507063229984S11707708EA0150501592000000000000
B0507103230065S11707746EA0150101590000000000000
B0507143230144S11707781EA0150701601000000000000
B0507183230221S11707816EA0151901612000000000000
B0507223230297S11707846EA0152201612000000000000
B0507263230377S11707872EA0151501604000000000000
B0507303230461S11707899EA0151101602000000000000
B0507343230546S11707929EA0151201603000000000000
B0507383230633S11707958EA0151001597000000000000
B0507423230719S11707990EA0149401576000000000000
B0507463230804S11708032EA0147801566000000000000
B0507503230888S11708079EA0147301563000000000000
B0507543230966S11708129EA0146801555000000000000
B0507583231040S11708181EA0146001544000000000000
B0508023231113S11708235EA0145201541000000000000
B0508063231181S11708291EA0144801535000000000000
B0508103231253S11708352EA0144301532000000000000
B0508143231318S11708414EA0146301559000000000000
B0508183231380S11708465EA0147801576000000000000
B0508223231447S11708496EA0149701593000000000000
B0508263231492S11708447EA0151801611000000000000
B0508303231453S11708397EA0152801617000000000000
B0508343231401S11708432EA0152301607000000000000
B0508383231384S11708517EA0152001613000000000000
B0508423231396S11708601EA0153001621000000000000
B0508463231441S11708674EA0153301623000000000000
B0508503231516S11708712EA0153401625000000000000
B0508543231599S11708733EA0153801631000000000000
B0508583231685S11708748EA0153101618000000000000
B0509023231782S11708772EA0150501587000000000000
B0509063231885S11708800EA0149001574000000000000
B0509103231986S11708834EA0148101566000000000000
B0509143232086S11708866EA0147401561000000000000
B0509183232182S11708903EA0146601553000000000000
B0509223232275S11708943EA0146601557000000000000
B0509263232359S11708987EA0146601552000000000000
B0509303232440S11709033EA0145601542000000000000
B0509343232523S11709078EA0144301531000000000000
B0509383232609S11709120EA0143001515000000000000
B0509423232696S11709163EA0142601513000000000000
B0509463232780S11709208EA0142101507000000000000
B0509503232864S11709256EA0141901510000000000000
B0509543232943S11709305EA0142101507000000000000
B0509583233024S11709355EA0141901507000000000000
B0510023233100S11709415EA0141501501000000000000
B0510063233174S11709481EA0140901495000000000000
B0510103233250S11709545EA0140001484000000000000
B0510143233324S11709607EA0139601482000000000000
B0510183233397S11709669EA0139401479000000000000
B0510223233472S11709724EA0138801470000000000000
B0510263233550S11709773EA0137901461000000000000
B0510303233629S11709809EA0137401457000000000000
B0510343233713S11709825EA0136501448000000000000
B0510383233797S11709831EA0135701442000000000000
B0510423233879S11709830EA0135601441000000000000
B0510463233961S11709823EA0135201435000000000000
B0510503234041S11709812EA0134701430000000000000
B0510543234125S11709795EA0133301412000000000000
B0510583234208S11709770EA0132101405000000000000
B0511023234291S11709749EA0132301413000000000000
B0511063234369S11709730EA0133501424000000000000
B0511103234442S11709709EA0134601436000000000000
B0511143234512S11709687EA0135001437000000000000
B0511183234581S11709659EA0134601429000000000000
B0511223234650S11709633EA0133601421000000000000
B0511263234719S11709609EA0132801412000000000000
B0511303234788S11709584EA0132501414000000000000
B0511343234853S11709552EA0132601414000000000000
B0511383234914S11709509EA0132601412000000000000
B0511423234975S11709466EA0132101405000000000000
B0511463235033S11709412EA0131801402000000000000
B0511503235091S11709350EA0130001379000000000000
B0511543235159S11709298EA0128601367000000000000
B0511583235234S11709255EA0128201369000000000000
B0512023235308S11709211EA0128501366000000000000
B0512063235380S11709162EA0127201351000000000000
B0512103235456S11709116EA0125901344000000000000
B0512143235531S11709077EA0125801340000000000000
B0512183235607S11709035EA0125401338000000000000
B0512223235683S11708990EA0125001331000000000000
B0512263235761S11708942EA0124201322000000000000
B0512303235837S11708890EA0124101330000000000000
B0512343235908S11708837EA0124501326000000000000
B0512383235982S11708783EA0123801320000000000000
B0512423236056S11708727EA0122301300000000000000
B0512463236134S11708674EA0121101296000000000000
B0512503236211S11708635EA0120901290000000000000
B0512543236287S11708592EA0119201273000000000000
B0512583236359S11708545EA0118501266000000000000
B0513023236424S11708489EA0118201268000000000000
B0513063236475S11708422EA0119601285000000000000
B0513103236478S11708346EA0120901296000000000000
B0513143236424S11708320EA0121301295000000000000
B0513183236381S11708365EA0120801288000000000000
B0513223236391S11708431EA0120301285000000000000
B0513263236446S11708461EA0120301285000000000000
B0513303236513S11708470EA0120401288000000000000
B0513343236579S11708470EA0121401301000000000000
B0513383236644S11708450EA0122201311000000000000
B0513423236664S11708392EA0123701326000000000000
B0513463236613S11708380EA0124801337000000000000
B0513503236595S11708441EA0125901347000000000000
B0513543236641S11708488EA0126401352000000000000
B0513583236692S11708463EA0127301361000000000000
B0514023236683S11708402EA0127901363000000000000
B0514063236628S11708396EA0128601380000000000000
B0514103236599S11708450EA0130501396000000000000
B0514143236625S11708513EA0131401402000000000000
B0514183236684S11708525EA0132101409000000000000
B0514223236722S11708478EA0132701415000000000000
B0514263236713S11708418EA0133201424000000000000
B0514303236666S11708408EA0134301432000000000000
B0514343236638S11708469EA0134701434000000000000
B0514383236669S11708531EA0135701451000000000000
B0514423236725S11708526EA0136701453000000000000
B0514463236743S11708463EA0136601452000000000000
B0514503236703S11708422EA0137001461000000000000
B0514543236656S11708452EA0138401477000000000000
B0514583236656S11708515EA0139701487000000000000
B0515023236705S11708551EA0140001485000000000000
B0515063236760S11708519EA0139901487000000000000
B0515103236765S11708460EA0140701497000000000000
B0515143236727S11708430EA0141201501000000000000
B0515183236683S11708463EA0141501506000000000000
B0515223236684S11708528EA0142401516000000000000
B0515263236730S11708569EA0142901518000000000000
B0515303236792S11708565EA0142801513000000000000
B0515343236857S11708541EA0142301511000000000000
B0515383236920S11708510EA0141901501000000000000
B0515423236982S11708469EA0139901477000000000000
B0515463237061S11708437EA0136901451000000000000
B0515503237151S11708427EA0135801445000000000000
B0515543237242S11708428EA0135201435000000000000
B0515583237333S11708437EA0134501431000000000000
B0516023237421S11708450EA0133301415000000000000
B0516063237512S11708473EA0131801401000000000000
B0516103237600S11708499EA0130901393000000000000
B0516143237687S11708526EA0129901384000000000000
B0516183237774S11708554EA0128801370000000000000
B0516223237863S11708580EA0127301356000000000000
B0516263237954S11708604EA0126301344000000000000
B0516303238045S11708631EA0125301336000000000000
B0516343238136S11708658EA0124801331000000000000
B0516383238227S11708683EA0124201327000000000000
B0516423238316S11708707EA0124201328000000000000
B0516463238403S11708733EA0124101325000000000000
B0516503238489S11708757EA0123601321000000000000
B0516543238576S11708779EA0123001315000000000000
B0516583238660S11708803EA0123901329000000000000
B0517023238742S11708825EA0125001342000000000000
B0517063238820S11708839EA0126601358000000000000
B0517103238866S11708787EA0128601377000000000000
B0517143238842S11708721EA0128801368000000000000
B0517183238781S11708714EA0128501371000000000000
B0517223238744S11708769EA0129001375000000000000
B0517263238742S11708847EA0129201377000000000000
B0517303238759S11708922EA0130001391000000000000
B0517343238819S11708921EA0132101409000000000000
B0517383238822S11708855EA0132701410000000000000
B0517423238768S11708831EA0132701411000000000000
B0517463238731S11708885EA0132601416000000000000
B0517503238758S11708948EA0134201436000000000000
B0517543238819S11708969EA0135301442000000000000
B0517583238890S11708963EA0135601445000000000000
B0518023238966S11708952EA0135201441000000000000
B0518063239046S11708941EA0134201423000000000000
B0518103239130S11708934EA0132901415000000000000
B0518143239210S11708929EA0132901420000000000000
B0518183239290S11708926EA0133701431000000000000
B0518223239366S11708928EA0134801440000000000000
B0518263239444S11708933EA0134801437000000000000
B0518303239521S11708938EA0135901452000000000000
B0518343239594S11708939EA0136601453000000000000
B0518383239669S11708930EA0136001448000000000000
B0518423239742S11708911EA0135901449000000000000
B0518463239813S11708891EA0136601460000000000000
B0518503239881S11708870EA0137501464000000000000
B0518543239947S11708847EA0137201459000000000000
B0518583240016S11708825EA0136401449000000000000
B0519023240092S11708808EA0134801431000000000000
B0519063240170S11708794EA0133201418000000000000
B0519103240249S11708782EA0133401424000000000000
B0519143240323S11708774EA0134301433000000000000
B0519183240396S11708764EA0134501432000000000000
B0519223240466S11708755EA0134501432000000000000
B0519263240534S11708746EA0134201430000000000000
B0519303240601S11708736EA0133801425000000000000
B0519343240669S11708726EA0133401423000000000000
B0519383240736S11708721EA0133801428000000000000
B0519423240801S11708717EA0134101428000000000000
B0519463240866S11708699EA0133201417000000000000
B0519503240933S11708674EA0133301424000000000000
B0519543240996S11708643EA0133401422000000000000
B0519583241055S11708601EA0133401422000000000000
B0520023241108S11708549EA0133001415000000000000
B0520063241176S11708512EA0131401394000000000000
B0520103241258S11708506EA0129401373000000000000
B0520143241345S11708526EA0127301354000000000000
B0520183241431S11708561EA0125601338000000000000
B0520223241515S11708604EA0124801330000000000000
B0520263241598S11708647EA0124901331000000000000
B0520303241675S11708686EA0126101360000000000000
B0520343241744S11708712EA0129101385000000000000
B0520383241796S11708671EA0131101397000000000000
B0520423241770S11708605EA0131301394000000000000
B0520463241715S11708626EA0131101395000000000000
B0520503241709S11708699EA0131401403000000000000
B0520543241724S11708772EA0132101414000000000000
B0520583241779S11708800EA0133101421000000000000
B0521023241810S11708739EA0133901435000000000000
B0521063241766S11708716EA0135201443000000000000
B0521103241744S11708772EA0135301439000000000000
B0521143241788S11708817EA0135201445000000000000
B0521183241840S11708774EA0136101458000000000000
B0521223241844S11708703EA0137601470000000000000
B0521263241805S11708658EA0138501475000000000000
B0521303241760S11708688EA0138601473000000000000
B0521343241763S11708753EA0139401485000000000000
B0521383241808S11708796EA0139801483000000000000
B0521423241866S11708829EA0139701486000000000000
B0521463241934S11708855EA0140001492000000000000
B0521503242004S11708861EA0141001504000000000000
B0521543242047S11708808EA0142101508000000000000
B0521583242033S11708739EA0141701498000000000000
B0522023241974S11708717EA0141001501000000000000
B0522063241925S11708759EA0141801510000000000000
B0522103241910S11708835EA0142601520000000000000
B0522143241931S11708912EA0143801530000000000000
B0522183241975S11708982EA0144401533000000000000
B0522223242046S11709030EA0143601522000000000000
B0522263242134S11709061EA0142001504000000000000
B0522303242231S11709087EA0140401486000000000000
B0522343242333S11709110EA0139601482000000000000
B0522383242436S11709128EA0138901473000000000000
B0522423242538S11709145EA0138101466000000000000
B0522463242641S11709164EA0137001453000000000000
B0522503242744S11709184EA0135601440000000000000
B0522543242846S11709206EA0134501434000000000000
B0522583242945S11709227EA0134601435000000000000
B0523023243039S11709247EA0134401434000000000000
B0523063243131S11709267EA0133901427000000000000
B0523103243223S11709285EA0133101415000000000000
B0523143243313S11709303EA0132701416000000000000
B0523183243399S11709319EA0133201424000000000000
B0523223243482S11709329EA0134201438000000000000
B0523263243564S11709338EA0135801452000000000000
B0523303243645S11709337EA0137501471000000000000
B0523343243691S11709277EA0140001496000000000000
B0523383243648S11709230EA0142001511000000000000
B0523423243609S11709275EA0143101520000000000000
B0523463243635S11709336EA0143901529000000000000
B0523503243700S11709347EA0144701542000000000000
B0523543243743S11709293EA0146201555000000000000
B0523583243720S11709228EA0147301566000000000000
B0524023243659S11709217EA0147701563000000000000
B0524063243615S11709272EA0148201577000000000000
B0524103243628S11709340EA0150001598000000000000
B0524143243685S11709367EA0151801612000000000000
B0524183243742S11709331EA0152501617000000000000
B0524223243759S11709256EA0153001624000000000000
B0524263243720S11709199EA0153701628000000000000
B0524303243656S11709193EA0153601625000000000000
B0524343243607S11709243EA0154101634000000000000
B0524383243586S11709312EA0155001650000000000000
B0524423243602S11709379EA0156701666000000000000
B0524463243652S11709409EA0158201674000000000000
B0524503243711S11709379EA0158401677000000000000
B0524543243728S11709305EA0159201689000000000000
B0524583243686S11709256EA0160301699000000000000
B0525023243634S11709277EA0161201708000000000000
B0525063243625S11709345EA0162201718000000000000
B0525103243667S11709393EA0163301727000000000000
B0525143243726S11709381EA0163701730000000000000
B0525183243751S11709314EA0164801744000000000000
B0525223243728S11709256EA0166001756000000000000
B0525263243674S11709251EA0166201755000000000000
B0525303243645S11709307EA0166701767000000000000
B0525343243668S11709366EA0167801773000000000000
B0525383243728S11709385EA0167701767000000000000
B0525423243798S11709396EA0167301767000000000000
B0525463243872S11709415EA0167901777000000000000
B0525503243947S11709437EA0168701784000000000000
B0525543244024S11709459EA0169101785000000000000
B0525583244103S11709487EA0168701778000000000000
B0526023244188S11709519EA0167801769000000000000
B0526063244270S11709554EA0167901775000000000000
B0526103244354S11709585EA0167201762000000000000
B0526143244440S11709620EA0165901749000000000000
B0526183244527S11709661EA0164701739000000000000
B0526223244614S11709701EA0164001728000000000000
B0526263244700S11709740EA0163101720000000000000
B0526303244787S11709779EA0162101709000000000000
B0526343244873S11709819EA0161501703000000000000
B0526383244956S11709862EA0160701700000000000000
B0526423245036S11709905EA0160801699000000000000
B0526463245114S11709949EA0160001691000000000000
B0526503245192S11709995EA0159301681000000000000
B0526543245270S11710043EA0158801679000000000000
B0526583245348S11710092EA0158401672000000000000
B0527023245428S11710140EA0157401658000000000000
B0527063245511S11710185EA0155901649000000000000
B0527103245593S11710225EA0156101653000000000000
B0527143245673S11710261EA0156401655000000000000
B0527183245747S11710303EA0155601645000000000000
B0527223245814S11710368EA0154001626000000000000
B0527263245862S11710455EA0153401630000000000000
B0527303245899S11710547EA0153501625000000000000
B0527343245925S11710644EA0152701615000000000000
B0527383245944S11710744EA0151501602000000000000
B0527423245959S11710846EA0150201587000000000000
B0527463245972S11710946EA0149101580000000000000
B0527503245983S11711045EA0148901580000000000000
B0527543245996S11711141EA0149201580000000000000
B0527583246008S11711238EA0148701574000000000000
B0528023246018S11711334EA0147501559000000000000
B0528063246029S11711425EA0147801577000000000000
B0528103246040S11711507EA0150001601000000000000
B0528143246078S11711570EA0151901620000000000000
B0528183246135S11711550EA0154001635000000000000
B0528223246126S11711478EA0154501633000000000000
B0528263246068S11711461EA0154301634000000000000
B0528303246029S11711513EA0154601638000000000000
B0528343246027S11711589EA0154801640000000015000
B0528383246040S11711667EA0155401648000000000000
B0528423246074S11711742EA0156401658000000000000
B0528463246133S11711749EA0158601684000000000000
B0528503246146S11711682EA0159901691000000015000
B0528543246099S11711650EA0160601700000000015000
B0528583246057S11711690EA0161601709000000015000
B0529023246072S11711751EA0162701722000000015000
B0529063246131S11711764EA0163501726000000015000
B0529103246176S11711716EA0164901744000000015000
B0529143246172S11711650EA0165701751000000015000
B0529183246125S11711613EA0166201757000000015000
B0529223246077S11711647EA0167401765000000015000
B0529263246077S11711720EA0167701771000000015000
B0529303246125S11711775EA0168501780000000015000
B0529343246187S11711755EA0169901798000000015000
B0529383246196S11711686EA0171001802000000015000
B0529423246151S11711641EA0171101802000000015000
B0529463246095S11711660EA0172001818000000015000
B0529503246074S11711728EA0172901817000000015000
B0529543246089S11711810EA0171501798000000015000
B0529583246113S11711902EA0170101788000000015000
B0530023246137S11712002EA0170101789000000015000
B0530063246156S11712105EA0170501794000000000000
B0530103246170S11712213EA0170501792000000000000
B0530143246174S11712323EA0170501794000000000000
B0530183246177S11712432EA0170901795000000000000
B0530223246174S11712542EA0171101800000000000000
B0530263246172S11712642EA0172301814000000000000
B0530303246169S11712738EA0172901816000000000000
B0530343246167S11712833EA0173001815000000000000
B0530383246169S11712928EA0172101803000000000000
B0530423246168S11713021EA0171101794000000000000
B0530463246165S11713108EA0170501790000000000000
B0530503246161S11713197EA0169401775000000000000
B0530543246156S11713293EA0166801747000000000000
B0530583246146S11713397EA0165501731000000000000
B0531023246134S11713501EA0164201720000000000000
B0531063246122S11713608EA0162901707000000000000
B0531103246109S11713714EA0161901701000000000000
B0531143246096S11713819EA0161601698000000000000
B0531183246086S11713922EA0161201693000000000000
B0531223246078S11714026EA0160601690000000000000
B0531263246068S11714126EA0160501689000000000000
B0531303246057S11714226EA0159901681000000000000
B0531343246047S11714329EA0159101671000000000000
B0531383246037S11714430EA0158601669000000000000
B0531423246029S11714532EA0158401667000000000000
B0531463246021S11714633EA0157801659000000000000
B0531503246011S11714737EA0156701647000000000000
B0531543245996S11714837EA0156301648000000000000
B0531583245983S11714934EA0157001656000000000000
B0532023245974S11715026EA0156401647000000000000
B0532063245966S11715118EA0156101646000000000000
B0532103245960S11715207EA0155901642000000000000
B0532143245957S11715296EA0155801645000000000000
B0532183245961S11715383EA0156501654000000000000
B0532223245970S11715473EA0156801652000000000000
B0532263245981S11715564EA0157601669000000000000
B0532303245992S11715651EA0158901677000000000000
B0532343246005S11715740EA0159701688000000000000
B0532383246012S11715828EA0162001709000000000000
B0532423246057S11715875EA0164801743000000000000
B0532463246103S11715838EA0166501752000000000000
B0532503246078S11715780EA0167101762000000000000
B0532543246018S11715771EA0168201771000000000000
B0532583245972S11715819EA0169101786000000000000
B0533023245986S11715886EA0170501799000000000000
B0533063246048S11715897EA0172001816000000000000
B0533103246091S11715842EA0173801835000000015000
B0533143246076S11715776EA0175401850000000015000
B0533183246022S11715745EA0177101869000000015000
B0533223245970S11715773EA0178901882000000015000
B0533263245960S11715846EA0179301884000000015000
B0533303245999S11715907EA0180101895000000015000
B0533343246063S11715933EA0181901914000000015000
B0533383246129S11715915EA0182601916000000015000
B0533423246165S11715853EA0183301934000000015000
B0533463246150S11715789EA0184601936000000015000
B0533503246090S11715764EA0184401933000000015000
B0533543246025S11715794EA0184401936000000015000
B0533583245985S11715871EA0184301930000000015000
B0534023245964S11715968EA0183801929000000015000
B0534063245951S11716075EA0183301920000000015000
B0534103245940S11716189EA0182101906000000000000
B0534143245934S11716306EA0181001899000000000000
B0534183245929S11716425EA0180401892000000000000
B0534223245923S11716543EA0179901888000000000000
B0534263245914S11716659EA0179101880000000000000
B0534303245901S11716774EA0178301873000000000000
B0534343245887S11716889EA0177601863000000000000
B0534383245874S11717003EA0176501855000000000000
B0534423245858S11717112EA0176201854000000000000
B0534463245844S11717219EA0175801849000000000000
B0534503245830S11717324EA0175401846000000000000
B0534543245810S11717430EA0175001840000000000000
B0534583245791S11717537EA0174501837000000000000
B0535023245773S11717647EA0174001831000000000000
B0535063245753S11717758EA0173301824000000000000
B0535103245734S11717870EA0173001820000000000000
B0535143245714S11717979EA0172801820000000000000
B0535183245699S11718086EA0172701816000000000000
B0535223245682S11718193EA0171601803000000000000
B0535263245662S11718299EA0170501797000000000000
B0535303245644S11718407EA0169901787000000000000
B0535343245630S11718510EA0171301811000000000000
B0535383245615S11718603EA0173001824000000000000
B0535423245606S11718696EA0174101837000000000000
B0535463245601S11718785EA0175301853000000000000
B0535503245600S11718873EA0176601864000000000000
B0535543245598S11718962EA0177801878000000000000
B0535583245597S11719052EA0178801885000000000000
B0536023245596S11719139EA0179801896000000000000
B0536063245591S11719226EA0179701886000000000000
B0536103245584S11719321EA0177701863000000000000
B0536143245574S11719422EA0175601844000000000000
B0536183245566S11719528EA0174401834000000000000
B0536223245557S11719633EA0173301818000000000000
B0536263245549S11719741EA0172101814000000000000
B0536303245543S11719845EA0172001811000000000000
B0536343245537S11719953EA0171301805000000000000
B0536383245531S11720059EA0171101805000000000000
B0536423245523S11720166EA0170901800000000000000
B0536463245513S11720275EA0170001788000000000000
B0536503245501S11720390EA0170401798000000000000
B0536543245494S11720495EA0172701823000000000000
B0536583245491S11720596EA0174901845000000000000
B0537023245488S11720695EA0176601866000000000000
B0537063245488S11720793EA0177801872000000000000
B0537103245487S11720890EA0177901873000000000000
B0537143245480S11720985EA0178801886000000000000
B0537183245475S11721076EA0180501905000000000000
B0537223245470S11721162EA0182101921000000000000
B0537263245463S11721246EA0183801939000000000000
B0537303245458S11721331EA0185301955000000000000
B0537343245454S11721414EA0186901969000000000000
B0537383245445S11721496EA0186601954000000000000
B0537423245429S11721590EA0183701917000000000000
B0537463245407S11721700EA0180201885000000000000
B0537503245384S11721817EA0178201868000000000000
B0537543245361S11721931EA0176501854000000000000
B0537583245337S11722041EA0175701849000000000000
B0538023245318S11722145EA0176101857000000000000
B0538063245299S11722245EA0176401856000000000000
B0538103245280S11722346EA0175401841000000000000
B0538143245259S11722448EA0174901845000000000000
B0538183245237S11722545EA0174901843000000000000
B0538223245216S11722641EA0175501850000000000000
B0538263245197S11722739EA0175401846000000000000
B0538303245180S11722840EA0176101861000000000000
B0538343245162S11722938EA0177501874000000000000
B0538383245143S11723033EA0178101875000000000000
B0538423245121S11723126EA0177001858000000000000
B0538463245098S11723225EA0175201839000000000000
B0538503245076S11723328EA0174101834000000000000
B0538543245054S11723434EA0173601828000000000000
B0538583245032S11723541EA0173701833000000000000
B0539023245010S11723646EA0175101850000000000000
B0539063244991S11723748EA0176301862000000000000
B0539103244977S11723845EA0177001864000000000000
B0539143244961S11723946EA0176501856000000000000
B0539183244950S11724049EA0175701849000000000000
B0539223244938S11724152EA0174901843000000000000
B0539263244928S11724252EA0174401840000000000000
B0539303244917S11724352EA0173801829000000000000
B0539343244906S11724455EA0173101827000000000000
B0539383244894S11724555EA0173901839000000000000
B0539423244882S11724654EA0175001850000000000000
B0539463244870S11724752EA0175301848000000000000
B0539503244857S11724853EA0174901843000000000000
B0539543244842S11724954EA0174001832000000000000
B0539583244824S11725059EA0174001838000000000000
B0540023244811S11725161EA0174601843000000000000
B0540063244798S11725262EA0176101862000000000000
B0540103244789S11725362EA0178001884000000000000
B0540143244782S11725457EA0180601908000000000000
B0540183244786S11725551EA0182001920000000000000
B0540223244792S11725643EA0182401922000000000000
B0540263244802S11725737EA0183401930000000000000
B0540303244854S11725803EA0184901949000000000000
B0540343244913S11725773EA0185901949000000000000
B0540383244900S11725701EA0184701936000000000000
B0540423244838S11725672EA0183801928000000000000
B0540463244766S11725688EA0183401932000000000000
B0540503244699S11725729EA0184501947000000000000
B0540543244647S11725791EA0186401966000000000000
B0540583244612S11725867EA0187901976000000000000
B0541023244597S11725959EA0186701956000000000000
B0541063244597S11726065EA0184701935000000000000
B0541103244600S11726179EA0183401921000000000000
B0541143244603S11726292EA0181901905000000000000
B0541183244603S11726407EA0180001887000000000000
B0541223244600S11726520EA0179001882000000000000
B0541263244590S11726631EA0178101868000000000000
B0541303244574S11726743EA0176101847000000000000
B0541343244556S11726857EA0174501832000000000000
B0541383244534S11726972EA0172901819000000000000
B0541423244508S11727085EA0172001810000000000000
B0541463244480S11727195EA0171901813000000000000
B0541503244456S11727304EA0171901811000000000000
B0541543244432S11727415EA0171601809000000000000
B0541583244413S11727525EA0171801812000000000000
B0542023244392S11727636EA0172001812000000000000
B0542063244370S11727748EA0171501805000000000000
B0542103244353S11727854EA0171701806000000000000
B0542143244339S11727961EA0170801792000000000000
B0542183244327S11728070EA0170501796000000000000
B0542223244321S11728171EA0171301807000000000000
B0542263244318S11728272EA0171601806000000000000
B0542303244323S11728376EA0170701795000000000000
B0542343244330S11728485EA0170801799000000000000
B0542383244343S11728591EA0171501808000000000000
B0542423244356S11728694EA0172301812000000000000
B0542463244369S11728801EA0170801787000000000000
B0542503244376S11728911EA0168701771000000000000
B0542543244382S11729022EA0167501761000000000000
B0542583244384S11729130EA0166701754000000000000
B0543023244387S11729236EA0165701743000000000000
B0543063244391S11729344EA0164501733000000000000
B0543103244396S11729451EA0164901743000000000000
B0543143244400S11729553EA0165401744000000000000
B0543183244404S11729651EA0165501748000000000000
B0543223244406S11729746EA0165701746000000000000
B0543263244410S11729841EA0165401743000000000000
B0543303244417S11729937EA0164401728000000000000
B0543343244423S11730037EA0163601728000000000000
B0543383244428S11730132EA0164901746000000000000
B0543423244434S11730223EA0166201757000000000000
B0543463244439S11730313EA0166601759000000000000
B0543503244449S11730400EA0167401767000000000000
B0543543244484S11730475EA0167601764000000000000
B0543583244513S11730560EA0166501752000000000000
B0544023244516S11730653EA0166001753000000000000
B0544063244501S11730739EA0166201756000000000000
B0544103244480S11730823EA0165801746000000000000
B0544143244457S11730909EA0164101721000000000000
B0544183244428S11731005EA0161101690000000000000
B0544223244397S11731107EA0158701675000000000000
B0544263244367S11731206EA0158401674000000000000
B0544303244335S11731302EA0157501661000000000000
B0544343244301S11731395EA0156801657000000000000
B0544383244269S11731488EA0156701657000000000000
B0544423244237S11731577EA0156501654000000000000
B0544463244206S11731671EA0156401656000000000000
B0544503244178S11731759EA0157501674000000000000
B0544543244154S11731843EA0159301691000000000000
B0544583244142S11731923EA0160601699000000000000
B0545023244144S11732006EA0161001699000000000000
B0545063244161S11732092EA0160401692000000000000
B0545103244185S11732178EA0160001685000000000000
B0545143244214S11732266EA0158801671000000000000
B0545183244245S11732355EA0158301676000000000000
B0545223244274S11732437EA0160101699000000000000
B0545263244296S11732516EA0161601710000000000000
B0545303244317S11732601EA0162501719000000000000
B0545343244363S11732659EA0164501745000000000000
B0545383244425S11732638EA0166901767000000000000
B0545423244431S11732571EA0168401777000000000000
B0545463244388S11732532EA0169201788000000000000
B0545503244337S11732551EA0170601802000000000000
B0545543244328S11732615EA0171901814000000000000
B0545583244379S11732653EA0172901822000000000000
B0546023244435S11732614EA0173801840000000000000
B0546063244439S11732545EA0175701856000000000000
B0546103244393S11732510EA0177001865000000000000
B0546143244348S11732546EA0177801874000000000000
B0546183244356S11732614EA0178801886000000000000
B0546223244413S11732642EA0179801893000000000000
B0546263244467S11732603EA0181101912000000000000
B0546303244471S11732537EA0183001928000000000000
B0546343244431S11732499EA0184101938000000000000
B0546383244387S11732525EA0184701942000000000000
B0546423244382S11732594EA0184901946000000000000
B0546463244427S11732649EA0185701960000000000000
B0546503244488S11732646EA0187601981000000000000
B0546543244517S11732593EA0189101986000000000000
B0546583244490S11732536EA0189301993000000000000
B0547023244439S11732521EA0190702008000000000000
B0547063244401S11732558EA0191602010000000000000
B0547103244395S11732633EA0190902000000000000000
B0547143244402S11732724EA0189901989000000000000
B0547183244417S11732825EA0189401988000000000000
B0547223244427S11732928EA0189201983000000000000
B0547263244432S11733035EA0188101974000000000000
B0547303244430S11733144EA0187301962000000000000
B0547343244426S11733253EA0186601954000000000000
B0547383244423S11733364EA0185201939000000000000
B0547423244423S11733477EA0184101930000000000000
B0547463244426S11733589EA0182801916000000000000
B0547503244426S11733704EA0181401901000000000000
B0547543244427S11733821EA0179801886000000000000
B0547583244428S11733938EA0178901880000000000000
B0548023244431S11734049EA0178801880000000000000
B0548063244438S11734157EA0178501874000000000000
B0548103244447S11734262EA0178101875000000000000
B0548143244456S11734363EA0178001868000000000000
B0548183244465S11734466EA0177001858000000000000
B0548223244475S11734569EA0176501856000000000000
B0548263244482S11734671EA0175901850000000000000
B0548303244490S11734770EA0175801851000000000000
B0548343244496S11734869EA0175501844000000000000
B0548383244501S11734967EA0174801838000000000000
B0548423244505S11735067EA0174301833000000000000
B0548463244509S11735165EA0174101834000000000000
B0548503244510S11735262EA0174401833000000000000
B0548543244513S11735358EA0173801829000000000000
B0548583244516S11735453EA0173901832000000000000
B0549023244519S11735544EA0174701842000000000000
B0549063244525S11735633EA0175001840000000000000
B0549103244532S11735724EA0175101845000000000000
B0549143244538S11735818EA0175201842000000000000
B0549183244544S11735913EA0174201828000000000000
B0549223244552S11736009EA0173301825000000000000
B0549263244556S11736105EA0174001839000000000000
B0549303244562S11736198EA0174601835000000000000
B0549343244570S11736295EA0173801831000000000000
B0549383244575S11736397EA0173901832000000000000
B0549423244579S11736497EA0173401822000000000000
B0549463244579S11736599EA0172701817000000000000
B0549503244573S11736699EA0172701819000000000000
B0549543244568S11736801EA0172301812000000000000
B0549583244558S11736907EA0171101796000000000000
B0550023244543S11737015EA0170101790000000000000
B0550063244526S11737126EA0169401781000000000000
B0550103244508S11737236EA0168101767000000000000
B0550143244488S11737348EA0166901756000000000000
B0550183244466S11737461EA0166401750000000000000
B0550223244443S11737572EA0165601744000000000000
B0550263244419S11737680EA0165101735000000000000
B0550303244395S11737789EA0163401719000000000000
B0550343244371S11737898EA0162101705000000000000
B0550383244352S11738006EA0162001710000000000000
B0550423244335S11738107EA0162501716000000000000
B0550463244317S11738205EA0162801716000000000000
B0550503244304S11738305EA0162401712000000000000
B0550543244292S11738404EA0162901723000000000000
B0550583244284S11738496EA0164501745000000000000
B0551023244276S11738581EA0167201773000000000000
B0551063244298S11738651EA0169901800000000000000
B0551103244360S11738660EA0172201818000000000000
B0551143244393S11738597EA0173301827000000000000
B0551183244366S11738534EA0174201835000000000000
B0551223244310S11738523EA0175301850000000000000
B0551263244269S11738562EA0176801863000000000000
B0551303244293S11738626EA0178001877000000000000
B0551343244357S11738617EA0179501892000000000000
B0551383244378S11738548EA0181201911000000000000
B0551423244341S11738499EA0182601923000000000000
B0551463244292S11738508EA0183901934000000000000
B0551503244272S11738566EA0184601939000000000000
B0551543244309S11738626EA0185301950000000000000
B0551583244376S11738631EA0186401964000000000000
B0552023244419S11738575EA0188001977000000000000
B0552063244408S11738508EA0188901984000000000000
B0552103244358S11738480EA0189701996000000000000
B0552143244318S11738516EA0190902002000000000000
B0552183244310S11738587EA0190501997000000000000
B0552223244309S11738670EA0190101989000000000000
B0552263244309S11738766EA0189001979000000000000
B0552303244309S11738872EA0188001969000000000000
B0552343244310S11738982EA0187401964000000000000
B0552383244309S11739094EA0187201965000000000000
B0552423244306S11739205EA0187701967000000000000
B0552463244304S11739316EA0187001955000000000000
B0552503244300S11739431EA0185101934000000000000
B0552543244295S11739549EA0183601923000000000000
B0552583244288S11739667EA0182801918000000000000
B0553023244280S11739783EA0182601915000000000000
B0553063244272S11739897EA0182301913000000000000
B0553103244266S11740011EA0181601903000000000000
B0553143244261S11740124EA0180101885000000000000
B0553183244257S11740238EA0178701870000000000000
B0553223244253S11740355EA0176801850000000000000
B0553263244249S11740477EA0175001835000000000000
B0553303244241S11740599EA0173801825000000000000
B0553343244232S11740720EA0173101817000000000000
B0553383244222S11740839EA0171901805000000000000
B0553423244214S11740958EA0171101800000000000000
B0553463244204S11741073EA0170801796000000000000
B0553503244193S11741187EA0170001785000000000000
B0553543244187S11741304EA0168901771000000000000
B0553583244181S11741422EA0167801764000000000000
B0554023244176S11741539EA0167101756000000000000
B0554063244170S11741654EA0166301749000000000000
B0554103244162S11741769EA0165401738000000000000
B0554143244154S11741885EA0164301727000000000000
B0554183244146S11742003EA0163201716000000000000
B0554223244139S11742120EA0162301709000000000000
B0554263244132S11742235EA0161701700000000000000
B0554303244126S11742348EA0161001694000000000000
B0554343244120S11742460EA0160201686000000000000
B0554383244115S11742570EA0159301678000000000000
B0554423244109S11742678EA0158601673000000000000
B0554463244102S11742782EA0158201668000000000000
B0554503244097S11742886EA0157201657000000000000
B0554543244093S11742991EA0156201646000000000000
B0554583244088S11743098EA0155201637000000000000
B0555023244083S11743205EA0154801630000000000000
B0555063244075S11743313EA0153701618000000000000
B0555103244067S11743422EA0152701610000000000000
B0555143244059S11743528EA0152101604000000000000
B0555183244051S11743634EA0151101594000000000000
B0555223244037S11743738EA0150401586000000000000
B0555263244022S11743843EA0149601579000000000000
B0555303244006S11743948EA0149501582000000000000
B0555343243989S11744051EA0150101588000000000000
B0555383243972S11744152EA0150401588000000000000
B0555423243960S11744254EA0151101598000000000000
B0555463243953S11744349EA0151901604000000000000
B0555503243946S11744442EA0152001608000000000000
B0555543243942S11744533EA0152201606000000000000
B0555583243940S11744624EA0151901602000000000000
B0556023243937S11744718EA0151201592000000000000
B0556063243932S11744814EA0150001579000000000000
B0556103243936S11744914EA0148601565000000000000
B0556143243945S11745018EA0147101547000000000000
B0556183243951S11745122EA0146201544000000000000
B0556223243958S11745222EA0145701538000000000000
B0556263243966S11745322EA0144601525000000000000
B0556303243976S11745425EA0143201505000000000000
B0556343243989S11745536EA0140701482000000000000
B0556383244003S11745647EA0138801467000000000000
B0556423244020S11745762EA0137701454000000000000
B0556463244036S11745876EA0136401442000000000000
B0556503244049S11745989EA0135901443000000000000
B0556543244057S11746097EA0135801441000000000000
B0556583244059S11746205EA0135401435000000000000
B0557023244061S11746314EA0134601427000000000000
B0557063244057S11746418EA0134401427000000000000
B0557103244051S11746521EA0134601432000000000000
B0557143244045S11746620EA0135901448000000000000
B0557183244027S11746709EA0137201461000000000000
B0557223243971S11746755EA0138701488000000000000
B0557263243918S11746734EA0141201502000000000000
B0557303243882S11746674EA0142001507000000000000
B0557343243886S11746603EA0142801517000000000000
B0557383243931S11746564EA0143601520000000000000
B0557423243983S11746582EA0144201526000000000000
B0557463244033S11746613EA0144401528000000000000
B0557503244094S11746637EA0144101523000000000000
B0557543244149S11746598EA0144101524000000000000
B0557583244144S11746520EA0144201528000000000000
B0558023244107S11746451EA0145101539000000000000
B0558063244050S11746439EA0145501539000000000000
B0558103244015S11746496EA0145101526000000000000
B0558143244024S11746574EA0144401535000000000000
B0558183244057S11746642EA0145301540000000000000
B0558223244102S11746702EA0145101533000000000000
B0558263244158S11746756EA0144301527000000000000
B0558303244211S11746813EA0144001521000000000000
B0558343244249S11746893EA0142901513000000000000
B0558383244270S11746982EA0143001520000000000000
B0558423244283S11747071EA0144301533000000000000
B0558463244295S11747158EA0144401530000000000000
B0558503244302S11747246EA0144301529000000000000
B0558543244304S11747335EA0144201528000000000000
B0558583244295S11747427EA0143801519000000000000
B0559023244280S11747522EA0143201517000000000000
B0559063244265S11747619EA0142801508000000000000
B0559103244245S11747717EA0141301491000000000000
B0559143244224S11747817EA0139901480000000000000
B0559183244204S11747917EA0139201474000000000000
B0559223244180S11748016EA0138401465000000000000
B0559263244153S11748113EA0138501472000000000000
B0559303244129S11748207EA0140401489000000000000
B0559343244150S11748285EA0143001530000000000000
B0559383244213S11748272EA0146401551000000000000
B0559423244217S11748195EA0147001550000000000000
B0559463244163S11748162EA0147401562000000000000
B0559503244119S11748193EA0149001582000000000000
B0559543244137S11748251EA0150801599000000000000
B0559583244200S11748253EA0152001605000000000000
B0600023244244S11748184EA0152301610000000000000
B0600063244227S11748110EA0153401627000000000000
B0600103244178S11748084EA0155001638000000000000
B0600143244141S11748126EA0155401636000000000000
B0600183244172S11748188EA0155901649000000000000
B0600223244240S11748167EA0157701670000000000000
B0600263244263S11748093EA0159201679000000000000
B0600303244230S11748034EA0159901687000000000000
B0600343244171S11748038EA0160001685000000000000
B0600383244140S11748099EA0160201695000000000000
B0600423244174S11748158EA0161601711000000000000
B0600463244241S11748145EA0163101725000000000000
B0600503244280S11748073EA0164001731000000000000
B0600543244263S11747998EA0165001744000000000000
B0600583244213S11747972EA0166101749000000000000
B0601023244168S11748009EA0165401734000000000000
B0601063244146S11748086EA0163601715000000000000
B0601103244128S11748177EA0163401729000000000000
B0601143244115S11748267EA0164701739000000000000
B0601183244122S11748355EA0167301770000000000000
B0601223244185S11748370EA0170201794000000000000
B0601263244209S11748297EA0170701796000000000000
B0601303244163S11748249EA0171301803000000000000
B0601343244101S11748260EA0171901812000000000000
B0601383244055S11748319EA0172601812000000000000
B0601423244036S11748406EA0172201804000000000000
B0601463244024S11748505EA0171001793000000000000
B0601503244012S11748607EA0170501790000000000000
B0601543244005S11748713EA0169501776000000000000
B0601583243998S11748819EA0168501769000000000000
B0602023243992S11748926EA0167701757000000000000
B0602063243989S11749035EA0166101742000000000000
B0602103243986S11749147EA0165301739000000000000
B0602143243985S11749256EA0165901748000000000000
B0602183243983S11749364EA0165901745000000000000
B0602223243980S11749471EA0166101750000000000000
B0602263243979S11749576EA0165901734000000000000
B0602303243977S11749688EA0163301708000000000000
B0602343243975S11749802EA0161501695000000000000
B0602383243970S11749918EA0160601687000000000000
B0602423243964S11750034EA0159401674000000000000
B0602463243949S11750151EA0158201665000000000000
B0602503243928S11750264EA0157701662000000000000
B0602543243907S11750372EA0157701664000000000000
B0602583243885S11750472EA0158201669000000000000
B0603023243862S11750569EA0157901660000000000000
B0603063243842S11750665EA0157501662000000000000
B0603103243824S11750759EA0157401659000000000000
B0603143243812S11750855EA0157401660000000000000
B0603183243804S11750949EA0157101655000000000000
B0603223243799S11751046EA0156301645000000000000
B0603263243798S11751145EA0155101631000000000000
B0603303243801S11751249EA0152701602000000000000
B0603343243794S11751361EA0150501583000000000000
B0603383243780S11751473EA0148901564000000000000
B0603423243759S11751584EA0147101547000000000000
B0603463243736S11751695EA0145701536000000000000
B0603503243711S11751802EA0145101530000000000000
B0603543243687S11751908EA0144201522000000000000
B0603583243665S11752013EA0143601516000000000000
B0604023243645S11752117EA0142701506000000000000
B0604063243625S11752221EA0141301494000000000000
B0604103243608S11752322EA0140901490000000000000
B0604143243591S11752420EA0140501485000000000000
B0604183243580S11752520EA0139401471000000000000
B0604223243567S11752619EA0138301462000000000000
B0604263243547S11752717EA0137201451000000000000
B0604303243522S11752810EA0136301440000000000000
B0604343243496S11752903EA0136101444000000000000
B0604383243474S11752992EA0136601451000000000000
B0604423243450S11753076EA0138201469000000000000
B0604463243426S11753154EA0140101495000000000000
B0604503243459S11753211EA0142601518000000000000
B0604543243512S11753190EA0143901520000000000000
B0604583243522S11753113EA0143901520000000000000
B0605023243489S11753039EA0144101525000000000000
B0605063243427S11753030EA0145701552000000000000
B0605103243409S11753091EA0147901570000000000000
B0605143243460S11753130EA0149501586000000000000
B0605183243509S11753086EA0151201603000000000000
B0605223243502S11753011EA0152201611000000000000
B0605263243446S11752985EA0153301626000000000000
B0605303243404S11753031EA0154601635000000000000
B0605343243416S11753105EA0155701648000000000000
B0605383243474S11753131EA0157401669000000000000
B0605423243511S11753074EA0159101683000000000000
B0605463243482S11753009EA0160101692000000000000
B0605503243426S11753004EA0161501707000000000000
B0605543243390S11753056EA0162401715000000000000
B0605583243400S11753130EA0163701735000000000000
B0606023243452S11753159EA0165601753000000000000
B0606063243500S11753115EA0166801761000000000000
B0606103243498S11753040EA0168201779000000000000
B0606143243452S11753000EA0169701792000000000000
B0606183243400S11753027EA0170901802000000000000
B0606223243391S11753098EA0172201818000000000000
B0606263243434S11753147EA0173701830000000000000
B0606303243495S11753133EA0174501837000000000000
B0606343243533S11753066EA0175701847000000000000
B0606383243522S11752992EA0176601864000000000000
B0606423243472S11752965EA0178301879000000000000
B0606463243429S11753004EA0179201885000000000000
B0606503243440S11753072EA0180401901000000000000
B0606543243499S11753083EA0181501909000000000000
B0606583243531S11753018EA0182901925000000000000
B0607023243504S11752956EA0184201939000000000000
B0607063243453S11752952EA0185601951000000000000
B0607103243424S11753007EA0185901948000000000000
B0607143243424S11753091EA0184601933000000000000
B0607183243425S11753189EA0183801928000000000000
B0607223243429S11753293EA0183701927000000000000
B0607263243435S11753399EA0184001932000000000000
B0607303243446S11753511EA0183801922000000000000
B0607343243457S11753629EA0182401910000000000000
B0607383243468S11753750EA0182201917000000000000
B0607423243482S11753863EA0183501925000000000000
B0607463243492S11753975EA0183201920000000000000
B0607503243498S11754087EA0182701913000000000000
B0607543243499S11754200EA0181201896000000000000
B0607583243498S11754314EA0179801886000000000000
B0608023243496S11754429EA0179301881000000000000
B0608063243495S11754542EA0178901878000000000000
B0608103243492S11754655EA0178401871000000000000
B0608143243491S11754771EA0177201860000000000000
B0608183243491S11754885EA0176201850000000000000
B0608223243492S11755000EA0175301838000000000000
B0608263243491S11755115EA0173601818000000000000
B0608303243485S11755234EA0172101806000000000000
B0608343243476S11755352EA0171101798000000000000
B0608383243463S11755469EA0170601795000000000000
B0608423243444S11755583EA0170701796000000000000
B0608463243421S11755698EA0171001802000000000000
B0608503243395S11755809EA0171901810000000000000
B0608543243368S11755921EA0172601817000000000000
B0608583243339S11756033EA0172601814000000000000
B0609023243309S11756144EA0172901821000000000000
B0609063243279S11756253EA0172601809000000000000
B0609103243249S11756367EA0171101793000000000000
B0609143243214S11756483EA0169301778000000000000
B0609183243174S11756597EA0168901776000000000000
B0609223243134S11756710EA0168401767000000000000
B0609263243097S11756826EA0167601760000000000000
B0609303243067S11756943EA0166601750000000000000
B0609343243039S11757061EA0165401736000000000000
B0609383243009S11757180EA0163801715000000000000
B0609423242978S11757299EA0162001701000000000000
B0609463242945S11757415EA0160601685000000000000
B0609503242909S11757531EA0158901668000000000000
B0609543242866S11757641EA0157301655000000000000
B0609583242816S11757748EA0156001640000000000000
B0610023242766S11757857EA0154401623000000000000
B0610063242715S11757967EA0153101610000000000000
B0610103242666S11758078EA0152201602000000000000
B0610143242619S11758188EA0151101589000000000000
B0610183242569S11758298EA0150001581000000000000
B0610223242520S11758408EA0150301591000000000000
B0610263242472S11758512EA0153001625000000000000
B0610303242452S11758606EA0157901681000000000000
B0610343242499S11758629EA0162201713000000000000
B0610383242521S11758569EA0162501703000000000000
B0610423242473S11758506EA0163401730000000000000
B0610463242403S11758497EA0165801751000000000000
B0610503242352S11758546EA0167601766000000000000
B0610543242354S11758617EA0168501773000000000000
B0610583242403S11758649EA0168901779000000000000
B0611023242455S11758614EA0169501785000000000000
B0611063242465S11758534EA0170401799000000000000
B0611103242417S11758473EA0172601829000000000000
B0611143242354S11758478EA0175201848000000000000
B0611183242319S11758536EA0176001848000000000000
B0611223242341S11758602EA0176001851000000000000
B0611263242397S11758610EA0176501853000000000000
B0611303242430S11758546EA0177001863000000000000
B0611343242403S11758478EA0179101887000000000000
B0611383242335S11758478EA0180701898000000000000
B0611423242285S11758537EA0180001882000000000000
B0611463242251S11758630EA0177901859000000000000
B0611503242220S11758738EA0176201844000000000000
B0611543242192S11758853EA0175101835000000000000
B0611583242168S11758966EA0174901839000000000000
B0612023242144S11759079EA0174701833000000000000
B0612063242122S11759191EA0174701835000000000000
B0612103242099S11759303EA0173501817000000000000
B0612143242070S11759417EA0172001803000000000000
B0612183242043S11759531EA0170801794000000000000
B0612223242014S11759644EA0169801782000000000000
B0612263241982S11759756EA0168901773000000000000
B0612303241952S11759871EA0167801762000000000000
B0612343241919S11759981EA0167101755000000000000
B0612383241886S11800089EA0166201742000000000000
B0612423241853S11800197EA0164701728000000000000
B0612463241822S11800306EA0163201713000000000000
B0612503241791S11800417EA0161201694000000000000
B0612543241758S11800530EA0159401673000000000000
B0612583241727S11800648EA0157301653000000000000
B0613023241698S11800768EA0156001642000000000000
B0613063241670S11800885EA0155301637000000000000
B0613103241640S11801002EA0154801630000000000000
B0613143241611S11801117EA0154201625000000000000
B0613183241583S11801230EA0153801623000000000000
B0613223241558S11801341EA0153801624000000000000
B0613263241529S11801444EA0153901626000000000000
B0613303241501S11801545EA0153801621000000000000
B0613343241471S11801650EA0153501620000000000000
B0613383241450S11801756EA0156101655000000000000
B0613423241493S11801823EA0160901701000000000000
B0613463241540S11801775EA0164601738000000000000
B0613503241511S11801714EA0166201744000000000000
B0613543241450S11801727EA0167501767000000000000
B0613583241437S11801799EA0169701799000000000000
B0614023241489S11801838EA0172701823000000000000
B0614063241542S11801802EA0174501838000000000000
B0614103241545S11801730EA0175901849000000000000
B0614143241490S11801689EA0176801862000000000000
B0614183241449S11801747EA0179601898000000000000
B0614223241487S11801802EA0182601922000000000000
B0614263241540S11801771EA0184101933000000000000
B0614303241533S11801704EA0185701954000000000000
B0614343241477S11801696EA0187801975000000000000
B0614383241445S11801767EA0189901998000000000000
B0614423241484S11801831EA0192402023000000000000
B0614463241544S11801809EA0194202036000000000000
B0614503241542S11801740EA0196002056000000000000
B0614543241485S11801734EA0197202066000000000000
B0614583241440S11801806EA0197302060000000000000
B0615023241419S11801912EA0196702058000000000000
B0615063241405S11802026EA0196502054000000000000
B0615103241386S11802146EA0196002043000000000000
B0615143241366S11802272EA0194402024000000000000
B0615183241345S11802400EA0192702010000000000000
B0615223241323S11802529EA0191401998000000000000
B0615263241301S11802657EA0189901982000000000000
B0615303241281S11802780EA0188801977000000000000
B0615343241259S11802897EA0188001965000000000000
B0615383241237S11803015EA0186701952000000000000
B0615423241215S11803135EA0185701944000000000000
B0615463241190S11803251EA0185401942000000000000
B0615503241164S11803362EA0185701949000000000000
B0615543241137S11803472EA0186101948000000000000
B0615583241110S11803581EA0185501946000000000000
B0616023241081S11803686EA0186301957000000000000
B0616063241054S11803791EA0187001958000000000000
B0616103241026S11803899EA0187201964000000000000
B0616143241000S11804003EA0188301979000000000000
B0616183240977S11804101EA0189801991000000000000
B0616223240952S11804196EA0190301992000000000000
B0616263240926S11804288EA0189401982000000000000
B0616303240902S11804379EA0189001977000000000000
B0616343240874S11804471EA0188001965000000000000
B0616383240848S11804565EA0187101957000000000000
B0616423240825S11804659EA0187101962000000000000
B0616463240805S11804748EA0187501965000000000000
B0616503240787S11804838EA0187401962000000000000
B0616543240756S11804924EA0186801956000000000000
B0616583240700S11804993EA0186101949000000000000
B0617023240630S11805042EA0185101936000000000000
B0617063240547S11805076EA0184001923000000000000
B0617103240460S11805094EA0182701906000000000000
B0617143240370S11805095EA0181201898000000000000
B0617183240285S11805082EA0180801897000000000000
B0617223240206S11805063EA0180401887000000000000
B0617263240129S11805038EA0179801883000000000000
B0617303240053S11805012EA0179001873000000000000
B0617343239976S11804986EA0177601859000000000000
B0617383239898S11804959EA0176701847000000000000
B0617423239820S11804930EA0175701844000000000000
B0617463239743S11804903EA0175601844000000000000
B0617503239669S11804877EA0176001850000000000000
B0617543239595S11804850EA0176801856000000000000
B0617583239521S11804825EA0177201861000000000000
B0618023239447S11804800EA0178401876000000000000
B0618063239373S11804778EA0179101879000000000000
B0618103239296S11804770EA0179301883000000000000
B0618143239215S11804768EA0179401885000000000000
B0618183239136S11804766EA0179201880000000000000
B0618223239058S11804763EA0178801875000000000000
B0618263238979S11804757EA0177601856000000000000
B0618303238892S11804751EA0175301838000000000000
B0618343238806S11804739EA0174901835000000000000
B0618383238721S11804722EA0173401816000000000000
B0618423238638S11804704EA0172101804000000000000
B0618473238537S11804688EA0171001793000000000000
B0618513238454S11804675EA0169901783000000000000
B0618553238372S11804657EA0169001771000000000000
B0618593238285S11804633EA0167501756000000000000
B0619033238198S11804603EA0166401749000000000000
B0619073238121S11804557EA0167501767000000000000
B0619113238057S11804501EA0169601788000000000000
B0619153238000S11804445EA0170501791000000000000
B0619193237943S11804388EA0170401792000000000000
B0619233237888S11804331EA0170401786000000000000
B0619273237836S11804265EA0168901768000000000000
B0619313237784S11804191EA0167401755000000000000
B0619353237736S11804116EA0166501748000000000000
B0619393237687S11804038EA0165501736000000000000
B0619433237637S11803955EA0164401729000000000000
B0619473237588S11803871EA0163601717000000000000
B0619513237536S11803778EA0162101704000000000000
B0619553237483S11803684EA0161901704000000000000
B0619593237433S11803589EA0161701703000000000000
B0620033237388S11803494EA0161801704000000000000
B0620073237346S11803399EA0161701703000000000000
B0620113237304S11803305EA0161501698000000000000
B0620153237263S11803209EA0161401700000000000000
B0620193237224S11803110EA0160301683000000000000
B0620233237181S11803008EA0158801673000000000000
B0620273237137S11802904EA0158201660000000000000
B0620313237091S11802800EA0156801651000000000000
B0620353237048S11802696EA0156101643000000000000
B0620393237009S11802590EA0155401638000000000000
B0620433236974S11802489EA0155701643000000000000
B0620473236939S11802391EA0155001629000000000000
B0620513236904S11802291EA0153101609000000000000
B0620553236864S11802192EA0152301608000000000000
B0620593236826S11802099EA0152701612000000000000
B0621033236786S11802008EA0152601609000000000000
B0621073236745S11801919EA0152201604000000000000
B0621113236705S11801831EA0151001589000000000000
B0621153236665S11801741EA0149301570000000000000
B0621193236619S11801650EA0147201552000000000000
