ACAM4N6
HFDTE211120
HFFXA050
HFPLTPILOT:JOHN WELSH              
HFGTYGLIDERTYPE:HORNET      
HFGIDGLIDERID:VH-GMY      
HFDTM100GPSDATUM:
HFRFWFIRMWAREVERSION:F2.6
HFRHWHARDWAREVERSION:300 Series Version 2
HFFTYFRTYPE:CAMBRIDGE AERO INSTRUMENTS, 302+
HFGPS:GARMIN,LVS-25,12,18000
HFPRSPRESSALTSENSOR:INTERSEMA, MS5534-AP, 20000
I033638FXA3941ENL4247REX
LCAMSBVER:5FWVER:F26300
C211120030833211120000103
C0000000N00000000WTAKEOFF     
C3207549S11656849EBEVERLEY AF 
C3138316S11646899EGrass Valley
C3155866S11750649EShackleton  
C3231466S11704865EPingelly    
C3207549S11656849EBEVERLEY AF 
C0000000N00000000WLANDING     
B0309443207339S11656860EA0018100209000000000000
B0309463207339S11656860EA0018000209000000000000
B0309483207339S11656860EA0018000209000000000000
B0309503207339S11656858EA0018000209000000000000
B0309523207339S11656858EA0018000209000000000000
B0309543207339S11656858EA0018000208000000000000
B0309563207339S11656858EA0018000208000000000000
B0309583207339S11656858EA0018000208000000000000
B0310003207339S11656858EA0017900208000000000000
B0310023207339S11656858EA0017900208000000000000
B0310043207339S11656858EA0018000208000000000000
B0310063207339S11656858EA0017900208000000000000
B0310083207339S11656858EA0017900208000000000000
B0310103207341S11656858EA0018000208000000000000
B0310123207342S11656860EA0018000208000000000000
B0310173207360S11656877EA0018000208000000000000
B0310213207394S11656901EA0018100208000000000000
B0310253207441S11656934EA0018300209000000000000
B0310293207499S11656973EA0018500211000000000000
B0310333207567S11657016EA0019000216000000000000
B0310373207632S11657065EA0019900228000000000000
B0310413207690S11657111EA0021900256000000000000
B0310453207745S11657156EA0024100276000000000000
B0310493207802S11657203EA0025700293000000000000
B0310533207859S11657250EA0027200308000000000000
B0310573207915S11657294EA0028800323000000000000
B0311013207971S11657335EA0030000337000000000000
B0311053208022S11657374EA0032500365000000000000
B0311093208077S11657410EA0034100371000000000000
B0311133208134S11657446EA0034600375000000000000
B0311173208191S11657481EA0035000382000000000000
B0311213208251S11657501EA0036200399000000000000
B0311253208316S11657497EA0037800411000000000000
B0311293208379S11657459EA0039100426000000000000
B0311333208425S11657393EA0040500437000000000000
B0311373208443S11657312EA0041900452000000000000
B0311413208429S11657237EA0044200481000000000000
B0311453208391S11657174EA0047400513000000000000
B0311493208329S11657134EA0049600532000000000000
B0311533208248S11657130EA0051400555000000000000
B0311573208173S11657166EA0053500583000000000000
B0312013208121S11657231EA0056400615000000000000
B0312053208100S11657311EA0059000633000000000000
B0312093208106S11657394EA0060100638000000000000
B0312133208144S11657462EA0060700645000000000000
B0312173208208S11657499EA0061100644000000000000
B0312213208278S11657503EA0061600658000000000000
B0312253208343S11657475EA0063400676000000000000
B0312293208391S11657419EA0065300700000000000000
B0312333208409S11657341EA0067600722000000000000
B0312373208391S11657267EA0069700742000000000000
B0312413208340S11657247EA0071400753000000000000
B0312453208304S11657293EA0071600756000000000000
B0312493208321S11657347EA0072100757000000000000
B0312533208368S11657361EA0071700753000000000000
B0312573208408S11657329EA0071800755000000015000
B0313013208421S11657269EA0071200747000000015000
B0313053208409S11657202EA0071100748000000000000
B0313093208363S11657165EA0071900761000000000000
B0313133208327S11657212EA0072500763000000000000
B0313173208355S11657261EA0072900768000000000000
B0313213208404S11657259EA0073100768000000000000
B0313253208439S11657211EA0073000763000000015000
B0313293208428S11657139EA0072700763000000015000
B0313333208369S11657100EA0073300773000000015000
B0313373208329S11657147EA0074600787000000000000
B0313413208366S11657183EA0074900786000000015000
B0313453208411S11657140EA0074800783000000015000
B0313493208394S11657064EA0074900785000000015000
B0313533208330S11657025EA0074700780000000015000
B0313573208257S11657034EA0074400777000000015000
B0314013208218S11657095EA0074600784000000000000
B0314053208226S11657160EA0074700779000000000000
B0314093208270S11657198EA0074100775000000000000
B0314133208327S11657208EA0074100778000000000000
B0314173208385S11657191EA0074800788000000000000
B0314213208396S11657129EA0076100800000000000000
B0314253208343S11657103EA0076100791000000000000
B0314293208294S11657147EA0075700795000000000000
B0314333208301S11657212EA0076300798000000000000
B0314373208357S11657238EA0076600800000000000000
B0314413208403S11657194EA0076800803000000015000
B0314453208395S11657121EA0077100805000000015000
B0314493208339S11657081EA0077300808000000015000
B0314533208278S11657108EA0077600811000000000000
B0314573208259S11657170EA0077900818000000000000
B0315013208282S11657228EA0078700825000000000000
B0315053208331S11657248EA0079000823000000000000
B0315093208379S11657211EA0078600820000000015000
B0315133208389S11657138EA0078600822000000015000
B0315173208348S11657077EA0079300830000000015000
B0315213208287S11657064EA0079900839000000015000
B0315253208240S11657100EA0080200839000000015000
B0315293208233S11657159EA0080500844000000015000
B0315333208262S11657208EA0080500840000000000000
B0315373208316S11657229EA0080100836000000015000
B0315413208373S11657200EA0080000835000000015000
B0315453208400S11657131EA0079900837000000015000
B0315493208353S11657081EA0080900847000000015000
B0315533208294S11657107EA0080800843000000015000
B0315573208281S11657174EA0080700845000000015000
B0316013208313S11657230EA0080800845000000015000
B0316053208370S11657273EA0080100837000000015000
B0316093208431S11657319EA0080000843000000015000
B0316133208491S11657360EA0081300851000000015000
B0316173208551S11657351EA0082600864000000015000
B0316213208547S11657285EA0083500869000000015000
B0316253208486S11657261EA0083500871000000015000
B0316293208435S11657308EA0083600878000000030000
B0316333208438S11657384EA0084400893000000015000
B0316373208489S11657404EA0086000910000000015000
B0316413208508S11657351EA0087100912000000015000
B0316453208463S11657313EA0086700910000000015000
B0316493208409S11657345EA0087300922000000015000
B0316533208400S11657410EA0088200929000000015000
B0316573208438S11657454EA0089600945000000015000
B0317013208486S11657434EA0091000955000000015000
B0317053208482S11657372EA0091800962000000015000
B0317093208429S11657346EA0092200966000000015000
B0317133208376S11657378EA0092700973000000000000
B0317173208364S11657449EA0093500980000000000000
B0317213208403S11657497EA0094400991000000000000
B0317253208455S11657480EA0094900995000000000000
B0317293208467S11657416EA0096101013000000015000
B0317333208418S11657389EA0097501022000000015000
B0317373208381S11657438EA0098301035000000000000
B0317413208407S11657491EA0100101051000000000000
B0317453208459S11657486EA0100901057000000015000
B0317493208480S11657429EA0102101068000000015000
B0317533208443S11657380EA0103001078000000015000
B0317573208383S11657390EA0104301089000000015000
B0318013208365S11657452EA0105801109000000015000
B0318053208400S11657494EA0107601122000000015000
B0318093208450S11657475EA0108601131000000015000
B0318133208459S11657415EA0109301145000000015000
B0318173208418S11657373EA0110901162000000015000
B0318213208366S11657389EA0111901169000000015000
B0318253208353S11657452EA0112801178000000000000
B0318293208402S11657481EA0113801190000000000000
B0318333208435S11657432EA0115101205000000015000
B0318373208407S11657373EA0116801223000000015000
B0318413208346S11657365EA0117701229000000015000
B0318453208311S11657419EA0118801244000000000000
B0318493208334S11657475EA0120001254000000000000
B0318533208387S11657464EA0121001263000000015000
B0318573208395S11657398EA0122201279000000015000
B0319013208342S11657364EA0123401286000000015000
B0319053208288S11657399EA0123901293000000015000
B0319093208287S11657469EA0124801303000000015000
B0319133208337S11657499EA0126101317000000015000
B0319173208379S11657463EA0127501330000000015000
B0319213208364S11657400EA0129001345000000015000
B0319253208304S11657389EA0129501346000000015000
B0319293208272S11657450EA0130601365000000015000
B0319333208296S11657507EA0132401379000000015000
B0319373208350S11657515EA0133701391000000015000
B0319413208382S11657465EA0135001403000000015000
B0319453208361S11657407EA0135901414000000015000
B0319493208304S11657397EA0136301416000000015000
B0319533208259S11657443EA0136701419000000015000
B0319573208266S11657511EA0137401430000000015000
B0320013208318S11657537EA0138401438000000015000
B0320053208368S11657499EA0139301449000000015000
B0320093208369S11657430EA0140301457000000015000
B0320133208318S11657385EA0140801464000000015000
B0320173208256S11657398EA0141601468000000015000
B0320213208218S11657458EA0141901471000000000000
B0320253208233S11657527EA0142401477000000000000
B0320293208287S11657542EA0142801477000000000000
B0320333208326S11657490EA0143101486000000015000
B0320373208308S11657419EA0143801489000000015000
B0320413208243S11657393EA0144301490000000015000
B0320453208178S11657429EA0144701495000000015000
B0320493208151S11657502EA0145401503000000015000
B0320533208174S11657573EA0146101507000000015000
B0320573208229S11657603EA0146301507000000015000
B0321013208283S11657572EA0146901517000000015000
B0321053208291S11657498EA0147801531000000015000
B0321093208240S11657454EA0149401548000000015000
B0321133208181S11657471EA0150001546000000015000
B0321173208151S11657536EA0150201555000000015000
B0321213208166S11657598EA0151401569000000015000
B0321253208207S11657636EA0152101574000000000000
B0321293208256S11657638EA0152901584000000000000
B0321333208300S11657605EA0153801592000000000000
B0321373208325S11657546EA0154601601000000000000
B0321413208318S11657478EA0155401607000000000000
B0321453208285S11657420EA0155201604000000000000
B0321493208231S11657371EA0155001598000000000000
B0321533208168S11657334EA0154301588000000000000
B0321573208095S11657298EA0152801568000000000000
B0322013208021S11657241EA0151001552000000000000
B0322053207947S11657177EA0149801541000000000000
B0322093207869S11657117EA0149001535000000000000
B0322133207793S11657060EA0148501532000000000000
B0322173207720S11657005EA0148201527000000000000
B0322213207645S11656953EA0147001515000000000000
B0322253207572S11656901EA0146701514000000000000
B0322293207506S11656845EA0146701512000000000000
B0322333207442S11656791EA0146401504000000000000
B0322373207372S11656750EA0145301495000000000000
B0322413207297S11656718EA0144601487000000000000
B0322453207217S11656693EA0144001484000000000000
B0322493207138S11656671EA0143501478000000000000
B0322533207059S11656650EA0143201483000000000000
B0322573206979S11656630EA0144301491000000000000
B0323013206899S11656607EA0144401490000000000000
B0323053206817S11656589EA0144701498000000000000
B0323093206732S11656567EA0144501490000000000000
B0323133206643S11656548EA0144601500000000000000
B0323173206556S11656535EA0145601506000000000000
B0323213206465S11656522EA0145301498000000000000
B0323253206372S11656505EA0144701492000000000000
B0323293206276S11656490EA0143401477000000000000
B0323333206179S11656475EA0142201465000000000000
B0323373206084S11656458EA0141601463000000000000
B0323413205993S11656445EA0141301460000000000000
B0323453205902S11656431EA0140701452000000000000
B0323493205812S11656415EA0139901444000000000000
B0323533205722S11656398EA0139001432000000000000
B0323573205633S11656379EA0138301429000000000000
B0324013205543S11656362EA0137601420000000000000
B0324053205456S11656345EA0136901416000000000000
B0324093205369S11656327EA0136401409000000000000
B0324133205280S11656307EA0136001408000000000000
B0324173205192S11656285EA0136401411000000000000
B0324213205101S11656266EA0135801405000000000000
B0324253205010S11656251EA0135701403000000000000
B0324293204920S11656241EA0134701387000000000000
B0324333204828S11656230EA0133301376000000000000
B0324373204734S11656220EA0132201366000000000000
B0324413204642S11656207EA0131301356000000000000
B0324453204551S11656194EA0130301350000000000000
B0324493204461S11656184EA0129901346000000000000
B0324533204374S11656175EA0129901348000000000000
B0324573204290S11656165EA0130101348000000000000
B0325013204208S11656155EA0129701343000000000000
B0325053204126S11656142EA0129201338000000000000
B0325093204043S11656126EA0128601331000000000000
B0325133203959S11656113EA0127801326000000000000
B0325173203876S11656102EA0127401320000000000000
B0325213203794S11656091EA0127001316000000000000
B0325253203714S11656082EA0126601311000000000000
B0325293203633S11656069EA0126001305000000000000
B0325333203553S11656056EA0125301297000000000000
B0325373203472S11656041EA0124501288000000000000
B0325413203387S11656028EA0123701280000000000000
B0325453203300S11656012EA0122801269000000000000
B0325493203211S11655998EA0121801261000000000000
B0325533203120S11655987EA0121901264000000000000
B0325573203031S11655977EA0121201252000000000000
B0326013202940S11655967EA0119401232000000000000
B0326053202847S11655957EA0117401211000000000000
B0326093202749S11655948EA0115701193000000000000
B0326133202649S11655937EA0114101177000000000000
B0326173202548S11655918EA0112801166000000000000
B0326213202446S11655898EA0111601155000000000000
B0326253202346S11655876EA0110501145000000000000
B0326293202251S11655856EA0110101145000000000000
B0326333202162S11655838EA0109701136000000000000
B0326373202073S11655812EA0108101119000000000000
B0326413201987S11655778EA0107201115000000000000
B0326453201905S11655749EA0107801125000000000000
B0326493201826S11655725EA0108101126000000000000
B0326533201749S11655704EA0108701137000000000000
B0326573201679S11655679EA0109501142000000000000
B0327013201618S11655634EA0110001148000000000000
B0327053201554S11655599EA0111301163000000000000
B0327093201522S11655652EA0113401189000000000000
B0327133201566S11655684EA0115301202000000000000
B0327173201597S11655634EA0116001209000000015000
B0327213201558S11655586EA0117101226000000015000
B0327253201509S11655616EA0118601233000000015000
B0327293201523S11655682EA0119101243000000015000
B0327333201575S11655687EA0121101265000000015000
B0327373201599S11655625EA0122101268000000015000
B0327413201560S11655573EA0123101285000000015000
B0327453201504S11655588EA0125001301000000015000
B0327493201491S11655656EA0126001308000000015000
B0327533201540S11655688EA0127201326000000015000
B0327573201583S11655640EA0128801337000000015000
B0328013201553S11655582EA0129801350000000015000
B0328053201497S11655606EA0131201361000000015000
B0328093201500S11655681EA0132201373000000015000
B0328133201557S11655701EA0134301400000000015000
B0328173201601S11655655EA0136101413000000015000
B0328213201591S11655588EA0136801419000000015000
B0328253201536S11655562EA0137401424000000015000
B0328293201479S11655599EA0137801426000000015000
B0328333201454S11655675EA0138301434000000015000
B0328373201483S11655742EA0139901457000000015000
B0328413201531S11655722EA0141501463000000015000
B0328453201515S11655661EA0142001475000000015000
B0328493201456S11655662EA0143401484000000015000
B0328533201432S11655733EA0144101494000000015000
B0328573201479S11655770EA0145801515000000015000
B0329013201519S11655731EA0147201527000000015000
B0329053201504S11655674EA0149201551000000015000
B0329093201453S11655656EA0150701559000000015000
B0329133201406S11655701EA0151501567000000015000
B0329173201424S11655766EA0152501578000000015000
B0329213201482S11655765EA0153901592000000015000
B0329253201500S11655707EA0155601611000000015000
B0329283201474S11655669EA0157001626000000015000
B0329333201408S11655694EA0158201635000000015000
B0329373201401S11655768EA0159001646000000015000
B0329413201448S11655812EA0160201656000000015000
B0329453201497S11655782EA0161001667000000015000
B0329493201489S11655718EA0162401681000000015000
B0329533201431S11655709EA0164001699000000015000
B0329573201397S11655772EA0165701712000000015000
B0330013201426S11655838EA0166601720000000015000
B0330053201486S11655838EA0167401725000000015000
B0330093201512S11655779EA0168401740000000015000
B0330133201476S11655731EA0169901756000000015000
B0330173201419S11655751EA0171101766000000015000
B0330213201402S11655829EA0171901774000000015000
B0330253201445S11655891EA0172601779000000015000
B0330293201506S11655891EA0173301785000000015000
B0330333201532S11655834EA0173901793000000015000
B0330373201510S11655775EA0174301793000000015000
B0330413201448S11655742EA0173301774000000015000
B0330453201366S11655714EA0171201754000000015000
B0330493201271S11655684EA0170501753000000015000
B0330533201170S11655658EA0170801750000000015000
B0330573201066S11655629EA0169701737000000015000
B0331013200962S11655591EA0167801719000000015000
B0331053200859S11655552EA0167401718000000015000
B0331093200758S11655514EA0166701711000000000000
B0331133200659S11655476EA0165801700000000000000
B0331173200559S11655436EA0164701693000000000000
B0331213200462S11655395EA0164301689000000000000
B0331253200371S11655349EA0163501680000000000000
B0331293200283S11655301EA0163001677000000000000
B0331333200199S11655255EA0163101678000000000000
B0331373200118S11655211EA0163301683000000000000
B0331413200039S11655167EA0163001673000000000000
B0331453159954S11655122EA0161801666000000000000
B0331493159867S11655084EA0162601679000000000000
B0331533159777S11655051EA0163401687000000000000
B0331573159685S11655018EA0163801690000000000000
B0332013159591S11654981EA0163101674000000000000
B0332053159495S11654945EA0161601663000000000000
B0332093159398S11654911EA0160901658000000000000
B0332133159300S11654877EA0160101647000000000000
B0332173159203S11654839EA0159401640000000000000
B0332213159110S11654802EA0159101640000000000000
B0332253159019S11654764EA0159301643000000000000
B0332293158931S11654729EA0159601650000000000000
B0332333158847S11654700EA0161601679000000000000
B0332373158763S11654672EA0162301671000000000000
B0332413158675S11654641EA0160501651000000015000
B0332453158581S11654611EA0158601632000000015000
B0332493158485S11654578EA0157401621000000015000
B0332533158389S11654542EA0156601614000000000000
B0332573158295S11654504EA0156101609000000000000
B0333013158202S11654468EA0155701605000000000000
B0333053158109S11654430EA0155501604000000000000
B0333093158017S11654395EA0155401602000000000000
B0333133157925S11654357EA0154101584000000000000
B0333173157827S11654321EA0152501573000000000000
B0333213157731S11654288EA0151901565000000000000
B0333253157631S11654256EA0150101543000000000000
B0333293157531S11654218EA0149501543000000000000
B0333333157436S11654184EA0150201554000000000000
B0333373157344S11654154EA0150801562000000000000
B0333413157257S11654127EA0152401582000000000000
B0333453157171S11654105EA0153601591000000000000
B0333493157089S11654084EA0155001611000000000000
B0333533157010S11654066EA0157101628000000000000
B0333573156932S11654048EA0158201638000000000000
B0334013156856S11654015EA0159201650000000000000
B0334053156787S11653967EA0160301658000000000000
B0334093156717S11653915EA0160701654000000000000
B0334133156640S11653859EA0158801630000000000000
B0334173156556S11653803EA0158101628000000000000
B0334213156470S11653745EA0157601621000000000000
B0334253156380S11653685EA0156701613000000000000
B0334293156292S11653625EA0156001605000000000000
B0334333156206S11653563EA0155001596000000000000
B0334373156122S11653499EA0154701593000000000000
B0334413156039S11653435EA0154401589000000000000
B0334453155955S11653373EA0153301577000000000000
B0334493155871S11653312EA0152501570000000000000
B0334533155786S11653251EA0151601560000000000000
B0334573155702S11653188EA0150501546000000000000
B0335013155619S11653125EA0149201532000000000000
B0335053155532S11653061EA0147701517000000000000
B0335093155444S11652996EA0146201499000000000000
B0335133155356S11652935EA0144601487000000000000
B0335173155270S11652875EA0144001479000000000000
B0335213155186S11652815EA0143201474000000000000
B0335253155104S11652757EA0143001475000000000000
B0335293155022S11652698EA0142901469000000000000
B0335333154937S11652641EA0142201467000000000000
B0335373154854S11652588EA0142401471000000000000
B0335413154768S11652537EA0143501489000000000000
B0335453154687S11652486EA0144801492000000000000
B0335493154601S11652437EA0144101483000000000000
B0335533154516S11652385EA0143801485000000000000
B0335573154433S11652334EA0144201492000000000000
B0336013154350S11652288EA0144801497000000000000
B0336053154263S11652242EA0144901498000000000000
B0336093154178S11652195EA0146001512000000000000
B0336133154092S11652151EA0146601514000000000000
B0336173154008S11652108EA0146901521000000000000
B0336213153925S11652064EA0146901514000000000000
B0336253153835S11652022EA0146301510000000000000
B0336293153744S11651986EA0146201508000000000000
B0336333153654S11651947EA0146201511000000000000
B0336373153566S11651908EA0146101506000000000000
B0336413153474S11651870EA0145601498000000000000
B0336453153377S11651838EA0145601503000000000000
B0336493153279S11651812EA0145801505000000000000
B0336533153179S11651791EA0145301495000000000000
B0336573153076S11651770EA0144601492000000000000
B0337013152974S11651748EA0145001497000000000000
B0337053152876S11651725EA0144701487000000000000
B0337093152774S11651700EA0143501477000000000000
B0337133152675S11651675EA0142801472000000000000
B0337173152579S11651651EA0142201464000000000000
B0337213152482S11651626EA0141001448000000000000
B0337253152384S11651600EA0140001446000000000000
B0337293152291S11651571EA0139801443000000000000
B0337333152197S11651540EA0139101432000000000000
B0337373152105S11651506EA0138501433000000000000
B0337413152014S11651467EA0138101420000000000000
B0337453151921S11651428EA0136901408000000000000
B0337493151828S11651391EA0135401393000000000000
B0337533151736S11651354EA0134601387000000000000
B0337573151646S11651320EA0134001384000000000000
B0338013151557S11651285EA0133201372000000000000
B0338053151469S11651251EA0132201364000000000000
B0338093151381S11651216EA0131401359000000000000
B0338133151295S11651179EA0131301359000000000000
B0338173151209S11651141EA0130801350000000000000
B0338213151121S11651101EA0129801342000000000000
B0338253151031S11651062EA0129101337000000000000
B0338293150941S11651024EA0129101336000000000000
B0338333150853S11650994EA0128801339000000000000
B0338373150772S11650967EA0130401362000000000000
B0338413150693S11650939EA0131101357000000000000
B0338453150611S11650915EA0131001365000000000000
B0338493150530S11650904EA0131801373000000000000
B0338533150449S11650891EA0132401380000000000000
B0338573150369S11650876EA0132601372000000000000
B0339013150283S11650856EA0130701352000000000000
B0339053150192S11650835EA0129501342000000000000
B0339093150100S11650813EA0128401330000000000000
B0339133150005S11650791EA0128001330000000000000
B0339173149913S11650769EA0128401334000000000000
B0339213149823S11650752EA0128701339000000000000
B0339253149737S11650734EA0129001340000000000000
B0339293149654S11650713EA0128801331000000000000
B0339333149570S11650691EA0127401318000000000000
B0339373149488S11650666EA0126201302000000000000
B0339413149403S11650639EA0124601286000000000000
B0339453149320S11650614EA0123901287000000000000
B0339493149241S11650583EA0123901284000000000000
B0339533149160S11650559EA0123801289000000000000
B0339573149082S11650539EA0124101283000000000000
B0340013148998S11650523EA0122701268000000000000
B0340053148909S11650512EA0121901264000000000000
B0340093148818S11650501EA0121501259000000000000
B0340133148722S11650494EA0120901253000000000000
B0340173148626S11650494EA0120601242000000000000
B0340213148530S11650486EA0118701220000000000000
B0340253148441S11650447EA0116701201000000000000
B0340293148367S11650382EA0115301191000000000000
B0340333148309S11650304EA0114401183000000000000
B0340373148261S11650217EA0113801178000000000000
B0340413148224S11650130EA0115201205000000000000
B0340453148196S11650048EA0117101218000000000000
B0340493148172S11649967EA0117801221000000000000
B0340533148146S11649883EA0117101208000000000000
B0340573148107S11649799EA0116501206000000000000
B0341013148050S11649730EA0117201214000000000000
B0341053147986S11649673EA0117301215000000000000
B0341093147916S11649625EA0117101213000000000000
B0341133147841S11649582EA0117201214000000000000
B0341173147760S11649548EA0117601220000000000000
B0341213147677S11649519EA0117301212000000000000
B0341253147594S11649485EA0117401218000000000000
B0341293147511S11649451EA0117601216000000000000
B0341333147425S11649415EA0116801207000000000000
B0341373147339S11649372EA0116101199000000000000
B0341413147253S11649324EA0115101185000000000000
B0341453147165S11649269EA0113701171000000000000
B0341493147076S11649213EA0112001152000000000000
B0341533146987S11649158EA0110501139000000000000
B0341573146898S11649104EA0109301129000000000000
B0342013146809S11649051EA0108901127000000000000
B0342053146720S11648999EA0108801124000000000000
B0342093146632S11648948EA0108201121000000000000
B0342133146545S11648897EA0107901116000000000000
B0342173146456S11648844EA0107701115000000000000
B0342213146367S11648794EA0107501112000000000000
B0342253146276S11648744EA0106701102000000000000
B0342293146185S11648693EA0105801091000000000000
B0342333146095S11648641EA0104501077000000000000
B0342373146005S11648588EA0103201063000000000000
B0342413145914S11648534EA0101601048000000000000
B0342453145823S11648485EA0100601039000000000000
B0342493145733S11648434EA0099801031000000000000
B0342533145645S11648385EA0098801018000000000000
B0342573145555S11648336EA0097801011000000000000
B0343013145468S11648287EA0097301007000000000000
B0343053145385S11648237EA0096701000000000000000
B0343093145301S11648185EA0095500984000000000000
B0343133145215S11648129EA0094200971000000000000
B0343173145130S11648074EA0093200965000000000000
B0343213145052S11648021EA0094200988000000000000
B0343253144982S11647972EA0096000999000000000000
B0343293144909S11647925EA0096501005000000000000
B0343333144839S11647884EA0096901001000000000000
B0343373144764S11647895EA0098201020000000000000
B0343413144748S11647974EA0099301023000000000000
B0343453144799S11648020EA0098601016000000000000
B0343493144840S11647978EA0098101014000000015000
B0343533144821S11647907EA0097801011000000015000
B0343573144781S11647840EA0097901019000000015000
B0344013144735S11647780EA0099101031000000015000
B0344053144673S11647778EA0100701050000000015000
B0344093144667S11647845EA0101801054000000015000
B0344133144722S11647852EA0101601052000000015000
B0344173144736S11647784EA0102101059000000015000
B0344213144675S11647754EA0102701066000000015000
B0344253144631S11647816EA0103801081000000015000
B0344293144660S11647874EA0105101091000000015000
B0344333144712S11647858EA0105201088000000015000
B0344373144725S11647790EA0105601099000000015000
B0344413144687S11647739EA0107101121000000015000
B0344453144635S11647760EA0108801136000000015000
B0344493144630S11647822EA0109801138000000015000
B0344533144679S11647853EA0109901142000000015000
B0344573144721S11647813EA0110901158000000015000
B0345013144704S11647758EA0112901176000000015000
B0345053144648S11647749EA0113701178000000015000
B0345093144608S11647803EA0114201188000000015000
B0345133144621S11647868EA0115301197000000015000
B0345173144674S11647890EA0115501201000000015000
B0345213144718S11647853EA0116701215000000015000
B0345253144729S11647792EA0117701227000000015000
B0345293144695S11647740EA0118801238000000015000
B0345333144636S11647745EA0119801247000000015000
B0345373144615S11647808EA0120801256000000015000
B0345413144652S11647855EA0121501264000000015000
B0345453144706S11647845EA0122501274000000015000
B0345493144738S11647796EA0123401282000000015000
B0345533144726S11647732EA0123001268000000015000
B0345573144665S11647684EA0121401255000000015000
B0346013144583S11647654EA0120601247000000015000
B0346053144497S11647632EA0120701255000000015000
B0346093144409S11647617EA0121401259000000015000
B0346133144322S11647604EA0121901263000000000000
B0346173144229S11647591EA0121601258000000000000
B0346213144136S11647580EA0121501259000000000000
B0346253144045S11647572EA0121001248000000000000
B0346293143950S11647566EA0119601234000000000000
B0346333143851S11647563EA0117901216000000000000
B0346373143751S11647561EA0116401204000000000000
B0346413143651S11647556EA0115001188000000000000
B0346453143549S11647546EA0113901178000000000000
B0346493143445S11647536EA0112901163000000000000
B0346533143341S11647528EA0112201162000000000000
B0346573143240S11647520EA0111801155000000000000
B0347013143140S11647515EA0111301151000000000000
B0347053143042S11647510EA0111101152000000000000
B0347093142948S11647504EA0111801168000000000000
B0347133142863S11647488EA0114901203000000000000
B0347173142833S11647419EA0117601227000000000000
B0347213142876S11647389EA0120201259000000000000
B0347253142914S11647429EA0121901269000000015000
B0347293142902S11647502EA0122501280000000015000
B0347333142845S11647536EA0123501297000000015000
B0347373142789S11647501EA0125101311000000015000
B0347413142784S11647436EA0126801328000000015000
B0347453142828S11647409EA0128401345000000015000
B0347493142873S11647437EA0129901358000000015000
B0347533142889S11647504EA0131101369000000015000
B0347573142862S11647567EA0132501383000000015000
B0348013142803S11647597EA0133901398000000015000
B0348053142743S11647575EA0135901418000000015000
B0348093142714S11647517EA0137101433000000015000
B0348133142730S11647461EA0138801451000000015000
B0348173142779S11647446EA0140401464000000015000
B0348213142820S11647488EA0141401474000000015000
B0348253142823S11647559EA0142701490000000015000
B0348293142789S11647622EA0144201502000000015000
B0348333142725S11647644EA0145801522000000015000
B0348373142669S11647610EA0147301535000000015000
B0348413142658S11647545EA0148801549000000015000
B0348453142697S11647505EA0149401557000000015000
B0348493142751S11647523EA0150501569000000015000
B0348533142776S11647592EA0151801579000000015000
B0348573142746S11647666EA0152601588000000015000
B0349013142675S11647695EA0154401609000000015000
B0349053142612S11647652EA0155701613000000015000
B0349093142603S11647572EA0156601632000000015000
B0349133142641S11647519EA0158501649000000015000
B0349173142699S11647522EA0159701659000000015000
B0349213142738S11647578EA0160601672000000015000
B0349253142738S11647654EA0161701679000000015000
B0349293142697S11647717EA0162801696000000015000
B0349333142633S11647726EA0165001719000000015000
B0349373142589S11647683EA0166001721000000015000
B0349413142585S11647617EA0166301728000000015000
B0349453142617S11647567EA0167001732000000015000
B0349493142673S11647559EA0167701738000000015000
B0349533142730S11647580EA0168401745000000015000
B0349573142764S11647643EA0168901746000000015000
B0350013142754S11647723EA0168601741000000015000
B0350053142695S11647778EA0169101752000000015000
B0350093142624S11647788EA0170201762000000015000
B0350133142552S11647767EA0170801769000000015000
B0350173142477S11647739EA0170801765000000000000
B0350213142396S11647705EA0171101772000000000000
B0350253142313S11647669EA0171801775000000000000
B0350293142226S11647631EA0171201761000000000000
B0350333142134S11647595EA0169301743000000000000
B0350373142040S11647572EA0170301770000000000000
B0350413141952S11647559EA0172301790000000000000
B0350453141865S11647557EA0173301794000000000000
B0350493141775S11647556EA0173501797000000000000
B0350533141687S11647553EA0173801799000000000000
B0350573141593S11647544EA0173301790000000000000
B0351013141495S11647535EA0173101788000000000000
B0351053141397S11647524EA0172201774000000000000
B0351093141297S11647510EA0170701761000000000000
B0351133141198S11647493EA0169901755000000000000
B0351173141102S11647475EA0169801754000000000000
B0351213141009S11647457EA0169201749000000000000
B0351253140918S11647435EA0169301750000000000000
B0351293140827S11647407EA0168501736000000000000
B0351333140734S11647380EA0167301727000000000000
B0351373140641S11647353EA0166901724000000000000
B0351413140550S11647324EA0166301718000000000000
B0351453140461S11647297EA0165801712000000000000
B0351493140371S11647272EA0165701714000000000000
B0351533140284S11647254EA0165901712000000000000
B0351573140199S11647238EA0165101708000000000000
B0352013140117S11647220EA0164301697000000000000
B0352053140033S11647199EA0163401684000000000000
B0352093139947S11647180EA0162101674000000000000
B0352133139861S11647155EA0161501667000000000000
B0352173139779S11647128EA0160801663000000000000
B0352213139698S11647097EA0160301655000000000000
B0352253139617S11647062EA0159601645000000000000
B0352293139535S11647032EA0159001641000000000000
B0352333139454S11647008EA0158501637000000000000
B0352373139374S11646986EA0158301635000000000000
B0352413139295S11646964EA0157801628000000000000
B0352453139213S11646952EA0156801619000000000000
B0352493139128S11646943EA0155701608000000000000
B0352533139044S11646929EA0154601597000000000000
B0352573138958S11646909EA0153701589000000000000
B0353013138872S11646890EA0153201585000000000000
B0353053138789S11646870EA0153001582000000000000
B0353093138706S11646856EA0152501577000000000000
B0353133138625S11646847EA0151801570000000000000
B0353173138543S11646838EA0151401565000000000000
B0353213138459S11646833EA0151001565000000000000
B0353253138373S11646833EA0150701560000000000000
B0353293138286S11646835EA0150801562000000000000
B0353333138196S11646842EA0150801563000000000000
B0353373138117S11646882EA0151601573000000000000
B0353413138069S11646963EA0152601586000000000000
B0353453138061S11647052EA0154401605000000000000
B0353493138079S11647137EA0154601596000000000000
B0353533138095S11647232EA0152801577000000000000
B0353573138106S11647337EA0151301562000000000000
B0354013138117S11647446EA0150701553000000000000
B0354053138127S11647557EA0149801547000000000000
B0354093138136S11647663EA0149401542000000000000
B0354133138145S11647766EA0148901538000000000000
B0354173138154S11647866EA0148201525000000000000
B0354213138164S11647965EA0147201519000000000000
B0354253138173S11648063EA0146401511000000000000
B0354293138182S11648160EA0145601500000000000000
B0354333138187S11648260EA0144301488000000000000
B0354373138196S11648358EA0143701485000000000000
B0354413138204S11648455EA0143001475000000000000
B0354453138209S11648551EA0142901481000000000000
B0354493138203S11648644EA0143001475000000000000
B0354533138199S11648740EA0142501472000000000000
B0354573138217S11648828EA0143001483000000000000
B0355013138257S11648904EA0144101494000000000000
B0355053138310S11648962EA0145101504000000000000
B0355093138361S11649018EA0145601508000000000000
B0355133138399S11649095EA0144701492000000000000
B0355173138421S11649188EA0143501481000000000000
B0355213138440S11649286EA0143101477000000000000
B0355253138469S11649386EA0142801476000000000000
B0355293138502S11649487EA0142901477000000000000
B0355333138535S11649589EA0143501483000000000000
B0355373138569S11649684EA0143401476000000000000
B0355413138606S11649780EA0142101462000000000000
B0355453138645S11649876EA0140801454000000000000
B0355493138684S11649971EA0140201444000000000000
B0355533138724S11650067EA0138701430000000000000
B0355573138765S11650163EA0138001424000000000000
B0356013138811S11650257EA0137301417000000000000
B0356053138856S11650352EA0136501409000000000000
B0356093138901S11650445EA0136001406000000000000
B0356133138945S11650535EA0135701400000000000000
B0356173138989S11650625EA0134901392000000000000
B0356213139027S11650713EA0134701392000000000000
B0356253139062S11650794EA0135001397000000000000
B0356293139101S11650868EA0134501390000000000000
B0356333139139S11650942EA0133301375000000000000
B0356373139175S11651017EA0132301367000000000000
B0356413139213S11651094EA0131201353000000000000
B0356453139253S11651170EA0130101346000000000000
B0356493139295S11651246EA0129501339000000000000
B0356533139339S11651324EA0128501327000000000000
B0356573139382S11651404EA0127901327000000000000
B0357013139419S11651485EA0128401334000000000000
B0357053139461S11651562EA0129801354000000000000
B0357093139521S11651578EA0132501386000000000000
B0357133139542S11651523EA0135101408000000000000
B0357173139500S11651480EA0136501417000000015000
B0357213139439S11651493EA0137201424000000015000
B0357253139404S11651554EA0138101434000000015000
B0357293139430S11651609EA0139501448000000015000
B0357333139475S11651578EA0140301456000000015000
B0357373139451S11651521EA0142101480000000015000
B0357413139392S11651532EA0143301484000000015000
B0357453139376S11651600EA0144101498000000015000
B0357493139414S11651648EA0145601513000000015000
B0357533139465S11651641EA0146601524000000015000
B0357573139479S11651583EA0147201525000000015000
B0358013139434S11651547EA0147901543000000015000
B0358053139378S11651567EA0149601556000000015000
B0358093139352S11651627EA0150601567000000015000
B0358133139363S11651692EA0151701573000000015000
B0358173139412S11651722EA0152301581000000015000
B0358213139448S11651684EA0152501577000000015000
B0358253139432S11651618EA0151801572000000015000
B0358293139371S11651587EA0152101580000000015000
B0358333139304S11651606EA0153001591000000015000
B0358373139278S11651673EA0154701607000000015000
B0358413139291S11651751EA0154001587000000015000
B0358453139323S11651840EA0153401593000000015000
B0358493139367S11651912EA0154701608000000015000
B0358533139421S11651974EA0155301605000000015000
B0358573139469S11652055EA0154401587000000000000
B0359013139514S11652154EA0153101581000000000000
B0359053139555S11652255EA0153101581000000000000
B0359093139596S11652356EA0152301570000000000000
B0359133139638S11652459EA0151001556000000000000
B0359173139678S11652566EA0149701543000000000000
B0359213139716S11652675EA0148701537000000000000
B0359253139750S11652783EA0148501533000000000000
B0359293139781S11652891EA0147801525000000000000
B0359333139807S11652999EA0147401521000000000000
B0359373139834S11653104EA0147001517000000000000
B0359413139861S11653207EA0146501514000000000000
B0359453139886S11653307EA0146201509000000000000
B0359493139909S11653407EA0145401499000000000000
B0359533139933S11653507EA0144701492000000000000
B0359573139959S11653607EA0143801483000000000000
B0400013139987S11653707EA0142901474000000000000
B0400053140019S11653807EA0142401471000000000000
B0400093140049S11653906EA0142101465000000000000
B0400133140076S11654006EA0141201456000000000000
B0400173140102S11654104EA0140801454000000000000
B0400213140127S11654199EA0140201446000000000000
B0400253140147S11654295EA0139401438000000000000
B0400293140166S11654391EA0139601445000000000000
B0400333140181S11654482EA0141101459000000000000
B0400373140207S11654565EA0141701463000000000000
B0400413140253S11654635EA0141801465000000000000
B0400453140302S11654703EA0141801465000000000000
B0400493140357S11654772EA0141501460000000000000
B0400533140398S11654859EA0141501469000000000000
B0400573140371S11654941EA0143601495000000000000
B0401013140309S11654954EA0144801498000000000000
B0401053140276S11654898EA0144501488000000000000
B0401093140289S11654829EA0143701481000000000000
B0401133140307S11654758EA0143301482000000000000
B0401173140350S11654708EA0143801491000000000000
B0401213140414S11654708EA0144301489000000015000
B0401253140472S11654752EA0143101475000000015000
B0401293140509S11654836EA0141901467000000015000
B0401333140533S11654932EA0141901469000000015000
B0401373140554S11655028EA0142501476000000000000
B0401413140571S11655123EA0143001481000000000000
B0401453140585S11655218EA0142801474000000000000
B0401493140595S11655320EA0142101468000000000000
B0401533140600S11655426EA0142001463000000000000
B0401573140604S11655536EA0140701450000000000000
B0402013140608S11655647EA0140201447000000000000
B0402053140608S11655761EA0139501438000000000000
B0402093140606S11655876EA0138401428000000000000
B0402133140601S11655985EA0137801428000000000000
B0402173140597S11656089EA0137201414000000015000
B0402213140596S11656190EA0136201404000000015000
B0402253140595S11656294EA0134801389000000015000
B0402293140593S11656401EA0133401380000000015000
B0402333140589S11656509EA0132501372000000015000
B0402373140582S11656617EA0131901368000000015000
B0402413140576S11656727EA0131401361000000015000
B0402453140572S11656840EA0130701356000000015000
B0402493140570S11656952EA0129801343000000015000
B0402533140570S11657066EA0128601329000000015000
B0402573140569S11657181EA0127501320000000015000
B0403013140567S11657293EA0126301301000000015000
B0403053140567S11657407EA0124201280000000015000
B0403093140571S11657523EA0122501268000000015000
B0403133140574S11657638EA0121101252000000015000
B0403173140576S11657754EA0120101241000000015000
B0403213140576S11657870EA0119001231000000015000
B0403253140576S11657983EA0118401225000000015000
B0403293140576S11658096EA0117601212000000015000
B0403333140575S11658209EA0116601203000000000000
B0403373140575S11658323EA0115401190000000000000
B0403413140578S11658439EA0114201179000000000000
B0403453140583S11658556EA0113401171000000000000
B0403493140588S11658671EA0112701165000000000000
B0403533140593S11658781EA0112701167000000000000
B0403573140598S11658888EA0111901159000000000000
B0404013140602S11658992EA0111301150000000000000
B0404053140604S11659096EA0110301141000000000000
B0404093140605S11659198EA0109401132000000000000
B0404133140609S11659300EA0108101116000000000000
B0404173140619S11659401EA0106801103000000000000
B0404213140631S11659504EA0105801099000000000000
B0404253140644S11659601EA0106101101000000000000
B0404293140654S11659698EA0105801098000000000000
B0404333140663S11659796EA0105801102000000000000
B0404373140675S11659887EA0107501124000000000000
B0404413140728S11659920EA0109801152000000000000
B0404453140751S11659868EA0111601162000000015000
B0404493140704S11659831EA0112401170000000015000
B0404533140649S11659864EA0113501186000000015000
B0404573140640S11659934EA0114401192000000015000
B0405013140684S11659968EA0116101213000000015000
B0405053140722S11659928EA0118001224000000015000
B0405093140695S11659872EA0118301228000000015000
B0405133140632S11659878EA0119201242000000015000
B0405173140596S11659934EA0120101248000000015000
B0405213140606S11700004EA0120801258000000015000
B0405253140653S11700032EA0122501278000000015000
B0405293140699S11700002EA0123401283000000015000
B0405333140700S11659937EA0124501300000000015000
B0405373140649S11659900EA0126101315000000015000
B0405413140592S11659924EA0127701330000000015000
B0405453140565S11659987EA0128801337000000015000
B0405493140585S11700055EA0129301346000000015000
B0405533140639S11700080EA0130501357000000015000
B0405573140689S11700050EA0131201362000000015000
B0406013140696S11659982EA0131901374000000015000
B0406053140648S11659938EA0133701393000000015000
B0406093140588S11659959EA0135601410000000015000
B0406133140562S11700024EA0136701417000000015000
B0406173140589S11700088EA0137301427000000015000
B0406213140645S11700108EA0137901432000000015000
B0406253140693S11700069EA0138501437000000015000
B0406293140708S11659995EA0139001441000000015000
B0406333140670S11659935EA0140201461000000015000
B0406373140617S11659965EA0142401484000000015000
B0406413140622S11700032EA0144201496000000015000
B0406453140673S11700056EA0145001503000000015000
B0406493140718S11700019EA0145801514000000030000
B0406533140712S11659956EA0147301531000000030000
B0406573140656S11659925EA0148201535000000015000
B0407013140592S11659955EA0148701545000000015000
B0407053140565S11700029EA0150201562000000015000
B0407093140591S11700097EA0151801576000000015000
B0407133140645S11700116EA0152701583000000015000
B0407173140700S11700089EA0153101584000000015000
B0407213140727S11700029EA0153901596000000015000
B0407253140689S11659981EA0155401613000000015000
B0407293140628S11659987EA0156101615000000015000
B0407333140589S11700050EA0157101628000000015000
B0407373140619S11700111EA0158301639000000015000
B0407413140675S11700103EA0159101645000000015000
B0407453140697S11700041EA0159301650000000015000
B0407493140665S11659987EA0160601662000000015000
B0407533140602S11659993EA0161201667000000015000
B0407573140559S11700056EA0161701664000000015000
B0408013140545S11700151EA0160801642000000015000
B0408053140548S11700259EA0158401614000000015000
B0408093140566S11700376EA0156401602000000015000
B0408133140602S11700488EA0155401593000000015000
B0408173140648S11700595EA0154201579000000000000
B0408213140697S11700699EA0152701565000000000000
B0408253140748S11700799EA0151601560000000000000
B0408293140800S11700895EA0151101554000000000000
B0408333140852S11700987EA0150901555000000000000
B0408373140903S11701073EA0151101560000000000000
B0408413140956S11701147EA0151401565000000000000
B0408453141005S11701225EA0151201559000000000000
B0408493141048S11701308EA0150601551000000000000
B0408533141089S11701399EA0149101531000000000000
B0408573141130S11701493EA0148601535000000000000
B0409013141168S11701583EA0148701530000000000000
B0409053141206S11701671EA0147501513000000000000
B0409093141242S11701762EA0145401492000000000000
B0409133141282S11701853EA0144401488000000000000
B0409173141321S11701944EA0143601479000000000000
B0409213141362S11702035EA0143201478000000000000
B0409253141403S11702121EA0143801491000000000000
B0409293141445S11702203EA0145201507000000000000
B0409333141485S11702274EA0147501533000000000000
B0409373141541S11702298EA0149401551000000000000
B0409413141555S11702243EA0151601576000000000000
B0409453141502S11702209EA0153301588000000015000
B0409493141446S11702248EA0154301598000000015000
B0409533141436S11702318EA0155201607000000015000
B0409573141477S11702361EA0156101616000000015000
B0410013141523S11702340EA0157201630000000015000
B0410053141506S11702279EA0158901649000000015000
B0410093141443S11702269EA0160301657000000015000
B0410133141397S11702326EA0161501673000000015000
B0410173141406S11702395EA0162601681000000015000
B0410213141455S11702420EA0162901680000000015000
B0410253141486S11702364EA0163401692000000015000
B0410293141454S11702300EA0164701707000000015000
B0410333141386S11702307EA0165901721000000015000
B0410373141359S11702379EA0167201732000000015000
B0410413141385S11702446EA0167801733000000015000
B0410453141445S11702452EA0167701729000000015000
B0410493141492S11702399EA0168101738000000015000
B0410533141472S11702330EA0170001762000000015000
B0410573141406S11702316EA0171101764000000015000
B0411013141360S11702381EA0171101766000000015000
B0411053141367S11702461EA0171601771000000015000
B0411093141390S11702548EA0170601749000000015000
B0411133141421S11702649EA0167801719000000015000
B0411173141459S11702758EA0166001708000000015000
B0411213141499S11702867EA0165801707000000015000
B0411253141537S11702970EA0166201711000000000000
B0411293141572S11703075EA0165401697000000000000
B0411333141607S11703184EA0164501690000000000000
B0411373141642S11703293EA0163501677000000000000
B0411413141677S11703404EA0162601672000000000000
B0411453141713S11703509EA0162201668000000000000
B0411493141746S11703614EA0161601660000000000000
B0411533141778S11703721EA0160401649000000000000
B0411573141809S11703829EA0159901646000000000000
B0412013141840S11703932EA0159401640000000000000
B0412053141870S11704034EA0158701631000000000000
B0412093141900S11704138EA0157901620000000000000
B0412133141932S11704244EA0156501608000000000000
B0412173141965S11704348EA0155601601000000000000
B0412213141997S11704450EA0155001596000000000000
B0412253142026S11704550EA0154501592000000000000
B0412293142056S11704649EA0153901585000000000000
B0412333142084S11704745EA0153101577000000000000
B0412373142113S11704840EA0153301582000000000000
B0412413142145S11704933EA0153201579000000000000
B0412453142181S11705026EA0152901575000000000000
B0412493142216S11705120EA0152001560000000000000
B0412533142248S11705215EA0150501551000000000000
B0412573142278S11705312EA0150601553000000000000
B0413013142309S11705407EA0150301546000000000000
B0413053142339S11705507EA0149401532000000000000
B0413093142373S11705610EA0147601517000000000000
B0413133142409S11705713EA0146201505000000000000
B0413173142442S11705817EA0145301494000000000000
B0413213142472S11705921EA0144501481000000000000
B0413253142500S11706021EA0143201477000000000000
B0413293142524S11706120EA0143101471000000000000
B0413333142546S11706220EA0142301465000000000000
B0413373142561S11706321EA0141401451000000000000
B0413413142576S11706422EA0140501450000000000000
B0413453142595S11706523EA0140101446000000000000
B0413493142617S11706627EA0140301456000000000000
B0413533142642S11706719EA0143001482000000000000
B0413573142695S11706723EA0146201517000000000000
B0414013142697S11706658EA0147201519000000015000
B0414053142632S11706628EA0147801529000000015000
B0414093142569S11706667EA0148401541000000015000
B0414133142556S11706742EA0149901559000000015000
B0414173142589S11706803EA0151901583000000015000
B0414213142637S11706785EA0154201605000000015000
B0414253142633S11706723EA0155701610000000015000
B0414293142574S11706698EA0156001614000000015000
B0414333142513S11706741EA0156701621000000015000
B0414373142499S11706823EA0158001643000000015000
B0414413142546S11706870EA0160901675000000015000
B0414453142589S11706829EA0163301695000000015000
B0414493142569S11706766EA0165201711000000015000
B0414533142506S11706742EA0165801715000000015000
B0414573142454S11706793EA0167701743000000015000
B0415013142465S11706859EA0170201764000000015000
B0415053142520S11706861EA0172201784000000015000
B0415093142521S11706797EA0174501810000000015000
B0415133142461S11706783EA0176201821000000015000
B0415173142424S11706846EA0177101831000000015000
B0415213142459S11706905EA0179401860000000015000
B0415253142515S11706890EA0181101879000000030000
B0415293142529S11706827EA0183201900000000030000
B0415333142485S11706779EA0184701906000000015000
B0415373142417S11706799EA0184501904000000015000
B0415413142386S11706876EA0185101915000000015000
B0415453142421S11706940EA0187201941000000015000
B0415493142472S11706905EA0188901952000000030000
B0415533142451S11706831EA0190301969000000015000
B0415573142386S11706806EA0192101985000000015000
B0416013142322S11706840EA0192601985000000015000
B0416053142298S11706920EA0193401993000000015000
B0416093142309S11707015EA0192701978000000015000
B0416133142335S11707124EA0191301964000000015000
B0416173142364S11707243EA0190001946000000015000
B0416213142398S11707360EA0188801947000000015000
B0416253142433S11707473EA0188801945000000000000
B0416293142467S11707581EA0188501941000000000000
B0416333142499S11707686EA0188201937000000000000
B0416373142529S11707793EA0187401927000000000000
B0416413142556S11707903EA0186401917000000000000
B0416453142584S11708015EA0185701912000000000000
B0416493142607S11708127EA0185601908000000000000
B0416533142628S11708233EA0185501905000000000000
B0416573142645S11708341EA0185201901000000000000
B0417013142662S11708448EA0184901899000000000000
B0417053142681S11708556EA0184401889000000000000
B0417093142704S11708662EA0183401878000000000000
B0417133142730S11708772EA0182801872000000000000
B0417173142755S11708883EA0181501858000000000000
B0417213142776S11708998EA0180401849000000000000
B0417253142794S11709113EA0179701841000000000000
B0417293142810S11709229EA0178801832000000000000
B0417333142825S11709346EA0177901820000000000000
B0417373142837S11709466EA0176901811000000000000
B0417413142849S11709584EA0175801801000000000000
B0417453142862S11709704EA0175401799000000000000
B0417493142880S11709819EA0175001793000000000000
B0417533142898S11709935EA0174201783000000000000
B0417573142914S11710052EA0173101771000000000000
B0418013142929S11710172EA0171901759000000000000
B0418053142948S11710290EA0170501743000000000000
B0418093142967S11710407EA0169301733000000000000
B0418133142984S11710519EA0169901750000000000000
B0418173143003S11710625EA0170601754000000000000
B0418213143022S11710727EA0171401761000000000000
B0418253143040S11710828EA0170801748000000000000
B0418293143057S11710932EA0169501736000000000000
B0418333143074S11711040EA0168401725000000000000
B0418373143091S11711149EA0167601719000000000000
B0418413143102S11711261EA0166301706000000000000
B0418453143114S11711372EA0165501699000000000000
B0418493143126S11711479EA0164701686000000000000
B0418533143135S11711591EA0163701672000000000000
B0418573143145S11711702EA0163201674000000000000
B0419013143156S11711812EA0163501674000000000000
B0419053143169S11711920EA0162801668000000000000
B0419093143176S11712025EA0162001658000000000000
B0419133143185S11712132EA0159101632000000000000
B0419173143195S11712246EA0157501623000000000000
B0419213143206S11712360EA0157401626000000000000
B0419253143218S11712473EA0157201620000000000000
B0419293143230S11712587EA0156801617000000000000
B0419333143239S11712701EA0156301612000000000000
B0419373143241S11712817EA0156001605000000000000
B0419413143245S11712935EA0154801593000000000000
B0419453143252S11713055EA0153701583000000000000
B0419493143261S11713176EA0152701569000000000000
B0419533143269S11713298EA0151101552000000000000
B0419573143274S11713420EA0149801542000000000000
B0420013143276S11713540EA0149001534000000000000
B0420053143280S11713657EA0147901520000000000000
B0420093143286S11713775EA0146701508000000000000
B0420133143291S11713891EA0146001502000000000000
B0420173143299S11714005EA0145001492000000000000
B0420213143305S11714117EA0143701474000000000000
B0420253143317S11714230EA0141901458000000000000
B0420293143331S11714343EA0141001451000000000000
B0420333143336S11714458EA0140301445000000000000
B0420373143340S11714573EA0139301431000000000000
B0420413143344S11714689EA0138201421000000000000
B0420453143352S11714805EA0137201415000000000000
B0420493143362S11714918EA0137101412000000000000
B0420533143366S11715027EA0136501412000000000000
B0420573143369S11715131EA0136801410000000000000
B0421013143374S11715234EA0136201405000000000000
B0421053143386S11715335EA0136101406000000000000
B0421093143403S11715430EA0136301415000000000000
B0421133143422S11715516EA0138301441000000000000
B0421173143440S11715594EA0140401457000000000000
B0421213143461S11715669EA0141301463000000000000
B0421253143484S11715747EA0141201457000000000000
B0421293143507S11715833EA0140401445000000000000
B0421333143525S11715923EA0140501462000000000000
B0421373143549S11716005EA0141901472000000000000
B0421413143562S11716092EA0143201484000000000000
B0421453143605S11716146EA0144801503000000000000
B0421493143652S11716115EA0145301489000000015000
B0421533143627S11716042EA0143401476000000015000
B0421573143568S11715988EA0142701471000000015000
B0422013143505S11715929EA0142601475000000000000
B0422053143438S11715876EA0143501486000000000000
B0422093143369S11715893EA0144701495000000015000
B0422133143358S11715974EA0144101475000000015000
B0422173143383S11716065EA0141901455000000015000
B0422213143429S11716154EA0140301454000000015000
B0422253143481S11716241EA0140101445000000000000
B0422293143536S11716328EA0139701441000000000000
B0422333143600S11716418EA0139701447000000000000
B0422373143659S11716496EA0141301464000000000000
B0422413143713S11716570EA0142201465000000000000
B0422453143767S11716647EA0141001448000000000000
B0422493143822S11716728EA0139301430000000000000
B0422533143878S11716812EA0137501413000000000000
B0422573143934S11716900EA0136401409000000000000
B0423013143988S11716988EA0136001402000000000000
B0423053144042S11717076EA0134901388000000000000
B0423093144098S11717164EA0133501376000000000000
B0423133144154S11717253EA0132601367000000000000
B0423173144210S11717342EA0131501357000000000000
B0423213144263S11717433EA0130701348000000000000
B0423253144314S11717521EA0130101343000000000000
B0423293144365S11717605EA0129301335000000000000
B0423333144415S11717692EA0128301322000000000000
B0423373144463S11717782EA0127401315000000000000
B0423413144513S11717872EA0126801308000000000000
B0423453144563S11717963EA0126101301000000000000
B0423493144612S11718050EA0125301293000000000000
B0423533144658S11718135EA0124501287000000000000
B0423573144704S11718219EA0124501289000000000000
B0424013144747S11718302EA0125201297000000000000
B0424053144791S11718379EA0126301311000000000000
B0424093144833S11718450EA0127101318000000000000
B0424133144874S11718519EA0127301317000000000000
B0424173144917S11718587EA0127001310000000000000
B0424213144965S11718655EA0125901302000000000000
B0424253145012S11718728EA0126001306000000000000
B0424293145059S11718802EA0126501309000000000000
B0424333145121S11718850EA0127601330000000000000
B0424373145185S11718845EA0129901350000000015000
B0424413145200S11718784EA0131401361000000015000
B0424453145150S11718748EA0131901362000000015000
B0424493145086S11718775EA0131801362000000015000
B0424533145042S11718844EA0132001366000000015000
B0424573145042S11718931EA0132701376000000015000
B0425013145098S11718939EA0134601399000000015000
B0425053145086S11718865EA0136301414000000015000
B0425093145022S11718862EA0137901431000000015000
B0425133144992S11718928EA0138501435000000015000
B0425173145028S11718983EA0139501455000000015000
B0425213145059S11718940EA0141801476000000015000
B0425253145013S11718892EA0143301490000000015000
B0425293144956S11718921EA0144901506000000015000
B0425333144959S11718987EA0146101516000000015000
B0425373145007S11719005EA0147201526000000015000
B0425413145005S11718940EA0148401538000000015000
B0425453144938S11718939EA0149301548000000015000
B0425493144917S11719017EA0150101552000000015000
B0425533144970S11719057EA0150901565000000015000
B0425573145002S11718996EA0152601581000000030000
B0426013144946S11718947EA0154001595000000030000
B0426053144891S11719003EA0155701614000000015000
B0426093144917S11719073EA0156701624000000015000
B0426133144977S11719073EA0158001641000000015000
B0426173144998S11719003EA0159801659000000030000
B0426213144950S11718943EA0161501677000000030000
B0426253144883S11718961EA0163701702000000015000
B0426293144866S11719031EA0165301711000000015000
B0426333144909S11719075EA0166101721000000015000
B0426373144959S11719056EA0167801745000000030000
B0426413144956S11718991EA0169401755000000030000
B0426453144900S11718951EA0170501771000000015000
B0426493144840S11718974EA0172401785000000015000
B0426533144813S11719042EA0173401790000000015000
B0426573144831S11719108EA0174101802000000015000
B0427013144882S11719135EA0174901813000000015000
B0427053144922S11719104EA0176601826000000015000
B0427093144918S11719039EA0177801836000000015000
B0427133144864S11718996EA0179201849000000030000
B0427173144796S11719014EA0179801858000000015000
B0427213144760S11719078EA0180501862000000015000
B0427253144782S11719144EA0181301878000000015000
B0427293144833S11719168EA0182301884000000015000
B0427333144878S11719135EA0182901889000000030000
B0427373144881S11719062EA0183101891000000030000
B0427413144842S11718990EA0184001902000000030000
B0427453144770S11718977EA0185701921000000030000
B0427493144716S11719027EA0186601923000000015000
B0427533144699S11719107EA0186301920000000015000
B0427573144710S11719191EA0186101918000000015000
B0428013144744S11719270EA0185201907000000015000
B0428053144794S11719351EA0184501897000000000000
B0428093144846S11719433EA0184201899000000000000
B0428133144900S11719516EA0183101878000000000000
B0428173144957S11719606EA0181301864000000000000
B0428213145017S11719695EA0179801851000000000000
B0428253145077S11719786EA0179201840000000000000
B0428293145138S11719875EA0178401833000000000000
B0428333145200S11719944EA0179101850000000000000
B0428373145262S11719997EA0179701850000000000000
B0428413145320S11720058EA0178901836000000000000
B0428453145376S11720128EA0178001829000000000000
B0428493145425S11720202EA0177801833000000000000
B0428533145464S11720275EA0178201839000000000000
B0428573145499S11720348EA0178101829000000000000
B0429013145538S11720423EA0176401809000000000000
B0429053145581S11720507EA0174401787000000000000
B0429093145626S11720592EA0173301779000000000000
B0429133145675S11720677EA0172101767000000000000
B0429173145726S11720763EA0171401763000000000000
B0429213145776S11720846EA0171201756000000000000
B0429253145827S11720932EA0170101743000000000000
B0429293145876S11721021EA0168501728000000000000
B0429333145925S11721115EA0167501719000000000000
B0429373145971S11721209EA0166601710000000000000
B0429413146018S11721304EA0165701703000000000000
B0429453146062S11721400EA0165001693000000000000
B0429493146107S11721501EA0163201672000000000000
B0429533146156S11721605EA0162201665000000000000
B0429573146204S11721705EA0162201668000000000000
B0430013146250S11721800EA0161801659000000000000
B0430053146289S11721902EA0160401646000000000000
B0430093146320S11722006EA0160001649000000000000
B0430133146348S11722108EA0160701661000000000000
B0430173146374S11722206EA0162301680000000000000
B0430213146396S11722303EA0163401682000000000000
B0430253146412S11722406EA0162801671000000000000
B0430293146426S11722516EA0162001667000000000000
B0430333146442S11722627EA0161701665000000000000
B0430373146458S11722730EA0162501685000000000000
B0430413146471S11722826EA0162901675000000000000
B0430453146482S11722925EA0162501676000000000000
B0430493146494S11723025EA0162801678000000000000
B0430533146506S11723124EA0162201668000000000000
B0430573146519S11723226EA0161901669000000000000
B0431013146532S11723326EA0162101671000000000000
B0431053146546S11723428EA0162101669000000000000
B0431093146559S11723532EA0163001682000000000000
B0431133146578S11723631EA0164401694000000000000
B0431173146601S11723728EA0164701694000000000000
B0431213146624S11723827EA0164301689000000000000
B0431253146650S11723928EA0163901686000000000000
B0431293146679S11724027EA0163301683000000000000
B0431333146707S11724118EA0163001673000000000000
B0431373146738S11724212EA0161901661000000000000
B0431413146772S11724308EA0161201654000000000000
B0431453146809S11724403EA0160401650000000000000
B0431493146845S11724489EA0161301673000000000000
B0431533146871S11724563EA0163901698000000000000
B0431573146897S11724634EA0164401689000000000000
B0432013146927S11724712EA0163901684000000000000
B0432053146957S11724791EA0163301672000000000000
B0432093146991S11724881EA0161601652000000000000
B0432133147027S11724975EA0160601650000000000000
B0432173147065S11725063EA0161101657000000000000
B0432213147102S11725148EA0161201653000000000000
B0432253147144S11725237EA0160101638000000000000
B0432293147184S11725331EA0160001653000000000000
B0432333147222S11725415EA0162301681000000000000
B0432373147262S11725495EA0164001690000000000000
B0432413147301S11725579EA0164601694000000000000
B0432453147342S11725668EA0165201702000000000000
B0432493147382S11725759EA0166601719000000000000
B0432533147422S11725847EA0168401743000000000000
B0432573147459S11725937EA0169901746000000000000
B0433013147498S11726032EA0168901731000000000000
B0433053147538S11726133EA0168101724000000000000
B0433093147578S11726234EA0167801720000000000000
B0433133147621S11726337EA0167401718000000000000
B0433173147665S11726435EA0167301718000000000000
B0433213147707S11726527EA0167001712000000000000
B0433253147746S11726622EA0165901696000000000000
B0433293147785S11726719EA0164501681000000000000
B0433333147830S11726819EA0162901664000000000000
B0433373147880S11726920EA0161401645000000000000
B0433413147925S11727029EA0159401621000000000000
B0433453147969S11727146EA0157401600000000000000
B0433493148018S11727264EA0155501590000000000000
B0433533148063S11727377EA0155401594000000000000
B0433573148107S11727488EA0154901583000000000000
B0434013148153S11727597EA0153701572000000000000
B0434053148197S11727703EA0152501556000000000000
B0434093148239S11727807EA0151401558000000000000
B0434133148280S11727900EA0152201569000000000000
B0434173148327S11727987EA0152701574000000000000
B0434213148376S11728067EA0153501590000000000000
B0434253148428S11728130EA0155901613000000000000
B0434293148479S11728113EA0158001639000000000000
B0434333148469S11728049EA0160001650000000015000
B0434373148401S11728021EA0159901642000000015000
B0434413148333S11728066EA0159701646000000015000
B0434453148317S11728152EA0159801643000000015000
B0434493148350S11728225EA0159801650000000015000
B0434533148402S11728277EA0160301651000000015000
B0434573148465S11728320EA0160201646000000015000
B0435013148534S11728361EA0159801645000000000000
B0435053148605S11728399EA0159901644000000000000
B0435093148683S11728433EA0159501639000000000000
B0435133148761S11728467EA0160101646000000000000
B0435173148837S11728502EA0160301643000000000000
B0435213148905S11728574EA0158001615000000000000
B0435253148951S11728686EA0156401597000000015000
B0435293148981S11728808EA0155401594000000000000
B0435333148999S11728932EA0155001586000000000000
B0435373149011S11729055EA0153901577000000000000
B0435413149016S11729180EA0152701562000000000000
B0435453149017S11729308EA0151501553000000000000
B0435493149019S11729434EA0151101555000000000000
B0435533149020S11729548EA0151901567000000000000
B0435573149022S11729656EA0151601560000000000000
B0436013149022S11729765EA0151001555000000000000
B0436053149025S11729869EA0150601546000000000000
B0436093149030S11729975EA0148901521000000000000
B0436133149038S11730080EA0147201516000000000000
B0436173149046S11730181EA0147401517000000000000
B0436213149056S11730283EA0146901509000000000000
B0436253149074S11730392EA0146501507000000000000
B0436293149098S11730492EA0148701536000000000000
B0436333149150S11730540EA0152201580000000000000
B0436373149175S11730488EA0155101604000000015000
B0436413149120S11730446EA0156301616000000015000
B0436453149064S11730487EA0157301632000000015000
B0436493149077S11730552EA0158301639000000015000
B0436533149125S11730560EA0159601653000000015000
B0436573149151S11730506EA0160901661000000015000
B0437013149123S11730444EA0162101674000000030000
B0437053149056S11730426EA0163201684000000015000
B0437093149013S11730479EA0164401698000000015000
B0437133149043S11730532EA0165201708000000015000
B0437173149087S11730504EA0166201718000000030000
B0437213149068S11730435EA0167001728000000030000
B0437253149000S11730420EA0168301743000000030000
B0437293148963S11730478EA0169101747000000030000
B0437333148991S11730535EA0169601756000000015000
B0437373149045S11730515EA0170601767000000030000
B0437413149043S11730440EA0172101784000000030000
B0437453148981S11730406EA0173701802000000030000
B0437493148925S11730446EA0174601807000000030000
B0437533148922S11730518EA0175301815000000015000
B0437573148969S11730543EA0176401832000000030000
B0438013148995S11730488EA0177901846000000030000
B0438053148951S11730433EA0179701863000000030000
B0438093148891S11730458EA0180701869000000030000
B0438133148889S11730526EA0181401876000000015000
B0438173148934S11730549EA0182501886000000030000
B0438213148968S11730501EA0183601892000000030000
B0438253148955S11730426EA0184301900000000030000
B0438293148909S11730362EA0185301908000000015000
B0438333148839S11730380EA0185201900000000015000
B0438373148826S11730466EA0183701876000000015000
B0438413148853S11730565EA0181601868000000015000
B0438453148890S11730666EA0181901879000000015000
B0438493148930S11730768EA0183101889000000015000
B0438533148972S11730872EA0182701878000000000000
B0438573149015S11730982EA0181701871000000000000
B0439013149055S11731093EA0181501871000000000000
B0439053149095S11731202EA0181201863000000000000
B0439093149138S11731311EA0179201844000000000000
B0439133149181S11731421EA0178401839000000000000
B0439173149221S11731532EA0178301841000000000000
B0439213149260S11731636EA0178501839000000000000
B0439253149298S11731740EA0178001833000000000000
B0439293149334S11731844EA0177101822000000000000
B0439333149370S11731947EA0176501816000000000000
B0439373149406S11732048EA0176001810000000000000
B0439413149441S11732149EA0175201801000000000000
B0439453149475S11732251EA0174801798000000000000
B0439493149509S11732351EA0173901786000000000000
B0439533149542S11732454EA0173101780000000000000
B0439573149574S11732555EA0172501771000000000000
B0440013149605S11732662EA0170901749000000000000
B0440053149639S11732770EA0169001733000000000000
B0440093149674S11732875EA0168101728000000000000
B0440133149710S11732981EA0167401721000000000000
B0440173149747S11733087EA0166701713000000000000
B0440213149784S11733192EA0165401698000000000000
B0440253149823S11733299EA0165101698000000000000
B0440293149860S11733404EA0164901693000000000000
B0440333149892S11733512EA0163801681000000000000
B0440373149921S11733620EA0162501668000000000000
B0440413149944S11733733EA0161401660000000000000
B0440453149960S11733849EA0160901656000000000000
B0440493149973S11733963EA0160401651000000000000
B0440533149987S11734079EA0159801647000000000000
B0440573150003S11734196EA0159101639000000000000
B0441013150020S11734307EA0160501665000000000000
B0441053150035S11734406EA0162501689000000000000
B0441093150052S11734501EA0163901694000000000000
B0441133150099S11734562EA0164501702000000000000
B0441173150159S11734556EA0164701694000000000000
B0441213150217S11734593EA0162701667000000000000
B0441253150259S11734677EA0160601654000000000000
B0441293150289S11734772EA0159901648000000000000
B0441333150317S11734873EA0158501628000000000000
B0441373150347S11734980EA0157601626000000000000
B0441413150377S11735085EA0157301619000000000000
B0441453150408S11735193EA0155801595000000000000
B0441493150445S11735306EA0153801575000000000000
B0441533150486S11735419EA0151801556000000000000
B0441573150527S11735536EA0150501548000000000000
B0442013150560S11735646EA0150501551000000000000
B0442053150593S11735753EA0149701537000000000000
B0442093150620S11735862EA0148001521000000000000
B0442133150647S11735974EA0146501504000000000000
B0442173150676S11736085EA0145701502000000000000
B0442213150705S11736196EA0145901505000000000000
B0442253150735S11736304EA0146001508000000000000
B0442293150767S11736411EA0146101506000000000000
B0442333150798S11736516EA0145501500000000000000
B0442373150827S11736621EA0145001497000000000000
B0442413150850S11736723EA0144801493000000000000
B0442453150874S11736823EA0143301474000000000000
B0442493150898S11736926EA0140901447000000000000
B0442533150926S11737034EA0138301425000000000000
B0442573150954S11737144EA0137801423000000000000
B0443013150984S11737244EA0139301455000000000000
B0443053151010S11737327EA0142101471000000000000
B0443093151039S11737404EA0142401469000000000000
B0443133151062S11737486EA0141501453000000000000
B0443173151082S11737576EA0139201429000000000000
B0443213151105S11737673EA0137201410000000000000
B0443253151132S11737773EA0135401390000000000000
B0443293151161S11737877EA0133601374000000000000
B0443333151191S11737983EA0132001357000000000000
B0443373151222S11738089EA0130801346000000000000
B0443413151249S11738196EA0130001336000000000000
B0443453151277S11738302EA0128701321000000000000
B0443493151304S11738412EA0127101304000000000000
B0443533151330S11738522EA0125701294000000000000
B0443573151356S11738634EA0124901283000000000000
B0444013151383S11738746EA0124001277000000000000
B0444053151411S11738860EA0124001280000000000000
B0444093151438S11738972EA0125201298000000000000
B0444133151464S11739072EA0127001319000000000000
B0444173151504S11739154EA0128501328000000000000
B0444213151544S11739236EA0128801330000000000000
B0444253151581S11739322EA0128801324000000000000
B0444293151612S11739415EA0127501313000000000000
B0444333151639S11739511EA0127801320000000000000
B0444373151667S11739606EA0127601312000000000000
B0444413151693S11739702EA0126101298000000000000
B0444453151717S11739801EA0124801281000000000000
B0444493151745S11739901EA0123501271000000000000
B0444533151771S11739999EA0122801263000000000000
B0444573151801S11740096EA0121601251000000000000
B0445013151830S11740191EA0120701242000000000000
B0445053151862S11740286EA0119701229000000000000
B0445093151895S11740378EA0118801224000000000000
B0445133151928S11740469EA0118101211000000000000
B0445173151964S11740564EA0116601197000000000000
B0445213151999S11740662EA0115501186000000000000
B0445253152036S11740758EA0115101191000000000000
B0445293152072S11740849EA0116201203000000000000
B0445333152109S11740940EA0117001207000000000000
B0445373152146S11741032EA0117201213000000000000
B0445413152187S11741122EA0117701215000000000000
B0445453152226S11741212EA0117301207000000000000
B0445493152269S11741300EA0116901204000000000000
B0445533152313S11741385EA0117201216000000000000
B0445573152358S11741465EA0118301223000000000000
B0446013152412S11741541EA0118701223000000000000
B0446053152469S11741612EA0118201215000000000000
B0446093152526S11741688EA0117801216000000000000
B0446133152574S11741773EA0118801235000000000000
B0446173152618S11741858EA0120301244000000000000
B0446213152674S11741919EA0121201258000000000000
B0446253152734S11741957EA0123301284000000000000
B0446293152752S11741906EA0126201309000000000000
B0446333152692S11741880EA0126901308000000015000
B0446373152643S11741942EA0127301323000000000000
B0446413152653S11742015EA0128701336000000015000
B0446453152703S11742019EA0129701347000000015000
B0446493152716S11741961EA0131201363000000015000
B0446533152672S11741911EA0132501373000000015000
B0446573152608S11741935EA0133401384000000015000
B0447013152588S11742005EA0134801401000000015000
B0447053152620S11742054EA0136001411000000015000
B0447093152664S11742044EA0137301424000000015000
B0447133152674S11741985EA0138401433000000015000
B0447173152627S11741937EA0139101439000000015000
B0447213152562S11741955EA0139901451000000015000
B0447253152536S11742027EA0141301470000000015000
B0447293152561S11742087EA0143101486000000015000
B0447333152608S11742094EA0144501494000000015000
B0447373152639S11742046EA0145301500000000015000
B0447413152618S11741983EA0146001508000000015000
B0447453152552S11741962EA0146501511000000015000
B0447493152488S11742003EA0147101522000000015000
B0447533152474S11742083EA0148001536000000015000
B0447573152517S11742122EA0149601552000000015000
B0448013152545S11742066EA0150601556000000015000
B0448053152492S11742013EA0151101565000000015000
B0448093152425S11742053EA0152001578000000015000
B0448133152405S11742136EA0153301588000000015000
B0448173152447S11742187EA0154401604000000015000
B0448213152493S11742162EA0155901618000000015000
B0448253152487S11742093EA0157301634000000015000
B0448293152430S11742055EA0158801644000000015000
B0448333152361S11742083EA0159501653000000015000
B0448373152335S11742154EA0160801673000000015000
B0448413152367S11742206EA0161901677000000015000
B0448453152410S11742184EA0162901694000000015000
B0448493152406S11742122EA0164401700000000015000
B0448533152350S11742078EA0165501712000000015000
B0448573152279S11742094EA0166601720000000015000
B0449013152244S11742169EA0167301730000000015000
B0449053152261S11742243EA0168101736000000015000
B0449093152311S11742278EA0168701748000000015000
B0449133152353S11742248EA0170401759000000015000
B0449173152348S11742184EA0171301764000000015000
B0449213152291S11742145EA0172001778000000015000
B0449253152220S11742148EA0173401790000000015000
B0449293152180S11742214EA0174201796000000015000
B0449333152196S11742288EA0174701802000000015000
B0449373152246S11742295EA0175001807000000015000
B0449413152283S11742243EA0175601816000000015000
B0449453152293S11742174EA0176801826000000015000
B0449493152305S11742101EA0177201827000000015000
B0449533152356S11742063EA0177901842000000015000
B0449573152414S11742067EA0178201833000000015000
B0450013152477S11742102EA0176001801000000000000
B0450053152542S11742175EA0173301784000000000000
B0450093152601S11742267EA0173101787000000000000
B0450133152656S11742364EA0173101782000000000000
B0450173152708S11742460EA0172001771000000000000
B0450213152752S11742561EA0171001760000000000000
B0450253152794S11742666EA0169801750000000000000
B0450293152833S11742772EA0169301747000000000000
B0450333152868S11742874EA0168901743000000000000
B0450373152902S11742975EA0168101732000000000000
B0450413152937S11743073EA0167001720000000000000
B0450453152971S11743176EA0166001708000000000000
B0450493153003S11743279EA0165001697000000000000
B0450533153036S11743379EA0163601683000000000000
B0450573153069S11743478EA0162601670000000000000
B0451013153106S11743575EA0161001654000000000000
B0451053153143S11743671EA0159201638000000000000
B0451093153182S11743768EA0157501620000000000000
B0451133153223S11743864EA0156501614000000000000
B0451173153260S11743957EA0156301613000000000000
B0451213153298S11744051EA0155801607000000000000
B0451253153338S11744141EA0155501603000000000000
B0451293153375S11744234EA0155001594000000000000
B0451333153415S11744330EA0154001585000000000000
B0451373153459S11744421EA0153401580000000000000
B0451413153504S11744512EA0152701575000000000000
B0451453153549S11744600EA0151901565000000000000
B0451493153591S11744691EA0151201561000000000000
B0451533153630S11744784EA0150801554000000000000
B0451573153662S11744880EA0149301539000000000000
B0452013153692S11744977EA0148701531000000000000
B0452053153722S11745069EA0149201544000000000000
B0452093153752S11745160EA0150401560000000000000
B0452133153793S11745229EA0153101592000000000000
B0452173153831S11745188EA0156701630000000000000
B0452213153788S11745134EA0159201648000000000000
B0452253153722S11745159EA0160801666000000000000
B0452293153709S11745227EA0162801687000000015000
B0452333153753S11745246EA0165001706000000015000
B0452373153770S11745183EA0166401724000000015000
B0452413153726S11745123EA0168401743000000015000
B0452453153654S11745120EA0169601756000000015000
B0452493153609S11745175EA0171101777000000015000
B0452533153614S11745240EA0173101797000000015000
B0452573153652S11745277EA0174501807000000015000
B0453013153696S11745253EA0176001824000000015000
B0453053153689S11745187EA0177501837000000015000
B0453093153626S11745148EA0178801850000000015000
B0453133153563S11745179EA0180501870000000015000
B0453173153553S11745247EA0182001882000000015000
B0453213153596S11745282EA0182501891000000015000
B0453253153639S11745244EA0184101911000000015000
B0453293153627S11745172EA0186101929000000015000
B0453333153562S11745134EA0187501940000000015000
B0453373153501S11745166EA0188901959000000015000
B0453413153497S11745230EA0190401971000000015000
B0453453153537S11745263EA0191301976000000015000
B0453493153580S11745229EA0192101985000000015000
B0453533153571S11745157EA0194002008000000015000
B0453573153509S11745125EA0195302013000000015000
B0454013153450S11745164EA0195302015000000015000
B0454053153448S11745233EA0195902026000000015000
B0454093153479S11745292EA0195902010000000015000
B0454133153533S11745355EA0193801990000000015000
B0454173153591S11745434EA0192501983000000000000
B0454213153644S11745523EA0192201980000000000000
B0454253153692S11745616EA0191801976000000000000
B0454293153735S11745712EA0191601974000000000000
B0454333153775S11745809EA0190901963000000000000
B0454373153816S11745905EA0189801953000000000000
B0454413153856S11746002EA0188601942000000000000
B0454453153894S11746100EA0188301939000000000000
B0454493153929S11746195EA0187901937000000000000
B0454533153960S11746287EA0187401927000000000000
B0454573153994S11746375EA0186301919000000000000
B0455013154033S11746460EA0185701911000000000000
B0455053154070S11746546EA0184701900000000000000
B0455093154107S11746630EA0183901894000000000000
B0455133154143S11746715EA0183101885000000000000
B0455173154178S11746798EA0182101870000000000000
B0455213154212S11746884EA0180501856000000000000
B0455253154248S11746972EA0179201842000000000000
B0455293154285S11747064EA0178401836000000000000
B0455333154317S11747158EA0177501827000000000000
B0455373154350S11747253EA0176301813000000000000
B0455413154380S11747350EA0175001800000000000000
B0455453154410S11747450EA0174001791000000000000
B0455493154441S11747549EA0173701790000000000000
B0455533154471S11747644EA0173801793000000000000
B0455573154498S11747739EA0173901794000000000000
B0456013154521S11747835EA0174101795000000000000
B0456053154549S11747930EA0174701809000000000000
B0456093154581S11748017EA0177901842000000000000
B0456133154645S11748028EA0181501880000000000000
B0456173154672S11747968EA0184101902000000015000
B0456213154635S11747911EA0185601915000000015000
B0456253154568S11747918EA0187101934000000015000
B0456293154532S11747982EA0188701950000000015000
B0456333154544S11748054EA0190301966000000015000
B0456373154598S11748050EA0192601992000000030000
B0456413154614S11747986EA0193902001000000015000
B0456453154568S11747931EA0194202004000000015000
B0456493154495S11747943EA0194802015000000015000
B0456533154460S11748019EA0196602042000000015000
B0456573154493S11748073EA0199502063000000015000
B0457013154540S11748045EA0201002079000000015000
B0457053154528S11747974EA0202102088000000015000
B0457093154460S11747955EA0203002095000000015000
B0457133154408S11748015EA0203902111000000015000
B0457173154406S11748097EA0205702128000000015000
B0457213154449S11748143EA0207602146000000015000
B0457253154498S11748116EA0208602150000000015000
B0457293154494S11748046EA0208702153000000015000
B0457333154433S11748006EA0209102160000000015000
B0457373154371S11748039EA0210102169000000015000
B0457413154363S11748117EA0210802174000000015000
B0457453154397S11748190EA0211002175000000015000
B0457493154442S11748260EA0211002175000000000000
B0457533154488S11748336EA0211602184000000000000
B0457573154533S11748410EA0212402191000000000000
B0458013154580S11748487EA0212902195000000000000
B0458053154627S11748562EA0212802190000000000000
B0458093154671S11748643EA0212402186000000000000
B0458133154715S11748726EA0211902178000000000000
B0458173154757S11748814EA0211302174000000000000
B0458213154800S11748899EA0210702167000000000000
B0458253154844S11748983EA0210002159000000000000
B0458293154887S11749066EA0208702146000000000000
B0458333154930S11749148EA0207502135000000000000
B0458373154974S11749229EA0206702129000000000000
B0458413155017S11749308EA0206702128000000000000
B0458453155065S11749385EA0206102121000000000000
B0458493155112S11749463EA0205902120000000000000
B0458533155156S11749543EA0205402113000000000000
B0458573155199S11749624EA0204802108000000000000
B0459013155242S11749701EA0204502104000000000000
B0459053155287S11749779EA0203802096000000000000
B0459093155334S11749859EA0202902086000000000000
B0459133155381S11749940EA0202002078000000000000
B0459173155430S11750018EA0201202069000000000000
B0459213155481S11750099EA0200502064000000000000
B0459253155526S11750178EA0200902072000000000000
B0459293155568S11750255EA0201202073000000000000
B0459333155608S11750331EA0201002070000000000000
B0459373155647S11750408EA0200502064000000000000
B0459413155686S11750486EA0200002059000000000000
B0459453155728S11750561EA0199502055000000000000
B0459493155769S11750634EA0199102051000000000000
B0459533155815S11750707EA0198502044000000000000
B0459573155860S11750778EA0198102042000000000000
B0500013155914S11750833EA0198002040000000000000
B0500053155981S11750845EA0197502031000000000000
B0500093156049S11750816EA0196302018000000000000
B0500133156110S11750764EA0194802004000000000000
B0500173156169S11750704EA0193501988000000000000
B0500213156230S11750639EA0192101975000000000000
B0500253156289S11750570EA0191301964000000000000
B0500293156349S11750500EA0190201952000000000000
B0500333156413S11750433EA0188901940000000000000
B0500373156478S11750368EA0187801929000000000000
B0500413156544S11750300EA0186601914000000000000
B0500453156611S11750234EA0185701904000000000000
B0500493156677S11750173EA0185301902000000000000
B0500533156741S11750112EA0185001899000000000000
B0500573156800S11750054EA0184801896000000000000
B0501013156859S11750000EA0184201888000000000000
B0501053156917S11749943EA0183001873000000000000
B0501093156976S11749881EA0182101867000000000000
B0501133157034S11749822EA0181301856000000000000
B0501173157092S11749759EA0179801844000000000000
B0501213157146S11749696EA0178901837000000000000
B0501253157201S11749634EA0178001825000000000000
B0501293157258S11749572EA0177001813000000000000
B0501333157314S11749511EA0176101804000000000000
B0501373157375S11749458EA0174801792000000000000
B0501413157439S11749408EA0174201788000000000000
B0501453157502S11749358EA0173801783000000000000
B0501493157563S11749300EA0173401778000000000000
B0501533157618S11749237EA0174101789000000000000
B0501573157626S11749159EA0175901809000000000000
B0502013157599S11749085EA0176501814000000000000
B0502053157609S11749005EA0176901822000000000000
B0502093157654S11748952EA0178301844000000000000
B0502133157700S11748988EA0180001858000000000000
B0502173157675S11749055EA0180401850000000000000
B0502213157605S11749062EA0179501844000000015000
B0502253157547S11749014EA0179401850000000015000
B0502293157519S11748938EA0180201860000000000000
B0502333157527S11748856EA0180801859000000000000
B0502373157563S11748780EA0179701841000000015000
B0502413157614S11748709EA0177901828000000000000
B0502453157673S11748643EA0176601810000000000000
B0502493157731S11748575EA0175901806000000000000
B0502533157788S11748510EA0175701800000000000000
B0502573157848S11748446EA0174501788000000000000
B0503013157911S11748384EA0173001768000000000000
B0503053157978S11748319EA0171401757000000000000
B0503093158048S11748255EA0170301744000000000000
B0503133158121S11748190EA0169801743000000000000
B0503173158191S11748124EA0170301749000000000000
B0503213158258S11748055EA0171001758000000000000
B0503253158324S11747990EA0171401762000000000000
B0503293158392S11747926EA0171601762000000000000
B0503333158458S11747857EA0171601761000000000000
B0503373158524S11747787EA0171201758000000000000
B0503413158589S11747716EA0170401752000000000000
B0503453158654S11747640EA0168901734000000000000
B0503493158722S11747564EA0167101715000000000000
B0503533158791S11747486EA0165701704000000000000
B0503573158857S11747408EA0165201698000000000000
B0504013158926S11747335EA0164701691000000000000
B0504053158995S11747262EA0163801680000000000000
B0504093159065S11747189EA0162501664000000000000
B0504133159133S11747110EA0160901654000000000000
B0504173159196S11747031EA0160301650000000000000
B0504213159257S11746954EA0160001644000000000000
B0504253159317S11746880EA0159201638000000000000
B0504293159377S11746806EA0158501630000000000000
B0504333159438S11746730EA0157401618000000000000
B0504373159503S11746655EA0156401602000000000000
B0504413159567S11746576EA0155001592000000000000
B0504453159629S11746495EA0154301586000000000000
B0504493159688S11746413EA0153601577000000000000
B0504533159746S11746329EA0152601566000000000000
B0504573159803S11746243EA0151401555000000000000
B0505013159866S11746162EA0150201543000000000000
B0505053159932S11746083EA0148801527000000000000
B0505093159997S11746001EA0148001518000000000000
B0505133200062S11745918EA0146801506000000000000
B0505173200124S11745832EA0145501492000000000000
B0505213200189S11745745EA0144101478000000000000
B0505253200254S11745660EA0142701468000000000000
B0505293200316S11745581EA0142701472000000000000
B0505333200371S11745504EA0143601481000000000000
B0505373200429S11745442EA0144201488000000000000
B0505413200490S11745387EA0144301489000000000000
B0505453200547S11745329EA0144101475000000000000
B0505493200602S11745257EA0141801453000000000000
B0505533200655S11745186EA0141001456000000000000
B0505573200707S11745113EA0141301452000000000000
B0506013200758S11745036EA0140701444000000000000
B0506053200807S11744958EA0140601456000000000000
B0506093200832S11744876EA0142401470000000000000
B0506133200845S11744793EA0142601467000000000000
B0506173200889S11744731EA0142101465000000000000
B0506213200940S11744676EA0141901459000000000000
B0506253200995S11744627EA0141101451000000000000
B0506293201053S11744568EA0139301425000000000000
B0506333201106S11744497EA0137001404000000000000
B0506373201157S11744416EA0135501394000000000000
B0506413201215S11744343EA0135101394000000000000
B0506453201283S11744286EA0136001402000000000000
B0506493201350S11744232EA0135601393000000000000
B0506533201415S11744172EA0135201393000000000000
B0506573201474S11744111EA0135601399000000000000
B0507013201527S11744050EA0135901399000000000000
B0507053201571S11743982EA0134901388000000000000
B0507093201613S11743904EA0134401389000000000000
B0507133201653S11743823EA0134601375000000000000
B0507173201688S11743731EA0132901366000000000000
B0507213201718S11743634EA0132501365000000000000
B0507253201743S11743535EA0132801368000000000000
B0507293201764S11743436EA0132701365000000000000
B0507333201785S11743339EA0132001356000000000000
B0507373201807S11743241EA0130901342000000000000
B0507413201831S11743142EA0129701334000000000000
B0507453201852S11743043EA0128601321000000000000
B0507493201874S11742943EA0127101304000000000000
B0507533201898S11742842EA0125801291000000000000
B0507573201922S11742742EA0124501279000000000000
B0508013201948S11742642EA0123601272000000000000
B0508053201974S11742547EA0123301270000000000000
B0508093202000S11742453EA0122701264000000000000
B0508133202025S11742357EA0122401264000000000000
B0508173202047S11742262EA0122901273000000000000
B0508213202071S11742170EA0123601278000000000000
B0508253202093S11742076EA0123801284000000000000
B0508293202121S11741990EA0125001298000000000000
B0508333202158S11741910EA0126201309000000000000
B0508373202198S11741834EA0127301317000000000000
B0508413202243S11741756EA0127101313000000000000
B0508453202295S11741684EA0127801328000000000000
B0508493202332S11741606EA0130201356000000000000
B0508533202292S11741547EA0133601395000000000000
B0508573202238S11741582EA0136401415000000000000
B0509013202245S11741651EA0137501425000000000000
B0509053202293S11741678EA0139101447000000015000
B0509093202338S11741650EA0140901457000000015000
B0509133202336S11741584EA0141401462000000015000
B0509173202272S11741552EA0142401478000000015000
B0509213202215S11741598EA0144201495000000015000
B0509253202215S11741677EA0145301509000000015000
B0509293202264S11741720EA0147301528000000015000
B0509333202319S11741694EA0148801543000000015000
B0509373202338S11741621EA0149401543000000015000
B0509413202290S11741560EA0150601564000000015000
B0509453202224S11741582EA0152101579000000015000
B0509493202201S11741662EA0153001585000000015000
B0509533202241S11741727EA0154301607000000015000
B0509573202303S11741719EA0156501627000000015000
B0510013202320S11741647EA0158301641000000015000
B0510053202267S11741606EA0159501655000000015000
B0510093202207S11741639EA0161201675000000015000
B0510133202199S11741716EA0162401681000000015000
B0510173202255S11741749EA0164401707000000015000
B0510213202293S11741693EA0165901717000000015000
B0510253202254S11741639EA0167401734000000015000
B0510293202201S11741676EA0168601747000000015000
B0510333202206S11741747EA0170001761000000015000
B0510373202259S11741773EA0171401776000000015000
B0510413202299S11741724EA0172801783000000015000
B0510453202284S11741654EA0173301790000000015000
B0510493202228S11741638EA0174301806000000015000
B0510533202191S11741695EA0175301811000000015000
B0510573202215S11741763EA0176201832000000015000
B0511013202269S11741779EA0178101847000000015000
B0511053202315S11741740EA0178901846000000015000
B0511093202332S11741665EA0178701845000000015000
B0511133202302S11741599EA0179601861000000015000
B0511173202243S11741574EA0181001871000000015000
B0511213202180S11741589EA0181201870000000015000
B0511253202139S11741658EA0181601879000000015000
B0511293202138S11741742EA0182201884000000015000
B0511333202176S11741807EA0183601902000000015000
B0511373202232S11741780EA0185601921000000015000
B0511413202215S11741710EA0187401940000000015000
B0511453202156S11741703EA0188201942000000015000
B0511493202125S11741769EA0188201940000000015000
B0511533202173S11741820EA0188301951000000015000
B0511573202233S11741790EA0190001964000000015000
B0512013202282S11741727EA0190101956000000015000
B0512053202336S11741652EA0188601935000000000000
B0512093202394S11741568EA0186901919000000000000
B0512133202454S11741482EA0185701909000000000000
B0512173202514S11741398EA0184401894000000000000
B0512213202576S11741314EA0183501887000000000000
B0512253202636S11741235EA0183501890000000000000
B0512293202697S11741161EA0183101883000000000000
B0512333202758S11741087EA0182501876000000000000
B0512373202818S11741008EA0182101874000000000000
B0512413202879S11740932EA0181801870000000000000
B0512453202940S11740858EA0181301865000000000000
B0512493203004S11740785EA0180301851000000000000
B0512533203072S11740716EA0179101838000000000000
B0512573203144S11740653EA0178001830000000000000
B0513013203217S11740593EA0177001820000000000000
B0513053203293S11740534EA0176301812000000000000
B0513093203369S11740476EA0175601799000000000000
B0513133203446S11740415EA0174101790000000000000
B0513173203525S11740354EA0173201778000000000000
B0513213203606S11740294EA0171901767000000000000
B0513253203686S11740239EA0170301748000000000000
B0513293203772S11740186EA0168401730000000000000
B0513333203861S11740133EA0166901716000000000000
B0513373203948S11740079EA0166201703000000000000
B0513413204035S11740027EA0164701687000000000000
B0513453204119S11739973EA0163501681000000000000
B0513493204201S11739916EA0162301669000000000000
B0513533204283S11739857EA0161401658000000000000
B0513573204365S11739800EA0159501639000000000000
B0514013204450S11739739EA0157501619000000000000
B0514053204533S11739671EA0156101603000000000000
B0514093204616S11739602EA0154701587000000000000
B0514133204698S11739530EA0153501580000000000000
B0514173204778S11739459EA0152701575000000000000
B0514213204855S11739393EA0151901566000000000000
B0514253204934S11739325EA0150301548000000000000
B0514293205010S11739257EA0148901537000000000000
B0514333205084S11739190EA0148601533000000015000
B0514373205157S11739125EA0148001527000000015000
B0514413205227S11739062EA0147501522000000000000
B0514453205296S11739006EA0147801531000000000000
B0514493205361S11738952EA0148601535000000000000
B0514533205423S11738896EA0148701535000000000000
B0514573205487S11738843EA0148501529000000000000
B0515013205552S11738786EA0147901525000000000000
B0515053205612S11738726EA0148401536000000000000
B0515093205666S11738665EA0149401549000000000000
B0515133205714S11738605EA0150801561000000000000
B0515173205760S11738543EA0151201560000000000000
B0515213205807S11738482EA0151301562000000000000
B0515253205859S11738427EA0151501564000000000000
B0515293205911S11738375EA0151901568000000000000
B0515333205963S11738318EA0151901569000000000000
B0515373206012S11738257EA0152101569000000000000
B0515413206063S11738194EA0152301574000000000000
B0515453206115S11738133EA0152801575000000000000
B0515493206169S11738072EA0152201562000000000000
B0515533206227S11738001EA0150501546000000000000
B0515573206284S11737924EA0149501536000000000000
B0516013206338S11737845EA0148201518000000000000
B0516053206396S11737764EA0147001514000000000000
B0516093206452S11737685EA0147001516000000000000
B0516133206506S11737607EA0146901512000000015000
B0516173206562S11737530EA0145701492000000000000
B0516213206622S11737455EA0143901474000000000000
B0516253206680S11737378EA0142701467000000000000
B0516293206738S11737305EA0142101462000000015000
B0516333206793S11737230EA0141101454000000015000
B0516373206842S11737147EA0140701448000000015000
B0516413206888S11737063EA0139601438000000015000
B0516453206938S11736978EA0138201433000000015000
B0516493206990S11736893EA0137301427000000015000
B0516533207046S11736811EA0136301420000000015000
B0516573207103S11736732EA0135501409000000015000
B0517013207163S11736651EA0133601389000000015000
B0517053207221S11736571EA0132501380000000015000
B0517093207282S11736494EA0132001371000000015000
B0517133207341S11736417EA0131301362000000015000
B0517173207398S11736342EA0130501352000000015000
B0517213207459S11736270EA0129701338000000015000
B0517253207524S11736203EA0128301323000000000000
B0517293207589S11736134EA0127101309000000000000
B0517333207653S11736061EA0125501297000000000000
B0517373207710S11735987EA0124101288000000015000
B0517413207766S11735912EA0123001283000000015000
B0517453207826S11735839EA0121601271000000015000
B0517493207888S11735767EA0120201255000000015000
B0517533207950S11735696EA0119601248000000015000
B0517573208010S11735624EA0119001243000000015000
B0518013208070S11735552EA0119001243000000015000
B0518053208125S11735480EA0119201247000000015000
B0518093208175S11735411EA0119901253000000015000
B0518133208220S11735338EA0121001263000000015000
B0518173208257S11735266EA0121901270000000015000
B0518213208294S11735193EA0122701278000000015000
B0518253208335S11735129EA0123101277000000000000
B0518293208382S11735069EA0122601266000000000000
B0518333208431S11735003EA0121501255000000000000
B0518373208487S11734939EA0121101252000000000000
B0518413208550S11734887EA0121201257000000000000
B0518453208615S11734852EA0121301253000000000000
B0518493208685S11734831EA0120601244000000000000
B0518533208762S11734826EA0119501236000000000000
B0518573208842S11734833EA0118301216000000000000
B0519013208929S11734838EA0116401206000000000000
B0519053209013S11734842EA0116301205000000000000
B0519093209092S11734846EA0116001200000000000000
B0519133209171S11734850EA0114801188000000000000
B0519173209253S11734853EA0113901171000000000000
B0519213209340S11734852EA0112801167000000000000
B0519253209426S11734847EA0112901175000000000000
B0519293209504S11734837EA0114701193000000000000
B0519333209548S11734783EA0116801221000000000000
B0519373209505S11734729EA0118801233000000000000
B0519413209452S11734773EA0119501238000000000000
B0519453209435S11734846EA0120001247000000015000
B0519493209477S11734881EA0120601246000000015000
B0519533209530S11734857EA0120501249000000015000
B0519573209555S11734800EA0121601263000000015000
B0520013209510S11734748EA0122001259000000015000
B0520053209442S11734768EA0122201271000000015000
B0520093209397S11734827EA0123301281000000015000
B0520133209384S11734902EA0124101287000000015000
B0520173209423S11734954EA0124601292000000015000
B0520213209483S11734964EA0124901294000000015000
B0520253209544S11734960EA0124601284000000000000
B0520293209588S11734900EA0122401258000000000000
B0520333209601S11734804EA0120001235000000000000
B0520373209596S11734699EA0119501244000000000000
B0520413209585S11734595EA0121201259000000000000
B0520453209569S11734495EA0122501274000000000000
B0520493209538S11734404EA0123501284000000000000
B0520533209494S11734319EA0123801281000000000000
B0520573209461S11734228EA0123201270000000000000
B0521013209434S11734131EA0122301268000000000000
B0521053209410S11734040EA0123301280000000000000
B0521093209387S11733951EA0124201290000000000000
B0521133209369S11733865EA0125501302000000000000
B0521173209358S11733781EA0125601298000000000000
B0521213209345S11733693EA0124001280000000000000
B0521253209332S11733600EA0122901266000000000000
B0521293209321S11733503EA0122201262000000000000
B0521333209309S11733405EA0121501253000000000000
B0521373209297S11733308EA0120301240000000000000
B0521413209286S11733210EA0119101231000000000000
B0521453209271S11733111EA0118301221000000000000
B0521493209256S11733011EA0116801204000000000000
B0521533209240S11732910EA0115101186000000000000
B0521573209223S11732805EA0113201168000000000000
B0522013209205S11732701EA0112501160000000000000
B0522053209184S11732602EA0111701150000000000000
B0522093209161S11732504EA0110401139000000000000
B0522133209140S11732406EA0108801121000000000000
B0522173209127S11732305EA0107301107000000000000
B0522213209115S11732207EA0106701105000000000000
B0522253209105S11732113EA0107801119000000000000
B0522293209092S11732031EA0110101148000000000000
B0522333209098S11731960EA0111701165000000000000
B0522373209156S11731957EA0112901179000000000000
B0522413209158S11732032EA0114401192000000000000
B0522453209102S11732074EA0115301206000000015000
B0522493209049S11732049EA0116801221000000015000
B0522533209042S11731993EA0118201236000000015000
B0522573209080S11731957EA0119401243000000015000
B0523013209130S11731990EA0120201251000000015000
B0523053209131S11732065EA0121201260000000015000
B0523093209083S11732116EA0122101273000000015000
B0523133209022S11732105EA0122801277000000015000
B0523173208998S11732044EA0123501291000000015000
B0523213209033S11731997EA0124801298000000015000
B0523253209093S11732017EA0125401306000000015000
B0523293209107S11732092EA0126701323000000015000
B0523333209058S11732146EA0128101335000000015000
B0523373208996S11732139EA0129301347000000015000
B0523413208958S11732088EA0130301357000000015000
B0523453208966S11732025EA0131401366000000015000
B0523493209013S11731982EA0132001372000000015000
B0523533209076S11731988EA0132801381000000015000
B0523573209119S11732045EA0133901405000000015000
B0524013209119S11732118EA0136701430000000015000
B0524053209074S11732164EA0138301435000000015000
B0524093209011S11732151EA0138401441000000015000
B0524133208976S11732091EA0139501453000000015000
B0524173208985S11732026EA0141001468000000015000
B0524213209031S11731984EA0142101475000000015000
B0524253209092S11731984EA0142701483000000015000
B0524293209141S11732034EA0143901496000000015000
B0524333209153S11732112EA0145601516000000015000
B0524373209123S11732185EA0146601520000000015000
B0524413209058S11732230EA0146801525000000015000
B0524453208988S11732218EA0148001542000000015000
B0524493208944S11732161EA0149401554000000015000
B0524533208945S11732088EA0150701568000000015000
B0524573208987S11732042EA0151801576000000015000
B0525013209046S11732038EA0152501584000000015000
B0525053209097S11732081EA0153801597000000015000
B0525093209106S11732155EA0154901611000000015000
B0525133209071S11732222EA0156401622000000015000
B0525173209009S11732257EA0157301634000000015000
B0525213208945S11732238EA0158501648000000015000
B0525253208906S11732178EA0159801658000000015000
B0525293208905S11732105EA0160601667000000015000
B0525333208938S11732043EA0161501675000000015000
B0525373208997S11732014EA0162201680000000015000
B0525413209061S11732030EA0163501698000000015000
B0525453209101S11732083EA0165001714000000015000
B0525493209101S11732159EA0166301725000000015000
B0525533209062S11732234EA0166901729000000015000
B0525573208994S11732282EA0167601739000000015000
B0526013208920S11732283EA0169501762000000015000
B0526053208860S11732242EA0171201781000000015000
B0526093208831S11732173EA0172701792000000015000
B0526133208837S11732099EA0173501798000000015000
B0526173208871S11732036EA0174001802000000015000
B0526213208925S11732003EA0174501807000000015000
B0526253208985S11732003EA0175401816000000015000
B0526293209037S11732043EA0176301827000000000000
B0526333209061S11732112EA0177401835000000000000
B0526373209044S11732191EA0178401849000000000000
B0526413208994S11732255EA0179501865000000015000
B0526453208927S11732281EA0180501868000000015000
B0526493208855S11732253EA0180801876000000015000
B0526533208798S11732199EA0182101893000000015000
B0526573208781S11732125EA0183801908000000015000
B0527013208805S11732060EA0184701906000000015000
B0527053208854S11732000EA0183201885000000000000
B0527093208916S11731935EA0181901880000000000000
B0527133208979S11731867EA0182801893000000000000
