ACAM4N6
HFDTE020521
HFFXA050
HFPLTPILOT:JOHN WELSH              
HFGTYGLIDERTYPE:HORNET      
HFGIDGLIDERID:VH-GMY      
HFDTM100GPSDATUM:
HFRFWFIRMWAREVERSION:F2.6
HFRHWHARDWAREVERSION:300 Series Version 2
HFFTYFRTYPE:CAMBRIDGE AERO INSTRUMENTS, 302+
HFGPS:GARMIN,LVS-25,12,18000
HFPRSPRESSALTSENSOR:INTERSEMA, MS5534-AP, 20000
I033638FXA3941ENL4247REX
LCAMSBVER:5FWVER:F26300
C040421052719040421000102
C0000000N00000000WTAKEOFF     
C3207549S11656849EBEVAIR      
C3212499S11757332EBilbarin    
C3112149S11722799EWyalka AF   
C3207549S11656849EBEVAIR      
C0000000N00000000WLANDING     
B0414053207339S11656857EA0016300204000000000000
B0414073207339S11656857EA0016300204000000000000
B0414093207339S11656857EA0016200204000000000000
B0414113207339S11656857EA0016200204000000000000
B0414133207339S11656857EA0016300204000000000000
B0414153207339S11656857EA0016300204000000000000
B0414173207339S11656857EA0016300204000000000000
B0414193207339S11656857EA0016300204000000000000
B0414213207339S11656857EA0016300204000000000000
B0414233207339S11656857EA0016200204000000000000
B0414253207339S11656857EA0016200204000000000000
B0414273207339S11656857EA0016300204000000000000
B0414293207339S11656857EA0016300204000000000000
B0414313207341S11656857EA0016300204000000000000
B0414333207342S11656858EA0016300204000000000000
B0414343207343S11656860EA0016400204000000000000
B0414383207362S11656875EA0016300204000000000000
B0414423207394S11656901EA0016600203000000000000
B0414463207443S11656934EA0016900203000000000000
B0414503207501S11656970EA0017200209000000000000
B0414543207560S11657017EA0017600219000000000000
B0414583207620S11657069EA0018200221000000000000
B0415023207681S11657127EA0019400224000000000000
B0415063207737S11657181EA0021900230000000000000
B0415103207785S11657229EA0023900240000000000000
B0415143207835S11657280EA0025800251000000000000
B0415183207869S11657322EA0027600252000000000000
B0415223207910S11657373EA0028800243000000015000
B0415263207973S11657421EA0029900251000000000000
B0415303208043S11657455EA0031000263000000000000
B0415343208114S11657472EA0032800281000000000000
B0415383208182S11657482EA0035000303000000000000
B0415423208248S11657493EA0037400325000000000000
B0415463208313S11657508EA0039400347000000000000
B0415503208381S11657527EA0041000357000000000000
B0415543208443S11657564EA0042100371000000000000
B0415583208493S11657624EA0043700390000000000000
B0416023208521S11657698EA0045300408000000000000
B0416063208530S11657780EA0046400421000000000000
B0416103208522S11657862EA0047700436000000000000
B0416143208496S11657940EA0049200452000000000000
B0416183208450S11658005EA0051100470000000000000
B0416223208382S11658049EA0052500468000000000000
B0416263208307S11658066EA0053500479000000000000
B0416303208233S11658062EA0055300503000000000000
B0416343208160S11658043EA0057300522000000000000
B0416383208095S11658006EA0059000539000000000000
B0416423208038S11657950EA0060200550000000000000
B0416463208004S11657865EA0061100557000000000000
B0416503207999S11657770EA0062100567000000000000
B0416543208022S11657684EA0063000583000000000000
B0416583208065S11657611EA0064700599000000000000
B0417023208117S11657551EA0066200619000000000000
B0417063208179S11657503EA0067800631000000000000
B0417103208251S11657473EA0068800643000000000000
B0417143208324S11657459EA0070300659000000000000
B0417183208396S11657447EA0071800674000000000000
B0417223208470S11657443EA0073000685000000000000
B0417263208543S11657454EA0073900695000000000000
B0417303208611S11657491EA0075300705000000015000
B0417343208669S11657534EA0075700704000000015000
B0417383208733S11657525EA0075200701000000015000
B0417423208771S11657465EA0074500691000000015000
B0417463208769S11657387EA0073200683000000015000
B0417503208741S11657316EA0072000675000000015000
B0417543208694S11657254EA0071200666000000015000
B0417583208642S11657198EA0070300659000000015000
B0418023208587S11657139EA0069600656000000015000
B0418063208532S11657083EA0069700660000000015000
B0418103208467S11657064EA0070500667000000015000
B0418143208422S11657112EA0071200676000000015000
B0418183208442S11657173EA0071900683000000015000
B0418223208499S11657179EA0072500690000000015000
B0418263208535S11657122EA0073200703000000015000
B0418303208524S11657055EA0074000712000000015000
B0418343208478S11657021EA0074500718000000015000
B0418383208429S11657033EA0074600716000000015000
B0418423208396S11657083EA0074200715000000015000
B0418463208390S11657151EA0074100716000000015000
B0418503208415S11657212EA0074400722000000015000
B0418543208473S11657220EA0074500729000000015000
B0418583208522S11657177EA0074200732000000015000
B0419023208532S11657101EA0074200741000000015000
B0419063208509S11657035EA0074900751000000015000
B0419103208455S11657022EA0075100755000000015000
B0419143208417S11657074EA0075100758000000015000
B0419183208418S11657146EA0074900765000000015000
B0419223208465S11657194EA0075400776000000015000
B0419263208526S11657170EA0075800782000000015000
B0419303208543S11657094EA0075500781000000015000
B0419343208506S11657027EA0075400790000000015000
B0419383208442S11657023EA0075800795000000000000
B0419423208416S11657090EA0076000803000000000000
B0419463208454S11657142EA0076900816000000000000
B0419503208507S11657120EA0078200827000000015000
B0419543208513S11657053EA0078600830000000015000
B0419583208465S11657020EA0078900835000000000000
B0420023208421S11657056EA0079200838000000000000
B0420063208434S11657118EA0079400842000000000000
B0420103208489S11657126EA0080400854000000000000
B0420143208503S11657068EA0081200860000000015000
B0420183208459S11657042EA0081400861000000000000
B0420223208421S11657086EA0081300860000000000000
B0420263208441S11657147EA0081600868000000000000
B0420303208495S11657156EA0082600875000000000000
B0420343208530S11657105EA0082500870000000015000
B0420383208515S11657043EA0082400872000000000000
B0420423208467S11657014EA0082500873000000000000
B0420463208416S11657051EA0082100868000000000000
B0420503208418S11657120EA0082300871000000000000
B0420543208474S11657122EA0082900879000000015000
B0420583208487S11657056EA0083500882000000015000
B0421023208441S11657025EA0083900888000000015000
B0421063208404S11657072EA0084000888000000000000
B0421103208433S11657130EA0084200890000000000000
B0421143208490S11657120EA0084800897000000015000
B0421183208507S11657056EA0085100897000000015000
B0421223208468S11657012EA0085300901000000000000
B0421263208417S11657036EA0085600904000000000000
B0421303208408S11657100EA0085900909000000000000
B0421343208452S11657134EA0086300910000000000000
B0421383208498S11657098EA0086100906000000000000
B0421423208495S11657030EA0085800904000000000000
B0421463208459S11656973EA0085600902000000000000
B0421503208403S11656952EA0085200893000000000000
B0421543208359S11656999EA0084300887000000000000
B0421583208378S11657066EA0084000888000000000000
B0422023208438S11657072EA0084200886000000000000
B0422063208493S11657023EA0083700884000000000000
B0422103208541S11656964EA0083300879000000000000
B0422143208586S11656899EA0082600872000000000000
B0422183208628S11656823EA0082200868000000000000
B0422223208637S11656737EA0082200869000000000000
B0422263208607S11656662EA0081600862000000000000
B0422303208548S11656615EA0080800851000000000000
B0422343208482S11656583EA0079500836000000000000
B0422383208412S11656558EA0078500829000000000000
B0422423208343S11656566EA0077700819000000000000
B0422463208277S11656597EA0076400807000000000000
B0422503208213S11656637EA0075200795000000000000
B0422543208156S11656689EA0074200788000000000000
B0422583208104S11656745EA0074400795000000000000
B0423023208047S11656791EA0075400805000000000000
B0423063207986S11656831EA0075700804000000000000
B0423103207926S11656879EA0075000792000000000000
B0423143207862S11656926EA0074000785000000000000
B0423183207797S11656975EA0073200777000000000000
B0423223207735S11657029EA0072300767000000000000
B0423263207675S11657083EA0071300756000000000000
B0423303207616S11657142EA0070300746000000000000
B0423343207559S11657202EA0069800744000000000000
B0423383207501S11657257EA0069200736000000000000
B0423423207440S11657309EA0068600727000000000000
B0423463207375S11657360EA0067700721000000000000
B0423503207304S11657400EA0067100715000000000000
B0423543207229S11657436EA0066300704000000000000
B0423583207155S11657472EA0065600701000000000000
B0424023207082S11657511EA0065500700000000000000
B0424063207011S11657554EA0065400698000000000000
B0424103206944S11657606EA0065300699000000000000
B0424143206886S11657662EA0066000708000000000000
B0424183206832S11657716EA0066700716000000000000
B0424223206786S11657777EA0067300720000000000000
B0424263206779S11657850EA0067800726000000000000
B0424303206830S11657878EA0068200725000000000000
B0424343206868S11657819EA0068400729000000000000
B0424383206839S11657749EA0068300724000000000000
B0424423206771S11657740EA0068100727000000000000
B0424463206718S11657789EA0068200726000000000000
B0424503206710S11657867EA0068600734000000000000
B0424543206754S11657906EA0069800746000000000000
B0424583206799S11657867EA0070400749000000000000
B0425023206788S11657800EA0070500747000000000000
B0425063206730S11657772EA0070100747000000000000
B0425103206667S11657792EA0070500754000000000000
B0425143206622S11657845EA0071100758000000000000
B0425183206635S11657905EA0071800767000000000000
B0425223206683S11657892EA0072200766000000000000
B0425263206687S11657823EA0072000767000000000000
B0425303206635S11657780EA0072700777000000000000
B0425343206578S11657810EA0073300780000000000000
B0425383206580S11657878EA0073400779000000000000
B0425423206632S11657901EA0073400781000000000000
B0425463206669S11657855EA0073800788000000000000
B0425503206649S11657793EA0074700797000000000000
B0425543206589S11657779EA0075300799000000000000
B0425583206548S11657828EA0075400803000000000000
B0426023206562S11657885EA0075800803000000000000
B0426063206613S11657894EA0075600801000000000000
B0426103206648S11657845EA0075900806000000000000
B0426143206622S11657785EA0076500814000000000000
B0426183206565S11657805EA0076900816000000000000
B0426223206563S11657871EA0076900814000000000000
B0426263206611S11657891EA0076900817000000000000
B0426303206649S11657848EA0077500826000000015000
B0426343206645S11657781EA0078300831000000000000
B0426383206601S11657733EA0078400830000000000000
B0426423206536S11657733EA0077800823000000000000
B0426463206485S11657787EA0077400821000000000000
B0426503206476S11657857EA0077600822000000000000
B0426543206517S11657906EA0077400820000000000000
B0426583206574S11657923EA0077600822000000000000
B0427023206604S11657867EA0078000827000000000000
B0427063206563S11657815EA0078700830000000000000
B0427103206500S11657835EA0078700833000000000000
B0427143206488S11657898EA0079500843000000000000
B0427183206531S11657932EA0079600838000000000000
B0427223206588S11657915EA0079200835000000000000
B0427263206617S11657858EA0079900847000000015000
B0427303206571S11657819EA0080900854000000015000
B0427343206523S11657863EA0080800851000000000000
B0427383206536S11657928EA0080800853000000000000
B0427423206592S11657937EA0081200859000000015000
B0427463206621S11657880EA0082200869000000015000
B0427503206582S11657829EA0083100885000000000000
B0427543206528S11657850EA0083800887000000000000
B0427583206520S11657914EA0084000891000000000000
B0428023206566S11657939EA0084500894000000000000
B0428063206600S11657891EA0085000899000000015000
B0428103206567S11657836EA0085900912000000000000
B0428143206509S11657846EA0086700918000000000000
B0428183206491S11657909EA0087000919000000000000
B0428223206526S11657954EA0087400923000000000000
B0428263206575S11657928EA0087600924000000000000
B0428303206567S11657859EA0088400936000000000000
B0428343206506S11657842EA0089500943000000000000
B0428383206467S11657891EA0090000951000000000000
B0428423206479S11657948EA0090500954000000000000
B0428463206527S11657966EA0090600955000000000000
B0428503206574S11657939EA0091000955000000000000
B0428543206584S11657868EA0091200960000000000000
B0428583206532S11657833EA0092100973000000000000
B0429023206498S11657885EA0093100982000000000000
B0429063206532S11657927EA0093700987000000000000
B0429103206572S11657892EA0094200995000000000000
B0429143206554S11657832EA0095101001000000000000
B0429183206496S11657836EA0095501008000000000000
B0429223206476S11657897EA0096001009000000000000
B0429263206518S11657930EA0096301014000000000000
B0429303206562S11657891EA0096601012000000000000
B0429343206557S11657819EA0096801017000000000000
B0429383206500S11657783EA0097101022000000000000
B0429423206442S11657810EA0097901031000000000000
B0429463206439S11657872EA0098401033000000000000
B0429503206484S11657904EA0098301034000000000000
B0429543206540S11657879EA0098301029000000000000
B0429583206569S11657806EA0098401034000000000000
B0430023206533S11657738EA0099001041000000000000
B0430063206474S11657758EA0099701047000000000000
B0430103206461S11657826EA0099801048000000000000
B0430143206504S11657867EA0100301053000000000000
B0430183206554S11657836EA0101201064000000000000
B0430223206561S11657767EA0102101072000000000000
B0430263206514S11657725EA0102701079000000000000
B0430303206462S11657753EA0102801077000000000000
B0430343206458S11657816EA0102701079000000000000
B0430383206500S11657852EA0103201086000000000000
B0430423206548S11657827EA0104201091000000000000
B0430463206544S11657757EA0104501095000000000000
B0430503206484S11657735EA0104701099000000000000
B0430543206441S11657779EA0104701095000000000000
B0430583206452S11657841EA0105001102000000000000
B0431023206498S11657855EA0105601108000000000000
B0431063206528S11657802EA0105701109000000000000
B0431103206498S11657740EA0106201115000000000000
B0431143206437S11657732EA0106701119000000000000
B0431183206402S11657785EA0106601117000000000000
B0431223206411S11657850EA0106901120000000000000
B0431263206459S11657870EA0107301127000000000000
B0431303206487S11657811EA0107601124000000000000
B0431343206429S11657772EA0107901132000000000000
B0431383206380S11657826EA0108301138000000000000
B0431423206385S11657894EA0109501152000000000000
B0431463206431S11657924EA0110501158000000000000
B0431503206483S11657900EA0110801158000000000000
B0431543206502S11657828EA0111101162000000000000
B0431583206453S11657783EA0111701174000000000000
B0432023206397S11657824EA0112601175000000000000
B0432063206400S11657897EA0112701181000000000000
B0432103206452S11657923EA0113701194000000000000
B0432143206498S11657887EA0114101192000000015000
B0432183206509S11657814EA0114201196000000000000
B0432223206476S11657755EA0115201207000000000000
B0432263206419S11657776EA0115901213000000000000
B0432303206413S11657844EA0116501217000000000000
B0432343206462S11657865EA0117101225000000000000
B0432383206493S11657810EA0117701231000000000000
B0432423206463S11657754EA0118601240000000000000
B0432463206405S11657755EA0119001247000000000000
B0432503206367S11657806EA0119901256000000000000
B0432543206377S11657863EA0120601262000000000000
B0432583206423S11657879EA0120901262000000000000
B0433023206467S11657842EA0120901260000000000000
B0433063206478S11657774EA0120801263000000000000
B0433103206442S11657715EA0121201265000000000000
B0433143206379S11657724EA0121201266000000000000
B0433183206358S11657796EA0121601271000000000000
B0433223206394S11657852EA0121901275000000000000
B0433263206453S11657837EA0122401278000000000000
B0433303206468S11657767EA0122601280000000015000
B0433343206416S11657719EA0122701279000000000000
B0433383206350S11657737EA0122901284000000000000
B0433423206320S11657807EA0123401287000000000000
B0433463206350S11657867EA0124001295000000000000
B0433503206407S11657867EA0124301294000000000000
B0433543206448S11657813EA0124201296000000015000
B0433583206445S11657741EA0124601302000000015000
B0434023206398S11657692EA0125001303000000000000
B0434063206333S11657689EA0124901302000000000000
B0434103206270S11657719EA0125201307000000000000
B0434143206238S11657785EA0125901316000000000000
B0434183206267S11657839EA0126501317000000000000
B0434223206325S11657831EA0126101311000000000000
B0434263206353S11657766EA0126501319000000015000
B0434303206325S11657698EA0126601317000000000000
B0434343206272S11657642EA0126401318000000000000
B0434383206210S11657595EA0127001323000000000000
B0434423206142S11657614EA0127501331000000000000
B0434463206127S11657683EA0127901331000000000000
B0434503206175S11657725EA0127401325000000000000
B0434543206231S11657692EA0127401328000000000000
B0434583206238S11657611EA0128201338000000000000
B0435023206206S11657537EA0129301346000000000000
B0435063206142S11657508EA0129601346000000000000
B0435103206085S11657542EA0129201340000000000000
B0435143206081S11657610EA0128901344000000000000
B0435183206107S11657672EA0129001339000000000000
B0435223206142S11657728EA0128801339000000000000
B0435263206198S11657744EA0128901340000000000000
B0435303206251S11657710EA0129201345000000000000
B0435343206255S11657637EA0130001354000000000000
B0435383206197S11657616EA0130901362000000000000
B0435423206167S11657679EA0131101365000000000000
B0435463206206S11657725EA0132101375000000000000
B0435503206258S11657696EA0132901379000000000000
B0435543206259S11657623EA0133001383000000015000
B0435583206205S11657579EA0133501387000000000000
B0436023206138S11657590EA0133901393000000000000
B0436063206099S11657645EA0134501403000000000000
B0436103206114S11657709EA0135101402000000000000
B0436143206167S11657715EA0135501411000000000000
B0436183206193S11657658EA0136501419000000015000
B0436223206159S11657598EA0137201427000000000000
B0436263206097S11657592EA0137601429000000000000
B0436303206054S11657644EA0137901434000000000000
B0436343206056S11657712EA0138201436000000000000
B0436383206102S11657738EA0138501439000000000000
B0436423206145S11657698EA0138701441000000000000
B0436463206140S11657627EA0139601448000000015000
B0436503206078S11657599EA0139701451000000000000
B0436543206025S11657644EA0140301458000000000000
B0436583206017S11657714EA0140701460000000000000
B0437023206055S11657763EA0140501457000000000000
B0437063206114S11657766EA0140501461000000000000
B0437103206159S11657722EA0141501470000000015000
B0437143206164S11657653EA0142401480000000015000
B0437183206127S11657601EA0143101487000000000000
B0437223206068S11657607EA0143601490000000000000
B0437263206046S11657671EA0143401485000000000000
B0437303206072S11657740EA0142801481000000000000
B0437343206117S11657796EA0143701495000000000000
B0437383206175S11657780EA0144401496000000000000
B0437423206188S11657709EA0143901483000000015000
B0437463206132S11657660EA0143001481000000000000
B0437503206069S11657690EA0143201485000000000000
B0437543206055S11657766EA0143701495000000000000
B0437583206058S11657844EA0144401499000000000000
B0438023206076S11657919EA0144701498000000000000
B0438063206137S11657937EA0144801505000000000000
B0438103206172S11657881EA0145001503000000000000
B0438143206143S11657814EA0144301496000000000000
B0438183206082S11657787EA0144101496000000000000
B0438223206021S11657813EA0144101497000000000000
B0438263205978S11657871EA0144601505000000000000
B0438303205960S11657944EA0144701497000000000000
B0438343205974S11658024EA0144101496000000000000
B0438383206007S11658096EA0144201498000000000000
B0438423206047S11658164EA0144401500000000000000
B0438463206085S11658235EA0144501500000000000000
B0438503206127S11658305EA0145601512000000000000
B0438543206190S11658300EA0147001532000000000000
B0438583206186S11658226EA0148801552000000000000
B0439023206127S11658222EA0150401566000000000000
B0439063206106S11658282EA0151601574000000000000
B0439103206141S11658334EA0152601585000000000000
B0439143206198S11658321EA0154101602000000000000
B0439183206215S11658255EA0156001621000000000000
B0439223206171S11658210EA0157401633000000000000
B0439263206116S11658236EA0158301641000000000000
B0439303206111S11658303EA0159401655000000000000
B0439343206158S11658335EA0161201673000000000000
B0439383206206S11658303EA0162201681000000015000
B0439423206202S11658230EA0163101691000000015000
B0439463206147S11658195EA0164401708000000000000
B0439503206094S11658226EA0165701714000000000000
B0439543206084S11658296EA0166201723000000000000
B0439583206129S11658343EA0167701739000000000000
B0440043206210S11658291EA0169001751000000015000
B0440083206201S11658212EA0170401763000000015000
B0440123206138S11658175EA0171501774000000000000
B0440163206075S11658209EA0172101780000000000000
B0440203206055S11658283EA0173301798000000000000
B0440243206090S11658339EA0175301817000000000000
B0440283206151S11658336EA0176901828000000000000
B0440323206181S11658271EA0178101840000000015000
B0440363206142S11658214EA0179301852000000000000
B0440403206082S11658229EA0180501863000000000000
B0440443206072S11658292EA0182201884000000000000
B0440483206119S11658322EA0184001898000000000000
B0440523206167S11658287EA0184801905000000015000
B0440563206171S11658219EA0185701915000000015000
B0441003206120S11658177EA0186301922000000000000
B0441043206064S11658201EA0187401937000000000000
B0441083206056S11658261EA0189001955000000000000
B0441123206097S11658296EA0191001972000000000000
B0441163206146S11658273EA0191801976000000015000
B0441203206162S11658208EA0192401984000000015000
B0441243206132S11658149EA0193101992000000000000
B0441283206073S11658136EA0193601997000000000000
B0441323206028S11658174EA0194002003000000000000
B0441363206021S11658239EA0195002014000000000000
B0441403206065S11658275EA0196202020000000000000
B0441443206117S11658244EA0196702027000000015000
B0441483206121S11658173EA0197802035000000015000
B0441523206073S11658126EA0198402041000000000000
B0441563206011S11658138EA0199502055000000000000
B0442003205976S11658192EA0200602065000000000000
B0442043205995S11658248EA0202202081000000000000
B0442083206047S11658256EA0202402077000000000000
B0442123206089S11658205EA0202202080000000015000
B0442163206073S11658135EA0202702087000000000000
B0442203206012S11658115EA0203202091000000000000
B0442243205968S11658161EA0204302106000000000000
B0442283205974S11658223EA0205502113000000000000
B0442323206025S11658258EA0205302107000000000000
B0442363206093S11658268EA0204602097000000000000
B0442403206166S11658261EA0203602088000000000000
B0442443206238S11658245EA0203602091000000000000
B0442483206310S11658230EA0203602086000000000000
B0442523206384S11658221EA0202602070000000000000
B0442563206455S11658190EA0201202064000000000000
B0443003206517S11658139EA0201202067000000000000
B0443043206570S11658082EA0200802058000000000000
B0443083206618S11658017EA0200002053000000000000
B0443123206658S11657948EA0199902054000000000000
B0443163206696S11657878EA0199502047000000000000
B0443203206731S11657803EA0198802040000000000000
B0443243206760S11657724EA0198102033000000000000
B0443283206782S11657641EA0197502028000000000000
B0443323206803S11657556EA0196902022000000000000
B0443363206822S11657471EA0196302017000000000000
B0443403206839S11657389EA0195902015000000000000
B0443443206856S11657309EA0195802012000000000000
B0443483206878S11657231EA0195202007000000000000
B0443523206905S11657159EA0195002005000000000000
B0443563206940S11657091EA0194502000000000000000
B0444003206990S11657036EA0193901992000000000000
B0444043207055S11657007EA0193301986000000000000
B0444083207126S11656996EA0192901982000000000000
B0444123207198S11656991EA0192801978000000000000
B0444163207271S11656992EA0192501973000000000000
B0444203207345S11656994EA0191901965000000000000
B0444243207421S11656999EA0191101956000000000000
B0444283207499S11657008EA0190001946000000000000
B0444323207581S11657016EA0188901934000000000000
B0444363207663S11657020EA0188301929000000000000
B0444403207745S11657023EA0188101925000000000000
B0444443207827S11657031EA0187401919000000000000
B0444483207909S11657042EA0186801912000000000000
B0444523207989S11657052EA0186701912000000000000
B0444563208069S11657062EA0186201905000000000000
B0445003208149S11657072EA0185201896000000000000
B0445043208230S11657081EA0184601892000000000000
B0445083208309S11657088EA0184201882000000000000
B0445123208391S11657096EA0183301877000000000000
B0445163208472S11657104EA0182901872000000000000
B0445203208554S11657112EA0182401865000000000000
B0445243208634S11657120EA0181701859000000000000
B0445283208715S11657127EA0180901852000000000000
B0445323208794S11657138EA0180101843000000000000
B0445363208875S11657150EA0179201835000000000000
B0445403208953S11657161EA0179001836000000000000
B0445443209026S11657170EA0178801833000000000000
B0445483209097S11657178EA0178401827000000000000
B0445523209169S11657191EA0177601817000000000000
B0445563209241S11657204EA0176301804000000000000
B0446003209317S11657217EA0175301795000000000000
B0446043209392S11657234EA0174301787000000000000
B0446083209466S11657248EA0173701780000000000000
B0446123209539S11657261EA0173401776000000000000
B0446163209613S11657273EA0172801771000000000000
B0446203209689S11657286EA0172001762000000000000
B0446243209767S11657303EA0171101755000000000000
B0446283209845S11657321EA0170301745000000000000
B0446323209923S11657343EA0169601739000000000000
B0446363210001S11657365EA0168701730000000000000
B0446403210077S11657390EA0168301727000000000000
B0446443210154S11657417EA0167801721000000000000
B0446483210231S11657447EA0167401717000000000000
B0446523210305S11657480EA0166501706000000000000
B0446563210376S11657516EA0165401697000000000000
B0447003210445S11657556EA0165301703000000000000
B0447043210510S11657593EA0167301721000000000000
B0447083210574S11657579EA0169601747000000000000
B0447123210579S11657502EA0172201773000000000000
B0447163210519S11657471EA0173501782000000000000
B0447203210472S11657515EA0174101794000000000000
B0447243210471S11657581EA0174901799000000015000
B0447283210518S11657616EA0175901812000000015000
B0447323210562S11657573EA0177701837000000015000
B0447363210547S11657501EA0179901854000000015000
B0447403210485S11657469EA0181001860000000015000
B0447443210435S11657508EA0181801871000000015000
B0447483210435S11657571EA0182701881000000015000
B0447523210475S11657598EA0183901892000000015000
B0447563210514S11657551EA0184501895000000015000
B0448003210482S11657476EA0185501910000000015000
B0448043210411S11657471EA0187101924000000015000
B0448083210376S11657529EA0187601926000000015000
B0448123210400S11657585EA0187301927000000015000
B0448163210449S11657601EA0188001935000000015000
B0448203210500S11657569EA0188401936000000015000
B0448243210504S11657489EA0189301950000000015000
B0448283210439S11657472EA0190501962000000015000
B0448323210415S11657536EA0191201970000000015000
B0448363210452S11657584EA0192201977000000015000
B0448403210508S11657568EA0193101987000000015000
B0448443210532S11657499EA0194001991000000015000
B0448483210492S11657432EA0194101992000000015000
B0448523210422S11657437EA0194201997000000015000
B0448563210388S11657497EA0195102013000000015000
B0449003210405S11657550EA0196402018000000015000
B0449043210456S11657572EA0196202014000000015000
B0449083210517S11657581EA0195902011000000000000
B0449123210583S11657586EA0195502005000000000000
B0449163210652S11657597EA0195602014000000000000
B0449203210717S11657618EA0197202032000000000000
B0449243210773S11657646EA0198502043000000000000
B0449283210827S11657684EA0198602040000000000000
B0449323210886S11657723EA0198702040000000000000
B0449363210948S11657766EA0197902030000000000000
B0449403211012S11657811EA0196902016000000000000
B0449443211080S11657862EA0195202000000000000000
B0449483211147S11657920EA0194401991000000000000
B0449523211221S11657967EA0193701983000000000000
B0449563211301S11657996EA0193101982000000000000
B0450003211380S11658015EA0193101982000000000000
B0450043211459S11658035EA0192901976000000000000
B0450083211538S11658054EA0192301972000000000000
B0450123211619S11658073EA0192001969000000000000
B0450163211697S11658089EA0191701966000000000000
B0450203211775S11658104EA0191401964000000000000
B0450243211850S11658121EA0191201963000000000000
B0450283211925S11658136EA0190901959000000000000
B0450323212000S11658153EA0190501956000000000000
B0450363212074S11658173EA0190201953000000000000
B0450403212148S11658192EA0189501939000000000000
B0450443212224S11658213EA0188201928000000000000
B0450483212299S11658234EA0187101917000000000000
B0450523212373S11658253EA0185801904000000000000
B0450563212448S11658273EA0184801897000000000000
B0451003212524S11658290EA0184301890000000000000
B0451043212601S11658305EA0183501881000000000000
B0451083212679S11658321EA0182101865000000000000
B0451123212758S11658338EA0181201859000000000000
B0451163212835S11658352EA0181001856000000000000
B0451203212913S11658356EA0180601854000000000000
B0451243212989S11658356EA0179701843000000000000
B0451283213070S11658360EA0178501830000000000000
B0451323213150S11658372EA0178001827000000000000
B0451363213231S11658387EA0178101828000000000000
B0451403213308S11658404EA0178301831000000000000
B0451443213386S11658414EA0178201830000000000000
B0451483213464S11658429EA0178501836000000000000
B0451523213539S11658444EA0178401829000000000000
B0451563213616S11658463EA0177501821000000000000
B0452003213691S11658485EA0176301808000000000000
B0452043213769S11658507EA0175101796000000000000
B0452083213846S11658529EA0174401791000000000000
B0452123213921S11658551EA0174001787000000000000
B0452163213994S11658574EA0173801784000000000000
B0452203214067S11658598EA0173101774000000000000
B0452243214140S11658622EA0172101765000000000000
B0452283214213S11658646EA0171501757000000000000
B0452323214288S11658664EA0170601751000000000000
B0452363214362S11658682EA0170201746000000000000
B0452403214437S11658700EA0169701741000000000000
B0452443214513S11658719EA0169701747000000000000
B0452483214582S11658747EA0170701759000000000000
B0452523214644S11658782EA0171201763000000000000
B0452563214705S11658819EA0171301760000000000000
B0453003214769S11658853EA0170901756000000000000
B0453043214837S11658849EA0171601768000000000000
B0453083214853S11658776EA0172901786000000000000
B0453123214801S11658739EA0174601803000000000000
B0453163214756S11658780EA0175301801000000000000
B0453203214766S11658846EA0174701795000000000000
B0453243214821S11658875EA0174601800000000000000
B0453283214878S11658850EA0175301805000000015000
B0453323214917S11658790EA0176001812000000015000
B0453363214908S11658719EA0176701820000000015000
B0453403214848S11658702EA0177501829000000015000
B0453443214824S11658758EA0178401835000000015000
B0453483214869S11658799EA0178401836000000015000
B0453523214920S11658758EA0179201841000000015000
B0453563214896S11658681EA0179201842000000015000
B0454003214827S11658669EA0179601851000000015000
B0454043214791S11658730EA0180301859000000015000
B0454083214813S11658798EA0181101864000000015000
B0454123214872S11658825EA0181401866000000015000
B0454163214931S11658802EA0181601865000000015000
B0454203214986S11658755EA0181801872000000015000
B0454243215046S11658716EA0182601882000000000000
B0454283215111S11658689EA0182601878000000000000
B0454323215178S11658677EA0182701881000000000000
B0454363215249S11658676EA0182401873000000000000
B0454403215320S11658681EA0181701864000000000000
B0454443215390S11658693EA0180601850000000000000
B0454483215462S11658704EA0179701845000000000000
B0454523215529S11658716EA0179301841000000000000
B0454563215598S11658733EA0178401829000000000000
B0455003215671S11658752EA0177301820000000000000
B0455043215745S11658771EA0176901816000000000000
B0455083215818S11658788EA0176501813000000000000
B0455123215891S11658801EA0176001805000000000000
B0455163215966S11658816EA0175101797000000000000
B0455203216042S11658832EA0174601793000000000000
B0455243216118S11658847EA0173801781000000000000
B0455283216195S11658863EA0173001775000000000000
B0455323216268S11658876EA0172801777000000000000
B0455363216338S11658892EA0172801775000000000000
B0455403216408S11658903EA0172401771000000000000
B0455443216480S11658916EA0171801764000000000000
B0455483216550S11658928EA0171601764000000000000
B0455523216621S11658944EA0171401760000000000000
B0455563216694S11658959EA0170801753000000000000
B0456003216770S11658976EA0170201747000000000000
B0456043216845S11658990EA0170001745000000000000
B0456083216922S11659006EA0169901745000000000000
B0456123216997S11659022EA0169501741000000000000
B0456163217074S11659033EA0170701757000000000000
B0456203217139S11659014EA0172901777000000000000
B0456243217140S11658940EA0174301793000000000000
B0456283217075S11658927EA0175401803000000000000
B0456323217047S11658990EA0176001815000000000000
B0456363217084S11659037EA0177101825000000015000
B0456403217139S11659015EA0177901830000000015000
B0456443217147S11658940EA0178201834000000015000
B0456483217095S11658889EA0178901847000000015000
B0456523217031S11658907EA0180301858000000015000
B0456563217008S11658973EA0180601861000000015000
B0457003217043S11659020EA0181601872000000015000
B0457043217097S11659015EA0182401877000000015000
B0457083217138S11658963EA0182501877000000015000
B0457123217139S11658885EA0182501879000000015000
B0457163217091S11658832EA0183301890000000015000
B0457203217034S11658863EA0183801892000000015000
B0457243217032S11658933EA0184001899000000015000
B0457283217079S11658957EA0185201910000000015000
B0457323217123S11658918EA0185401906000000015000
B0457363217126S11658842EA0185001906000000015000
B0457403217088S11658775EA0185401911000000015000
B0457443217026S11658745EA0185901915000000015000
B0457483216966S11658768EA0185801910000000015000
B0457523216941S11658830EA0185501910000000015000
B0457563216959S11658890EA0185701914000000015000
B0458003217009S11658923EA0186001912000000015000
B0458043217070S11658938EA0185901912000000000000
B0458083217134S11658950EA0186001910000000000000
B0458123217204S11658957EA0185601906000000000000
B0458163217277S11658963EA0185101900000000000000
B0458203217349S11658973EA0184301892000000000000
B0458243217422S11658986EA0183601882000000000000
B0458283217495S11659003EA0182801876000000000000
B0458323217568S11659019EA0182401869000000000000
B0458363217642S11659036EA0181601862000000000000
B0458403217717S11659054EA0180901853000000000000
B0458443217794S11659075EA0179901843000000000000
B0458483217871S11659098EA0179201836000000000000
B0458523217947S11659120EA0178501831000000000000
B0458563218025S11659142EA0178101826000000000000
B0459003218102S11659163EA0177601822000000000000
B0459043218180S11659183EA0177101815000000000000
B0459083218258S11659205EA0176501810000000000000
B0459123218335S11659227EA0176101808000000000000
B0459163218412S11659249EA0175701804000000000000
B0459203218490S11659266EA0175201799000000000000
B0459243218565S11659279EA0174901796000000000000
B0459283218640S11659288EA0174501791000000000000
B0459323218717S11659298EA0173801784000000000000
B0459363218794S11659306EA0173301779000000000000
B0459403218869S11659313EA0172801771000000000000
B0459443218946S11659321EA0172101765000000000000
B0459483219021S11659327EA0171501761000000000000
B0459523219095S11659332EA0171001755000000000000
B0459563219171S11659336EA0170201747000000000000
B0500003219245S11659343EA0169501740000000000000
B0500043219320S11659349EA0168901733000000000000
B0500083219396S11659356EA0167901725000000000000
B0500123219474S11659361EA0167401718000000000000
B0500163219550S11659366EA0167001717000000000000
B0500203219626S11659370EA0166801714000000000000
B0500243219700S11659375EA0166101706000000000000
B0500283219774S11659378EA0165201697000000000000
B0500323219849S11659383EA0164401688000000000000
B0500363219925S11659391EA0163801683000000000000
B0500403220000S11659399EA0163101676000000000000
B0500443220076S11659408EA0162301666000000000000
B0500483220154S11659418EA0161101652000000000000
B0500523220232S11659428EA0160301646000000000000
B0500563220310S11659436EA0159201633000000000000
B0501003220386S11659443EA0158201626000000000000
B0501043220463S11659448EA0158201629000000000000
B0501083220537S11659452EA0158001624000000000000
B0501123220615S11659456EA0157401619000000000000
B0501163220693S11659458EA0157601625000000000000
B0501203220770S11659461EA0158501638000000000000
B0501243220844S11659466EA0159601646000000000000
B0501283220908S11659435EA0160201649000000000000
B0501323220922S11659354EA0160101647000000000000
B0501363220880S11659282EA0160001648000000000000
B0501403220807S11659280EA0160501652000000015000
B0501443220779S11659350EA0160801656000000015000
B0501483220814S11659409EA0161001654000000015000
B0501523220882S11659415EA0160101642000000015000
B0501563220953S11659400EA0159601640000000015000
B0502003221025S11659369EA0159001634000000015000
B0502043221096S11659330EA0159301640000000015000
B0502083221165S11659287EA0159701641000000000000
B0502123221235S11659240EA0159001633000000000000
B0502163221308S11659193EA0158401632000000000000
B0502203221383S11659146EA0158201629000000000000
B0502243221457S11659094EA0158201629000000000000
B0502283221528S11659041EA0158101628000000000000
B0502323221595S11658984EA0157701623000000000000
B0502363221660S11658924EA0156901615000000000000
B0502403221721S11658859EA0156201605000000000000
B0502443221779S11658785EA0155401599000000000000
B0502483221824S11658708EA0155401604000000000000
B0502523221866S11658634EA0156401617000000000000
B0502563221910S11658572EA0157901632000000000000
B0503003221928S11658498EA0159001636000000000000
B0503043221872S11658455EA0159401643000000000000
B0503083221820S11658496EA0159801649000000000000
B0503123221832S11658563EA0160501658000000000000
B0503163221886S11658593EA0161501665000000000000
B0503203221933S11658554EA0162001670000000015000
B0503243221924S11658479EA0162301671000000015000
B0503283221866S11658456EA0162601678000000015000
B0503323221823S11658504EA0163001680000000015000
B0503363221842S11658570EA0163501688000000015000
B0503403221902S11658587EA0163701691000000015000
B0503443221953S11658538EA0164201692000000015000
B0503483221942S11658457EA0164401695000000015000
B0503523221879S11658431EA0165301708000000015000
B0503563221847S11658487EA0166101718000000015000
B0504003221881S11658544EA0166701719000000015000
B0504043221946S11658556EA0166901722000000015000
B0504083221971S11658486EA0167501731000000015000
B0504123221915S11658439EA0168401745000000015000
B0504163221863S11658473EA0169901759000000015000
B0504203221866S11658541EA0170801766000000015000
B0504243221916S11658568EA0171401774000000015000
B0504283221964S11658531EA0172501781000000015000
B0504323221970S11658459EA0173101783000000015000
B0504363221916S11658411EA0173301786000000015000
B0504403221859S11658438EA0174301801000000015000
B0504443221849S11658503EA0175401809000000015000
B0504483221880S11658556EA0175801814000000015000
B0504523221931S11658578EA0176601822000000015000
B0504563221977S11658548EA0177301826000000015000
B0505003221984S11658482EA0177301821000000015000
B0505043221932S11658431EA0176901821000000015000
B0505083221870S11658448EA0177601833000000015000
B0505123221851S11658512EA0178501839000000015000
B0505163221889S11658564EA0178501838000000015000
B0505203221953S11658576EA0178501840000000015000
B0505243222018S11658568EA0178401835000000015000
B0505283222089S11658559EA0177501819000000000000
B0505323222166S11658561EA0176201804000000000000
B0505363222248S11658576EA0175101796000000000000
B0505403222330S11658596EA0174501790000000000000
B0505443222413S11658622EA0174001787000000000000
B0505483222494S11658652EA0174601795000000000000
B0505523222574S11658682EA0175201803000000000000
B0505563222653S11658711EA0176001808000000000000
B0506003222733S11658736EA0175001793000000000000
B0506043222816S11658762EA0174101784000000000000
B0506083222900S11658790EA0172801768000000000000
B0506123222988S11658820EA0171301755000000000000
B0506163223075S11658853EA0170201745000000000000
B0506203223162S11658884EA0169301737000000000000
B0506243223249S11658914EA0168801733000000000000
B0506283223335S11658944EA0168401729000000000000
B0506323223419S11658970EA0169301743000000000000
B0506363223500S11658996EA0169301736000000000000
B0506403223583S11659022EA0168301723000000000000
B0506443223665S11659054EA0167701718000000000000
B0506483223747S11659088EA0167001712000000000000
B0506523223827S11659120EA0166701713000000000000
B0506563223905S11659155EA0166901714000000000000
B0507003223977S11659196EA0167801728000000000000
B0507043224043S11659235EA0168601731000000000000
B0507083224111S11659272EA0168101722000000000000
B0507123224180S11659308EA0168301730000000000000
B0507163224250S11659340EA0167801716000000000000
B0507203224325S11659373EA0166801708000000000000
B0507243224402S11659404EA0166901710000000000000
B0507283224479S11659436EA0166301701000000000000
B0507323224558S11659470EA0165201692000000000000
B0507363224641S11659500EA0164401684000000000000
B0507403224726S11659529EA0163501674000000000000
B0507443224810S11659558EA0162701666000000000000
B0507483224896S11659588EA0161801657000000000000
B0507523224982S11659622EA0161001649000000000000
B0507563225068S11659656EA0160801648000000000000
B0508003225152S11659692EA0160401643000000000000
B0508043225235S11659730EA0159801636000000000000
B0508083225318S11659765EA0158901629000000000000
B0508123225403S11659802EA0158401623000000000000
B0508163225484S11659837EA0158301628000000000000
B0508203225559S11659869EA0158601627000000000000
B0508243225632S11659904EA0158101621000000000000
B0508283225703S11659938EA0157401617000000000000
B0508323225775S11659976EA0156701602000000000000
B0508363225846S11700012EA0155601596000000000000
B0508403225918S11700049EA0154501582000000000000
B0508443225989S11700090EA0153401574000000000000
B0508483226059S11700130EA0152701568000000000000
B0508523226130S11700168EA0151801556000000000000
B0508563226200S11700207EA0151101551000000000000
B0509003226271S11700244EA0150201540000000000000
B0509043226344S11700280EA0149301535000000000000
B0509083226414S11700315EA0148701527000000000000
B0509123226486S11700349EA0147801522000000000000
B0509163226557S11700381EA0147101520000000015000
B0509203226628S11700416EA0147201519000000015000
B0509243226699S11700444EA0147401527000000015000
B0509283226765S11700474EA0147901532000000015000
B0509323226828S11700510EA0148601538000000015000
B0509363226886S11700549EA0149201541000000000000
B0509403226945S11700595EA0148401526000000000000
B0509443227006S11700644EA0147201521000000000000
B0509483227057S11700708EA0147301529000000000000
B0509523227103S11700771EA0148301541000000000000
B0509563227166S11700771EA0149001547000000030000
B0510003227183S11700695EA0149401549000000075000
B0510043227127S11700635EA0149701551000000030000
B0510083227055S11700640EA0150101555000000015000
B0510123227006S11700700EA0150401554000000015000
B0510163226992S11700780EA0150401552000000015000
B0510203227012S11700856EA0150001546000000015000
B0510243227066S11700908EA0149201540000000015000
B0510283227127S11700947EA0149201540000000015000
B0510323227190S11700981EA0149701548000000000000
B0510363227254S11701014EA0151101559000000000000
B0510403227319S11701034EA0152101567000000015000
B0510443227345S11700969EA0153701586000000015000
B0510483227288S11700923EA0154401586000000015000
B0510523227223S11700957EA0154301591000000015000
B0510563227210S11701027EA0155201601000000000000
B0511003227259S11701052EA0156401616000000015000
B0511043227289S11700999EA0157501624000000015000
B0511083227263S11700931EA0158401632000000015000
B0511123227197S11700908EA0158701637000000015000
B0511163227161S11700962EA0159601650000000015000
B0511203227181S11701020EA0160701660000000000000
B0511243227231S11701026EA0161201663000000015000
B0511283227263S11700975EA0161701671000000015000
B0511323227241S11700904EA0162201673000000015000
B0511363227179S11700882EA0162601681000000015000
B0511403227148S11700936EA0163301687000000000000
B0511443227183S11700983EA0163601687000000000000
B0511483227229S11700949EA0164001690000000015000
B0511523227207S11700875EA0164001687000000015000
B0511563227135S11700862EA0164201698000000015000
B0512003227076S11700909EA0165801714000000000000
B0512043227084S11700974EA0167201725000000000000
B0512083227135S11700961EA0167401724000000015000
B0512123227137S11700883EA0167201720000000015000
B0512163227076S11700830EA0167701731000000015000
B0512203227008S11700860EA0168801742000000015000
B0512243226997S11700934EA0169801751000000000000
B0512283227038S11700982EA0170401753000000000000
B0512323227096S11700968EA0170901760000000015000
B0512363227124S11700900EA0171101757000000015000
B0512403227090S11700823EA0171201762000000015000
B0512443227016S11700804EA0172401777000000015000
B0512483226963S11700858EA0173201781000000000000
B0512523226966S11700934EA0173801789000000000000
B0512563227011S11700972EA0174401794000000015000
B0513003227060S11700934EA0174701803000000015000
B0513043227067S11700860EA0175501801000000015000
B0513083227015S11700796EA0175501804000000015000
B0513123226940S11700804EA0176401818000000015000
B0513163226910S11700868EA0178001839000000015000
B0513203226934S11700914EA0179301845000000015000
B0513243226977S11700897EA0179401845000000015000
B0513283226982S11700831EA0178901840000000015000
B0513323226934S11700771EA0179301849000000015000
B0513363226873S11700797EA0180101858000000015000
B0513403226872S11700862EA0180801862000000000000
B0513443226916S11700905EA0180401845000000000000
B0513483226977S11700946EA0178401827000000000000
B0513523227047S11700983EA0178001827000000000000
B0513563227124S11701017EA0178001826000000000000
B0514003227202S11701035EA0177601824000000000000
B0514043227281S11701048EA0177201820000000000000
B0514083227361S11701060EA0177101819000000000000
B0514123227441S11701064EA0176901817000000000000
B0514163227521S11701061EA0176601816000000000000
B0514203227601S11701055EA0176101807000000000000
B0514243227683S11701048EA0175401802000000000000
B0514283227765S11701040EA0174701791000000000000
B0514323227850S11701030EA0173501779000000000000
B0514363227934S11701014EA0172301768000000000000
B0514403228019S11700998EA0171501760000000000000
B0514443228103S11700978EA0170701754000000000000
B0514483228188S11700959EA0170101746000000000000
B0514523228272S11700935EA0169201739000000000000
B0514563228355S11700910EA0168501732000000000000
B0515003228437S11700882EA0167801720000000000000
B0515043228522S11700857EA0166201704000000000000
B0515083228609S11700836EA0165001693000000000000
B0515123228696S11700816EA0164001686000000000000
B0515163228780S11700796EA0163201678000000000000
B0515203228866S11700780EA0162201668000000000000
B0515243228951S11700770EA0161301658000000000000
B0515283229035S11700761EA0160501649000000000000
B0515323229120S11700751EA0159701641000000000000
B0515363229204S11700741EA0158901633000000000000
B0515403229287S11700736EA0158201628000000000000
B0515443229371S11700728EA0157601621000000000000
B0515483229452S11700721EA0156901614000000000000
B0515523229534S11700715EA0156201607000000000000
B0515563229616S11700710EA0155301599000000000000
B0516003229698S11700705EA0154401592000000000000
B0516043229779S11700700EA0154001589000000000000
B0516083229857S11700692EA0153601584000000000000
B0516123229935S11700684EA0153101578000000000000
B0516163230013S11700678EA0152501573000000000000
B0516203230088S11700669EA0152101570000000000000
B0516243230164S11700663EA0151501564000000000000
B0516283230238S11700656EA0151201562000000000000
B0516323230309S11700650EA0150801557000000000000
B0516363230381S11700645EA0150401553000000000000
B0516403230450S11700644EA0150101553000000000000
B0516443230517S11700654EA0151101571000000000000
B0516483230581S11700661EA0152801582000000000000
B0516523230619S11700610EA0153801600000000000000
B0516563230589S11700552EA0155101604000000000000
B0517003230529S11700554EA0155101602000000000000
B0517043230494S11700610EA0155301607000000000000
B0517083230490S11700679EA0156101615000000000000
B0517123230529S11700723EA0157501630000000015000
B0517163230574S11700684EA0158001633000000015000
B0517203230554S11700611EA0158401641000000015000
B0517243230490S11700600EA0159101646000000015000
B0517283230453S11700654EA0159701652000000015000
B0517323230477S11700713EA0160801664000000015000
B0517363230531S11700727EA0161301662000000015000
B0517403230586S11700692EA0161001660000000015000
B0517443230607S11700619EA0161401669000000015000
B0517483230586S11700543EA0162501679000000015000
B0517523230535S11700492EA0163301687000000000000
B0517563230476S11700511EA0163801688000000000000
B0518003230461S11700576EA0163901692000000000000
B0518043230496S11700623EA0164101694000000000000
B0518083230551S11700610EA0164701703000000015000
B0518123230586S11700550EA0165301708000000015000
B0518163230555S11700487EA0166301719000000015000
B0518203230498S11700507EA0166701718000000015000
B0518243230487S11700571EA0166601720000000000000
B0518283230530S11700611EA0167001723000000000000
B0518323230589S11700593EA0167301726000000015000
B0518363230606S11700522EA0168201738000000015000
B0518403230560S11700465EA0168301733000000015000
B0518443230495S11700478EA0168101734000000015000
B0518483230472S11700541EA0168401737000000000000
B0518523230498S11700600EA0168901742000000000000
B0518563230551S11700628EA0169301742000000000000
B0519003230617S11700656EA0168101722000000000000
B0519043230691S11700688EA0167001715000000000000
B0519083230765S11700725EA0166101707000000000000
B0519123230841S11700761EA0165501700000000000000
B0519163230915S11700799EA0164401689000000000000
B0519203230989S11700838EA0163901682000000000000
B0519243231062S11700875EA0163101674000000000000
B0519283231132S11700913EA0162301668000000000000
B0519323231201S11700951EA0161701661000000000000
B0519363231270S11700988EA0161101656000000000000
B0519403231339S11701027EA0160901655000000000000
B0519443231409S11701065EA0161201661000000000000
B0519483231477S11701109EA0161901667000000000000
B0519523231547S11701138EA0162901680000000000000
B0519563231607S11701102EA0163701687000000000000
B0520003231610S11701024EA0164501698000000000000
B0520043231555S11700991EA0165501710000000000000
B0520083231504S11701037EA0166001710000000000000
B0520123231506S11701109EA0166101710000000000000
B0520163231555S11701161EA0165301697000000000000
B0520203231623S11701194EA0164101684000000000000
B0520243231701S11701209EA0163001675000000000000
B0520283231785S11701221EA0161701660000000000000
B0520323231873S11701233EA0161501662000000000000
B0520363231960S11701243EA0161601664000000000000
B0520403232047S11701254EA0161701665000000000000
B0520443232134S11701264EA0161701664000000000000
B0520483232219S11701272EA0161601663000000000000
B0520523232302S11701280EA0161001656000000000000
B0520563232389S11701287EA0160201648000000000000
B0521003232476S11701295EA0159501643000000000000
B0521043232562S11701303EA0158601631000000000000
B0521083232648S11701311EA0158101629000000000000
B0521123232732S11701316EA0158001625000000000000
B0521163232817S11701317EA0157701626000000000000
B0521203232901S11701324EA0158201631000000000000
B0521243232986S11701328EA0158501635000000000000
B0521283233068S11701325EA0158601635000000000000
B0521323233150S11701326EA0158201632000000000000
B0521363233232S11701333EA0158101629000000000000
B0521403233312S11701336EA0157401622000000000000
B0521443233395S11701337EA0156201607000000000000
B0521483233480S11701345EA0155101598000000000000
B0521523233566S11701350EA0154501594000000000000
B0521563233648S11701354EA0154301594000000000000
B0522003233727S11701359EA0153701584000000000000
B0522043233810S11701364EA0152501572000000000000
B0522083233896S11701375EA0151901569000000000000
B0522123233979S11701386EA0151501562000000000000
B0522163234064S11701398EA0151001560000000000000
B0522203234144S11701408EA0150801556000000000000
B0522243234225S11701420EA0150301551000000000000
B0522283234303S11701437EA0149601546000000000000
B0522323234376S11701454EA0149401546000000000000
B0522363234447S11701469EA0149101539000000000000
B0522403234520S11701484EA0148201529000000000000
B0522443234595S11701481EA0147701525000000000000
B0522483234676S11701467EA0147101518000000000000
B0522523234754S11701451EA0147301527000000000000
B0522563234827S11701437EA0147501523000000000000
B0523003234901S11701419EA0147101520000000000000
B0523043234971S11701386EA0147401524000000000000
B0523083235039S11701354EA0147601526000000000000
B0523123235109S11701329EA0146801517000000000000
B0523163235182S11701311EA0146101504000000000000
B0523203235256S11701299EA0144901491000000000000
B0523243235331S11701291EA0143601481000000000000
B0523283235405S11701286EA0142601470000000000000
B0523323235479S11701282EA0141301457000000000000
B0523363235555S11701282EA0139901445000000000000
B0523403235633S11701286EA0138701433000000000000
B0523443235709S11701297EA0137801425000000000000
B0523483235782S11701312EA0137501424000000000000
B0523523235847S11701339EA0138901452000000000000
B0523563235900S11701369EA0141901478000000000000
B0524003235954S11701359EA0143401485000000000000
B0524043235960S11701289EA0144201499000000015000
B0524083235902S11701252EA0145101503000000015000
B0524123235841S11701281EA0145301506000000000000
B0524163235821S11701354EA0146101519000000000000
B0524203235856S11701404EA0147601536000000000000
B0524243235906S11701377EA0149201548000000015000
B0524283235897S11701306EA0150201556000000015000
B0524323235834S11701276EA0150801560000000015000
B0524363235781S11701324EA0151201568000000015000
B0524403235790S11701395EA0152501581000000015000
B0524443235839S11701417EA0154001594000000015000
B0524483235877S11701364EA0154601597000000015000
B0524523235858S11701286EA0155101607000000015000
B0524563235793S11701255EA0156101618000000015000
B0525003235731S11701287EA0156901626000000015000
B0525043235712S11701360EA0158301641000000015000
B0525083235746S11701407EA0159701653000000015000
B0525123235795S11701378EA0160301653000000015000
B0525163235790S11701300EA0161001666000000015000
B0525203235734S11701260EA0162301681000000015000
B0525243235682S11701299EA0163301693000000015000
B0525283235686S11701365EA0164601701000000015000
B0525323235729S11701391EA0165801714000000015000
B0525363235768S11701358EA0166501711000000015000
B0525403235754S11701282EA0166501721000000015000
B0525443235691S11701256EA0167701736000000015000
B0525483235642S11701298EA0169001749000000015000
B0525523235640S11701364EA0170101757000000015000
B0525563235681S11701407EA0170801762000000015000
B0526003235731S11701391EA0171701774000000015000
B0526043235743S11701326EA0172601781000000015000
B0526083235702S11701271EA0173801798000000015000
B0526123235639S11701278EA0175001806000000015000
B0526163235613S11701339EA0175701811000000015000
B0526203235646S11701390EA0176101814000000015000
B0526243235703S11701412EA0175601806000000015000
B0526283235769S11701428EA0175301806000000000000
B0526323235838S11701443EA0175801811000000000000
B0526363235911S11701458EA0176001813000000000000
B0526403235985S11701473EA0176401818000000000000
B0526443236058S11701490EA0177101825000000000000
B0526483236132S11701510EA0177101820000000000000
B0526523236210S11701524EA0176901820000000000000
B0526563236290S11701538EA0177001820000000000000
B0527003236375S11701551EA0175901804000000000000
B0527043236466S11701567EA0174901796000000000000
B0527083236560S11701585EA0174201790000000000000
B0527123236652S11701606EA0174001784000000000000
B0527163236745S11701632EA0173301773000000000000
B0527203236840S11701654EA0172001762000000000000
B0527243236934S11701676EA0170801752000000000000
B0527283237025S11701698EA0170201745000000000000
B0527323237115S11701718EA0169801743000000000000
B0527363237204S11701740EA0169201737000000000000
B0527403237291S11701765EA0168501728000000000000
B0527443237379S11701792EA0167401717000000000000
B0527483237466S11701818EA0167101720000000000000
B0527523237549S11701841EA0167501718000000000000
B0527563237632S11701865EA0167101715000000000000
B0528003237713S11701887EA0166901714000000000000
B0528043237793S11701905EA0167101721000000000000
B0528083237873S11701915EA0167601726000000000000
B0528123237952S11701930EA0167001715000000000000
B0528163238030S11701953EA0166001706000000000000
B0528203238107S11701980EA0166201714000000000000
B0528243238179S11702006EA0167701729000000000000
B0528283238246S11702036EA0168201734000000000000
B0528323238309S11702070EA0169201747000000000000
B0528363238373S11702104EA0170101752000000000000
B0528403238438S11702142EA0171301768000000000000
B0528443238494S11702112EA0173401789000000000000
B0528483238478S11702040EA0174501793000000000000
B0528523238411S11702036EA0174701796000000000000
B0528563238380S11702103EA0175701814000000000000
B0529003238404S11702166EA0177901836000000000000
B0529043238459S11702177EA0179601849000000015000
B0529083238494S11702119EA0180101855000000015000
B0529123238473S11702047EA0180701859000000015000
B0529163238408S11702027EA0180801863000000015000
B0529203238359S11702073EA0181801882000000015000
B0529243238357S11702138EA0183901900000000015000
B0529283238399S11702179EA0185201906000000015000
B0529323238455S11702158EA0186001913000000015000
B0529363238468S11702084EA0186601919000000015000
B0529403238424S11702028EA0186901923000000015000
B0529443238359S11702036EA0187101927000000015000
B0529483238325S11702097EA0188401945000000015000
B0529523238341S11702162EA0189601954000000015000
B0529563238395S11702197EA0190001952000000000000
B0530003238467S11702216EA0189501943000000000000
B0530043238547S11702242EA0189201939000000000000
B0530083238625S11702278EA0188901936000000000000
B0530123238707S11702318EA0187401912000000000000
B0530163238799S11702350EA0186201905000000000000
B0530203238897S11702368EA0185401894000000000000
B0530243238996S11702379EA0183801879000000000000
B0530283239095S11702391EA0182901874000000000000
B0530323239191S11702396EA0182601870000000000000
B0530363239286S11702407EA0181801860000000000000
B0530403239378S11702422EA0181001855000000000000
B0530443239468S11702438EA0180501850000000000000
B0530483239556S11702457EA0179501836000000000000
B0530523239644S11702476EA0178401829000000000000
B0530563239729S11702491EA0178201829000000000000
B0531003239812S11702507EA0177601822000000000000
B0531043239895S11702522EA0177001815000000000000
B0531083239979S11702539EA0176301808000000000000
B0531123240060S11702556EA0175801803000000000000
B0531163240141S11702573EA0175301798000000000000
B0531203240220S11702593EA0174401785000000000000
B0531243240300S11702612EA0173001771000000000000
B0531283240379S11702634EA0171701762000000000000
B0531323240458S11702655EA0170401747000000000000
B0531363240539S11702675EA0169001734000000000000
B0531403240621S11702695EA0168101721000000000000
B0531443240701S11702714EA0166801710000000000000
B0531483240781S11702730EA0166001703000000000000
B0531523240859S11702747EA0165401698000000000000
B0531563240935S11702763EA0164601689000000000000
B0532003241016S11702776EA0163701679000000000000
B0532043241097S11702790EA0163901689000000000000
B0532083241173S11702801EA0166001715000000000000
B0532123241246S11702806EA0167601727000000000000
B0532163241318S11702807EA0168101737000000000000
B0532203241386S11702816EA0169401750000000000000
B0532243241455S11702824EA0170401756000000000000
B0532283241527S11702823EA0171201762000000000000
B0532323241596S11702806EA0171301765000000000000
B0532363241666S11702802EA0171001757000000000000
B0532403241744S11702812EA0169701744000000000000
B0532443241827S11702833EA0168401731000000000000
B0532483241916S11702859EA0167701724000000000000
B0532523242004S11702886EA0167601725000000000000
B0532563242091S11702914EA0167101716000000000000
B0533003242179S11702938EA0166801717000000000000
B0533043242268S11702962EA0166901717000000000000
B0533083242354S11702987EA0166201703000000000000
B0533123242442S11703018EA0164501686000000000000
B0533163242532S11703048EA0162901670000000000000
B0533203242623S11703075EA0161301656000000000000
B0533243242714S11703102EA0160201642000000000000
B0533283242806S11703131EA0158501625000000000000
B0533323242900S11703154EA0157201613000000000000
B0533363242993S11703176EA0156701613000000000000
B0533403243082S11703196EA0156401606000000000000
B0533443243170S11703217EA0155401593000000000000
B0533483243258S11703240EA0154201585000000000000
B0533523243343S11703261EA0153801585000000000000
B0533563243425S11703283EA0153601580000000000000
B0534003243504S11703302EA0153201577000000000000
B0534043243583S11703321EA0152701570000000000000
B0534083243660S11703339EA0152101564000000000000
B0534123243736S11703358EA0152001572000000000000
B0534163243804S11703377EA0152801578000000000000
B0534203243873S11703397EA0153501586000000000000
B0534243243937S11703423EA0154701602000000000000
B0534283243999S11703412EA0156201612000000000000
B0534323243984S11703348EA0157401622000000015000
B0534363243914S11703353EA0157901629000000015000
B0534403243888S11703429EA0158201632000000015000
B0534443243918S11703492EA0158901645000000015000
B0534483243964S11703473EA0160201656000000015000
B0534523243955S11703409EA0161001662000000015000
B0534563243898S11703386EA0162201677000000015000
B0535003243846S11703426EA0162901680000000015000
B0535043243841S11703499EA0163201687000000015000
B0535083243881S11703540EA0164301697000000015000
B0535123243928S11703520EA0164101689000000015000
B0535163243957S11703452EA0162801676000000015000
B0535203244011S11703404EA0162001671000000015000
B0535243244079S11703391EA0161801668000000015000
B0535283244152S11703393EA0160701647000000000000
B0535323244230S11703400EA0159501642000000000000
B0535363244310S11703409EA0159301642000000000000
B0535403244391S11703423EA0159501642000000000000
B0535443244473S11703434EA0160301654000000000000
B0535483244551S11703434EA0161701665000000000000
B0535523244629S11703436EA0162301672000000000000
B0535563244708S11703439EA0162901679000000000000
B0536003244783S11703451EA0164301694000000000000
B0536043244856S11703457EA0164401690000000000000
B0536083244929S11703466EA0163701680000000000000
B0536123245007S11703477EA0162301664000000000000
B0536163245088S11703486EA0161301651000000000000
B0536203245171S11703496EA0160001639000000000000
B0536243245254S11703507EA0158301618000000000000
B0536283245337S11703518EA0156801612000000000000
B0536323245419S11703533EA0156201603000000000000
B0536363245502S11703549EA0155301596000000000000
B0536403245584S11703564EA0154601588000000000000
B0536443245669S11703578EA0154301589000000000000
B0536483245749S11703595EA0154901595000000000000
B0536523245829S11703613EA0155001593000000000000
B0536563245910S11703631EA0154501589000000000000
B0537003245995S11703648EA0154201586000000000000
B0537043246081S11703664EA0154301587000000000000
B0537083246168S11703679EA0154001582000000000000
B0537123246252S11703692EA0153301574000000000000
B0537163246337S11703704EA0152201563000000000000
B0537203246423S11703715EA0150901554000000000000
B0537243246507S11703718EA0150601551000000000000
B0537283246590S11703726EA0150501553000000000000
B0537323246668S11703733EA0151301566000000000000
B0537363246742S11703743EA0152501575000000000000
B0537403246817S11703756EA0153001579000000000000
B0537443246892S11703772EA0153901591000000000000
B0537483246962S11703795EA0155601610000000000000
B0537523247028S11703794EA0156701610000000000000
B0537563247053S11703720EA0156401612000000000000
B0538003247012S11703653EA0156901619000000000000
B0538043246939S11703660EA0158001631000000000000
B0538083246888S11703713EA0158601637000000000000
B0538123246888S11703791EA0158801636000000000000
B0538163246941S11703839EA0158601634000000000000
B0538203247006S11703867EA0158401633000000000000
B0538243247074S11703890EA0158101628000000000000
B0538283247143S11703910EA0157301619000000000000
B0538323247217S11703929EA0156301608000000000000
B0538363247291S11703945EA0156001607000000000000
B0538403247368S11703956EA0155401600000000000000
B0538443247448S11703969EA0154201585000000000000
B0538483247534S11703981EA0153201572000000000000
B0538523247621S11703995EA0151701557000000000000
B0538563247708S11704011EA0150501548000000000000
B0539003247795S11704025EA0149201532000000000000
B0539043247885S11704041EA0147501517000000000000
B0539083247974S11704058EA0146601510000000000000
B0539123248061S11704073EA0146301510000000000000
B0539163248143S11704090EA0146601512000000000000
B0539203248221S11704107EA0146601515000000000000
B0539243248295S11704121EA0146401506000000000000
B0539283248369S11704142EA0145301492000000000000
B0539323248448S11704162EA0143701478000000000000
B0539363248527S11704183EA0142601471000000000000
B0539403248607S11704205EA0142101465000000000000
B0539443248685S11704225EA0141501462000000000000
B0539483248761S11704246EA0141201458000000000000
B0539523248838S11704264EA0140901453000000000000
B0539563248911S11704285EA0140401448000000000000
B0540003248982S11704306EA0140101445000000000000
B0540043249050S11704326EA0139701441000000000000
B0540083249119S11704342EA0138901429000000000000
B0540123249189S11704363EA0137501416000000000000
B0540163249261S11704389EA0136201403000000000000
B0540203249335S11704417EA0135501399000000000000
B0540243249407S11704445EA0135101394000000000000
B0540283249482S11704472EA0134701393000000000000
B0540323249554S11704500EA0135101396000000000000
B0540363249626S11704519EA0135401399000000000000
B0540403249699S11704534EA0135401400000000000000
B0540443249769S11704550EA0135001394000000000000
B0540483249838S11704574EA0134601389000000000000
B0540523249907S11704593EA0133401378000000000000
B0540563249977S11704623EA0132601368000000000000
B0541003250041S11704670EA0131801361000000000000
B0541043250099S11704730EA0131001355000000000000
B0541083250150S11704799EA0130201344000000000000
B0541123250195S11704872EA0129201335000000000000
B0541163250232S11704950EA0128401327000000000000
B0541203250268S11705026EA0127701321000000000000
B0541243250302S11705103EA0127401322000000000000
B0541283250325S11705181EA0128001331000000000000
B0541323250347S11705255EA0128601331000000000000
B0541363250372S11705329EA0128001322000000000000
B0541403250403S11705399EA0127201314000000000000
B0541443250438S11705468EA0126401306000000000000
B0541483250476S11705536EA0125801298000000000000
B0541523250524S11705596EA0125001292000000000000
B0541563250584S11705639EA0124301285000000000000
B0542003250649S11705674EA0124301288000000000000
B0542043250710S11705710EA0124601293000000000000
B0542083250767S11705745EA0124701290000000000000
B0542123250831S11705774EA0124301285000000000000
B0542163250899S11705796EA0124701292000000000000
B0542203250964S11705809EA0125201293000000000000
B0542243251032S11705813EA0124001275000000000000
B0542283251108S11705810EA0122101257000000000000
B0542323251187S11705806EA0121201253000000000000
B0542363251265S11705802EA0121101250000000000000
B0542403251343S11705798EA0120901250000000000000
B0542443251421S11705801EA0120301241000000000000
B0542483251500S11705801EA0119601234000000000000
B0542523251580S11705797EA0118701225000000000000
B0542563251660S11705795EA0117601217000000000000
B0543003251740S11705798EA0117001211000000000000
B0543043251819S11705804EA0116101201000000000000
B0543083251900S11705811EA0114701186000000000000
B0543123251980S11705822EA0113401177000000000000
B0543163252061S11705831EA0112501166000000000000
B0543203252139S11705832EA0112501172000000000000
B0543243252209S11705826EA0113401181000000000000
B0543283252277S11705824EA0113001171000000000000
B0543323252345S11705824EA0112801174000000000000
B0543363252409S11705843EA0113401185000000000000
B0543403252469S11705870EA0114501196000000000000
B0543443252527S11705901EA0114801195000000000000
B0543483252589S11705932EA0114401190000000000000
B0543523252652S11705943EA0115401200000000000000
B0543563252686S11705887EA0116201205000000015000
B0544003252650S11705826EA0115801193000000015000
B0544043252578S11705836EA0114601189000000015000
B0544083252540S11705909EA0114501191000000015000
B0544123252539S11705992EA0114601191000000015000
B0544163252559S11706075EA0114401188000000015000
B0544203252583S11706159EA0114301185000000015000
B0544243252637S11706205EA0114201188000000015000
B0544283252699S11706203EA0114401192000000015000
B0544323252763S11706190EA0114301189000000015000
B0544363252829S11706177EA0113701181000000015000
B0544403252897S11706162EA0113601180000000015000
B0544443252966S11706143EA0113001171000000000000
B0544483253038S11706127EA0112101164000000000000
B0544523253111S11706109EA0111701161000000000000
B0544563253185S11706091EA0111001154000000000000
B0545003253262S11706073EA0110401147000000000000
B0545043253337S11706053EA0110301148000000000000
B0545083253414S11706043EA0109601138000000000000
B0545123253492S11706034EA0108501124000000000000
B0545163253573S11706019EA0107001108000000000000
B0545203253656S11706001EA0105601097000000000000
B0545243253739S11705984EA0104401085000000000000
B0545283253824S11705969EA0103301076000000000000
B0545323253905S11705949EA0102501066000000000000
B0545363253987S11705923EA0101701059000000000000
B0545403254068S11705895EA0101101050000000000000
B0545443254147S11705863EA0100201039000000000000
B0545483254227S11705830EA0098801026000000000000
B0545523254306S11705795EA0097601014000000000000
B0545563254384S11705757EA0096401006000000000000
B0546003254459S11705720EA0096001003000000000000
B0546043254533S11705681EA0095500998000000000000
B0546083254606S11705641EA0095200994000000000000
B0546123254676S11705597EA0094700991000000000000
B0546163254748S11705555EA0094600992000000000000
B0546203254818S11705516EA0095100998000000000000
B0546243254886S11705476EA0095500999000000000000
B0546283254948S11705429EA0095500999000000000000
B0546323255010S11705381EA0095100993000000000000
B0546363255068S11705330EA0095200997000000000000
B0546403255129S11705298EA0095601003000000000000
B0546443255190S11705276EA0096401014000000000000
B0546483255224S11705219EA0097601026000000000000
B0546523255181S11705163EA0098701038000000000000
B0546563255116S11705182EA0099201041000000000000
B0547003255092S11705250EA0099701045000000000000
B0547043255122S11705298EA0100501055000000000000
B0547083255166S11705280EA0101401058000000015000
B0547123255156S11705213EA0101801063000000015000
B0547163255091S11705193EA0102201068000000015000
B0547203255035S11705239EA0102101065000000015000
B0547243255029S11705311EA0102501076000000015000
B0547283255068S11705347EA0103601084000000015000
B0547323255108S11705315EA0104101088000000015000
B0547363255092S11705243EA0104701099000000015000
B0547403255027S11705226EA0105701105000000015000
B0547443254974S11705276EA0105801104000000015000
B0547483254978S11705345EA0106201110000000015000
B0547523255025S11705368EA0106601115000000015000
B0547563255069S11705329EA0107001118000000015000
B0548003255075S11705256EA0107801126000000015000
B0548043255018S11705220EA0108801139000000015000
B0548083254960S11705256EA0108901132000000015000
B0548123254948S11705332EA0108601135000000015000
B0548163254988S11705376EA0109401145000000015000
B0548203255038S11705358EA0110101148000000015000
B0548243255061S11705294EA0110401149000000015000
B0548283255027S11705225EA0111001157000000015000
B0548323254958S11705230EA0111801168000000015000
B0548363254919S11705294EA0112301170000000015000
B0548403254929S11705364EA0112801179000000015000
B0548443254977S11705376EA0113701184000000015000
B0548483255005S11705320EA0113501181000000015000
B0548523254979S11705247EA0113301180000000015000
B0548563254908S11705213EA0113701187000000015000
B0549003254832S11705232EA0114401195000000015000
B0549043254791S11705298EA0115001200000000015000
B0549083254804S11705364EA0115501205000000015000
B0549123254851S11705392EA0115301195000000015000
B0549163254910S11705372EA0114001182000000015000
B0549203254973S11705333EA0113301180000000015000
B0549243255036S11705288EA0113501182000000015000
B0549283255099S11705238EA0113701187000000000000
B0549323255159S11705187EA0114801200000000000000
B0549363255181S11705113EA0116701219000000000000
B0549403255129S11705076EA0118801246000000000000
B0549443255086S11705125EA0120901263000000015000
B0549483255112S11705180EA0122101273000000015000
B0549523255160S11705163EA0123101278000000015000
B0549563255165S11705099EA0123501281000000015000
B0550003255117S11705057EA0124601299000000015000
B0550043255060S11705087EA0126501319000000015000
B0550083255055S11705156EA0128201334000000015000
B0550123255098S11705191EA0129301342000000015000
B0550163255143S11705164EA0129701343000000015000
B0550203255148S11705096EA0129701342000000015000
B0550243255099S11705052EA0130101356000000015000
B0550283255036S11705068EA0132201383000000015000
B0550323255022S11705134EA0134201399000000015000
B0550363255064S11705174EA0135601407000000015000
B0550403255111S11705142EA0136001403000000015000
B0550443255109S11705065EA0135701404000000015000
B0550483255051S11705021EA0137001426000000015000
B0550523254991S11705050EA0139501453000000015000
B0550563254978S11705122EA0141401469000000015000
B0551003255020S11705172EA0143001481000000015000
B0551043255074S11705156EA0144001493000000015000
B0551083255096S11705096EA0144801497000000015000
B0551123255069S11705037EA0145601511000000015000
B0551163255010S11705028EA0147001528000000015000
B0551203254971S11705081EA0148701544000000015000
B0551243254988S11705150EA0150001557000000015000
B0551283255042S11705165EA0151501569000000015000
B0551323255078S11705117EA0151801565000000015000
B0551363255068S11705046EA0151801567000000015000
B0551403255027S11704983EA0152301571000000015000
B0551443254958S11704983EA0153101592000000015000
B0551483254936S11705052EA0155301612000000015000
B0551523254984S11705093EA0156701623000000015000
B0551563255033S11705054EA0158201636000000015000
B0552003255021S11704985EA0159201640000000015000
B0552043254957S11704959EA0159601646000000015000
B0552083254901S11705011EA0160501658000000015000
B0552123254901S11705093EA0161901674000000015000
B0552163254956S11705135EA0163501691000000015000
B0552203255017S11705115EA0165001703000000015000
B0552243255042S11705051EA0166501719000000015000
B0552283255009S11704992EA0167101723000000015000
B0552323254943S11704989EA0167001722000000015000
B0552363254901S11705052EA0167901741000000015000
B0552403254914S11705122EA0169501754000000015000
B0552443254969S11705158EA0170701763000000015000
B0552483255026S11705138EA0171801770000000015000
B0552523255062S11705080EA0171401759000000015000
B0552563255053S11705002EA0170601753000000015000
B0553003254994S11704959EA0170501753000000015000
B0553043254926S11704986EA0170201747000000015000
B0553083254914S11705068EA0170001749000000015000
B0553123254964S11705120EA0170101751000000015000
B0553163255033S11705117EA0169701741000000015000
B0553203255104S11705089EA0168301726000000015000
B0553243255176S11705052EA0167301718000000015000
B0553283255242S11705009EA0166801713000000000000
B0553323255308S11704965EA0166201708000000000000
B0553363255374S11704921EA0166001709000000000000
B0553403255437S11704874EA0166201711000000000000
B0553443255495S11704831EA0166201711000000000000
B0553483255554S11704801EA0166201713000000000000
B0553523255610S11704779EA0166001709000000000000
B0553563255667S11704760EA0165601706000000000000
B0554003255724S11704740EA0164801696000000000000
B0554043255781S11704714EA0164001687000000000000
B0554083255813S11704647EA0163101677000000000000
B0554123255788S11704569EA0162501672000000000000
B0554163255722S11704527EA0161901669000000000000
B0554203255649S11704508EA0161701666000000000000
B0554243255572S11704489EA0161201657000000000000
B0554283255491S11704465EA0161001664000000000000
B0554323255413S11704443EA0162301679000000000000
B0554363255335S11704431EA0164101697000000000000
B0554403255278S11704484EA0165701713000000000000
B0554443255295S11704556EA0167401729000000000000
B0554483255346S11704563EA0168101733000000015000
B0554523255376S11704510EA0168601738000000015000
B0554563255352S11704441EA0169401751000000015000
B0555003255287S11704420EA0170801767000000015000
B0555043255228S11704462EA0172801789000000015000
B0555083255215S11704535EA0174501800000000015000
B0555123255250S11704587EA0175201801000000015000
B0555163255304S11704580EA0175301801000000015000
B0555203255333S11704519EA0175601805000000015000
B0555243255309S11704449EA0176701821000000015000
B0555283255246S11704426EA0178401836000000015000
B0555323255183S11704465EA0179301853000000015000
B0555363255166S11704540EA0180801864000000015000
B0555403255207S11704589EA0181601870000000015000
B0555443255256S11704570EA0182301876000000015000
B0555483255267S11704502EA0182701878000000015000
B0555523255226S11704432EA0182501876000000015000
B0555563255163S11704374EA0182801874000000015000
B0556003255088S11704319EA0182501872000000015000
B0556043255008S11704267EA0182701876000000000000
B0556083254925S11704214EA0182301860000000000000
B0556123254839S11704157EA0181001853000000000000
B0556163254753S11704101EA0180601852000000000000
B0556203254667S11704043EA0180401847000000000000
B0556243254579S11703984EA0180001843000000000000
B0556283254490S11703925EA0179701840000000000000
B0556323254402S11703867EA0179401840000000000000
B0556363254315S11703809EA0179101833000000000000
B0556403254227S11703750EA0178201821000000000000
B0556443254136S11703690EA0177101810000000000000
B0556483254045S11703629EA0175801795000000000000
B0556523253951S11703572EA0174501786000000000000
B0556563253856S11703520EA0174001781000000000000
B0557003253762S11703470EA0173301775000000000000
B0557043253670S11703425EA0172701772000000000000
B0557083253580S11703380EA0172301766000000000000
B0557123253489S11703339EA0172001765000000000000
B0557163253400S11703300EA0172001766000000000000
B0557203253309S11703265EA0171401756000000000000
B0557243253218S11703231EA0171201759000000000000
B0557283253128S11703197EA0171501762000000000000
B0557323253042S11703159EA0171601763000000000000
B0557363252956S11703124EA0171601764000000000000
B0557403252872S11703088EA0171701766000000000000
B0557443252789S11703053EA0171701765000000000000
B0557483252704S11703020EA0171201754000000000000
B0557523252617S11702984EA0170101743000000000000
B0557563252527S11702946EA0168901733000000000000
B0558003252436S11702912EA0168001722000000000000
B0558043252345S11702879EA0166901711000000000000
B0558083252254S11702845EA0165801703000000000000
B0558123252165S11702814EA0165501702000000000000
B0558163252082S11702786EA0165901709000000000000
B0558203252004S11702760EA0166601715000000000000
B0558243251928S11702733EA0166301707000000000000
B0558283251848S11702706EA0165401698000000000000
B0558323251764S11702680EA0164501688000000000000
B0558363251680S11702654EA0163701682000000000000
B0558403251597S11702629EA0163601681000000000000
B0558443251516S11702610EA0163401683000000000000
B0558483251438S11702597EA0163201679000000000000
B0558523251359S11702589EA0162601670000000000000
B0558563251277S11702582EA0161601660000000000000
B0559003251192S11702573EA0160601651000000000000
B0559043251107S11702556EA0159801642000000000000
B0559083251021S11702538EA0159001635000000000000
B0559123250934S11702515EA0158201624000000000000
B0559163250849S11702490EA0157501622000000000000
B0559203250766S11702464EA0157301620000000000000
B0559243250683S11702444EA0157801631000000000000
B0559283250601S11702428EA0158901642000000000000
B0559323250524S11702413EA0160601661000000000000
B0559363250453S11702434EA0162201676000000000000
B0559403250429S11702506EA0163201685000000000000
B0559443250462S11702554EA0163801691000000000000
B0559483250505S11702546EA0164201693000000015000
B0559523250527S11702494EA0164201691000000015000
B0559563250518S11702428EA0164601700000000015000
B0600003250479S11702370EA0165401707000000000000
B0600043250414S11702337EA0166101714000000000000
B0600083250354S11702368EA0167401729000000000000
B0600123250353S11702437EA0167601722000000000000
B0600163250399S11702463EA0167301724000000015000
B0600203250432S11702422EA0167901734000000015000
B0600243250425S11702360EA0168901741000000015000
B0600283250384S11702307EA0169501746000000015000
B0600323250320S11702275EA0170001751000000015000
B0600363250247S11702272EA0170301753000000000000
B0600403250172S11702282EA0170301751000000000000
B0600443250094S11702296EA0170101749000000000000
B0600483250013S11702311EA0169801745000000000000
B0600523249929S11702329EA0169101738000000000000
B0600563249842S11702347EA0168701734000000000000
B0601003249757S11702365EA0168901740000000000000
B0601043249675S11702382EA0169301742000000000000
B0601083249593S11702395EA0168801734000000000000
B0601123249509S11702408EA0168101726000000000000
B0601163249423S11702422EA0167401717000000000000
B0601203249337S11702438EA0166701713000000000000
B0601243249253S11702454EA0166201710000000000000
B0601283249167S11702469EA0165501699000000000000
B0601323249084S11702486EA0164701693000000000000
B0601363249004S11702503EA0164401690000000000000
B0601403248926S11702515EA0163501680000000000000
B0601443248847S11702524EA0162201666000000000000
B0601483248761S11702533EA0160901654000000000000
B0601523248674S11702538EA0160601653000000000000
B0601563248588S11702537EA0160401649000000000000
B0602003248503S11702532EA0159801642000000000000
B0602043248414S11702526EA0159101636000000000000
B0602083248327S11702516EA0159101639000000000000
B0602123248245S11702506EA0160201655000000000000
B0602163248171S11702493EA0160801653000000000000
B0602203248093S11702483EA0160401651000000000000
B0602243248015S11702473EA0161401668000000000000
B0602283247946S11702448EA0162901685000000000000
B0602323247880S11702446EA0164201695000000000000
B0602363247847S11702503EA0165701718000000000000
B0602403247881S11702545EA0167301727000000000000
B0602443247932S11702520EA0167801728000000015000
B0602483247948S11702448EA0168201735000000015000
B0602523247906S11702389EA0168901738000000015000
B0602563247836S11702386EA0168901738000000015000
B0603003247789S11702443EA0169401749000000015000
B0603043247789S11702517EA0170501758000000015000
B0603083247812S11702589EA0170701755000000000000
B0603123247870S11702634EA0170801760000000015000
B0603163247937S11702654EA0171701769000000015000
B0603203247987S11702610EA0172501778000000015000
B0603243247976S11702538EA0173201783000000015000
B0603283247929S11702480EA0173601785000000015000
B0603323247871S11702429EA0174101790000000015000
B0603363247798S11702402EA0174901798000000000000
B0603403247727S11702430EA0175601807000000000000
B0603443247659S11702481EA0175601803000000000000
B0603483247578S11702520EA0175801808000000000000
B0603523247490S11702541EA0176401816000000000000
B0603563247399S11702551EA0176901818000000000000
B0604003247305S11702554EA0176901813000000000000
B0604043247207S11702552EA0176201807000000000000
B0604083247104S11702555EA0175801803000000000000
B0604123247002S11702555EA0176301813000000000000
B0604163246902S11702558EA0176201802000000000000
B0604203246797S11702556EA0174901792000000000000
B0604243246693S11702555EA0175501802000000000000
B0604283246592S11702555EA0175201795000000000000
B0604323246489S11702555EA0173401774000000000000
B0604363246382S11702551EA0172001759000000000000
B0604403246276S11702547EA0171101754000000000000
B0604443246172S11702543EA0170701747000000000000
B0604483246065S11702537EA0169901738000000000000
B0604523245960S11702530EA0168901730000000000000
B0604563245853S11702524EA0167701715000000000000
B0605003245748S11702521EA0166501706000000000000
B0605043245645S11702520EA0165501695000000000000
B0605083245545S11702520EA0164501684000000000000
B0605123245445S11702522EA0163401673000000000000
B0605163245348S11702522EA0162601668000000000000
B0605203245255S11702525EA0162501671000000000000
B0605243245172S11702532EA0162901674000000000000
B0605283245090S11702541EA0162101660000000000000
B0605323245006S11702551EA0161001652000000000000
B0605363244921S11702560EA0160401648000000000000
B0605403244837S11702572EA0160401651000000000000
B0605443244756S11702594EA0161001660000000000000
B0605483244683S11702621EA0162401676000000000000
B0605523244642S11702689EA0164101687000000000000
B0605563244678S11702753EA0164801695000000000000
B0606003244730S11702724EA0165801711000000015000
B0606043244727S11702652EA0167301722000000015000
B0606083244677S11702610EA0168101729000000015000
B0606123244614S11702628EA0168601732000000015000
B0606163244582S11702694EA0169001738000000015000
B0606203244603S11702764EA0169901750000000015000
B0606243244662S11702782EA0170201753000000015000
B0606283244703S11702728EA0170801763000000015000
B0606323244682S11702656EA0172001774000000015000
B0606363244622S11702633EA0173301787000000015000
B0606403244578S11702684EA0174001792000000015000
B0606443244583S11702758EA0174801800000000015000
B0606483244636S11702789EA0175401808000000015000
B0606523244678S11702743EA0176601823000000030000
B0606563244661S11702677EA0177601826000000030000
B0607003244601S11702655EA0178201830000000015000
B0607043244547S11702699EA0178401833000000015000
B0607083244540S11702773EA0179201851000000015000
B0607123244579S11702819EA0181001869000000015000
B0607163244634S11702811EA0182401878000000030000
B0607203244669S11702762EA0183201886000000030000
B0607243244662S11702694EA0184001891000000015000
B0607283244614S11702654EA0184601898000000015000
B0607323244555S11702671EA0184801896000000015000
B0607363244526S11702736EA0185501908000000015000
B0607403244547S11702802EA0186601920000000015000
B0607443244599S11702836EA0187701931000000015000
B0607483244652S11702806EA0188901940000000015000
B0607523244664S11702737EA0189501940000000030000
B0607563244626S11702676EA0190001950000000015000
B0608003244564S11702659EA0190501949000000015000
B0608043244493S11702662EA0189601939000000015000
B0608083244412S11702667EA0188601929000000015000
B0608123244324S11702675EA0187701919000000000000
B0608163244231S11702680EA0186501906000000000000
B0608203244132S11702680EA0185301894000000000000
B0608243244033S11702675EA0184301880000000000000
B0608283243932S11702664EA0182601863000000000000
B0608323243829S11702655EA0181601857000000000000
B0608363243726S11702646EA0180901848000000000000
B0608403243624S11702633EA0180401846000000000000
B0608443243522S11702624EA0180201846000000000000
B0608483243425S11702616EA0179901840000000000000
B0608523243327S11702606EA0179401837000000000000
B0608563243231S11702591EA0179101835000000000000
B0609003243138S11702574EA0178701828000000000000
B0609043243044S11702559EA0178001821000000000000
B0609083242950S11702541EA0177001811000000000000
B0609123242857S11702521EA0176001803000000000000
B0609163242764S11702499EA0175601800000000000000
B0609203242671S11702476EA0174501787000000000000
B0609243242575S11702452EA0173301776000000000000
B0609283242481S11702430EA0172901772000000000000
B0609323242387S11702407EA0172501768000000000000
B0609363242294S11702387EA0171901759000000000000
B0609403242202S11702368EA0171201755000000000000
B0609443242111S11702351EA0171001755000000000000
B0609483242023S11702335EA0170701751000000000000
B0609523241934S11702324EA0170201745000000000000
B0609563241845S11702321EA0170501754000000000000
B0610003241763S11702317EA0171401761000000000000
B0610043241683S11702308EA0170601742000000000000
B0610083241593S11702290EA0168401721000000000000
B0610123241500S11702273EA0166901708000000000000
B0610163241405S11702252EA0165801695000000000000
B0610203241306S11702230EA0164401683000000000000
B0610243241206S11702209EA0163401671000000000000
B0610283241103S11702188EA0162501664000000000000
B0610323241002S11702168EA0161901659000000000000
B0610363240902S11702149EA0161201650000000000000
B0610403240799S11702134EA0160201639000000000000
B0610443240697S11702121EA0159201629000000000000
B0610483240597S11702110EA0158501625000000000000
B0610523240500S11702100EA0158101621000000000000
B0610563240404S11702087EA0157601616000000000000
B0611003240309S11702066EA0156801607000000000000
B0611043240214S11702040EA0155701597000000000000
B0611083240122S11702010EA0154801585000000000000
B0611123240028S11701982EA0153601571000000000000
B0611163239934S11701957EA0152201562000000000000
B0611203239841S11701936EA0151501554000000000000
B0611243239747S11701911EA0150901551000000000000
B0611283239656S11701883EA0150501542000000000000
B0611323239563S11701857EA0149201527000000000000
B0611363239468S11701835EA0148301522000000000000
B0611403239375S11701814EA0148001523000000000000
B0611443239286S11701797EA0147701518000000000000
B0611483239199S11701785EA0147301514000000000000
B0611523239113S11701774EA0147001514000000000000
B0611563239031S11701755EA0147401519000000000000
B0612003238952S11701736EA0147501517000000000000
B0612043238872S11701711EA0147501523000000000000
B0612083238802S11701674EA0149101543000000000000
B0612123238733S11701651EA0150601550000000000000
B0612163238686S11701700EA0150601550000000000000
B0612203238711S11701759EA0150901558000000000000
B0612243238768S11701772EA0151401563000000015000
B0612283238824S11701741EA0152401576000000015000
B0612323238848S11701671EA0153601587000000015000
B0612363238815S11701605EA0154901597000000015000
B0612403238751S11701607EA0155401604000000015000
B0612443238725S11701666EA0156101608000000015000
B0612483238757S11701718EA0155901605000000015000
B0612523238818S11701727EA0156201611000000015000
B0612563238854S11701663EA0157201621000000030000
B0613003238822S11701597EA0158201627000000015000
B0613043238755S11701581EA0158401626000000015000
B0613083238703S11701631EA0158601630000000015000
B0613123238701S11701701EA0158701631000000015000
B0613163238740S11701762EA0158901631000000015000
B0613203238801S11701775EA0159801638000000015000
B0613243238846S11701724EA0160401642000000030000
B0613283238840S11701642EA0160601645000000030000
B0613323238809S11701560EA0160701649000000015000
B0613363238755S11701502EA0161501657000000015000
B0613403238685S11701506EA0161801663000000015000
B0613443238651S11701570EA0162101667000000015000
B0613483238659S11701641EA0162101661000000015000
B0613523238708S11701687EA0161601659000000015000
B0613563238779S11701694EA0161501660000000015000
B0614003238849S11701694EA0161901665000000015000
B0614043238914S11701671EA0162401667000000015000
B0614083238935S11701596EA0162501669000000015000
B0614123238905S11701518EA0162101664000000015000
B0614163238862S11701438EA0161801661000000015000
B0614203238801S11701375EA0162601673000000000000
B0614243238738S11701401EA0164401693000000000000
B0614283238744S11701466EA0165401699000000015000
B0614323238797S11701482EA0165901703000000015000
B0614363238838S11701433EA0166501710000000030000
B0614403238815S11701363EA0167401720000000015000
B0614443238750S11701351EA0168001726000000015000
B0614483238706S11701407EA0168301731000000015000
B0614523238719S11701475EA0168901738000000015000
B0614563238772S11701494EA0169201737000000015000
B0615003238819S11701449EA0169201737000000030000
B0615043238837S11701371EA0169301741000000015000
B0615083238809S11701293EA0169701744000000015000
B0615123238746S11701242EA0169701742000000015000
B0615163238668S11701232EA0170101752000000015000
B0615203238593S11701245EA0171101759000000015000
B0615243238516S11701261EA0170901751000000000000
B0615283238433S11701284EA0170501750000000000000
B0615323238348S11701310EA0170801755000000000000
B0615363238264S11701337EA0171301756000000000000
B0615403238181S11701368EA0170801749000000000000
B0615443238097S11701401EA0170301747000000000000
B0615483238013S11701432EA0170101745000000000000
B0615523237928S11701455EA0169901742000000000000
B0615563237844S11701471EA0170201744000000000000
B0616003237762S11701498EA0170101743000000000000
B0616043237683S11701536EA0169601738000000000000
B0616083237601S11701571EA0169001736000000000000
B0616123237515S11701585EA0169301742000000000000
B0616163237431S11701581EA0170001749000000000000
B0616203237353S11701567EA0170401751000000000000
B0616243237273S11701554EA0170301749000000000000
B0616283237189S11701545EA0169601741000000000000
B0616323237103S11701534EA0169601746000000000000
B0616363237020S11701518EA0170301753000000000000
B0616403236935S11701494EA0170801755000000000000
B0616443236860S11701511EA0171901767000000000000
B0616483236842S11701581EA0171701755000000000000
B0616523236894S11701614EA0170301743000000015000
B0616563236950S11701577EA0169701740000000015000
B0617003236978S11701499EA0169901745000000015000
B0617043236981S11701412EA0170701752000000015000
B0617083236940S11701332EA0170701752000000015000
B0617123236865S11701285EA0170401747000000015000
B0617163236781S11701260EA0170001744000000015000
B0617203236687S11701242EA0169401736000000015000
B0617243236592S11701228EA0169001730000000015000
B0617283236493S11701212EA0168101714000000015000
B0617323236393S11701196EA0167101704000000015000
B0617363236290S11701182EA0165701691000000015000
B0617403236188S11701164EA0164701682000000015000
B0617443236086S11701146EA0164101675000000015000
B0617483235985S11701129EA0162601659000000015000
B0617523235882S11701115EA0161801655000000015000
B0617563235787S11701099EA0161901658000000015000
B0618003235696S11701082EA0161501655000000015000
B0618043235607S11701068EA0161001645000000000000
B0618083235516S11701052EA0160001636000000000000
B0618123235426S11701039EA0159201630000000000000
B0618163235335S11701026EA0158401620000000000000
B0618203235244S11701012EA0157201608000000000000
B0618243235152S11700998EA0156101597000000000000
B0618283235058S11700981EA0155001582000000000000
B0618323234963S11700961EA0153601568000000000000
B0618363234868S11700942EA0152301557000000000000
B0618403234773S11700922EA0151301546000000000000
B0618443234677S11700901EA0150101533000000000000
B0618483234578S11700883EA0148401515000000000000
B0618523234480S11700865EA0148101517000000000000
B0618563234383S11700855EA0149401537000000000000
B0619003234294S11700842EA0150501545000000000000
B0619043234205S11700826EA0149601530000000000000
B0619083234113S11700812EA0148701521000000000000
B0619123234019S11700793EA0148001513000000000000
B0619163233924S11700775EA0146601499000000000000
B0619203233830S11700761EA0145801492000000000000
B0619243233736S11700747EA0145101487000000000000
B0619283233646S11700732EA0144401479000000000000
B0619323233555S11700719EA0143201466000000000000
B0619363233463S11700710EA0141701451000000000000
B0619403233369S11700701EA0140501439000000000000
B0619443233280S11700695EA0139801432000000000000
B0619483233190S11700695EA0138701416000000000000
B0619523233098S11700701EA0137401410000000000000
B0619563233014S11700712EA0138101421000000000000
B0620003232934S11700722EA0138601422000000015000
B0620043232856S11700731EA0138901428000000015000
B0620083232777S11700743EA0139701432000000015000
B0620123232721S11700795EA0141001446000000015000
B0620163232748S11700848EA0142701466000000015000
B0620203232799S11700822EA0144101477000000030000
B0620243232803S11700749EA0144301480000000030000
B0620283232753S11700696EA0144901489000000030000
B0620323232689S11700714EA0145601496000000030000
B0620363232674S11700782EA0146801510000000030000
B0620403232722S11700812EA0147801523000000030000
B0620443232764S11700764EA0149401533000000045000
B0620483232753S11700687EA0149901538000000045000
B0620523232695S11700650EA0151001553000000030000
B0620563232634S11700676EA0151901562000000030000
B0621003232613S11700743EA0152901575000000030000
B0621043232648S11700791EA0153701585000000030000
B0621083232701S11700779EA0154701594000000030000
B0621123232725S11700712EA0155301596000000045000
B0621163232696S11700639EA0156101609000000030000
B0621203232635S11700618EA0157201617000000030000
B0621243232585S11700661EA0158001626000000030000
B0621283232575S11700730EA0158901630000000030000
B0621323232623S11700754EA0159301635000000030000
B0621363232670S11700708EA0159601641000000030000
B0621403232678S11700632EA0160801654000000030000
B0621443232627S11700601EA0161901664000000030000
B0621483232582S11700645EA0162201667000000030000
B0621523232588S11700712EA0162701673000000030000
B0621563232637S11700735EA0163801684000000030000
B0622003232680S11700692EA0164401682000000045000
B0622043232671S11700614EA0164201688000000045000
B0622083232613S11700575EA0165001691000000030000
B0622123232545S11700596EA0165101696000000030000
B0622163232515S11700663EA0165701700000000030000
B0622203232546S11700725EA0165901701000000030000
B0622243232609S11700721EA0165801699000000030000
B0622283232649S11700657EA0166301707000000045000
B0622323232644S11700575EA0166901714000000045000
B0622363232601S11700507EA0167201712000000030000
B0622403232533S11700470EA0166901708000000030000
B0622443232455S11700485EA0166501706000000015000
B0622483232379S11700518EA0166801711000000015000
B0622523232310S11700563EA0168001724000000015000
B0622563232302S11700639EA0170001750000000015000
B0623003232355S11700641EA0172501774000000030000
B0623043232372S11700571EA0173701783000000030000
B0623083232333S11700510EA0174701794000000030000
B0623123232268S11700506EA0175801808000000030000
B0623163232231S11700563EA0176701814000000015000
B0623203232244S11700630EA0177301821000000030000
B0623243232293S11700650EA0178701839000000030000
B0623283232329S11700605EA0180201846000000045000
B0623323232311S11700532EA0180601849000000030000
B0623363232245S11700509EA0181301859000000030000
B0623403232194S11700553EA0182501871000000030000
B0623443232199S11700626EA0182901870000000030000
B0623483232250S11700661EA0183901887000000030000
B0623523232299S11700634EA0185101898000000045000
B0623563232320S11700570EA0185701902000000045000
B0624003232297S11700500EA0186301908000000045000
B0624043232237S11700466EA0186701912000000030000
B0624083232175S11700493EA0187401922000000030000
B0624123232146S11700558EA0188001926000000015000
B0624163232158S11700631EA0188801934000000030000
B0624203232208S11700669EA0189501937000000030000
B0624243232270S11700650EA0189801939000000030000
B0624283232309S11700587EA0189801939000000045000
B0624323232309S11700498EA0189401930000000045000
B0624363232262S11700419EA0189101942000000030000
B0624403232192S11700379EA0190201948000000030000
B0624443232112S11700363EA0190301949000000015000
B0624483232030S11700363EA0190201949000000015000
B0624523231947S11700371EA0190301951000000015000
B0624563231867S11700384EA0190501951000000015000
B0625003231789S11700403EA0190301948000000015000
B0625043231709S11700424EA0189801942000000015000
B0625083231629S11700441EA0189401938000000015000
B0625123231548S11700446EA0189001931000000015000
B0625163231465S11700439EA0188301925000000015000
B0625203231382S11700422EA0187901921000000000000
B0625243231301S11700403EA0187701920000000000000
B0625283231224S11700380EA0187401916000000000000
B0625323231146S11700353EA0186601907000000000000
B0625363231067S11700325EA0185801901000000000000
B0625403230988S11700299EA0185401896000000000000
B0625443230908S11700280EA0185101893000000000000
B0625483230830S11700264EA0184901892000000000000
B0625523230754S11700245EA0185001889000000000000
B0625563230678S11700229EA0184401886000000000000
B0626003230603S11700214EA0183901878000000000000
B0626043230526S11700202EA0183401873000000000000
B0626083230451S11700192EA0182601865000000000000
B0626123230374S11700184EA0181701850000000000000
B0626163230294S11700179EA0180301836000000000000
B0626203230212S11700173EA0179001827000000000000
B0626243230132S11700172EA0179001830000000000000
B0626283230054S11700168EA0179501838000000000000
B0626323229978S11700162EA0179701838000000000000
B0626363229905S11700159EA0179901841000000000000
B0626403229833S11700158EA0180501847000000000000
B0626443229764S11700164EA0181301857000000000000
B0626483229714S11700210EA0182101869000000000000
B0626523229705S11700277EA0183101877000000000000
B0626563229723S11700336EA0183801886000000000000
B0627003229758S11700379EA0184401889000000000000
B0627043229807S11700398EA0184501890000000000000
B0627083229859S11700392EA0184701893000000000000
B0627123229902S11700354EA0184901894000000000000
B0627163229927S11700292EA0184701891000000000000
B0627203229923S11700218EA0184501889000000000000
B0627243229889S11700154EA0184301887000000000000
B0627283229836S11700119EA0184201889000000000000
B0627323229777S11700121EA0184701894000000000000
B0627363229740S11700171EA0185101896000000000000
B0627403229755S11700233EA0185301899000000015000
B0627443229811S11700255EA0185401900000000015000
B0627483229863S11700214EA0185401894000000030000
B0627523229866S11700130EA0184601886000000030000
B0627563229810S11700072EA0183801878000000030000
B0628003229733S11700052EA0183101872000000015000
B0628043229653S11700046EA0183201874000000015000
B0628083229571S11700046EA0183101871000000015000
B0628123229486S11700051EA0182801867000000015000
B0628163229399S11700060EA0182501863000000015000
B0628203229308S11700073EA0181901856000000015000
B0628243229216S11700088EA0181401853000000015000
B0628283229126S11700102EA0182201865000000015000
B0628323229044S11700121EA0183501879000000015000
B0628363228966S11700151EA0184001882000000015000
B0628403228888S11700175EA0183501875000000000000
B0628443228806S11700193EA0182901866000000000000
B0628483228722S11700208EA0181901857000000000000
B0628523228635S11700218EA0181001844000000000000
B0628563228542S11700225EA0179501829000000000000
B0629003228445S11700228EA0179001827000000000000
B0629043228349S11700225EA0179101827000000000000
B0629083228254S11700220EA0178701822000000000000
B0629123228156S11700215EA0178201816000000000000
B0629163228058S11700208EA0177401805000000000000
B0629203227959S11700194EA0176601799000000000000
B0629243227861S11700164EA0176201795000000000000
B0629283227768S11700121EA0175301782000000000000
B0629323227673S11700073EA0174001772000000000000
B0629363227578S11700030EA0173201764000000000000
B0629403227488S11659991EA0173301771000000000000
B0629443227401S11659958EA0173801775000000000000
B0629483227315S11659924EA0173201767000000000000
B0629523227229S11659891EA0172901765000000000000
B0629563227144S11659856EA0172801766000000000000
B0630003227062S11659818EA0172701763000000000000
B0630043226981S11659774EA0172501766000000000000
B0630083226904S11659734EA0173501778000000000000
B0630123226830S11659700EA0174401784000000000000
B0630163226752S11659679EA0174801791000000000000
B0630203226672S11659677EA0175601797000000000000
B0630243226594S11659652EA0175801797000000000000
B0630283226563S11659571EA0176701818000000000000
B0630323226592S11659512EA0178201834000000015000
B0630363226643S11659499EA0179401841000000015000
B0630403226689S11659527EA0180401847000000015000
B0630443226715S11659582EA0181501857000000015000
B0630483226704S11659653EA0181801861000000015000
B0630523226659S11659712EA0182401866000000015000
B0630563226598S11659747EA0182701866000000015000
B0631003226524S11659744EA0182401865000000015000
B0631043226459S11659695EA0182401865000000015000
B0631083226422S11659617EA0182501866000000015000
B0631123226430S11659536EA0182801876000000015000
B0631163226464S11659475EA0183901888000000015000
B0631203226507S11659431EA0184701894000000015000
B0631243226553S11659388EA0185201899000000015000
B0631283226607S11659362EA0185901906000000015000
B0631323226660S11659374EA0186401913000000015000
B0631363226703S11659413EA0186801914000000015000
